{
	"smartContract/contracts/NewVote.sol": {
		"Union": {
			"abi": [
				{
					"inputs": [
						{
							"internalType": "string",
							"name": "_unionName",
							"type": "string"
						},
						{
							"internalType": "address",
							"name": "owner",
							"type": "address"
						}
					],
					"stateMutability": "nonpayable",
					"type": "constructor"
				},
				{
					"inputs": [],
					"name": "chairperson",
					"outputs": [
						{
							"internalType": "address",
							"name": "",
							"type": "address"
						}
					],
					"stateMutability": "view",
					"type": "function"
				},
				{
					"inputs": [
						{
							"internalType": "string",
							"name": "_subject",
							"type": "string"
						}
					],
					"name": "createOneSuggestion",
					"outputs": [
						{
							"components": [
								{
									"internalType": "string",
									"name": "subject",
									"type": "string"
								},
								{
									"internalType": "uint256",
									"name": "suggestionNo",
									"type": "uint256"
								},
								{
									"internalType": "uint256[]",
									"name": "unionMember",
									"type": "uint256[]"
								},
								{
									"internalType": "bool",
									"name": "status",
									"type": "bool"
								}
							],
							"internalType": "struct Union.Suggestion",
							"name": "",
							"type": "tuple"
						}
					],
					"stateMutability": "nonpayable",
					"type": "function"
				},
				{
					"inputs": [],
					"name": "suggestionNo",
					"outputs": [
						{
							"internalType": "uint256",
							"name": "",
							"type": "uint256"
						}
					],
					"stateMutability": "view",
					"type": "function"
				},
				{
					"inputs": [
						{
							"internalType": "uint256",
							"name": "",
							"type": "uint256"
						}
					],
					"name": "suggestions",
					"outputs": [
						{
							"internalType": "string",
							"name": "subject",
							"type": "string"
						},
						{
							"internalType": "uint256",
							"name": "suggestionNo",
							"type": "uint256"
						},
						{
							"internalType": "bool",
							"name": "status",
							"type": "bool"
						}
					],
					"stateMutability": "view",
					"type": "function"
				},
				{
					"inputs": [],
					"name": "unionName",
					"outputs": [
						{
							"internalType": "string",
							"name": "",
							"type": "string"
						}
					],
					"stateMutability": "view",
					"type": "function"
				},
				{
					"inputs": [
						{
							"internalType": "string",
							"name": "_subject",
							"type": "string"
						},
						{
							"internalType": "string",
							"name": "_answer",
							"type": "string"
						}
					],
					"name": "vote",
					"outputs": [
						{
							"components": [
								{
									"internalType": "string",
									"name": "subject",
									"type": "string"
								},
								{
									"internalType": "uint256",
									"name": "suggestionNo",
									"type": "uint256"
								},
								{
									"internalType": "uint256[]",
									"name": "unionMember",
									"type": "uint256[]"
								},
								{
									"internalType": "bool",
									"name": "status",
									"type": "bool"
								}
							],
							"internalType": "struct Union.Suggestion",
							"name": "",
							"type": "tuple"
						}
					],
					"stateMutability": "payable",
					"type": "function"
				},
				{
					"inputs": [],
					"name": "voter",
					"outputs": [
						{
							"internalType": "string",
							"name": "suggestion",
							"type": "string"
						},
						{
							"internalType": "address",
							"name": "addr",
							"type": "address"
						},
						{
							"internalType": "uint256",
							"name": "asset",
							"type": "uint256"
						},
						{
							"internalType": "bool",
							"name": "voted",
							"type": "bool"
						},
						{
							"internalType": "string",
							"name": "answer",
							"type": "string"
						}
					],
					"stateMutability": "view",
					"type": "function"
				}
			],
			"devdoc": {
				"kind": "dev",
				"methods": {},
				"version": 1
			},
			"evm": {
				"assembly": "    /* \"smartContract/contracts/NewVote.sol\":64:2892  contract Union{... */\n  mstore(0x40, 0x80)\n    /* \"smartContract/contracts/NewVote.sol\":932:1049  constructor(string memory _unionName,address owner){... */\n  callvalue\n  dup1\n  iszero\n  tag_1\n  jumpi\n  0x00\n  dup1\n  revert\ntag_1:\n  pop\n  mload(0x40)\n  sub(codesize, bytecodeSize)\n  dup1\n  bytecodeSize\n  dup4\n  codecopy\n  dup2\n  dup2\n  add\n  0x40\n  mstore\n  dup2\n  add\n  swap1\n  tag_2\n  swap2\n  swap1\n  tag_3\n  jump\t// in\ntag_2:\n    /* \"smartContract/contracts/NewVote.sol\":1006:1011  owner */\n  dup1\n    /* \"smartContract/contracts/NewVote.sol\":992:1003  chairperson */\n  0x00\n  dup1\n    /* \"smartContract/contracts/NewVote.sol\":992:1011  chairperson = owner */\n  0x0100\n  exp\n  dup2\n  sload\n  dup2\n  0xffffffffffffffffffffffffffffffffffffffff\n  mul\n  not\n  and\n  swap1\n  dup4\n  0xffffffffffffffffffffffffffffffffffffffff\n  and\n  mul\n  or\n  swap1\n  sstore\n  pop\n    /* \"smartContract/contracts/NewVote.sol\":1032:1042  _unionName */\n  dup2\n    /* \"smartContract/contracts/NewVote.sol\":1020:1029  unionName */\n  0x01\n    /* \"smartContract/contracts/NewVote.sol\":1020:1042  unionName = _unionName */\n  swap1\n  dup1\n  mload\n  swap1\n  0x20\n  add\n  swap1\n  tag_6\n  swap3\n  swap2\n  swap1\n  tag_7\n  jump\t// in\ntag_6:\n  pop\n    /* \"smartContract/contracts/NewVote.sol\":932:1049  constructor(string memory _unionName,address owner){... */\n  pop\n  pop\n    /* \"smartContract/contracts/NewVote.sol\":64:2892  contract Union{... */\n  jump(tag_8)\ntag_7:\n  dup3\n  dup1\n  sload\n  tag_9\n  swap1\n  tag_10\n  jump\t// in\ntag_9:\n  swap1\n  0x00\n  mstore\n  keccak256(0x00, 0x20)\n  swap1\n  0x1f\n  add\n  0x20\n  swap1\n  div\n  dup2\n  add\n  swap3\n  dup3\n  tag_12\n  jumpi\n  0x00\n  dup6\n  sstore\n  jump(tag_11)\ntag_12:\n  dup3\n  0x1f\n  lt\n  tag_13\n  jumpi\n  dup1\n  mload\n  not(0xff)\n  and\n  dup4\n  dup1\n  add\n  or\n  dup6\n  sstore\n  jump(tag_11)\ntag_13:\n  dup3\n  dup1\n  add\n  0x01\n  add\n  dup6\n  sstore\n  dup3\n  iszero\n  tag_11\n  jumpi\n  swap2\n  dup3\n  add\ntag_14:\n  dup3\n  dup2\n  gt\n  iszero\n  tag_15\n  jumpi\n  dup3\n  mload\n  dup3\n  sstore\n  swap2\n  0x20\n  add\n  swap2\n  swap1\n  0x01\n  add\n  swap1\n  jump(tag_14)\ntag_15:\ntag_11:\n  pop\n  swap1\n  pop\n  tag_16\n  swap2\n  swap1\n  tag_17\n  jump\t// in\ntag_16:\n  pop\n  swap1\n  jump\t// out\ntag_17:\ntag_18:\n  dup1\n  dup3\n  gt\n  iszero\n  tag_19\n  jumpi\n  0x00\n  dup2\n  0x00\n  swap1\n  sstore\n  pop\n  0x01\n  add\n  jump(tag_18)\ntag_19:\n  pop\n  swap1\n  jump\t// out\n    /* \"#utility.yul\":7:428   */\ntag_21:\n    /* \"#utility.yul\":96:101   */\n  0x00\n    /* \"#utility.yul\":121:187   */\n  tag_23\n    /* \"#utility.yul\":137:186   */\n  tag_24\n    /* \"#utility.yul\":179:185   */\n  dup5\n    /* \"#utility.yul\":137:186   */\n  tag_25\n  jump\t// in\ntag_24:\n    /* \"#utility.yul\":121:187   */\n  tag_26\n  jump\t// in\ntag_23:\n    /* \"#utility.yul\":112:187   */\n  swap1\n  pop\n    /* \"#utility.yul\":210:216   */\n  dup3\n    /* \"#utility.yul\":203:208   */\n  dup2\n    /* \"#utility.yul\":196:217   */\n  mstore\n    /* \"#utility.yul\":248:252   */\n  0x20\n    /* \"#utility.yul\":241:246   */\n  dup2\n    /* \"#utility.yul\":237:253   */\n  add\n    /* \"#utility.yul\":286:289   */\n  dup5\n    /* \"#utility.yul\":277:283   */\n  dup5\n    /* \"#utility.yul\":272:275   */\n  dup5\n    /* \"#utility.yul\":268:284   */\n  add\n    /* \"#utility.yul\":265:290   */\n  gt\n    /* \"#utility.yul\":262:374   */\n  iszero\n  tag_27\n  jumpi\n    /* \"#utility.yul\":293:372   */\n  tag_28\n  tag_29\n  jump\t// in\ntag_28:\n    /* \"#utility.yul\":262:374   */\ntag_27:\n    /* \"#utility.yul\":383:422   */\n  tag_30\n    /* \"#utility.yul\":415:421   */\n  dup5\n    /* \"#utility.yul\":410:413   */\n  dup3\n    /* \"#utility.yul\":405:408   */\n  dup6\n    /* \"#utility.yul\":383:422   */\n  tag_31\n  jump\t// in\ntag_30:\n    /* \"#utility.yul\":102:428   */\n  pop\n    /* \"#utility.yul\":7:428   */\n  swap4\n  swap3\n  pop\n  pop\n  pop\n  jump\t// out\n    /* \"#utility.yul\":434:577   */\ntag_32:\n    /* \"#utility.yul\":491:496   */\n  0x00\n    /* \"#utility.yul\":522:528   */\n  dup2\n    /* \"#utility.yul\":516:529   */\n  mload\n    /* \"#utility.yul\":507:529   */\n  swap1\n  pop\n    /* \"#utility.yul\":538:571   */\n  tag_34\n    /* \"#utility.yul\":565:570   */\n  dup2\n    /* \"#utility.yul\":538:571   */\n  tag_35\n  jump\t// in\ntag_34:\n    /* \"#utility.yul\":434:577   */\n  swap3\n  swap2\n  pop\n  pop\n  jump\t// out\n    /* \"#utility.yul\":597:952   */\ntag_36:\n    /* \"#utility.yul\":664:669   */\n  0x00\n    /* \"#utility.yul\":713:716   */\n  dup3\n    /* \"#utility.yul\":706:710   */\n  0x1f\n    /* \"#utility.yul\":698:704   */\n  dup4\n    /* \"#utility.yul\":694:711   */\n  add\n    /* \"#utility.yul\":690:717   */\n  slt\n    /* \"#utility.yul\":680:802   */\n  tag_38\n  jumpi\n    /* \"#utility.yul\":721:800   */\n  tag_39\n  tag_40\n  jump\t// in\ntag_39:\n    /* \"#utility.yul\":680:802   */\ntag_38:\n    /* \"#utility.yul\":831:837   */\n  dup2\n    /* \"#utility.yul\":825:838   */\n  mload\n    /* \"#utility.yul\":856:946   */\n  tag_41\n    /* \"#utility.yul\":942:945   */\n  dup5\n    /* \"#utility.yul\":934:940   */\n  dup3\n    /* \"#utility.yul\":927:931   */\n  0x20\n    /* \"#utility.yul\":919:925   */\n  dup7\n    /* \"#utility.yul\":915:932   */\n  add\n    /* \"#utility.yul\":856:946   */\n  tag_21\n  jump\t// in\ntag_41:\n    /* \"#utility.yul\":847:946   */\n  swap2\n  pop\n    /* \"#utility.yul\":670:952   */\n  pop\n    /* \"#utility.yul\":597:952   */\n  swap3\n  swap2\n  pop\n  pop\n  jump\t// out\n    /* \"#utility.yul\":958:1638   */\ntag_3:\n    /* \"#utility.yul\":1047:1053   */\n  0x00\n    /* \"#utility.yul\":1055:1061   */\n  dup1\n    /* \"#utility.yul\":1104:1106   */\n  0x40\n    /* \"#utility.yul\":1092:1101   */\n  dup4\n    /* \"#utility.yul\":1083:1090   */\n  dup6\n    /* \"#utility.yul\":1079:1102   */\n  sub\n    /* \"#utility.yul\":1075:1107   */\n  slt\n    /* \"#utility.yul\":1072:1191   */\n  iszero\n  tag_43\n  jumpi\n    /* \"#utility.yul\":1110:1189   */\n  tag_44\n  tag_45\n  jump\t// in\ntag_44:\n    /* \"#utility.yul\":1072:1191   */\ntag_43:\n    /* \"#utility.yul\":1251:1252   */\n  0x00\n    /* \"#utility.yul\":1240:1249   */\n  dup4\n    /* \"#utility.yul\":1236:1253   */\n  add\n    /* \"#utility.yul\":1230:1254   */\n  mload\n    /* \"#utility.yul\":1281:1299   */\n  0xffffffffffffffff\n    /* \"#utility.yul\":1273:1279   */\n  dup2\n    /* \"#utility.yul\":1270:1300   */\n  gt\n    /* \"#utility.yul\":1267:1384   */\n  iszero\n  tag_46\n  jumpi\n    /* \"#utility.yul\":1303:1382   */\n  tag_47\n  tag_48\n  jump\t// in\ntag_47:\n    /* \"#utility.yul\":1267:1384   */\ntag_46:\n    /* \"#utility.yul\":1408:1482   */\n  tag_49\n    /* \"#utility.yul\":1474:1481   */\n  dup6\n    /* \"#utility.yul\":1465:1471   */\n  dup3\n    /* \"#utility.yul\":1454:1463   */\n  dup7\n    /* \"#utility.yul\":1450:1472   */\n  add\n    /* \"#utility.yul\":1408:1482   */\n  tag_36\n  jump\t// in\ntag_49:\n    /* \"#utility.yul\":1398:1482   */\n  swap3\n  pop\n    /* \"#utility.yul\":1201:1492   */\n  pop\n    /* \"#utility.yul\":1531:1533   */\n  0x20\n    /* \"#utility.yul\":1557:1621   */\n  tag_50\n    /* \"#utility.yul\":1613:1620   */\n  dup6\n    /* \"#utility.yul\":1604:1610   */\n  dup3\n    /* \"#utility.yul\":1593:1602   */\n  dup7\n    /* \"#utility.yul\":1589:1611   */\n  add\n    /* \"#utility.yul\":1557:1621   */\n  tag_32\n  jump\t// in\ntag_50:\n    /* \"#utility.yul\":1547:1621   */\n  swap2\n  pop\n    /* \"#utility.yul\":1502:1631   */\n  pop\n    /* \"#utility.yul\":958:1638   */\n  swap3\n  pop\n  swap3\n  swap1\n  pop\n  jump\t// out\n    /* \"#utility.yul\":1644:1773   */\ntag_26:\n    /* \"#utility.yul\":1678:1684   */\n  0x00\n    /* \"#utility.yul\":1705:1725   */\n  tag_52\n  tag_53\n  jump\t// in\ntag_52:\n    /* \"#utility.yul\":1695:1725   */\n  swap1\n  pop\n    /* \"#utility.yul\":1734:1767   */\n  tag_54\n    /* \"#utility.yul\":1762:1766   */\n  dup3\n    /* \"#utility.yul\":1754:1760   */\n  dup3\n    /* \"#utility.yul\":1734:1767   */\n  tag_55\n  jump\t// in\ntag_54:\n    /* \"#utility.yul\":1644:1773   */\n  swap2\n  swap1\n  pop\n  jump\t// out\n    /* \"#utility.yul\":1779:1854   */\ntag_53:\n    /* \"#utility.yul\":1812:1818   */\n  0x00\n    /* \"#utility.yul\":1845:1847   */\n  0x40\n    /* \"#utility.yul\":1839:1848   */\n  mload\n    /* \"#utility.yul\":1829:1848   */\n  swap1\n  pop\n    /* \"#utility.yul\":1779:1854   */\n  swap1\n  jump\t// out\n    /* \"#utility.yul\":1860:2168   */\ntag_25:\n    /* \"#utility.yul\":1922:1926   */\n  0x00\n    /* \"#utility.yul\":2012:2030   */\n  0xffffffffffffffff\n    /* \"#utility.yul\":2004:2010   */\n  dup3\n    /* \"#utility.yul\":2001:2031   */\n  gt\n    /* \"#utility.yul\":1998:2054   */\n  iszero\n  tag_58\n  jumpi\n    /* \"#utility.yul\":2034:2052   */\n  tag_59\n  tag_60\n  jump\t// in\ntag_59:\n    /* \"#utility.yul\":1998:2054   */\ntag_58:\n    /* \"#utility.yul\":2072:2101   */\n  tag_61\n    /* \"#utility.yul\":2094:2100   */\n  dup3\n    /* \"#utility.yul\":2072:2101   */\n  tag_62\n  jump\t// in\ntag_61:\n    /* \"#utility.yul\":2064:2101   */\n  swap1\n  pop\n    /* \"#utility.yul\":2156:2160   */\n  0x20\n    /* \"#utility.yul\":2150:2154   */\n  dup2\n    /* \"#utility.yul\":2146:2161   */\n  add\n    /* \"#utility.yul\":2138:2161   */\n  swap1\n  pop\n    /* \"#utility.yul\":1860:2168   */\n  swap2\n  swap1\n  pop\n  jump\t// out\n    /* \"#utility.yul\":2174:2270   */\ntag_63:\n    /* \"#utility.yul\":2211:2218   */\n  0x00\n    /* \"#utility.yul\":2240:2264   */\n  tag_65\n    /* \"#utility.yul\":2258:2263   */\n  dup3\n    /* \"#utility.yul\":2240:2264   */\n  tag_66\n  jump\t// in\ntag_65:\n    /* \"#utility.yul\":2229:2264   */\n  swap1\n  pop\n    /* \"#utility.yul\":2174:2270   */\n  swap2\n  swap1\n  pop\n  jump\t// out\n    /* \"#utility.yul\":2276:2402   */\ntag_66:\n    /* \"#utility.yul\":2313:2320   */\n  0x00\n    /* \"#utility.yul\":2353:2395   */\n  0xffffffffffffffffffffffffffffffffffffffff\n    /* \"#utility.yul\":2346:2351   */\n  dup3\n    /* \"#utility.yul\":2342:2396   */\n  and\n    /* \"#utility.yul\":2331:2396   */\n  swap1\n  pop\n    /* \"#utility.yul\":2276:2402   */\n  swap2\n  swap1\n  pop\n  jump\t// out\n    /* \"#utility.yul\":2408:2715   */\ntag_31:\n    /* \"#utility.yul\":2476:2477   */\n  0x00\n    /* \"#utility.yul\":2486:2599   */\ntag_69:\n    /* \"#utility.yul\":2500:2506   */\n  dup4\n    /* \"#utility.yul\":2497:2498   */\n  dup2\n    /* \"#utility.yul\":2494:2507   */\n  lt\n    /* \"#utility.yul\":2486:2599   */\n  iszero\n  tag_71\n  jumpi\n    /* \"#utility.yul\":2585:2586   */\n  dup1\n    /* \"#utility.yul\":2580:2583   */\n  dup3\n    /* \"#utility.yul\":2576:2587   */\n  add\n    /* \"#utility.yul\":2570:2588   */\n  mload\n    /* \"#utility.yul\":2566:2567   */\n  dup2\n    /* \"#utility.yul\":2561:2564   */\n  dup5\n    /* \"#utility.yul\":2557:2568   */\n  add\n    /* \"#utility.yul\":2550:2589   */\n  mstore\n    /* \"#utility.yul\":2522:2524   */\n  0x20\n    /* \"#utility.yul\":2519:2520   */\n  dup2\n    /* \"#utility.yul\":2515:2525   */\n  add\n    /* \"#utility.yul\":2510:2525   */\n  swap1\n  pop\n    /* \"#utility.yul\":2486:2599   */\n  jump(tag_69)\ntag_71:\n    /* \"#utility.yul\":2617:2623   */\n  dup4\n    /* \"#utility.yul\":2614:2615   */\n  dup2\n    /* \"#utility.yul\":2611:2624   */\n  gt\n    /* \"#utility.yul\":2608:2709   */\n  iszero\n  tag_72\n  jumpi\n    /* \"#utility.yul\":2697:2698   */\n  0x00\n    /* \"#utility.yul\":2688:2694   */\n  dup5\n    /* \"#utility.yul\":2683:2686   */\n  dup5\n    /* \"#utility.yul\":2679:2695   */\n  add\n    /* \"#utility.yul\":2672:2699   */\n  mstore\n    /* \"#utility.yul\":2608:2709   */\ntag_72:\n    /* \"#utility.yul\":2457:2715   */\n  pop\n    /* \"#utility.yul\":2408:2715   */\n  pop\n  pop\n  pop\n  jump\t// out\n    /* \"#utility.yul\":2721:3041   */\ntag_10:\n    /* \"#utility.yul\":2765:2771   */\n  0x00\n    /* \"#utility.yul\":2802:2803   */\n  0x02\n    /* \"#utility.yul\":2796:2800   */\n  dup3\n    /* \"#utility.yul\":2792:2804   */\n  div\n    /* \"#utility.yul\":2782:2804   */\n  swap1\n  pop\n    /* \"#utility.yul\":2849:2850   */\n  0x01\n    /* \"#utility.yul\":2843:2847   */\n  dup3\n    /* \"#utility.yul\":2839:2851   */\n  and\n    /* \"#utility.yul\":2870:2888   */\n  dup1\n    /* \"#utility.yul\":2860:2941   */\n  tag_74\n  jumpi\n    /* \"#utility.yul\":2926:2930   */\n  0x7f\n    /* \"#utility.yul\":2918:2924   */\n  dup3\n    /* \"#utility.yul\":2914:2931   */\n  and\n    /* \"#utility.yul\":2904:2931   */\n  swap2\n  pop\n    /* \"#utility.yul\":2860:2941   */\ntag_74:\n    /* \"#utility.yul\":2988:2990   */\n  0x20\n    /* \"#utility.yul\":2980:2986   */\n  dup3\n    /* \"#utility.yul\":2977:2991   */\n  lt\n    /* \"#utility.yul\":2957:2975   */\n  dup2\n    /* \"#utility.yul\":2954:2992   */\n  eq\n    /* \"#utility.yul\":2951:3035   */\n  iszero\n  tag_75\n  jumpi\n    /* \"#utility.yul\":3007:3025   */\n  tag_76\n  tag_77\n  jump\t// in\ntag_76:\n    /* \"#utility.yul\":2951:3035   */\ntag_75:\n    /* \"#utility.yul\":2772:3041   */\n  pop\n    /* \"#utility.yul\":2721:3041   */\n  swap2\n  swap1\n  pop\n  jump\t// out\n    /* \"#utility.yul\":3047:3328   */\ntag_55:\n    /* \"#utility.yul\":3130:3157   */\n  tag_79\n    /* \"#utility.yul\":3152:3156   */\n  dup3\n    /* \"#utility.yul\":3130:3157   */\n  tag_62\n  jump\t// in\ntag_79:\n    /* \"#utility.yul\":3122:3128   */\n  dup2\n    /* \"#utility.yul\":3118:3158   */\n  add\n    /* \"#utility.yul\":3260:3266   */\n  dup2\n    /* \"#utility.yul\":3248:3258   */\n  dup2\n    /* \"#utility.yul\":3245:3267   */\n  lt\n    /* \"#utility.yul\":3224:3242   */\n  0xffffffffffffffff\n    /* \"#utility.yul\":3212:3222   */\n  dup3\n    /* \"#utility.yul\":3209:3243   */\n  gt\n    /* \"#utility.yul\":3206:3268   */\n  or\n    /* \"#utility.yul\":3203:3291   */\n  iszero\n  tag_80\n  jumpi\n    /* \"#utility.yul\":3271:3289   */\n  tag_81\n  tag_60\n  jump\t// in\ntag_81:\n    /* \"#utility.yul\":3203:3291   */\ntag_80:\n    /* \"#utility.yul\":3311:3321   */\n  dup1\n    /* \"#utility.yul\":3307:3309   */\n  0x40\n    /* \"#utility.yul\":3300:3322   */\n  mstore\n    /* \"#utility.yul\":3090:3328   */\n  pop\n    /* \"#utility.yul\":3047:3328   */\n  pop\n  pop\n  jump\t// out\n    /* \"#utility.yul\":3334:3514   */\ntag_77:\n    /* \"#utility.yul\":3382:3459   */\n  0x4e487b7100000000000000000000000000000000000000000000000000000000\n    /* \"#utility.yul\":3379:3380   */\n  0x00\n    /* \"#utility.yul\":3372:3460   */\n  mstore\n    /* \"#utility.yul\":3479:3483   */\n  0x22\n    /* \"#utility.yul\":3476:3477   */\n  0x04\n    /* \"#utility.yul\":3469:3484   */\n  mstore\n    /* \"#utility.yul\":3503:3507   */\n  0x24\n    /* \"#utility.yul\":3500:3501   */\n  0x00\n    /* \"#utility.yul\":3493:3508   */\n  revert\n    /* \"#utility.yul\":3520:3700   */\ntag_60:\n    /* \"#utility.yul\":3568:3645   */\n  0x4e487b7100000000000000000000000000000000000000000000000000000000\n    /* \"#utility.yul\":3565:3566   */\n  0x00\n    /* \"#utility.yul\":3558:3646   */\n  mstore\n    /* \"#utility.yul\":3665:3669   */\n  0x41\n    /* \"#utility.yul\":3662:3663   */\n  0x04\n    /* \"#utility.yul\":3655:3670   */\n  mstore\n    /* \"#utility.yul\":3689:3693   */\n  0x24\n    /* \"#utility.yul\":3686:3687   */\n  0x00\n    /* \"#utility.yul\":3679:3694   */\n  revert\n    /* \"#utility.yul\":3706:3823   */\ntag_40:\n    /* \"#utility.yul\":3815:3816   */\n  0x00\n    /* \"#utility.yul\":3812:3813   */\n  dup1\n    /* \"#utility.yul\":3805:3817   */\n  revert\n    /* \"#utility.yul\":3829:3946   */\ntag_29:\n    /* \"#utility.yul\":3938:3939   */\n  0x00\n    /* \"#utility.yul\":3935:3936   */\n  dup1\n    /* \"#utility.yul\":3928:3940   */\n  revert\n    /* \"#utility.yul\":3952:4069   */\ntag_48:\n    /* \"#utility.yul\":4061:4062   */\n  0x00\n    /* \"#utility.yul\":4058:4059   */\n  dup1\n    /* \"#utility.yul\":4051:4063   */\n  revert\n    /* \"#utility.yul\":4075:4192   */\ntag_45:\n    /* \"#utility.yul\":4184:4185   */\n  0x00\n    /* \"#utility.yul\":4181:4182   */\n  dup1\n    /* \"#utility.yul\":4174:4186   */\n  revert\n    /* \"#utility.yul\":4198:4300   */\ntag_62:\n    /* \"#utility.yul\":4239:4245   */\n  0x00\n    /* \"#utility.yul\":4290:4292   */\n  0x1f\n    /* \"#utility.yul\":4286:4293   */\n  not\n    /* \"#utility.yul\":4281:4283   */\n  0x1f\n    /* \"#utility.yul\":4274:4279   */\n  dup4\n    /* \"#utility.yul\":4270:4284   */\n  add\n    /* \"#utility.yul\":4266:4294   */\n  and\n    /* \"#utility.yul\":4256:4294   */\n  swap1\n  pop\n    /* \"#utility.yul\":4198:4300   */\n  swap2\n  swap1\n  pop\n  jump\t// out\n    /* \"#utility.yul\":4306:4428   */\ntag_35:\n    /* \"#utility.yul\":4379:4403   */\n  tag_90\n    /* \"#utility.yul\":4397:4402   */\n  dup2\n    /* \"#utility.yul\":4379:4403   */\n  tag_63\n  jump\t// in\ntag_90:\n    /* \"#utility.yul\":4372:4377   */\n  dup2\n    /* \"#utility.yul\":4369:4404   */\n  eq\n    /* \"#utility.yul\":4359:4422   */\n  tag_91\n  jumpi\n    /* \"#utility.yul\":4418:4419   */\n  0x00\n    /* \"#utility.yul\":4415:4416   */\n  dup1\n    /* \"#utility.yul\":4408:4420   */\n  revert\n    /* \"#utility.yul\":4359:4422   */\ntag_91:\n    /* \"#utility.yul\":4306:4428   */\n  pop\n  jump\t// out\n    /* \"smartContract/contracts/NewVote.sol\":64:2892  contract Union{... */\ntag_8:\n  dataSize(sub_0)\n  dup1\n  dataOffset(sub_0)\n  0x00\n  codecopy\n  0x00\n  return\nstop\n\nsub_0: assembly {\n        /* \"smartContract/contracts/NewVote.sol\":64:2892  contract Union{... */\n      mstore(0x40, 0x80)\n      jumpi(tag_1, lt(calldatasize, 0x04))\n      shr(0xe0, calldataload(0x00))\n      dup1\n      0x46c96aac\n      gt\n      tag_9\n      jumpi\n      dup1\n      0x46c96aac\n      eq\n      tag_5\n      jumpi\n      dup1\n      0x4f5cbc1a\n      eq\n      tag_6\n      jumpi\n      dup1\n      0x64b9fb89\n      eq\n      tag_7\n      jumpi\n      dup1\n      0xe8d5940d\n      eq\n      tag_8\n      jumpi\n      jump(tag_1)\n    tag_9:\n      dup1\n      0x2e4176cf\n      eq\n      tag_2\n      jumpi\n      dup1\n      0x302a2a46\n      eq\n      tag_3\n      jumpi\n      dup1\n      0x43ef7e85\n      eq\n      tag_4\n      jumpi\n    tag_1:\n      0x00\n      dup1\n      revert\n        /* \"smartContract/contracts/NewVote.sol\":482:508  address public chairperson */\n    tag_2:\n      callvalue\n      dup1\n      iszero\n      tag_10\n      jumpi\n      0x00\n      dup1\n      revert\n    tag_10:\n      pop\n      tag_11\n      tag_12\n      jump\t// in\n    tag_11:\n      mload(0x40)\n      tag_13\n      swap2\n      swap1\n      tag_14\n      jump\t// in\n    tag_13:\n      mload(0x40)\n      dup1\n      swap2\n      sub\n      swap1\n      return\n        /* \"smartContract/contracts/NewVote.sol\":604:635  Suggestion[] public suggestions */\n    tag_3:\n      callvalue\n      dup1\n      iszero\n      tag_15\n      jumpi\n      0x00\n      dup1\n      revert\n    tag_15:\n      pop\n      tag_16\n      0x04\n      dup1\n      calldatasize\n      sub\n      dup2\n      add\n      swap1\n      tag_17\n      swap2\n      swap1\n      tag_18\n      jump\t// in\n    tag_17:\n      tag_19\n      jump\t// in\n    tag_16:\n      mload(0x40)\n      tag_20\n      swap4\n      swap3\n      swap2\n      swap1\n      tag_21\n      jump\t// in\n    tag_20:\n      mload(0x40)\n      dup1\n      swap2\n      sub\n      swap1\n      return\n        /* \"smartContract/contracts/NewVote.sol\":1145:1512  function createOneSuggestion(string memory _subject)external returns (Suggestion memory) {... */\n    tag_4:\n      callvalue\n      dup1\n      iszero\n      tag_22\n      jumpi\n      0x00\n      dup1\n      revert\n    tag_22:\n      pop\n      tag_23\n      0x04\n      dup1\n      calldatasize\n      sub\n      dup2\n      add\n      swap1\n      tag_24\n      swap2\n      swap1\n      tag_25\n      jump\t// in\n    tag_24:\n      tag_26\n      jump\t// in\n    tag_23:\n      mload(0x40)\n      tag_27\n      swap2\n      swap1\n      tag_28\n      jump\t// in\n    tag_27:\n      mload(0x40)\n      dup1\n      swap2\n      sub\n      swap1\n      return\n        /* \"smartContract/contracts/NewVote.sol\":1052:1070  Voter public voter */\n    tag_5:\n      callvalue\n      dup1\n      iszero\n      tag_29\n      jumpi\n      0x00\n      dup1\n      revert\n    tag_29:\n      pop\n      tag_30\n      tag_31\n      jump\t// in\n    tag_30:\n      mload(0x40)\n      tag_32\n      swap6\n      swap5\n      swap4\n      swap3\n      swap2\n      swap1\n      tag_33\n      jump\t// in\n    tag_32:\n      mload(0x40)\n      dup1\n      swap2\n      sub\n      swap1\n      return\n        /* \"smartContract/contracts/NewVote.sol\":510:533  string public unionName */\n    tag_6:\n      callvalue\n      dup1\n      iszero\n      tag_34\n      jumpi\n      0x00\n      dup1\n      revert\n    tag_34:\n      pop\n      tag_35\n      tag_36\n      jump\t// in\n    tag_35:\n      mload(0x40)\n      tag_37\n      swap2\n      swap1\n      tag_38\n      jump\t// in\n    tag_37:\n      mload(0x40)\n      dup1\n      swap2\n      sub\n      swap1\n      return\n        /* \"smartContract/contracts/NewVote.sol\":535:559  uint public suggestionNo */\n    tag_7:\n      callvalue\n      dup1\n      iszero\n      tag_39\n      jumpi\n      0x00\n      dup1\n      revert\n    tag_39:\n      pop\n      tag_40\n      tag_41\n      jump\t// in\n    tag_40:\n      mload(0x40)\n      tag_42\n      swap2\n      swap1\n      tag_43\n      jump\t// in\n    tag_42:\n      mload(0x40)\n      dup1\n      swap2\n      sub\n      swap1\n      return\n        /* \"smartContract/contracts/NewVote.sol\":2153:2889  function vote (string memory _subject, string memory _answer) public payable returns(Suggestion memory) {... */\n    tag_8:\n      tag_44\n      0x04\n      dup1\n      calldatasize\n      sub\n      dup2\n      add\n      swap1\n      tag_45\n      swap2\n      swap1\n      tag_46\n      jump\t// in\n    tag_45:\n      tag_47\n      jump\t// in\n    tag_44:\n      mload(0x40)\n      tag_48\n      swap2\n      swap1\n      tag_28\n      jump\t// in\n    tag_48:\n      mload(0x40)\n      dup1\n      swap2\n      sub\n      swap1\n      return\n        /* \"smartContract/contracts/NewVote.sol\":482:508  address public chairperson */\n    tag_12:\n      0x00\n      dup1\n      sload\n      swap1\n      0x0100\n      exp\n      swap1\n      div\n      0xffffffffffffffffffffffffffffffffffffffff\n      and\n      dup2\n      jump\t// out\n        /* \"smartContract/contracts/NewVote.sol\":604:635  Suggestion[] public suggestions */\n    tag_19:\n      0x04\n      dup2\n      dup2\n      sload\n      dup2\n      lt\n      tag_49\n      jumpi\n      0x00\n      dup1\n      revert\n    tag_49:\n      swap1\n      0x00\n      mstore\n      keccak256(0x00, 0x20)\n      swap1\n      0x04\n      mul\n      add\n      0x00\n      swap2\n      pop\n      swap1\n      pop\n      dup1\n      0x00\n      add\n      dup1\n      sload\n      tag_51\n      swap1\n      tag_52\n      jump\t// in\n    tag_51:\n      dup1\n      0x1f\n      add\n      0x20\n      dup1\n      swap2\n      div\n      mul\n      0x20\n      add\n      mload(0x40)\n      swap1\n      dup2\n      add\n      0x40\n      mstore\n      dup1\n      swap3\n      swap2\n      swap1\n      dup2\n      dup2\n      mstore\n      0x20\n      add\n      dup3\n      dup1\n      sload\n      tag_53\n      swap1\n      tag_52\n      jump\t// in\n    tag_53:\n      dup1\n      iszero\n      tag_54\n      jumpi\n      dup1\n      0x1f\n      lt\n      tag_55\n      jumpi\n      0x0100\n      dup1\n      dup4\n      sload\n      div\n      mul\n      dup4\n      mstore\n      swap2\n      0x20\n      add\n      swap2\n      jump(tag_54)\n    tag_55:\n      dup3\n      add\n      swap2\n      swap1\n      0x00\n      mstore\n      keccak256(0x00, 0x20)\n      swap1\n    tag_56:\n      dup2\n      sload\n      dup2\n      mstore\n      swap1\n      0x01\n      add\n      swap1\n      0x20\n      add\n      dup1\n      dup4\n      gt\n      tag_56\n      jumpi\n      dup3\n      swap1\n      sub\n      0x1f\n      and\n      dup3\n      add\n      swap2\n    tag_54:\n      pop\n      pop\n      pop\n      pop\n      pop\n      swap1\n      dup1\n      0x01\n      add\n      sload\n      swap1\n      dup1\n      0x03\n      add\n      0x00\n      swap1\n      sload\n      swap1\n      0x0100\n      exp\n      swap1\n      div\n      0xff\n      and\n      swap1\n      pop\n      dup4\n      jump\t// out\n        /* \"smartContract/contracts/NewVote.sol\":1145:1512  function createOneSuggestion(string memory _subject)external returns (Suggestion memory) {... */\n    tag_26:\n        /* \"smartContract/contracts/NewVote.sol\":1215:1232  Suggestion memory */\n      tag_57\n      tag_58\n      jump\t// in\n    tag_57:\n        /* \"smartContract/contracts/NewVote.sol\":1241:1269  Suggestion memory suggestion */\n      tag_60\n      tag_58\n      jump\t// in\n    tag_60:\n        /* \"smartContract/contracts/NewVote.sol\":1297:1305  _subject */\n      dup3\n        /* \"smartContract/contracts/NewVote.sol\":1276:1286  suggestion */\n      dup2\n        /* \"smartContract/contracts/NewVote.sol\":1276:1294  suggestion.subject */\n      0x00\n      add\n        /* \"smartContract/contracts/NewVote.sol\":1276:1305  suggestion.subject = _subject */\n      dup2\n      swap1\n      mstore\n      pop\n        /* \"smartContract/contracts/NewVote.sol\":1338:1350  suggestionNo */\n      sload(0x02)\n        /* \"smartContract/contracts/NewVote.sol\":1312:1322  suggestion */\n      dup2\n        /* \"smartContract/contracts/NewVote.sol\":1312:1335  suggestion.suggestionNo */\n      0x20\n      add\n        /* \"smartContract/contracts/NewVote.sol\":1312:1350  suggestion.suggestionNo = suggestionNo */\n      dup2\n      dup2\n      mstore\n      pop\n      pop\n        /* \"smartContract/contracts/NewVote.sol\":1377:1381  true */\n      0x01\n        /* \"smartContract/contracts/NewVote.sol\":1357:1367  suggestion */\n      dup2\n        /* \"smartContract/contracts/NewVote.sol\":1357:1374  suggestion.status */\n      0x60\n      add\n        /* \"smartContract/contracts/NewVote.sol\":1357:1381  suggestion.status = true */\n      swap1\n      iszero\n      iszero\n      swap1\n      dup2\n      iszero\n      iszero\n      dup2\n      mstore\n      pop\n      pop\n        /* \"smartContract/contracts/NewVote.sol\":1417:1429  suggestionNo */\n      sload(0x02)\n        /* \"smartContract/contracts/NewVote.sol\":1388:1404  findSuggestionNo */\n      0x03\n        /* \"smartContract/contracts/NewVote.sol\":1405:1413  _subject */\n      dup5\n        /* \"smartContract/contracts/NewVote.sol\":1388:1414  findSuggestionNo[_subject] */\n      mload(0x40)\n      tag_61\n      swap2\n      swap1\n      tag_62\n      jump\t// in\n    tag_61:\n      swap1\n      dup2\n      mstore\n      0x20\n      add\n      mload(0x40)\n      dup1\n      swap2\n      sub\n      swap1\n      keccak256\n        /* \"smartContract/contracts/NewVote.sol\":1388:1429  findSuggestionNo[_subject] = suggestionNo */\n      dup2\n      swap1\n      sstore\n      pop\n        /* \"smartContract/contracts/NewVote.sol\":1436:1447  suggestions */\n      0x04\n        /* \"smartContract/contracts/NewVote.sol\":1453:1463  suggestion */\n      dup2\n        /* \"smartContract/contracts/NewVote.sol\":1436:1464  suggestions.push(suggestion) */\n      swap1\n      dup1\n      0x01\n      dup2\n      sload\n      add\n      dup1\n      dup3\n      sstore\n      dup1\n      swap2\n      pop\n      pop\n      0x01\n      swap1\n      sub\n      swap1\n      0x00\n      mstore\n      keccak256(0x00, 0x20)\n      swap1\n      0x04\n      mul\n      add\n      0x00\n      swap1\n      swap2\n      swap1\n      swap2\n      swap1\n      swap2\n      pop\n      0x00\n      dup3\n      add\n      mload\n      dup2\n      0x00\n      add\n      swap1\n      dup1\n      mload\n      swap1\n      0x20\n      add\n      swap1\n      tag_64\n      swap3\n      swap2\n      swap1\n      tag_65\n      jump\t// in\n    tag_64:\n      pop\n      0x20\n      dup3\n      add\n      mload\n      dup2\n      0x01\n      add\n      sstore\n      0x40\n      dup3\n      add\n      mload\n      dup2\n      0x02\n      add\n      swap1\n      dup1\n      mload\n      swap1\n      0x20\n      add\n      swap1\n      tag_66\n      swap3\n      swap2\n      swap1\n      tag_67\n      jump\t// in\n    tag_66:\n      pop\n      0x60\n      dup3\n      add\n      mload\n      dup2\n      0x03\n      add\n      exp(0x0100, 0x00)\n      dup2\n      sload\n      dup2\n      0xff\n      mul\n      not\n      and\n      swap1\n      dup4\n      iszero\n      iszero\n      mul\n      or\n      swap1\n      sstore\n      pop\n      pop\n      pop\n        /* \"smartContract/contracts/NewVote.sol\":1471:1483  suggestionNo */\n      0x02\n      0x00\n        /* \"smartContract/contracts/NewVote.sol\":1471:1485  suggestionNo++ */\n      dup2\n      sload\n      dup1\n      swap3\n      swap2\n      swap1\n      tag_68\n      swap1\n      tag_69\n      jump\t// in\n    tag_68:\n      swap2\n      swap1\n      pop\n      sstore\n      pop\n        /* \"smartContract/contracts/NewVote.sol\":1499:1509  suggestion */\n      dup1\n        /* \"smartContract/contracts/NewVote.sol\":1492:1509  return suggestion */\n      swap2\n      pop\n      pop\n        /* \"smartContract/contracts/NewVote.sol\":1145:1512  function createOneSuggestion(string memory _subject)external returns (Suggestion memory) {... */\n      swap2\n      swap1\n      pop\n      jump\t// out\n        /* \"smartContract/contracts/NewVote.sol\":1052:1070  Voter public voter */\n    tag_31:\n      0x05\n      dup1\n      0x00\n      add\n      dup1\n      sload\n      tag_70\n      swap1\n      tag_52\n      jump\t// in\n    tag_70:\n      dup1\n      0x1f\n      add\n      0x20\n      dup1\n      swap2\n      div\n      mul\n      0x20\n      add\n      mload(0x40)\n      swap1\n      dup2\n      add\n      0x40\n      mstore\n      dup1\n      swap3\n      swap2\n      swap1\n      dup2\n      dup2\n      mstore\n      0x20\n      add\n      dup3\n      dup1\n      sload\n      tag_71\n      swap1\n      tag_52\n      jump\t// in\n    tag_71:\n      dup1\n      iszero\n      tag_72\n      jumpi\n      dup1\n      0x1f\n      lt\n      tag_73\n      jumpi\n      0x0100\n      dup1\n      dup4\n      sload\n      div\n      mul\n      dup4\n      mstore\n      swap2\n      0x20\n      add\n      swap2\n      jump(tag_72)\n    tag_73:\n      dup3\n      add\n      swap2\n      swap1\n      0x00\n      mstore\n      keccak256(0x00, 0x20)\n      swap1\n    tag_74:\n      dup2\n      sload\n      dup2\n      mstore\n      swap1\n      0x01\n      add\n      swap1\n      0x20\n      add\n      dup1\n      dup4\n      gt\n      tag_74\n      jumpi\n      dup3\n      swap1\n      sub\n      0x1f\n      and\n      dup3\n      add\n      swap2\n    tag_72:\n      pop\n      pop\n      pop\n      pop\n      pop\n      swap1\n      dup1\n      0x01\n      add\n      0x00\n      swap1\n      sload\n      swap1\n      0x0100\n      exp\n      swap1\n      div\n      0xffffffffffffffffffffffffffffffffffffffff\n      and\n      swap1\n      dup1\n      0x02\n      add\n      sload\n      swap1\n      dup1\n      0x03\n      add\n      0x00\n      swap1\n      sload\n      swap1\n      0x0100\n      exp\n      swap1\n      div\n      0xff\n      and\n      swap1\n      dup1\n      0x04\n      add\n      dup1\n      sload\n      tag_75\n      swap1\n      tag_52\n      jump\t// in\n    tag_75:\n      dup1\n      0x1f\n      add\n      0x20\n      dup1\n      swap2\n      div\n      mul\n      0x20\n      add\n      mload(0x40)\n      swap1\n      dup2\n      add\n      0x40\n      mstore\n      dup1\n      swap3\n      swap2\n      swap1\n      dup2\n      dup2\n      mstore\n      0x20\n      add\n      dup3\n      dup1\n      sload\n      tag_76\n      swap1\n      tag_52\n      jump\t// in\n    tag_76:\n      dup1\n      iszero\n      tag_77\n      jumpi\n      dup1\n      0x1f\n      lt\n      tag_78\n      jumpi\n      0x0100\n      dup1\n      dup4\n      sload\n      div\n      mul\n      dup4\n      mstore\n      swap2\n      0x20\n      add\n      swap2\n      jump(tag_77)\n    tag_78:\n      dup3\n      add\n      swap2\n      swap1\n      0x00\n      mstore\n      keccak256(0x00, 0x20)\n      swap1\n    tag_79:\n      dup2\n      sload\n      dup2\n      mstore\n      swap1\n      0x01\n      add\n      swap1\n      0x20\n      add\n      dup1\n      dup4\n      gt\n      tag_79\n      jumpi\n      dup3\n      swap1\n      sub\n      0x1f\n      and\n      dup3\n      add\n      swap2\n    tag_77:\n      pop\n      pop\n      pop\n      pop\n      pop\n      swap1\n      pop\n      dup6\n      jump\t// out\n        /* \"smartContract/contracts/NewVote.sol\":510:533  string public unionName */\n    tag_36:\n      0x01\n      dup1\n      sload\n      tag_80\n      swap1\n      tag_52\n      jump\t// in\n    tag_80:\n      dup1\n      0x1f\n      add\n      0x20\n      dup1\n      swap2\n      div\n      mul\n      0x20\n      add\n      mload(0x40)\n      swap1\n      dup2\n      add\n      0x40\n      mstore\n      dup1\n      swap3\n      swap2\n      swap1\n      dup2\n      dup2\n      mstore\n      0x20\n      add\n      dup3\n      dup1\n      sload\n      tag_81\n      swap1\n      tag_52\n      jump\t// in\n    tag_81:\n      dup1\n      iszero\n      tag_82\n      jumpi\n      dup1\n      0x1f\n      lt\n      tag_83\n      jumpi\n      0x0100\n      dup1\n      dup4\n      sload\n      div\n      mul\n      dup4\n      mstore\n      swap2\n      0x20\n      add\n      swap2\n      jump(tag_82)\n    tag_83:\n      dup3\n      add\n      swap2\n      swap1\n      0x00\n      mstore\n      keccak256(0x00, 0x20)\n      swap1\n    tag_84:\n      dup2\n      sload\n      dup2\n      mstore\n      swap1\n      0x01\n      add\n      swap1\n      0x20\n      add\n      dup1\n      dup4\n      gt\n      tag_84\n      jumpi\n      dup3\n      swap1\n      sub\n      0x1f\n      and\n      dup3\n      add\n      swap2\n    tag_82:\n      pop\n      pop\n      pop\n      pop\n      pop\n      dup2\n      jump\t// out\n        /* \"smartContract/contracts/NewVote.sol\":535:559  uint public suggestionNo */\n    tag_41:\n      sload(0x02)\n      dup2\n      jump\t// out\n        /* \"smartContract/contracts/NewVote.sol\":2153:2889  function vote (string memory _subject, string memory _answer) public payable returns(Suggestion memory) {... */\n    tag_47:\n        /* \"smartContract/contracts/NewVote.sol\":2238:2255  Suggestion memory */\n      tag_85\n      tag_58\n      jump\t// in\n    tag_85:\n        /* \"smartContract/contracts/NewVote.sol\":2266:2301  Suggestion storage singleSuggestion */\n      0x00\n        /* \"smartContract/contracts/NewVote.sol\":2304:2315  suggestions */\n      0x04\n        /* \"smartContract/contracts/NewVote.sol\":2316:2332  findSuggestionNo */\n      0x03\n        /* \"smartContract/contracts/NewVote.sol\":2333:2341  _subject */\n      dup6\n        /* \"smartContract/contracts/NewVote.sol\":2316:2342  findSuggestionNo[_subject] */\n      mload(0x40)\n      tag_87\n      swap2\n      swap1\n      tag_62\n      jump\t// in\n    tag_87:\n      swap1\n      dup2\n      mstore\n      0x20\n      add\n      mload(0x40)\n      dup1\n      swap2\n      sub\n      swap1\n      keccak256\n      sload\n        /* \"smartContract/contracts/NewVote.sol\":2304:2343  suggestions[findSuggestionNo[_subject]] */\n      dup2\n      sload\n      dup2\n      lt\n      tag_88\n      jumpi\n      tag_89\n      tag_90\n      jump\t// in\n    tag_89:\n    tag_88:\n      swap1\n      0x00\n      mstore\n      keccak256(0x00, 0x20)\n      swap1\n      0x04\n      mul\n      add\n        /* \"smartContract/contracts/NewVote.sol\":2266:2343  Suggestion storage singleSuggestion = suggestions[findSuggestionNo[_subject]] */\n      swap1\n      pop\n        /* \"smartContract/contracts/NewVote.sol\":2866:2882  singleSuggestion */\n      dup1\n        /* \"smartContract/contracts/NewVote.sol\":2859:2882  return singleSuggestion */\n      mload(0x40)\n      dup1\n      0x80\n      add\n      0x40\n      mstore\n      swap1\n      dup2\n      0x00\n      dup3\n      add\n      dup1\n      sload\n      tag_92\n      swap1\n      tag_52\n      jump\t// in\n    tag_92:\n      dup1\n      0x1f\n      add\n      0x20\n      dup1\n      swap2\n      div\n      mul\n      0x20\n      add\n      mload(0x40)\n      swap1\n      dup2\n      add\n      0x40\n      mstore\n      dup1\n      swap3\n      swap2\n      swap1\n      dup2\n      dup2\n      mstore\n      0x20\n      add\n      dup3\n      dup1\n      sload\n      tag_93\n      swap1\n      tag_52\n      jump\t// in\n    tag_93:\n      dup1\n      iszero\n      tag_94\n      jumpi\n      dup1\n      0x1f\n      lt\n      tag_95\n      jumpi\n      0x0100\n      dup1\n      dup4\n      sload\n      div\n      mul\n      dup4\n      mstore\n      swap2\n      0x20\n      add\n      swap2\n      jump(tag_94)\n    tag_95:\n      dup3\n      add\n      swap2\n      swap1\n      0x00\n      mstore\n      keccak256(0x00, 0x20)\n      swap1\n    tag_96:\n      dup2\n      sload\n      dup2\n      mstore\n      swap1\n      0x01\n      add\n      swap1\n      0x20\n      add\n      dup1\n      dup4\n      gt\n      tag_96\n      jumpi\n      dup3\n      swap1\n      sub\n      0x1f\n      and\n      dup3\n      add\n      swap2\n    tag_94:\n      pop\n      pop\n      pop\n      pop\n      pop\n      dup2\n      mstore\n      0x20\n      add\n      0x01\n      dup3\n      add\n      sload\n      dup2\n      mstore\n      0x20\n      add\n      0x02\n      dup3\n      add\n      dup1\n      sload\n      dup1\n      0x20\n      mul\n      0x20\n      add\n      mload(0x40)\n      swap1\n      dup2\n      add\n      0x40\n      mstore\n      dup1\n      swap3\n      swap2\n      swap1\n      dup2\n      dup2\n      mstore\n      0x20\n      add\n      dup3\n      dup1\n      sload\n      dup1\n      iszero\n      tag_97\n      jumpi\n      0x20\n      mul\n      dup3\n      add\n      swap2\n      swap1\n      0x00\n      mstore\n      keccak256(0x00, 0x20)\n      swap1\n    tag_98:\n      dup2\n      sload\n      dup2\n      mstore\n      0x20\n      add\n      swap1\n      0x01\n      add\n      swap1\n      dup1\n      dup4\n      gt\n      tag_98\n      jumpi\n    tag_97:\n      pop\n      pop\n      pop\n      pop\n      pop\n      dup2\n      mstore\n      0x20\n      add\n      0x03\n      dup3\n      add\n      0x00\n      swap1\n      sload\n      swap1\n      0x0100\n      exp\n      swap1\n      div\n      0xff\n      and\n      iszero\n      iszero\n      iszero\n      iszero\n      dup2\n      mstore\n      pop\n      pop\n      swap2\n      pop\n      pop\n        /* \"smartContract/contracts/NewVote.sol\":2153:2889  function vote (string memory _subject, string memory _answer) public payable returns(Suggestion memory) {... */\n      swap3\n      swap2\n      pop\n      pop\n      jump\t// out\n    tag_58:\n      mload(0x40)\n      dup1\n      0x80\n      add\n      0x40\n      mstore\n      dup1\n      0x60\n      dup2\n      mstore\n      0x20\n      add\n      0x00\n      dup2\n      mstore\n      0x20\n      add\n      0x60\n      dup2\n      mstore\n      0x20\n      add\n      iszero(iszero(0x00))\n      dup2\n      mstore\n      pop\n      swap1\n      jump\t// out\n    tag_65:\n      dup3\n      dup1\n      sload\n      tag_99\n      swap1\n      tag_52\n      jump\t// in\n    tag_99:\n      swap1\n      0x00\n      mstore\n      keccak256(0x00, 0x20)\n      swap1\n      0x1f\n      add\n      0x20\n      swap1\n      div\n      dup2\n      add\n      swap3\n      dup3\n      tag_101\n      jumpi\n      0x00\n      dup6\n      sstore\n      jump(tag_100)\n    tag_101:\n      dup3\n      0x1f\n      lt\n      tag_102\n      jumpi\n      dup1\n      mload\n      not(0xff)\n      and\n      dup4\n      dup1\n      add\n      or\n      dup6\n      sstore\n      jump(tag_100)\n    tag_102:\n      dup3\n      dup1\n      add\n      0x01\n      add\n      dup6\n      sstore\n      dup3\n      iszero\n      tag_100\n      jumpi\n      swap2\n      dup3\n      add\n    tag_103:\n      dup3\n      dup2\n      gt\n      iszero\n      tag_104\n      jumpi\n      dup3\n      mload\n      dup3\n      sstore\n      swap2\n      0x20\n      add\n      swap2\n      swap1\n      0x01\n      add\n      swap1\n      jump(tag_103)\n    tag_104:\n    tag_100:\n      pop\n      swap1\n      pop\n      tag_105\n      swap2\n      swap1\n      tag_106\n      jump\t// in\n    tag_105:\n      pop\n      swap1\n      jump\t// out\n    tag_67:\n      dup3\n      dup1\n      sload\n      dup3\n      dup3\n      sstore\n      swap1\n      0x00\n      mstore\n      keccak256(0x00, 0x20)\n      swap1\n      dup2\n      add\n      swap3\n      dup3\n      iszero\n      tag_107\n      jumpi\n      swap2\n      0x20\n      mul\n      dup3\n      add\n    tag_108:\n      dup3\n      dup2\n      gt\n      iszero\n      tag_109\n      jumpi\n      dup3\n      mload\n      dup3\n      sstore\n      swap2\n      0x20\n      add\n      swap2\n      swap1\n      0x01\n      add\n      swap1\n      jump(tag_108)\n    tag_109:\n    tag_107:\n      pop\n      swap1\n      pop\n      tag_110\n      swap2\n      swap1\n      tag_106\n      jump\t// in\n    tag_110:\n      pop\n      swap1\n      jump\t// out\n    tag_106:\n    tag_111:\n      dup1\n      dup3\n      gt\n      iszero\n      tag_112\n      jumpi\n      0x00\n      dup2\n      0x00\n      swap1\n      sstore\n      pop\n      0x01\n      add\n      jump(tag_111)\n    tag_112:\n      pop\n      swap1\n      jump\t// out\n        /* \"#utility.yul\":7:419   */\n    tag_114:\n        /* \"#utility.yul\":85:90   */\n      0x00\n        /* \"#utility.yul\":110:176   */\n      tag_116\n        /* \"#utility.yul\":126:175   */\n      tag_117\n        /* \"#utility.yul\":168:174   */\n      dup5\n        /* \"#utility.yul\":126:175   */\n      tag_118\n      jump\t// in\n    tag_117:\n        /* \"#utility.yul\":110:176   */\n      tag_119\n      jump\t// in\n    tag_116:\n        /* \"#utility.yul\":101:176   */\n      swap1\n      pop\n        /* \"#utility.yul\":199:205   */\n      dup3\n        /* \"#utility.yul\":192:197   */\n      dup2\n        /* \"#utility.yul\":185:206   */\n      mstore\n        /* \"#utility.yul\":237:241   */\n      0x20\n        /* \"#utility.yul\":230:235   */\n      dup2\n        /* \"#utility.yul\":226:242   */\n      add\n        /* \"#utility.yul\":275:278   */\n      dup5\n        /* \"#utility.yul\":266:272   */\n      dup5\n        /* \"#utility.yul\":261:264   */\n      dup5\n        /* \"#utility.yul\":257:273   */\n      add\n        /* \"#utility.yul\":254:279   */\n      gt\n        /* \"#utility.yul\":251:363   */\n      iszero\n      tag_120\n      jumpi\n        /* \"#utility.yul\":282:361   */\n      tag_121\n      tag_122\n      jump\t// in\n    tag_121:\n        /* \"#utility.yul\":251:363   */\n    tag_120:\n        /* \"#utility.yul\":372:413   */\n      tag_123\n        /* \"#utility.yul\":406:412   */\n      dup5\n        /* \"#utility.yul\":401:404   */\n      dup3\n        /* \"#utility.yul\":396:399   */\n      dup6\n        /* \"#utility.yul\":372:413   */\n      tag_124\n      jump\t// in\n    tag_123:\n        /* \"#utility.yul\":91:419   */\n      pop\n        /* \"#utility.yul\":7:419   */\n      swap4\n      swap3\n      pop\n      pop\n      pop\n      jump\t// out\n        /* \"#utility.yul\":439:779   */\n    tag_125:\n        /* \"#utility.yul\":495:500   */\n      0x00\n        /* \"#utility.yul\":544:547   */\n      dup3\n        /* \"#utility.yul\":537:541   */\n      0x1f\n        /* \"#utility.yul\":529:535   */\n      dup4\n        /* \"#utility.yul\":525:542   */\n      add\n        /* \"#utility.yul\":521:548   */\n      slt\n        /* \"#utility.yul\":511:633   */\n      tag_127\n      jumpi\n        /* \"#utility.yul\":552:631   */\n      tag_128\n      tag_129\n      jump\t// in\n    tag_128:\n        /* \"#utility.yul\":511:633   */\n    tag_127:\n        /* \"#utility.yul\":669:675   */\n      dup2\n        /* \"#utility.yul\":656:676   */\n      calldataload\n        /* \"#utility.yul\":694:773   */\n      tag_130\n        /* \"#utility.yul\":769:772   */\n      dup5\n        /* \"#utility.yul\":761:767   */\n      dup3\n        /* \"#utility.yul\":754:758   */\n      0x20\n        /* \"#utility.yul\":746:752   */\n      dup7\n        /* \"#utility.yul\":742:759   */\n      add\n        /* \"#utility.yul\":694:773   */\n      tag_114\n      jump\t// in\n    tag_130:\n        /* \"#utility.yul\":685:773   */\n      swap2\n      pop\n        /* \"#utility.yul\":501:779   */\n      pop\n        /* \"#utility.yul\":439:779   */\n      swap3\n      swap2\n      pop\n      pop\n      jump\t// out\n        /* \"#utility.yul\":785:924   */\n    tag_131:\n        /* \"#utility.yul\":831:836   */\n      0x00\n        /* \"#utility.yul\":869:875   */\n      dup2\n        /* \"#utility.yul\":856:876   */\n      calldataload\n        /* \"#utility.yul\":847:876   */\n      swap1\n      pop\n        /* \"#utility.yul\":885:918   */\n      tag_133\n        /* \"#utility.yul\":912:917   */\n      dup2\n        /* \"#utility.yul\":885:918   */\n      tag_134\n      jump\t// in\n    tag_133:\n        /* \"#utility.yul\":785:924   */\n      swap3\n      swap2\n      pop\n      pop\n      jump\t// out\n        /* \"#utility.yul\":930:1439   */\n    tag_25:\n        /* \"#utility.yul\":999:1005   */\n      0x00\n        /* \"#utility.yul\":1048:1050   */\n      0x20\n        /* \"#utility.yul\":1036:1045   */\n      dup3\n        /* \"#utility.yul\":1027:1034   */\n      dup5\n        /* \"#utility.yul\":1023:1046   */\n      sub\n        /* \"#utility.yul\":1019:1051   */\n      slt\n        /* \"#utility.yul\":1016:1135   */\n      iszero\n      tag_136\n      jumpi\n        /* \"#utility.yul\":1054:1133   */\n      tag_137\n      tag_138\n      jump\t// in\n    tag_137:\n        /* \"#utility.yul\":1016:1135   */\n    tag_136:\n        /* \"#utility.yul\":1202:1203   */\n      0x00\n        /* \"#utility.yul\":1191:1200   */\n      dup3\n        /* \"#utility.yul\":1187:1204   */\n      add\n        /* \"#utility.yul\":1174:1205   */\n      calldataload\n        /* \"#utility.yul\":1232:1250   */\n      0xffffffffffffffff\n        /* \"#utility.yul\":1224:1230   */\n      dup2\n        /* \"#utility.yul\":1221:1251   */\n      gt\n        /* \"#utility.yul\":1218:1335   */\n      iszero\n      tag_139\n      jumpi\n        /* \"#utility.yul\":1254:1333   */\n      tag_140\n      tag_141\n      jump\t// in\n    tag_140:\n        /* \"#utility.yul\":1218:1335   */\n    tag_139:\n        /* \"#utility.yul\":1359:1422   */\n      tag_142\n        /* \"#utility.yul\":1414:1421   */\n      dup5\n        /* \"#utility.yul\":1405:1411   */\n      dup3\n        /* \"#utility.yul\":1394:1403   */\n      dup6\n        /* \"#utility.yul\":1390:1412   */\n      add\n        /* \"#utility.yul\":1359:1422   */\n      tag_125\n      jump\t// in\n    tag_142:\n        /* \"#utility.yul\":1349:1422   */\n      swap2\n      pop\n        /* \"#utility.yul\":1145:1432   */\n      pop\n        /* \"#utility.yul\":930:1439   */\n      swap3\n      swap2\n      pop\n      pop\n      jump\t// out\n        /* \"#utility.yul\":1445:2279   */\n    tag_46:\n        /* \"#utility.yul\":1533:1539   */\n      0x00\n        /* \"#utility.yul\":1541:1547   */\n      dup1\n        /* \"#utility.yul\":1590:1592   */\n      0x40\n        /* \"#utility.yul\":1578:1587   */\n      dup4\n        /* \"#utility.yul\":1569:1576   */\n      dup6\n        /* \"#utility.yul\":1565:1588   */\n      sub\n        /* \"#utility.yul\":1561:1593   */\n      slt\n        /* \"#utility.yul\":1558:1677   */\n      iszero\n      tag_144\n      jumpi\n        /* \"#utility.yul\":1596:1675   */\n      tag_145\n      tag_138\n      jump\t// in\n    tag_145:\n        /* \"#utility.yul\":1558:1677   */\n    tag_144:\n        /* \"#utility.yul\":1744:1745   */\n      0x00\n        /* \"#utility.yul\":1733:1742   */\n      dup4\n        /* \"#utility.yul\":1729:1746   */\n      add\n        /* \"#utility.yul\":1716:1747   */\n      calldataload\n        /* \"#utility.yul\":1774:1792   */\n      0xffffffffffffffff\n        /* \"#utility.yul\":1766:1772   */\n      dup2\n        /* \"#utility.yul\":1763:1793   */\n      gt\n        /* \"#utility.yul\":1760:1877   */\n      iszero\n      tag_146\n      jumpi\n        /* \"#utility.yul\":1796:1875   */\n      tag_147\n      tag_141\n      jump\t// in\n    tag_147:\n        /* \"#utility.yul\":1760:1877   */\n    tag_146:\n        /* \"#utility.yul\":1901:1964   */\n      tag_148\n        /* \"#utility.yul\":1956:1963   */\n      dup6\n        /* \"#utility.yul\":1947:1953   */\n      dup3\n        /* \"#utility.yul\":1936:1945   */\n      dup7\n        /* \"#utility.yul\":1932:1954   */\n      add\n        /* \"#utility.yul\":1901:1964   */\n      tag_125\n      jump\t// in\n    tag_148:\n        /* \"#utility.yul\":1891:1964   */\n      swap3\n      pop\n        /* \"#utility.yul\":1687:1974   */\n      pop\n        /* \"#utility.yul\":2041:2043   */\n      0x20\n        /* \"#utility.yul\":2030:2039   */\n      dup4\n        /* \"#utility.yul\":2026:2044   */\n      add\n        /* \"#utility.yul\":2013:2045   */\n      calldataload\n        /* \"#utility.yul\":2072:2090   */\n      0xffffffffffffffff\n        /* \"#utility.yul\":2064:2070   */\n      dup2\n        /* \"#utility.yul\":2061:2091   */\n      gt\n        /* \"#utility.yul\":2058:2175   */\n      iszero\n      tag_149\n      jumpi\n        /* \"#utility.yul\":2094:2173   */\n      tag_150\n      tag_141\n      jump\t// in\n    tag_150:\n        /* \"#utility.yul\":2058:2175   */\n    tag_149:\n        /* \"#utility.yul\":2199:2262   */\n      tag_151\n        /* \"#utility.yul\":2254:2261   */\n      dup6\n        /* \"#utility.yul\":2245:2251   */\n      dup3\n        /* \"#utility.yul\":2234:2243   */\n      dup7\n        /* \"#utility.yul\":2230:2252   */\n      add\n        /* \"#utility.yul\":2199:2262   */\n      tag_125\n      jump\t// in\n    tag_151:\n        /* \"#utility.yul\":2189:2262   */\n      swap2\n      pop\n        /* \"#utility.yul\":1984:2272   */\n      pop\n        /* \"#utility.yul\":1445:2279   */\n      swap3\n      pop\n      swap3\n      swap1\n      pop\n      jump\t// out\n        /* \"#utility.yul\":2285:2614   */\n    tag_18:\n        /* \"#utility.yul\":2344:2350   */\n      0x00\n        /* \"#utility.yul\":2393:2395   */\n      0x20\n        /* \"#utility.yul\":2381:2390   */\n      dup3\n        /* \"#utility.yul\":2372:2379   */\n      dup5\n        /* \"#utility.yul\":2368:2391   */\n      sub\n        /* \"#utility.yul\":2364:2396   */\n      slt\n        /* \"#utility.yul\":2361:2480   */\n      iszero\n      tag_153\n      jumpi\n        /* \"#utility.yul\":2399:2478   */\n      tag_154\n      tag_138\n      jump\t// in\n    tag_154:\n        /* \"#utility.yul\":2361:2480   */\n    tag_153:\n        /* \"#utility.yul\":2519:2520   */\n      0x00\n        /* \"#utility.yul\":2544:2597   */\n      tag_155\n        /* \"#utility.yul\":2589:2596   */\n      dup5\n        /* \"#utility.yul\":2580:2586   */\n      dup3\n        /* \"#utility.yul\":2569:2578   */\n      dup6\n        /* \"#utility.yul\":2565:2587   */\n      add\n        /* \"#utility.yul\":2544:2597   */\n      tag_131\n      jump\t// in\n    tag_155:\n        /* \"#utility.yul\":2534:2597   */\n      swap2\n      pop\n        /* \"#utility.yul\":2490:2607   */\n      pop\n        /* \"#utility.yul\":2285:2614   */\n      swap3\n      swap2\n      pop\n      pop\n      jump\t// out\n        /* \"#utility.yul\":2620:2799   */\n    tag_156:\n        /* \"#utility.yul\":2689:2699   */\n      0x00\n        /* \"#utility.yul\":2710:2756   */\n      tag_158\n        /* \"#utility.yul\":2752:2755   */\n      dup4\n        /* \"#utility.yul\":2744:2750   */\n      dup4\n        /* \"#utility.yul\":2710:2756   */\n      tag_159\n      jump\t// in\n    tag_158:\n        /* \"#utility.yul\":2788:2792   */\n      0x20\n        /* \"#utility.yul\":2783:2786   */\n      dup4\n        /* \"#utility.yul\":2779:2793   */\n      add\n        /* \"#utility.yul\":2765:2793   */\n      swap1\n      pop\n        /* \"#utility.yul\":2620:2799   */\n      swap3\n      swap2\n      pop\n      pop\n      jump\t// out\n        /* \"#utility.yul\":2805:2923   */\n    tag_160:\n        /* \"#utility.yul\":2892:2916   */\n      tag_162\n        /* \"#utility.yul\":2910:2915   */\n      dup2\n        /* \"#utility.yul\":2892:2916   */\n      tag_163\n      jump\t// in\n    tag_162:\n        /* \"#utility.yul\":2887:2890   */\n      dup3\n        /* \"#utility.yul\":2880:2917   */\n      mstore\n        /* \"#utility.yul\":2805:2923   */\n      pop\n      pop\n      jump\t// out\n        /* \"#utility.yul\":2959:3671   */\n    tag_164:\n        /* \"#utility.yul\":3068:3071   */\n      0x00\n        /* \"#utility.yul\":3097:3151   */\n      tag_166\n        /* \"#utility.yul\":3145:3150   */\n      dup3\n        /* \"#utility.yul\":3097:3151   */\n      tag_167\n      jump\t// in\n    tag_166:\n        /* \"#utility.yul\":3167:3243   */\n      tag_168\n        /* \"#utility.yul\":3236:3242   */\n      dup2\n        /* \"#utility.yul\":3231:3234   */\n      dup6\n        /* \"#utility.yul\":3167:3243   */\n      tag_169\n      jump\t// in\n    tag_168:\n        /* \"#utility.yul\":3160:3243   */\n      swap4\n      pop\n        /* \"#utility.yul\":3267:3323   */\n      tag_170\n        /* \"#utility.yul\":3317:3322   */\n      dup4\n        /* \"#utility.yul\":3267:3323   */\n      tag_171\n      jump\t// in\n    tag_170:\n        /* \"#utility.yul\":3346:3353   */\n      dup1\n        /* \"#utility.yul\":3377:3378   */\n      0x00\n        /* \"#utility.yul\":3362:3646   */\n    tag_172:\n        /* \"#utility.yul\":3387:3393   */\n      dup4\n        /* \"#utility.yul\":3384:3385   */\n      dup2\n        /* \"#utility.yul\":3381:3394   */\n      lt\n        /* \"#utility.yul\":3362:3646   */\n      iszero\n      tag_174\n      jumpi\n        /* \"#utility.yul\":3463:3469   */\n      dup2\n        /* \"#utility.yul\":3457:3470   */\n      mload\n        /* \"#utility.yul\":3490:3553   */\n      tag_175\n        /* \"#utility.yul\":3549:3552   */\n      dup9\n        /* \"#utility.yul\":3534:3547   */\n      dup3\n        /* \"#utility.yul\":3490:3553   */\n      tag_156\n      jump\t// in\n    tag_175:\n        /* \"#utility.yul\":3483:3553   */\n      swap8\n      pop\n        /* \"#utility.yul\":3576:3636   */\n      tag_176\n        /* \"#utility.yul\":3629:3635   */\n      dup4\n        /* \"#utility.yul\":3576:3636   */\n      tag_177\n      jump\t// in\n    tag_176:\n        /* \"#utility.yul\":3566:3636   */\n      swap3\n      pop\n        /* \"#utility.yul\":3422:3646   */\n      pop\n        /* \"#utility.yul\":3409:3410   */\n      0x01\n        /* \"#utility.yul\":3406:3407   */\n      dup2\n        /* \"#utility.yul\":3402:3411   */\n      add\n        /* \"#utility.yul\":3397:3411   */\n      swap1\n      pop\n        /* \"#utility.yul\":3362:3646   */\n      jump(tag_172)\n    tag_174:\n        /* \"#utility.yul\":3366:3380   */\n      pop\n        /* \"#utility.yul\":3662:3665   */\n      dup6\n        /* \"#utility.yul\":3655:3665   */\n      swap4\n      pop\n        /* \"#utility.yul\":3073:3671   */\n      pop\n      pop\n      pop\n        /* \"#utility.yul\":2959:3671   */\n      swap3\n      swap2\n      pop\n      pop\n      jump\t// out\n        /* \"#utility.yul\":3677:3776   */\n    tag_178:\n        /* \"#utility.yul\":3748:3769   */\n      tag_180\n        /* \"#utility.yul\":3763:3768   */\n      dup2\n        /* \"#utility.yul\":3748:3769   */\n      tag_181\n      jump\t// in\n    tag_180:\n        /* \"#utility.yul\":3743:3746   */\n      dup3\n        /* \"#utility.yul\":3736:3770   */\n      mstore\n        /* \"#utility.yul\":3677:3776   */\n      pop\n      pop\n      jump\t// out\n        /* \"#utility.yul\":3782:3891   */\n    tag_182:\n        /* \"#utility.yul\":3863:3884   */\n      tag_184\n        /* \"#utility.yul\":3878:3883   */\n      dup2\n        /* \"#utility.yul\":3863:3884   */\n      tag_181\n      jump\t// in\n    tag_184:\n        /* \"#utility.yul\":3858:3861   */\n      dup3\n        /* \"#utility.yul\":3851:3885   */\n      mstore\n        /* \"#utility.yul\":3782:3891   */\n      pop\n      pop\n      jump\t// out\n        /* \"#utility.yul\":3897:4241   */\n    tag_185:\n        /* \"#utility.yul\":3975:3978   */\n      0x00\n        /* \"#utility.yul\":4003:4042   */\n      tag_187\n        /* \"#utility.yul\":4036:4041   */\n      dup3\n        /* \"#utility.yul\":4003:4042   */\n      tag_188\n      jump\t// in\n    tag_187:\n        /* \"#utility.yul\":4058:4119   */\n      tag_189\n        /* \"#utility.yul\":4112:4118   */\n      dup2\n        /* \"#utility.yul\":4107:4110   */\n      dup6\n        /* \"#utility.yul\":4058:4119   */\n      tag_190\n      jump\t// in\n    tag_189:\n        /* \"#utility.yul\":4051:4119   */\n      swap4\n      pop\n        /* \"#utility.yul\":4128:4180   */\n      tag_191\n        /* \"#utility.yul\":4173:4179   */\n      dup2\n        /* \"#utility.yul\":4168:4171   */\n      dup6\n        /* \"#utility.yul\":4161:4165   */\n      0x20\n        /* \"#utility.yul\":4154:4159   */\n      dup7\n        /* \"#utility.yul\":4150:4166   */\n      add\n        /* \"#utility.yul\":4128:4180   */\n      tag_192\n      jump\t// in\n    tag_191:\n        /* \"#utility.yul\":4205:4234   */\n      tag_193\n        /* \"#utility.yul\":4227:4233   */\n      dup2\n        /* \"#utility.yul\":4205:4234   */\n      tag_194\n      jump\t// in\n    tag_193:\n        /* \"#utility.yul\":4200:4203   */\n      dup5\n        /* \"#utility.yul\":4196:4235   */\n      add\n        /* \"#utility.yul\":4189:4235   */\n      swap2\n      pop\n        /* \"#utility.yul\":3979:4241   */\n      pop\n        /* \"#utility.yul\":3897:4241   */\n      swap3\n      swap2\n      pop\n      pop\n      jump\t// out\n        /* \"#utility.yul\":4247:4611   */\n    tag_195:\n        /* \"#utility.yul\":4335:4338   */\n      0x00\n        /* \"#utility.yul\":4363:4402   */\n      tag_197\n        /* \"#utility.yul\":4396:4401   */\n      dup3\n        /* \"#utility.yul\":4363:4402   */\n      tag_188\n      jump\t// in\n    tag_197:\n        /* \"#utility.yul\":4418:4489   */\n      tag_198\n        /* \"#utility.yul\":4482:4488   */\n      dup2\n        /* \"#utility.yul\":4477:4480   */\n      dup6\n        /* \"#utility.yul\":4418:4489   */\n      tag_199\n      jump\t// in\n    tag_198:\n        /* \"#utility.yul\":4411:4489   */\n      swap4\n      pop\n        /* \"#utility.yul\":4498:4550   */\n      tag_200\n        /* \"#utility.yul\":4543:4549   */\n      dup2\n        /* \"#utility.yul\":4538:4541   */\n      dup6\n        /* \"#utility.yul\":4531:4535   */\n      0x20\n        /* \"#utility.yul\":4524:4529   */\n      dup7\n        /* \"#utility.yul\":4520:4536   */\n      add\n        /* \"#utility.yul\":4498:4550   */\n      tag_192\n      jump\t// in\n    tag_200:\n        /* \"#utility.yul\":4575:4604   */\n      tag_201\n        /* \"#utility.yul\":4597:4603   */\n      dup2\n        /* \"#utility.yul\":4575:4604   */\n      tag_194\n      jump\t// in\n    tag_201:\n        /* \"#utility.yul\":4570:4573   */\n      dup5\n        /* \"#utility.yul\":4566:4605   */\n      add\n        /* \"#utility.yul\":4559:4605   */\n      swap2\n      pop\n        /* \"#utility.yul\":4339:4611   */\n      pop\n        /* \"#utility.yul\":4247:4611   */\n      swap3\n      swap2\n      pop\n      pop\n      jump\t// out\n        /* \"#utility.yul\":4617:4994   */\n    tag_202:\n        /* \"#utility.yul\":4723:4726   */\n      0x00\n        /* \"#utility.yul\":4751:4790   */\n      tag_204\n        /* \"#utility.yul\":4784:4789   */\n      dup3\n        /* \"#utility.yul\":4751:4790   */\n      tag_188\n      jump\t// in\n    tag_204:\n        /* \"#utility.yul\":4806:4895   */\n      tag_205\n        /* \"#utility.yul\":4888:4894   */\n      dup2\n        /* \"#utility.yul\":4883:4886   */\n      dup6\n        /* \"#utility.yul\":4806:4895   */\n      tag_206\n      jump\t// in\n    tag_205:\n        /* \"#utility.yul\":4799:4895   */\n      swap4\n      pop\n        /* \"#utility.yul\":4904:4956   */\n      tag_207\n        /* \"#utility.yul\":4949:4955   */\n      dup2\n        /* \"#utility.yul\":4944:4947   */\n      dup6\n        /* \"#utility.yul\":4937:4941   */\n      0x20\n        /* \"#utility.yul\":4930:4935   */\n      dup7\n        /* \"#utility.yul\":4926:4942   */\n      add\n        /* \"#utility.yul\":4904:4956   */\n      tag_192\n      jump\t// in\n    tag_207:\n        /* \"#utility.yul\":4981:4987   */\n      dup1\n        /* \"#utility.yul\":4976:4979   */\n      dup5\n        /* \"#utility.yul\":4972:4988   */\n      add\n        /* \"#utility.yul\":4965:4988   */\n      swap2\n      pop\n        /* \"#utility.yul\":4727:4994   */\n      pop\n        /* \"#utility.yul\":4617:4994   */\n      swap3\n      swap2\n      pop\n      pop\n      jump\t// out\n        /* \"#utility.yul\":5058:6129   */\n    tag_208:\n        /* \"#utility.yul\":5179:5182   */\n      0x00\n        /* \"#utility.yul\":5215:5219   */\n      0x80\n        /* \"#utility.yul\":5210:5213   */\n      dup4\n        /* \"#utility.yul\":5206:5220   */\n      add\n        /* \"#utility.yul\":5305:5309   */\n      0x00\n        /* \"#utility.yul\":5298:5303   */\n      dup4\n        /* \"#utility.yul\":5294:5310   */\n      add\n        /* \"#utility.yul\":5288:5311   */\n      mload\n        /* \"#utility.yul\":5358:5361   */\n      dup5\n        /* \"#utility.yul\":5352:5356   */\n      dup3\n        /* \"#utility.yul\":5348:5362   */\n      sub\n        /* \"#utility.yul\":5341:5345   */\n      0x00\n        /* \"#utility.yul\":5336:5339   */\n      dup7\n        /* \"#utility.yul\":5332:5346   */\n      add\n        /* \"#utility.yul\":5325:5363   */\n      mstore\n        /* \"#utility.yul\":5384:5457   */\n      tag_210\n        /* \"#utility.yul\":5452:5456   */\n      dup3\n        /* \"#utility.yul\":5438:5450   */\n      dup3\n        /* \"#utility.yul\":5384:5457   */\n      tag_185\n      jump\t// in\n    tag_210:\n        /* \"#utility.yul\":5376:5457   */\n      swap2\n      pop\n        /* \"#utility.yul\":5230:5468   */\n      pop\n        /* \"#utility.yul\":5558:5562   */\n      0x20\n        /* \"#utility.yul\":5551:5556   */\n      dup4\n        /* \"#utility.yul\":5547:5563   */\n      add\n        /* \"#utility.yul\":5541:5564   */\n      mload\n        /* \"#utility.yul\":5577:5640   */\n      tag_211\n        /* \"#utility.yul\":5634:5638   */\n      0x20\n        /* \"#utility.yul\":5629:5632   */\n      dup7\n        /* \"#utility.yul\":5625:5639   */\n      add\n        /* \"#utility.yul\":5611:5623   */\n      dup3\n        /* \"#utility.yul\":5577:5640   */\n      tag_159\n      jump\t// in\n    tag_211:\n        /* \"#utility.yul\":5478:5650   */\n      pop\n        /* \"#utility.yul\":5739:5743   */\n      0x40\n        /* \"#utility.yul\":5732:5737   */\n      dup4\n        /* \"#utility.yul\":5728:5744   */\n      add\n        /* \"#utility.yul\":5722:5745   */\n      mload\n        /* \"#utility.yul\":5792:5795   */\n      dup5\n        /* \"#utility.yul\":5786:5790   */\n      dup3\n        /* \"#utility.yul\":5782:5796   */\n      sub\n        /* \"#utility.yul\":5775:5779   */\n      0x40\n        /* \"#utility.yul\":5770:5773   */\n      dup7\n        /* \"#utility.yul\":5766:5780   */\n      add\n        /* \"#utility.yul\":5759:5797   */\n      mstore\n        /* \"#utility.yul\":5818:5921   */\n      tag_212\n        /* \"#utility.yul\":5916:5920   */\n      dup3\n        /* \"#utility.yul\":5902:5914   */\n      dup3\n        /* \"#utility.yul\":5818:5921   */\n      tag_164\n      jump\t// in\n    tag_212:\n        /* \"#utility.yul\":5810:5921   */\n      swap2\n      pop\n        /* \"#utility.yul\":5660:5932   */\n      pop\n        /* \"#utility.yul\":6016:6020   */\n      0x60\n        /* \"#utility.yul\":6009:6014   */\n      dup4\n        /* \"#utility.yul\":6005:6021   */\n      add\n        /* \"#utility.yul\":5999:6022   */\n      mload\n        /* \"#utility.yul\":6035:6092   */\n      tag_213\n        /* \"#utility.yul\":6086:6090   */\n      0x60\n        /* \"#utility.yul\":6081:6084   */\n      dup7\n        /* \"#utility.yul\":6077:6091   */\n      add\n        /* \"#utility.yul\":6063:6075   */\n      dup3\n        /* \"#utility.yul\":6035:6092   */\n      tag_178\n      jump\t// in\n    tag_213:\n        /* \"#utility.yul\":5942:6102   */\n      pop\n        /* \"#utility.yul\":6119:6123   */\n      dup1\n        /* \"#utility.yul\":6112:6123   */\n      swap2\n      pop\n        /* \"#utility.yul\":5184:6129   */\n      pop\n        /* \"#utility.yul\":5058:6129   */\n      swap3\n      swap2\n      pop\n      pop\n      jump\t// out\n        /* \"#utility.yul\":6135:6243   */\n    tag_159:\n        /* \"#utility.yul\":6212:6236   */\n      tag_215\n        /* \"#utility.yul\":6230:6235   */\n      dup2\n        /* \"#utility.yul\":6212:6236   */\n      tag_216\n      jump\t// in\n    tag_215:\n        /* \"#utility.yul\":6207:6210   */\n      dup3\n        /* \"#utility.yul\":6200:6237   */\n      mstore\n        /* \"#utility.yul\":6135:6243   */\n      pop\n      pop\n      jump\t// out\n        /* \"#utility.yul\":6249:6367   */\n    tag_217:\n        /* \"#utility.yul\":6336:6360   */\n      tag_219\n        /* \"#utility.yul\":6354:6359   */\n      dup2\n        /* \"#utility.yul\":6336:6360   */\n      tag_216\n      jump\t// in\n    tag_219:\n        /* \"#utility.yul\":6331:6334   */\n      dup3\n        /* \"#utility.yul\":6324:6361   */\n      mstore\n        /* \"#utility.yul\":6249:6367   */\n      pop\n      pop\n      jump\t// out\n        /* \"#utility.yul\":6373:6648   */\n    tag_62:\n        /* \"#utility.yul\":6505:6508   */\n      0x00\n        /* \"#utility.yul\":6527:6622   */\n      tag_221\n        /* \"#utility.yul\":6618:6621   */\n      dup3\n        /* \"#utility.yul\":6609:6615   */\n      dup5\n        /* \"#utility.yul\":6527:6622   */\n      tag_202\n      jump\t// in\n    tag_221:\n        /* \"#utility.yul\":6520:6622   */\n      swap2\n      pop\n        /* \"#utility.yul\":6639:6642   */\n      dup2\n        /* \"#utility.yul\":6632:6642   */\n      swap1\n      pop\n        /* \"#utility.yul\":6373:6648   */\n      swap3\n      swap2\n      pop\n      pop\n      jump\t// out\n        /* \"#utility.yul\":6654:6876   */\n    tag_14:\n        /* \"#utility.yul\":6747:6751   */\n      0x00\n        /* \"#utility.yul\":6785:6787   */\n      0x20\n        /* \"#utility.yul\":6774:6783   */\n      dup3\n        /* \"#utility.yul\":6770:6788   */\n      add\n        /* \"#utility.yul\":6762:6788   */\n      swap1\n      pop\n        /* \"#utility.yul\":6798:6869   */\n      tag_223\n        /* \"#utility.yul\":6866:6867   */\n      0x00\n        /* \"#utility.yul\":6855:6864   */\n      dup4\n        /* \"#utility.yul\":6851:6868   */\n      add\n        /* \"#utility.yul\":6842:6848   */\n      dup5\n        /* \"#utility.yul\":6798:6869   */\n      tag_160\n      jump\t// in\n    tag_223:\n        /* \"#utility.yul\":6654:6876   */\n      swap3\n      swap2\n      pop\n      pop\n      jump\t// out\n        /* \"#utility.yul\":6882:7195   */\n    tag_38:\n        /* \"#utility.yul\":6995:6999   */\n      0x00\n        /* \"#utility.yul\":7033:7035   */\n      0x20\n        /* \"#utility.yul\":7022:7031   */\n      dup3\n        /* \"#utility.yul\":7018:7036   */\n      add\n        /* \"#utility.yul\":7010:7036   */\n      swap1\n      pop\n        /* \"#utility.yul\":7082:7091   */\n      dup2\n        /* \"#utility.yul\":7076:7080   */\n      dup2\n        /* \"#utility.yul\":7072:7092   */\n      sub\n        /* \"#utility.yul\":7068:7069   */\n      0x00\n        /* \"#utility.yul\":7057:7066   */\n      dup4\n        /* \"#utility.yul\":7053:7070   */\n      add\n        /* \"#utility.yul\":7046:7093   */\n      mstore\n        /* \"#utility.yul\":7110:7188   */\n      tag_225\n        /* \"#utility.yul\":7183:7187   */\n      dup2\n        /* \"#utility.yul\":7174:7180   */\n      dup5\n        /* \"#utility.yul\":7110:7188   */\n      tag_195\n      jump\t// in\n    tag_225:\n        /* \"#utility.yul\":7102:7188   */\n      swap1\n      pop\n        /* \"#utility.yul\":6882:7195   */\n      swap3\n      swap2\n      pop\n      pop\n      jump\t// out\n        /* \"#utility.yul\":7201:8035   */\n    tag_33:\n        /* \"#utility.yul\":7440:7444   */\n      0x00\n        /* \"#utility.yul\":7478:7481   */\n      0xa0\n        /* \"#utility.yul\":7467:7476   */\n      dup3\n        /* \"#utility.yul\":7463:7482   */\n      add\n        /* \"#utility.yul\":7455:7482   */\n      swap1\n      pop\n        /* \"#utility.yul\":7528:7537   */\n      dup2\n        /* \"#utility.yul\":7522:7526   */\n      dup2\n        /* \"#utility.yul\":7518:7538   */\n      sub\n        /* \"#utility.yul\":7514:7515   */\n      0x00\n        /* \"#utility.yul\":7503:7512   */\n      dup4\n        /* \"#utility.yul\":7499:7516   */\n      add\n        /* \"#utility.yul\":7492:7539   */\n      mstore\n        /* \"#utility.yul\":7556:7634   */\n      tag_227\n        /* \"#utility.yul\":7629:7633   */\n      dup2\n        /* \"#utility.yul\":7620:7626   */\n      dup9\n        /* \"#utility.yul\":7556:7634   */\n      tag_195\n      jump\t// in\n    tag_227:\n        /* \"#utility.yul\":7548:7634   */\n      swap1\n      pop\n        /* \"#utility.yul\":7644:7716   */\n      tag_228\n        /* \"#utility.yul\":7712:7714   */\n      0x20\n        /* \"#utility.yul\":7701:7710   */\n      dup4\n        /* \"#utility.yul\":7697:7715   */\n      add\n        /* \"#utility.yul\":7688:7694   */\n      dup8\n        /* \"#utility.yul\":7644:7716   */\n      tag_160\n      jump\t// in\n    tag_228:\n        /* \"#utility.yul\":7726:7798   */\n      tag_229\n        /* \"#utility.yul\":7794:7796   */\n      0x40\n        /* \"#utility.yul\":7783:7792   */\n      dup4\n        /* \"#utility.yul\":7779:7797   */\n      add\n        /* \"#utility.yul\":7770:7776   */\n      dup7\n        /* \"#utility.yul\":7726:7798   */\n      tag_217\n      jump\t// in\n    tag_229:\n        /* \"#utility.yul\":7808:7874   */\n      tag_230\n        /* \"#utility.yul\":7870:7872   */\n      0x60\n        /* \"#utility.yul\":7859:7868   */\n      dup4\n        /* \"#utility.yul\":7855:7873   */\n      add\n        /* \"#utility.yul\":7846:7852   */\n      dup6\n        /* \"#utility.yul\":7808:7874   */\n      tag_182\n      jump\t// in\n    tag_230:\n        /* \"#utility.yul\":7922:7931   */\n      dup2\n        /* \"#utility.yul\":7916:7920   */\n      dup2\n        /* \"#utility.yul\":7912:7932   */\n      sub\n        /* \"#utility.yul\":7906:7909   */\n      0x80\n        /* \"#utility.yul\":7895:7904   */\n      dup4\n        /* \"#utility.yul\":7891:7910   */\n      add\n        /* \"#utility.yul\":7884:7933   */\n      mstore\n        /* \"#utility.yul\":7950:8028   */\n      tag_231\n        /* \"#utility.yul\":8023:8027   */\n      dup2\n        /* \"#utility.yul\":8014:8020   */\n      dup5\n        /* \"#utility.yul\":7950:8028   */\n      tag_195\n      jump\t// in\n    tag_231:\n        /* \"#utility.yul\":7942:8028   */\n      swap1\n      pop\n        /* \"#utility.yul\":7201:8035   */\n      swap7\n      swap6\n      pop\n      pop\n      pop\n      pop\n      pop\n      pop\n      jump\t// out\n        /* \"#utility.yul\":8041:8562   */\n    tag_21:\n        /* \"#utility.yul\":8204:8208   */\n      0x00\n        /* \"#utility.yul\":8242:8244   */\n      0x60\n        /* \"#utility.yul\":8231:8240   */\n      dup3\n        /* \"#utility.yul\":8227:8245   */\n      add\n        /* \"#utility.yul\":8219:8245   */\n      swap1\n      pop\n        /* \"#utility.yul\":8291:8300   */\n      dup2\n        /* \"#utility.yul\":8285:8289   */\n      dup2\n        /* \"#utility.yul\":8281:8301   */\n      sub\n        /* \"#utility.yul\":8277:8278   */\n      0x00\n        /* \"#utility.yul\":8266:8275   */\n      dup4\n        /* \"#utility.yul\":8262:8279   */\n      add\n        /* \"#utility.yul\":8255:8302   */\n      mstore\n        /* \"#utility.yul\":8319:8397   */\n      tag_233\n        /* \"#utility.yul\":8392:8396   */\n      dup2\n        /* \"#utility.yul\":8383:8389   */\n      dup7\n        /* \"#utility.yul\":8319:8397   */\n      tag_195\n      jump\t// in\n    tag_233:\n        /* \"#utility.yul\":8311:8397   */\n      swap1\n      pop\n        /* \"#utility.yul\":8407:8479   */\n      tag_234\n        /* \"#utility.yul\":8475:8477   */\n      0x20\n        /* \"#utility.yul\":8464:8473   */\n      dup4\n        /* \"#utility.yul\":8460:8478   */\n      add\n        /* \"#utility.yul\":8451:8457   */\n      dup6\n        /* \"#utility.yul\":8407:8479   */\n      tag_217\n      jump\t// in\n    tag_234:\n        /* \"#utility.yul\":8489:8555   */\n      tag_235\n        /* \"#utility.yul\":8551:8553   */\n      0x40\n        /* \"#utility.yul\":8540:8549   */\n      dup4\n        /* \"#utility.yul\":8536:8554   */\n      add\n        /* \"#utility.yul\":8527:8533   */\n      dup5\n        /* \"#utility.yul\":8489:8555   */\n      tag_182\n      jump\t// in\n    tag_235:\n        /* \"#utility.yul\":8041:8562   */\n      swap5\n      swap4\n      pop\n      pop\n      pop\n      pop\n      jump\t// out\n        /* \"#utility.yul\":8568:8945   */\n    tag_28:\n        /* \"#utility.yul\":8713:8717   */\n      0x00\n        /* \"#utility.yul\":8751:8753   */\n      0x20\n        /* \"#utility.yul\":8740:8749   */\n      dup3\n        /* \"#utility.yul\":8736:8754   */\n      add\n        /* \"#utility.yul\":8728:8754   */\n      swap1\n      pop\n        /* \"#utility.yul\":8800:8809   */\n      dup2\n        /* \"#utility.yul\":8794:8798   */\n      dup2\n        /* \"#utility.yul\":8790:8810   */\n      sub\n        /* \"#utility.yul\":8786:8787   */\n      0x00\n        /* \"#utility.yul\":8775:8784   */\n      dup4\n        /* \"#utility.yul\":8771:8788   */\n      add\n        /* \"#utility.yul\":8764:8811   */\n      mstore\n        /* \"#utility.yul\":8828:8938   */\n      tag_237\n        /* \"#utility.yul\":8933:8937   */\n      dup2\n        /* \"#utility.yul\":8924:8930   */\n      dup5\n        /* \"#utility.yul\":8828:8938   */\n      tag_208\n      jump\t// in\n    tag_237:\n        /* \"#utility.yul\":8820:8938   */\n      swap1\n      pop\n        /* \"#utility.yul\":8568:8945   */\n      swap3\n      swap2\n      pop\n      pop\n      jump\t// out\n        /* \"#utility.yul\":8951:9173   */\n    tag_43:\n        /* \"#utility.yul\":9044:9048   */\n      0x00\n        /* \"#utility.yul\":9082:9084   */\n      0x20\n        /* \"#utility.yul\":9071:9080   */\n      dup3\n        /* \"#utility.yul\":9067:9085   */\n      add\n        /* \"#utility.yul\":9059:9085   */\n      swap1\n      pop\n        /* \"#utility.yul\":9095:9166   */\n      tag_239\n        /* \"#utility.yul\":9163:9164   */\n      0x00\n        /* \"#utility.yul\":9152:9161   */\n      dup4\n        /* \"#utility.yul\":9148:9165   */\n      add\n        /* \"#utility.yul\":9139:9145   */\n      dup5\n        /* \"#utility.yul\":9095:9166   */\n      tag_217\n      jump\t// in\n    tag_239:\n        /* \"#utility.yul\":8951:9173   */\n      swap3\n      swap2\n      pop\n      pop\n      jump\t// out\n        /* \"#utility.yul\":9179:9308   */\n    tag_119:\n        /* \"#utility.yul\":9213:9219   */\n      0x00\n        /* \"#utility.yul\":9240:9260   */\n      tag_241\n      tag_242\n      jump\t// in\n    tag_241:\n        /* \"#utility.yul\":9230:9260   */\n      swap1\n      pop\n        /* \"#utility.yul\":9269:9302   */\n      tag_243\n        /* \"#utility.yul\":9297:9301   */\n      dup3\n        /* \"#utility.yul\":9289:9295   */\n      dup3\n        /* \"#utility.yul\":9269:9302   */\n      tag_244\n      jump\t// in\n    tag_243:\n        /* \"#utility.yul\":9179:9308   */\n      swap2\n      swap1\n      pop\n      jump\t// out\n        /* \"#utility.yul\":9314:9389   */\n    tag_242:\n        /* \"#utility.yul\":9347:9353   */\n      0x00\n        /* \"#utility.yul\":9380:9382   */\n      0x40\n        /* \"#utility.yul\":9374:9383   */\n      mload\n        /* \"#utility.yul\":9364:9383   */\n      swap1\n      pop\n        /* \"#utility.yul\":9314:9389   */\n      swap1\n      jump\t// out\n        /* \"#utility.yul\":9395:9703   */\n    tag_118:\n        /* \"#utility.yul\":9457:9461   */\n      0x00\n        /* \"#utility.yul\":9547:9565   */\n      0xffffffffffffffff\n        /* \"#utility.yul\":9539:9545   */\n      dup3\n        /* \"#utility.yul\":9536:9566   */\n      gt\n        /* \"#utility.yul\":9533:9589   */\n      iszero\n      tag_247\n      jumpi\n        /* \"#utility.yul\":9569:9587   */\n      tag_248\n      tag_249\n      jump\t// in\n    tag_248:\n        /* \"#utility.yul\":9533:9589   */\n    tag_247:\n        /* \"#utility.yul\":9607:9636   */\n      tag_250\n        /* \"#utility.yul\":9629:9635   */\n      dup3\n        /* \"#utility.yul\":9607:9636   */\n      tag_194\n      jump\t// in\n    tag_250:\n        /* \"#utility.yul\":9599:9636   */\n      swap1\n      pop\n        /* \"#utility.yul\":9691:9695   */\n      0x20\n        /* \"#utility.yul\":9685:9689   */\n      dup2\n        /* \"#utility.yul\":9681:9696   */\n      add\n        /* \"#utility.yul\":9673:9696   */\n      swap1\n      pop\n        /* \"#utility.yul\":9395:9703   */\n      swap2\n      swap1\n      pop\n      jump\t// out\n        /* \"#utility.yul\":9709:9841   */\n    tag_171:\n        /* \"#utility.yul\":9776:9780   */\n      0x00\n        /* \"#utility.yul\":9799:9802   */\n      dup2\n        /* \"#utility.yul\":9791:9802   */\n      swap1\n      pop\n        /* \"#utility.yul\":9829:9833   */\n      0x20\n        /* \"#utility.yul\":9824:9827   */\n      dup3\n        /* \"#utility.yul\":9820:9834   */\n      add\n        /* \"#utility.yul\":9812:9834   */\n      swap1\n      pop\n        /* \"#utility.yul\":9709:9841   */\n      swap2\n      swap1\n      pop\n      jump\t// out\n        /* \"#utility.yul\":9847:9961   */\n    tag_167:\n        /* \"#utility.yul\":9914:9920   */\n      0x00\n        /* \"#utility.yul\":9948:9953   */\n      dup2\n        /* \"#utility.yul\":9942:9954   */\n      mload\n        /* \"#utility.yul\":9932:9954   */\n      swap1\n      pop\n        /* \"#utility.yul\":9847:9961   */\n      swap2\n      swap1\n      pop\n      jump\t// out\n        /* \"#utility.yul\":9967:10066   */\n    tag_188:\n        /* \"#utility.yul\":10019:10025   */\n      0x00\n        /* \"#utility.yul\":10053:10058   */\n      dup2\n        /* \"#utility.yul\":10047:10059   */\n      mload\n        /* \"#utility.yul\":10037:10059   */\n      swap1\n      pop\n        /* \"#utility.yul\":9967:10066   */\n      swap2\n      swap1\n      pop\n      jump\t// out\n        /* \"#utility.yul\":10072:10185   */\n    tag_177:\n        /* \"#utility.yul\":10142:10146   */\n      0x00\n        /* \"#utility.yul\":10174:10178   */\n      0x20\n        /* \"#utility.yul\":10169:10172   */\n      dup3\n        /* \"#utility.yul\":10165:10179   */\n      add\n        /* \"#utility.yul\":10157:10179   */\n      swap1\n      pop\n        /* \"#utility.yul\":10072:10185   */\n      swap2\n      swap1\n      pop\n      jump\t// out\n        /* \"#utility.yul\":10191:10365   */\n    tag_169:\n        /* \"#utility.yul\":10280:10291   */\n      0x00\n        /* \"#utility.yul\":10314:10320   */\n      dup3\n        /* \"#utility.yul\":10309:10312   */\n      dup3\n        /* \"#utility.yul\":10302:10321   */\n      mstore\n        /* \"#utility.yul\":10354:10358   */\n      0x20\n        /* \"#utility.yul\":10349:10352   */\n      dup3\n        /* \"#utility.yul\":10345:10359   */\n      add\n        /* \"#utility.yul\":10330:10359   */\n      swap1\n      pop\n        /* \"#utility.yul\":10191:10365   */\n      swap3\n      swap2\n      pop\n      pop\n      jump\t// out\n        /* \"#utility.yul\":10371:10530   */\n    tag_190:\n        /* \"#utility.yul\":10445:10456   */\n      0x00\n        /* \"#utility.yul\":10479:10485   */\n      dup3\n        /* \"#utility.yul\":10474:10477   */\n      dup3\n        /* \"#utility.yul\":10467:10486   */\n      mstore\n        /* \"#utility.yul\":10519:10523   */\n      0x20\n        /* \"#utility.yul\":10514:10517   */\n      dup3\n        /* \"#utility.yul\":10510:10524   */\n      add\n        /* \"#utility.yul\":10495:10524   */\n      swap1\n      pop\n        /* \"#utility.yul\":10371:10530   */\n      swap3\n      swap2\n      pop\n      pop\n      jump\t// out\n        /* \"#utility.yul\":10536:10705   */\n    tag_199:\n        /* \"#utility.yul\":10620:10631   */\n      0x00\n        /* \"#utility.yul\":10654:10660   */\n      dup3\n        /* \"#utility.yul\":10649:10652   */\n      dup3\n        /* \"#utility.yul\":10642:10661   */\n      mstore\n        /* \"#utility.yul\":10694:10698   */\n      0x20\n        /* \"#utility.yul\":10689:10692   */\n      dup3\n        /* \"#utility.yul\":10685:10699   */\n      add\n        /* \"#utility.yul\":10670:10699   */\n      swap1\n      pop\n        /* \"#utility.yul\":10536:10705   */\n      swap3\n      swap2\n      pop\n      pop\n      jump\t// out\n        /* \"#utility.yul\":10711:10859   */\n    tag_206:\n        /* \"#utility.yul\":10813:10824   */\n      0x00\n        /* \"#utility.yul\":10850:10853   */\n      dup2\n        /* \"#utility.yul\":10835:10853   */\n      swap1\n      pop\n        /* \"#utility.yul\":10711:10859   */\n      swap3\n      swap2\n      pop\n      pop\n      jump\t// out\n        /* \"#utility.yul\":10865:10961   */\n    tag_163:\n        /* \"#utility.yul\":10902:10909   */\n      0x00\n        /* \"#utility.yul\":10931:10955   */\n      tag_260\n        /* \"#utility.yul\":10949:10954   */\n      dup3\n        /* \"#utility.yul\":10931:10955   */\n      tag_261\n      jump\t// in\n    tag_260:\n        /* \"#utility.yul\":10920:10955   */\n      swap1\n      pop\n        /* \"#utility.yul\":10865:10961   */\n      swap2\n      swap1\n      pop\n      jump\t// out\n        /* \"#utility.yul\":10967:11057   */\n    tag_181:\n        /* \"#utility.yul\":11001:11008   */\n      0x00\n        /* \"#utility.yul\":11044:11049   */\n      dup2\n        /* \"#utility.yul\":11037:11050   */\n      iszero\n        /* \"#utility.yul\":11030:11051   */\n      iszero\n        /* \"#utility.yul\":11019:11051   */\n      swap1\n      pop\n        /* \"#utility.yul\":10967:11057   */\n      swap2\n      swap1\n      pop\n      jump\t// out\n        /* \"#utility.yul\":11063:11189   */\n    tag_261:\n        /* \"#utility.yul\":11100:11107   */\n      0x00\n        /* \"#utility.yul\":11140:11182   */\n      0xffffffffffffffffffffffffffffffffffffffff\n        /* \"#utility.yul\":11133:11138   */\n      dup3\n        /* \"#utility.yul\":11129:11183   */\n      and\n        /* \"#utility.yul\":11118:11183   */\n      swap1\n      pop\n        /* \"#utility.yul\":11063:11189   */\n      swap2\n      swap1\n      pop\n      jump\t// out\n        /* \"#utility.yul\":11195:11272   */\n    tag_216:\n        /* \"#utility.yul\":11232:11239   */\n      0x00\n        /* \"#utility.yul\":11261:11266   */\n      dup2\n        /* \"#utility.yul\":11250:11266   */\n      swap1\n      pop\n        /* \"#utility.yul\":11195:11272   */\n      swap2\n      swap1\n      pop\n      jump\t// out\n        /* \"#utility.yul\":11278:11432   */\n    tag_124:\n        /* \"#utility.yul\":11362:11368   */\n      dup3\n        /* \"#utility.yul\":11357:11360   */\n      dup2\n        /* \"#utility.yul\":11352:11355   */\n      dup4\n        /* \"#utility.yul\":11339:11369   */\n      calldatacopy\n        /* \"#utility.yul\":11424:11425   */\n      0x00\n        /* \"#utility.yul\":11415:11421   */\n      dup4\n        /* \"#utility.yul\":11410:11413   */\n      dup4\n        /* \"#utility.yul\":11406:11422   */\n      add\n        /* \"#utility.yul\":11399:11426   */\n      mstore\n        /* \"#utility.yul\":11278:11432   */\n      pop\n      pop\n      pop\n      jump\t// out\n        /* \"#utility.yul\":11438:11745   */\n    tag_192:\n        /* \"#utility.yul\":11506:11507   */\n      0x00\n        /* \"#utility.yul\":11516:11629   */\n    tag_267:\n        /* \"#utility.yul\":11530:11536   */\n      dup4\n        /* \"#utility.yul\":11527:11528   */\n      dup2\n        /* \"#utility.yul\":11524:11537   */\n      lt\n        /* \"#utility.yul\":11516:11629   */\n      iszero\n      tag_269\n      jumpi\n        /* \"#utility.yul\":11615:11616   */\n      dup1\n        /* \"#utility.yul\":11610:11613   */\n      dup3\n        /* \"#utility.yul\":11606:11617   */\n      add\n        /* \"#utility.yul\":11600:11618   */\n      mload\n        /* \"#utility.yul\":11596:11597   */\n      dup2\n        /* \"#utility.yul\":11591:11594   */\n      dup5\n        /* \"#utility.yul\":11587:11598   */\n      add\n        /* \"#utility.yul\":11580:11619   */\n      mstore\n        /* \"#utility.yul\":11552:11554   */\n      0x20\n        /* \"#utility.yul\":11549:11550   */\n      dup2\n        /* \"#utility.yul\":11545:11555   */\n      add\n        /* \"#utility.yul\":11540:11555   */\n      swap1\n      pop\n        /* \"#utility.yul\":11516:11629   */\n      jump(tag_267)\n    tag_269:\n        /* \"#utility.yul\":11647:11653   */\n      dup4\n        /* \"#utility.yul\":11644:11645   */\n      dup2\n        /* \"#utility.yul\":11641:11654   */\n      gt\n        /* \"#utility.yul\":11638:11739   */\n      iszero\n      tag_270\n      jumpi\n        /* \"#utility.yul\":11727:11728   */\n      0x00\n        /* \"#utility.yul\":11718:11724   */\n      dup5\n        /* \"#utility.yul\":11713:11716   */\n      dup5\n        /* \"#utility.yul\":11709:11725   */\n      add\n        /* \"#utility.yul\":11702:11729   */\n      mstore\n        /* \"#utility.yul\":11638:11739   */\n    tag_270:\n        /* \"#utility.yul\":11487:11745   */\n      pop\n        /* \"#utility.yul\":11438:11745   */\n      pop\n      pop\n      pop\n      jump\t// out\n        /* \"#utility.yul\":11751:12071   */\n    tag_52:\n        /* \"#utility.yul\":11795:11801   */\n      0x00\n        /* \"#utility.yul\":11832:11833   */\n      0x02\n        /* \"#utility.yul\":11826:11830   */\n      dup3\n        /* \"#utility.yul\":11822:11834   */\n      div\n        /* \"#utility.yul\":11812:11834   */\n      swap1\n      pop\n        /* \"#utility.yul\":11879:11880   */\n      0x01\n        /* \"#utility.yul\":11873:11877   */\n      dup3\n        /* \"#utility.yul\":11869:11881   */\n      and\n        /* \"#utility.yul\":11900:11918   */\n      dup1\n        /* \"#utility.yul\":11890:11971   */\n      tag_272\n      jumpi\n        /* \"#utility.yul\":11956:11960   */\n      0x7f\n        /* \"#utility.yul\":11948:11954   */\n      dup3\n        /* \"#utility.yul\":11944:11961   */\n      and\n        /* \"#utility.yul\":11934:11961   */\n      swap2\n      pop\n        /* \"#utility.yul\":11890:11971   */\n    tag_272:\n        /* \"#utility.yul\":12018:12020   */\n      0x20\n        /* \"#utility.yul\":12010:12016   */\n      dup3\n        /* \"#utility.yul\":12007:12021   */\n      lt\n        /* \"#utility.yul\":11987:12005   */\n      dup2\n        /* \"#utility.yul\":11984:12022   */\n      eq\n        /* \"#utility.yul\":11981:12065   */\n      iszero\n      tag_273\n      jumpi\n        /* \"#utility.yul\":12037:12055   */\n      tag_274\n      tag_275\n      jump\t// in\n    tag_274:\n        /* \"#utility.yul\":11981:12065   */\n    tag_273:\n        /* \"#utility.yul\":11802:12071   */\n      pop\n        /* \"#utility.yul\":11751:12071   */\n      swap2\n      swap1\n      pop\n      jump\t// out\n        /* \"#utility.yul\":12077:12358   */\n    tag_244:\n        /* \"#utility.yul\":12160:12187   */\n      tag_277\n        /* \"#utility.yul\":12182:12186   */\n      dup3\n        /* \"#utility.yul\":12160:12187   */\n      tag_194\n      jump\t// in\n    tag_277:\n        /* \"#utility.yul\":12152:12158   */\n      dup2\n        /* \"#utility.yul\":12148:12188   */\n      add\n        /* \"#utility.yul\":12290:12296   */\n      dup2\n        /* \"#utility.yul\":12278:12288   */\n      dup2\n        /* \"#utility.yul\":12275:12297   */\n      lt\n        /* \"#utility.yul\":12254:12272   */\n      0xffffffffffffffff\n        /* \"#utility.yul\":12242:12252   */\n      dup3\n        /* \"#utility.yul\":12239:12273   */\n      gt\n        /* \"#utility.yul\":12236:12298   */\n      or\n        /* \"#utility.yul\":12233:12321   */\n      iszero\n      tag_278\n      jumpi\n        /* \"#utility.yul\":12301:12319   */\n      tag_279\n      tag_249\n      jump\t// in\n    tag_279:\n        /* \"#utility.yul\":12233:12321   */\n    tag_278:\n        /* \"#utility.yul\":12341:12351   */\n      dup1\n        /* \"#utility.yul\":12337:12339   */\n      0x40\n        /* \"#utility.yul\":12330:12352   */\n      mstore\n        /* \"#utility.yul\":12120:12358   */\n      pop\n        /* \"#utility.yul\":12077:12358   */\n      pop\n      pop\n      jump\t// out\n        /* \"#utility.yul\":12364:12597   */\n    tag_69:\n        /* \"#utility.yul\":12403:12406   */\n      0x00\n        /* \"#utility.yul\":12426:12450   */\n      tag_281\n        /* \"#utility.yul\":12444:12449   */\n      dup3\n        /* \"#utility.yul\":12426:12450   */\n      tag_216\n      jump\t// in\n    tag_281:\n        /* \"#utility.yul\":12417:12450   */\n      swap2\n      pop\n        /* \"#utility.yul\":12472:12538   */\n      0xffffffffffffffffffffffffffffffffffffffffffffffffffffffffffffffff\n        /* \"#utility.yul\":12465:12470   */\n      dup3\n        /* \"#utility.yul\":12462:12539   */\n      eq\n        /* \"#utility.yul\":12459:12562   */\n      iszero\n      tag_282\n      jumpi\n        /* \"#utility.yul\":12542:12560   */\n      tag_283\n      tag_284\n      jump\t// in\n    tag_283:\n        /* \"#utility.yul\":12459:12562   */\n    tag_282:\n        /* \"#utility.yul\":12589:12590   */\n      0x01\n        /* \"#utility.yul\":12582:12587   */\n      dup3\n        /* \"#utility.yul\":12578:12591   */\n      add\n        /* \"#utility.yul\":12571:12591   */\n      swap1\n      pop\n        /* \"#utility.yul\":12364:12597   */\n      swap2\n      swap1\n      pop\n      jump\t// out\n        /* \"#utility.yul\":12603:12783   */\n    tag_284:\n        /* \"#utility.yul\":12651:12728   */\n      0x4e487b7100000000000000000000000000000000000000000000000000000000\n        /* \"#utility.yul\":12648:12649   */\n      0x00\n        /* \"#utility.yul\":12641:12729   */\n      mstore\n        /* \"#utility.yul\":12748:12752   */\n      0x11\n        /* \"#utility.yul\":12745:12746   */\n      0x04\n        /* \"#utility.yul\":12738:12753   */\n      mstore\n        /* \"#utility.yul\":12772:12776   */\n      0x24\n        /* \"#utility.yul\":12769:12770   */\n      0x00\n        /* \"#utility.yul\":12762:12777   */\n      revert\n        /* \"#utility.yul\":12789:12969   */\n    tag_275:\n        /* \"#utility.yul\":12837:12914   */\n      0x4e487b7100000000000000000000000000000000000000000000000000000000\n        /* \"#utility.yul\":12834:12835   */\n      0x00\n        /* \"#utility.yul\":12827:12915   */\n      mstore\n        /* \"#utility.yul\":12934:12938   */\n      0x22\n        /* \"#utility.yul\":12931:12932   */\n      0x04\n        /* \"#utility.yul\":12924:12939   */\n      mstore\n        /* \"#utility.yul\":12958:12962   */\n      0x24\n        /* \"#utility.yul\":12955:12956   */\n      0x00\n        /* \"#utility.yul\":12948:12963   */\n      revert\n        /* \"#utility.yul\":12975:13155   */\n    tag_90:\n        /* \"#utility.yul\":13023:13100   */\n      0x4e487b7100000000000000000000000000000000000000000000000000000000\n        /* \"#utility.yul\":13020:13021   */\n      0x00\n        /* \"#utility.yul\":13013:13101   */\n      mstore\n        /* \"#utility.yul\":13120:13124   */\n      0x32\n        /* \"#utility.yul\":13117:13118   */\n      0x04\n        /* \"#utility.yul\":13110:13125   */\n      mstore\n        /* \"#utility.yul\":13144:13148   */\n      0x24\n        /* \"#utility.yul\":13141:13142   */\n      0x00\n        /* \"#utility.yul\":13134:13149   */\n      revert\n        /* \"#utility.yul\":13161:13341   */\n    tag_249:\n        /* \"#utility.yul\":13209:13286   */\n      0x4e487b7100000000000000000000000000000000000000000000000000000000\n        /* \"#utility.yul\":13206:13207   */\n      0x00\n        /* \"#utility.yul\":13199:13287   */\n      mstore\n        /* \"#utility.yul\":13306:13310   */\n      0x41\n        /* \"#utility.yul\":13303:13304   */\n      0x04\n        /* \"#utility.yul\":13296:13311   */\n      mstore\n        /* \"#utility.yul\":13330:13334   */\n      0x24\n        /* \"#utility.yul\":13327:13328   */\n      0x00\n        /* \"#utility.yul\":13320:13335   */\n      revert\n        /* \"#utility.yul\":13347:13464   */\n    tag_129:\n        /* \"#utility.yul\":13456:13457   */\n      0x00\n        /* \"#utility.yul\":13453:13454   */\n      dup1\n        /* \"#utility.yul\":13446:13458   */\n      revert\n        /* \"#utility.yul\":13470:13587   */\n    tag_122:\n        /* \"#utility.yul\":13579:13580   */\n      0x00\n        /* \"#utility.yul\":13576:13577   */\n      dup1\n        /* \"#utility.yul\":13569:13581   */\n      revert\n        /* \"#utility.yul\":13593:13710   */\n    tag_141:\n        /* \"#utility.yul\":13702:13703   */\n      0x00\n        /* \"#utility.yul\":13699:13700   */\n      dup1\n        /* \"#utility.yul\":13692:13704   */\n      revert\n        /* \"#utility.yul\":13716:13833   */\n    tag_138:\n        /* \"#utility.yul\":13825:13826   */\n      0x00\n        /* \"#utility.yul\":13822:13823   */\n      dup1\n        /* \"#utility.yul\":13815:13827   */\n      revert\n        /* \"#utility.yul\":13839:13941   */\n    tag_194:\n        /* \"#utility.yul\":13880:13886   */\n      0x00\n        /* \"#utility.yul\":13931:13933   */\n      0x1f\n        /* \"#utility.yul\":13927:13934   */\n      not\n        /* \"#utility.yul\":13922:13924   */\n      0x1f\n        /* \"#utility.yul\":13915:13920   */\n      dup4\n        /* \"#utility.yul\":13911:13925   */\n      add\n        /* \"#utility.yul\":13907:13935   */\n      and\n        /* \"#utility.yul\":13897:13935   */\n      swap1\n      pop\n        /* \"#utility.yul\":13839:13941   */\n      swap2\n      swap1\n      pop\n      jump\t// out\n        /* \"#utility.yul\":13947:14069   */\n    tag_134:\n        /* \"#utility.yul\":14020:14044   */\n      tag_295\n        /* \"#utility.yul\":14038:14043   */\n      dup2\n        /* \"#utility.yul\":14020:14044   */\n      tag_216\n      jump\t// in\n    tag_295:\n        /* \"#utility.yul\":14013:14018   */\n      dup2\n        /* \"#utility.yul\":14010:14045   */\n      eq\n        /* \"#utility.yul\":14000:14063   */\n      tag_296\n      jumpi\n        /* \"#utility.yul\":14059:14060   */\n      0x00\n        /* \"#utility.yul\":14056:14057   */\n      dup1\n        /* \"#utility.yul\":14049:14061   */\n      revert\n        /* \"#utility.yul\":14000:14063   */\n    tag_296:\n        /* \"#utility.yul\":13947:14069   */\n      pop\n      jump\t// out\n\n    auxdata: 0xa26469706673582212204414bb67b3e9919595bfafa40617d0e4448cbc33959a634f23cbf99095b0bdf464736f6c63430008070033\n}\n",
				"bytecode": {
					"linkReferences": {},
					"object": "60806040523480156200001157600080fd5b5060405162001412380380620014128339818101604052810190620000379190620001dd565b806000806101000a81548173ffffffffffffffffffffffffffffffffffffffff021916908373ffffffffffffffffffffffffffffffffffffffff16021790555081600190805190602001906200008f92919062000098565b50505062000415565b828054620000a6906200030c565b90600052602060002090601f016020900481019282620000ca576000855562000116565b82601f10620000e557805160ff191683800117855562000116565b8280016001018555821562000116579182015b8281111562000115578251825591602001919060010190620000f8565b5b50905062000125919062000129565b5090565b5b80821115620001445760008160009055506001016200012a565b5090565b60006200015f62000159846200026c565b62000243565b9050828152602081018484840111156200017e576200017d620003db565b5b6200018b848285620002d6565b509392505050565b600081519050620001a481620003fb565b92915050565b600082601f830112620001c257620001c1620003d6565b5b8151620001d484826020860162000148565b91505092915050565b60008060408385031215620001f757620001f6620003e5565b5b600083015167ffffffffffffffff811115620002185762000217620003e0565b5b6200022685828601620001aa565b9250506020620002398582860162000193565b9150509250929050565b60006200024f62000262565b90506200025d828262000342565b919050565b6000604051905090565b600067ffffffffffffffff8211156200028a5762000289620003a7565b5b6200029582620003ea565b9050602081019050919050565b6000620002af82620002b6565b9050919050565b600073ffffffffffffffffffffffffffffffffffffffff82169050919050565b60005b83811015620002f6578082015181840152602081019050620002d9565b8381111562000306576000848401525b50505050565b600060028204905060018216806200032557607f821691505b602082108114156200033c576200033b62000378565b5b50919050565b6200034d82620003ea565b810181811067ffffffffffffffff821117156200036f576200036e620003a7565b5b80604052505050565b7f4e487b7100000000000000000000000000000000000000000000000000000000600052602260045260246000fd5b7f4e487b7100000000000000000000000000000000000000000000000000000000600052604160045260246000fd5b600080fd5b600080fd5b600080fd5b600080fd5b6000601f19601f8301169050919050565b6200040681620002a2565b81146200041257600080fd5b50565b610fed80620004256000396000f3fe6080604052600436106100705760003560e01c806346c96aac1161004e57806346c96aac1461011c5780634f5cbc1a1461014b57806364b9fb8914610176578063e8d5940d146101a157610070565b80632e4176cf14610075578063302a2a46146100a057806343ef7e85146100df575b600080fd5b34801561008157600080fd5b5061008a6101d1565b6040516100979190610ba9565b60405180910390f35b3480156100ac57600080fd5b506100c760048036038101906100c29190610997565b6101f5565b6040516100d693929190610c47565b60405180910390f35b3480156100eb57600080fd5b50610106600480360381019061010191906108d6565b6102c4565b6040516101139190610c85565b60405180910390f35b34801561012857600080fd5b506101316103d2565b604051610142959493929190610be6565b60405180910390f35b34801561015757600080fd5b50610160610533565b60405161016d9190610bc4565b60405180910390f35b34801561018257600080fd5b5061018b6105c1565b6040516101989190610ca7565b60405180910390f35b6101bb60048036038101906101b6919061091f565b6105c7565b6040516101c89190610c85565b60405180910390f35b60008054906101000a900473ffffffffffffffffffffffffffffffffffffffff1681565b6004818154811061020557600080fd5b906000526020600020906004020160009150905080600001805461022890610e13565b80601f016020809104026020016040519081016040528092919081815260200182805461025490610e13565b80156102a15780601f10610276576101008083540402835291602001916102a1565b820191906000526020600020905b81548152906001019060200180831161028457829003601f168201915b5050505050908060010154908060030160009054906101000a900460ff16905083565b6102cc610737565b6102d4610737565b828160000181905250600254816020018181525050600181606001901515908115158152505060025460038460405161030d9190610b92565b90815260200160405180910390208190555060048190806001815401808255809150506001900390600052602060002090600402016000909190919091506000820151816000019080519060200190610367929190610761565b5060208201518160010155604082015181600201908051906020019061038e9291906107e7565b5060608201518160030160006101000a81548160ff0219169083151502179055505050600260008154809291906103c490610e76565b919050555080915050919050565b60058060000180546103e390610e13565b80601f016020809104026020016040519081016040528092919081815260200182805461040f90610e13565b801561045c5780601f106104315761010080835404028352916020019161045c565b820191906000526020600020905b81548152906001019060200180831161043f57829003601f168201915b5050505050908060010160009054906101000a900473ffffffffffffffffffffffffffffffffffffffff16908060020154908060030160009054906101000a900460ff16908060040180546104b090610e13565b80601f01602080910402602001604051908101604052809291908181526020018280546104dc90610e13565b80156105295780601f106104fe57610100808354040283529160200191610529565b820191906000526020600020905b81548152906001019060200180831161050c57829003601f168201915b5050505050905085565b6001805461054090610e13565b80601f016020809104026020016040519081016040528092919081815260200182805461056c90610e13565b80156105b95780601f1061058e576101008083540402835291602001916105b9565b820191906000526020600020905b81548152906001019060200180831161059c57829003601f168201915b505050505081565b60025481565b6105cf610737565b600060046003856040516105e39190610b92565b9081526020016040518091039020548154811061060357610602610f1d565b5b906000526020600020906004020190508060405180608001604052908160008201805461062f90610e13565b80601f016020809104026020016040519081016040528092919081815260200182805461065b90610e13565b80156106a85780601f1061067d576101008083540402835291602001916106a8565b820191906000526020600020905b81548152906001019060200180831161068b57829003601f168201915b50505050508152602001600182015481526020016002820180548060200260200160405190810160405280929190818152602001828054801561070a57602002820191906000526020600020905b8154815260200190600101908083116106f6575b505050505081526020016003820160009054906101000a900460ff16151515158152505091505092915050565b60405180608001604052806060815260200160008152602001606081526020016000151581525090565b82805461076d90610e13565b90600052602060002090601f01602090048101928261078f57600085556107d6565b82601f106107a857805160ff19168380011785556107d6565b828001600101855582156107d6579182015b828111156107d55782518255916020019190600101906107ba565b5b5090506107e39190610834565b5090565b828054828255906000526020600020908101928215610823579160200282015b82811115610822578251825591602001919060010190610807565b5b5090506108309190610834565b5090565b5b8082111561084d576000816000905550600101610835565b5090565b600061086461085f84610ce7565b610cc2565b9050828152602081018484840111156108805761087f610f80565b5b61088b848285610dd1565b509392505050565b600082601f8301126108a8576108a7610f7b565b5b81356108b8848260208601610851565b91505092915050565b6000813590506108d081610fa0565b92915050565b6000602082840312156108ec576108eb610f8a565b5b600082013567ffffffffffffffff81111561090a57610909610f85565b5b61091684828501610893565b91505092915050565b6000806040838503121561093657610935610f8a565b5b600083013567ffffffffffffffff81111561095457610953610f85565b5b61096085828601610893565b925050602083013567ffffffffffffffff81111561098157610980610f85565b5b61098d85828601610893565b9150509250929050565b6000602082840312156109ad576109ac610f8a565b5b60006109bb848285016108c1565b91505092915050565b60006109d08383610b74565b60208301905092915050565b6109e581610d89565b82525050565b60006109f682610d28565b610a008185610d4b565b9350610a0b83610d18565b8060005b83811015610a3c578151610a2388826109c4565b9750610a2e83610d3e565b925050600181019050610a0f565b5085935050505092915050565b610a5281610d9b565b82525050565b610a6181610d9b565b82525050565b6000610a7282610d33565b610a7c8185610d5c565b9350610a8c818560208601610de0565b610a9581610f8f565b840191505092915050565b6000610aab82610d33565b610ab58185610d6d565b9350610ac5818560208601610de0565b610ace81610f8f565b840191505092915050565b6000610ae482610d33565b610aee8185610d7e565b9350610afe818560208601610de0565b80840191505092915050565b60006080830160008301518482036000860152610b278282610a67565b9150506020830151610b3c6020860182610b74565b5060408301518482036040860152610b5482826109eb565b9150506060830151610b696060860182610a49565b508091505092915050565b610b7d81610dc7565b82525050565b610b8c81610dc7565b82525050565b6000610b9e8284610ad9565b915081905092915050565b6000602082019050610bbe60008301846109dc565b92915050565b60006020820190508181036000830152610bde8184610aa0565b905092915050565b600060a0820190508181036000830152610c008188610aa0565b9050610c0f60208301876109dc565b610c1c6040830186610b83565b610c296060830185610a58565b8181036080830152610c3b8184610aa0565b90509695505050505050565b60006060820190508181036000830152610c618186610aa0565b9050610c706020830185610b83565b610c7d6040830184610a58565b949350505050565b60006020820190508181036000830152610c9f8184610b0a565b905092915050565b6000602082019050610cbc6000830184610b83565b92915050565b6000610ccc610cdd565b9050610cd88282610e45565b919050565b6000604051905090565b600067ffffffffffffffff821115610d0257610d01610f4c565b5b610d0b82610f8f565b9050602081019050919050565b6000819050602082019050919050565b600081519050919050565b600081519050919050565b6000602082019050919050565b600082825260208201905092915050565b600082825260208201905092915050565b600082825260208201905092915050565b600081905092915050565b6000610d9482610da7565b9050919050565b60008115159050919050565b600073ffffffffffffffffffffffffffffffffffffffff82169050919050565b6000819050919050565b82818337600083830152505050565b60005b83811015610dfe578082015181840152602081019050610de3565b83811115610e0d576000848401525b50505050565b60006002820490506001821680610e2b57607f821691505b60208210811415610e3f57610e3e610eee565b5b50919050565b610e4e82610f8f565b810181811067ffffffffffffffff82111715610e6d57610e6c610f4c565b5b80604052505050565b6000610e8182610dc7565b91507fffffffffffffffffffffffffffffffffffffffffffffffffffffffffffffffff821415610eb457610eb3610ebf565b5b600182019050919050565b7f4e487b7100000000000000000000000000000000000000000000000000000000600052601160045260246000fd5b7f4e487b7100000000000000000000000000000000000000000000000000000000600052602260045260246000fd5b7f4e487b7100000000000000000000000000000000000000000000000000000000600052603260045260246000fd5b7f4e487b7100000000000000000000000000000000000000000000000000000000600052604160045260246000fd5b600080fd5b600080fd5b600080fd5b600080fd5b6000601f19601f8301169050919050565b610fa981610dc7565b8114610fb457600080fd5b5056fea26469706673582212204414bb67b3e9919595bfafa40617d0e4448cbc33959a634f23cbf99095b0bdf464736f6c63430008070033",
					"opcodes": "PUSH1 0x80 PUSH1 0x40 MSTORE CALLVALUE DUP1 ISZERO PUSH3 0x11 JUMPI PUSH1 0x0 DUP1 REVERT JUMPDEST POP PUSH1 0x40 MLOAD PUSH3 0x1412 CODESIZE SUB DUP1 PUSH3 0x1412 DUP4 CODECOPY DUP2 DUP2 ADD PUSH1 0x40 MSTORE DUP2 ADD SWAP1 PUSH3 0x37 SWAP2 SWAP1 PUSH3 0x1DD JUMP JUMPDEST DUP1 PUSH1 0x0 DUP1 PUSH2 0x100 EXP DUP2 SLOAD DUP2 PUSH20 0xFFFFFFFFFFFFFFFFFFFFFFFFFFFFFFFFFFFFFFFF MUL NOT AND SWAP1 DUP4 PUSH20 0xFFFFFFFFFFFFFFFFFFFFFFFFFFFFFFFFFFFFFFFF AND MUL OR SWAP1 SSTORE POP DUP2 PUSH1 0x1 SWAP1 DUP1 MLOAD SWAP1 PUSH1 0x20 ADD SWAP1 PUSH3 0x8F SWAP3 SWAP2 SWAP1 PUSH3 0x98 JUMP JUMPDEST POP POP POP PUSH3 0x415 JUMP JUMPDEST DUP3 DUP1 SLOAD PUSH3 0xA6 SWAP1 PUSH3 0x30C JUMP JUMPDEST SWAP1 PUSH1 0x0 MSTORE PUSH1 0x20 PUSH1 0x0 KECCAK256 SWAP1 PUSH1 0x1F ADD PUSH1 0x20 SWAP1 DIV DUP2 ADD SWAP3 DUP3 PUSH3 0xCA JUMPI PUSH1 0x0 DUP6 SSTORE PUSH3 0x116 JUMP JUMPDEST DUP3 PUSH1 0x1F LT PUSH3 0xE5 JUMPI DUP1 MLOAD PUSH1 0xFF NOT AND DUP4 DUP1 ADD OR DUP6 SSTORE PUSH3 0x116 JUMP JUMPDEST DUP3 DUP1 ADD PUSH1 0x1 ADD DUP6 SSTORE DUP3 ISZERO PUSH3 0x116 JUMPI SWAP2 DUP3 ADD JUMPDEST DUP3 DUP2 GT ISZERO PUSH3 0x115 JUMPI DUP3 MLOAD DUP3 SSTORE SWAP2 PUSH1 0x20 ADD SWAP2 SWAP1 PUSH1 0x1 ADD SWAP1 PUSH3 0xF8 JUMP JUMPDEST JUMPDEST POP SWAP1 POP PUSH3 0x125 SWAP2 SWAP1 PUSH3 0x129 JUMP JUMPDEST POP SWAP1 JUMP JUMPDEST JUMPDEST DUP1 DUP3 GT ISZERO PUSH3 0x144 JUMPI PUSH1 0x0 DUP2 PUSH1 0x0 SWAP1 SSTORE POP PUSH1 0x1 ADD PUSH3 0x12A JUMP JUMPDEST POP SWAP1 JUMP JUMPDEST PUSH1 0x0 PUSH3 0x15F PUSH3 0x159 DUP5 PUSH3 0x26C JUMP JUMPDEST PUSH3 0x243 JUMP JUMPDEST SWAP1 POP DUP3 DUP2 MSTORE PUSH1 0x20 DUP2 ADD DUP5 DUP5 DUP5 ADD GT ISZERO PUSH3 0x17E JUMPI PUSH3 0x17D PUSH3 0x3DB JUMP JUMPDEST JUMPDEST PUSH3 0x18B DUP5 DUP3 DUP6 PUSH3 0x2D6 JUMP JUMPDEST POP SWAP4 SWAP3 POP POP POP JUMP JUMPDEST PUSH1 0x0 DUP2 MLOAD SWAP1 POP PUSH3 0x1A4 DUP2 PUSH3 0x3FB JUMP JUMPDEST SWAP3 SWAP2 POP POP JUMP JUMPDEST PUSH1 0x0 DUP3 PUSH1 0x1F DUP4 ADD SLT PUSH3 0x1C2 JUMPI PUSH3 0x1C1 PUSH3 0x3D6 JUMP JUMPDEST JUMPDEST DUP2 MLOAD PUSH3 0x1D4 DUP5 DUP3 PUSH1 0x20 DUP7 ADD PUSH3 0x148 JUMP JUMPDEST SWAP2 POP POP SWAP3 SWAP2 POP POP JUMP JUMPDEST PUSH1 0x0 DUP1 PUSH1 0x40 DUP4 DUP6 SUB SLT ISZERO PUSH3 0x1F7 JUMPI PUSH3 0x1F6 PUSH3 0x3E5 JUMP JUMPDEST JUMPDEST PUSH1 0x0 DUP4 ADD MLOAD PUSH8 0xFFFFFFFFFFFFFFFF DUP2 GT ISZERO PUSH3 0x218 JUMPI PUSH3 0x217 PUSH3 0x3E0 JUMP JUMPDEST JUMPDEST PUSH3 0x226 DUP6 DUP3 DUP7 ADD PUSH3 0x1AA JUMP JUMPDEST SWAP3 POP POP PUSH1 0x20 PUSH3 0x239 DUP6 DUP3 DUP7 ADD PUSH3 0x193 JUMP JUMPDEST SWAP2 POP POP SWAP3 POP SWAP3 SWAP1 POP JUMP JUMPDEST PUSH1 0x0 PUSH3 0x24F PUSH3 0x262 JUMP JUMPDEST SWAP1 POP PUSH3 0x25D DUP3 DUP3 PUSH3 0x342 JUMP JUMPDEST SWAP2 SWAP1 POP JUMP JUMPDEST PUSH1 0x0 PUSH1 0x40 MLOAD SWAP1 POP SWAP1 JUMP JUMPDEST PUSH1 0x0 PUSH8 0xFFFFFFFFFFFFFFFF DUP3 GT ISZERO PUSH3 0x28A JUMPI PUSH3 0x289 PUSH3 0x3A7 JUMP JUMPDEST JUMPDEST PUSH3 0x295 DUP3 PUSH3 0x3EA JUMP JUMPDEST SWAP1 POP PUSH1 0x20 DUP2 ADD SWAP1 POP SWAP2 SWAP1 POP JUMP JUMPDEST PUSH1 0x0 PUSH3 0x2AF DUP3 PUSH3 0x2B6 JUMP JUMPDEST SWAP1 POP SWAP2 SWAP1 POP JUMP JUMPDEST PUSH1 0x0 PUSH20 0xFFFFFFFFFFFFFFFFFFFFFFFFFFFFFFFFFFFFFFFF DUP3 AND SWAP1 POP SWAP2 SWAP1 POP JUMP JUMPDEST PUSH1 0x0 JUMPDEST DUP4 DUP2 LT ISZERO PUSH3 0x2F6 JUMPI DUP1 DUP3 ADD MLOAD DUP2 DUP5 ADD MSTORE PUSH1 0x20 DUP2 ADD SWAP1 POP PUSH3 0x2D9 JUMP JUMPDEST DUP4 DUP2 GT ISZERO PUSH3 0x306 JUMPI PUSH1 0x0 DUP5 DUP5 ADD MSTORE JUMPDEST POP POP POP POP JUMP JUMPDEST PUSH1 0x0 PUSH1 0x2 DUP3 DIV SWAP1 POP PUSH1 0x1 DUP3 AND DUP1 PUSH3 0x325 JUMPI PUSH1 0x7F DUP3 AND SWAP2 POP JUMPDEST PUSH1 0x20 DUP3 LT DUP2 EQ ISZERO PUSH3 0x33C JUMPI PUSH3 0x33B PUSH3 0x378 JUMP JUMPDEST JUMPDEST POP SWAP2 SWAP1 POP JUMP JUMPDEST PUSH3 0x34D DUP3 PUSH3 0x3EA JUMP JUMPDEST DUP2 ADD DUP2 DUP2 LT PUSH8 0xFFFFFFFFFFFFFFFF DUP3 GT OR ISZERO PUSH3 0x36F JUMPI PUSH3 0x36E PUSH3 0x3A7 JUMP JUMPDEST JUMPDEST DUP1 PUSH1 0x40 MSTORE POP POP POP JUMP JUMPDEST PUSH32 0x4E487B7100000000000000000000000000000000000000000000000000000000 PUSH1 0x0 MSTORE PUSH1 0x22 PUSH1 0x4 MSTORE PUSH1 0x24 PUSH1 0x0 REVERT JUMPDEST PUSH32 0x4E487B7100000000000000000000000000000000000000000000000000000000 PUSH1 0x0 MSTORE PUSH1 0x41 PUSH1 0x4 MSTORE PUSH1 0x24 PUSH1 0x0 REVERT JUMPDEST PUSH1 0x0 DUP1 REVERT JUMPDEST PUSH1 0x0 DUP1 REVERT JUMPDEST PUSH1 0x0 DUP1 REVERT JUMPDEST PUSH1 0x0 DUP1 REVERT JUMPDEST PUSH1 0x0 PUSH1 0x1F NOT PUSH1 0x1F DUP4 ADD AND SWAP1 POP SWAP2 SWAP1 POP JUMP JUMPDEST PUSH3 0x406 DUP2 PUSH3 0x2A2 JUMP JUMPDEST DUP2 EQ PUSH3 0x412 JUMPI PUSH1 0x0 DUP1 REVERT JUMPDEST POP JUMP JUMPDEST PUSH2 0xFED DUP1 PUSH3 0x425 PUSH1 0x0 CODECOPY PUSH1 0x0 RETURN INVALID PUSH1 0x80 PUSH1 0x40 MSTORE PUSH1 0x4 CALLDATASIZE LT PUSH2 0x70 JUMPI PUSH1 0x0 CALLDATALOAD PUSH1 0xE0 SHR DUP1 PUSH4 0x46C96AAC GT PUSH2 0x4E JUMPI DUP1 PUSH4 0x46C96AAC EQ PUSH2 0x11C JUMPI DUP1 PUSH4 0x4F5CBC1A EQ PUSH2 0x14B JUMPI DUP1 PUSH4 0x64B9FB89 EQ PUSH2 0x176 JUMPI DUP1 PUSH4 0xE8D5940D EQ PUSH2 0x1A1 JUMPI PUSH2 0x70 JUMP JUMPDEST DUP1 PUSH4 0x2E4176CF EQ PUSH2 0x75 JUMPI DUP1 PUSH4 0x302A2A46 EQ PUSH2 0xA0 JUMPI DUP1 PUSH4 0x43EF7E85 EQ PUSH2 0xDF JUMPI JUMPDEST PUSH1 0x0 DUP1 REVERT JUMPDEST CALLVALUE DUP1 ISZERO PUSH2 0x81 JUMPI PUSH1 0x0 DUP1 REVERT JUMPDEST POP PUSH2 0x8A PUSH2 0x1D1 JUMP JUMPDEST PUSH1 0x40 MLOAD PUSH2 0x97 SWAP2 SWAP1 PUSH2 0xBA9 JUMP JUMPDEST PUSH1 0x40 MLOAD DUP1 SWAP2 SUB SWAP1 RETURN JUMPDEST CALLVALUE DUP1 ISZERO PUSH2 0xAC JUMPI PUSH1 0x0 DUP1 REVERT JUMPDEST POP PUSH2 0xC7 PUSH1 0x4 DUP1 CALLDATASIZE SUB DUP2 ADD SWAP1 PUSH2 0xC2 SWAP2 SWAP1 PUSH2 0x997 JUMP JUMPDEST PUSH2 0x1F5 JUMP JUMPDEST PUSH1 0x40 MLOAD PUSH2 0xD6 SWAP4 SWAP3 SWAP2 SWAP1 PUSH2 0xC47 JUMP JUMPDEST PUSH1 0x40 MLOAD DUP1 SWAP2 SUB SWAP1 RETURN JUMPDEST CALLVALUE DUP1 ISZERO PUSH2 0xEB JUMPI PUSH1 0x0 DUP1 REVERT JUMPDEST POP PUSH2 0x106 PUSH1 0x4 DUP1 CALLDATASIZE SUB DUP2 ADD SWAP1 PUSH2 0x101 SWAP2 SWAP1 PUSH2 0x8D6 JUMP JUMPDEST PUSH2 0x2C4 JUMP JUMPDEST PUSH1 0x40 MLOAD PUSH2 0x113 SWAP2 SWAP1 PUSH2 0xC85 JUMP JUMPDEST PUSH1 0x40 MLOAD DUP1 SWAP2 SUB SWAP1 RETURN JUMPDEST CALLVALUE DUP1 ISZERO PUSH2 0x128 JUMPI PUSH1 0x0 DUP1 REVERT JUMPDEST POP PUSH2 0x131 PUSH2 0x3D2 JUMP JUMPDEST PUSH1 0x40 MLOAD PUSH2 0x142 SWAP6 SWAP5 SWAP4 SWAP3 SWAP2 SWAP1 PUSH2 0xBE6 JUMP JUMPDEST PUSH1 0x40 MLOAD DUP1 SWAP2 SUB SWAP1 RETURN JUMPDEST CALLVALUE DUP1 ISZERO PUSH2 0x157 JUMPI PUSH1 0x0 DUP1 REVERT JUMPDEST POP PUSH2 0x160 PUSH2 0x533 JUMP JUMPDEST PUSH1 0x40 MLOAD PUSH2 0x16D SWAP2 SWAP1 PUSH2 0xBC4 JUMP JUMPDEST PUSH1 0x40 MLOAD DUP1 SWAP2 SUB SWAP1 RETURN JUMPDEST CALLVALUE DUP1 ISZERO PUSH2 0x182 JUMPI PUSH1 0x0 DUP1 REVERT JUMPDEST POP PUSH2 0x18B PUSH2 0x5C1 JUMP JUMPDEST PUSH1 0x40 MLOAD PUSH2 0x198 SWAP2 SWAP1 PUSH2 0xCA7 JUMP JUMPDEST PUSH1 0x40 MLOAD DUP1 SWAP2 SUB SWAP1 RETURN JUMPDEST PUSH2 0x1BB PUSH1 0x4 DUP1 CALLDATASIZE SUB DUP2 ADD SWAP1 PUSH2 0x1B6 SWAP2 SWAP1 PUSH2 0x91F JUMP JUMPDEST PUSH2 0x5C7 JUMP JUMPDEST PUSH1 0x40 MLOAD PUSH2 0x1C8 SWAP2 SWAP1 PUSH2 0xC85 JUMP JUMPDEST PUSH1 0x40 MLOAD DUP1 SWAP2 SUB SWAP1 RETURN JUMPDEST PUSH1 0x0 DUP1 SLOAD SWAP1 PUSH2 0x100 EXP SWAP1 DIV PUSH20 0xFFFFFFFFFFFFFFFFFFFFFFFFFFFFFFFFFFFFFFFF AND DUP2 JUMP JUMPDEST PUSH1 0x4 DUP2 DUP2 SLOAD DUP2 LT PUSH2 0x205 JUMPI PUSH1 0x0 DUP1 REVERT JUMPDEST SWAP1 PUSH1 0x0 MSTORE PUSH1 0x20 PUSH1 0x0 KECCAK256 SWAP1 PUSH1 0x4 MUL ADD PUSH1 0x0 SWAP2 POP SWAP1 POP DUP1 PUSH1 0x0 ADD DUP1 SLOAD PUSH2 0x228 SWAP1 PUSH2 0xE13 JUMP JUMPDEST DUP1 PUSH1 0x1F ADD PUSH1 0x20 DUP1 SWAP2 DIV MUL PUSH1 0x20 ADD PUSH1 0x40 MLOAD SWAP1 DUP2 ADD PUSH1 0x40 MSTORE DUP1 SWAP3 SWAP2 SWAP1 DUP2 DUP2 MSTORE PUSH1 0x20 ADD DUP3 DUP1 SLOAD PUSH2 0x254 SWAP1 PUSH2 0xE13 JUMP JUMPDEST DUP1 ISZERO PUSH2 0x2A1 JUMPI DUP1 PUSH1 0x1F LT PUSH2 0x276 JUMPI PUSH2 0x100 DUP1 DUP4 SLOAD DIV MUL DUP4 MSTORE SWAP2 PUSH1 0x20 ADD SWAP2 PUSH2 0x2A1 JUMP JUMPDEST DUP3 ADD SWAP2 SWAP1 PUSH1 0x0 MSTORE PUSH1 0x20 PUSH1 0x0 KECCAK256 SWAP1 JUMPDEST DUP2 SLOAD DUP2 MSTORE SWAP1 PUSH1 0x1 ADD SWAP1 PUSH1 0x20 ADD DUP1 DUP4 GT PUSH2 0x284 JUMPI DUP3 SWAP1 SUB PUSH1 0x1F AND DUP3 ADD SWAP2 JUMPDEST POP POP POP POP POP SWAP1 DUP1 PUSH1 0x1 ADD SLOAD SWAP1 DUP1 PUSH1 0x3 ADD PUSH1 0x0 SWAP1 SLOAD SWAP1 PUSH2 0x100 EXP SWAP1 DIV PUSH1 0xFF AND SWAP1 POP DUP4 JUMP JUMPDEST PUSH2 0x2CC PUSH2 0x737 JUMP JUMPDEST PUSH2 0x2D4 PUSH2 0x737 JUMP JUMPDEST DUP3 DUP2 PUSH1 0x0 ADD DUP2 SWAP1 MSTORE POP PUSH1 0x2 SLOAD DUP2 PUSH1 0x20 ADD DUP2 DUP2 MSTORE POP POP PUSH1 0x1 DUP2 PUSH1 0x60 ADD SWAP1 ISZERO ISZERO SWAP1 DUP2 ISZERO ISZERO DUP2 MSTORE POP POP PUSH1 0x2 SLOAD PUSH1 0x3 DUP5 PUSH1 0x40 MLOAD PUSH2 0x30D SWAP2 SWAP1 PUSH2 0xB92 JUMP JUMPDEST SWAP1 DUP2 MSTORE PUSH1 0x20 ADD PUSH1 0x40 MLOAD DUP1 SWAP2 SUB SWAP1 KECCAK256 DUP2 SWAP1 SSTORE POP PUSH1 0x4 DUP2 SWAP1 DUP1 PUSH1 0x1 DUP2 SLOAD ADD DUP1 DUP3 SSTORE DUP1 SWAP2 POP POP PUSH1 0x1 SWAP1 SUB SWAP1 PUSH1 0x0 MSTORE PUSH1 0x20 PUSH1 0x0 KECCAK256 SWAP1 PUSH1 0x4 MUL ADD PUSH1 0x0 SWAP1 SWAP2 SWAP1 SWAP2 SWAP1 SWAP2 POP PUSH1 0x0 DUP3 ADD MLOAD DUP2 PUSH1 0x0 ADD SWAP1 DUP1 MLOAD SWAP1 PUSH1 0x20 ADD SWAP1 PUSH2 0x367 SWAP3 SWAP2 SWAP1 PUSH2 0x761 JUMP JUMPDEST POP PUSH1 0x20 DUP3 ADD MLOAD DUP2 PUSH1 0x1 ADD SSTORE PUSH1 0x40 DUP3 ADD MLOAD DUP2 PUSH1 0x2 ADD SWAP1 DUP1 MLOAD SWAP1 PUSH1 0x20 ADD SWAP1 PUSH2 0x38E SWAP3 SWAP2 SWAP1 PUSH2 0x7E7 JUMP JUMPDEST POP PUSH1 0x60 DUP3 ADD MLOAD DUP2 PUSH1 0x3 ADD PUSH1 0x0 PUSH2 0x100 EXP DUP2 SLOAD DUP2 PUSH1 0xFF MUL NOT AND SWAP1 DUP4 ISZERO ISZERO MUL OR SWAP1 SSTORE POP POP POP PUSH1 0x2 PUSH1 0x0 DUP2 SLOAD DUP1 SWAP3 SWAP2 SWAP1 PUSH2 0x3C4 SWAP1 PUSH2 0xE76 JUMP JUMPDEST SWAP2 SWAP1 POP SSTORE POP DUP1 SWAP2 POP POP SWAP2 SWAP1 POP JUMP JUMPDEST PUSH1 0x5 DUP1 PUSH1 0x0 ADD DUP1 SLOAD PUSH2 0x3E3 SWAP1 PUSH2 0xE13 JUMP JUMPDEST DUP1 PUSH1 0x1F ADD PUSH1 0x20 DUP1 SWAP2 DIV MUL PUSH1 0x20 ADD PUSH1 0x40 MLOAD SWAP1 DUP2 ADD PUSH1 0x40 MSTORE DUP1 SWAP3 SWAP2 SWAP1 DUP2 DUP2 MSTORE PUSH1 0x20 ADD DUP3 DUP1 SLOAD PUSH2 0x40F SWAP1 PUSH2 0xE13 JUMP JUMPDEST DUP1 ISZERO PUSH2 0x45C JUMPI DUP1 PUSH1 0x1F LT PUSH2 0x431 JUMPI PUSH2 0x100 DUP1 DUP4 SLOAD DIV MUL DUP4 MSTORE SWAP2 PUSH1 0x20 ADD SWAP2 PUSH2 0x45C JUMP JUMPDEST DUP3 ADD SWAP2 SWAP1 PUSH1 0x0 MSTORE PUSH1 0x20 PUSH1 0x0 KECCAK256 SWAP1 JUMPDEST DUP2 SLOAD DUP2 MSTORE SWAP1 PUSH1 0x1 ADD SWAP1 PUSH1 0x20 ADD DUP1 DUP4 GT PUSH2 0x43F JUMPI DUP3 SWAP1 SUB PUSH1 0x1F AND DUP3 ADD SWAP2 JUMPDEST POP POP POP POP POP SWAP1 DUP1 PUSH1 0x1 ADD PUSH1 0x0 SWAP1 SLOAD SWAP1 PUSH2 0x100 EXP SWAP1 DIV PUSH20 0xFFFFFFFFFFFFFFFFFFFFFFFFFFFFFFFFFFFFFFFF AND SWAP1 DUP1 PUSH1 0x2 ADD SLOAD SWAP1 DUP1 PUSH1 0x3 ADD PUSH1 0x0 SWAP1 SLOAD SWAP1 PUSH2 0x100 EXP SWAP1 DIV PUSH1 0xFF AND SWAP1 DUP1 PUSH1 0x4 ADD DUP1 SLOAD PUSH2 0x4B0 SWAP1 PUSH2 0xE13 JUMP JUMPDEST DUP1 PUSH1 0x1F ADD PUSH1 0x20 DUP1 SWAP2 DIV MUL PUSH1 0x20 ADD PUSH1 0x40 MLOAD SWAP1 DUP2 ADD PUSH1 0x40 MSTORE DUP1 SWAP3 SWAP2 SWAP1 DUP2 DUP2 MSTORE PUSH1 0x20 ADD DUP3 DUP1 SLOAD PUSH2 0x4DC SWAP1 PUSH2 0xE13 JUMP JUMPDEST DUP1 ISZERO PUSH2 0x529 JUMPI DUP1 PUSH1 0x1F LT PUSH2 0x4FE JUMPI PUSH2 0x100 DUP1 DUP4 SLOAD DIV MUL DUP4 MSTORE SWAP2 PUSH1 0x20 ADD SWAP2 PUSH2 0x529 JUMP JUMPDEST DUP3 ADD SWAP2 SWAP1 PUSH1 0x0 MSTORE PUSH1 0x20 PUSH1 0x0 KECCAK256 SWAP1 JUMPDEST DUP2 SLOAD DUP2 MSTORE SWAP1 PUSH1 0x1 ADD SWAP1 PUSH1 0x20 ADD DUP1 DUP4 GT PUSH2 0x50C JUMPI DUP3 SWAP1 SUB PUSH1 0x1F AND DUP3 ADD SWAP2 JUMPDEST POP POP POP POP POP SWAP1 POP DUP6 JUMP JUMPDEST PUSH1 0x1 DUP1 SLOAD PUSH2 0x540 SWAP1 PUSH2 0xE13 JUMP JUMPDEST DUP1 PUSH1 0x1F ADD PUSH1 0x20 DUP1 SWAP2 DIV MUL PUSH1 0x20 ADD PUSH1 0x40 MLOAD SWAP1 DUP2 ADD PUSH1 0x40 MSTORE DUP1 SWAP3 SWAP2 SWAP1 DUP2 DUP2 MSTORE PUSH1 0x20 ADD DUP3 DUP1 SLOAD PUSH2 0x56C SWAP1 PUSH2 0xE13 JUMP JUMPDEST DUP1 ISZERO PUSH2 0x5B9 JUMPI DUP1 PUSH1 0x1F LT PUSH2 0x58E JUMPI PUSH2 0x100 DUP1 DUP4 SLOAD DIV MUL DUP4 MSTORE SWAP2 PUSH1 0x20 ADD SWAP2 PUSH2 0x5B9 JUMP JUMPDEST DUP3 ADD SWAP2 SWAP1 PUSH1 0x0 MSTORE PUSH1 0x20 PUSH1 0x0 KECCAK256 SWAP1 JUMPDEST DUP2 SLOAD DUP2 MSTORE SWAP1 PUSH1 0x1 ADD SWAP1 PUSH1 0x20 ADD DUP1 DUP4 GT PUSH2 0x59C JUMPI DUP3 SWAP1 SUB PUSH1 0x1F AND DUP3 ADD SWAP2 JUMPDEST POP POP POP POP POP DUP2 JUMP JUMPDEST PUSH1 0x2 SLOAD DUP2 JUMP JUMPDEST PUSH2 0x5CF PUSH2 0x737 JUMP JUMPDEST PUSH1 0x0 PUSH1 0x4 PUSH1 0x3 DUP6 PUSH1 0x40 MLOAD PUSH2 0x5E3 SWAP2 SWAP1 PUSH2 0xB92 JUMP JUMPDEST SWAP1 DUP2 MSTORE PUSH1 0x20 ADD PUSH1 0x40 MLOAD DUP1 SWAP2 SUB SWAP1 KECCAK256 SLOAD DUP2 SLOAD DUP2 LT PUSH2 0x603 JUMPI PUSH2 0x602 PUSH2 0xF1D JUMP JUMPDEST JUMPDEST SWAP1 PUSH1 0x0 MSTORE PUSH1 0x20 PUSH1 0x0 KECCAK256 SWAP1 PUSH1 0x4 MUL ADD SWAP1 POP DUP1 PUSH1 0x40 MLOAD DUP1 PUSH1 0x80 ADD PUSH1 0x40 MSTORE SWAP1 DUP2 PUSH1 0x0 DUP3 ADD DUP1 SLOAD PUSH2 0x62F SWAP1 PUSH2 0xE13 JUMP JUMPDEST DUP1 PUSH1 0x1F ADD PUSH1 0x20 DUP1 SWAP2 DIV MUL PUSH1 0x20 ADD PUSH1 0x40 MLOAD SWAP1 DUP2 ADD PUSH1 0x40 MSTORE DUP1 SWAP3 SWAP2 SWAP1 DUP2 DUP2 MSTORE PUSH1 0x20 ADD DUP3 DUP1 SLOAD PUSH2 0x65B SWAP1 PUSH2 0xE13 JUMP JUMPDEST DUP1 ISZERO PUSH2 0x6A8 JUMPI DUP1 PUSH1 0x1F LT PUSH2 0x67D JUMPI PUSH2 0x100 DUP1 DUP4 SLOAD DIV MUL DUP4 MSTORE SWAP2 PUSH1 0x20 ADD SWAP2 PUSH2 0x6A8 JUMP JUMPDEST DUP3 ADD SWAP2 SWAP1 PUSH1 0x0 MSTORE PUSH1 0x20 PUSH1 0x0 KECCAK256 SWAP1 JUMPDEST DUP2 SLOAD DUP2 MSTORE SWAP1 PUSH1 0x1 ADD SWAP1 PUSH1 0x20 ADD DUP1 DUP4 GT PUSH2 0x68B JUMPI DUP3 SWAP1 SUB PUSH1 0x1F AND DUP3 ADD SWAP2 JUMPDEST POP POP POP POP POP DUP2 MSTORE PUSH1 0x20 ADD PUSH1 0x1 DUP3 ADD SLOAD DUP2 MSTORE PUSH1 0x20 ADD PUSH1 0x2 DUP3 ADD DUP1 SLOAD DUP1 PUSH1 0x20 MUL PUSH1 0x20 ADD PUSH1 0x40 MLOAD SWAP1 DUP2 ADD PUSH1 0x40 MSTORE DUP1 SWAP3 SWAP2 SWAP1 DUP2 DUP2 MSTORE PUSH1 0x20 ADD DUP3 DUP1 SLOAD DUP1 ISZERO PUSH2 0x70A JUMPI PUSH1 0x20 MUL DUP3 ADD SWAP2 SWAP1 PUSH1 0x0 MSTORE PUSH1 0x20 PUSH1 0x0 KECCAK256 SWAP1 JUMPDEST DUP2 SLOAD DUP2 MSTORE PUSH1 0x20 ADD SWAP1 PUSH1 0x1 ADD SWAP1 DUP1 DUP4 GT PUSH2 0x6F6 JUMPI JUMPDEST POP POP POP POP POP DUP2 MSTORE PUSH1 0x20 ADD PUSH1 0x3 DUP3 ADD PUSH1 0x0 SWAP1 SLOAD SWAP1 PUSH2 0x100 EXP SWAP1 DIV PUSH1 0xFF AND ISZERO ISZERO ISZERO ISZERO DUP2 MSTORE POP POP SWAP2 POP POP SWAP3 SWAP2 POP POP JUMP JUMPDEST PUSH1 0x40 MLOAD DUP1 PUSH1 0x80 ADD PUSH1 0x40 MSTORE DUP1 PUSH1 0x60 DUP2 MSTORE PUSH1 0x20 ADD PUSH1 0x0 DUP2 MSTORE PUSH1 0x20 ADD PUSH1 0x60 DUP2 MSTORE PUSH1 0x20 ADD PUSH1 0x0 ISZERO ISZERO DUP2 MSTORE POP SWAP1 JUMP JUMPDEST DUP3 DUP1 SLOAD PUSH2 0x76D SWAP1 PUSH2 0xE13 JUMP JUMPDEST SWAP1 PUSH1 0x0 MSTORE PUSH1 0x20 PUSH1 0x0 KECCAK256 SWAP1 PUSH1 0x1F ADD PUSH1 0x20 SWAP1 DIV DUP2 ADD SWAP3 DUP3 PUSH2 0x78F JUMPI PUSH1 0x0 DUP6 SSTORE PUSH2 0x7D6 JUMP JUMPDEST DUP3 PUSH1 0x1F LT PUSH2 0x7A8 JUMPI DUP1 MLOAD PUSH1 0xFF NOT AND DUP4 DUP1 ADD OR DUP6 SSTORE PUSH2 0x7D6 JUMP JUMPDEST DUP3 DUP1 ADD PUSH1 0x1 ADD DUP6 SSTORE DUP3 ISZERO PUSH2 0x7D6 JUMPI SWAP2 DUP3 ADD JUMPDEST DUP3 DUP2 GT ISZERO PUSH2 0x7D5 JUMPI DUP3 MLOAD DUP3 SSTORE SWAP2 PUSH1 0x20 ADD SWAP2 SWAP1 PUSH1 0x1 ADD SWAP1 PUSH2 0x7BA JUMP JUMPDEST JUMPDEST POP SWAP1 POP PUSH2 0x7E3 SWAP2 SWAP1 PUSH2 0x834 JUMP JUMPDEST POP SWAP1 JUMP JUMPDEST DUP3 DUP1 SLOAD DUP3 DUP3 SSTORE SWAP1 PUSH1 0x0 MSTORE PUSH1 0x20 PUSH1 0x0 KECCAK256 SWAP1 DUP2 ADD SWAP3 DUP3 ISZERO PUSH2 0x823 JUMPI SWAP2 PUSH1 0x20 MUL DUP3 ADD JUMPDEST DUP3 DUP2 GT ISZERO PUSH2 0x822 JUMPI DUP3 MLOAD DUP3 SSTORE SWAP2 PUSH1 0x20 ADD SWAP2 SWAP1 PUSH1 0x1 ADD SWAP1 PUSH2 0x807 JUMP JUMPDEST JUMPDEST POP SWAP1 POP PUSH2 0x830 SWAP2 SWAP1 PUSH2 0x834 JUMP JUMPDEST POP SWAP1 JUMP JUMPDEST JUMPDEST DUP1 DUP3 GT ISZERO PUSH2 0x84D JUMPI PUSH1 0x0 DUP2 PUSH1 0x0 SWAP1 SSTORE POP PUSH1 0x1 ADD PUSH2 0x835 JUMP JUMPDEST POP SWAP1 JUMP JUMPDEST PUSH1 0x0 PUSH2 0x864 PUSH2 0x85F DUP5 PUSH2 0xCE7 JUMP JUMPDEST PUSH2 0xCC2 JUMP JUMPDEST SWAP1 POP DUP3 DUP2 MSTORE PUSH1 0x20 DUP2 ADD DUP5 DUP5 DUP5 ADD GT ISZERO PUSH2 0x880 JUMPI PUSH2 0x87F PUSH2 0xF80 JUMP JUMPDEST JUMPDEST PUSH2 0x88B DUP5 DUP3 DUP6 PUSH2 0xDD1 JUMP JUMPDEST POP SWAP4 SWAP3 POP POP POP JUMP JUMPDEST PUSH1 0x0 DUP3 PUSH1 0x1F DUP4 ADD SLT PUSH2 0x8A8 JUMPI PUSH2 0x8A7 PUSH2 0xF7B JUMP JUMPDEST JUMPDEST DUP2 CALLDATALOAD PUSH2 0x8B8 DUP5 DUP3 PUSH1 0x20 DUP7 ADD PUSH2 0x851 JUMP JUMPDEST SWAP2 POP POP SWAP3 SWAP2 POP POP JUMP JUMPDEST PUSH1 0x0 DUP2 CALLDATALOAD SWAP1 POP PUSH2 0x8D0 DUP2 PUSH2 0xFA0 JUMP JUMPDEST SWAP3 SWAP2 POP POP JUMP JUMPDEST PUSH1 0x0 PUSH1 0x20 DUP3 DUP5 SUB SLT ISZERO PUSH2 0x8EC JUMPI PUSH2 0x8EB PUSH2 0xF8A JUMP JUMPDEST JUMPDEST PUSH1 0x0 DUP3 ADD CALLDATALOAD PUSH8 0xFFFFFFFFFFFFFFFF DUP2 GT ISZERO PUSH2 0x90A JUMPI PUSH2 0x909 PUSH2 0xF85 JUMP JUMPDEST JUMPDEST PUSH2 0x916 DUP5 DUP3 DUP6 ADD PUSH2 0x893 JUMP JUMPDEST SWAP2 POP POP SWAP3 SWAP2 POP POP JUMP JUMPDEST PUSH1 0x0 DUP1 PUSH1 0x40 DUP4 DUP6 SUB SLT ISZERO PUSH2 0x936 JUMPI PUSH2 0x935 PUSH2 0xF8A JUMP JUMPDEST JUMPDEST PUSH1 0x0 DUP4 ADD CALLDATALOAD PUSH8 0xFFFFFFFFFFFFFFFF DUP2 GT ISZERO PUSH2 0x954 JUMPI PUSH2 0x953 PUSH2 0xF85 JUMP JUMPDEST JUMPDEST PUSH2 0x960 DUP6 DUP3 DUP7 ADD PUSH2 0x893 JUMP JUMPDEST SWAP3 POP POP PUSH1 0x20 DUP4 ADD CALLDATALOAD PUSH8 0xFFFFFFFFFFFFFFFF DUP2 GT ISZERO PUSH2 0x981 JUMPI PUSH2 0x980 PUSH2 0xF85 JUMP JUMPDEST JUMPDEST PUSH2 0x98D DUP6 DUP3 DUP7 ADD PUSH2 0x893 JUMP JUMPDEST SWAP2 POP POP SWAP3 POP SWAP3 SWAP1 POP JUMP JUMPDEST PUSH1 0x0 PUSH1 0x20 DUP3 DUP5 SUB SLT ISZERO PUSH2 0x9AD JUMPI PUSH2 0x9AC PUSH2 0xF8A JUMP JUMPDEST JUMPDEST PUSH1 0x0 PUSH2 0x9BB DUP5 DUP3 DUP6 ADD PUSH2 0x8C1 JUMP JUMPDEST SWAP2 POP POP SWAP3 SWAP2 POP POP JUMP JUMPDEST PUSH1 0x0 PUSH2 0x9D0 DUP4 DUP4 PUSH2 0xB74 JUMP JUMPDEST PUSH1 0x20 DUP4 ADD SWAP1 POP SWAP3 SWAP2 POP POP JUMP JUMPDEST PUSH2 0x9E5 DUP2 PUSH2 0xD89 JUMP JUMPDEST DUP3 MSTORE POP POP JUMP JUMPDEST PUSH1 0x0 PUSH2 0x9F6 DUP3 PUSH2 0xD28 JUMP JUMPDEST PUSH2 0xA00 DUP2 DUP6 PUSH2 0xD4B JUMP JUMPDEST SWAP4 POP PUSH2 0xA0B DUP4 PUSH2 0xD18 JUMP JUMPDEST DUP1 PUSH1 0x0 JUMPDEST DUP4 DUP2 LT ISZERO PUSH2 0xA3C JUMPI DUP2 MLOAD PUSH2 0xA23 DUP9 DUP3 PUSH2 0x9C4 JUMP JUMPDEST SWAP8 POP PUSH2 0xA2E DUP4 PUSH2 0xD3E JUMP JUMPDEST SWAP3 POP POP PUSH1 0x1 DUP2 ADD SWAP1 POP PUSH2 0xA0F JUMP JUMPDEST POP DUP6 SWAP4 POP POP POP POP SWAP3 SWAP2 POP POP JUMP JUMPDEST PUSH2 0xA52 DUP2 PUSH2 0xD9B JUMP JUMPDEST DUP3 MSTORE POP POP JUMP JUMPDEST PUSH2 0xA61 DUP2 PUSH2 0xD9B JUMP JUMPDEST DUP3 MSTORE POP POP JUMP JUMPDEST PUSH1 0x0 PUSH2 0xA72 DUP3 PUSH2 0xD33 JUMP JUMPDEST PUSH2 0xA7C DUP2 DUP6 PUSH2 0xD5C JUMP JUMPDEST SWAP4 POP PUSH2 0xA8C DUP2 DUP6 PUSH1 0x20 DUP7 ADD PUSH2 0xDE0 JUMP JUMPDEST PUSH2 0xA95 DUP2 PUSH2 0xF8F JUMP JUMPDEST DUP5 ADD SWAP2 POP POP SWAP3 SWAP2 POP POP JUMP JUMPDEST PUSH1 0x0 PUSH2 0xAAB DUP3 PUSH2 0xD33 JUMP JUMPDEST PUSH2 0xAB5 DUP2 DUP6 PUSH2 0xD6D JUMP JUMPDEST SWAP4 POP PUSH2 0xAC5 DUP2 DUP6 PUSH1 0x20 DUP7 ADD PUSH2 0xDE0 JUMP JUMPDEST PUSH2 0xACE DUP2 PUSH2 0xF8F JUMP JUMPDEST DUP5 ADD SWAP2 POP POP SWAP3 SWAP2 POP POP JUMP JUMPDEST PUSH1 0x0 PUSH2 0xAE4 DUP3 PUSH2 0xD33 JUMP JUMPDEST PUSH2 0xAEE DUP2 DUP6 PUSH2 0xD7E JUMP JUMPDEST SWAP4 POP PUSH2 0xAFE DUP2 DUP6 PUSH1 0x20 DUP7 ADD PUSH2 0xDE0 JUMP JUMPDEST DUP1 DUP5 ADD SWAP2 POP POP SWAP3 SWAP2 POP POP JUMP JUMPDEST PUSH1 0x0 PUSH1 0x80 DUP4 ADD PUSH1 0x0 DUP4 ADD MLOAD DUP5 DUP3 SUB PUSH1 0x0 DUP7 ADD MSTORE PUSH2 0xB27 DUP3 DUP3 PUSH2 0xA67 JUMP JUMPDEST SWAP2 POP POP PUSH1 0x20 DUP4 ADD MLOAD PUSH2 0xB3C PUSH1 0x20 DUP7 ADD DUP3 PUSH2 0xB74 JUMP JUMPDEST POP PUSH1 0x40 DUP4 ADD MLOAD DUP5 DUP3 SUB PUSH1 0x40 DUP7 ADD MSTORE PUSH2 0xB54 DUP3 DUP3 PUSH2 0x9EB JUMP JUMPDEST SWAP2 POP POP PUSH1 0x60 DUP4 ADD MLOAD PUSH2 0xB69 PUSH1 0x60 DUP7 ADD DUP3 PUSH2 0xA49 JUMP JUMPDEST POP DUP1 SWAP2 POP POP SWAP3 SWAP2 POP POP JUMP JUMPDEST PUSH2 0xB7D DUP2 PUSH2 0xDC7 JUMP JUMPDEST DUP3 MSTORE POP POP JUMP JUMPDEST PUSH2 0xB8C DUP2 PUSH2 0xDC7 JUMP JUMPDEST DUP3 MSTORE POP POP JUMP JUMPDEST PUSH1 0x0 PUSH2 0xB9E DUP3 DUP5 PUSH2 0xAD9 JUMP JUMPDEST SWAP2 POP DUP2 SWAP1 POP SWAP3 SWAP2 POP POP JUMP JUMPDEST PUSH1 0x0 PUSH1 0x20 DUP3 ADD SWAP1 POP PUSH2 0xBBE PUSH1 0x0 DUP4 ADD DUP5 PUSH2 0x9DC JUMP JUMPDEST SWAP3 SWAP2 POP POP JUMP JUMPDEST PUSH1 0x0 PUSH1 0x20 DUP3 ADD SWAP1 POP DUP2 DUP2 SUB PUSH1 0x0 DUP4 ADD MSTORE PUSH2 0xBDE DUP2 DUP5 PUSH2 0xAA0 JUMP JUMPDEST SWAP1 POP SWAP3 SWAP2 POP POP JUMP JUMPDEST PUSH1 0x0 PUSH1 0xA0 DUP3 ADD SWAP1 POP DUP2 DUP2 SUB PUSH1 0x0 DUP4 ADD MSTORE PUSH2 0xC00 DUP2 DUP9 PUSH2 0xAA0 JUMP JUMPDEST SWAP1 POP PUSH2 0xC0F PUSH1 0x20 DUP4 ADD DUP8 PUSH2 0x9DC JUMP JUMPDEST PUSH2 0xC1C PUSH1 0x40 DUP4 ADD DUP7 PUSH2 0xB83 JUMP JUMPDEST PUSH2 0xC29 PUSH1 0x60 DUP4 ADD DUP6 PUSH2 0xA58 JUMP JUMPDEST DUP2 DUP2 SUB PUSH1 0x80 DUP4 ADD MSTORE PUSH2 0xC3B DUP2 DUP5 PUSH2 0xAA0 JUMP JUMPDEST SWAP1 POP SWAP7 SWAP6 POP POP POP POP POP POP JUMP JUMPDEST PUSH1 0x0 PUSH1 0x60 DUP3 ADD SWAP1 POP DUP2 DUP2 SUB PUSH1 0x0 DUP4 ADD MSTORE PUSH2 0xC61 DUP2 DUP7 PUSH2 0xAA0 JUMP JUMPDEST SWAP1 POP PUSH2 0xC70 PUSH1 0x20 DUP4 ADD DUP6 PUSH2 0xB83 JUMP JUMPDEST PUSH2 0xC7D PUSH1 0x40 DUP4 ADD DUP5 PUSH2 0xA58 JUMP JUMPDEST SWAP5 SWAP4 POP POP POP POP JUMP JUMPDEST PUSH1 0x0 PUSH1 0x20 DUP3 ADD SWAP1 POP DUP2 DUP2 SUB PUSH1 0x0 DUP4 ADD MSTORE PUSH2 0xC9F DUP2 DUP5 PUSH2 0xB0A JUMP JUMPDEST SWAP1 POP SWAP3 SWAP2 POP POP JUMP JUMPDEST PUSH1 0x0 PUSH1 0x20 DUP3 ADD SWAP1 POP PUSH2 0xCBC PUSH1 0x0 DUP4 ADD DUP5 PUSH2 0xB83 JUMP JUMPDEST SWAP3 SWAP2 POP POP JUMP JUMPDEST PUSH1 0x0 PUSH2 0xCCC PUSH2 0xCDD JUMP JUMPDEST SWAP1 POP PUSH2 0xCD8 DUP3 DUP3 PUSH2 0xE45 JUMP JUMPDEST SWAP2 SWAP1 POP JUMP JUMPDEST PUSH1 0x0 PUSH1 0x40 MLOAD SWAP1 POP SWAP1 JUMP JUMPDEST PUSH1 0x0 PUSH8 0xFFFFFFFFFFFFFFFF DUP3 GT ISZERO PUSH2 0xD02 JUMPI PUSH2 0xD01 PUSH2 0xF4C JUMP JUMPDEST JUMPDEST PUSH2 0xD0B DUP3 PUSH2 0xF8F JUMP JUMPDEST SWAP1 POP PUSH1 0x20 DUP2 ADD SWAP1 POP SWAP2 SWAP1 POP JUMP JUMPDEST PUSH1 0x0 DUP2 SWAP1 POP PUSH1 0x20 DUP3 ADD SWAP1 POP SWAP2 SWAP1 POP JUMP JUMPDEST PUSH1 0x0 DUP2 MLOAD SWAP1 POP SWAP2 SWAP1 POP JUMP JUMPDEST PUSH1 0x0 DUP2 MLOAD SWAP1 POP SWAP2 SWAP1 POP JUMP JUMPDEST PUSH1 0x0 PUSH1 0x20 DUP3 ADD SWAP1 POP SWAP2 SWAP1 POP JUMP JUMPDEST PUSH1 0x0 DUP3 DUP3 MSTORE PUSH1 0x20 DUP3 ADD SWAP1 POP SWAP3 SWAP2 POP POP JUMP JUMPDEST PUSH1 0x0 DUP3 DUP3 MSTORE PUSH1 0x20 DUP3 ADD SWAP1 POP SWAP3 SWAP2 POP POP JUMP JUMPDEST PUSH1 0x0 DUP3 DUP3 MSTORE PUSH1 0x20 DUP3 ADD SWAP1 POP SWAP3 SWAP2 POP POP JUMP JUMPDEST PUSH1 0x0 DUP2 SWAP1 POP SWAP3 SWAP2 POP POP JUMP JUMPDEST PUSH1 0x0 PUSH2 0xD94 DUP3 PUSH2 0xDA7 JUMP JUMPDEST SWAP1 POP SWAP2 SWAP1 POP JUMP JUMPDEST PUSH1 0x0 DUP2 ISZERO ISZERO SWAP1 POP SWAP2 SWAP1 POP JUMP JUMPDEST PUSH1 0x0 PUSH20 0xFFFFFFFFFFFFFFFFFFFFFFFFFFFFFFFFFFFFFFFF DUP3 AND SWAP1 POP SWAP2 SWAP1 POP JUMP JUMPDEST PUSH1 0x0 DUP2 SWAP1 POP SWAP2 SWAP1 POP JUMP JUMPDEST DUP3 DUP2 DUP4 CALLDATACOPY PUSH1 0x0 DUP4 DUP4 ADD MSTORE POP POP POP JUMP JUMPDEST PUSH1 0x0 JUMPDEST DUP4 DUP2 LT ISZERO PUSH2 0xDFE JUMPI DUP1 DUP3 ADD MLOAD DUP2 DUP5 ADD MSTORE PUSH1 0x20 DUP2 ADD SWAP1 POP PUSH2 0xDE3 JUMP JUMPDEST DUP4 DUP2 GT ISZERO PUSH2 0xE0D JUMPI PUSH1 0x0 DUP5 DUP5 ADD MSTORE JUMPDEST POP POP POP POP JUMP JUMPDEST PUSH1 0x0 PUSH1 0x2 DUP3 DIV SWAP1 POP PUSH1 0x1 DUP3 AND DUP1 PUSH2 0xE2B JUMPI PUSH1 0x7F DUP3 AND SWAP2 POP JUMPDEST PUSH1 0x20 DUP3 LT DUP2 EQ ISZERO PUSH2 0xE3F JUMPI PUSH2 0xE3E PUSH2 0xEEE JUMP JUMPDEST JUMPDEST POP SWAP2 SWAP1 POP JUMP JUMPDEST PUSH2 0xE4E DUP3 PUSH2 0xF8F JUMP JUMPDEST DUP2 ADD DUP2 DUP2 LT PUSH8 0xFFFFFFFFFFFFFFFF DUP3 GT OR ISZERO PUSH2 0xE6D JUMPI PUSH2 0xE6C PUSH2 0xF4C JUMP JUMPDEST JUMPDEST DUP1 PUSH1 0x40 MSTORE POP POP POP JUMP JUMPDEST PUSH1 0x0 PUSH2 0xE81 DUP3 PUSH2 0xDC7 JUMP JUMPDEST SWAP2 POP PUSH32 0xFFFFFFFFFFFFFFFFFFFFFFFFFFFFFFFFFFFFFFFFFFFFFFFFFFFFFFFFFFFFFFFF DUP3 EQ ISZERO PUSH2 0xEB4 JUMPI PUSH2 0xEB3 PUSH2 0xEBF JUMP JUMPDEST JUMPDEST PUSH1 0x1 DUP3 ADD SWAP1 POP SWAP2 SWAP1 POP JUMP JUMPDEST PUSH32 0x4E487B7100000000000000000000000000000000000000000000000000000000 PUSH1 0x0 MSTORE PUSH1 0x11 PUSH1 0x4 MSTORE PUSH1 0x24 PUSH1 0x0 REVERT JUMPDEST PUSH32 0x4E487B7100000000000000000000000000000000000000000000000000000000 PUSH1 0x0 MSTORE PUSH1 0x22 PUSH1 0x4 MSTORE PUSH1 0x24 PUSH1 0x0 REVERT JUMPDEST PUSH32 0x4E487B7100000000000000000000000000000000000000000000000000000000 PUSH1 0x0 MSTORE PUSH1 0x32 PUSH1 0x4 MSTORE PUSH1 0x24 PUSH1 0x0 REVERT JUMPDEST PUSH32 0x4E487B7100000000000000000000000000000000000000000000000000000000 PUSH1 0x0 MSTORE PUSH1 0x41 PUSH1 0x4 MSTORE PUSH1 0x24 PUSH1 0x0 REVERT JUMPDEST PUSH1 0x0 DUP1 REVERT JUMPDEST PUSH1 0x0 DUP1 REVERT JUMPDEST PUSH1 0x0 DUP1 REVERT JUMPDEST PUSH1 0x0 DUP1 REVERT JUMPDEST PUSH1 0x0 PUSH1 0x1F NOT PUSH1 0x1F DUP4 ADD AND SWAP1 POP SWAP2 SWAP1 POP JUMP JUMPDEST PUSH2 0xFA9 DUP2 PUSH2 0xDC7 JUMP JUMPDEST DUP2 EQ PUSH2 0xFB4 JUMPI PUSH1 0x0 DUP1 REVERT JUMPDEST POP JUMP INVALID LOG2 PUSH5 0x6970667358 0x22 SLT KECCAK256 DIFFICULTY EQ 0xBB PUSH8 0xB3E9919595BFAFA4 MOD OR 0xD0 0xE4 DIFFICULTY DUP13 0xBC CALLER SWAP6 SWAP11 PUSH4 0x4F23CBF9 SWAP1 SWAP6 0xB0 0xBD DELEGATECALL PUSH5 0x736F6C6343 STOP ADDMOD SMOD STOP CALLER "
				},
				"gasEstimates": {
					"creation": {
						"codeDepositCost": "815400",
						"executionCost": "infinite",
						"totalCost": "infinite"
					},
					"external": {
						"chairperson()": "2512",
						"createOneSuggestion(string)": "infinite",
						"suggestionNo()": "2473",
						"suggestions(uint256)": "infinite",
						"unionName()": "infinite",
						"vote(string,string)": "infinite",
						"voter()": "infinite"
					}
				},
				"methodIdentifiers": {
					"chairperson()": "2e4176cf",
					"createOneSuggestion(string)": "43ef7e85",
					"suggestionNo()": "64b9fb89",
					"suggestions(uint256)": "302a2a46",
					"unionName()": "4f5cbc1a",
					"vote(string,string)": "e8d5940d",
					"voter()": "46c96aac"
				}
			},
			"storageLayout": {
				"storage": [
					{
						"astId": 3,
						"contract": "smartContract/contracts/NewVote.sol:Union",
						"label": "chairperson",
						"offset": 0,
						"slot": "0",
						"type": "t_address"
					},
					{
						"astId": 5,
						"contract": "smartContract/contracts/NewVote.sol:Union",
						"label": "unionName",
						"offset": 0,
						"slot": "1",
						"type": "t_string_storage"
					},
					{
						"astId": 7,
						"contract": "smartContract/contracts/NewVote.sol:Union",
						"label": "suggestionNo",
						"offset": 0,
						"slot": "2",
						"type": "t_uint256"
					},
					{
						"astId": 11,
						"contract": "smartContract/contracts/NewVote.sol:Union",
						"label": "findSuggestionNo",
						"offset": 0,
						"slot": "3",
						"type": "t_mapping(t_string_memory_ptr,t_uint256)"
					},
					{
						"astId": 15,
						"contract": "smartContract/contracts/NewVote.sol:Union",
						"label": "suggestions",
						"offset": 0,
						"slot": "4",
						"type": "t_array(t_struct(Suggestion)25_storage)dyn_storage"
					},
					{
						"astId": 55,
						"contract": "smartContract/contracts/NewVote.sol:Union",
						"label": "voter",
						"offset": 0,
						"slot": "5",
						"type": "t_struct(Voter)36_storage"
					}
				],
				"types": {
					"t_address": {
						"encoding": "inplace",
						"label": "address",
						"numberOfBytes": "20"
					},
					"t_array(t_struct(Suggestion)25_storage)dyn_storage": {
						"base": "t_struct(Suggestion)25_storage",
						"encoding": "dynamic_array",
						"label": "struct Union.Suggestion[]",
						"numberOfBytes": "32"
					},
					"t_array(t_uint256)dyn_storage": {
						"base": "t_uint256",
						"encoding": "dynamic_array",
						"label": "uint256[]",
						"numberOfBytes": "32"
					},
					"t_bool": {
						"encoding": "inplace",
						"label": "bool",
						"numberOfBytes": "1"
					},
					"t_mapping(t_string_memory_ptr,t_uint256)": {
						"encoding": "mapping",
						"key": "t_string_memory_ptr",
						"label": "mapping(string => uint256)",
						"numberOfBytes": "32",
						"value": "t_uint256"
					},
					"t_string_memory_ptr": {
						"encoding": "bytes",
						"label": "string",
						"numberOfBytes": "32"
					},
					"t_string_storage": {
						"encoding": "bytes",
						"label": "string",
						"numberOfBytes": "32"
					},
					"t_struct(Suggestion)25_storage": {
						"encoding": "inplace",
						"label": "struct Union.Suggestion",
						"members": [
							{
								"astId": 17,
								"contract": "smartContract/contracts/NewVote.sol:Union",
								"label": "subject",
								"offset": 0,
								"slot": "0",
								"type": "t_string_storage"
							},
							{
								"astId": 19,
								"contract": "smartContract/contracts/NewVote.sol:Union",
								"label": "suggestionNo",
								"offset": 0,
								"slot": "1",
								"type": "t_uint256"
							},
							{
								"astId": 22,
								"contract": "smartContract/contracts/NewVote.sol:Union",
								"label": "unionMember",
								"offset": 0,
								"slot": "2",
								"type": "t_array(t_uint256)dyn_storage"
							},
							{
								"astId": 24,
								"contract": "smartContract/contracts/NewVote.sol:Union",
								"label": "status",
								"offset": 0,
								"slot": "3",
								"type": "t_bool"
							}
						],
						"numberOfBytes": "128"
					},
					"t_struct(Voter)36_storage": {
						"encoding": "inplace",
						"label": "struct Union.Voter",
						"members": [
							{
								"astId": 27,
								"contract": "smartContract/contracts/NewVote.sol:Union",
								"label": "suggestion",
								"offset": 0,
								"slot": "0",
								"type": "t_string_storage"
							},
							{
								"astId": 29,
								"contract": "smartContract/contracts/NewVote.sol:Union",
								"label": "addr",
								"offset": 0,
								"slot": "1",
								"type": "t_address"
							},
							{
								"astId": 31,
								"contract": "smartContract/contracts/NewVote.sol:Union",
								"label": "asset",
								"offset": 0,
								"slot": "2",
								"type": "t_uint256"
							},
							{
								"astId": 33,
								"contract": "smartContract/contracts/NewVote.sol:Union",
								"label": "voted",
								"offset": 0,
								"slot": "3",
								"type": "t_bool"
							},
							{
								"astId": 35,
								"contract": "smartContract/contracts/NewVote.sol:Union",
								"label": "answer",
								"offset": 0,
								"slot": "4",
								"type": "t_string_storage"
							}
						],
						"numberOfBytes": "160"
					},
					"t_uint256": {
						"encoding": "inplace",
						"label": "uint256",
						"numberOfBytes": "32"
					}
				}
			},
			"userdoc": {
				"kind": "user",
				"methods": {
					"vote(string,string)": {
						"notice": "3.투표하는 함수"
					}
				},
				"version": 1
			}
		}
	}
}