{
	"smartContract/contracts/NewVote.sol": {
		"UnionFactory": {
			"abi": [
				{
					"inputs": [
						{
							"internalType": "string",
							"name": "unionName",
							"type": "string"
						}
					],
					"name": "UnionAddress",
					"outputs": [
						{
							"internalType": "address",
							"name": "unionAddress",
							"type": "address"
						}
					],
					"stateMutability": "view",
					"type": "function"
				},
				{
					"inputs": [
						{
							"internalType": "string",
							"name": "unionName",
							"type": "string"
						},
						{
							"internalType": "address",
							"name": "chairperson",
							"type": "address"
						}
					],
					"name": "createUnion",
					"outputs": [],
					"stateMutability": "nonpayable",
					"type": "function"
				},
				{
					"inputs": [],
					"name": "totalUnionNumber",
					"outputs": [
						{
							"internalType": "uint256",
							"name": "num",
							"type": "uint256"
						}
					],
					"stateMutability": "view",
					"type": "function"
				},
				{
					"inputs": [
						{
							"internalType": "uint256",
							"name": "",
							"type": "uint256"
						}
					],
					"name": "unions",
					"outputs": [
						{
							"internalType": "contract Union",
							"name": "",
							"type": "address"
						}
					],
					"stateMutability": "view",
					"type": "function"
				}
			],
			"devdoc": {
				"kind": "dev",
				"methods": {},
				"version": 1
			},
			"evm": {
				"assembly": "    /* \"smartContract/contracts/NewVote.sol\":2895:4247  contract UnionFactory {... */\n  mstore(0x40, 0x80)\n  callvalue\n  dup1\n  iszero\n  tag_1\n  jumpi\n  0x00\n  dup1\n  revert\ntag_1:\n  pop\n  dataSize(sub_0)\n  dup1\n  dataOffset(sub_0)\n  0x00\n  codecopy\n  0x00\n  return\nstop\n\nsub_0: assembly {\n        /* \"smartContract/contracts/NewVote.sol\":2895:4247  contract UnionFactory {... */\n      mstore(0x40, 0x80)\n      callvalue\n      dup1\n      iszero\n      tag_1\n      jumpi\n      0x00\n      dup1\n      revert\n    tag_1:\n      pop\n      jumpi(tag_2, lt(calldatasize, 0x04))\n      shr(0xe0, calldataload(0x00))\n      dup1\n      0x86c1d5fd\n      eq\n      tag_3\n      jumpi\n      dup1\n      0x8ecd58e9\n      eq\n      tag_4\n      jumpi\n      dup1\n      0x9ff39c9e\n      eq\n      tag_5\n      jumpi\n      dup1\n      0xa20fe1c7\n      eq\n      tag_6\n      jumpi\n    tag_2:\n      0x00\n      dup1\n      revert\n        /* \"smartContract/contracts/NewVote.sol\":3552:3789  function createUnion(string memory unionName,address chairperson)external {... */\n    tag_3:\n      tag_7\n      0x04\n      dup1\n      calldatasize\n      sub\n      dup2\n      add\n      swap1\n      tag_8\n      swap2\n      swap1\n      tag_9\n      jump\t// in\n    tag_8:\n      tag_10\n      jump\t// in\n    tag_7:\n      stop\n        /* \"smartContract/contracts/NewVote.sol\":3890:3983  function totalUnionNumber()external view returns(uint num){... */\n    tag_4:\n      tag_11\n      tag_12\n      jump\t// in\n    tag_11:\n      mload(0x40)\n      tag_13\n      swap2\n      swap1\n      tag_14\n      jump\t// in\n    tag_13:\n      mload(0x40)\n      dup1\n      swap2\n      sub\n      swap1\n      return\n        /* \"smartContract/contracts/NewVote.sol\":4091:4240  function UnionAddress(string memory unionName) external view returns(address unionAddress){... */\n    tag_5:\n      tag_15\n      0x04\n      dup1\n      calldatasize\n      sub\n      dup2\n      add\n      swap1\n      tag_16\n      swap2\n      swap1\n      tag_17\n      jump\t// in\n    tag_16:\n      tag_18\n      jump\t// in\n    tag_15:\n      mload(0x40)\n      tag_19\n      swap2\n      swap1\n      tag_20\n      jump\t// in\n    tag_19:\n      mload(0x40)\n      dup1\n      swap2\n      sub\n      swap1\n      return\n        /* \"smartContract/contracts/NewVote.sol\":2925:2946  Union[] public unions */\n    tag_6:\n      tag_21\n      0x04\n      dup1\n      calldatasize\n      sub\n      dup2\n      add\n      swap1\n      tag_22\n      swap2\n      swap1\n      tag_23\n      jump\t// in\n    tag_22:\n      tag_24\n      jump\t// in\n    tag_21:\n      mload(0x40)\n      tag_25\n      swap2\n      swap1\n      tag_26\n      jump\t// in\n    tag_25:\n      mload(0x40)\n      dup1\n      swap2\n      sub\n      swap1\n      return\n        /* \"smartContract/contracts/NewVote.sol\":3552:3789  function createUnion(string memory unionName,address chairperson)external {... */\n    tag_10:\n        /* \"smartContract/contracts/NewVote.sol\":3636:3653  Union singleUnion */\n      0x00\n        /* \"smartContract/contracts/NewVote.sol\":3666:3675  unionName */\n      dup3\n        /* \"smartContract/contracts/NewVote.sol\":3676:3687  chairperson */\n      dup3\n        /* \"smartContract/contracts/NewVote.sol\":3656:3688  new Union(unionName,chairperson) */\n      mload(0x40)\n      tag_28\n      swap1\n      tag_29\n      jump\t// in\n    tag_28:\n      tag_30\n      swap3\n      swap2\n      swap1\n      tag_31\n      jump\t// in\n    tag_30:\n      mload(0x40)\n      dup1\n      swap2\n      sub\n      swap1\n      0x00\n      create\n      dup1\n      iszero\n      dup1\n      iszero\n      tag_32\n      jumpi\n      returndatasize\n      0x00\n      dup1\n      returndatacopy\n      revert(0x00, returndatasize)\n    tag_32:\n      pop\n        /* \"smartContract/contracts/NewVote.sol\":3636:3688  Union singleUnion = new Union(unionName,chairperson) */\n      swap1\n      pop\n        /* \"smartContract/contracts/NewVote.sol\":3736:3747  singleUnion */\n      dup1\n        /* \"smartContract/contracts/NewVote.sol\":3698:3714  findUnionAddress */\n      0x01\n        /* \"smartContract/contracts/NewVote.sol\":3715:3724  unionName */\n      dup5\n        /* \"smartContract/contracts/NewVote.sol\":3698:3725  findUnionAddress[unionName] */\n      mload(0x40)\n      tag_33\n      swap2\n      swap1\n      tag_34\n      jump\t// in\n    tag_33:\n      swap1\n      dup2\n      mstore\n      0x20\n      add\n      mload(0x40)\n      dup1\n      swap2\n      sub\n      swap1\n      keccak256\n      0x00\n        /* \"smartContract/contracts/NewVote.sol\":3698:3748  findUnionAddress[unionName] = address(singleUnion) */\n      0x0100\n      exp\n      dup2\n      sload\n      dup2\n      0xffffffffffffffffffffffffffffffffffffffff\n      mul\n      not\n      and\n      swap1\n      dup4\n      0xffffffffffffffffffffffffffffffffffffffff\n      and\n      mul\n      or\n      swap1\n      sstore\n      pop\n        /* \"smartContract/contracts/NewVote.sol\":3758:3764  unions */\n      0x00\n        /* \"smartContract/contracts/NewVote.sol\":3770:3781  singleUnion */\n      dup2\n        /* \"smartContract/contracts/NewVote.sol\":3758:3782  unions.push(singleUnion) */\n      swap1\n      dup1\n      0x01\n      dup2\n      sload\n      add\n      dup1\n      dup3\n      sstore\n      dup1\n      swap2\n      pop\n      pop\n      0x01\n      swap1\n      sub\n      swap1\n      0x00\n      mstore\n      keccak256(0x00, 0x20)\n      add\n      0x00\n      swap1\n      swap2\n      swap1\n      swap2\n      swap1\n      swap2\n      0x0100\n      exp\n      dup2\n      sload\n      dup2\n      0xffffffffffffffffffffffffffffffffffffffff\n      mul\n      not\n      and\n      swap1\n      dup4\n      0xffffffffffffffffffffffffffffffffffffffff\n      and\n      mul\n      or\n      swap1\n      sstore\n      pop\n        /* \"smartContract/contracts/NewVote.sol\":3626:3789  {... */\n      pop\n        /* \"smartContract/contracts/NewVote.sol\":3552:3789  function createUnion(string memory unionName,address chairperson)external {... */\n      pop\n      pop\n      jump\t// out\n        /* \"smartContract/contracts/NewVote.sol\":3890:3983  function totalUnionNumber()external view returns(uint num){... */\n    tag_12:\n        /* \"smartContract/contracts/NewVote.sol\":3939:3947  uint num */\n      0x00\n        /* \"smartContract/contracts/NewVote.sol\":3963:3969  unions */\n      dup1\n        /* \"smartContract/contracts/NewVote.sol\":3963:3976  unions.length */\n      dup1\n      sload\n      swap1\n      pop\n        /* \"smartContract/contracts/NewVote.sol\":3957:3976  num = unions.length */\n      swap1\n      pop\n        /* \"smartContract/contracts/NewVote.sol\":3890:3983  function totalUnionNumber()external view returns(uint num){... */\n      swap1\n      jump\t// out\n        /* \"smartContract/contracts/NewVote.sol\":4091:4240  function UnionAddress(string memory unionName) external view returns(address unionAddress){... */\n    tag_18:\n        /* \"smartContract/contracts/NewVote.sol\":4160:4180  address unionAddress */\n      0x00\n        /* \"smartContract/contracts/NewVote.sol\":4206:4222  findUnionAddress */\n      0x01\n        /* \"smartContract/contracts/NewVote.sol\":4223:4232  unionName */\n      dup3\n        /* \"smartContract/contracts/NewVote.sol\":4206:4233  findUnionAddress[unionName] */\n      mload(0x40)\n      tag_38\n      swap2\n      swap1\n      tag_34\n      jump\t// in\n    tag_38:\n      swap1\n      dup2\n      mstore\n      0x20\n      add\n      mload(0x40)\n      dup1\n      swap2\n      sub\n      swap1\n      keccak256\n      0x00\n      swap1\n      sload\n      swap1\n      0x0100\n      exp\n      swap1\n      div\n      0xffffffffffffffffffffffffffffffffffffffff\n      and\n        /* \"smartContract/contracts/NewVote.sol\":4191:4233  unionAddress = findUnionAddress[unionName] */\n      swap1\n      pop\n        /* \"smartContract/contracts/NewVote.sol\":4091:4240  function UnionAddress(string memory unionName) external view returns(address unionAddress){... */\n      swap2\n      swap1\n      pop\n      jump\t// out\n        /* \"smartContract/contracts/NewVote.sol\":2925:2946  Union[] public unions */\n    tag_24:\n      0x00\n      dup2\n      dup2\n      sload\n      dup2\n      lt\n      tag_39\n      jumpi\n      0x00\n      dup1\n      revert\n    tag_39:\n      swap1\n      0x00\n      mstore\n      keccak256(0x00, 0x20)\n      add\n      0x00\n      swap2\n      pop\n      sload\n      swap1\n      0x0100\n      exp\n      swap1\n      div\n      0xffffffffffffffffffffffffffffffffffffffff\n      and\n      dup2\n      jump\t// out\n    tag_29:\n      dataSize(sub_0)\n      dup1\n      dataOffset(sub_0)\n      dup4\n      codecopy\n      add\n      swap1\n      jump\t// out\n        /* \"#utility.yul\":7:419   */\n    tag_42:\n        /* \"#utility.yul\":85:90   */\n      0x00\n        /* \"#utility.yul\":110:176   */\n      tag_44\n        /* \"#utility.yul\":126:175   */\n      tag_45\n        /* \"#utility.yul\":168:174   */\n      dup5\n        /* \"#utility.yul\":126:175   */\n      tag_46\n      jump\t// in\n    tag_45:\n        /* \"#utility.yul\":110:176   */\n      tag_47\n      jump\t// in\n    tag_44:\n        /* \"#utility.yul\":101:176   */\n      swap1\n      pop\n        /* \"#utility.yul\":199:205   */\n      dup3\n        /* \"#utility.yul\":192:197   */\n      dup2\n        /* \"#utility.yul\":185:206   */\n      mstore\n        /* \"#utility.yul\":237:241   */\n      0x20\n        /* \"#utility.yul\":230:235   */\n      dup2\n        /* \"#utility.yul\":226:242   */\n      add\n        /* \"#utility.yul\":275:278   */\n      dup5\n        /* \"#utility.yul\":266:272   */\n      dup5\n        /* \"#utility.yul\":261:264   */\n      dup5\n        /* \"#utility.yul\":257:273   */\n      add\n        /* \"#utility.yul\":254:279   */\n      gt\n        /* \"#utility.yul\":251:363   */\n      iszero\n      tag_48\n      jumpi\n        /* \"#utility.yul\":282:361   */\n      tag_49\n      tag_50\n      jump\t// in\n    tag_49:\n        /* \"#utility.yul\":251:363   */\n    tag_48:\n        /* \"#utility.yul\":372:413   */\n      tag_51\n        /* \"#utility.yul\":406:412   */\n      dup5\n        /* \"#utility.yul\":401:404   */\n      dup3\n        /* \"#utility.yul\":396:399   */\n      dup6\n        /* \"#utility.yul\":372:413   */\n      tag_52\n      jump\t// in\n    tag_51:\n        /* \"#utility.yul\":91:419   */\n      pop\n        /* \"#utility.yul\":7:419   */\n      swap4\n      swap3\n      pop\n      pop\n      pop\n      jump\t// out\n        /* \"#utility.yul\":425:564   */\n    tag_53:\n        /* \"#utility.yul\":471:476   */\n      0x00\n        /* \"#utility.yul\":509:515   */\n      dup2\n        /* \"#utility.yul\":496:516   */\n      calldataload\n        /* \"#utility.yul\":487:516   */\n      swap1\n      pop\n        /* \"#utility.yul\":525:558   */\n      tag_55\n        /* \"#utility.yul\":552:557   */\n      dup2\n        /* \"#utility.yul\":525:558   */\n      tag_56\n      jump\t// in\n    tag_55:\n        /* \"#utility.yul\":425:564   */\n      swap3\n      swap2\n      pop\n      pop\n      jump\t// out\n        /* \"#utility.yul\":584:924   */\n    tag_57:\n        /* \"#utility.yul\":640:645   */\n      0x00\n        /* \"#utility.yul\":689:692   */\n      dup3\n        /* \"#utility.yul\":682:686   */\n      0x1f\n        /* \"#utility.yul\":674:680   */\n      dup4\n        /* \"#utility.yul\":670:687   */\n      add\n        /* \"#utility.yul\":666:693   */\n      slt\n        /* \"#utility.yul\":656:778   */\n      tag_59\n      jumpi\n        /* \"#utility.yul\":697:776   */\n      tag_60\n      tag_61\n      jump\t// in\n    tag_60:\n        /* \"#utility.yul\":656:778   */\n    tag_59:\n        /* \"#utility.yul\":814:820   */\n      dup2\n        /* \"#utility.yul\":801:821   */\n      calldataload\n        /* \"#utility.yul\":839:918   */\n      tag_62\n        /* \"#utility.yul\":914:917   */\n      dup5\n        /* \"#utility.yul\":906:912   */\n      dup3\n        /* \"#utility.yul\":899:903   */\n      0x20\n        /* \"#utility.yul\":891:897   */\n      dup7\n        /* \"#utility.yul\":887:904   */\n      add\n        /* \"#utility.yul\":839:918   */\n      tag_42\n      jump\t// in\n    tag_62:\n        /* \"#utility.yul\":830:918   */\n      swap2\n      pop\n        /* \"#utility.yul\":646:924   */\n      pop\n        /* \"#utility.yul\":584:924   */\n      swap3\n      swap2\n      pop\n      pop\n      jump\t// out\n        /* \"#utility.yul\":930:1069   */\n    tag_63:\n        /* \"#utility.yul\":976:981   */\n      0x00\n        /* \"#utility.yul\":1014:1020   */\n      dup2\n        /* \"#utility.yul\":1001:1021   */\n      calldataload\n        /* \"#utility.yul\":992:1021   */\n      swap1\n      pop\n        /* \"#utility.yul\":1030:1063   */\n      tag_65\n        /* \"#utility.yul\":1057:1062   */\n      dup2\n        /* \"#utility.yul\":1030:1063   */\n      tag_66\n      jump\t// in\n    tag_65:\n        /* \"#utility.yul\":930:1069   */\n      swap3\n      swap2\n      pop\n      pop\n      jump\t// out\n        /* \"#utility.yul\":1075:1584   */\n    tag_17:\n        /* \"#utility.yul\":1144:1150   */\n      0x00\n        /* \"#utility.yul\":1193:1195   */\n      0x20\n        /* \"#utility.yul\":1181:1190   */\n      dup3\n        /* \"#utility.yul\":1172:1179   */\n      dup5\n        /* \"#utility.yul\":1168:1191   */\n      sub\n        /* \"#utility.yul\":1164:1196   */\n      slt\n        /* \"#utility.yul\":1161:1280   */\n      iszero\n      tag_68\n      jumpi\n        /* \"#utility.yul\":1199:1278   */\n      tag_69\n      tag_70\n      jump\t// in\n    tag_69:\n        /* \"#utility.yul\":1161:1280   */\n    tag_68:\n        /* \"#utility.yul\":1347:1348   */\n      0x00\n        /* \"#utility.yul\":1336:1345   */\n      dup3\n        /* \"#utility.yul\":1332:1349   */\n      add\n        /* \"#utility.yul\":1319:1350   */\n      calldataload\n        /* \"#utility.yul\":1377:1395   */\n      0xffffffffffffffff\n        /* \"#utility.yul\":1369:1375   */\n      dup2\n        /* \"#utility.yul\":1366:1396   */\n      gt\n        /* \"#utility.yul\":1363:1480   */\n      iszero\n      tag_71\n      jumpi\n        /* \"#utility.yul\":1399:1478   */\n      tag_72\n      tag_73\n      jump\t// in\n    tag_72:\n        /* \"#utility.yul\":1363:1480   */\n    tag_71:\n        /* \"#utility.yul\":1504:1567   */\n      tag_74\n        /* \"#utility.yul\":1559:1566   */\n      dup5\n        /* \"#utility.yul\":1550:1556   */\n      dup3\n        /* \"#utility.yul\":1539:1548   */\n      dup6\n        /* \"#utility.yul\":1535:1557   */\n      add\n        /* \"#utility.yul\":1504:1567   */\n      tag_57\n      jump\t// in\n    tag_74:\n        /* \"#utility.yul\":1494:1567   */\n      swap2\n      pop\n        /* \"#utility.yul\":1290:1577   */\n      pop\n        /* \"#utility.yul\":1075:1584   */\n      swap3\n      swap2\n      pop\n      pop\n      jump\t// out\n        /* \"#utility.yul\":1590:2244   */\n    tag_9:\n        /* \"#utility.yul\":1668:1674   */\n      0x00\n        /* \"#utility.yul\":1676:1682   */\n      dup1\n        /* \"#utility.yul\":1725:1727   */\n      0x40\n        /* \"#utility.yul\":1713:1722   */\n      dup4\n        /* \"#utility.yul\":1704:1711   */\n      dup6\n        /* \"#utility.yul\":1700:1723   */\n      sub\n        /* \"#utility.yul\":1696:1728   */\n      slt\n        /* \"#utility.yul\":1693:1812   */\n      iszero\n      tag_76\n      jumpi\n        /* \"#utility.yul\":1731:1810   */\n      tag_77\n      tag_70\n      jump\t// in\n    tag_77:\n        /* \"#utility.yul\":1693:1812   */\n    tag_76:\n        /* \"#utility.yul\":1879:1880   */\n      0x00\n        /* \"#utility.yul\":1868:1877   */\n      dup4\n        /* \"#utility.yul\":1864:1881   */\n      add\n        /* \"#utility.yul\":1851:1882   */\n      calldataload\n        /* \"#utility.yul\":1909:1927   */\n      0xffffffffffffffff\n        /* \"#utility.yul\":1901:1907   */\n      dup2\n        /* \"#utility.yul\":1898:1928   */\n      gt\n        /* \"#utility.yul\":1895:2012   */\n      iszero\n      tag_78\n      jumpi\n        /* \"#utility.yul\":1931:2010   */\n      tag_79\n      tag_73\n      jump\t// in\n    tag_79:\n        /* \"#utility.yul\":1895:2012   */\n    tag_78:\n        /* \"#utility.yul\":2036:2099   */\n      tag_80\n        /* \"#utility.yul\":2091:2098   */\n      dup6\n        /* \"#utility.yul\":2082:2088   */\n      dup3\n        /* \"#utility.yul\":2071:2080   */\n      dup7\n        /* \"#utility.yul\":2067:2089   */\n      add\n        /* \"#utility.yul\":2036:2099   */\n      tag_57\n      jump\t// in\n    tag_80:\n        /* \"#utility.yul\":2026:2099   */\n      swap3\n      pop\n        /* \"#utility.yul\":1822:2109   */\n      pop\n        /* \"#utility.yul\":2148:2150   */\n      0x20\n        /* \"#utility.yul\":2174:2227   */\n      tag_81\n        /* \"#utility.yul\":2219:2226   */\n      dup6\n        /* \"#utility.yul\":2210:2216   */\n      dup3\n        /* \"#utility.yul\":2199:2208   */\n      dup7\n        /* \"#utility.yul\":2195:2217   */\n      add\n        /* \"#utility.yul\":2174:2227   */\n      tag_53\n      jump\t// in\n    tag_81:\n        /* \"#utility.yul\":2164:2227   */\n      swap2\n      pop\n        /* \"#utility.yul\":2119:2237   */\n      pop\n        /* \"#utility.yul\":1590:2244   */\n      swap3\n      pop\n      swap3\n      swap1\n      pop\n      jump\t// out\n        /* \"#utility.yul\":2250:2579   */\n    tag_23:\n        /* \"#utility.yul\":2309:2315   */\n      0x00\n        /* \"#utility.yul\":2358:2360   */\n      0x20\n        /* \"#utility.yul\":2346:2355   */\n      dup3\n        /* \"#utility.yul\":2337:2344   */\n      dup5\n        /* \"#utility.yul\":2333:2356   */\n      sub\n        /* \"#utility.yul\":2329:2361   */\n      slt\n        /* \"#utility.yul\":2326:2445   */\n      iszero\n      tag_83\n      jumpi\n        /* \"#utility.yul\":2364:2443   */\n      tag_84\n      tag_70\n      jump\t// in\n    tag_84:\n        /* \"#utility.yul\":2326:2445   */\n    tag_83:\n        /* \"#utility.yul\":2484:2485   */\n      0x00\n        /* \"#utility.yul\":2509:2562   */\n      tag_85\n        /* \"#utility.yul\":2554:2561   */\n      dup5\n        /* \"#utility.yul\":2545:2551   */\n      dup3\n        /* \"#utility.yul\":2534:2543   */\n      dup6\n        /* \"#utility.yul\":2530:2552   */\n      add\n        /* \"#utility.yul\":2509:2562   */\n      tag_63\n      jump\t// in\n    tag_85:\n        /* \"#utility.yul\":2499:2562   */\n      swap2\n      pop\n        /* \"#utility.yul\":2455:2572   */\n      pop\n        /* \"#utility.yul\":2250:2579   */\n      swap3\n      swap2\n      pop\n      pop\n      jump\t// out\n        /* \"#utility.yul\":2585:2703   */\n    tag_86:\n        /* \"#utility.yul\":2672:2696   */\n      tag_88\n        /* \"#utility.yul\":2690:2695   */\n      dup2\n        /* \"#utility.yul\":2672:2696   */\n      tag_89\n      jump\t// in\n    tag_88:\n        /* \"#utility.yul\":2667:2670   */\n      dup3\n        /* \"#utility.yul\":2660:2697   */\n      mstore\n        /* \"#utility.yul\":2585:2703   */\n      pop\n      pop\n      jump\t// out\n        /* \"#utility.yul\":2709:2866   */\n    tag_90:\n        /* \"#utility.yul\":2809:2859   */\n      tag_92\n        /* \"#utility.yul\":2853:2858   */\n      dup2\n        /* \"#utility.yul\":2809:2859   */\n      tag_93\n      jump\t// in\n    tag_92:\n        /* \"#utility.yul\":2804:2807   */\n      dup3\n        /* \"#utility.yul\":2797:2860   */\n      mstore\n        /* \"#utility.yul\":2709:2866   */\n      pop\n      pop\n      jump\t// out\n        /* \"#utility.yul\":2872:3236   */\n    tag_94:\n        /* \"#utility.yul\":2960:2963   */\n      0x00\n        /* \"#utility.yul\":2988:3027   */\n      tag_96\n        /* \"#utility.yul\":3021:3026   */\n      dup3\n        /* \"#utility.yul\":2988:3027   */\n      tag_97\n      jump\t// in\n    tag_96:\n        /* \"#utility.yul\":3043:3114   */\n      tag_98\n        /* \"#utility.yul\":3107:3113   */\n      dup2\n        /* \"#utility.yul\":3102:3105   */\n      dup6\n        /* \"#utility.yul\":3043:3114   */\n      tag_99\n      jump\t// in\n    tag_98:\n        /* \"#utility.yul\":3036:3114   */\n      swap4\n      pop\n        /* \"#utility.yul\":3123:3175   */\n      tag_100\n        /* \"#utility.yul\":3168:3174   */\n      dup2\n        /* \"#utility.yul\":3163:3166   */\n      dup6\n        /* \"#utility.yul\":3156:3160   */\n      0x20\n        /* \"#utility.yul\":3149:3154   */\n      dup7\n        /* \"#utility.yul\":3145:3161   */\n      add\n        /* \"#utility.yul\":3123:3175   */\n      tag_101\n      jump\t// in\n    tag_100:\n        /* \"#utility.yul\":3200:3229   */\n      tag_102\n        /* \"#utility.yul\":3222:3228   */\n      dup2\n        /* \"#utility.yul\":3200:3229   */\n      tag_103\n      jump\t// in\n    tag_102:\n        /* \"#utility.yul\":3195:3198   */\n      dup5\n        /* \"#utility.yul\":3191:3230   */\n      add\n        /* \"#utility.yul\":3184:3230   */\n      swap2\n      pop\n        /* \"#utility.yul\":2964:3236   */\n      pop\n        /* \"#utility.yul\":2872:3236   */\n      swap3\n      swap2\n      pop\n      pop\n      jump\t// out\n        /* \"#utility.yul\":3242:3619   */\n    tag_104:\n        /* \"#utility.yul\":3348:3351   */\n      0x00\n        /* \"#utility.yul\":3376:3415   */\n      tag_106\n        /* \"#utility.yul\":3409:3414   */\n      dup3\n        /* \"#utility.yul\":3376:3415   */\n      tag_97\n      jump\t// in\n    tag_106:\n        /* \"#utility.yul\":3431:3520   */\n      tag_107\n        /* \"#utility.yul\":3513:3519   */\n      dup2\n        /* \"#utility.yul\":3508:3511   */\n      dup6\n        /* \"#utility.yul\":3431:3520   */\n      tag_108\n      jump\t// in\n    tag_107:\n        /* \"#utility.yul\":3424:3520   */\n      swap4\n      pop\n        /* \"#utility.yul\":3529:3581   */\n      tag_109\n        /* \"#utility.yul\":3574:3580   */\n      dup2\n        /* \"#utility.yul\":3569:3572   */\n      dup6\n        /* \"#utility.yul\":3562:3566   */\n      0x20\n        /* \"#utility.yul\":3555:3560   */\n      dup7\n        /* \"#utility.yul\":3551:3567   */\n      add\n        /* \"#utility.yul\":3529:3581   */\n      tag_101\n      jump\t// in\n    tag_109:\n        /* \"#utility.yul\":3606:3612   */\n      dup1\n        /* \"#utility.yul\":3601:3604   */\n      dup5\n        /* \"#utility.yul\":3597:3613   */\n      add\n        /* \"#utility.yul\":3590:3613   */\n      swap2\n      pop\n        /* \"#utility.yul\":3352:3619   */\n      pop\n        /* \"#utility.yul\":3242:3619   */\n      swap3\n      swap2\n      pop\n      pop\n      jump\t// out\n        /* \"#utility.yul\":3625:3743   */\n    tag_110:\n        /* \"#utility.yul\":3712:3736   */\n      tag_112\n        /* \"#utility.yul\":3730:3735   */\n      dup2\n        /* \"#utility.yul\":3712:3736   */\n      tag_113\n      jump\t// in\n    tag_112:\n        /* \"#utility.yul\":3707:3710   */\n      dup3\n        /* \"#utility.yul\":3700:3737   */\n      mstore\n        /* \"#utility.yul\":3625:3743   */\n      pop\n      pop\n      jump\t// out\n        /* \"#utility.yul\":3749:4024   */\n    tag_34:\n        /* \"#utility.yul\":3881:3884   */\n      0x00\n        /* \"#utility.yul\":3903:3998   */\n      tag_115\n        /* \"#utility.yul\":3994:3997   */\n      dup3\n        /* \"#utility.yul\":3985:3991   */\n      dup5\n        /* \"#utility.yul\":3903:3998   */\n      tag_104\n      jump\t// in\n    tag_115:\n        /* \"#utility.yul\":3896:3998   */\n      swap2\n      pop\n        /* \"#utility.yul\":4015:4018   */\n      dup2\n        /* \"#utility.yul\":4008:4018   */\n      swap1\n      pop\n        /* \"#utility.yul\":3749:4024   */\n      swap3\n      swap2\n      pop\n      pop\n      jump\t// out\n        /* \"#utility.yul\":4030:4252   */\n    tag_20:\n        /* \"#utility.yul\":4123:4127   */\n      0x00\n        /* \"#utility.yul\":4161:4163   */\n      0x20\n        /* \"#utility.yul\":4150:4159   */\n      dup3\n        /* \"#utility.yul\":4146:4164   */\n      add\n        /* \"#utility.yul\":4138:4164   */\n      swap1\n      pop\n        /* \"#utility.yul\":4174:4245   */\n      tag_117\n        /* \"#utility.yul\":4242:4243   */\n      0x00\n        /* \"#utility.yul\":4231:4240   */\n      dup4\n        /* \"#utility.yul\":4227:4244   */\n      add\n        /* \"#utility.yul\":4218:4224   */\n      dup5\n        /* \"#utility.yul\":4174:4245   */\n      tag_86\n      jump\t// in\n    tag_117:\n        /* \"#utility.yul\":4030:4252   */\n      swap3\n      swap2\n      pop\n      pop\n      jump\t// out\n        /* \"#utility.yul\":4258:4506   */\n    tag_26:\n        /* \"#utility.yul\":4364:4368   */\n      0x00\n        /* \"#utility.yul\":4402:4404   */\n      0x20\n        /* \"#utility.yul\":4391:4400   */\n      dup3\n        /* \"#utility.yul\":4387:4405   */\n      add\n        /* \"#utility.yul\":4379:4405   */\n      swap1\n      pop\n        /* \"#utility.yul\":4415:4499   */\n      tag_119\n        /* \"#utility.yul\":4496:4497   */\n      0x00\n        /* \"#utility.yul\":4485:4494   */\n      dup4\n        /* \"#utility.yul\":4481:4498   */\n      add\n        /* \"#utility.yul\":4472:4478   */\n      dup5\n        /* \"#utility.yul\":4415:4499   */\n      tag_90\n      jump\t// in\n    tag_119:\n        /* \"#utility.yul\":4258:4506   */\n      swap3\n      swap2\n      pop\n      pop\n      jump\t// out\n        /* \"#utility.yul\":4512:4935   */\n    tag_31:\n        /* \"#utility.yul\":4653:4657   */\n      0x00\n        /* \"#utility.yul\":4691:4693   */\n      0x40\n        /* \"#utility.yul\":4680:4689   */\n      dup3\n        /* \"#utility.yul\":4676:4694   */\n      add\n        /* \"#utility.yul\":4668:4694   */\n      swap1\n      pop\n        /* \"#utility.yul\":4740:4749   */\n      dup2\n        /* \"#utility.yul\":4734:4738   */\n      dup2\n        /* \"#utility.yul\":4730:4750   */\n      sub\n        /* \"#utility.yul\":4726:4727   */\n      0x00\n        /* \"#utility.yul\":4715:4724   */\n      dup4\n        /* \"#utility.yul\":4711:4728   */\n      add\n        /* \"#utility.yul\":4704:4751   */\n      mstore\n        /* \"#utility.yul\":4768:4846   */\n      tag_121\n        /* \"#utility.yul\":4841:4845   */\n      dup2\n        /* \"#utility.yul\":4832:4838   */\n      dup6\n        /* \"#utility.yul\":4768:4846   */\n      tag_94\n      jump\t// in\n    tag_121:\n        /* \"#utility.yul\":4760:4846   */\n      swap1\n      pop\n        /* \"#utility.yul\":4856:4928   */\n      tag_122\n        /* \"#utility.yul\":4924:4926   */\n      0x20\n        /* \"#utility.yul\":4913:4922   */\n      dup4\n        /* \"#utility.yul\":4909:4927   */\n      add\n        /* \"#utility.yul\":4900:4906   */\n      dup5\n        /* \"#utility.yul\":4856:4928   */\n      tag_86\n      jump\t// in\n    tag_122:\n        /* \"#utility.yul\":4512:4935   */\n      swap4\n      swap3\n      pop\n      pop\n      pop\n      jump\t// out\n        /* \"#utility.yul\":4941:5163   */\n    tag_14:\n        /* \"#utility.yul\":5034:5038   */\n      0x00\n        /* \"#utility.yul\":5072:5074   */\n      0x20\n        /* \"#utility.yul\":5061:5070   */\n      dup3\n        /* \"#utility.yul\":5057:5075   */\n      add\n        /* \"#utility.yul\":5049:5075   */\n      swap1\n      pop\n        /* \"#utility.yul\":5085:5156   */\n      tag_124\n        /* \"#utility.yul\":5153:5154   */\n      0x00\n        /* \"#utility.yul\":5142:5151   */\n      dup4\n        /* \"#utility.yul\":5138:5155   */\n      add\n        /* \"#utility.yul\":5129:5135   */\n      dup5\n        /* \"#utility.yul\":5085:5156   */\n      tag_110\n      jump\t// in\n    tag_124:\n        /* \"#utility.yul\":4941:5163   */\n      swap3\n      swap2\n      pop\n      pop\n      jump\t// out\n        /* \"#utility.yul\":5169:5298   */\n    tag_47:\n        /* \"#utility.yul\":5203:5209   */\n      0x00\n        /* \"#utility.yul\":5230:5250   */\n      tag_126\n      tag_127\n      jump\t// in\n    tag_126:\n        /* \"#utility.yul\":5220:5250   */\n      swap1\n      pop\n        /* \"#utility.yul\":5259:5292   */\n      tag_128\n        /* \"#utility.yul\":5287:5291   */\n      dup3\n        /* \"#utility.yul\":5279:5285   */\n      dup3\n        /* \"#utility.yul\":5259:5292   */\n      tag_129\n      jump\t// in\n    tag_128:\n        /* \"#utility.yul\":5169:5298   */\n      swap2\n      swap1\n      pop\n      jump\t// out\n        /* \"#utility.yul\":5304:5379   */\n    tag_127:\n        /* \"#utility.yul\":5337:5343   */\n      0x00\n        /* \"#utility.yul\":5370:5372   */\n      0x40\n        /* \"#utility.yul\":5364:5373   */\n      mload\n        /* \"#utility.yul\":5354:5373   */\n      swap1\n      pop\n        /* \"#utility.yul\":5304:5379   */\n      swap1\n      jump\t// out\n        /* \"#utility.yul\":5385:5693   */\n    tag_46:\n        /* \"#utility.yul\":5447:5451   */\n      0x00\n        /* \"#utility.yul\":5537:5555   */\n      0xffffffffffffffff\n        /* \"#utility.yul\":5529:5535   */\n      dup3\n        /* \"#utility.yul\":5526:5556   */\n      gt\n        /* \"#utility.yul\":5523:5579   */\n      iszero\n      tag_132\n      jumpi\n        /* \"#utility.yul\":5559:5577   */\n      tag_133\n      tag_134\n      jump\t// in\n    tag_133:\n        /* \"#utility.yul\":5523:5579   */\n    tag_132:\n        /* \"#utility.yul\":5597:5626   */\n      tag_135\n        /* \"#utility.yul\":5619:5625   */\n      dup3\n        /* \"#utility.yul\":5597:5626   */\n      tag_103\n      jump\t// in\n    tag_135:\n        /* \"#utility.yul\":5589:5626   */\n      swap1\n      pop\n        /* \"#utility.yul\":5681:5685   */\n      0x20\n        /* \"#utility.yul\":5675:5679   */\n      dup2\n        /* \"#utility.yul\":5671:5686   */\n      add\n        /* \"#utility.yul\":5663:5686   */\n      swap1\n      pop\n        /* \"#utility.yul\":5385:5693   */\n      swap2\n      swap1\n      pop\n      jump\t// out\n        /* \"#utility.yul\":5699:5798   */\n    tag_97:\n        /* \"#utility.yul\":5751:5757   */\n      0x00\n        /* \"#utility.yul\":5785:5790   */\n      dup2\n        /* \"#utility.yul\":5779:5791   */\n      mload\n        /* \"#utility.yul\":5769:5791   */\n      swap1\n      pop\n        /* \"#utility.yul\":5699:5798   */\n      swap2\n      swap1\n      pop\n      jump\t// out\n        /* \"#utility.yul\":5804:5973   */\n    tag_99:\n        /* \"#utility.yul\":5888:5899   */\n      0x00\n        /* \"#utility.yul\":5922:5928   */\n      dup3\n        /* \"#utility.yul\":5917:5920   */\n      dup3\n        /* \"#utility.yul\":5910:5929   */\n      mstore\n        /* \"#utility.yul\":5962:5966   */\n      0x20\n        /* \"#utility.yul\":5957:5960   */\n      dup3\n        /* \"#utility.yul\":5953:5967   */\n      add\n        /* \"#utility.yul\":5938:5967   */\n      swap1\n      pop\n        /* \"#utility.yul\":5804:5973   */\n      swap3\n      swap2\n      pop\n      pop\n      jump\t// out\n        /* \"#utility.yul\":5979:6127   */\n    tag_108:\n        /* \"#utility.yul\":6081:6092   */\n      0x00\n        /* \"#utility.yul\":6118:6121   */\n      dup2\n        /* \"#utility.yul\":6103:6121   */\n      swap1\n      pop\n        /* \"#utility.yul\":5979:6127   */\n      swap3\n      swap2\n      pop\n      pop\n      jump\t// out\n        /* \"#utility.yul\":6133:6229   */\n    tag_89:\n        /* \"#utility.yul\":6170:6177   */\n      0x00\n        /* \"#utility.yul\":6199:6223   */\n      tag_140\n        /* \"#utility.yul\":6217:6222   */\n      dup3\n        /* \"#utility.yul\":6199:6223   */\n      tag_141\n      jump\t// in\n    tag_140:\n        /* \"#utility.yul\":6188:6223   */\n      swap1\n      pop\n        /* \"#utility.yul\":6133:6229   */\n      swap2\n      swap1\n      pop\n      jump\t// out\n        /* \"#utility.yul\":6235:6361   */\n    tag_141:\n        /* \"#utility.yul\":6272:6279   */\n      0x00\n        /* \"#utility.yul\":6312:6354   */\n      0xffffffffffffffffffffffffffffffffffffffff\n        /* \"#utility.yul\":6305:6310   */\n      dup3\n        /* \"#utility.yul\":6301:6355   */\n      and\n        /* \"#utility.yul\":6290:6355   */\n      swap1\n      pop\n        /* \"#utility.yul\":6235:6361   */\n      swap2\n      swap1\n      pop\n      jump\t// out\n        /* \"#utility.yul\":6367:6444   */\n    tag_113:\n        /* \"#utility.yul\":6404:6411   */\n      0x00\n        /* \"#utility.yul\":6433:6438   */\n      dup2\n        /* \"#utility.yul\":6422:6438   */\n      swap1\n      pop\n        /* \"#utility.yul\":6367:6444   */\n      swap2\n      swap1\n      pop\n      jump\t// out\n        /* \"#utility.yul\":6450:6589   */\n    tag_93:\n        /* \"#utility.yul\":6513:6522   */\n      0x00\n        /* \"#utility.yul\":6546:6583   */\n      tag_145\n        /* \"#utility.yul\":6577:6582   */\n      dup3\n        /* \"#utility.yul\":6546:6583   */\n      tag_146\n      jump\t// in\n    tag_145:\n        /* \"#utility.yul\":6533:6583   */\n      swap1\n      pop\n        /* \"#utility.yul\":6450:6589   */\n      swap2\n      swap1\n      pop\n      jump\t// out\n        /* \"#utility.yul\":6595:6721   */\n    tag_146:\n        /* \"#utility.yul\":6645:6654   */\n      0x00\n        /* \"#utility.yul\":6678:6715   */\n      tag_148\n        /* \"#utility.yul\":6709:6714   */\n      dup3\n        /* \"#utility.yul\":6678:6715   */\n      tag_149\n      jump\t// in\n    tag_148:\n        /* \"#utility.yul\":6665:6715   */\n      swap1\n      pop\n        /* \"#utility.yul\":6595:6721   */\n      swap2\n      swap1\n      pop\n      jump\t// out\n        /* \"#utility.yul\":6727:6840   */\n    tag_149:\n        /* \"#utility.yul\":6777:6786   */\n      0x00\n        /* \"#utility.yul\":6810:6834   */\n      tag_151\n        /* \"#utility.yul\":6828:6833   */\n      dup3\n        /* \"#utility.yul\":6810:6834   */\n      tag_141\n      jump\t// in\n    tag_151:\n        /* \"#utility.yul\":6797:6834   */\n      swap1\n      pop\n        /* \"#utility.yul\":6727:6840   */\n      swap2\n      swap1\n      pop\n      jump\t// out\n        /* \"#utility.yul\":6846:7000   */\n    tag_52:\n        /* \"#utility.yul\":6930:6936   */\n      dup3\n        /* \"#utility.yul\":6925:6928   */\n      dup2\n        /* \"#utility.yul\":6920:6923   */\n      dup4\n        /* \"#utility.yul\":6907:6937   */\n      calldatacopy\n        /* \"#utility.yul\":6992:6993   */\n      0x00\n        /* \"#utility.yul\":6983:6989   */\n      dup4\n        /* \"#utility.yul\":6978:6981   */\n      dup4\n        /* \"#utility.yul\":6974:6990   */\n      add\n        /* \"#utility.yul\":6967:6994   */\n      mstore\n        /* \"#utility.yul\":6846:7000   */\n      pop\n      pop\n      pop\n      jump\t// out\n        /* \"#utility.yul\":7006:7313   */\n    tag_101:\n        /* \"#utility.yul\":7074:7075   */\n      0x00\n        /* \"#utility.yul\":7084:7197   */\n    tag_154:\n        /* \"#utility.yul\":7098:7104   */\n      dup4\n        /* \"#utility.yul\":7095:7096   */\n      dup2\n        /* \"#utility.yul\":7092:7105   */\n      lt\n        /* \"#utility.yul\":7084:7197   */\n      iszero\n      tag_156\n      jumpi\n        /* \"#utility.yul\":7183:7184   */\n      dup1\n        /* \"#utility.yul\":7178:7181   */\n      dup3\n        /* \"#utility.yul\":7174:7185   */\n      add\n        /* \"#utility.yul\":7168:7186   */\n      mload\n        /* \"#utility.yul\":7164:7165   */\n      dup2\n        /* \"#utility.yul\":7159:7162   */\n      dup5\n        /* \"#utility.yul\":7155:7166   */\n      add\n        /* \"#utility.yul\":7148:7187   */\n      mstore\n        /* \"#utility.yul\":7120:7122   */\n      0x20\n        /* \"#utility.yul\":7117:7118   */\n      dup2\n        /* \"#utility.yul\":7113:7123   */\n      add\n        /* \"#utility.yul\":7108:7123   */\n      swap1\n      pop\n        /* \"#utility.yul\":7084:7197   */\n      jump(tag_154)\n    tag_156:\n        /* \"#utility.yul\":7215:7221   */\n      dup4\n        /* \"#utility.yul\":7212:7213   */\n      dup2\n        /* \"#utility.yul\":7209:7222   */\n      gt\n        /* \"#utility.yul\":7206:7307   */\n      iszero\n      tag_157\n      jumpi\n        /* \"#utility.yul\":7295:7296   */\n      0x00\n        /* \"#utility.yul\":7286:7292   */\n      dup5\n        /* \"#utility.yul\":7281:7284   */\n      dup5\n        /* \"#utility.yul\":7277:7293   */\n      add\n        /* \"#utility.yul\":7270:7297   */\n      mstore\n        /* \"#utility.yul\":7206:7307   */\n    tag_157:\n        /* \"#utility.yul\":7055:7313   */\n      pop\n        /* \"#utility.yul\":7006:7313   */\n      pop\n      pop\n      pop\n      jump\t// out\n        /* \"#utility.yul\":7319:7600   */\n    tag_129:\n        /* \"#utility.yul\":7402:7429   */\n      tag_159\n        /* \"#utility.yul\":7424:7428   */\n      dup3\n        /* \"#utility.yul\":7402:7429   */\n      tag_103\n      jump\t// in\n    tag_159:\n        /* \"#utility.yul\":7394:7400   */\n      dup2\n        /* \"#utility.yul\":7390:7430   */\n      add\n        /* \"#utility.yul\":7532:7538   */\n      dup2\n        /* \"#utility.yul\":7520:7530   */\n      dup2\n        /* \"#utility.yul\":7517:7539   */\n      lt\n        /* \"#utility.yul\":7496:7514   */\n      0xffffffffffffffff\n        /* \"#utility.yul\":7484:7494   */\n      dup3\n        /* \"#utility.yul\":7481:7515   */\n      gt\n        /* \"#utility.yul\":7478:7540   */\n      or\n        /* \"#utility.yul\":7475:7563   */\n      iszero\n      tag_160\n      jumpi\n        /* \"#utility.yul\":7543:7561   */\n      tag_161\n      tag_134\n      jump\t// in\n    tag_161:\n        /* \"#utility.yul\":7475:7563   */\n    tag_160:\n        /* \"#utility.yul\":7583:7593   */\n      dup1\n        /* \"#utility.yul\":7579:7581   */\n      0x40\n        /* \"#utility.yul\":7572:7594   */\n      mstore\n        /* \"#utility.yul\":7362:7600   */\n      pop\n        /* \"#utility.yul\":7319:7600   */\n      pop\n      pop\n      jump\t// out\n        /* \"#utility.yul\":7606:7786   */\n    tag_134:\n        /* \"#utility.yul\":7654:7731   */\n      0x4e487b7100000000000000000000000000000000000000000000000000000000\n        /* \"#utility.yul\":7651:7652   */\n      0x00\n        /* \"#utility.yul\":7644:7732   */\n      mstore\n        /* \"#utility.yul\":7751:7755   */\n      0x41\n        /* \"#utility.yul\":7748:7749   */\n      0x04\n        /* \"#utility.yul\":7741:7756   */\n      mstore\n        /* \"#utility.yul\":7775:7779   */\n      0x24\n        /* \"#utility.yul\":7772:7773   */\n      0x00\n        /* \"#utility.yul\":7765:7780   */\n      revert\n        /* \"#utility.yul\":7792:7909   */\n    tag_61:\n        /* \"#utility.yul\":7901:7902   */\n      0x00\n        /* \"#utility.yul\":7898:7899   */\n      dup1\n        /* \"#utility.yul\":7891:7903   */\n      revert\n        /* \"#utility.yul\":7915:8032   */\n    tag_50:\n        /* \"#utility.yul\":8024:8025   */\n      0x00\n        /* \"#utility.yul\":8021:8022   */\n      dup1\n        /* \"#utility.yul\":8014:8026   */\n      revert\n        /* \"#utility.yul\":8038:8155   */\n    tag_73:\n        /* \"#utility.yul\":8147:8148   */\n      0x00\n        /* \"#utility.yul\":8144:8145   */\n      dup1\n        /* \"#utility.yul\":8137:8149   */\n      revert\n        /* \"#utility.yul\":8161:8278   */\n    tag_70:\n        /* \"#utility.yul\":8270:8271   */\n      0x00\n        /* \"#utility.yul\":8267:8268   */\n      dup1\n        /* \"#utility.yul\":8260:8272   */\n      revert\n        /* \"#utility.yul\":8284:8386   */\n    tag_103:\n        /* \"#utility.yul\":8325:8331   */\n      0x00\n        /* \"#utility.yul\":8376:8378   */\n      0x1f\n        /* \"#utility.yul\":8372:8379   */\n      not\n        /* \"#utility.yul\":8367:8369   */\n      0x1f\n        /* \"#utility.yul\":8360:8365   */\n      dup4\n        /* \"#utility.yul\":8356:8370   */\n      add\n        /* \"#utility.yul\":8352:8380   */\n      and\n        /* \"#utility.yul\":8342:8380   */\n      swap1\n      pop\n        /* \"#utility.yul\":8284:8386   */\n      swap2\n      swap1\n      pop\n      jump\t// out\n        /* \"#utility.yul\":8392:8514   */\n    tag_56:\n        /* \"#utility.yul\":8465:8489   */\n      tag_169\n        /* \"#utility.yul\":8483:8488   */\n      dup2\n        /* \"#utility.yul\":8465:8489   */\n      tag_89\n      jump\t// in\n    tag_169:\n        /* \"#utility.yul\":8458:8463   */\n      dup2\n        /* \"#utility.yul\":8455:8490   */\n      eq\n        /* \"#utility.yul\":8445:8508   */\n      tag_170\n      jumpi\n        /* \"#utility.yul\":8504:8505   */\n      0x00\n        /* \"#utility.yul\":8501:8502   */\n      dup1\n        /* \"#utility.yul\":8494:8506   */\n      revert\n        /* \"#utility.yul\":8445:8508   */\n    tag_170:\n        /* \"#utility.yul\":8392:8514   */\n      pop\n      jump\t// out\n        /* \"#utility.yul\":8520:8642   */\n    tag_66:\n        /* \"#utility.yul\":8593:8617   */\n      tag_172\n        /* \"#utility.yul\":8611:8616   */\n      dup2\n        /* \"#utility.yul\":8593:8617   */\n      tag_113\n      jump\t// in\n    tag_172:\n        /* \"#utility.yul\":8586:8591   */\n      dup2\n        /* \"#utility.yul\":8583:8618   */\n      eq\n        /* \"#utility.yul\":8573:8636   */\n      tag_173\n      jumpi\n        /* \"#utility.yul\":8632:8633   */\n      0x00\n        /* \"#utility.yul\":8629:8630   */\n      dup1\n        /* \"#utility.yul\":8622:8634   */\n      revert\n        /* \"#utility.yul\":8573:8636   */\n    tag_173:\n        /* \"#utility.yul\":8520:8642   */\n      pop\n      jump\t// out\n    stop\n\n    sub_0: assembly {\n            /* \"smartContract/contracts/NewVote.sol\":64:2890  contract Union{... */\n          mstore(0x40, 0x80)\n            /* \"smartContract/contracts/NewVote.sol\":933:1050  constructor(string memory _unionName,address owner){... */\n          callvalue\n          dup1\n          iszero\n          tag_1\n          jumpi\n          0x00\n          dup1\n          revert\n        tag_1:\n          pop\n          mload(0x40)\n          sub(codesize, bytecodeSize)\n          dup1\n          bytecodeSize\n          dup4\n          codecopy\n          dup2\n          dup2\n          add\n          0x40\n          mstore\n          dup2\n          add\n          swap1\n          tag_2\n          swap2\n          swap1\n          tag_3\n          jump\t// in\n        tag_2:\n            /* \"smartContract/contracts/NewVote.sol\":1007:1012  owner */\n          dup1\n            /* \"smartContract/contracts/NewVote.sol\":993:1004  chairperson */\n          0x00\n          dup1\n            /* \"smartContract/contracts/NewVote.sol\":993:1012  chairperson = owner */\n          0x0100\n          exp\n          dup2\n          sload\n          dup2\n          0xffffffffffffffffffffffffffffffffffffffff\n          mul\n          not\n          and\n          swap1\n          dup4\n          0xffffffffffffffffffffffffffffffffffffffff\n          and\n          mul\n          or\n          swap1\n          sstore\n          pop\n            /* \"smartContract/contracts/NewVote.sol\":1033:1043  _unionName */\n          dup2\n            /* \"smartContract/contracts/NewVote.sol\":1021:1030  unionName */\n          0x01\n            /* \"smartContract/contracts/NewVote.sol\":1021:1043  unionName = _unionName */\n          swap1\n          dup1\n          mload\n          swap1\n          0x20\n          add\n          swap1\n          tag_6\n          swap3\n          swap2\n          swap1\n          tag_7\n          jump\t// in\n        tag_6:\n          pop\n            /* \"smartContract/contracts/NewVote.sol\":933:1050  constructor(string memory _unionName,address owner){... */\n          pop\n          pop\n            /* \"smartContract/contracts/NewVote.sol\":64:2890  contract Union{... */\n          jump(tag_8)\n        tag_7:\n          dup3\n          dup1\n          sload\n          tag_9\n          swap1\n          tag_10\n          jump\t// in\n        tag_9:\n          swap1\n          0x00\n          mstore\n          keccak256(0x00, 0x20)\n          swap1\n          0x1f\n          add\n          0x20\n          swap1\n          div\n          dup2\n          add\n          swap3\n          dup3\n          tag_12\n          jumpi\n          0x00\n          dup6\n          sstore\n          jump(tag_11)\n        tag_12:\n          dup3\n          0x1f\n          lt\n          tag_13\n          jumpi\n          dup1\n          mload\n          not(0xff)\n          and\n          dup4\n          dup1\n          add\n          or\n          dup6\n          sstore\n          jump(tag_11)\n        tag_13:\n          dup3\n          dup1\n          add\n          0x01\n          add\n          dup6\n          sstore\n          dup3\n          iszero\n          tag_11\n          jumpi\n          swap2\n          dup3\n          add\n        tag_14:\n          dup3\n          dup2\n          gt\n          iszero\n          tag_15\n          jumpi\n          dup3\n          mload\n          dup3\n          sstore\n          swap2\n          0x20\n          add\n          swap2\n          swap1\n          0x01\n          add\n          swap1\n          jump(tag_14)\n        tag_15:\n        tag_11:\n          pop\n          swap1\n          pop\n          tag_16\n          swap2\n          swap1\n          tag_17\n          jump\t// in\n        tag_16:\n          pop\n          swap1\n          jump\t// out\n        tag_17:\n        tag_18:\n          dup1\n          dup3\n          gt\n          iszero\n          tag_19\n          jumpi\n          0x00\n          dup2\n          0x00\n          swap1\n          sstore\n          pop\n          0x01\n          add\n          jump(tag_18)\n        tag_19:\n          pop\n          swap1\n          jump\t// out\n            /* \"#utility.yul\":7:428   */\n        tag_21:\n            /* \"#utility.yul\":96:101   */\n          0x00\n            /* \"#utility.yul\":121:187   */\n          tag_23\n            /* \"#utility.yul\":137:186   */\n          tag_24\n            /* \"#utility.yul\":179:185   */\n          dup5\n            /* \"#utility.yul\":137:186   */\n          tag_25\n          jump\t// in\n        tag_24:\n            /* \"#utility.yul\":121:187   */\n          tag_26\n          jump\t// in\n        tag_23:\n            /* \"#utility.yul\":112:187   */\n          swap1\n          pop\n            /* \"#utility.yul\":210:216   */\n          dup3\n            /* \"#utility.yul\":203:208   */\n          dup2\n            /* \"#utility.yul\":196:217   */\n          mstore\n            /* \"#utility.yul\":248:252   */\n          0x20\n            /* \"#utility.yul\":241:246   */\n          dup2\n            /* \"#utility.yul\":237:253   */\n          add\n            /* \"#utility.yul\":286:289   */\n          dup5\n            /* \"#utility.yul\":277:283   */\n          dup5\n            /* \"#utility.yul\":272:275   */\n          dup5\n            /* \"#utility.yul\":268:284   */\n          add\n            /* \"#utility.yul\":265:290   */\n          gt\n            /* \"#utility.yul\":262:374   */\n          iszero\n          tag_27\n          jumpi\n            /* \"#utility.yul\":293:372   */\n          tag_28\n          tag_29\n          jump\t// in\n        tag_28:\n            /* \"#utility.yul\":262:374   */\n        tag_27:\n            /* \"#utility.yul\":383:422   */\n          tag_30\n            /* \"#utility.yul\":415:421   */\n          dup5\n            /* \"#utility.yul\":410:413   */\n          dup3\n            /* \"#utility.yul\":405:408   */\n          dup6\n            /* \"#utility.yul\":383:422   */\n          tag_31\n          jump\t// in\n        tag_30:\n            /* \"#utility.yul\":102:428   */\n          pop\n            /* \"#utility.yul\":7:428   */\n          swap4\n          swap3\n          pop\n          pop\n          pop\n          jump\t// out\n            /* \"#utility.yul\":434:577   */\n        tag_32:\n            /* \"#utility.yul\":491:496   */\n          0x00\n            /* \"#utility.yul\":522:528   */\n          dup2\n            /* \"#utility.yul\":516:529   */\n          mload\n            /* \"#utility.yul\":507:529   */\n          swap1\n          pop\n            /* \"#utility.yul\":538:571   */\n          tag_34\n            /* \"#utility.yul\":565:570   */\n          dup2\n            /* \"#utility.yul\":538:571   */\n          tag_35\n          jump\t// in\n        tag_34:\n            /* \"#utility.yul\":434:577   */\n          swap3\n          swap2\n          pop\n          pop\n          jump\t// out\n            /* \"#utility.yul\":597:952   */\n        tag_36:\n            /* \"#utility.yul\":664:669   */\n          0x00\n            /* \"#utility.yul\":713:716   */\n          dup3\n            /* \"#utility.yul\":706:710   */\n          0x1f\n            /* \"#utility.yul\":698:704   */\n          dup4\n            /* \"#utility.yul\":694:711   */\n          add\n            /* \"#utility.yul\":690:717   */\n          slt\n            /* \"#utility.yul\":680:802   */\n          tag_38\n          jumpi\n            /* \"#utility.yul\":721:800   */\n          tag_39\n          tag_40\n          jump\t// in\n        tag_39:\n            /* \"#utility.yul\":680:802   */\n        tag_38:\n            /* \"#utility.yul\":831:837   */\n          dup2\n            /* \"#utility.yul\":825:838   */\n          mload\n            /* \"#utility.yul\":856:946   */\n          tag_41\n            /* \"#utility.yul\":942:945   */\n          dup5\n            /* \"#utility.yul\":934:940   */\n          dup3\n            /* \"#utility.yul\":927:931   */\n          0x20\n            /* \"#utility.yul\":919:925   */\n          dup7\n            /* \"#utility.yul\":915:932   */\n          add\n            /* \"#utility.yul\":856:946   */\n          tag_21\n          jump\t// in\n        tag_41:\n            /* \"#utility.yul\":847:946   */\n          swap2\n          pop\n            /* \"#utility.yul\":670:952   */\n          pop\n            /* \"#utility.yul\":597:952   */\n          swap3\n          swap2\n          pop\n          pop\n          jump\t// out\n            /* \"#utility.yul\":958:1638   */\n        tag_3:\n            /* \"#utility.yul\":1047:1053   */\n          0x00\n            /* \"#utility.yul\":1055:1061   */\n          dup1\n            /* \"#utility.yul\":1104:1106   */\n          0x40\n            /* \"#utility.yul\":1092:1101   */\n          dup4\n            /* \"#utility.yul\":1083:1090   */\n          dup6\n            /* \"#utility.yul\":1079:1102   */\n          sub\n            /* \"#utility.yul\":1075:1107   */\n          slt\n            /* \"#utility.yul\":1072:1191   */\n          iszero\n          tag_43\n          jumpi\n            /* \"#utility.yul\":1110:1189   */\n          tag_44\n          tag_45\n          jump\t// in\n        tag_44:\n            /* \"#utility.yul\":1072:1191   */\n        tag_43:\n            /* \"#utility.yul\":1251:1252   */\n          0x00\n            /* \"#utility.yul\":1240:1249   */\n          dup4\n            /* \"#utility.yul\":1236:1253   */\n          add\n            /* \"#utility.yul\":1230:1254   */\n          mload\n            /* \"#utility.yul\":1281:1299   */\n          0xffffffffffffffff\n            /* \"#utility.yul\":1273:1279   */\n          dup2\n            /* \"#utility.yul\":1270:1300   */\n          gt\n            /* \"#utility.yul\":1267:1384   */\n          iszero\n          tag_46\n          jumpi\n            /* \"#utility.yul\":1303:1382   */\n          tag_47\n          tag_48\n          jump\t// in\n        tag_47:\n            /* \"#utility.yul\":1267:1384   */\n        tag_46:\n            /* \"#utility.yul\":1408:1482   */\n          tag_49\n            /* \"#utility.yul\":1474:1481   */\n          dup6\n            /* \"#utility.yul\":1465:1471   */\n          dup3\n            /* \"#utility.yul\":1454:1463   */\n          dup7\n            /* \"#utility.yul\":1450:1472   */\n          add\n            /* \"#utility.yul\":1408:1482   */\n          tag_36\n          jump\t// in\n        tag_49:\n            /* \"#utility.yul\":1398:1482   */\n          swap3\n          pop\n            /* \"#utility.yul\":1201:1492   */\n          pop\n            /* \"#utility.yul\":1531:1533   */\n          0x20\n            /* \"#utility.yul\":1557:1621   */\n          tag_50\n            /* \"#utility.yul\":1613:1620   */\n          dup6\n            /* \"#utility.yul\":1604:1610   */\n          dup3\n            /* \"#utility.yul\":1593:1602   */\n          dup7\n            /* \"#utility.yul\":1589:1611   */\n          add\n            /* \"#utility.yul\":1557:1621   */\n          tag_32\n          jump\t// in\n        tag_50:\n            /* \"#utility.yul\":1547:1621   */\n          swap2\n          pop\n            /* \"#utility.yul\":1502:1631   */\n          pop\n            /* \"#utility.yul\":958:1638   */\n          swap3\n          pop\n          swap3\n          swap1\n          pop\n          jump\t// out\n            /* \"#utility.yul\":1644:1773   */\n        tag_26:\n            /* \"#utility.yul\":1678:1684   */\n          0x00\n            /* \"#utility.yul\":1705:1725   */\n          tag_52\n          tag_53\n          jump\t// in\n        tag_52:\n            /* \"#utility.yul\":1695:1725   */\n          swap1\n          pop\n            /* \"#utility.yul\":1734:1767   */\n          tag_54\n            /* \"#utility.yul\":1762:1766   */\n          dup3\n            /* \"#utility.yul\":1754:1760   */\n          dup3\n            /* \"#utility.yul\":1734:1767   */\n          tag_55\n          jump\t// in\n        tag_54:\n            /* \"#utility.yul\":1644:1773   */\n          swap2\n          swap1\n          pop\n          jump\t// out\n            /* \"#utility.yul\":1779:1854   */\n        tag_53:\n            /* \"#utility.yul\":1812:1818   */\n          0x00\n            /* \"#utility.yul\":1845:1847   */\n          0x40\n            /* \"#utility.yul\":1839:1848   */\n          mload\n            /* \"#utility.yul\":1829:1848   */\n          swap1\n          pop\n            /* \"#utility.yul\":1779:1854   */\n          swap1\n          jump\t// out\n            /* \"#utility.yul\":1860:2168   */\n        tag_25:\n            /* \"#utility.yul\":1922:1926   */\n          0x00\n            /* \"#utility.yul\":2012:2030   */\n          0xffffffffffffffff\n            /* \"#utility.yul\":2004:2010   */\n          dup3\n            /* \"#utility.yul\":2001:2031   */\n          gt\n            /* \"#utility.yul\":1998:2054   */\n          iszero\n          tag_58\n          jumpi\n            /* \"#utility.yul\":2034:2052   */\n          tag_59\n          tag_60\n          jump\t// in\n        tag_59:\n            /* \"#utility.yul\":1998:2054   */\n        tag_58:\n            /* \"#utility.yul\":2072:2101   */\n          tag_61\n            /* \"#utility.yul\":2094:2100   */\n          dup3\n            /* \"#utility.yul\":2072:2101   */\n          tag_62\n          jump\t// in\n        tag_61:\n            /* \"#utility.yul\":2064:2101   */\n          swap1\n          pop\n            /* \"#utility.yul\":2156:2160   */\n          0x20\n            /* \"#utility.yul\":2150:2154   */\n          dup2\n            /* \"#utility.yul\":2146:2161   */\n          add\n            /* \"#utility.yul\":2138:2161   */\n          swap1\n          pop\n            /* \"#utility.yul\":1860:2168   */\n          swap2\n          swap1\n          pop\n          jump\t// out\n            /* \"#utility.yul\":2174:2270   */\n        tag_63:\n            /* \"#utility.yul\":2211:2218   */\n          0x00\n            /* \"#utility.yul\":2240:2264   */\n          tag_65\n            /* \"#utility.yul\":2258:2263   */\n          dup3\n            /* \"#utility.yul\":2240:2264   */\n          tag_66\n          jump\t// in\n        tag_65:\n            /* \"#utility.yul\":2229:2264   */\n          swap1\n          pop\n            /* \"#utility.yul\":2174:2270   */\n          swap2\n          swap1\n          pop\n          jump\t// out\n            /* \"#utility.yul\":2276:2402   */\n        tag_66:\n            /* \"#utility.yul\":2313:2320   */\n          0x00\n            /* \"#utility.yul\":2353:2395   */\n          0xffffffffffffffffffffffffffffffffffffffff\n            /* \"#utility.yul\":2346:2351   */\n          dup3\n            /* \"#utility.yul\":2342:2396   */\n          and\n            /* \"#utility.yul\":2331:2396   */\n          swap1\n          pop\n            /* \"#utility.yul\":2276:2402   */\n          swap2\n          swap1\n          pop\n          jump\t// out\n            /* \"#utility.yul\":2408:2715   */\n        tag_31:\n            /* \"#utility.yul\":2476:2477   */\n          0x00\n            /* \"#utility.yul\":2486:2599   */\n        tag_69:\n            /* \"#utility.yul\":2500:2506   */\n          dup4\n            /* \"#utility.yul\":2497:2498   */\n          dup2\n            /* \"#utility.yul\":2494:2507   */\n          lt\n            /* \"#utility.yul\":2486:2599   */\n          iszero\n          tag_71\n          jumpi\n            /* \"#utility.yul\":2585:2586   */\n          dup1\n            /* \"#utility.yul\":2580:2583   */\n          dup3\n            /* \"#utility.yul\":2576:2587   */\n          add\n            /* \"#utility.yul\":2570:2588   */\n          mload\n            /* \"#utility.yul\":2566:2567   */\n          dup2\n            /* \"#utility.yul\":2561:2564   */\n          dup5\n            /* \"#utility.yul\":2557:2568   */\n          add\n            /* \"#utility.yul\":2550:2589   */\n          mstore\n            /* \"#utility.yul\":2522:2524   */\n          0x20\n            /* \"#utility.yul\":2519:2520   */\n          dup2\n            /* \"#utility.yul\":2515:2525   */\n          add\n            /* \"#utility.yul\":2510:2525   */\n          swap1\n          pop\n            /* \"#utility.yul\":2486:2599   */\n          jump(tag_69)\n        tag_71:\n            /* \"#utility.yul\":2617:2623   */\n          dup4\n            /* \"#utility.yul\":2614:2615   */\n          dup2\n            /* \"#utility.yul\":2611:2624   */\n          gt\n            /* \"#utility.yul\":2608:2709   */\n          iszero\n          tag_72\n          jumpi\n            /* \"#utility.yul\":2697:2698   */\n          0x00\n            /* \"#utility.yul\":2688:2694   */\n          dup5\n            /* \"#utility.yul\":2683:2686   */\n          dup5\n            /* \"#utility.yul\":2679:2695   */\n          add\n            /* \"#utility.yul\":2672:2699   */\n          mstore\n            /* \"#utility.yul\":2608:2709   */\n        tag_72:\n            /* \"#utility.yul\":2457:2715   */\n          pop\n            /* \"#utility.yul\":2408:2715   */\n          pop\n          pop\n          pop\n          jump\t// out\n            /* \"#utility.yul\":2721:3041   */\n        tag_10:\n            /* \"#utility.yul\":2765:2771   */\n          0x00\n            /* \"#utility.yul\":2802:2803   */\n          0x02\n            /* \"#utility.yul\":2796:2800   */\n          dup3\n            /* \"#utility.yul\":2792:2804   */\n          div\n            /* \"#utility.yul\":2782:2804   */\n          swap1\n          pop\n            /* \"#utility.yul\":2849:2850   */\n          0x01\n            /* \"#utility.yul\":2843:2847   */\n          dup3\n            /* \"#utility.yul\":2839:2851   */\n          and\n            /* \"#utility.yul\":2870:2888   */\n          dup1\n            /* \"#utility.yul\":2860:2941   */\n          tag_74\n          jumpi\n            /* \"#utility.yul\":2926:2930   */\n          0x7f\n            /* \"#utility.yul\":2918:2924   */\n          dup3\n            /* \"#utility.yul\":2914:2931   */\n          and\n            /* \"#utility.yul\":2904:2931   */\n          swap2\n          pop\n            /* \"#utility.yul\":2860:2941   */\n        tag_74:\n            /* \"#utility.yul\":2988:2990   */\n          0x20\n            /* \"#utility.yul\":2980:2986   */\n          dup3\n            /* \"#utility.yul\":2977:2991   */\n          lt\n            /* \"#utility.yul\":2957:2975   */\n          dup2\n            /* \"#utility.yul\":2954:2992   */\n          eq\n            /* \"#utility.yul\":2951:3035   */\n          iszero\n          tag_75\n          jumpi\n            /* \"#utility.yul\":3007:3025   */\n          tag_76\n          tag_77\n          jump\t// in\n        tag_76:\n            /* \"#utility.yul\":2951:3035   */\n        tag_75:\n            /* \"#utility.yul\":2772:3041   */\n          pop\n            /* \"#utility.yul\":2721:3041   */\n          swap2\n          swap1\n          pop\n          jump\t// out\n            /* \"#utility.yul\":3047:3328   */\n        tag_55:\n            /* \"#utility.yul\":3130:3157   */\n          tag_79\n            /* \"#utility.yul\":3152:3156   */\n          dup3\n            /* \"#utility.yul\":3130:3157   */\n          tag_62\n          jump\t// in\n        tag_79:\n            /* \"#utility.yul\":3122:3128   */\n          dup2\n            /* \"#utility.yul\":3118:3158   */\n          add\n            /* \"#utility.yul\":3260:3266   */\n          dup2\n            /* \"#utility.yul\":3248:3258   */\n          dup2\n            /* \"#utility.yul\":3245:3267   */\n          lt\n            /* \"#utility.yul\":3224:3242   */\n          0xffffffffffffffff\n            /* \"#utility.yul\":3212:3222   */\n          dup3\n            /* \"#utility.yul\":3209:3243   */\n          gt\n            /* \"#utility.yul\":3206:3268   */\n          or\n            /* \"#utility.yul\":3203:3291   */\n          iszero\n          tag_80\n          jumpi\n            /* \"#utility.yul\":3271:3289   */\n          tag_81\n          tag_60\n          jump\t// in\n        tag_81:\n            /* \"#utility.yul\":3203:3291   */\n        tag_80:\n            /* \"#utility.yul\":3311:3321   */\n          dup1\n            /* \"#utility.yul\":3307:3309   */\n          0x40\n            /* \"#utility.yul\":3300:3322   */\n          mstore\n            /* \"#utility.yul\":3090:3328   */\n          pop\n            /* \"#utility.yul\":3047:3328   */\n          pop\n          pop\n          jump\t// out\n            /* \"#utility.yul\":3334:3514   */\n        tag_77:\n            /* \"#utility.yul\":3382:3459   */\n          0x4e487b7100000000000000000000000000000000000000000000000000000000\n            /* \"#utility.yul\":3379:3380   */\n          0x00\n            /* \"#utility.yul\":3372:3460   */\n          mstore\n            /* \"#utility.yul\":3479:3483   */\n          0x22\n            /* \"#utility.yul\":3476:3477   */\n          0x04\n            /* \"#utility.yul\":3469:3484   */\n          mstore\n            /* \"#utility.yul\":3503:3507   */\n          0x24\n            /* \"#utility.yul\":3500:3501   */\n          0x00\n            /* \"#utility.yul\":3493:3508   */\n          revert\n            /* \"#utility.yul\":3520:3700   */\n        tag_60:\n            /* \"#utility.yul\":3568:3645   */\n          0x4e487b7100000000000000000000000000000000000000000000000000000000\n            /* \"#utility.yul\":3565:3566   */\n          0x00\n            /* \"#utility.yul\":3558:3646   */\n          mstore\n            /* \"#utility.yul\":3665:3669   */\n          0x41\n            /* \"#utility.yul\":3662:3663   */\n          0x04\n            /* \"#utility.yul\":3655:3670   */\n          mstore\n            /* \"#utility.yul\":3689:3693   */\n          0x24\n            /* \"#utility.yul\":3686:3687   */\n          0x00\n            /* \"#utility.yul\":3679:3694   */\n          revert\n            /* \"#utility.yul\":3706:3823   */\n        tag_40:\n            /* \"#utility.yul\":3815:3816   */\n          0x00\n            /* \"#utility.yul\":3812:3813   */\n          dup1\n            /* \"#utility.yul\":3805:3817   */\n          revert\n            /* \"#utility.yul\":3829:3946   */\n        tag_29:\n            /* \"#utility.yul\":3938:3939   */\n          0x00\n            /* \"#utility.yul\":3935:3936   */\n          dup1\n            /* \"#utility.yul\":3928:3940   */\n          revert\n            /* \"#utility.yul\":3952:4069   */\n        tag_48:\n            /* \"#utility.yul\":4061:4062   */\n          0x00\n            /* \"#utility.yul\":4058:4059   */\n          dup1\n            /* \"#utility.yul\":4051:4063   */\n          revert\n            /* \"#utility.yul\":4075:4192   */\n        tag_45:\n            /* \"#utility.yul\":4184:4185   */\n          0x00\n            /* \"#utility.yul\":4181:4182   */\n          dup1\n            /* \"#utility.yul\":4174:4186   */\n          revert\n            /* \"#utility.yul\":4198:4300   */\n        tag_62:\n            /* \"#utility.yul\":4239:4245   */\n          0x00\n            /* \"#utility.yul\":4290:4292   */\n          0x1f\n            /* \"#utility.yul\":4286:4293   */\n          not\n            /* \"#utility.yul\":4281:4283   */\n          0x1f\n            /* \"#utility.yul\":4274:4279   */\n          dup4\n            /* \"#utility.yul\":4270:4284   */\n          add\n            /* \"#utility.yul\":4266:4294   */\n          and\n            /* \"#utility.yul\":4256:4294   */\n          swap1\n          pop\n            /* \"#utility.yul\":4198:4300   */\n          swap2\n          swap1\n          pop\n          jump\t// out\n            /* \"#utility.yul\":4306:4428   */\n        tag_35:\n            /* \"#utility.yul\":4379:4403   */\n          tag_90\n            /* \"#utility.yul\":4397:4402   */\n          dup2\n            /* \"#utility.yul\":4379:4403   */\n          tag_63\n          jump\t// in\n        tag_90:\n            /* \"#utility.yul\":4372:4377   */\n          dup2\n            /* \"#utility.yul\":4369:4404   */\n          eq\n            /* \"#utility.yul\":4359:4422   */\n          tag_91\n          jumpi\n            /* \"#utility.yul\":4418:4419   */\n          0x00\n            /* \"#utility.yul\":4415:4416   */\n          dup1\n            /* \"#utility.yul\":4408:4420   */\n          revert\n            /* \"#utility.yul\":4359:4422   */\n        tag_91:\n            /* \"#utility.yul\":4306:4428   */\n          pop\n          jump\t// out\n            /* \"smartContract/contracts/NewVote.sol\":64:2890  contract Union{... */\n        tag_8:\n          dataSize(sub_0)\n          dup1\n          dataOffset(sub_0)\n          0x00\n          codecopy\n          0x00\n          return\n        stop\n\n        sub_0: assembly {\n                /* \"smartContract/contracts/NewVote.sol\":64:2890  contract Union{... */\n              mstore(0x40, 0x80)\n              jumpi(tag_1, lt(calldatasize, 0x04))\n              shr(0xe0, calldataload(0x00))\n              dup1\n              0x2e4176cf\n              eq\n              tag_2\n              jumpi\n              dup1\n              0x302a2a46\n              eq\n              tag_3\n              jumpi\n              dup1\n              0x43ef7e85\n              eq\n              tag_4\n              jumpi\n              dup1\n              0x4f5cbc1a\n              eq\n              tag_5\n              jumpi\n              dup1\n              0x64b9fb89\n              eq\n              tag_6\n              jumpi\n              dup1\n              0xe8d5940d\n              eq\n              tag_7\n              jumpi\n            tag_1:\n              0x00\n              dup1\n              revert\n                /* \"smartContract/contracts/NewVote.sol\":482:508  address public chairperson */\n            tag_2:\n              callvalue\n              dup1\n              iszero\n              tag_8\n              jumpi\n              0x00\n              dup1\n              revert\n            tag_8:\n              pop\n              tag_9\n              tag_10\n              jump\t// in\n            tag_9:\n              mload(0x40)\n              tag_11\n              swap2\n              swap1\n              tag_12\n              jump\t// in\n            tag_11:\n              mload(0x40)\n              dup1\n              swap2\n              sub\n              swap1\n              return\n                /* \"smartContract/contracts/NewVote.sol\":604:635  Suggestion[] public suggestions */\n            tag_3:\n              callvalue\n              dup1\n              iszero\n              tag_13\n              jumpi\n              0x00\n              dup1\n              revert\n            tag_13:\n              pop\n              tag_14\n              0x04\n              dup1\n              calldatasize\n              sub\n              dup2\n              add\n              swap1\n              tag_15\n              swap2\n              swap1\n              tag_16\n              jump\t// in\n            tag_15:\n              tag_17\n              jump\t// in\n            tag_14:\n              mload(0x40)\n              tag_18\n              swap4\n              swap3\n              swap2\n              swap1\n              tag_19\n              jump\t// in\n            tag_18:\n              mload(0x40)\n              dup1\n              swap2\n              sub\n              swap1\n              return\n                /* \"smartContract/contracts/NewVote.sol\":1126:1509  function createOneSuggestion(string memory _subject)external returns (Suggestion memory) {... */\n            tag_4:\n              callvalue\n              dup1\n              iszero\n              tag_20\n              jumpi\n              0x00\n              dup1\n              revert\n            tag_20:\n              pop\n              tag_21\n              0x04\n              dup1\n              calldatasize\n              sub\n              dup2\n              add\n              swap1\n              tag_22\n              swap2\n              swap1\n              tag_23\n              jump\t// in\n            tag_22:\n              tag_24\n              jump\t// in\n            tag_21:\n              mload(0x40)\n              tag_25\n              swap2\n              swap1\n              tag_26\n              jump\t// in\n            tag_25:\n              mload(0x40)\n              dup1\n              swap2\n              sub\n              swap1\n              return\n                /* \"smartContract/contracts/NewVote.sol\":510:533  string public unionName */\n            tag_5:\n              callvalue\n              dup1\n              iszero\n              tag_27\n              jumpi\n              0x00\n              dup1\n              revert\n            tag_27:\n              pop\n              tag_28\n              tag_29\n              jump\t// in\n            tag_28:\n              mload(0x40)\n              tag_30\n              swap2\n              swap1\n              tag_31\n              jump\t// in\n            tag_30:\n              mload(0x40)\n              dup1\n              swap2\n              sub\n              swap1\n              return\n                /* \"smartContract/contracts/NewVote.sol\":535:559  uint public suggestionNo */\n            tag_6:\n              callvalue\n              dup1\n              iszero\n              tag_32\n              jumpi\n              0x00\n              dup1\n              revert\n            tag_32:\n              pop\n              tag_33\n              tag_34\n              jump\t// in\n            tag_33:\n              mload(0x40)\n              tag_35\n              swap2\n              swap1\n              tag_36\n              jump\t// in\n            tag_35:\n              mload(0x40)\n              dup1\n              swap2\n              sub\n              swap1\n              return\n                /* \"smartContract/contracts/NewVote.sol\":2120:2887  function vote (string memory _subject, string memory _answer) public payable validVoter(_subject,msg.sender)returns(Suggestion memory) {... */\n            tag_7:\n              tag_37\n              0x04\n              dup1\n              calldatasize\n              sub\n              dup2\n              add\n              swap1\n              tag_38\n              swap2\n              swap1\n              tag_39\n              jump\t// in\n            tag_38:\n              tag_40\n              jump\t// in\n            tag_37:\n              mload(0x40)\n              tag_41\n              swap2\n              swap1\n              tag_26\n              jump\t// in\n            tag_41:\n              mload(0x40)\n              dup1\n              swap2\n              sub\n              swap1\n              return\n                /* \"smartContract/contracts/NewVote.sol\":482:508  address public chairperson */\n            tag_10:\n              0x00\n              dup1\n              sload\n              swap1\n              0x0100\n              exp\n              swap1\n              div\n              0xffffffffffffffffffffffffffffffffffffffff\n              and\n              dup2\n              jump\t// out\n                /* \"smartContract/contracts/NewVote.sol\":604:635  Suggestion[] public suggestions */\n            tag_17:\n              0x04\n              dup2\n              dup2\n              sload\n              dup2\n              lt\n              tag_42\n              jumpi\n              0x00\n              dup1\n              revert\n            tag_42:\n              swap1\n              0x00\n              mstore\n              keccak256(0x00, 0x20)\n              swap1\n              0x04\n              mul\n              add\n              0x00\n              swap2\n              pop\n              swap1\n              pop\n              dup1\n              0x00\n              add\n              dup1\n              sload\n              tag_44\n              swap1\n              tag_45\n              jump\t// in\n            tag_44:\n              dup1\n              0x1f\n              add\n              0x20\n              dup1\n              swap2\n              div\n              mul\n              0x20\n              add\n              mload(0x40)\n              swap1\n              dup2\n              add\n              0x40\n              mstore\n              dup1\n              swap3\n              swap2\n              swap1\n              dup2\n              dup2\n              mstore\n              0x20\n              add\n              dup3\n              dup1\n              sload\n              tag_46\n              swap1\n              tag_45\n              jump\t// in\n            tag_46:\n              dup1\n              iszero\n              tag_47\n              jumpi\n              dup1\n              0x1f\n              lt\n              tag_48\n              jumpi\n              0x0100\n              dup1\n              dup4\n              sload\n              div\n              mul\n              dup4\n              mstore\n              swap2\n              0x20\n              add\n              swap2\n              jump(tag_47)\n            tag_48:\n              dup3\n              add\n              swap2\n              swap1\n              0x00\n              mstore\n              keccak256(0x00, 0x20)\n              swap1\n            tag_49:\n              dup2\n              sload\n              dup2\n              mstore\n              swap1\n              0x01\n              add\n              swap1\n              0x20\n              add\n              dup1\n              dup4\n              gt\n              tag_49\n              jumpi\n              dup3\n              swap1\n              sub\n              0x1f\n              and\n              dup3\n              add\n              swap2\n            tag_47:\n              pop\n              pop\n              pop\n              pop\n              pop\n              swap1\n              dup1\n              0x01\n              add\n              sload\n              swap1\n              dup1\n              0x03\n              add\n              0x00\n              swap1\n              sload\n              swap1\n              0x0100\n              exp\n              swap1\n              div\n              0xff\n              and\n              swap1\n              pop\n              dup4\n              jump\t// out\n                /* \"smartContract/contracts/NewVote.sol\":1126:1509  function createOneSuggestion(string memory _subject)external returns (Suggestion memory) {... */\n            tag_24:\n                /* \"smartContract/contracts/NewVote.sol\":1196:1213  Suggestion memory */\n              tag_50\n              tag_51\n              jump\t// in\n            tag_50:\n                /* \"smartContract/contracts/NewVote.sol\":1222:1251  Suggestion storage suggestion */\n              0x00\n                /* \"smartContract/contracts/NewVote.sol\":1254:1265  suggestions */\n              0x04\n                /* \"smartContract/contracts/NewVote.sol\":1254:1272  suggestions.push() */\n              0x01\n              dup2\n              0x01\n              dup2\n              sload\n              add\n              dup1\n              dup3\n              sstore\n              dup1\n              swap2\n              pop\n              pop\n              sub\n              swap1\n              0x00\n              mstore\n              keccak256(0x00, 0x20)\n              swap1\n              0x04\n              mul\n              add\n                /* \"smartContract/contracts/NewVote.sol\":1222:1272  Suggestion storage suggestion = suggestions.push() */\n              swap1\n              pop\n                /* \"smartContract/contracts/NewVote.sol\":1300:1308  _subject */\n              dup3\n                /* \"smartContract/contracts/NewVote.sol\":1279:1289  suggestion */\n              dup2\n                /* \"smartContract/contracts/NewVote.sol\":1279:1297  suggestion.subject */\n              0x00\n              add\n                /* \"smartContract/contracts/NewVote.sol\":1279:1308  suggestion.subject = _subject */\n              swap1\n              dup1\n              mload\n              swap1\n              0x20\n              add\n              swap1\n              tag_54\n              swap3\n              swap2\n              swap1\n              tag_55\n              jump\t// in\n            tag_54:\n              pop\n                /* \"smartContract/contracts/NewVote.sol\":1341:1353  suggestionNo */\n              sload(0x02)\n                /* \"smartContract/contracts/NewVote.sol\":1315:1325  suggestion */\n              dup2\n                /* \"smartContract/contracts/NewVote.sol\":1315:1338  suggestion.suggestionNo */\n              0x01\n              add\n                /* \"smartContract/contracts/NewVote.sol\":1315:1353  suggestion.suggestionNo = suggestionNo */\n              dup2\n              swap1\n              sstore\n              pop\n                /* \"smartContract/contracts/NewVote.sol\":1380:1384  true */\n              0x01\n                /* \"smartContract/contracts/NewVote.sol\":1360:1370  suggestion */\n              dup2\n                /* \"smartContract/contracts/NewVote.sol\":1360:1377  suggestion.status */\n              0x03\n              add\n              0x00\n                /* \"smartContract/contracts/NewVote.sol\":1360:1384  suggestion.status = true */\n              0x0100\n              exp\n              dup2\n              sload\n              dup2\n              0xff\n              mul\n              not\n              and\n              swap1\n              dup4\n              iszero\n              iszero\n              mul\n              or\n              swap1\n              sstore\n              pop\n                /* \"smartContract/contracts/NewVote.sol\":1449:1461  suggestionNo */\n              sload(0x02)\n                /* \"smartContract/contracts/NewVote.sol\":1420:1436  findSuggestionNo */\n              0x03\n                /* \"smartContract/contracts/NewVote.sol\":1437:1445  _subject */\n              dup5\n                /* \"smartContract/contracts/NewVote.sol\":1420:1446  findSuggestionNo[_subject] */\n              mload(0x40)\n              tag_56\n              swap2\n              swap1\n              tag_57\n              jump\t// in\n            tag_56:\n              swap1\n              dup2\n              mstore\n              0x20\n              add\n              mload(0x40)\n              dup1\n              swap2\n              sub\n              swap1\n              keccak256\n                /* \"smartContract/contracts/NewVote.sol\":1420:1461  findSuggestionNo[_subject] = suggestionNo */\n              dup2\n              swap1\n              sstore\n              pop\n                /* \"smartContract/contracts/NewVote.sol\":1468:1480  suggestionNo */\n              0x02\n              0x00\n                /* \"smartContract/contracts/NewVote.sol\":1468:1482  suggestionNo++ */\n              dup2\n              sload\n              dup1\n              swap3\n              swap2\n              swap1\n              tag_58\n              swap1\n              tag_59\n              jump\t// in\n            tag_58:\n              swap2\n              swap1\n              pop\n              sstore\n              pop\n                /* \"smartContract/contracts/NewVote.sol\":1496:1506  suggestion */\n              dup1\n                /* \"smartContract/contracts/NewVote.sol\":1489:1506  return suggestion */\n              mload(0x40)\n              dup1\n              0x80\n              add\n              0x40\n              mstore\n              swap1\n              dup2\n              0x00\n              dup3\n              add\n              dup1\n              sload\n              tag_60\n              swap1\n              tag_45\n              jump\t// in\n            tag_60:\n              dup1\n              0x1f\n              add\n              0x20\n              dup1\n              swap2\n              div\n              mul\n              0x20\n              add\n              mload(0x40)\n              swap1\n              dup2\n              add\n              0x40\n              mstore\n              dup1\n              swap3\n              swap2\n              swap1\n              dup2\n              dup2\n              mstore\n              0x20\n              add\n              dup3\n              dup1\n              sload\n              tag_61\n              swap1\n              tag_45\n              jump\t// in\n            tag_61:\n              dup1\n              iszero\n              tag_62\n              jumpi\n              dup1\n              0x1f\n              lt\n              tag_63\n              jumpi\n              0x0100\n              dup1\n              dup4\n              sload\n              div\n              mul\n              dup4\n              mstore\n              swap2\n              0x20\n              add\n              swap2\n              jump(tag_62)\n            tag_63:\n              dup3\n              add\n              swap2\n              swap1\n              0x00\n              mstore\n              keccak256(0x00, 0x20)\n              swap1\n            tag_64:\n              dup2\n              sload\n              dup2\n              mstore\n              swap1\n              0x01\n              add\n              swap1\n              0x20\n              add\n              dup1\n              dup4\n              gt\n              tag_64\n              jumpi\n              dup3\n              swap1\n              sub\n              0x1f\n              and\n              dup3\n              add\n              swap2\n            tag_62:\n              pop\n              pop\n              pop\n              pop\n              pop\n              dup2\n              mstore\n              0x20\n              add\n              0x01\n              dup3\n              add\n              sload\n              dup2\n              mstore\n              0x20\n              add\n              0x02\n              dup3\n              add\n              dup1\n              sload\n              dup1\n              0x20\n              mul\n              0x20\n              add\n              mload(0x40)\n              swap1\n              dup2\n              add\n              0x40\n              mstore\n              dup1\n              swap3\n              swap2\n              swap1\n              dup2\n              dup2\n              mstore\n              0x20\n              add\n              0x00\n              swap1\n            tag_65:\n              dup3\n              dup3\n              lt\n              iszero\n              tag_66\n              jumpi\n              dup4\n              dup3\n              swap1\n              0x00\n              mstore\n              keccak256(0x00, 0x20)\n              swap1\n              0x05\n              mul\n              add\n              mload(0x40)\n              dup1\n              0xa0\n              add\n              0x40\n              mstore\n              swap1\n              dup2\n              0x00\n              dup3\n              add\n              dup1\n              sload\n              tag_68\n              swap1\n              tag_45\n              jump\t// in\n            tag_68:\n              dup1\n              0x1f\n              add\n              0x20\n              dup1\n              swap2\n              div\n              mul\n              0x20\n              add\n              mload(0x40)\n              swap1\n              dup2\n              add\n              0x40\n              mstore\n              dup1\n              swap3\n              swap2\n              swap1\n              dup2\n              dup2\n              mstore\n              0x20\n              add\n              dup3\n              dup1\n              sload\n              tag_69\n              swap1\n              tag_45\n              jump\t// in\n            tag_69:\n              dup1\n              iszero\n              tag_70\n              jumpi\n              dup1\n              0x1f\n              lt\n              tag_71\n              jumpi\n              0x0100\n              dup1\n              dup4\n              sload\n              div\n              mul\n              dup4\n              mstore\n              swap2\n              0x20\n              add\n              swap2\n              jump(tag_70)\n            tag_71:\n              dup3\n              add\n              swap2\n              swap1\n              0x00\n              mstore\n              keccak256(0x00, 0x20)\n              swap1\n            tag_72:\n              dup2\n              sload\n              dup2\n              mstore\n              swap1\n              0x01\n              add\n              swap1\n              0x20\n              add\n              dup1\n              dup4\n              gt\n              tag_72\n              jumpi\n              dup3\n              swap1\n              sub\n              0x1f\n              and\n              dup3\n              add\n              swap2\n            tag_70:\n              pop\n              pop\n              pop\n              pop\n              pop\n              dup2\n              mstore\n              0x20\n              add\n              0x01\n              dup3\n              add\n              0x00\n              swap1\n              sload\n              swap1\n              0x0100\n              exp\n              swap1\n              div\n              0xffffffffffffffffffffffffffffffffffffffff\n              and\n              0xffffffffffffffffffffffffffffffffffffffff\n              and\n              0xffffffffffffffffffffffffffffffffffffffff\n              and\n              dup2\n              mstore\n              0x20\n              add\n              0x02\n              dup3\n              add\n              sload\n              dup2\n              mstore\n              0x20\n              add\n              0x03\n              dup3\n              add\n              0x00\n              swap1\n              sload\n              swap1\n              0x0100\n              exp\n              swap1\n              div\n              0xff\n              and\n              iszero\n              iszero\n              iszero\n              iszero\n              dup2\n              mstore\n              0x20\n              add\n              0x04\n              dup3\n              add\n              dup1\n              sload\n              tag_73\n              swap1\n              tag_45\n              jump\t// in\n            tag_73:\n              dup1\n              0x1f\n              add\n              0x20\n              dup1\n              swap2\n              div\n              mul\n              0x20\n              add\n              mload(0x40)\n              swap1\n              dup2\n              add\n              0x40\n              mstore\n              dup1\n              swap3\n              swap2\n              swap1\n              dup2\n              dup2\n              mstore\n              0x20\n              add\n              dup3\n              dup1\n              sload\n              tag_74\n              swap1\n              tag_45\n              jump\t// in\n            tag_74:\n              dup1\n              iszero\n              tag_75\n              jumpi\n              dup1\n              0x1f\n              lt\n              tag_76\n              jumpi\n              0x0100\n              dup1\n              dup4\n              sload\n              div\n              mul\n              dup4\n              mstore\n              swap2\n              0x20\n              add\n              swap2\n              jump(tag_75)\n            tag_76:\n              dup3\n              add\n              swap2\n              swap1\n              0x00\n              mstore\n              keccak256(0x00, 0x20)\n              swap1\n            tag_77:\n              dup2\n              sload\n              dup2\n              mstore\n              swap1\n              0x01\n              add\n              swap1\n              0x20\n              add\n              dup1\n              dup4\n              gt\n              tag_77\n              jumpi\n              dup3\n              swap1\n              sub\n              0x1f\n              and\n              dup3\n              add\n              swap2\n            tag_75:\n              pop\n              pop\n              pop\n              pop\n              pop\n              dup2\n              mstore\n              pop\n              pop\n              dup2\n              mstore\n              0x20\n              add\n              swap1\n              0x01\n              add\n              swap1\n              jump(tag_65)\n            tag_66:\n              pop\n              pop\n              pop\n              pop\n              dup2\n              mstore\n              0x20\n              add\n              0x03\n              dup3\n              add\n              0x00\n              swap1\n              sload\n              swap1\n              0x0100\n              exp\n              swap1\n              div\n              0xff\n              and\n              iszero\n              iszero\n              iszero\n              iszero\n              dup2\n              mstore\n              pop\n              pop\n              swap2\n              pop\n              pop\n                /* \"smartContract/contracts/NewVote.sol\":1126:1509  function createOneSuggestion(string memory _subject)external returns (Suggestion memory) {... */\n              swap2\n              swap1\n              pop\n              jump\t// out\n                /* \"smartContract/contracts/NewVote.sol\":510:533  string public unionName */\n            tag_29:\n              0x01\n              dup1\n              sload\n              tag_78\n              swap1\n              tag_45\n              jump\t// in\n            tag_78:\n              dup1\n              0x1f\n              add\n              0x20\n              dup1\n              swap2\n              div\n              mul\n              0x20\n              add\n              mload(0x40)\n              swap1\n              dup2\n              add\n              0x40\n              mstore\n              dup1\n              swap3\n              swap2\n              swap1\n              dup2\n              dup2\n              mstore\n              0x20\n              add\n              dup3\n              dup1\n              sload\n              tag_79\n              swap1\n              tag_45\n              jump\t// in\n            tag_79:\n              dup1\n              iszero\n              tag_80\n              jumpi\n              dup1\n              0x1f\n              lt\n              tag_81\n              jumpi\n              0x0100\n              dup1\n              dup4\n              sload\n              div\n              mul\n              dup4\n              mstore\n              swap2\n              0x20\n              add\n              swap2\n              jump(tag_80)\n            tag_81:\n              dup3\n              add\n              swap2\n              swap1\n              0x00\n              mstore\n              keccak256(0x00, 0x20)\n              swap1\n            tag_82:\n              dup2\n              sload\n              dup2\n              mstore\n              swap1\n              0x01\n              add\n              swap1\n              0x20\n              add\n              dup1\n              dup4\n              gt\n              tag_82\n              jumpi\n              dup3\n              swap1\n              sub\n              0x1f\n              and\n              dup3\n              add\n              swap2\n            tag_80:\n              pop\n              pop\n              pop\n              pop\n              pop\n              dup2\n              jump\t// out\n                /* \"smartContract/contracts/NewVote.sol\":535:559  uint public suggestionNo */\n            tag_34:\n              sload(0x02)\n              dup2\n              jump\t// out\n                /* \"smartContract/contracts/NewVote.sol\":2120:2887  function vote (string memory _subject, string memory _answer) public payable validVoter(_subject,msg.sender)returns(Suggestion memory) {... */\n            tag_40:\n                /* \"smartContract/contracts/NewVote.sol\":2236:2253  Suggestion memory */\n              tag_83\n              tag_51\n              jump\t// in\n            tag_83:\n                /* \"smartContract/contracts/NewVote.sol\":2208:2216  _subject */\n              dup3\n                /* \"smartContract/contracts/NewVote.sol\":2217:2227  msg.sender */\n              caller\n                /* \"smartContract/contracts/NewVote.sol\":1666:1701  Suggestion storage singleSuggestion */\n              0x00\n                /* \"smartContract/contracts/NewVote.sol\":1704:1715  suggestions */\n              0x04\n                /* \"smartContract/contracts/NewVote.sol\":1716:1732  findSuggestionNo */\n              0x03\n                /* \"smartContract/contracts/NewVote.sol\":1733:1741  _subject */\n              dup5\n                /* \"smartContract/contracts/NewVote.sol\":1716:1742  findSuggestionNo[_subject] */\n              mload(0x40)\n              tag_85\n              swap2\n              swap1\n              tag_57\n              jump\t// in\n            tag_85:\n              swap1\n              dup2\n              mstore\n              0x20\n              add\n              mload(0x40)\n              dup1\n              swap2\n              sub\n              swap1\n              keccak256\n              sload\n                /* \"smartContract/contracts/NewVote.sol\":1704:1743  suggestions[findSuggestionNo[_subject]] */\n              dup2\n              sload\n              dup2\n              lt\n              tag_86\n              jumpi\n              tag_87\n              tag_88\n              jump\t// in\n            tag_87:\n            tag_86:\n              swap1\n              0x00\n              mstore\n              keccak256(0x00, 0x20)\n              swap1\n              0x04\n              mul\n              add\n                /* \"smartContract/contracts/NewVote.sol\":1666:1743  Suggestion storage singleSuggestion = suggestions[findSuggestionNo[_subject]] */\n              swap1\n              pop\n                /* \"smartContract/contracts/NewVote.sol\":1758:1764  uint i */\n              0x00\n                /* \"smartContract/contracts/NewVote.sol\":1754:1998  for(uint i=0; i<singleSuggestion.unionMember.length; i++){... */\n            tag_90:\n                /* \"smartContract/contracts/NewVote.sol\":1770:1786  singleSuggestion */\n              dup2\n                /* \"smartContract/contracts/NewVote.sol\":1770:1798  singleSuggestion.unionMember */\n              0x02\n              add\n                /* \"smartContract/contracts/NewVote.sol\":1770:1805  singleSuggestion.unionMember.length */\n              dup1\n              sload\n              swap1\n              pop\n                /* \"smartContract/contracts/NewVote.sol\":1768:1769  i */\n              dup2\n                /* \"smartContract/contracts/NewVote.sol\":1768:1805  i<singleSuggestion.unionMember.length */\n              lt\n                /* \"smartContract/contracts/NewVote.sol\":1754:1998  for(uint i=0; i<singleSuggestion.unionMember.length; i++){... */\n              iszero\n              tag_91\n              jumpi\n                /* \"smartContract/contracts/NewVote.sol\":1869:1874  voter */\n              dup3\n                /* \"smartContract/contracts/NewVote.sol\":1829:1874  singleSuggestion.unionMember[i].addr == voter */\n              0xffffffffffffffffffffffffffffffffffffffff\n              and\n                /* \"smartContract/contracts/NewVote.sol\":1829:1845  singleSuggestion */\n              dup3\n                /* \"smartContract/contracts/NewVote.sol\":1829:1857  singleSuggestion.unionMember */\n              0x02\n              add\n                /* \"smartContract/contracts/NewVote.sol\":1858:1859  i */\n              dup3\n                /* \"smartContract/contracts/NewVote.sol\":1829:1860  singleSuggestion.unionMember[i] */\n              dup2\n              sload\n              dup2\n              lt\n              tag_93\n              jumpi\n              tag_94\n              tag_88\n              jump\t// in\n            tag_94:\n            tag_93:\n              swap1\n              0x00\n              mstore\n              keccak256(0x00, 0x20)\n              swap1\n              0x05\n              mul\n              add\n                /* \"smartContract/contracts/NewVote.sol\":1829:1865  singleSuggestion.unionMember[i].addr */\n              0x01\n              add\n              0x00\n              swap1\n              sload\n              swap1\n              0x0100\n              exp\n              swap1\n              div\n              0xffffffffffffffffffffffffffffffffffffffff\n              and\n                /* \"smartContract/contracts/NewVote.sol\":1829:1874  singleSuggestion.unionMember[i].addr == voter */\n              0xffffffffffffffffffffffffffffffffffffffff\n              and\n              eq\n                /* \"smartContract/contracts/NewVote.sol\":1826:1987  if(singleSuggestion.unionMember[i].addr == voter){... */\n              iszero\n              tag_96\n              jumpi\n                /* \"smartContract/contracts/NewVote.sol\":1941:1946  false */\n              0x00\n                /* \"smartContract/contracts/NewVote.sol\":1900:1946  singleSuggestion.unionMember[i].voted == false */\n              iszero\n              iszero\n                /* \"smartContract/contracts/NewVote.sol\":1900:1916  singleSuggestion */\n              dup3\n                /* \"smartContract/contracts/NewVote.sol\":1900:1928  singleSuggestion.unionMember */\n              0x02\n              add\n                /* \"smartContract/contracts/NewVote.sol\":1929:1930  i */\n              dup3\n                /* \"smartContract/contracts/NewVote.sol\":1900:1931  singleSuggestion.unionMember[i] */\n              dup2\n              sload\n              dup2\n              lt\n              tag_97\n              jumpi\n              tag_98\n              tag_88\n              jump\t// in\n            tag_98:\n            tag_97:\n              swap1\n              0x00\n              mstore\n              keccak256(0x00, 0x20)\n              swap1\n              0x05\n              mul\n              add\n                /* \"smartContract/contracts/NewVote.sol\":1900:1937  singleSuggestion.unionMember[i].voted */\n              0x03\n              add\n              0x00\n              swap1\n              sload\n              swap1\n              0x0100\n              exp\n              swap1\n              div\n              0xff\n              and\n                /* \"smartContract/contracts/NewVote.sol\":1900:1946  singleSuggestion.unionMember[i].voted == false */\n              iszero\n              iszero\n              eq\n                /* \"smartContract/contracts/NewVote.sol\":1892:1970  require(singleSuggestion.unionMember[i].voted == false, \"voter already voted\") */\n              tag_100\n              jumpi\n              mload(0x40)\n              0x08c379a000000000000000000000000000000000000000000000000000000000\n              dup2\n              mstore\n              0x04\n              add\n              tag_101\n              swap1\n              tag_102\n              jump\t// in\n            tag_101:\n              mload(0x40)\n              dup1\n              swap2\n              sub\n              swap1\n              revert\n            tag_100:\n                /* \"smartContract/contracts/NewVote.sol\":1826:1987  if(singleSuggestion.unionMember[i].addr == voter){... */\n            tag_96:\n                /* \"smartContract/contracts/NewVote.sol\":1807:1810  i++ */\n              dup1\n              dup1\n              tag_103\n              swap1\n              tag_59\n              jump\t// in\n            tag_103:\n              swap2\n              pop\n              pop\n                /* \"smartContract/contracts/NewVote.sol\":1754:1998  for(uint i=0; i<singleSuggestion.unionMember.length; i++){... */\n              jump(tag_90)\n            tag_91:\n              pop\n                /* \"smartContract/contracts/NewVote.sol\":2024:2035  chairperson */\n              0x00\n              dup1\n              sload\n              swap1\n              0x0100\n              exp\n              swap1\n              div\n              0xffffffffffffffffffffffffffffffffffffffff\n              and\n                /* \"smartContract/contracts/NewVote.sol\":2015:2035  voter != chairperson */\n              0xffffffffffffffffffffffffffffffffffffffff\n              and\n                /* \"smartContract/contracts/NewVote.sol\":2015:2020  voter */\n              dup3\n                /* \"smartContract/contracts/NewVote.sol\":2015:2035  voter != chairperson */\n              0xffffffffffffffffffffffffffffffffffffffff\n              and\n              eq\n              iszero\n                /* \"smartContract/contracts/NewVote.sol\":2007:2066  require(voter != chairperson, \"chairperson is not alrigth\") */\n              tag_104\n              jumpi\n              mload(0x40)\n              0x08c379a000000000000000000000000000000000000000000000000000000000\n              dup2\n              mstore\n              0x04\n              add\n              tag_105\n              swap1\n              tag_106\n              jump\t// in\n            tag_105:\n              mload(0x40)\n              dup1\n              swap2\n              sub\n              swap1\n              revert\n            tag_104:\n                /* \"smartContract/contracts/NewVote.sol\":2264:2299  Suggestion storage singleSuggestion */\n              0x00\n                /* \"smartContract/contracts/NewVote.sol\":2302:2313  suggestions */\n              0x04\n                /* \"smartContract/contracts/NewVote.sol\":2314:2330  findSuggestionNo */\n              0x03\n                /* \"smartContract/contracts/NewVote.sol\":2331:2339  _subject */\n              dup9\n                /* \"smartContract/contracts/NewVote.sol\":2314:2340  findSuggestionNo[_subject] */\n              mload(0x40)\n              tag_108\n              swap2\n              swap1\n              tag_57\n              jump\t// in\n            tag_108:\n              swap1\n              dup2\n              mstore\n              0x20\n              add\n              mload(0x40)\n              dup1\n              swap2\n              sub\n              swap1\n              keccak256\n              sload\n                /* \"smartContract/contracts/NewVote.sol\":2302:2341  suggestions[findSuggestionNo[_subject]] */\n              dup2\n              sload\n              dup2\n              lt\n              tag_109\n              jumpi\n              tag_110\n              tag_88\n              jump\t// in\n            tag_110:\n            tag_109:\n              swap1\n              0x00\n              mstore\n              keccak256(0x00, 0x20)\n              swap1\n              0x04\n              mul\n              add\n                /* \"smartContract/contracts/NewVote.sol\":2264:2341  Suggestion storage singleSuggestion = suggestions[findSuggestionNo[_subject]] */\n              swap1\n              pop\n                /* \"smartContract/contracts/NewVote.sol\":2864:2880  singleSuggestion */\n              dup1\n                /* \"smartContract/contracts/NewVote.sol\":2857:2880  return singleSuggestion */\n              mload(0x40)\n              dup1\n              0x80\n              add\n              0x40\n              mstore\n              swap1\n              dup2\n              0x00\n              dup3\n              add\n              dup1\n              sload\n              tag_112\n              swap1\n              tag_45\n              jump\t// in\n            tag_112:\n              dup1\n              0x1f\n              add\n              0x20\n              dup1\n              swap2\n              div\n              mul\n              0x20\n              add\n              mload(0x40)\n              swap1\n              dup2\n              add\n              0x40\n              mstore\n              dup1\n              swap3\n              swap2\n              swap1\n              dup2\n              dup2\n              mstore\n              0x20\n              add\n              dup3\n              dup1\n              sload\n              tag_113\n              swap1\n              tag_45\n              jump\t// in\n            tag_113:\n              dup1\n              iszero\n              tag_114\n              jumpi\n              dup1\n              0x1f\n              lt\n              tag_115\n              jumpi\n              0x0100\n              dup1\n              dup4\n              sload\n              div\n              mul\n              dup4\n              mstore\n              swap2\n              0x20\n              add\n              swap2\n              jump(tag_114)\n            tag_115:\n              dup3\n              add\n              swap2\n              swap1\n              0x00\n              mstore\n              keccak256(0x00, 0x20)\n              swap1\n            tag_116:\n              dup2\n              sload\n              dup2\n              mstore\n              swap1\n              0x01\n              add\n              swap1\n              0x20\n              add\n              dup1\n              dup4\n              gt\n              tag_116\n              jumpi\n              dup3\n              swap1\n              sub\n              0x1f\n              and\n              dup3\n              add\n              swap2\n            tag_114:\n              pop\n              pop\n              pop\n              pop\n              pop\n              dup2\n              mstore\n              0x20\n              add\n              0x01\n              dup3\n              add\n              sload\n              dup2\n              mstore\n              0x20\n              add\n              0x02\n              dup3\n              add\n              dup1\n              sload\n              dup1\n              0x20\n              mul\n              0x20\n              add\n              mload(0x40)\n              swap1\n              dup2\n              add\n              0x40\n              mstore\n              dup1\n              swap3\n              swap2\n              swap1\n              dup2\n              dup2\n              mstore\n              0x20\n              add\n              0x00\n              swap1\n            tag_117:\n              dup3\n              dup3\n              lt\n              iszero\n              tag_118\n              jumpi\n              dup4\n              dup3\n              swap1\n              0x00\n              mstore\n              keccak256(0x00, 0x20)\n              swap1\n              0x05\n              mul\n              add\n              mload(0x40)\n              dup1\n              0xa0\n              add\n              0x40\n              mstore\n              swap1\n              dup2\n              0x00\n              dup3\n              add\n              dup1\n              sload\n              tag_120\n              swap1\n              tag_45\n              jump\t// in\n            tag_120:\n              dup1\n              0x1f\n              add\n              0x20\n              dup1\n              swap2\n              div\n              mul\n              0x20\n              add\n              mload(0x40)\n              swap1\n              dup2\n              add\n              0x40\n              mstore\n              dup1\n              swap3\n              swap2\n              swap1\n              dup2\n              dup2\n              mstore\n              0x20\n              add\n              dup3\n              dup1\n              sload\n              tag_121\n              swap1\n              tag_45\n              jump\t// in\n            tag_121:\n              dup1\n              iszero\n              tag_122\n              jumpi\n              dup1\n              0x1f\n              lt\n              tag_123\n              jumpi\n              0x0100\n              dup1\n              dup4\n              sload\n              div\n              mul\n              dup4\n              mstore\n              swap2\n              0x20\n              add\n              swap2\n              jump(tag_122)\n            tag_123:\n              dup3\n              add\n              swap2\n              swap1\n              0x00\n              mstore\n              keccak256(0x00, 0x20)\n              swap1\n            tag_124:\n              dup2\n              sload\n              dup2\n              mstore\n              swap1\n              0x01\n              add\n              swap1\n              0x20\n              add\n              dup1\n              dup4\n              gt\n              tag_124\n              jumpi\n              dup3\n              swap1\n              sub\n              0x1f\n              and\n              dup3\n              add\n              swap2\n            tag_122:\n              pop\n              pop\n              pop\n              pop\n              pop\n              dup2\n              mstore\n              0x20\n              add\n              0x01\n              dup3\n              add\n              0x00\n              swap1\n              sload\n              swap1\n              0x0100\n              exp\n              swap1\n              div\n              0xffffffffffffffffffffffffffffffffffffffff\n              and\n              0xffffffffffffffffffffffffffffffffffffffff\n              and\n              0xffffffffffffffffffffffffffffffffffffffff\n              and\n              dup2\n              mstore\n              0x20\n              add\n              0x02\n              dup3\n              add\n              sload\n              dup2\n              mstore\n              0x20\n              add\n              0x03\n              dup3\n              add\n              0x00\n              swap1\n              sload\n              swap1\n              0x0100\n              exp\n              swap1\n              div\n              0xff\n              and\n              iszero\n              iszero\n              iszero\n              iszero\n              dup2\n              mstore\n              0x20\n              add\n              0x04\n              dup3\n              add\n              dup1\n              sload\n              tag_125\n              swap1\n              tag_45\n              jump\t// in\n            tag_125:\n              dup1\n              0x1f\n              add\n              0x20\n              dup1\n              swap2\n              div\n              mul\n              0x20\n              add\n              mload(0x40)\n              swap1\n              dup2\n              add\n              0x40\n              mstore\n              dup1\n              swap3\n              swap2\n              swap1\n              dup2\n              dup2\n              mstore\n              0x20\n              add\n              dup3\n              dup1\n              sload\n              tag_126\n              swap1\n              tag_45\n              jump\t// in\n            tag_126:\n              dup1\n              iszero\n              tag_127\n              jumpi\n              dup1\n              0x1f\n              lt\n              tag_128\n              jumpi\n              0x0100\n              dup1\n              dup4\n              sload\n              div\n              mul\n              dup4\n              mstore\n              swap2\n              0x20\n              add\n              swap2\n              jump(tag_127)\n            tag_128:\n              dup3\n              add\n              swap2\n              swap1\n              0x00\n              mstore\n              keccak256(0x00, 0x20)\n              swap1\n            tag_129:\n              dup2\n              sload\n              dup2\n              mstore\n              swap1\n              0x01\n              add\n              swap1\n              0x20\n              add\n              dup1\n              dup4\n              gt\n              tag_129\n              jumpi\n              dup3\n              swap1\n              sub\n              0x1f\n              and\n              dup3\n              add\n              swap2\n            tag_127:\n              pop\n              pop\n              pop\n              pop\n              pop\n              dup2\n              mstore\n              pop\n              pop\n              dup2\n              mstore\n              0x20\n              add\n              swap1\n              0x01\n              add\n              swap1\n              jump(tag_117)\n            tag_118:\n              pop\n              pop\n              pop\n              pop\n              dup2\n              mstore\n              0x20\n              add\n              0x03\n              dup3\n              add\n              0x00\n              swap1\n              sload\n              swap1\n              0x0100\n              exp\n              swap1\n              div\n              0xff\n              and\n              iszero\n              iszero\n              iszero\n              iszero\n              dup2\n              mstore\n              pop\n              pop\n              swap5\n              pop\n              pop\n                /* \"smartContract/contracts/NewVote.sol\":1656:2084  {... */\n              pop\n                /* \"smartContract/contracts/NewVote.sol\":2120:2887  function vote (string memory _subject, string memory _answer) public payable validVoter(_subject,msg.sender)returns(Suggestion memory) {... */\n              pop\n              pop\n              swap3\n              swap2\n              pop\n              pop\n              jump\t// out\n            tag_51:\n              mload(0x40)\n              dup1\n              0x80\n              add\n              0x40\n              mstore\n              dup1\n              0x60\n              dup2\n              mstore\n              0x20\n              add\n              0x00\n              dup2\n              mstore\n              0x20\n              add\n              0x60\n              dup2\n              mstore\n              0x20\n              add\n              iszero(iszero(0x00))\n              dup2\n              mstore\n              pop\n              swap1\n              jump\t// out\n            tag_55:\n              dup3\n              dup1\n              sload\n              tag_130\n              swap1\n              tag_45\n              jump\t// in\n            tag_130:\n              swap1\n              0x00\n              mstore\n              keccak256(0x00, 0x20)\n              swap1\n              0x1f\n              add\n              0x20\n              swap1\n              div\n              dup2\n              add\n              swap3\n              dup3\n              tag_132\n              jumpi\n              0x00\n              dup6\n              sstore\n              jump(tag_131)\n            tag_132:\n              dup3\n              0x1f\n              lt\n              tag_133\n              jumpi\n              dup1\n              mload\n              not(0xff)\n              and\n              dup4\n              dup1\n              add\n              or\n              dup6\n              sstore\n              jump(tag_131)\n            tag_133:\n              dup3\n              dup1\n              add\n              0x01\n              add\n              dup6\n              sstore\n              dup3\n              iszero\n              tag_131\n              jumpi\n              swap2\n              dup3\n              add\n            tag_134:\n              dup3\n              dup2\n              gt\n              iszero\n              tag_135\n              jumpi\n              dup3\n              mload\n              dup3\n              sstore\n              swap2\n              0x20\n              add\n              swap2\n              swap1\n              0x01\n              add\n              swap1\n              jump(tag_134)\n            tag_135:\n            tag_131:\n              pop\n              swap1\n              pop\n              tag_136\n              swap2\n              swap1\n              tag_137\n              jump\t// in\n            tag_136:\n              pop\n              swap1\n              jump\t// out\n            tag_137:\n            tag_138:\n              dup1\n              dup3\n              gt\n              iszero\n              tag_139\n              jumpi\n              0x00\n              dup2\n              0x00\n              swap1\n              sstore\n              pop\n              0x01\n              add\n              jump(tag_138)\n            tag_139:\n              pop\n              swap1\n              jump\t// out\n                /* \"#utility.yul\":7:419   */\n            tag_141:\n                /* \"#utility.yul\":85:90   */\n              0x00\n                /* \"#utility.yul\":110:176   */\n              tag_143\n                /* \"#utility.yul\":126:175   */\n              tag_144\n                /* \"#utility.yul\":168:174   */\n              dup5\n                /* \"#utility.yul\":126:175   */\n              tag_145\n              jump\t// in\n            tag_144:\n                /* \"#utility.yul\":110:176   */\n              tag_146\n              jump\t// in\n            tag_143:\n                /* \"#utility.yul\":101:176   */\n              swap1\n              pop\n                /* \"#utility.yul\":199:205   */\n              dup3\n                /* \"#utility.yul\":192:197   */\n              dup2\n                /* \"#utility.yul\":185:206   */\n              mstore\n                /* \"#utility.yul\":237:241   */\n              0x20\n                /* \"#utility.yul\":230:235   */\n              dup2\n                /* \"#utility.yul\":226:242   */\n              add\n                /* \"#utility.yul\":275:278   */\n              dup5\n                /* \"#utility.yul\":266:272   */\n              dup5\n                /* \"#utility.yul\":261:264   */\n              dup5\n                /* \"#utility.yul\":257:273   */\n              add\n                /* \"#utility.yul\":254:279   */\n              gt\n                /* \"#utility.yul\":251:363   */\n              iszero\n              tag_147\n              jumpi\n                /* \"#utility.yul\":282:361   */\n              tag_148\n              tag_149\n              jump\t// in\n            tag_148:\n                /* \"#utility.yul\":251:363   */\n            tag_147:\n                /* \"#utility.yul\":372:413   */\n              tag_150\n                /* \"#utility.yul\":406:412   */\n              dup5\n                /* \"#utility.yul\":401:404   */\n              dup3\n                /* \"#utility.yul\":396:399   */\n              dup6\n                /* \"#utility.yul\":372:413   */\n              tag_151\n              jump\t// in\n            tag_150:\n                /* \"#utility.yul\":91:419   */\n              pop\n                /* \"#utility.yul\":7:419   */\n              swap4\n              swap3\n              pop\n              pop\n              pop\n              jump\t// out\n                /* \"#utility.yul\":439:779   */\n            tag_152:\n                /* \"#utility.yul\":495:500   */\n              0x00\n                /* \"#utility.yul\":544:547   */\n              dup3\n                /* \"#utility.yul\":537:541   */\n              0x1f\n                /* \"#utility.yul\":529:535   */\n              dup4\n                /* \"#utility.yul\":525:542   */\n              add\n                /* \"#utility.yul\":521:548   */\n              slt\n                /* \"#utility.yul\":511:633   */\n              tag_154\n              jumpi\n                /* \"#utility.yul\":552:631   */\n              tag_155\n              tag_156\n              jump\t// in\n            tag_155:\n                /* \"#utility.yul\":511:633   */\n            tag_154:\n                /* \"#utility.yul\":669:675   */\n              dup2\n                /* \"#utility.yul\":656:676   */\n              calldataload\n                /* \"#utility.yul\":694:773   */\n              tag_157\n                /* \"#utility.yul\":769:772   */\n              dup5\n                /* \"#utility.yul\":761:767   */\n              dup3\n                /* \"#utility.yul\":754:758   */\n              0x20\n                /* \"#utility.yul\":746:752   */\n              dup7\n                /* \"#utility.yul\":742:759   */\n              add\n                /* \"#utility.yul\":694:773   */\n              tag_141\n              jump\t// in\n            tag_157:\n                /* \"#utility.yul\":685:773   */\n              swap2\n              pop\n                /* \"#utility.yul\":501:779   */\n              pop\n                /* \"#utility.yul\":439:779   */\n              swap3\n              swap2\n              pop\n              pop\n              jump\t// out\n                /* \"#utility.yul\":785:924   */\n            tag_158:\n                /* \"#utility.yul\":831:836   */\n              0x00\n                /* \"#utility.yul\":869:875   */\n              dup2\n                /* \"#utility.yul\":856:876   */\n              calldataload\n                /* \"#utility.yul\":847:876   */\n              swap1\n              pop\n                /* \"#utility.yul\":885:918   */\n              tag_160\n                /* \"#utility.yul\":912:917   */\n              dup2\n                /* \"#utility.yul\":885:918   */\n              tag_161\n              jump\t// in\n            tag_160:\n                /* \"#utility.yul\":785:924   */\n              swap3\n              swap2\n              pop\n              pop\n              jump\t// out\n                /* \"#utility.yul\":930:1439   */\n            tag_23:\n                /* \"#utility.yul\":999:1005   */\n              0x00\n                /* \"#utility.yul\":1048:1050   */\n              0x20\n                /* \"#utility.yul\":1036:1045   */\n              dup3\n                /* \"#utility.yul\":1027:1034   */\n              dup5\n                /* \"#utility.yul\":1023:1046   */\n              sub\n                /* \"#utility.yul\":1019:1051   */\n              slt\n                /* \"#utility.yul\":1016:1135   */\n              iszero\n              tag_163\n              jumpi\n                /* \"#utility.yul\":1054:1133   */\n              tag_164\n              tag_165\n              jump\t// in\n            tag_164:\n                /* \"#utility.yul\":1016:1135   */\n            tag_163:\n                /* \"#utility.yul\":1202:1203   */\n              0x00\n                /* \"#utility.yul\":1191:1200   */\n              dup3\n                /* \"#utility.yul\":1187:1204   */\n              add\n                /* \"#utility.yul\":1174:1205   */\n              calldataload\n                /* \"#utility.yul\":1232:1250   */\n              0xffffffffffffffff\n                /* \"#utility.yul\":1224:1230   */\n              dup2\n                /* \"#utility.yul\":1221:1251   */\n              gt\n                /* \"#utility.yul\":1218:1335   */\n              iszero\n              tag_166\n              jumpi\n                /* \"#utility.yul\":1254:1333   */\n              tag_167\n              tag_168\n              jump\t// in\n            tag_167:\n                /* \"#utility.yul\":1218:1335   */\n            tag_166:\n                /* \"#utility.yul\":1359:1422   */\n              tag_169\n                /* \"#utility.yul\":1414:1421   */\n              dup5\n                /* \"#utility.yul\":1405:1411   */\n              dup3\n                /* \"#utility.yul\":1394:1403   */\n              dup6\n                /* \"#utility.yul\":1390:1412   */\n              add\n                /* \"#utility.yul\":1359:1422   */\n              tag_152\n              jump\t// in\n            tag_169:\n                /* \"#utility.yul\":1349:1422   */\n              swap2\n              pop\n                /* \"#utility.yul\":1145:1432   */\n              pop\n                /* \"#utility.yul\":930:1439   */\n              swap3\n              swap2\n              pop\n              pop\n              jump\t// out\n                /* \"#utility.yul\":1445:2279   */\n            tag_39:\n                /* \"#utility.yul\":1533:1539   */\n              0x00\n                /* \"#utility.yul\":1541:1547   */\n              dup1\n                /* \"#utility.yul\":1590:1592   */\n              0x40\n                /* \"#utility.yul\":1578:1587   */\n              dup4\n                /* \"#utility.yul\":1569:1576   */\n              dup6\n                /* \"#utility.yul\":1565:1588   */\n              sub\n                /* \"#utility.yul\":1561:1593   */\n              slt\n                /* \"#utility.yul\":1558:1677   */\n              iszero\n              tag_171\n              jumpi\n                /* \"#utility.yul\":1596:1675   */\n              tag_172\n              tag_165\n              jump\t// in\n            tag_172:\n                /* \"#utility.yul\":1558:1677   */\n            tag_171:\n                /* \"#utility.yul\":1744:1745   */\n              0x00\n                /* \"#utility.yul\":1733:1742   */\n              dup4\n                /* \"#utility.yul\":1729:1746   */\n              add\n                /* \"#utility.yul\":1716:1747   */\n              calldataload\n                /* \"#utility.yul\":1774:1792   */\n              0xffffffffffffffff\n                /* \"#utility.yul\":1766:1772   */\n              dup2\n                /* \"#utility.yul\":1763:1793   */\n              gt\n                /* \"#utility.yul\":1760:1877   */\n              iszero\n              tag_173\n              jumpi\n                /* \"#utility.yul\":1796:1875   */\n              tag_174\n              tag_168\n              jump\t// in\n            tag_174:\n                /* \"#utility.yul\":1760:1877   */\n            tag_173:\n                /* \"#utility.yul\":1901:1964   */\n              tag_175\n                /* \"#utility.yul\":1956:1963   */\n              dup6\n                /* \"#utility.yul\":1947:1953   */\n              dup3\n                /* \"#utility.yul\":1936:1945   */\n              dup7\n                /* \"#utility.yul\":1932:1954   */\n              add\n                /* \"#utility.yul\":1901:1964   */\n              tag_152\n              jump\t// in\n            tag_175:\n                /* \"#utility.yul\":1891:1964   */\n              swap3\n              pop\n                /* \"#utility.yul\":1687:1974   */\n              pop\n                /* \"#utility.yul\":2041:2043   */\n              0x20\n                /* \"#utility.yul\":2030:2039   */\n              dup4\n                /* \"#utility.yul\":2026:2044   */\n              add\n                /* \"#utility.yul\":2013:2045   */\n              calldataload\n                /* \"#utility.yul\":2072:2090   */\n              0xffffffffffffffff\n                /* \"#utility.yul\":2064:2070   */\n              dup2\n                /* \"#utility.yul\":2061:2091   */\n              gt\n                /* \"#utility.yul\":2058:2175   */\n              iszero\n              tag_176\n              jumpi\n                /* \"#utility.yul\":2094:2173   */\n              tag_177\n              tag_168\n              jump\t// in\n            tag_177:\n                /* \"#utility.yul\":2058:2175   */\n            tag_176:\n                /* \"#utility.yul\":2199:2262   */\n              tag_178\n                /* \"#utility.yul\":2254:2261   */\n              dup6\n                /* \"#utility.yul\":2245:2251   */\n              dup3\n                /* \"#utility.yul\":2234:2243   */\n              dup7\n                /* \"#utility.yul\":2230:2252   */\n              add\n                /* \"#utility.yul\":2199:2262   */\n              tag_152\n              jump\t// in\n            tag_178:\n                /* \"#utility.yul\":2189:2262   */\n              swap2\n              pop\n                /* \"#utility.yul\":1984:2272   */\n              pop\n                /* \"#utility.yul\":1445:2279   */\n              swap3\n              pop\n              swap3\n              swap1\n              pop\n              jump\t// out\n                /* \"#utility.yul\":2285:2614   */\n            tag_16:\n                /* \"#utility.yul\":2344:2350   */\n              0x00\n                /* \"#utility.yul\":2393:2395   */\n              0x20\n                /* \"#utility.yul\":2381:2390   */\n              dup3\n                /* \"#utility.yul\":2372:2379   */\n              dup5\n                /* \"#utility.yul\":2368:2391   */\n              sub\n                /* \"#utility.yul\":2364:2396   */\n              slt\n                /* \"#utility.yul\":2361:2480   */\n              iszero\n              tag_180\n              jumpi\n                /* \"#utility.yul\":2399:2478   */\n              tag_181\n              tag_165\n              jump\t// in\n            tag_181:\n                /* \"#utility.yul\":2361:2480   */\n            tag_180:\n                /* \"#utility.yul\":2519:2520   */\n              0x00\n                /* \"#utility.yul\":2544:2597   */\n              tag_182\n                /* \"#utility.yul\":2589:2596   */\n              dup5\n                /* \"#utility.yul\":2580:2586   */\n              dup3\n                /* \"#utility.yul\":2569:2578   */\n              dup6\n                /* \"#utility.yul\":2565:2587   */\n              add\n                /* \"#utility.yul\":2544:2597   */\n              tag_158\n              jump\t// in\n            tag_182:\n                /* \"#utility.yul\":2534:2597   */\n              swap2\n              pop\n                /* \"#utility.yul\":2490:2607   */\n              pop\n                /* \"#utility.yul\":2285:2614   */\n              swap3\n              swap2\n              pop\n              pop\n              jump\t// out\n                /* \"#utility.yul\":2620:2860   */\n            tag_183:\n                /* \"#utility.yul\":2731:2741   */\n              0x00\n                /* \"#utility.yul\":2766:2854   */\n              tag_185\n                /* \"#utility.yul\":2850:2853   */\n              dup4\n                /* \"#utility.yul\":2842:2848   */\n              dup4\n                /* \"#utility.yul\":2766:2854   */\n              tag_186\n              jump\t// in\n            tag_185:\n                /* \"#utility.yul\":2752:2854   */\n              swap1\n              pop\n                /* \"#utility.yul\":2620:2860   */\n              swap3\n              swap2\n              pop\n              pop\n              jump\t// out\n                /* \"#utility.yul\":2866:2974   */\n            tag_187:\n                /* \"#utility.yul\":2943:2967   */\n              tag_189\n                /* \"#utility.yul\":2961:2966   */\n              dup2\n                /* \"#utility.yul\":2943:2967   */\n              tag_190\n              jump\t// in\n            tag_189:\n                /* \"#utility.yul\":2938:2941   */\n              dup3\n                /* \"#utility.yul\":2931:2968   */\n              mstore\n                /* \"#utility.yul\":2866:2974   */\n              pop\n              pop\n              jump\t// out\n                /* \"#utility.yul\":2980:3098   */\n            tag_191:\n                /* \"#utility.yul\":3067:3091   */\n              tag_193\n                /* \"#utility.yul\":3085:3090   */\n              dup2\n                /* \"#utility.yul\":3067:3091   */\n              tag_190\n              jump\t// in\n            tag_193:\n                /* \"#utility.yul\":3062:3065   */\n              dup3\n                /* \"#utility.yul\":3055:3092   */\n              mstore\n                /* \"#utility.yul\":2980:3098   */\n              pop\n              pop\n              jump\t// out\n                /* \"#utility.yul\":3156:4215   */\n            tag_194:\n                /* \"#utility.yul\":3307:3310   */\n              0x00\n                /* \"#utility.yul\":3336:3411   */\n              tag_196\n                /* \"#utility.yul\":3405:3410   */\n              dup3\n                /* \"#utility.yul\":3336:3411   */\n              tag_197\n              jump\t// in\n            tag_196:\n                /* \"#utility.yul\":3427:3524   */\n              tag_198\n                /* \"#utility.yul\":3517:3523   */\n              dup2\n                /* \"#utility.yul\":3512:3515   */\n              dup6\n                /* \"#utility.yul\":3427:3524   */\n              tag_199\n              jump\t// in\n            tag_198:\n                /* \"#utility.yul\":3420:3524   */\n              swap4\n              pop\n                /* \"#utility.yul\":3550:3553   */\n              dup4\n                /* \"#utility.yul\":3595:3599   */\n              0x20\n                /* \"#utility.yul\":3587:3593   */\n              dup3\n                /* \"#utility.yul\":3583:3600   */\n              mul\n                /* \"#utility.yul\":3578:3581   */\n              dup6\n                /* \"#utility.yul\":3574:3601   */\n              add\n                /* \"#utility.yul\":3625:3702   */\n              tag_200\n                /* \"#utility.yul\":3696:3701   */\n              dup6\n                /* \"#utility.yul\":3625:3702   */\n              tag_201\n              jump\t// in\n            tag_200:\n                /* \"#utility.yul\":3725:3732   */\n              dup1\n                /* \"#utility.yul\":3756:3757   */\n              0x00\n                /* \"#utility.yul\":3741:4170   */\n            tag_202:\n                /* \"#utility.yul\":3766:3772   */\n              dup6\n                /* \"#utility.yul\":3763:3764   */\n              dup2\n                /* \"#utility.yul\":3760:3773   */\n              lt\n                /* \"#utility.yul\":3741:4170   */\n              iszero\n              tag_204\n              jumpi\n                /* \"#utility.yul\":3837:3846   */\n              dup5\n                /* \"#utility.yul\":3831:3835   */\n              dup5\n                /* \"#utility.yul\":3827:3847   */\n              sub\n                /* \"#utility.yul\":3822:3825   */\n              dup10\n                /* \"#utility.yul\":3815:3848   */\n              mstore\n                /* \"#utility.yul\":3888:3894   */\n              dup2\n                /* \"#utility.yul\":3882:3895   */\n              mload\n                /* \"#utility.yul\":3916:4022   */\n              tag_205\n                /* \"#utility.yul\":4017:4021   */\n              dup6\n                /* \"#utility.yul\":4002:4015   */\n              dup3\n                /* \"#utility.yul\":3916:4022   */\n              tag_183\n              jump\t// in\n            tag_205:\n                /* \"#utility.yul\":3908:4022   */\n              swap5\n              pop\n                /* \"#utility.yul\":4045:4126   */\n              tag_206\n                /* \"#utility.yul\":4119:4125   */\n              dup4\n                /* \"#utility.yul\":4045:4126   */\n              tag_207\n              jump\t// in\n            tag_206:\n                /* \"#utility.yul\":4035:4126   */\n              swap3\n              pop\n                /* \"#utility.yul\":4155:4159   */\n              0x20\n                /* \"#utility.yul\":4150:4153   */\n              dup11\n                /* \"#utility.yul\":4146:4160   */\n              add\n                /* \"#utility.yul\":4139:4160   */\n              swap10\n              pop\n                /* \"#utility.yul\":3801:4170   */\n              pop\n                /* \"#utility.yul\":3788:3789   */\n              0x01\n                /* \"#utility.yul\":3785:3786   */\n              dup2\n                /* \"#utility.yul\":3781:3790   */\n              add\n                /* \"#utility.yul\":3776:3790   */\n              swap1\n              pop\n                /* \"#utility.yul\":3741:4170   */\n              jump(tag_202)\n            tag_204:\n                /* \"#utility.yul\":3745:3759   */\n              pop\n                /* \"#utility.yul\":4186:4190   */\n              dup3\n                /* \"#utility.yul\":4179:4190   */\n              swap8\n              pop\n                /* \"#utility.yul\":4206:4209   */\n              dup8\n                /* \"#utility.yul\":4199:4209   */\n              swap6\n              pop\n                /* \"#utility.yul\":3312:4215   */\n              pop\n              pop\n              pop\n              pop\n              pop\n                /* \"#utility.yul\":3156:4215   */\n              swap3\n              swap2\n              pop\n              pop\n              jump\t// out\n                /* \"#utility.yul\":4221:4320   */\n            tag_208:\n                /* \"#utility.yul\":4292:4313   */\n              tag_210\n                /* \"#utility.yul\":4307:4312   */\n              dup2\n                /* \"#utility.yul\":4292:4313   */\n              tag_211\n              jump\t// in\n            tag_210:\n                /* \"#utility.yul\":4287:4290   */\n              dup3\n                /* \"#utility.yul\":4280:4314   */\n              mstore\n                /* \"#utility.yul\":4221:4320   */\n              pop\n              pop\n              jump\t// out\n                /* \"#utility.yul\":4326:4435   */\n            tag_212:\n                /* \"#utility.yul\":4407:4428   */\n              tag_214\n                /* \"#utility.yul\":4422:4427   */\n              dup2\n                /* \"#utility.yul\":4407:4428   */\n              tag_211\n              jump\t// in\n            tag_214:\n                /* \"#utility.yul\":4402:4405   */\n              dup3\n                /* \"#utility.yul\":4395:4429   */\n              mstore\n                /* \"#utility.yul\":4326:4435   */\n              pop\n              pop\n              jump\t// out\n                /* \"#utility.yul\":4441:4785   */\n            tag_215:\n                /* \"#utility.yul\":4519:4522   */\n              0x00\n                /* \"#utility.yul\":4547:4586   */\n              tag_217\n                /* \"#utility.yul\":4580:4585   */\n              dup3\n                /* \"#utility.yul\":4547:4586   */\n              tag_218\n              jump\t// in\n            tag_217:\n                /* \"#utility.yul\":4602:4663   */\n              tag_219\n                /* \"#utility.yul\":4656:4662   */\n              dup2\n                /* \"#utility.yul\":4651:4654   */\n              dup6\n                /* \"#utility.yul\":4602:4663   */\n              tag_220\n              jump\t// in\n            tag_219:\n                /* \"#utility.yul\":4595:4663   */\n              swap4\n              pop\n                /* \"#utility.yul\":4672:4724   */\n              tag_221\n                /* \"#utility.yul\":4717:4723   */\n              dup2\n                /* \"#utility.yul\":4712:4715   */\n              dup6\n                /* \"#utility.yul\":4705:4709   */\n              0x20\n                /* \"#utility.yul\":4698:4703   */\n              dup7\n                /* \"#utility.yul\":4694:4710   */\n              add\n                /* \"#utility.yul\":4672:4724   */\n              tag_222\n              jump\t// in\n            tag_221:\n                /* \"#utility.yul\":4749:4778   */\n              tag_223\n                /* \"#utility.yul\":4771:4777   */\n              dup2\n                /* \"#utility.yul\":4749:4778   */\n              tag_224\n              jump\t// in\n            tag_223:\n                /* \"#utility.yul\":4744:4747   */\n              dup5\n                /* \"#utility.yul\":4740:4779   */\n              add\n                /* \"#utility.yul\":4733:4779   */\n              swap2\n              pop\n                /* \"#utility.yul\":4523:4785   */\n              pop\n                /* \"#utility.yul\":4441:4785   */\n              swap3\n              swap2\n              pop\n              pop\n              jump\t// out\n                /* \"#utility.yul\":4791:5155   */\n            tag_225:\n                /* \"#utility.yul\":4879:4882   */\n              0x00\n                /* \"#utility.yul\":4907:4946   */\n              tag_227\n                /* \"#utility.yul\":4940:4945   */\n              dup3\n                /* \"#utility.yul\":4907:4946   */\n              tag_218\n              jump\t// in\n            tag_227:\n                /* \"#utility.yul\":4962:5033   */\n              tag_228\n                /* \"#utility.yul\":5026:5032   */\n              dup2\n                /* \"#utility.yul\":5021:5024   */\n              dup6\n                /* \"#utility.yul\":4962:5033   */\n              tag_229\n              jump\t// in\n            tag_228:\n                /* \"#utility.yul\":4955:5033   */\n              swap4\n              pop\n                /* \"#utility.yul\":5042:5094   */\n              tag_230\n                /* \"#utility.yul\":5087:5093   */\n              dup2\n                /* \"#utility.yul\":5082:5085   */\n              dup6\n                /* \"#utility.yul\":5075:5079   */\n              0x20\n                /* \"#utility.yul\":5068:5073   */\n              dup7\n                /* \"#utility.yul\":5064:5080   */\n              add\n                /* \"#utility.yul\":5042:5094   */\n              tag_222\n              jump\t// in\n            tag_230:\n                /* \"#utility.yul\":5119:5148   */\n              tag_231\n                /* \"#utility.yul\":5141:5147   */\n              dup2\n                /* \"#utility.yul\":5119:5148   */\n              tag_224\n              jump\t// in\n            tag_231:\n                /* \"#utility.yul\":5114:5117   */\n              dup5\n                /* \"#utility.yul\":5110:5149   */\n              add\n                /* \"#utility.yul\":5103:5149   */\n              swap2\n              pop\n                /* \"#utility.yul\":4883:5155   */\n              pop\n                /* \"#utility.yul\":4791:5155   */\n              swap3\n              swap2\n              pop\n              pop\n              jump\t// out\n                /* \"#utility.yul\":5161:5538   */\n            tag_232:\n                /* \"#utility.yul\":5267:5270   */\n              0x00\n                /* \"#utility.yul\":5295:5334   */\n              tag_234\n                /* \"#utility.yul\":5328:5333   */\n              dup3\n                /* \"#utility.yul\":5295:5334   */\n              tag_218\n              jump\t// in\n            tag_234:\n                /* \"#utility.yul\":5350:5439   */\n              tag_235\n                /* \"#utility.yul\":5432:5438   */\n              dup2\n                /* \"#utility.yul\":5427:5430   */\n              dup6\n                /* \"#utility.yul\":5350:5439   */\n              tag_236\n              jump\t// in\n            tag_235:\n                /* \"#utility.yul\":5343:5439   */\n              swap4\n              pop\n                /* \"#utility.yul\":5448:5500   */\n              tag_237\n                /* \"#utility.yul\":5493:5499   */\n              dup2\n                /* \"#utility.yul\":5488:5491   */\n              dup6\n                /* \"#utility.yul\":5481:5485   */\n              0x20\n                /* \"#utility.yul\":5474:5479   */\n              dup7\n                /* \"#utility.yul\":5470:5486   */\n              add\n                /* \"#utility.yul\":5448:5500   */\n              tag_222\n              jump\t// in\n            tag_237:\n                /* \"#utility.yul\":5525:5531   */\n              dup1\n                /* \"#utility.yul\":5520:5523   */\n              dup5\n                /* \"#utility.yul\":5516:5532   */\n              add\n                /* \"#utility.yul\":5509:5532   */\n              swap2\n              pop\n                /* \"#utility.yul\":5271:5538   */\n              pop\n                /* \"#utility.yul\":5161:5538   */\n              swap3\n              swap2\n              pop\n              pop\n              jump\t// out\n                /* \"#utility.yul\":5544:5910   */\n            tag_238:\n                /* \"#utility.yul\":5686:5689   */\n              0x00\n                /* \"#utility.yul\":5707:5774   */\n              tag_240\n                /* \"#utility.yul\":5771:5773   */\n              0x1a\n                /* \"#utility.yul\":5766:5769   */\n              dup4\n                /* \"#utility.yul\":5707:5774   */\n              tag_229\n              jump\t// in\n            tag_240:\n                /* \"#utility.yul\":5700:5774   */\n              swap2\n              pop\n                /* \"#utility.yul\":5783:5876   */\n              tag_241\n                /* \"#utility.yul\":5872:5875   */\n              dup3\n                /* \"#utility.yul\":5783:5876   */\n              tag_242\n              jump\t// in\n            tag_241:\n                /* \"#utility.yul\":5901:5903   */\n              0x20\n                /* \"#utility.yul\":5896:5899   */\n              dup3\n                /* \"#utility.yul\":5892:5904   */\n              add\n                /* \"#utility.yul\":5885:5904   */\n              swap1\n              pop\n                /* \"#utility.yul\":5544:5910   */\n              swap2\n              swap1\n              pop\n              jump\t// out\n                /* \"#utility.yul\":5916:6282   */\n            tag_243:\n                /* \"#utility.yul\":6058:6061   */\n              0x00\n                /* \"#utility.yul\":6079:6146   */\n              tag_245\n                /* \"#utility.yul\":6143:6145   */\n              0x13\n                /* \"#utility.yul\":6138:6141   */\n              dup4\n                /* \"#utility.yul\":6079:6146   */\n              tag_229\n              jump\t// in\n            tag_245:\n                /* \"#utility.yul\":6072:6146   */\n              swap2\n              pop\n                /* \"#utility.yul\":6155:6248   */\n              tag_246\n                /* \"#utility.yul\":6244:6247   */\n              dup3\n                /* \"#utility.yul\":6155:6248   */\n              tag_247\n              jump\t// in\n            tag_246:\n                /* \"#utility.yul\":6273:6275   */\n              0x20\n                /* \"#utility.yul\":6268:6271   */\n              dup3\n                /* \"#utility.yul\":6264:6276   */\n              add\n                /* \"#utility.yul\":6257:6276   */\n              swap1\n              pop\n                /* \"#utility.yul\":5916:6282   */\n              swap2\n              swap1\n              pop\n              jump\t// out\n                /* \"#utility.yul\":6346:7459   */\n            tag_248:\n                /* \"#utility.yul\":6467:6470   */\n              0x00\n                /* \"#utility.yul\":6503:6507   */\n              0x80\n                /* \"#utility.yul\":6498:6501   */\n              dup4\n                /* \"#utility.yul\":6494:6508   */\n              add\n                /* \"#utility.yul\":6593:6597   */\n              0x00\n                /* \"#utility.yul\":6586:6591   */\n              dup4\n                /* \"#utility.yul\":6582:6598   */\n              add\n                /* \"#utility.yul\":6576:6599   */\n              mload\n                /* \"#utility.yul\":6646:6649   */\n              dup5\n                /* \"#utility.yul\":6640:6644   */\n              dup3\n                /* \"#utility.yul\":6636:6650   */\n              sub\n                /* \"#utility.yul\":6629:6633   */\n              0x00\n                /* \"#utility.yul\":6624:6627   */\n              dup7\n                /* \"#utility.yul\":6620:6634   */\n              add\n                /* \"#utility.yul\":6613:6651   */\n              mstore\n                /* \"#utility.yul\":6672:6745   */\n              tag_250\n                /* \"#utility.yul\":6740:6744   */\n              dup3\n                /* \"#utility.yul\":6726:6738   */\n              dup3\n                /* \"#utility.yul\":6672:6745   */\n              tag_215\n              jump\t// in\n            tag_250:\n                /* \"#utility.yul\":6664:6745   */\n              swap2\n              pop\n                /* \"#utility.yul\":6518:6756   */\n              pop\n                /* \"#utility.yul\":6846:6850   */\n              0x20\n                /* \"#utility.yul\":6839:6844   */\n              dup4\n                /* \"#utility.yul\":6835:6851   */\n              add\n                /* \"#utility.yul\":6829:6852   */\n              mload\n                /* \"#utility.yul\":6865:6928   */\n              tag_251\n                /* \"#utility.yul\":6922:6926   */\n              0x20\n                /* \"#utility.yul\":6917:6920   */\n              dup7\n                /* \"#utility.yul\":6913:6927   */\n              add\n                /* \"#utility.yul\":6899:6911   */\n              dup3\n                /* \"#utility.yul\":6865:6928   */\n              tag_252\n              jump\t// in\n            tag_251:\n                /* \"#utility.yul\":6766:6938   */\n              pop\n                /* \"#utility.yul\":7027:7031   */\n              0x40\n                /* \"#utility.yul\":7020:7025   */\n              dup4\n                /* \"#utility.yul\":7016:7032   */\n              add\n                /* \"#utility.yul\":7010:7033   */\n              mload\n                /* \"#utility.yul\":7080:7083   */\n              dup5\n                /* \"#utility.yul\":7074:7078   */\n              dup3\n                /* \"#utility.yul\":7070:7084   */\n              sub\n                /* \"#utility.yul\":7063:7067   */\n              0x40\n                /* \"#utility.yul\":7058:7061   */\n              dup7\n                /* \"#utility.yul\":7054:7068   */\n              add\n                /* \"#utility.yul\":7047:7085   */\n              mstore\n                /* \"#utility.yul\":7106:7251   */\n              tag_253\n                /* \"#utility.yul\":7246:7250   */\n              dup3\n                /* \"#utility.yul\":7232:7244   */\n              dup3\n                /* \"#utility.yul\":7106:7251   */\n              tag_194\n              jump\t// in\n            tag_253:\n                /* \"#utility.yul\":7098:7251   */\n              swap2\n              pop\n                /* \"#utility.yul\":6948:7262   */\n              pop\n                /* \"#utility.yul\":7346:7350   */\n              0x60\n                /* \"#utility.yul\":7339:7344   */\n              dup4\n                /* \"#utility.yul\":7335:7351   */\n              add\n                /* \"#utility.yul\":7329:7352   */\n              mload\n                /* \"#utility.yul\":7365:7422   */\n              tag_254\n                /* \"#utility.yul\":7416:7420   */\n              0x60\n                /* \"#utility.yul\":7411:7414   */\n              dup7\n                /* \"#utility.yul\":7407:7421   */\n              add\n                /* \"#utility.yul\":7393:7405   */\n              dup3\n                /* \"#utility.yul\":7365:7422   */\n              tag_208\n              jump\t// in\n            tag_254:\n                /* \"#utility.yul\":7272:7432   */\n              pop\n                /* \"#utility.yul\":7449:7453   */\n              dup1\n                /* \"#utility.yul\":7442:7453   */\n              swap2\n              pop\n                /* \"#utility.yul\":6472:7459   */\n              pop\n                /* \"#utility.yul\":6346:7459   */\n              swap3\n              swap2\n              pop\n              pop\n              jump\t// out\n                /* \"#utility.yul\":7513:8698   */\n            tag_186:\n                /* \"#utility.yul\":7614:7617   */\n              0x00\n                /* \"#utility.yul\":7650:7654   */\n              0xa0\n                /* \"#utility.yul\":7645:7648   */\n              dup4\n                /* \"#utility.yul\":7641:7655   */\n              add\n                /* \"#utility.yul\":7743:7747   */\n              0x00\n                /* \"#utility.yul\":7736:7741   */\n              dup4\n                /* \"#utility.yul\":7732:7748   */\n              add\n                /* \"#utility.yul\":7726:7749   */\n              mload\n                /* \"#utility.yul\":7796:7799   */\n              dup5\n                /* \"#utility.yul\":7790:7794   */\n              dup3\n                /* \"#utility.yul\":7786:7800   */\n              sub\n                /* \"#utility.yul\":7779:7783   */\n              0x00\n                /* \"#utility.yul\":7774:7777   */\n              dup7\n                /* \"#utility.yul\":7770:7784   */\n              add\n                /* \"#utility.yul\":7763:7801   */\n              mstore\n                /* \"#utility.yul\":7822:7895   */\n              tag_256\n                /* \"#utility.yul\":7890:7894   */\n              dup3\n                /* \"#utility.yul\":7876:7888   */\n              dup3\n                /* \"#utility.yul\":7822:7895   */\n              tag_215\n              jump\t// in\n            tag_256:\n                /* \"#utility.yul\":7814:7895   */\n              swap2\n              pop\n                /* \"#utility.yul\":7665:7906   */\n              pop\n                /* \"#utility.yul\":7988:7992   */\n              0x20\n                /* \"#utility.yul\":7981:7986   */\n              dup4\n                /* \"#utility.yul\":7977:7993   */\n              add\n                /* \"#utility.yul\":7971:7994   */\n              mload\n                /* \"#utility.yul\":8007:8070   */\n              tag_257\n                /* \"#utility.yul\":8064:8068   */\n              0x20\n                /* \"#utility.yul\":8059:8062   */\n              dup7\n                /* \"#utility.yul\":8055:8069   */\n              add\n                /* \"#utility.yul\":8041:8053   */\n              dup3\n                /* \"#utility.yul\":8007:8070   */\n              tag_187\n              jump\t// in\n            tag_257:\n                /* \"#utility.yul\":7916:8080   */\n              pop\n                /* \"#utility.yul\":8163:8167   */\n              0x40\n                /* \"#utility.yul\":8156:8161   */\n              dup4\n                /* \"#utility.yul\":8152:8168   */\n              add\n                /* \"#utility.yul\":8146:8169   */\n              mload\n                /* \"#utility.yul\":8182:8245   */\n              tag_258\n                /* \"#utility.yul\":8239:8243   */\n              0x40\n                /* \"#utility.yul\":8234:8237   */\n              dup7\n                /* \"#utility.yul\":8230:8244   */\n              add\n                /* \"#utility.yul\":8216:8228   */\n              dup3\n                /* \"#utility.yul\":8182:8245   */\n              tag_252\n              jump\t// in\n            tag_258:\n                /* \"#utility.yul\":8090:8255   */\n              pop\n                /* \"#utility.yul\":8338:8342   */\n              0x60\n                /* \"#utility.yul\":8331:8336   */\n              dup4\n                /* \"#utility.yul\":8327:8343   */\n              add\n                /* \"#utility.yul\":8321:8344   */\n              mload\n                /* \"#utility.yul\":8357:8414   */\n              tag_259\n                /* \"#utility.yul\":8408:8412   */\n              0x60\n                /* \"#utility.yul\":8403:8406   */\n              dup7\n                /* \"#utility.yul\":8399:8413   */\n              add\n                /* \"#utility.yul\":8385:8397   */\n              dup3\n                /* \"#utility.yul\":8357:8414   */\n              tag_208\n              jump\t// in\n            tag_259:\n                /* \"#utility.yul\":8265:8424   */\n              pop\n                /* \"#utility.yul\":8508:8512   */\n              0x80\n                /* \"#utility.yul\":8501:8506   */\n              dup4\n                /* \"#utility.yul\":8497:8513   */\n              add\n                /* \"#utility.yul\":8491:8514   */\n              mload\n                /* \"#utility.yul\":8561:8564   */\n              dup5\n                /* \"#utility.yul\":8555:8559   */\n              dup3\n                /* \"#utility.yul\":8551:8565   */\n              sub\n                /* \"#utility.yul\":8544:8548   */\n              0x80\n                /* \"#utility.yul\":8539:8542   */\n              dup7\n                /* \"#utility.yul\":8535:8549   */\n              add\n                /* \"#utility.yul\":8528:8566   */\n              mstore\n                /* \"#utility.yul\":8587:8660   */\n              tag_260\n                /* \"#utility.yul\":8655:8659   */\n              dup3\n                /* \"#utility.yul\":8641:8653   */\n              dup3\n                /* \"#utility.yul\":8587:8660   */\n              tag_215\n              jump\t// in\n            tag_260:\n                /* \"#utility.yul\":8579:8660   */\n              swap2\n              pop\n                /* \"#utility.yul\":8434:8671   */\n              pop\n                /* \"#utility.yul\":8688:8692   */\n              dup1\n                /* \"#utility.yul\":8681:8692   */\n              swap2\n              pop\n                /* \"#utility.yul\":7619:8698   */\n              pop\n                /* \"#utility.yul\":7513:8698   */\n              swap3\n              swap2\n              pop\n              pop\n              jump\t// out\n                /* \"#utility.yul\":8704:8812   */\n            tag_252:\n                /* \"#utility.yul\":8781:8805   */\n              tag_262\n                /* \"#utility.yul\":8799:8804   */\n              dup2\n                /* \"#utility.yul\":8781:8805   */\n              tag_263\n              jump\t// in\n            tag_262:\n                /* \"#utility.yul\":8776:8779   */\n              dup3\n                /* \"#utility.yul\":8769:8806   */\n              mstore\n                /* \"#utility.yul\":8704:8812   */\n              pop\n              pop\n              jump\t// out\n                /* \"#utility.yul\":8818:8936   */\n            tag_264:\n                /* \"#utility.yul\":8905:8929   */\n              tag_266\n                /* \"#utility.yul\":8923:8928   */\n              dup2\n                /* \"#utility.yul\":8905:8929   */\n              tag_263\n              jump\t// in\n            tag_266:\n                /* \"#utility.yul\":8900:8903   */\n              dup3\n                /* \"#utility.yul\":8893:8930   */\n              mstore\n                /* \"#utility.yul\":8818:8936   */\n              pop\n              pop\n              jump\t// out\n                /* \"#utility.yul\":8942:9217   */\n            tag_57:\n                /* \"#utility.yul\":9074:9077   */\n              0x00\n                /* \"#utility.yul\":9096:9191   */\n              tag_268\n                /* \"#utility.yul\":9187:9190   */\n              dup3\n                /* \"#utility.yul\":9178:9184   */\n              dup5\n                /* \"#utility.yul\":9096:9191   */\n              tag_232\n              jump\t// in\n            tag_268:\n                /* \"#utility.yul\":9089:9191   */\n              swap2\n              pop\n                /* \"#utility.yul\":9208:9211   */\n              dup2\n                /* \"#utility.yul\":9201:9211   */\n              swap1\n              pop\n                /* \"#utility.yul\":8942:9217   */\n              swap3\n              swap2\n              pop\n              pop\n              jump\t// out\n                /* \"#utility.yul\":9223:9445   */\n            tag_12:\n                /* \"#utility.yul\":9316:9320   */\n              0x00\n                /* \"#utility.yul\":9354:9356   */\n              0x20\n                /* \"#utility.yul\":9343:9352   */\n              dup3\n                /* \"#utility.yul\":9339:9357   */\n              add\n                /* \"#utility.yul\":9331:9357   */\n              swap1\n              pop\n                /* \"#utility.yul\":9367:9438   */\n              tag_270\n                /* \"#utility.yul\":9435:9436   */\n              0x00\n                /* \"#utility.yul\":9424:9433   */\n              dup4\n                /* \"#utility.yul\":9420:9437   */\n              add\n                /* \"#utility.yul\":9411:9417   */\n              dup5\n                /* \"#utility.yul\":9367:9438   */\n              tag_191\n              jump\t// in\n            tag_270:\n                /* \"#utility.yul\":9223:9445   */\n              swap3\n              swap2\n              pop\n              pop\n              jump\t// out\n                /* \"#utility.yul\":9451:9764   */\n            tag_31:\n                /* \"#utility.yul\":9564:9568   */\n              0x00\n                /* \"#utility.yul\":9602:9604   */\n              0x20\n                /* \"#utility.yul\":9591:9600   */\n              dup3\n                /* \"#utility.yul\":9587:9605   */\n              add\n                /* \"#utility.yul\":9579:9605   */\n              swap1\n              pop\n                /* \"#utility.yul\":9651:9660   */\n              dup2\n                /* \"#utility.yul\":9645:9649   */\n              dup2\n                /* \"#utility.yul\":9641:9661   */\n              sub\n                /* \"#utility.yul\":9637:9638   */\n              0x00\n                /* \"#utility.yul\":9626:9635   */\n              dup4\n                /* \"#utility.yul\":9622:9639   */\n              add\n                /* \"#utility.yul\":9615:9662   */\n              mstore\n                /* \"#utility.yul\":9679:9757   */\n              tag_272\n                /* \"#utility.yul\":9752:9756   */\n              dup2\n                /* \"#utility.yul\":9743:9749   */\n              dup5\n                /* \"#utility.yul\":9679:9757   */\n              tag_225\n              jump\t// in\n            tag_272:\n                /* \"#utility.yul\":9671:9757   */\n              swap1\n              pop\n                /* \"#utility.yul\":9451:9764   */\n              swap3\n              swap2\n              pop\n              pop\n              jump\t// out\n                /* \"#utility.yul\":9770:10291   */\n            tag_19:\n                /* \"#utility.yul\":9933:9937   */\n              0x00\n                /* \"#utility.yul\":9971:9973   */\n              0x60\n                /* \"#utility.yul\":9960:9969   */\n              dup3\n                /* \"#utility.yul\":9956:9974   */\n              add\n                /* \"#utility.yul\":9948:9974   */\n              swap1\n              pop\n                /* \"#utility.yul\":10020:10029   */\n              dup2\n                /* \"#utility.yul\":10014:10018   */\n              dup2\n                /* \"#utility.yul\":10010:10030   */\n              sub\n                /* \"#utility.yul\":10006:10007   */\n              0x00\n                /* \"#utility.yul\":9995:10004   */\n              dup4\n                /* \"#utility.yul\":9991:10008   */\n              add\n                /* \"#utility.yul\":9984:10031   */\n              mstore\n                /* \"#utility.yul\":10048:10126   */\n              tag_274\n                /* \"#utility.yul\":10121:10125   */\n              dup2\n                /* \"#utility.yul\":10112:10118   */\n              dup7\n                /* \"#utility.yul\":10048:10126   */\n              tag_225\n              jump\t// in\n            tag_274:\n                /* \"#utility.yul\":10040:10126   */\n              swap1\n              pop\n                /* \"#utility.yul\":10136:10208   */\n              tag_275\n                /* \"#utility.yul\":10204:10206   */\n              0x20\n                /* \"#utility.yul\":10193:10202   */\n              dup4\n                /* \"#utility.yul\":10189:10207   */\n              add\n                /* \"#utility.yul\":10180:10186   */\n              dup6\n                /* \"#utility.yul\":10136:10208   */\n              tag_264\n              jump\t// in\n            tag_275:\n                /* \"#utility.yul\":10218:10284   */\n              tag_276\n                /* \"#utility.yul\":10280:10282   */\n              0x40\n                /* \"#utility.yul\":10269:10278   */\n              dup4\n                /* \"#utility.yul\":10265:10283   */\n              add\n                /* \"#utility.yul\":10256:10262   */\n              dup5\n                /* \"#utility.yul\":10218:10284   */\n              tag_212\n              jump\t// in\n            tag_276:\n                /* \"#utility.yul\":9770:10291   */\n              swap5\n              swap4\n              pop\n              pop\n              pop\n              pop\n              jump\t// out\n                /* \"#utility.yul\":10297:10716   */\n            tag_106:\n                /* \"#utility.yul\":10463:10467   */\n              0x00\n                /* \"#utility.yul\":10501:10503   */\n              0x20\n                /* \"#utility.yul\":10490:10499   */\n              dup3\n                /* \"#utility.yul\":10486:10504   */\n              add\n                /* \"#utility.yul\":10478:10504   */\n              swap1\n              pop\n                /* \"#utility.yul\":10550:10559   */\n              dup2\n                /* \"#utility.yul\":10544:10548   */\n              dup2\n                /* \"#utility.yul\":10540:10560   */\n              sub\n                /* \"#utility.yul\":10536:10537   */\n              0x00\n                /* \"#utility.yul\":10525:10534   */\n              dup4\n                /* \"#utility.yul\":10521:10538   */\n              add\n                /* \"#utility.yul\":10514:10561   */\n              mstore\n                /* \"#utility.yul\":10578:10709   */\n              tag_278\n                /* \"#utility.yul\":10704:10708   */\n              dup2\n                /* \"#utility.yul\":10578:10709   */\n              tag_238\n              jump\t// in\n            tag_278:\n                /* \"#utility.yul\":10570:10709   */\n              swap1\n              pop\n                /* \"#utility.yul\":10297:10716   */\n              swap2\n              swap1\n              pop\n              jump\t// out\n                /* \"#utility.yul\":10722:11141   */\n            tag_102:\n                /* \"#utility.yul\":10888:10892   */\n              0x00\n                /* \"#utility.yul\":10926:10928   */\n              0x20\n                /* \"#utility.yul\":10915:10924   */\n              dup3\n                /* \"#utility.yul\":10911:10929   */\n              add\n                /* \"#utility.yul\":10903:10929   */\n              swap1\n              pop\n                /* \"#utility.yul\":10975:10984   */\n              dup2\n                /* \"#utility.yul\":10969:10973   */\n              dup2\n                /* \"#utility.yul\":10965:10985   */\n              sub\n                /* \"#utility.yul\":10961:10962   */\n              0x00\n                /* \"#utility.yul\":10950:10959   */\n              dup4\n                /* \"#utility.yul\":10946:10963   */\n              add\n                /* \"#utility.yul\":10939:10986   */\n              mstore\n                /* \"#utility.yul\":11003:11134   */\n              tag_280\n                /* \"#utility.yul\":11129:11133   */\n              dup2\n                /* \"#utility.yul\":11003:11134   */\n              tag_243\n              jump\t// in\n            tag_280:\n                /* \"#utility.yul\":10995:11134   */\n              swap1\n              pop\n                /* \"#utility.yul\":10722:11141   */\n              swap2\n              swap1\n              pop\n              jump\t// out\n                /* \"#utility.yul\":11147:11524   */\n            tag_26:\n                /* \"#utility.yul\":11292:11296   */\n              0x00\n                /* \"#utility.yul\":11330:11332   */\n              0x20\n                /* \"#utility.yul\":11319:11328   */\n              dup3\n                /* \"#utility.yul\":11315:11333   */\n              add\n                /* \"#utility.yul\":11307:11333   */\n              swap1\n              pop\n                /* \"#utility.yul\":11379:11388   */\n              dup2\n                /* \"#utility.yul\":11373:11377   */\n              dup2\n                /* \"#utility.yul\":11369:11389   */\n              sub\n                /* \"#utility.yul\":11365:11366   */\n              0x00\n                /* \"#utility.yul\":11354:11363   */\n              dup4\n                /* \"#utility.yul\":11350:11367   */\n              add\n                /* \"#utility.yul\":11343:11390   */\n              mstore\n                /* \"#utility.yul\":11407:11517   */\n              tag_282\n                /* \"#utility.yul\":11512:11516   */\n              dup2\n                /* \"#utility.yul\":11503:11509   */\n              dup5\n                /* \"#utility.yul\":11407:11517   */\n              tag_248\n              jump\t// in\n            tag_282:\n                /* \"#utility.yul\":11399:11517   */\n              swap1\n              pop\n                /* \"#utility.yul\":11147:11524   */\n              swap3\n              swap2\n              pop\n              pop\n              jump\t// out\n                /* \"#utility.yul\":11530:11752   */\n            tag_36:\n                /* \"#utility.yul\":11623:11627   */\n              0x00\n                /* \"#utility.yul\":11661:11663   */\n              0x20\n                /* \"#utility.yul\":11650:11659   */\n              dup3\n                /* \"#utility.yul\":11646:11664   */\n              add\n                /* \"#utility.yul\":11638:11664   */\n              swap1\n              pop\n                /* \"#utility.yul\":11674:11745   */\n              tag_284\n                /* \"#utility.yul\":11742:11743   */\n              0x00\n                /* \"#utility.yul\":11731:11740   */\n              dup4\n                /* \"#utility.yul\":11727:11744   */\n              add\n                /* \"#utility.yul\":11718:11724   */\n              dup5\n                /* \"#utility.yul\":11674:11745   */\n              tag_264\n              jump\t// in\n            tag_284:\n                /* \"#utility.yul\":11530:11752   */\n              swap3\n              swap2\n              pop\n              pop\n              jump\t// out\n                /* \"#utility.yul\":11758:11887   */\n            tag_146:\n                /* \"#utility.yul\":11792:11798   */\n              0x00\n                /* \"#utility.yul\":11819:11839   */\n              tag_286\n              tag_287\n              jump\t// in\n            tag_286:\n                /* \"#utility.yul\":11809:11839   */\n              swap1\n              pop\n                /* \"#utility.yul\":11848:11881   */\n              tag_288\n                /* \"#utility.yul\":11876:11880   */\n              dup3\n                /* \"#utility.yul\":11868:11874   */\n              dup3\n                /* \"#utility.yul\":11848:11881   */\n              tag_289\n              jump\t// in\n            tag_288:\n                /* \"#utility.yul\":11758:11887   */\n              swap2\n              swap1\n              pop\n              jump\t// out\n                /* \"#utility.yul\":11893:11968   */\n            tag_287:\n                /* \"#utility.yul\":11926:11932   */\n              0x00\n                /* \"#utility.yul\":11959:11961   */\n              0x40\n                /* \"#utility.yul\":11953:11962   */\n              mload\n                /* \"#utility.yul\":11943:11962   */\n              swap1\n              pop\n                /* \"#utility.yul\":11893:11968   */\n              swap1\n              jump\t// out\n                /* \"#utility.yul\":11974:12282   */\n            tag_145:\n                /* \"#utility.yul\":12036:12040   */\n              0x00\n                /* \"#utility.yul\":12126:12144   */\n              0xffffffffffffffff\n                /* \"#utility.yul\":12118:12124   */\n              dup3\n                /* \"#utility.yul\":12115:12145   */\n              gt\n                /* \"#utility.yul\":12112:12168   */\n              iszero\n              tag_292\n              jumpi\n                /* \"#utility.yul\":12148:12166   */\n              tag_293\n              tag_294\n              jump\t// in\n            tag_293:\n                /* \"#utility.yul\":12112:12168   */\n            tag_292:\n                /* \"#utility.yul\":12186:12215   */\n              tag_295\n                /* \"#utility.yul\":12208:12214   */\n              dup3\n                /* \"#utility.yul\":12186:12215   */\n              tag_224\n              jump\t// in\n            tag_295:\n                /* \"#utility.yul\":12178:12215   */\n              swap1\n              pop\n                /* \"#utility.yul\":12270:12274   */\n              0x20\n                /* \"#utility.yul\":12264:12268   */\n              dup2\n                /* \"#utility.yul\":12260:12275   */\n              add\n                /* \"#utility.yul\":12252:12275   */\n              swap1\n              pop\n                /* \"#utility.yul\":11974:12282   */\n              swap2\n              swap1\n              pop\n              jump\t// out\n                /* \"#utility.yul\":12288:12441   */\n            tag_201:\n                /* \"#utility.yul\":12376:12380   */\n              0x00\n                /* \"#utility.yul\":12399:12402   */\n              dup2\n                /* \"#utility.yul\":12391:12402   */\n              swap1\n              pop\n                /* \"#utility.yul\":12429:12433   */\n              0x20\n                /* \"#utility.yul\":12424:12427   */\n              dup3\n                /* \"#utility.yul\":12420:12434   */\n              add\n                /* \"#utility.yul\":12412:12434   */\n              swap1\n              pop\n                /* \"#utility.yul\":12288:12441   */\n              swap2\n              swap1\n              pop\n              jump\t// out\n                /* \"#utility.yul\":12447:12582   */\n            tag_197:\n                /* \"#utility.yul\":12535:12541   */\n              0x00\n                /* \"#utility.yul\":12569:12574   */\n              dup2\n                /* \"#utility.yul\":12563:12575   */\n              mload\n                /* \"#utility.yul\":12553:12575   */\n              swap1\n              pop\n                /* \"#utility.yul\":12447:12582   */\n              swap2\n              swap1\n              pop\n              jump\t// out\n                /* \"#utility.yul\":12588:12687   */\n            tag_218:\n                /* \"#utility.yul\":12640:12646   */\n              0x00\n                /* \"#utility.yul\":12674:12679   */\n              dup2\n                /* \"#utility.yul\":12668:12680   */\n              mload\n                /* \"#utility.yul\":12658:12680   */\n              swap1\n              pop\n                /* \"#utility.yul\":12588:12687   */\n              swap2\n              swap1\n              pop\n              jump\t// out\n                /* \"#utility.yul\":12693:12827   */\n            tag_207:\n                /* \"#utility.yul\":12784:12788   */\n              0x00\n                /* \"#utility.yul\":12816:12820   */\n              0x20\n                /* \"#utility.yul\":12811:12814   */\n              dup3\n                /* \"#utility.yul\":12807:12821   */\n              add\n                /* \"#utility.yul\":12799:12821   */\n              swap1\n              pop\n                /* \"#utility.yul\":12693:12827   */\n              swap2\n              swap1\n              pop\n              jump\t// out\n                /* \"#utility.yul\":12833:13028   */\n            tag_199:\n                /* \"#utility.yul\":12943:12954   */\n              0x00\n                /* \"#utility.yul\":12977:12983   */\n              dup3\n                /* \"#utility.yul\":12972:12975   */\n              dup3\n                /* \"#utility.yul\":12965:12984   */\n              mstore\n                /* \"#utility.yul\":13017:13021   */\n              0x20\n                /* \"#utility.yul\":13012:13015   */\n              dup3\n                /* \"#utility.yul\":13008:13022   */\n              add\n                /* \"#utility.yul\":12993:13022   */\n              swap1\n              pop\n                /* \"#utility.yul\":12833:13028   */\n              swap3\n              swap2\n              pop\n              pop\n              jump\t// out\n                /* \"#utility.yul\":13034:13193   */\n            tag_220:\n                /* \"#utility.yul\":13108:13119   */\n              0x00\n                /* \"#utility.yul\":13142:13148   */\n              dup3\n                /* \"#utility.yul\":13137:13140   */\n              dup3\n                /* \"#utility.yul\":13130:13149   */\n              mstore\n                /* \"#utility.yul\":13182:13186   */\n              0x20\n                /* \"#utility.yul\":13177:13180   */\n              dup3\n                /* \"#utility.yul\":13173:13187   */\n              add\n                /* \"#utility.yul\":13158:13187   */\n              swap1\n              pop\n                /* \"#utility.yul\":13034:13193   */\n              swap3\n              swap2\n              pop\n              pop\n              jump\t// out\n                /* \"#utility.yul\":13199:13368   */\n            tag_229:\n                /* \"#utility.yul\":13283:13294   */\n              0x00\n                /* \"#utility.yul\":13317:13323   */\n              dup3\n                /* \"#utility.yul\":13312:13315   */\n              dup3\n                /* \"#utility.yul\":13305:13324   */\n              mstore\n                /* \"#utility.yul\":13357:13361   */\n              0x20\n                /* \"#utility.yul\":13352:13355   */\n              dup3\n                /* \"#utility.yul\":13348:13362   */\n              add\n                /* \"#utility.yul\":13333:13362   */\n              swap1\n              pop\n                /* \"#utility.yul\":13199:13368   */\n              swap3\n              swap2\n              pop\n              pop\n              jump\t// out\n                /* \"#utility.yul\":13374:13522   */\n            tag_236:\n                /* \"#utility.yul\":13476:13487   */\n              0x00\n                /* \"#utility.yul\":13513:13516   */\n              dup2\n                /* \"#utility.yul\":13498:13516   */\n              swap1\n              pop\n                /* \"#utility.yul\":13374:13522   */\n              swap3\n              swap2\n              pop\n              pop\n              jump\t// out\n                /* \"#utility.yul\":13528:13624   */\n            tag_190:\n                /* \"#utility.yul\":13565:13572   */\n              0x00\n                /* \"#utility.yul\":13594:13618   */\n              tag_305\n                /* \"#utility.yul\":13612:13617   */\n              dup3\n                /* \"#utility.yul\":13594:13618   */\n              tag_306\n              jump\t// in\n            tag_305:\n                /* \"#utility.yul\":13583:13618   */\n              swap1\n              pop\n                /* \"#utility.yul\":13528:13624   */\n              swap2\n              swap1\n              pop\n              jump\t// out\n                /* \"#utility.yul\":13630:13720   */\n            tag_211:\n                /* \"#utility.yul\":13664:13671   */\n              0x00\n                /* \"#utility.yul\":13707:13712   */\n              dup2\n                /* \"#utility.yul\":13700:13713   */\n              iszero\n                /* \"#utility.yul\":13693:13714   */\n              iszero\n                /* \"#utility.yul\":13682:13714   */\n              swap1\n              pop\n                /* \"#utility.yul\":13630:13720   */\n              swap2\n              swap1\n              pop\n              jump\t// out\n                /* \"#utility.yul\":13726:13852   */\n            tag_306:\n                /* \"#utility.yul\":13763:13770   */\n              0x00\n                /* \"#utility.yul\":13803:13845   */\n              0xffffffffffffffffffffffffffffffffffffffff\n                /* \"#utility.yul\":13796:13801   */\n              dup3\n                /* \"#utility.yul\":13792:13846   */\n              and\n                /* \"#utility.yul\":13781:13846   */\n              swap1\n              pop\n                /* \"#utility.yul\":13726:13852   */\n              swap2\n              swap1\n              pop\n              jump\t// out\n                /* \"#utility.yul\":13858:13935   */\n            tag_263:\n                /* \"#utility.yul\":13895:13902   */\n              0x00\n                /* \"#utility.yul\":13924:13929   */\n              dup2\n                /* \"#utility.yul\":13913:13929   */\n              swap1\n              pop\n                /* \"#utility.yul\":13858:13935   */\n              swap2\n              swap1\n              pop\n              jump\t// out\n                /* \"#utility.yul\":13941:14095   */\n            tag_151:\n                /* \"#utility.yul\":14025:14031   */\n              dup3\n                /* \"#utility.yul\":14020:14023   */\n              dup2\n                /* \"#utility.yul\":14015:14018   */\n              dup4\n                /* \"#utility.yul\":14002:14032   */\n              calldatacopy\n                /* \"#utility.yul\":14087:14088   */\n              0x00\n                /* \"#utility.yul\":14078:14084   */\n              dup4\n                /* \"#utility.yul\":14073:14076   */\n              dup4\n                /* \"#utility.yul\":14069:14085   */\n              add\n                /* \"#utility.yul\":14062:14089   */\n              mstore\n                /* \"#utility.yul\":13941:14095   */\n              pop\n              pop\n              pop\n              jump\t// out\n                /* \"#utility.yul\":14101:14408   */\n            tag_222:\n                /* \"#utility.yul\":14169:14170   */\n              0x00\n                /* \"#utility.yul\":14179:14292   */\n            tag_312:\n                /* \"#utility.yul\":14193:14199   */\n              dup4\n                /* \"#utility.yul\":14190:14191   */\n              dup2\n                /* \"#utility.yul\":14187:14200   */\n              lt\n                /* \"#utility.yul\":14179:14292   */\n              iszero\n              tag_314\n              jumpi\n                /* \"#utility.yul\":14278:14279   */\n              dup1\n                /* \"#utility.yul\":14273:14276   */\n              dup3\n                /* \"#utility.yul\":14269:14280   */\n              add\n                /* \"#utility.yul\":14263:14281   */\n              mload\n                /* \"#utility.yul\":14259:14260   */\n              dup2\n                /* \"#utility.yul\":14254:14257   */\n              dup5\n                /* \"#utility.yul\":14250:14261   */\n              add\n                /* \"#utility.yul\":14243:14282   */\n              mstore\n                /* \"#utility.yul\":14215:14217   */\n              0x20\n                /* \"#utility.yul\":14212:14213   */\n              dup2\n                /* \"#utility.yul\":14208:14218   */\n              add\n                /* \"#utility.yul\":14203:14218   */\n              swap1\n              pop\n                /* \"#utility.yul\":14179:14292   */\n              jump(tag_312)\n            tag_314:\n                /* \"#utility.yul\":14310:14316   */\n              dup4\n                /* \"#utility.yul\":14307:14308   */\n              dup2\n                /* \"#utility.yul\":14304:14317   */\n              gt\n                /* \"#utility.yul\":14301:14402   */\n              iszero\n              tag_315\n              jumpi\n                /* \"#utility.yul\":14390:14391   */\n              0x00\n                /* \"#utility.yul\":14381:14387   */\n              dup5\n                /* \"#utility.yul\":14376:14379   */\n              dup5\n                /* \"#utility.yul\":14372:14388   */\n              add\n                /* \"#utility.yul\":14365:14392   */\n              mstore\n                /* \"#utility.yul\":14301:14402   */\n            tag_315:\n                /* \"#utility.yul\":14150:14408   */\n              pop\n                /* \"#utility.yul\":14101:14408   */\n              pop\n              pop\n              pop\n              jump\t// out\n                /* \"#utility.yul\":14414:14734   */\n            tag_45:\n                /* \"#utility.yul\":14458:14464   */\n              0x00\n                /* \"#utility.yul\":14495:14496   */\n              0x02\n                /* \"#utility.yul\":14489:14493   */\n              dup3\n                /* \"#utility.yul\":14485:14497   */\n              div\n                /* \"#utility.yul\":14475:14497   */\n              swap1\n              pop\n                /* \"#utility.yul\":14542:14543   */\n              0x01\n                /* \"#utility.yul\":14536:14540   */\n              dup3\n                /* \"#utility.yul\":14532:14544   */\n              and\n                /* \"#utility.yul\":14563:14581   */\n              dup1\n                /* \"#utility.yul\":14553:14634   */\n              tag_317\n              jumpi\n                /* \"#utility.yul\":14619:14623   */\n              0x7f\n                /* \"#utility.yul\":14611:14617   */\n              dup3\n                /* \"#utility.yul\":14607:14624   */\n              and\n                /* \"#utility.yul\":14597:14624   */\n              swap2\n              pop\n                /* \"#utility.yul\":14553:14634   */\n            tag_317:\n                /* \"#utility.yul\":14681:14683   */\n              0x20\n                /* \"#utility.yul\":14673:14679   */\n              dup3\n                /* \"#utility.yul\":14670:14684   */\n              lt\n                /* \"#utility.yul\":14650:14668   */\n              dup2\n                /* \"#utility.yul\":14647:14685   */\n              eq\n                /* \"#utility.yul\":14644:14728   */\n              iszero\n              tag_318\n              jumpi\n                /* \"#utility.yul\":14700:14718   */\n              tag_319\n              tag_320\n              jump\t// in\n            tag_319:\n                /* \"#utility.yul\":14644:14728   */\n            tag_318:\n                /* \"#utility.yul\":14465:14734   */\n              pop\n                /* \"#utility.yul\":14414:14734   */\n              swap2\n              swap1\n              pop\n              jump\t// out\n                /* \"#utility.yul\":14740:15021   */\n            tag_289:\n                /* \"#utility.yul\":14823:14850   */\n              tag_322\n                /* \"#utility.yul\":14845:14849   */\n              dup3\n                /* \"#utility.yul\":14823:14850   */\n              tag_224\n              jump\t// in\n            tag_322:\n                /* \"#utility.yul\":14815:14821   */\n              dup2\n                /* \"#utility.yul\":14811:14851   */\n              add\n                /* \"#utility.yul\":14953:14959   */\n              dup2\n                /* \"#utility.yul\":14941:14951   */\n              dup2\n                /* \"#utility.yul\":14938:14960   */\n              lt\n                /* \"#utility.yul\":14917:14935   */\n              0xffffffffffffffff\n                /* \"#utility.yul\":14905:14915   */\n              dup3\n                /* \"#utility.yul\":14902:14936   */\n              gt\n                /* \"#utility.yul\":14899:14961   */\n              or\n                /* \"#utility.yul\":14896:14984   */\n              iszero\n              tag_323\n              jumpi\n                /* \"#utility.yul\":14964:14982   */\n              tag_324\n              tag_294\n              jump\t// in\n            tag_324:\n                /* \"#utility.yul\":14896:14984   */\n            tag_323:\n                /* \"#utility.yul\":15004:15014   */\n              dup1\n                /* \"#utility.yul\":15000:15002   */\n              0x40\n                /* \"#utility.yul\":14993:15015   */\n              mstore\n                /* \"#utility.yul\":14783:15021   */\n              pop\n                /* \"#utility.yul\":14740:15021   */\n              pop\n              pop\n              jump\t// out\n                /* \"#utility.yul\":15027:15260   */\n            tag_59:\n                /* \"#utility.yul\":15066:15069   */\n              0x00\n                /* \"#utility.yul\":15089:15113   */\n              tag_326\n                /* \"#utility.yul\":15107:15112   */\n              dup3\n                /* \"#utility.yul\":15089:15113   */\n              tag_263\n              jump\t// in\n            tag_326:\n                /* \"#utility.yul\":15080:15113   */\n              swap2\n              pop\n                /* \"#utility.yul\":15135:15201   */\n              0xffffffffffffffffffffffffffffffffffffffffffffffffffffffffffffffff\n                /* \"#utility.yul\":15128:15133   */\n              dup3\n                /* \"#utility.yul\":15125:15202   */\n              eq\n                /* \"#utility.yul\":15122:15225   */\n              iszero\n              tag_327\n              jumpi\n                /* \"#utility.yul\":15205:15223   */\n              tag_328\n              tag_329\n              jump\t// in\n            tag_328:\n                /* \"#utility.yul\":15122:15225   */\n            tag_327:\n                /* \"#utility.yul\":15252:15253   */\n              0x01\n                /* \"#utility.yul\":15245:15250   */\n              dup3\n                /* \"#utility.yul\":15241:15254   */\n              add\n                /* \"#utility.yul\":15234:15254   */\n              swap1\n              pop\n                /* \"#utility.yul\":15027:15260   */\n              swap2\n              swap1\n              pop\n              jump\t// out\n                /* \"#utility.yul\":15266:15446   */\n            tag_329:\n                /* \"#utility.yul\":15314:15391   */\n              0x4e487b7100000000000000000000000000000000000000000000000000000000\n                /* \"#utility.yul\":15311:15312   */\n              0x00\n                /* \"#utility.yul\":15304:15392   */\n              mstore\n                /* \"#utility.yul\":15411:15415   */\n              0x11\n                /* \"#utility.yul\":15408:15409   */\n              0x04\n                /* \"#utility.yul\":15401:15416   */\n              mstore\n                /* \"#utility.yul\":15435:15439   */\n              0x24\n                /* \"#utility.yul\":15432:15433   */\n              0x00\n                /* \"#utility.yul\":15425:15440   */\n              revert\n                /* \"#utility.yul\":15452:15632   */\n            tag_320:\n                /* \"#utility.yul\":15500:15577   */\n              0x4e487b7100000000000000000000000000000000000000000000000000000000\n                /* \"#utility.yul\":15497:15498   */\n              0x00\n                /* \"#utility.yul\":15490:15578   */\n              mstore\n                /* \"#utility.yul\":15597:15601   */\n              0x22\n                /* \"#utility.yul\":15594:15595   */\n              0x04\n                /* \"#utility.yul\":15587:15602   */\n              mstore\n                /* \"#utility.yul\":15621:15625   */\n              0x24\n                /* \"#utility.yul\":15618:15619   */\n              0x00\n                /* \"#utility.yul\":15611:15626   */\n              revert\n                /* \"#utility.yul\":15638:15818   */\n            tag_88:\n                /* \"#utility.yul\":15686:15763   */\n              0x4e487b7100000000000000000000000000000000000000000000000000000000\n                /* \"#utility.yul\":15683:15684   */\n              0x00\n                /* \"#utility.yul\":15676:15764   */\n              mstore\n                /* \"#utility.yul\":15783:15787   */\n              0x32\n                /* \"#utility.yul\":15780:15781   */\n              0x04\n                /* \"#utility.yul\":15773:15788   */\n              mstore\n                /* \"#utility.yul\":15807:15811   */\n              0x24\n                /* \"#utility.yul\":15804:15805   */\n              0x00\n                /* \"#utility.yul\":15797:15812   */\n              revert\n                /* \"#utility.yul\":15824:16004   */\n            tag_294:\n                /* \"#utility.yul\":15872:15949   */\n              0x4e487b7100000000000000000000000000000000000000000000000000000000\n                /* \"#utility.yul\":15869:15870   */\n              0x00\n                /* \"#utility.yul\":15862:15950   */\n              mstore\n                /* \"#utility.yul\":15969:15973   */\n              0x41\n                /* \"#utility.yul\":15966:15967   */\n              0x04\n                /* \"#utility.yul\":15959:15974   */\n              mstore\n                /* \"#utility.yul\":15993:15997   */\n              0x24\n                /* \"#utility.yul\":15990:15991   */\n              0x00\n                /* \"#utility.yul\":15983:15998   */\n              revert\n                /* \"#utility.yul\":16010:16127   */\n            tag_156:\n                /* \"#utility.yul\":16119:16120   */\n              0x00\n                /* \"#utility.yul\":16116:16117   */\n              dup1\n                /* \"#utility.yul\":16109:16121   */\n              revert\n                /* \"#utility.yul\":16133:16250   */\n            tag_149:\n                /* \"#utility.yul\":16242:16243   */\n              0x00\n                /* \"#utility.yul\":16239:16240   */\n              dup1\n                /* \"#utility.yul\":16232:16244   */\n              revert\n                /* \"#utility.yul\":16256:16373   */\n            tag_168:\n                /* \"#utility.yul\":16365:16366   */\n              0x00\n                /* \"#utility.yul\":16362:16363   */\n              dup1\n                /* \"#utility.yul\":16355:16367   */\n              revert\n                /* \"#utility.yul\":16379:16496   */\n            tag_165:\n                /* \"#utility.yul\":16488:16489   */\n              0x00\n                /* \"#utility.yul\":16485:16486   */\n              dup1\n                /* \"#utility.yul\":16478:16490   */\n              revert\n                /* \"#utility.yul\":16502:16604   */\n            tag_224:\n                /* \"#utility.yul\":16543:16549   */\n              0x00\n                /* \"#utility.yul\":16594:16596   */\n              0x1f\n                /* \"#utility.yul\":16590:16597   */\n              not\n                /* \"#utility.yul\":16585:16587   */\n              0x1f\n                /* \"#utility.yul\":16578:16583   */\n              dup4\n                /* \"#utility.yul\":16574:16588   */\n              add\n                /* \"#utility.yul\":16570:16598   */\n              and\n                /* \"#utility.yul\":16560:16598   */\n              swap1\n              pop\n                /* \"#utility.yul\":16502:16604   */\n              swap2\n              swap1\n              pop\n              jump\t// out\n                /* \"#utility.yul\":16610:16786   */\n            tag_242:\n                /* \"#utility.yul\":16750:16778   */\n              0x6368616972706572736f6e206973206e6f7420616c7269677468000000000000\n                /* \"#utility.yul\":16746:16747   */\n              0x00\n                /* \"#utility.yul\":16738:16744   */\n              dup3\n                /* \"#utility.yul\":16734:16748   */\n              add\n                /* \"#utility.yul\":16727:16779   */\n              mstore\n                /* \"#utility.yul\":16610:16786   */\n              pop\n              jump\t// out\n                /* \"#utility.yul\":16792:16961   */\n            tag_247:\n                /* \"#utility.yul\":16932:16953   */\n              0x766f74657220616c726561647920766f74656400000000000000000000000000\n                /* \"#utility.yul\":16928:16929   */\n              0x00\n                /* \"#utility.yul\":16920:16926   */\n              dup3\n                /* \"#utility.yul\":16916:16930   */\n              add\n                /* \"#utility.yul\":16909:16954   */\n              mstore\n                /* \"#utility.yul\":16792:16961   */\n              pop\n              jump\t// out\n                /* \"#utility.yul\":16967:17089   */\n            tag_161:\n                /* \"#utility.yul\":17040:17064   */\n              tag_342\n                /* \"#utility.yul\":17058:17063   */\n              dup2\n                /* \"#utility.yul\":17040:17064   */\n              tag_263\n              jump\t// in\n            tag_342:\n                /* \"#utility.yul\":17033:17038   */\n              dup2\n                /* \"#utility.yul\":17030:17065   */\n              eq\n                /* \"#utility.yul\":17020:17083   */\n              tag_343\n              jumpi\n                /* \"#utility.yul\":17079:17080   */\n              0x00\n                /* \"#utility.yul\":17076:17077   */\n              dup1\n                /* \"#utility.yul\":17069:17081   */\n              revert\n                /* \"#utility.yul\":17020:17083   */\n            tag_343:\n                /* \"#utility.yul\":16967:17089   */\n              pop\n              jump\t// out\n\n            auxdata: 0xa2646970667358221220a71b0157699fa5fbbcc3fb4dd9cf48f581f2679b93145d66ad2710c745883e8d64736f6c63430008070033\n        }\n    }\n\n    auxdata: 0xa2646970667358221220289674a7e5ac340b4e197395aa14f1e80033ecabffb76801b4ddbd75a45732a764736f6c63430008070033\n}\n",
				"bytecode": {
					"linkReferences": {},
					"object": "608060405234801561001057600080fd5b506120fc806100206000396000f3fe60806040523480156200001157600080fd5b5060043610620000525760003560e01c806386c1d5fd14620000575780638ecd58e914620000775780639ff39c9e1462000099578063a20fe1c714620000cf575b600080fd5b6200007560048036038101906200006f9190620003ac565b62000105565b005b620000816200020b565b60405162000090919062000576565b60405180910390f35b620000b76004803603810190620000b191906200035b565b62000217565b604051620000c6919062000508565b60405180910390f35b620000ed6004803603810190620000e7919062000412565b62000261565b604051620000fc919062000525565b60405180910390f35b600082826040516200011790620002a1565b6200012492919062000542565b604051809103906000f08015801562000141573d6000803e3d6000fd5b50905080600184604051620001579190620004ef565b908152602001604051809103902060006101000a81548173ffffffffffffffffffffffffffffffffffffffff021916908373ffffffffffffffffffffffffffffffffffffffff1602179055506000819080600181540180825580915050600190039060005260206000200160009091909190916101000a81548173ffffffffffffffffffffffffffffffffffffffff021916908373ffffffffffffffffffffffffffffffffffffffff160217905550505050565b60008080549050905090565b60006001826040516200022b9190620004ef565b908152602001604051809103902060009054906101000a900473ffffffffffffffffffffffffffffffffffffffff169050919050565b600081815481106200027257600080fd5b906000526020600020016000915054906101000a900473ffffffffffffffffffffffffffffffffffffffff1681565b611930806200079783390190565b6000620002c6620002c084620005bc565b62000593565b905082815260208101848484011115620002e557620002e462000742565b5b620002f284828562000693565b509392505050565b6000813590506200030b8162000762565b92915050565b600082601f8301126200032957620003286200073d565b5b81356200033b848260208601620002af565b91505092915050565b60008135905062000355816200077c565b92915050565b6000602082840312156200037457620003736200074c565b5b600082013567ffffffffffffffff81111562000395576200039462000747565b5b620003a38482850162000311565b91505092915050565b60008060408385031215620003c657620003c56200074c565b5b600083013567ffffffffffffffff811115620003e757620003e662000747565b5b620003f58582860162000311565b92505060206200040885828601620002fa565b9150509250929050565b6000602082840312156200042b576200042a6200074c565b5b60006200043b8482850162000344565b91505092915050565b6200044f8162000619565b82525050565b620004608162000657565b82525050565b60006200047382620005f2565b6200047f8185620005fd565b935062000491818560208601620006a2565b6200049c8162000751565b840191505092915050565b6000620004b482620005f2565b620004c081856200060e565b9350620004d2818560208601620006a2565b80840191505092915050565b620004e9816200064d565b82525050565b6000620004fd8284620004a7565b915081905092915050565b60006020820190506200051f600083018462000444565b92915050565b60006020820190506200053c600083018462000455565b92915050565b600060408201905081810360008301526200055e818562000466565b90506200056f602083018462000444565b9392505050565b60006020820190506200058d6000830184620004de565b92915050565b60006200059f620005b2565b9050620005ad8282620006d8565b919050565b6000604051905090565b600067ffffffffffffffff821115620005da57620005d96200070e565b5b620005e58262000751565b9050602081019050919050565b600081519050919050565b600082825260208201905092915050565b600081905092915050565b600062000626826200062d565b9050919050565b600073ffffffffffffffffffffffffffffffffffffffff82169050919050565b6000819050919050565b600062000664826200066b565b9050919050565b600062000678826200067f565b9050919050565b60006200068c826200062d565b9050919050565b82818337600083830152505050565b60005b83811015620006c2578082015181840152602081019050620006a5565b83811115620006d2576000848401525b50505050565b620006e38262000751565b810181811067ffffffffffffffff821117156200070557620007046200070e565b5b80604052505050565b7f4e487b7100000000000000000000000000000000000000000000000000000000600052604160045260246000fd5b600080fd5b600080fd5b600080fd5b600080fd5b6000601f19601f8301169050919050565b6200076d8162000619565b81146200077957600080fd5b50565b62000787816200064d565b81146200079357600080fd5b5056fe60806040523480156200001157600080fd5b5060405162001930380380620019308339818101604052810190620000379190620001dd565b806000806101000a81548173ffffffffffffffffffffffffffffffffffffffff021916908373ffffffffffffffffffffffffffffffffffffffff16021790555081600190805190602001906200008f92919062000098565b50505062000415565b828054620000a6906200030c565b90600052602060002090601f016020900481019282620000ca576000855562000116565b82601f10620000e557805160ff191683800117855562000116565b8280016001018555821562000116579182015b8281111562000115578251825591602001919060010190620000f8565b5b50905062000125919062000129565b5090565b5b80821115620001445760008160009055506001016200012a565b5090565b60006200015f62000159846200026c565b62000243565b9050828152602081018484840111156200017e576200017d620003db565b5b6200018b848285620002d6565b509392505050565b600081519050620001a481620003fb565b92915050565b600082601f830112620001c257620001c1620003d6565b5b8151620001d484826020860162000148565b91505092915050565b60008060408385031215620001f757620001f6620003e5565b5b600083015167ffffffffffffffff811115620002185762000217620003e0565b5b6200022685828601620001aa565b9250506020620002398582860162000193565b9150509250929050565b60006200024f62000262565b90506200025d828262000342565b919050565b6000604051905090565b600067ffffffffffffffff8211156200028a5762000289620003a7565b5b6200029582620003ea565b9050602081019050919050565b6000620002af82620002b6565b9050919050565b600073ffffffffffffffffffffffffffffffffffffffff82169050919050565b60005b83811015620002f6578082015181840152602081019050620002d9565b8381111562000306576000848401525b50505050565b600060028204905060018216806200032557607f821691505b602082108114156200033c576200033b62000378565b5b50919050565b6200034d82620003ea565b810181811067ffffffffffffffff821117156200036f576200036e620003a7565b5b80604052505050565b7f4e487b7100000000000000000000000000000000000000000000000000000000600052602260045260246000fd5b7f4e487b7100000000000000000000000000000000000000000000000000000000600052604160045260246000fd5b600080fd5b600080fd5b600080fd5b600080fd5b6000601f19601f8301169050919050565b6200040681620002a2565b81146200041257600080fd5b50565b61150b80620004256000396000f3fe6080604052600436106100555760003560e01c80632e4176cf1461005a578063302a2a461461008557806343ef7e85146100c45780634f5cbc1a1461010157806364b9fb891461012c578063e8d5940d14610157575b600080fd5b34801561006657600080fd5b5061006f610187565b60405161007c9190611096565b60405180910390f35b34801561009157600080fd5b506100ac60048036038101906100a79190610d9f565b6101ab565b6040516100bb939291906110d3565b60405180910390f35b3480156100d057600080fd5b506100eb60048036038101906100e69190610cde565b61027a565b6040516100f89190611151565b60405180910390f35b34801561010d57600080fd5b506101166105ed565b60405161012391906110b1565b60405180910390f35b34801561013857600080fd5b5061014161067b565b60405161014e9190611173565b60405180910390f35b610171600480360381019061016c9190610d27565b610681565b60405161017e9190611151565b60405180910390f35b60008054906101000a900473ffffffffffffffffffffffffffffffffffffffff1681565b600481815481106101bb57600080fd5b90600052602060002090600402016000915090508060000180546101de906112df565b80601f016020809104026020016040519081016040528092919081815260200182805461020a906112df565b80156102575780601f1061022c57610100808354040283529160200191610257565b820191906000526020600020905b81548152906001019060200180831161023a57829003601f168201915b5050505050908060010154908060030160009054906101000a900460ff16905083565b610282610b8c565b600060046001816001815401808255809150500390600052602060002090600402019050828160000190805190602001906102be929190610bb6565b50600254816001018190555060018160030160006101000a81548160ff0219169083151502179055506002546003846040516102fa919061107f565b9081526020016040518091039020819055506002600081548092919061031f90611342565b919050555080604051806080016040529081600082018054610340906112df565b80601f016020809104026020016040519081016040528092919081815260200182805461036c906112df565b80156103b95780601f1061038e576101008083540402835291602001916103b9565b820191906000526020600020905b81548152906001019060200180831161039c57829003601f168201915b505050505081526020016001820154815260200160028201805480602002602001604051908101604052809291908181526020016000905b828210156105c257838290600052602060002090600502016040518060a0016040529081600082018054610424906112df565b80601f0160208091040260200160405190810160405280929190818152602001828054610450906112df565b801561049d5780601f106104725761010080835404028352916020019161049d565b820191906000526020600020905b81548152906001019060200180831161048057829003601f168201915b505050505081526020016001820160009054906101000a900473ffffffffffffffffffffffffffffffffffffffff1673ffffffffffffffffffffffffffffffffffffffff1673ffffffffffffffffffffffffffffffffffffffff168152602001600282015481526020016003820160009054906101000a900460ff16151515158152602001600482018054610531906112df565b80601f016020809104026020016040519081016040528092919081815260200182805461055d906112df565b80156105aa5780601f1061057f576101008083540402835291602001916105aa565b820191906000526020600020905b81548152906001019060200180831161058d57829003601f168201915b505050505081525050815260200190600101906103f1565b5050505081526020016003820160009054906101000a900460ff161515151581525050915050919050565b600180546105fa906112df565b80601f0160208091040260200160405190810160405280929190818152602001828054610626906112df565b80156106735780601f1061064857610100808354040283529160200191610673565b820191906000526020600020905b81548152906001019060200180831161065657829003601f168201915b505050505081565b60025481565b610689610b8c565b82336000600460038460405161069f919061107f565b908152602001604051809103902054815481106106bf576106be6113e9565b5b9060005260206000209060040201905060005b81600201805490508110156107eb578273ffffffffffffffffffffffffffffffffffffffff1682600201828154811061070e5761070d6113e9565b5b906000526020600020906005020160010160009054906101000a900473ffffffffffffffffffffffffffffffffffffffff1673ffffffffffffffffffffffffffffffffffffffff1614156107d85760001515826002018281548110610776576107756113e9565b5b906000526020600020906005020160030160009054906101000a900460ff161515146107d7576040517f08c379a00000000000000000000000000000000000000000000000000000000081526004016107ce90611131565b60405180910390fd5b5b80806107e390611342565b9150506106d2565b5060008054906101000a900473ffffffffffffffffffffffffffffffffffffffff1673ffffffffffffffffffffffffffffffffffffffff168273ffffffffffffffffffffffffffffffffffffffff16141561087b576040517f08c379a000000000000000000000000000000000000000000000000000000000815260040161087290611111565b60405180910390fd5b6000600460038860405161088f919061107f565b908152602001604051809103902054815481106108af576108ae6113e9565b5b90600052602060002090600402019050806040518060800160405290816000820180546108db906112df565b80601f0160208091040260200160405190810160405280929190818152602001828054610907906112df565b80156109545780601f1061092957610100808354040283529160200191610954565b820191906000526020600020905b81548152906001019060200180831161093757829003601f168201915b505050505081526020016001820154815260200160028201805480602002602001604051908101604052809291908181526020016000905b82821015610b5d57838290600052602060002090600502016040518060a00160405290816000820180546109bf906112df565b80601f01602080910402602001604051908101604052809291908181526020018280546109eb906112df565b8015610a385780601f10610a0d57610100808354040283529160200191610a38565b820191906000526020600020905b815481529060010190602001808311610a1b57829003601f168201915b505050505081526020016001820160009054906101000a900473ffffffffffffffffffffffffffffffffffffffff1673ffffffffffffffffffffffffffffffffffffffff1673ffffffffffffffffffffffffffffffffffffffff168152602001600282015481526020016003820160009054906101000a900460ff16151515158152602001600482018054610acc906112df565b80601f0160208091040260200160405190810160405280929190818152602001828054610af8906112df565b8015610b455780601f10610b1a57610100808354040283529160200191610b45565b820191906000526020600020905b815481529060010190602001808311610b2857829003601f168201915b5050505050815250508152602001906001019061098c565b5050505081526020016003820160009054906101000a900460ff16151515158152505094505050505092915050565b60405180608001604052806060815260200160008152602001606081526020016000151581525090565b828054610bc2906112df565b90600052602060002090601f016020900481019282610be45760008555610c2b565b82601f10610bfd57805160ff1916838001178555610c2b565b82800160010185558215610c2b579182015b82811115610c2a578251825591602001919060010190610c0f565b5b509050610c389190610c3c565b5090565b5b80821115610c55576000816000905550600101610c3d565b5090565b6000610c6c610c67846111b3565b61118e565b905082815260208101848484011115610c8857610c8761144c565b5b610c9384828561129d565b509392505050565b600082601f830112610cb057610caf611447565b5b8135610cc0848260208601610c59565b91505092915050565b600081359050610cd8816114be565b92915050565b600060208284031215610cf457610cf3611456565b5b600082013567ffffffffffffffff811115610d1257610d11611451565b5b610d1e84828501610c9b565b91505092915050565b60008060408385031215610d3e57610d3d611456565b5b600083013567ffffffffffffffff811115610d5c57610d5b611451565b5b610d6885828601610c9b565b925050602083013567ffffffffffffffff811115610d8957610d88611451565b5b610d9585828601610c9b565b9150509250929050565b600060208284031215610db557610db4611456565b5b6000610dc384828501610cc9565b91505092915050565b6000610dd88383610fe4565b905092915050565b610de981611255565b82525050565b610df881611255565b82525050565b6000610e09826111f4565b610e138185611217565b935083602082028501610e25856111e4565b8060005b85811015610e615784840389528151610e428582610dcc565b9450610e4d8361120a565b925060208a01995050600181019050610e29565b50829750879550505050505092915050565b610e7c81611267565b82525050565b610e8b81611267565b82525050565b6000610e9c826111ff565b610ea68185611228565b9350610eb68185602086016112ac565b610ebf8161145b565b840191505092915050565b6000610ed5826111ff565b610edf8185611239565b9350610eef8185602086016112ac565b610ef88161145b565b840191505092915050565b6000610f0e826111ff565b610f18818561124a565b9350610f288185602086016112ac565b80840191505092915050565b6000610f41601a83611239565b9150610f4c8261146c565b602082019050919050565b6000610f64601383611239565b9150610f6f82611495565b602082019050919050565b60006080830160008301518482036000860152610f978282610e91565b9150506020830151610fac6020860182611061565b5060408301518482036040860152610fc48282610dfe565b9150506060830151610fd96060860182610e73565b508091505092915050565b600060a08301600083015184820360008601526110018282610e91565b91505060208301516110166020860182610de0565b5060408301516110296040860182611061565b50606083015161103c6060860182610e73565b50608083015184820360808601526110548282610e91565b9150508091505092915050565b61106a81611293565b82525050565b61107981611293565b82525050565b600061108b8284610f03565b915081905092915050565b60006020820190506110ab6000830184610def565b92915050565b600060208201905081810360008301526110cb8184610eca565b905092915050565b600060608201905081810360008301526110ed8186610eca565b90506110fc6020830185611070565b6111096040830184610e82565b949350505050565b6000602082019050818103600083015261112a81610f34565b9050919050565b6000602082019050818103600083015261114a81610f57565b9050919050565b6000602082019050818103600083015261116b8184610f7a565b905092915050565b60006020820190506111886000830184611070565b92915050565b60006111986111a9565b90506111a48282611311565b919050565b6000604051905090565b600067ffffffffffffffff8211156111ce576111cd611418565b5b6111d78261145b565b9050602081019050919050565b6000819050602082019050919050565b600081519050919050565b600081519050919050565b6000602082019050919050565b600082825260208201905092915050565b600082825260208201905092915050565b600082825260208201905092915050565b600081905092915050565b600061126082611273565b9050919050565b60008115159050919050565b600073ffffffffffffffffffffffffffffffffffffffff82169050919050565b6000819050919050565b82818337600083830152505050565b60005b838110156112ca5780820151818401526020810190506112af565b838111156112d9576000848401525b50505050565b600060028204905060018216806112f757607f821691505b6020821081141561130b5761130a6113ba565b5b50919050565b61131a8261145b565b810181811067ffffffffffffffff8211171561133957611338611418565b5b80604052505050565b600061134d82611293565b91507fffffffffffffffffffffffffffffffffffffffffffffffffffffffffffffffff8214156113805761137f61138b565b5b600182019050919050565b7f4e487b7100000000000000000000000000000000000000000000000000000000600052601160045260246000fd5b7f4e487b7100000000000000000000000000000000000000000000000000000000600052602260045260246000fd5b7f4e487b7100000000000000000000000000000000000000000000000000000000600052603260045260246000fd5b7f4e487b7100000000000000000000000000000000000000000000000000000000600052604160045260246000fd5b600080fd5b600080fd5b600080fd5b600080fd5b6000601f19601f8301169050919050565b7f6368616972706572736f6e206973206e6f7420616c7269677468000000000000600082015250565b7f766f74657220616c726561647920766f74656400000000000000000000000000600082015250565b6114c781611293565b81146114d257600080fd5b5056fea2646970667358221220a71b0157699fa5fbbcc3fb4dd9cf48f581f2679b93145d66ad2710c745883e8d64736f6c63430008070033a2646970667358221220289674a7e5ac340b4e197395aa14f1e80033ecabffb76801b4ddbd75a45732a764736f6c63430008070033",
					"opcodes": "PUSH1 0x80 PUSH1 0x40 MSTORE CALLVALUE DUP1 ISZERO PUSH2 0x10 JUMPI PUSH1 0x0 DUP1 REVERT JUMPDEST POP PUSH2 0x20FC DUP1 PUSH2 0x20 PUSH1 0x0 CODECOPY PUSH1 0x0 RETURN INVALID PUSH1 0x80 PUSH1 0x40 MSTORE CALLVALUE DUP1 ISZERO PUSH3 0x11 JUMPI PUSH1 0x0 DUP1 REVERT JUMPDEST POP PUSH1 0x4 CALLDATASIZE LT PUSH3 0x52 JUMPI PUSH1 0x0 CALLDATALOAD PUSH1 0xE0 SHR DUP1 PUSH4 0x86C1D5FD EQ PUSH3 0x57 JUMPI DUP1 PUSH4 0x8ECD58E9 EQ PUSH3 0x77 JUMPI DUP1 PUSH4 0x9FF39C9E EQ PUSH3 0x99 JUMPI DUP1 PUSH4 0xA20FE1C7 EQ PUSH3 0xCF JUMPI JUMPDEST PUSH1 0x0 DUP1 REVERT JUMPDEST PUSH3 0x75 PUSH1 0x4 DUP1 CALLDATASIZE SUB DUP2 ADD SWAP1 PUSH3 0x6F SWAP2 SWAP1 PUSH3 0x3AC JUMP JUMPDEST PUSH3 0x105 JUMP JUMPDEST STOP JUMPDEST PUSH3 0x81 PUSH3 0x20B JUMP JUMPDEST PUSH1 0x40 MLOAD PUSH3 0x90 SWAP2 SWAP1 PUSH3 0x576 JUMP JUMPDEST PUSH1 0x40 MLOAD DUP1 SWAP2 SUB SWAP1 RETURN JUMPDEST PUSH3 0xB7 PUSH1 0x4 DUP1 CALLDATASIZE SUB DUP2 ADD SWAP1 PUSH3 0xB1 SWAP2 SWAP1 PUSH3 0x35B JUMP JUMPDEST PUSH3 0x217 JUMP JUMPDEST PUSH1 0x40 MLOAD PUSH3 0xC6 SWAP2 SWAP1 PUSH3 0x508 JUMP JUMPDEST PUSH1 0x40 MLOAD DUP1 SWAP2 SUB SWAP1 RETURN JUMPDEST PUSH3 0xED PUSH1 0x4 DUP1 CALLDATASIZE SUB DUP2 ADD SWAP1 PUSH3 0xE7 SWAP2 SWAP1 PUSH3 0x412 JUMP JUMPDEST PUSH3 0x261 JUMP JUMPDEST PUSH1 0x40 MLOAD PUSH3 0xFC SWAP2 SWAP1 PUSH3 0x525 JUMP JUMPDEST PUSH1 0x40 MLOAD DUP1 SWAP2 SUB SWAP1 RETURN JUMPDEST PUSH1 0x0 DUP3 DUP3 PUSH1 0x40 MLOAD PUSH3 0x117 SWAP1 PUSH3 0x2A1 JUMP JUMPDEST PUSH3 0x124 SWAP3 SWAP2 SWAP1 PUSH3 0x542 JUMP JUMPDEST PUSH1 0x40 MLOAD DUP1 SWAP2 SUB SWAP1 PUSH1 0x0 CREATE DUP1 ISZERO DUP1 ISZERO PUSH3 0x141 JUMPI RETURNDATASIZE PUSH1 0x0 DUP1 RETURNDATACOPY RETURNDATASIZE PUSH1 0x0 REVERT JUMPDEST POP SWAP1 POP DUP1 PUSH1 0x1 DUP5 PUSH1 0x40 MLOAD PUSH3 0x157 SWAP2 SWAP1 PUSH3 0x4EF JUMP JUMPDEST SWAP1 DUP2 MSTORE PUSH1 0x20 ADD PUSH1 0x40 MLOAD DUP1 SWAP2 SUB SWAP1 KECCAK256 PUSH1 0x0 PUSH2 0x100 EXP DUP2 SLOAD DUP2 PUSH20 0xFFFFFFFFFFFFFFFFFFFFFFFFFFFFFFFFFFFFFFFF MUL NOT AND SWAP1 DUP4 PUSH20 0xFFFFFFFFFFFFFFFFFFFFFFFFFFFFFFFFFFFFFFFF AND MUL OR SWAP1 SSTORE POP PUSH1 0x0 DUP2 SWAP1 DUP1 PUSH1 0x1 DUP2 SLOAD ADD DUP1 DUP3 SSTORE DUP1 SWAP2 POP POP PUSH1 0x1 SWAP1 SUB SWAP1 PUSH1 0x0 MSTORE PUSH1 0x20 PUSH1 0x0 KECCAK256 ADD PUSH1 0x0 SWAP1 SWAP2 SWAP1 SWAP2 SWAP1 SWAP2 PUSH2 0x100 EXP DUP2 SLOAD DUP2 PUSH20 0xFFFFFFFFFFFFFFFFFFFFFFFFFFFFFFFFFFFFFFFF MUL NOT AND SWAP1 DUP4 PUSH20 0xFFFFFFFFFFFFFFFFFFFFFFFFFFFFFFFFFFFFFFFF AND MUL OR SWAP1 SSTORE POP POP POP POP JUMP JUMPDEST PUSH1 0x0 DUP1 DUP1 SLOAD SWAP1 POP SWAP1 POP SWAP1 JUMP JUMPDEST PUSH1 0x0 PUSH1 0x1 DUP3 PUSH1 0x40 MLOAD PUSH3 0x22B SWAP2 SWAP1 PUSH3 0x4EF JUMP JUMPDEST SWAP1 DUP2 MSTORE PUSH1 0x20 ADD PUSH1 0x40 MLOAD DUP1 SWAP2 SUB SWAP1 KECCAK256 PUSH1 0x0 SWAP1 SLOAD SWAP1 PUSH2 0x100 EXP SWAP1 DIV PUSH20 0xFFFFFFFFFFFFFFFFFFFFFFFFFFFFFFFFFFFFFFFF AND SWAP1 POP SWAP2 SWAP1 POP JUMP JUMPDEST PUSH1 0x0 DUP2 DUP2 SLOAD DUP2 LT PUSH3 0x272 JUMPI PUSH1 0x0 DUP1 REVERT JUMPDEST SWAP1 PUSH1 0x0 MSTORE PUSH1 0x20 PUSH1 0x0 KECCAK256 ADD PUSH1 0x0 SWAP2 POP SLOAD SWAP1 PUSH2 0x100 EXP SWAP1 DIV PUSH20 0xFFFFFFFFFFFFFFFFFFFFFFFFFFFFFFFFFFFFFFFF AND DUP2 JUMP JUMPDEST PUSH2 0x1930 DUP1 PUSH3 0x797 DUP4 CODECOPY ADD SWAP1 JUMP JUMPDEST PUSH1 0x0 PUSH3 0x2C6 PUSH3 0x2C0 DUP5 PUSH3 0x5BC JUMP JUMPDEST PUSH3 0x593 JUMP JUMPDEST SWAP1 POP DUP3 DUP2 MSTORE PUSH1 0x20 DUP2 ADD DUP5 DUP5 DUP5 ADD GT ISZERO PUSH3 0x2E5 JUMPI PUSH3 0x2E4 PUSH3 0x742 JUMP JUMPDEST JUMPDEST PUSH3 0x2F2 DUP5 DUP3 DUP6 PUSH3 0x693 JUMP JUMPDEST POP SWAP4 SWAP3 POP POP POP JUMP JUMPDEST PUSH1 0x0 DUP2 CALLDATALOAD SWAP1 POP PUSH3 0x30B DUP2 PUSH3 0x762 JUMP JUMPDEST SWAP3 SWAP2 POP POP JUMP JUMPDEST PUSH1 0x0 DUP3 PUSH1 0x1F DUP4 ADD SLT PUSH3 0x329 JUMPI PUSH3 0x328 PUSH3 0x73D JUMP JUMPDEST JUMPDEST DUP2 CALLDATALOAD PUSH3 0x33B DUP5 DUP3 PUSH1 0x20 DUP7 ADD PUSH3 0x2AF JUMP JUMPDEST SWAP2 POP POP SWAP3 SWAP2 POP POP JUMP JUMPDEST PUSH1 0x0 DUP2 CALLDATALOAD SWAP1 POP PUSH3 0x355 DUP2 PUSH3 0x77C JUMP JUMPDEST SWAP3 SWAP2 POP POP JUMP JUMPDEST PUSH1 0x0 PUSH1 0x20 DUP3 DUP5 SUB SLT ISZERO PUSH3 0x374 JUMPI PUSH3 0x373 PUSH3 0x74C JUMP JUMPDEST JUMPDEST PUSH1 0x0 DUP3 ADD CALLDATALOAD PUSH8 0xFFFFFFFFFFFFFFFF DUP2 GT ISZERO PUSH3 0x395 JUMPI PUSH3 0x394 PUSH3 0x747 JUMP JUMPDEST JUMPDEST PUSH3 0x3A3 DUP5 DUP3 DUP6 ADD PUSH3 0x311 JUMP JUMPDEST SWAP2 POP POP SWAP3 SWAP2 POP POP JUMP JUMPDEST PUSH1 0x0 DUP1 PUSH1 0x40 DUP4 DUP6 SUB SLT ISZERO PUSH3 0x3C6 JUMPI PUSH3 0x3C5 PUSH3 0x74C JUMP JUMPDEST JUMPDEST PUSH1 0x0 DUP4 ADD CALLDATALOAD PUSH8 0xFFFFFFFFFFFFFFFF DUP2 GT ISZERO PUSH3 0x3E7 JUMPI PUSH3 0x3E6 PUSH3 0x747 JUMP JUMPDEST JUMPDEST PUSH3 0x3F5 DUP6 DUP3 DUP7 ADD PUSH3 0x311 JUMP JUMPDEST SWAP3 POP POP PUSH1 0x20 PUSH3 0x408 DUP6 DUP3 DUP7 ADD PUSH3 0x2FA JUMP JUMPDEST SWAP2 POP POP SWAP3 POP SWAP3 SWAP1 POP JUMP JUMPDEST PUSH1 0x0 PUSH1 0x20 DUP3 DUP5 SUB SLT ISZERO PUSH3 0x42B JUMPI PUSH3 0x42A PUSH3 0x74C JUMP JUMPDEST JUMPDEST PUSH1 0x0 PUSH3 0x43B DUP5 DUP3 DUP6 ADD PUSH3 0x344 JUMP JUMPDEST SWAP2 POP POP SWAP3 SWAP2 POP POP JUMP JUMPDEST PUSH3 0x44F DUP2 PUSH3 0x619 JUMP JUMPDEST DUP3 MSTORE POP POP JUMP JUMPDEST PUSH3 0x460 DUP2 PUSH3 0x657 JUMP JUMPDEST DUP3 MSTORE POP POP JUMP JUMPDEST PUSH1 0x0 PUSH3 0x473 DUP3 PUSH3 0x5F2 JUMP JUMPDEST PUSH3 0x47F DUP2 DUP6 PUSH3 0x5FD JUMP JUMPDEST SWAP4 POP PUSH3 0x491 DUP2 DUP6 PUSH1 0x20 DUP7 ADD PUSH3 0x6A2 JUMP JUMPDEST PUSH3 0x49C DUP2 PUSH3 0x751 JUMP JUMPDEST DUP5 ADD SWAP2 POP POP SWAP3 SWAP2 POP POP JUMP JUMPDEST PUSH1 0x0 PUSH3 0x4B4 DUP3 PUSH3 0x5F2 JUMP JUMPDEST PUSH3 0x4C0 DUP2 DUP6 PUSH3 0x60E JUMP JUMPDEST SWAP4 POP PUSH3 0x4D2 DUP2 DUP6 PUSH1 0x20 DUP7 ADD PUSH3 0x6A2 JUMP JUMPDEST DUP1 DUP5 ADD SWAP2 POP POP SWAP3 SWAP2 POP POP JUMP JUMPDEST PUSH3 0x4E9 DUP2 PUSH3 0x64D JUMP JUMPDEST DUP3 MSTORE POP POP JUMP JUMPDEST PUSH1 0x0 PUSH3 0x4FD DUP3 DUP5 PUSH3 0x4A7 JUMP JUMPDEST SWAP2 POP DUP2 SWAP1 POP SWAP3 SWAP2 POP POP JUMP JUMPDEST PUSH1 0x0 PUSH1 0x20 DUP3 ADD SWAP1 POP PUSH3 0x51F PUSH1 0x0 DUP4 ADD DUP5 PUSH3 0x444 JUMP JUMPDEST SWAP3 SWAP2 POP POP JUMP JUMPDEST PUSH1 0x0 PUSH1 0x20 DUP3 ADD SWAP1 POP PUSH3 0x53C PUSH1 0x0 DUP4 ADD DUP5 PUSH3 0x455 JUMP JUMPDEST SWAP3 SWAP2 POP POP JUMP JUMPDEST PUSH1 0x0 PUSH1 0x40 DUP3 ADD SWAP1 POP DUP2 DUP2 SUB PUSH1 0x0 DUP4 ADD MSTORE PUSH3 0x55E DUP2 DUP6 PUSH3 0x466 JUMP JUMPDEST SWAP1 POP PUSH3 0x56F PUSH1 0x20 DUP4 ADD DUP5 PUSH3 0x444 JUMP JUMPDEST SWAP4 SWAP3 POP POP POP JUMP JUMPDEST PUSH1 0x0 PUSH1 0x20 DUP3 ADD SWAP1 POP PUSH3 0x58D PUSH1 0x0 DUP4 ADD DUP5 PUSH3 0x4DE JUMP JUMPDEST SWAP3 SWAP2 POP POP JUMP JUMPDEST PUSH1 0x0 PUSH3 0x59F PUSH3 0x5B2 JUMP JUMPDEST SWAP1 POP PUSH3 0x5AD DUP3 DUP3 PUSH3 0x6D8 JUMP JUMPDEST SWAP2 SWAP1 POP JUMP JUMPDEST PUSH1 0x0 PUSH1 0x40 MLOAD SWAP1 POP SWAP1 JUMP JUMPDEST PUSH1 0x0 PUSH8 0xFFFFFFFFFFFFFFFF DUP3 GT ISZERO PUSH3 0x5DA JUMPI PUSH3 0x5D9 PUSH3 0x70E JUMP JUMPDEST JUMPDEST PUSH3 0x5E5 DUP3 PUSH3 0x751 JUMP JUMPDEST SWAP1 POP PUSH1 0x20 DUP2 ADD SWAP1 POP SWAP2 SWAP1 POP JUMP JUMPDEST PUSH1 0x0 DUP2 MLOAD SWAP1 POP SWAP2 SWAP1 POP JUMP JUMPDEST PUSH1 0x0 DUP3 DUP3 MSTORE PUSH1 0x20 DUP3 ADD SWAP1 POP SWAP3 SWAP2 POP POP JUMP JUMPDEST PUSH1 0x0 DUP2 SWAP1 POP SWAP3 SWAP2 POP POP JUMP JUMPDEST PUSH1 0x0 PUSH3 0x626 DUP3 PUSH3 0x62D JUMP JUMPDEST SWAP1 POP SWAP2 SWAP1 POP JUMP JUMPDEST PUSH1 0x0 PUSH20 0xFFFFFFFFFFFFFFFFFFFFFFFFFFFFFFFFFFFFFFFF DUP3 AND SWAP1 POP SWAP2 SWAP1 POP JUMP JUMPDEST PUSH1 0x0 DUP2 SWAP1 POP SWAP2 SWAP1 POP JUMP JUMPDEST PUSH1 0x0 PUSH3 0x664 DUP3 PUSH3 0x66B JUMP JUMPDEST SWAP1 POP SWAP2 SWAP1 POP JUMP JUMPDEST PUSH1 0x0 PUSH3 0x678 DUP3 PUSH3 0x67F JUMP JUMPDEST SWAP1 POP SWAP2 SWAP1 POP JUMP JUMPDEST PUSH1 0x0 PUSH3 0x68C DUP3 PUSH3 0x62D JUMP JUMPDEST SWAP1 POP SWAP2 SWAP1 POP JUMP JUMPDEST DUP3 DUP2 DUP4 CALLDATACOPY PUSH1 0x0 DUP4 DUP4 ADD MSTORE POP POP POP JUMP JUMPDEST PUSH1 0x0 JUMPDEST DUP4 DUP2 LT ISZERO PUSH3 0x6C2 JUMPI DUP1 DUP3 ADD MLOAD DUP2 DUP5 ADD MSTORE PUSH1 0x20 DUP2 ADD SWAP1 POP PUSH3 0x6A5 JUMP JUMPDEST DUP4 DUP2 GT ISZERO PUSH3 0x6D2 JUMPI PUSH1 0x0 DUP5 DUP5 ADD MSTORE JUMPDEST POP POP POP POP JUMP JUMPDEST PUSH3 0x6E3 DUP3 PUSH3 0x751 JUMP JUMPDEST DUP2 ADD DUP2 DUP2 LT PUSH8 0xFFFFFFFFFFFFFFFF DUP3 GT OR ISZERO PUSH3 0x705 JUMPI PUSH3 0x704 PUSH3 0x70E JUMP JUMPDEST JUMPDEST DUP1 PUSH1 0x40 MSTORE POP POP POP JUMP JUMPDEST PUSH32 0x4E487B7100000000000000000000000000000000000000000000000000000000 PUSH1 0x0 MSTORE PUSH1 0x41 PUSH1 0x4 MSTORE PUSH1 0x24 PUSH1 0x0 REVERT JUMPDEST PUSH1 0x0 DUP1 REVERT JUMPDEST PUSH1 0x0 DUP1 REVERT JUMPDEST PUSH1 0x0 DUP1 REVERT JUMPDEST PUSH1 0x0 DUP1 REVERT JUMPDEST PUSH1 0x0 PUSH1 0x1F NOT PUSH1 0x1F DUP4 ADD AND SWAP1 POP SWAP2 SWAP1 POP JUMP JUMPDEST PUSH3 0x76D DUP2 PUSH3 0x619 JUMP JUMPDEST DUP2 EQ PUSH3 0x779 JUMPI PUSH1 0x0 DUP1 REVERT JUMPDEST POP JUMP JUMPDEST PUSH3 0x787 DUP2 PUSH3 0x64D JUMP JUMPDEST DUP2 EQ PUSH3 0x793 JUMPI PUSH1 0x0 DUP1 REVERT JUMPDEST POP JUMP INVALID PUSH1 0x80 PUSH1 0x40 MSTORE CALLVALUE DUP1 ISZERO PUSH3 0x11 JUMPI PUSH1 0x0 DUP1 REVERT JUMPDEST POP PUSH1 0x40 MLOAD PUSH3 0x1930 CODESIZE SUB DUP1 PUSH3 0x1930 DUP4 CODECOPY DUP2 DUP2 ADD PUSH1 0x40 MSTORE DUP2 ADD SWAP1 PUSH3 0x37 SWAP2 SWAP1 PUSH3 0x1DD JUMP JUMPDEST DUP1 PUSH1 0x0 DUP1 PUSH2 0x100 EXP DUP2 SLOAD DUP2 PUSH20 0xFFFFFFFFFFFFFFFFFFFFFFFFFFFFFFFFFFFFFFFF MUL NOT AND SWAP1 DUP4 PUSH20 0xFFFFFFFFFFFFFFFFFFFFFFFFFFFFFFFFFFFFFFFF AND MUL OR SWAP1 SSTORE POP DUP2 PUSH1 0x1 SWAP1 DUP1 MLOAD SWAP1 PUSH1 0x20 ADD SWAP1 PUSH3 0x8F SWAP3 SWAP2 SWAP1 PUSH3 0x98 JUMP JUMPDEST POP POP POP PUSH3 0x415 JUMP JUMPDEST DUP3 DUP1 SLOAD PUSH3 0xA6 SWAP1 PUSH3 0x30C JUMP JUMPDEST SWAP1 PUSH1 0x0 MSTORE PUSH1 0x20 PUSH1 0x0 KECCAK256 SWAP1 PUSH1 0x1F ADD PUSH1 0x20 SWAP1 DIV DUP2 ADD SWAP3 DUP3 PUSH3 0xCA JUMPI PUSH1 0x0 DUP6 SSTORE PUSH3 0x116 JUMP JUMPDEST DUP3 PUSH1 0x1F LT PUSH3 0xE5 JUMPI DUP1 MLOAD PUSH1 0xFF NOT AND DUP4 DUP1 ADD OR DUP6 SSTORE PUSH3 0x116 JUMP JUMPDEST DUP3 DUP1 ADD PUSH1 0x1 ADD DUP6 SSTORE DUP3 ISZERO PUSH3 0x116 JUMPI SWAP2 DUP3 ADD JUMPDEST DUP3 DUP2 GT ISZERO PUSH3 0x115 JUMPI DUP3 MLOAD DUP3 SSTORE SWAP2 PUSH1 0x20 ADD SWAP2 SWAP1 PUSH1 0x1 ADD SWAP1 PUSH3 0xF8 JUMP JUMPDEST JUMPDEST POP SWAP1 POP PUSH3 0x125 SWAP2 SWAP1 PUSH3 0x129 JUMP JUMPDEST POP SWAP1 JUMP JUMPDEST JUMPDEST DUP1 DUP3 GT ISZERO PUSH3 0x144 JUMPI PUSH1 0x0 DUP2 PUSH1 0x0 SWAP1 SSTORE POP PUSH1 0x1 ADD PUSH3 0x12A JUMP JUMPDEST POP SWAP1 JUMP JUMPDEST PUSH1 0x0 PUSH3 0x15F PUSH3 0x159 DUP5 PUSH3 0x26C JUMP JUMPDEST PUSH3 0x243 JUMP JUMPDEST SWAP1 POP DUP3 DUP2 MSTORE PUSH1 0x20 DUP2 ADD DUP5 DUP5 DUP5 ADD GT ISZERO PUSH3 0x17E JUMPI PUSH3 0x17D PUSH3 0x3DB JUMP JUMPDEST JUMPDEST PUSH3 0x18B DUP5 DUP3 DUP6 PUSH3 0x2D6 JUMP JUMPDEST POP SWAP4 SWAP3 POP POP POP JUMP JUMPDEST PUSH1 0x0 DUP2 MLOAD SWAP1 POP PUSH3 0x1A4 DUP2 PUSH3 0x3FB JUMP JUMPDEST SWAP3 SWAP2 POP POP JUMP JUMPDEST PUSH1 0x0 DUP3 PUSH1 0x1F DUP4 ADD SLT PUSH3 0x1C2 JUMPI PUSH3 0x1C1 PUSH3 0x3D6 JUMP JUMPDEST JUMPDEST DUP2 MLOAD PUSH3 0x1D4 DUP5 DUP3 PUSH1 0x20 DUP7 ADD PUSH3 0x148 JUMP JUMPDEST SWAP2 POP POP SWAP3 SWAP2 POP POP JUMP JUMPDEST PUSH1 0x0 DUP1 PUSH1 0x40 DUP4 DUP6 SUB SLT ISZERO PUSH3 0x1F7 JUMPI PUSH3 0x1F6 PUSH3 0x3E5 JUMP JUMPDEST JUMPDEST PUSH1 0x0 DUP4 ADD MLOAD PUSH8 0xFFFFFFFFFFFFFFFF DUP2 GT ISZERO PUSH3 0x218 JUMPI PUSH3 0x217 PUSH3 0x3E0 JUMP JUMPDEST JUMPDEST PUSH3 0x226 DUP6 DUP3 DUP7 ADD PUSH3 0x1AA JUMP JUMPDEST SWAP3 POP POP PUSH1 0x20 PUSH3 0x239 DUP6 DUP3 DUP7 ADD PUSH3 0x193 JUMP JUMPDEST SWAP2 POP POP SWAP3 POP SWAP3 SWAP1 POP JUMP JUMPDEST PUSH1 0x0 PUSH3 0x24F PUSH3 0x262 JUMP JUMPDEST SWAP1 POP PUSH3 0x25D DUP3 DUP3 PUSH3 0x342 JUMP JUMPDEST SWAP2 SWAP1 POP JUMP JUMPDEST PUSH1 0x0 PUSH1 0x40 MLOAD SWAP1 POP SWAP1 JUMP JUMPDEST PUSH1 0x0 PUSH8 0xFFFFFFFFFFFFFFFF DUP3 GT ISZERO PUSH3 0x28A JUMPI PUSH3 0x289 PUSH3 0x3A7 JUMP JUMPDEST JUMPDEST PUSH3 0x295 DUP3 PUSH3 0x3EA JUMP JUMPDEST SWAP1 POP PUSH1 0x20 DUP2 ADD SWAP1 POP SWAP2 SWAP1 POP JUMP JUMPDEST PUSH1 0x0 PUSH3 0x2AF DUP3 PUSH3 0x2B6 JUMP JUMPDEST SWAP1 POP SWAP2 SWAP1 POP JUMP JUMPDEST PUSH1 0x0 PUSH20 0xFFFFFFFFFFFFFFFFFFFFFFFFFFFFFFFFFFFFFFFF DUP3 AND SWAP1 POP SWAP2 SWAP1 POP JUMP JUMPDEST PUSH1 0x0 JUMPDEST DUP4 DUP2 LT ISZERO PUSH3 0x2F6 JUMPI DUP1 DUP3 ADD MLOAD DUP2 DUP5 ADD MSTORE PUSH1 0x20 DUP2 ADD SWAP1 POP PUSH3 0x2D9 JUMP JUMPDEST DUP4 DUP2 GT ISZERO PUSH3 0x306 JUMPI PUSH1 0x0 DUP5 DUP5 ADD MSTORE JUMPDEST POP POP POP POP JUMP JUMPDEST PUSH1 0x0 PUSH1 0x2 DUP3 DIV SWAP1 POP PUSH1 0x1 DUP3 AND DUP1 PUSH3 0x325 JUMPI PUSH1 0x7F DUP3 AND SWAP2 POP JUMPDEST PUSH1 0x20 DUP3 LT DUP2 EQ ISZERO PUSH3 0x33C JUMPI PUSH3 0x33B PUSH3 0x378 JUMP JUMPDEST JUMPDEST POP SWAP2 SWAP1 POP JUMP JUMPDEST PUSH3 0x34D DUP3 PUSH3 0x3EA JUMP JUMPDEST DUP2 ADD DUP2 DUP2 LT PUSH8 0xFFFFFFFFFFFFFFFF DUP3 GT OR ISZERO PUSH3 0x36F JUMPI PUSH3 0x36E PUSH3 0x3A7 JUMP JUMPDEST JUMPDEST DUP1 PUSH1 0x40 MSTORE POP POP POP JUMP JUMPDEST PUSH32 0x4E487B7100000000000000000000000000000000000000000000000000000000 PUSH1 0x0 MSTORE PUSH1 0x22 PUSH1 0x4 MSTORE PUSH1 0x24 PUSH1 0x0 REVERT JUMPDEST PUSH32 0x4E487B7100000000000000000000000000000000000000000000000000000000 PUSH1 0x0 MSTORE PUSH1 0x41 PUSH1 0x4 MSTORE PUSH1 0x24 PUSH1 0x0 REVERT JUMPDEST PUSH1 0x0 DUP1 REVERT JUMPDEST PUSH1 0x0 DUP1 REVERT JUMPDEST PUSH1 0x0 DUP1 REVERT JUMPDEST PUSH1 0x0 DUP1 REVERT JUMPDEST PUSH1 0x0 PUSH1 0x1F NOT PUSH1 0x1F DUP4 ADD AND SWAP1 POP SWAP2 SWAP1 POP JUMP JUMPDEST PUSH3 0x406 DUP2 PUSH3 0x2A2 JUMP JUMPDEST DUP2 EQ PUSH3 0x412 JUMPI PUSH1 0x0 DUP1 REVERT JUMPDEST POP JUMP JUMPDEST PUSH2 0x150B DUP1 PUSH3 0x425 PUSH1 0x0 CODECOPY PUSH1 0x0 RETURN INVALID PUSH1 0x80 PUSH1 0x40 MSTORE PUSH1 0x4 CALLDATASIZE LT PUSH2 0x55 JUMPI PUSH1 0x0 CALLDATALOAD PUSH1 0xE0 SHR DUP1 PUSH4 0x2E4176CF EQ PUSH2 0x5A JUMPI DUP1 PUSH4 0x302A2A46 EQ PUSH2 0x85 JUMPI DUP1 PUSH4 0x43EF7E85 EQ PUSH2 0xC4 JUMPI DUP1 PUSH4 0x4F5CBC1A EQ PUSH2 0x101 JUMPI DUP1 PUSH4 0x64B9FB89 EQ PUSH2 0x12C JUMPI DUP1 PUSH4 0xE8D5940D EQ PUSH2 0x157 JUMPI JUMPDEST PUSH1 0x0 DUP1 REVERT JUMPDEST CALLVALUE DUP1 ISZERO PUSH2 0x66 JUMPI PUSH1 0x0 DUP1 REVERT JUMPDEST POP PUSH2 0x6F PUSH2 0x187 JUMP JUMPDEST PUSH1 0x40 MLOAD PUSH2 0x7C SWAP2 SWAP1 PUSH2 0x1096 JUMP JUMPDEST PUSH1 0x40 MLOAD DUP1 SWAP2 SUB SWAP1 RETURN JUMPDEST CALLVALUE DUP1 ISZERO PUSH2 0x91 JUMPI PUSH1 0x0 DUP1 REVERT JUMPDEST POP PUSH2 0xAC PUSH1 0x4 DUP1 CALLDATASIZE SUB DUP2 ADD SWAP1 PUSH2 0xA7 SWAP2 SWAP1 PUSH2 0xD9F JUMP JUMPDEST PUSH2 0x1AB JUMP JUMPDEST PUSH1 0x40 MLOAD PUSH2 0xBB SWAP4 SWAP3 SWAP2 SWAP1 PUSH2 0x10D3 JUMP JUMPDEST PUSH1 0x40 MLOAD DUP1 SWAP2 SUB SWAP1 RETURN JUMPDEST CALLVALUE DUP1 ISZERO PUSH2 0xD0 JUMPI PUSH1 0x0 DUP1 REVERT JUMPDEST POP PUSH2 0xEB PUSH1 0x4 DUP1 CALLDATASIZE SUB DUP2 ADD SWAP1 PUSH2 0xE6 SWAP2 SWAP1 PUSH2 0xCDE JUMP JUMPDEST PUSH2 0x27A JUMP JUMPDEST PUSH1 0x40 MLOAD PUSH2 0xF8 SWAP2 SWAP1 PUSH2 0x1151 JUMP JUMPDEST PUSH1 0x40 MLOAD DUP1 SWAP2 SUB SWAP1 RETURN JUMPDEST CALLVALUE DUP1 ISZERO PUSH2 0x10D JUMPI PUSH1 0x0 DUP1 REVERT JUMPDEST POP PUSH2 0x116 PUSH2 0x5ED JUMP JUMPDEST PUSH1 0x40 MLOAD PUSH2 0x123 SWAP2 SWAP1 PUSH2 0x10B1 JUMP JUMPDEST PUSH1 0x40 MLOAD DUP1 SWAP2 SUB SWAP1 RETURN JUMPDEST CALLVALUE DUP1 ISZERO PUSH2 0x138 JUMPI PUSH1 0x0 DUP1 REVERT JUMPDEST POP PUSH2 0x141 PUSH2 0x67B JUMP JUMPDEST PUSH1 0x40 MLOAD PUSH2 0x14E SWAP2 SWAP1 PUSH2 0x1173 JUMP JUMPDEST PUSH1 0x40 MLOAD DUP1 SWAP2 SUB SWAP1 RETURN JUMPDEST PUSH2 0x171 PUSH1 0x4 DUP1 CALLDATASIZE SUB DUP2 ADD SWAP1 PUSH2 0x16C SWAP2 SWAP1 PUSH2 0xD27 JUMP JUMPDEST PUSH2 0x681 JUMP JUMPDEST PUSH1 0x40 MLOAD PUSH2 0x17E SWAP2 SWAP1 PUSH2 0x1151 JUMP JUMPDEST PUSH1 0x40 MLOAD DUP1 SWAP2 SUB SWAP1 RETURN JUMPDEST PUSH1 0x0 DUP1 SLOAD SWAP1 PUSH2 0x100 EXP SWAP1 DIV PUSH20 0xFFFFFFFFFFFFFFFFFFFFFFFFFFFFFFFFFFFFFFFF AND DUP2 JUMP JUMPDEST PUSH1 0x4 DUP2 DUP2 SLOAD DUP2 LT PUSH2 0x1BB JUMPI PUSH1 0x0 DUP1 REVERT JUMPDEST SWAP1 PUSH1 0x0 MSTORE PUSH1 0x20 PUSH1 0x0 KECCAK256 SWAP1 PUSH1 0x4 MUL ADD PUSH1 0x0 SWAP2 POP SWAP1 POP DUP1 PUSH1 0x0 ADD DUP1 SLOAD PUSH2 0x1DE SWAP1 PUSH2 0x12DF JUMP JUMPDEST DUP1 PUSH1 0x1F ADD PUSH1 0x20 DUP1 SWAP2 DIV MUL PUSH1 0x20 ADD PUSH1 0x40 MLOAD SWAP1 DUP2 ADD PUSH1 0x40 MSTORE DUP1 SWAP3 SWAP2 SWAP1 DUP2 DUP2 MSTORE PUSH1 0x20 ADD DUP3 DUP1 SLOAD PUSH2 0x20A SWAP1 PUSH2 0x12DF JUMP JUMPDEST DUP1 ISZERO PUSH2 0x257 JUMPI DUP1 PUSH1 0x1F LT PUSH2 0x22C JUMPI PUSH2 0x100 DUP1 DUP4 SLOAD DIV MUL DUP4 MSTORE SWAP2 PUSH1 0x20 ADD SWAP2 PUSH2 0x257 JUMP JUMPDEST DUP3 ADD SWAP2 SWAP1 PUSH1 0x0 MSTORE PUSH1 0x20 PUSH1 0x0 KECCAK256 SWAP1 JUMPDEST DUP2 SLOAD DUP2 MSTORE SWAP1 PUSH1 0x1 ADD SWAP1 PUSH1 0x20 ADD DUP1 DUP4 GT PUSH2 0x23A JUMPI DUP3 SWAP1 SUB PUSH1 0x1F AND DUP3 ADD SWAP2 JUMPDEST POP POP POP POP POP SWAP1 DUP1 PUSH1 0x1 ADD SLOAD SWAP1 DUP1 PUSH1 0x3 ADD PUSH1 0x0 SWAP1 SLOAD SWAP1 PUSH2 0x100 EXP SWAP1 DIV PUSH1 0xFF AND SWAP1 POP DUP4 JUMP JUMPDEST PUSH2 0x282 PUSH2 0xB8C JUMP JUMPDEST PUSH1 0x0 PUSH1 0x4 PUSH1 0x1 DUP2 PUSH1 0x1 DUP2 SLOAD ADD DUP1 DUP3 SSTORE DUP1 SWAP2 POP POP SUB SWAP1 PUSH1 0x0 MSTORE PUSH1 0x20 PUSH1 0x0 KECCAK256 SWAP1 PUSH1 0x4 MUL ADD SWAP1 POP DUP3 DUP2 PUSH1 0x0 ADD SWAP1 DUP1 MLOAD SWAP1 PUSH1 0x20 ADD SWAP1 PUSH2 0x2BE SWAP3 SWAP2 SWAP1 PUSH2 0xBB6 JUMP JUMPDEST POP PUSH1 0x2 SLOAD DUP2 PUSH1 0x1 ADD DUP2 SWAP1 SSTORE POP PUSH1 0x1 DUP2 PUSH1 0x3 ADD PUSH1 0x0 PUSH2 0x100 EXP DUP2 SLOAD DUP2 PUSH1 0xFF MUL NOT AND SWAP1 DUP4 ISZERO ISZERO MUL OR SWAP1 SSTORE POP PUSH1 0x2 SLOAD PUSH1 0x3 DUP5 PUSH1 0x40 MLOAD PUSH2 0x2FA SWAP2 SWAP1 PUSH2 0x107F JUMP JUMPDEST SWAP1 DUP2 MSTORE PUSH1 0x20 ADD PUSH1 0x40 MLOAD DUP1 SWAP2 SUB SWAP1 KECCAK256 DUP2 SWAP1 SSTORE POP PUSH1 0x2 PUSH1 0x0 DUP2 SLOAD DUP1 SWAP3 SWAP2 SWAP1 PUSH2 0x31F SWAP1 PUSH2 0x1342 JUMP JUMPDEST SWAP2 SWAP1 POP SSTORE POP DUP1 PUSH1 0x40 MLOAD DUP1 PUSH1 0x80 ADD PUSH1 0x40 MSTORE SWAP1 DUP2 PUSH1 0x0 DUP3 ADD DUP1 SLOAD PUSH2 0x340 SWAP1 PUSH2 0x12DF JUMP JUMPDEST DUP1 PUSH1 0x1F ADD PUSH1 0x20 DUP1 SWAP2 DIV MUL PUSH1 0x20 ADD PUSH1 0x40 MLOAD SWAP1 DUP2 ADD PUSH1 0x40 MSTORE DUP1 SWAP3 SWAP2 SWAP1 DUP2 DUP2 MSTORE PUSH1 0x20 ADD DUP3 DUP1 SLOAD PUSH2 0x36C SWAP1 PUSH2 0x12DF JUMP JUMPDEST DUP1 ISZERO PUSH2 0x3B9 JUMPI DUP1 PUSH1 0x1F LT PUSH2 0x38E JUMPI PUSH2 0x100 DUP1 DUP4 SLOAD DIV MUL DUP4 MSTORE SWAP2 PUSH1 0x20 ADD SWAP2 PUSH2 0x3B9 JUMP JUMPDEST DUP3 ADD SWAP2 SWAP1 PUSH1 0x0 MSTORE PUSH1 0x20 PUSH1 0x0 KECCAK256 SWAP1 JUMPDEST DUP2 SLOAD DUP2 MSTORE SWAP1 PUSH1 0x1 ADD SWAP1 PUSH1 0x20 ADD DUP1 DUP4 GT PUSH2 0x39C JUMPI DUP3 SWAP1 SUB PUSH1 0x1F AND DUP3 ADD SWAP2 JUMPDEST POP POP POP POP POP DUP2 MSTORE PUSH1 0x20 ADD PUSH1 0x1 DUP3 ADD SLOAD DUP2 MSTORE PUSH1 0x20 ADD PUSH1 0x2 DUP3 ADD DUP1 SLOAD DUP1 PUSH1 0x20 MUL PUSH1 0x20 ADD PUSH1 0x40 MLOAD SWAP1 DUP2 ADD PUSH1 0x40 MSTORE DUP1 SWAP3 SWAP2 SWAP1 DUP2 DUP2 MSTORE PUSH1 0x20 ADD PUSH1 0x0 SWAP1 JUMPDEST DUP3 DUP3 LT ISZERO PUSH2 0x5C2 JUMPI DUP4 DUP3 SWAP1 PUSH1 0x0 MSTORE PUSH1 0x20 PUSH1 0x0 KECCAK256 SWAP1 PUSH1 0x5 MUL ADD PUSH1 0x40 MLOAD DUP1 PUSH1 0xA0 ADD PUSH1 0x40 MSTORE SWAP1 DUP2 PUSH1 0x0 DUP3 ADD DUP1 SLOAD PUSH2 0x424 SWAP1 PUSH2 0x12DF JUMP JUMPDEST DUP1 PUSH1 0x1F ADD PUSH1 0x20 DUP1 SWAP2 DIV MUL PUSH1 0x20 ADD PUSH1 0x40 MLOAD SWAP1 DUP2 ADD PUSH1 0x40 MSTORE DUP1 SWAP3 SWAP2 SWAP1 DUP2 DUP2 MSTORE PUSH1 0x20 ADD DUP3 DUP1 SLOAD PUSH2 0x450 SWAP1 PUSH2 0x12DF JUMP JUMPDEST DUP1 ISZERO PUSH2 0x49D JUMPI DUP1 PUSH1 0x1F LT PUSH2 0x472 JUMPI PUSH2 0x100 DUP1 DUP4 SLOAD DIV MUL DUP4 MSTORE SWAP2 PUSH1 0x20 ADD SWAP2 PUSH2 0x49D JUMP JUMPDEST DUP3 ADD SWAP2 SWAP1 PUSH1 0x0 MSTORE PUSH1 0x20 PUSH1 0x0 KECCAK256 SWAP1 JUMPDEST DUP2 SLOAD DUP2 MSTORE SWAP1 PUSH1 0x1 ADD SWAP1 PUSH1 0x20 ADD DUP1 DUP4 GT PUSH2 0x480 JUMPI DUP3 SWAP1 SUB PUSH1 0x1F AND DUP3 ADD SWAP2 JUMPDEST POP POP POP POP POP DUP2 MSTORE PUSH1 0x20 ADD PUSH1 0x1 DUP3 ADD PUSH1 0x0 SWAP1 SLOAD SWAP1 PUSH2 0x100 EXP SWAP1 DIV PUSH20 0xFFFFFFFFFFFFFFFFFFFFFFFFFFFFFFFFFFFFFFFF AND PUSH20 0xFFFFFFFFFFFFFFFFFFFFFFFFFFFFFFFFFFFFFFFF AND PUSH20 0xFFFFFFFFFFFFFFFFFFFFFFFFFFFFFFFFFFFFFFFF AND DUP2 MSTORE PUSH1 0x20 ADD PUSH1 0x2 DUP3 ADD SLOAD DUP2 MSTORE PUSH1 0x20 ADD PUSH1 0x3 DUP3 ADD PUSH1 0x0 SWAP1 SLOAD SWAP1 PUSH2 0x100 EXP SWAP1 DIV PUSH1 0xFF AND ISZERO ISZERO ISZERO ISZERO DUP2 MSTORE PUSH1 0x20 ADD PUSH1 0x4 DUP3 ADD DUP1 SLOAD PUSH2 0x531 SWAP1 PUSH2 0x12DF JUMP JUMPDEST DUP1 PUSH1 0x1F ADD PUSH1 0x20 DUP1 SWAP2 DIV MUL PUSH1 0x20 ADD PUSH1 0x40 MLOAD SWAP1 DUP2 ADD PUSH1 0x40 MSTORE DUP1 SWAP3 SWAP2 SWAP1 DUP2 DUP2 MSTORE PUSH1 0x20 ADD DUP3 DUP1 SLOAD PUSH2 0x55D SWAP1 PUSH2 0x12DF JUMP JUMPDEST DUP1 ISZERO PUSH2 0x5AA JUMPI DUP1 PUSH1 0x1F LT PUSH2 0x57F JUMPI PUSH2 0x100 DUP1 DUP4 SLOAD DIV MUL DUP4 MSTORE SWAP2 PUSH1 0x20 ADD SWAP2 PUSH2 0x5AA JUMP JUMPDEST DUP3 ADD SWAP2 SWAP1 PUSH1 0x0 MSTORE PUSH1 0x20 PUSH1 0x0 KECCAK256 SWAP1 JUMPDEST DUP2 SLOAD DUP2 MSTORE SWAP1 PUSH1 0x1 ADD SWAP1 PUSH1 0x20 ADD DUP1 DUP4 GT PUSH2 0x58D JUMPI DUP3 SWAP1 SUB PUSH1 0x1F AND DUP3 ADD SWAP2 JUMPDEST POP POP POP POP POP DUP2 MSTORE POP POP DUP2 MSTORE PUSH1 0x20 ADD SWAP1 PUSH1 0x1 ADD SWAP1 PUSH2 0x3F1 JUMP JUMPDEST POP POP POP POP DUP2 MSTORE PUSH1 0x20 ADD PUSH1 0x3 DUP3 ADD PUSH1 0x0 SWAP1 SLOAD SWAP1 PUSH2 0x100 EXP SWAP1 DIV PUSH1 0xFF AND ISZERO ISZERO ISZERO ISZERO DUP2 MSTORE POP POP SWAP2 POP POP SWAP2 SWAP1 POP JUMP JUMPDEST PUSH1 0x1 DUP1 SLOAD PUSH2 0x5FA SWAP1 PUSH2 0x12DF JUMP JUMPDEST DUP1 PUSH1 0x1F ADD PUSH1 0x20 DUP1 SWAP2 DIV MUL PUSH1 0x20 ADD PUSH1 0x40 MLOAD SWAP1 DUP2 ADD PUSH1 0x40 MSTORE DUP1 SWAP3 SWAP2 SWAP1 DUP2 DUP2 MSTORE PUSH1 0x20 ADD DUP3 DUP1 SLOAD PUSH2 0x626 SWAP1 PUSH2 0x12DF JUMP JUMPDEST DUP1 ISZERO PUSH2 0x673 JUMPI DUP1 PUSH1 0x1F LT PUSH2 0x648 JUMPI PUSH2 0x100 DUP1 DUP4 SLOAD DIV MUL DUP4 MSTORE SWAP2 PUSH1 0x20 ADD SWAP2 PUSH2 0x673 JUMP JUMPDEST DUP3 ADD SWAP2 SWAP1 PUSH1 0x0 MSTORE PUSH1 0x20 PUSH1 0x0 KECCAK256 SWAP1 JUMPDEST DUP2 SLOAD DUP2 MSTORE SWAP1 PUSH1 0x1 ADD SWAP1 PUSH1 0x20 ADD DUP1 DUP4 GT PUSH2 0x656 JUMPI DUP3 SWAP1 SUB PUSH1 0x1F AND DUP3 ADD SWAP2 JUMPDEST POP POP POP POP POP DUP2 JUMP JUMPDEST PUSH1 0x2 SLOAD DUP2 JUMP JUMPDEST PUSH2 0x689 PUSH2 0xB8C JUMP JUMPDEST DUP3 CALLER PUSH1 0x0 PUSH1 0x4 PUSH1 0x3 DUP5 PUSH1 0x40 MLOAD PUSH2 0x69F SWAP2 SWAP1 PUSH2 0x107F JUMP JUMPDEST SWAP1 DUP2 MSTORE PUSH1 0x20 ADD PUSH1 0x40 MLOAD DUP1 SWAP2 SUB SWAP1 KECCAK256 SLOAD DUP2 SLOAD DUP2 LT PUSH2 0x6BF JUMPI PUSH2 0x6BE PUSH2 0x13E9 JUMP JUMPDEST JUMPDEST SWAP1 PUSH1 0x0 MSTORE PUSH1 0x20 PUSH1 0x0 KECCAK256 SWAP1 PUSH1 0x4 MUL ADD SWAP1 POP PUSH1 0x0 JUMPDEST DUP2 PUSH1 0x2 ADD DUP1 SLOAD SWAP1 POP DUP2 LT ISZERO PUSH2 0x7EB JUMPI DUP3 PUSH20 0xFFFFFFFFFFFFFFFFFFFFFFFFFFFFFFFFFFFFFFFF AND DUP3 PUSH1 0x2 ADD DUP3 DUP2 SLOAD DUP2 LT PUSH2 0x70E JUMPI PUSH2 0x70D PUSH2 0x13E9 JUMP JUMPDEST JUMPDEST SWAP1 PUSH1 0x0 MSTORE PUSH1 0x20 PUSH1 0x0 KECCAK256 SWAP1 PUSH1 0x5 MUL ADD PUSH1 0x1 ADD PUSH1 0x0 SWAP1 SLOAD SWAP1 PUSH2 0x100 EXP SWAP1 DIV PUSH20 0xFFFFFFFFFFFFFFFFFFFFFFFFFFFFFFFFFFFFFFFF AND PUSH20 0xFFFFFFFFFFFFFFFFFFFFFFFFFFFFFFFFFFFFFFFF AND EQ ISZERO PUSH2 0x7D8 JUMPI PUSH1 0x0 ISZERO ISZERO DUP3 PUSH1 0x2 ADD DUP3 DUP2 SLOAD DUP2 LT PUSH2 0x776 JUMPI PUSH2 0x775 PUSH2 0x13E9 JUMP JUMPDEST JUMPDEST SWAP1 PUSH1 0x0 MSTORE PUSH1 0x20 PUSH1 0x0 KECCAK256 SWAP1 PUSH1 0x5 MUL ADD PUSH1 0x3 ADD PUSH1 0x0 SWAP1 SLOAD SWAP1 PUSH2 0x100 EXP SWAP1 DIV PUSH1 0xFF AND ISZERO ISZERO EQ PUSH2 0x7D7 JUMPI PUSH1 0x40 MLOAD PUSH32 0x8C379A000000000000000000000000000000000000000000000000000000000 DUP2 MSTORE PUSH1 0x4 ADD PUSH2 0x7CE SWAP1 PUSH2 0x1131 JUMP JUMPDEST PUSH1 0x40 MLOAD DUP1 SWAP2 SUB SWAP1 REVERT JUMPDEST JUMPDEST DUP1 DUP1 PUSH2 0x7E3 SWAP1 PUSH2 0x1342 JUMP JUMPDEST SWAP2 POP POP PUSH2 0x6D2 JUMP JUMPDEST POP PUSH1 0x0 DUP1 SLOAD SWAP1 PUSH2 0x100 EXP SWAP1 DIV PUSH20 0xFFFFFFFFFFFFFFFFFFFFFFFFFFFFFFFFFFFFFFFF AND PUSH20 0xFFFFFFFFFFFFFFFFFFFFFFFFFFFFFFFFFFFFFFFF AND DUP3 PUSH20 0xFFFFFFFFFFFFFFFFFFFFFFFFFFFFFFFFFFFFFFFF AND EQ ISZERO PUSH2 0x87B JUMPI PUSH1 0x40 MLOAD PUSH32 0x8C379A000000000000000000000000000000000000000000000000000000000 DUP2 MSTORE PUSH1 0x4 ADD PUSH2 0x872 SWAP1 PUSH2 0x1111 JUMP JUMPDEST PUSH1 0x40 MLOAD DUP1 SWAP2 SUB SWAP1 REVERT JUMPDEST PUSH1 0x0 PUSH1 0x4 PUSH1 0x3 DUP9 PUSH1 0x40 MLOAD PUSH2 0x88F SWAP2 SWAP1 PUSH2 0x107F JUMP JUMPDEST SWAP1 DUP2 MSTORE PUSH1 0x20 ADD PUSH1 0x40 MLOAD DUP1 SWAP2 SUB SWAP1 KECCAK256 SLOAD DUP2 SLOAD DUP2 LT PUSH2 0x8AF JUMPI PUSH2 0x8AE PUSH2 0x13E9 JUMP JUMPDEST JUMPDEST SWAP1 PUSH1 0x0 MSTORE PUSH1 0x20 PUSH1 0x0 KECCAK256 SWAP1 PUSH1 0x4 MUL ADD SWAP1 POP DUP1 PUSH1 0x40 MLOAD DUP1 PUSH1 0x80 ADD PUSH1 0x40 MSTORE SWAP1 DUP2 PUSH1 0x0 DUP3 ADD DUP1 SLOAD PUSH2 0x8DB SWAP1 PUSH2 0x12DF JUMP JUMPDEST DUP1 PUSH1 0x1F ADD PUSH1 0x20 DUP1 SWAP2 DIV MUL PUSH1 0x20 ADD PUSH1 0x40 MLOAD SWAP1 DUP2 ADD PUSH1 0x40 MSTORE DUP1 SWAP3 SWAP2 SWAP1 DUP2 DUP2 MSTORE PUSH1 0x20 ADD DUP3 DUP1 SLOAD PUSH2 0x907 SWAP1 PUSH2 0x12DF JUMP JUMPDEST DUP1 ISZERO PUSH2 0x954 JUMPI DUP1 PUSH1 0x1F LT PUSH2 0x929 JUMPI PUSH2 0x100 DUP1 DUP4 SLOAD DIV MUL DUP4 MSTORE SWAP2 PUSH1 0x20 ADD SWAP2 PUSH2 0x954 JUMP JUMPDEST DUP3 ADD SWAP2 SWAP1 PUSH1 0x0 MSTORE PUSH1 0x20 PUSH1 0x0 KECCAK256 SWAP1 JUMPDEST DUP2 SLOAD DUP2 MSTORE SWAP1 PUSH1 0x1 ADD SWAP1 PUSH1 0x20 ADD DUP1 DUP4 GT PUSH2 0x937 JUMPI DUP3 SWAP1 SUB PUSH1 0x1F AND DUP3 ADD SWAP2 JUMPDEST POP POP POP POP POP DUP2 MSTORE PUSH1 0x20 ADD PUSH1 0x1 DUP3 ADD SLOAD DUP2 MSTORE PUSH1 0x20 ADD PUSH1 0x2 DUP3 ADD DUP1 SLOAD DUP1 PUSH1 0x20 MUL PUSH1 0x20 ADD PUSH1 0x40 MLOAD SWAP1 DUP2 ADD PUSH1 0x40 MSTORE DUP1 SWAP3 SWAP2 SWAP1 DUP2 DUP2 MSTORE PUSH1 0x20 ADD PUSH1 0x0 SWAP1 JUMPDEST DUP3 DUP3 LT ISZERO PUSH2 0xB5D JUMPI DUP4 DUP3 SWAP1 PUSH1 0x0 MSTORE PUSH1 0x20 PUSH1 0x0 KECCAK256 SWAP1 PUSH1 0x5 MUL ADD PUSH1 0x40 MLOAD DUP1 PUSH1 0xA0 ADD PUSH1 0x40 MSTORE SWAP1 DUP2 PUSH1 0x0 DUP3 ADD DUP1 SLOAD PUSH2 0x9BF SWAP1 PUSH2 0x12DF JUMP JUMPDEST DUP1 PUSH1 0x1F ADD PUSH1 0x20 DUP1 SWAP2 DIV MUL PUSH1 0x20 ADD PUSH1 0x40 MLOAD SWAP1 DUP2 ADD PUSH1 0x40 MSTORE DUP1 SWAP3 SWAP2 SWAP1 DUP2 DUP2 MSTORE PUSH1 0x20 ADD DUP3 DUP1 SLOAD PUSH2 0x9EB SWAP1 PUSH2 0x12DF JUMP JUMPDEST DUP1 ISZERO PUSH2 0xA38 JUMPI DUP1 PUSH1 0x1F LT PUSH2 0xA0D JUMPI PUSH2 0x100 DUP1 DUP4 SLOAD DIV MUL DUP4 MSTORE SWAP2 PUSH1 0x20 ADD SWAP2 PUSH2 0xA38 JUMP JUMPDEST DUP3 ADD SWAP2 SWAP1 PUSH1 0x0 MSTORE PUSH1 0x20 PUSH1 0x0 KECCAK256 SWAP1 JUMPDEST DUP2 SLOAD DUP2 MSTORE SWAP1 PUSH1 0x1 ADD SWAP1 PUSH1 0x20 ADD DUP1 DUP4 GT PUSH2 0xA1B JUMPI DUP3 SWAP1 SUB PUSH1 0x1F AND DUP3 ADD SWAP2 JUMPDEST POP POP POP POP POP DUP2 MSTORE PUSH1 0x20 ADD PUSH1 0x1 DUP3 ADD PUSH1 0x0 SWAP1 SLOAD SWAP1 PUSH2 0x100 EXP SWAP1 DIV PUSH20 0xFFFFFFFFFFFFFFFFFFFFFFFFFFFFFFFFFFFFFFFF AND PUSH20 0xFFFFFFFFFFFFFFFFFFFFFFFFFFFFFFFFFFFFFFFF AND PUSH20 0xFFFFFFFFFFFFFFFFFFFFFFFFFFFFFFFFFFFFFFFF AND DUP2 MSTORE PUSH1 0x20 ADD PUSH1 0x2 DUP3 ADD SLOAD DUP2 MSTORE PUSH1 0x20 ADD PUSH1 0x3 DUP3 ADD PUSH1 0x0 SWAP1 SLOAD SWAP1 PUSH2 0x100 EXP SWAP1 DIV PUSH1 0xFF AND ISZERO ISZERO ISZERO ISZERO DUP2 MSTORE PUSH1 0x20 ADD PUSH1 0x4 DUP3 ADD DUP1 SLOAD PUSH2 0xACC SWAP1 PUSH2 0x12DF JUMP JUMPDEST DUP1 PUSH1 0x1F ADD PUSH1 0x20 DUP1 SWAP2 DIV MUL PUSH1 0x20 ADD PUSH1 0x40 MLOAD SWAP1 DUP2 ADD PUSH1 0x40 MSTORE DUP1 SWAP3 SWAP2 SWAP1 DUP2 DUP2 MSTORE PUSH1 0x20 ADD DUP3 DUP1 SLOAD PUSH2 0xAF8 SWAP1 PUSH2 0x12DF JUMP JUMPDEST DUP1 ISZERO PUSH2 0xB45 JUMPI DUP1 PUSH1 0x1F LT PUSH2 0xB1A JUMPI PUSH2 0x100 DUP1 DUP4 SLOAD DIV MUL DUP4 MSTORE SWAP2 PUSH1 0x20 ADD SWAP2 PUSH2 0xB45 JUMP JUMPDEST DUP3 ADD SWAP2 SWAP1 PUSH1 0x0 MSTORE PUSH1 0x20 PUSH1 0x0 KECCAK256 SWAP1 JUMPDEST DUP2 SLOAD DUP2 MSTORE SWAP1 PUSH1 0x1 ADD SWAP1 PUSH1 0x20 ADD DUP1 DUP4 GT PUSH2 0xB28 JUMPI DUP3 SWAP1 SUB PUSH1 0x1F AND DUP3 ADD SWAP2 JUMPDEST POP POP POP POP POP DUP2 MSTORE POP POP DUP2 MSTORE PUSH1 0x20 ADD SWAP1 PUSH1 0x1 ADD SWAP1 PUSH2 0x98C JUMP JUMPDEST POP POP POP POP DUP2 MSTORE PUSH1 0x20 ADD PUSH1 0x3 DUP3 ADD PUSH1 0x0 SWAP1 SLOAD SWAP1 PUSH2 0x100 EXP SWAP1 DIV PUSH1 0xFF AND ISZERO ISZERO ISZERO ISZERO DUP2 MSTORE POP POP SWAP5 POP POP POP POP POP SWAP3 SWAP2 POP POP JUMP JUMPDEST PUSH1 0x40 MLOAD DUP1 PUSH1 0x80 ADD PUSH1 0x40 MSTORE DUP1 PUSH1 0x60 DUP2 MSTORE PUSH1 0x20 ADD PUSH1 0x0 DUP2 MSTORE PUSH1 0x20 ADD PUSH1 0x60 DUP2 MSTORE PUSH1 0x20 ADD PUSH1 0x0 ISZERO ISZERO DUP2 MSTORE POP SWAP1 JUMP JUMPDEST DUP3 DUP1 SLOAD PUSH2 0xBC2 SWAP1 PUSH2 0x12DF JUMP JUMPDEST SWAP1 PUSH1 0x0 MSTORE PUSH1 0x20 PUSH1 0x0 KECCAK256 SWAP1 PUSH1 0x1F ADD PUSH1 0x20 SWAP1 DIV DUP2 ADD SWAP3 DUP3 PUSH2 0xBE4 JUMPI PUSH1 0x0 DUP6 SSTORE PUSH2 0xC2B JUMP JUMPDEST DUP3 PUSH1 0x1F LT PUSH2 0xBFD JUMPI DUP1 MLOAD PUSH1 0xFF NOT AND DUP4 DUP1 ADD OR DUP6 SSTORE PUSH2 0xC2B JUMP JUMPDEST DUP3 DUP1 ADD PUSH1 0x1 ADD DUP6 SSTORE DUP3 ISZERO PUSH2 0xC2B JUMPI SWAP2 DUP3 ADD JUMPDEST DUP3 DUP2 GT ISZERO PUSH2 0xC2A JUMPI DUP3 MLOAD DUP3 SSTORE SWAP2 PUSH1 0x20 ADD SWAP2 SWAP1 PUSH1 0x1 ADD SWAP1 PUSH2 0xC0F JUMP JUMPDEST JUMPDEST POP SWAP1 POP PUSH2 0xC38 SWAP2 SWAP1 PUSH2 0xC3C JUMP JUMPDEST POP SWAP1 JUMP JUMPDEST JUMPDEST DUP1 DUP3 GT ISZERO PUSH2 0xC55 JUMPI PUSH1 0x0 DUP2 PUSH1 0x0 SWAP1 SSTORE POP PUSH1 0x1 ADD PUSH2 0xC3D JUMP JUMPDEST POP SWAP1 JUMP JUMPDEST PUSH1 0x0 PUSH2 0xC6C PUSH2 0xC67 DUP5 PUSH2 0x11B3 JUMP JUMPDEST PUSH2 0x118E JUMP JUMPDEST SWAP1 POP DUP3 DUP2 MSTORE PUSH1 0x20 DUP2 ADD DUP5 DUP5 DUP5 ADD GT ISZERO PUSH2 0xC88 JUMPI PUSH2 0xC87 PUSH2 0x144C JUMP JUMPDEST JUMPDEST PUSH2 0xC93 DUP5 DUP3 DUP6 PUSH2 0x129D JUMP JUMPDEST POP SWAP4 SWAP3 POP POP POP JUMP JUMPDEST PUSH1 0x0 DUP3 PUSH1 0x1F DUP4 ADD SLT PUSH2 0xCB0 JUMPI PUSH2 0xCAF PUSH2 0x1447 JUMP JUMPDEST JUMPDEST DUP2 CALLDATALOAD PUSH2 0xCC0 DUP5 DUP3 PUSH1 0x20 DUP7 ADD PUSH2 0xC59 JUMP JUMPDEST SWAP2 POP POP SWAP3 SWAP2 POP POP JUMP JUMPDEST PUSH1 0x0 DUP2 CALLDATALOAD SWAP1 POP PUSH2 0xCD8 DUP2 PUSH2 0x14BE JUMP JUMPDEST SWAP3 SWAP2 POP POP JUMP JUMPDEST PUSH1 0x0 PUSH1 0x20 DUP3 DUP5 SUB SLT ISZERO PUSH2 0xCF4 JUMPI PUSH2 0xCF3 PUSH2 0x1456 JUMP JUMPDEST JUMPDEST PUSH1 0x0 DUP3 ADD CALLDATALOAD PUSH8 0xFFFFFFFFFFFFFFFF DUP2 GT ISZERO PUSH2 0xD12 JUMPI PUSH2 0xD11 PUSH2 0x1451 JUMP JUMPDEST JUMPDEST PUSH2 0xD1E DUP5 DUP3 DUP6 ADD PUSH2 0xC9B JUMP JUMPDEST SWAP2 POP POP SWAP3 SWAP2 POP POP JUMP JUMPDEST PUSH1 0x0 DUP1 PUSH1 0x40 DUP4 DUP6 SUB SLT ISZERO PUSH2 0xD3E JUMPI PUSH2 0xD3D PUSH2 0x1456 JUMP JUMPDEST JUMPDEST PUSH1 0x0 DUP4 ADD CALLDATALOAD PUSH8 0xFFFFFFFFFFFFFFFF DUP2 GT ISZERO PUSH2 0xD5C JUMPI PUSH2 0xD5B PUSH2 0x1451 JUMP JUMPDEST JUMPDEST PUSH2 0xD68 DUP6 DUP3 DUP7 ADD PUSH2 0xC9B JUMP JUMPDEST SWAP3 POP POP PUSH1 0x20 DUP4 ADD CALLDATALOAD PUSH8 0xFFFFFFFFFFFFFFFF DUP2 GT ISZERO PUSH2 0xD89 JUMPI PUSH2 0xD88 PUSH2 0x1451 JUMP JUMPDEST JUMPDEST PUSH2 0xD95 DUP6 DUP3 DUP7 ADD PUSH2 0xC9B JUMP JUMPDEST SWAP2 POP POP SWAP3 POP SWAP3 SWAP1 POP JUMP JUMPDEST PUSH1 0x0 PUSH1 0x20 DUP3 DUP5 SUB SLT ISZERO PUSH2 0xDB5 JUMPI PUSH2 0xDB4 PUSH2 0x1456 JUMP JUMPDEST JUMPDEST PUSH1 0x0 PUSH2 0xDC3 DUP5 DUP3 DUP6 ADD PUSH2 0xCC9 JUMP JUMPDEST SWAP2 POP POP SWAP3 SWAP2 POP POP JUMP JUMPDEST PUSH1 0x0 PUSH2 0xDD8 DUP4 DUP4 PUSH2 0xFE4 JUMP JUMPDEST SWAP1 POP SWAP3 SWAP2 POP POP JUMP JUMPDEST PUSH2 0xDE9 DUP2 PUSH2 0x1255 JUMP JUMPDEST DUP3 MSTORE POP POP JUMP JUMPDEST PUSH2 0xDF8 DUP2 PUSH2 0x1255 JUMP JUMPDEST DUP3 MSTORE POP POP JUMP JUMPDEST PUSH1 0x0 PUSH2 0xE09 DUP3 PUSH2 0x11F4 JUMP JUMPDEST PUSH2 0xE13 DUP2 DUP6 PUSH2 0x1217 JUMP JUMPDEST SWAP4 POP DUP4 PUSH1 0x20 DUP3 MUL DUP6 ADD PUSH2 0xE25 DUP6 PUSH2 0x11E4 JUMP JUMPDEST DUP1 PUSH1 0x0 JUMPDEST DUP6 DUP2 LT ISZERO PUSH2 0xE61 JUMPI DUP5 DUP5 SUB DUP10 MSTORE DUP2 MLOAD PUSH2 0xE42 DUP6 DUP3 PUSH2 0xDCC JUMP JUMPDEST SWAP5 POP PUSH2 0xE4D DUP4 PUSH2 0x120A JUMP JUMPDEST SWAP3 POP PUSH1 0x20 DUP11 ADD SWAP10 POP POP PUSH1 0x1 DUP2 ADD SWAP1 POP PUSH2 0xE29 JUMP JUMPDEST POP DUP3 SWAP8 POP DUP8 SWAP6 POP POP POP POP POP POP SWAP3 SWAP2 POP POP JUMP JUMPDEST PUSH2 0xE7C DUP2 PUSH2 0x1267 JUMP JUMPDEST DUP3 MSTORE POP POP JUMP JUMPDEST PUSH2 0xE8B DUP2 PUSH2 0x1267 JUMP JUMPDEST DUP3 MSTORE POP POP JUMP JUMPDEST PUSH1 0x0 PUSH2 0xE9C DUP3 PUSH2 0x11FF JUMP JUMPDEST PUSH2 0xEA6 DUP2 DUP6 PUSH2 0x1228 JUMP JUMPDEST SWAP4 POP PUSH2 0xEB6 DUP2 DUP6 PUSH1 0x20 DUP7 ADD PUSH2 0x12AC JUMP JUMPDEST PUSH2 0xEBF DUP2 PUSH2 0x145B JUMP JUMPDEST DUP5 ADD SWAP2 POP POP SWAP3 SWAP2 POP POP JUMP JUMPDEST PUSH1 0x0 PUSH2 0xED5 DUP3 PUSH2 0x11FF JUMP JUMPDEST PUSH2 0xEDF DUP2 DUP6 PUSH2 0x1239 JUMP JUMPDEST SWAP4 POP PUSH2 0xEEF DUP2 DUP6 PUSH1 0x20 DUP7 ADD PUSH2 0x12AC JUMP JUMPDEST PUSH2 0xEF8 DUP2 PUSH2 0x145B JUMP JUMPDEST DUP5 ADD SWAP2 POP POP SWAP3 SWAP2 POP POP JUMP JUMPDEST PUSH1 0x0 PUSH2 0xF0E DUP3 PUSH2 0x11FF JUMP JUMPDEST PUSH2 0xF18 DUP2 DUP6 PUSH2 0x124A JUMP JUMPDEST SWAP4 POP PUSH2 0xF28 DUP2 DUP6 PUSH1 0x20 DUP7 ADD PUSH2 0x12AC JUMP JUMPDEST DUP1 DUP5 ADD SWAP2 POP POP SWAP3 SWAP2 POP POP JUMP JUMPDEST PUSH1 0x0 PUSH2 0xF41 PUSH1 0x1A DUP4 PUSH2 0x1239 JUMP JUMPDEST SWAP2 POP PUSH2 0xF4C DUP3 PUSH2 0x146C JUMP JUMPDEST PUSH1 0x20 DUP3 ADD SWAP1 POP SWAP2 SWAP1 POP JUMP JUMPDEST PUSH1 0x0 PUSH2 0xF64 PUSH1 0x13 DUP4 PUSH2 0x1239 JUMP JUMPDEST SWAP2 POP PUSH2 0xF6F DUP3 PUSH2 0x1495 JUMP JUMPDEST PUSH1 0x20 DUP3 ADD SWAP1 POP SWAP2 SWAP1 POP JUMP JUMPDEST PUSH1 0x0 PUSH1 0x80 DUP4 ADD PUSH1 0x0 DUP4 ADD MLOAD DUP5 DUP3 SUB PUSH1 0x0 DUP7 ADD MSTORE PUSH2 0xF97 DUP3 DUP3 PUSH2 0xE91 JUMP JUMPDEST SWAP2 POP POP PUSH1 0x20 DUP4 ADD MLOAD PUSH2 0xFAC PUSH1 0x20 DUP7 ADD DUP3 PUSH2 0x1061 JUMP JUMPDEST POP PUSH1 0x40 DUP4 ADD MLOAD DUP5 DUP3 SUB PUSH1 0x40 DUP7 ADD MSTORE PUSH2 0xFC4 DUP3 DUP3 PUSH2 0xDFE JUMP JUMPDEST SWAP2 POP POP PUSH1 0x60 DUP4 ADD MLOAD PUSH2 0xFD9 PUSH1 0x60 DUP7 ADD DUP3 PUSH2 0xE73 JUMP JUMPDEST POP DUP1 SWAP2 POP POP SWAP3 SWAP2 POP POP JUMP JUMPDEST PUSH1 0x0 PUSH1 0xA0 DUP4 ADD PUSH1 0x0 DUP4 ADD MLOAD DUP5 DUP3 SUB PUSH1 0x0 DUP7 ADD MSTORE PUSH2 0x1001 DUP3 DUP3 PUSH2 0xE91 JUMP JUMPDEST SWAP2 POP POP PUSH1 0x20 DUP4 ADD MLOAD PUSH2 0x1016 PUSH1 0x20 DUP7 ADD DUP3 PUSH2 0xDE0 JUMP JUMPDEST POP PUSH1 0x40 DUP4 ADD MLOAD PUSH2 0x1029 PUSH1 0x40 DUP7 ADD DUP3 PUSH2 0x1061 JUMP JUMPDEST POP PUSH1 0x60 DUP4 ADD MLOAD PUSH2 0x103C PUSH1 0x60 DUP7 ADD DUP3 PUSH2 0xE73 JUMP JUMPDEST POP PUSH1 0x80 DUP4 ADD MLOAD DUP5 DUP3 SUB PUSH1 0x80 DUP7 ADD MSTORE PUSH2 0x1054 DUP3 DUP3 PUSH2 0xE91 JUMP JUMPDEST SWAP2 POP POP DUP1 SWAP2 POP POP SWAP3 SWAP2 POP POP JUMP JUMPDEST PUSH2 0x106A DUP2 PUSH2 0x1293 JUMP JUMPDEST DUP3 MSTORE POP POP JUMP JUMPDEST PUSH2 0x1079 DUP2 PUSH2 0x1293 JUMP JUMPDEST DUP3 MSTORE POP POP JUMP JUMPDEST PUSH1 0x0 PUSH2 0x108B DUP3 DUP5 PUSH2 0xF03 JUMP JUMPDEST SWAP2 POP DUP2 SWAP1 POP SWAP3 SWAP2 POP POP JUMP JUMPDEST PUSH1 0x0 PUSH1 0x20 DUP3 ADD SWAP1 POP PUSH2 0x10AB PUSH1 0x0 DUP4 ADD DUP5 PUSH2 0xDEF JUMP JUMPDEST SWAP3 SWAP2 POP POP JUMP JUMPDEST PUSH1 0x0 PUSH1 0x20 DUP3 ADD SWAP1 POP DUP2 DUP2 SUB PUSH1 0x0 DUP4 ADD MSTORE PUSH2 0x10CB DUP2 DUP5 PUSH2 0xECA JUMP JUMPDEST SWAP1 POP SWAP3 SWAP2 POP POP JUMP JUMPDEST PUSH1 0x0 PUSH1 0x60 DUP3 ADD SWAP1 POP DUP2 DUP2 SUB PUSH1 0x0 DUP4 ADD MSTORE PUSH2 0x10ED DUP2 DUP7 PUSH2 0xECA JUMP JUMPDEST SWAP1 POP PUSH2 0x10FC PUSH1 0x20 DUP4 ADD DUP6 PUSH2 0x1070 JUMP JUMPDEST PUSH2 0x1109 PUSH1 0x40 DUP4 ADD DUP5 PUSH2 0xE82 JUMP JUMPDEST SWAP5 SWAP4 POP POP POP POP JUMP JUMPDEST PUSH1 0x0 PUSH1 0x20 DUP3 ADD SWAP1 POP DUP2 DUP2 SUB PUSH1 0x0 DUP4 ADD MSTORE PUSH2 0x112A DUP2 PUSH2 0xF34 JUMP JUMPDEST SWAP1 POP SWAP2 SWAP1 POP JUMP JUMPDEST PUSH1 0x0 PUSH1 0x20 DUP3 ADD SWAP1 POP DUP2 DUP2 SUB PUSH1 0x0 DUP4 ADD MSTORE PUSH2 0x114A DUP2 PUSH2 0xF57 JUMP JUMPDEST SWAP1 POP SWAP2 SWAP1 POP JUMP JUMPDEST PUSH1 0x0 PUSH1 0x20 DUP3 ADD SWAP1 POP DUP2 DUP2 SUB PUSH1 0x0 DUP4 ADD MSTORE PUSH2 0x116B DUP2 DUP5 PUSH2 0xF7A JUMP JUMPDEST SWAP1 POP SWAP3 SWAP2 POP POP JUMP JUMPDEST PUSH1 0x0 PUSH1 0x20 DUP3 ADD SWAP1 POP PUSH2 0x1188 PUSH1 0x0 DUP4 ADD DUP5 PUSH2 0x1070 JUMP JUMPDEST SWAP3 SWAP2 POP POP JUMP JUMPDEST PUSH1 0x0 PUSH2 0x1198 PUSH2 0x11A9 JUMP JUMPDEST SWAP1 POP PUSH2 0x11A4 DUP3 DUP3 PUSH2 0x1311 JUMP JUMPDEST SWAP2 SWAP1 POP JUMP JUMPDEST PUSH1 0x0 PUSH1 0x40 MLOAD SWAP1 POP SWAP1 JUMP JUMPDEST PUSH1 0x0 PUSH8 0xFFFFFFFFFFFFFFFF DUP3 GT ISZERO PUSH2 0x11CE JUMPI PUSH2 0x11CD PUSH2 0x1418 JUMP JUMPDEST JUMPDEST PUSH2 0x11D7 DUP3 PUSH2 0x145B JUMP JUMPDEST SWAP1 POP PUSH1 0x20 DUP2 ADD SWAP1 POP SWAP2 SWAP1 POP JUMP JUMPDEST PUSH1 0x0 DUP2 SWAP1 POP PUSH1 0x20 DUP3 ADD SWAP1 POP SWAP2 SWAP1 POP JUMP JUMPDEST PUSH1 0x0 DUP2 MLOAD SWAP1 POP SWAP2 SWAP1 POP JUMP JUMPDEST PUSH1 0x0 DUP2 MLOAD SWAP1 POP SWAP2 SWAP1 POP JUMP JUMPDEST PUSH1 0x0 PUSH1 0x20 DUP3 ADD SWAP1 POP SWAP2 SWAP1 POP JUMP JUMPDEST PUSH1 0x0 DUP3 DUP3 MSTORE PUSH1 0x20 DUP3 ADD SWAP1 POP SWAP3 SWAP2 POP POP JUMP JUMPDEST PUSH1 0x0 DUP3 DUP3 MSTORE PUSH1 0x20 DUP3 ADD SWAP1 POP SWAP3 SWAP2 POP POP JUMP JUMPDEST PUSH1 0x0 DUP3 DUP3 MSTORE PUSH1 0x20 DUP3 ADD SWAP1 POP SWAP3 SWAP2 POP POP JUMP JUMPDEST PUSH1 0x0 DUP2 SWAP1 POP SWAP3 SWAP2 POP POP JUMP JUMPDEST PUSH1 0x0 PUSH2 0x1260 DUP3 PUSH2 0x1273 JUMP JUMPDEST SWAP1 POP SWAP2 SWAP1 POP JUMP JUMPDEST PUSH1 0x0 DUP2 ISZERO ISZERO SWAP1 POP SWAP2 SWAP1 POP JUMP JUMPDEST PUSH1 0x0 PUSH20 0xFFFFFFFFFFFFFFFFFFFFFFFFFFFFFFFFFFFFFFFF DUP3 AND SWAP1 POP SWAP2 SWAP1 POP JUMP JUMPDEST PUSH1 0x0 DUP2 SWAP1 POP SWAP2 SWAP1 POP JUMP JUMPDEST DUP3 DUP2 DUP4 CALLDATACOPY PUSH1 0x0 DUP4 DUP4 ADD MSTORE POP POP POP JUMP JUMPDEST PUSH1 0x0 JUMPDEST DUP4 DUP2 LT ISZERO PUSH2 0x12CA JUMPI DUP1 DUP3 ADD MLOAD DUP2 DUP5 ADD MSTORE PUSH1 0x20 DUP2 ADD SWAP1 POP PUSH2 0x12AF JUMP JUMPDEST DUP4 DUP2 GT ISZERO PUSH2 0x12D9 JUMPI PUSH1 0x0 DUP5 DUP5 ADD MSTORE JUMPDEST POP POP POP POP JUMP JUMPDEST PUSH1 0x0 PUSH1 0x2 DUP3 DIV SWAP1 POP PUSH1 0x1 DUP3 AND DUP1 PUSH2 0x12F7 JUMPI PUSH1 0x7F DUP3 AND SWAP2 POP JUMPDEST PUSH1 0x20 DUP3 LT DUP2 EQ ISZERO PUSH2 0x130B JUMPI PUSH2 0x130A PUSH2 0x13BA JUMP JUMPDEST JUMPDEST POP SWAP2 SWAP1 POP JUMP JUMPDEST PUSH2 0x131A DUP3 PUSH2 0x145B JUMP JUMPDEST DUP2 ADD DUP2 DUP2 LT PUSH8 0xFFFFFFFFFFFFFFFF DUP3 GT OR ISZERO PUSH2 0x1339 JUMPI PUSH2 0x1338 PUSH2 0x1418 JUMP JUMPDEST JUMPDEST DUP1 PUSH1 0x40 MSTORE POP POP POP JUMP JUMPDEST PUSH1 0x0 PUSH2 0x134D DUP3 PUSH2 0x1293 JUMP JUMPDEST SWAP2 POP PUSH32 0xFFFFFFFFFFFFFFFFFFFFFFFFFFFFFFFFFFFFFFFFFFFFFFFFFFFFFFFFFFFFFFFF DUP3 EQ ISZERO PUSH2 0x1380 JUMPI PUSH2 0x137F PUSH2 0x138B JUMP JUMPDEST JUMPDEST PUSH1 0x1 DUP3 ADD SWAP1 POP SWAP2 SWAP1 POP JUMP JUMPDEST PUSH32 0x4E487B7100000000000000000000000000000000000000000000000000000000 PUSH1 0x0 MSTORE PUSH1 0x11 PUSH1 0x4 MSTORE PUSH1 0x24 PUSH1 0x0 REVERT JUMPDEST PUSH32 0x4E487B7100000000000000000000000000000000000000000000000000000000 PUSH1 0x0 MSTORE PUSH1 0x22 PUSH1 0x4 MSTORE PUSH1 0x24 PUSH1 0x0 REVERT JUMPDEST PUSH32 0x4E487B7100000000000000000000000000000000000000000000000000000000 PUSH1 0x0 MSTORE PUSH1 0x32 PUSH1 0x4 MSTORE PUSH1 0x24 PUSH1 0x0 REVERT JUMPDEST PUSH32 0x4E487B7100000000000000000000000000000000000000000000000000000000 PUSH1 0x0 MSTORE PUSH1 0x41 PUSH1 0x4 MSTORE PUSH1 0x24 PUSH1 0x0 REVERT JUMPDEST PUSH1 0x0 DUP1 REVERT JUMPDEST PUSH1 0x0 DUP1 REVERT JUMPDEST PUSH1 0x0 DUP1 REVERT JUMPDEST PUSH1 0x0 DUP1 REVERT JUMPDEST PUSH1 0x0 PUSH1 0x1F NOT PUSH1 0x1F DUP4 ADD AND SWAP1 POP SWAP2 SWAP1 POP JUMP JUMPDEST PUSH32 0x6368616972706572736F6E206973206E6F7420616C7269677468000000000000 PUSH1 0x0 DUP3 ADD MSTORE POP JUMP JUMPDEST PUSH32 0x766F74657220616C726561647920766F74656400000000000000000000000000 PUSH1 0x0 DUP3 ADD MSTORE POP JUMP JUMPDEST PUSH2 0x14C7 DUP2 PUSH2 0x1293 JUMP JUMPDEST DUP2 EQ PUSH2 0x14D2 JUMPI PUSH1 0x0 DUP1 REVERT JUMPDEST POP JUMP INVALID LOG2 PUSH5 0x6970667358 0x22 SLT KECCAK256 0xA7 SHL ADD JUMPI PUSH10 0x9FA5FBBCC3FB4DD9CF48 CREATE2 DUP2 CALLCODE PUSH8 0x9B93145D66AD2710 0xC7 GASLIMIT DUP9 RETURNDATACOPY DUP14 PUSH5 0x736F6C6343 STOP ADDMOD SMOD STOP CALLER LOG2 PUSH5 0x6970667358 0x22 SLT KECCAK256 0x28 SWAP7 PUSH21 0xA7E5AC340B4E197395AA14F1E80033ECABFFB76801 0xB4 0xDD 0xBD PUSH22 0xA45732A764736F6C6343000807003300000000000000 "
				},
				"gasEstimates": {
					"creation": {
						"codeDepositCost": "1688800",
						"executionCost": "1771",
						"totalCost": "1690571"
					},
					"external": {
						"UnionAddress(string)": "infinite",
						"createUnion(string,address)": "infinite",
						"totalUnionNumber()": "2445",
						"unions(uint256)": "5086"
					}
				},
				"methodIdentifiers": {
					"UnionAddress(string)": "9ff39c9e",
					"createUnion(string,address)": "86c1d5fd",
					"totalUnionNumber()": "8ecd58e9",
					"unions(uint256)": "a20fe1c7"
				}
			},
			"storageLayout": {
				"storage": [
					{
						"astId": 193,
						"contract": "smartContract/contracts/NewVote.sol:UnionFactory",
						"label": "unions",
						"offset": 0,
						"slot": "0",
						"type": "t_array(t_contract(Union)189)dyn_storage"
					},
					{
						"astId": 197,
						"contract": "smartContract/contracts/NewVote.sol:UnionFactory",
						"label": "findUnionAddress",
						"offset": 0,
						"slot": "1",
						"type": "t_mapping(t_string_memory_ptr,t_address)"
					}
				],
				"types": {
					"t_address": {
						"encoding": "inplace",
						"label": "address",
						"numberOfBytes": "20"
					},
					"t_array(t_contract(Union)189)dyn_storage": {
						"base": "t_contract(Union)189",
						"encoding": "dynamic_array",
						"label": "contract Union[]",
						"numberOfBytes": "32"
					},
					"t_contract(Union)189": {
						"encoding": "inplace",
						"label": "contract Union",
						"numberOfBytes": "20"
					},
					"t_mapping(t_string_memory_ptr,t_address)": {
						"encoding": "mapping",
						"key": "t_string_memory_ptr",
						"label": "mapping(string => address)",
						"numberOfBytes": "32",
						"value": "t_address"
					},
					"t_string_memory_ptr": {
						"encoding": "bytes",
						"label": "string",
						"numberOfBytes": "32"
					}
				}
			},
			"userdoc": {
				"kind": "user",
				"methods": {},
				"version": 1
			}
		}
	}
}