{
	"smartContract/contracts/Union.sol": {
		"Union": {
			"abi": [
				{
					"inputs": [
						{
							"internalType": "string",
							"name": "_unionName",
							"type": "string"
						},
						{
							"internalType": "address",
							"name": "owner",
							"type": "address"
						}
					],
					"stateMutability": "nonpayable",
					"type": "constructor"
				},
				{
					"inputs": [],
					"name": "chairperson",
					"outputs": [
						{
							"internalType": "address",
							"name": "",
							"type": "address"
						}
					],
					"stateMutability": "view",
					"type": "function"
				},
				{
					"inputs": [
						{
							"internalType": "string",
							"name": "_subject",
							"type": "string"
						}
					],
					"name": "createOneSuggestion",
					"outputs": [],
					"stateMutability": "nonpayable",
					"type": "function"
				},
				{
					"inputs": [],
					"name": "suggestionNo",
					"outputs": [
						{
							"internalType": "uint256",
							"name": "",
							"type": "uint256"
						}
					],
					"stateMutability": "view",
					"type": "function"
				},
				{
					"inputs": [
						{
							"internalType": "uint256",
							"name": "",
							"type": "uint256"
						}
					],
					"name": "suggestions",
					"outputs": [
						{
							"internalType": "string",
							"name": "subject",
							"type": "string"
						},
						{
							"internalType": "uint256",
							"name": "suggestionNo",
							"type": "uint256"
						},
						{
							"internalType": "bool",
							"name": "status",
							"type": "bool"
						}
					],
					"stateMutability": "view",
					"type": "function"
				},
				{
					"inputs": [
						{
							"internalType": "string",
							"name": "_subject",
							"type": "string"
						},
						{
							"internalType": "string",
							"name": "_answer",
							"type": "string"
						}
					],
					"name": "test",
					"outputs": [],
					"stateMutability": "payable",
					"type": "function"
				},
				{
					"inputs": [],
					"name": "unionName",
					"outputs": [
						{
							"internalType": "string",
							"name": "",
							"type": "string"
						}
					],
					"stateMutability": "view",
					"type": "function"
				}
			],
			"devdoc": {
				"kind": "dev",
				"methods": {},
				"version": 1
			},
			"evm": {
				"assembly": "    /* \"smartContract/contracts/Union.sol\":58:2725  contract Union{... */\n  mstore(0x40, 0x80)\n    /* \"smartContract/contracts/Union.sol\":935:1052  constructor(string memory _unionName,address owner){... */\n  callvalue\n  dup1\n  iszero\n  tag_1\n  jumpi\n  0x00\n  dup1\n  revert\ntag_1:\n  pop\n  mload(0x40)\n  sub(codesize, bytecodeSize)\n  dup1\n  bytecodeSize\n  dup4\n  codecopy\n  dup2\n  dup2\n  add\n  0x40\n  mstore\n  dup2\n  add\n  swap1\n  tag_2\n  swap2\n  swap1\n  tag_3\n  jump\t// in\ntag_2:\n    /* \"smartContract/contracts/Union.sol\":1009:1014  owner */\n  dup1\n    /* \"smartContract/contracts/Union.sol\":995:1006  chairperson */\n  0x00\n  dup1\n    /* \"smartContract/contracts/Union.sol\":995:1014  chairperson = owner */\n  0x0100\n  exp\n  dup2\n  sload\n  dup2\n  0xffffffffffffffffffffffffffffffffffffffff\n  mul\n  not\n  and\n  swap1\n  dup4\n  0xffffffffffffffffffffffffffffffffffffffff\n  and\n  mul\n  or\n  swap1\n  sstore\n  pop\n    /* \"smartContract/contracts/Union.sol\":1035:1045  _unionName */\n  dup2\n    /* \"smartContract/contracts/Union.sol\":1023:1032  unionName */\n  0x01\n    /* \"smartContract/contracts/Union.sol\":1023:1045  unionName = _unionName */\n  swap1\n  dup1\n  mload\n  swap1\n  0x20\n  add\n  swap1\n  tag_6\n  swap3\n  swap2\n  swap1\n  tag_7\n  jump\t// in\ntag_6:\n  pop\n    /* \"smartContract/contracts/Union.sol\":935:1052  constructor(string memory _unionName,address owner){... */\n  pop\n  pop\n    /* \"smartContract/contracts/Union.sol\":58:2725  contract Union{... */\n  jump(tag_8)\ntag_7:\n  dup3\n  dup1\n  sload\n  tag_9\n  swap1\n  tag_10\n  jump\t// in\ntag_9:\n  swap1\n  0x00\n  mstore\n  keccak256(0x00, 0x20)\n  swap1\n  0x1f\n  add\n  0x20\n  swap1\n  div\n  dup2\n  add\n  swap3\n  dup3\n  tag_12\n  jumpi\n  0x00\n  dup6\n  sstore\n  jump(tag_11)\ntag_12:\n  dup3\n  0x1f\n  lt\n  tag_13\n  jumpi\n  dup1\n  mload\n  not(0xff)\n  and\n  dup4\n  dup1\n  add\n  or\n  dup6\n  sstore\n  jump(tag_11)\ntag_13:\n  dup3\n  dup1\n  add\n  0x01\n  add\n  dup6\n  sstore\n  dup3\n  iszero\n  tag_11\n  jumpi\n  swap2\n  dup3\n  add\ntag_14:\n  dup3\n  dup2\n  gt\n  iszero\n  tag_15\n  jumpi\n  dup3\n  mload\n  dup3\n  sstore\n  swap2\n  0x20\n  add\n  swap2\n  swap1\n  0x01\n  add\n  swap1\n  jump(tag_14)\ntag_15:\ntag_11:\n  pop\n  swap1\n  pop\n  tag_16\n  swap2\n  swap1\n  tag_17\n  jump\t// in\ntag_16:\n  pop\n  swap1\n  jump\t// out\ntag_17:\ntag_18:\n  dup1\n  dup3\n  gt\n  iszero\n  tag_19\n  jumpi\n  0x00\n  dup2\n  0x00\n  swap1\n  sstore\n  pop\n  0x01\n  add\n  jump(tag_18)\ntag_19:\n  pop\n  swap1\n  jump\t// out\n    /* \"#utility.yul\":7:428   */\ntag_21:\n    /* \"#utility.yul\":96:101   */\n  0x00\n    /* \"#utility.yul\":121:187   */\n  tag_23\n    /* \"#utility.yul\":137:186   */\n  tag_24\n    /* \"#utility.yul\":179:185   */\n  dup5\n    /* \"#utility.yul\":137:186   */\n  tag_25\n  jump\t// in\ntag_24:\n    /* \"#utility.yul\":121:187   */\n  tag_26\n  jump\t// in\ntag_23:\n    /* \"#utility.yul\":112:187   */\n  swap1\n  pop\n    /* \"#utility.yul\":210:216   */\n  dup3\n    /* \"#utility.yul\":203:208   */\n  dup2\n    /* \"#utility.yul\":196:217   */\n  mstore\n    /* \"#utility.yul\":248:252   */\n  0x20\n    /* \"#utility.yul\":241:246   */\n  dup2\n    /* \"#utility.yul\":237:253   */\n  add\n    /* \"#utility.yul\":286:289   */\n  dup5\n    /* \"#utility.yul\":277:283   */\n  dup5\n    /* \"#utility.yul\":272:275   */\n  dup5\n    /* \"#utility.yul\":268:284   */\n  add\n    /* \"#utility.yul\":265:290   */\n  gt\n    /* \"#utility.yul\":262:374   */\n  iszero\n  tag_27\n  jumpi\n    /* \"#utility.yul\":293:372   */\n  tag_28\n  tag_29\n  jump\t// in\ntag_28:\n    /* \"#utility.yul\":262:374   */\ntag_27:\n    /* \"#utility.yul\":383:422   */\n  tag_30\n    /* \"#utility.yul\":415:421   */\n  dup5\n    /* \"#utility.yul\":410:413   */\n  dup3\n    /* \"#utility.yul\":405:408   */\n  dup6\n    /* \"#utility.yul\":383:422   */\n  tag_31\n  jump\t// in\ntag_30:\n    /* \"#utility.yul\":102:428   */\n  pop\n    /* \"#utility.yul\":7:428   */\n  swap4\n  swap3\n  pop\n  pop\n  pop\n  jump\t// out\n    /* \"#utility.yul\":434:577   */\ntag_32:\n    /* \"#utility.yul\":491:496   */\n  0x00\n    /* \"#utility.yul\":522:528   */\n  dup2\n    /* \"#utility.yul\":516:529   */\n  mload\n    /* \"#utility.yul\":507:529   */\n  swap1\n  pop\n    /* \"#utility.yul\":538:571   */\n  tag_34\n    /* \"#utility.yul\":565:570   */\n  dup2\n    /* \"#utility.yul\":538:571   */\n  tag_35\n  jump\t// in\ntag_34:\n    /* \"#utility.yul\":434:577   */\n  swap3\n  swap2\n  pop\n  pop\n  jump\t// out\n    /* \"#utility.yul\":597:952   */\ntag_36:\n    /* \"#utility.yul\":664:669   */\n  0x00\n    /* \"#utility.yul\":713:716   */\n  dup3\n    /* \"#utility.yul\":706:710   */\n  0x1f\n    /* \"#utility.yul\":698:704   */\n  dup4\n    /* \"#utility.yul\":694:711   */\n  add\n    /* \"#utility.yul\":690:717   */\n  slt\n    /* \"#utility.yul\":680:802   */\n  tag_38\n  jumpi\n    /* \"#utility.yul\":721:800   */\n  tag_39\n  tag_40\n  jump\t// in\ntag_39:\n    /* \"#utility.yul\":680:802   */\ntag_38:\n    /* \"#utility.yul\":831:837   */\n  dup2\n    /* \"#utility.yul\":825:838   */\n  mload\n    /* \"#utility.yul\":856:946   */\n  tag_41\n    /* \"#utility.yul\":942:945   */\n  dup5\n    /* \"#utility.yul\":934:940   */\n  dup3\n    /* \"#utility.yul\":927:931   */\n  0x20\n    /* \"#utility.yul\":919:925   */\n  dup7\n    /* \"#utility.yul\":915:932   */\n  add\n    /* \"#utility.yul\":856:946   */\n  tag_21\n  jump\t// in\ntag_41:\n    /* \"#utility.yul\":847:946   */\n  swap2\n  pop\n    /* \"#utility.yul\":670:952   */\n  pop\n    /* \"#utility.yul\":597:952   */\n  swap3\n  swap2\n  pop\n  pop\n  jump\t// out\n    /* \"#utility.yul\":958:1638   */\ntag_3:\n    /* \"#utility.yul\":1047:1053   */\n  0x00\n    /* \"#utility.yul\":1055:1061   */\n  dup1\n    /* \"#utility.yul\":1104:1106   */\n  0x40\n    /* \"#utility.yul\":1092:1101   */\n  dup4\n    /* \"#utility.yul\":1083:1090   */\n  dup6\n    /* \"#utility.yul\":1079:1102   */\n  sub\n    /* \"#utility.yul\":1075:1107   */\n  slt\n    /* \"#utility.yul\":1072:1191   */\n  iszero\n  tag_43\n  jumpi\n    /* \"#utility.yul\":1110:1189   */\n  tag_44\n  tag_45\n  jump\t// in\ntag_44:\n    /* \"#utility.yul\":1072:1191   */\ntag_43:\n    /* \"#utility.yul\":1251:1252   */\n  0x00\n    /* \"#utility.yul\":1240:1249   */\n  dup4\n    /* \"#utility.yul\":1236:1253   */\n  add\n    /* \"#utility.yul\":1230:1254   */\n  mload\n    /* \"#utility.yul\":1281:1299   */\n  0xffffffffffffffff\n    /* \"#utility.yul\":1273:1279   */\n  dup2\n    /* \"#utility.yul\":1270:1300   */\n  gt\n    /* \"#utility.yul\":1267:1384   */\n  iszero\n  tag_46\n  jumpi\n    /* \"#utility.yul\":1303:1382   */\n  tag_47\n  tag_48\n  jump\t// in\ntag_47:\n    /* \"#utility.yul\":1267:1384   */\ntag_46:\n    /* \"#utility.yul\":1408:1482   */\n  tag_49\n    /* \"#utility.yul\":1474:1481   */\n  dup6\n    /* \"#utility.yul\":1465:1471   */\n  dup3\n    /* \"#utility.yul\":1454:1463   */\n  dup7\n    /* \"#utility.yul\":1450:1472   */\n  add\n    /* \"#utility.yul\":1408:1482   */\n  tag_36\n  jump\t// in\ntag_49:\n    /* \"#utility.yul\":1398:1482   */\n  swap3\n  pop\n    /* \"#utility.yul\":1201:1492   */\n  pop\n    /* \"#utility.yul\":1531:1533   */\n  0x20\n    /* \"#utility.yul\":1557:1621   */\n  tag_50\n    /* \"#utility.yul\":1613:1620   */\n  dup6\n    /* \"#utility.yul\":1604:1610   */\n  dup3\n    /* \"#utility.yul\":1593:1602   */\n  dup7\n    /* \"#utility.yul\":1589:1611   */\n  add\n    /* \"#utility.yul\":1557:1621   */\n  tag_32\n  jump\t// in\ntag_50:\n    /* \"#utility.yul\":1547:1621   */\n  swap2\n  pop\n    /* \"#utility.yul\":1502:1631   */\n  pop\n    /* \"#utility.yul\":958:1638   */\n  swap3\n  pop\n  swap3\n  swap1\n  pop\n  jump\t// out\n    /* \"#utility.yul\":1644:1773   */\ntag_26:\n    /* \"#utility.yul\":1678:1684   */\n  0x00\n    /* \"#utility.yul\":1705:1725   */\n  tag_52\n  tag_53\n  jump\t// in\ntag_52:\n    /* \"#utility.yul\":1695:1725   */\n  swap1\n  pop\n    /* \"#utility.yul\":1734:1767   */\n  tag_54\n    /* \"#utility.yul\":1762:1766   */\n  dup3\n    /* \"#utility.yul\":1754:1760   */\n  dup3\n    /* \"#utility.yul\":1734:1767   */\n  tag_55\n  jump\t// in\ntag_54:\n    /* \"#utility.yul\":1644:1773   */\n  swap2\n  swap1\n  pop\n  jump\t// out\n    /* \"#utility.yul\":1779:1854   */\ntag_53:\n    /* \"#utility.yul\":1812:1818   */\n  0x00\n    /* \"#utility.yul\":1845:1847   */\n  0x40\n    /* \"#utility.yul\":1839:1848   */\n  mload\n    /* \"#utility.yul\":1829:1848   */\n  swap1\n  pop\n    /* \"#utility.yul\":1779:1854   */\n  swap1\n  jump\t// out\n    /* \"#utility.yul\":1860:2168   */\ntag_25:\n    /* \"#utility.yul\":1922:1926   */\n  0x00\n    /* \"#utility.yul\":2012:2030   */\n  0xffffffffffffffff\n    /* \"#utility.yul\":2004:2010   */\n  dup3\n    /* \"#utility.yul\":2001:2031   */\n  gt\n    /* \"#utility.yul\":1998:2054   */\n  iszero\n  tag_58\n  jumpi\n    /* \"#utility.yul\":2034:2052   */\n  tag_59\n  tag_60\n  jump\t// in\ntag_59:\n    /* \"#utility.yul\":1998:2054   */\ntag_58:\n    /* \"#utility.yul\":2072:2101   */\n  tag_61\n    /* \"#utility.yul\":2094:2100   */\n  dup3\n    /* \"#utility.yul\":2072:2101   */\n  tag_62\n  jump\t// in\ntag_61:\n    /* \"#utility.yul\":2064:2101   */\n  swap1\n  pop\n    /* \"#utility.yul\":2156:2160   */\n  0x20\n    /* \"#utility.yul\":2150:2154   */\n  dup2\n    /* \"#utility.yul\":2146:2161   */\n  add\n    /* \"#utility.yul\":2138:2161   */\n  swap1\n  pop\n    /* \"#utility.yul\":1860:2168   */\n  swap2\n  swap1\n  pop\n  jump\t// out\n    /* \"#utility.yul\":2174:2270   */\ntag_63:\n    /* \"#utility.yul\":2211:2218   */\n  0x00\n    /* \"#utility.yul\":2240:2264   */\n  tag_65\n    /* \"#utility.yul\":2258:2263   */\n  dup3\n    /* \"#utility.yul\":2240:2264   */\n  tag_66\n  jump\t// in\ntag_65:\n    /* \"#utility.yul\":2229:2264   */\n  swap1\n  pop\n    /* \"#utility.yul\":2174:2270   */\n  swap2\n  swap1\n  pop\n  jump\t// out\n    /* \"#utility.yul\":2276:2402   */\ntag_66:\n    /* \"#utility.yul\":2313:2320   */\n  0x00\n    /* \"#utility.yul\":2353:2395   */\n  0xffffffffffffffffffffffffffffffffffffffff\n    /* \"#utility.yul\":2346:2351   */\n  dup3\n    /* \"#utility.yul\":2342:2396   */\n  and\n    /* \"#utility.yul\":2331:2396   */\n  swap1\n  pop\n    /* \"#utility.yul\":2276:2402   */\n  swap2\n  swap1\n  pop\n  jump\t// out\n    /* \"#utility.yul\":2408:2715   */\ntag_31:\n    /* \"#utility.yul\":2476:2477   */\n  0x00\n    /* \"#utility.yul\":2486:2599   */\ntag_69:\n    /* \"#utility.yul\":2500:2506   */\n  dup4\n    /* \"#utility.yul\":2497:2498   */\n  dup2\n    /* \"#utility.yul\":2494:2507   */\n  lt\n    /* \"#utility.yul\":2486:2599   */\n  iszero\n  tag_71\n  jumpi\n    /* \"#utility.yul\":2585:2586   */\n  dup1\n    /* \"#utility.yul\":2580:2583   */\n  dup3\n    /* \"#utility.yul\":2576:2587   */\n  add\n    /* \"#utility.yul\":2570:2588   */\n  mload\n    /* \"#utility.yul\":2566:2567   */\n  dup2\n    /* \"#utility.yul\":2561:2564   */\n  dup5\n    /* \"#utility.yul\":2557:2568   */\n  add\n    /* \"#utility.yul\":2550:2589   */\n  mstore\n    /* \"#utility.yul\":2522:2524   */\n  0x20\n    /* \"#utility.yul\":2519:2520   */\n  dup2\n    /* \"#utility.yul\":2515:2525   */\n  add\n    /* \"#utility.yul\":2510:2525   */\n  swap1\n  pop\n    /* \"#utility.yul\":2486:2599   */\n  jump(tag_69)\ntag_71:\n    /* \"#utility.yul\":2617:2623   */\n  dup4\n    /* \"#utility.yul\":2614:2615   */\n  dup2\n    /* \"#utility.yul\":2611:2624   */\n  gt\n    /* \"#utility.yul\":2608:2709   */\n  iszero\n  tag_72\n  jumpi\n    /* \"#utility.yul\":2697:2698   */\n  0x00\n    /* \"#utility.yul\":2688:2694   */\n  dup5\n    /* \"#utility.yul\":2683:2686   */\n  dup5\n    /* \"#utility.yul\":2679:2695   */\n  add\n    /* \"#utility.yul\":2672:2699   */\n  mstore\n    /* \"#utility.yul\":2608:2709   */\ntag_72:\n    /* \"#utility.yul\":2457:2715   */\n  pop\n    /* \"#utility.yul\":2408:2715   */\n  pop\n  pop\n  pop\n  jump\t// out\n    /* \"#utility.yul\":2721:3041   */\ntag_10:\n    /* \"#utility.yul\":2765:2771   */\n  0x00\n    /* \"#utility.yul\":2802:2803   */\n  0x02\n    /* \"#utility.yul\":2796:2800   */\n  dup3\n    /* \"#utility.yul\":2792:2804   */\n  div\n    /* \"#utility.yul\":2782:2804   */\n  swap1\n  pop\n    /* \"#utility.yul\":2849:2850   */\n  0x01\n    /* \"#utility.yul\":2843:2847   */\n  dup3\n    /* \"#utility.yul\":2839:2851   */\n  and\n    /* \"#utility.yul\":2870:2888   */\n  dup1\n    /* \"#utility.yul\":2860:2941   */\n  tag_74\n  jumpi\n    /* \"#utility.yul\":2926:2930   */\n  0x7f\n    /* \"#utility.yul\":2918:2924   */\n  dup3\n    /* \"#utility.yul\":2914:2931   */\n  and\n    /* \"#utility.yul\":2904:2931   */\n  swap2\n  pop\n    /* \"#utility.yul\":2860:2941   */\ntag_74:\n    /* \"#utility.yul\":2988:2990   */\n  0x20\n    /* \"#utility.yul\":2980:2986   */\n  dup3\n    /* \"#utility.yul\":2977:2991   */\n  lt\n    /* \"#utility.yul\":2957:2975   */\n  dup2\n    /* \"#utility.yul\":2954:2992   */\n  eq\n    /* \"#utility.yul\":2951:3035   */\n  iszero\n  tag_75\n  jumpi\n    /* \"#utility.yul\":3007:3025   */\n  tag_76\n  tag_77\n  jump\t// in\ntag_76:\n    /* \"#utility.yul\":2951:3035   */\ntag_75:\n    /* \"#utility.yul\":2772:3041   */\n  pop\n    /* \"#utility.yul\":2721:3041   */\n  swap2\n  swap1\n  pop\n  jump\t// out\n    /* \"#utility.yul\":3047:3328   */\ntag_55:\n    /* \"#utility.yul\":3130:3157   */\n  tag_79\n    /* \"#utility.yul\":3152:3156   */\n  dup3\n    /* \"#utility.yul\":3130:3157   */\n  tag_62\n  jump\t// in\ntag_79:\n    /* \"#utility.yul\":3122:3128   */\n  dup2\n    /* \"#utility.yul\":3118:3158   */\n  add\n    /* \"#utility.yul\":3260:3266   */\n  dup2\n    /* \"#utility.yul\":3248:3258   */\n  dup2\n    /* \"#utility.yul\":3245:3267   */\n  lt\n    /* \"#utility.yul\":3224:3242   */\n  0xffffffffffffffff\n    /* \"#utility.yul\":3212:3222   */\n  dup3\n    /* \"#utility.yul\":3209:3243   */\n  gt\n    /* \"#utility.yul\":3206:3268   */\n  or\n    /* \"#utility.yul\":3203:3291   */\n  iszero\n  tag_80\n  jumpi\n    /* \"#utility.yul\":3271:3289   */\n  tag_81\n  tag_60\n  jump\t// in\ntag_81:\n    /* \"#utility.yul\":3203:3291   */\ntag_80:\n    /* \"#utility.yul\":3311:3321   */\n  dup1\n    /* \"#utility.yul\":3307:3309   */\n  0x40\n    /* \"#utility.yul\":3300:3322   */\n  mstore\n    /* \"#utility.yul\":3090:3328   */\n  pop\n    /* \"#utility.yul\":3047:3328   */\n  pop\n  pop\n  jump\t// out\n    /* \"#utility.yul\":3334:3514   */\ntag_77:\n    /* \"#utility.yul\":3382:3459   */\n  0x4e487b7100000000000000000000000000000000000000000000000000000000\n    /* \"#utility.yul\":3379:3380   */\n  0x00\n    /* \"#utility.yul\":3372:3460   */\n  mstore\n    /* \"#utility.yul\":3479:3483   */\n  0x22\n    /* \"#utility.yul\":3476:3477   */\n  0x04\n    /* \"#utility.yul\":3469:3484   */\n  mstore\n    /* \"#utility.yul\":3503:3507   */\n  0x24\n    /* \"#utility.yul\":3500:3501   */\n  0x00\n    /* \"#utility.yul\":3493:3508   */\n  revert\n    /* \"#utility.yul\":3520:3700   */\ntag_60:\n    /* \"#utility.yul\":3568:3645   */\n  0x4e487b7100000000000000000000000000000000000000000000000000000000\n    /* \"#utility.yul\":3565:3566   */\n  0x00\n    /* \"#utility.yul\":3558:3646   */\n  mstore\n    /* \"#utility.yul\":3665:3669   */\n  0x41\n    /* \"#utility.yul\":3662:3663   */\n  0x04\n    /* \"#utility.yul\":3655:3670   */\n  mstore\n    /* \"#utility.yul\":3689:3693   */\n  0x24\n    /* \"#utility.yul\":3686:3687   */\n  0x00\n    /* \"#utility.yul\":3679:3694   */\n  revert\n    /* \"#utility.yul\":3706:3823   */\ntag_40:\n    /* \"#utility.yul\":3815:3816   */\n  0x00\n    /* \"#utility.yul\":3812:3813   */\n  dup1\n    /* \"#utility.yul\":3805:3817   */\n  revert\n    /* \"#utility.yul\":3829:3946   */\ntag_29:\n    /* \"#utility.yul\":3938:3939   */\n  0x00\n    /* \"#utility.yul\":3935:3936   */\n  dup1\n    /* \"#utility.yul\":3928:3940   */\n  revert\n    /* \"#utility.yul\":3952:4069   */\ntag_48:\n    /* \"#utility.yul\":4061:4062   */\n  0x00\n    /* \"#utility.yul\":4058:4059   */\n  dup1\n    /* \"#utility.yul\":4051:4063   */\n  revert\n    /* \"#utility.yul\":4075:4192   */\ntag_45:\n    /* \"#utility.yul\":4184:4185   */\n  0x00\n    /* \"#utility.yul\":4181:4182   */\n  dup1\n    /* \"#utility.yul\":4174:4186   */\n  revert\n    /* \"#utility.yul\":4198:4300   */\ntag_62:\n    /* \"#utility.yul\":4239:4245   */\n  0x00\n    /* \"#utility.yul\":4290:4292   */\n  0x1f\n    /* \"#utility.yul\":4286:4293   */\n  not\n    /* \"#utility.yul\":4281:4283   */\n  0x1f\n    /* \"#utility.yul\":4274:4279   */\n  dup4\n    /* \"#utility.yul\":4270:4284   */\n  add\n    /* \"#utility.yul\":4266:4294   */\n  and\n    /* \"#utility.yul\":4256:4294   */\n  swap1\n  pop\n    /* \"#utility.yul\":4198:4300   */\n  swap2\n  swap1\n  pop\n  jump\t// out\n    /* \"#utility.yul\":4306:4428   */\ntag_35:\n    /* \"#utility.yul\":4379:4403   */\n  tag_90\n    /* \"#utility.yul\":4397:4402   */\n  dup2\n    /* \"#utility.yul\":4379:4403   */\n  tag_63\n  jump\t// in\ntag_90:\n    /* \"#utility.yul\":4372:4377   */\n  dup2\n    /* \"#utility.yul\":4369:4404   */\n  eq\n    /* \"#utility.yul\":4359:4422   */\n  tag_91\n  jumpi\n    /* \"#utility.yul\":4418:4419   */\n  0x00\n    /* \"#utility.yul\":4415:4416   */\n  dup1\n    /* \"#utility.yul\":4408:4420   */\n  revert\n    /* \"#utility.yul\":4359:4422   */\ntag_91:\n    /* \"#utility.yul\":4306:4428   */\n  pop\n  jump\t// out\n    /* \"smartContract/contracts/Union.sol\":58:2725  contract Union{... */\ntag_8:\n  dataSize(sub_0)\n  dup1\n  dataOffset(sub_0)\n  0x00\n  codecopy\n  0x00\n  return\nstop\n\nsub_0: assembly {\n        /* \"smartContract/contracts/Union.sol\":58:2725  contract Union{... */\n      mstore(0x40, 0x80)\n      jumpi(tag_1, lt(calldatasize, 0x04))\n      shr(0xe0, calldataload(0x00))\n      dup1\n      0x2e4176cf\n      eq\n      tag_2\n      jumpi\n      dup1\n      0x302a2a46\n      eq\n      tag_3\n      jumpi\n      dup1\n      0x43ef7e85\n      eq\n      tag_4\n      jumpi\n      dup1\n      0x4f5cbc1a\n      eq\n      tag_5\n      jumpi\n      dup1\n      0x64b9fb89\n      eq\n      tag_6\n      jumpi\n      dup1\n      0xbab86ea8\n      eq\n      tag_7\n      jumpi\n    tag_1:\n      0x00\n      dup1\n      revert\n        /* \"smartContract/contracts/Union.sol\":476:502  address public chairperson */\n    tag_2:\n      callvalue\n      dup1\n      iszero\n      tag_8\n      jumpi\n      0x00\n      dup1\n      revert\n    tag_8:\n      pop\n      tag_9\n      tag_10\n      jump\t// in\n    tag_9:\n      mload(0x40)\n      tag_11\n      swap2\n      swap1\n      tag_12\n      jump\t// in\n    tag_11:\n      mload(0x40)\n      dup1\n      swap2\n      sub\n      swap1\n      return\n        /* \"smartContract/contracts/Union.sol\":633:664  Suggestion[] public suggestions */\n    tag_3:\n      callvalue\n      dup1\n      iszero\n      tag_13\n      jumpi\n      0x00\n      dup1\n      revert\n    tag_13:\n      pop\n      tag_14\n      0x04\n      dup1\n      calldatasize\n      sub\n      dup2\n      add\n      swap1\n      tag_15\n      swap2\n      swap1\n      tag_16\n      jump\t// in\n    tag_15:\n      tag_17\n      jump\t// in\n    tag_14:\n      mload(0x40)\n      tag_18\n      swap4\n      swap3\n      swap2\n      swap1\n      tag_19\n      jump\t// in\n    tag_18:\n      mload(0x40)\n      dup1\n      swap2\n      sub\n      swap1\n      return\n        /* \"smartContract/contracts/Union.sol\":1128:1443  function createOneSuggestion(string memory _subject)external {... */\n    tag_4:\n      callvalue\n      dup1\n      iszero\n      tag_20\n      jumpi\n      0x00\n      dup1\n      revert\n    tag_20:\n      pop\n      tag_21\n      0x04\n      dup1\n      calldatasize\n      sub\n      dup2\n      add\n      swap1\n      tag_22\n      swap2\n      swap1\n      tag_23\n      jump\t// in\n    tag_22:\n      tag_24\n      jump\t// in\n    tag_21:\n      stop\n        /* \"smartContract/contracts/Union.sol\":504:527  string public unionName */\n    tag_5:\n      callvalue\n      dup1\n      iszero\n      tag_25\n      jumpi\n      0x00\n      dup1\n      revert\n    tag_25:\n      pop\n      tag_26\n      tag_27\n      jump\t// in\n    tag_26:\n      mload(0x40)\n      tag_28\n      swap2\n      swap1\n      tag_29\n      jump\t// in\n    tag_28:\n      mload(0x40)\n      dup1\n      swap2\n      sub\n      swap1\n      return\n        /* \"smartContract/contracts/Union.sol\":529:553  uint public suggestionNo */\n    tag_6:\n      callvalue\n      dup1\n      iszero\n      tag_30\n      jumpi\n      0x00\n      dup1\n      revert\n    tag_30:\n      pop\n      tag_31\n      tag_32\n      jump\t// in\n    tag_31:\n      mload(0x40)\n      tag_33\n      swap2\n      swap1\n      tag_34\n      jump\t// in\n    tag_33:\n      mload(0x40)\n      dup1\n      swap2\n      sub\n      swap1\n      return\n        /* \"smartContract/contracts/Union.sol\":1447:1532  function test (string memory _subject, string memory _answer) public payable {... */\n    tag_7:\n      tag_35\n      0x04\n      dup1\n      calldatasize\n      sub\n      dup2\n      add\n      swap1\n      tag_36\n      swap2\n      swap1\n      tag_37\n      jump\t// in\n    tag_36:\n      tag_38\n      jump\t// in\n    tag_35:\n      stop\n        /* \"smartContract/contracts/Union.sol\":476:502  address public chairperson */\n    tag_10:\n      0x00\n      dup1\n      sload\n      swap1\n      0x0100\n      exp\n      swap1\n      div\n      0xffffffffffffffffffffffffffffffffffffffff\n      and\n      dup2\n      jump\t// out\n        /* \"smartContract/contracts/Union.sol\":633:664  Suggestion[] public suggestions */\n    tag_17:\n      0x05\n      dup2\n      dup2\n      sload\n      dup2\n      lt\n      tag_39\n      jumpi\n      0x00\n      dup1\n      revert\n    tag_39:\n      swap1\n      0x00\n      mstore\n      keccak256(0x00, 0x20)\n      swap1\n      0x03\n      mul\n      add\n      0x00\n      swap2\n      pop\n      swap1\n      pop\n      dup1\n      0x00\n      add\n      dup1\n      sload\n      tag_41\n      swap1\n      tag_42\n      jump\t// in\n    tag_41:\n      dup1\n      0x1f\n      add\n      0x20\n      dup1\n      swap2\n      div\n      mul\n      0x20\n      add\n      mload(0x40)\n      swap1\n      dup2\n      add\n      0x40\n      mstore\n      dup1\n      swap3\n      swap2\n      swap1\n      dup2\n      dup2\n      mstore\n      0x20\n      add\n      dup3\n      dup1\n      sload\n      tag_43\n      swap1\n      tag_42\n      jump\t// in\n    tag_43:\n      dup1\n      iszero\n      tag_44\n      jumpi\n      dup1\n      0x1f\n      lt\n      tag_45\n      jumpi\n      0x0100\n      dup1\n      dup4\n      sload\n      div\n      mul\n      dup4\n      mstore\n      swap2\n      0x20\n      add\n      swap2\n      jump(tag_44)\n    tag_45:\n      dup3\n      add\n      swap2\n      swap1\n      0x00\n      mstore\n      keccak256(0x00, 0x20)\n      swap1\n    tag_46:\n      dup2\n      sload\n      dup2\n      mstore\n      swap1\n      0x01\n      add\n      swap1\n      0x20\n      add\n      dup1\n      dup4\n      gt\n      tag_46\n      jumpi\n      dup3\n      swap1\n      sub\n      0x1f\n      and\n      dup3\n      add\n      swap2\n    tag_44:\n      pop\n      pop\n      pop\n      pop\n      pop\n      swap1\n      dup1\n      0x01\n      add\n      sload\n      swap1\n      dup1\n      0x02\n      add\n      0x00\n      swap1\n      sload\n      swap1\n      0x0100\n      exp\n      swap1\n      div\n      0xff\n      and\n      swap1\n      pop\n      dup4\n      jump\t// out\n        /* \"smartContract/contracts/Union.sol\":1128:1443  function createOneSuggestion(string memory _subject)external {... */\n    tag_24:\n        /* \"smartContract/contracts/Union.sol\":1196:1224  Suggestion memory suggestion */\n      tag_48\n      tag_49\n      jump\t// in\n    tag_48:\n        /* \"smartContract/contracts/Union.sol\":1252:1260  _subject */\n      dup2\n        /* \"smartContract/contracts/Union.sol\":1231:1241  suggestion */\n      dup2\n        /* \"smartContract/contracts/Union.sol\":1231:1249  suggestion.subject */\n      0x00\n      add\n        /* \"smartContract/contracts/Union.sol\":1231:1260  suggestion.subject = _subject */\n      dup2\n      swap1\n      mstore\n      pop\n        /* \"smartContract/contracts/Union.sol\":1293:1305  suggestionNo */\n      sload(0x02)\n        /* \"smartContract/contracts/Union.sol\":1267:1277  suggestion */\n      dup2\n        /* \"smartContract/contracts/Union.sol\":1267:1290  suggestion.suggestionNo */\n      0x20\n      add\n        /* \"smartContract/contracts/Union.sol\":1267:1305  suggestion.suggestionNo = suggestionNo */\n      dup2\n      dup2\n      mstore\n      pop\n      pop\n        /* \"smartContract/contracts/Union.sol\":1332:1336  true */\n      0x01\n        /* \"smartContract/contracts/Union.sol\":1312:1322  suggestion */\n      dup2\n        /* \"smartContract/contracts/Union.sol\":1312:1329  suggestion.status */\n      0x40\n      add\n        /* \"smartContract/contracts/Union.sol\":1312:1336  suggestion.status = true */\n      swap1\n      iszero\n      iszero\n      swap1\n      dup2\n      iszero\n      iszero\n      dup2\n      mstore\n      pop\n      pop\n        /* \"smartContract/contracts/Union.sol\":1343:1354  suggestions */\n      0x05\n        /* \"smartContract/contracts/Union.sol\":1360:1370  suggestion */\n      dup2\n        /* \"smartContract/contracts/Union.sol\":1343:1371  suggestions.push(suggestion) */\n      swap1\n      dup1\n      0x01\n      dup2\n      sload\n      add\n      dup1\n      dup3\n      sstore\n      dup1\n      swap2\n      pop\n      pop\n      0x01\n      swap1\n      sub\n      swap1\n      0x00\n      mstore\n      keccak256(0x00, 0x20)\n      swap1\n      0x03\n      mul\n      add\n      0x00\n      swap1\n      swap2\n      swap1\n      swap2\n      swap1\n      swap2\n      pop\n      0x00\n      dup3\n      add\n      mload\n      dup2\n      0x00\n      add\n      swap1\n      dup1\n      mload\n      swap1\n      0x20\n      add\n      swap1\n      tag_51\n      swap3\n      swap2\n      swap1\n      tag_52\n      jump\t// in\n    tag_51:\n      pop\n      0x20\n      dup3\n      add\n      mload\n      dup2\n      0x01\n      add\n      sstore\n      0x40\n      dup3\n      add\n      mload\n      dup2\n      0x02\n      add\n      exp(0x0100, 0x00)\n      dup2\n      sload\n      dup2\n      0xff\n      mul\n      not\n      and\n      swap1\n      dup4\n      iszero\n      iszero\n      mul\n      or\n      swap1\n      sstore\n      pop\n      pop\n      pop\n        /* \"smartContract/contracts/Union.sol\":1407:1419  suggestionNo */\n      sload(0x02)\n        /* \"smartContract/contracts/Union.sol\":1378:1394  findSuggestionNo */\n      0x03\n        /* \"smartContract/contracts/Union.sol\":1395:1403  _subject */\n      dup4\n        /* \"smartContract/contracts/Union.sol\":1378:1404  findSuggestionNo[_subject] */\n      mload(0x40)\n      tag_53\n      swap2\n      swap1\n      tag_54\n      jump\t// in\n    tag_53:\n      swap1\n      dup2\n      mstore\n      0x20\n      add\n      mload(0x40)\n      dup1\n      swap2\n      sub\n      swap1\n      keccak256\n        /* \"smartContract/contracts/Union.sol\":1378:1419  findSuggestionNo[_subject] = suggestionNo */\n      dup2\n      swap1\n      sstore\n      pop\n        /* \"smartContract/contracts/Union.sol\":1426:1438  suggestionNo */\n      0x02\n      0x00\n        /* \"smartContract/contracts/Union.sol\":1426:1440  suggestionNo++ */\n      dup2\n      sload\n      dup1\n      swap3\n      swap2\n      swap1\n      tag_55\n      swap1\n      tag_56\n      jump\t// in\n    tag_55:\n      swap2\n      swap1\n      pop\n      sstore\n      pop\n        /* \"smartContract/contracts/Union.sol\":1189:1443  {... */\n      pop\n        /* \"smartContract/contracts/Union.sol\":1128:1443  function createOneSuggestion(string memory _subject)external {... */\n      pop\n      jump\t// out\n        /* \"smartContract/contracts/Union.sol\":504:527  string public unionName */\n    tag_27:\n      0x01\n      dup1\n      sload\n      tag_57\n      swap1\n      tag_42\n      jump\t// in\n    tag_57:\n      dup1\n      0x1f\n      add\n      0x20\n      dup1\n      swap2\n      div\n      mul\n      0x20\n      add\n      mload(0x40)\n      swap1\n      dup2\n      add\n      0x40\n      mstore\n      dup1\n      swap3\n      swap2\n      swap1\n      dup2\n      dup2\n      mstore\n      0x20\n      add\n      dup3\n      dup1\n      sload\n      tag_58\n      swap1\n      tag_42\n      jump\t// in\n    tag_58:\n      dup1\n      iszero\n      tag_59\n      jumpi\n      dup1\n      0x1f\n      lt\n      tag_60\n      jumpi\n      0x0100\n      dup1\n      dup4\n      sload\n      div\n      mul\n      dup4\n      mstore\n      swap2\n      0x20\n      add\n      swap2\n      jump(tag_59)\n    tag_60:\n      dup3\n      add\n      swap2\n      swap1\n      0x00\n      mstore\n      keccak256(0x00, 0x20)\n      swap1\n    tag_61:\n      dup2\n      sload\n      dup2\n      mstore\n      swap1\n      0x01\n      add\n      swap1\n      0x20\n      add\n      dup1\n      dup4\n      gt\n      tag_61\n      jumpi\n      dup3\n      swap1\n      sub\n      0x1f\n      and\n      dup3\n      add\n      swap2\n    tag_59:\n      pop\n      pop\n      pop\n      pop\n      pop\n      dup2\n      jump\t// out\n        /* \"smartContract/contracts/Union.sol\":529:553  uint public suggestionNo */\n    tag_32:\n      sload(0x02)\n      dup2\n      jump\t// out\n        /* \"smartContract/contracts/Union.sol\":1447:1532  function test (string memory _subject, string memory _answer) public payable {... */\n    tag_38:\n      pop\n      pop\n      jump\t// out\n    tag_49:\n      mload(0x40)\n      dup1\n      0x60\n      add\n      0x40\n      mstore\n      dup1\n      0x60\n      dup2\n      mstore\n      0x20\n      add\n      0x00\n      dup2\n      mstore\n      0x20\n      add\n      iszero(iszero(0x00))\n      dup2\n      mstore\n      pop\n      swap1\n      jump\t// out\n    tag_52:\n      dup3\n      dup1\n      sload\n      tag_63\n      swap1\n      tag_42\n      jump\t// in\n    tag_63:\n      swap1\n      0x00\n      mstore\n      keccak256(0x00, 0x20)\n      swap1\n      0x1f\n      add\n      0x20\n      swap1\n      div\n      dup2\n      add\n      swap3\n      dup3\n      tag_65\n      jumpi\n      0x00\n      dup6\n      sstore\n      jump(tag_64)\n    tag_65:\n      dup3\n      0x1f\n      lt\n      tag_66\n      jumpi\n      dup1\n      mload\n      not(0xff)\n      and\n      dup4\n      dup1\n      add\n      or\n      dup6\n      sstore\n      jump(tag_64)\n    tag_66:\n      dup3\n      dup1\n      add\n      0x01\n      add\n      dup6\n      sstore\n      dup3\n      iszero\n      tag_64\n      jumpi\n      swap2\n      dup3\n      add\n    tag_67:\n      dup3\n      dup2\n      gt\n      iszero\n      tag_68\n      jumpi\n      dup3\n      mload\n      dup3\n      sstore\n      swap2\n      0x20\n      add\n      swap2\n      swap1\n      0x01\n      add\n      swap1\n      jump(tag_67)\n    tag_68:\n    tag_64:\n      pop\n      swap1\n      pop\n      tag_69\n      swap2\n      swap1\n      tag_70\n      jump\t// in\n    tag_69:\n      pop\n      swap1\n      jump\t// out\n    tag_70:\n    tag_71:\n      dup1\n      dup3\n      gt\n      iszero\n      tag_72\n      jumpi\n      0x00\n      dup2\n      0x00\n      swap1\n      sstore\n      pop\n      0x01\n      add\n      jump(tag_71)\n    tag_72:\n      pop\n      swap1\n      jump\t// out\n        /* \"#utility.yul\":7:419   */\n    tag_74:\n        /* \"#utility.yul\":85:90   */\n      0x00\n        /* \"#utility.yul\":110:176   */\n      tag_76\n        /* \"#utility.yul\":126:175   */\n      tag_77\n        /* \"#utility.yul\":168:174   */\n      dup5\n        /* \"#utility.yul\":126:175   */\n      tag_78\n      jump\t// in\n    tag_77:\n        /* \"#utility.yul\":110:176   */\n      tag_79\n      jump\t// in\n    tag_76:\n        /* \"#utility.yul\":101:176   */\n      swap1\n      pop\n        /* \"#utility.yul\":199:205   */\n      dup3\n        /* \"#utility.yul\":192:197   */\n      dup2\n        /* \"#utility.yul\":185:206   */\n      mstore\n        /* \"#utility.yul\":237:241   */\n      0x20\n        /* \"#utility.yul\":230:235   */\n      dup2\n        /* \"#utility.yul\":226:242   */\n      add\n        /* \"#utility.yul\":275:278   */\n      dup5\n        /* \"#utility.yul\":266:272   */\n      dup5\n        /* \"#utility.yul\":261:264   */\n      dup5\n        /* \"#utility.yul\":257:273   */\n      add\n        /* \"#utility.yul\":254:279   */\n      gt\n        /* \"#utility.yul\":251:363   */\n      iszero\n      tag_80\n      jumpi\n        /* \"#utility.yul\":282:361   */\n      tag_81\n      tag_82\n      jump\t// in\n    tag_81:\n        /* \"#utility.yul\":251:363   */\n    tag_80:\n        /* \"#utility.yul\":372:413   */\n      tag_83\n        /* \"#utility.yul\":406:412   */\n      dup5\n        /* \"#utility.yul\":401:404   */\n      dup3\n        /* \"#utility.yul\":396:399   */\n      dup6\n        /* \"#utility.yul\":372:413   */\n      tag_84\n      jump\t// in\n    tag_83:\n        /* \"#utility.yul\":91:419   */\n      pop\n        /* \"#utility.yul\":7:419   */\n      swap4\n      swap3\n      pop\n      pop\n      pop\n      jump\t// out\n        /* \"#utility.yul\":439:779   */\n    tag_85:\n        /* \"#utility.yul\":495:500   */\n      0x00\n        /* \"#utility.yul\":544:547   */\n      dup3\n        /* \"#utility.yul\":537:541   */\n      0x1f\n        /* \"#utility.yul\":529:535   */\n      dup4\n        /* \"#utility.yul\":525:542   */\n      add\n        /* \"#utility.yul\":521:548   */\n      slt\n        /* \"#utility.yul\":511:633   */\n      tag_87\n      jumpi\n        /* \"#utility.yul\":552:631   */\n      tag_88\n      tag_89\n      jump\t// in\n    tag_88:\n        /* \"#utility.yul\":511:633   */\n    tag_87:\n        /* \"#utility.yul\":669:675   */\n      dup2\n        /* \"#utility.yul\":656:676   */\n      calldataload\n        /* \"#utility.yul\":694:773   */\n      tag_90\n        /* \"#utility.yul\":769:772   */\n      dup5\n        /* \"#utility.yul\":761:767   */\n      dup3\n        /* \"#utility.yul\":754:758   */\n      0x20\n        /* \"#utility.yul\":746:752   */\n      dup7\n        /* \"#utility.yul\":742:759   */\n      add\n        /* \"#utility.yul\":694:773   */\n      tag_74\n      jump\t// in\n    tag_90:\n        /* \"#utility.yul\":685:773   */\n      swap2\n      pop\n        /* \"#utility.yul\":501:779   */\n      pop\n        /* \"#utility.yul\":439:779   */\n      swap3\n      swap2\n      pop\n      pop\n      jump\t// out\n        /* \"#utility.yul\":785:924   */\n    tag_91:\n        /* \"#utility.yul\":831:836   */\n      0x00\n        /* \"#utility.yul\":869:875   */\n      dup2\n        /* \"#utility.yul\":856:876   */\n      calldataload\n        /* \"#utility.yul\":847:876   */\n      swap1\n      pop\n        /* \"#utility.yul\":885:918   */\n      tag_93\n        /* \"#utility.yul\":912:917   */\n      dup2\n        /* \"#utility.yul\":885:918   */\n      tag_94\n      jump\t// in\n    tag_93:\n        /* \"#utility.yul\":785:924   */\n      swap3\n      swap2\n      pop\n      pop\n      jump\t// out\n        /* \"#utility.yul\":930:1439   */\n    tag_23:\n        /* \"#utility.yul\":999:1005   */\n      0x00\n        /* \"#utility.yul\":1048:1050   */\n      0x20\n        /* \"#utility.yul\":1036:1045   */\n      dup3\n        /* \"#utility.yul\":1027:1034   */\n      dup5\n        /* \"#utility.yul\":1023:1046   */\n      sub\n        /* \"#utility.yul\":1019:1051   */\n      slt\n        /* \"#utility.yul\":1016:1135   */\n      iszero\n      tag_96\n      jumpi\n        /* \"#utility.yul\":1054:1133   */\n      tag_97\n      tag_98\n      jump\t// in\n    tag_97:\n        /* \"#utility.yul\":1016:1135   */\n    tag_96:\n        /* \"#utility.yul\":1202:1203   */\n      0x00\n        /* \"#utility.yul\":1191:1200   */\n      dup3\n        /* \"#utility.yul\":1187:1204   */\n      add\n        /* \"#utility.yul\":1174:1205   */\n      calldataload\n        /* \"#utility.yul\":1232:1250   */\n      0xffffffffffffffff\n        /* \"#utility.yul\":1224:1230   */\n      dup2\n        /* \"#utility.yul\":1221:1251   */\n      gt\n        /* \"#utility.yul\":1218:1335   */\n      iszero\n      tag_99\n      jumpi\n        /* \"#utility.yul\":1254:1333   */\n      tag_100\n      tag_101\n      jump\t// in\n    tag_100:\n        /* \"#utility.yul\":1218:1335   */\n    tag_99:\n        /* \"#utility.yul\":1359:1422   */\n      tag_102\n        /* \"#utility.yul\":1414:1421   */\n      dup5\n        /* \"#utility.yul\":1405:1411   */\n      dup3\n        /* \"#utility.yul\":1394:1403   */\n      dup6\n        /* \"#utility.yul\":1390:1412   */\n      add\n        /* \"#utility.yul\":1359:1422   */\n      tag_85\n      jump\t// in\n    tag_102:\n        /* \"#utility.yul\":1349:1422   */\n      swap2\n      pop\n        /* \"#utility.yul\":1145:1432   */\n      pop\n        /* \"#utility.yul\":930:1439   */\n      swap3\n      swap2\n      pop\n      pop\n      jump\t// out\n        /* \"#utility.yul\":1445:2279   */\n    tag_37:\n        /* \"#utility.yul\":1533:1539   */\n      0x00\n        /* \"#utility.yul\":1541:1547   */\n      dup1\n        /* \"#utility.yul\":1590:1592   */\n      0x40\n        /* \"#utility.yul\":1578:1587   */\n      dup4\n        /* \"#utility.yul\":1569:1576   */\n      dup6\n        /* \"#utility.yul\":1565:1588   */\n      sub\n        /* \"#utility.yul\":1561:1593   */\n      slt\n        /* \"#utility.yul\":1558:1677   */\n      iszero\n      tag_104\n      jumpi\n        /* \"#utility.yul\":1596:1675   */\n      tag_105\n      tag_98\n      jump\t// in\n    tag_105:\n        /* \"#utility.yul\":1558:1677   */\n    tag_104:\n        /* \"#utility.yul\":1744:1745   */\n      0x00\n        /* \"#utility.yul\":1733:1742   */\n      dup4\n        /* \"#utility.yul\":1729:1746   */\n      add\n        /* \"#utility.yul\":1716:1747   */\n      calldataload\n        /* \"#utility.yul\":1774:1792   */\n      0xffffffffffffffff\n        /* \"#utility.yul\":1766:1772   */\n      dup2\n        /* \"#utility.yul\":1763:1793   */\n      gt\n        /* \"#utility.yul\":1760:1877   */\n      iszero\n      tag_106\n      jumpi\n        /* \"#utility.yul\":1796:1875   */\n      tag_107\n      tag_101\n      jump\t// in\n    tag_107:\n        /* \"#utility.yul\":1760:1877   */\n    tag_106:\n        /* \"#utility.yul\":1901:1964   */\n      tag_108\n        /* \"#utility.yul\":1956:1963   */\n      dup6\n        /* \"#utility.yul\":1947:1953   */\n      dup3\n        /* \"#utility.yul\":1936:1945   */\n      dup7\n        /* \"#utility.yul\":1932:1954   */\n      add\n        /* \"#utility.yul\":1901:1964   */\n      tag_85\n      jump\t// in\n    tag_108:\n        /* \"#utility.yul\":1891:1964   */\n      swap3\n      pop\n        /* \"#utility.yul\":1687:1974   */\n      pop\n        /* \"#utility.yul\":2041:2043   */\n      0x20\n        /* \"#utility.yul\":2030:2039   */\n      dup4\n        /* \"#utility.yul\":2026:2044   */\n      add\n        /* \"#utility.yul\":2013:2045   */\n      calldataload\n        /* \"#utility.yul\":2072:2090   */\n      0xffffffffffffffff\n        /* \"#utility.yul\":2064:2070   */\n      dup2\n        /* \"#utility.yul\":2061:2091   */\n      gt\n        /* \"#utility.yul\":2058:2175   */\n      iszero\n      tag_109\n      jumpi\n        /* \"#utility.yul\":2094:2173   */\n      tag_110\n      tag_101\n      jump\t// in\n    tag_110:\n        /* \"#utility.yul\":2058:2175   */\n    tag_109:\n        /* \"#utility.yul\":2199:2262   */\n      tag_111\n        /* \"#utility.yul\":2254:2261   */\n      dup6\n        /* \"#utility.yul\":2245:2251   */\n      dup3\n        /* \"#utility.yul\":2234:2243   */\n      dup7\n        /* \"#utility.yul\":2230:2252   */\n      add\n        /* \"#utility.yul\":2199:2262   */\n      tag_85\n      jump\t// in\n    tag_111:\n        /* \"#utility.yul\":2189:2262   */\n      swap2\n      pop\n        /* \"#utility.yul\":1984:2272   */\n      pop\n        /* \"#utility.yul\":1445:2279   */\n      swap3\n      pop\n      swap3\n      swap1\n      pop\n      jump\t// out\n        /* \"#utility.yul\":2285:2614   */\n    tag_16:\n        /* \"#utility.yul\":2344:2350   */\n      0x00\n        /* \"#utility.yul\":2393:2395   */\n      0x20\n        /* \"#utility.yul\":2381:2390   */\n      dup3\n        /* \"#utility.yul\":2372:2379   */\n      dup5\n        /* \"#utility.yul\":2368:2391   */\n      sub\n        /* \"#utility.yul\":2364:2396   */\n      slt\n        /* \"#utility.yul\":2361:2480   */\n      iszero\n      tag_113\n      jumpi\n        /* \"#utility.yul\":2399:2478   */\n      tag_114\n      tag_98\n      jump\t// in\n    tag_114:\n        /* \"#utility.yul\":2361:2480   */\n    tag_113:\n        /* \"#utility.yul\":2519:2520   */\n      0x00\n        /* \"#utility.yul\":2544:2597   */\n      tag_115\n        /* \"#utility.yul\":2589:2596   */\n      dup5\n        /* \"#utility.yul\":2580:2586   */\n      dup3\n        /* \"#utility.yul\":2569:2578   */\n      dup6\n        /* \"#utility.yul\":2565:2587   */\n      add\n        /* \"#utility.yul\":2544:2597   */\n      tag_91\n      jump\t// in\n    tag_115:\n        /* \"#utility.yul\":2534:2597   */\n      swap2\n      pop\n        /* \"#utility.yul\":2490:2607   */\n      pop\n        /* \"#utility.yul\":2285:2614   */\n      swap3\n      swap2\n      pop\n      pop\n      jump\t// out\n        /* \"#utility.yul\":2620:2738   */\n    tag_116:\n        /* \"#utility.yul\":2707:2731   */\n      tag_118\n        /* \"#utility.yul\":2725:2730   */\n      dup2\n        /* \"#utility.yul\":2707:2731   */\n      tag_119\n      jump\t// in\n    tag_118:\n        /* \"#utility.yul\":2702:2705   */\n      dup3\n        /* \"#utility.yul\":2695:2732   */\n      mstore\n        /* \"#utility.yul\":2620:2738   */\n      pop\n      pop\n      jump\t// out\n        /* \"#utility.yul\":2744:2853   */\n    tag_120:\n        /* \"#utility.yul\":2825:2846   */\n      tag_122\n        /* \"#utility.yul\":2840:2845   */\n      dup2\n        /* \"#utility.yul\":2825:2846   */\n      tag_123\n      jump\t// in\n    tag_122:\n        /* \"#utility.yul\":2820:2823   */\n      dup3\n        /* \"#utility.yul\":2813:2847   */\n      mstore\n        /* \"#utility.yul\":2744:2853   */\n      pop\n      pop\n      jump\t// out\n        /* \"#utility.yul\":2859:3223   */\n    tag_124:\n        /* \"#utility.yul\":2947:2950   */\n      0x00\n        /* \"#utility.yul\":2975:3014   */\n      tag_126\n        /* \"#utility.yul\":3008:3013   */\n      dup3\n        /* \"#utility.yul\":2975:3014   */\n      tag_127\n      jump\t// in\n    tag_126:\n        /* \"#utility.yul\":3030:3101   */\n      tag_128\n        /* \"#utility.yul\":3094:3100   */\n      dup2\n        /* \"#utility.yul\":3089:3092   */\n      dup6\n        /* \"#utility.yul\":3030:3101   */\n      tag_129\n      jump\t// in\n    tag_128:\n        /* \"#utility.yul\":3023:3101   */\n      swap4\n      pop\n        /* \"#utility.yul\":3110:3162   */\n      tag_130\n        /* \"#utility.yul\":3155:3161   */\n      dup2\n        /* \"#utility.yul\":3150:3153   */\n      dup6\n        /* \"#utility.yul\":3143:3147   */\n      0x20\n        /* \"#utility.yul\":3136:3141   */\n      dup7\n        /* \"#utility.yul\":3132:3148   */\n      add\n        /* \"#utility.yul\":3110:3162   */\n      tag_131\n      jump\t// in\n    tag_130:\n        /* \"#utility.yul\":3187:3216   */\n      tag_132\n        /* \"#utility.yul\":3209:3215   */\n      dup2\n        /* \"#utility.yul\":3187:3216   */\n      tag_133\n      jump\t// in\n    tag_132:\n        /* \"#utility.yul\":3182:3185   */\n      dup5\n        /* \"#utility.yul\":3178:3217   */\n      add\n        /* \"#utility.yul\":3171:3217   */\n      swap2\n      pop\n        /* \"#utility.yul\":2951:3223   */\n      pop\n        /* \"#utility.yul\":2859:3223   */\n      swap3\n      swap2\n      pop\n      pop\n      jump\t// out\n        /* \"#utility.yul\":3229:3606   */\n    tag_134:\n        /* \"#utility.yul\":3335:3338   */\n      0x00\n        /* \"#utility.yul\":3363:3402   */\n      tag_136\n        /* \"#utility.yul\":3396:3401   */\n      dup3\n        /* \"#utility.yul\":3363:3402   */\n      tag_127\n      jump\t// in\n    tag_136:\n        /* \"#utility.yul\":3418:3507   */\n      tag_137\n        /* \"#utility.yul\":3500:3506   */\n      dup2\n        /* \"#utility.yul\":3495:3498   */\n      dup6\n        /* \"#utility.yul\":3418:3507   */\n      tag_138\n      jump\t// in\n    tag_137:\n        /* \"#utility.yul\":3411:3507   */\n      swap4\n      pop\n        /* \"#utility.yul\":3516:3568   */\n      tag_139\n        /* \"#utility.yul\":3561:3567   */\n      dup2\n        /* \"#utility.yul\":3556:3559   */\n      dup6\n        /* \"#utility.yul\":3549:3553   */\n      0x20\n        /* \"#utility.yul\":3542:3547   */\n      dup7\n        /* \"#utility.yul\":3538:3554   */\n      add\n        /* \"#utility.yul\":3516:3568   */\n      tag_131\n      jump\t// in\n    tag_139:\n        /* \"#utility.yul\":3593:3599   */\n      dup1\n        /* \"#utility.yul\":3588:3591   */\n      dup5\n        /* \"#utility.yul\":3584:3600   */\n      add\n        /* \"#utility.yul\":3577:3600   */\n      swap2\n      pop\n        /* \"#utility.yul\":3339:3606   */\n      pop\n        /* \"#utility.yul\":3229:3606   */\n      swap3\n      swap2\n      pop\n      pop\n      jump\t// out\n        /* \"#utility.yul\":3612:3730   */\n    tag_140:\n        /* \"#utility.yul\":3699:3723   */\n      tag_142\n        /* \"#utility.yul\":3717:3722   */\n      dup2\n        /* \"#utility.yul\":3699:3723   */\n      tag_143\n      jump\t// in\n    tag_142:\n        /* \"#utility.yul\":3694:3697   */\n      dup3\n        /* \"#utility.yul\":3687:3724   */\n      mstore\n        /* \"#utility.yul\":3612:3730   */\n      pop\n      pop\n      jump\t// out\n        /* \"#utility.yul\":3736:4011   */\n    tag_54:\n        /* \"#utility.yul\":3868:3871   */\n      0x00\n        /* \"#utility.yul\":3890:3985   */\n      tag_145\n        /* \"#utility.yul\":3981:3984   */\n      dup3\n        /* \"#utility.yul\":3972:3978   */\n      dup5\n        /* \"#utility.yul\":3890:3985   */\n      tag_134\n      jump\t// in\n    tag_145:\n        /* \"#utility.yul\":3883:3985   */\n      swap2\n      pop\n        /* \"#utility.yul\":4002:4005   */\n      dup2\n        /* \"#utility.yul\":3995:4005   */\n      swap1\n      pop\n        /* \"#utility.yul\":3736:4011   */\n      swap3\n      swap2\n      pop\n      pop\n      jump\t// out\n        /* \"#utility.yul\":4017:4239   */\n    tag_12:\n        /* \"#utility.yul\":4110:4114   */\n      0x00\n        /* \"#utility.yul\":4148:4150   */\n      0x20\n        /* \"#utility.yul\":4137:4146   */\n      dup3\n        /* \"#utility.yul\":4133:4151   */\n      add\n        /* \"#utility.yul\":4125:4151   */\n      swap1\n      pop\n        /* \"#utility.yul\":4161:4232   */\n      tag_147\n        /* \"#utility.yul\":4229:4230   */\n      0x00\n        /* \"#utility.yul\":4218:4227   */\n      dup4\n        /* \"#utility.yul\":4214:4231   */\n      add\n        /* \"#utility.yul\":4205:4211   */\n      dup5\n        /* \"#utility.yul\":4161:4232   */\n      tag_116\n      jump\t// in\n    tag_147:\n        /* \"#utility.yul\":4017:4239   */\n      swap3\n      swap2\n      pop\n      pop\n      jump\t// out\n        /* \"#utility.yul\":4245:4558   */\n    tag_29:\n        /* \"#utility.yul\":4358:4362   */\n      0x00\n        /* \"#utility.yul\":4396:4398   */\n      0x20\n        /* \"#utility.yul\":4385:4394   */\n      dup3\n        /* \"#utility.yul\":4381:4399   */\n      add\n        /* \"#utility.yul\":4373:4399   */\n      swap1\n      pop\n        /* \"#utility.yul\":4445:4454   */\n      dup2\n        /* \"#utility.yul\":4439:4443   */\n      dup2\n        /* \"#utility.yul\":4435:4455   */\n      sub\n        /* \"#utility.yul\":4431:4432   */\n      0x00\n        /* \"#utility.yul\":4420:4429   */\n      dup4\n        /* \"#utility.yul\":4416:4433   */\n      add\n        /* \"#utility.yul\":4409:4456   */\n      mstore\n        /* \"#utility.yul\":4473:4551   */\n      tag_149\n        /* \"#utility.yul\":4546:4550   */\n      dup2\n        /* \"#utility.yul\":4537:4543   */\n      dup5\n        /* \"#utility.yul\":4473:4551   */\n      tag_124\n      jump\t// in\n    tag_149:\n        /* \"#utility.yul\":4465:4551   */\n      swap1\n      pop\n        /* \"#utility.yul\":4245:4558   */\n      swap3\n      swap2\n      pop\n      pop\n      jump\t// out\n        /* \"#utility.yul\":4564:5085   */\n    tag_19:\n        /* \"#utility.yul\":4727:4731   */\n      0x00\n        /* \"#utility.yul\":4765:4767   */\n      0x60\n        /* \"#utility.yul\":4754:4763   */\n      dup3\n        /* \"#utility.yul\":4750:4768   */\n      add\n        /* \"#utility.yul\":4742:4768   */\n      swap1\n      pop\n        /* \"#utility.yul\":4814:4823   */\n      dup2\n        /* \"#utility.yul\":4808:4812   */\n      dup2\n        /* \"#utility.yul\":4804:4824   */\n      sub\n        /* \"#utility.yul\":4800:4801   */\n      0x00\n        /* \"#utility.yul\":4789:4798   */\n      dup4\n        /* \"#utility.yul\":4785:4802   */\n      add\n        /* \"#utility.yul\":4778:4825   */\n      mstore\n        /* \"#utility.yul\":4842:4920   */\n      tag_151\n        /* \"#utility.yul\":4915:4919   */\n      dup2\n        /* \"#utility.yul\":4906:4912   */\n      dup7\n        /* \"#utility.yul\":4842:4920   */\n      tag_124\n      jump\t// in\n    tag_151:\n        /* \"#utility.yul\":4834:4920   */\n      swap1\n      pop\n        /* \"#utility.yul\":4930:5002   */\n      tag_152\n        /* \"#utility.yul\":4998:5000   */\n      0x20\n        /* \"#utility.yul\":4987:4996   */\n      dup4\n        /* \"#utility.yul\":4983:5001   */\n      add\n        /* \"#utility.yul\":4974:4980   */\n      dup6\n        /* \"#utility.yul\":4930:5002   */\n      tag_140\n      jump\t// in\n    tag_152:\n        /* \"#utility.yul\":5012:5078   */\n      tag_153\n        /* \"#utility.yul\":5074:5076   */\n      0x40\n        /* \"#utility.yul\":5063:5072   */\n      dup4\n        /* \"#utility.yul\":5059:5077   */\n      add\n        /* \"#utility.yul\":5050:5056   */\n      dup5\n        /* \"#utility.yul\":5012:5078   */\n      tag_120\n      jump\t// in\n    tag_153:\n        /* \"#utility.yul\":4564:5085   */\n      swap5\n      swap4\n      pop\n      pop\n      pop\n      pop\n      jump\t// out\n        /* \"#utility.yul\":5091:5313   */\n    tag_34:\n        /* \"#utility.yul\":5184:5188   */\n      0x00\n        /* \"#utility.yul\":5222:5224   */\n      0x20\n        /* \"#utility.yul\":5211:5220   */\n      dup3\n        /* \"#utility.yul\":5207:5225   */\n      add\n        /* \"#utility.yul\":5199:5225   */\n      swap1\n      pop\n        /* \"#utility.yul\":5235:5306   */\n      tag_155\n        /* \"#utility.yul\":5303:5304   */\n      0x00\n        /* \"#utility.yul\":5292:5301   */\n      dup4\n        /* \"#utility.yul\":5288:5305   */\n      add\n        /* \"#utility.yul\":5279:5285   */\n      dup5\n        /* \"#utility.yul\":5235:5306   */\n      tag_140\n      jump\t// in\n    tag_155:\n        /* \"#utility.yul\":5091:5313   */\n      swap3\n      swap2\n      pop\n      pop\n      jump\t// out\n        /* \"#utility.yul\":5319:5448   */\n    tag_79:\n        /* \"#utility.yul\":5353:5359   */\n      0x00\n        /* \"#utility.yul\":5380:5400   */\n      tag_157\n      tag_158\n      jump\t// in\n    tag_157:\n        /* \"#utility.yul\":5370:5400   */\n      swap1\n      pop\n        /* \"#utility.yul\":5409:5442   */\n      tag_159\n        /* \"#utility.yul\":5437:5441   */\n      dup3\n        /* \"#utility.yul\":5429:5435   */\n      dup3\n        /* \"#utility.yul\":5409:5442   */\n      tag_160\n      jump\t// in\n    tag_159:\n        /* \"#utility.yul\":5319:5448   */\n      swap2\n      swap1\n      pop\n      jump\t// out\n        /* \"#utility.yul\":5454:5529   */\n    tag_158:\n        /* \"#utility.yul\":5487:5493   */\n      0x00\n        /* \"#utility.yul\":5520:5522   */\n      0x40\n        /* \"#utility.yul\":5514:5523   */\n      mload\n        /* \"#utility.yul\":5504:5523   */\n      swap1\n      pop\n        /* \"#utility.yul\":5454:5529   */\n      swap1\n      jump\t// out\n        /* \"#utility.yul\":5535:5843   */\n    tag_78:\n        /* \"#utility.yul\":5597:5601   */\n      0x00\n        /* \"#utility.yul\":5687:5705   */\n      0xffffffffffffffff\n        /* \"#utility.yul\":5679:5685   */\n      dup3\n        /* \"#utility.yul\":5676:5706   */\n      gt\n        /* \"#utility.yul\":5673:5729   */\n      iszero\n      tag_163\n      jumpi\n        /* \"#utility.yul\":5709:5727   */\n      tag_164\n      tag_165\n      jump\t// in\n    tag_164:\n        /* \"#utility.yul\":5673:5729   */\n    tag_163:\n        /* \"#utility.yul\":5747:5776   */\n      tag_166\n        /* \"#utility.yul\":5769:5775   */\n      dup3\n        /* \"#utility.yul\":5747:5776   */\n      tag_133\n      jump\t// in\n    tag_166:\n        /* \"#utility.yul\":5739:5776   */\n      swap1\n      pop\n        /* \"#utility.yul\":5831:5835   */\n      0x20\n        /* \"#utility.yul\":5825:5829   */\n      dup2\n        /* \"#utility.yul\":5821:5836   */\n      add\n        /* \"#utility.yul\":5813:5836   */\n      swap1\n      pop\n        /* \"#utility.yul\":5535:5843   */\n      swap2\n      swap1\n      pop\n      jump\t// out\n        /* \"#utility.yul\":5849:5948   */\n    tag_127:\n        /* \"#utility.yul\":5901:5907   */\n      0x00\n        /* \"#utility.yul\":5935:5940   */\n      dup2\n        /* \"#utility.yul\":5929:5941   */\n      mload\n        /* \"#utility.yul\":5919:5941   */\n      swap1\n      pop\n        /* \"#utility.yul\":5849:5948   */\n      swap2\n      swap1\n      pop\n      jump\t// out\n        /* \"#utility.yul\":5954:6123   */\n    tag_129:\n        /* \"#utility.yul\":6038:6049   */\n      0x00\n        /* \"#utility.yul\":6072:6078   */\n      dup3\n        /* \"#utility.yul\":6067:6070   */\n      dup3\n        /* \"#utility.yul\":6060:6079   */\n      mstore\n        /* \"#utility.yul\":6112:6116   */\n      0x20\n        /* \"#utility.yul\":6107:6110   */\n      dup3\n        /* \"#utility.yul\":6103:6117   */\n      add\n        /* \"#utility.yul\":6088:6117   */\n      swap1\n      pop\n        /* \"#utility.yul\":5954:6123   */\n      swap3\n      swap2\n      pop\n      pop\n      jump\t// out\n        /* \"#utility.yul\":6129:6277   */\n    tag_138:\n        /* \"#utility.yul\":6231:6242   */\n      0x00\n        /* \"#utility.yul\":6268:6271   */\n      dup2\n        /* \"#utility.yul\":6253:6271   */\n      swap1\n      pop\n        /* \"#utility.yul\":6129:6277   */\n      swap3\n      swap2\n      pop\n      pop\n      jump\t// out\n        /* \"#utility.yul\":6283:6379   */\n    tag_119:\n        /* \"#utility.yul\":6320:6327   */\n      0x00\n        /* \"#utility.yul\":6349:6373   */\n      tag_171\n        /* \"#utility.yul\":6367:6372   */\n      dup3\n        /* \"#utility.yul\":6349:6373   */\n      tag_172\n      jump\t// in\n    tag_171:\n        /* \"#utility.yul\":6338:6373   */\n      swap1\n      pop\n        /* \"#utility.yul\":6283:6379   */\n      swap2\n      swap1\n      pop\n      jump\t// out\n        /* \"#utility.yul\":6385:6475   */\n    tag_123:\n        /* \"#utility.yul\":6419:6426   */\n      0x00\n        /* \"#utility.yul\":6462:6467   */\n      dup2\n        /* \"#utility.yul\":6455:6468   */\n      iszero\n        /* \"#utility.yul\":6448:6469   */\n      iszero\n        /* \"#utility.yul\":6437:6469   */\n      swap1\n      pop\n        /* \"#utility.yul\":6385:6475   */\n      swap2\n      swap1\n      pop\n      jump\t// out\n        /* \"#utility.yul\":6481:6607   */\n    tag_172:\n        /* \"#utility.yul\":6518:6525   */\n      0x00\n        /* \"#utility.yul\":6558:6600   */\n      0xffffffffffffffffffffffffffffffffffffffff\n        /* \"#utility.yul\":6551:6556   */\n      dup3\n        /* \"#utility.yul\":6547:6601   */\n      and\n        /* \"#utility.yul\":6536:6601   */\n      swap1\n      pop\n        /* \"#utility.yul\":6481:6607   */\n      swap2\n      swap1\n      pop\n      jump\t// out\n        /* \"#utility.yul\":6613:6690   */\n    tag_143:\n        /* \"#utility.yul\":6650:6657   */\n      0x00\n        /* \"#utility.yul\":6679:6684   */\n      dup2\n        /* \"#utility.yul\":6668:6684   */\n      swap1\n      pop\n        /* \"#utility.yul\":6613:6690   */\n      swap2\n      swap1\n      pop\n      jump\t// out\n        /* \"#utility.yul\":6696:6850   */\n    tag_84:\n        /* \"#utility.yul\":6780:6786   */\n      dup3\n        /* \"#utility.yul\":6775:6778   */\n      dup2\n        /* \"#utility.yul\":6770:6773   */\n      dup4\n        /* \"#utility.yul\":6757:6787   */\n      calldatacopy\n        /* \"#utility.yul\":6842:6843   */\n      0x00\n        /* \"#utility.yul\":6833:6839   */\n      dup4\n        /* \"#utility.yul\":6828:6831   */\n      dup4\n        /* \"#utility.yul\":6824:6840   */\n      add\n        /* \"#utility.yul\":6817:6844   */\n      mstore\n        /* \"#utility.yul\":6696:6850   */\n      pop\n      pop\n      pop\n      jump\t// out\n        /* \"#utility.yul\":6856:7163   */\n    tag_131:\n        /* \"#utility.yul\":6924:6925   */\n      0x00\n        /* \"#utility.yul\":6934:7047   */\n    tag_178:\n        /* \"#utility.yul\":6948:6954   */\n      dup4\n        /* \"#utility.yul\":6945:6946   */\n      dup2\n        /* \"#utility.yul\":6942:6955   */\n      lt\n        /* \"#utility.yul\":6934:7047   */\n      iszero\n      tag_180\n      jumpi\n        /* \"#utility.yul\":7033:7034   */\n      dup1\n        /* \"#utility.yul\":7028:7031   */\n      dup3\n        /* \"#utility.yul\":7024:7035   */\n      add\n        /* \"#utility.yul\":7018:7036   */\n      mload\n        /* \"#utility.yul\":7014:7015   */\n      dup2\n        /* \"#utility.yul\":7009:7012   */\n      dup5\n        /* \"#utility.yul\":7005:7016   */\n      add\n        /* \"#utility.yul\":6998:7037   */\n      mstore\n        /* \"#utility.yul\":6970:6972   */\n      0x20\n        /* \"#utility.yul\":6967:6968   */\n      dup2\n        /* \"#utility.yul\":6963:6973   */\n      add\n        /* \"#utility.yul\":6958:6973   */\n      swap1\n      pop\n        /* \"#utility.yul\":6934:7047   */\n      jump(tag_178)\n    tag_180:\n        /* \"#utility.yul\":7065:7071   */\n      dup4\n        /* \"#utility.yul\":7062:7063   */\n      dup2\n        /* \"#utility.yul\":7059:7072   */\n      gt\n        /* \"#utility.yul\":7056:7157   */\n      iszero\n      tag_181\n      jumpi\n        /* \"#utility.yul\":7145:7146   */\n      0x00\n        /* \"#utility.yul\":7136:7142   */\n      dup5\n        /* \"#utility.yul\":7131:7134   */\n      dup5\n        /* \"#utility.yul\":7127:7143   */\n      add\n        /* \"#utility.yul\":7120:7147   */\n      mstore\n        /* \"#utility.yul\":7056:7157   */\n    tag_181:\n        /* \"#utility.yul\":6905:7163   */\n      pop\n        /* \"#utility.yul\":6856:7163   */\n      pop\n      pop\n      pop\n      jump\t// out\n        /* \"#utility.yul\":7169:7489   */\n    tag_42:\n        /* \"#utility.yul\":7213:7219   */\n      0x00\n        /* \"#utility.yul\":7250:7251   */\n      0x02\n        /* \"#utility.yul\":7244:7248   */\n      dup3\n        /* \"#utility.yul\":7240:7252   */\n      div\n        /* \"#utility.yul\":7230:7252   */\n      swap1\n      pop\n        /* \"#utility.yul\":7297:7298   */\n      0x01\n        /* \"#utility.yul\":7291:7295   */\n      dup3\n        /* \"#utility.yul\":7287:7299   */\n      and\n        /* \"#utility.yul\":7318:7336   */\n      dup1\n        /* \"#utility.yul\":7308:7389   */\n      tag_183\n      jumpi\n        /* \"#utility.yul\":7374:7378   */\n      0x7f\n        /* \"#utility.yul\":7366:7372   */\n      dup3\n        /* \"#utility.yul\":7362:7379   */\n      and\n        /* \"#utility.yul\":7352:7379   */\n      swap2\n      pop\n        /* \"#utility.yul\":7308:7389   */\n    tag_183:\n        /* \"#utility.yul\":7436:7438   */\n      0x20\n        /* \"#utility.yul\":7428:7434   */\n      dup3\n        /* \"#utility.yul\":7425:7439   */\n      lt\n        /* \"#utility.yul\":7405:7423   */\n      dup2\n        /* \"#utility.yul\":7402:7440   */\n      eq\n        /* \"#utility.yul\":7399:7483   */\n      iszero\n      tag_184\n      jumpi\n        /* \"#utility.yul\":7455:7473   */\n      tag_185\n      tag_186\n      jump\t// in\n    tag_185:\n        /* \"#utility.yul\":7399:7483   */\n    tag_184:\n        /* \"#utility.yul\":7220:7489   */\n      pop\n        /* \"#utility.yul\":7169:7489   */\n      swap2\n      swap1\n      pop\n      jump\t// out\n        /* \"#utility.yul\":7495:7776   */\n    tag_160:\n        /* \"#utility.yul\":7578:7605   */\n      tag_188\n        /* \"#utility.yul\":7600:7604   */\n      dup3\n        /* \"#utility.yul\":7578:7605   */\n      tag_133\n      jump\t// in\n    tag_188:\n        /* \"#utility.yul\":7570:7576   */\n      dup2\n        /* \"#utility.yul\":7566:7606   */\n      add\n        /* \"#utility.yul\":7708:7714   */\n      dup2\n        /* \"#utility.yul\":7696:7706   */\n      dup2\n        /* \"#utility.yul\":7693:7715   */\n      lt\n        /* \"#utility.yul\":7672:7690   */\n      0xffffffffffffffff\n        /* \"#utility.yul\":7660:7670   */\n      dup3\n        /* \"#utility.yul\":7657:7691   */\n      gt\n        /* \"#utility.yul\":7654:7716   */\n      or\n        /* \"#utility.yul\":7651:7739   */\n      iszero\n      tag_189\n      jumpi\n        /* \"#utility.yul\":7719:7737   */\n      tag_190\n      tag_165\n      jump\t// in\n    tag_190:\n        /* \"#utility.yul\":7651:7739   */\n    tag_189:\n        /* \"#utility.yul\":7759:7769   */\n      dup1\n        /* \"#utility.yul\":7755:7757   */\n      0x40\n        /* \"#utility.yul\":7748:7770   */\n      mstore\n        /* \"#utility.yul\":7538:7776   */\n      pop\n        /* \"#utility.yul\":7495:7776   */\n      pop\n      pop\n      jump\t// out\n        /* \"#utility.yul\":7782:8015   */\n    tag_56:\n        /* \"#utility.yul\":7821:7824   */\n      0x00\n        /* \"#utility.yul\":7844:7868   */\n      tag_192\n        /* \"#utility.yul\":7862:7867   */\n      dup3\n        /* \"#utility.yul\":7844:7868   */\n      tag_143\n      jump\t// in\n    tag_192:\n        /* \"#utility.yul\":7835:7868   */\n      swap2\n      pop\n        /* \"#utility.yul\":7890:7956   */\n      0xffffffffffffffffffffffffffffffffffffffffffffffffffffffffffffffff\n        /* \"#utility.yul\":7883:7888   */\n      dup3\n        /* \"#utility.yul\":7880:7957   */\n      eq\n        /* \"#utility.yul\":7877:7980   */\n      iszero\n      tag_193\n      jumpi\n        /* \"#utility.yul\":7960:7978   */\n      tag_194\n      tag_195\n      jump\t// in\n    tag_194:\n        /* \"#utility.yul\":7877:7980   */\n    tag_193:\n        /* \"#utility.yul\":8007:8008   */\n      0x01\n        /* \"#utility.yul\":8000:8005   */\n      dup3\n        /* \"#utility.yul\":7996:8009   */\n      add\n        /* \"#utility.yul\":7989:8009   */\n      swap1\n      pop\n        /* \"#utility.yul\":7782:8015   */\n      swap2\n      swap1\n      pop\n      jump\t// out\n        /* \"#utility.yul\":8021:8201   */\n    tag_195:\n        /* \"#utility.yul\":8069:8146   */\n      0x4e487b7100000000000000000000000000000000000000000000000000000000\n        /* \"#utility.yul\":8066:8067   */\n      0x00\n        /* \"#utility.yul\":8059:8147   */\n      mstore\n        /* \"#utility.yul\":8166:8170   */\n      0x11\n        /* \"#utility.yul\":8163:8164   */\n      0x04\n        /* \"#utility.yul\":8156:8171   */\n      mstore\n        /* \"#utility.yul\":8190:8194   */\n      0x24\n        /* \"#utility.yul\":8187:8188   */\n      0x00\n        /* \"#utility.yul\":8180:8195   */\n      revert\n        /* \"#utility.yul\":8207:8387   */\n    tag_186:\n        /* \"#utility.yul\":8255:8332   */\n      0x4e487b7100000000000000000000000000000000000000000000000000000000\n        /* \"#utility.yul\":8252:8253   */\n      0x00\n        /* \"#utility.yul\":8245:8333   */\n      mstore\n        /* \"#utility.yul\":8352:8356   */\n      0x22\n        /* \"#utility.yul\":8349:8350   */\n      0x04\n        /* \"#utility.yul\":8342:8357   */\n      mstore\n        /* \"#utility.yul\":8376:8380   */\n      0x24\n        /* \"#utility.yul\":8373:8374   */\n      0x00\n        /* \"#utility.yul\":8366:8381   */\n      revert\n        /* \"#utility.yul\":8393:8573   */\n    tag_165:\n        /* \"#utility.yul\":8441:8518   */\n      0x4e487b7100000000000000000000000000000000000000000000000000000000\n        /* \"#utility.yul\":8438:8439   */\n      0x00\n        /* \"#utility.yul\":8431:8519   */\n      mstore\n        /* \"#utility.yul\":8538:8542   */\n      0x41\n        /* \"#utility.yul\":8535:8536   */\n      0x04\n        /* \"#utility.yul\":8528:8543   */\n      mstore\n        /* \"#utility.yul\":8562:8566   */\n      0x24\n        /* \"#utility.yul\":8559:8560   */\n      0x00\n        /* \"#utility.yul\":8552:8567   */\n      revert\n        /* \"#utility.yul\":8579:8696   */\n    tag_89:\n        /* \"#utility.yul\":8688:8689   */\n      0x00\n        /* \"#utility.yul\":8685:8686   */\n      dup1\n        /* \"#utility.yul\":8678:8690   */\n      revert\n        /* \"#utility.yul\":8702:8819   */\n    tag_82:\n        /* \"#utility.yul\":8811:8812   */\n      0x00\n        /* \"#utility.yul\":8808:8809   */\n      dup1\n        /* \"#utility.yul\":8801:8813   */\n      revert\n        /* \"#utility.yul\":8825:8942   */\n    tag_101:\n        /* \"#utility.yul\":8934:8935   */\n      0x00\n        /* \"#utility.yul\":8931:8932   */\n      dup1\n        /* \"#utility.yul\":8924:8936   */\n      revert\n        /* \"#utility.yul\":8948:9065   */\n    tag_98:\n        /* \"#utility.yul\":9057:9058   */\n      0x00\n        /* \"#utility.yul\":9054:9055   */\n      dup1\n        /* \"#utility.yul\":9047:9059   */\n      revert\n        /* \"#utility.yul\":9071:9173   */\n    tag_133:\n        /* \"#utility.yul\":9112:9118   */\n      0x00\n        /* \"#utility.yul\":9163:9165   */\n      0x1f\n        /* \"#utility.yul\":9159:9166   */\n      not\n        /* \"#utility.yul\":9154:9156   */\n      0x1f\n        /* \"#utility.yul\":9147:9152   */\n      dup4\n        /* \"#utility.yul\":9143:9157   */\n      add\n        /* \"#utility.yul\":9139:9167   */\n      and\n        /* \"#utility.yul\":9129:9167   */\n      swap1\n      pop\n        /* \"#utility.yul\":9071:9173   */\n      swap2\n      swap1\n      pop\n      jump\t// out\n        /* \"#utility.yul\":9179:9301   */\n    tag_94:\n        /* \"#utility.yul\":9252:9276   */\n      tag_205\n        /* \"#utility.yul\":9270:9275   */\n      dup2\n        /* \"#utility.yul\":9252:9276   */\n      tag_143\n      jump\t// in\n    tag_205:\n        /* \"#utility.yul\":9245:9250   */\n      dup2\n        /* \"#utility.yul\":9242:9277   */\n      eq\n        /* \"#utility.yul\":9232:9295   */\n      tag_206\n      jumpi\n        /* \"#utility.yul\":9291:9292   */\n      0x00\n        /* \"#utility.yul\":9288:9289   */\n      dup1\n        /* \"#utility.yul\":9281:9293   */\n      revert\n        /* \"#utility.yul\":9232:9295   */\n    tag_206:\n        /* \"#utility.yul\":9179:9301   */\n      pop\n      jump\t// out\n\n    auxdata: 0xa2646970667358221220a2420f065577529ae8549e28361c0799b507644bac2f5fc14f0a58c8e8aa915b64736f6c63430008070033\n}\n",
				"bytecode": {
					"linkReferences": {},
					"object": "60806040523480156200001157600080fd5b5060405162000e2238038062000e228339818101604052810190620000379190620001dd565b806000806101000a81548173ffffffffffffffffffffffffffffffffffffffff021916908373ffffffffffffffffffffffffffffffffffffffff16021790555081600190805190602001906200008f92919062000098565b50505062000415565b828054620000a6906200030c565b90600052602060002090601f016020900481019282620000ca576000855562000116565b82601f10620000e557805160ff191683800117855562000116565b8280016001018555821562000116579182015b8281111562000115578251825591602001919060010190620000f8565b5b50905062000125919062000129565b5090565b5b80821115620001445760008160009055506001016200012a565b5090565b60006200015f62000159846200026c565b62000243565b9050828152602081018484840111156200017e576200017d620003db565b5b6200018b848285620002d6565b509392505050565b600081519050620001a481620003fb565b92915050565b600082601f830112620001c257620001c1620003d6565b5b8151620001d484826020860162000148565b91505092915050565b60008060408385031215620001f757620001f6620003e5565b5b600083015167ffffffffffffffff811115620002185762000217620003e0565b5b6200022685828601620001aa565b9250506020620002398582860162000193565b9150509250929050565b60006200024f62000262565b90506200025d828262000342565b919050565b6000604051905090565b600067ffffffffffffffff8211156200028a5762000289620003a7565b5b6200029582620003ea565b9050602081019050919050565b6000620002af82620002b6565b9050919050565b600073ffffffffffffffffffffffffffffffffffffffff82169050919050565b60005b83811015620002f6578082015181840152602081019050620002d9565b8381111562000306576000848401525b50505050565b600060028204905060018216806200032557607f821691505b602082108114156200033c576200033b62000378565b5b50919050565b6200034d82620003ea565b810181811067ffffffffffffffff821117156200036f576200036e620003a7565b5b80604052505050565b7f4e487b7100000000000000000000000000000000000000000000000000000000600052602260045260246000fd5b7f4e487b7100000000000000000000000000000000000000000000000000000000600052604160045260246000fd5b600080fd5b600080fd5b600080fd5b600080fd5b6000601f19601f8301169050919050565b6200040681620002a2565b81146200041257600080fd5b50565b6109fd80620004256000396000f3fe6080604052600436106100555760003560e01c80632e4176cf1461005a578063302a2a461461008557806343ef7e85146100c45780634f5cbc1a146100ed57806364b9fb8914610118578063bab86ea814610143575b600080fd5b34801561006657600080fd5b5061006f61015f565b60405161007c91906106b5565b60405180910390f35b34801561009157600080fd5b506100ac60048036038101906100a791906105da565b610183565b6040516100bb939291906106f2565b60405180910390f35b3480156100d057600080fd5b506100eb60048036038101906100e69190610519565b610252565b005b3480156100f957600080fd5b50610102610336565b60405161010f91906106d0565b60405180910390f35b34801561012457600080fd5b5061012d6103c4565b60405161013a9190610730565b60405180910390f35b61015d60048036038101906101589190610562565b6103ca565b005b60008054906101000a900473ffffffffffffffffffffffffffffffffffffffff1681565b6005818154811061019357600080fd5b90600052602060002090600302016000915090508060000180546101b690610852565b80601f01602080910402602001604051908101604052809291908181526020018280546101e290610852565b801561022f5780601f106102045761010080835404028352916020019161022f565b820191906000526020600020905b81548152906001019060200180831161021257829003601f168201915b5050505050908060010154908060020160009054906101000a900460ff16905083565b61025a6103ce565b8181600001819052506002548160200181815250506001816040019015159081151581525050600581908060018154018082558091505060019003906000526020600020906003020160009091909190915060008201518160000190805190602001906102c89291906103f1565b506020820151816001015560408201518160020160006101000a81548160ff0219169083151502179055505050600254600383604051610308919061069e565b9081526020016040518091039020819055506002600081548092919061032d906108b5565b91905055505050565b6001805461034390610852565b80601f016020809104026020016040519081016040528092919081815260200182805461036f90610852565b80156103bc5780601f10610391576101008083540402835291602001916103bc565b820191906000526020600020905b81548152906001019060200180831161039f57829003601f168201915b505050505081565b60025481565b5050565b604051806060016040528060608152602001600081526020016000151581525090565b8280546103fd90610852565b90600052602060002090601f01602090048101928261041f5760008555610466565b82601f1061043857805160ff1916838001178555610466565b82800160010185558215610466579182015b8281111561046557825182559160200191906001019061044a565b5b5090506104739190610477565b5090565b5b80821115610490576000816000905550600101610478565b5090565b60006104a76104a284610770565b61074b565b9050828152602081018484840111156104c3576104c2610990565b5b6104ce848285610810565b509392505050565b600082601f8301126104eb576104ea61098b565b5b81356104fb848260208601610494565b91505092915050565b600081359050610513816109b0565b92915050565b60006020828403121561052f5761052e61099a565b5b600082013567ffffffffffffffff81111561054d5761054c610995565b5b610559848285016104d6565b91505092915050565b600080604083850312156105795761057861099a565b5b600083013567ffffffffffffffff81111561059757610596610995565b5b6105a3858286016104d6565b925050602083013567ffffffffffffffff8111156105c4576105c3610995565b5b6105d0858286016104d6565b9150509250929050565b6000602082840312156105f0576105ef61099a565b5b60006105fe84828501610504565b91505092915050565b610610816107c8565b82525050565b61061f816107da565b82525050565b6000610630826107a1565b61063a81856107ac565b935061064a81856020860161081f565b6106538161099f565b840191505092915050565b6000610669826107a1565b61067381856107bd565b935061068381856020860161081f565b80840191505092915050565b61069881610806565b82525050565b60006106aa828461065e565b915081905092915050565b60006020820190506106ca6000830184610607565b92915050565b600060208201905081810360008301526106ea8184610625565b905092915050565b6000606082019050818103600083015261070c8186610625565b905061071b602083018561068f565b6107286040830184610616565b949350505050565b6000602082019050610745600083018461068f565b92915050565b6000610755610766565b90506107618282610884565b919050565b6000604051905090565b600067ffffffffffffffff82111561078b5761078a61095c565b5b6107948261099f565b9050602081019050919050565b600081519050919050565b600082825260208201905092915050565b600081905092915050565b60006107d3826107e6565b9050919050565b60008115159050919050565b600073ffffffffffffffffffffffffffffffffffffffff82169050919050565b6000819050919050565b82818337600083830152505050565b60005b8381101561083d578082015181840152602081019050610822565b8381111561084c576000848401525b50505050565b6000600282049050600182168061086a57607f821691505b6020821081141561087e5761087d61092d565b5b50919050565b61088d8261099f565b810181811067ffffffffffffffff821117156108ac576108ab61095c565b5b80604052505050565b60006108c082610806565b91507fffffffffffffffffffffffffffffffffffffffffffffffffffffffffffffffff8214156108f3576108f26108fe565b5b600182019050919050565b7f4e487b7100000000000000000000000000000000000000000000000000000000600052601160045260246000fd5b7f4e487b7100000000000000000000000000000000000000000000000000000000600052602260045260246000fd5b7f4e487b7100000000000000000000000000000000000000000000000000000000600052604160045260246000fd5b600080fd5b600080fd5b600080fd5b600080fd5b6000601f19601f8301169050919050565b6109b981610806565b81146109c457600080fd5b5056fea2646970667358221220a2420f065577529ae8549e28361c0799b507644bac2f5fc14f0a58c8e8aa915b64736f6c63430008070033",
					"opcodes": "PUSH1 0x80 PUSH1 0x40 MSTORE CALLVALUE DUP1 ISZERO PUSH3 0x11 JUMPI PUSH1 0x0 DUP1 REVERT JUMPDEST POP PUSH1 0x40 MLOAD PUSH3 0xE22 CODESIZE SUB DUP1 PUSH3 0xE22 DUP4 CODECOPY DUP2 DUP2 ADD PUSH1 0x40 MSTORE DUP2 ADD SWAP1 PUSH3 0x37 SWAP2 SWAP1 PUSH3 0x1DD JUMP JUMPDEST DUP1 PUSH1 0x0 DUP1 PUSH2 0x100 EXP DUP2 SLOAD DUP2 PUSH20 0xFFFFFFFFFFFFFFFFFFFFFFFFFFFFFFFFFFFFFFFF MUL NOT AND SWAP1 DUP4 PUSH20 0xFFFFFFFFFFFFFFFFFFFFFFFFFFFFFFFFFFFFFFFF AND MUL OR SWAP1 SSTORE POP DUP2 PUSH1 0x1 SWAP1 DUP1 MLOAD SWAP1 PUSH1 0x20 ADD SWAP1 PUSH3 0x8F SWAP3 SWAP2 SWAP1 PUSH3 0x98 JUMP JUMPDEST POP POP POP PUSH3 0x415 JUMP JUMPDEST DUP3 DUP1 SLOAD PUSH3 0xA6 SWAP1 PUSH3 0x30C JUMP JUMPDEST SWAP1 PUSH1 0x0 MSTORE PUSH1 0x20 PUSH1 0x0 KECCAK256 SWAP1 PUSH1 0x1F ADD PUSH1 0x20 SWAP1 DIV DUP2 ADD SWAP3 DUP3 PUSH3 0xCA JUMPI PUSH1 0x0 DUP6 SSTORE PUSH3 0x116 JUMP JUMPDEST DUP3 PUSH1 0x1F LT PUSH3 0xE5 JUMPI DUP1 MLOAD PUSH1 0xFF NOT AND DUP4 DUP1 ADD OR DUP6 SSTORE PUSH3 0x116 JUMP JUMPDEST DUP3 DUP1 ADD PUSH1 0x1 ADD DUP6 SSTORE DUP3 ISZERO PUSH3 0x116 JUMPI SWAP2 DUP3 ADD JUMPDEST DUP3 DUP2 GT ISZERO PUSH3 0x115 JUMPI DUP3 MLOAD DUP3 SSTORE SWAP2 PUSH1 0x20 ADD SWAP2 SWAP1 PUSH1 0x1 ADD SWAP1 PUSH3 0xF8 JUMP JUMPDEST JUMPDEST POP SWAP1 POP PUSH3 0x125 SWAP2 SWAP1 PUSH3 0x129 JUMP JUMPDEST POP SWAP1 JUMP JUMPDEST JUMPDEST DUP1 DUP3 GT ISZERO PUSH3 0x144 JUMPI PUSH1 0x0 DUP2 PUSH1 0x0 SWAP1 SSTORE POP PUSH1 0x1 ADD PUSH3 0x12A JUMP JUMPDEST POP SWAP1 JUMP JUMPDEST PUSH1 0x0 PUSH3 0x15F PUSH3 0x159 DUP5 PUSH3 0x26C JUMP JUMPDEST PUSH3 0x243 JUMP JUMPDEST SWAP1 POP DUP3 DUP2 MSTORE PUSH1 0x20 DUP2 ADD DUP5 DUP5 DUP5 ADD GT ISZERO PUSH3 0x17E JUMPI PUSH3 0x17D PUSH3 0x3DB JUMP JUMPDEST JUMPDEST PUSH3 0x18B DUP5 DUP3 DUP6 PUSH3 0x2D6 JUMP JUMPDEST POP SWAP4 SWAP3 POP POP POP JUMP JUMPDEST PUSH1 0x0 DUP2 MLOAD SWAP1 POP PUSH3 0x1A4 DUP2 PUSH3 0x3FB JUMP JUMPDEST SWAP3 SWAP2 POP POP JUMP JUMPDEST PUSH1 0x0 DUP3 PUSH1 0x1F DUP4 ADD SLT PUSH3 0x1C2 JUMPI PUSH3 0x1C1 PUSH3 0x3D6 JUMP JUMPDEST JUMPDEST DUP2 MLOAD PUSH3 0x1D4 DUP5 DUP3 PUSH1 0x20 DUP7 ADD PUSH3 0x148 JUMP JUMPDEST SWAP2 POP POP SWAP3 SWAP2 POP POP JUMP JUMPDEST PUSH1 0x0 DUP1 PUSH1 0x40 DUP4 DUP6 SUB SLT ISZERO PUSH3 0x1F7 JUMPI PUSH3 0x1F6 PUSH3 0x3E5 JUMP JUMPDEST JUMPDEST PUSH1 0x0 DUP4 ADD MLOAD PUSH8 0xFFFFFFFFFFFFFFFF DUP2 GT ISZERO PUSH3 0x218 JUMPI PUSH3 0x217 PUSH3 0x3E0 JUMP JUMPDEST JUMPDEST PUSH3 0x226 DUP6 DUP3 DUP7 ADD PUSH3 0x1AA JUMP JUMPDEST SWAP3 POP POP PUSH1 0x20 PUSH3 0x239 DUP6 DUP3 DUP7 ADD PUSH3 0x193 JUMP JUMPDEST SWAP2 POP POP SWAP3 POP SWAP3 SWAP1 POP JUMP JUMPDEST PUSH1 0x0 PUSH3 0x24F PUSH3 0x262 JUMP JUMPDEST SWAP1 POP PUSH3 0x25D DUP3 DUP3 PUSH3 0x342 JUMP JUMPDEST SWAP2 SWAP1 POP JUMP JUMPDEST PUSH1 0x0 PUSH1 0x40 MLOAD SWAP1 POP SWAP1 JUMP JUMPDEST PUSH1 0x0 PUSH8 0xFFFFFFFFFFFFFFFF DUP3 GT ISZERO PUSH3 0x28A JUMPI PUSH3 0x289 PUSH3 0x3A7 JUMP JUMPDEST JUMPDEST PUSH3 0x295 DUP3 PUSH3 0x3EA JUMP JUMPDEST SWAP1 POP PUSH1 0x20 DUP2 ADD SWAP1 POP SWAP2 SWAP1 POP JUMP JUMPDEST PUSH1 0x0 PUSH3 0x2AF DUP3 PUSH3 0x2B6 JUMP JUMPDEST SWAP1 POP SWAP2 SWAP1 POP JUMP JUMPDEST PUSH1 0x0 PUSH20 0xFFFFFFFFFFFFFFFFFFFFFFFFFFFFFFFFFFFFFFFF DUP3 AND SWAP1 POP SWAP2 SWAP1 POP JUMP JUMPDEST PUSH1 0x0 JUMPDEST DUP4 DUP2 LT ISZERO PUSH3 0x2F6 JUMPI DUP1 DUP3 ADD MLOAD DUP2 DUP5 ADD MSTORE PUSH1 0x20 DUP2 ADD SWAP1 POP PUSH3 0x2D9 JUMP JUMPDEST DUP4 DUP2 GT ISZERO PUSH3 0x306 JUMPI PUSH1 0x0 DUP5 DUP5 ADD MSTORE JUMPDEST POP POP POP POP JUMP JUMPDEST PUSH1 0x0 PUSH1 0x2 DUP3 DIV SWAP1 POP PUSH1 0x1 DUP3 AND DUP1 PUSH3 0x325 JUMPI PUSH1 0x7F DUP3 AND SWAP2 POP JUMPDEST PUSH1 0x20 DUP3 LT DUP2 EQ ISZERO PUSH3 0x33C JUMPI PUSH3 0x33B PUSH3 0x378 JUMP JUMPDEST JUMPDEST POP SWAP2 SWAP1 POP JUMP JUMPDEST PUSH3 0x34D DUP3 PUSH3 0x3EA JUMP JUMPDEST DUP2 ADD DUP2 DUP2 LT PUSH8 0xFFFFFFFFFFFFFFFF DUP3 GT OR ISZERO PUSH3 0x36F JUMPI PUSH3 0x36E PUSH3 0x3A7 JUMP JUMPDEST JUMPDEST DUP1 PUSH1 0x40 MSTORE POP POP POP JUMP JUMPDEST PUSH32 0x4E487B7100000000000000000000000000000000000000000000000000000000 PUSH1 0x0 MSTORE PUSH1 0x22 PUSH1 0x4 MSTORE PUSH1 0x24 PUSH1 0x0 REVERT JUMPDEST PUSH32 0x4E487B7100000000000000000000000000000000000000000000000000000000 PUSH1 0x0 MSTORE PUSH1 0x41 PUSH1 0x4 MSTORE PUSH1 0x24 PUSH1 0x0 REVERT JUMPDEST PUSH1 0x0 DUP1 REVERT JUMPDEST PUSH1 0x0 DUP1 REVERT JUMPDEST PUSH1 0x0 DUP1 REVERT JUMPDEST PUSH1 0x0 DUP1 REVERT JUMPDEST PUSH1 0x0 PUSH1 0x1F NOT PUSH1 0x1F DUP4 ADD AND SWAP1 POP SWAP2 SWAP1 POP JUMP JUMPDEST PUSH3 0x406 DUP2 PUSH3 0x2A2 JUMP JUMPDEST DUP2 EQ PUSH3 0x412 JUMPI PUSH1 0x0 DUP1 REVERT JUMPDEST POP JUMP JUMPDEST PUSH2 0x9FD DUP1 PUSH3 0x425 PUSH1 0x0 CODECOPY PUSH1 0x0 RETURN INVALID PUSH1 0x80 PUSH1 0x40 MSTORE PUSH1 0x4 CALLDATASIZE LT PUSH2 0x55 JUMPI PUSH1 0x0 CALLDATALOAD PUSH1 0xE0 SHR DUP1 PUSH4 0x2E4176CF EQ PUSH2 0x5A JUMPI DUP1 PUSH4 0x302A2A46 EQ PUSH2 0x85 JUMPI DUP1 PUSH4 0x43EF7E85 EQ PUSH2 0xC4 JUMPI DUP1 PUSH4 0x4F5CBC1A EQ PUSH2 0xED JUMPI DUP1 PUSH4 0x64B9FB89 EQ PUSH2 0x118 JUMPI DUP1 PUSH4 0xBAB86EA8 EQ PUSH2 0x143 JUMPI JUMPDEST PUSH1 0x0 DUP1 REVERT JUMPDEST CALLVALUE DUP1 ISZERO PUSH2 0x66 JUMPI PUSH1 0x0 DUP1 REVERT JUMPDEST POP PUSH2 0x6F PUSH2 0x15F JUMP JUMPDEST PUSH1 0x40 MLOAD PUSH2 0x7C SWAP2 SWAP1 PUSH2 0x6B5 JUMP JUMPDEST PUSH1 0x40 MLOAD DUP1 SWAP2 SUB SWAP1 RETURN JUMPDEST CALLVALUE DUP1 ISZERO PUSH2 0x91 JUMPI PUSH1 0x0 DUP1 REVERT JUMPDEST POP PUSH2 0xAC PUSH1 0x4 DUP1 CALLDATASIZE SUB DUP2 ADD SWAP1 PUSH2 0xA7 SWAP2 SWAP1 PUSH2 0x5DA JUMP JUMPDEST PUSH2 0x183 JUMP JUMPDEST PUSH1 0x40 MLOAD PUSH2 0xBB SWAP4 SWAP3 SWAP2 SWAP1 PUSH2 0x6F2 JUMP JUMPDEST PUSH1 0x40 MLOAD DUP1 SWAP2 SUB SWAP1 RETURN JUMPDEST CALLVALUE DUP1 ISZERO PUSH2 0xD0 JUMPI PUSH1 0x0 DUP1 REVERT JUMPDEST POP PUSH2 0xEB PUSH1 0x4 DUP1 CALLDATASIZE SUB DUP2 ADD SWAP1 PUSH2 0xE6 SWAP2 SWAP1 PUSH2 0x519 JUMP JUMPDEST PUSH2 0x252 JUMP JUMPDEST STOP JUMPDEST CALLVALUE DUP1 ISZERO PUSH2 0xF9 JUMPI PUSH1 0x0 DUP1 REVERT JUMPDEST POP PUSH2 0x102 PUSH2 0x336 JUMP JUMPDEST PUSH1 0x40 MLOAD PUSH2 0x10F SWAP2 SWAP1 PUSH2 0x6D0 JUMP JUMPDEST PUSH1 0x40 MLOAD DUP1 SWAP2 SUB SWAP1 RETURN JUMPDEST CALLVALUE DUP1 ISZERO PUSH2 0x124 JUMPI PUSH1 0x0 DUP1 REVERT JUMPDEST POP PUSH2 0x12D PUSH2 0x3C4 JUMP JUMPDEST PUSH1 0x40 MLOAD PUSH2 0x13A SWAP2 SWAP1 PUSH2 0x730 JUMP JUMPDEST PUSH1 0x40 MLOAD DUP1 SWAP2 SUB SWAP1 RETURN JUMPDEST PUSH2 0x15D PUSH1 0x4 DUP1 CALLDATASIZE SUB DUP2 ADD SWAP1 PUSH2 0x158 SWAP2 SWAP1 PUSH2 0x562 JUMP JUMPDEST PUSH2 0x3CA JUMP JUMPDEST STOP JUMPDEST PUSH1 0x0 DUP1 SLOAD SWAP1 PUSH2 0x100 EXP SWAP1 DIV PUSH20 0xFFFFFFFFFFFFFFFFFFFFFFFFFFFFFFFFFFFFFFFF AND DUP2 JUMP JUMPDEST PUSH1 0x5 DUP2 DUP2 SLOAD DUP2 LT PUSH2 0x193 JUMPI PUSH1 0x0 DUP1 REVERT JUMPDEST SWAP1 PUSH1 0x0 MSTORE PUSH1 0x20 PUSH1 0x0 KECCAK256 SWAP1 PUSH1 0x3 MUL ADD PUSH1 0x0 SWAP2 POP SWAP1 POP DUP1 PUSH1 0x0 ADD DUP1 SLOAD PUSH2 0x1B6 SWAP1 PUSH2 0x852 JUMP JUMPDEST DUP1 PUSH1 0x1F ADD PUSH1 0x20 DUP1 SWAP2 DIV MUL PUSH1 0x20 ADD PUSH1 0x40 MLOAD SWAP1 DUP2 ADD PUSH1 0x40 MSTORE DUP1 SWAP3 SWAP2 SWAP1 DUP2 DUP2 MSTORE PUSH1 0x20 ADD DUP3 DUP1 SLOAD PUSH2 0x1E2 SWAP1 PUSH2 0x852 JUMP JUMPDEST DUP1 ISZERO PUSH2 0x22F JUMPI DUP1 PUSH1 0x1F LT PUSH2 0x204 JUMPI PUSH2 0x100 DUP1 DUP4 SLOAD DIV MUL DUP4 MSTORE SWAP2 PUSH1 0x20 ADD SWAP2 PUSH2 0x22F JUMP JUMPDEST DUP3 ADD SWAP2 SWAP1 PUSH1 0x0 MSTORE PUSH1 0x20 PUSH1 0x0 KECCAK256 SWAP1 JUMPDEST DUP2 SLOAD DUP2 MSTORE SWAP1 PUSH1 0x1 ADD SWAP1 PUSH1 0x20 ADD DUP1 DUP4 GT PUSH2 0x212 JUMPI DUP3 SWAP1 SUB PUSH1 0x1F AND DUP3 ADD SWAP2 JUMPDEST POP POP POP POP POP SWAP1 DUP1 PUSH1 0x1 ADD SLOAD SWAP1 DUP1 PUSH1 0x2 ADD PUSH1 0x0 SWAP1 SLOAD SWAP1 PUSH2 0x100 EXP SWAP1 DIV PUSH1 0xFF AND SWAP1 POP DUP4 JUMP JUMPDEST PUSH2 0x25A PUSH2 0x3CE JUMP JUMPDEST DUP2 DUP2 PUSH1 0x0 ADD DUP2 SWAP1 MSTORE POP PUSH1 0x2 SLOAD DUP2 PUSH1 0x20 ADD DUP2 DUP2 MSTORE POP POP PUSH1 0x1 DUP2 PUSH1 0x40 ADD SWAP1 ISZERO ISZERO SWAP1 DUP2 ISZERO ISZERO DUP2 MSTORE POP POP PUSH1 0x5 DUP2 SWAP1 DUP1 PUSH1 0x1 DUP2 SLOAD ADD DUP1 DUP3 SSTORE DUP1 SWAP2 POP POP PUSH1 0x1 SWAP1 SUB SWAP1 PUSH1 0x0 MSTORE PUSH1 0x20 PUSH1 0x0 KECCAK256 SWAP1 PUSH1 0x3 MUL ADD PUSH1 0x0 SWAP1 SWAP2 SWAP1 SWAP2 SWAP1 SWAP2 POP PUSH1 0x0 DUP3 ADD MLOAD DUP2 PUSH1 0x0 ADD SWAP1 DUP1 MLOAD SWAP1 PUSH1 0x20 ADD SWAP1 PUSH2 0x2C8 SWAP3 SWAP2 SWAP1 PUSH2 0x3F1 JUMP JUMPDEST POP PUSH1 0x20 DUP3 ADD MLOAD DUP2 PUSH1 0x1 ADD SSTORE PUSH1 0x40 DUP3 ADD MLOAD DUP2 PUSH1 0x2 ADD PUSH1 0x0 PUSH2 0x100 EXP DUP2 SLOAD DUP2 PUSH1 0xFF MUL NOT AND SWAP1 DUP4 ISZERO ISZERO MUL OR SWAP1 SSTORE POP POP POP PUSH1 0x2 SLOAD PUSH1 0x3 DUP4 PUSH1 0x40 MLOAD PUSH2 0x308 SWAP2 SWAP1 PUSH2 0x69E JUMP JUMPDEST SWAP1 DUP2 MSTORE PUSH1 0x20 ADD PUSH1 0x40 MLOAD DUP1 SWAP2 SUB SWAP1 KECCAK256 DUP2 SWAP1 SSTORE POP PUSH1 0x2 PUSH1 0x0 DUP2 SLOAD DUP1 SWAP3 SWAP2 SWAP1 PUSH2 0x32D SWAP1 PUSH2 0x8B5 JUMP JUMPDEST SWAP2 SWAP1 POP SSTORE POP POP POP JUMP JUMPDEST PUSH1 0x1 DUP1 SLOAD PUSH2 0x343 SWAP1 PUSH2 0x852 JUMP JUMPDEST DUP1 PUSH1 0x1F ADD PUSH1 0x20 DUP1 SWAP2 DIV MUL PUSH1 0x20 ADD PUSH1 0x40 MLOAD SWAP1 DUP2 ADD PUSH1 0x40 MSTORE DUP1 SWAP3 SWAP2 SWAP1 DUP2 DUP2 MSTORE PUSH1 0x20 ADD DUP3 DUP1 SLOAD PUSH2 0x36F SWAP1 PUSH2 0x852 JUMP JUMPDEST DUP1 ISZERO PUSH2 0x3BC JUMPI DUP1 PUSH1 0x1F LT PUSH2 0x391 JUMPI PUSH2 0x100 DUP1 DUP4 SLOAD DIV MUL DUP4 MSTORE SWAP2 PUSH1 0x20 ADD SWAP2 PUSH2 0x3BC JUMP JUMPDEST DUP3 ADD SWAP2 SWAP1 PUSH1 0x0 MSTORE PUSH1 0x20 PUSH1 0x0 KECCAK256 SWAP1 JUMPDEST DUP2 SLOAD DUP2 MSTORE SWAP1 PUSH1 0x1 ADD SWAP1 PUSH1 0x20 ADD DUP1 DUP4 GT PUSH2 0x39F JUMPI DUP3 SWAP1 SUB PUSH1 0x1F AND DUP3 ADD SWAP2 JUMPDEST POP POP POP POP POP DUP2 JUMP JUMPDEST PUSH1 0x2 SLOAD DUP2 JUMP JUMPDEST POP POP JUMP JUMPDEST PUSH1 0x40 MLOAD DUP1 PUSH1 0x60 ADD PUSH1 0x40 MSTORE DUP1 PUSH1 0x60 DUP2 MSTORE PUSH1 0x20 ADD PUSH1 0x0 DUP2 MSTORE PUSH1 0x20 ADD PUSH1 0x0 ISZERO ISZERO DUP2 MSTORE POP SWAP1 JUMP JUMPDEST DUP3 DUP1 SLOAD PUSH2 0x3FD SWAP1 PUSH2 0x852 JUMP JUMPDEST SWAP1 PUSH1 0x0 MSTORE PUSH1 0x20 PUSH1 0x0 KECCAK256 SWAP1 PUSH1 0x1F ADD PUSH1 0x20 SWAP1 DIV DUP2 ADD SWAP3 DUP3 PUSH2 0x41F JUMPI PUSH1 0x0 DUP6 SSTORE PUSH2 0x466 JUMP JUMPDEST DUP3 PUSH1 0x1F LT PUSH2 0x438 JUMPI DUP1 MLOAD PUSH1 0xFF NOT AND DUP4 DUP1 ADD OR DUP6 SSTORE PUSH2 0x466 JUMP JUMPDEST DUP3 DUP1 ADD PUSH1 0x1 ADD DUP6 SSTORE DUP3 ISZERO PUSH2 0x466 JUMPI SWAP2 DUP3 ADD JUMPDEST DUP3 DUP2 GT ISZERO PUSH2 0x465 JUMPI DUP3 MLOAD DUP3 SSTORE SWAP2 PUSH1 0x20 ADD SWAP2 SWAP1 PUSH1 0x1 ADD SWAP1 PUSH2 0x44A JUMP JUMPDEST JUMPDEST POP SWAP1 POP PUSH2 0x473 SWAP2 SWAP1 PUSH2 0x477 JUMP JUMPDEST POP SWAP1 JUMP JUMPDEST JUMPDEST DUP1 DUP3 GT ISZERO PUSH2 0x490 JUMPI PUSH1 0x0 DUP2 PUSH1 0x0 SWAP1 SSTORE POP PUSH1 0x1 ADD PUSH2 0x478 JUMP JUMPDEST POP SWAP1 JUMP JUMPDEST PUSH1 0x0 PUSH2 0x4A7 PUSH2 0x4A2 DUP5 PUSH2 0x770 JUMP JUMPDEST PUSH2 0x74B JUMP JUMPDEST SWAP1 POP DUP3 DUP2 MSTORE PUSH1 0x20 DUP2 ADD DUP5 DUP5 DUP5 ADD GT ISZERO PUSH2 0x4C3 JUMPI PUSH2 0x4C2 PUSH2 0x990 JUMP JUMPDEST JUMPDEST PUSH2 0x4CE DUP5 DUP3 DUP6 PUSH2 0x810 JUMP JUMPDEST POP SWAP4 SWAP3 POP POP POP JUMP JUMPDEST PUSH1 0x0 DUP3 PUSH1 0x1F DUP4 ADD SLT PUSH2 0x4EB JUMPI PUSH2 0x4EA PUSH2 0x98B JUMP JUMPDEST JUMPDEST DUP2 CALLDATALOAD PUSH2 0x4FB DUP5 DUP3 PUSH1 0x20 DUP7 ADD PUSH2 0x494 JUMP JUMPDEST SWAP2 POP POP SWAP3 SWAP2 POP POP JUMP JUMPDEST PUSH1 0x0 DUP2 CALLDATALOAD SWAP1 POP PUSH2 0x513 DUP2 PUSH2 0x9B0 JUMP JUMPDEST SWAP3 SWAP2 POP POP JUMP JUMPDEST PUSH1 0x0 PUSH1 0x20 DUP3 DUP5 SUB SLT ISZERO PUSH2 0x52F JUMPI PUSH2 0x52E PUSH2 0x99A JUMP JUMPDEST JUMPDEST PUSH1 0x0 DUP3 ADD CALLDATALOAD PUSH8 0xFFFFFFFFFFFFFFFF DUP2 GT ISZERO PUSH2 0x54D JUMPI PUSH2 0x54C PUSH2 0x995 JUMP JUMPDEST JUMPDEST PUSH2 0x559 DUP5 DUP3 DUP6 ADD PUSH2 0x4D6 JUMP JUMPDEST SWAP2 POP POP SWAP3 SWAP2 POP POP JUMP JUMPDEST PUSH1 0x0 DUP1 PUSH1 0x40 DUP4 DUP6 SUB SLT ISZERO PUSH2 0x579 JUMPI PUSH2 0x578 PUSH2 0x99A JUMP JUMPDEST JUMPDEST PUSH1 0x0 DUP4 ADD CALLDATALOAD PUSH8 0xFFFFFFFFFFFFFFFF DUP2 GT ISZERO PUSH2 0x597 JUMPI PUSH2 0x596 PUSH2 0x995 JUMP JUMPDEST JUMPDEST PUSH2 0x5A3 DUP6 DUP3 DUP7 ADD PUSH2 0x4D6 JUMP JUMPDEST SWAP3 POP POP PUSH1 0x20 DUP4 ADD CALLDATALOAD PUSH8 0xFFFFFFFFFFFFFFFF DUP2 GT ISZERO PUSH2 0x5C4 JUMPI PUSH2 0x5C3 PUSH2 0x995 JUMP JUMPDEST JUMPDEST PUSH2 0x5D0 DUP6 DUP3 DUP7 ADD PUSH2 0x4D6 JUMP JUMPDEST SWAP2 POP POP SWAP3 POP SWAP3 SWAP1 POP JUMP JUMPDEST PUSH1 0x0 PUSH1 0x20 DUP3 DUP5 SUB SLT ISZERO PUSH2 0x5F0 JUMPI PUSH2 0x5EF PUSH2 0x99A JUMP JUMPDEST JUMPDEST PUSH1 0x0 PUSH2 0x5FE DUP5 DUP3 DUP6 ADD PUSH2 0x504 JUMP JUMPDEST SWAP2 POP POP SWAP3 SWAP2 POP POP JUMP JUMPDEST PUSH2 0x610 DUP2 PUSH2 0x7C8 JUMP JUMPDEST DUP3 MSTORE POP POP JUMP JUMPDEST PUSH2 0x61F DUP2 PUSH2 0x7DA JUMP JUMPDEST DUP3 MSTORE POP POP JUMP JUMPDEST PUSH1 0x0 PUSH2 0x630 DUP3 PUSH2 0x7A1 JUMP JUMPDEST PUSH2 0x63A DUP2 DUP6 PUSH2 0x7AC JUMP JUMPDEST SWAP4 POP PUSH2 0x64A DUP2 DUP6 PUSH1 0x20 DUP7 ADD PUSH2 0x81F JUMP JUMPDEST PUSH2 0x653 DUP2 PUSH2 0x99F JUMP JUMPDEST DUP5 ADD SWAP2 POP POP SWAP3 SWAP2 POP POP JUMP JUMPDEST PUSH1 0x0 PUSH2 0x669 DUP3 PUSH2 0x7A1 JUMP JUMPDEST PUSH2 0x673 DUP2 DUP6 PUSH2 0x7BD JUMP JUMPDEST SWAP4 POP PUSH2 0x683 DUP2 DUP6 PUSH1 0x20 DUP7 ADD PUSH2 0x81F JUMP JUMPDEST DUP1 DUP5 ADD SWAP2 POP POP SWAP3 SWAP2 POP POP JUMP JUMPDEST PUSH2 0x698 DUP2 PUSH2 0x806 JUMP JUMPDEST DUP3 MSTORE POP POP JUMP JUMPDEST PUSH1 0x0 PUSH2 0x6AA DUP3 DUP5 PUSH2 0x65E JUMP JUMPDEST SWAP2 POP DUP2 SWAP1 POP SWAP3 SWAP2 POP POP JUMP JUMPDEST PUSH1 0x0 PUSH1 0x20 DUP3 ADD SWAP1 POP PUSH2 0x6CA PUSH1 0x0 DUP4 ADD DUP5 PUSH2 0x607 JUMP JUMPDEST SWAP3 SWAP2 POP POP JUMP JUMPDEST PUSH1 0x0 PUSH1 0x20 DUP3 ADD SWAP1 POP DUP2 DUP2 SUB PUSH1 0x0 DUP4 ADD MSTORE PUSH2 0x6EA DUP2 DUP5 PUSH2 0x625 JUMP JUMPDEST SWAP1 POP SWAP3 SWAP2 POP POP JUMP JUMPDEST PUSH1 0x0 PUSH1 0x60 DUP3 ADD SWAP1 POP DUP2 DUP2 SUB PUSH1 0x0 DUP4 ADD MSTORE PUSH2 0x70C DUP2 DUP7 PUSH2 0x625 JUMP JUMPDEST SWAP1 POP PUSH2 0x71B PUSH1 0x20 DUP4 ADD DUP6 PUSH2 0x68F JUMP JUMPDEST PUSH2 0x728 PUSH1 0x40 DUP4 ADD DUP5 PUSH2 0x616 JUMP JUMPDEST SWAP5 SWAP4 POP POP POP POP JUMP JUMPDEST PUSH1 0x0 PUSH1 0x20 DUP3 ADD SWAP1 POP PUSH2 0x745 PUSH1 0x0 DUP4 ADD DUP5 PUSH2 0x68F JUMP JUMPDEST SWAP3 SWAP2 POP POP JUMP JUMPDEST PUSH1 0x0 PUSH2 0x755 PUSH2 0x766 JUMP JUMPDEST SWAP1 POP PUSH2 0x761 DUP3 DUP3 PUSH2 0x884 JUMP JUMPDEST SWAP2 SWAP1 POP JUMP JUMPDEST PUSH1 0x0 PUSH1 0x40 MLOAD SWAP1 POP SWAP1 JUMP JUMPDEST PUSH1 0x0 PUSH8 0xFFFFFFFFFFFFFFFF DUP3 GT ISZERO PUSH2 0x78B JUMPI PUSH2 0x78A PUSH2 0x95C JUMP JUMPDEST JUMPDEST PUSH2 0x794 DUP3 PUSH2 0x99F JUMP JUMPDEST SWAP1 POP PUSH1 0x20 DUP2 ADD SWAP1 POP SWAP2 SWAP1 POP JUMP JUMPDEST PUSH1 0x0 DUP2 MLOAD SWAP1 POP SWAP2 SWAP1 POP JUMP JUMPDEST PUSH1 0x0 DUP3 DUP3 MSTORE PUSH1 0x20 DUP3 ADD SWAP1 POP SWAP3 SWAP2 POP POP JUMP JUMPDEST PUSH1 0x0 DUP2 SWAP1 POP SWAP3 SWAP2 POP POP JUMP JUMPDEST PUSH1 0x0 PUSH2 0x7D3 DUP3 PUSH2 0x7E6 JUMP JUMPDEST SWAP1 POP SWAP2 SWAP1 POP JUMP JUMPDEST PUSH1 0x0 DUP2 ISZERO ISZERO SWAP1 POP SWAP2 SWAP1 POP JUMP JUMPDEST PUSH1 0x0 PUSH20 0xFFFFFFFFFFFFFFFFFFFFFFFFFFFFFFFFFFFFFFFF DUP3 AND SWAP1 POP SWAP2 SWAP1 POP JUMP JUMPDEST PUSH1 0x0 DUP2 SWAP1 POP SWAP2 SWAP1 POP JUMP JUMPDEST DUP3 DUP2 DUP4 CALLDATACOPY PUSH1 0x0 DUP4 DUP4 ADD MSTORE POP POP POP JUMP JUMPDEST PUSH1 0x0 JUMPDEST DUP4 DUP2 LT ISZERO PUSH2 0x83D JUMPI DUP1 DUP3 ADD MLOAD DUP2 DUP5 ADD MSTORE PUSH1 0x20 DUP2 ADD SWAP1 POP PUSH2 0x822 JUMP JUMPDEST DUP4 DUP2 GT ISZERO PUSH2 0x84C JUMPI PUSH1 0x0 DUP5 DUP5 ADD MSTORE JUMPDEST POP POP POP POP JUMP JUMPDEST PUSH1 0x0 PUSH1 0x2 DUP3 DIV SWAP1 POP PUSH1 0x1 DUP3 AND DUP1 PUSH2 0x86A JUMPI PUSH1 0x7F DUP3 AND SWAP2 POP JUMPDEST PUSH1 0x20 DUP3 LT DUP2 EQ ISZERO PUSH2 0x87E JUMPI PUSH2 0x87D PUSH2 0x92D JUMP JUMPDEST JUMPDEST POP SWAP2 SWAP1 POP JUMP JUMPDEST PUSH2 0x88D DUP3 PUSH2 0x99F JUMP JUMPDEST DUP2 ADD DUP2 DUP2 LT PUSH8 0xFFFFFFFFFFFFFFFF DUP3 GT OR ISZERO PUSH2 0x8AC JUMPI PUSH2 0x8AB PUSH2 0x95C JUMP JUMPDEST JUMPDEST DUP1 PUSH1 0x40 MSTORE POP POP POP JUMP JUMPDEST PUSH1 0x0 PUSH2 0x8C0 DUP3 PUSH2 0x806 JUMP JUMPDEST SWAP2 POP PUSH32 0xFFFFFFFFFFFFFFFFFFFFFFFFFFFFFFFFFFFFFFFFFFFFFFFFFFFFFFFFFFFFFFFF DUP3 EQ ISZERO PUSH2 0x8F3 JUMPI PUSH2 0x8F2 PUSH2 0x8FE JUMP JUMPDEST JUMPDEST PUSH1 0x1 DUP3 ADD SWAP1 POP SWAP2 SWAP1 POP JUMP JUMPDEST PUSH32 0x4E487B7100000000000000000000000000000000000000000000000000000000 PUSH1 0x0 MSTORE PUSH1 0x11 PUSH1 0x4 MSTORE PUSH1 0x24 PUSH1 0x0 REVERT JUMPDEST PUSH32 0x4E487B7100000000000000000000000000000000000000000000000000000000 PUSH1 0x0 MSTORE PUSH1 0x22 PUSH1 0x4 MSTORE PUSH1 0x24 PUSH1 0x0 REVERT JUMPDEST PUSH32 0x4E487B7100000000000000000000000000000000000000000000000000000000 PUSH1 0x0 MSTORE PUSH1 0x41 PUSH1 0x4 MSTORE PUSH1 0x24 PUSH1 0x0 REVERT JUMPDEST PUSH1 0x0 DUP1 REVERT JUMPDEST PUSH1 0x0 DUP1 REVERT JUMPDEST PUSH1 0x0 DUP1 REVERT JUMPDEST PUSH1 0x0 DUP1 REVERT JUMPDEST PUSH1 0x0 PUSH1 0x1F NOT PUSH1 0x1F DUP4 ADD AND SWAP1 POP SWAP2 SWAP1 POP JUMP JUMPDEST PUSH2 0x9B9 DUP2 PUSH2 0x806 JUMP JUMPDEST DUP2 EQ PUSH2 0x9C4 JUMPI PUSH1 0x0 DUP1 REVERT JUMPDEST POP JUMP INVALID LOG2 PUSH5 0x6970667358 0x22 SLT KECCAK256 LOG2 TIMESTAMP 0xF MOD SSTORE PUSH24 0x529AE8549E28361C0799B507644BAC2F5FC14F0A58C8E8AA SWAP2 JUMPDEST PUSH5 0x736F6C6343 STOP ADDMOD SMOD STOP CALLER "
				},
				"gasEstimates": {
					"creation": {
						"codeDepositCost": "511400",
						"executionCost": "infinite",
						"totalCost": "infinite"
					},
					"external": {
						"chairperson()": "2489",
						"createOneSuggestion(string)": "infinite",
						"suggestionNo()": "2495",
						"suggestions(uint256)": "infinite",
						"test(string,string)": "infinite",
						"unionName()": "infinite"
					}
				},
				"methodIdentifiers": {
					"chairperson()": "2e4176cf",
					"createOneSuggestion(string)": "43ef7e85",
					"suggestionNo()": "64b9fb89",
					"suggestions(uint256)": "302a2a46",
					"test(string,string)": "bab86ea8",
					"unionName()": "4f5cbc1a"
				}
			},
			"storageLayout": {
				"storage": [
					{
						"astId": 3,
						"contract": "smartContract/contracts/Union.sol:Union",
						"label": "chairperson",
						"offset": 0,
						"slot": "0",
						"type": "t_address"
					},
					{
						"astId": 5,
						"contract": "smartContract/contracts/Union.sol:Union",
						"label": "unionName",
						"offset": 0,
						"slot": "1",
						"type": "t_string_storage"
					},
					{
						"astId": 7,
						"contract": "smartContract/contracts/Union.sol:Union",
						"label": "suggestionNo",
						"offset": 0,
						"slot": "2",
						"type": "t_uint256"
					},
					{
						"astId": 11,
						"contract": "smartContract/contracts/Union.sol:Union",
						"label": "findSuggestionNo",
						"offset": 0,
						"slot": "3",
						"type": "t_mapping(t_string_memory_ptr,t_uint256)"
					},
					{
						"astId": 16,
						"contract": "smartContract/contracts/Union.sol:Union",
						"label": "voters",
						"offset": 0,
						"slot": "4",
						"type": "t_mapping(t_string_memory_ptr,t_struct(Voter)31_storage)"
					},
					{
						"astId": 20,
						"contract": "smartContract/contracts/Union.sol:Union",
						"label": "suggestions",
						"offset": 0,
						"slot": "5",
						"type": "t_array(t_struct(Suggestion)38_storage)dyn_storage"
					}
				],
				"types": {
					"t_address": {
						"encoding": "inplace",
						"label": "address",
						"numberOfBytes": "20"
					},
					"t_array(t_struct(Suggestion)38_storage)dyn_storage": {
						"base": "t_struct(Suggestion)38_storage",
						"encoding": "dynamic_array",
						"label": "struct Union.Suggestion[]",
						"numberOfBytes": "32"
					},
					"t_bool": {
						"encoding": "inplace",
						"label": "bool",
						"numberOfBytes": "1"
					},
					"t_mapping(t_string_memory_ptr,t_struct(Voter)31_storage)": {
						"encoding": "mapping",
						"key": "t_string_memory_ptr",
						"label": "mapping(string => struct Union.Voter)",
						"numberOfBytes": "32",
						"value": "t_struct(Voter)31_storage"
					},
					"t_mapping(t_string_memory_ptr,t_uint256)": {
						"encoding": "mapping",
						"key": "t_string_memory_ptr",
						"label": "mapping(string => uint256)",
						"numberOfBytes": "32",
						"value": "t_uint256"
					},
					"t_string_memory_ptr": {
						"encoding": "bytes",
						"label": "string",
						"numberOfBytes": "32"
					},
					"t_string_storage": {
						"encoding": "bytes",
						"label": "string",
						"numberOfBytes": "32"
					},
					"t_struct(Suggestion)38_storage": {
						"encoding": "inplace",
						"label": "struct Union.Suggestion",
						"members": [
							{
								"astId": 33,
								"contract": "smartContract/contracts/Union.sol:Union",
								"label": "subject",
								"offset": 0,
								"slot": "0",
								"type": "t_string_storage"
							},
							{
								"astId": 35,
								"contract": "smartContract/contracts/Union.sol:Union",
								"label": "suggestionNo",
								"offset": 0,
								"slot": "1",
								"type": "t_uint256"
							},
							{
								"astId": 37,
								"contract": "smartContract/contracts/Union.sol:Union",
								"label": "status",
								"offset": 0,
								"slot": "2",
								"type": "t_bool"
							}
						],
						"numberOfBytes": "96"
					},
					"t_struct(Voter)31_storage": {
						"encoding": "inplace",
						"label": "struct Union.Voter",
						"members": [
							{
								"astId": 22,
								"contract": "smartContract/contracts/Union.sol:Union",
								"label": "suggestion",
								"offset": 0,
								"slot": "0",
								"type": "t_string_storage"
							},
							{
								"astId": 24,
								"contract": "smartContract/contracts/Union.sol:Union",
								"label": "addr",
								"offset": 0,
								"slot": "1",
								"type": "t_address"
							},
							{
								"astId": 26,
								"contract": "smartContract/contracts/Union.sol:Union",
								"label": "asset",
								"offset": 0,
								"slot": "2",
								"type": "t_uint256"
							},
							{
								"astId": 28,
								"contract": "smartContract/contracts/Union.sol:Union",
								"label": "voted",
								"offset": 0,
								"slot": "3",
								"type": "t_bool"
							},
							{
								"astId": 30,
								"contract": "smartContract/contracts/Union.sol:Union",
								"label": "answer",
								"offset": 0,
								"slot": "4",
								"type": "t_string_storage"
							}
						],
						"numberOfBytes": "160"
					},
					"t_uint256": {
						"encoding": "inplace",
						"label": "uint256",
						"numberOfBytes": "32"
					}
				}
			},
			"userdoc": {
				"kind": "user",
				"methods": {},
				"version": 1
			}
		}
	}
}