{
	"smartContract/contracts/Test.sol": {
		"Vote": {
			"abi": [
				{
					"anonymous": false,
					"inputs": [
						{
							"indexed": true,
							"internalType": "uint256",
							"name": "proposalIndex",
							"type": "uint256"
						},
						{
							"indexed": true,
							"internalType": "address",
							"name": "chairperson",
							"type": "address"
						}
					],
					"name": "showProposal",
					"type": "event"
				},
				{
					"anonymous": false,
					"inputs": [
						{
							"indexed": true,
							"internalType": "address",
							"name": "voter",
							"type": "address"
						},
						{
							"indexed": true,
							"internalType": "uint256",
							"name": "proposalIndex",
							"type": "uint256"
						},
						{
							"indexed": false,
							"internalType": "string",
							"name": "answer",
							"type": "string"
						}
					],
					"name": "voteReceipt",
					"type": "event"
				},
				{
					"inputs": [],
					"name": "chairperson",
					"outputs": [
						{
							"internalType": "address",
							"name": "",
							"type": "address"
						}
					],
					"stateMutability": "view",
					"type": "function"
				},
				{
					"inputs": [
						{
							"internalType": "bytes32",
							"name": "unionId",
							"type": "bytes32"
						}
					],
					"name": "createProposal",
					"outputs": [],
					"stateMutability": "nonpayable",
					"type": "function"
				},
				{
					"inputs": [],
					"name": "proposalLen",
					"outputs": [
						{
							"internalType": "uint256",
							"name": "",
							"type": "uint256"
						}
					],
					"stateMutability": "view",
					"type": "function"
				},
				{
					"inputs": [
						{
							"internalType": "uint256",
							"name": "proposalIndex",
							"type": "uint256"
						}
					],
					"name": "totalProposal",
					"outputs": [
						{
							"components": [
								{
									"internalType": "address",
									"name": "chairperson",
									"type": "address"
								},
								{
									"internalType": "bytes32",
									"name": "UnionId",
									"type": "bytes32"
								},
								{
									"components": [
										{
											"internalType": "bytes32",
											"name": "unionId",
											"type": "bytes32"
										},
										{
											"internalType": "address",
											"name": "addr",
											"type": "address"
										},
										{
											"internalType": "uint256",
											"name": "asset",
											"type": "uint256"
										},
										{
											"internalType": "bool",
											"name": "voted",
											"type": "bool"
										},
										{
											"internalType": "string",
											"name": "answer",
											"type": "string"
										}
									],
									"internalType": "struct Vote.Voter[]",
									"name": "Voters",
									"type": "tuple[]"
								},
								{
									"internalType": "bool",
									"name": "open",
									"type": "bool"
								},
								{
									"internalType": "uint256",
									"name": "index",
									"type": "uint256"
								}
							],
							"internalType": "struct Vote.Proposal",
							"name": "",
							"type": "tuple"
						}
					],
					"stateMutability": "view",
					"type": "function"
				},
				{
					"inputs": [
						{
							"internalType": "uint256",
							"name": "proposalIndex",
							"type": "uint256"
						}
					],
					"name": "totalVoteOutput",
					"outputs": [
						{
							"components": [
								{
									"internalType": "bytes32",
									"name": "unionId",
									"type": "bytes32"
								},
								{
									"internalType": "address",
									"name": "addr",
									"type": "address"
								},
								{
									"internalType": "uint256",
									"name": "asset",
									"type": "uint256"
								},
								{
									"internalType": "bool",
									"name": "voted",
									"type": "bool"
								},
								{
									"internalType": "string",
									"name": "answer",
									"type": "string"
								}
							],
							"internalType": "struct Vote.Voter[]",
							"name": "",
							"type": "tuple[]"
						}
					],
					"stateMutability": "view",
					"type": "function"
				},
				{
					"inputs": [
						{
							"internalType": "uint256",
							"name": "proposalIndex",
							"type": "uint256"
						},
						{
							"internalType": "string",
							"name": "answer",
							"type": "string"
						}
					],
					"name": "vote",
					"outputs": [],
					"stateMutability": "payable",
					"type": "function"
				}
			],
			"devdoc": {
				"kind": "dev",
				"methods": {},
				"version": 1
			},
			"evm": {
				"assembly": "    /* \"smartContract/contracts/Test.sol\":68:2874  contract Vote{... */\n  mstore(0x40, 0x80)\n    /* \"smartContract/contracts/Test.sol\":187:188  0 */\n  0x00\n    /* \"smartContract/contracts/Test.sol\":161:188  uint public proposalLen = 0 */\n  0x01\n  sstore\n    /* \"smartContract/contracts/Test.sol\":68:2874  contract Vote{... */\n  callvalue\n  dup1\n  iszero\n  tag_1\n  jumpi\n  0x00\n  dup1\n  revert\ntag_1:\n  pop\n  dataSize(sub_0)\n  dup1\n  dataOffset(sub_0)\n  0x00\n  codecopy\n  0x00\n  return\nstop\n\nsub_0: assembly {\n        /* \"smartContract/contracts/Test.sol\":68:2874  contract Vote{... */\n      mstore(0x40, 0x80)\n      jumpi(tag_1, lt(calldatasize, 0x04))\n      shr(0xe0, calldataload(0x00))\n      dup1\n      0x0e49e058\n      eq\n      tag_2\n      jumpi\n      dup1\n      0x24108475\n      eq\n      tag_3\n      jumpi\n      dup1\n      0x2542bf06\n      eq\n      tag_4\n      jumpi\n      dup1\n      0x2e4176cf\n      eq\n      tag_5\n      jumpi\n      dup1\n      0x68c72018\n      eq\n      tag_6\n      jumpi\n      dup1\n      0x76e9d620\n      eq\n      tag_7\n      jumpi\n    tag_1:\n      0x00\n      dup1\n      revert\n        /* \"smartContract/contracts/Test.sol\":2555:2732  function totalVoteOutput(uint proposalIndex) external view returns(Voter[] memory){... */\n    tag_2:\n      callvalue\n      dup1\n      iszero\n      tag_8\n      jumpi\n      0x00\n      dup1\n      revert\n    tag_8:\n      pop\n      tag_9\n      0x04\n      dup1\n      calldatasize\n      sub\n      dup2\n      add\n      swap1\n      tag_10\n      swap2\n      swap1\n      tag_11\n      jump\t// in\n    tag_10:\n      tag_12\n      jump\t// in\n    tag_9:\n      mload(0x40)\n      tag_13\n      swap2\n      swap1\n      tag_14\n      jump\t// in\n    tag_13:\n      mload(0x40)\n      dup1\n      swap2\n      sub\n      swap1\n      return\n        /* \"smartContract/contracts/Test.sol\":1841:2501  function vote (uint proposalIndex,string memory answer) public payable valid(msg.sender,proposalIndex) {... */\n    tag_3:\n      tag_15\n      0x04\n      dup1\n      calldatasize\n      sub\n      dup2\n      add\n      swap1\n      tag_16\n      swap2\n      swap1\n      tag_17\n      jump\t// in\n    tag_16:\n      tag_18\n      jump\t// in\n    tag_15:\n      stop\n        /* \"smartContract/contracts/Test.sol\":1132:1462  function createProposal (bytes32 unionId) external{... */\n    tag_4:\n      callvalue\n      dup1\n      iszero\n      tag_19\n      jumpi\n      0x00\n      dup1\n      revert\n    tag_19:\n      pop\n      tag_20\n      0x04\n      dup1\n      calldatasize\n      sub\n      dup2\n      add\n      swap1\n      tag_21\n      swap2\n      swap1\n      tag_22\n      jump\t// in\n    tag_21:\n      tag_23\n      jump\t// in\n    tag_20:\n      stop\n        /* \"smartContract/contracts/Test.sol\":114:140  address public chairperson */\n    tag_5:\n      callvalue\n      dup1\n      iszero\n      tag_24\n      jumpi\n      0x00\n      dup1\n      revert\n    tag_24:\n      pop\n      tag_25\n      tag_26\n      jump\t// in\n    tag_25:\n      mload(0x40)\n      tag_27\n      swap2\n      swap1\n      tag_28\n      jump\t// in\n    tag_27:\n      mload(0x40)\n      dup1\n      swap2\n      sub\n      swap1\n      return\n        /* \"smartContract/contracts/Test.sol\":161:188  uint public proposalLen = 0 */\n    tag_6:\n      callvalue\n      dup1\n      iszero\n      tag_29\n      jumpi\n      0x00\n      dup1\n      revert\n    tag_29:\n      pop\n      tag_30\n      tag_31\n      jump\t// in\n    tag_30:\n      mload(0x40)\n      tag_32\n      swap2\n      swap1\n      tag_33\n      jump\t// in\n    tag_32:\n      mload(0x40)\n      dup1\n      swap2\n      sub\n      swap1\n      return\n        /* \"smartContract/contracts/Test.sol\":2738:2871  function totalProposal(uint proposalIndex) external view returns(Proposal memory ){... */\n    tag_7:\n      callvalue\n      dup1\n      iszero\n      tag_34\n      jumpi\n      0x00\n      dup1\n      revert\n    tag_34:\n      pop\n      tag_35\n      0x04\n      dup1\n      calldatasize\n      sub\n      dup2\n      add\n      swap1\n      tag_36\n      swap2\n      swap1\n      tag_11\n      jump\t// in\n    tag_36:\n      tag_37\n      jump\t// in\n    tag_35:\n      mload(0x40)\n      tag_38\n      swap2\n      swap1\n      tag_39\n      jump\t// in\n    tag_38:\n      mload(0x40)\n      dup1\n      swap2\n      sub\n      swap1\n      return\n        /* \"smartContract/contracts/Test.sol\":2555:2732  function totalVoteOutput(uint proposalIndex) external view returns(Voter[] memory){... */\n    tag_12:\n        /* \"smartContract/contracts/Test.sol\":2622:2636  Voter[] memory */\n      0x60\n        /* \"smartContract/contracts/Test.sol\":2647:2668  Voter[] memory result */\n      0x00\n        /* \"smartContract/contracts/Test.sol\":2672:2681  Proposals */\n      0x02\n        /* \"smartContract/contracts/Test.sol\":2672:2696  Proposals[proposalIndex] */\n      0x00\n        /* \"smartContract/contracts/Test.sol\":2682:2695  proposalIndex */\n      dup5\n        /* \"smartContract/contracts/Test.sol\":2672:2696  Proposals[proposalIndex] */\n      dup2\n      mstore\n      0x20\n      add\n      swap1\n      dup2\n      mstore\n      0x20\n      add\n      0x00\n      keccak256\n        /* \"smartContract/contracts/Test.sol\":2672:2703  Proposals[proposalIndex].Voters */\n      0x02\n      add\n        /* \"smartContract/contracts/Test.sol\":2647:2703  Voter[] memory result =  Proposals[proposalIndex].Voters */\n      dup1\n      sload\n      dup1\n      0x20\n      mul\n      0x20\n      add\n      mload(0x40)\n      swap1\n      dup2\n      add\n      0x40\n      mstore\n      dup1\n      swap3\n      swap2\n      swap1\n      dup2\n      dup2\n      mstore\n      0x20\n      add\n      0x00\n      swap1\n    tag_41:\n      dup3\n      dup3\n      lt\n      iszero\n      tag_42\n      jumpi\n      dup4\n      dup3\n      swap1\n      0x00\n      mstore\n      keccak256(0x00, 0x20)\n      swap1\n      0x05\n      mul\n      add\n      mload(0x40)\n      dup1\n      0xa0\n      add\n      0x40\n      mstore\n      swap1\n      dup2\n      0x00\n      dup3\n      add\n      sload\n      dup2\n      mstore\n      0x20\n      add\n      0x01\n      dup3\n      add\n      0x00\n      swap1\n      sload\n      swap1\n      0x0100\n      exp\n      swap1\n      div\n      0xffffffffffffffffffffffffffffffffffffffff\n      and\n      0xffffffffffffffffffffffffffffffffffffffff\n      and\n      0xffffffffffffffffffffffffffffffffffffffff\n      and\n      dup2\n      mstore\n      0x20\n      add\n      0x02\n      dup3\n      add\n      sload\n      dup2\n      mstore\n      0x20\n      add\n      0x03\n      dup3\n      add\n      0x00\n      swap1\n      sload\n      swap1\n      0x0100\n      exp\n      swap1\n      div\n      0xff\n      and\n      iszero\n      iszero\n      iszero\n      iszero\n      dup2\n      mstore\n      0x20\n      add\n      0x04\n      dup3\n      add\n      dup1\n      sload\n      tag_44\n      swap1\n      tag_45\n      jump\t// in\n    tag_44:\n      dup1\n      0x1f\n      add\n      0x20\n      dup1\n      swap2\n      div\n      mul\n      0x20\n      add\n      mload(0x40)\n      swap1\n      dup2\n      add\n      0x40\n      mstore\n      dup1\n      swap3\n      swap2\n      swap1\n      dup2\n      dup2\n      mstore\n      0x20\n      add\n      dup3\n      dup1\n      sload\n      tag_46\n      swap1\n      tag_45\n      jump\t// in\n    tag_46:\n      dup1\n      iszero\n      tag_47\n      jumpi\n      dup1\n      0x1f\n      lt\n      tag_48\n      jumpi\n      0x0100\n      dup1\n      dup4\n      sload\n      div\n      mul\n      dup4\n      mstore\n      swap2\n      0x20\n      add\n      swap2\n      jump(tag_47)\n    tag_48:\n      dup3\n      add\n      swap2\n      swap1\n      0x00\n      mstore\n      keccak256(0x00, 0x20)\n      swap1\n    tag_49:\n      dup2\n      sload\n      dup2\n      mstore\n      swap1\n      0x01\n      add\n      swap1\n      0x20\n      add\n      dup1\n      dup4\n      gt\n      tag_49\n      jumpi\n      dup3\n      swap1\n      sub\n      0x1f\n      and\n      dup3\n      add\n      swap2\n    tag_47:\n      pop\n      pop\n      pop\n      pop\n      pop\n      dup2\n      mstore\n      pop\n      pop\n      dup2\n      mstore\n      0x20\n      add\n      swap1\n      0x01\n      add\n      swap1\n      jump(tag_41)\n    tag_42:\n      pop\n      pop\n      pop\n      pop\n      swap1\n      pop\n        /* \"smartContract/contracts/Test.sol\":2719:2725  result */\n      dup1\n        /* \"smartContract/contracts/Test.sol\":2711:2725  return  result */\n      swap2\n      pop\n      pop\n        /* \"smartContract/contracts/Test.sol\":2555:2732  function totalVoteOutput(uint proposalIndex) external view returns(Voter[] memory){... */\n      swap2\n      swap1\n      pop\n      jump\t// out\n        /* \"smartContract/contracts/Test.sol\":1841:2501  function vote (uint proposalIndex,string memory answer) public payable valid(msg.sender,proposalIndex) {... */\n    tag_18:\n        /* \"smartContract/contracts/Test.sol\":1918:1928  msg.sender */\n      caller\n        /* \"smartContract/contracts/Test.sol\":1929:1942  proposalIndex */\n      dup3\n        /* \"smartContract/contracts/Test.sol\":1657:1662  false */\n      0x00\n        /* \"smartContract/contracts/Test.sol\":1619:1662  Voters[voter][proposalIndex].voted == false */\n      iszero\n      iszero\n        /* \"smartContract/contracts/Test.sol\":1619:1625  Voters */\n      0x03\n        /* \"smartContract/contracts/Test.sol\":1619:1632  Voters[voter] */\n      0x00\n        /* \"smartContract/contracts/Test.sol\":1626:1631  voter */\n      dup5\n        /* \"smartContract/contracts/Test.sol\":1619:1632  Voters[voter] */\n      0xffffffffffffffffffffffffffffffffffffffff\n      and\n      0xffffffffffffffffffffffffffffffffffffffff\n      and\n      dup2\n      mstore\n      0x20\n      add\n      swap1\n      dup2\n      mstore\n      0x20\n      add\n      0x00\n      keccak256\n        /* \"smartContract/contracts/Test.sol\":1619:1647  Voters[voter][proposalIndex] */\n      0x00\n        /* \"smartContract/contracts/Test.sol\":1633:1646  proposalIndex */\n      dup4\n        /* \"smartContract/contracts/Test.sol\":1619:1647  Voters[voter][proposalIndex] */\n      dup2\n      mstore\n      0x20\n      add\n      swap1\n      dup2\n      mstore\n      0x20\n      add\n      0x00\n      keccak256\n        /* \"smartContract/contracts/Test.sol\":1619:1653  Voters[voter][proposalIndex].voted */\n      0x03\n      add\n      0x00\n      swap1\n      sload\n      swap1\n      0x0100\n      exp\n      swap1\n      div\n      0xff\n      and\n        /* \"smartContract/contracts/Test.sol\":1619:1662  Voters[voter][proposalIndex].voted == false */\n      iszero\n      iszero\n      eq\n        /* \"smartContract/contracts/Test.sol\":1611:1686  require(Voters[voter][proposalIndex].voted == false, \"voter already voted\") */\n      tag_51\n      jumpi\n      mload(0x40)\n      0x08c379a000000000000000000000000000000000000000000000000000000000\n      dup2\n      mstore\n      0x04\n      add\n      tag_52\n      swap1\n      tag_53\n      jump\t// in\n    tag_52:\n      mload(0x40)\n      dup1\n      swap2\n      sub\n      swap1\n      revert\n    tag_51:\n        /* \"smartContract/contracts/Test.sol\":1720:1729  Proposals */\n      0x02\n        /* \"smartContract/contracts/Test.sol\":1720:1745  Proposals[ proposalIndex] */\n      0x00\n        /* \"smartContract/contracts/Test.sol\":1731:1744  proposalIndex */\n      dup3\n        /* \"smartContract/contracts/Test.sol\":1720:1745  Proposals[ proposalIndex] */\n      dup2\n      mstore\n      0x20\n      add\n      swap1\n      dup2\n      mstore\n      0x20\n      add\n      0x00\n      keccak256\n        /* \"smartContract/contracts/Test.sol\":1720:1757  Proposals[ proposalIndex].chairperson */\n      0x00\n      add\n      0x00\n      swap1\n      sload\n      swap1\n      0x0100\n      exp\n      swap1\n      div\n      0xffffffffffffffffffffffffffffffffffffffff\n      and\n        /* \"smartContract/contracts/Test.sol\":1705:1757  msg.sender !=  Proposals[ proposalIndex].chairperson */\n      0xffffffffffffffffffffffffffffffffffffffff\n      and\n        /* \"smartContract/contracts/Test.sol\":1705:1715  msg.sender */\n      caller\n        /* \"smartContract/contracts/Test.sol\":1705:1757  msg.sender !=  Proposals[ proposalIndex].chairperson */\n      0xffffffffffffffffffffffffffffffffffffffff\n      and\n      eq\n      iszero\n        /* \"smartContract/contracts/Test.sol\":1697:1787  require(msg.sender !=  Proposals[ proposalIndex].chairperson,\"chairperson is not alrigth\") */\n      tag_54\n      jumpi\n      mload(0x40)\n      0x08c379a000000000000000000000000000000000000000000000000000000000\n      dup2\n      mstore\n      0x04\n      add\n      tag_55\n      swap1\n      tag_56\n      jump\t// in\n    tag_55:\n      mload(0x40)\n      dup1\n      swap2\n      sub\n      swap1\n      revert\n    tag_54:\n        /* \"smartContract/contracts/Test.sol\":1992:1996  true */\n      0x01\n        /* \"smartContract/contracts/Test.sol\":1959:1996  Proposals[proposalIndex].open == true */\n      iszero\n      iszero\n        /* \"smartContract/contracts/Test.sol\":1959:1968  Proposals */\n      0x02\n        /* \"smartContract/contracts/Test.sol\":1959:1983  Proposals[proposalIndex] */\n      0x00\n        /* \"smartContract/contracts/Test.sol\":1969:1982  proposalIndex */\n      dup7\n        /* \"smartContract/contracts/Test.sol\":1959:1983  Proposals[proposalIndex] */\n      dup2\n      mstore\n      0x20\n      add\n      swap1\n      dup2\n      mstore\n      0x20\n      add\n      0x00\n      keccak256\n        /* \"smartContract/contracts/Test.sol\":1959:1988  Proposals[proposalIndex].open */\n      0x03\n      add\n      0x00\n      swap1\n      sload\n      swap1\n      0x0100\n      exp\n      swap1\n      div\n      0xff\n      and\n        /* \"smartContract/contracts/Test.sol\":1959:1996  Proposals[proposalIndex].open == true */\n      iszero\n      iszero\n      eq\n        /* \"smartContract/contracts/Test.sol\":1951:2024  require(Proposals[proposalIndex].open == true, \"current proposal closed\") */\n      tag_58\n      jumpi\n      mload(0x40)\n      0x08c379a000000000000000000000000000000000000000000000000000000000\n      dup2\n      mstore\n      0x04\n      add\n      tag_59\n      swap1\n      tag_60\n      jump\t// in\n    tag_59:\n      mload(0x40)\n      dup1\n      swap2\n      sub\n      swap1\n      revert\n    tag_58:\n        /* \"smartContract/contracts/Test.sol\":2051:2055  1e18 */\n      0x0de0b6b3a7640000\n        /* \"smartContract/contracts/Test.sol\":2039:2048  msg.value */\n      callvalue\n        /* \"smartContract/contracts/Test.sol\":2039:2055  msg.value < 1e18 */\n      lt\n        /* \"smartContract/contracts/Test.sol\":2031:2083  require(msg.value < 1e18,\"more than send the token\") */\n      tag_61\n      jumpi\n      mload(0x40)\n      0x08c379a000000000000000000000000000000000000000000000000000000000\n      dup2\n      mstore\n      0x04\n      add\n      tag_62\n      swap1\n      tag_63\n      jump\t// in\n    tag_62:\n      mload(0x40)\n      dup1\n      swap2\n      sub\n      swap1\n      revert\n    tag_61:\n        /* \"smartContract/contracts/Test.sol\":2092:2110  Voter memory voter */\n      0x00\n        /* \"smartContract/contracts/Test.sol\":2113:2287  Voter({... */\n      mload(0x40)\n      dup1\n      0xa0\n      add\n      0x40\n      mstore\n      dup1\n        /* \"smartContract/contracts/Test.sol\":2242:2251  Proposals */\n      0x02\n        /* \"smartContract/contracts/Test.sol\":2242:2266  Proposals[proposalIndex] */\n      0x00\n        /* \"smartContract/contracts/Test.sol\":2252:2265  proposalIndex */\n      dup9\n        /* \"smartContract/contracts/Test.sol\":2242:2266  Proposals[proposalIndex] */\n      dup2\n      mstore\n      0x20\n      add\n      swap1\n      dup2\n      mstore\n      0x20\n      add\n      0x00\n      keccak256\n        /* \"smartContract/contracts/Test.sol\":2242:2274  Proposals[proposalIndex].UnionId */\n      0x01\n      add\n      sload\n        /* \"smartContract/contracts/Test.sol\":2113:2287  Voter({... */\n      dup2\n      mstore\n      0x20\n      add\n        /* \"smartContract/contracts/Test.sol\":2136:2146  msg.sender */\n      caller\n        /* \"smartContract/contracts/Test.sol\":2113:2287  Voter({... */\n      0xffffffffffffffffffffffffffffffffffffffff\n      and\n      dup2\n      mstore\n      0x20\n      add\n        /* \"smartContract/contracts/Test.sol\":2164:2173  msg.value */\n      callvalue\n        /* \"smartContract/contracts/Test.sol\":2113:2287  Voter({... */\n      dup2\n      mstore\n      0x20\n      add\n        /* \"smartContract/contracts/Test.sol\":2191:2195  true */\n      0x01\n        /* \"smartContract/contracts/Test.sol\":2113:2287  Voter({... */\n      iszero\n      iszero\n      dup2\n      mstore\n      0x20\n      add\n        /* \"smartContract/contracts/Test.sol\":2214:2220  answer */\n      dup6\n        /* \"smartContract/contracts/Test.sol\":2113:2287  Voter({... */\n      dup2\n      mstore\n      pop\n        /* \"smartContract/contracts/Test.sol\":2092:2287  Voter memory voter = Voter({... */\n      swap1\n      pop\n        /* \"smartContract/contracts/Test.sol\":2338:2347  Proposals */\n      0x02\n        /* \"smartContract/contracts/Test.sol\":2338:2362  Proposals[proposalIndex] */\n      0x00\n        /* \"smartContract/contracts/Test.sol\":2348:2361  proposalIndex */\n      dup7\n        /* \"smartContract/contracts/Test.sol\":2338:2362  Proposals[proposalIndex] */\n      dup2\n      mstore\n      0x20\n      add\n      swap1\n      dup2\n      mstore\n      0x20\n      add\n      0x00\n      keccak256\n        /* \"smartContract/contracts/Test.sol\":2338:2369  Proposals[proposalIndex].Voters */\n      0x02\n      add\n        /* \"smartContract/contracts/Test.sol\":2375:2380  voter */\n      dup2\n        /* \"smartContract/contracts/Test.sol\":2338:2381  Proposals[proposalIndex].Voters.push(voter) */\n      swap1\n      dup1\n      0x01\n      dup2\n      sload\n      add\n      dup1\n      dup3\n      sstore\n      dup1\n      swap2\n      pop\n      pop\n      0x01\n      swap1\n      sub\n      swap1\n      0x00\n      mstore\n      keccak256(0x00, 0x20)\n      swap1\n      0x05\n      mul\n      add\n      0x00\n      swap1\n      swap2\n      swap1\n      swap2\n      swap1\n      swap2\n      pop\n      0x00\n      dup3\n      add\n      mload\n      dup2\n      0x00\n      add\n      sstore\n      0x20\n      dup3\n      add\n      mload\n      dup2\n      0x01\n      add\n      exp(0x0100, 0x00)\n      dup2\n      sload\n      dup2\n      0xffffffffffffffffffffffffffffffffffffffff\n      mul\n      not\n      and\n      swap1\n      dup4\n      0xffffffffffffffffffffffffffffffffffffffff\n      and\n      mul\n      or\n      swap1\n      sstore\n      pop\n      0x40\n      dup3\n      add\n      mload\n      dup2\n      0x02\n      add\n      sstore\n      0x60\n      dup3\n      add\n      mload\n      dup2\n      0x03\n      add\n      exp(0x0100, 0x00)\n      dup2\n      sload\n      dup2\n      0xff\n      mul\n      not\n      and\n      swap1\n      dup4\n      iszero\n      iszero\n      mul\n      or\n      swap1\n      sstore\n      pop\n      0x80\n      dup3\n      add\n      mload\n      dup2\n      0x04\n      add\n      swap1\n      dup1\n      mload\n      swap1\n      0x20\n      add\n      swap1\n      tag_65\n      swap3\n      swap2\n      swap1\n      tag_66\n      jump\t// in\n    tag_65:\n      pop\n      pop\n      pop\n        /* \"smartContract/contracts/Test.sol\":2431:2435  true */\n      0x01\n        /* \"smartContract/contracts/Test.sol\":2389:2395  Voters */\n      0x03\n        /* \"smartContract/contracts/Test.sol\":2389:2407  Voters[msg.sender] */\n      0x00\n        /* \"smartContract/contracts/Test.sol\":2396:2406  msg.sender */\n      caller\n        /* \"smartContract/contracts/Test.sol\":2389:2407  Voters[msg.sender] */\n      0xffffffffffffffffffffffffffffffffffffffff\n      and\n      0xffffffffffffffffffffffffffffffffffffffff\n      and\n      dup2\n      mstore\n      0x20\n      add\n      swap1\n      dup2\n      mstore\n      0x20\n      add\n      0x00\n      keccak256\n        /* \"smartContract/contracts/Test.sol\":2389:2422  Voters[msg.sender][proposalIndex] */\n      0x00\n        /* \"smartContract/contracts/Test.sol\":2408:2421  proposalIndex */\n      dup8\n        /* \"smartContract/contracts/Test.sol\":2389:2422  Voters[msg.sender][proposalIndex] */\n      dup2\n      mstore\n      0x20\n      add\n      swap1\n      dup2\n      mstore\n      0x20\n      add\n      0x00\n      keccak256\n        /* \"smartContract/contracts/Test.sol\":2389:2428  Voters[msg.sender][proposalIndex].voted */\n      0x03\n      add\n      0x00\n        /* \"smartContract/contracts/Test.sol\":2389:2435  Voters[msg.sender][proposalIndex].voted = true */\n      0x0100\n      exp\n      dup2\n      sload\n      dup2\n      0xff\n      mul\n      not\n      and\n      swap1\n      dup4\n      iszero\n      iszero\n      mul\n      or\n      swap1\n      sstore\n      pop\n        /* \"smartContract/contracts/Test.sol\":2472:2485  proposalIndex */\n      dup5\n        /* \"smartContract/contracts/Test.sol\":2460:2470  msg.sender */\n      caller\n        /* \"smartContract/contracts/Test.sol\":2448:2494  voteReceipt(msg.sender, proposalIndex, answer) */\n      0xffffffffffffffffffffffffffffffffffffffff\n      and\n      0xf55ffe9f3fbadbb017ad72a5d765218aa1b250b1ac67285e8916bc5ad339c293\n        /* \"smartContract/contracts/Test.sol\":2487:2493  answer */\n      dup7\n        /* \"smartContract/contracts/Test.sol\":2448:2494  voteReceipt(msg.sender, proposalIndex, answer) */\n      mload(0x40)\n      tag_67\n      swap2\n      swap1\n      tag_68\n      jump\t// in\n    tag_67:\n      mload(0x40)\n      dup1\n      swap2\n      sub\n      swap1\n      log3\n        /* \"smartContract/contracts/Test.sol\":1944:2501  {... */\n      pop\n        /* \"smartContract/contracts/Test.sol\":1841:2501  function vote (uint proposalIndex,string memory answer) public payable valid(msg.sender,proposalIndex) {... */\n      pop\n      pop\n      pop\n      pop\n      jump\t// out\n        /* \"smartContract/contracts/Test.sol\":1132:1462  function createProposal (bytes32 unionId) external{... */\n    tag_23:\n        /* \"smartContract/contracts/Test.sol\":1224:1231  unionId */\n      dup1\n        /* \"smartContract/contracts/Test.sol\":1191:1200  Proposals */\n      0x02\n        /* \"smartContract/contracts/Test.sol\":1191:1213  Proposals[proposalLen] */\n      0x00\n        /* \"smartContract/contracts/Test.sol\":1201:1212  proposalLen */\n      sload(0x01)\n        /* \"smartContract/contracts/Test.sol\":1191:1213  Proposals[proposalLen] */\n      dup2\n      mstore\n      0x20\n      add\n      swap1\n      dup2\n      mstore\n      0x20\n      add\n      0x00\n      keccak256\n        /* \"smartContract/contracts/Test.sol\":1191:1221  Proposals[proposalLen].UnionId */\n      0x01\n      add\n        /* \"smartContract/contracts/Test.sol\":1191:1231  Proposals[proposalLen].UnionId = unionId */\n      dup2\n      swap1\n      sstore\n      pop\n        /* \"smartContract/contracts/Test.sol\":1276:1286  msg.sender */\n      caller\n        /* \"smartContract/contracts/Test.sol\":1239:1248  Proposals */\n      0x02\n        /* \"smartContract/contracts/Test.sol\":1239:1261  Proposals[proposalLen] */\n      0x00\n        /* \"smartContract/contracts/Test.sol\":1249:1260  proposalLen */\n      sload(0x01)\n        /* \"smartContract/contracts/Test.sol\":1239:1261  Proposals[proposalLen] */\n      dup2\n      mstore\n      0x20\n      add\n      swap1\n      dup2\n      mstore\n      0x20\n      add\n      0x00\n      keccak256\n        /* \"smartContract/contracts/Test.sol\":1239:1273  Proposals[proposalLen].chairperson */\n      0x00\n      add\n      0x00\n        /* \"smartContract/contracts/Test.sol\":1239:1286  Proposals[proposalLen].chairperson = msg.sender */\n      0x0100\n      exp\n      dup2\n      sload\n      dup2\n      0xffffffffffffffffffffffffffffffffffffffff\n      mul\n      not\n      and\n      swap1\n      dup4\n      0xffffffffffffffffffffffffffffffffffffffff\n      and\n      mul\n      or\n      swap1\n      sstore\n      pop\n        /* \"smartContract/contracts/Test.sol\":1324:1328  true */\n      0x01\n        /* \"smartContract/contracts/Test.sol\":1294:1303  Proposals */\n      0x02\n        /* \"smartContract/contracts/Test.sol\":1294:1316  Proposals[proposalLen] */\n      0x00\n        /* \"smartContract/contracts/Test.sol\":1304:1315  proposalLen */\n      sload(0x01)\n        /* \"smartContract/contracts/Test.sol\":1294:1316  Proposals[proposalLen] */\n      dup2\n      mstore\n      0x20\n      add\n      swap1\n      dup2\n      mstore\n      0x20\n      add\n      0x00\n      keccak256\n        /* \"smartContract/contracts/Test.sol\":1294:1321  Proposals[proposalLen].open */\n      0x03\n      add\n      0x00\n        /* \"smartContract/contracts/Test.sol\":1294:1328  Proposals[proposalLen].open = true */\n      0x0100\n      exp\n      dup2\n      sload\n      dup2\n      0xff\n      mul\n      not\n      and\n      swap1\n      dup4\n      iszero\n      iszero\n      mul\n      or\n      swap1\n      sstore\n      pop\n        /* \"smartContract/contracts/Test.sol\":1367:1378  proposalLen */\n      sload(0x01)\n        /* \"smartContract/contracts/Test.sol\":1336:1345  Proposals */\n      0x02\n        /* \"smartContract/contracts/Test.sol\":1336:1358  Proposals[proposalLen] */\n      0x00\n        /* \"smartContract/contracts/Test.sol\":1346:1357  proposalLen */\n      sload(0x01)\n        /* \"smartContract/contracts/Test.sol\":1336:1358  Proposals[proposalLen] */\n      dup2\n      mstore\n      0x20\n      add\n      swap1\n      dup2\n      mstore\n      0x20\n      add\n      0x00\n      keccak256\n        /* \"smartContract/contracts/Test.sol\":1336:1364  Proposals[proposalLen].index */\n      0x04\n      add\n        /* \"smartContract/contracts/Test.sol\":1336:1378  Proposals[proposalLen].index = proposalLen */\n      dup2\n      swap1\n      sstore\n      pop\n        /* \"smartContract/contracts/Test.sol\":1419:1429  msg.sender */\n      caller\n        /* \"smartContract/contracts/Test.sol\":1394:1430  showProposal(proposalLen,msg.sender) */\n      0xffffffffffffffffffffffffffffffffffffffff\n      and\n        /* \"smartContract/contracts/Test.sol\":1407:1418  proposalLen */\n      sload(0x01)\n        /* \"smartContract/contracts/Test.sol\":1394:1430  showProposal(proposalLen,msg.sender) */\n      0xdfe8375e6feacee508dd21ad617b77eecc58258684b2d6c36c2b59ce24553b5e\n      mload(0x40)\n      mload(0x40)\n      dup1\n      swap2\n      sub\n      swap1\n      log3\n        /* \"smartContract/contracts/Test.sol\":1438:1449  proposalLen */\n      0x01\n      0x00\n        /* \"smartContract/contracts/Test.sol\":1438:1451  proposalLen++ */\n      dup2\n      sload\n      dup1\n      swap3\n      swap2\n      swap1\n      tag_70\n      swap1\n      tag_71\n      jump\t// in\n    tag_70:\n      swap2\n      swap1\n      pop\n      sstore\n      pop\n        /* \"smartContract/contracts/Test.sol\":1132:1462  function createProposal (bytes32 unionId) external{... */\n      pop\n      jump\t// out\n        /* \"smartContract/contracts/Test.sol\":114:140  address public chairperson */\n    tag_26:\n      0x00\n      dup1\n      sload\n      swap1\n      0x0100\n      exp\n      swap1\n      div\n      0xffffffffffffffffffffffffffffffffffffffff\n      and\n      dup2\n      jump\t// out\n        /* \"smartContract/contracts/Test.sol\":161:188  uint public proposalLen = 0 */\n    tag_31:\n      sload(0x01)\n      dup2\n      jump\t// out\n        /* \"smartContract/contracts/Test.sol\":2738:2871  function totalProposal(uint proposalIndex) external view returns(Proposal memory ){... */\n    tag_37:\n        /* \"smartContract/contracts/Test.sol\":2803:2818  Proposal memory */\n      tag_72\n      tag_73\n      jump\t// in\n    tag_72:\n        /* \"smartContract/contracts/Test.sol\":2840:2849  Proposals */\n      0x02\n        /* \"smartContract/contracts/Test.sol\":2840:2864  Proposals[proposalIndex] */\n      0x00\n        /* \"smartContract/contracts/Test.sol\":2850:2863  proposalIndex */\n      dup4\n        /* \"smartContract/contracts/Test.sol\":2840:2864  Proposals[proposalIndex] */\n      dup2\n      mstore\n      0x20\n      add\n      swap1\n      dup2\n      mstore\n      0x20\n      add\n      0x00\n      keccak256\n        /* \"smartContract/contracts/Test.sol\":2833:2864  return Proposals[proposalIndex] */\n      mload(0x40)\n      dup1\n      0xa0\n      add\n      0x40\n      mstore\n      swap1\n      dup2\n      0x00\n      dup3\n      add\n      0x00\n      swap1\n      sload\n      swap1\n      0x0100\n      exp\n      swap1\n      div\n      0xffffffffffffffffffffffffffffffffffffffff\n      and\n      0xffffffffffffffffffffffffffffffffffffffff\n      and\n      0xffffffffffffffffffffffffffffffffffffffff\n      and\n      dup2\n      mstore\n      0x20\n      add\n      0x01\n      dup3\n      add\n      sload\n      dup2\n      mstore\n      0x20\n      add\n      0x02\n      dup3\n      add\n      dup1\n      sload\n      dup1\n      0x20\n      mul\n      0x20\n      add\n      mload(0x40)\n      swap1\n      dup2\n      add\n      0x40\n      mstore\n      dup1\n      swap3\n      swap2\n      swap1\n      dup2\n      dup2\n      mstore\n      0x20\n      add\n      0x00\n      swap1\n    tag_75:\n      dup3\n      dup3\n      lt\n      iszero\n      tag_76\n      jumpi\n      dup4\n      dup3\n      swap1\n      0x00\n      mstore\n      keccak256(0x00, 0x20)\n      swap1\n      0x05\n      mul\n      add\n      mload(0x40)\n      dup1\n      0xa0\n      add\n      0x40\n      mstore\n      swap1\n      dup2\n      0x00\n      dup3\n      add\n      sload\n      dup2\n      mstore\n      0x20\n      add\n      0x01\n      dup3\n      add\n      0x00\n      swap1\n      sload\n      swap1\n      0x0100\n      exp\n      swap1\n      div\n      0xffffffffffffffffffffffffffffffffffffffff\n      and\n      0xffffffffffffffffffffffffffffffffffffffff\n      and\n      0xffffffffffffffffffffffffffffffffffffffff\n      and\n      dup2\n      mstore\n      0x20\n      add\n      0x02\n      dup3\n      add\n      sload\n      dup2\n      mstore\n      0x20\n      add\n      0x03\n      dup3\n      add\n      0x00\n      swap1\n      sload\n      swap1\n      0x0100\n      exp\n      swap1\n      div\n      0xff\n      and\n      iszero\n      iszero\n      iszero\n      iszero\n      dup2\n      mstore\n      0x20\n      add\n      0x04\n      dup3\n      add\n      dup1\n      sload\n      tag_78\n      swap1\n      tag_45\n      jump\t// in\n    tag_78:\n      dup1\n      0x1f\n      add\n      0x20\n      dup1\n      swap2\n      div\n      mul\n      0x20\n      add\n      mload(0x40)\n      swap1\n      dup2\n      add\n      0x40\n      mstore\n      dup1\n      swap3\n      swap2\n      swap1\n      dup2\n      dup2\n      mstore\n      0x20\n      add\n      dup3\n      dup1\n      sload\n      tag_79\n      swap1\n      tag_45\n      jump\t// in\n    tag_79:\n      dup1\n      iszero\n      tag_80\n      jumpi\n      dup1\n      0x1f\n      lt\n      tag_81\n      jumpi\n      0x0100\n      dup1\n      dup4\n      sload\n      div\n      mul\n      dup4\n      mstore\n      swap2\n      0x20\n      add\n      swap2\n      jump(tag_80)\n    tag_81:\n      dup3\n      add\n      swap2\n      swap1\n      0x00\n      mstore\n      keccak256(0x00, 0x20)\n      swap1\n    tag_82:\n      dup2\n      sload\n      dup2\n      mstore\n      swap1\n      0x01\n      add\n      swap1\n      0x20\n      add\n      dup1\n      dup4\n      gt\n      tag_82\n      jumpi\n      dup3\n      swap1\n      sub\n      0x1f\n      and\n      dup3\n      add\n      swap2\n    tag_80:\n      pop\n      pop\n      pop\n      pop\n      pop\n      dup2\n      mstore\n      pop\n      pop\n      dup2\n      mstore\n      0x20\n      add\n      swap1\n      0x01\n      add\n      swap1\n      jump(tag_75)\n    tag_76:\n      pop\n      pop\n      pop\n      pop\n      dup2\n      mstore\n      0x20\n      add\n      0x03\n      dup3\n      add\n      0x00\n      swap1\n      sload\n      swap1\n      0x0100\n      exp\n      swap1\n      div\n      0xff\n      and\n      iszero\n      iszero\n      iszero\n      iszero\n      dup2\n      mstore\n      0x20\n      add\n      0x04\n      dup3\n      add\n      sload\n      dup2\n      mstore\n      pop\n      pop\n      swap1\n      pop\n        /* \"smartContract/contracts/Test.sol\":2738:2871  function totalProposal(uint proposalIndex) external view returns(Proposal memory ){... */\n      swap2\n      swap1\n      pop\n      jump\t// out\n    tag_66:\n      dup3\n      dup1\n      sload\n      tag_83\n      swap1\n      tag_45\n      jump\t// in\n    tag_83:\n      swap1\n      0x00\n      mstore\n      keccak256(0x00, 0x20)\n      swap1\n      0x1f\n      add\n      0x20\n      swap1\n      div\n      dup2\n      add\n      swap3\n      dup3\n      tag_85\n      jumpi\n      0x00\n      dup6\n      sstore\n      jump(tag_84)\n    tag_85:\n      dup3\n      0x1f\n      lt\n      tag_86\n      jumpi\n      dup1\n      mload\n      not(0xff)\n      and\n      dup4\n      dup1\n      add\n      or\n      dup6\n      sstore\n      jump(tag_84)\n    tag_86:\n      dup3\n      dup1\n      add\n      0x01\n      add\n      dup6\n      sstore\n      dup3\n      iszero\n      tag_84\n      jumpi\n      swap2\n      dup3\n      add\n    tag_87:\n      dup3\n      dup2\n      gt\n      iszero\n      tag_88\n      jumpi\n      dup3\n      mload\n      dup3\n      sstore\n      swap2\n      0x20\n      add\n      swap2\n      swap1\n      0x01\n      add\n      swap1\n      jump(tag_87)\n    tag_88:\n    tag_84:\n      pop\n      swap1\n      pop\n      tag_89\n      swap2\n      swap1\n      tag_90\n      jump\t// in\n    tag_89:\n      pop\n      swap1\n      jump\t// out\n    tag_73:\n      mload(0x40)\n      dup1\n      0xa0\n      add\n      0x40\n      mstore\n      dup1\n      and(0xffffffffffffffffffffffffffffffffffffffff, 0x00)\n      dup2\n      mstore\n      0x20\n      add\n      0x00\n      dup1\n      not\n      and\n      dup2\n      mstore\n      0x20\n      add\n      0x60\n      dup2\n      mstore\n      0x20\n      add\n      iszero(iszero(0x00))\n      dup2\n      mstore\n      0x20\n      add\n      0x00\n      dup2\n      mstore\n      pop\n      swap1\n      jump\t// out\n    tag_90:\n    tag_91:\n      dup1\n      dup3\n      gt\n      iszero\n      tag_92\n      jumpi\n      0x00\n      dup2\n      0x00\n      swap1\n      sstore\n      pop\n      0x01\n      add\n      jump(tag_91)\n    tag_92:\n      pop\n      swap1\n      jump\t// out\n        /* \"#utility.yul\":7:419   */\n    tag_94:\n        /* \"#utility.yul\":85:90   */\n      0x00\n        /* \"#utility.yul\":110:176   */\n      tag_96\n        /* \"#utility.yul\":126:175   */\n      tag_97\n        /* \"#utility.yul\":168:174   */\n      dup5\n        /* \"#utility.yul\":126:175   */\n      tag_98\n      jump\t// in\n    tag_97:\n        /* \"#utility.yul\":110:176   */\n      tag_99\n      jump\t// in\n    tag_96:\n        /* \"#utility.yul\":101:176   */\n      swap1\n      pop\n        /* \"#utility.yul\":199:205   */\n      dup3\n        /* \"#utility.yul\":192:197   */\n      dup2\n        /* \"#utility.yul\":185:206   */\n      mstore\n        /* \"#utility.yul\":237:241   */\n      0x20\n        /* \"#utility.yul\":230:235   */\n      dup2\n        /* \"#utility.yul\":226:242   */\n      add\n        /* \"#utility.yul\":275:278   */\n      dup5\n        /* \"#utility.yul\":266:272   */\n      dup5\n        /* \"#utility.yul\":261:264   */\n      dup5\n        /* \"#utility.yul\":257:273   */\n      add\n        /* \"#utility.yul\":254:279   */\n      gt\n        /* \"#utility.yul\":251:363   */\n      iszero\n      tag_100\n      jumpi\n        /* \"#utility.yul\":282:361   */\n      tag_101\n      tag_102\n      jump\t// in\n    tag_101:\n        /* \"#utility.yul\":251:363   */\n    tag_100:\n        /* \"#utility.yul\":372:413   */\n      tag_103\n        /* \"#utility.yul\":406:412   */\n      dup5\n        /* \"#utility.yul\":401:404   */\n      dup3\n        /* \"#utility.yul\":396:399   */\n      dup6\n        /* \"#utility.yul\":372:413   */\n      tag_104\n      jump\t// in\n    tag_103:\n        /* \"#utility.yul\":91:419   */\n      pop\n        /* \"#utility.yul\":7:419   */\n      swap4\n      swap3\n      pop\n      pop\n      pop\n      jump\t// out\n        /* \"#utility.yul\":425:564   */\n    tag_105:\n        /* \"#utility.yul\":471:476   */\n      0x00\n        /* \"#utility.yul\":509:515   */\n      dup2\n        /* \"#utility.yul\":496:516   */\n      calldataload\n        /* \"#utility.yul\":487:516   */\n      swap1\n      pop\n        /* \"#utility.yul\":525:558   */\n      tag_107\n        /* \"#utility.yul\":552:557   */\n      dup2\n        /* \"#utility.yul\":525:558   */\n      tag_108\n      jump\t// in\n    tag_107:\n        /* \"#utility.yul\":425:564   */\n      swap3\n      swap2\n      pop\n      pop\n      jump\t// out\n        /* \"#utility.yul\":584:924   */\n    tag_109:\n        /* \"#utility.yul\":640:645   */\n      0x00\n        /* \"#utility.yul\":689:692   */\n      dup3\n        /* \"#utility.yul\":682:686   */\n      0x1f\n        /* \"#utility.yul\":674:680   */\n      dup4\n        /* \"#utility.yul\":670:687   */\n      add\n        /* \"#utility.yul\":666:693   */\n      slt\n        /* \"#utility.yul\":656:778   */\n      tag_111\n      jumpi\n        /* \"#utility.yul\":697:776   */\n      tag_112\n      tag_113\n      jump\t// in\n    tag_112:\n        /* \"#utility.yul\":656:778   */\n    tag_111:\n        /* \"#utility.yul\":814:820   */\n      dup2\n        /* \"#utility.yul\":801:821   */\n      calldataload\n        /* \"#utility.yul\":839:918   */\n      tag_114\n        /* \"#utility.yul\":914:917   */\n      dup5\n        /* \"#utility.yul\":906:912   */\n      dup3\n        /* \"#utility.yul\":899:903   */\n      0x20\n        /* \"#utility.yul\":891:897   */\n      dup7\n        /* \"#utility.yul\":887:904   */\n      add\n        /* \"#utility.yul\":839:918   */\n      tag_94\n      jump\t// in\n    tag_114:\n        /* \"#utility.yul\":830:918   */\n      swap2\n      pop\n        /* \"#utility.yul\":646:924   */\n      pop\n        /* \"#utility.yul\":584:924   */\n      swap3\n      swap2\n      pop\n      pop\n      jump\t// out\n        /* \"#utility.yul\":930:1069   */\n    tag_115:\n        /* \"#utility.yul\":976:981   */\n      0x00\n        /* \"#utility.yul\":1014:1020   */\n      dup2\n        /* \"#utility.yul\":1001:1021   */\n      calldataload\n        /* \"#utility.yul\":992:1021   */\n      swap1\n      pop\n        /* \"#utility.yul\":1030:1063   */\n      tag_117\n        /* \"#utility.yul\":1057:1062   */\n      dup2\n        /* \"#utility.yul\":1030:1063   */\n      tag_118\n      jump\t// in\n    tag_117:\n        /* \"#utility.yul\":930:1069   */\n      swap3\n      swap2\n      pop\n      pop\n      jump\t// out\n        /* \"#utility.yul\":1075:1404   */\n    tag_22:\n        /* \"#utility.yul\":1134:1140   */\n      0x00\n        /* \"#utility.yul\":1183:1185   */\n      0x20\n        /* \"#utility.yul\":1171:1180   */\n      dup3\n        /* \"#utility.yul\":1162:1169   */\n      dup5\n        /* \"#utility.yul\":1158:1181   */\n      sub\n        /* \"#utility.yul\":1154:1186   */\n      slt\n        /* \"#utility.yul\":1151:1270   */\n      iszero\n      tag_120\n      jumpi\n        /* \"#utility.yul\":1189:1268   */\n      tag_121\n      tag_122\n      jump\t// in\n    tag_121:\n        /* \"#utility.yul\":1151:1270   */\n    tag_120:\n        /* \"#utility.yul\":1309:1310   */\n      0x00\n        /* \"#utility.yul\":1334:1387   */\n      tag_123\n        /* \"#utility.yul\":1379:1386   */\n      dup5\n        /* \"#utility.yul\":1370:1376   */\n      dup3\n        /* \"#utility.yul\":1359:1368   */\n      dup6\n        /* \"#utility.yul\":1355:1377   */\n      add\n        /* \"#utility.yul\":1334:1387   */\n      tag_105\n      jump\t// in\n    tag_123:\n        /* \"#utility.yul\":1324:1387   */\n      swap2\n      pop\n        /* \"#utility.yul\":1280:1397   */\n      pop\n        /* \"#utility.yul\":1075:1404   */\n      swap3\n      swap2\n      pop\n      pop\n      jump\t// out\n        /* \"#utility.yul\":1410:1739   */\n    tag_11:\n        /* \"#utility.yul\":1469:1475   */\n      0x00\n        /* \"#utility.yul\":1518:1520   */\n      0x20\n        /* \"#utility.yul\":1506:1515   */\n      dup3\n        /* \"#utility.yul\":1497:1504   */\n      dup5\n        /* \"#utility.yul\":1493:1516   */\n      sub\n        /* \"#utility.yul\":1489:1521   */\n      slt\n        /* \"#utility.yul\":1486:1605   */\n      iszero\n      tag_125\n      jumpi\n        /* \"#utility.yul\":1524:1603   */\n      tag_126\n      tag_122\n      jump\t// in\n    tag_126:\n        /* \"#utility.yul\":1486:1605   */\n    tag_125:\n        /* \"#utility.yul\":1644:1645   */\n      0x00\n        /* \"#utility.yul\":1669:1722   */\n      tag_127\n        /* \"#utility.yul\":1714:1721   */\n      dup5\n        /* \"#utility.yul\":1705:1711   */\n      dup3\n        /* \"#utility.yul\":1694:1703   */\n      dup6\n        /* \"#utility.yul\":1690:1712   */\n      add\n        /* \"#utility.yul\":1669:1722   */\n      tag_115\n      jump\t// in\n    tag_127:\n        /* \"#utility.yul\":1659:1722   */\n      swap2\n      pop\n        /* \"#utility.yul\":1615:1732   */\n      pop\n        /* \"#utility.yul\":1410:1739   */\n      swap3\n      swap2\n      pop\n      pop\n      jump\t// out\n        /* \"#utility.yul\":1745:2399   */\n    tag_17:\n        /* \"#utility.yul\":1823:1829   */\n      0x00\n        /* \"#utility.yul\":1831:1837   */\n      dup1\n        /* \"#utility.yul\":1880:1882   */\n      0x40\n        /* \"#utility.yul\":1868:1877   */\n      dup4\n        /* \"#utility.yul\":1859:1866   */\n      dup6\n        /* \"#utility.yul\":1855:1878   */\n      sub\n        /* \"#utility.yul\":1851:1883   */\n      slt\n        /* \"#utility.yul\":1848:1967   */\n      iszero\n      tag_129\n      jumpi\n        /* \"#utility.yul\":1886:1965   */\n      tag_130\n      tag_122\n      jump\t// in\n    tag_130:\n        /* \"#utility.yul\":1848:1967   */\n    tag_129:\n        /* \"#utility.yul\":2006:2007   */\n      0x00\n        /* \"#utility.yul\":2031:2084   */\n      tag_131\n        /* \"#utility.yul\":2076:2083   */\n      dup6\n        /* \"#utility.yul\":2067:2073   */\n      dup3\n        /* \"#utility.yul\":2056:2065   */\n      dup7\n        /* \"#utility.yul\":2052:2074   */\n      add\n        /* \"#utility.yul\":2031:2084   */\n      tag_115\n      jump\t// in\n    tag_131:\n        /* \"#utility.yul\":2021:2084   */\n      swap3\n      pop\n        /* \"#utility.yul\":1977:2094   */\n      pop\n        /* \"#utility.yul\":2161:2163   */\n      0x20\n        /* \"#utility.yul\":2150:2159   */\n      dup4\n        /* \"#utility.yul\":2146:2164   */\n      add\n        /* \"#utility.yul\":2133:2165   */\n      calldataload\n        /* \"#utility.yul\":2192:2210   */\n      0xffffffffffffffff\n        /* \"#utility.yul\":2184:2190   */\n      dup2\n        /* \"#utility.yul\":2181:2211   */\n      gt\n        /* \"#utility.yul\":2178:2295   */\n      iszero\n      tag_132\n      jumpi\n        /* \"#utility.yul\":2214:2293   */\n      tag_133\n      tag_134\n      jump\t// in\n    tag_133:\n        /* \"#utility.yul\":2178:2295   */\n    tag_132:\n        /* \"#utility.yul\":2319:2382   */\n      tag_135\n        /* \"#utility.yul\":2374:2381   */\n      dup6\n        /* \"#utility.yul\":2365:2371   */\n      dup3\n        /* \"#utility.yul\":2354:2363   */\n      dup7\n        /* \"#utility.yul\":2350:2372   */\n      add\n        /* \"#utility.yul\":2319:2382   */\n      tag_109\n      jump\t// in\n    tag_135:\n        /* \"#utility.yul\":2309:2382   */\n      swap2\n      pop\n        /* \"#utility.yul\":2104:2392   */\n      pop\n        /* \"#utility.yul\":1745:2399   */\n      swap3\n      pop\n      swap3\n      swap1\n      pop\n      jump\t// out\n        /* \"#utility.yul\":2405:2645   */\n    tag_136:\n        /* \"#utility.yul\":2516:2526   */\n      0x00\n        /* \"#utility.yul\":2551:2639   */\n      tag_138\n        /* \"#utility.yul\":2635:2638   */\n      dup4\n        /* \"#utility.yul\":2627:2633   */\n      dup4\n        /* \"#utility.yul\":2551:2639   */\n      tag_139\n      jump\t// in\n    tag_138:\n        /* \"#utility.yul\":2537:2639   */\n      swap1\n      pop\n        /* \"#utility.yul\":2405:2645   */\n      swap3\n      swap2\n      pop\n      pop\n      jump\t// out\n        /* \"#utility.yul\":2651:2759   */\n    tag_140:\n        /* \"#utility.yul\":2728:2752   */\n      tag_142\n        /* \"#utility.yul\":2746:2751   */\n      dup2\n        /* \"#utility.yul\":2728:2752   */\n      tag_143\n      jump\t// in\n    tag_142:\n        /* \"#utility.yul\":2723:2726   */\n      dup3\n        /* \"#utility.yul\":2716:2753   */\n      mstore\n        /* \"#utility.yul\":2651:2759   */\n      pop\n      pop\n      jump\t// out\n        /* \"#utility.yul\":2765:2883   */\n    tag_144:\n        /* \"#utility.yul\":2852:2876   */\n      tag_146\n        /* \"#utility.yul\":2870:2875   */\n      dup2\n        /* \"#utility.yul\":2852:2876   */\n      tag_143\n      jump\t// in\n    tag_146:\n        /* \"#utility.yul\":2847:2850   */\n      dup3\n        /* \"#utility.yul\":2840:2877   */\n      mstore\n        /* \"#utility.yul\":2765:2883   */\n      pop\n      pop\n      jump\t// out\n        /* \"#utility.yul\":2939:3998   */\n    tag_147:\n        /* \"#utility.yul\":3090:3093   */\n      0x00\n        /* \"#utility.yul\":3119:3194   */\n      tag_149\n        /* \"#utility.yul\":3188:3193   */\n      dup3\n        /* \"#utility.yul\":3119:3194   */\n      tag_150\n      jump\t// in\n    tag_149:\n        /* \"#utility.yul\":3210:3307   */\n      tag_151\n        /* \"#utility.yul\":3300:3306   */\n      dup2\n        /* \"#utility.yul\":3295:3298   */\n      dup6\n        /* \"#utility.yul\":3210:3307   */\n      tag_152\n      jump\t// in\n    tag_151:\n        /* \"#utility.yul\":3203:3307   */\n      swap4\n      pop\n        /* \"#utility.yul\":3333:3336   */\n      dup4\n        /* \"#utility.yul\":3378:3382   */\n      0x20\n        /* \"#utility.yul\":3370:3376   */\n      dup3\n        /* \"#utility.yul\":3366:3383   */\n      mul\n        /* \"#utility.yul\":3361:3364   */\n      dup6\n        /* \"#utility.yul\":3357:3384   */\n      add\n        /* \"#utility.yul\":3408:3485   */\n      tag_153\n        /* \"#utility.yul\":3479:3484   */\n      dup6\n        /* \"#utility.yul\":3408:3485   */\n      tag_154\n      jump\t// in\n    tag_153:\n        /* \"#utility.yul\":3508:3515   */\n      dup1\n        /* \"#utility.yul\":3539:3540   */\n      0x00\n        /* \"#utility.yul\":3524:3953   */\n    tag_155:\n        /* \"#utility.yul\":3549:3555   */\n      dup6\n        /* \"#utility.yul\":3546:3547   */\n      dup2\n        /* \"#utility.yul\":3543:3556   */\n      lt\n        /* \"#utility.yul\":3524:3953   */\n      iszero\n      tag_157\n      jumpi\n        /* \"#utility.yul\":3620:3629   */\n      dup5\n        /* \"#utility.yul\":3614:3618   */\n      dup5\n        /* \"#utility.yul\":3610:3630   */\n      sub\n        /* \"#utility.yul\":3605:3608   */\n      dup10\n        /* \"#utility.yul\":3598:3631   */\n      mstore\n        /* \"#utility.yul\":3671:3677   */\n      dup2\n        /* \"#utility.yul\":3665:3678   */\n      mload\n        /* \"#utility.yul\":3699:3805   */\n      tag_158\n        /* \"#utility.yul\":3800:3804   */\n      dup6\n        /* \"#utility.yul\":3785:3798   */\n      dup3\n        /* \"#utility.yul\":3699:3805   */\n      tag_136\n      jump\t// in\n    tag_158:\n        /* \"#utility.yul\":3691:3805   */\n      swap5\n      pop\n        /* \"#utility.yul\":3828:3909   */\n      tag_159\n        /* \"#utility.yul\":3902:3908   */\n      dup4\n        /* \"#utility.yul\":3828:3909   */\n      tag_160\n      jump\t// in\n    tag_159:\n        /* \"#utility.yul\":3818:3909   */\n      swap3\n      pop\n        /* \"#utility.yul\":3938:3942   */\n      0x20\n        /* \"#utility.yul\":3933:3936   */\n      dup11\n        /* \"#utility.yul\":3929:3943   */\n      add\n        /* \"#utility.yul\":3922:3943   */\n      swap10\n      pop\n        /* \"#utility.yul\":3584:3953   */\n      pop\n        /* \"#utility.yul\":3571:3572   */\n      0x01\n        /* \"#utility.yul\":3568:3569   */\n      dup2\n        /* \"#utility.yul\":3564:3573   */\n      add\n        /* \"#utility.yul\":3559:3573   */\n      swap1\n      pop\n        /* \"#utility.yul\":3524:3953   */\n      jump(tag_155)\n    tag_157:\n        /* \"#utility.yul\":3528:3542   */\n      pop\n        /* \"#utility.yul\":3969:3973   */\n      dup3\n        /* \"#utility.yul\":3962:3973   */\n      swap8\n      pop\n        /* \"#utility.yul\":3989:3992   */\n      dup8\n        /* \"#utility.yul\":3982:3992   */\n      swap6\n      pop\n        /* \"#utility.yul\":3095:3998   */\n      pop\n      pop\n      pop\n      pop\n      pop\n        /* \"#utility.yul\":2939:3998   */\n      swap3\n      swap2\n      pop\n      pop\n      jump\t// out\n        /* \"#utility.yul\":4054:5133   */\n    tag_161:\n        /* \"#utility.yul\":4215:4218   */\n      0x00\n        /* \"#utility.yul\":4244:4319   */\n      tag_163\n        /* \"#utility.yul\":4313:4318   */\n      dup3\n        /* \"#utility.yul\":4244:4319   */\n      tag_150\n      jump\t// in\n    tag_163:\n        /* \"#utility.yul\":4335:4442   */\n      tag_164\n        /* \"#utility.yul\":4435:4441   */\n      dup2\n        /* \"#utility.yul\":4430:4433   */\n      dup6\n        /* \"#utility.yul\":4335:4442   */\n      tag_165\n      jump\t// in\n    tag_164:\n        /* \"#utility.yul\":4328:4442   */\n      swap4\n      pop\n        /* \"#utility.yul\":4468:4471   */\n      dup4\n        /* \"#utility.yul\":4513:4517   */\n      0x20\n        /* \"#utility.yul\":4505:4511   */\n      dup3\n        /* \"#utility.yul\":4501:4518   */\n      mul\n        /* \"#utility.yul\":4496:4499   */\n      dup6\n        /* \"#utility.yul\":4492:4519   */\n      add\n        /* \"#utility.yul\":4543:4620   */\n      tag_166\n        /* \"#utility.yul\":4614:4619   */\n      dup6\n        /* \"#utility.yul\":4543:4620   */\n      tag_154\n      jump\t// in\n    tag_166:\n        /* \"#utility.yul\":4643:4650   */\n      dup1\n        /* \"#utility.yul\":4674:4675   */\n      0x00\n        /* \"#utility.yul\":4659:5088   */\n    tag_167:\n        /* \"#utility.yul\":4684:4690   */\n      dup6\n        /* \"#utility.yul\":4681:4682   */\n      dup2\n        /* \"#utility.yul\":4678:4691   */\n      lt\n        /* \"#utility.yul\":4659:5088   */\n      iszero\n      tag_169\n      jumpi\n        /* \"#utility.yul\":4755:4764   */\n      dup5\n        /* \"#utility.yul\":4749:4753   */\n      dup5\n        /* \"#utility.yul\":4745:4765   */\n      sub\n        /* \"#utility.yul\":4740:4743   */\n      dup10\n        /* \"#utility.yul\":4733:4766   */\n      mstore\n        /* \"#utility.yul\":4806:4812   */\n      dup2\n        /* \"#utility.yul\":4800:4813   */\n      mload\n        /* \"#utility.yul\":4834:4940   */\n      tag_170\n        /* \"#utility.yul\":4935:4939   */\n      dup6\n        /* \"#utility.yul\":4920:4933   */\n      dup3\n        /* \"#utility.yul\":4834:4940   */\n      tag_136\n      jump\t// in\n    tag_170:\n        /* \"#utility.yul\":4826:4940   */\n      swap5\n      pop\n        /* \"#utility.yul\":4963:5044   */\n      tag_171\n        /* \"#utility.yul\":5037:5043   */\n      dup4\n        /* \"#utility.yul\":4963:5044   */\n      tag_160\n      jump\t// in\n    tag_171:\n        /* \"#utility.yul\":4953:5044   */\n      swap3\n      pop\n        /* \"#utility.yul\":5073:5077   */\n      0x20\n        /* \"#utility.yul\":5068:5071   */\n      dup11\n        /* \"#utility.yul\":5064:5078   */\n      add\n        /* \"#utility.yul\":5057:5078   */\n      swap10\n      pop\n        /* \"#utility.yul\":4719:5088   */\n      pop\n        /* \"#utility.yul\":4706:4707   */\n      0x01\n        /* \"#utility.yul\":4703:4704   */\n      dup2\n        /* \"#utility.yul\":4699:4708   */\n      add\n        /* \"#utility.yul\":4694:4708   */\n      swap1\n      pop\n        /* \"#utility.yul\":4659:5088   */\n      jump(tag_167)\n    tag_169:\n        /* \"#utility.yul\":4663:4677   */\n      pop\n        /* \"#utility.yul\":5104:5108   */\n      dup3\n        /* \"#utility.yul\":5097:5108   */\n      swap8\n      pop\n        /* \"#utility.yul\":5124:5127   */\n      dup8\n        /* \"#utility.yul\":5117:5127   */\n      swap6\n      pop\n        /* \"#utility.yul\":4220:5133   */\n      pop\n      pop\n      pop\n      pop\n      pop\n        /* \"#utility.yul\":4054:5133   */\n      swap3\n      swap2\n      pop\n      pop\n      jump\t// out\n        /* \"#utility.yul\":5139:5238   */\n    tag_172:\n        /* \"#utility.yul\":5210:5231   */\n      tag_174\n        /* \"#utility.yul\":5225:5230   */\n      dup2\n        /* \"#utility.yul\":5210:5231   */\n      tag_175\n      jump\t// in\n    tag_174:\n        /* \"#utility.yul\":5205:5208   */\n      dup3\n        /* \"#utility.yul\":5198:5232   */\n      mstore\n        /* \"#utility.yul\":5139:5238   */\n      pop\n      pop\n      jump\t// out\n        /* \"#utility.yul\":5244:5352   */\n    tag_176:\n        /* \"#utility.yul\":5321:5345   */\n      tag_178\n        /* \"#utility.yul\":5339:5344   */\n      dup2\n        /* \"#utility.yul\":5321:5345   */\n      tag_179\n      jump\t// in\n    tag_178:\n        /* \"#utility.yul\":5316:5319   */\n      dup3\n        /* \"#utility.yul\":5309:5346   */\n      mstore\n        /* \"#utility.yul\":5244:5352   */\n      pop\n      pop\n      jump\t// out\n        /* \"#utility.yul\":5358:5702   */\n    tag_180:\n        /* \"#utility.yul\":5436:5439   */\n      0x00\n        /* \"#utility.yul\":5464:5503   */\n      tag_182\n        /* \"#utility.yul\":5497:5502   */\n      dup3\n        /* \"#utility.yul\":5464:5503   */\n      tag_183\n      jump\t// in\n    tag_182:\n        /* \"#utility.yul\":5519:5580   */\n      tag_184\n        /* \"#utility.yul\":5573:5579   */\n      dup2\n        /* \"#utility.yul\":5568:5571   */\n      dup6\n        /* \"#utility.yul\":5519:5580   */\n      tag_185\n      jump\t// in\n    tag_184:\n        /* \"#utility.yul\":5512:5580   */\n      swap4\n      pop\n        /* \"#utility.yul\":5589:5641   */\n      tag_186\n        /* \"#utility.yul\":5634:5640   */\n      dup2\n        /* \"#utility.yul\":5629:5632   */\n      dup6\n        /* \"#utility.yul\":5622:5626   */\n      0x20\n        /* \"#utility.yul\":5615:5620   */\n      dup7\n        /* \"#utility.yul\":5611:5627   */\n      add\n        /* \"#utility.yul\":5589:5641   */\n      tag_187\n      jump\t// in\n    tag_186:\n        /* \"#utility.yul\":5666:5695   */\n      tag_188\n        /* \"#utility.yul\":5688:5694   */\n      dup2\n        /* \"#utility.yul\":5666:5695   */\n      tag_189\n      jump\t// in\n    tag_188:\n        /* \"#utility.yul\":5661:5664   */\n      dup5\n        /* \"#utility.yul\":5657:5696   */\n      add\n        /* \"#utility.yul\":5650:5696   */\n      swap2\n      pop\n        /* \"#utility.yul\":5440:5702   */\n      pop\n        /* \"#utility.yul\":5358:5702   */\n      swap3\n      swap2\n      pop\n      pop\n      jump\t// out\n        /* \"#utility.yul\":5708:6072   */\n    tag_190:\n        /* \"#utility.yul\":5796:5799   */\n      0x00\n        /* \"#utility.yul\":5824:5863   */\n      tag_192\n        /* \"#utility.yul\":5857:5862   */\n      dup3\n        /* \"#utility.yul\":5824:5863   */\n      tag_183\n      jump\t// in\n    tag_192:\n        /* \"#utility.yul\":5879:5950   */\n      tag_193\n        /* \"#utility.yul\":5943:5949   */\n      dup2\n        /* \"#utility.yul\":5938:5941   */\n      dup6\n        /* \"#utility.yul\":5879:5950   */\n      tag_194\n      jump\t// in\n    tag_193:\n        /* \"#utility.yul\":5872:5950   */\n      swap4\n      pop\n        /* \"#utility.yul\":5959:6011   */\n      tag_195\n        /* \"#utility.yul\":6004:6010   */\n      dup2\n        /* \"#utility.yul\":5999:6002   */\n      dup6\n        /* \"#utility.yul\":5992:5996   */\n      0x20\n        /* \"#utility.yul\":5985:5990   */\n      dup7\n        /* \"#utility.yul\":5981:5997   */\n      add\n        /* \"#utility.yul\":5959:6011   */\n      tag_187\n      jump\t// in\n    tag_195:\n        /* \"#utility.yul\":6036:6065   */\n      tag_196\n        /* \"#utility.yul\":6058:6064   */\n      dup2\n        /* \"#utility.yul\":6036:6065   */\n      tag_189\n      jump\t// in\n    tag_196:\n        /* \"#utility.yul\":6031:6034   */\n      dup5\n        /* \"#utility.yul\":6027:6066   */\n      add\n        /* \"#utility.yul\":6020:6066   */\n      swap2\n      pop\n        /* \"#utility.yul\":5800:6072   */\n      pop\n        /* \"#utility.yul\":5708:6072   */\n      swap3\n      swap2\n      pop\n      pop\n      jump\t// out\n        /* \"#utility.yul\":6078:6444   */\n    tag_197:\n        /* \"#utility.yul\":6220:6223   */\n      0x00\n        /* \"#utility.yul\":6241:6308   */\n      tag_199\n        /* \"#utility.yul\":6305:6307   */\n      0x18\n        /* \"#utility.yul\":6300:6303   */\n      dup4\n        /* \"#utility.yul\":6241:6308   */\n      tag_194\n      jump\t// in\n    tag_199:\n        /* \"#utility.yul\":6234:6308   */\n      swap2\n      pop\n        /* \"#utility.yul\":6317:6410   */\n      tag_200\n        /* \"#utility.yul\":6406:6409   */\n      dup3\n        /* \"#utility.yul\":6317:6410   */\n      tag_201\n      jump\t// in\n    tag_200:\n        /* \"#utility.yul\":6435:6437   */\n      0x20\n        /* \"#utility.yul\":6430:6433   */\n      dup3\n        /* \"#utility.yul\":6426:6438   */\n      add\n        /* \"#utility.yul\":6419:6438   */\n      swap1\n      pop\n        /* \"#utility.yul\":6078:6444   */\n      swap2\n      swap1\n      pop\n      jump\t// out\n        /* \"#utility.yul\":6450:6816   */\n    tag_202:\n        /* \"#utility.yul\":6592:6595   */\n      0x00\n        /* \"#utility.yul\":6613:6680   */\n      tag_204\n        /* \"#utility.yul\":6677:6679   */\n      0x1a\n        /* \"#utility.yul\":6672:6675   */\n      dup4\n        /* \"#utility.yul\":6613:6680   */\n      tag_194\n      jump\t// in\n    tag_204:\n        /* \"#utility.yul\":6606:6680   */\n      swap2\n      pop\n        /* \"#utility.yul\":6689:6782   */\n      tag_205\n        /* \"#utility.yul\":6778:6781   */\n      dup3\n        /* \"#utility.yul\":6689:6782   */\n      tag_206\n      jump\t// in\n    tag_205:\n        /* \"#utility.yul\":6807:6809   */\n      0x20\n        /* \"#utility.yul\":6802:6805   */\n      dup3\n        /* \"#utility.yul\":6798:6810   */\n      add\n        /* \"#utility.yul\":6791:6810   */\n      swap1\n      pop\n        /* \"#utility.yul\":6450:6816   */\n      swap2\n      swap1\n      pop\n      jump\t// out\n        /* \"#utility.yul\":6822:7188   */\n    tag_207:\n        /* \"#utility.yul\":6964:6967   */\n      0x00\n        /* \"#utility.yul\":6985:7052   */\n      tag_209\n        /* \"#utility.yul\":7049:7051   */\n      0x17\n        /* \"#utility.yul\":7044:7047   */\n      dup4\n        /* \"#utility.yul\":6985:7052   */\n      tag_194\n      jump\t// in\n    tag_209:\n        /* \"#utility.yul\":6978:7052   */\n      swap2\n      pop\n        /* \"#utility.yul\":7061:7154   */\n      tag_210\n        /* \"#utility.yul\":7150:7153   */\n      dup3\n        /* \"#utility.yul\":7061:7154   */\n      tag_211\n      jump\t// in\n    tag_210:\n        /* \"#utility.yul\":7179:7181   */\n      0x20\n        /* \"#utility.yul\":7174:7177   */\n      dup3\n        /* \"#utility.yul\":7170:7182   */\n      add\n        /* \"#utility.yul\":7163:7182   */\n      swap1\n      pop\n        /* \"#utility.yul\":6822:7188   */\n      swap2\n      swap1\n      pop\n      jump\t// out\n        /* \"#utility.yul\":7194:7560   */\n    tag_212:\n        /* \"#utility.yul\":7336:7339   */\n      0x00\n        /* \"#utility.yul\":7357:7424   */\n      tag_214\n        /* \"#utility.yul\":7421:7423   */\n      0x13\n        /* \"#utility.yul\":7416:7419   */\n      dup4\n        /* \"#utility.yul\":7357:7424   */\n      tag_194\n      jump\t// in\n    tag_214:\n        /* \"#utility.yul\":7350:7424   */\n      swap2\n      pop\n        /* \"#utility.yul\":7433:7526   */\n      tag_215\n        /* \"#utility.yul\":7522:7525   */\n      dup3\n        /* \"#utility.yul\":7433:7526   */\n      tag_216\n      jump\t// in\n    tag_215:\n        /* \"#utility.yul\":7551:7553   */\n      0x20\n        /* \"#utility.yul\":7546:7549   */\n      dup3\n        /* \"#utility.yul\":7542:7554   */\n      add\n        /* \"#utility.yul\":7535:7554   */\n      swap1\n      pop\n        /* \"#utility.yul\":7194:7560   */\n      swap2\n      swap1\n      pop\n      jump\t// out\n        /* \"#utility.yul\":7618:8823   */\n    tag_217:\n        /* \"#utility.yul\":7735:7738   */\n      0x00\n        /* \"#utility.yul\":7771:7775   */\n      0xa0\n        /* \"#utility.yul\":7766:7769   */\n      dup4\n        /* \"#utility.yul\":7762:7776   */\n      add\n        /* \"#utility.yul\":7865:7869   */\n      0x00\n        /* \"#utility.yul\":7858:7863   */\n      dup4\n        /* \"#utility.yul\":7854:7870   */\n      add\n        /* \"#utility.yul\":7848:7871   */\n      mload\n        /* \"#utility.yul\":7884:7947   */\n      tag_219\n        /* \"#utility.yul\":7941:7945   */\n      0x00\n        /* \"#utility.yul\":7936:7939   */\n      dup7\n        /* \"#utility.yul\":7932:7946   */\n      add\n        /* \"#utility.yul\":7918:7930   */\n      dup3\n        /* \"#utility.yul\":7884:7947   */\n      tag_140\n      jump\t// in\n    tag_219:\n        /* \"#utility.yul\":7786:7957   */\n      pop\n        /* \"#utility.yul\":8042:8046   */\n      0x20\n        /* \"#utility.yul\":8035:8040   */\n      dup4\n        /* \"#utility.yul\":8031:8047   */\n      add\n        /* \"#utility.yul\":8025:8048   */\n      mload\n        /* \"#utility.yul\":8061:8124   */\n      tag_220\n        /* \"#utility.yul\":8118:8122   */\n      0x20\n        /* \"#utility.yul\":8113:8116   */\n      dup7\n        /* \"#utility.yul\":8109:8123   */\n      add\n        /* \"#utility.yul\":8095:8107   */\n      dup3\n        /* \"#utility.yul\":8061:8124   */\n      tag_176\n      jump\t// in\n    tag_220:\n        /* \"#utility.yul\":7967:8134   */\n      pop\n        /* \"#utility.yul\":8218:8222   */\n      0x40\n        /* \"#utility.yul\":8211:8216   */\n      dup4\n        /* \"#utility.yul\":8207:8223   */\n      add\n        /* \"#utility.yul\":8201:8224   */\n      mload\n        /* \"#utility.yul\":8271:8274   */\n      dup5\n        /* \"#utility.yul\":8265:8269   */\n      dup3\n        /* \"#utility.yul\":8261:8275   */\n      sub\n        /* \"#utility.yul\":8254:8258   */\n      0x40\n        /* \"#utility.yul\":8249:8252   */\n      dup7\n        /* \"#utility.yul\":8245:8259   */\n      add\n        /* \"#utility.yul\":8238:8276   */\n      mstore\n        /* \"#utility.yul\":8297:8442   */\n      tag_221\n        /* \"#utility.yul\":8437:8441   */\n      dup3\n        /* \"#utility.yul\":8423:8435   */\n      dup3\n        /* \"#utility.yul\":8297:8442   */\n      tag_147\n      jump\t// in\n    tag_221:\n        /* \"#utility.yul\":8289:8442   */\n      swap2\n      pop\n        /* \"#utility.yul\":8144:8453   */\n      pop\n        /* \"#utility.yul\":8535:8539   */\n      0x60\n        /* \"#utility.yul\":8528:8533   */\n      dup4\n        /* \"#utility.yul\":8524:8540   */\n      add\n        /* \"#utility.yul\":8518:8541   */\n      mload\n        /* \"#utility.yul\":8554:8611   */\n      tag_222\n        /* \"#utility.yul\":8605:8609   */\n      0x60\n        /* \"#utility.yul\":8600:8603   */\n      dup7\n        /* \"#utility.yul\":8596:8610   */\n      add\n        /* \"#utility.yul\":8582:8594   */\n      dup3\n        /* \"#utility.yul\":8554:8611   */\n      tag_172\n      jump\t// in\n    tag_222:\n        /* \"#utility.yul\":8463:8621   */\n      pop\n        /* \"#utility.yul\":8704:8708   */\n      0x80\n        /* \"#utility.yul\":8697:8702   */\n      dup4\n        /* \"#utility.yul\":8693:8709   */\n      add\n        /* \"#utility.yul\":8687:8710   */\n      mload\n        /* \"#utility.yul\":8723:8786   */\n      tag_223\n        /* \"#utility.yul\":8780:8784   */\n      0x80\n        /* \"#utility.yul\":8775:8778   */\n      dup7\n        /* \"#utility.yul\":8771:8785   */\n      add\n        /* \"#utility.yul\":8757:8769   */\n      dup3\n        /* \"#utility.yul\":8723:8786   */\n      tag_224\n      jump\t// in\n    tag_223:\n        /* \"#utility.yul\":8631:8796   */\n      pop\n        /* \"#utility.yul\":8813:8817   */\n      dup1\n        /* \"#utility.yul\":8806:8817   */\n      swap2\n      pop\n        /* \"#utility.yul\":7740:8823   */\n      pop\n        /* \"#utility.yul\":7618:8823   */\n      swap3\n      swap2\n      pop\n      pop\n      jump\t// out\n        /* \"#utility.yul\":8875:9986   */\n    tag_139:\n        /* \"#utility.yul\":8976:8979   */\n      0x00\n        /* \"#utility.yul\":9012:9016   */\n      0xa0\n        /* \"#utility.yul\":9007:9010   */\n      dup4\n        /* \"#utility.yul\":9003:9017   */\n      add\n        /* \"#utility.yul\":9102:9106   */\n      0x00\n        /* \"#utility.yul\":9095:9100   */\n      dup4\n        /* \"#utility.yul\":9091:9107   */\n      add\n        /* \"#utility.yul\":9085:9108   */\n      mload\n        /* \"#utility.yul\":9121:9184   */\n      tag_226\n        /* \"#utility.yul\":9178:9182   */\n      0x00\n        /* \"#utility.yul\":9173:9176   */\n      dup7\n        /* \"#utility.yul\":9169:9183   */\n      add\n        /* \"#utility.yul\":9155:9167   */\n      dup3\n        /* \"#utility.yul\":9121:9184   */\n      tag_176\n      jump\t// in\n    tag_226:\n        /* \"#utility.yul\":9027:9194   */\n      pop\n        /* \"#utility.yul\":9276:9280   */\n      0x20\n        /* \"#utility.yul\":9269:9274   */\n      dup4\n        /* \"#utility.yul\":9265:9281   */\n      add\n        /* \"#utility.yul\":9259:9282   */\n      mload\n        /* \"#utility.yul\":9295:9358   */\n      tag_227\n        /* \"#utility.yul\":9352:9356   */\n      0x20\n        /* \"#utility.yul\":9347:9350   */\n      dup7\n        /* \"#utility.yul\":9343:9357   */\n      add\n        /* \"#utility.yul\":9329:9341   */\n      dup3\n        /* \"#utility.yul\":9295:9358   */\n      tag_140\n      jump\t// in\n    tag_227:\n        /* \"#utility.yul\":9204:9368   */\n      pop\n        /* \"#utility.yul\":9451:9455   */\n      0x40\n        /* \"#utility.yul\":9444:9449   */\n      dup4\n        /* \"#utility.yul\":9440:9456   */\n      add\n        /* \"#utility.yul\":9434:9457   */\n      mload\n        /* \"#utility.yul\":9470:9533   */\n      tag_228\n        /* \"#utility.yul\":9527:9531   */\n      0x40\n        /* \"#utility.yul\":9522:9525   */\n      dup7\n        /* \"#utility.yul\":9518:9532   */\n      add\n        /* \"#utility.yul\":9504:9516   */\n      dup3\n        /* \"#utility.yul\":9470:9533   */\n      tag_224\n      jump\t// in\n    tag_228:\n        /* \"#utility.yul\":9378:9543   */\n      pop\n        /* \"#utility.yul\":9626:9630   */\n      0x60\n        /* \"#utility.yul\":9619:9624   */\n      dup4\n        /* \"#utility.yul\":9615:9631   */\n      add\n        /* \"#utility.yul\":9609:9632   */\n      mload\n        /* \"#utility.yul\":9645:9702   */\n      tag_229\n        /* \"#utility.yul\":9696:9700   */\n      0x60\n        /* \"#utility.yul\":9691:9694   */\n      dup7\n        /* \"#utility.yul\":9687:9701   */\n      add\n        /* \"#utility.yul\":9673:9685   */\n      dup3\n        /* \"#utility.yul\":9645:9702   */\n      tag_172\n      jump\t// in\n    tag_229:\n        /* \"#utility.yul\":9553:9712   */\n      pop\n        /* \"#utility.yul\":9796:9800   */\n      0x80\n        /* \"#utility.yul\":9789:9794   */\n      dup4\n        /* \"#utility.yul\":9785:9801   */\n      add\n        /* \"#utility.yul\":9779:9802   */\n      mload\n        /* \"#utility.yul\":9849:9852   */\n      dup5\n        /* \"#utility.yul\":9843:9847   */\n      dup3\n        /* \"#utility.yul\":9839:9853   */\n      sub\n        /* \"#utility.yul\":9832:9836   */\n      0x80\n        /* \"#utility.yul\":9827:9830   */\n      dup7\n        /* \"#utility.yul\":9823:9837   */\n      add\n        /* \"#utility.yul\":9816:9854   */\n      mstore\n        /* \"#utility.yul\":9875:9948   */\n      tag_230\n        /* \"#utility.yul\":9943:9947   */\n      dup3\n        /* \"#utility.yul\":9929:9941   */\n      dup3\n        /* \"#utility.yul\":9875:9948   */\n      tag_180\n      jump\t// in\n    tag_230:\n        /* \"#utility.yul\":9867:9948   */\n      swap2\n      pop\n        /* \"#utility.yul\":9722:9959   */\n      pop\n        /* \"#utility.yul\":9976:9980   */\n      dup1\n        /* \"#utility.yul\":9969:9980   */\n      swap2\n      pop\n        /* \"#utility.yul\":8981:9986   */\n      pop\n        /* \"#utility.yul\":8875:9986   */\n      swap3\n      swap2\n      pop\n      pop\n      jump\t// out\n        /* \"#utility.yul\":9992:10100   */\n    tag_224:\n        /* \"#utility.yul\":10069:10093   */\n      tag_232\n        /* \"#utility.yul\":10087:10092   */\n      dup2\n        /* \"#utility.yul\":10069:10093   */\n      tag_233\n      jump\t// in\n    tag_232:\n        /* \"#utility.yul\":10064:10067   */\n      dup3\n        /* \"#utility.yul\":10057:10094   */\n      mstore\n        /* \"#utility.yul\":9992:10100   */\n      pop\n      pop\n      jump\t// out\n        /* \"#utility.yul\":10106:10224   */\n    tag_234:\n        /* \"#utility.yul\":10193:10217   */\n      tag_236\n        /* \"#utility.yul\":10211:10216   */\n      dup2\n        /* \"#utility.yul\":10193:10217   */\n      tag_233\n      jump\t// in\n    tag_236:\n        /* \"#utility.yul\":10188:10191   */\n      dup3\n        /* \"#utility.yul\":10181:10218   */\n      mstore\n        /* \"#utility.yul\":10106:10224   */\n      pop\n      pop\n      jump\t// out\n        /* \"#utility.yul\":10230:10452   */\n    tag_28:\n        /* \"#utility.yul\":10323:10327   */\n      0x00\n        /* \"#utility.yul\":10361:10363   */\n      0x20\n        /* \"#utility.yul\":10350:10359   */\n      dup3\n        /* \"#utility.yul\":10346:10364   */\n      add\n        /* \"#utility.yul\":10338:10364   */\n      swap1\n      pop\n        /* \"#utility.yul\":10374:10445   */\n      tag_238\n        /* \"#utility.yul\":10442:10443   */\n      0x00\n        /* \"#utility.yul\":10431:10440   */\n      dup4\n        /* \"#utility.yul\":10427:10444   */\n      add\n        /* \"#utility.yul\":10418:10424   */\n      dup5\n        /* \"#utility.yul\":10374:10445   */\n      tag_144\n      jump\t// in\n    tag_238:\n        /* \"#utility.yul\":10230:10452   */\n      swap3\n      swap2\n      pop\n      pop\n      jump\t// out\n        /* \"#utility.yul\":10458:10915   */\n    tag_14:\n        /* \"#utility.yul\":10643:10647   */\n      0x00\n        /* \"#utility.yul\":10681:10683   */\n      0x20\n        /* \"#utility.yul\":10670:10679   */\n      dup3\n        /* \"#utility.yul\":10666:10684   */\n      add\n        /* \"#utility.yul\":10658:10684   */\n      swap1\n      pop\n        /* \"#utility.yul\":10730:10739   */\n      dup2\n        /* \"#utility.yul\":10724:10728   */\n      dup2\n        /* \"#utility.yul\":10720:10740   */\n      sub\n        /* \"#utility.yul\":10716:10717   */\n      0x00\n        /* \"#utility.yul\":10705:10714   */\n      dup4\n        /* \"#utility.yul\":10701:10718   */\n      add\n        /* \"#utility.yul\":10694:10741   */\n      mstore\n        /* \"#utility.yul\":10758:10908   */\n      tag_240\n        /* \"#utility.yul\":10903:10907   */\n      dup2\n        /* \"#utility.yul\":10894:10900   */\n      dup5\n        /* \"#utility.yul\":10758:10908   */\n      tag_161\n      jump\t// in\n    tag_240:\n        /* \"#utility.yul\":10750:10908   */\n      swap1\n      pop\n        /* \"#utility.yul\":10458:10915   */\n      swap3\n      swap2\n      pop\n      pop\n      jump\t// out\n        /* \"#utility.yul\":10921:11234   */\n    tag_68:\n        /* \"#utility.yul\":11034:11038   */\n      0x00\n        /* \"#utility.yul\":11072:11074   */\n      0x20\n        /* \"#utility.yul\":11061:11070   */\n      dup3\n        /* \"#utility.yul\":11057:11075   */\n      add\n        /* \"#utility.yul\":11049:11075   */\n      swap1\n      pop\n        /* \"#utility.yul\":11121:11130   */\n      dup2\n        /* \"#utility.yul\":11115:11119   */\n      dup2\n        /* \"#utility.yul\":11111:11131   */\n      sub\n        /* \"#utility.yul\":11107:11108   */\n      0x00\n        /* \"#utility.yul\":11096:11105   */\n      dup4\n        /* \"#utility.yul\":11092:11109   */\n      add\n        /* \"#utility.yul\":11085:11132   */\n      mstore\n        /* \"#utility.yul\":11149:11227   */\n      tag_242\n        /* \"#utility.yul\":11222:11226   */\n      dup2\n        /* \"#utility.yul\":11213:11219   */\n      dup5\n        /* \"#utility.yul\":11149:11227   */\n      tag_190\n      jump\t// in\n    tag_242:\n        /* \"#utility.yul\":11141:11227   */\n      swap1\n      pop\n        /* \"#utility.yul\":10921:11234   */\n      swap3\n      swap2\n      pop\n      pop\n      jump\t// out\n        /* \"#utility.yul\":11240:11659   */\n    tag_63:\n        /* \"#utility.yul\":11406:11410   */\n      0x00\n        /* \"#utility.yul\":11444:11446   */\n      0x20\n        /* \"#utility.yul\":11433:11442   */\n      dup3\n        /* \"#utility.yul\":11429:11447   */\n      add\n        /* \"#utility.yul\":11421:11447   */\n      swap1\n      pop\n        /* \"#utility.yul\":11493:11502   */\n      dup2\n        /* \"#utility.yul\":11487:11491   */\n      dup2\n        /* \"#utility.yul\":11483:11503   */\n      sub\n        /* \"#utility.yul\":11479:11480   */\n      0x00\n        /* \"#utility.yul\":11468:11477   */\n      dup4\n        /* \"#utility.yul\":11464:11481   */\n      add\n        /* \"#utility.yul\":11457:11504   */\n      mstore\n        /* \"#utility.yul\":11521:11652   */\n      tag_244\n        /* \"#utility.yul\":11647:11651   */\n      dup2\n        /* \"#utility.yul\":11521:11652   */\n      tag_197\n      jump\t// in\n    tag_244:\n        /* \"#utility.yul\":11513:11652   */\n      swap1\n      pop\n        /* \"#utility.yul\":11240:11659   */\n      swap2\n      swap1\n      pop\n      jump\t// out\n        /* \"#utility.yul\":11665:12084   */\n    tag_56:\n        /* \"#utility.yul\":11831:11835   */\n      0x00\n        /* \"#utility.yul\":11869:11871   */\n      0x20\n        /* \"#utility.yul\":11858:11867   */\n      dup3\n        /* \"#utility.yul\":11854:11872   */\n      add\n        /* \"#utility.yul\":11846:11872   */\n      swap1\n      pop\n        /* \"#utility.yul\":11918:11927   */\n      dup2\n        /* \"#utility.yul\":11912:11916   */\n      dup2\n        /* \"#utility.yul\":11908:11928   */\n      sub\n        /* \"#utility.yul\":11904:11905   */\n      0x00\n        /* \"#utility.yul\":11893:11902   */\n      dup4\n        /* \"#utility.yul\":11889:11906   */\n      add\n        /* \"#utility.yul\":11882:11929   */\n      mstore\n        /* \"#utility.yul\":11946:12077   */\n      tag_246\n        /* \"#utility.yul\":12072:12076   */\n      dup2\n        /* \"#utility.yul\":11946:12077   */\n      tag_202\n      jump\t// in\n    tag_246:\n        /* \"#utility.yul\":11938:12077   */\n      swap1\n      pop\n        /* \"#utility.yul\":11665:12084   */\n      swap2\n      swap1\n      pop\n      jump\t// out\n        /* \"#utility.yul\":12090:12509   */\n    tag_60:\n        /* \"#utility.yul\":12256:12260   */\n      0x00\n        /* \"#utility.yul\":12294:12296   */\n      0x20\n        /* \"#utility.yul\":12283:12292   */\n      dup3\n        /* \"#utility.yul\":12279:12297   */\n      add\n        /* \"#utility.yul\":12271:12297   */\n      swap1\n      pop\n        /* \"#utility.yul\":12343:12352   */\n      dup2\n        /* \"#utility.yul\":12337:12341   */\n      dup2\n        /* \"#utility.yul\":12333:12353   */\n      sub\n        /* \"#utility.yul\":12329:12330   */\n      0x00\n        /* \"#utility.yul\":12318:12327   */\n      dup4\n        /* \"#utility.yul\":12314:12331   */\n      add\n        /* \"#utility.yul\":12307:12354   */\n      mstore\n        /* \"#utility.yul\":12371:12502   */\n      tag_248\n        /* \"#utility.yul\":12497:12501   */\n      dup2\n        /* \"#utility.yul\":12371:12502   */\n      tag_207\n      jump\t// in\n    tag_248:\n        /* \"#utility.yul\":12363:12502   */\n      swap1\n      pop\n        /* \"#utility.yul\":12090:12509   */\n      swap2\n      swap1\n      pop\n      jump\t// out\n        /* \"#utility.yul\":12515:12934   */\n    tag_53:\n        /* \"#utility.yul\":12681:12685   */\n      0x00\n        /* \"#utility.yul\":12719:12721   */\n      0x20\n        /* \"#utility.yul\":12708:12717   */\n      dup3\n        /* \"#utility.yul\":12704:12722   */\n      add\n        /* \"#utility.yul\":12696:12722   */\n      swap1\n      pop\n        /* \"#utility.yul\":12768:12777   */\n      dup2\n        /* \"#utility.yul\":12762:12766   */\n      dup2\n        /* \"#utility.yul\":12758:12778   */\n      sub\n        /* \"#utility.yul\":12754:12755   */\n      0x00\n        /* \"#utility.yul\":12743:12752   */\n      dup4\n        /* \"#utility.yul\":12739:12756   */\n      add\n        /* \"#utility.yul\":12732:12779   */\n      mstore\n        /* \"#utility.yul\":12796:12927   */\n      tag_250\n        /* \"#utility.yul\":12922:12926   */\n      dup2\n        /* \"#utility.yul\":12796:12927   */\n      tag_212\n      jump\t// in\n    tag_250:\n        /* \"#utility.yul\":12788:12927   */\n      swap1\n      pop\n        /* \"#utility.yul\":12515:12934   */\n      swap2\n      swap1\n      pop\n      jump\t// out\n        /* \"#utility.yul\":12940:13309   */\n    tag_39:\n        /* \"#utility.yul\":13081:13085   */\n      0x00\n        /* \"#utility.yul\":13119:13121   */\n      0x20\n        /* \"#utility.yul\":13108:13117   */\n      dup3\n        /* \"#utility.yul\":13104:13122   */\n      add\n        /* \"#utility.yul\":13096:13122   */\n      swap1\n      pop\n        /* \"#utility.yul\":13168:13177   */\n      dup2\n        /* \"#utility.yul\":13162:13166   */\n      dup2\n        /* \"#utility.yul\":13158:13178   */\n      sub\n        /* \"#utility.yul\":13154:13155   */\n      0x00\n        /* \"#utility.yul\":13143:13152   */\n      dup4\n        /* \"#utility.yul\":13139:13156   */\n      add\n        /* \"#utility.yul\":13132:13179   */\n      mstore\n        /* \"#utility.yul\":13196:13302   */\n      tag_252\n        /* \"#utility.yul\":13297:13301   */\n      dup2\n        /* \"#utility.yul\":13288:13294   */\n      dup5\n        /* \"#utility.yul\":13196:13302   */\n      tag_217\n      jump\t// in\n    tag_252:\n        /* \"#utility.yul\":13188:13302   */\n      swap1\n      pop\n        /* \"#utility.yul\":12940:13309   */\n      swap3\n      swap2\n      pop\n      pop\n      jump\t// out\n        /* \"#utility.yul\":13315:13537   */\n    tag_33:\n        /* \"#utility.yul\":13408:13412   */\n      0x00\n        /* \"#utility.yul\":13446:13448   */\n      0x20\n        /* \"#utility.yul\":13435:13444   */\n      dup3\n        /* \"#utility.yul\":13431:13449   */\n      add\n        /* \"#utility.yul\":13423:13449   */\n      swap1\n      pop\n        /* \"#utility.yul\":13459:13530   */\n      tag_254\n        /* \"#utility.yul\":13527:13528   */\n      0x00\n        /* \"#utility.yul\":13516:13525   */\n      dup4\n        /* \"#utility.yul\":13512:13529   */\n      add\n        /* \"#utility.yul\":13503:13509   */\n      dup5\n        /* \"#utility.yul\":13459:13530   */\n      tag_234\n      jump\t// in\n    tag_254:\n        /* \"#utility.yul\":13315:13537   */\n      swap3\n      swap2\n      pop\n      pop\n      jump\t// out\n        /* \"#utility.yul\":13543:13672   */\n    tag_99:\n        /* \"#utility.yul\":13577:13583   */\n      0x00\n        /* \"#utility.yul\":13604:13624   */\n      tag_256\n      tag_257\n      jump\t// in\n    tag_256:\n        /* \"#utility.yul\":13594:13624   */\n      swap1\n      pop\n        /* \"#utility.yul\":13633:13666   */\n      tag_258\n        /* \"#utility.yul\":13661:13665   */\n      dup3\n        /* \"#utility.yul\":13653:13659   */\n      dup3\n        /* \"#utility.yul\":13633:13666   */\n      tag_259\n      jump\t// in\n    tag_258:\n        /* \"#utility.yul\":13543:13672   */\n      swap2\n      swap1\n      pop\n      jump\t// out\n        /* \"#utility.yul\":13678:13753   */\n    tag_257:\n        /* \"#utility.yul\":13711:13717   */\n      0x00\n        /* \"#utility.yul\":13744:13746   */\n      0x40\n        /* \"#utility.yul\":13738:13747   */\n      mload\n        /* \"#utility.yul\":13728:13747   */\n      swap1\n      pop\n        /* \"#utility.yul\":13678:13753   */\n      swap1\n      jump\t// out\n        /* \"#utility.yul\":13759:14067   */\n    tag_98:\n        /* \"#utility.yul\":13821:13825   */\n      0x00\n        /* \"#utility.yul\":13911:13929   */\n      0xffffffffffffffff\n        /* \"#utility.yul\":13903:13909   */\n      dup3\n        /* \"#utility.yul\":13900:13930   */\n      gt\n        /* \"#utility.yul\":13897:13953   */\n      iszero\n      tag_262\n      jumpi\n        /* \"#utility.yul\":13933:13951   */\n      tag_263\n      tag_264\n      jump\t// in\n    tag_263:\n        /* \"#utility.yul\":13897:13953   */\n    tag_262:\n        /* \"#utility.yul\":13971:14000   */\n      tag_265\n        /* \"#utility.yul\":13993:13999   */\n      dup3\n        /* \"#utility.yul\":13971:14000   */\n      tag_189\n      jump\t// in\n    tag_265:\n        /* \"#utility.yul\":13963:14000   */\n      swap1\n      pop\n        /* \"#utility.yul\":14055:14059   */\n      0x20\n        /* \"#utility.yul\":14049:14053   */\n      dup2\n        /* \"#utility.yul\":14045:14060   */\n      add\n        /* \"#utility.yul\":14037:14060   */\n      swap1\n      pop\n        /* \"#utility.yul\":13759:14067   */\n      swap2\n      swap1\n      pop\n      jump\t// out\n        /* \"#utility.yul\":14073:14226   */\n    tag_154:\n        /* \"#utility.yul\":14161:14165   */\n      0x00\n        /* \"#utility.yul\":14184:14187   */\n      dup2\n        /* \"#utility.yul\":14176:14187   */\n      swap1\n      pop\n        /* \"#utility.yul\":14214:14218   */\n      0x20\n        /* \"#utility.yul\":14209:14212   */\n      dup3\n        /* \"#utility.yul\":14205:14219   */\n      add\n        /* \"#utility.yul\":14197:14219   */\n      swap1\n      pop\n        /* \"#utility.yul\":14073:14226   */\n      swap2\n      swap1\n      pop\n      jump\t// out\n        /* \"#utility.yul\":14232:14367   */\n    tag_150:\n        /* \"#utility.yul\":14320:14326   */\n      0x00\n        /* \"#utility.yul\":14354:14359   */\n      dup2\n        /* \"#utility.yul\":14348:14360   */\n      mload\n        /* \"#utility.yul\":14338:14360   */\n      swap1\n      pop\n        /* \"#utility.yul\":14232:14367   */\n      swap2\n      swap1\n      pop\n      jump\t// out\n        /* \"#utility.yul\":14373:14472   */\n    tag_183:\n        /* \"#utility.yul\":14425:14431   */\n      0x00\n        /* \"#utility.yul\":14459:14464   */\n      dup2\n        /* \"#utility.yul\":14453:14465   */\n      mload\n        /* \"#utility.yul\":14443:14465   */\n      swap1\n      pop\n        /* \"#utility.yul\":14373:14472   */\n      swap2\n      swap1\n      pop\n      jump\t// out\n        /* \"#utility.yul\":14478:14612   */\n    tag_160:\n        /* \"#utility.yul\":14569:14573   */\n      0x00\n        /* \"#utility.yul\":14601:14605   */\n      0x20\n        /* \"#utility.yul\":14596:14599   */\n      dup3\n        /* \"#utility.yul\":14592:14606   */\n      add\n        /* \"#utility.yul\":14584:14606   */\n      swap1\n      pop\n        /* \"#utility.yul\":14478:14612   */\n      swap2\n      swap1\n      pop\n      jump\t// out\n        /* \"#utility.yul\":14618:14813   */\n    tag_152:\n        /* \"#utility.yul\":14728:14739   */\n      0x00\n        /* \"#utility.yul\":14762:14768   */\n      dup3\n        /* \"#utility.yul\":14757:14760   */\n      dup3\n        /* \"#utility.yul\":14750:14769   */\n      mstore\n        /* \"#utility.yul\":14802:14806   */\n      0x20\n        /* \"#utility.yul\":14797:14800   */\n      dup3\n        /* \"#utility.yul\":14793:14807   */\n      add\n        /* \"#utility.yul\":14778:14807   */\n      swap1\n      pop\n        /* \"#utility.yul\":14618:14813   */\n      swap3\n      swap2\n      pop\n      pop\n      jump\t// out\n        /* \"#utility.yul\":14819:15024   */\n    tag_165:\n        /* \"#utility.yul\":14939:14950   */\n      0x00\n        /* \"#utility.yul\":14973:14979   */\n      dup3\n        /* \"#utility.yul\":14968:14971   */\n      dup3\n        /* \"#utility.yul\":14961:14980   */\n      mstore\n        /* \"#utility.yul\":15013:15017   */\n      0x20\n        /* \"#utility.yul\":15008:15011   */\n      dup3\n        /* \"#utility.yul\":15004:15018   */\n      add\n        /* \"#utility.yul\":14989:15018   */\n      swap1\n      pop\n        /* \"#utility.yul\":14819:15024   */\n      swap3\n      swap2\n      pop\n      pop\n      jump\t// out\n        /* \"#utility.yul\":15030:15189   */\n    tag_185:\n        /* \"#utility.yul\":15104:15115   */\n      0x00\n        /* \"#utility.yul\":15138:15144   */\n      dup3\n        /* \"#utility.yul\":15133:15136   */\n      dup3\n        /* \"#utility.yul\":15126:15145   */\n      mstore\n        /* \"#utility.yul\":15178:15182   */\n      0x20\n        /* \"#utility.yul\":15173:15176   */\n      dup3\n        /* \"#utility.yul\":15169:15183   */\n      add\n        /* \"#utility.yul\":15154:15183   */\n      swap1\n      pop\n        /* \"#utility.yul\":15030:15189   */\n      swap3\n      swap2\n      pop\n      pop\n      jump\t// out\n        /* \"#utility.yul\":15195:15364   */\n    tag_194:\n        /* \"#utility.yul\":15279:15290   */\n      0x00\n        /* \"#utility.yul\":15313:15319   */\n      dup3\n        /* \"#utility.yul\":15308:15311   */\n      dup3\n        /* \"#utility.yul\":15301:15320   */\n      mstore\n        /* \"#utility.yul\":15353:15357   */\n      0x20\n        /* \"#utility.yul\":15348:15351   */\n      dup3\n        /* \"#utility.yul\":15344:15358   */\n      add\n        /* \"#utility.yul\":15329:15358   */\n      swap1\n      pop\n        /* \"#utility.yul\":15195:15364   */\n      swap3\n      swap2\n      pop\n      pop\n      jump\t// out\n        /* \"#utility.yul\":15370:15466   */\n    tag_143:\n        /* \"#utility.yul\":15407:15414   */\n      0x00\n        /* \"#utility.yul\":15436:15460   */\n      tag_275\n        /* \"#utility.yul\":15454:15459   */\n      dup3\n        /* \"#utility.yul\":15436:15460   */\n      tag_276\n      jump\t// in\n    tag_275:\n        /* \"#utility.yul\":15425:15460   */\n      swap1\n      pop\n        /* \"#utility.yul\":15370:15466   */\n      swap2\n      swap1\n      pop\n      jump\t// out\n        /* \"#utility.yul\":15472:15562   */\n    tag_175:\n        /* \"#utility.yul\":15506:15513   */\n      0x00\n        /* \"#utility.yul\":15549:15554   */\n      dup2\n        /* \"#utility.yul\":15542:15555   */\n      iszero\n        /* \"#utility.yul\":15535:15556   */\n      iszero\n        /* \"#utility.yul\":15524:15556   */\n      swap1\n      pop\n        /* \"#utility.yul\":15472:15562   */\n      swap2\n      swap1\n      pop\n      jump\t// out\n        /* \"#utility.yul\":15568:15645   */\n    tag_179:\n        /* \"#utility.yul\":15605:15612   */\n      0x00\n        /* \"#utility.yul\":15634:15639   */\n      dup2\n        /* \"#utility.yul\":15623:15639   */\n      swap1\n      pop\n        /* \"#utility.yul\":15568:15645   */\n      swap2\n      swap1\n      pop\n      jump\t// out\n        /* \"#utility.yul\":15651:15777   */\n    tag_276:\n        /* \"#utility.yul\":15688:15695   */\n      0x00\n        /* \"#utility.yul\":15728:15770   */\n      0xffffffffffffffffffffffffffffffffffffffff\n        /* \"#utility.yul\":15721:15726   */\n      dup3\n        /* \"#utility.yul\":15717:15771   */\n      and\n        /* \"#utility.yul\":15706:15771   */\n      swap1\n      pop\n        /* \"#utility.yul\":15651:15777   */\n      swap2\n      swap1\n      pop\n      jump\t// out\n        /* \"#utility.yul\":15783:15860   */\n    tag_233:\n        /* \"#utility.yul\":15820:15827   */\n      0x00\n        /* \"#utility.yul\":15849:15854   */\n      dup2\n        /* \"#utility.yul\":15838:15854   */\n      swap1\n      pop\n        /* \"#utility.yul\":15783:15860   */\n      swap2\n      swap1\n      pop\n      jump\t// out\n        /* \"#utility.yul\":15866:16020   */\n    tag_104:\n        /* \"#utility.yul\":15950:15956   */\n      dup3\n        /* \"#utility.yul\":15945:15948   */\n      dup2\n        /* \"#utility.yul\":15940:15943   */\n      dup4\n        /* \"#utility.yul\":15927:15957   */\n      calldatacopy\n        /* \"#utility.yul\":16012:16013   */\n      0x00\n        /* \"#utility.yul\":16003:16009   */\n      dup4\n        /* \"#utility.yul\":15998:16001   */\n      dup4\n        /* \"#utility.yul\":15994:16010   */\n      add\n        /* \"#utility.yul\":15987:16014   */\n      mstore\n        /* \"#utility.yul\":15866:16020   */\n      pop\n      pop\n      pop\n      jump\t// out\n        /* \"#utility.yul\":16026:16333   */\n    tag_187:\n        /* \"#utility.yul\":16094:16095   */\n      0x00\n        /* \"#utility.yul\":16104:16217   */\n    tag_283:\n        /* \"#utility.yul\":16118:16124   */\n      dup4\n        /* \"#utility.yul\":16115:16116   */\n      dup2\n        /* \"#utility.yul\":16112:16125   */\n      lt\n        /* \"#utility.yul\":16104:16217   */\n      iszero\n      tag_285\n      jumpi\n        /* \"#utility.yul\":16203:16204   */\n      dup1\n        /* \"#utility.yul\":16198:16201   */\n      dup3\n        /* \"#utility.yul\":16194:16205   */\n      add\n        /* \"#utility.yul\":16188:16206   */\n      mload\n        /* \"#utility.yul\":16184:16185   */\n      dup2\n        /* \"#utility.yul\":16179:16182   */\n      dup5\n        /* \"#utility.yul\":16175:16186   */\n      add\n        /* \"#utility.yul\":16168:16207   */\n      mstore\n        /* \"#utility.yul\":16140:16142   */\n      0x20\n        /* \"#utility.yul\":16137:16138   */\n      dup2\n        /* \"#utility.yul\":16133:16143   */\n      add\n        /* \"#utility.yul\":16128:16143   */\n      swap1\n      pop\n        /* \"#utility.yul\":16104:16217   */\n      jump(tag_283)\n    tag_285:\n        /* \"#utility.yul\":16235:16241   */\n      dup4\n        /* \"#utility.yul\":16232:16233   */\n      dup2\n        /* \"#utility.yul\":16229:16242   */\n      gt\n        /* \"#utility.yul\":16226:16327   */\n      iszero\n      tag_286\n      jumpi\n        /* \"#utility.yul\":16315:16316   */\n      0x00\n        /* \"#utility.yul\":16306:16312   */\n      dup5\n        /* \"#utility.yul\":16301:16304   */\n      dup5\n        /* \"#utility.yul\":16297:16313   */\n      add\n        /* \"#utility.yul\":16290:16317   */\n      mstore\n        /* \"#utility.yul\":16226:16327   */\n    tag_286:\n        /* \"#utility.yul\":16075:16333   */\n      pop\n        /* \"#utility.yul\":16026:16333   */\n      pop\n      pop\n      pop\n      jump\t// out\n        /* \"#utility.yul\":16339:16659   */\n    tag_45:\n        /* \"#utility.yul\":16383:16389   */\n      0x00\n        /* \"#utility.yul\":16420:16421   */\n      0x02\n        /* \"#utility.yul\":16414:16418   */\n      dup3\n        /* \"#utility.yul\":16410:16422   */\n      div\n        /* \"#utility.yul\":16400:16422   */\n      swap1\n      pop\n        /* \"#utility.yul\":16467:16468   */\n      0x01\n        /* \"#utility.yul\":16461:16465   */\n      dup3\n        /* \"#utility.yul\":16457:16469   */\n      and\n        /* \"#utility.yul\":16488:16506   */\n      dup1\n        /* \"#utility.yul\":16478:16559   */\n      tag_288\n      jumpi\n        /* \"#utility.yul\":16544:16548   */\n      0x7f\n        /* \"#utility.yul\":16536:16542   */\n      dup3\n        /* \"#utility.yul\":16532:16549   */\n      and\n        /* \"#utility.yul\":16522:16549   */\n      swap2\n      pop\n        /* \"#utility.yul\":16478:16559   */\n    tag_288:\n        /* \"#utility.yul\":16606:16608   */\n      0x20\n        /* \"#utility.yul\":16598:16604   */\n      dup3\n        /* \"#utility.yul\":16595:16609   */\n      lt\n        /* \"#utility.yul\":16575:16593   */\n      dup2\n        /* \"#utility.yul\":16572:16610   */\n      eq\n        /* \"#utility.yul\":16569:16653   */\n      iszero\n      tag_289\n      jumpi\n        /* \"#utility.yul\":16625:16643   */\n      tag_290\n      tag_291\n      jump\t// in\n    tag_290:\n        /* \"#utility.yul\":16569:16653   */\n    tag_289:\n        /* \"#utility.yul\":16390:16659   */\n      pop\n        /* \"#utility.yul\":16339:16659   */\n      swap2\n      swap1\n      pop\n      jump\t// out\n        /* \"#utility.yul\":16665:16946   */\n    tag_259:\n        /* \"#utility.yul\":16748:16775   */\n      tag_293\n        /* \"#utility.yul\":16770:16774   */\n      dup3\n        /* \"#utility.yul\":16748:16775   */\n      tag_189\n      jump\t// in\n    tag_293:\n        /* \"#utility.yul\":16740:16746   */\n      dup2\n        /* \"#utility.yul\":16736:16776   */\n      add\n        /* \"#utility.yul\":16878:16884   */\n      dup2\n        /* \"#utility.yul\":16866:16876   */\n      dup2\n        /* \"#utility.yul\":16863:16885   */\n      lt\n        /* \"#utility.yul\":16842:16860   */\n      0xffffffffffffffff\n        /* \"#utility.yul\":16830:16840   */\n      dup3\n        /* \"#utility.yul\":16827:16861   */\n      gt\n        /* \"#utility.yul\":16824:16886   */\n      or\n        /* \"#utility.yul\":16821:16909   */\n      iszero\n      tag_294\n      jumpi\n        /* \"#utility.yul\":16889:16907   */\n      tag_295\n      tag_264\n      jump\t// in\n    tag_295:\n        /* \"#utility.yul\":16821:16909   */\n    tag_294:\n        /* \"#utility.yul\":16929:16939   */\n      dup1\n        /* \"#utility.yul\":16925:16927   */\n      0x40\n        /* \"#utility.yul\":16918:16940   */\n      mstore\n        /* \"#utility.yul\":16708:16946   */\n      pop\n        /* \"#utility.yul\":16665:16946   */\n      pop\n      pop\n      jump\t// out\n        /* \"#utility.yul\":16952:17185   */\n    tag_71:\n        /* \"#utility.yul\":16991:16994   */\n      0x00\n        /* \"#utility.yul\":17014:17038   */\n      tag_297\n        /* \"#utility.yul\":17032:17037   */\n      dup3\n        /* \"#utility.yul\":17014:17038   */\n      tag_233\n      jump\t// in\n    tag_297:\n        /* \"#utility.yul\":17005:17038   */\n      swap2\n      pop\n        /* \"#utility.yul\":17060:17126   */\n      0xffffffffffffffffffffffffffffffffffffffffffffffffffffffffffffffff\n        /* \"#utility.yul\":17053:17058   */\n      dup3\n        /* \"#utility.yul\":17050:17127   */\n      eq\n        /* \"#utility.yul\":17047:17150   */\n      iszero\n      tag_298\n      jumpi\n        /* \"#utility.yul\":17130:17148   */\n      tag_299\n      tag_300\n      jump\t// in\n    tag_299:\n        /* \"#utility.yul\":17047:17150   */\n    tag_298:\n        /* \"#utility.yul\":17177:17178   */\n      0x01\n        /* \"#utility.yul\":17170:17175   */\n      dup3\n        /* \"#utility.yul\":17166:17179   */\n      add\n        /* \"#utility.yul\":17159:17179   */\n      swap1\n      pop\n        /* \"#utility.yul\":16952:17185   */\n      swap2\n      swap1\n      pop\n      jump\t// out\n        /* \"#utility.yul\":17191:17371   */\n    tag_300:\n        /* \"#utility.yul\":17239:17316   */\n      0x4e487b7100000000000000000000000000000000000000000000000000000000\n        /* \"#utility.yul\":17236:17237   */\n      0x00\n        /* \"#utility.yul\":17229:17317   */\n      mstore\n        /* \"#utility.yul\":17336:17340   */\n      0x11\n        /* \"#utility.yul\":17333:17334   */\n      0x04\n        /* \"#utility.yul\":17326:17341   */\n      mstore\n        /* \"#utility.yul\":17360:17364   */\n      0x24\n        /* \"#utility.yul\":17357:17358   */\n      0x00\n        /* \"#utility.yul\":17350:17365   */\n      revert\n        /* \"#utility.yul\":17377:17557   */\n    tag_291:\n        /* \"#utility.yul\":17425:17502   */\n      0x4e487b7100000000000000000000000000000000000000000000000000000000\n        /* \"#utility.yul\":17422:17423   */\n      0x00\n        /* \"#utility.yul\":17415:17503   */\n      mstore\n        /* \"#utility.yul\":17522:17526   */\n      0x22\n        /* \"#utility.yul\":17519:17520   */\n      0x04\n        /* \"#utility.yul\":17512:17527   */\n      mstore\n        /* \"#utility.yul\":17546:17550   */\n      0x24\n        /* \"#utility.yul\":17543:17544   */\n      0x00\n        /* \"#utility.yul\":17536:17551   */\n      revert\n        /* \"#utility.yul\":17563:17743   */\n    tag_264:\n        /* \"#utility.yul\":17611:17688   */\n      0x4e487b7100000000000000000000000000000000000000000000000000000000\n        /* \"#utility.yul\":17608:17609   */\n      0x00\n        /* \"#utility.yul\":17601:17689   */\n      mstore\n        /* \"#utility.yul\":17708:17712   */\n      0x41\n        /* \"#utility.yul\":17705:17706   */\n      0x04\n        /* \"#utility.yul\":17698:17713   */\n      mstore\n        /* \"#utility.yul\":17732:17736   */\n      0x24\n        /* \"#utility.yul\":17729:17730   */\n      0x00\n        /* \"#utility.yul\":17722:17737   */\n      revert\n        /* \"#utility.yul\":17749:17866   */\n    tag_113:\n        /* \"#utility.yul\":17858:17859   */\n      0x00\n        /* \"#utility.yul\":17855:17856   */\n      dup1\n        /* \"#utility.yul\":17848:17860   */\n      revert\n        /* \"#utility.yul\":17872:17989   */\n    tag_102:\n        /* \"#utility.yul\":17981:17982   */\n      0x00\n        /* \"#utility.yul\":17978:17979   */\n      dup1\n        /* \"#utility.yul\":17971:17983   */\n      revert\n        /* \"#utility.yul\":17995:18112   */\n    tag_134:\n        /* \"#utility.yul\":18104:18105   */\n      0x00\n        /* \"#utility.yul\":18101:18102   */\n      dup1\n        /* \"#utility.yul\":18094:18106   */\n      revert\n        /* \"#utility.yul\":18118:18235   */\n    tag_122:\n        /* \"#utility.yul\":18227:18228   */\n      0x00\n        /* \"#utility.yul\":18224:18225   */\n      dup1\n        /* \"#utility.yul\":18217:18229   */\n      revert\n        /* \"#utility.yul\":18241:18343   */\n    tag_189:\n        /* \"#utility.yul\":18282:18288   */\n      0x00\n        /* \"#utility.yul\":18333:18335   */\n      0x1f\n        /* \"#utility.yul\":18329:18336   */\n      not\n        /* \"#utility.yul\":18324:18326   */\n      0x1f\n        /* \"#utility.yul\":18317:18322   */\n      dup4\n        /* \"#utility.yul\":18313:18327   */\n      add\n        /* \"#utility.yul\":18309:18337   */\n      and\n        /* \"#utility.yul\":18299:18337   */\n      swap1\n      pop\n        /* \"#utility.yul\":18241:18343   */\n      swap2\n      swap1\n      pop\n      jump\t// out\n        /* \"#utility.yul\":18349:18523   */\n    tag_201:\n        /* \"#utility.yul\":18489:18515   */\n      0x6d6f7265207468616e2073656e642074686520746f6b656e0000000000000000\n        /* \"#utility.yul\":18485:18486   */\n      0x00\n        /* \"#utility.yul\":18477:18483   */\n      dup3\n        /* \"#utility.yul\":18473:18487   */\n      add\n        /* \"#utility.yul\":18466:18516   */\n      mstore\n        /* \"#utility.yul\":18349:18523   */\n      pop\n      jump\t// out\n        /* \"#utility.yul\":18529:18705   */\n    tag_206:\n        /* \"#utility.yul\":18669:18697   */\n      0x6368616972706572736f6e206973206e6f7420616c7269677468000000000000\n        /* \"#utility.yul\":18665:18666   */\n      0x00\n        /* \"#utility.yul\":18657:18663   */\n      dup3\n        /* \"#utility.yul\":18653:18667   */\n      add\n        /* \"#utility.yul\":18646:18698   */\n      mstore\n        /* \"#utility.yul\":18529:18705   */\n      pop\n      jump\t// out\n        /* \"#utility.yul\":18711:18884   */\n    tag_211:\n        /* \"#utility.yul\":18851:18876   */\n      0x63757272656e742070726f706f73616c20636c6f736564000000000000000000\n        /* \"#utility.yul\":18847:18848   */\n      0x00\n        /* \"#utility.yul\":18839:18845   */\n      dup3\n        /* \"#utility.yul\":18835:18849   */\n      add\n        /* \"#utility.yul\":18828:18877   */\n      mstore\n        /* \"#utility.yul\":18711:18884   */\n      pop\n      jump\t// out\n        /* \"#utility.yul\":18890:19059   */\n    tag_216:\n        /* \"#utility.yul\":19030:19051   */\n      0x766f74657220616c726561647920766f74656400000000000000000000000000\n        /* \"#utility.yul\":19026:19027   */\n      0x00\n        /* \"#utility.yul\":19018:19024   */\n      dup3\n        /* \"#utility.yul\":19014:19028   */\n      add\n        /* \"#utility.yul\":19007:19052   */\n      mstore\n        /* \"#utility.yul\":18890:19059   */\n      pop\n      jump\t// out\n        /* \"#utility.yul\":19065:19187   */\n    tag_108:\n        /* \"#utility.yul\":19138:19162   */\n      tag_314\n        /* \"#utility.yul\":19156:19161   */\n      dup2\n        /* \"#utility.yul\":19138:19162   */\n      tag_179\n      jump\t// in\n    tag_314:\n        /* \"#utility.yul\":19131:19136   */\n      dup2\n        /* \"#utility.yul\":19128:19163   */\n      eq\n        /* \"#utility.yul\":19118:19181   */\n      tag_315\n      jumpi\n        /* \"#utility.yul\":19177:19178   */\n      0x00\n        /* \"#utility.yul\":19174:19175   */\n      dup1\n        /* \"#utility.yul\":19167:19179   */\n      revert\n        /* \"#utility.yul\":19118:19181   */\n    tag_315:\n        /* \"#utility.yul\":19065:19187   */\n      pop\n      jump\t// out\n        /* \"#utility.yul\":19193:19315   */\n    tag_118:\n        /* \"#utility.yul\":19266:19290   */\n      tag_317\n        /* \"#utility.yul\":19284:19289   */\n      dup2\n        /* \"#utility.yul\":19266:19290   */\n      tag_233\n      jump\t// in\n    tag_317:\n        /* \"#utility.yul\":19259:19264   */\n      dup2\n        /* \"#utility.yul\":19256:19291   */\n      eq\n        /* \"#utility.yul\":19246:19309   */\n      tag_318\n      jumpi\n        /* \"#utility.yul\":19305:19306   */\n      0x00\n        /* \"#utility.yul\":19302:19303   */\n      dup1\n        /* \"#utility.yul\":19295:19307   */\n      revert\n        /* \"#utility.yul\":19246:19309   */\n    tag_318:\n        /* \"#utility.yul\":19193:19315   */\n      pop\n      jump\t// out\n\n    auxdata: 0xa26469706673582212201703db7019575f6d76806172061965d2cc2e866b53ec1dfee51d38a2dc9ee24364736f6c63430008070033\n}\n",
				"bytecode": {
					"linkReferences": {},
					"object": "6080604052600060015534801561001557600080fd5b506114d2806100256000396000f3fe6080604052600436106100555760003560e01c80630e49e0581461005a57806324108475146100975780632542bf06146100b35780632e4176cf146100dc57806368c720181461010757806376e9d62014610132575b600080fd5b34801561006657600080fd5b50610081600480360381019061007c9190610c24565b61016f565b60405161008e919061100a565b60405180910390f35b6100b160048036038101906100ac9190610c51565b610301565b005b3480156100bf57600080fd5b506100da60048036038101906100d59190610bf7565b6106f9565b005b3480156100e857600080fd5b506100f161081e565b6040516100fe9190610fef565b60405180910390f35b34801561011357600080fd5b5061011c610842565b60405161012991906110f0565b60405180910390f35b34801561013e57600080fd5b5061015960048036038101906101549190610c24565b610848565b60405161016691906110ce565b60405180910390f35b6060600060026000848152602001908152602001600020600201805480602002602001604051908101604052809291908181526020016000905b828210156102f257838290600052602060002090600502016040518060a0016040529081600082015481526020016001820160009054906101000a900473ffffffffffffffffffffffffffffffffffffffff1673ffffffffffffffffffffffffffffffffffffffff1673ffffffffffffffffffffffffffffffffffffffff168152602001600282015481526020016003820160009054906101000a900460ff161515151581526020016004820180546102619061126c565b80601f016020809104026020016040519081016040528092919081815260200182805461028d9061126c565b80156102da5780601f106102af576101008083540402835291602001916102da565b820191906000526020600020905b8154815290600101906020018083116102bd57829003601f168201915b505050505081525050815260200190600101906101a9565b50505050905080915050919050565b338260001515600360008473ffffffffffffffffffffffffffffffffffffffff1673ffffffffffffffffffffffffffffffffffffffff168152602001908152602001600020600083815260200190815260200160002060030160009054906101000a900460ff161515146103aa576040517f08c379a00000000000000000000000000000000000000000000000000000000081526004016103a1906110ae565b60405180910390fd5b6002600082815260200190815260200160002060000160009054906101000a900473ffffffffffffffffffffffffffffffffffffffff1673ffffffffffffffffffffffffffffffffffffffff163373ffffffffffffffffffffffffffffffffffffffff16141561044f576040517f08c379a00000000000000000000000000000000000000000000000000000000081526004016104469061106e565b60405180910390fd5b600115156002600086815260200190815260200160002060030160009054906101000a900460ff161515146104b9576040517f08c379a00000000000000000000000000000000000000000000000000000000081526004016104b09061108e565b60405180910390fd5b670de0b6b3a76400003410610503576040517f08c379a00000000000000000000000000000000000000000000000000000000081526004016104fa9061104e565b60405180910390fd5b60006040518060a00160405280600260008881526020019081526020016000206001015481526020013373ffffffffffffffffffffffffffffffffffffffff168152602001348152602001600115158152602001858152509050600260008681526020019081526020016000206002018190806001815401808255809150506001900390600052602060002090600502016000909190919091506000820151816000015560208201518160010160006101000a81548173ffffffffffffffffffffffffffffffffffffffff021916908373ffffffffffffffffffffffffffffffffffffffff1602179055506040820151816002015560608201518160030160006101000a81548160ff0219169083151502179055506080820151816004019080519060200190610634929190610a70565b5050506001600360003373ffffffffffffffffffffffffffffffffffffffff1673ffffffffffffffffffffffffffffffffffffffff168152602001908152602001600020600087815260200190815260200160002060030160006101000a81548160ff021916908315150217905550843373ffffffffffffffffffffffffffffffffffffffff167ff55ffe9f3fbadbb017ad72a5d765218aa1b250b1ac67285e8916bc5ad339c293866040516106ea919061102c565b60405180910390a35050505050565b80600260006001548152602001908152602001600020600101819055503360026000600154815260200190815260200160002060000160006101000a81548173ffffffffffffffffffffffffffffffffffffffff021916908373ffffffffffffffffffffffffffffffffffffffff160217905550600160026000600154815260200190815260200160002060030160006101000a81548160ff021916908315150217905550600154600260006001548152602001908152602001600020600401819055503373ffffffffffffffffffffffffffffffffffffffff166001547fdfe8375e6feacee508dd21ad617b77eecc58258684b2d6c36c2b59ce24553b5e60405160405180910390a360016000815480929190610816906112cf565b919050555050565b60008054906101000a900473ffffffffffffffffffffffffffffffffffffffff1681565b60015481565b610850610af6565b600260008381526020019081526020016000206040518060a00160405290816000820160009054906101000a900473ffffffffffffffffffffffffffffffffffffffff1673ffffffffffffffffffffffffffffffffffffffff1673ffffffffffffffffffffffffffffffffffffffff1681526020016001820154815260200160028201805480602002602001604051908101604052809291908181526020016000905b82821015610a3c57838290600052602060002090600502016040518060a0016040529081600082015481526020016001820160009054906101000a900473ffffffffffffffffffffffffffffffffffffffff1673ffffffffffffffffffffffffffffffffffffffff1673ffffffffffffffffffffffffffffffffffffffff168152602001600282015481526020016003820160009054906101000a900460ff161515151581526020016004820180546109ab9061126c565b80601f01602080910402602001604051908101604052809291908181526020018280546109d79061126c565b8015610a245780601f106109f957610100808354040283529160200191610a24565b820191906000526020600020905b815481529060010190602001808311610a0757829003601f168201915b505050505081525050815260200190600101906108f3565b5050505081526020016003820160009054906101000a900460ff161515151581526020016004820154815250509050919050565b828054610a7c9061126c565b90600052602060002090601f016020900481019282610a9e5760008555610ae5565b82601f10610ab757805160ff1916838001178555610ae5565b82800160010185558215610ae5579182015b82811115610ae4578251825591602001919060010190610ac9565b5b509050610af29190610b40565b5090565b6040518060a00160405280600073ffffffffffffffffffffffffffffffffffffffff1681526020016000801916815260200160608152602001600015158152602001600081525090565b5b80821115610b59576000816000905550600101610b41565b5090565b6000610b70610b6b84611130565b61110b565b905082815260208101848484011115610b8c57610b8b6113aa565b5b610b9784828561122a565b509392505050565b600081359050610bae8161146e565b92915050565b600082601f830112610bc957610bc86113a5565b5b8135610bd9848260208601610b5d565b91505092915050565b600081359050610bf181611485565b92915050565b600060208284031215610c0d57610c0c6113b4565b5b6000610c1b84828501610b9f565b91505092915050565b600060208284031215610c3a57610c396113b4565b5b6000610c4884828501610be2565b91505092915050565b60008060408385031215610c6857610c676113b4565b5b6000610c7685828601610be2565b925050602083013567ffffffffffffffff811115610c9757610c966113af565b5b610ca385828601610bb4565b9150509250929050565b6000610cb98383610f5b565b905092915050565b610cca816111d8565b82525050565b610cd9816111d8565b82525050565b6000610cea82611171565b610cf48185611194565b935083602082028501610d0685611161565b8060005b85811015610d425784840389528151610d238582610cad565b9450610d2e83611187565b925060208a01995050600181019050610d0a565b50829750879550505050505092915050565b6000610d5f82611171565b610d6981856111a5565b935083602082028501610d7b85611161565b8060005b85811015610db75784840389528151610d988582610cad565b9450610da383611187565b925060208a01995050600181019050610d7f565b50829750879550505050505092915050565b610dd2816111ea565b82525050565b610de1816111f6565b82525050565b6000610df28261117c565b610dfc81856111b6565b9350610e0c818560208601611239565b610e15816113b9565b840191505092915050565b6000610e2b8261117c565b610e3581856111c7565b9350610e45818560208601611239565b610e4e816113b9565b840191505092915050565b6000610e666018836111c7565b9150610e71826113ca565b602082019050919050565b6000610e89601a836111c7565b9150610e94826113f3565b602082019050919050565b6000610eac6017836111c7565b9150610eb78261141c565b602082019050919050565b6000610ecf6013836111c7565b9150610eda82611445565b602082019050919050565b600060a083016000830151610efd6000860182610cc1565b506020830151610f106020860182610dd8565b5060408301518482036040860152610f288282610cdf565b9150506060830151610f3d6060860182610dc9565b506080830151610f506080860182610fd1565b508091505092915050565b600060a083016000830151610f736000860182610dd8565b506020830151610f866020860182610cc1565b506040830151610f996040860182610fd1565b506060830151610fac6060860182610dc9565b5060808301518482036080860152610fc48282610de7565b9150508091505092915050565b610fda81611220565b82525050565b610fe981611220565b82525050565b60006020820190506110046000830184610cd0565b92915050565b600060208201905081810360008301526110248184610d54565b905092915050565b600060208201905081810360008301526110468184610e20565b905092915050565b6000602082019050818103600083015261106781610e59565b9050919050565b6000602082019050818103600083015261108781610e7c565b9050919050565b600060208201905081810360008301526110a781610e9f565b9050919050565b600060208201905081810360008301526110c781610ec2565b9050919050565b600060208201905081810360008301526110e88184610ee5565b905092915050565b60006020820190506111056000830184610fe0565b92915050565b6000611115611126565b9050611121828261129e565b919050565b6000604051905090565b600067ffffffffffffffff82111561114b5761114a611376565b5b611154826113b9565b9050602081019050919050565b6000819050602082019050919050565b600081519050919050565b600081519050919050565b6000602082019050919050565b600082825260208201905092915050565b600082825260208201905092915050565b600082825260208201905092915050565b600082825260208201905092915050565b60006111e382611200565b9050919050565b60008115159050919050565b6000819050919050565b600073ffffffffffffffffffffffffffffffffffffffff82169050919050565b6000819050919050565b82818337600083830152505050565b60005b8381101561125757808201518184015260208101905061123c565b83811115611266576000848401525b50505050565b6000600282049050600182168061128457607f821691505b6020821081141561129857611297611347565b5b50919050565b6112a7826113b9565b810181811067ffffffffffffffff821117156112c6576112c5611376565b5b80604052505050565b60006112da82611220565b91507fffffffffffffffffffffffffffffffffffffffffffffffffffffffffffffffff82141561130d5761130c611318565b5b600182019050919050565b7f4e487b7100000000000000000000000000000000000000000000000000000000600052601160045260246000fd5b7f4e487b7100000000000000000000000000000000000000000000000000000000600052602260045260246000fd5b7f4e487b7100000000000000000000000000000000000000000000000000000000600052604160045260246000fd5b600080fd5b600080fd5b600080fd5b600080fd5b6000601f19601f8301169050919050565b7f6d6f7265207468616e2073656e642074686520746f6b656e0000000000000000600082015250565b7f6368616972706572736f6e206973206e6f7420616c7269677468000000000000600082015250565b7f63757272656e742070726f706f73616c20636c6f736564000000000000000000600082015250565b7f766f74657220616c726561647920766f74656400000000000000000000000000600082015250565b611477816111f6565b811461148257600080fd5b50565b61148e81611220565b811461149957600080fd5b5056fea26469706673582212201703db7019575f6d76806172061965d2cc2e866b53ec1dfee51d38a2dc9ee24364736f6c63430008070033",
					"opcodes": "PUSH1 0x80 PUSH1 0x40 MSTORE PUSH1 0x0 PUSH1 0x1 SSTORE CALLVALUE DUP1 ISZERO PUSH2 0x15 JUMPI PUSH1 0x0 DUP1 REVERT JUMPDEST POP PUSH2 0x14D2 DUP1 PUSH2 0x25 PUSH1 0x0 CODECOPY PUSH1 0x0 RETURN INVALID PUSH1 0x80 PUSH1 0x40 MSTORE PUSH1 0x4 CALLDATASIZE LT PUSH2 0x55 JUMPI PUSH1 0x0 CALLDATALOAD PUSH1 0xE0 SHR DUP1 PUSH4 0xE49E058 EQ PUSH2 0x5A JUMPI DUP1 PUSH4 0x24108475 EQ PUSH2 0x97 JUMPI DUP1 PUSH4 0x2542BF06 EQ PUSH2 0xB3 JUMPI DUP1 PUSH4 0x2E4176CF EQ PUSH2 0xDC JUMPI DUP1 PUSH4 0x68C72018 EQ PUSH2 0x107 JUMPI DUP1 PUSH4 0x76E9D620 EQ PUSH2 0x132 JUMPI JUMPDEST PUSH1 0x0 DUP1 REVERT JUMPDEST CALLVALUE DUP1 ISZERO PUSH2 0x66 JUMPI PUSH1 0x0 DUP1 REVERT JUMPDEST POP PUSH2 0x81 PUSH1 0x4 DUP1 CALLDATASIZE SUB DUP2 ADD SWAP1 PUSH2 0x7C SWAP2 SWAP1 PUSH2 0xC24 JUMP JUMPDEST PUSH2 0x16F JUMP JUMPDEST PUSH1 0x40 MLOAD PUSH2 0x8E SWAP2 SWAP1 PUSH2 0x100A JUMP JUMPDEST PUSH1 0x40 MLOAD DUP1 SWAP2 SUB SWAP1 RETURN JUMPDEST PUSH2 0xB1 PUSH1 0x4 DUP1 CALLDATASIZE SUB DUP2 ADD SWAP1 PUSH2 0xAC SWAP2 SWAP1 PUSH2 0xC51 JUMP JUMPDEST PUSH2 0x301 JUMP JUMPDEST STOP JUMPDEST CALLVALUE DUP1 ISZERO PUSH2 0xBF JUMPI PUSH1 0x0 DUP1 REVERT JUMPDEST POP PUSH2 0xDA PUSH1 0x4 DUP1 CALLDATASIZE SUB DUP2 ADD SWAP1 PUSH2 0xD5 SWAP2 SWAP1 PUSH2 0xBF7 JUMP JUMPDEST PUSH2 0x6F9 JUMP JUMPDEST STOP JUMPDEST CALLVALUE DUP1 ISZERO PUSH2 0xE8 JUMPI PUSH1 0x0 DUP1 REVERT JUMPDEST POP PUSH2 0xF1 PUSH2 0x81E JUMP JUMPDEST PUSH1 0x40 MLOAD PUSH2 0xFE SWAP2 SWAP1 PUSH2 0xFEF JUMP JUMPDEST PUSH1 0x40 MLOAD DUP1 SWAP2 SUB SWAP1 RETURN JUMPDEST CALLVALUE DUP1 ISZERO PUSH2 0x113 JUMPI PUSH1 0x0 DUP1 REVERT JUMPDEST POP PUSH2 0x11C PUSH2 0x842 JUMP JUMPDEST PUSH1 0x40 MLOAD PUSH2 0x129 SWAP2 SWAP1 PUSH2 0x10F0 JUMP JUMPDEST PUSH1 0x40 MLOAD DUP1 SWAP2 SUB SWAP1 RETURN JUMPDEST CALLVALUE DUP1 ISZERO PUSH2 0x13E JUMPI PUSH1 0x0 DUP1 REVERT JUMPDEST POP PUSH2 0x159 PUSH1 0x4 DUP1 CALLDATASIZE SUB DUP2 ADD SWAP1 PUSH2 0x154 SWAP2 SWAP1 PUSH2 0xC24 JUMP JUMPDEST PUSH2 0x848 JUMP JUMPDEST PUSH1 0x40 MLOAD PUSH2 0x166 SWAP2 SWAP1 PUSH2 0x10CE JUMP JUMPDEST PUSH1 0x40 MLOAD DUP1 SWAP2 SUB SWAP1 RETURN JUMPDEST PUSH1 0x60 PUSH1 0x0 PUSH1 0x2 PUSH1 0x0 DUP5 DUP2 MSTORE PUSH1 0x20 ADD SWAP1 DUP2 MSTORE PUSH1 0x20 ADD PUSH1 0x0 KECCAK256 PUSH1 0x2 ADD DUP1 SLOAD DUP1 PUSH1 0x20 MUL PUSH1 0x20 ADD PUSH1 0x40 MLOAD SWAP1 DUP2 ADD PUSH1 0x40 MSTORE DUP1 SWAP3 SWAP2 SWAP1 DUP2 DUP2 MSTORE PUSH1 0x20 ADD PUSH1 0x0 SWAP1 JUMPDEST DUP3 DUP3 LT ISZERO PUSH2 0x2F2 JUMPI DUP4 DUP3 SWAP1 PUSH1 0x0 MSTORE PUSH1 0x20 PUSH1 0x0 KECCAK256 SWAP1 PUSH1 0x5 MUL ADD PUSH1 0x40 MLOAD DUP1 PUSH1 0xA0 ADD PUSH1 0x40 MSTORE SWAP1 DUP2 PUSH1 0x0 DUP3 ADD SLOAD DUP2 MSTORE PUSH1 0x20 ADD PUSH1 0x1 DUP3 ADD PUSH1 0x0 SWAP1 SLOAD SWAP1 PUSH2 0x100 EXP SWAP1 DIV PUSH20 0xFFFFFFFFFFFFFFFFFFFFFFFFFFFFFFFFFFFFFFFF AND PUSH20 0xFFFFFFFFFFFFFFFFFFFFFFFFFFFFFFFFFFFFFFFF AND PUSH20 0xFFFFFFFFFFFFFFFFFFFFFFFFFFFFFFFFFFFFFFFF AND DUP2 MSTORE PUSH1 0x20 ADD PUSH1 0x2 DUP3 ADD SLOAD DUP2 MSTORE PUSH1 0x20 ADD PUSH1 0x3 DUP3 ADD PUSH1 0x0 SWAP1 SLOAD SWAP1 PUSH2 0x100 EXP SWAP1 DIV PUSH1 0xFF AND ISZERO ISZERO ISZERO ISZERO DUP2 MSTORE PUSH1 0x20 ADD PUSH1 0x4 DUP3 ADD DUP1 SLOAD PUSH2 0x261 SWAP1 PUSH2 0x126C JUMP JUMPDEST DUP1 PUSH1 0x1F ADD PUSH1 0x20 DUP1 SWAP2 DIV MUL PUSH1 0x20 ADD PUSH1 0x40 MLOAD SWAP1 DUP2 ADD PUSH1 0x40 MSTORE DUP1 SWAP3 SWAP2 SWAP1 DUP2 DUP2 MSTORE PUSH1 0x20 ADD DUP3 DUP1 SLOAD PUSH2 0x28D SWAP1 PUSH2 0x126C JUMP JUMPDEST DUP1 ISZERO PUSH2 0x2DA JUMPI DUP1 PUSH1 0x1F LT PUSH2 0x2AF JUMPI PUSH2 0x100 DUP1 DUP4 SLOAD DIV MUL DUP4 MSTORE SWAP2 PUSH1 0x20 ADD SWAP2 PUSH2 0x2DA JUMP JUMPDEST DUP3 ADD SWAP2 SWAP1 PUSH1 0x0 MSTORE PUSH1 0x20 PUSH1 0x0 KECCAK256 SWAP1 JUMPDEST DUP2 SLOAD DUP2 MSTORE SWAP1 PUSH1 0x1 ADD SWAP1 PUSH1 0x20 ADD DUP1 DUP4 GT PUSH2 0x2BD JUMPI DUP3 SWAP1 SUB PUSH1 0x1F AND DUP3 ADD SWAP2 JUMPDEST POP POP POP POP POP DUP2 MSTORE POP POP DUP2 MSTORE PUSH1 0x20 ADD SWAP1 PUSH1 0x1 ADD SWAP1 PUSH2 0x1A9 JUMP JUMPDEST POP POP POP POP SWAP1 POP DUP1 SWAP2 POP POP SWAP2 SWAP1 POP JUMP JUMPDEST CALLER DUP3 PUSH1 0x0 ISZERO ISZERO PUSH1 0x3 PUSH1 0x0 DUP5 PUSH20 0xFFFFFFFFFFFFFFFFFFFFFFFFFFFFFFFFFFFFFFFF AND PUSH20 0xFFFFFFFFFFFFFFFFFFFFFFFFFFFFFFFFFFFFFFFF AND DUP2 MSTORE PUSH1 0x20 ADD SWAP1 DUP2 MSTORE PUSH1 0x20 ADD PUSH1 0x0 KECCAK256 PUSH1 0x0 DUP4 DUP2 MSTORE PUSH1 0x20 ADD SWAP1 DUP2 MSTORE PUSH1 0x20 ADD PUSH1 0x0 KECCAK256 PUSH1 0x3 ADD PUSH1 0x0 SWAP1 SLOAD SWAP1 PUSH2 0x100 EXP SWAP1 DIV PUSH1 0xFF AND ISZERO ISZERO EQ PUSH2 0x3AA JUMPI PUSH1 0x40 MLOAD PUSH32 0x8C379A000000000000000000000000000000000000000000000000000000000 DUP2 MSTORE PUSH1 0x4 ADD PUSH2 0x3A1 SWAP1 PUSH2 0x10AE JUMP JUMPDEST PUSH1 0x40 MLOAD DUP1 SWAP2 SUB SWAP1 REVERT JUMPDEST PUSH1 0x2 PUSH1 0x0 DUP3 DUP2 MSTORE PUSH1 0x20 ADD SWAP1 DUP2 MSTORE PUSH1 0x20 ADD PUSH1 0x0 KECCAK256 PUSH1 0x0 ADD PUSH1 0x0 SWAP1 SLOAD SWAP1 PUSH2 0x100 EXP SWAP1 DIV PUSH20 0xFFFFFFFFFFFFFFFFFFFFFFFFFFFFFFFFFFFFFFFF AND PUSH20 0xFFFFFFFFFFFFFFFFFFFFFFFFFFFFFFFFFFFFFFFF AND CALLER PUSH20 0xFFFFFFFFFFFFFFFFFFFFFFFFFFFFFFFFFFFFFFFF AND EQ ISZERO PUSH2 0x44F JUMPI PUSH1 0x40 MLOAD PUSH32 0x8C379A000000000000000000000000000000000000000000000000000000000 DUP2 MSTORE PUSH1 0x4 ADD PUSH2 0x446 SWAP1 PUSH2 0x106E JUMP JUMPDEST PUSH1 0x40 MLOAD DUP1 SWAP2 SUB SWAP1 REVERT JUMPDEST PUSH1 0x1 ISZERO ISZERO PUSH1 0x2 PUSH1 0x0 DUP7 DUP2 MSTORE PUSH1 0x20 ADD SWAP1 DUP2 MSTORE PUSH1 0x20 ADD PUSH1 0x0 KECCAK256 PUSH1 0x3 ADD PUSH1 0x0 SWAP1 SLOAD SWAP1 PUSH2 0x100 EXP SWAP1 DIV PUSH1 0xFF AND ISZERO ISZERO EQ PUSH2 0x4B9 JUMPI PUSH1 0x40 MLOAD PUSH32 0x8C379A000000000000000000000000000000000000000000000000000000000 DUP2 MSTORE PUSH1 0x4 ADD PUSH2 0x4B0 SWAP1 PUSH2 0x108E JUMP JUMPDEST PUSH1 0x40 MLOAD DUP1 SWAP2 SUB SWAP1 REVERT JUMPDEST PUSH8 0xDE0B6B3A7640000 CALLVALUE LT PUSH2 0x503 JUMPI PUSH1 0x40 MLOAD PUSH32 0x8C379A000000000000000000000000000000000000000000000000000000000 DUP2 MSTORE PUSH1 0x4 ADD PUSH2 0x4FA SWAP1 PUSH2 0x104E JUMP JUMPDEST PUSH1 0x40 MLOAD DUP1 SWAP2 SUB SWAP1 REVERT JUMPDEST PUSH1 0x0 PUSH1 0x40 MLOAD DUP1 PUSH1 0xA0 ADD PUSH1 0x40 MSTORE DUP1 PUSH1 0x2 PUSH1 0x0 DUP9 DUP2 MSTORE PUSH1 0x20 ADD SWAP1 DUP2 MSTORE PUSH1 0x20 ADD PUSH1 0x0 KECCAK256 PUSH1 0x1 ADD SLOAD DUP2 MSTORE PUSH1 0x20 ADD CALLER PUSH20 0xFFFFFFFFFFFFFFFFFFFFFFFFFFFFFFFFFFFFFFFF AND DUP2 MSTORE PUSH1 0x20 ADD CALLVALUE DUP2 MSTORE PUSH1 0x20 ADD PUSH1 0x1 ISZERO ISZERO DUP2 MSTORE PUSH1 0x20 ADD DUP6 DUP2 MSTORE POP SWAP1 POP PUSH1 0x2 PUSH1 0x0 DUP7 DUP2 MSTORE PUSH1 0x20 ADD SWAP1 DUP2 MSTORE PUSH1 0x20 ADD PUSH1 0x0 KECCAK256 PUSH1 0x2 ADD DUP2 SWAP1 DUP1 PUSH1 0x1 DUP2 SLOAD ADD DUP1 DUP3 SSTORE DUP1 SWAP2 POP POP PUSH1 0x1 SWAP1 SUB SWAP1 PUSH1 0x0 MSTORE PUSH1 0x20 PUSH1 0x0 KECCAK256 SWAP1 PUSH1 0x5 MUL ADD PUSH1 0x0 SWAP1 SWAP2 SWAP1 SWAP2 SWAP1 SWAP2 POP PUSH1 0x0 DUP3 ADD MLOAD DUP2 PUSH1 0x0 ADD SSTORE PUSH1 0x20 DUP3 ADD MLOAD DUP2 PUSH1 0x1 ADD PUSH1 0x0 PUSH2 0x100 EXP DUP2 SLOAD DUP2 PUSH20 0xFFFFFFFFFFFFFFFFFFFFFFFFFFFFFFFFFFFFFFFF MUL NOT AND SWAP1 DUP4 PUSH20 0xFFFFFFFFFFFFFFFFFFFFFFFFFFFFFFFFFFFFFFFF AND MUL OR SWAP1 SSTORE POP PUSH1 0x40 DUP3 ADD MLOAD DUP2 PUSH1 0x2 ADD SSTORE PUSH1 0x60 DUP3 ADD MLOAD DUP2 PUSH1 0x3 ADD PUSH1 0x0 PUSH2 0x100 EXP DUP2 SLOAD DUP2 PUSH1 0xFF MUL NOT AND SWAP1 DUP4 ISZERO ISZERO MUL OR SWAP1 SSTORE POP PUSH1 0x80 DUP3 ADD MLOAD DUP2 PUSH1 0x4 ADD SWAP1 DUP1 MLOAD SWAP1 PUSH1 0x20 ADD SWAP1 PUSH2 0x634 SWAP3 SWAP2 SWAP1 PUSH2 0xA70 JUMP JUMPDEST POP POP POP PUSH1 0x1 PUSH1 0x3 PUSH1 0x0 CALLER PUSH20 0xFFFFFFFFFFFFFFFFFFFFFFFFFFFFFFFFFFFFFFFF AND PUSH20 0xFFFFFFFFFFFFFFFFFFFFFFFFFFFFFFFFFFFFFFFF AND DUP2 MSTORE PUSH1 0x20 ADD SWAP1 DUP2 MSTORE PUSH1 0x20 ADD PUSH1 0x0 KECCAK256 PUSH1 0x0 DUP8 DUP2 MSTORE PUSH1 0x20 ADD SWAP1 DUP2 MSTORE PUSH1 0x20 ADD PUSH1 0x0 KECCAK256 PUSH1 0x3 ADD PUSH1 0x0 PUSH2 0x100 EXP DUP2 SLOAD DUP2 PUSH1 0xFF MUL NOT AND SWAP1 DUP4 ISZERO ISZERO MUL OR SWAP1 SSTORE POP DUP5 CALLER PUSH20 0xFFFFFFFFFFFFFFFFFFFFFFFFFFFFFFFFFFFFFFFF AND PUSH32 0xF55FFE9F3FBADBB017AD72A5D765218AA1B250B1AC67285E8916BC5AD339C293 DUP7 PUSH1 0x40 MLOAD PUSH2 0x6EA SWAP2 SWAP1 PUSH2 0x102C JUMP JUMPDEST PUSH1 0x40 MLOAD DUP1 SWAP2 SUB SWAP1 LOG3 POP POP POP POP POP JUMP JUMPDEST DUP1 PUSH1 0x2 PUSH1 0x0 PUSH1 0x1 SLOAD DUP2 MSTORE PUSH1 0x20 ADD SWAP1 DUP2 MSTORE PUSH1 0x20 ADD PUSH1 0x0 KECCAK256 PUSH1 0x1 ADD DUP2 SWAP1 SSTORE POP CALLER PUSH1 0x2 PUSH1 0x0 PUSH1 0x1 SLOAD DUP2 MSTORE PUSH1 0x20 ADD SWAP1 DUP2 MSTORE PUSH1 0x20 ADD PUSH1 0x0 KECCAK256 PUSH1 0x0 ADD PUSH1 0x0 PUSH2 0x100 EXP DUP2 SLOAD DUP2 PUSH20 0xFFFFFFFFFFFFFFFFFFFFFFFFFFFFFFFFFFFFFFFF MUL NOT AND SWAP1 DUP4 PUSH20 0xFFFFFFFFFFFFFFFFFFFFFFFFFFFFFFFFFFFFFFFF AND MUL OR SWAP1 SSTORE POP PUSH1 0x1 PUSH1 0x2 PUSH1 0x0 PUSH1 0x1 SLOAD DUP2 MSTORE PUSH1 0x20 ADD SWAP1 DUP2 MSTORE PUSH1 0x20 ADD PUSH1 0x0 KECCAK256 PUSH1 0x3 ADD PUSH1 0x0 PUSH2 0x100 EXP DUP2 SLOAD DUP2 PUSH1 0xFF MUL NOT AND SWAP1 DUP4 ISZERO ISZERO MUL OR SWAP1 SSTORE POP PUSH1 0x1 SLOAD PUSH1 0x2 PUSH1 0x0 PUSH1 0x1 SLOAD DUP2 MSTORE PUSH1 0x20 ADD SWAP1 DUP2 MSTORE PUSH1 0x20 ADD PUSH1 0x0 KECCAK256 PUSH1 0x4 ADD DUP2 SWAP1 SSTORE POP CALLER PUSH20 0xFFFFFFFFFFFFFFFFFFFFFFFFFFFFFFFFFFFFFFFF AND PUSH1 0x1 SLOAD PUSH32 0xDFE8375E6FEACEE508DD21AD617B77EECC58258684B2D6C36C2B59CE24553B5E PUSH1 0x40 MLOAD PUSH1 0x40 MLOAD DUP1 SWAP2 SUB SWAP1 LOG3 PUSH1 0x1 PUSH1 0x0 DUP2 SLOAD DUP1 SWAP3 SWAP2 SWAP1 PUSH2 0x816 SWAP1 PUSH2 0x12CF JUMP JUMPDEST SWAP2 SWAP1 POP SSTORE POP POP JUMP JUMPDEST PUSH1 0x0 DUP1 SLOAD SWAP1 PUSH2 0x100 EXP SWAP1 DIV PUSH20 0xFFFFFFFFFFFFFFFFFFFFFFFFFFFFFFFFFFFFFFFF AND DUP2 JUMP JUMPDEST PUSH1 0x1 SLOAD DUP2 JUMP JUMPDEST PUSH2 0x850 PUSH2 0xAF6 JUMP JUMPDEST PUSH1 0x2 PUSH1 0x0 DUP4 DUP2 MSTORE PUSH1 0x20 ADD SWAP1 DUP2 MSTORE PUSH1 0x20 ADD PUSH1 0x0 KECCAK256 PUSH1 0x40 MLOAD DUP1 PUSH1 0xA0 ADD PUSH1 0x40 MSTORE SWAP1 DUP2 PUSH1 0x0 DUP3 ADD PUSH1 0x0 SWAP1 SLOAD SWAP1 PUSH2 0x100 EXP SWAP1 DIV PUSH20 0xFFFFFFFFFFFFFFFFFFFFFFFFFFFFFFFFFFFFFFFF AND PUSH20 0xFFFFFFFFFFFFFFFFFFFFFFFFFFFFFFFFFFFFFFFF AND PUSH20 0xFFFFFFFFFFFFFFFFFFFFFFFFFFFFFFFFFFFFFFFF AND DUP2 MSTORE PUSH1 0x20 ADD PUSH1 0x1 DUP3 ADD SLOAD DUP2 MSTORE PUSH1 0x20 ADD PUSH1 0x2 DUP3 ADD DUP1 SLOAD DUP1 PUSH1 0x20 MUL PUSH1 0x20 ADD PUSH1 0x40 MLOAD SWAP1 DUP2 ADD PUSH1 0x40 MSTORE DUP1 SWAP3 SWAP2 SWAP1 DUP2 DUP2 MSTORE PUSH1 0x20 ADD PUSH1 0x0 SWAP1 JUMPDEST DUP3 DUP3 LT ISZERO PUSH2 0xA3C JUMPI DUP4 DUP3 SWAP1 PUSH1 0x0 MSTORE PUSH1 0x20 PUSH1 0x0 KECCAK256 SWAP1 PUSH1 0x5 MUL ADD PUSH1 0x40 MLOAD DUP1 PUSH1 0xA0 ADD PUSH1 0x40 MSTORE SWAP1 DUP2 PUSH1 0x0 DUP3 ADD SLOAD DUP2 MSTORE PUSH1 0x20 ADD PUSH1 0x1 DUP3 ADD PUSH1 0x0 SWAP1 SLOAD SWAP1 PUSH2 0x100 EXP SWAP1 DIV PUSH20 0xFFFFFFFFFFFFFFFFFFFFFFFFFFFFFFFFFFFFFFFF AND PUSH20 0xFFFFFFFFFFFFFFFFFFFFFFFFFFFFFFFFFFFFFFFF AND PUSH20 0xFFFFFFFFFFFFFFFFFFFFFFFFFFFFFFFFFFFFFFFF AND DUP2 MSTORE PUSH1 0x20 ADD PUSH1 0x2 DUP3 ADD SLOAD DUP2 MSTORE PUSH1 0x20 ADD PUSH1 0x3 DUP3 ADD PUSH1 0x0 SWAP1 SLOAD SWAP1 PUSH2 0x100 EXP SWAP1 DIV PUSH1 0xFF AND ISZERO ISZERO ISZERO ISZERO DUP2 MSTORE PUSH1 0x20 ADD PUSH1 0x4 DUP3 ADD DUP1 SLOAD PUSH2 0x9AB SWAP1 PUSH2 0x126C JUMP JUMPDEST DUP1 PUSH1 0x1F ADD PUSH1 0x20 DUP1 SWAP2 DIV MUL PUSH1 0x20 ADD PUSH1 0x40 MLOAD SWAP1 DUP2 ADD PUSH1 0x40 MSTORE DUP1 SWAP3 SWAP2 SWAP1 DUP2 DUP2 MSTORE PUSH1 0x20 ADD DUP3 DUP1 SLOAD PUSH2 0x9D7 SWAP1 PUSH2 0x126C JUMP JUMPDEST DUP1 ISZERO PUSH2 0xA24 JUMPI DUP1 PUSH1 0x1F LT PUSH2 0x9F9 JUMPI PUSH2 0x100 DUP1 DUP4 SLOAD DIV MUL DUP4 MSTORE SWAP2 PUSH1 0x20 ADD SWAP2 PUSH2 0xA24 JUMP JUMPDEST DUP3 ADD SWAP2 SWAP1 PUSH1 0x0 MSTORE PUSH1 0x20 PUSH1 0x0 KECCAK256 SWAP1 JUMPDEST DUP2 SLOAD DUP2 MSTORE SWAP1 PUSH1 0x1 ADD SWAP1 PUSH1 0x20 ADD DUP1 DUP4 GT PUSH2 0xA07 JUMPI DUP3 SWAP1 SUB PUSH1 0x1F AND DUP3 ADD SWAP2 JUMPDEST POP POP POP POP POP DUP2 MSTORE POP POP DUP2 MSTORE PUSH1 0x20 ADD SWAP1 PUSH1 0x1 ADD SWAP1 PUSH2 0x8F3 JUMP JUMPDEST POP POP POP POP DUP2 MSTORE PUSH1 0x20 ADD PUSH1 0x3 DUP3 ADD PUSH1 0x0 SWAP1 SLOAD SWAP1 PUSH2 0x100 EXP SWAP1 DIV PUSH1 0xFF AND ISZERO ISZERO ISZERO ISZERO DUP2 MSTORE PUSH1 0x20 ADD PUSH1 0x4 DUP3 ADD SLOAD DUP2 MSTORE POP POP SWAP1 POP SWAP2 SWAP1 POP JUMP JUMPDEST DUP3 DUP1 SLOAD PUSH2 0xA7C SWAP1 PUSH2 0x126C JUMP JUMPDEST SWAP1 PUSH1 0x0 MSTORE PUSH1 0x20 PUSH1 0x0 KECCAK256 SWAP1 PUSH1 0x1F ADD PUSH1 0x20 SWAP1 DIV DUP2 ADD SWAP3 DUP3 PUSH2 0xA9E JUMPI PUSH1 0x0 DUP6 SSTORE PUSH2 0xAE5 JUMP JUMPDEST DUP3 PUSH1 0x1F LT PUSH2 0xAB7 JUMPI DUP1 MLOAD PUSH1 0xFF NOT AND DUP4 DUP1 ADD OR DUP6 SSTORE PUSH2 0xAE5 JUMP JUMPDEST DUP3 DUP1 ADD PUSH1 0x1 ADD DUP6 SSTORE DUP3 ISZERO PUSH2 0xAE5 JUMPI SWAP2 DUP3 ADD JUMPDEST DUP3 DUP2 GT ISZERO PUSH2 0xAE4 JUMPI DUP3 MLOAD DUP3 SSTORE SWAP2 PUSH1 0x20 ADD SWAP2 SWAP1 PUSH1 0x1 ADD SWAP1 PUSH2 0xAC9 JUMP JUMPDEST JUMPDEST POP SWAP1 POP PUSH2 0xAF2 SWAP2 SWAP1 PUSH2 0xB40 JUMP JUMPDEST POP SWAP1 JUMP JUMPDEST PUSH1 0x40 MLOAD DUP1 PUSH1 0xA0 ADD PUSH1 0x40 MSTORE DUP1 PUSH1 0x0 PUSH20 0xFFFFFFFFFFFFFFFFFFFFFFFFFFFFFFFFFFFFFFFF AND DUP2 MSTORE PUSH1 0x20 ADD PUSH1 0x0 DUP1 NOT AND DUP2 MSTORE PUSH1 0x20 ADD PUSH1 0x60 DUP2 MSTORE PUSH1 0x20 ADD PUSH1 0x0 ISZERO ISZERO DUP2 MSTORE PUSH1 0x20 ADD PUSH1 0x0 DUP2 MSTORE POP SWAP1 JUMP JUMPDEST JUMPDEST DUP1 DUP3 GT ISZERO PUSH2 0xB59 JUMPI PUSH1 0x0 DUP2 PUSH1 0x0 SWAP1 SSTORE POP PUSH1 0x1 ADD PUSH2 0xB41 JUMP JUMPDEST POP SWAP1 JUMP JUMPDEST PUSH1 0x0 PUSH2 0xB70 PUSH2 0xB6B DUP5 PUSH2 0x1130 JUMP JUMPDEST PUSH2 0x110B JUMP JUMPDEST SWAP1 POP DUP3 DUP2 MSTORE PUSH1 0x20 DUP2 ADD DUP5 DUP5 DUP5 ADD GT ISZERO PUSH2 0xB8C JUMPI PUSH2 0xB8B PUSH2 0x13AA JUMP JUMPDEST JUMPDEST PUSH2 0xB97 DUP5 DUP3 DUP6 PUSH2 0x122A JUMP JUMPDEST POP SWAP4 SWAP3 POP POP POP JUMP JUMPDEST PUSH1 0x0 DUP2 CALLDATALOAD SWAP1 POP PUSH2 0xBAE DUP2 PUSH2 0x146E JUMP JUMPDEST SWAP3 SWAP2 POP POP JUMP JUMPDEST PUSH1 0x0 DUP3 PUSH1 0x1F DUP4 ADD SLT PUSH2 0xBC9 JUMPI PUSH2 0xBC8 PUSH2 0x13A5 JUMP JUMPDEST JUMPDEST DUP2 CALLDATALOAD PUSH2 0xBD9 DUP5 DUP3 PUSH1 0x20 DUP7 ADD PUSH2 0xB5D JUMP JUMPDEST SWAP2 POP POP SWAP3 SWAP2 POP POP JUMP JUMPDEST PUSH1 0x0 DUP2 CALLDATALOAD SWAP1 POP PUSH2 0xBF1 DUP2 PUSH2 0x1485 JUMP JUMPDEST SWAP3 SWAP2 POP POP JUMP JUMPDEST PUSH1 0x0 PUSH1 0x20 DUP3 DUP5 SUB SLT ISZERO PUSH2 0xC0D JUMPI PUSH2 0xC0C PUSH2 0x13B4 JUMP JUMPDEST JUMPDEST PUSH1 0x0 PUSH2 0xC1B DUP5 DUP3 DUP6 ADD PUSH2 0xB9F JUMP JUMPDEST SWAP2 POP POP SWAP3 SWAP2 POP POP JUMP JUMPDEST PUSH1 0x0 PUSH1 0x20 DUP3 DUP5 SUB SLT ISZERO PUSH2 0xC3A JUMPI PUSH2 0xC39 PUSH2 0x13B4 JUMP JUMPDEST JUMPDEST PUSH1 0x0 PUSH2 0xC48 DUP5 DUP3 DUP6 ADD PUSH2 0xBE2 JUMP JUMPDEST SWAP2 POP POP SWAP3 SWAP2 POP POP JUMP JUMPDEST PUSH1 0x0 DUP1 PUSH1 0x40 DUP4 DUP6 SUB SLT ISZERO PUSH2 0xC68 JUMPI PUSH2 0xC67 PUSH2 0x13B4 JUMP JUMPDEST JUMPDEST PUSH1 0x0 PUSH2 0xC76 DUP6 DUP3 DUP7 ADD PUSH2 0xBE2 JUMP JUMPDEST SWAP3 POP POP PUSH1 0x20 DUP4 ADD CALLDATALOAD PUSH8 0xFFFFFFFFFFFFFFFF DUP2 GT ISZERO PUSH2 0xC97 JUMPI PUSH2 0xC96 PUSH2 0x13AF JUMP JUMPDEST JUMPDEST PUSH2 0xCA3 DUP6 DUP3 DUP7 ADD PUSH2 0xBB4 JUMP JUMPDEST SWAP2 POP POP SWAP3 POP SWAP3 SWAP1 POP JUMP JUMPDEST PUSH1 0x0 PUSH2 0xCB9 DUP4 DUP4 PUSH2 0xF5B JUMP JUMPDEST SWAP1 POP SWAP3 SWAP2 POP POP JUMP JUMPDEST PUSH2 0xCCA DUP2 PUSH2 0x11D8 JUMP JUMPDEST DUP3 MSTORE POP POP JUMP JUMPDEST PUSH2 0xCD9 DUP2 PUSH2 0x11D8 JUMP JUMPDEST DUP3 MSTORE POP POP JUMP JUMPDEST PUSH1 0x0 PUSH2 0xCEA DUP3 PUSH2 0x1171 JUMP JUMPDEST PUSH2 0xCF4 DUP2 DUP6 PUSH2 0x1194 JUMP JUMPDEST SWAP4 POP DUP4 PUSH1 0x20 DUP3 MUL DUP6 ADD PUSH2 0xD06 DUP6 PUSH2 0x1161 JUMP JUMPDEST DUP1 PUSH1 0x0 JUMPDEST DUP6 DUP2 LT ISZERO PUSH2 0xD42 JUMPI DUP5 DUP5 SUB DUP10 MSTORE DUP2 MLOAD PUSH2 0xD23 DUP6 DUP3 PUSH2 0xCAD JUMP JUMPDEST SWAP5 POP PUSH2 0xD2E DUP4 PUSH2 0x1187 JUMP JUMPDEST SWAP3 POP PUSH1 0x20 DUP11 ADD SWAP10 POP POP PUSH1 0x1 DUP2 ADD SWAP1 POP PUSH2 0xD0A JUMP JUMPDEST POP DUP3 SWAP8 POP DUP8 SWAP6 POP POP POP POP POP POP SWAP3 SWAP2 POP POP JUMP JUMPDEST PUSH1 0x0 PUSH2 0xD5F DUP3 PUSH2 0x1171 JUMP JUMPDEST PUSH2 0xD69 DUP2 DUP6 PUSH2 0x11A5 JUMP JUMPDEST SWAP4 POP DUP4 PUSH1 0x20 DUP3 MUL DUP6 ADD PUSH2 0xD7B DUP6 PUSH2 0x1161 JUMP JUMPDEST DUP1 PUSH1 0x0 JUMPDEST DUP6 DUP2 LT ISZERO PUSH2 0xDB7 JUMPI DUP5 DUP5 SUB DUP10 MSTORE DUP2 MLOAD PUSH2 0xD98 DUP6 DUP3 PUSH2 0xCAD JUMP JUMPDEST SWAP5 POP PUSH2 0xDA3 DUP4 PUSH2 0x1187 JUMP JUMPDEST SWAP3 POP PUSH1 0x20 DUP11 ADD SWAP10 POP POP PUSH1 0x1 DUP2 ADD SWAP1 POP PUSH2 0xD7F JUMP JUMPDEST POP DUP3 SWAP8 POP DUP8 SWAP6 POP POP POP POP POP POP SWAP3 SWAP2 POP POP JUMP JUMPDEST PUSH2 0xDD2 DUP2 PUSH2 0x11EA JUMP JUMPDEST DUP3 MSTORE POP POP JUMP JUMPDEST PUSH2 0xDE1 DUP2 PUSH2 0x11F6 JUMP JUMPDEST DUP3 MSTORE POP POP JUMP JUMPDEST PUSH1 0x0 PUSH2 0xDF2 DUP3 PUSH2 0x117C JUMP JUMPDEST PUSH2 0xDFC DUP2 DUP6 PUSH2 0x11B6 JUMP JUMPDEST SWAP4 POP PUSH2 0xE0C DUP2 DUP6 PUSH1 0x20 DUP7 ADD PUSH2 0x1239 JUMP JUMPDEST PUSH2 0xE15 DUP2 PUSH2 0x13B9 JUMP JUMPDEST DUP5 ADD SWAP2 POP POP SWAP3 SWAP2 POP POP JUMP JUMPDEST PUSH1 0x0 PUSH2 0xE2B DUP3 PUSH2 0x117C JUMP JUMPDEST PUSH2 0xE35 DUP2 DUP6 PUSH2 0x11C7 JUMP JUMPDEST SWAP4 POP PUSH2 0xE45 DUP2 DUP6 PUSH1 0x20 DUP7 ADD PUSH2 0x1239 JUMP JUMPDEST PUSH2 0xE4E DUP2 PUSH2 0x13B9 JUMP JUMPDEST DUP5 ADD SWAP2 POP POP SWAP3 SWAP2 POP POP JUMP JUMPDEST PUSH1 0x0 PUSH2 0xE66 PUSH1 0x18 DUP4 PUSH2 0x11C7 JUMP JUMPDEST SWAP2 POP PUSH2 0xE71 DUP3 PUSH2 0x13CA JUMP JUMPDEST PUSH1 0x20 DUP3 ADD SWAP1 POP SWAP2 SWAP1 POP JUMP JUMPDEST PUSH1 0x0 PUSH2 0xE89 PUSH1 0x1A DUP4 PUSH2 0x11C7 JUMP JUMPDEST SWAP2 POP PUSH2 0xE94 DUP3 PUSH2 0x13F3 JUMP JUMPDEST PUSH1 0x20 DUP3 ADD SWAP1 POP SWAP2 SWAP1 POP JUMP JUMPDEST PUSH1 0x0 PUSH2 0xEAC PUSH1 0x17 DUP4 PUSH2 0x11C7 JUMP JUMPDEST SWAP2 POP PUSH2 0xEB7 DUP3 PUSH2 0x141C JUMP JUMPDEST PUSH1 0x20 DUP3 ADD SWAP1 POP SWAP2 SWAP1 POP JUMP JUMPDEST PUSH1 0x0 PUSH2 0xECF PUSH1 0x13 DUP4 PUSH2 0x11C7 JUMP JUMPDEST SWAP2 POP PUSH2 0xEDA DUP3 PUSH2 0x1445 JUMP JUMPDEST PUSH1 0x20 DUP3 ADD SWAP1 POP SWAP2 SWAP1 POP JUMP JUMPDEST PUSH1 0x0 PUSH1 0xA0 DUP4 ADD PUSH1 0x0 DUP4 ADD MLOAD PUSH2 0xEFD PUSH1 0x0 DUP7 ADD DUP3 PUSH2 0xCC1 JUMP JUMPDEST POP PUSH1 0x20 DUP4 ADD MLOAD PUSH2 0xF10 PUSH1 0x20 DUP7 ADD DUP3 PUSH2 0xDD8 JUMP JUMPDEST POP PUSH1 0x40 DUP4 ADD MLOAD DUP5 DUP3 SUB PUSH1 0x40 DUP7 ADD MSTORE PUSH2 0xF28 DUP3 DUP3 PUSH2 0xCDF JUMP JUMPDEST SWAP2 POP POP PUSH1 0x60 DUP4 ADD MLOAD PUSH2 0xF3D PUSH1 0x60 DUP7 ADD DUP3 PUSH2 0xDC9 JUMP JUMPDEST POP PUSH1 0x80 DUP4 ADD MLOAD PUSH2 0xF50 PUSH1 0x80 DUP7 ADD DUP3 PUSH2 0xFD1 JUMP JUMPDEST POP DUP1 SWAP2 POP POP SWAP3 SWAP2 POP POP JUMP JUMPDEST PUSH1 0x0 PUSH1 0xA0 DUP4 ADD PUSH1 0x0 DUP4 ADD MLOAD PUSH2 0xF73 PUSH1 0x0 DUP7 ADD DUP3 PUSH2 0xDD8 JUMP JUMPDEST POP PUSH1 0x20 DUP4 ADD MLOAD PUSH2 0xF86 PUSH1 0x20 DUP7 ADD DUP3 PUSH2 0xCC1 JUMP JUMPDEST POP PUSH1 0x40 DUP4 ADD MLOAD PUSH2 0xF99 PUSH1 0x40 DUP7 ADD DUP3 PUSH2 0xFD1 JUMP JUMPDEST POP PUSH1 0x60 DUP4 ADD MLOAD PUSH2 0xFAC PUSH1 0x60 DUP7 ADD DUP3 PUSH2 0xDC9 JUMP JUMPDEST POP PUSH1 0x80 DUP4 ADD MLOAD DUP5 DUP3 SUB PUSH1 0x80 DUP7 ADD MSTORE PUSH2 0xFC4 DUP3 DUP3 PUSH2 0xDE7 JUMP JUMPDEST SWAP2 POP POP DUP1 SWAP2 POP POP SWAP3 SWAP2 POP POP JUMP JUMPDEST PUSH2 0xFDA DUP2 PUSH2 0x1220 JUMP JUMPDEST DUP3 MSTORE POP POP JUMP JUMPDEST PUSH2 0xFE9 DUP2 PUSH2 0x1220 JUMP JUMPDEST DUP3 MSTORE POP POP JUMP JUMPDEST PUSH1 0x0 PUSH1 0x20 DUP3 ADD SWAP1 POP PUSH2 0x1004 PUSH1 0x0 DUP4 ADD DUP5 PUSH2 0xCD0 JUMP JUMPDEST SWAP3 SWAP2 POP POP JUMP JUMPDEST PUSH1 0x0 PUSH1 0x20 DUP3 ADD SWAP1 POP DUP2 DUP2 SUB PUSH1 0x0 DUP4 ADD MSTORE PUSH2 0x1024 DUP2 DUP5 PUSH2 0xD54 JUMP JUMPDEST SWAP1 POP SWAP3 SWAP2 POP POP JUMP JUMPDEST PUSH1 0x0 PUSH1 0x20 DUP3 ADD SWAP1 POP DUP2 DUP2 SUB PUSH1 0x0 DUP4 ADD MSTORE PUSH2 0x1046 DUP2 DUP5 PUSH2 0xE20 JUMP JUMPDEST SWAP1 POP SWAP3 SWAP2 POP POP JUMP JUMPDEST PUSH1 0x0 PUSH1 0x20 DUP3 ADD SWAP1 POP DUP2 DUP2 SUB PUSH1 0x0 DUP4 ADD MSTORE PUSH2 0x1067 DUP2 PUSH2 0xE59 JUMP JUMPDEST SWAP1 POP SWAP2 SWAP1 POP JUMP JUMPDEST PUSH1 0x0 PUSH1 0x20 DUP3 ADD SWAP1 POP DUP2 DUP2 SUB PUSH1 0x0 DUP4 ADD MSTORE PUSH2 0x1087 DUP2 PUSH2 0xE7C JUMP JUMPDEST SWAP1 POP SWAP2 SWAP1 POP JUMP JUMPDEST PUSH1 0x0 PUSH1 0x20 DUP3 ADD SWAP1 POP DUP2 DUP2 SUB PUSH1 0x0 DUP4 ADD MSTORE PUSH2 0x10A7 DUP2 PUSH2 0xE9F JUMP JUMPDEST SWAP1 POP SWAP2 SWAP1 POP JUMP JUMPDEST PUSH1 0x0 PUSH1 0x20 DUP3 ADD SWAP1 POP DUP2 DUP2 SUB PUSH1 0x0 DUP4 ADD MSTORE PUSH2 0x10C7 DUP2 PUSH2 0xEC2 JUMP JUMPDEST SWAP1 POP SWAP2 SWAP1 POP JUMP JUMPDEST PUSH1 0x0 PUSH1 0x20 DUP3 ADD SWAP1 POP DUP2 DUP2 SUB PUSH1 0x0 DUP4 ADD MSTORE PUSH2 0x10E8 DUP2 DUP5 PUSH2 0xEE5 JUMP JUMPDEST SWAP1 POP SWAP3 SWAP2 POP POP JUMP JUMPDEST PUSH1 0x0 PUSH1 0x20 DUP3 ADD SWAP1 POP PUSH2 0x1105 PUSH1 0x0 DUP4 ADD DUP5 PUSH2 0xFE0 JUMP JUMPDEST SWAP3 SWAP2 POP POP JUMP JUMPDEST PUSH1 0x0 PUSH2 0x1115 PUSH2 0x1126 JUMP JUMPDEST SWAP1 POP PUSH2 0x1121 DUP3 DUP3 PUSH2 0x129E JUMP JUMPDEST SWAP2 SWAP1 POP JUMP JUMPDEST PUSH1 0x0 PUSH1 0x40 MLOAD SWAP1 POP SWAP1 JUMP JUMPDEST PUSH1 0x0 PUSH8 0xFFFFFFFFFFFFFFFF DUP3 GT ISZERO PUSH2 0x114B JUMPI PUSH2 0x114A PUSH2 0x1376 JUMP JUMPDEST JUMPDEST PUSH2 0x1154 DUP3 PUSH2 0x13B9 JUMP JUMPDEST SWAP1 POP PUSH1 0x20 DUP2 ADD SWAP1 POP SWAP2 SWAP1 POP JUMP JUMPDEST PUSH1 0x0 DUP2 SWAP1 POP PUSH1 0x20 DUP3 ADD SWAP1 POP SWAP2 SWAP1 POP JUMP JUMPDEST PUSH1 0x0 DUP2 MLOAD SWAP1 POP SWAP2 SWAP1 POP JUMP JUMPDEST PUSH1 0x0 DUP2 MLOAD SWAP1 POP SWAP2 SWAP1 POP JUMP JUMPDEST PUSH1 0x0 PUSH1 0x20 DUP3 ADD SWAP1 POP SWAP2 SWAP1 POP JUMP JUMPDEST PUSH1 0x0 DUP3 DUP3 MSTORE PUSH1 0x20 DUP3 ADD SWAP1 POP SWAP3 SWAP2 POP POP JUMP JUMPDEST PUSH1 0x0 DUP3 DUP3 MSTORE PUSH1 0x20 DUP3 ADD SWAP1 POP SWAP3 SWAP2 POP POP JUMP JUMPDEST PUSH1 0x0 DUP3 DUP3 MSTORE PUSH1 0x20 DUP3 ADD SWAP1 POP SWAP3 SWAP2 POP POP JUMP JUMPDEST PUSH1 0x0 DUP3 DUP3 MSTORE PUSH1 0x20 DUP3 ADD SWAP1 POP SWAP3 SWAP2 POP POP JUMP JUMPDEST PUSH1 0x0 PUSH2 0x11E3 DUP3 PUSH2 0x1200 JUMP JUMPDEST SWAP1 POP SWAP2 SWAP1 POP JUMP JUMPDEST PUSH1 0x0 DUP2 ISZERO ISZERO SWAP1 POP SWAP2 SWAP1 POP JUMP JUMPDEST PUSH1 0x0 DUP2 SWAP1 POP SWAP2 SWAP1 POP JUMP JUMPDEST PUSH1 0x0 PUSH20 0xFFFFFFFFFFFFFFFFFFFFFFFFFFFFFFFFFFFFFFFF DUP3 AND SWAP1 POP SWAP2 SWAP1 POP JUMP JUMPDEST PUSH1 0x0 DUP2 SWAP1 POP SWAP2 SWAP1 POP JUMP JUMPDEST DUP3 DUP2 DUP4 CALLDATACOPY PUSH1 0x0 DUP4 DUP4 ADD MSTORE POP POP POP JUMP JUMPDEST PUSH1 0x0 JUMPDEST DUP4 DUP2 LT ISZERO PUSH2 0x1257 JUMPI DUP1 DUP3 ADD MLOAD DUP2 DUP5 ADD MSTORE PUSH1 0x20 DUP2 ADD SWAP1 POP PUSH2 0x123C JUMP JUMPDEST DUP4 DUP2 GT ISZERO PUSH2 0x1266 JUMPI PUSH1 0x0 DUP5 DUP5 ADD MSTORE JUMPDEST POP POP POP POP JUMP JUMPDEST PUSH1 0x0 PUSH1 0x2 DUP3 DIV SWAP1 POP PUSH1 0x1 DUP3 AND DUP1 PUSH2 0x1284 JUMPI PUSH1 0x7F DUP3 AND SWAP2 POP JUMPDEST PUSH1 0x20 DUP3 LT DUP2 EQ ISZERO PUSH2 0x1298 JUMPI PUSH2 0x1297 PUSH2 0x1347 JUMP JUMPDEST JUMPDEST POP SWAP2 SWAP1 POP JUMP JUMPDEST PUSH2 0x12A7 DUP3 PUSH2 0x13B9 JUMP JUMPDEST DUP2 ADD DUP2 DUP2 LT PUSH8 0xFFFFFFFFFFFFFFFF DUP3 GT OR ISZERO PUSH2 0x12C6 JUMPI PUSH2 0x12C5 PUSH2 0x1376 JUMP JUMPDEST JUMPDEST DUP1 PUSH1 0x40 MSTORE POP POP POP JUMP JUMPDEST PUSH1 0x0 PUSH2 0x12DA DUP3 PUSH2 0x1220 JUMP JUMPDEST SWAP2 POP PUSH32 0xFFFFFFFFFFFFFFFFFFFFFFFFFFFFFFFFFFFFFFFFFFFFFFFFFFFFFFFFFFFFFFFF DUP3 EQ ISZERO PUSH2 0x130D JUMPI PUSH2 0x130C PUSH2 0x1318 JUMP JUMPDEST JUMPDEST PUSH1 0x1 DUP3 ADD SWAP1 POP SWAP2 SWAP1 POP JUMP JUMPDEST PUSH32 0x4E487B7100000000000000000000000000000000000000000000000000000000 PUSH1 0x0 MSTORE PUSH1 0x11 PUSH1 0x4 MSTORE PUSH1 0x24 PUSH1 0x0 REVERT JUMPDEST PUSH32 0x4E487B7100000000000000000000000000000000000000000000000000000000 PUSH1 0x0 MSTORE PUSH1 0x22 PUSH1 0x4 MSTORE PUSH1 0x24 PUSH1 0x0 REVERT JUMPDEST PUSH32 0x4E487B7100000000000000000000000000000000000000000000000000000000 PUSH1 0x0 MSTORE PUSH1 0x41 PUSH1 0x4 MSTORE PUSH1 0x24 PUSH1 0x0 REVERT JUMPDEST PUSH1 0x0 DUP1 REVERT JUMPDEST PUSH1 0x0 DUP1 REVERT JUMPDEST PUSH1 0x0 DUP1 REVERT JUMPDEST PUSH1 0x0 DUP1 REVERT JUMPDEST PUSH1 0x0 PUSH1 0x1F NOT PUSH1 0x1F DUP4 ADD AND SWAP1 POP SWAP2 SWAP1 POP JUMP JUMPDEST PUSH32 0x6D6F7265207468616E2073656E642074686520746F6B656E0000000000000000 PUSH1 0x0 DUP3 ADD MSTORE POP JUMP JUMPDEST PUSH32 0x6368616972706572736F6E206973206E6F7420616C7269677468000000000000 PUSH1 0x0 DUP3 ADD MSTORE POP JUMP JUMPDEST PUSH32 0x63757272656E742070726F706F73616C20636C6F736564000000000000000000 PUSH1 0x0 DUP3 ADD MSTORE POP JUMP JUMPDEST PUSH32 0x766F74657220616C726561647920766F74656400000000000000000000000000 PUSH1 0x0 DUP3 ADD MSTORE POP JUMP JUMPDEST PUSH2 0x1477 DUP2 PUSH2 0x11F6 JUMP JUMPDEST DUP2 EQ PUSH2 0x1482 JUMPI PUSH1 0x0 DUP1 REVERT JUMPDEST POP JUMP JUMPDEST PUSH2 0x148E DUP2 PUSH2 0x1220 JUMP JUMPDEST DUP2 EQ PUSH2 0x1499 JUMPI PUSH1 0x0 DUP1 REVERT JUMPDEST POP JUMP INVALID LOG2 PUSH5 0x6970667358 0x22 SLT KECCAK256 OR SUB 0xDB PUSH17 0x19575F6D76806172061965D2CC2E866B53 0xEC SAR INVALID 0xE5 SAR CODESIZE LOG2 0xDC SWAP15 0xE2 NUMBER PUSH5 0x736F6C6343 STOP ADDMOD SMOD STOP CALLER "
				},
				"gasEstimates": {
					"creation": {
						"codeDepositCost": "1066000",
						"executionCost": "6113",
						"totalCost": "1072113"
					},
					"external": {
						"chairperson()": "2555",
						"createProposal(bytes32)": "132023",
						"proposalLen()": "2495",
						"totalProposal(uint256)": "infinite",
						"totalVoteOutput(uint256)": "infinite",
						"vote(uint256,string)": "infinite"
					}
				},
				"methodIdentifiers": {
					"chairperson()": "2e4176cf",
					"createProposal(bytes32)": "2542bf06",
					"proposalLen()": "68c72018",
					"totalProposal(uint256)": "76e9d620",
					"totalVoteOutput(uint256)": "0e49e058",
					"vote(uint256,string)": "24108475"
				}
			},
			"storageLayout": {
				"storage": [
					{
						"astId": 3,
						"contract": "smartContract/contracts/Test.sol:Vote",
						"label": "chairperson",
						"offset": 0,
						"slot": "0",
						"type": "t_address"
					},
					{
						"astId": 6,
						"contract": "smartContract/contracts/Test.sol:Vote",
						"label": "proposalLen",
						"offset": 0,
						"slot": "1",
						"type": "t_uint256"
					},
					{
						"astId": 49,
						"contract": "smartContract/contracts/Test.sol:Vote",
						"label": "Proposals",
						"offset": 0,
						"slot": "2",
						"type": "t_mapping(t_uint256,t_struct(Proposal)30_storage)"
					},
					{
						"astId": 56,
						"contract": "smartContract/contracts/Test.sol:Vote",
						"label": "Voters",
						"offset": 0,
						"slot": "3",
						"type": "t_mapping(t_address,t_mapping(t_uint256,t_struct(Voter)17_storage))"
					}
				],
				"types": {
					"t_address": {
						"encoding": "inplace",
						"label": "address",
						"numberOfBytes": "20"
					},
					"t_array(t_struct(Voter)17_storage)dyn_storage": {
						"base": "t_struct(Voter)17_storage",
						"encoding": "dynamic_array",
						"label": "struct Vote.Voter[]",
						"numberOfBytes": "32"
					},
					"t_bool": {
						"encoding": "inplace",
						"label": "bool",
						"numberOfBytes": "1"
					},
					"t_bytes32": {
						"encoding": "inplace",
						"label": "bytes32",
						"numberOfBytes": "32"
					},
					"t_mapping(t_address,t_mapping(t_uint256,t_struct(Voter)17_storage))": {
						"encoding": "mapping",
						"key": "t_address",
						"label": "mapping(address => mapping(uint256 => struct Vote.Voter))",
						"numberOfBytes": "32",
						"value": "t_mapping(t_uint256,t_struct(Voter)17_storage)"
					},
					"t_mapping(t_uint256,t_struct(Proposal)30_storage)": {
						"encoding": "mapping",
						"key": "t_uint256",
						"label": "mapping(uint256 => struct Vote.Proposal)",
						"numberOfBytes": "32",
						"value": "t_struct(Proposal)30_storage"
					},
					"t_mapping(t_uint256,t_struct(Voter)17_storage)": {
						"encoding": "mapping",
						"key": "t_uint256",
						"label": "mapping(uint256 => struct Vote.Voter)",
						"numberOfBytes": "32",
						"value": "t_struct(Voter)17_storage"
					},
					"t_string_storage": {
						"encoding": "bytes",
						"label": "string",
						"numberOfBytes": "32"
					},
					"t_struct(Proposal)30_storage": {
						"encoding": "inplace",
						"label": "struct Vote.Proposal",
						"members": [
							{
								"astId": 19,
								"contract": "smartContract/contracts/Test.sol:Vote",
								"label": "chairperson",
								"offset": 0,
								"slot": "0",
								"type": "t_address"
							},
							{
								"astId": 21,
								"contract": "smartContract/contracts/Test.sol:Vote",
								"label": "UnionId",
								"offset": 0,
								"slot": "1",
								"type": "t_bytes32"
							},
							{
								"astId": 25,
								"contract": "smartContract/contracts/Test.sol:Vote",
								"label": "Voters",
								"offset": 0,
								"slot": "2",
								"type": "t_array(t_struct(Voter)17_storage)dyn_storage"
							},
							{
								"astId": 27,
								"contract": "smartContract/contracts/Test.sol:Vote",
								"label": "open",
								"offset": 0,
								"slot": "3",
								"type": "t_bool"
							},
							{
								"astId": 29,
								"contract": "smartContract/contracts/Test.sol:Vote",
								"label": "index",
								"offset": 0,
								"slot": "4",
								"type": "t_uint256"
							}
						],
						"numberOfBytes": "160"
					},
					"t_struct(Voter)17_storage": {
						"encoding": "inplace",
						"label": "struct Vote.Voter",
						"members": [
							{
								"astId": 8,
								"contract": "smartContract/contracts/Test.sol:Vote",
								"label": "unionId",
								"offset": 0,
								"slot": "0",
								"type": "t_bytes32"
							},
							{
								"astId": 10,
								"contract": "smartContract/contracts/Test.sol:Vote",
								"label": "addr",
								"offset": 0,
								"slot": "1",
								"type": "t_address"
							},
							{
								"astId": 12,
								"contract": "smartContract/contracts/Test.sol:Vote",
								"label": "asset",
								"offset": 0,
								"slot": "2",
								"type": "t_uint256"
							},
							{
								"astId": 14,
								"contract": "smartContract/contracts/Test.sol:Vote",
								"label": "voted",
								"offset": 0,
								"slot": "3",
								"type": "t_bool"
							},
							{
								"astId": 16,
								"contract": "smartContract/contracts/Test.sol:Vote",
								"label": "answer",
								"offset": 0,
								"slot": "4",
								"type": "t_string_storage"
							}
						],
						"numberOfBytes": "160"
					},
					"t_uint256": {
						"encoding": "inplace",
						"label": "uint256",
						"numberOfBytes": "32"
					}
				}
			},
			"userdoc": {
				"kind": "user",
				"methods": {},
				"version": 1
			}
		}
	}
}