{
	"smartContract/contracts/NewVote.sol": {
		"UnionFactory": {
			"abi": [
				{
					"inputs": [
						{
							"internalType": "string",
							"name": "unionName",
							"type": "string"
						},
						{
							"internalType": "address",
							"name": "chairperson",
							"type": "address"
						}
					],
					"name": "createUnion",
					"outputs": [],
					"stateMutability": "nonpayable",
					"type": "function"
				},
				{
					"inputs": [],
					"name": "totalUnionNumber",
					"outputs": [
						{
							"internalType": "uint256",
							"name": "num",
							"type": "uint256"
						}
					],
					"stateMutability": "nonpayable",
					"type": "function"
				},
				{
					"inputs": [
						{
							"internalType": "uint256",
							"name": "",
							"type": "uint256"
						}
					],
					"name": "unions",
					"outputs": [
						{
							"internalType": "contract Union",
							"name": "",
							"type": "address"
						}
					],
					"stateMutability": "view",
					"type": "function"
				}
			],
			"devdoc": {
				"kind": "dev",
				"methods": {},
				"version": 1
			},
			"evm": {
				"assembly": "    /* \"smartContract/contracts/NewVote.sol\":2591:3683  contract UnionFactory {... */\n  mstore(0x40, 0x80)\n  callvalue\n  dup1\n  iszero\n  tag_1\n  jumpi\n  0x00\n  dup1\n  revert\ntag_1:\n  pop\n  dataSize(sub_0)\n  dup1\n  dataOffset(sub_0)\n  0x00\n  codecopy\n  0x00\n  return\nstop\n\nsub_0: assembly {\n        /* \"smartContract/contracts/NewVote.sol\":2591:3683  contract UnionFactory {... */\n      mstore(0x40, 0x80)\n      callvalue\n      dup1\n      iszero\n      tag_1\n      jumpi\n      0x00\n      dup1\n      revert\n    tag_1:\n      pop\n      jumpi(tag_2, lt(calldatasize, 0x04))\n      shr(0xe0, calldataload(0x00))\n      dup1\n      0x86c1d5fd\n      eq\n      tag_3\n      jumpi\n      dup1\n      0x8ecd58e9\n      eq\n      tag_4\n      jumpi\n      dup1\n      0xa20fe1c7\n      eq\n      tag_5\n      jumpi\n    tag_2:\n      0x00\n      dup1\n      revert\n        /* \"smartContract/contracts/NewVote.sol\":3248:3485  function createUnion(string memory unionName,address chairperson)external {... */\n    tag_3:\n      tag_6\n      0x04\n      dup1\n      calldatasize\n      sub\n      dup2\n      add\n      swap1\n      tag_7\n      swap2\n      swap1\n      tag_8\n      jump\t// in\n    tag_7:\n      tag_9\n      jump\t// in\n    tag_6:\n      stop\n        /* \"smartContract/contracts/NewVote.sol\":3586:3674  function totalUnionNumber()external returns(uint num){... */\n    tag_4:\n      tag_10\n      tag_11\n      jump\t// in\n    tag_10:\n      mload(0x40)\n      tag_12\n      swap2\n      swap1\n      tag_13\n      jump\t// in\n    tag_12:\n      mload(0x40)\n      dup1\n      swap2\n      sub\n      swap1\n      return\n        /* \"smartContract/contracts/NewVote.sol\":2621:2642  Union[] public unions */\n    tag_5:\n      tag_14\n      0x04\n      dup1\n      calldatasize\n      sub\n      dup2\n      add\n      swap1\n      tag_15\n      swap2\n      swap1\n      tag_16\n      jump\t// in\n    tag_15:\n      tag_17\n      jump\t// in\n    tag_14:\n      mload(0x40)\n      tag_18\n      swap2\n      swap1\n      tag_19\n      jump\t// in\n    tag_18:\n      mload(0x40)\n      dup1\n      swap2\n      sub\n      swap1\n      return\n        /* \"smartContract/contracts/NewVote.sol\":3248:3485  function createUnion(string memory unionName,address chairperson)external {... */\n    tag_9:\n        /* \"smartContract/contracts/NewVote.sol\":3332:3349  Union singleUnion */\n      0x00\n        /* \"smartContract/contracts/NewVote.sol\":3362:3371  unionName */\n      dup3\n        /* \"smartContract/contracts/NewVote.sol\":3372:3383  chairperson */\n      dup3\n        /* \"smartContract/contracts/NewVote.sol\":3352:3384  new Union(unionName,chairperson) */\n      mload(0x40)\n      tag_21\n      swap1\n      tag_22\n      jump\t// in\n    tag_21:\n      tag_23\n      swap3\n      swap2\n      swap1\n      tag_24\n      jump\t// in\n    tag_23:\n      mload(0x40)\n      dup1\n      swap2\n      sub\n      swap1\n      0x00\n      create\n      dup1\n      iszero\n      dup1\n      iszero\n      tag_25\n      jumpi\n      returndatasize\n      0x00\n      dup1\n      returndatacopy\n      revert(0x00, returndatasize)\n    tag_25:\n      pop\n        /* \"smartContract/contracts/NewVote.sol\":3332:3384  Union singleUnion = new Union(unionName,chairperson) */\n      swap1\n      pop\n        /* \"smartContract/contracts/NewVote.sol\":3432:3443  singleUnion */\n      dup1\n        /* \"smartContract/contracts/NewVote.sol\":3394:3410  findUnionAddress */\n      0x01\n        /* \"smartContract/contracts/NewVote.sol\":3411:3420  unionName */\n      dup5\n        /* \"smartContract/contracts/NewVote.sol\":3394:3421  findUnionAddress[unionName] */\n      mload(0x40)\n      tag_26\n      swap2\n      swap1\n      tag_27\n      jump\t// in\n    tag_26:\n      swap1\n      dup2\n      mstore\n      0x20\n      add\n      mload(0x40)\n      dup1\n      swap2\n      sub\n      swap1\n      keccak256\n      0x00\n        /* \"smartContract/contracts/NewVote.sol\":3394:3444  findUnionAddress[unionName] = address(singleUnion) */\n      0x0100\n      exp\n      dup2\n      sload\n      dup2\n      0xffffffffffffffffffffffffffffffffffffffff\n      mul\n      not\n      and\n      swap1\n      dup4\n      0xffffffffffffffffffffffffffffffffffffffff\n      and\n      mul\n      or\n      swap1\n      sstore\n      pop\n        /* \"smartContract/contracts/NewVote.sol\":3454:3460  unions */\n      0x00\n        /* \"smartContract/contracts/NewVote.sol\":3466:3477  singleUnion */\n      dup2\n        /* \"smartContract/contracts/NewVote.sol\":3454:3478  unions.push(singleUnion) */\n      swap1\n      dup1\n      0x01\n      dup2\n      sload\n      add\n      dup1\n      dup3\n      sstore\n      dup1\n      swap2\n      pop\n      pop\n      0x01\n      swap1\n      sub\n      swap1\n      0x00\n      mstore\n      keccak256(0x00, 0x20)\n      add\n      0x00\n      swap1\n      swap2\n      swap1\n      swap2\n      swap1\n      swap2\n      0x0100\n      exp\n      dup2\n      sload\n      dup2\n      0xffffffffffffffffffffffffffffffffffffffff\n      mul\n      not\n      and\n      swap1\n      dup4\n      0xffffffffffffffffffffffffffffffffffffffff\n      and\n      mul\n      or\n      swap1\n      sstore\n      pop\n        /* \"smartContract/contracts/NewVote.sol\":3322:3485  {... */\n      pop\n        /* \"smartContract/contracts/NewVote.sol\":3248:3485  function createUnion(string memory unionName,address chairperson)external {... */\n      pop\n      pop\n      jump\t// out\n        /* \"smartContract/contracts/NewVote.sol\":3586:3674  function totalUnionNumber()external returns(uint num){... */\n    tag_11:\n        /* \"smartContract/contracts/NewVote.sol\":3630:3638  uint num */\n      0x00\n        /* \"smartContract/contracts/NewVote.sol\":3654:3660  unions */\n      dup1\n        /* \"smartContract/contracts/NewVote.sol\":3654:3667  unions.length */\n      dup1\n      sload\n      swap1\n      pop\n        /* \"smartContract/contracts/NewVote.sol\":3648:3667  num = unions.length */\n      swap1\n      pop\n        /* \"smartContract/contracts/NewVote.sol\":3586:3674  function totalUnionNumber()external returns(uint num){... */\n      swap1\n      jump\t// out\n        /* \"smartContract/contracts/NewVote.sol\":2621:2642  Union[] public unions */\n    tag_17:\n      0x00\n      dup2\n      dup2\n      sload\n      dup2\n      lt\n      tag_30\n      jumpi\n      0x00\n      dup1\n      revert\n    tag_30:\n      swap1\n      0x00\n      mstore\n      keccak256(0x00, 0x20)\n      add\n      0x00\n      swap2\n      pop\n      sload\n      swap1\n      0x0100\n      exp\n      swap1\n      div\n      0xffffffffffffffffffffffffffffffffffffffff\n      and\n      dup2\n      jump\t// out\n    tag_22:\n      dataSize(sub_0)\n      dup1\n      dataOffset(sub_0)\n      dup4\n      codecopy\n      add\n      swap1\n      jump\t// out\n        /* \"#utility.yul\":7:419   */\n    tag_33:\n        /* \"#utility.yul\":85:90   */\n      0x00\n        /* \"#utility.yul\":110:176   */\n      tag_35\n        /* \"#utility.yul\":126:175   */\n      tag_36\n        /* \"#utility.yul\":168:174   */\n      dup5\n        /* \"#utility.yul\":126:175   */\n      tag_37\n      jump\t// in\n    tag_36:\n        /* \"#utility.yul\":110:176   */\n      tag_38\n      jump\t// in\n    tag_35:\n        /* \"#utility.yul\":101:176   */\n      swap1\n      pop\n        /* \"#utility.yul\":199:205   */\n      dup3\n        /* \"#utility.yul\":192:197   */\n      dup2\n        /* \"#utility.yul\":185:206   */\n      mstore\n        /* \"#utility.yul\":237:241   */\n      0x20\n        /* \"#utility.yul\":230:235   */\n      dup2\n        /* \"#utility.yul\":226:242   */\n      add\n        /* \"#utility.yul\":275:278   */\n      dup5\n        /* \"#utility.yul\":266:272   */\n      dup5\n        /* \"#utility.yul\":261:264   */\n      dup5\n        /* \"#utility.yul\":257:273   */\n      add\n        /* \"#utility.yul\":254:279   */\n      gt\n        /* \"#utility.yul\":251:363   */\n      iszero\n      tag_39\n      jumpi\n        /* \"#utility.yul\":282:361   */\n      tag_40\n      tag_41\n      jump\t// in\n    tag_40:\n        /* \"#utility.yul\":251:363   */\n    tag_39:\n        /* \"#utility.yul\":372:413   */\n      tag_42\n        /* \"#utility.yul\":406:412   */\n      dup5\n        /* \"#utility.yul\":401:404   */\n      dup3\n        /* \"#utility.yul\":396:399   */\n      dup6\n        /* \"#utility.yul\":372:413   */\n      tag_43\n      jump\t// in\n    tag_42:\n        /* \"#utility.yul\":91:419   */\n      pop\n        /* \"#utility.yul\":7:419   */\n      swap4\n      swap3\n      pop\n      pop\n      pop\n      jump\t// out\n        /* \"#utility.yul\":425:564   */\n    tag_44:\n        /* \"#utility.yul\":471:476   */\n      0x00\n        /* \"#utility.yul\":509:515   */\n      dup2\n        /* \"#utility.yul\":496:516   */\n      calldataload\n        /* \"#utility.yul\":487:516   */\n      swap1\n      pop\n        /* \"#utility.yul\":525:558   */\n      tag_46\n        /* \"#utility.yul\":552:557   */\n      dup2\n        /* \"#utility.yul\":525:558   */\n      tag_47\n      jump\t// in\n    tag_46:\n        /* \"#utility.yul\":425:564   */\n      swap3\n      swap2\n      pop\n      pop\n      jump\t// out\n        /* \"#utility.yul\":584:924   */\n    tag_48:\n        /* \"#utility.yul\":640:645   */\n      0x00\n        /* \"#utility.yul\":689:692   */\n      dup3\n        /* \"#utility.yul\":682:686   */\n      0x1f\n        /* \"#utility.yul\":674:680   */\n      dup4\n        /* \"#utility.yul\":670:687   */\n      add\n        /* \"#utility.yul\":666:693   */\n      slt\n        /* \"#utility.yul\":656:778   */\n      tag_50\n      jumpi\n        /* \"#utility.yul\":697:776   */\n      tag_51\n      tag_52\n      jump\t// in\n    tag_51:\n        /* \"#utility.yul\":656:778   */\n    tag_50:\n        /* \"#utility.yul\":814:820   */\n      dup2\n        /* \"#utility.yul\":801:821   */\n      calldataload\n        /* \"#utility.yul\":839:918   */\n      tag_53\n        /* \"#utility.yul\":914:917   */\n      dup5\n        /* \"#utility.yul\":906:912   */\n      dup3\n        /* \"#utility.yul\":899:903   */\n      0x20\n        /* \"#utility.yul\":891:897   */\n      dup7\n        /* \"#utility.yul\":887:904   */\n      add\n        /* \"#utility.yul\":839:918   */\n      tag_33\n      jump\t// in\n    tag_53:\n        /* \"#utility.yul\":830:918   */\n      swap2\n      pop\n        /* \"#utility.yul\":646:924   */\n      pop\n        /* \"#utility.yul\":584:924   */\n      swap3\n      swap2\n      pop\n      pop\n      jump\t// out\n        /* \"#utility.yul\":930:1069   */\n    tag_54:\n        /* \"#utility.yul\":976:981   */\n      0x00\n        /* \"#utility.yul\":1014:1020   */\n      dup2\n        /* \"#utility.yul\":1001:1021   */\n      calldataload\n        /* \"#utility.yul\":992:1021   */\n      swap1\n      pop\n        /* \"#utility.yul\":1030:1063   */\n      tag_56\n        /* \"#utility.yul\":1057:1062   */\n      dup2\n        /* \"#utility.yul\":1030:1063   */\n      tag_57\n      jump\t// in\n    tag_56:\n        /* \"#utility.yul\":930:1069   */\n      swap3\n      swap2\n      pop\n      pop\n      jump\t// out\n        /* \"#utility.yul\":1075:1729   */\n    tag_8:\n        /* \"#utility.yul\":1153:1159   */\n      0x00\n        /* \"#utility.yul\":1161:1167   */\n      dup1\n        /* \"#utility.yul\":1210:1212   */\n      0x40\n        /* \"#utility.yul\":1198:1207   */\n      dup4\n        /* \"#utility.yul\":1189:1196   */\n      dup6\n        /* \"#utility.yul\":1185:1208   */\n      sub\n        /* \"#utility.yul\":1181:1213   */\n      slt\n        /* \"#utility.yul\":1178:1297   */\n      iszero\n      tag_59\n      jumpi\n        /* \"#utility.yul\":1216:1295   */\n      tag_60\n      tag_61\n      jump\t// in\n    tag_60:\n        /* \"#utility.yul\":1178:1297   */\n    tag_59:\n        /* \"#utility.yul\":1364:1365   */\n      0x00\n        /* \"#utility.yul\":1353:1362   */\n      dup4\n        /* \"#utility.yul\":1349:1366   */\n      add\n        /* \"#utility.yul\":1336:1367   */\n      calldataload\n        /* \"#utility.yul\":1394:1412   */\n      0xffffffffffffffff\n        /* \"#utility.yul\":1386:1392   */\n      dup2\n        /* \"#utility.yul\":1383:1413   */\n      gt\n        /* \"#utility.yul\":1380:1497   */\n      iszero\n      tag_62\n      jumpi\n        /* \"#utility.yul\":1416:1495   */\n      tag_63\n      tag_64\n      jump\t// in\n    tag_63:\n        /* \"#utility.yul\":1380:1497   */\n    tag_62:\n        /* \"#utility.yul\":1521:1584   */\n      tag_65\n        /* \"#utility.yul\":1576:1583   */\n      dup6\n        /* \"#utility.yul\":1567:1573   */\n      dup3\n        /* \"#utility.yul\":1556:1565   */\n      dup7\n        /* \"#utility.yul\":1552:1574   */\n      add\n        /* \"#utility.yul\":1521:1584   */\n      tag_48\n      jump\t// in\n    tag_65:\n        /* \"#utility.yul\":1511:1584   */\n      swap3\n      pop\n        /* \"#utility.yul\":1307:1594   */\n      pop\n        /* \"#utility.yul\":1633:1635   */\n      0x20\n        /* \"#utility.yul\":1659:1712   */\n      tag_66\n        /* \"#utility.yul\":1704:1711   */\n      dup6\n        /* \"#utility.yul\":1695:1701   */\n      dup3\n        /* \"#utility.yul\":1684:1693   */\n      dup7\n        /* \"#utility.yul\":1680:1702   */\n      add\n        /* \"#utility.yul\":1659:1712   */\n      tag_44\n      jump\t// in\n    tag_66:\n        /* \"#utility.yul\":1649:1712   */\n      swap2\n      pop\n        /* \"#utility.yul\":1604:1722   */\n      pop\n        /* \"#utility.yul\":1075:1729   */\n      swap3\n      pop\n      swap3\n      swap1\n      pop\n      jump\t// out\n        /* \"#utility.yul\":1735:2064   */\n    tag_16:\n        /* \"#utility.yul\":1794:1800   */\n      0x00\n        /* \"#utility.yul\":1843:1845   */\n      0x20\n        /* \"#utility.yul\":1831:1840   */\n      dup3\n        /* \"#utility.yul\":1822:1829   */\n      dup5\n        /* \"#utility.yul\":1818:1841   */\n      sub\n        /* \"#utility.yul\":1814:1846   */\n      slt\n        /* \"#utility.yul\":1811:1930   */\n      iszero\n      tag_68\n      jumpi\n        /* \"#utility.yul\":1849:1928   */\n      tag_69\n      tag_61\n      jump\t// in\n    tag_69:\n        /* \"#utility.yul\":1811:1930   */\n    tag_68:\n        /* \"#utility.yul\":1969:1970   */\n      0x00\n        /* \"#utility.yul\":1994:2047   */\n      tag_70\n        /* \"#utility.yul\":2039:2046   */\n      dup5\n        /* \"#utility.yul\":2030:2036   */\n      dup3\n        /* \"#utility.yul\":2019:2028   */\n      dup6\n        /* \"#utility.yul\":2015:2037   */\n      add\n        /* \"#utility.yul\":1994:2047   */\n      tag_54\n      jump\t// in\n    tag_70:\n        /* \"#utility.yul\":1984:2047   */\n      swap2\n      pop\n        /* \"#utility.yul\":1940:2057   */\n      pop\n        /* \"#utility.yul\":1735:2064   */\n      swap3\n      swap2\n      pop\n      pop\n      jump\t// out\n        /* \"#utility.yul\":2070:2188   */\n    tag_71:\n        /* \"#utility.yul\":2157:2181   */\n      tag_73\n        /* \"#utility.yul\":2175:2180   */\n      dup2\n        /* \"#utility.yul\":2157:2181   */\n      tag_74\n      jump\t// in\n    tag_73:\n        /* \"#utility.yul\":2152:2155   */\n      dup3\n        /* \"#utility.yul\":2145:2182   */\n      mstore\n        /* \"#utility.yul\":2070:2188   */\n      pop\n      pop\n      jump\t// out\n        /* \"#utility.yul\":2194:2351   */\n    tag_75:\n        /* \"#utility.yul\":2294:2344   */\n      tag_77\n        /* \"#utility.yul\":2338:2343   */\n      dup2\n        /* \"#utility.yul\":2294:2344   */\n      tag_78\n      jump\t// in\n    tag_77:\n        /* \"#utility.yul\":2289:2292   */\n      dup3\n        /* \"#utility.yul\":2282:2345   */\n      mstore\n        /* \"#utility.yul\":2194:2351   */\n      pop\n      pop\n      jump\t// out\n        /* \"#utility.yul\":2357:2721   */\n    tag_79:\n        /* \"#utility.yul\":2445:2448   */\n      0x00\n        /* \"#utility.yul\":2473:2512   */\n      tag_81\n        /* \"#utility.yul\":2506:2511   */\n      dup3\n        /* \"#utility.yul\":2473:2512   */\n      tag_82\n      jump\t// in\n    tag_81:\n        /* \"#utility.yul\":2528:2599   */\n      tag_83\n        /* \"#utility.yul\":2592:2598   */\n      dup2\n        /* \"#utility.yul\":2587:2590   */\n      dup6\n        /* \"#utility.yul\":2528:2599   */\n      tag_84\n      jump\t// in\n    tag_83:\n        /* \"#utility.yul\":2521:2599   */\n      swap4\n      pop\n        /* \"#utility.yul\":2608:2660   */\n      tag_85\n        /* \"#utility.yul\":2653:2659   */\n      dup2\n        /* \"#utility.yul\":2648:2651   */\n      dup6\n        /* \"#utility.yul\":2641:2645   */\n      0x20\n        /* \"#utility.yul\":2634:2639   */\n      dup7\n        /* \"#utility.yul\":2630:2646   */\n      add\n        /* \"#utility.yul\":2608:2660   */\n      tag_86\n      jump\t// in\n    tag_85:\n        /* \"#utility.yul\":2685:2714   */\n      tag_87\n        /* \"#utility.yul\":2707:2713   */\n      dup2\n        /* \"#utility.yul\":2685:2714   */\n      tag_88\n      jump\t// in\n    tag_87:\n        /* \"#utility.yul\":2680:2683   */\n      dup5\n        /* \"#utility.yul\":2676:2715   */\n      add\n        /* \"#utility.yul\":2669:2715   */\n      swap2\n      pop\n        /* \"#utility.yul\":2449:2721   */\n      pop\n        /* \"#utility.yul\":2357:2721   */\n      swap3\n      swap2\n      pop\n      pop\n      jump\t// out\n        /* \"#utility.yul\":2727:3104   */\n    tag_89:\n        /* \"#utility.yul\":2833:2836   */\n      0x00\n        /* \"#utility.yul\":2861:2900   */\n      tag_91\n        /* \"#utility.yul\":2894:2899   */\n      dup3\n        /* \"#utility.yul\":2861:2900   */\n      tag_82\n      jump\t// in\n    tag_91:\n        /* \"#utility.yul\":2916:3005   */\n      tag_92\n        /* \"#utility.yul\":2998:3004   */\n      dup2\n        /* \"#utility.yul\":2993:2996   */\n      dup6\n        /* \"#utility.yul\":2916:3005   */\n      tag_93\n      jump\t// in\n    tag_92:\n        /* \"#utility.yul\":2909:3005   */\n      swap4\n      pop\n        /* \"#utility.yul\":3014:3066   */\n      tag_94\n        /* \"#utility.yul\":3059:3065   */\n      dup2\n        /* \"#utility.yul\":3054:3057   */\n      dup6\n        /* \"#utility.yul\":3047:3051   */\n      0x20\n        /* \"#utility.yul\":3040:3045   */\n      dup7\n        /* \"#utility.yul\":3036:3052   */\n      add\n        /* \"#utility.yul\":3014:3066   */\n      tag_86\n      jump\t// in\n    tag_94:\n        /* \"#utility.yul\":3091:3097   */\n      dup1\n        /* \"#utility.yul\":3086:3089   */\n      dup5\n        /* \"#utility.yul\":3082:3098   */\n      add\n        /* \"#utility.yul\":3075:3098   */\n      swap2\n      pop\n        /* \"#utility.yul\":2837:3104   */\n      pop\n        /* \"#utility.yul\":2727:3104   */\n      swap3\n      swap2\n      pop\n      pop\n      jump\t// out\n        /* \"#utility.yul\":3110:3228   */\n    tag_95:\n        /* \"#utility.yul\":3197:3221   */\n      tag_97\n        /* \"#utility.yul\":3215:3220   */\n      dup2\n        /* \"#utility.yul\":3197:3221   */\n      tag_98\n      jump\t// in\n    tag_97:\n        /* \"#utility.yul\":3192:3195   */\n      dup3\n        /* \"#utility.yul\":3185:3222   */\n      mstore\n        /* \"#utility.yul\":3110:3228   */\n      pop\n      pop\n      jump\t// out\n        /* \"#utility.yul\":3234:3509   */\n    tag_27:\n        /* \"#utility.yul\":3366:3369   */\n      0x00\n        /* \"#utility.yul\":3388:3483   */\n      tag_100\n        /* \"#utility.yul\":3479:3482   */\n      dup3\n        /* \"#utility.yul\":3470:3476   */\n      dup5\n        /* \"#utility.yul\":3388:3483   */\n      tag_89\n      jump\t// in\n    tag_100:\n        /* \"#utility.yul\":3381:3483   */\n      swap2\n      pop\n        /* \"#utility.yul\":3500:3503   */\n      dup2\n        /* \"#utility.yul\":3493:3503   */\n      swap1\n      pop\n        /* \"#utility.yul\":3234:3509   */\n      swap3\n      swap2\n      pop\n      pop\n      jump\t// out\n        /* \"#utility.yul\":3515:3763   */\n    tag_19:\n        /* \"#utility.yul\":3621:3625   */\n      0x00\n        /* \"#utility.yul\":3659:3661   */\n      0x20\n        /* \"#utility.yul\":3648:3657   */\n      dup3\n        /* \"#utility.yul\":3644:3662   */\n      add\n        /* \"#utility.yul\":3636:3662   */\n      swap1\n      pop\n        /* \"#utility.yul\":3672:3756   */\n      tag_102\n        /* \"#utility.yul\":3753:3754   */\n      0x00\n        /* \"#utility.yul\":3742:3751   */\n      dup4\n        /* \"#utility.yul\":3738:3755   */\n      add\n        /* \"#utility.yul\":3729:3735   */\n      dup5\n        /* \"#utility.yul\":3672:3756   */\n      tag_75\n      jump\t// in\n    tag_102:\n        /* \"#utility.yul\":3515:3763   */\n      swap3\n      swap2\n      pop\n      pop\n      jump\t// out\n        /* \"#utility.yul\":3769:4192   */\n    tag_24:\n        /* \"#utility.yul\":3910:3914   */\n      0x00\n        /* \"#utility.yul\":3948:3950   */\n      0x40\n        /* \"#utility.yul\":3937:3946   */\n      dup3\n        /* \"#utility.yul\":3933:3951   */\n      add\n        /* \"#utility.yul\":3925:3951   */\n      swap1\n      pop\n        /* \"#utility.yul\":3997:4006   */\n      dup2\n        /* \"#utility.yul\":3991:3995   */\n      dup2\n        /* \"#utility.yul\":3987:4007   */\n      sub\n        /* \"#utility.yul\":3983:3984   */\n      0x00\n        /* \"#utility.yul\":3972:3981   */\n      dup4\n        /* \"#utility.yul\":3968:3985   */\n      add\n        /* \"#utility.yul\":3961:4008   */\n      mstore\n        /* \"#utility.yul\":4025:4103   */\n      tag_104\n        /* \"#utility.yul\":4098:4102   */\n      dup2\n        /* \"#utility.yul\":4089:4095   */\n      dup6\n        /* \"#utility.yul\":4025:4103   */\n      tag_79\n      jump\t// in\n    tag_104:\n        /* \"#utility.yul\":4017:4103   */\n      swap1\n      pop\n        /* \"#utility.yul\":4113:4185   */\n      tag_105\n        /* \"#utility.yul\":4181:4183   */\n      0x20\n        /* \"#utility.yul\":4170:4179   */\n      dup4\n        /* \"#utility.yul\":4166:4184   */\n      add\n        /* \"#utility.yul\":4157:4163   */\n      dup5\n        /* \"#utility.yul\":4113:4185   */\n      tag_71\n      jump\t// in\n    tag_105:\n        /* \"#utility.yul\":3769:4192   */\n      swap4\n      swap3\n      pop\n      pop\n      pop\n      jump\t// out\n        /* \"#utility.yul\":4198:4420   */\n    tag_13:\n        /* \"#utility.yul\":4291:4295   */\n      0x00\n        /* \"#utility.yul\":4329:4331   */\n      0x20\n        /* \"#utility.yul\":4318:4327   */\n      dup3\n        /* \"#utility.yul\":4314:4332   */\n      add\n        /* \"#utility.yul\":4306:4332   */\n      swap1\n      pop\n        /* \"#utility.yul\":4342:4413   */\n      tag_107\n        /* \"#utility.yul\":4410:4411   */\n      0x00\n        /* \"#utility.yul\":4399:4408   */\n      dup4\n        /* \"#utility.yul\":4395:4412   */\n      add\n        /* \"#utility.yul\":4386:4392   */\n      dup5\n        /* \"#utility.yul\":4342:4413   */\n      tag_95\n      jump\t// in\n    tag_107:\n        /* \"#utility.yul\":4198:4420   */\n      swap3\n      swap2\n      pop\n      pop\n      jump\t// out\n        /* \"#utility.yul\":4426:4555   */\n    tag_38:\n        /* \"#utility.yul\":4460:4466   */\n      0x00\n        /* \"#utility.yul\":4487:4507   */\n      tag_109\n      tag_110\n      jump\t// in\n    tag_109:\n        /* \"#utility.yul\":4477:4507   */\n      swap1\n      pop\n        /* \"#utility.yul\":4516:4549   */\n      tag_111\n        /* \"#utility.yul\":4544:4548   */\n      dup3\n        /* \"#utility.yul\":4536:4542   */\n      dup3\n        /* \"#utility.yul\":4516:4549   */\n      tag_112\n      jump\t// in\n    tag_111:\n        /* \"#utility.yul\":4426:4555   */\n      swap2\n      swap1\n      pop\n      jump\t// out\n        /* \"#utility.yul\":4561:4636   */\n    tag_110:\n        /* \"#utility.yul\":4594:4600   */\n      0x00\n        /* \"#utility.yul\":4627:4629   */\n      0x40\n        /* \"#utility.yul\":4621:4630   */\n      mload\n        /* \"#utility.yul\":4611:4630   */\n      swap1\n      pop\n        /* \"#utility.yul\":4561:4636   */\n      swap1\n      jump\t// out\n        /* \"#utility.yul\":4642:4950   */\n    tag_37:\n        /* \"#utility.yul\":4704:4708   */\n      0x00\n        /* \"#utility.yul\":4794:4812   */\n      0xffffffffffffffff\n        /* \"#utility.yul\":4786:4792   */\n      dup3\n        /* \"#utility.yul\":4783:4813   */\n      gt\n        /* \"#utility.yul\":4780:4836   */\n      iszero\n      tag_115\n      jumpi\n        /* \"#utility.yul\":4816:4834   */\n      tag_116\n      tag_117\n      jump\t// in\n    tag_116:\n        /* \"#utility.yul\":4780:4836   */\n    tag_115:\n        /* \"#utility.yul\":4854:4883   */\n      tag_118\n        /* \"#utility.yul\":4876:4882   */\n      dup3\n        /* \"#utility.yul\":4854:4883   */\n      tag_88\n      jump\t// in\n    tag_118:\n        /* \"#utility.yul\":4846:4883   */\n      swap1\n      pop\n        /* \"#utility.yul\":4938:4942   */\n      0x20\n        /* \"#utility.yul\":4932:4936   */\n      dup2\n        /* \"#utility.yul\":4928:4943   */\n      add\n        /* \"#utility.yul\":4920:4943   */\n      swap1\n      pop\n        /* \"#utility.yul\":4642:4950   */\n      swap2\n      swap1\n      pop\n      jump\t// out\n        /* \"#utility.yul\":4956:5055   */\n    tag_82:\n        /* \"#utility.yul\":5008:5014   */\n      0x00\n        /* \"#utility.yul\":5042:5047   */\n      dup2\n        /* \"#utility.yul\":5036:5048   */\n      mload\n        /* \"#utility.yul\":5026:5048   */\n      swap1\n      pop\n        /* \"#utility.yul\":4956:5055   */\n      swap2\n      swap1\n      pop\n      jump\t// out\n        /* \"#utility.yul\":5061:5230   */\n    tag_84:\n        /* \"#utility.yul\":5145:5156   */\n      0x00\n        /* \"#utility.yul\":5179:5185   */\n      dup3\n        /* \"#utility.yul\":5174:5177   */\n      dup3\n        /* \"#utility.yul\":5167:5186   */\n      mstore\n        /* \"#utility.yul\":5219:5223   */\n      0x20\n        /* \"#utility.yul\":5214:5217   */\n      dup3\n        /* \"#utility.yul\":5210:5224   */\n      add\n        /* \"#utility.yul\":5195:5224   */\n      swap1\n      pop\n        /* \"#utility.yul\":5061:5230   */\n      swap3\n      swap2\n      pop\n      pop\n      jump\t// out\n        /* \"#utility.yul\":5236:5384   */\n    tag_93:\n        /* \"#utility.yul\":5338:5349   */\n      0x00\n        /* \"#utility.yul\":5375:5378   */\n      dup2\n        /* \"#utility.yul\":5360:5378   */\n      swap1\n      pop\n        /* \"#utility.yul\":5236:5384   */\n      swap3\n      swap2\n      pop\n      pop\n      jump\t// out\n        /* \"#utility.yul\":5390:5486   */\n    tag_74:\n        /* \"#utility.yul\":5427:5434   */\n      0x00\n        /* \"#utility.yul\":5456:5480   */\n      tag_123\n        /* \"#utility.yul\":5474:5479   */\n      dup3\n        /* \"#utility.yul\":5456:5480   */\n      tag_124\n      jump\t// in\n    tag_123:\n        /* \"#utility.yul\":5445:5480   */\n      swap1\n      pop\n        /* \"#utility.yul\":5390:5486   */\n      swap2\n      swap1\n      pop\n      jump\t// out\n        /* \"#utility.yul\":5492:5618   */\n    tag_124:\n        /* \"#utility.yul\":5529:5536   */\n      0x00\n        /* \"#utility.yul\":5569:5611   */\n      0xffffffffffffffffffffffffffffffffffffffff\n        /* \"#utility.yul\":5562:5567   */\n      dup3\n        /* \"#utility.yul\":5558:5612   */\n      and\n        /* \"#utility.yul\":5547:5612   */\n      swap1\n      pop\n        /* \"#utility.yul\":5492:5618   */\n      swap2\n      swap1\n      pop\n      jump\t// out\n        /* \"#utility.yul\":5624:5701   */\n    tag_98:\n        /* \"#utility.yul\":5661:5668   */\n      0x00\n        /* \"#utility.yul\":5690:5695   */\n      dup2\n        /* \"#utility.yul\":5679:5695   */\n      swap1\n      pop\n        /* \"#utility.yul\":5624:5701   */\n      swap2\n      swap1\n      pop\n      jump\t// out\n        /* \"#utility.yul\":5707:5846   */\n    tag_78:\n        /* \"#utility.yul\":5770:5779   */\n      0x00\n        /* \"#utility.yul\":5803:5840   */\n      tag_128\n        /* \"#utility.yul\":5834:5839   */\n      dup3\n        /* \"#utility.yul\":5803:5840   */\n      tag_129\n      jump\t// in\n    tag_128:\n        /* \"#utility.yul\":5790:5840   */\n      swap1\n      pop\n        /* \"#utility.yul\":5707:5846   */\n      swap2\n      swap1\n      pop\n      jump\t// out\n        /* \"#utility.yul\":5852:5978   */\n    tag_129:\n        /* \"#utility.yul\":5902:5911   */\n      0x00\n        /* \"#utility.yul\":5935:5972   */\n      tag_131\n        /* \"#utility.yul\":5966:5971   */\n      dup3\n        /* \"#utility.yul\":5935:5972   */\n      tag_132\n      jump\t// in\n    tag_131:\n        /* \"#utility.yul\":5922:5972   */\n      swap1\n      pop\n        /* \"#utility.yul\":5852:5978   */\n      swap2\n      swap1\n      pop\n      jump\t// out\n        /* \"#utility.yul\":5984:6097   */\n    tag_132:\n        /* \"#utility.yul\":6034:6043   */\n      0x00\n        /* \"#utility.yul\":6067:6091   */\n      tag_134\n        /* \"#utility.yul\":6085:6090   */\n      dup3\n        /* \"#utility.yul\":6067:6091   */\n      tag_124\n      jump\t// in\n    tag_134:\n        /* \"#utility.yul\":6054:6091   */\n      swap1\n      pop\n        /* \"#utility.yul\":5984:6097   */\n      swap2\n      swap1\n      pop\n      jump\t// out\n        /* \"#utility.yul\":6103:6257   */\n    tag_43:\n        /* \"#utility.yul\":6187:6193   */\n      dup3\n        /* \"#utility.yul\":6182:6185   */\n      dup2\n        /* \"#utility.yul\":6177:6180   */\n      dup4\n        /* \"#utility.yul\":6164:6194   */\n      calldatacopy\n        /* \"#utility.yul\":6249:6250   */\n      0x00\n        /* \"#utility.yul\":6240:6246   */\n      dup4\n        /* \"#utility.yul\":6235:6238   */\n      dup4\n        /* \"#utility.yul\":6231:6247   */\n      add\n        /* \"#utility.yul\":6224:6251   */\n      mstore\n        /* \"#utility.yul\":6103:6257   */\n      pop\n      pop\n      pop\n      jump\t// out\n        /* \"#utility.yul\":6263:6570   */\n    tag_86:\n        /* \"#utility.yul\":6331:6332   */\n      0x00\n        /* \"#utility.yul\":6341:6454   */\n    tag_137:\n        /* \"#utility.yul\":6355:6361   */\n      dup4\n        /* \"#utility.yul\":6352:6353   */\n      dup2\n        /* \"#utility.yul\":6349:6362   */\n      lt\n        /* \"#utility.yul\":6341:6454   */\n      iszero\n      tag_139\n      jumpi\n        /* \"#utility.yul\":6440:6441   */\n      dup1\n        /* \"#utility.yul\":6435:6438   */\n      dup3\n        /* \"#utility.yul\":6431:6442   */\n      add\n        /* \"#utility.yul\":6425:6443   */\n      mload\n        /* \"#utility.yul\":6421:6422   */\n      dup2\n        /* \"#utility.yul\":6416:6419   */\n      dup5\n        /* \"#utility.yul\":6412:6423   */\n      add\n        /* \"#utility.yul\":6405:6444   */\n      mstore\n        /* \"#utility.yul\":6377:6379   */\n      0x20\n        /* \"#utility.yul\":6374:6375   */\n      dup2\n        /* \"#utility.yul\":6370:6380   */\n      add\n        /* \"#utility.yul\":6365:6380   */\n      swap1\n      pop\n        /* \"#utility.yul\":6341:6454   */\n      jump(tag_137)\n    tag_139:\n        /* \"#utility.yul\":6472:6478   */\n      dup4\n        /* \"#utility.yul\":6469:6470   */\n      dup2\n        /* \"#utility.yul\":6466:6479   */\n      gt\n        /* \"#utility.yul\":6463:6564   */\n      iszero\n      tag_140\n      jumpi\n        /* \"#utility.yul\":6552:6553   */\n      0x00\n        /* \"#utility.yul\":6543:6549   */\n      dup5\n        /* \"#utility.yul\":6538:6541   */\n      dup5\n        /* \"#utility.yul\":6534:6550   */\n      add\n        /* \"#utility.yul\":6527:6554   */\n      mstore\n        /* \"#utility.yul\":6463:6564   */\n    tag_140:\n        /* \"#utility.yul\":6312:6570   */\n      pop\n        /* \"#utility.yul\":6263:6570   */\n      pop\n      pop\n      pop\n      jump\t// out\n        /* \"#utility.yul\":6576:6857   */\n    tag_112:\n        /* \"#utility.yul\":6659:6686   */\n      tag_142\n        /* \"#utility.yul\":6681:6685   */\n      dup3\n        /* \"#utility.yul\":6659:6686   */\n      tag_88\n      jump\t// in\n    tag_142:\n        /* \"#utility.yul\":6651:6657   */\n      dup2\n        /* \"#utility.yul\":6647:6687   */\n      add\n        /* \"#utility.yul\":6789:6795   */\n      dup2\n        /* \"#utility.yul\":6777:6787   */\n      dup2\n        /* \"#utility.yul\":6774:6796   */\n      lt\n        /* \"#utility.yul\":6753:6771   */\n      0xffffffffffffffff\n        /* \"#utility.yul\":6741:6751   */\n      dup3\n        /* \"#utility.yul\":6738:6772   */\n      gt\n        /* \"#utility.yul\":6735:6797   */\n      or\n        /* \"#utility.yul\":6732:6820   */\n      iszero\n      tag_143\n      jumpi\n        /* \"#utility.yul\":6800:6818   */\n      tag_144\n      tag_117\n      jump\t// in\n    tag_144:\n        /* \"#utility.yul\":6732:6820   */\n    tag_143:\n        /* \"#utility.yul\":6840:6850   */\n      dup1\n        /* \"#utility.yul\":6836:6838   */\n      0x40\n        /* \"#utility.yul\":6829:6851   */\n      mstore\n        /* \"#utility.yul\":6619:6857   */\n      pop\n        /* \"#utility.yul\":6576:6857   */\n      pop\n      pop\n      jump\t// out\n        /* \"#utility.yul\":6863:7043   */\n    tag_117:\n        /* \"#utility.yul\":6911:6988   */\n      0x4e487b7100000000000000000000000000000000000000000000000000000000\n        /* \"#utility.yul\":6908:6909   */\n      0x00\n        /* \"#utility.yul\":6901:6989   */\n      mstore\n        /* \"#utility.yul\":7008:7012   */\n      0x41\n        /* \"#utility.yul\":7005:7006   */\n      0x04\n        /* \"#utility.yul\":6998:7013   */\n      mstore\n        /* \"#utility.yul\":7032:7036   */\n      0x24\n        /* \"#utility.yul\":7029:7030   */\n      0x00\n        /* \"#utility.yul\":7022:7037   */\n      revert\n        /* \"#utility.yul\":7049:7166   */\n    tag_52:\n        /* \"#utility.yul\":7158:7159   */\n      0x00\n        /* \"#utility.yul\":7155:7156   */\n      dup1\n        /* \"#utility.yul\":7148:7160   */\n      revert\n        /* \"#utility.yul\":7172:7289   */\n    tag_41:\n        /* \"#utility.yul\":7281:7282   */\n      0x00\n        /* \"#utility.yul\":7278:7279   */\n      dup1\n        /* \"#utility.yul\":7271:7283   */\n      revert\n        /* \"#utility.yul\":7295:7412   */\n    tag_64:\n        /* \"#utility.yul\":7404:7405   */\n      0x00\n        /* \"#utility.yul\":7401:7402   */\n      dup1\n        /* \"#utility.yul\":7394:7406   */\n      revert\n        /* \"#utility.yul\":7418:7535   */\n    tag_61:\n        /* \"#utility.yul\":7527:7528   */\n      0x00\n        /* \"#utility.yul\":7524:7525   */\n      dup1\n        /* \"#utility.yul\":7517:7529   */\n      revert\n        /* \"#utility.yul\":7541:7643   */\n    tag_88:\n        /* \"#utility.yul\":7582:7588   */\n      0x00\n        /* \"#utility.yul\":7633:7635   */\n      0x1f\n        /* \"#utility.yul\":7629:7636   */\n      not\n        /* \"#utility.yul\":7624:7626   */\n      0x1f\n        /* \"#utility.yul\":7617:7622   */\n      dup4\n        /* \"#utility.yul\":7613:7627   */\n      add\n        /* \"#utility.yul\":7609:7637   */\n      and\n        /* \"#utility.yul\":7599:7637   */\n      swap1\n      pop\n        /* \"#utility.yul\":7541:7643   */\n      swap2\n      swap1\n      pop\n      jump\t// out\n        /* \"#utility.yul\":7649:7771   */\n    tag_47:\n        /* \"#utility.yul\":7722:7746   */\n      tag_152\n        /* \"#utility.yul\":7740:7745   */\n      dup2\n        /* \"#utility.yul\":7722:7746   */\n      tag_74\n      jump\t// in\n    tag_152:\n        /* \"#utility.yul\":7715:7720   */\n      dup2\n        /* \"#utility.yul\":7712:7747   */\n      eq\n        /* \"#utility.yul\":7702:7765   */\n      tag_153\n      jumpi\n        /* \"#utility.yul\":7761:7762   */\n      0x00\n        /* \"#utility.yul\":7758:7759   */\n      dup1\n        /* \"#utility.yul\":7751:7763   */\n      revert\n        /* \"#utility.yul\":7702:7765   */\n    tag_153:\n        /* \"#utility.yul\":7649:7771   */\n      pop\n      jump\t// out\n        /* \"#utility.yul\":7777:7899   */\n    tag_57:\n        /* \"#utility.yul\":7850:7874   */\n      tag_155\n        /* \"#utility.yul\":7868:7873   */\n      dup2\n        /* \"#utility.yul\":7850:7874   */\n      tag_98\n      jump\t// in\n    tag_155:\n        /* \"#utility.yul\":7843:7848   */\n      dup2\n        /* \"#utility.yul\":7840:7875   */\n      eq\n        /* \"#utility.yul\":7830:7893   */\n      tag_156\n      jumpi\n        /* \"#utility.yul\":7889:7890   */\n      0x00\n        /* \"#utility.yul\":7886:7887   */\n      dup1\n        /* \"#utility.yul\":7879:7891   */\n      revert\n        /* \"#utility.yul\":7830:7893   */\n    tag_156:\n        /* \"#utility.yul\":7777:7899   */\n      pop\n      jump\t// out\n    stop\n\n    sub_0: assembly {\n            /* \"smartContract/contracts/NewVote.sol\":59:2583  contract Union{... */\n          mstore(0x40, 0x80)\n            /* \"smartContract/contracts/NewVote.sol\":932:1049  constructor(string memory _unionName,address owner){... */\n          callvalue\n          dup1\n          iszero\n          tag_1\n          jumpi\n          0x00\n          dup1\n          revert\n        tag_1:\n          pop\n          mload(0x40)\n          sub(codesize, bytecodeSize)\n          dup1\n          bytecodeSize\n          dup4\n          codecopy\n          dup2\n          dup2\n          add\n          0x40\n          mstore\n          dup2\n          add\n          swap1\n          tag_2\n          swap2\n          swap1\n          tag_3\n          jump\t// in\n        tag_2:\n            /* \"smartContract/contracts/NewVote.sol\":1006:1011  owner */\n          dup1\n            /* \"smartContract/contracts/NewVote.sol\":992:1003  chairperson */\n          0x00\n          dup1\n            /* \"smartContract/contracts/NewVote.sol\":992:1011  chairperson = owner */\n          0x0100\n          exp\n          dup2\n          sload\n          dup2\n          0xffffffffffffffffffffffffffffffffffffffff\n          mul\n          not\n          and\n          swap1\n          dup4\n          0xffffffffffffffffffffffffffffffffffffffff\n          and\n          mul\n          or\n          swap1\n          sstore\n          pop\n            /* \"smartContract/contracts/NewVote.sol\":1032:1042  _unionName */\n          dup2\n            /* \"smartContract/contracts/NewVote.sol\":1020:1029  unionName */\n          0x01\n            /* \"smartContract/contracts/NewVote.sol\":1020:1042  unionName = _unionName */\n          swap1\n          dup1\n          mload\n          swap1\n          0x20\n          add\n          swap1\n          tag_6\n          swap3\n          swap2\n          swap1\n          tag_7\n          jump\t// in\n        tag_6:\n          pop\n            /* \"smartContract/contracts/NewVote.sol\":932:1049  constructor(string memory _unionName,address owner){... */\n          pop\n          pop\n            /* \"smartContract/contracts/NewVote.sol\":59:2583  contract Union{... */\n          jump(tag_8)\n        tag_7:\n          dup3\n          dup1\n          sload\n          tag_9\n          swap1\n          tag_10\n          jump\t// in\n        tag_9:\n          swap1\n          0x00\n          mstore\n          keccak256(0x00, 0x20)\n          swap1\n          0x1f\n          add\n          0x20\n          swap1\n          div\n          dup2\n          add\n          swap3\n          dup3\n          tag_12\n          jumpi\n          0x00\n          dup6\n          sstore\n          jump(tag_11)\n        tag_12:\n          dup3\n          0x1f\n          lt\n          tag_13\n          jumpi\n          dup1\n          mload\n          not(0xff)\n          and\n          dup4\n          dup1\n          add\n          or\n          dup6\n          sstore\n          jump(tag_11)\n        tag_13:\n          dup3\n          dup1\n          add\n          0x01\n          add\n          dup6\n          sstore\n          dup3\n          iszero\n          tag_11\n          jumpi\n          swap2\n          dup3\n          add\n        tag_14:\n          dup3\n          dup2\n          gt\n          iszero\n          tag_15\n          jumpi\n          dup3\n          mload\n          dup3\n          sstore\n          swap2\n          0x20\n          add\n          swap2\n          swap1\n          0x01\n          add\n          swap1\n          jump(tag_14)\n        tag_15:\n        tag_11:\n          pop\n          swap1\n          pop\n          tag_16\n          swap2\n          swap1\n          tag_17\n          jump\t// in\n        tag_16:\n          pop\n          swap1\n          jump\t// out\n        tag_17:\n        tag_18:\n          dup1\n          dup3\n          gt\n          iszero\n          tag_19\n          jumpi\n          0x00\n          dup2\n          0x00\n          swap1\n          sstore\n          pop\n          0x01\n          add\n          jump(tag_18)\n        tag_19:\n          pop\n          swap1\n          jump\t// out\n            /* \"#utility.yul\":7:428   */\n        tag_21:\n            /* \"#utility.yul\":96:101   */\n          0x00\n            /* \"#utility.yul\":121:187   */\n          tag_23\n            /* \"#utility.yul\":137:186   */\n          tag_24\n            /* \"#utility.yul\":179:185   */\n          dup5\n            /* \"#utility.yul\":137:186   */\n          tag_25\n          jump\t// in\n        tag_24:\n            /* \"#utility.yul\":121:187   */\n          tag_26\n          jump\t// in\n        tag_23:\n            /* \"#utility.yul\":112:187   */\n          swap1\n          pop\n            /* \"#utility.yul\":210:216   */\n          dup3\n            /* \"#utility.yul\":203:208   */\n          dup2\n            /* \"#utility.yul\":196:217   */\n          mstore\n            /* \"#utility.yul\":248:252   */\n          0x20\n            /* \"#utility.yul\":241:246   */\n          dup2\n            /* \"#utility.yul\":237:253   */\n          add\n            /* \"#utility.yul\":286:289   */\n          dup5\n            /* \"#utility.yul\":277:283   */\n          dup5\n            /* \"#utility.yul\":272:275   */\n          dup5\n            /* \"#utility.yul\":268:284   */\n          add\n            /* \"#utility.yul\":265:290   */\n          gt\n            /* \"#utility.yul\":262:374   */\n          iszero\n          tag_27\n          jumpi\n            /* \"#utility.yul\":293:372   */\n          tag_28\n          tag_29\n          jump\t// in\n        tag_28:\n            /* \"#utility.yul\":262:374   */\n        tag_27:\n            /* \"#utility.yul\":383:422   */\n          tag_30\n            /* \"#utility.yul\":415:421   */\n          dup5\n            /* \"#utility.yul\":410:413   */\n          dup3\n            /* \"#utility.yul\":405:408   */\n          dup6\n            /* \"#utility.yul\":383:422   */\n          tag_31\n          jump\t// in\n        tag_30:\n            /* \"#utility.yul\":102:428   */\n          pop\n            /* \"#utility.yul\":7:428   */\n          swap4\n          swap3\n          pop\n          pop\n          pop\n          jump\t// out\n            /* \"#utility.yul\":434:577   */\n        tag_32:\n            /* \"#utility.yul\":491:496   */\n          0x00\n            /* \"#utility.yul\":522:528   */\n          dup2\n            /* \"#utility.yul\":516:529   */\n          mload\n            /* \"#utility.yul\":507:529   */\n          swap1\n          pop\n            /* \"#utility.yul\":538:571   */\n          tag_34\n            /* \"#utility.yul\":565:570   */\n          dup2\n            /* \"#utility.yul\":538:571   */\n          tag_35\n          jump\t// in\n        tag_34:\n            /* \"#utility.yul\":434:577   */\n          swap3\n          swap2\n          pop\n          pop\n          jump\t// out\n            /* \"#utility.yul\":597:952   */\n        tag_36:\n            /* \"#utility.yul\":664:669   */\n          0x00\n            /* \"#utility.yul\":713:716   */\n          dup3\n            /* \"#utility.yul\":706:710   */\n          0x1f\n            /* \"#utility.yul\":698:704   */\n          dup4\n            /* \"#utility.yul\":694:711   */\n          add\n            /* \"#utility.yul\":690:717   */\n          slt\n            /* \"#utility.yul\":680:802   */\n          tag_38\n          jumpi\n            /* \"#utility.yul\":721:800   */\n          tag_39\n          tag_40\n          jump\t// in\n        tag_39:\n            /* \"#utility.yul\":680:802   */\n        tag_38:\n            /* \"#utility.yul\":831:837   */\n          dup2\n            /* \"#utility.yul\":825:838   */\n          mload\n            /* \"#utility.yul\":856:946   */\n          tag_41\n            /* \"#utility.yul\":942:945   */\n          dup5\n            /* \"#utility.yul\":934:940   */\n          dup3\n            /* \"#utility.yul\":927:931   */\n          0x20\n            /* \"#utility.yul\":919:925   */\n          dup7\n            /* \"#utility.yul\":915:932   */\n          add\n            /* \"#utility.yul\":856:946   */\n          tag_21\n          jump\t// in\n        tag_41:\n            /* \"#utility.yul\":847:946   */\n          swap2\n          pop\n            /* \"#utility.yul\":670:952   */\n          pop\n            /* \"#utility.yul\":597:952   */\n          swap3\n          swap2\n          pop\n          pop\n          jump\t// out\n            /* \"#utility.yul\":958:1638   */\n        tag_3:\n            /* \"#utility.yul\":1047:1053   */\n          0x00\n            /* \"#utility.yul\":1055:1061   */\n          dup1\n            /* \"#utility.yul\":1104:1106   */\n          0x40\n            /* \"#utility.yul\":1092:1101   */\n          dup4\n            /* \"#utility.yul\":1083:1090   */\n          dup6\n            /* \"#utility.yul\":1079:1102   */\n          sub\n            /* \"#utility.yul\":1075:1107   */\n          slt\n            /* \"#utility.yul\":1072:1191   */\n          iszero\n          tag_43\n          jumpi\n            /* \"#utility.yul\":1110:1189   */\n          tag_44\n          tag_45\n          jump\t// in\n        tag_44:\n            /* \"#utility.yul\":1072:1191   */\n        tag_43:\n            /* \"#utility.yul\":1251:1252   */\n          0x00\n            /* \"#utility.yul\":1240:1249   */\n          dup4\n            /* \"#utility.yul\":1236:1253   */\n          add\n            /* \"#utility.yul\":1230:1254   */\n          mload\n            /* \"#utility.yul\":1281:1299   */\n          0xffffffffffffffff\n            /* \"#utility.yul\":1273:1279   */\n          dup2\n            /* \"#utility.yul\":1270:1300   */\n          gt\n            /* \"#utility.yul\":1267:1384   */\n          iszero\n          tag_46\n          jumpi\n            /* \"#utility.yul\":1303:1382   */\n          tag_47\n          tag_48\n          jump\t// in\n        tag_47:\n            /* \"#utility.yul\":1267:1384   */\n        tag_46:\n            /* \"#utility.yul\":1408:1482   */\n          tag_49\n            /* \"#utility.yul\":1474:1481   */\n          dup6\n            /* \"#utility.yul\":1465:1471   */\n          dup3\n            /* \"#utility.yul\":1454:1463   */\n          dup7\n            /* \"#utility.yul\":1450:1472   */\n          add\n            /* \"#utility.yul\":1408:1482   */\n          tag_36\n          jump\t// in\n        tag_49:\n            /* \"#utility.yul\":1398:1482   */\n          swap3\n          pop\n            /* \"#utility.yul\":1201:1492   */\n          pop\n            /* \"#utility.yul\":1531:1533   */\n          0x20\n            /* \"#utility.yul\":1557:1621   */\n          tag_50\n            /* \"#utility.yul\":1613:1620   */\n          dup6\n            /* \"#utility.yul\":1604:1610   */\n          dup3\n            /* \"#utility.yul\":1593:1602   */\n          dup7\n            /* \"#utility.yul\":1589:1611   */\n          add\n            /* \"#utility.yul\":1557:1621   */\n          tag_32\n          jump\t// in\n        tag_50:\n            /* \"#utility.yul\":1547:1621   */\n          swap2\n          pop\n            /* \"#utility.yul\":1502:1631   */\n          pop\n            /* \"#utility.yul\":958:1638   */\n          swap3\n          pop\n          swap3\n          swap1\n          pop\n          jump\t// out\n            /* \"#utility.yul\":1644:1773   */\n        tag_26:\n            /* \"#utility.yul\":1678:1684   */\n          0x00\n            /* \"#utility.yul\":1705:1725   */\n          tag_52\n          tag_53\n          jump\t// in\n        tag_52:\n            /* \"#utility.yul\":1695:1725   */\n          swap1\n          pop\n            /* \"#utility.yul\":1734:1767   */\n          tag_54\n            /* \"#utility.yul\":1762:1766   */\n          dup3\n            /* \"#utility.yul\":1754:1760   */\n          dup3\n            /* \"#utility.yul\":1734:1767   */\n          tag_55\n          jump\t// in\n        tag_54:\n            /* \"#utility.yul\":1644:1773   */\n          swap2\n          swap1\n          pop\n          jump\t// out\n            /* \"#utility.yul\":1779:1854   */\n        tag_53:\n            /* \"#utility.yul\":1812:1818   */\n          0x00\n            /* \"#utility.yul\":1845:1847   */\n          0x40\n            /* \"#utility.yul\":1839:1848   */\n          mload\n            /* \"#utility.yul\":1829:1848   */\n          swap1\n          pop\n            /* \"#utility.yul\":1779:1854   */\n          swap1\n          jump\t// out\n            /* \"#utility.yul\":1860:2168   */\n        tag_25:\n            /* \"#utility.yul\":1922:1926   */\n          0x00\n            /* \"#utility.yul\":2012:2030   */\n          0xffffffffffffffff\n            /* \"#utility.yul\":2004:2010   */\n          dup3\n            /* \"#utility.yul\":2001:2031   */\n          gt\n            /* \"#utility.yul\":1998:2054   */\n          iszero\n          tag_58\n          jumpi\n            /* \"#utility.yul\":2034:2052   */\n          tag_59\n          tag_60\n          jump\t// in\n        tag_59:\n            /* \"#utility.yul\":1998:2054   */\n        tag_58:\n            /* \"#utility.yul\":2072:2101   */\n          tag_61\n            /* \"#utility.yul\":2094:2100   */\n          dup3\n            /* \"#utility.yul\":2072:2101   */\n          tag_62\n          jump\t// in\n        tag_61:\n            /* \"#utility.yul\":2064:2101   */\n          swap1\n          pop\n            /* \"#utility.yul\":2156:2160   */\n          0x20\n            /* \"#utility.yul\":2150:2154   */\n          dup2\n            /* \"#utility.yul\":2146:2161   */\n          add\n            /* \"#utility.yul\":2138:2161   */\n          swap1\n          pop\n            /* \"#utility.yul\":1860:2168   */\n          swap2\n          swap1\n          pop\n          jump\t// out\n            /* \"#utility.yul\":2174:2270   */\n        tag_63:\n            /* \"#utility.yul\":2211:2218   */\n          0x00\n            /* \"#utility.yul\":2240:2264   */\n          tag_65\n            /* \"#utility.yul\":2258:2263   */\n          dup3\n            /* \"#utility.yul\":2240:2264   */\n          tag_66\n          jump\t// in\n        tag_65:\n            /* \"#utility.yul\":2229:2264   */\n          swap1\n          pop\n            /* \"#utility.yul\":2174:2270   */\n          swap2\n          swap1\n          pop\n          jump\t// out\n            /* \"#utility.yul\":2276:2402   */\n        tag_66:\n            /* \"#utility.yul\":2313:2320   */\n          0x00\n            /* \"#utility.yul\":2353:2395   */\n          0xffffffffffffffffffffffffffffffffffffffff\n            /* \"#utility.yul\":2346:2351   */\n          dup3\n            /* \"#utility.yul\":2342:2396   */\n          and\n            /* \"#utility.yul\":2331:2396   */\n          swap1\n          pop\n            /* \"#utility.yul\":2276:2402   */\n          swap2\n          swap1\n          pop\n          jump\t// out\n            /* \"#utility.yul\":2408:2715   */\n        tag_31:\n            /* \"#utility.yul\":2476:2477   */\n          0x00\n            /* \"#utility.yul\":2486:2599   */\n        tag_69:\n            /* \"#utility.yul\":2500:2506   */\n          dup4\n            /* \"#utility.yul\":2497:2498   */\n          dup2\n            /* \"#utility.yul\":2494:2507   */\n          lt\n            /* \"#utility.yul\":2486:2599   */\n          iszero\n          tag_71\n          jumpi\n            /* \"#utility.yul\":2585:2586   */\n          dup1\n            /* \"#utility.yul\":2580:2583   */\n          dup3\n            /* \"#utility.yul\":2576:2587   */\n          add\n            /* \"#utility.yul\":2570:2588   */\n          mload\n            /* \"#utility.yul\":2566:2567   */\n          dup2\n            /* \"#utility.yul\":2561:2564   */\n          dup5\n            /* \"#utility.yul\":2557:2568   */\n          add\n            /* \"#utility.yul\":2550:2589   */\n          mstore\n            /* \"#utility.yul\":2522:2524   */\n          0x20\n            /* \"#utility.yul\":2519:2520   */\n          dup2\n            /* \"#utility.yul\":2515:2525   */\n          add\n            /* \"#utility.yul\":2510:2525   */\n          swap1\n          pop\n            /* \"#utility.yul\":2486:2599   */\n          jump(tag_69)\n        tag_71:\n            /* \"#utility.yul\":2617:2623   */\n          dup4\n            /* \"#utility.yul\":2614:2615   */\n          dup2\n            /* \"#utility.yul\":2611:2624   */\n          gt\n            /* \"#utility.yul\":2608:2709   */\n          iszero\n          tag_72\n          jumpi\n            /* \"#utility.yul\":2697:2698   */\n          0x00\n            /* \"#utility.yul\":2688:2694   */\n          dup5\n            /* \"#utility.yul\":2683:2686   */\n          dup5\n            /* \"#utility.yul\":2679:2695   */\n          add\n            /* \"#utility.yul\":2672:2699   */\n          mstore\n            /* \"#utility.yul\":2608:2709   */\n        tag_72:\n            /* \"#utility.yul\":2457:2715   */\n          pop\n            /* \"#utility.yul\":2408:2715   */\n          pop\n          pop\n          pop\n          jump\t// out\n            /* \"#utility.yul\":2721:3041   */\n        tag_10:\n            /* \"#utility.yul\":2765:2771   */\n          0x00\n            /* \"#utility.yul\":2802:2803   */\n          0x02\n            /* \"#utility.yul\":2796:2800   */\n          dup3\n            /* \"#utility.yul\":2792:2804   */\n          div\n            /* \"#utility.yul\":2782:2804   */\n          swap1\n          pop\n            /* \"#utility.yul\":2849:2850   */\n          0x01\n            /* \"#utility.yul\":2843:2847   */\n          dup3\n            /* \"#utility.yul\":2839:2851   */\n          and\n            /* \"#utility.yul\":2870:2888   */\n          dup1\n            /* \"#utility.yul\":2860:2941   */\n          tag_74\n          jumpi\n            /* \"#utility.yul\":2926:2930   */\n          0x7f\n            /* \"#utility.yul\":2918:2924   */\n          dup3\n            /* \"#utility.yul\":2914:2931   */\n          and\n            /* \"#utility.yul\":2904:2931   */\n          swap2\n          pop\n            /* \"#utility.yul\":2860:2941   */\n        tag_74:\n            /* \"#utility.yul\":2988:2990   */\n          0x20\n            /* \"#utility.yul\":2980:2986   */\n          dup3\n            /* \"#utility.yul\":2977:2991   */\n          lt\n            /* \"#utility.yul\":2957:2975   */\n          dup2\n            /* \"#utility.yul\":2954:2992   */\n          eq\n            /* \"#utility.yul\":2951:3035   */\n          iszero\n          tag_75\n          jumpi\n            /* \"#utility.yul\":3007:3025   */\n          tag_76\n          tag_77\n          jump\t// in\n        tag_76:\n            /* \"#utility.yul\":2951:3035   */\n        tag_75:\n            /* \"#utility.yul\":2772:3041   */\n          pop\n            /* \"#utility.yul\":2721:3041   */\n          swap2\n          swap1\n          pop\n          jump\t// out\n            /* \"#utility.yul\":3047:3328   */\n        tag_55:\n            /* \"#utility.yul\":3130:3157   */\n          tag_79\n            /* \"#utility.yul\":3152:3156   */\n          dup3\n            /* \"#utility.yul\":3130:3157   */\n          tag_62\n          jump\t// in\n        tag_79:\n            /* \"#utility.yul\":3122:3128   */\n          dup2\n            /* \"#utility.yul\":3118:3158   */\n          add\n            /* \"#utility.yul\":3260:3266   */\n          dup2\n            /* \"#utility.yul\":3248:3258   */\n          dup2\n            /* \"#utility.yul\":3245:3267   */\n          lt\n            /* \"#utility.yul\":3224:3242   */\n          0xffffffffffffffff\n            /* \"#utility.yul\":3212:3222   */\n          dup3\n            /* \"#utility.yul\":3209:3243   */\n          gt\n            /* \"#utility.yul\":3206:3268   */\n          or\n            /* \"#utility.yul\":3203:3291   */\n          iszero\n          tag_80\n          jumpi\n            /* \"#utility.yul\":3271:3289   */\n          tag_81\n          tag_60\n          jump\t// in\n        tag_81:\n            /* \"#utility.yul\":3203:3291   */\n        tag_80:\n            /* \"#utility.yul\":3311:3321   */\n          dup1\n            /* \"#utility.yul\":3307:3309   */\n          0x40\n            /* \"#utility.yul\":3300:3322   */\n          mstore\n            /* \"#utility.yul\":3090:3328   */\n          pop\n            /* \"#utility.yul\":3047:3328   */\n          pop\n          pop\n          jump\t// out\n            /* \"#utility.yul\":3334:3514   */\n        tag_77:\n            /* \"#utility.yul\":3382:3459   */\n          0x4e487b7100000000000000000000000000000000000000000000000000000000\n            /* \"#utility.yul\":3379:3380   */\n          0x00\n            /* \"#utility.yul\":3372:3460   */\n          mstore\n            /* \"#utility.yul\":3479:3483   */\n          0x22\n            /* \"#utility.yul\":3476:3477   */\n          0x04\n            /* \"#utility.yul\":3469:3484   */\n          mstore\n            /* \"#utility.yul\":3503:3507   */\n          0x24\n            /* \"#utility.yul\":3500:3501   */\n          0x00\n            /* \"#utility.yul\":3493:3508   */\n          revert\n            /* \"#utility.yul\":3520:3700   */\n        tag_60:\n            /* \"#utility.yul\":3568:3645   */\n          0x4e487b7100000000000000000000000000000000000000000000000000000000\n            /* \"#utility.yul\":3565:3566   */\n          0x00\n            /* \"#utility.yul\":3558:3646   */\n          mstore\n            /* \"#utility.yul\":3665:3669   */\n          0x41\n            /* \"#utility.yul\":3662:3663   */\n          0x04\n            /* \"#utility.yul\":3655:3670   */\n          mstore\n            /* \"#utility.yul\":3689:3693   */\n          0x24\n            /* \"#utility.yul\":3686:3687   */\n          0x00\n            /* \"#utility.yul\":3679:3694   */\n          revert\n            /* \"#utility.yul\":3706:3823   */\n        tag_40:\n            /* \"#utility.yul\":3815:3816   */\n          0x00\n            /* \"#utility.yul\":3812:3813   */\n          dup1\n            /* \"#utility.yul\":3805:3817   */\n          revert\n            /* \"#utility.yul\":3829:3946   */\n        tag_29:\n            /* \"#utility.yul\":3938:3939   */\n          0x00\n            /* \"#utility.yul\":3935:3936   */\n          dup1\n            /* \"#utility.yul\":3928:3940   */\n          revert\n            /* \"#utility.yul\":3952:4069   */\n        tag_48:\n            /* \"#utility.yul\":4061:4062   */\n          0x00\n            /* \"#utility.yul\":4058:4059   */\n          dup1\n            /* \"#utility.yul\":4051:4063   */\n          revert\n            /* \"#utility.yul\":4075:4192   */\n        tag_45:\n            /* \"#utility.yul\":4184:4185   */\n          0x00\n            /* \"#utility.yul\":4181:4182   */\n          dup1\n            /* \"#utility.yul\":4174:4186   */\n          revert\n            /* \"#utility.yul\":4198:4300   */\n        tag_62:\n            /* \"#utility.yul\":4239:4245   */\n          0x00\n            /* \"#utility.yul\":4290:4292   */\n          0x1f\n            /* \"#utility.yul\":4286:4293   */\n          not\n            /* \"#utility.yul\":4281:4283   */\n          0x1f\n            /* \"#utility.yul\":4274:4279   */\n          dup4\n            /* \"#utility.yul\":4270:4284   */\n          add\n            /* \"#utility.yul\":4266:4294   */\n          and\n            /* \"#utility.yul\":4256:4294   */\n          swap1\n          pop\n            /* \"#utility.yul\":4198:4300   */\n          swap2\n          swap1\n          pop\n          jump\t// out\n            /* \"#utility.yul\":4306:4428   */\n        tag_35:\n            /* \"#utility.yul\":4379:4403   */\n          tag_90\n            /* \"#utility.yul\":4397:4402   */\n          dup2\n            /* \"#utility.yul\":4379:4403   */\n          tag_63\n          jump\t// in\n        tag_90:\n            /* \"#utility.yul\":4372:4377   */\n          dup2\n            /* \"#utility.yul\":4369:4404   */\n          eq\n            /* \"#utility.yul\":4359:4422   */\n          tag_91\n          jumpi\n            /* \"#utility.yul\":4418:4419   */\n          0x00\n            /* \"#utility.yul\":4415:4416   */\n          dup1\n            /* \"#utility.yul\":4408:4420   */\n          revert\n            /* \"#utility.yul\":4359:4422   */\n        tag_91:\n            /* \"#utility.yul\":4306:4428   */\n          pop\n          jump\t// out\n            /* \"smartContract/contracts/NewVote.sol\":59:2583  contract Union{... */\n        tag_8:\n          dataSize(sub_0)\n          dup1\n          dataOffset(sub_0)\n          0x00\n          codecopy\n          0x00\n          return\n        stop\n\n        sub_0: assembly {\n                /* \"smartContract/contracts/NewVote.sol\":59:2583  contract Union{... */\n              mstore(0x40, 0x80)\n              jumpi(tag_1, lt(calldatasize, 0x04))\n              shr(0xe0, calldataload(0x00))\n              dup1\n              0x2e4176cf\n              eq\n              tag_2\n              jumpi\n              dup1\n              0x302a2a46\n              eq\n              tag_3\n              jumpi\n              dup1\n              0x43ef7e85\n              eq\n              tag_4\n              jumpi\n              dup1\n              0x4f5cbc1a\n              eq\n              tag_5\n              jumpi\n              dup1\n              0x64b9fb89\n              eq\n              tag_6\n              jumpi\n              dup1\n              0xe8d5940d\n              eq\n              tag_7\n              jumpi\n            tag_1:\n              0x00\n              dup1\n              revert\n                /* \"smartContract/contracts/NewVote.sol\":478:504  address public chairperson */\n            tag_2:\n              callvalue\n              dup1\n              iszero\n              tag_8\n              jumpi\n              0x00\n              dup1\n              revert\n            tag_8:\n              pop\n              tag_9\n              tag_10\n              jump\t// in\n            tag_9:\n              mload(0x40)\n              tag_11\n              swap2\n              swap1\n              tag_12\n              jump\t// in\n            tag_11:\n              mload(0x40)\n              dup1\n              swap2\n              sub\n              swap1\n              return\n                /* \"smartContract/contracts/NewVote.sol\":600:631  Suggestion[] public suggestions */\n            tag_3:\n              callvalue\n              dup1\n              iszero\n              tag_13\n              jumpi\n              0x00\n              dup1\n              revert\n            tag_13:\n              pop\n              tag_14\n              0x04\n              dup1\n              calldatasize\n              sub\n              dup2\n              add\n              swap1\n              tag_15\n              swap2\n              swap1\n              tag_16\n              jump\t// in\n            tag_15:\n              tag_17\n              jump\t// in\n            tag_14:\n              mload(0x40)\n              tag_18\n              swap4\n              swap3\n              swap2\n              swap1\n              tag_19\n              jump\t// in\n            tag_18:\n              mload(0x40)\n              dup1\n              swap2\n              sub\n              swap1\n              return\n                /* \"smartContract/contracts/NewVote.sol\":1125:1440  function createOneSuggestion(string memory _subject)external {... */\n            tag_4:\n              callvalue\n              dup1\n              iszero\n              tag_20\n              jumpi\n              0x00\n              dup1\n              revert\n            tag_20:\n              pop\n              tag_21\n              0x04\n              dup1\n              calldatasize\n              sub\n              dup2\n              add\n              swap1\n              tag_22\n              swap2\n              swap1\n              tag_23\n              jump\t// in\n            tag_22:\n              tag_24\n              jump\t// in\n            tag_21:\n              stop\n                /* \"smartContract/contracts/NewVote.sol\":506:529  string public unionName */\n            tag_5:\n              callvalue\n              dup1\n              iszero\n              tag_25\n              jumpi\n              0x00\n              dup1\n              revert\n            tag_25:\n              pop\n              tag_26\n              tag_27\n              jump\t// in\n            tag_26:\n              mload(0x40)\n              tag_28\n              swap2\n              swap1\n              tag_29\n              jump\t// in\n            tag_28:\n              mload(0x40)\n              dup1\n              swap2\n              sub\n              swap1\n              return\n                /* \"smartContract/contracts/NewVote.sol\":531:555  uint public suggestionNo */\n            tag_6:\n              callvalue\n              dup1\n              iszero\n              tag_30\n              jumpi\n              0x00\n              dup1\n              revert\n            tag_30:\n              pop\n              tag_31\n              tag_32\n              jump\t// in\n            tag_31:\n              mload(0x40)\n              tag_33\n              swap2\n              swap1\n              tag_34\n              jump\t// in\n            tag_33:\n              mload(0x40)\n              dup1\n              swap2\n              sub\n              swap1\n              return\n                /* \"smartContract/contracts/NewVote.sol\":1959:2367  function vote (string memory _subject, string memory _answer) public payable {... */\n            tag_7:\n              tag_35\n              0x04\n              dup1\n              calldatasize\n              sub\n              dup2\n              add\n              swap1\n              tag_36\n              swap2\n              swap1\n              tag_37\n              jump\t// in\n            tag_36:\n              tag_38\n              jump\t// in\n            tag_35:\n              stop\n                /* \"smartContract/contracts/NewVote.sol\":478:504  address public chairperson */\n            tag_10:\n              0x00\n              dup1\n              sload\n              swap1\n              0x0100\n              exp\n              swap1\n              div\n              0xffffffffffffffffffffffffffffffffffffffff\n              and\n              dup2\n              jump\t// out\n                /* \"smartContract/contracts/NewVote.sol\":600:631  Suggestion[] public suggestions */\n            tag_17:\n              0x04\n              dup2\n              dup2\n              sload\n              dup2\n              lt\n              tag_39\n              jumpi\n              0x00\n              dup1\n              revert\n            tag_39:\n              swap1\n              0x00\n              mstore\n              keccak256(0x00, 0x20)\n              swap1\n              0x04\n              mul\n              add\n              0x00\n              swap2\n              pop\n              swap1\n              pop\n              dup1\n              0x00\n              add\n              dup1\n              sload\n              tag_41\n              swap1\n              tag_42\n              jump\t// in\n            tag_41:\n              dup1\n              0x1f\n              add\n              0x20\n              dup1\n              swap2\n              div\n              mul\n              0x20\n              add\n              mload(0x40)\n              swap1\n              dup2\n              add\n              0x40\n              mstore\n              dup1\n              swap3\n              swap2\n              swap1\n              dup2\n              dup2\n              mstore\n              0x20\n              add\n              dup3\n              dup1\n              sload\n              tag_43\n              swap1\n              tag_42\n              jump\t// in\n            tag_43:\n              dup1\n              iszero\n              tag_44\n              jumpi\n              dup1\n              0x1f\n              lt\n              tag_45\n              jumpi\n              0x0100\n              dup1\n              dup4\n              sload\n              div\n              mul\n              dup4\n              mstore\n              swap2\n              0x20\n              add\n              swap2\n              jump(tag_44)\n            tag_45:\n              dup3\n              add\n              swap2\n              swap1\n              0x00\n              mstore\n              keccak256(0x00, 0x20)\n              swap1\n            tag_46:\n              dup2\n              sload\n              dup2\n              mstore\n              swap1\n              0x01\n              add\n              swap1\n              0x20\n              add\n              dup1\n              dup4\n              gt\n              tag_46\n              jumpi\n              dup3\n              swap1\n              sub\n              0x1f\n              and\n              dup3\n              add\n              swap2\n            tag_44:\n              pop\n              pop\n              pop\n              pop\n              pop\n              swap1\n              dup1\n              0x02\n              add\n              sload\n              swap1\n              dup1\n              0x03\n              add\n              0x00\n              swap1\n              sload\n              swap1\n              0x0100\n              exp\n              swap1\n              div\n              0xff\n              and\n              swap1\n              pop\n              dup4\n              jump\t// out\n                /* \"smartContract/contracts/NewVote.sol\":1125:1440  function createOneSuggestion(string memory _subject)external {... */\n            tag_24:\n                /* \"smartContract/contracts/NewVote.sol\":1193:1221  Suggestion memory suggestion */\n              tag_48\n              tag_49\n              jump\t// in\n            tag_48:\n                /* \"smartContract/contracts/NewVote.sol\":1249:1257  _subject */\n              dup2\n                /* \"smartContract/contracts/NewVote.sol\":1228:1238  suggestion */\n              dup2\n                /* \"smartContract/contracts/NewVote.sol\":1228:1246  suggestion.subject */\n              0x00\n              add\n                /* \"smartContract/contracts/NewVote.sol\":1228:1257  suggestion.subject = _subject */\n              dup2\n              swap1\n              mstore\n              pop\n                /* \"smartContract/contracts/NewVote.sol\":1290:1302  suggestionNo */\n              sload(0x02)\n                /* \"smartContract/contracts/NewVote.sol\":1264:1274  suggestion */\n              dup2\n                /* \"smartContract/contracts/NewVote.sol\":1264:1287  suggestion.suggestionNo */\n              0x40\n              add\n                /* \"smartContract/contracts/NewVote.sol\":1264:1302  suggestion.suggestionNo = suggestionNo */\n              dup2\n              dup2\n              mstore\n              pop\n              pop\n                /* \"smartContract/contracts/NewVote.sol\":1329:1333  true */\n              0x01\n                /* \"smartContract/contracts/NewVote.sol\":1309:1319  suggestion */\n              dup2\n                /* \"smartContract/contracts/NewVote.sol\":1309:1326  suggestion.status */\n              0x60\n              add\n                /* \"smartContract/contracts/NewVote.sol\":1309:1333  suggestion.status = true */\n              swap1\n              iszero\n              iszero\n              swap1\n              dup2\n              iszero\n              iszero\n              dup2\n              mstore\n              pop\n              pop\n                /* \"smartContract/contracts/NewVote.sol\":1340:1351  suggestions */\n              0x04\n                /* \"smartContract/contracts/NewVote.sol\":1357:1367  suggestion */\n              dup2\n                /* \"smartContract/contracts/NewVote.sol\":1340:1368  suggestions.push(suggestion) */\n              swap1\n              dup1\n              0x01\n              dup2\n              sload\n              add\n              dup1\n              dup3\n              sstore\n              dup1\n              swap2\n              pop\n              pop\n              0x01\n              swap1\n              sub\n              swap1\n              0x00\n              mstore\n              keccak256(0x00, 0x20)\n              swap1\n              0x04\n              mul\n              add\n              0x00\n              swap1\n              swap2\n              swap1\n              swap2\n              swap1\n              swap2\n              pop\n              0x00\n              dup3\n              add\n              mload\n              dup2\n              0x00\n              add\n              swap1\n              dup1\n              mload\n              swap1\n              0x20\n              add\n              swap1\n              tag_51\n              swap3\n              swap2\n              swap1\n              tag_52\n              jump\t// in\n            tag_51:\n              pop\n              0x20\n              dup3\n              add\n              mload\n              dup2\n              0x01\n              add\n              swap1\n              dup1\n              mload\n              swap1\n              0x20\n              add\n              swap1\n              tag_53\n              swap3\n              swap2\n              swap1\n              tag_54\n              jump\t// in\n            tag_53:\n              pop\n              0x40\n              dup3\n              add\n              mload\n              dup2\n              0x02\n              add\n              sstore\n              0x60\n              dup3\n              add\n              mload\n              dup2\n              0x03\n              add\n              exp(0x0100, 0x00)\n              dup2\n              sload\n              dup2\n              0xff\n              mul\n              not\n              and\n              swap1\n              dup4\n              iszero\n              iszero\n              mul\n              or\n              swap1\n              sstore\n              pop\n              pop\n              pop\n                /* \"smartContract/contracts/NewVote.sol\":1404:1416  suggestionNo */\n              sload(0x02)\n                /* \"smartContract/contracts/NewVote.sol\":1375:1391  findSuggestionNo */\n              0x03\n                /* \"smartContract/contracts/NewVote.sol\":1392:1400  _subject */\n              dup4\n                /* \"smartContract/contracts/NewVote.sol\":1375:1401  findSuggestionNo[_subject] */\n              mload(0x40)\n              tag_55\n              swap2\n              swap1\n              tag_56\n              jump\t// in\n            tag_55:\n              swap1\n              dup2\n              mstore\n              0x20\n              add\n              mload(0x40)\n              dup1\n              swap2\n              sub\n              swap1\n              keccak256\n                /* \"smartContract/contracts/NewVote.sol\":1375:1416  findSuggestionNo[_subject] = suggestionNo */\n              dup2\n              swap1\n              sstore\n              pop\n                /* \"smartContract/contracts/NewVote.sol\":1423:1435  suggestionNo */\n              0x02\n              0x00\n                /* \"smartContract/contracts/NewVote.sol\":1423:1437  suggestionNo++ */\n              dup2\n              sload\n              dup1\n              swap3\n              swap2\n              swap1\n              tag_57\n              swap1\n              tag_58\n              jump\t// in\n            tag_57:\n              swap2\n              swap1\n              pop\n              sstore\n              pop\n                /* \"smartContract/contracts/NewVote.sol\":1186:1440  {... */\n              pop\n                /* \"smartContract/contracts/NewVote.sol\":1125:1440  function createOneSuggestion(string memory _subject)external {... */\n              pop\n              jump\t// out\n                /* \"smartContract/contracts/NewVote.sol\":506:529  string public unionName */\n            tag_27:\n              0x01\n              dup1\n              sload\n              tag_59\n              swap1\n              tag_42\n              jump\t// in\n            tag_59:\n              dup1\n              0x1f\n              add\n              0x20\n              dup1\n              swap2\n              div\n              mul\n              0x20\n              add\n              mload(0x40)\n              swap1\n              dup2\n              add\n              0x40\n              mstore\n              dup1\n              swap3\n              swap2\n              swap1\n              dup2\n              dup2\n              mstore\n              0x20\n              add\n              dup3\n              dup1\n              sload\n              tag_60\n              swap1\n              tag_42\n              jump\t// in\n            tag_60:\n              dup1\n              iszero\n              tag_61\n              jumpi\n              dup1\n              0x1f\n              lt\n              tag_62\n              jumpi\n              0x0100\n              dup1\n              dup4\n              sload\n              div\n              mul\n              dup4\n              mstore\n              swap2\n              0x20\n              add\n              swap2\n              jump(tag_61)\n            tag_62:\n              dup3\n              add\n              swap2\n              swap1\n              0x00\n              mstore\n              keccak256(0x00, 0x20)\n              swap1\n            tag_63:\n              dup2\n              sload\n              dup2\n              mstore\n              swap1\n              0x01\n              add\n              swap1\n              0x20\n              add\n              dup1\n              dup4\n              gt\n              tag_63\n              jumpi\n              dup3\n              swap1\n              sub\n              0x1f\n              and\n              dup3\n              add\n              swap2\n            tag_61:\n              pop\n              pop\n              pop\n              pop\n              pop\n              dup2\n              jump\t// out\n                /* \"smartContract/contracts/NewVote.sol\":531:555  uint public suggestionNo */\n            tag_32:\n              sload(0x02)\n              dup2\n              jump\t// out\n                /* \"smartContract/contracts/NewVote.sol\":1959:2367  function vote (string memory _subject, string memory _answer) public payable {... */\n            tag_38:\n                /* \"smartContract/contracts/NewVote.sol\":2044:2079  Suggestion storage singleSuggestion */\n              0x00\n                /* \"smartContract/contracts/NewVote.sol\":2082:2093  suggestions */\n              0x04\n                /* \"smartContract/contracts/NewVote.sol\":2094:2110  findSuggestionNo */\n              0x03\n                /* \"smartContract/contracts/NewVote.sol\":2111:2119  _subject */\n              dup5\n                /* \"smartContract/contracts/NewVote.sol\":2094:2120  findSuggestionNo[_subject] */\n              mload(0x40)\n              tag_65\n              swap2\n              swap1\n              tag_56\n              jump\t// in\n            tag_65:\n              swap1\n              dup2\n              mstore\n              0x20\n              add\n              mload(0x40)\n              dup1\n              swap2\n              sub\n              swap1\n              keccak256\n              sload\n                /* \"smartContract/contracts/NewVote.sol\":2082:2121  suggestions[findSuggestionNo[_subject]] */\n              dup2\n              sload\n              dup2\n              lt\n              tag_66\n              jumpi\n              tag_67\n              tag_68\n              jump\t// in\n            tag_67:\n            tag_66:\n              swap1\n              0x00\n              mstore\n              keccak256(0x00, 0x20)\n              swap1\n              0x04\n              mul\n              add\n                /* \"smartContract/contracts/NewVote.sol\":2044:2121  Suggestion storage singleSuggestion = suggestions[findSuggestionNo[_subject]] */\n              swap1\n              pop\n                /* \"smartContract/contracts/NewVote.sol\":2163:2167  true */\n              0x01\n                /* \"smartContract/contracts/NewVote.sol\":2136:2167  singleSuggestion.status == true */\n              iszero\n              iszero\n                /* \"smartContract/contracts/NewVote.sol\":2136:2152  singleSuggestion */\n              dup2\n                /* \"smartContract/contracts/NewVote.sol\":2136:2159  singleSuggestion.status */\n              0x03\n              add\n              0x00\n              swap1\n              sload\n              swap1\n              0x0100\n              exp\n              swap1\n              div\n              0xff\n              and\n                /* \"smartContract/contracts/NewVote.sol\":2136:2167  singleSuggestion.status == true */\n              iszero\n              iszero\n              eq\n                /* \"smartContract/contracts/NewVote.sol\":2128:2197  require(singleSuggestion.status == true, \"current suggestion closed\") */\n              tag_70\n              jumpi\n              mload(0x40)\n              0x08c379a000000000000000000000000000000000000000000000000000000000\n              dup2\n              mstore\n              0x04\n              add\n              tag_71\n              swap1\n              tag_72\n              jump\t// in\n            tag_71:\n              mload(0x40)\n              dup1\n              swap2\n              sub\n              swap1\n              revert\n            tag_70:\n                /* \"smartContract/contracts/NewVote.sol\":2225:2229  1e18 */\n              0x0de0b6b3a7640000\n                /* \"smartContract/contracts/NewVote.sol\":2212:2221  msg.value */\n              callvalue\n                /* \"smartContract/contracts/NewVote.sol\":2212:2229  msg.value >= 1e18 */\n              lt\n              iszero\n                /* \"smartContract/contracts/NewVote.sol\":2204:2257  require(msg.value >= 1e18,\"more than send the token\") */\n              tag_73\n              jumpi\n              mload(0x40)\n              0x08c379a000000000000000000000000000000000000000000000000000000000\n              dup2\n              mstore\n              0x04\n              add\n              tag_74\n              swap1\n              tag_75\n              jump\t// in\n            tag_74:\n              mload(0x40)\n              dup1\n              swap2\n              sub\n              swap1\n              revert\n            tag_73:\n                /* \"smartContract/contracts/NewVote.sol\":2316:2332  singleSuggestion */\n              dup1\n                /* \"smartContract/contracts/NewVote.sol\":2316:2344  singleSuggestion.unionMember */\n              0x01\n              add\n                /* \"smartContract/contracts/NewVote.sol\":2350:2351  1 */\n              0x01\n                /* \"smartContract/contracts/NewVote.sol\":2316:2352  singleSuggestion.unionMember.push(1) */\n              swap1\n              dup1\n              0x01\n              dup2\n              sload\n              add\n              dup1\n              dup3\n              sstore\n              dup1\n              swap2\n              pop\n              pop\n              0x01\n              swap1\n              sub\n              swap1\n              0x00\n              mstore\n              keccak256(0x00, 0x20)\n              add\n              0x00\n              swap1\n              swap2\n              swap1\n              swap2\n              swap1\n              swap2\n              pop\n              sstore\n                /* \"smartContract/contracts/NewVote.sol\":2036:2367  {... */\n              pop\n                /* \"smartContract/contracts/NewVote.sol\":1959:2367  function vote (string memory _subject, string memory _answer) public payable {... */\n              pop\n              pop\n              jump\t// out\n            tag_49:\n              mload(0x40)\n              dup1\n              0x80\n              add\n              0x40\n              mstore\n              dup1\n              0x60\n              dup2\n              mstore\n              0x20\n              add\n              0x60\n              dup2\n              mstore\n              0x20\n              add\n              0x00\n              dup2\n              mstore\n              0x20\n              add\n              iszero(iszero(0x00))\n              dup2\n              mstore\n              pop\n              swap1\n              jump\t// out\n            tag_52:\n              dup3\n              dup1\n              sload\n              tag_77\n              swap1\n              tag_42\n              jump\t// in\n            tag_77:\n              swap1\n              0x00\n              mstore\n              keccak256(0x00, 0x20)\n              swap1\n              0x1f\n              add\n              0x20\n              swap1\n              div\n              dup2\n              add\n              swap3\n              dup3\n              tag_79\n              jumpi\n              0x00\n              dup6\n              sstore\n              jump(tag_78)\n            tag_79:\n              dup3\n              0x1f\n              lt\n              tag_80\n              jumpi\n              dup1\n              mload\n              not(0xff)\n              and\n              dup4\n              dup1\n              add\n              or\n              dup6\n              sstore\n              jump(tag_78)\n            tag_80:\n              dup3\n              dup1\n              add\n              0x01\n              add\n              dup6\n              sstore\n              dup3\n              iszero\n              tag_78\n              jumpi\n              swap2\n              dup3\n              add\n            tag_81:\n              dup3\n              dup2\n              gt\n              iszero\n              tag_82\n              jumpi\n              dup3\n              mload\n              dup3\n              sstore\n              swap2\n              0x20\n              add\n              swap2\n              swap1\n              0x01\n              add\n              swap1\n              jump(tag_81)\n            tag_82:\n            tag_78:\n              pop\n              swap1\n              pop\n              tag_83\n              swap2\n              swap1\n              tag_84\n              jump\t// in\n            tag_83:\n              pop\n              swap1\n              jump\t// out\n            tag_54:\n              dup3\n              dup1\n              sload\n              dup3\n              dup3\n              sstore\n              swap1\n              0x00\n              mstore\n              keccak256(0x00, 0x20)\n              swap1\n              dup2\n              add\n              swap3\n              dup3\n              iszero\n              tag_85\n              jumpi\n              swap2\n              0x20\n              mul\n              dup3\n              add\n            tag_86:\n              dup3\n              dup2\n              gt\n              iszero\n              tag_87\n              jumpi\n              dup3\n              mload\n              dup3\n              sstore\n              swap2\n              0x20\n              add\n              swap2\n              swap1\n              0x01\n              add\n              swap1\n              jump(tag_86)\n            tag_87:\n            tag_85:\n              pop\n              swap1\n              pop\n              tag_88\n              swap2\n              swap1\n              tag_84\n              jump\t// in\n            tag_88:\n              pop\n              swap1\n              jump\t// out\n            tag_84:\n            tag_89:\n              dup1\n              dup3\n              gt\n              iszero\n              tag_90\n              jumpi\n              0x00\n              dup2\n              0x00\n              swap1\n              sstore\n              pop\n              0x01\n              add\n              jump(tag_89)\n            tag_90:\n              pop\n              swap1\n              jump\t// out\n                /* \"#utility.yul\":7:419   */\n            tag_92:\n                /* \"#utility.yul\":85:90   */\n              0x00\n                /* \"#utility.yul\":110:176   */\n              tag_94\n                /* \"#utility.yul\":126:175   */\n              tag_95\n                /* \"#utility.yul\":168:174   */\n              dup5\n                /* \"#utility.yul\":126:175   */\n              tag_96\n              jump\t// in\n            tag_95:\n                /* \"#utility.yul\":110:176   */\n              tag_97\n              jump\t// in\n            tag_94:\n                /* \"#utility.yul\":101:176   */\n              swap1\n              pop\n                /* \"#utility.yul\":199:205   */\n              dup3\n                /* \"#utility.yul\":192:197   */\n              dup2\n                /* \"#utility.yul\":185:206   */\n              mstore\n                /* \"#utility.yul\":237:241   */\n              0x20\n                /* \"#utility.yul\":230:235   */\n              dup2\n                /* \"#utility.yul\":226:242   */\n              add\n                /* \"#utility.yul\":275:278   */\n              dup5\n                /* \"#utility.yul\":266:272   */\n              dup5\n                /* \"#utility.yul\":261:264   */\n              dup5\n                /* \"#utility.yul\":257:273   */\n              add\n                /* \"#utility.yul\":254:279   */\n              gt\n                /* \"#utility.yul\":251:363   */\n              iszero\n              tag_98\n              jumpi\n                /* \"#utility.yul\":282:361   */\n              tag_99\n              tag_100\n              jump\t// in\n            tag_99:\n                /* \"#utility.yul\":251:363   */\n            tag_98:\n                /* \"#utility.yul\":372:413   */\n              tag_101\n                /* \"#utility.yul\":406:412   */\n              dup5\n                /* \"#utility.yul\":401:404   */\n              dup3\n                /* \"#utility.yul\":396:399   */\n              dup6\n                /* \"#utility.yul\":372:413   */\n              tag_102\n              jump\t// in\n            tag_101:\n                /* \"#utility.yul\":91:419   */\n              pop\n                /* \"#utility.yul\":7:419   */\n              swap4\n              swap3\n              pop\n              pop\n              pop\n              jump\t// out\n                /* \"#utility.yul\":439:779   */\n            tag_103:\n                /* \"#utility.yul\":495:500   */\n              0x00\n                /* \"#utility.yul\":544:547   */\n              dup3\n                /* \"#utility.yul\":537:541   */\n              0x1f\n                /* \"#utility.yul\":529:535   */\n              dup4\n                /* \"#utility.yul\":525:542   */\n              add\n                /* \"#utility.yul\":521:548   */\n              slt\n                /* \"#utility.yul\":511:633   */\n              tag_105\n              jumpi\n                /* \"#utility.yul\":552:631   */\n              tag_106\n              tag_107\n              jump\t// in\n            tag_106:\n                /* \"#utility.yul\":511:633   */\n            tag_105:\n                /* \"#utility.yul\":669:675   */\n              dup2\n                /* \"#utility.yul\":656:676   */\n              calldataload\n                /* \"#utility.yul\":694:773   */\n              tag_108\n                /* \"#utility.yul\":769:772   */\n              dup5\n                /* \"#utility.yul\":761:767   */\n              dup3\n                /* \"#utility.yul\":754:758   */\n              0x20\n                /* \"#utility.yul\":746:752   */\n              dup7\n                /* \"#utility.yul\":742:759   */\n              add\n                /* \"#utility.yul\":694:773   */\n              tag_92\n              jump\t// in\n            tag_108:\n                /* \"#utility.yul\":685:773   */\n              swap2\n              pop\n                /* \"#utility.yul\":501:779   */\n              pop\n                /* \"#utility.yul\":439:779   */\n              swap3\n              swap2\n              pop\n              pop\n              jump\t// out\n                /* \"#utility.yul\":785:924   */\n            tag_109:\n                /* \"#utility.yul\":831:836   */\n              0x00\n                /* \"#utility.yul\":869:875   */\n              dup2\n                /* \"#utility.yul\":856:876   */\n              calldataload\n                /* \"#utility.yul\":847:876   */\n              swap1\n              pop\n                /* \"#utility.yul\":885:918   */\n              tag_111\n                /* \"#utility.yul\":912:917   */\n              dup2\n                /* \"#utility.yul\":885:918   */\n              tag_112\n              jump\t// in\n            tag_111:\n                /* \"#utility.yul\":785:924   */\n              swap3\n              swap2\n              pop\n              pop\n              jump\t// out\n                /* \"#utility.yul\":930:1439   */\n            tag_23:\n                /* \"#utility.yul\":999:1005   */\n              0x00\n                /* \"#utility.yul\":1048:1050   */\n              0x20\n                /* \"#utility.yul\":1036:1045   */\n              dup3\n                /* \"#utility.yul\":1027:1034   */\n              dup5\n                /* \"#utility.yul\":1023:1046   */\n              sub\n                /* \"#utility.yul\":1019:1051   */\n              slt\n                /* \"#utility.yul\":1016:1135   */\n              iszero\n              tag_114\n              jumpi\n                /* \"#utility.yul\":1054:1133   */\n              tag_115\n              tag_116\n              jump\t// in\n            tag_115:\n                /* \"#utility.yul\":1016:1135   */\n            tag_114:\n                /* \"#utility.yul\":1202:1203   */\n              0x00\n                /* \"#utility.yul\":1191:1200   */\n              dup3\n                /* \"#utility.yul\":1187:1204   */\n              add\n                /* \"#utility.yul\":1174:1205   */\n              calldataload\n                /* \"#utility.yul\":1232:1250   */\n              0xffffffffffffffff\n                /* \"#utility.yul\":1224:1230   */\n              dup2\n                /* \"#utility.yul\":1221:1251   */\n              gt\n                /* \"#utility.yul\":1218:1335   */\n              iszero\n              tag_117\n              jumpi\n                /* \"#utility.yul\":1254:1333   */\n              tag_118\n              tag_119\n              jump\t// in\n            tag_118:\n                /* \"#utility.yul\":1218:1335   */\n            tag_117:\n                /* \"#utility.yul\":1359:1422   */\n              tag_120\n                /* \"#utility.yul\":1414:1421   */\n              dup5\n                /* \"#utility.yul\":1405:1411   */\n              dup3\n                /* \"#utility.yul\":1394:1403   */\n              dup6\n                /* \"#utility.yul\":1390:1412   */\n              add\n                /* \"#utility.yul\":1359:1422   */\n              tag_103\n              jump\t// in\n            tag_120:\n                /* \"#utility.yul\":1349:1422   */\n              swap2\n              pop\n                /* \"#utility.yul\":1145:1432   */\n              pop\n                /* \"#utility.yul\":930:1439   */\n              swap3\n              swap2\n              pop\n              pop\n              jump\t// out\n                /* \"#utility.yul\":1445:2279   */\n            tag_37:\n                /* \"#utility.yul\":1533:1539   */\n              0x00\n                /* \"#utility.yul\":1541:1547   */\n              dup1\n                /* \"#utility.yul\":1590:1592   */\n              0x40\n                /* \"#utility.yul\":1578:1587   */\n              dup4\n                /* \"#utility.yul\":1569:1576   */\n              dup6\n                /* \"#utility.yul\":1565:1588   */\n              sub\n                /* \"#utility.yul\":1561:1593   */\n              slt\n                /* \"#utility.yul\":1558:1677   */\n              iszero\n              tag_122\n              jumpi\n                /* \"#utility.yul\":1596:1675   */\n              tag_123\n              tag_116\n              jump\t// in\n            tag_123:\n                /* \"#utility.yul\":1558:1677   */\n            tag_122:\n                /* \"#utility.yul\":1744:1745   */\n              0x00\n                /* \"#utility.yul\":1733:1742   */\n              dup4\n                /* \"#utility.yul\":1729:1746   */\n              add\n                /* \"#utility.yul\":1716:1747   */\n              calldataload\n                /* \"#utility.yul\":1774:1792   */\n              0xffffffffffffffff\n                /* \"#utility.yul\":1766:1772   */\n              dup2\n                /* \"#utility.yul\":1763:1793   */\n              gt\n                /* \"#utility.yul\":1760:1877   */\n              iszero\n              tag_124\n              jumpi\n                /* \"#utility.yul\":1796:1875   */\n              tag_125\n              tag_119\n              jump\t// in\n            tag_125:\n                /* \"#utility.yul\":1760:1877   */\n            tag_124:\n                /* \"#utility.yul\":1901:1964   */\n              tag_126\n                /* \"#utility.yul\":1956:1963   */\n              dup6\n                /* \"#utility.yul\":1947:1953   */\n              dup3\n                /* \"#utility.yul\":1936:1945   */\n              dup7\n                /* \"#utility.yul\":1932:1954   */\n              add\n                /* \"#utility.yul\":1901:1964   */\n              tag_103\n              jump\t// in\n            tag_126:\n                /* \"#utility.yul\":1891:1964   */\n              swap3\n              pop\n                /* \"#utility.yul\":1687:1974   */\n              pop\n                /* \"#utility.yul\":2041:2043   */\n              0x20\n                /* \"#utility.yul\":2030:2039   */\n              dup4\n                /* \"#utility.yul\":2026:2044   */\n              add\n                /* \"#utility.yul\":2013:2045   */\n              calldataload\n                /* \"#utility.yul\":2072:2090   */\n              0xffffffffffffffff\n                /* \"#utility.yul\":2064:2070   */\n              dup2\n                /* \"#utility.yul\":2061:2091   */\n              gt\n                /* \"#utility.yul\":2058:2175   */\n              iszero\n              tag_127\n              jumpi\n                /* \"#utility.yul\":2094:2173   */\n              tag_128\n              tag_119\n              jump\t// in\n            tag_128:\n                /* \"#utility.yul\":2058:2175   */\n            tag_127:\n                /* \"#utility.yul\":2199:2262   */\n              tag_129\n                /* \"#utility.yul\":2254:2261   */\n              dup6\n                /* \"#utility.yul\":2245:2251   */\n              dup3\n                /* \"#utility.yul\":2234:2243   */\n              dup7\n                /* \"#utility.yul\":2230:2252   */\n              add\n                /* \"#utility.yul\":2199:2262   */\n              tag_103\n              jump\t// in\n            tag_129:\n                /* \"#utility.yul\":2189:2262   */\n              swap2\n              pop\n                /* \"#utility.yul\":1984:2272   */\n              pop\n                /* \"#utility.yul\":1445:2279   */\n              swap3\n              pop\n              swap3\n              swap1\n              pop\n              jump\t// out\n                /* \"#utility.yul\":2285:2614   */\n            tag_16:\n                /* \"#utility.yul\":2344:2350   */\n              0x00\n                /* \"#utility.yul\":2393:2395   */\n              0x20\n                /* \"#utility.yul\":2381:2390   */\n              dup3\n                /* \"#utility.yul\":2372:2379   */\n              dup5\n                /* \"#utility.yul\":2368:2391   */\n              sub\n                /* \"#utility.yul\":2364:2396   */\n              slt\n                /* \"#utility.yul\":2361:2480   */\n              iszero\n              tag_131\n              jumpi\n                /* \"#utility.yul\":2399:2478   */\n              tag_132\n              tag_116\n              jump\t// in\n            tag_132:\n                /* \"#utility.yul\":2361:2480   */\n            tag_131:\n                /* \"#utility.yul\":2519:2520   */\n              0x00\n                /* \"#utility.yul\":2544:2597   */\n              tag_133\n                /* \"#utility.yul\":2589:2596   */\n              dup5\n                /* \"#utility.yul\":2580:2586   */\n              dup3\n                /* \"#utility.yul\":2569:2578   */\n              dup6\n                /* \"#utility.yul\":2565:2587   */\n              add\n                /* \"#utility.yul\":2544:2597   */\n              tag_109\n              jump\t// in\n            tag_133:\n                /* \"#utility.yul\":2534:2597   */\n              swap2\n              pop\n                /* \"#utility.yul\":2490:2607   */\n              pop\n                /* \"#utility.yul\":2285:2614   */\n              swap3\n              swap2\n              pop\n              pop\n              jump\t// out\n                /* \"#utility.yul\":2620:2738   */\n            tag_134:\n                /* \"#utility.yul\":2707:2731   */\n              tag_136\n                /* \"#utility.yul\":2725:2730   */\n              dup2\n                /* \"#utility.yul\":2707:2731   */\n              tag_137\n              jump\t// in\n            tag_136:\n                /* \"#utility.yul\":2702:2705   */\n              dup3\n                /* \"#utility.yul\":2695:2732   */\n              mstore\n                /* \"#utility.yul\":2620:2738   */\n              pop\n              pop\n              jump\t// out\n                /* \"#utility.yul\":2744:2853   */\n            tag_138:\n                /* \"#utility.yul\":2825:2846   */\n              tag_140\n                /* \"#utility.yul\":2840:2845   */\n              dup2\n                /* \"#utility.yul\":2825:2846   */\n              tag_141\n              jump\t// in\n            tag_140:\n                /* \"#utility.yul\":2820:2823   */\n              dup3\n                /* \"#utility.yul\":2813:2847   */\n              mstore\n                /* \"#utility.yul\":2744:2853   */\n              pop\n              pop\n              jump\t// out\n                /* \"#utility.yul\":2859:3223   */\n            tag_142:\n                /* \"#utility.yul\":2947:2950   */\n              0x00\n                /* \"#utility.yul\":2975:3014   */\n              tag_144\n                /* \"#utility.yul\":3008:3013   */\n              dup3\n                /* \"#utility.yul\":2975:3014   */\n              tag_145\n              jump\t// in\n            tag_144:\n                /* \"#utility.yul\":3030:3101   */\n              tag_146\n                /* \"#utility.yul\":3094:3100   */\n              dup2\n                /* \"#utility.yul\":3089:3092   */\n              dup6\n                /* \"#utility.yul\":3030:3101   */\n              tag_147\n              jump\t// in\n            tag_146:\n                /* \"#utility.yul\":3023:3101   */\n              swap4\n              pop\n                /* \"#utility.yul\":3110:3162   */\n              tag_148\n                /* \"#utility.yul\":3155:3161   */\n              dup2\n                /* \"#utility.yul\":3150:3153   */\n              dup6\n                /* \"#utility.yul\":3143:3147   */\n              0x20\n                /* \"#utility.yul\":3136:3141   */\n              dup7\n                /* \"#utility.yul\":3132:3148   */\n              add\n                /* \"#utility.yul\":3110:3162   */\n              tag_149\n              jump\t// in\n            tag_148:\n                /* \"#utility.yul\":3187:3216   */\n              tag_150\n                /* \"#utility.yul\":3209:3215   */\n              dup2\n                /* \"#utility.yul\":3187:3216   */\n              tag_151\n              jump\t// in\n            tag_150:\n                /* \"#utility.yul\":3182:3185   */\n              dup5\n                /* \"#utility.yul\":3178:3217   */\n              add\n                /* \"#utility.yul\":3171:3217   */\n              swap2\n              pop\n                /* \"#utility.yul\":2951:3223   */\n              pop\n                /* \"#utility.yul\":2859:3223   */\n              swap3\n              swap2\n              pop\n              pop\n              jump\t// out\n                /* \"#utility.yul\":3229:3606   */\n            tag_152:\n                /* \"#utility.yul\":3335:3338   */\n              0x00\n                /* \"#utility.yul\":3363:3402   */\n              tag_154\n                /* \"#utility.yul\":3396:3401   */\n              dup3\n                /* \"#utility.yul\":3363:3402   */\n              tag_145\n              jump\t// in\n            tag_154:\n                /* \"#utility.yul\":3418:3507   */\n              tag_155\n                /* \"#utility.yul\":3500:3506   */\n              dup2\n                /* \"#utility.yul\":3495:3498   */\n              dup6\n                /* \"#utility.yul\":3418:3507   */\n              tag_156\n              jump\t// in\n            tag_155:\n                /* \"#utility.yul\":3411:3507   */\n              swap4\n              pop\n                /* \"#utility.yul\":3516:3568   */\n              tag_157\n                /* \"#utility.yul\":3561:3567   */\n              dup2\n                /* \"#utility.yul\":3556:3559   */\n              dup6\n                /* \"#utility.yul\":3549:3553   */\n              0x20\n                /* \"#utility.yul\":3542:3547   */\n              dup7\n                /* \"#utility.yul\":3538:3554   */\n              add\n                /* \"#utility.yul\":3516:3568   */\n              tag_149\n              jump\t// in\n            tag_157:\n                /* \"#utility.yul\":3593:3599   */\n              dup1\n                /* \"#utility.yul\":3588:3591   */\n              dup5\n                /* \"#utility.yul\":3584:3600   */\n              add\n                /* \"#utility.yul\":3577:3600   */\n              swap2\n              pop\n                /* \"#utility.yul\":3339:3606   */\n              pop\n                /* \"#utility.yul\":3229:3606   */\n              swap3\n              swap2\n              pop\n              pop\n              jump\t// out\n                /* \"#utility.yul\":3612:3978   */\n            tag_158:\n                /* \"#utility.yul\":3754:3757   */\n              0x00\n                /* \"#utility.yul\":3775:3842   */\n              tag_160\n                /* \"#utility.yul\":3839:3841   */\n              0x19\n                /* \"#utility.yul\":3834:3837   */\n              dup4\n                /* \"#utility.yul\":3775:3842   */\n              tag_147\n              jump\t// in\n            tag_160:\n                /* \"#utility.yul\":3768:3842   */\n              swap2\n              pop\n                /* \"#utility.yul\":3851:3944   */\n              tag_161\n                /* \"#utility.yul\":3940:3943   */\n              dup3\n                /* \"#utility.yul\":3851:3944   */\n              tag_162\n              jump\t// in\n            tag_161:\n                /* \"#utility.yul\":3969:3971   */\n              0x20\n                /* \"#utility.yul\":3964:3967   */\n              dup3\n                /* \"#utility.yul\":3960:3972   */\n              add\n                /* \"#utility.yul\":3953:3972   */\n              swap1\n              pop\n                /* \"#utility.yul\":3612:3978   */\n              swap2\n              swap1\n              pop\n              jump\t// out\n                /* \"#utility.yul\":3984:4350   */\n            tag_163:\n                /* \"#utility.yul\":4126:4129   */\n              0x00\n                /* \"#utility.yul\":4147:4214   */\n              tag_165\n                /* \"#utility.yul\":4211:4213   */\n              0x18\n                /* \"#utility.yul\":4206:4209   */\n              dup4\n                /* \"#utility.yul\":4147:4214   */\n              tag_147\n              jump\t// in\n            tag_165:\n                /* \"#utility.yul\":4140:4214   */\n              swap2\n              pop\n                /* \"#utility.yul\":4223:4316   */\n              tag_166\n                /* \"#utility.yul\":4312:4315   */\n              dup3\n                /* \"#utility.yul\":4223:4316   */\n              tag_167\n              jump\t// in\n            tag_166:\n                /* \"#utility.yul\":4341:4343   */\n              0x20\n                /* \"#utility.yul\":4336:4339   */\n              dup3\n                /* \"#utility.yul\":4332:4344   */\n              add\n                /* \"#utility.yul\":4325:4344   */\n              swap1\n              pop\n                /* \"#utility.yul\":3984:4350   */\n              swap2\n              swap1\n              pop\n              jump\t// out\n                /* \"#utility.yul\":4356:4474   */\n            tag_168:\n                /* \"#utility.yul\":4443:4467   */\n              tag_170\n                /* \"#utility.yul\":4461:4466   */\n              dup2\n                /* \"#utility.yul\":4443:4467   */\n              tag_171\n              jump\t// in\n            tag_170:\n                /* \"#utility.yul\":4438:4441   */\n              dup3\n                /* \"#utility.yul\":4431:4468   */\n              mstore\n                /* \"#utility.yul\":4356:4474   */\n              pop\n              pop\n              jump\t// out\n                /* \"#utility.yul\":4480:4755   */\n            tag_56:\n                /* \"#utility.yul\":4612:4615   */\n              0x00\n                /* \"#utility.yul\":4634:4729   */\n              tag_173\n                /* \"#utility.yul\":4725:4728   */\n              dup3\n                /* \"#utility.yul\":4716:4722   */\n              dup5\n                /* \"#utility.yul\":4634:4729   */\n              tag_152\n              jump\t// in\n            tag_173:\n                /* \"#utility.yul\":4627:4729   */\n              swap2\n              pop\n                /* \"#utility.yul\":4746:4749   */\n              dup2\n                /* \"#utility.yul\":4739:4749   */\n              swap1\n              pop\n                /* \"#utility.yul\":4480:4755   */\n              swap3\n              swap2\n              pop\n              pop\n              jump\t// out\n                /* \"#utility.yul\":4761:4983   */\n            tag_12:\n                /* \"#utility.yul\":4854:4858   */\n              0x00\n                /* \"#utility.yul\":4892:4894   */\n              0x20\n                /* \"#utility.yul\":4881:4890   */\n              dup3\n                /* \"#utility.yul\":4877:4895   */\n              add\n                /* \"#utility.yul\":4869:4895   */\n              swap1\n              pop\n                /* \"#utility.yul\":4905:4976   */\n              tag_175\n                /* \"#utility.yul\":4973:4974   */\n              0x00\n                /* \"#utility.yul\":4962:4971   */\n              dup4\n                /* \"#utility.yul\":4958:4975   */\n              add\n                /* \"#utility.yul\":4949:4955   */\n              dup5\n                /* \"#utility.yul\":4905:4976   */\n              tag_134\n              jump\t// in\n            tag_175:\n                /* \"#utility.yul\":4761:4983   */\n              swap3\n              swap2\n              pop\n              pop\n              jump\t// out\n                /* \"#utility.yul\":4989:5302   */\n            tag_29:\n                /* \"#utility.yul\":5102:5106   */\n              0x00\n                /* \"#utility.yul\":5140:5142   */\n              0x20\n                /* \"#utility.yul\":5129:5138   */\n              dup3\n                /* \"#utility.yul\":5125:5143   */\n              add\n                /* \"#utility.yul\":5117:5143   */\n              swap1\n              pop\n                /* \"#utility.yul\":5189:5198   */\n              dup2\n                /* \"#utility.yul\":5183:5187   */\n              dup2\n                /* \"#utility.yul\":5179:5199   */\n              sub\n                /* \"#utility.yul\":5175:5176   */\n              0x00\n                /* \"#utility.yul\":5164:5173   */\n              dup4\n                /* \"#utility.yul\":5160:5177   */\n              add\n                /* \"#utility.yul\":5153:5200   */\n              mstore\n                /* \"#utility.yul\":5217:5295   */\n              tag_177\n                /* \"#utility.yul\":5290:5294   */\n              dup2\n                /* \"#utility.yul\":5281:5287   */\n              dup5\n                /* \"#utility.yul\":5217:5295   */\n              tag_142\n              jump\t// in\n            tag_177:\n                /* \"#utility.yul\":5209:5295   */\n              swap1\n              pop\n                /* \"#utility.yul\":4989:5302   */\n              swap3\n              swap2\n              pop\n              pop\n              jump\t// out\n                /* \"#utility.yul\":5308:5829   */\n            tag_19:\n                /* \"#utility.yul\":5471:5475   */\n              0x00\n                /* \"#utility.yul\":5509:5511   */\n              0x60\n                /* \"#utility.yul\":5498:5507   */\n              dup3\n                /* \"#utility.yul\":5494:5512   */\n              add\n                /* \"#utility.yul\":5486:5512   */\n              swap1\n              pop\n                /* \"#utility.yul\":5558:5567   */\n              dup2\n                /* \"#utility.yul\":5552:5556   */\n              dup2\n                /* \"#utility.yul\":5548:5568   */\n              sub\n                /* \"#utility.yul\":5544:5545   */\n              0x00\n                /* \"#utility.yul\":5533:5542   */\n              dup4\n                /* \"#utility.yul\":5529:5546   */\n              add\n                /* \"#utility.yul\":5522:5569   */\n              mstore\n                /* \"#utility.yul\":5586:5664   */\n              tag_179\n                /* \"#utility.yul\":5659:5663   */\n              dup2\n                /* \"#utility.yul\":5650:5656   */\n              dup7\n                /* \"#utility.yul\":5586:5664   */\n              tag_142\n              jump\t// in\n            tag_179:\n                /* \"#utility.yul\":5578:5664   */\n              swap1\n              pop\n                /* \"#utility.yul\":5674:5746   */\n              tag_180\n                /* \"#utility.yul\":5742:5744   */\n              0x20\n                /* \"#utility.yul\":5731:5740   */\n              dup4\n                /* \"#utility.yul\":5727:5745   */\n              add\n                /* \"#utility.yul\":5718:5724   */\n              dup6\n                /* \"#utility.yul\":5674:5746   */\n              tag_168\n              jump\t// in\n            tag_180:\n                /* \"#utility.yul\":5756:5822   */\n              tag_181\n                /* \"#utility.yul\":5818:5820   */\n              0x40\n                /* \"#utility.yul\":5807:5816   */\n              dup4\n                /* \"#utility.yul\":5803:5821   */\n              add\n                /* \"#utility.yul\":5794:5800   */\n              dup5\n                /* \"#utility.yul\":5756:5822   */\n              tag_138\n              jump\t// in\n            tag_181:\n                /* \"#utility.yul\":5308:5829   */\n              swap5\n              swap4\n              pop\n              pop\n              pop\n              pop\n              jump\t// out\n                /* \"#utility.yul\":5835:6254   */\n            tag_72:\n                /* \"#utility.yul\":6001:6005   */\n              0x00\n                /* \"#utility.yul\":6039:6041   */\n              0x20\n                /* \"#utility.yul\":6028:6037   */\n              dup3\n                /* \"#utility.yul\":6024:6042   */\n              add\n                /* \"#utility.yul\":6016:6042   */\n              swap1\n              pop\n                /* \"#utility.yul\":6088:6097   */\n              dup2\n                /* \"#utility.yul\":6082:6086   */\n              dup2\n                /* \"#utility.yul\":6078:6098   */\n              sub\n                /* \"#utility.yul\":6074:6075   */\n              0x00\n                /* \"#utility.yul\":6063:6072   */\n              dup4\n                /* \"#utility.yul\":6059:6076   */\n              add\n                /* \"#utility.yul\":6052:6099   */\n              mstore\n                /* \"#utility.yul\":6116:6247   */\n              tag_183\n                /* \"#utility.yul\":6242:6246   */\n              dup2\n                /* \"#utility.yul\":6116:6247   */\n              tag_158\n              jump\t// in\n            tag_183:\n                /* \"#utility.yul\":6108:6247   */\n              swap1\n              pop\n                /* \"#utility.yul\":5835:6254   */\n              swap2\n              swap1\n              pop\n              jump\t// out\n                /* \"#utility.yul\":6260:6679   */\n            tag_75:\n                /* \"#utility.yul\":6426:6430   */\n              0x00\n                /* \"#utility.yul\":6464:6466   */\n              0x20\n                /* \"#utility.yul\":6453:6462   */\n              dup3\n                /* \"#utility.yul\":6449:6467   */\n              add\n                /* \"#utility.yul\":6441:6467   */\n              swap1\n              pop\n                /* \"#utility.yul\":6513:6522   */\n              dup2\n                /* \"#utility.yul\":6507:6511   */\n              dup2\n                /* \"#utility.yul\":6503:6523   */\n              sub\n                /* \"#utility.yul\":6499:6500   */\n              0x00\n                /* \"#utility.yul\":6488:6497   */\n              dup4\n                /* \"#utility.yul\":6484:6501   */\n              add\n                /* \"#utility.yul\":6477:6524   */\n              mstore\n                /* \"#utility.yul\":6541:6672   */\n              tag_185\n                /* \"#utility.yul\":6667:6671   */\n              dup2\n                /* \"#utility.yul\":6541:6672   */\n              tag_163\n              jump\t// in\n            tag_185:\n                /* \"#utility.yul\":6533:6672   */\n              swap1\n              pop\n                /* \"#utility.yul\":6260:6679   */\n              swap2\n              swap1\n              pop\n              jump\t// out\n                /* \"#utility.yul\":6685:6907   */\n            tag_34:\n                /* \"#utility.yul\":6778:6782   */\n              0x00\n                /* \"#utility.yul\":6816:6818   */\n              0x20\n                /* \"#utility.yul\":6805:6814   */\n              dup3\n                /* \"#utility.yul\":6801:6819   */\n              add\n                /* \"#utility.yul\":6793:6819   */\n              swap1\n              pop\n                /* \"#utility.yul\":6829:6900   */\n              tag_187\n                /* \"#utility.yul\":6897:6898   */\n              0x00\n                /* \"#utility.yul\":6886:6895   */\n              dup4\n                /* \"#utility.yul\":6882:6899   */\n              add\n                /* \"#utility.yul\":6873:6879   */\n              dup5\n                /* \"#utility.yul\":6829:6900   */\n              tag_168\n              jump\t// in\n            tag_187:\n                /* \"#utility.yul\":6685:6907   */\n              swap3\n              swap2\n              pop\n              pop\n              jump\t// out\n                /* \"#utility.yul\":6913:7042   */\n            tag_97:\n                /* \"#utility.yul\":6947:6953   */\n              0x00\n                /* \"#utility.yul\":6974:6994   */\n              tag_189\n              tag_190\n              jump\t// in\n            tag_189:\n                /* \"#utility.yul\":6964:6994   */\n              swap1\n              pop\n                /* \"#utility.yul\":7003:7036   */\n              tag_191\n                /* \"#utility.yul\":7031:7035   */\n              dup3\n                /* \"#utility.yul\":7023:7029   */\n              dup3\n                /* \"#utility.yul\":7003:7036   */\n              tag_192\n              jump\t// in\n            tag_191:\n                /* \"#utility.yul\":6913:7042   */\n              swap2\n              swap1\n              pop\n              jump\t// out\n                /* \"#utility.yul\":7048:7123   */\n            tag_190:\n                /* \"#utility.yul\":7081:7087   */\n              0x00\n                /* \"#utility.yul\":7114:7116   */\n              0x40\n                /* \"#utility.yul\":7108:7117   */\n              mload\n                /* \"#utility.yul\":7098:7117   */\n              swap1\n              pop\n                /* \"#utility.yul\":7048:7123   */\n              swap1\n              jump\t// out\n                /* \"#utility.yul\":7129:7437   */\n            tag_96:\n                /* \"#utility.yul\":7191:7195   */\n              0x00\n                /* \"#utility.yul\":7281:7299   */\n              0xffffffffffffffff\n                /* \"#utility.yul\":7273:7279   */\n              dup3\n                /* \"#utility.yul\":7270:7300   */\n              gt\n                /* \"#utility.yul\":7267:7323   */\n              iszero\n              tag_195\n              jumpi\n                /* \"#utility.yul\":7303:7321   */\n              tag_196\n              tag_197\n              jump\t// in\n            tag_196:\n                /* \"#utility.yul\":7267:7323   */\n            tag_195:\n                /* \"#utility.yul\":7341:7370   */\n              tag_198\n                /* \"#utility.yul\":7363:7369   */\n              dup3\n                /* \"#utility.yul\":7341:7370   */\n              tag_151\n              jump\t// in\n            tag_198:\n                /* \"#utility.yul\":7333:7370   */\n              swap1\n              pop\n                /* \"#utility.yul\":7425:7429   */\n              0x20\n                /* \"#utility.yul\":7419:7423   */\n              dup2\n                /* \"#utility.yul\":7415:7430   */\n              add\n                /* \"#utility.yul\":7407:7430   */\n              swap1\n              pop\n                /* \"#utility.yul\":7129:7437   */\n              swap2\n              swap1\n              pop\n              jump\t// out\n                /* \"#utility.yul\":7443:7542   */\n            tag_145:\n                /* \"#utility.yul\":7495:7501   */\n              0x00\n                /* \"#utility.yul\":7529:7534   */\n              dup2\n                /* \"#utility.yul\":7523:7535   */\n              mload\n                /* \"#utility.yul\":7513:7535   */\n              swap1\n              pop\n                /* \"#utility.yul\":7443:7542   */\n              swap2\n              swap1\n              pop\n              jump\t// out\n                /* \"#utility.yul\":7548:7717   */\n            tag_147:\n                /* \"#utility.yul\":7632:7643   */\n              0x00\n                /* \"#utility.yul\":7666:7672   */\n              dup3\n                /* \"#utility.yul\":7661:7664   */\n              dup3\n                /* \"#utility.yul\":7654:7673   */\n              mstore\n                /* \"#utility.yul\":7706:7710   */\n              0x20\n                /* \"#utility.yul\":7701:7704   */\n              dup3\n                /* \"#utility.yul\":7697:7711   */\n              add\n                /* \"#utility.yul\":7682:7711   */\n              swap1\n              pop\n                /* \"#utility.yul\":7548:7717   */\n              swap3\n              swap2\n              pop\n              pop\n              jump\t// out\n                /* \"#utility.yul\":7723:7871   */\n            tag_156:\n                /* \"#utility.yul\":7825:7836   */\n              0x00\n                /* \"#utility.yul\":7862:7865   */\n              dup2\n                /* \"#utility.yul\":7847:7865   */\n              swap1\n              pop\n                /* \"#utility.yul\":7723:7871   */\n              swap3\n              swap2\n              pop\n              pop\n              jump\t// out\n                /* \"#utility.yul\":7877:7973   */\n            tag_137:\n                /* \"#utility.yul\":7914:7921   */\n              0x00\n                /* \"#utility.yul\":7943:7967   */\n              tag_203\n                /* \"#utility.yul\":7961:7966   */\n              dup3\n                /* \"#utility.yul\":7943:7967   */\n              tag_204\n              jump\t// in\n            tag_203:\n                /* \"#utility.yul\":7932:7967   */\n              swap1\n              pop\n                /* \"#utility.yul\":7877:7973   */\n              swap2\n              swap1\n              pop\n              jump\t// out\n                /* \"#utility.yul\":7979:8069   */\n            tag_141:\n                /* \"#utility.yul\":8013:8020   */\n              0x00\n                /* \"#utility.yul\":8056:8061   */\n              dup2\n                /* \"#utility.yul\":8049:8062   */\n              iszero\n                /* \"#utility.yul\":8042:8063   */\n              iszero\n                /* \"#utility.yul\":8031:8063   */\n              swap1\n              pop\n                /* \"#utility.yul\":7979:8069   */\n              swap2\n              swap1\n              pop\n              jump\t// out\n                /* \"#utility.yul\":8075:8201   */\n            tag_204:\n                /* \"#utility.yul\":8112:8119   */\n              0x00\n                /* \"#utility.yul\":8152:8194   */\n              0xffffffffffffffffffffffffffffffffffffffff\n                /* \"#utility.yul\":8145:8150   */\n              dup3\n                /* \"#utility.yul\":8141:8195   */\n              and\n                /* \"#utility.yul\":8130:8195   */\n              swap1\n              pop\n                /* \"#utility.yul\":8075:8201   */\n              swap2\n              swap1\n              pop\n              jump\t// out\n                /* \"#utility.yul\":8207:8284   */\n            tag_171:\n                /* \"#utility.yul\":8244:8251   */\n              0x00\n                /* \"#utility.yul\":8273:8278   */\n              dup2\n                /* \"#utility.yul\":8262:8278   */\n              swap1\n              pop\n                /* \"#utility.yul\":8207:8284   */\n              swap2\n              swap1\n              pop\n              jump\t// out\n                /* \"#utility.yul\":8290:8444   */\n            tag_102:\n                /* \"#utility.yul\":8374:8380   */\n              dup3\n                /* \"#utility.yul\":8369:8372   */\n              dup2\n                /* \"#utility.yul\":8364:8367   */\n              dup4\n                /* \"#utility.yul\":8351:8381   */\n              calldatacopy\n                /* \"#utility.yul\":8436:8437   */\n              0x00\n                /* \"#utility.yul\":8427:8433   */\n              dup4\n                /* \"#utility.yul\":8422:8425   */\n              dup4\n                /* \"#utility.yul\":8418:8434   */\n              add\n                /* \"#utility.yul\":8411:8438   */\n              mstore\n                /* \"#utility.yul\":8290:8444   */\n              pop\n              pop\n              pop\n              jump\t// out\n                /* \"#utility.yul\":8450:8757   */\n            tag_149:\n                /* \"#utility.yul\":8518:8519   */\n              0x00\n                /* \"#utility.yul\":8528:8641   */\n            tag_210:\n                /* \"#utility.yul\":8542:8548   */\n              dup4\n                /* \"#utility.yul\":8539:8540   */\n              dup2\n                /* \"#utility.yul\":8536:8549   */\n              lt\n                /* \"#utility.yul\":8528:8641   */\n              iszero\n              tag_212\n              jumpi\n                /* \"#utility.yul\":8627:8628   */\n              dup1\n                /* \"#utility.yul\":8622:8625   */\n              dup3\n                /* \"#utility.yul\":8618:8629   */\n              add\n                /* \"#utility.yul\":8612:8630   */\n              mload\n                /* \"#utility.yul\":8608:8609   */\n              dup2\n                /* \"#utility.yul\":8603:8606   */\n              dup5\n                /* \"#utility.yul\":8599:8610   */\n              add\n                /* \"#utility.yul\":8592:8631   */\n              mstore\n                /* \"#utility.yul\":8564:8566   */\n              0x20\n                /* \"#utility.yul\":8561:8562   */\n              dup2\n                /* \"#utility.yul\":8557:8567   */\n              add\n                /* \"#utility.yul\":8552:8567   */\n              swap1\n              pop\n                /* \"#utility.yul\":8528:8641   */\n              jump(tag_210)\n            tag_212:\n                /* \"#utility.yul\":8659:8665   */\n              dup4\n                /* \"#utility.yul\":8656:8657   */\n              dup2\n                /* \"#utility.yul\":8653:8666   */\n              gt\n                /* \"#utility.yul\":8650:8751   */\n              iszero\n              tag_213\n              jumpi\n                /* \"#utility.yul\":8739:8740   */\n              0x00\n                /* \"#utility.yul\":8730:8736   */\n              dup5\n                /* \"#utility.yul\":8725:8728   */\n              dup5\n                /* \"#utility.yul\":8721:8737   */\n              add\n                /* \"#utility.yul\":8714:8741   */\n              mstore\n                /* \"#utility.yul\":8650:8751   */\n            tag_213:\n                /* \"#utility.yul\":8499:8757   */\n              pop\n                /* \"#utility.yul\":8450:8757   */\n              pop\n              pop\n              pop\n              jump\t// out\n                /* \"#utility.yul\":8763:9083   */\n            tag_42:\n                /* \"#utility.yul\":8807:8813   */\n              0x00\n                /* \"#utility.yul\":8844:8845   */\n              0x02\n                /* \"#utility.yul\":8838:8842   */\n              dup3\n                /* \"#utility.yul\":8834:8846   */\n              div\n                /* \"#utility.yul\":8824:8846   */\n              swap1\n              pop\n                /* \"#utility.yul\":8891:8892   */\n              0x01\n                /* \"#utility.yul\":8885:8889   */\n              dup3\n                /* \"#utility.yul\":8881:8893   */\n              and\n                /* \"#utility.yul\":8912:8930   */\n              dup1\n                /* \"#utility.yul\":8902:8983   */\n              tag_215\n              jumpi\n                /* \"#utility.yul\":8968:8972   */\n              0x7f\n                /* \"#utility.yul\":8960:8966   */\n              dup3\n                /* \"#utility.yul\":8956:8973   */\n              and\n                /* \"#utility.yul\":8946:8973   */\n              swap2\n              pop\n                /* \"#utility.yul\":8902:8983   */\n            tag_215:\n                /* \"#utility.yul\":9030:9032   */\n              0x20\n                /* \"#utility.yul\":9022:9028   */\n              dup3\n                /* \"#utility.yul\":9019:9033   */\n              lt\n                /* \"#utility.yul\":8999:9017   */\n              dup2\n                /* \"#utility.yul\":8996:9034   */\n              eq\n                /* \"#utility.yul\":8993:9077   */\n              iszero\n              tag_216\n              jumpi\n                /* \"#utility.yul\":9049:9067   */\n              tag_217\n              tag_218\n              jump\t// in\n            tag_217:\n                /* \"#utility.yul\":8993:9077   */\n            tag_216:\n                /* \"#utility.yul\":8814:9083   */\n              pop\n                /* \"#utility.yul\":8763:9083   */\n              swap2\n              swap1\n              pop\n              jump\t// out\n                /* \"#utility.yul\":9089:9370   */\n            tag_192:\n                /* \"#utility.yul\":9172:9199   */\n              tag_220\n                /* \"#utility.yul\":9194:9198   */\n              dup3\n                /* \"#utility.yul\":9172:9199   */\n              tag_151\n              jump\t// in\n            tag_220:\n                /* \"#utility.yul\":9164:9170   */\n              dup2\n                /* \"#utility.yul\":9160:9200   */\n              add\n                /* \"#utility.yul\":9302:9308   */\n              dup2\n                /* \"#utility.yul\":9290:9300   */\n              dup2\n                /* \"#utility.yul\":9287:9309   */\n              lt\n                /* \"#utility.yul\":9266:9284   */\n              0xffffffffffffffff\n                /* \"#utility.yul\":9254:9264   */\n              dup3\n                /* \"#utility.yul\":9251:9285   */\n              gt\n                /* \"#utility.yul\":9248:9310   */\n              or\n                /* \"#utility.yul\":9245:9333   */\n              iszero\n              tag_221\n              jumpi\n                /* \"#utility.yul\":9313:9331   */\n              tag_222\n              tag_197\n              jump\t// in\n            tag_222:\n                /* \"#utility.yul\":9245:9333   */\n            tag_221:\n                /* \"#utility.yul\":9353:9363   */\n              dup1\n                /* \"#utility.yul\":9349:9351   */\n              0x40\n                /* \"#utility.yul\":9342:9364   */\n              mstore\n                /* \"#utility.yul\":9132:9370   */\n              pop\n                /* \"#utility.yul\":9089:9370   */\n              pop\n              pop\n              jump\t// out\n                /* \"#utility.yul\":9376:9609   */\n            tag_58:\n                /* \"#utility.yul\":9415:9418   */\n              0x00\n                /* \"#utility.yul\":9438:9462   */\n              tag_224\n                /* \"#utility.yul\":9456:9461   */\n              dup3\n                /* \"#utility.yul\":9438:9462   */\n              tag_171\n              jump\t// in\n            tag_224:\n                /* \"#utility.yul\":9429:9462   */\n              swap2\n              pop\n                /* \"#utility.yul\":9484:9550   */\n              0xffffffffffffffffffffffffffffffffffffffffffffffffffffffffffffffff\n                /* \"#utility.yul\":9477:9482   */\n              dup3\n                /* \"#utility.yul\":9474:9551   */\n              eq\n                /* \"#utility.yul\":9471:9574   */\n              iszero\n              tag_225\n              jumpi\n                /* \"#utility.yul\":9554:9572   */\n              tag_226\n              tag_227\n              jump\t// in\n            tag_226:\n                /* \"#utility.yul\":9471:9574   */\n            tag_225:\n                /* \"#utility.yul\":9601:9602   */\n              0x01\n                /* \"#utility.yul\":9594:9599   */\n              dup3\n                /* \"#utility.yul\":9590:9603   */\n              add\n                /* \"#utility.yul\":9583:9603   */\n              swap1\n              pop\n                /* \"#utility.yul\":9376:9609   */\n              swap2\n              swap1\n              pop\n              jump\t// out\n                /* \"#utility.yul\":9615:9795   */\n            tag_227:\n                /* \"#utility.yul\":9663:9740   */\n              0x4e487b7100000000000000000000000000000000000000000000000000000000\n                /* \"#utility.yul\":9660:9661   */\n              0x00\n                /* \"#utility.yul\":9653:9741   */\n              mstore\n                /* \"#utility.yul\":9760:9764   */\n              0x11\n                /* \"#utility.yul\":9757:9758   */\n              0x04\n                /* \"#utility.yul\":9750:9765   */\n              mstore\n                /* \"#utility.yul\":9784:9788   */\n              0x24\n                /* \"#utility.yul\":9781:9782   */\n              0x00\n                /* \"#utility.yul\":9774:9789   */\n              revert\n                /* \"#utility.yul\":9801:9981   */\n            tag_218:\n                /* \"#utility.yul\":9849:9926   */\n              0x4e487b7100000000000000000000000000000000000000000000000000000000\n                /* \"#utility.yul\":9846:9847   */\n              0x00\n                /* \"#utility.yul\":9839:9927   */\n              mstore\n                /* \"#utility.yul\":9946:9950   */\n              0x22\n                /* \"#utility.yul\":9943:9944   */\n              0x04\n                /* \"#utility.yul\":9936:9951   */\n              mstore\n                /* \"#utility.yul\":9970:9974   */\n              0x24\n                /* \"#utility.yul\":9967:9968   */\n              0x00\n                /* \"#utility.yul\":9960:9975   */\n              revert\n                /* \"#utility.yul\":9987:10167   */\n            tag_68:\n                /* \"#utility.yul\":10035:10112   */\n              0x4e487b7100000000000000000000000000000000000000000000000000000000\n                /* \"#utility.yul\":10032:10033   */\n              0x00\n                /* \"#utility.yul\":10025:10113   */\n              mstore\n                /* \"#utility.yul\":10132:10136   */\n              0x32\n                /* \"#utility.yul\":10129:10130   */\n              0x04\n                /* \"#utility.yul\":10122:10137   */\n              mstore\n                /* \"#utility.yul\":10156:10160   */\n              0x24\n                /* \"#utility.yul\":10153:10154   */\n              0x00\n                /* \"#utility.yul\":10146:10161   */\n              revert\n                /* \"#utility.yul\":10173:10353   */\n            tag_197:\n                /* \"#utility.yul\":10221:10298   */\n              0x4e487b7100000000000000000000000000000000000000000000000000000000\n                /* \"#utility.yul\":10218:10219   */\n              0x00\n                /* \"#utility.yul\":10211:10299   */\n              mstore\n                /* \"#utility.yul\":10318:10322   */\n              0x41\n                /* \"#utility.yul\":10315:10316   */\n              0x04\n                /* \"#utility.yul\":10308:10323   */\n              mstore\n                /* \"#utility.yul\":10342:10346   */\n              0x24\n                /* \"#utility.yul\":10339:10340   */\n              0x00\n                /* \"#utility.yul\":10332:10347   */\n              revert\n                /* \"#utility.yul\":10359:10476   */\n            tag_107:\n                /* \"#utility.yul\":10468:10469   */\n              0x00\n                /* \"#utility.yul\":10465:10466   */\n              dup1\n                /* \"#utility.yul\":10458:10470   */\n              revert\n                /* \"#utility.yul\":10482:10599   */\n            tag_100:\n                /* \"#utility.yul\":10591:10592   */\n              0x00\n                /* \"#utility.yul\":10588:10589   */\n              dup1\n                /* \"#utility.yul\":10581:10593   */\n              revert\n                /* \"#utility.yul\":10605:10722   */\n            tag_119:\n                /* \"#utility.yul\":10714:10715   */\n              0x00\n                /* \"#utility.yul\":10711:10712   */\n              dup1\n                /* \"#utility.yul\":10704:10716   */\n              revert\n                /* \"#utility.yul\":10728:10845   */\n            tag_116:\n                /* \"#utility.yul\":10837:10838   */\n              0x00\n                /* \"#utility.yul\":10834:10835   */\n              dup1\n                /* \"#utility.yul\":10827:10839   */\n              revert\n                /* \"#utility.yul\":10851:10953   */\n            tag_151:\n                /* \"#utility.yul\":10892:10898   */\n              0x00\n                /* \"#utility.yul\":10943:10945   */\n              0x1f\n                /* \"#utility.yul\":10939:10946   */\n              not\n                /* \"#utility.yul\":10934:10936   */\n              0x1f\n                /* \"#utility.yul\":10927:10932   */\n              dup4\n                /* \"#utility.yul\":10923:10937   */\n              add\n                /* \"#utility.yul\":10919:10947   */\n              and\n                /* \"#utility.yul\":10909:10947   */\n              swap1\n              pop\n                /* \"#utility.yul\":10851:10953   */\n              swap2\n              swap1\n              pop\n              jump\t// out\n                /* \"#utility.yul\":10959:11134   */\n            tag_162:\n                /* \"#utility.yul\":11099:11126   */\n              0x63757272656e742073756767657374696f6e20636c6f73656400000000000000\n                /* \"#utility.yul\":11095:11096   */\n              0x00\n                /* \"#utility.yul\":11087:11093   */\n              dup3\n                /* \"#utility.yul\":11083:11097   */\n              add\n                /* \"#utility.yul\":11076:11127   */\n              mstore\n                /* \"#utility.yul\":10959:11134   */\n              pop\n              jump\t// out\n                /* \"#utility.yul\":11140:11314   */\n            tag_167:\n                /* \"#utility.yul\":11280:11306   */\n              0x6d6f7265207468616e2073656e642074686520746f6b656e0000000000000000\n                /* \"#utility.yul\":11276:11277   */\n              0x00\n                /* \"#utility.yul\":11268:11274   */\n              dup3\n                /* \"#utility.yul\":11264:11278   */\n              add\n                /* \"#utility.yul\":11257:11307   */\n              mstore\n                /* \"#utility.yul\":11140:11314   */\n              pop\n              jump\t// out\n                /* \"#utility.yul\":11320:11442   */\n            tag_112:\n                /* \"#utility.yul\":11393:11417   */\n              tag_240\n                /* \"#utility.yul\":11411:11416   */\n              dup2\n                /* \"#utility.yul\":11393:11417   */\n              tag_171\n              jump\t// in\n            tag_240:\n                /* \"#utility.yul\":11386:11391   */\n              dup2\n                /* \"#utility.yul\":11383:11418   */\n              eq\n                /* \"#utility.yul\":11373:11436   */\n              tag_241\n              jumpi\n                /* \"#utility.yul\":11432:11433   */\n              0x00\n                /* \"#utility.yul\":11429:11430   */\n              dup1\n                /* \"#utility.yul\":11422:11434   */\n              revert\n                /* \"#utility.yul\":11373:11436   */\n            tag_241:\n                /* \"#utility.yul\":11320:11442   */\n              pop\n              jump\t// out\n\n            auxdata: 0xa2646970667358221220cd70ac304d8b10251450631eefb08b98592027fc6e0a730e722ed14572defdbb64736f6c63430008070033\n        }\n    }\n\n    auxdata: 0xa2646970667358221220c2d5d012bbf3c16f6576c7ba383a4f02a848b9a5cc508a2d91d20c3899cda91c64736f6c63430008070033\n}\n",
				"bytecode": {
					"linkReferences": {},
					"object": "608060405234801561001057600080fd5b50611780806100206000396000f3fe60806040523480156200001157600080fd5b5060043610620000465760003560e01c806386c1d5fd146200004b5780638ecd58e9146200006b578063a20fe1c7146200008d575b600080fd5b620000696004803603810190620000639190620002cf565b620000c3565b005b62000075620001c9565b6040516200008491906200047c565b60405180910390f35b620000ab6004803603810190620000a5919062000335565b620001d5565b604051620000ba91906200042b565b60405180910390f35b60008282604051620000d59062000215565b620000e292919062000448565b604051809103906000f080158015620000ff573d6000803e3d6000fd5b5090508060018460405162000115919062000412565b908152602001604051809103902060006101000a81548173ffffffffffffffffffffffffffffffffffffffff021916908373ffffffffffffffffffffffffffffffffffffffff1602179055506000819080600181540180825580915050600190039060005260206000200160009091909190916101000a81548173ffffffffffffffffffffffffffffffffffffffff021916908373ffffffffffffffffffffffffffffffffffffffff160217905550505050565b60008080549050905090565b60008181548110620001e657600080fd5b906000526020600020016000915054906101000a900473ffffffffffffffffffffffffffffffffffffffff1681565b6110ae806200069d83390190565b60006200023a6200023484620004c2565b62000499565b90508281526020810184848401111562000259576200025862000648565b5b6200026684828562000599565b509392505050565b6000813590506200027f8162000668565b92915050565b600082601f8301126200029d576200029c62000643565b5b8135620002af84826020860162000223565b91505092915050565b600081359050620002c98162000682565b92915050565b60008060408385031215620002e957620002e862000652565b5b600083013567ffffffffffffffff8111156200030a57620003096200064d565b5b620003188582860162000285565b92505060206200032b858286016200026e565b9150509250929050565b6000602082840312156200034e576200034d62000652565b5b60006200035e84828501620002b8565b91505092915050565b62000372816200051f565b82525050565b62000383816200055d565b82525050565b60006200039682620004f8565b620003a2818562000503565b9350620003b4818560208601620005a8565b620003bf8162000657565b840191505092915050565b6000620003d782620004f8565b620003e3818562000514565b9350620003f5818560208601620005a8565b80840191505092915050565b6200040c8162000553565b82525050565b6000620004208284620003ca565b915081905092915050565b600060208201905062000442600083018462000378565b92915050565b6000604082019050818103600083015262000464818562000389565b905062000475602083018462000367565b9392505050565b600060208201905062000493600083018462000401565b92915050565b6000620004a5620004b8565b9050620004b38282620005de565b919050565b6000604051905090565b600067ffffffffffffffff821115620004e057620004df62000614565b5b620004eb8262000657565b9050602081019050919050565b600081519050919050565b600082825260208201905092915050565b600081905092915050565b60006200052c8262000533565b9050919050565b600073ffffffffffffffffffffffffffffffffffffffff82169050919050565b6000819050919050565b60006200056a8262000571565b9050919050565b60006200057e8262000585565b9050919050565b6000620005928262000533565b9050919050565b82818337600083830152505050565b60005b83811015620005c8578082015181840152602081019050620005ab565b83811115620005d8576000848401525b50505050565b620005e98262000657565b810181811067ffffffffffffffff821117156200060b576200060a62000614565b5b80604052505050565b7f4e487b7100000000000000000000000000000000000000000000000000000000600052604160045260246000fd5b600080fd5b600080fd5b600080fd5b600080fd5b6000601f19601f8301169050919050565b62000673816200051f565b81146200067f57600080fd5b50565b6200068d8162000553565b81146200069957600080fd5b5056fe60806040523480156200001157600080fd5b50604051620010ae380380620010ae8339818101604052810190620000379190620001dd565b806000806101000a81548173ffffffffffffffffffffffffffffffffffffffff021916908373ffffffffffffffffffffffffffffffffffffffff16021790555081600190805190602001906200008f92919062000098565b50505062000415565b828054620000a6906200030c565b90600052602060002090601f016020900481019282620000ca576000855562000116565b82601f10620000e557805160ff191683800117855562000116565b8280016001018555821562000116579182015b8281111562000115578251825591602001919060010190620000f8565b5b50905062000125919062000129565b5090565b5b80821115620001445760008160009055506001016200012a565b5090565b60006200015f62000159846200026c565b62000243565b9050828152602081018484840111156200017e576200017d620003db565b5b6200018b848285620002d6565b509392505050565b600081519050620001a481620003fb565b92915050565b600082601f830112620001c257620001c1620003d6565b5b8151620001d484826020860162000148565b91505092915050565b60008060408385031215620001f757620001f6620003e5565b5b600083015167ffffffffffffffff811115620002185762000217620003e0565b5b6200022685828601620001aa565b9250506020620002398582860162000193565b9150509250929050565b60006200024f62000262565b90506200025d828262000342565b919050565b6000604051905090565b600067ffffffffffffffff8211156200028a5762000289620003a7565b5b6200029582620003ea565b9050602081019050919050565b6000620002af82620002b6565b9050919050565b600073ffffffffffffffffffffffffffffffffffffffff82169050919050565b60005b83811015620002f6578082015181840152602081019050620002d9565b8381111562000306576000848401525b50505050565b600060028204905060018216806200032557607f821691505b602082108114156200033c576200033b62000378565b5b50919050565b6200034d82620003ea565b810181811067ffffffffffffffff821117156200036f576200036e620003a7565b5b80604052505050565b7f4e487b7100000000000000000000000000000000000000000000000000000000600052602260045260246000fd5b7f4e487b7100000000000000000000000000000000000000000000000000000000600052604160045260246000fd5b600080fd5b600080fd5b600080fd5b600080fd5b6000601f19601f8301169050919050565b6200040681620002a2565b81146200041257600080fd5b50565b610c8980620004256000396000f3fe6080604052600436106100555760003560e01c80632e4176cf1461005a578063302a2a461461008557806343ef7e85146100c45780634f5cbc1a146100ed57806364b9fb8914610118578063e8d5940d14610143575b600080fd5b34801561006657600080fd5b5061006f61015f565b60405161007c9190610880565b60405180910390f35b34801561009157600080fd5b506100ac60048036038101906100a7919061075f565b610183565b6040516100bb939291906108bd565b60405180910390f35b3480156100d057600080fd5b506100eb60048036038101906100e6919061069e565b610252565b005b3480156100f957600080fd5b50610102610353565b60405161010f919061089b565b60405180910390f35b34801561012457600080fd5b5061012d6103e1565b60405161013a919061093b565b60405180910390f35b61015d600480360381019061015891906106e7565b6103e7565b005b60008054906101000a900473ffffffffffffffffffffffffffffffffffffffff1681565b6004818154811061019357600080fd5b90600052602060002090600402016000915090508060000180546101b690610a5d565b80601f01602080910402602001604051908101604052809291908181526020018280546101e290610a5d565b801561022f5780601f106102045761010080835404028352916020019161022f565b820191906000526020600020905b81548152906001019060200180831161021257829003601f168201915b5050505050908060020154908060030160009054906101000a900460ff16905083565b61025a6104ff565b8181600001819052506002548160400181815250506001816060019015159081151581525050600481908060018154018082558091505060019003906000526020600020906004020160009091909190915060008201518160000190805190602001906102c8929190610529565b5060208201518160010190805190602001906102e59291906105af565b506040820151816002015560608201518160030160006101000a81548160ff02191690831515021790555050506002546003836040516103259190610869565b9081526020016040518091039020819055506002600081548092919061034a90610ac0565b91905055505050565b6001805461036090610a5d565b80601f016020809104026020016040519081016040528092919081815260200182805461038c90610a5d565b80156103d95780601f106103ae576101008083540402835291602001916103d9565b820191906000526020600020905b8154815290600101906020018083116103bc57829003601f168201915b505050505081565b60025481565b600060046003846040516103fb9190610869565b9081526020016040518091039020548154811061041b5761041a610b67565b5b90600052602060002090600402019050600115158160030160009054906101000a900460ff16151514610483576040517f08c379a000000000000000000000000000000000000000000000000000000000815260040161047a906108fb565b60405180910390fd5b670de0b6b3a76400003410156104ce576040517f08c379a00000000000000000000000000000000000000000000000000000000081526004016104c59061091b565b60405180910390fd5b8060010160019080600181540180825580915050600190039060005260206000200160009091909190915055505050565b60405180608001604052806060815260200160608152602001600081526020016000151581525090565b82805461053590610a5d565b90600052602060002090601f016020900481019282610557576000855561059e565b82601f1061057057805160ff191683800117855561059e565b8280016001018555821561059e579182015b8281111561059d578251825591602001919060010190610582565b5b5090506105ab91906105fc565b5090565b8280548282559060005260206000209081019282156105eb579160200282015b828111156105ea5782518255916020019190600101906105cf565b5b5090506105f891906105fc565b5090565b5b808211156106155760008160009055506001016105fd565b5090565b600061062c6106278461097b565b610956565b90508281526020810184848401111561064857610647610bca565b5b610653848285610a1b565b509392505050565b600082601f8301126106705761066f610bc5565b5b8135610680848260208601610619565b91505092915050565b60008135905061069881610c3c565b92915050565b6000602082840312156106b4576106b3610bd4565b5b600082013567ffffffffffffffff8111156106d2576106d1610bcf565b5b6106de8482850161065b565b91505092915050565b600080604083850312156106fe576106fd610bd4565b5b600083013567ffffffffffffffff81111561071c5761071b610bcf565b5b6107288582860161065b565b925050602083013567ffffffffffffffff81111561074957610748610bcf565b5b6107558582860161065b565b9150509250929050565b60006020828403121561077557610774610bd4565b5b600061078384828501610689565b91505092915050565b610795816109d3565b82525050565b6107a4816109e5565b82525050565b60006107b5826109ac565b6107bf81856109b7565b93506107cf818560208601610a2a565b6107d881610bd9565b840191505092915050565b60006107ee826109ac565b6107f881856109c8565b9350610808818560208601610a2a565b80840191505092915050565b60006108216019836109b7565b915061082c82610bea565b602082019050919050565b60006108446018836109b7565b915061084f82610c13565b602082019050919050565b61086381610a11565b82525050565b600061087582846107e3565b915081905092915050565b6000602082019050610895600083018461078c565b92915050565b600060208201905081810360008301526108b581846107aa565b905092915050565b600060608201905081810360008301526108d781866107aa565b90506108e6602083018561085a565b6108f3604083018461079b565b949350505050565b6000602082019050818103600083015261091481610814565b9050919050565b6000602082019050818103600083015261093481610837565b9050919050565b6000602082019050610950600083018461085a565b92915050565b6000610960610971565b905061096c8282610a8f565b919050565b6000604051905090565b600067ffffffffffffffff82111561099657610995610b96565b5b61099f82610bd9565b9050602081019050919050565b600081519050919050565b600082825260208201905092915050565b600081905092915050565b60006109de826109f1565b9050919050565b60008115159050919050565b600073ffffffffffffffffffffffffffffffffffffffff82169050919050565b6000819050919050565b82818337600083830152505050565b60005b83811015610a48578082015181840152602081019050610a2d565b83811115610a57576000848401525b50505050565b60006002820490506001821680610a7557607f821691505b60208210811415610a8957610a88610b38565b5b50919050565b610a9882610bd9565b810181811067ffffffffffffffff82111715610ab757610ab6610b96565b5b80604052505050565b6000610acb82610a11565b91507fffffffffffffffffffffffffffffffffffffffffffffffffffffffffffffffff821415610afe57610afd610b09565b5b600182019050919050565b7f4e487b7100000000000000000000000000000000000000000000000000000000600052601160045260246000fd5b7f4e487b7100000000000000000000000000000000000000000000000000000000600052602260045260246000fd5b7f4e487b7100000000000000000000000000000000000000000000000000000000600052603260045260246000fd5b7f4e487b7100000000000000000000000000000000000000000000000000000000600052604160045260246000fd5b600080fd5b600080fd5b600080fd5b600080fd5b6000601f19601f8301169050919050565b7f63757272656e742073756767657374696f6e20636c6f73656400000000000000600082015250565b7f6d6f7265207468616e2073656e642074686520746f6b656e0000000000000000600082015250565b610c4581610a11565b8114610c5057600080fd5b5056fea2646970667358221220cd70ac304d8b10251450631eefb08b98592027fc6e0a730e722ed14572defdbb64736f6c63430008070033a2646970667358221220c2d5d012bbf3c16f6576c7ba383a4f02a848b9a5cc508a2d91d20c3899cda91c64736f6c63430008070033",
					"opcodes": "PUSH1 0x80 PUSH1 0x40 MSTORE CALLVALUE DUP1 ISZERO PUSH2 0x10 JUMPI PUSH1 0x0 DUP1 REVERT JUMPDEST POP PUSH2 0x1780 DUP1 PUSH2 0x20 PUSH1 0x0 CODECOPY PUSH1 0x0 RETURN INVALID PUSH1 0x80 PUSH1 0x40 MSTORE CALLVALUE DUP1 ISZERO PUSH3 0x11 JUMPI PUSH1 0x0 DUP1 REVERT JUMPDEST POP PUSH1 0x4 CALLDATASIZE LT PUSH3 0x46 JUMPI PUSH1 0x0 CALLDATALOAD PUSH1 0xE0 SHR DUP1 PUSH4 0x86C1D5FD EQ PUSH3 0x4B JUMPI DUP1 PUSH4 0x8ECD58E9 EQ PUSH3 0x6B JUMPI DUP1 PUSH4 0xA20FE1C7 EQ PUSH3 0x8D JUMPI JUMPDEST PUSH1 0x0 DUP1 REVERT JUMPDEST PUSH3 0x69 PUSH1 0x4 DUP1 CALLDATASIZE SUB DUP2 ADD SWAP1 PUSH3 0x63 SWAP2 SWAP1 PUSH3 0x2CF JUMP JUMPDEST PUSH3 0xC3 JUMP JUMPDEST STOP JUMPDEST PUSH3 0x75 PUSH3 0x1C9 JUMP JUMPDEST PUSH1 0x40 MLOAD PUSH3 0x84 SWAP2 SWAP1 PUSH3 0x47C JUMP JUMPDEST PUSH1 0x40 MLOAD DUP1 SWAP2 SUB SWAP1 RETURN JUMPDEST PUSH3 0xAB PUSH1 0x4 DUP1 CALLDATASIZE SUB DUP2 ADD SWAP1 PUSH3 0xA5 SWAP2 SWAP1 PUSH3 0x335 JUMP JUMPDEST PUSH3 0x1D5 JUMP JUMPDEST PUSH1 0x40 MLOAD PUSH3 0xBA SWAP2 SWAP1 PUSH3 0x42B JUMP JUMPDEST PUSH1 0x40 MLOAD DUP1 SWAP2 SUB SWAP1 RETURN JUMPDEST PUSH1 0x0 DUP3 DUP3 PUSH1 0x40 MLOAD PUSH3 0xD5 SWAP1 PUSH3 0x215 JUMP JUMPDEST PUSH3 0xE2 SWAP3 SWAP2 SWAP1 PUSH3 0x448 JUMP JUMPDEST PUSH1 0x40 MLOAD DUP1 SWAP2 SUB SWAP1 PUSH1 0x0 CREATE DUP1 ISZERO DUP1 ISZERO PUSH3 0xFF JUMPI RETURNDATASIZE PUSH1 0x0 DUP1 RETURNDATACOPY RETURNDATASIZE PUSH1 0x0 REVERT JUMPDEST POP SWAP1 POP DUP1 PUSH1 0x1 DUP5 PUSH1 0x40 MLOAD PUSH3 0x115 SWAP2 SWAP1 PUSH3 0x412 JUMP JUMPDEST SWAP1 DUP2 MSTORE PUSH1 0x20 ADD PUSH1 0x40 MLOAD DUP1 SWAP2 SUB SWAP1 KECCAK256 PUSH1 0x0 PUSH2 0x100 EXP DUP2 SLOAD DUP2 PUSH20 0xFFFFFFFFFFFFFFFFFFFFFFFFFFFFFFFFFFFFFFFF MUL NOT AND SWAP1 DUP4 PUSH20 0xFFFFFFFFFFFFFFFFFFFFFFFFFFFFFFFFFFFFFFFF AND MUL OR SWAP1 SSTORE POP PUSH1 0x0 DUP2 SWAP1 DUP1 PUSH1 0x1 DUP2 SLOAD ADD DUP1 DUP3 SSTORE DUP1 SWAP2 POP POP PUSH1 0x1 SWAP1 SUB SWAP1 PUSH1 0x0 MSTORE PUSH1 0x20 PUSH1 0x0 KECCAK256 ADD PUSH1 0x0 SWAP1 SWAP2 SWAP1 SWAP2 SWAP1 SWAP2 PUSH2 0x100 EXP DUP2 SLOAD DUP2 PUSH20 0xFFFFFFFFFFFFFFFFFFFFFFFFFFFFFFFFFFFFFFFF MUL NOT AND SWAP1 DUP4 PUSH20 0xFFFFFFFFFFFFFFFFFFFFFFFFFFFFFFFFFFFFFFFF AND MUL OR SWAP1 SSTORE POP POP POP POP JUMP JUMPDEST PUSH1 0x0 DUP1 DUP1 SLOAD SWAP1 POP SWAP1 POP SWAP1 JUMP JUMPDEST PUSH1 0x0 DUP2 DUP2 SLOAD DUP2 LT PUSH3 0x1E6 JUMPI PUSH1 0x0 DUP1 REVERT JUMPDEST SWAP1 PUSH1 0x0 MSTORE PUSH1 0x20 PUSH1 0x0 KECCAK256 ADD PUSH1 0x0 SWAP2 POP SLOAD SWAP1 PUSH2 0x100 EXP SWAP1 DIV PUSH20 0xFFFFFFFFFFFFFFFFFFFFFFFFFFFFFFFFFFFFFFFF AND DUP2 JUMP JUMPDEST PUSH2 0x10AE DUP1 PUSH3 0x69D DUP4 CODECOPY ADD SWAP1 JUMP JUMPDEST PUSH1 0x0 PUSH3 0x23A PUSH3 0x234 DUP5 PUSH3 0x4C2 JUMP JUMPDEST PUSH3 0x499 JUMP JUMPDEST SWAP1 POP DUP3 DUP2 MSTORE PUSH1 0x20 DUP2 ADD DUP5 DUP5 DUP5 ADD GT ISZERO PUSH3 0x259 JUMPI PUSH3 0x258 PUSH3 0x648 JUMP JUMPDEST JUMPDEST PUSH3 0x266 DUP5 DUP3 DUP6 PUSH3 0x599 JUMP JUMPDEST POP SWAP4 SWAP3 POP POP POP JUMP JUMPDEST PUSH1 0x0 DUP2 CALLDATALOAD SWAP1 POP PUSH3 0x27F DUP2 PUSH3 0x668 JUMP JUMPDEST SWAP3 SWAP2 POP POP JUMP JUMPDEST PUSH1 0x0 DUP3 PUSH1 0x1F DUP4 ADD SLT PUSH3 0x29D JUMPI PUSH3 0x29C PUSH3 0x643 JUMP JUMPDEST JUMPDEST DUP2 CALLDATALOAD PUSH3 0x2AF DUP5 DUP3 PUSH1 0x20 DUP7 ADD PUSH3 0x223 JUMP JUMPDEST SWAP2 POP POP SWAP3 SWAP2 POP POP JUMP JUMPDEST PUSH1 0x0 DUP2 CALLDATALOAD SWAP1 POP PUSH3 0x2C9 DUP2 PUSH3 0x682 JUMP JUMPDEST SWAP3 SWAP2 POP POP JUMP JUMPDEST PUSH1 0x0 DUP1 PUSH1 0x40 DUP4 DUP6 SUB SLT ISZERO PUSH3 0x2E9 JUMPI PUSH3 0x2E8 PUSH3 0x652 JUMP JUMPDEST JUMPDEST PUSH1 0x0 DUP4 ADD CALLDATALOAD PUSH8 0xFFFFFFFFFFFFFFFF DUP2 GT ISZERO PUSH3 0x30A JUMPI PUSH3 0x309 PUSH3 0x64D JUMP JUMPDEST JUMPDEST PUSH3 0x318 DUP6 DUP3 DUP7 ADD PUSH3 0x285 JUMP JUMPDEST SWAP3 POP POP PUSH1 0x20 PUSH3 0x32B DUP6 DUP3 DUP7 ADD PUSH3 0x26E JUMP JUMPDEST SWAP2 POP POP SWAP3 POP SWAP3 SWAP1 POP JUMP JUMPDEST PUSH1 0x0 PUSH1 0x20 DUP3 DUP5 SUB SLT ISZERO PUSH3 0x34E JUMPI PUSH3 0x34D PUSH3 0x652 JUMP JUMPDEST JUMPDEST PUSH1 0x0 PUSH3 0x35E DUP5 DUP3 DUP6 ADD PUSH3 0x2B8 JUMP JUMPDEST SWAP2 POP POP SWAP3 SWAP2 POP POP JUMP JUMPDEST PUSH3 0x372 DUP2 PUSH3 0x51F JUMP JUMPDEST DUP3 MSTORE POP POP JUMP JUMPDEST PUSH3 0x383 DUP2 PUSH3 0x55D JUMP JUMPDEST DUP3 MSTORE POP POP JUMP JUMPDEST PUSH1 0x0 PUSH3 0x396 DUP3 PUSH3 0x4F8 JUMP JUMPDEST PUSH3 0x3A2 DUP2 DUP6 PUSH3 0x503 JUMP JUMPDEST SWAP4 POP PUSH3 0x3B4 DUP2 DUP6 PUSH1 0x20 DUP7 ADD PUSH3 0x5A8 JUMP JUMPDEST PUSH3 0x3BF DUP2 PUSH3 0x657 JUMP JUMPDEST DUP5 ADD SWAP2 POP POP SWAP3 SWAP2 POP POP JUMP JUMPDEST PUSH1 0x0 PUSH3 0x3D7 DUP3 PUSH3 0x4F8 JUMP JUMPDEST PUSH3 0x3E3 DUP2 DUP6 PUSH3 0x514 JUMP JUMPDEST SWAP4 POP PUSH3 0x3F5 DUP2 DUP6 PUSH1 0x20 DUP7 ADD PUSH3 0x5A8 JUMP JUMPDEST DUP1 DUP5 ADD SWAP2 POP POP SWAP3 SWAP2 POP POP JUMP JUMPDEST PUSH3 0x40C DUP2 PUSH3 0x553 JUMP JUMPDEST DUP3 MSTORE POP POP JUMP JUMPDEST PUSH1 0x0 PUSH3 0x420 DUP3 DUP5 PUSH3 0x3CA JUMP JUMPDEST SWAP2 POP DUP2 SWAP1 POP SWAP3 SWAP2 POP POP JUMP JUMPDEST PUSH1 0x0 PUSH1 0x20 DUP3 ADD SWAP1 POP PUSH3 0x442 PUSH1 0x0 DUP4 ADD DUP5 PUSH3 0x378 JUMP JUMPDEST SWAP3 SWAP2 POP POP JUMP JUMPDEST PUSH1 0x0 PUSH1 0x40 DUP3 ADD SWAP1 POP DUP2 DUP2 SUB PUSH1 0x0 DUP4 ADD MSTORE PUSH3 0x464 DUP2 DUP6 PUSH3 0x389 JUMP JUMPDEST SWAP1 POP PUSH3 0x475 PUSH1 0x20 DUP4 ADD DUP5 PUSH3 0x367 JUMP JUMPDEST SWAP4 SWAP3 POP POP POP JUMP JUMPDEST PUSH1 0x0 PUSH1 0x20 DUP3 ADD SWAP1 POP PUSH3 0x493 PUSH1 0x0 DUP4 ADD DUP5 PUSH3 0x401 JUMP JUMPDEST SWAP3 SWAP2 POP POP JUMP JUMPDEST PUSH1 0x0 PUSH3 0x4A5 PUSH3 0x4B8 JUMP JUMPDEST SWAP1 POP PUSH3 0x4B3 DUP3 DUP3 PUSH3 0x5DE JUMP JUMPDEST SWAP2 SWAP1 POP JUMP JUMPDEST PUSH1 0x0 PUSH1 0x40 MLOAD SWAP1 POP SWAP1 JUMP JUMPDEST PUSH1 0x0 PUSH8 0xFFFFFFFFFFFFFFFF DUP3 GT ISZERO PUSH3 0x4E0 JUMPI PUSH3 0x4DF PUSH3 0x614 JUMP JUMPDEST JUMPDEST PUSH3 0x4EB DUP3 PUSH3 0x657 JUMP JUMPDEST SWAP1 POP PUSH1 0x20 DUP2 ADD SWAP1 POP SWAP2 SWAP1 POP JUMP JUMPDEST PUSH1 0x0 DUP2 MLOAD SWAP1 POP SWAP2 SWAP1 POP JUMP JUMPDEST PUSH1 0x0 DUP3 DUP3 MSTORE PUSH1 0x20 DUP3 ADD SWAP1 POP SWAP3 SWAP2 POP POP JUMP JUMPDEST PUSH1 0x0 DUP2 SWAP1 POP SWAP3 SWAP2 POP POP JUMP JUMPDEST PUSH1 0x0 PUSH3 0x52C DUP3 PUSH3 0x533 JUMP JUMPDEST SWAP1 POP SWAP2 SWAP1 POP JUMP JUMPDEST PUSH1 0x0 PUSH20 0xFFFFFFFFFFFFFFFFFFFFFFFFFFFFFFFFFFFFFFFF DUP3 AND SWAP1 POP SWAP2 SWAP1 POP JUMP JUMPDEST PUSH1 0x0 DUP2 SWAP1 POP SWAP2 SWAP1 POP JUMP JUMPDEST PUSH1 0x0 PUSH3 0x56A DUP3 PUSH3 0x571 JUMP JUMPDEST SWAP1 POP SWAP2 SWAP1 POP JUMP JUMPDEST PUSH1 0x0 PUSH3 0x57E DUP3 PUSH3 0x585 JUMP JUMPDEST SWAP1 POP SWAP2 SWAP1 POP JUMP JUMPDEST PUSH1 0x0 PUSH3 0x592 DUP3 PUSH3 0x533 JUMP JUMPDEST SWAP1 POP SWAP2 SWAP1 POP JUMP JUMPDEST DUP3 DUP2 DUP4 CALLDATACOPY PUSH1 0x0 DUP4 DUP4 ADD MSTORE POP POP POP JUMP JUMPDEST PUSH1 0x0 JUMPDEST DUP4 DUP2 LT ISZERO PUSH3 0x5C8 JUMPI DUP1 DUP3 ADD MLOAD DUP2 DUP5 ADD MSTORE PUSH1 0x20 DUP2 ADD SWAP1 POP PUSH3 0x5AB JUMP JUMPDEST DUP4 DUP2 GT ISZERO PUSH3 0x5D8 JUMPI PUSH1 0x0 DUP5 DUP5 ADD MSTORE JUMPDEST POP POP POP POP JUMP JUMPDEST PUSH3 0x5E9 DUP3 PUSH3 0x657 JUMP JUMPDEST DUP2 ADD DUP2 DUP2 LT PUSH8 0xFFFFFFFFFFFFFFFF DUP3 GT OR ISZERO PUSH3 0x60B JUMPI PUSH3 0x60A PUSH3 0x614 JUMP JUMPDEST JUMPDEST DUP1 PUSH1 0x40 MSTORE POP POP POP JUMP JUMPDEST PUSH32 0x4E487B7100000000000000000000000000000000000000000000000000000000 PUSH1 0x0 MSTORE PUSH1 0x41 PUSH1 0x4 MSTORE PUSH1 0x24 PUSH1 0x0 REVERT JUMPDEST PUSH1 0x0 DUP1 REVERT JUMPDEST PUSH1 0x0 DUP1 REVERT JUMPDEST PUSH1 0x0 DUP1 REVERT JUMPDEST PUSH1 0x0 DUP1 REVERT JUMPDEST PUSH1 0x0 PUSH1 0x1F NOT PUSH1 0x1F DUP4 ADD AND SWAP1 POP SWAP2 SWAP1 POP JUMP JUMPDEST PUSH3 0x673 DUP2 PUSH3 0x51F JUMP JUMPDEST DUP2 EQ PUSH3 0x67F JUMPI PUSH1 0x0 DUP1 REVERT JUMPDEST POP JUMP JUMPDEST PUSH3 0x68D DUP2 PUSH3 0x553 JUMP JUMPDEST DUP2 EQ PUSH3 0x699 JUMPI PUSH1 0x0 DUP1 REVERT JUMPDEST POP JUMP INVALID PUSH1 0x80 PUSH1 0x40 MSTORE CALLVALUE DUP1 ISZERO PUSH3 0x11 JUMPI PUSH1 0x0 DUP1 REVERT JUMPDEST POP PUSH1 0x40 MLOAD PUSH3 0x10AE CODESIZE SUB DUP1 PUSH3 0x10AE DUP4 CODECOPY DUP2 DUP2 ADD PUSH1 0x40 MSTORE DUP2 ADD SWAP1 PUSH3 0x37 SWAP2 SWAP1 PUSH3 0x1DD JUMP JUMPDEST DUP1 PUSH1 0x0 DUP1 PUSH2 0x100 EXP DUP2 SLOAD DUP2 PUSH20 0xFFFFFFFFFFFFFFFFFFFFFFFFFFFFFFFFFFFFFFFF MUL NOT AND SWAP1 DUP4 PUSH20 0xFFFFFFFFFFFFFFFFFFFFFFFFFFFFFFFFFFFFFFFF AND MUL OR SWAP1 SSTORE POP DUP2 PUSH1 0x1 SWAP1 DUP1 MLOAD SWAP1 PUSH1 0x20 ADD SWAP1 PUSH3 0x8F SWAP3 SWAP2 SWAP1 PUSH3 0x98 JUMP JUMPDEST POP POP POP PUSH3 0x415 JUMP JUMPDEST DUP3 DUP1 SLOAD PUSH3 0xA6 SWAP1 PUSH3 0x30C JUMP JUMPDEST SWAP1 PUSH1 0x0 MSTORE PUSH1 0x20 PUSH1 0x0 KECCAK256 SWAP1 PUSH1 0x1F ADD PUSH1 0x20 SWAP1 DIV DUP2 ADD SWAP3 DUP3 PUSH3 0xCA JUMPI PUSH1 0x0 DUP6 SSTORE PUSH3 0x116 JUMP JUMPDEST DUP3 PUSH1 0x1F LT PUSH3 0xE5 JUMPI DUP1 MLOAD PUSH1 0xFF NOT AND DUP4 DUP1 ADD OR DUP6 SSTORE PUSH3 0x116 JUMP JUMPDEST DUP3 DUP1 ADD PUSH1 0x1 ADD DUP6 SSTORE DUP3 ISZERO PUSH3 0x116 JUMPI SWAP2 DUP3 ADD JUMPDEST DUP3 DUP2 GT ISZERO PUSH3 0x115 JUMPI DUP3 MLOAD DUP3 SSTORE SWAP2 PUSH1 0x20 ADD SWAP2 SWAP1 PUSH1 0x1 ADD SWAP1 PUSH3 0xF8 JUMP JUMPDEST JUMPDEST POP SWAP1 POP PUSH3 0x125 SWAP2 SWAP1 PUSH3 0x129 JUMP JUMPDEST POP SWAP1 JUMP JUMPDEST JUMPDEST DUP1 DUP3 GT ISZERO PUSH3 0x144 JUMPI PUSH1 0x0 DUP2 PUSH1 0x0 SWAP1 SSTORE POP PUSH1 0x1 ADD PUSH3 0x12A JUMP JUMPDEST POP SWAP1 JUMP JUMPDEST PUSH1 0x0 PUSH3 0x15F PUSH3 0x159 DUP5 PUSH3 0x26C JUMP JUMPDEST PUSH3 0x243 JUMP JUMPDEST SWAP1 POP DUP3 DUP2 MSTORE PUSH1 0x20 DUP2 ADD DUP5 DUP5 DUP5 ADD GT ISZERO PUSH3 0x17E JUMPI PUSH3 0x17D PUSH3 0x3DB JUMP JUMPDEST JUMPDEST PUSH3 0x18B DUP5 DUP3 DUP6 PUSH3 0x2D6 JUMP JUMPDEST POP SWAP4 SWAP3 POP POP POP JUMP JUMPDEST PUSH1 0x0 DUP2 MLOAD SWAP1 POP PUSH3 0x1A4 DUP2 PUSH3 0x3FB JUMP JUMPDEST SWAP3 SWAP2 POP POP JUMP JUMPDEST PUSH1 0x0 DUP3 PUSH1 0x1F DUP4 ADD SLT PUSH3 0x1C2 JUMPI PUSH3 0x1C1 PUSH3 0x3D6 JUMP JUMPDEST JUMPDEST DUP2 MLOAD PUSH3 0x1D4 DUP5 DUP3 PUSH1 0x20 DUP7 ADD PUSH3 0x148 JUMP JUMPDEST SWAP2 POP POP SWAP3 SWAP2 POP POP JUMP JUMPDEST PUSH1 0x0 DUP1 PUSH1 0x40 DUP4 DUP6 SUB SLT ISZERO PUSH3 0x1F7 JUMPI PUSH3 0x1F6 PUSH3 0x3E5 JUMP JUMPDEST JUMPDEST PUSH1 0x0 DUP4 ADD MLOAD PUSH8 0xFFFFFFFFFFFFFFFF DUP2 GT ISZERO PUSH3 0x218 JUMPI PUSH3 0x217 PUSH3 0x3E0 JUMP JUMPDEST JUMPDEST PUSH3 0x226 DUP6 DUP3 DUP7 ADD PUSH3 0x1AA JUMP JUMPDEST SWAP3 POP POP PUSH1 0x20 PUSH3 0x239 DUP6 DUP3 DUP7 ADD PUSH3 0x193 JUMP JUMPDEST SWAP2 POP POP SWAP3 POP SWAP3 SWAP1 POP JUMP JUMPDEST PUSH1 0x0 PUSH3 0x24F PUSH3 0x262 JUMP JUMPDEST SWAP1 POP PUSH3 0x25D DUP3 DUP3 PUSH3 0x342 JUMP JUMPDEST SWAP2 SWAP1 POP JUMP JUMPDEST PUSH1 0x0 PUSH1 0x40 MLOAD SWAP1 POP SWAP1 JUMP JUMPDEST PUSH1 0x0 PUSH8 0xFFFFFFFFFFFFFFFF DUP3 GT ISZERO PUSH3 0x28A JUMPI PUSH3 0x289 PUSH3 0x3A7 JUMP JUMPDEST JUMPDEST PUSH3 0x295 DUP3 PUSH3 0x3EA JUMP JUMPDEST SWAP1 POP PUSH1 0x20 DUP2 ADD SWAP1 POP SWAP2 SWAP1 POP JUMP JUMPDEST PUSH1 0x0 PUSH3 0x2AF DUP3 PUSH3 0x2B6 JUMP JUMPDEST SWAP1 POP SWAP2 SWAP1 POP JUMP JUMPDEST PUSH1 0x0 PUSH20 0xFFFFFFFFFFFFFFFFFFFFFFFFFFFFFFFFFFFFFFFF DUP3 AND SWAP1 POP SWAP2 SWAP1 POP JUMP JUMPDEST PUSH1 0x0 JUMPDEST DUP4 DUP2 LT ISZERO PUSH3 0x2F6 JUMPI DUP1 DUP3 ADD MLOAD DUP2 DUP5 ADD MSTORE PUSH1 0x20 DUP2 ADD SWAP1 POP PUSH3 0x2D9 JUMP JUMPDEST DUP4 DUP2 GT ISZERO PUSH3 0x306 JUMPI PUSH1 0x0 DUP5 DUP5 ADD MSTORE JUMPDEST POP POP POP POP JUMP JUMPDEST PUSH1 0x0 PUSH1 0x2 DUP3 DIV SWAP1 POP PUSH1 0x1 DUP3 AND DUP1 PUSH3 0x325 JUMPI PUSH1 0x7F DUP3 AND SWAP2 POP JUMPDEST PUSH1 0x20 DUP3 LT DUP2 EQ ISZERO PUSH3 0x33C JUMPI PUSH3 0x33B PUSH3 0x378 JUMP JUMPDEST JUMPDEST POP SWAP2 SWAP1 POP JUMP JUMPDEST PUSH3 0x34D DUP3 PUSH3 0x3EA JUMP JUMPDEST DUP2 ADD DUP2 DUP2 LT PUSH8 0xFFFFFFFFFFFFFFFF DUP3 GT OR ISZERO PUSH3 0x36F JUMPI PUSH3 0x36E PUSH3 0x3A7 JUMP JUMPDEST JUMPDEST DUP1 PUSH1 0x40 MSTORE POP POP POP JUMP JUMPDEST PUSH32 0x4E487B7100000000000000000000000000000000000000000000000000000000 PUSH1 0x0 MSTORE PUSH1 0x22 PUSH1 0x4 MSTORE PUSH1 0x24 PUSH1 0x0 REVERT JUMPDEST PUSH32 0x4E487B7100000000000000000000000000000000000000000000000000000000 PUSH1 0x0 MSTORE PUSH1 0x41 PUSH1 0x4 MSTORE PUSH1 0x24 PUSH1 0x0 REVERT JUMPDEST PUSH1 0x0 DUP1 REVERT JUMPDEST PUSH1 0x0 DUP1 REVERT JUMPDEST PUSH1 0x0 DUP1 REVERT JUMPDEST PUSH1 0x0 DUP1 REVERT JUMPDEST PUSH1 0x0 PUSH1 0x1F NOT PUSH1 0x1F DUP4 ADD AND SWAP1 POP SWAP2 SWAP1 POP JUMP JUMPDEST PUSH3 0x406 DUP2 PUSH3 0x2A2 JUMP JUMPDEST DUP2 EQ PUSH3 0x412 JUMPI PUSH1 0x0 DUP1 REVERT JUMPDEST POP JUMP JUMPDEST PUSH2 0xC89 DUP1 PUSH3 0x425 PUSH1 0x0 CODECOPY PUSH1 0x0 RETURN INVALID PUSH1 0x80 PUSH1 0x40 MSTORE PUSH1 0x4 CALLDATASIZE LT PUSH2 0x55 JUMPI PUSH1 0x0 CALLDATALOAD PUSH1 0xE0 SHR DUP1 PUSH4 0x2E4176CF EQ PUSH2 0x5A JUMPI DUP1 PUSH4 0x302A2A46 EQ PUSH2 0x85 JUMPI DUP1 PUSH4 0x43EF7E85 EQ PUSH2 0xC4 JUMPI DUP1 PUSH4 0x4F5CBC1A EQ PUSH2 0xED JUMPI DUP1 PUSH4 0x64B9FB89 EQ PUSH2 0x118 JUMPI DUP1 PUSH4 0xE8D5940D EQ PUSH2 0x143 JUMPI JUMPDEST PUSH1 0x0 DUP1 REVERT JUMPDEST CALLVALUE DUP1 ISZERO PUSH2 0x66 JUMPI PUSH1 0x0 DUP1 REVERT JUMPDEST POP PUSH2 0x6F PUSH2 0x15F JUMP JUMPDEST PUSH1 0x40 MLOAD PUSH2 0x7C SWAP2 SWAP1 PUSH2 0x880 JUMP JUMPDEST PUSH1 0x40 MLOAD DUP1 SWAP2 SUB SWAP1 RETURN JUMPDEST CALLVALUE DUP1 ISZERO PUSH2 0x91 JUMPI PUSH1 0x0 DUP1 REVERT JUMPDEST POP PUSH2 0xAC PUSH1 0x4 DUP1 CALLDATASIZE SUB DUP2 ADD SWAP1 PUSH2 0xA7 SWAP2 SWAP1 PUSH2 0x75F JUMP JUMPDEST PUSH2 0x183 JUMP JUMPDEST PUSH1 0x40 MLOAD PUSH2 0xBB SWAP4 SWAP3 SWAP2 SWAP1 PUSH2 0x8BD JUMP JUMPDEST PUSH1 0x40 MLOAD DUP1 SWAP2 SUB SWAP1 RETURN JUMPDEST CALLVALUE DUP1 ISZERO PUSH2 0xD0 JUMPI PUSH1 0x0 DUP1 REVERT JUMPDEST POP PUSH2 0xEB PUSH1 0x4 DUP1 CALLDATASIZE SUB DUP2 ADD SWAP1 PUSH2 0xE6 SWAP2 SWAP1 PUSH2 0x69E JUMP JUMPDEST PUSH2 0x252 JUMP JUMPDEST STOP JUMPDEST CALLVALUE DUP1 ISZERO PUSH2 0xF9 JUMPI PUSH1 0x0 DUP1 REVERT JUMPDEST POP PUSH2 0x102 PUSH2 0x353 JUMP JUMPDEST PUSH1 0x40 MLOAD PUSH2 0x10F SWAP2 SWAP1 PUSH2 0x89B JUMP JUMPDEST PUSH1 0x40 MLOAD DUP1 SWAP2 SUB SWAP1 RETURN JUMPDEST CALLVALUE DUP1 ISZERO PUSH2 0x124 JUMPI PUSH1 0x0 DUP1 REVERT JUMPDEST POP PUSH2 0x12D PUSH2 0x3E1 JUMP JUMPDEST PUSH1 0x40 MLOAD PUSH2 0x13A SWAP2 SWAP1 PUSH2 0x93B JUMP JUMPDEST PUSH1 0x40 MLOAD DUP1 SWAP2 SUB SWAP1 RETURN JUMPDEST PUSH2 0x15D PUSH1 0x4 DUP1 CALLDATASIZE SUB DUP2 ADD SWAP1 PUSH2 0x158 SWAP2 SWAP1 PUSH2 0x6E7 JUMP JUMPDEST PUSH2 0x3E7 JUMP JUMPDEST STOP JUMPDEST PUSH1 0x0 DUP1 SLOAD SWAP1 PUSH2 0x100 EXP SWAP1 DIV PUSH20 0xFFFFFFFFFFFFFFFFFFFFFFFFFFFFFFFFFFFFFFFF AND DUP2 JUMP JUMPDEST PUSH1 0x4 DUP2 DUP2 SLOAD DUP2 LT PUSH2 0x193 JUMPI PUSH1 0x0 DUP1 REVERT JUMPDEST SWAP1 PUSH1 0x0 MSTORE PUSH1 0x20 PUSH1 0x0 KECCAK256 SWAP1 PUSH1 0x4 MUL ADD PUSH1 0x0 SWAP2 POP SWAP1 POP DUP1 PUSH1 0x0 ADD DUP1 SLOAD PUSH2 0x1B6 SWAP1 PUSH2 0xA5D JUMP JUMPDEST DUP1 PUSH1 0x1F ADD PUSH1 0x20 DUP1 SWAP2 DIV MUL PUSH1 0x20 ADD PUSH1 0x40 MLOAD SWAP1 DUP2 ADD PUSH1 0x40 MSTORE DUP1 SWAP3 SWAP2 SWAP1 DUP2 DUP2 MSTORE PUSH1 0x20 ADD DUP3 DUP1 SLOAD PUSH2 0x1E2 SWAP1 PUSH2 0xA5D JUMP JUMPDEST DUP1 ISZERO PUSH2 0x22F JUMPI DUP1 PUSH1 0x1F LT PUSH2 0x204 JUMPI PUSH2 0x100 DUP1 DUP4 SLOAD DIV MUL DUP4 MSTORE SWAP2 PUSH1 0x20 ADD SWAP2 PUSH2 0x22F JUMP JUMPDEST DUP3 ADD SWAP2 SWAP1 PUSH1 0x0 MSTORE PUSH1 0x20 PUSH1 0x0 KECCAK256 SWAP1 JUMPDEST DUP2 SLOAD DUP2 MSTORE SWAP1 PUSH1 0x1 ADD SWAP1 PUSH1 0x20 ADD DUP1 DUP4 GT PUSH2 0x212 JUMPI DUP3 SWAP1 SUB PUSH1 0x1F AND DUP3 ADD SWAP2 JUMPDEST POP POP POP POP POP SWAP1 DUP1 PUSH1 0x2 ADD SLOAD SWAP1 DUP1 PUSH1 0x3 ADD PUSH1 0x0 SWAP1 SLOAD SWAP1 PUSH2 0x100 EXP SWAP1 DIV PUSH1 0xFF AND SWAP1 POP DUP4 JUMP JUMPDEST PUSH2 0x25A PUSH2 0x4FF JUMP JUMPDEST DUP2 DUP2 PUSH1 0x0 ADD DUP2 SWAP1 MSTORE POP PUSH1 0x2 SLOAD DUP2 PUSH1 0x40 ADD DUP2 DUP2 MSTORE POP POP PUSH1 0x1 DUP2 PUSH1 0x60 ADD SWAP1 ISZERO ISZERO SWAP1 DUP2 ISZERO ISZERO DUP2 MSTORE POP POP PUSH1 0x4 DUP2 SWAP1 DUP1 PUSH1 0x1 DUP2 SLOAD ADD DUP1 DUP3 SSTORE DUP1 SWAP2 POP POP PUSH1 0x1 SWAP1 SUB SWAP1 PUSH1 0x0 MSTORE PUSH1 0x20 PUSH1 0x0 KECCAK256 SWAP1 PUSH1 0x4 MUL ADD PUSH1 0x0 SWAP1 SWAP2 SWAP1 SWAP2 SWAP1 SWAP2 POP PUSH1 0x0 DUP3 ADD MLOAD DUP2 PUSH1 0x0 ADD SWAP1 DUP1 MLOAD SWAP1 PUSH1 0x20 ADD SWAP1 PUSH2 0x2C8 SWAP3 SWAP2 SWAP1 PUSH2 0x529 JUMP JUMPDEST POP PUSH1 0x20 DUP3 ADD MLOAD DUP2 PUSH1 0x1 ADD SWAP1 DUP1 MLOAD SWAP1 PUSH1 0x20 ADD SWAP1 PUSH2 0x2E5 SWAP3 SWAP2 SWAP1 PUSH2 0x5AF JUMP JUMPDEST POP PUSH1 0x40 DUP3 ADD MLOAD DUP2 PUSH1 0x2 ADD SSTORE PUSH1 0x60 DUP3 ADD MLOAD DUP2 PUSH1 0x3 ADD PUSH1 0x0 PUSH2 0x100 EXP DUP2 SLOAD DUP2 PUSH1 0xFF MUL NOT AND SWAP1 DUP4 ISZERO ISZERO MUL OR SWAP1 SSTORE POP POP POP PUSH1 0x2 SLOAD PUSH1 0x3 DUP4 PUSH1 0x40 MLOAD PUSH2 0x325 SWAP2 SWAP1 PUSH2 0x869 JUMP JUMPDEST SWAP1 DUP2 MSTORE PUSH1 0x20 ADD PUSH1 0x40 MLOAD DUP1 SWAP2 SUB SWAP1 KECCAK256 DUP2 SWAP1 SSTORE POP PUSH1 0x2 PUSH1 0x0 DUP2 SLOAD DUP1 SWAP3 SWAP2 SWAP1 PUSH2 0x34A SWAP1 PUSH2 0xAC0 JUMP JUMPDEST SWAP2 SWAP1 POP SSTORE POP POP POP JUMP JUMPDEST PUSH1 0x1 DUP1 SLOAD PUSH2 0x360 SWAP1 PUSH2 0xA5D JUMP JUMPDEST DUP1 PUSH1 0x1F ADD PUSH1 0x20 DUP1 SWAP2 DIV MUL PUSH1 0x20 ADD PUSH1 0x40 MLOAD SWAP1 DUP2 ADD PUSH1 0x40 MSTORE DUP1 SWAP3 SWAP2 SWAP1 DUP2 DUP2 MSTORE PUSH1 0x20 ADD DUP3 DUP1 SLOAD PUSH2 0x38C SWAP1 PUSH2 0xA5D JUMP JUMPDEST DUP1 ISZERO PUSH2 0x3D9 JUMPI DUP1 PUSH1 0x1F LT PUSH2 0x3AE JUMPI PUSH2 0x100 DUP1 DUP4 SLOAD DIV MUL DUP4 MSTORE SWAP2 PUSH1 0x20 ADD SWAP2 PUSH2 0x3D9 JUMP JUMPDEST DUP3 ADD SWAP2 SWAP1 PUSH1 0x0 MSTORE PUSH1 0x20 PUSH1 0x0 KECCAK256 SWAP1 JUMPDEST DUP2 SLOAD DUP2 MSTORE SWAP1 PUSH1 0x1 ADD SWAP1 PUSH1 0x20 ADD DUP1 DUP4 GT PUSH2 0x3BC JUMPI DUP3 SWAP1 SUB PUSH1 0x1F AND DUP3 ADD SWAP2 JUMPDEST POP POP POP POP POP DUP2 JUMP JUMPDEST PUSH1 0x2 SLOAD DUP2 JUMP JUMPDEST PUSH1 0x0 PUSH1 0x4 PUSH1 0x3 DUP5 PUSH1 0x40 MLOAD PUSH2 0x3FB SWAP2 SWAP1 PUSH2 0x869 JUMP JUMPDEST SWAP1 DUP2 MSTORE PUSH1 0x20 ADD PUSH1 0x40 MLOAD DUP1 SWAP2 SUB SWAP1 KECCAK256 SLOAD DUP2 SLOAD DUP2 LT PUSH2 0x41B JUMPI PUSH2 0x41A PUSH2 0xB67 JUMP JUMPDEST JUMPDEST SWAP1 PUSH1 0x0 MSTORE PUSH1 0x20 PUSH1 0x0 KECCAK256 SWAP1 PUSH1 0x4 MUL ADD SWAP1 POP PUSH1 0x1 ISZERO ISZERO DUP2 PUSH1 0x3 ADD PUSH1 0x0 SWAP1 SLOAD SWAP1 PUSH2 0x100 EXP SWAP1 DIV PUSH1 0xFF AND ISZERO ISZERO EQ PUSH2 0x483 JUMPI PUSH1 0x40 MLOAD PUSH32 0x8C379A000000000000000000000000000000000000000000000000000000000 DUP2 MSTORE PUSH1 0x4 ADD PUSH2 0x47A SWAP1 PUSH2 0x8FB JUMP JUMPDEST PUSH1 0x40 MLOAD DUP1 SWAP2 SUB SWAP1 REVERT JUMPDEST PUSH8 0xDE0B6B3A7640000 CALLVALUE LT ISZERO PUSH2 0x4CE JUMPI PUSH1 0x40 MLOAD PUSH32 0x8C379A000000000000000000000000000000000000000000000000000000000 DUP2 MSTORE PUSH1 0x4 ADD PUSH2 0x4C5 SWAP1 PUSH2 0x91B JUMP JUMPDEST PUSH1 0x40 MLOAD DUP1 SWAP2 SUB SWAP1 REVERT JUMPDEST DUP1 PUSH1 0x1 ADD PUSH1 0x1 SWAP1 DUP1 PUSH1 0x1 DUP2 SLOAD ADD DUP1 DUP3 SSTORE DUP1 SWAP2 POP POP PUSH1 0x1 SWAP1 SUB SWAP1 PUSH1 0x0 MSTORE PUSH1 0x20 PUSH1 0x0 KECCAK256 ADD PUSH1 0x0 SWAP1 SWAP2 SWAP1 SWAP2 SWAP1 SWAP2 POP SSTORE POP POP POP JUMP JUMPDEST PUSH1 0x40 MLOAD DUP1 PUSH1 0x80 ADD PUSH1 0x40 MSTORE DUP1 PUSH1 0x60 DUP2 MSTORE PUSH1 0x20 ADD PUSH1 0x60 DUP2 MSTORE PUSH1 0x20 ADD PUSH1 0x0 DUP2 MSTORE PUSH1 0x20 ADD PUSH1 0x0 ISZERO ISZERO DUP2 MSTORE POP SWAP1 JUMP JUMPDEST DUP3 DUP1 SLOAD PUSH2 0x535 SWAP1 PUSH2 0xA5D JUMP JUMPDEST SWAP1 PUSH1 0x0 MSTORE PUSH1 0x20 PUSH1 0x0 KECCAK256 SWAP1 PUSH1 0x1F ADD PUSH1 0x20 SWAP1 DIV DUP2 ADD SWAP3 DUP3 PUSH2 0x557 JUMPI PUSH1 0x0 DUP6 SSTORE PUSH2 0x59E JUMP JUMPDEST DUP3 PUSH1 0x1F LT PUSH2 0x570 JUMPI DUP1 MLOAD PUSH1 0xFF NOT AND DUP4 DUP1 ADD OR DUP6 SSTORE PUSH2 0x59E JUMP JUMPDEST DUP3 DUP1 ADD PUSH1 0x1 ADD DUP6 SSTORE DUP3 ISZERO PUSH2 0x59E JUMPI SWAP2 DUP3 ADD JUMPDEST DUP3 DUP2 GT ISZERO PUSH2 0x59D JUMPI DUP3 MLOAD DUP3 SSTORE SWAP2 PUSH1 0x20 ADD SWAP2 SWAP1 PUSH1 0x1 ADD SWAP1 PUSH2 0x582 JUMP JUMPDEST JUMPDEST POP SWAP1 POP PUSH2 0x5AB SWAP2 SWAP1 PUSH2 0x5FC JUMP JUMPDEST POP SWAP1 JUMP JUMPDEST DUP3 DUP1 SLOAD DUP3 DUP3 SSTORE SWAP1 PUSH1 0x0 MSTORE PUSH1 0x20 PUSH1 0x0 KECCAK256 SWAP1 DUP2 ADD SWAP3 DUP3 ISZERO PUSH2 0x5EB JUMPI SWAP2 PUSH1 0x20 MUL DUP3 ADD JUMPDEST DUP3 DUP2 GT ISZERO PUSH2 0x5EA JUMPI DUP3 MLOAD DUP3 SSTORE SWAP2 PUSH1 0x20 ADD SWAP2 SWAP1 PUSH1 0x1 ADD SWAP1 PUSH2 0x5CF JUMP JUMPDEST JUMPDEST POP SWAP1 POP PUSH2 0x5F8 SWAP2 SWAP1 PUSH2 0x5FC JUMP JUMPDEST POP SWAP1 JUMP JUMPDEST JUMPDEST DUP1 DUP3 GT ISZERO PUSH2 0x615 JUMPI PUSH1 0x0 DUP2 PUSH1 0x0 SWAP1 SSTORE POP PUSH1 0x1 ADD PUSH2 0x5FD JUMP JUMPDEST POP SWAP1 JUMP JUMPDEST PUSH1 0x0 PUSH2 0x62C PUSH2 0x627 DUP5 PUSH2 0x97B JUMP JUMPDEST PUSH2 0x956 JUMP JUMPDEST SWAP1 POP DUP3 DUP2 MSTORE PUSH1 0x20 DUP2 ADD DUP5 DUP5 DUP5 ADD GT ISZERO PUSH2 0x648 JUMPI PUSH2 0x647 PUSH2 0xBCA JUMP JUMPDEST JUMPDEST PUSH2 0x653 DUP5 DUP3 DUP6 PUSH2 0xA1B JUMP JUMPDEST POP SWAP4 SWAP3 POP POP POP JUMP JUMPDEST PUSH1 0x0 DUP3 PUSH1 0x1F DUP4 ADD SLT PUSH2 0x670 JUMPI PUSH2 0x66F PUSH2 0xBC5 JUMP JUMPDEST JUMPDEST DUP2 CALLDATALOAD PUSH2 0x680 DUP5 DUP3 PUSH1 0x20 DUP7 ADD PUSH2 0x619 JUMP JUMPDEST SWAP2 POP POP SWAP3 SWAP2 POP POP JUMP JUMPDEST PUSH1 0x0 DUP2 CALLDATALOAD SWAP1 POP PUSH2 0x698 DUP2 PUSH2 0xC3C JUMP JUMPDEST SWAP3 SWAP2 POP POP JUMP JUMPDEST PUSH1 0x0 PUSH1 0x20 DUP3 DUP5 SUB SLT ISZERO PUSH2 0x6B4 JUMPI PUSH2 0x6B3 PUSH2 0xBD4 JUMP JUMPDEST JUMPDEST PUSH1 0x0 DUP3 ADD CALLDATALOAD PUSH8 0xFFFFFFFFFFFFFFFF DUP2 GT ISZERO PUSH2 0x6D2 JUMPI PUSH2 0x6D1 PUSH2 0xBCF JUMP JUMPDEST JUMPDEST PUSH2 0x6DE DUP5 DUP3 DUP6 ADD PUSH2 0x65B JUMP JUMPDEST SWAP2 POP POP SWAP3 SWAP2 POP POP JUMP JUMPDEST PUSH1 0x0 DUP1 PUSH1 0x40 DUP4 DUP6 SUB SLT ISZERO PUSH2 0x6FE JUMPI PUSH2 0x6FD PUSH2 0xBD4 JUMP JUMPDEST JUMPDEST PUSH1 0x0 DUP4 ADD CALLDATALOAD PUSH8 0xFFFFFFFFFFFFFFFF DUP2 GT ISZERO PUSH2 0x71C JUMPI PUSH2 0x71B PUSH2 0xBCF JUMP JUMPDEST JUMPDEST PUSH2 0x728 DUP6 DUP3 DUP7 ADD PUSH2 0x65B JUMP JUMPDEST SWAP3 POP POP PUSH1 0x20 DUP4 ADD CALLDATALOAD PUSH8 0xFFFFFFFFFFFFFFFF DUP2 GT ISZERO PUSH2 0x749 JUMPI PUSH2 0x748 PUSH2 0xBCF JUMP JUMPDEST JUMPDEST PUSH2 0x755 DUP6 DUP3 DUP7 ADD PUSH2 0x65B JUMP JUMPDEST SWAP2 POP POP SWAP3 POP SWAP3 SWAP1 POP JUMP JUMPDEST PUSH1 0x0 PUSH1 0x20 DUP3 DUP5 SUB SLT ISZERO PUSH2 0x775 JUMPI PUSH2 0x774 PUSH2 0xBD4 JUMP JUMPDEST JUMPDEST PUSH1 0x0 PUSH2 0x783 DUP5 DUP3 DUP6 ADD PUSH2 0x689 JUMP JUMPDEST SWAP2 POP POP SWAP3 SWAP2 POP POP JUMP JUMPDEST PUSH2 0x795 DUP2 PUSH2 0x9D3 JUMP JUMPDEST DUP3 MSTORE POP POP JUMP JUMPDEST PUSH2 0x7A4 DUP2 PUSH2 0x9E5 JUMP JUMPDEST DUP3 MSTORE POP POP JUMP JUMPDEST PUSH1 0x0 PUSH2 0x7B5 DUP3 PUSH2 0x9AC JUMP JUMPDEST PUSH2 0x7BF DUP2 DUP6 PUSH2 0x9B7 JUMP JUMPDEST SWAP4 POP PUSH2 0x7CF DUP2 DUP6 PUSH1 0x20 DUP7 ADD PUSH2 0xA2A JUMP JUMPDEST PUSH2 0x7D8 DUP2 PUSH2 0xBD9 JUMP JUMPDEST DUP5 ADD SWAP2 POP POP SWAP3 SWAP2 POP POP JUMP JUMPDEST PUSH1 0x0 PUSH2 0x7EE DUP3 PUSH2 0x9AC JUMP JUMPDEST PUSH2 0x7F8 DUP2 DUP6 PUSH2 0x9C8 JUMP JUMPDEST SWAP4 POP PUSH2 0x808 DUP2 DUP6 PUSH1 0x20 DUP7 ADD PUSH2 0xA2A JUMP JUMPDEST DUP1 DUP5 ADD SWAP2 POP POP SWAP3 SWAP2 POP POP JUMP JUMPDEST PUSH1 0x0 PUSH2 0x821 PUSH1 0x19 DUP4 PUSH2 0x9B7 JUMP JUMPDEST SWAP2 POP PUSH2 0x82C DUP3 PUSH2 0xBEA JUMP JUMPDEST PUSH1 0x20 DUP3 ADD SWAP1 POP SWAP2 SWAP1 POP JUMP JUMPDEST PUSH1 0x0 PUSH2 0x844 PUSH1 0x18 DUP4 PUSH2 0x9B7 JUMP JUMPDEST SWAP2 POP PUSH2 0x84F DUP3 PUSH2 0xC13 JUMP JUMPDEST PUSH1 0x20 DUP3 ADD SWAP1 POP SWAP2 SWAP1 POP JUMP JUMPDEST PUSH2 0x863 DUP2 PUSH2 0xA11 JUMP JUMPDEST DUP3 MSTORE POP POP JUMP JUMPDEST PUSH1 0x0 PUSH2 0x875 DUP3 DUP5 PUSH2 0x7E3 JUMP JUMPDEST SWAP2 POP DUP2 SWAP1 POP SWAP3 SWAP2 POP POP JUMP JUMPDEST PUSH1 0x0 PUSH1 0x20 DUP3 ADD SWAP1 POP PUSH2 0x895 PUSH1 0x0 DUP4 ADD DUP5 PUSH2 0x78C JUMP JUMPDEST SWAP3 SWAP2 POP POP JUMP JUMPDEST PUSH1 0x0 PUSH1 0x20 DUP3 ADD SWAP1 POP DUP2 DUP2 SUB PUSH1 0x0 DUP4 ADD MSTORE PUSH2 0x8B5 DUP2 DUP5 PUSH2 0x7AA JUMP JUMPDEST SWAP1 POP SWAP3 SWAP2 POP POP JUMP JUMPDEST PUSH1 0x0 PUSH1 0x60 DUP3 ADD SWAP1 POP DUP2 DUP2 SUB PUSH1 0x0 DUP4 ADD MSTORE PUSH2 0x8D7 DUP2 DUP7 PUSH2 0x7AA JUMP JUMPDEST SWAP1 POP PUSH2 0x8E6 PUSH1 0x20 DUP4 ADD DUP6 PUSH2 0x85A JUMP JUMPDEST PUSH2 0x8F3 PUSH1 0x40 DUP4 ADD DUP5 PUSH2 0x79B JUMP JUMPDEST SWAP5 SWAP4 POP POP POP POP JUMP JUMPDEST PUSH1 0x0 PUSH1 0x20 DUP3 ADD SWAP1 POP DUP2 DUP2 SUB PUSH1 0x0 DUP4 ADD MSTORE PUSH2 0x914 DUP2 PUSH2 0x814 JUMP JUMPDEST SWAP1 POP SWAP2 SWAP1 POP JUMP JUMPDEST PUSH1 0x0 PUSH1 0x20 DUP3 ADD SWAP1 POP DUP2 DUP2 SUB PUSH1 0x0 DUP4 ADD MSTORE PUSH2 0x934 DUP2 PUSH2 0x837 JUMP JUMPDEST SWAP1 POP SWAP2 SWAP1 POP JUMP JUMPDEST PUSH1 0x0 PUSH1 0x20 DUP3 ADD SWAP1 POP PUSH2 0x950 PUSH1 0x0 DUP4 ADD DUP5 PUSH2 0x85A JUMP JUMPDEST SWAP3 SWAP2 POP POP JUMP JUMPDEST PUSH1 0x0 PUSH2 0x960 PUSH2 0x971 JUMP JUMPDEST SWAP1 POP PUSH2 0x96C DUP3 DUP3 PUSH2 0xA8F JUMP JUMPDEST SWAP2 SWAP1 POP JUMP JUMPDEST PUSH1 0x0 PUSH1 0x40 MLOAD SWAP1 POP SWAP1 JUMP JUMPDEST PUSH1 0x0 PUSH8 0xFFFFFFFFFFFFFFFF DUP3 GT ISZERO PUSH2 0x996 JUMPI PUSH2 0x995 PUSH2 0xB96 JUMP JUMPDEST JUMPDEST PUSH2 0x99F DUP3 PUSH2 0xBD9 JUMP JUMPDEST SWAP1 POP PUSH1 0x20 DUP2 ADD SWAP1 POP SWAP2 SWAP1 POP JUMP JUMPDEST PUSH1 0x0 DUP2 MLOAD SWAP1 POP SWAP2 SWAP1 POP JUMP JUMPDEST PUSH1 0x0 DUP3 DUP3 MSTORE PUSH1 0x20 DUP3 ADD SWAP1 POP SWAP3 SWAP2 POP POP JUMP JUMPDEST PUSH1 0x0 DUP2 SWAP1 POP SWAP3 SWAP2 POP POP JUMP JUMPDEST PUSH1 0x0 PUSH2 0x9DE DUP3 PUSH2 0x9F1 JUMP JUMPDEST SWAP1 POP SWAP2 SWAP1 POP JUMP JUMPDEST PUSH1 0x0 DUP2 ISZERO ISZERO SWAP1 POP SWAP2 SWAP1 POP JUMP JUMPDEST PUSH1 0x0 PUSH20 0xFFFFFFFFFFFFFFFFFFFFFFFFFFFFFFFFFFFFFFFF DUP3 AND SWAP1 POP SWAP2 SWAP1 POP JUMP JUMPDEST PUSH1 0x0 DUP2 SWAP1 POP SWAP2 SWAP1 POP JUMP JUMPDEST DUP3 DUP2 DUP4 CALLDATACOPY PUSH1 0x0 DUP4 DUP4 ADD MSTORE POP POP POP JUMP JUMPDEST PUSH1 0x0 JUMPDEST DUP4 DUP2 LT ISZERO PUSH2 0xA48 JUMPI DUP1 DUP3 ADD MLOAD DUP2 DUP5 ADD MSTORE PUSH1 0x20 DUP2 ADD SWAP1 POP PUSH2 0xA2D JUMP JUMPDEST DUP4 DUP2 GT ISZERO PUSH2 0xA57 JUMPI PUSH1 0x0 DUP5 DUP5 ADD MSTORE JUMPDEST POP POP POP POP JUMP JUMPDEST PUSH1 0x0 PUSH1 0x2 DUP3 DIV SWAP1 POP PUSH1 0x1 DUP3 AND DUP1 PUSH2 0xA75 JUMPI PUSH1 0x7F DUP3 AND SWAP2 POP JUMPDEST PUSH1 0x20 DUP3 LT DUP2 EQ ISZERO PUSH2 0xA89 JUMPI PUSH2 0xA88 PUSH2 0xB38 JUMP JUMPDEST JUMPDEST POP SWAP2 SWAP1 POP JUMP JUMPDEST PUSH2 0xA98 DUP3 PUSH2 0xBD9 JUMP JUMPDEST DUP2 ADD DUP2 DUP2 LT PUSH8 0xFFFFFFFFFFFFFFFF DUP3 GT OR ISZERO PUSH2 0xAB7 JUMPI PUSH2 0xAB6 PUSH2 0xB96 JUMP JUMPDEST JUMPDEST DUP1 PUSH1 0x40 MSTORE POP POP POP JUMP JUMPDEST PUSH1 0x0 PUSH2 0xACB DUP3 PUSH2 0xA11 JUMP JUMPDEST SWAP2 POP PUSH32 0xFFFFFFFFFFFFFFFFFFFFFFFFFFFFFFFFFFFFFFFFFFFFFFFFFFFFFFFFFFFFFFFF DUP3 EQ ISZERO PUSH2 0xAFE JUMPI PUSH2 0xAFD PUSH2 0xB09 JUMP JUMPDEST JUMPDEST PUSH1 0x1 DUP3 ADD SWAP1 POP SWAP2 SWAP1 POP JUMP JUMPDEST PUSH32 0x4E487B7100000000000000000000000000000000000000000000000000000000 PUSH1 0x0 MSTORE PUSH1 0x11 PUSH1 0x4 MSTORE PUSH1 0x24 PUSH1 0x0 REVERT JUMPDEST PUSH32 0x4E487B7100000000000000000000000000000000000000000000000000000000 PUSH1 0x0 MSTORE PUSH1 0x22 PUSH1 0x4 MSTORE PUSH1 0x24 PUSH1 0x0 REVERT JUMPDEST PUSH32 0x4E487B7100000000000000000000000000000000000000000000000000000000 PUSH1 0x0 MSTORE PUSH1 0x32 PUSH1 0x4 MSTORE PUSH1 0x24 PUSH1 0x0 REVERT JUMPDEST PUSH32 0x4E487B7100000000000000000000000000000000000000000000000000000000 PUSH1 0x0 MSTORE PUSH1 0x41 PUSH1 0x4 MSTORE PUSH1 0x24 PUSH1 0x0 REVERT JUMPDEST PUSH1 0x0 DUP1 REVERT JUMPDEST PUSH1 0x0 DUP1 REVERT JUMPDEST PUSH1 0x0 DUP1 REVERT JUMPDEST PUSH1 0x0 DUP1 REVERT JUMPDEST PUSH1 0x0 PUSH1 0x1F NOT PUSH1 0x1F DUP4 ADD AND SWAP1 POP SWAP2 SWAP1 POP JUMP JUMPDEST PUSH32 0x63757272656E742073756767657374696F6E20636C6F73656400000000000000 PUSH1 0x0 DUP3 ADD MSTORE POP JUMP JUMPDEST PUSH32 0x6D6F7265207468616E2073656E642074686520746F6B656E0000000000000000 PUSH1 0x0 DUP3 ADD MSTORE POP JUMP JUMPDEST PUSH2 0xC45 DUP2 PUSH2 0xA11 JUMP JUMPDEST DUP2 EQ PUSH2 0xC50 JUMPI PUSH1 0x0 DUP1 REVERT JUMPDEST POP JUMP INVALID LOG2 PUSH5 0x6970667358 0x22 SLT KECCAK256 0xCD PUSH17 0xAC304D8B10251450631EEFB08B98592027 0xFC PUSH15 0xA730E722ED14572DEFDBB64736F6C PUSH4 0x43000807 STOP CALLER LOG2 PUSH5 0x6970667358 0x22 SLT KECCAK256 0xC2 0xD5 0xD0 SLT 0xBB RETURN 0xC1 PUSH16 0x6576C7BA383A4F02A848B9A5CC508A2D SWAP2 0xD2 0xC CODESIZE SWAP10 0xCD 0xA9 SHR PUSH5 0x736F6C6343 STOP ADDMOD SMOD STOP CALLER "
				},
				"gasEstimates": {
					"creation": {
						"codeDepositCost": "1203200",
						"executionCost": "1248",
						"totalCost": "1204448"
					},
					"external": {
						"createUnion(string,address)": "infinite",
						"totalUnionNumber()": "2445",
						"unions(uint256)": "5064"
					}
				},
				"methodIdentifiers": {
					"createUnion(string,address)": "86c1d5fd",
					"totalUnionNumber()": "8ecd58e9",
					"unions(uint256)": "a20fe1c7"
				}
			},
			"storageLayout": {
				"storage": [
					{
						"astId": 141,
						"contract": "smartContract/contracts/NewVote.sol:UnionFactory",
						"label": "unions",
						"offset": 0,
						"slot": "0",
						"type": "t_array(t_contract(Union)137)dyn_storage"
					},
					{
						"astId": 145,
						"contract": "smartContract/contracts/NewVote.sol:UnionFactory",
						"label": "findUnionAddress",
						"offset": 0,
						"slot": "1",
						"type": "t_mapping(t_string_memory_ptr,t_address)"
					}
				],
				"types": {
					"t_address": {
						"encoding": "inplace",
						"label": "address",
						"numberOfBytes": "20"
					},
					"t_array(t_contract(Union)137)dyn_storage": {
						"base": "t_contract(Union)137",
						"encoding": "dynamic_array",
						"label": "contract Union[]",
						"numberOfBytes": "32"
					},
					"t_contract(Union)137": {
						"encoding": "inplace",
						"label": "contract Union",
						"numberOfBytes": "20"
					},
					"t_mapping(t_string_memory_ptr,t_address)": {
						"encoding": "mapping",
						"key": "t_string_memory_ptr",
						"label": "mapping(string => address)",
						"numberOfBytes": "32",
						"value": "t_address"
					},
					"t_string_memory_ptr": {
						"encoding": "bytes",
						"label": "string",
						"numberOfBytes": "32"
					}
				}
			},
			"userdoc": {
				"kind": "user",
				"methods": {},
				"version": 1
			}
		}
	}
}