{
  "contractName": "SendEth",
  "abi": [
    {
      "inputs": [],
      "stateMutability": "nonpayable",
      "type": "constructor"
    },
    {
      "anonymous": false,
      "inputs": [
        {
          "indexed": false,
          "internalType": "address",
          "name": "_from",
          "type": "address"
        },
        {
          "indexed": false,
          "internalType": "uint256",
          "name": "_value",
          "type": "uint256"
        },
        {
          "indexed": false,
          "internalType": "string",
          "name": "message",
          "type": "string"
        }
      ],
      "name": "sendEth",
      "type": "event"
    },
    {
      "inputs": [],
      "name": "owner",
      "outputs": [
        {
          "internalType": "address",
          "name": "",
          "type": "address"
        }
      ],
      "stateMutability": "view",
      "type": "function",
      "constant": true
    },
    {
      "stateMutability": "payable",
      "type": "receive",
      "payable": true
    },
    {
      "inputs": [
        {
          "internalType": "address payable",
          "name": "_to",
          "type": "address"
        }
      ],
      "name": "Deposit",
      "outputs": [],
      "stateMutability": "payable",
      "type": "function",
      "payable": true
    },
    {
      "inputs": [],
      "name": "balance",
      "outputs": [
        {
          "internalType": "uint256",
          "name": "",
          "type": "uint256"
        }
      ],
      "stateMutability": "view",
      "type": "function",
      "constant": true
    },
    {
      "inputs": [
        {
          "internalType": "address[]",
          "name": "addressArr",
          "type": "address[]"
        },
        {
          "internalType": "uint256",
          "name": "amount",
          "type": "uint256"
        }
      ],
      "name": "withDraw",
      "outputs": [],
      "stateMutability": "payable",
      "type": "function",
      "payable": true
    }
  ],
  "bytecode": "0x608060405234801561001057600080fd5b50336000806101000a81548173ffffffffffffffffffffffffffffffffffffffff021916908373ffffffffffffffffffffffffffffffffffffffff160217905550610a9d806100606000396000f3fe6080604052600436106100435760003560e01c8063508c2d4b146100885780638ce0bd46146100a45780638da5cb5b146100c0578063b69ef8a8146100eb57610083565b36610083577ff14311c0dabd5a7959e1ea8a7f145ed9636f49df517ab14a7b88aca84b5c894f33346040516100799291906105ac565b60405180910390a1005b600080fd5b6100a2600480360381019061009d9190610683565b610116565b005b6100be60048036038101906100b99190610721565b6102ef565b005b3480156100cc57600080fd5b506100d561043a565b6040516100e2919061074e565b60405180910390f35b3480156100f757600080fd5b5061010061045e565b60405161010d9190610769565b60405180910390f35b60008054906101000a900473ffffffffffffffffffffffffffffffffffffffff1673ffffffffffffffffffffffffffffffffffffffff163373ffffffffffffffffffffffffffffffffffffffff16146101a4576040517f08c379a000000000000000000000000000000000000000000000000000000000815260040161019b906107d0565b60405180910390fd5b80838390506101b3919061081f565b47116101f4576040517f08c379a00000000000000000000000000000000000000000000000000000000081526004016101eb906108c5565b60405180910390fd5b60005b838390508110156102e9576000848483818110610217576102166108e5565b5b905060200201602081019061022c9190610940565b73ffffffffffffffffffffffffffffffffffffffff168360405161024f9061099e565b60006040518083038185875af1925050503d806000811461028c576040519150601f19603f3d011682016040523d82523d6000602084013e610291565b606091505b50509050806102d5576040517f08c379a00000000000000000000000000000000000000000000000000000000081526004016102cc906109ff565b60405180910390fd5b5080806102e190610a1f565b9150506101f7565b50505050565b60008054906101000a900473ffffffffffffffffffffffffffffffffffffffff1673ffffffffffffffffffffffffffffffffffffffff163373ffffffffffffffffffffffffffffffffffffffff161461037d576040517f08c379a0000000000000000000000000000000000000000000000000000000008152600401610374906107d0565b60405180910390fd5b6000341161038a57600080fd5b60008173ffffffffffffffffffffffffffffffffffffffff16346040516103b09061099e565b60006040518083038185875af1925050503d80600081146103ed576040519150601f19603f3d011682016040523d82523d6000602084013e6103f2565b606091505b5050905080610436576040517f08c379a000000000000000000000000000000000000000000000000000000000815260040161042d906109ff565b60405180910390fd5b5050565b60008054906101000a900473ffffffffffffffffffffffffffffffffffffffff1681565b60008060009054906101000a900473ffffffffffffffffffffffffffffffffffffffff1673ffffffffffffffffffffffffffffffffffffffff163373ffffffffffffffffffffffffffffffffffffffff16146104ef576040517f08c379a00000000000000000000000000000000000000000000000000000000081526004016104e6906107d0565b60405180910390fd5b47905090565b600073ffffffffffffffffffffffffffffffffffffffff82169050919050565b6000610520826104f5565b9050919050565b61053081610515565b82525050565b6000819050919050565b61054981610536565b82525050565b600082825260208201905092915050565b7f73656e6420457468000000000000000000000000000000000000000000000000600082015250565b600061059660088361054f565b91506105a182610560565b602082019050919050565b60006060820190506105c16000830185610527565b6105ce6020830184610540565b81810360408301526105df81610589565b90509392505050565b600080fd5b600080fd5b600080fd5b600080fd5b600080fd5b60008083601f840112610617576106166105f2565b5b8235905067ffffffffffffffff811115610634576106336105f7565b5b6020830191508360208202830111156106505761064f6105fc565b5b9250929050565b61066081610536565b811461066b57600080fd5b50565b60008135905061067d81610657565b92915050565b60008060006040848603121561069c5761069b6105e8565b5b600084013567ffffffffffffffff8111156106ba576106b96105ed565b5b6106c686828701610601565b935093505060206106d98682870161066e565b9150509250925092565b60006106ee826104f5565b9050919050565b6106fe816106e3565b811461070957600080fd5b50565b60008135905061071b816106f5565b92915050565b600060208284031215610737576107366105e8565b5b60006107458482850161070c565b91505092915050565b60006020820190506107636000830184610527565b92915050565b600060208201905061077e6000830184610540565b92915050565b7f6e6f74206f776e65720000000000000000000000000000000000000000000000600082015250565b60006107ba60098361054f565b91506107c582610784565b602082019050919050565b600060208201905081810360008301526107e9816107ad565b9050919050565b7f4e487b7100000000000000000000000000000000000000000000000000000000600052601160045260246000fd5b600061082a82610536565b915061083583610536565b9250817fffffffffffffffffffffffffffffffffffffffffffffffffffffffffffffffff048311821515161561086e5761086d6107f0565b5b828202905092915050565b7f62616c616e6365203c20746f74616c416d6f756e740000000000000000000000600082015250565b60006108af60158361054f565b91506108ba82610879565b602082019050919050565b600060208201905081810360008301526108de816108a2565b9050919050565b7f4e487b7100000000000000000000000000000000000000000000000000000000600052603260045260246000fd5b61091d81610515565b811461092857600080fd5b50565b60008135905061093a81610914565b92915050565b600060208284031215610956576109556105e8565b5b60006109648482850161092b565b91505092915050565b600081905092915050565b50565b600061098860008361096d565b915061099382610978565b600082019050919050565b60006109a98261097b565b9150819050919050565b7f4661696c6c656400000000000000000000000000000000000000000000000000600082015250565b60006109e960078361054f565b91506109f4826109b3565b602082019050919050565b60006020820190508181036000830152610a18816109dc565b9050919050565b6000610a2a82610536565b91507fffffffffffffffffffffffffffffffffffffffffffffffffffffffffffffffff8203610a5c57610a5b6107f0565b5b60018201905091905056fea264697066735822122010bbf49b5be08ac8f1aea5038052a6e4694fff665228b9df3d1591558469593464736f6c634300080e0033",
  "immutableReferences": {},
  "source": "// SPDX-License-Identifier: GPL-3.0\n\npragma solidity >=0.5.0 <0.9.0;\n\ncontract SendEth {\n    address public owner;\n    event sendEth(address _from, uint256 _value, string message);\n\n    constructor() {\n        owner = msg.sender;\n    }\n\n    modifier onlyOwner() {\n        require(msg.sender == owner, \"not owner\");\n        _;\n    }\n\n    receive() external payable {\n        emit sendEth(msg.sender, msg.value, \"send Eth\");\n    }\n\n    function Deposit(address payable _to) public payable onlyOwner {\n        require(msg.value > 0);\n        (bool sent, ) = _to.call{value: msg.value}(\"\");\n        require(sent, \"Failled\");\n    }\n    function balance()public view onlyOwner returns(uint256) { \n        return address(this).balance;\n    }\n\n    function withDraw(address[] calldata addressArr, uint256 amount)\n        external\n        payable\n        onlyOwner\n    {\n        require(\n            address(this).balance > addressArr.length * amount,\n            \"balance < totalAmount\"\n        );\n        for (uint256 i = 0; i < addressArr.length; i++) {\n            (bool sent, ) = addressArr[i].call{value: amount}(\"\");\n            require(sent, \"Failled\");\n        }\n    }\n}\n",
  "sourcePath": "/Users/anhyeongjun/Desktop/solidity/eth_send_contract/contracts/SendEth.sol",
  "compiler": {
    "name": "solc",
    "version": "0.8.14+commit.80d49f37.Emscripten.clang"
  },
  "schemaVersion": "3.4.7",
  "updatedAt": "2022-10-26T03:24:48.385Z",
  "networkType": "ethereum",
  "devdoc": {
    "kind": "dev",
    "methods": {},
    "version": 1
  },
  "userdoc": {
    "kind": "user",
    "methods": {},
    "version": 1
  }
}