{
  "contractName": "ItemContract",
  "abi": [
    {
      "inputs": [
        {
          "internalType": "address",
          "name": "_SKUNK",
          "type": "address"
        }
      ],
      "stateMutability": "nonpayable",
      "type": "constructor"
    },
    {
      "anonymous": false,
      "inputs": [
        {
          "indexed": true,
          "internalType": "address",
          "name": "owner",
          "type": "address"
        },
        {
          "indexed": true,
          "internalType": "address",
          "name": "approved",
          "type": "address"
        },
        {
          "indexed": true,
          "internalType": "uint256",
          "name": "tokenId",
          "type": "uint256"
        }
      ],
      "name": "Approval",
      "type": "event"
    },
    {
      "anonymous": false,
      "inputs": [
        {
          "indexed": true,
          "internalType": "address",
          "name": "owner",
          "type": "address"
        },
        {
          "indexed": true,
          "internalType": "address",
          "name": "operator",
          "type": "address"
        },
        {
          "indexed": false,
          "internalType": "bool",
          "name": "approved",
          "type": "bool"
        }
      ],
      "name": "ApprovalForAll",
      "type": "event"
    },
    {
      "anonymous": false,
      "inputs": [
        {
          "indexed": true,
          "internalType": "address",
          "name": "previousOwner",
          "type": "address"
        },
        {
          "indexed": true,
          "internalType": "address",
          "name": "newOwner",
          "type": "address"
        }
      ],
      "name": "OwnershipTransferred",
      "type": "event"
    },
    {
      "anonymous": false,
      "inputs": [
        {
          "indexed": true,
          "internalType": "address",
          "name": "from",
          "type": "address"
        },
        {
          "indexed": true,
          "internalType": "address",
          "name": "to",
          "type": "address"
        },
        {
          "indexed": true,
          "internalType": "uint256",
          "name": "tokenId",
          "type": "uint256"
        }
      ],
      "name": "Transfer",
      "type": "event"
    },
    {
      "inputs": [
        {
          "internalType": "address",
          "name": "to",
          "type": "address"
        },
        {
          "internalType": "uint256",
          "name": "tokenId",
          "type": "uint256"
        }
      ],
      "name": "approve",
      "outputs": [],
      "stateMutability": "nonpayable",
      "type": "function"
    },
    {
      "inputs": [
        {
          "internalType": "address",
          "name": "owner",
          "type": "address"
        }
      ],
      "name": "balanceOf",
      "outputs": [
        {
          "internalType": "uint256",
          "name": "",
          "type": "uint256"
        }
      ],
      "stateMutability": "view",
      "type": "function"
    },
    {
      "inputs": [
        {
          "internalType": "uint256",
          "name": "tokenId",
          "type": "uint256"
        }
      ],
      "name": "getApproved",
      "outputs": [
        {
          "internalType": "address",
          "name": "",
          "type": "address"
        }
      ],
      "stateMutability": "view",
      "type": "function"
    },
    {
      "inputs": [
        {
          "internalType": "address",
          "name": "owner",
          "type": "address"
        },
        {
          "internalType": "address",
          "name": "operator",
          "type": "address"
        }
      ],
      "name": "isApprovedForAll",
      "outputs": [
        {
          "internalType": "bool",
          "name": "",
          "type": "bool"
        }
      ],
      "stateMutability": "view",
      "type": "function"
    },
    {
      "inputs": [],
      "name": "name",
      "outputs": [
        {
          "internalType": "string",
          "name": "",
          "type": "string"
        }
      ],
      "stateMutability": "view",
      "type": "function"
    },
    {
      "inputs": [],
      "name": "owner",
      "outputs": [
        {
          "internalType": "address",
          "name": "",
          "type": "address"
        }
      ],
      "stateMutability": "view",
      "type": "function"
    },
    {
      "inputs": [
        {
          "internalType": "uint256",
          "name": "tokenId",
          "type": "uint256"
        }
      ],
      "name": "ownerOf",
      "outputs": [
        {
          "internalType": "address",
          "name": "",
          "type": "address"
        }
      ],
      "stateMutability": "view",
      "type": "function"
    },
    {
      "inputs": [],
      "name": "renounceOwnership",
      "outputs": [],
      "stateMutability": "nonpayable",
      "type": "function"
    },
    {
      "inputs": [
        {
          "internalType": "address",
          "name": "from",
          "type": "address"
        },
        {
          "internalType": "address",
          "name": "to",
          "type": "address"
        },
        {
          "internalType": "uint256",
          "name": "tokenId",
          "type": "uint256"
        }
      ],
      "name": "safeTransferFrom",
      "outputs": [],
      "stateMutability": "nonpayable",
      "type": "function"
    },
    {
      "inputs": [
        {
          "internalType": "address",
          "name": "from",
          "type": "address"
        },
        {
          "internalType": "address",
          "name": "to",
          "type": "address"
        },
        {
          "internalType": "uint256",
          "name": "tokenId",
          "type": "uint256"
        },
        {
          "internalType": "bytes",
          "name": "_data",
          "type": "bytes"
        }
      ],
      "name": "safeTransferFrom",
      "outputs": [],
      "stateMutability": "nonpayable",
      "type": "function"
    },
    {
      "inputs": [
        {
          "internalType": "address",
          "name": "operator",
          "type": "address"
        },
        {
          "internalType": "bool",
          "name": "approved",
          "type": "bool"
        }
      ],
      "name": "setApprovalForAll",
      "outputs": [],
      "stateMutability": "nonpayable",
      "type": "function"
    },
    {
      "inputs": [
        {
          "internalType": "bytes4",
          "name": "interfaceId",
          "type": "bytes4"
        }
      ],
      "name": "supportsInterface",
      "outputs": [
        {
          "internalType": "bool",
          "name": "",
          "type": "bool"
        }
      ],
      "stateMutability": "view",
      "type": "function"
    },
    {
      "inputs": [],
      "name": "symbol",
      "outputs": [
        {
          "internalType": "string",
          "name": "",
          "type": "string"
        }
      ],
      "stateMutability": "view",
      "type": "function"
    },
    {
      "inputs": [
        {
          "internalType": "uint256",
          "name": "tokenId",
          "type": "uint256"
        }
      ],
      "name": "tokenURI",
      "outputs": [
        {
          "internalType": "string",
          "name": "",
          "type": "string"
        }
      ],
      "stateMutability": "view",
      "type": "function"
    },
    {
      "inputs": [
        {
          "internalType": "address",
          "name": "from",
          "type": "address"
        },
        {
          "internalType": "address",
          "name": "to",
          "type": "address"
        },
        {
          "internalType": "uint256",
          "name": "tokenId",
          "type": "uint256"
        }
      ],
      "name": "transferFrom",
      "outputs": [],
      "stateMutability": "nonpayable",
      "type": "function"
    },
    {
      "inputs": [
        {
          "internalType": "address",
          "name": "newOwner",
          "type": "address"
        }
      ],
      "name": "transferOwnership",
      "outputs": [],
      "stateMutability": "nonpayable",
      "type": "function"
    },
    {
      "inputs": [
        {
          "internalType": "address",
          "name": "to",
          "type": "address"
        },
        {
          "internalType": "uint256",
          "name": "tokenId",
          "type": "uint256"
        }
      ],
      "name": "sendLostDoodleHome",
      "outputs": [],
      "stateMutability": "nonpayable",
      "type": "function"
    }
  ],
  "bytecode": "0x60a06040523480156200001157600080fd5b506040516200336d3803806200336d83398181016040528101906200003791906200025c565b6040518060400160405280600981526020017f6974656d534b554e4b00000000000000000000000000000000000000000000008152506040518060400160405280600381526020017f49534b00000000000000000000000000000000000000000000000000000000008152508160009081620000b4919062000508565b508060019081620000c6919062000508565b505050620000e9620000dd6200012460201b60201c565b6200012c60201b60201c565b8073ffffffffffffffffffffffffffffffffffffffff1660808173ffffffffffffffffffffffffffffffffffffffff168152505050620005ef565b600033905090565b6000600760009054906101000a900473ffffffffffffffffffffffffffffffffffffffff16905081600760006101000a81548173ffffffffffffffffffffffffffffffffffffffff021916908373ffffffffffffffffffffffffffffffffffffffff1602179055508173ffffffffffffffffffffffffffffffffffffffff168173ffffffffffffffffffffffffffffffffffffffff167f8be0079c531659141344cd1fd0a4f28419497f9722a3daafe3b4186f6b6457e060405160405180910390a35050565b600080fd5b600073ffffffffffffffffffffffffffffffffffffffff82169050919050565b60006200022482620001f7565b9050919050565b620002368162000217565b81146200024257600080fd5b50565b60008151905062000256816200022b565b92915050565b600060208284031215620002755762000274620001f2565b5b6000620002858482850162000245565b91505092915050565b600081519050919050565b7f4e487b7100000000000000000000000000000000000000000000000000000000600052604160045260246000fd5b7f4e487b7100000000000000000000000000000000000000000000000000000000600052602260045260246000fd5b600060028204905060018216806200031057607f821691505b602082108103620003265762000325620002c8565b5b50919050565b60008190508160005260206000209050919050565b60006020601f8301049050919050565b600082821b905092915050565b600060088302620003907fffffffffffffffffffffffffffffffffffffffffffffffffffffffffffffffff8262000351565b6200039c868362000351565b95508019841693508086168417925050509392505050565b6000819050919050565b6000819050919050565b6000620003e9620003e3620003dd84620003b4565b620003be565b620003b4565b9050919050565b6000819050919050565b6200040583620003c8565b6200041d6200041482620003f0565b8484546200035e565b825550505050565b600090565b6200043462000425565b62000441818484620003fa565b505050565b5b8181101562000469576200045d6000826200042a565b60018101905062000447565b5050565b601f821115620004b85762000482816200032c565b6200048d8462000341565b810160208510156200049d578190505b620004b5620004ac8562000341565b83018262000446565b50505b505050565b600082821c905092915050565b6000620004dd60001984600802620004bd565b1980831691505092915050565b6000620004f88383620004ca565b9150826002028217905092915050565b62000513826200028e565b67ffffffffffffffff8111156200052f576200052e62000299565b5b6200053b8254620002f7565b620005488282856200046d565b600060209050601f8311600181146200058057600084156200056b578287015190505b620005778582620004ea565b865550620005e7565b601f19841662000590866200032c565b60005b82811015620005ba5784890151825560018201915060208501945060208101905062000593565b86831015620005da5784890151620005d6601f891682620004ca565b8355505b6001600288020188555050505b505050505050565b608051612d546200061960003960008181610a5b01528181610aef0152610b4d0152612d546000f3fe608060405234801561001057600080fd5b506004361061010b5760003560e01c8063715018a6116100a2578063b88d4fde11610071578063b88d4fde146102a4578063b9ebc40e146102c0578063c87b56dd146102dc578063e985e9c51461030c578063f2fde38b1461033c5761010b565b8063715018a6146102425780638da5cb5b1461024c57806395d89b411461026a578063a22cb465146102885761010b565b806323b872dd116100de57806323b872dd146101aa57806342842e0e146101c65780636352211e146101e257806370a08231146102125761010b565b806301ffc9a71461011057806306fdde0314610140578063081812fc1461015e578063095ea7b31461018e575b600080fd5b61012a60048036038101906101259190611b83565b610358565b6040516101379190611bcb565b60405180910390f35b61014861043a565b6040516101559190611c76565b60405180910390f35b61017860048036038101906101739190611cce565b6104cc565b6040516101859190611d3c565b60405180910390f35b6101a860048036038101906101a39190611d83565b610551565b005b6101c460048036038101906101bf9190611dc3565b610668565b005b6101e060048036038101906101db9190611dc3565b6106c8565b005b6101fc60048036038101906101f79190611cce565b6106e8565b6040516102099190611d3c565b60405180910390f35b61022c60048036038101906102279190611e16565b610799565b6040516102399190611e52565b60405180910390f35b61024a610850565b005b6102546108d8565b6040516102619190611d3c565b60405180910390f35b610272610902565b60405161027f9190611c76565b60405180910390f35b6102a2600480360381019061029d9190611e99565b610994565b005b6102be60048036038101906102b9919061200e565b6109aa565b005b6102da60048036038101906102d59190611d83565b610a0c565b005b6102f660048036038101906102f19190611cce565b610bc8565b6040516103039190611c76565b60405180910390f35b61032660048036038101906103219190612091565b610d19565b6040516103339190611bcb565b60405180910390f35b61035660048036038101906103519190611e16565b610dad565b005b60007f80ac58cd000000000000000000000000000000000000000000000000000000007bffffffffffffffffffffffffffffffffffffffffffffffffffffffff1916827bffffffffffffffffffffffffffffffffffffffffffffffffffffffff1916148061042357507f5b5e139f000000000000000000000000000000000000000000000000000000007bffffffffffffffffffffffffffffffffffffffffffffffffffffffff1916827bffffffffffffffffffffffffffffffffffffffffffffffffffffffff1916145b80610433575061043282610ea4565b5b9050919050565b60606000805461044990612100565b80601f016020809104026020016040519081016040528092919081815260200182805461047590612100565b80156104c25780601f10610497576101008083540402835291602001916104c2565b820191906000526020600020905b8154815290600101906020018083116104a557829003601f168201915b5050505050905090565b60006104d782610f0e565b610516576040517f08c379a000000000000000000000000000000000000000000000000000000000815260040161050d906121a3565b60405180910390fd5b6004600083815260200190815260200160002060009054906101000a900473ffffffffffffffffffffffffffffffffffffffff169050919050565b600061055c826106e8565b90508073ffffffffffffffffffffffffffffffffffffffff168373ffffffffffffffffffffffffffffffffffffffff16036105cc576040517f08c379a00000000000000000000000000000000000000000000000000000000081526004016105c39061220f565b60405180910390fd5b8073ffffffffffffffffffffffffffffffffffffffff166105eb610f7a565b73ffffffffffffffffffffffffffffffffffffffff16148061061a575061061981610614610f7a565b610d19565b5b610659576040517f08c379a0000000000000000000000000000000000000000000000000000000008152600401610650906122a1565b60405180910390fd5b6106638383610f82565b505050565b610679610673610f7a565b8261103b565b6106b8576040517f08c379a00000000000000000000000000000000000000000000000000000000081526004016106af90612333565b60405180910390fd5b6106c3838383611119565b505050565b6106e3838383604051806020016040528060008152506109aa565b505050565b6000806002600084815260200190815260200160002060009054906101000a900473ffffffffffffffffffffffffffffffffffffffff169050600073ffffffffffffffffffffffffffffffffffffffff168173ffffffffffffffffffffffffffffffffffffffff1603610790576040517f08c379a0000000000000000000000000000000000000000000000000000000008152600401610787906123c5565b60405180910390fd5b80915050919050565b60008073ffffffffffffffffffffffffffffffffffffffff168273ffffffffffffffffffffffffffffffffffffffff1603610809576040517f08c379a000000000000000000000000000000000000000000000000000000000815260040161080090612457565b60405180910390fd5b600360008373ffffffffffffffffffffffffffffffffffffffff1673ffffffffffffffffffffffffffffffffffffffff168152602001908152602001600020549050919050565b610858610f7a565b73ffffffffffffffffffffffffffffffffffffffff166108766108d8565b73ffffffffffffffffffffffffffffffffffffffff16146108cc576040517f08c379a00000000000000000000000000000000000000000000000000000000081526004016108c3906124c3565b60405180910390fd5b6108d6600061137f565b565b6000600760009054906101000a900473ffffffffffffffffffffffffffffffffffffffff16905090565b60606001805461091190612100565b80601f016020809104026020016040519081016040528092919081815260200182805461093d90612100565b801561098a5780601f1061095f5761010080835404028352916020019161098a565b820191906000526020600020905b81548152906001019060200180831161096d57829003601f168201915b5050505050905090565b6109a661099f610f7a565b8383611445565b5050565b6109bb6109b5610f7a565b8361103b565b6109fa576040517f08c379a00000000000000000000000000000000000000000000000000000000081526004016109f190612333565b60405180910390fd5b610a06848484846115b1565b50505050565b610a1581610f0e565b1580610a5457503073ffffffffffffffffffffffffffffffffffffffff16610a3c826106e8565b73ffffffffffffffffffffffffffffffffffffffff16145b15610aed577f000000000000000000000000000000000000000000000000000000000000000073ffffffffffffffffffffffffffffffffffffffff166342842e0e3084846040518463ffffffff1660e01b8152600401610ab6939291906124e3565b600060405180830381600087803b158015610ad057600080fd5b505af1158015610ae4573d6000803e3d6000fd5b50505050610bc4565b7f000000000000000000000000000000000000000000000000000000000000000073ffffffffffffffffffffffffffffffffffffffff16610b2d826106e8565b73ffffffffffffffffffffffffffffffffffffffff1603610b8857610b837f00000000000000000000000000000000000000000000000000000000000000008383604051806020016040528060008152506115b1565b610bc3565b6040517f08c379a0000000000000000000000000000000000000000000000000000000008152600401610bba9061258c565b60405180910390fd5b5b5050565b6060610bd382610f0e565b610c12576040517f08c379a0000000000000000000000000000000000000000000000000000000008152600401610c099061261e565b60405180910390fd5b6000600660008481526020019081526020016000208054610c3290612100565b80601f0160208091040260200160405190810160405280929190818152602001828054610c5e90612100565b8015610cab5780601f10610c8057610100808354040283529160200191610cab565b820191906000526020600020905b815481529060010190602001808311610c8e57829003601f168201915b505050505090506000610cbc611620565b90506000815103610cd1578192505050610d14565b600082511115610d06578082604051602001610cee92919061267a565b60405160208183030381529060405292505050610d14565b610d0f84611637565b925050505b919050565b6000600560008473ffffffffffffffffffffffffffffffffffffffff1673ffffffffffffffffffffffffffffffffffffffff16815260200190815260200160002060008373ffffffffffffffffffffffffffffffffffffffff1673ffffffffffffffffffffffffffffffffffffffff16815260200190815260200160002060009054906101000a900460ff16905092915050565b610db5610f7a565b73ffffffffffffffffffffffffffffffffffffffff16610dd36108d8565b73ffffffffffffffffffffffffffffffffffffffff1614610e29576040517f08c379a0000000000000000000000000000000000000000000000000000000008152600401610e20906124c3565b60405180910390fd5b600073ffffffffffffffffffffffffffffffffffffffff168173ffffffffffffffffffffffffffffffffffffffff1603610e98576040517f08c379a0000000000000000000000000000000000000000000000000000000008152600401610e8f90612710565b60405180910390fd5b610ea18161137f565b50565b60007f01ffc9a7000000000000000000000000000000000000000000000000000000007bffffffffffffffffffffffffffffffffffffffffffffffffffffffff1916827bffffffffffffffffffffffffffffffffffffffffffffffffffffffff1916149050919050565b60008073ffffffffffffffffffffffffffffffffffffffff166002600084815260200190815260200160002060009054906101000a900473ffffffffffffffffffffffffffffffffffffffff1673ffffffffffffffffffffffffffffffffffffffff1614159050919050565b600033905090565b816004600083815260200190815260200160002060006101000a81548173ffffffffffffffffffffffffffffffffffffffff021916908373ffffffffffffffffffffffffffffffffffffffff160217905550808273ffffffffffffffffffffffffffffffffffffffff16610ff5836106e8565b73ffffffffffffffffffffffffffffffffffffffff167f8c5be1e5ebec7d5bd14f71427d1e84f3dd0314c0f7b2291e5b200ac8c7c3b92560405160405180910390a45050565b600061104682610f0e565b611085576040517f08c379a000000000000000000000000000000000000000000000000000000000815260040161107c906127a2565b60405180910390fd5b6000611090836106e8565b90508073ffffffffffffffffffffffffffffffffffffffff168473ffffffffffffffffffffffffffffffffffffffff1614806110d257506110d18185610d19565b5b8061111057508373ffffffffffffffffffffffffffffffffffffffff166110f8846104cc565b73ffffffffffffffffffffffffffffffffffffffff16145b91505092915050565b8273ffffffffffffffffffffffffffffffffffffffff16611139826106e8565b73ffffffffffffffffffffffffffffffffffffffff161461118f576040517f08c379a000000000000000000000000000000000000000000000000000000000815260040161118690612834565b60405180910390fd5b600073ffffffffffffffffffffffffffffffffffffffff168273ffffffffffffffffffffffffffffffffffffffff16036111fe576040517f08c379a00000000000000000000000000000000000000000000000000000000081526004016111f5906128c6565b60405180910390fd5b6112098383836116de565b611214600082610f82565b6001600360008573ffffffffffffffffffffffffffffffffffffffff1673ffffffffffffffffffffffffffffffffffffffff16815260200190815260200160002060008282546112649190612915565b925050819055506001600360008473ffffffffffffffffffffffffffffffffffffffff1673ffffffffffffffffffffffffffffffffffffffff16815260200190815260200160002060008282546112bb9190612949565b92505081905550816002600083815260200190815260200160002060006101000a81548173ffffffffffffffffffffffffffffffffffffffff021916908373ffffffffffffffffffffffffffffffffffffffff160217905550808273ffffffffffffffffffffffffffffffffffffffff168473ffffffffffffffffffffffffffffffffffffffff167fddf252ad1be2c89b69c2b068fc378daa952ba7f163c4a11628f55a4df523b3ef60405160405180910390a461137a8383836116e3565b505050565b6000600760009054906101000a900473ffffffffffffffffffffffffffffffffffffffff16905081600760006101000a81548173ffffffffffffffffffffffffffffffffffffffff021916908373ffffffffffffffffffffffffffffffffffffffff1602179055508173ffffffffffffffffffffffffffffffffffffffff168173ffffffffffffffffffffffffffffffffffffffff167f8be0079c531659141344cd1fd0a4f28419497f9722a3daafe3b4186f6b6457e060405160405180910390a35050565b8173ffffffffffffffffffffffffffffffffffffffff168373ffffffffffffffffffffffffffffffffffffffff16036114b3576040517f08c379a00000000000000000000000000000000000000000000000000000000081526004016114aa906129c9565b60405180910390fd5b80600560008573ffffffffffffffffffffffffffffffffffffffff1673ffffffffffffffffffffffffffffffffffffffff16815260200190815260200160002060008473ffffffffffffffffffffffffffffffffffffffff1673ffffffffffffffffffffffffffffffffffffffff16815260200190815260200160002060006101000a81548160ff0219169083151502179055508173ffffffffffffffffffffffffffffffffffffffff168373ffffffffffffffffffffffffffffffffffffffff167f17307eab39ab6107e8899845ad3d59bd9653f200f220920489ca2b5937696c31836040516115a49190611bcb565b60405180910390a3505050565b6115bc848484611119565b6115c8848484846116e8565b806115db57506115da8484848461183e565b5b61161a576040517f08c379a000000000000000000000000000000000000000000000000000000000815260040161161190612a81565b60405180910390fd5b50505050565b606060405180602001604052806000815250905090565b606061164282610f0e565b611681576040517f08c379a000000000000000000000000000000000000000000000000000000000815260040161167890612b13565b60405180910390fd5b600061168b611620565b905060008151116116ab57604051806020016040528060008152506116d6565b806116b584611994565b6040516020016116c692919061267a565b6040516020818303038152906040525b915050919050565b505050565b505050565b60006117098473ffffffffffffffffffffffffffffffffffffffff16611af4565b15611831578373ffffffffffffffffffffffffffffffffffffffff16636745782b611732610f7a565b8786866040518563ffffffff1660e01b81526004016117549493929190612b88565b6020604051808303816000875af192505050801561179057506040513d601f19601f8201168201806040525081019061178d9190612be9565b60015b6117e1573d80600081146117c0576040519150601f19603f3d011682016040523d82523d6000602084013e6117c5565b606091505b5060008151036117d9576000915050611836565b805181602001fd5b636745782b60e01b7bffffffffffffffffffffffffffffffffffffffffffffffffffffffff1916817bffffffffffffffffffffffffffffffffffffffffffffffffffffffff191614915050611836565b600190505b949350505050565b600061185f8473ffffffffffffffffffffffffffffffffffffffff16611af4565b15611987578373ffffffffffffffffffffffffffffffffffffffff1663150b7a02611888610f7a565b8786866040518563ffffffff1660e01b81526004016118aa9493929190612b88565b6020604051808303816000875af19250505080156118e657506040513d601f19601f820116820180604052508101906118e39190612be9565b60015b611937573d8060008114611916576040519150601f19603f3d011682016040523d82523d6000602084013e61191b565b606091505b50600081510361192f57600091505061198c565b805181602001fd5b63150b7a0260e01b7bffffffffffffffffffffffffffffffffffffffffffffffffffffffff1916817bffffffffffffffffffffffffffffffffffffffffffffffffffffffff19161491505061198c565b600190505b949350505050565b6060600082036119db576040518060400160405280600181526020017f30000000000000000000000000000000000000000000000000000000000000008152509050611aef565b600082905060005b60008214611a0d5780806119f690612c16565b915050600a82611a069190612c8d565b91506119e3565b60008167ffffffffffffffff811115611a2957611a28611ee3565b5b6040519080825280601f01601f191660200182016040528015611a5b5781602001600182028036833780820191505090505b5090505b60008514611ae857600182611a749190612915565b9150600a85611a839190612cbe565b6030611a8f9190612949565b60f81b818381518110611aa557611aa4612cef565b5b60200101907effffffffffffffffffffffffffffffffffffffffffffffffffffffffffffff1916908160001a905350600a85611ae19190612c8d565b9450611a5f565b8093505050505b919050565b6000808273ffffffffffffffffffffffffffffffffffffffff163b119050919050565b6000604051905090565b600080fd5b600080fd5b60007fffffffff0000000000000000000000000000000000000000000000000000000082169050919050565b611b6081611b2b565b8114611b6b57600080fd5b50565b600081359050611b7d81611b57565b92915050565b600060208284031215611b9957611b98611b21565b5b6000611ba784828501611b6e565b91505092915050565b60008115159050919050565b611bc581611bb0565b82525050565b6000602082019050611be06000830184611bbc565b92915050565b600081519050919050565b600082825260208201905092915050565b60005b83811015611c20578082015181840152602081019050611c05565b60008484015250505050565b6000601f19601f8301169050919050565b6000611c4882611be6565b611c528185611bf1565b9350611c62818560208601611c02565b611c6b81611c2c565b840191505092915050565b60006020820190508181036000830152611c908184611c3d565b905092915050565b6000819050919050565b611cab81611c98565b8114611cb657600080fd5b50565b600081359050611cc881611ca2565b92915050565b600060208284031215611ce457611ce3611b21565b5b6000611cf284828501611cb9565b91505092915050565b600073ffffffffffffffffffffffffffffffffffffffff82169050919050565b6000611d2682611cfb565b9050919050565b611d3681611d1b565b82525050565b6000602082019050611d516000830184611d2d565b92915050565b611d6081611d1b565b8114611d6b57600080fd5b50565b600081359050611d7d81611d57565b92915050565b60008060408385031215611d9a57611d99611b21565b5b6000611da885828601611d6e565b9250506020611db985828601611cb9565b9150509250929050565b600080600060608486031215611ddc57611ddb611b21565b5b6000611dea86828701611d6e565b9350506020611dfb86828701611d6e565b9250506040611e0c86828701611cb9565b9150509250925092565b600060208284031215611e2c57611e2b611b21565b5b6000611e3a84828501611d6e565b91505092915050565b611e4c81611c98565b82525050565b6000602082019050611e676000830184611e43565b92915050565b611e7681611bb0565b8114611e8157600080fd5b50565b600081359050611e9381611e6d565b92915050565b60008060408385031215611eb057611eaf611b21565b5b6000611ebe85828601611d6e565b9250506020611ecf85828601611e84565b9150509250929050565b600080fd5b600080fd5b7f4e487b7100000000000000000000000000000000000000000000000000000000600052604160045260246000fd5b611f1b82611c2c565b810181811067ffffffffffffffff82111715611f3a57611f39611ee3565b5b80604052505050565b6000611f4d611b17565b9050611f598282611f12565b919050565b600067ffffffffffffffff821115611f7957611f78611ee3565b5b611f8282611c2c565b9050602081019050919050565b82818337600083830152505050565b6000611fb1611fac84611f5e565b611f43565b905082815260208101848484011115611fcd57611fcc611ede565b5b611fd8848285611f8f565b509392505050565b600082601f830112611ff557611ff4611ed9565b5b8135612005848260208601611f9e565b91505092915050565b6000806000806080858703121561202857612027611b21565b5b600061203687828801611d6e565b945050602061204787828801611d6e565b935050604061205887828801611cb9565b925050606085013567ffffffffffffffff81111561207957612078611b26565b5b61208587828801611fe0565b91505092959194509250565b600080604083850312156120a8576120a7611b21565b5b60006120b685828601611d6e565b92505060206120c785828601611d6e565b9150509250929050565b7f4e487b7100000000000000000000000000000000000000000000000000000000600052602260045260246000fd5b6000600282049050600182168061211857607f821691505b60208210810361212b5761212a6120d1565b5b50919050565b7f4b495031373a20617070726f76656420717565727920666f72206e6f6e65786960008201527f7374656e7420746f6b656e000000000000000000000000000000000000000000602082015250565b600061218d602b83611bf1565b915061219882612131565b604082019050919050565b600060208201905081810360008301526121bc81612180565b9050919050565b7f4b495031373a20617070726f76616c20746f2063757272656e74206f776e6572600082015250565b60006121f9602083611bf1565b9150612204826121c3565b602082019050919050565b60006020820190508181036000830152612228816121ec565b9050919050565b7f4b495031373a20617070726f76652063616c6c6572206973206e6f74206f776e60008201527f6572206e6f7220617070726f76656420666f7220616c6c000000000000000000602082015250565b600061228b603783611bf1565b91506122968261222f565b604082019050919050565b600060208201905081810360008301526122ba8161227e565b9050919050565b7f4b495031373a207472616e736665722063616c6c6572206973206e6f74206f7760008201527f6e6572206e6f7220617070726f76656400000000000000000000000000000000602082015250565b600061231d603083611bf1565b9150612328826122c1565b604082019050919050565b6000602082019050818103600083015261234c81612310565b9050919050565b7f4b495031373a206f776e657220717565727920666f72206e6f6e65786973746560008201527f6e7420746f6b656e000000000000000000000000000000000000000000000000602082015250565b60006123af602883611bf1565b91506123ba82612353565b604082019050919050565b600060208201905081810360008301526123de816123a2565b9050919050565b7f4b495031373a2061646472657373207a65726f206973206e6f7420612076616c60008201527f6964206f776e6572000000000000000000000000000000000000000000000000602082015250565b6000612441602883611bf1565b915061244c826123e5565b604082019050919050565b6000602082019050818103600083015261247081612434565b9050919050565b7f4f776e61626c653a2063616c6c6572206973206e6f7420746865206f776e6572600082015250565b60006124ad602083611bf1565b91506124b882612477565b602082019050919050565b600060208201905081810360008301526124dc816124a0565b9050919050565b60006060820190506124f86000830186611d2d565b6125056020830185611d2d565b6125126040830184611e43565b949350505050565b7f4f6e6c7920616c6c6f77656420696e20726573637565207363656e6172696f7360008201527f2e00000000000000000000000000000000000000000000000000000000000000602082015250565b6000612576602183611bf1565b91506125818261251a565b604082019050919050565b600060208201905081810360008301526125a581612569565b9050919050565b7f4b4950313755524953746f726167653a2055524920717565727920666f72206e60008201527f6f6e6578697374656e7420746f6b656e00000000000000000000000000000000602082015250565b6000612608603083611bf1565b9150612613826125ac565b604082019050919050565b60006020820190508181036000830152612637816125fb565b9050919050565b600081905092915050565b600061265482611be6565b61265e818561263e565b935061266e818560208601611c02565b80840191505092915050565b60006126868285612649565b91506126928284612649565b91508190509392505050565b7f4f776e61626c653a206e6577206f776e657220697320746865207a65726f206160008201527f6464726573730000000000000000000000000000000000000000000000000000602082015250565b60006126fa602683611bf1565b91506127058261269e565b604082019050919050565b60006020820190508181036000830152612729816126ed565b9050919050565b7f4b495031373a206f70657261746f7220717565727920666f72206e6f6e65786960008201527f7374656e7420746f6b656e000000000000000000000000000000000000000000602082015250565b600061278c602b83611bf1565b915061279782612730565b604082019050919050565b600060208201905081810360008301526127bb8161277f565b9050919050565b7f4b495031373a207472616e736665722066726f6d20696e636f7272656374206f60008201527f776e657200000000000000000000000000000000000000000000000000000000602082015250565b600061281e602483611bf1565b9150612829826127c2565b604082019050919050565b6000602082019050818103600083015261284d81612811565b9050919050565b7f4b495031373a207472616e7366657220746f20746865207a65726f206164647260008201527f6573730000000000000000000000000000000000000000000000000000000000602082015250565b60006128b0602383611bf1565b91506128bb82612854565b604082019050919050565b600060208201905081810360008301526128df816128a3565b9050919050565b7f4e487b7100000000000000000000000000000000000000000000000000000000600052601160045260246000fd5b600061292082611c98565b915061292b83611c98565b9250828203905081811115612943576129426128e6565b5b92915050565b600061295482611c98565b915061295f83611c98565b9250828201905080821115612977576129766128e6565b5b92915050565b7f4b495031373a20617070726f766520746f2063616c6c65720000000000000000600082015250565b60006129b3601883611bf1565b91506129be8261297d565b602082019050919050565b600060208201905081810360008301526129e2816129a6565b9050919050565b7f4b495031373a207472616e7366657220746f206e6f6e20494b4950313752656360008201527f65697665722f49455243373231526563656976657220696d706c656d656e746560208201527f7200000000000000000000000000000000000000000000000000000000000000604082015250565b6000612a6b604183611bf1565b9150612a76826129e9565b606082019050919050565b60006020820190508181036000830152612a9a81612a5e565b9050919050565b7f4b495031374d657461646174613a2055524920717565727920666f72206e6f6e60008201527f6578697374656e7420746f6b656e000000000000000000000000000000000000602082015250565b6000612afd602e83611bf1565b9150612b0882612aa1565b604082019050919050565b60006020820190508181036000830152612b2c81612af0565b9050919050565b600081519050919050565b600082825260208201905092915050565b6000612b5a82612b33565b612b648185612b3e565b9350612b74818560208601611c02565b612b7d81611c2c565b840191505092915050565b6000608082019050612b9d6000830187611d2d565b612baa6020830186611d2d565b612bb76040830185611e43565b8181036060830152612bc98184612b4f565b905095945050505050565b600081519050612be381611b57565b92915050565b600060208284031215612bff57612bfe611b21565b5b6000612c0d84828501612bd4565b91505092915050565b6000612c2182611c98565b91507fffffffffffffffffffffffffffffffffffffffffffffffffffffffffffffffff8203612c5357612c526128e6565b5b600182019050919050565b7f4e487b7100000000000000000000000000000000000000000000000000000000600052601260045260246000fd5b6000612c9882611c98565b9150612ca383611c98565b925082612cb357612cb2612c5e565b5b828204905092915050565b6000612cc982611c98565b9150612cd483611c98565b925082612ce457612ce3612c5e565b5b828206905092915050565b7f4e487b7100000000000000000000000000000000000000000000000000000000600052603260045260246000fdfea2646970667358221220b03a6091d72002a7aad9706eac9e7a8e070c0e2fcf432aa5e7e26bdef9b1479264736f6c63430008110033",
  "immutableReferences": {
    "2021": [
      {
        "length": 32,
        "start": 2651
      },
      {
        "length": 32,
        "start": 2799
      },
      {
        "length": 32,
        "start": 2893
      }
    ]
  },
  "source": "// SPDX-License-Identifier: MIT\npragma solidity ^0.8.0;\n\n\nimport \"@klaytn/contracts/KIP/token/KIP17/extensions/KIP17URIStorage.sol\";\nimport \"@klaytn/contracts/KIP/token/KIP17/IKIP17.sol\";\nimport \"@klaytn/contracts/access/Ownable.sol\";\nimport \"@klaytn/contracts/utils/Counters.sol\";\n\ncontract ItemContract is KIP17URIStorage, Ownable{\n    KIP17 immutable SKUNK;\n    //    NFT tokenId    . \n    constructor(address _SKUNK) public KIP17(\"itemSKUNK\", \"ISK\"){\n     SKUNK = KIP17(_SKUNK);\n   }\n\n    modifier tokenExists(uint256 tokenId) {\n        require(_exists(tokenId), \"Token does not exist.\");\n        _;\n    }\n\n    function sendLostDoodleHome(address to, uint256 tokenId) external{\n       if (!_exists(tokenId) || ownerOf(tokenId) == address(this)) {\n            // doodle stuck in this contract\n            SKUNK.safeTransferFrom(address(this), to, tokenId);\n        } else if (ownerOf(tokenId) == address(SKUNK)) {\n            // space doodle stuck in doodle contract\n            _safeTransfer(address(SKUNK), to, tokenId, \"\");\n        } else {\n            revert(\"Only allowed in rescue scenarios.\");\n        }\n    }\n    \n}",
  "sourcePath": "/Users/anhyeongjun/Desktop/solidity/Klaytn/sk_sunny/contracts/ItemContract.sol",
  "compiler": {
    "name": "solc",
    "version": "0.8.17+commit.8df45f5f.Emscripten.clang"
  },
  "schemaVersion": "3.4.7",
  "updatedAt": "2022-11-25T05:16:08.051Z",
  "devdoc": {
    "kind": "dev",
    "methods": {
      "approve(address,uint256)": {
        "details": "See {IKIP17-approve}."
      },
      "balanceOf(address)": {
        "details": "See {IKIP17-balanceOf}."
      },
      "getApproved(uint256)": {
        "details": "See {IKIP17-getApproved}."
      },
      "isApprovedForAll(address,address)": {
        "details": "See {IKIP17-isApprovedForAll}."
      },
      "name()": {
        "details": "See {IKIP17Metadata-name}."
      },
      "owner()": {
        "details": "Returns the address of the current owner."
      },
      "ownerOf(uint256)": {
        "details": "See {IKIP17-ownerOf}."
      },
      "renounceOwnership()": {
        "details": "Leaves the contract without owner. It will not be possible to call `onlyOwner` functions anymore. Can only be called by the current owner. NOTE: Renouncing ownership will leave the contract without an owner, thereby removing any functionality that is only available to the owner."
      },
      "safeTransferFrom(address,address,uint256)": {
        "details": "See {IKIP17-safeTransferFrom}."
      },
      "safeTransferFrom(address,address,uint256,bytes)": {
        "details": "See {IKIP17-safeTransferFrom}."
      },
      "setApprovalForAll(address,bool)": {
        "details": "See {IKIP17-setApprovalForAll}."
      },
      "supportsInterface(bytes4)": {
        "details": "See {IKIP13-supportsInterface}."
      },
      "symbol()": {
        "details": "See {IKIP17Metadata-symbol}."
      },
      "tokenURI(uint256)": {
        "details": "See {IKIP17Metadata-tokenURI}."
      },
      "transferFrom(address,address,uint256)": {
        "details": "See {IKIP17-transferFrom}."
      },
      "transferOwnership(address)": {
        "details": "Transfers ownership of the contract to a new account (`newOwner`). Can only be called by the current owner."
      }
    },
    "version": 1
  },
  "userdoc": {
    "kind": "user",
    "methods": {},
    "version": 1
  }
}