{
  "contractName": "SKNFT",
  "abi": [
    {
      "inputs": [],
      "stateMutability": "nonpayable",
      "type": "constructor"
    },
    {
      "anonymous": false,
      "inputs": [
        {
          "indexed": true,
          "internalType": "address",
          "name": "owner",
          "type": "address"
        },
        {
          "indexed": true,
          "internalType": "address",
          "name": "approved",
          "type": "address"
        },
        {
          "indexed": true,
          "internalType": "uint256",
          "name": "tokenId",
          "type": "uint256"
        }
      ],
      "name": "Approval",
      "type": "event"
    },
    {
      "anonymous": false,
      "inputs": [
        {
          "indexed": true,
          "internalType": "address",
          "name": "owner",
          "type": "address"
        },
        {
          "indexed": true,
          "internalType": "address",
          "name": "operator",
          "type": "address"
        },
        {
          "indexed": false,
          "internalType": "bool",
          "name": "approved",
          "type": "bool"
        }
      ],
      "name": "ApprovalForAll",
      "type": "event"
    },
    {
      "anonymous": false,
      "inputs": [
        {
          "indexed": true,
          "internalType": "address",
          "name": "previousOwner",
          "type": "address"
        },
        {
          "indexed": true,
          "internalType": "address",
          "name": "newOwner",
          "type": "address"
        }
      ],
      "name": "OwnershipTransferred",
      "type": "event"
    },
    {
      "anonymous": false,
      "inputs": [
        {
          "indexed": true,
          "internalType": "address",
          "name": "from",
          "type": "address"
        },
        {
          "indexed": true,
          "internalType": "address",
          "name": "to",
          "type": "address"
        },
        {
          "indexed": true,
          "internalType": "uint256",
          "name": "tokenId",
          "type": "uint256"
        }
      ],
      "name": "Transfer",
      "type": "event"
    },
    {
      "inputs": [
        {
          "internalType": "address",
          "name": "to",
          "type": "address"
        },
        {
          "internalType": "uint256",
          "name": "tokenId",
          "type": "uint256"
        }
      ],
      "name": "approve",
      "outputs": [],
      "stateMutability": "nonpayable",
      "type": "function"
    },
    {
      "inputs": [
        {
          "internalType": "address",
          "name": "owner",
          "type": "address"
        }
      ],
      "name": "balanceOf",
      "outputs": [
        {
          "internalType": "uint256",
          "name": "",
          "type": "uint256"
        }
      ],
      "stateMutability": "view",
      "type": "function",
      "constant": true
    },
    {
      "inputs": [
        {
          "internalType": "uint256",
          "name": "tokenId",
          "type": "uint256"
        }
      ],
      "name": "getApproved",
      "outputs": [
        {
          "internalType": "address",
          "name": "",
          "type": "address"
        }
      ],
      "stateMutability": "view",
      "type": "function",
      "constant": true
    },
    {
      "inputs": [
        {
          "internalType": "address",
          "name": "owner",
          "type": "address"
        },
        {
          "internalType": "address",
          "name": "operator",
          "type": "address"
        }
      ],
      "name": "isApprovedForAll",
      "outputs": [
        {
          "internalType": "bool",
          "name": "",
          "type": "bool"
        }
      ],
      "stateMutability": "view",
      "type": "function",
      "constant": true
    },
    {
      "inputs": [],
      "name": "name",
      "outputs": [
        {
          "internalType": "string",
          "name": "",
          "type": "string"
        }
      ],
      "stateMutability": "view",
      "type": "function",
      "constant": true
    },
    {
      "inputs": [],
      "name": "owner",
      "outputs": [
        {
          "internalType": "address",
          "name": "",
          "type": "address"
        }
      ],
      "stateMutability": "view",
      "type": "function",
      "constant": true
    },
    {
      "inputs": [
        {
          "internalType": "uint256",
          "name": "tokenId",
          "type": "uint256"
        }
      ],
      "name": "ownerOf",
      "outputs": [
        {
          "internalType": "address",
          "name": "",
          "type": "address"
        }
      ],
      "stateMutability": "view",
      "type": "function",
      "constant": true
    },
    {
      "inputs": [],
      "name": "permission",
      "outputs": [
        {
          "internalType": "bool",
          "name": "",
          "type": "bool"
        }
      ],
      "stateMutability": "view",
      "type": "function",
      "constant": true
    },
    {
      "inputs": [],
      "name": "renounceOwnership",
      "outputs": [],
      "stateMutability": "nonpayable",
      "type": "function"
    },
    {
      "inputs": [
        {
          "internalType": "address",
          "name": "operator",
          "type": "address"
        },
        {
          "internalType": "bool",
          "name": "approved",
          "type": "bool"
        }
      ],
      "name": "setApprovalForAll",
      "outputs": [],
      "stateMutability": "nonpayable",
      "type": "function"
    },
    {
      "inputs": [
        {
          "internalType": "bytes4",
          "name": "interfaceId",
          "type": "bytes4"
        }
      ],
      "name": "supportsInterface",
      "outputs": [
        {
          "internalType": "bool",
          "name": "",
          "type": "bool"
        }
      ],
      "stateMutability": "view",
      "type": "function",
      "constant": true
    },
    {
      "inputs": [],
      "name": "symbol",
      "outputs": [
        {
          "internalType": "string",
          "name": "",
          "type": "string"
        }
      ],
      "stateMutability": "view",
      "type": "function",
      "constant": true
    },
    {
      "inputs": [
        {
          "internalType": "uint256",
          "name": "tokenId",
          "type": "uint256"
        }
      ],
      "name": "tokenURI",
      "outputs": [
        {
          "internalType": "string",
          "name": "",
          "type": "string"
        }
      ],
      "stateMutability": "view",
      "type": "function",
      "constant": true
    },
    {
      "inputs": [
        {
          "internalType": "address",
          "name": "newOwner",
          "type": "address"
        }
      ],
      "name": "transferOwnership",
      "outputs": [],
      "stateMutability": "nonpayable",
      "type": "function"
    },
    {
      "inputs": [],
      "name": "changePermission",
      "outputs": [],
      "stateMutability": "nonpayable",
      "type": "function"
    },
    {
      "inputs": [
        {
          "internalType": "address[]",
          "name": "whitelist",
          "type": "address[]"
        }
      ],
      "name": "addUser",
      "outputs": [],
      "stateMutability": "nonpayable",
      "type": "function"
    },
    {
      "inputs": [
        {
          "internalType": "address",
          "name": "_whitelistedAddress",
          "type": "address"
        }
      ],
      "name": "verifyUser",
      "outputs": [
        {
          "internalType": "bool",
          "name": "",
          "type": "bool"
        }
      ],
      "stateMutability": "view",
      "type": "function",
      "constant": true
    },
    {
      "inputs": [
        {
          "internalType": "address",
          "name": "to",
          "type": "address"
        },
        {
          "internalType": "string",
          "name": "tokenURI",
          "type": "string"
        }
      ],
      "name": "mintNFT",
      "outputs": [
        {
          "internalType": "uint256",
          "name": "",
          "type": "uint256"
        }
      ],
      "stateMutability": "nonpayable",
      "type": "function"
    },
    {
      "inputs": [
        {
          "internalType": "address",
          "name": "from",
          "type": "address"
        },
        {
          "internalType": "address",
          "name": "to",
          "type": "address"
        },
        {
          "internalType": "uint256",
          "name": "tokenId",
          "type": "uint256"
        }
      ],
      "name": "transferFrom",
      "outputs": [],
      "stateMutability": "nonpayable",
      "type": "function"
    },
    {
      "inputs": [
        {
          "internalType": "address",
          "name": "from",
          "type": "address"
        },
        {
          "internalType": "address",
          "name": "to",
          "type": "address"
        },
        {
          "internalType": "uint256",
          "name": "tokenId",
          "type": "uint256"
        }
      ],
      "name": "safeTransferFrom",
      "outputs": [],
      "stateMutability": "nonpayable",
      "type": "function"
    },
    {
      "inputs": [
        {
          "internalType": "address",
          "name": "from",
          "type": "address"
        },
        {
          "internalType": "address",
          "name": "to",
          "type": "address"
        },
        {
          "internalType": "uint256",
          "name": "tokenId",
          "type": "uint256"
        },
        {
          "internalType": "bytes",
          "name": "_data",
          "type": "bytes"
        }
      ],
      "name": "safeTransferFrom",
      "outputs": [],
      "stateMutability": "nonpayable",
      "type": "function"
    }
  ],
  "bytecode": "0x60806040523480156200001157600080fd5b506040518060400160405280600581526020017f534b554e4b0000000000000000000000000000000000000000000000000000008152506040518060400160405280600281526020017f534b000000000000000000000000000000000000000000000000000000000000815250816000908051906020019062000096929190620001a6565b508060019080519060200190620000af929190620001a6565b505050620000d2620000c6620000d860201b60201c565b620000e060201b60201c565b620002ba565b600033905090565b6000600760009054906101000a900473ffffffffffffffffffffffffffffffffffffffff16905081600760006101000a81548173ffffffffffffffffffffffffffffffffffffffff021916908373ffffffffffffffffffffffffffffffffffffffff1602179055508173ffffffffffffffffffffffffffffffffffffffff168173ffffffffffffffffffffffffffffffffffffffff167f8be0079c531659141344cd1fd0a4f28419497f9722a3daafe3b4186f6b6457e060405160405180910390a35050565b828054620001b49062000285565b90600052602060002090601f016020900481019282620001d8576000855562000224565b82601f10620001f357805160ff191683800117855562000224565b8280016001018555821562000224579182015b828111156200022357825182559160200191906001019062000206565b5b50905062000233919062000237565b5090565b5b808211156200025257600081600090555060010162000238565b5090565b7f4e487b7100000000000000000000000000000000000000000000000000000000600052602260045260246000fd5b600060028204905060018216806200029e57607f821691505b602082108103620002b457620002b362000256565b5b50919050565b6137a980620002ca6000396000f3fe608060405234801561001057600080fd5b50600436106101375760003560e01c80638da5cb5b116100b8578063cdfca7f21161007c578063cdfca7f21461034c578063e985e9c514610368578063eacabe1414610398578063f2fde38b146103c8578063f3b0c8b7146103e4578063fe4ea1ed1461040257610137565b80638da5cb5b146102a857806395d89b41146102c6578063a22cb465146102e4578063b88d4fde14610300578063c87b56dd1461031c57610137565b806342842e0e116100ff57806342842e0e146101f25780634d8131201461020e5780636352211e1461023e57806370a082311461026e578063715018a61461029e57610137565b806301ffc9a71461013c57806306fdde031461016c578063081812fc1461018a578063095ea7b3146101ba57806323b872dd146101d6575b600080fd5b610156600480360381019061015191906121ba565b61040c565b6040516101639190612202565b60405180910390f35b6101746104ee565b60405161018191906122b6565b60405180910390f35b6101a4600480360381019061019f919061230e565b610580565b6040516101b1919061237c565b60405180910390f35b6101d460048036038101906101cf91906123c3565b610605565b005b6101f060048036038101906101eb9190612403565b61071c565b005b61020c60048036038101906102079190612403565b6107cb565b005b61022860048036038101906102239190612456565b61083a565b6040516102359190612202565b60405180910390f35b6102586004803603810190610253919061230e565b610890565b604051610265919061237c565b60405180910390f35b61028860048036038101906102839190612456565b610941565b6040516102959190612492565b60405180910390f35b6102a66109f8565b005b6102b0610a80565b6040516102bd919061237c565b60405180910390f35b6102ce610aaa565b6040516102db91906122b6565b60405180910390f35b6102fe60048036038101906102f991906124d9565b610b3c565b005b61031a6004803603810190610315919061264e565b610b52565b005b6103366004803603810190610331919061230e565b610bb4565b60405161034391906122b6565b60405180910390f35b61036660048036038101906103619190612799565b610d05565b005b610382600480360381019061037d91906127e2565b610ebd565b60405161038f9190612202565b60405180910390f35b6103b260048036038101906103ad91906128c3565b610f51565b6040516103bf9190612492565b60405180910390f35b6103e260048036038101906103dd9190612456565b611015565b005b6103ec61110c565b6040516103f99190612202565b60405180910390f35b61040a61111f565b005b60007f80ac58cd000000000000000000000000000000000000000000000000000000007bffffffffffffffffffffffffffffffffffffffffffffffffffffffff1916827bffffffffffffffffffffffffffffffffffffffffffffffffffffffff191614806104d757507f5b5e139f000000000000000000000000000000000000000000000000000000007bffffffffffffffffffffffffffffffffffffffffffffffffffffffff1916827bffffffffffffffffffffffffffffffffffffffffffffffffffffffff1916145b806104e757506104e6826111c7565b5b9050919050565b6060600080546104fd9061294e565b80601f01602080910402602001604051908101604052809291908181526020018280546105299061294e565b80156105765780601f1061054b57610100808354040283529160200191610576565b820191906000526020600020905b81548152906001019060200180831161055957829003601f168201915b5050505050905090565b600061058b82611231565b6105ca576040517f08c379a00000000000000000000000000000000000000000000000000000000081526004016105c1906129f1565b60405180910390fd5b6004600083815260200190815260200160002060009054906101000a900473ffffffffffffffffffffffffffffffffffffffff169050919050565b600061061082610890565b90508073ffffffffffffffffffffffffffffffffffffffff168373ffffffffffffffffffffffffffffffffffffffff1603610680576040517f08c379a000000000000000000000000000000000000000000000000000000000815260040161067790612a5d565b60405180910390fd5b8073ffffffffffffffffffffffffffffffffffffffff1661069f61129d565b73ffffffffffffffffffffffffffffffffffffffff1614806106ce57506106cd816106c861129d565b610ebd565b5b61070d576040517f08c379a000000000000000000000000000000000000000000000000000000000815260040161070490612aef565b60405180910390fd5b61071783836112a5565b505050565b600a60009054906101000a900460ff1661076b576040517f08c379a000000000000000000000000000000000000000000000000000000000815260040161076290612b5b565b60405180910390fd5b61077c61077661129d565b8261135e565b6107bb576040517f08c379a00000000000000000000000000000000000000000000000000000000081526004016107b290612bed565b60405180910390fd5b6107c683838361143c565b505050565b600a60009054906101000a900460ff1661081a576040517f08c379a000000000000000000000000000000000000000000000000000000000815260040161081190612b5b565b60405180910390fd5b61083583838360405180602001604052806000815250610b52565b505050565b6000600960008373ffffffffffffffffffffffffffffffffffffffff1673ffffffffffffffffffffffffffffffffffffffff16815260200190815260200160002060009054906101000a900460ff169050919050565b6000806002600084815260200190815260200160002060009054906101000a900473ffffffffffffffffffffffffffffffffffffffff169050600073ffffffffffffffffffffffffffffffffffffffff168173ffffffffffffffffffffffffffffffffffffffff1603610938576040517f08c379a000000000000000000000000000000000000000000000000000000000815260040161092f90612c7f565b60405180910390fd5b80915050919050565b60008073ffffffffffffffffffffffffffffffffffffffff168273ffffffffffffffffffffffffffffffffffffffff16036109b1576040517f08c379a00000000000000000000000000000000000000000000000000000000081526004016109a890612d11565b60405180910390fd5b600360008373ffffffffffffffffffffffffffffffffffffffff1673ffffffffffffffffffffffffffffffffffffffff168152602001908152602001600020549050919050565b610a0061129d565b73ffffffffffffffffffffffffffffffffffffffff16610a1e610a80565b73ffffffffffffffffffffffffffffffffffffffff1614610a74576040517f08c379a0000000000000000000000000000000000000000000000000000000008152600401610a6b90612d7d565b60405180910390fd5b610a7e60006116a2565b565b6000600760009054906101000a900473ffffffffffffffffffffffffffffffffffffffff16905090565b606060018054610ab99061294e565b80601f0160208091040260200160405190810160405280929190818152602001828054610ae59061294e565b8015610b325780601f10610b0757610100808354040283529160200191610b32565b820191906000526020600020905b815481529060010190602001808311610b1557829003601f168201915b5050505050905090565b610b4e610b4761129d565b8383611768565b5050565b610b63610b5d61129d565b8361135e565b610ba2576040517f08c379a0000000000000000000000000000000000000000000000000000000008152600401610b9990612bed565b60405180910390fd5b610bae848484846118d4565b50505050565b6060610bbf82611231565b610bfe576040517f08c379a0000000000000000000000000000000000000000000000000000000008152600401610bf590612e0f565b60405180910390fd5b6000600660008481526020019081526020016000208054610c1e9061294e565b80601f0160208091040260200160405190810160405280929190818152602001828054610c4a9061294e565b8015610c975780601f10610c6c57610100808354040283529160200191610c97565b820191906000526020600020905b815481529060010190602001808311610c7a57829003601f168201915b505050505090506000610ca8611943565b90506000815103610cbd578192505050610d00565b600082511115610cf2578082604051602001610cda929190612e6b565b60405160208183030381529060405292505050610d00565b610cfb8461195a565b925050505b919050565b610d0d61129d565b73ffffffffffffffffffffffffffffffffffffffff16610d2b610a80565b73ffffffffffffffffffffffffffffffffffffffff1614610d81576040517f08c379a0000000000000000000000000000000000000000000000000000000008152600401610d7890612d7d565b60405180910390fd5b60005b8151811015610eb95760096000838381518110610da457610da3612e8f565b5b602002602001015173ffffffffffffffffffffffffffffffffffffffff1673ffffffffffffffffffffffffffffffffffffffff16815260200190815260200160002060009054906101000a900460ff1615610e34576040517f08c379a0000000000000000000000000000000000000000000000000000000008152600401610e2b90612f0a565b60405180910390fd5b600160096000848481518110610e4d57610e4c612e8f565b5b602002602001015173ffffffffffffffffffffffffffffffffffffffff1673ffffffffffffffffffffffffffffffffffffffff16815260200190815260200160002060006101000a81548160ff0219169083151502179055508080610eb190612f59565b915050610d84565b5050565b6000600560008473ffffffffffffffffffffffffffffffffffffffff1673ffffffffffffffffffffffffffffffffffffffff16815260200190815260200160002060008373ffffffffffffffffffffffffffffffffffffffff1673ffffffffffffffffffffffffffffffffffffffff16815260200190815260200160002060009054906101000a900460ff16905092915050565b6000600960003373ffffffffffffffffffffffffffffffffffffffff1673ffffffffffffffffffffffffffffffffffffffff16815260200190815260200160002060009054906101000a900460ff16610fdf576040517f08c379a0000000000000000000000000000000000000000000000000000000008152600401610fd690612fed565b60405180910390fd5b610fe96008611a01565b6000610ff56008611a17565b90506110018482611a25565b61100b8184611bfe565b8091505092915050565b61101d61129d565b73ffffffffffffffffffffffffffffffffffffffff1661103b610a80565b73ffffffffffffffffffffffffffffffffffffffff1614611091576040517f08c379a000000000000000000000000000000000000000000000000000000000815260040161108890612d7d565b60405180910390fd5b600073ffffffffffffffffffffffffffffffffffffffff168173ffffffffffffffffffffffffffffffffffffffff1603611100576040517f08c379a00000000000000000000000000000000000000000000000000000000081526004016110f79061307f565b60405180910390fd5b611109816116a2565b50565b600a60009054906101000a900460ff1681565b61112761129d565b73ffffffffffffffffffffffffffffffffffffffff16611145610a80565b73ffffffffffffffffffffffffffffffffffffffff161461119b576040517f08c379a000000000000000000000000000000000000000000000000000000000815260040161119290612d7d565b60405180910390fd5b600a60009054906101000a900460ff1615600a60006101000a81548160ff021916908315150217905550565b60007f01ffc9a7000000000000000000000000000000000000000000000000000000007bffffffffffffffffffffffffffffffffffffffffffffffffffffffff1916827bffffffffffffffffffffffffffffffffffffffffffffffffffffffff1916149050919050565b60008073ffffffffffffffffffffffffffffffffffffffff166002600084815260200190815260200160002060009054906101000a900473ffffffffffffffffffffffffffffffffffffffff1673ffffffffffffffffffffffffffffffffffffffff1614159050919050565b600033905090565b816004600083815260200190815260200160002060006101000a81548173ffffffffffffffffffffffffffffffffffffffff021916908373ffffffffffffffffffffffffffffffffffffffff160217905550808273ffffffffffffffffffffffffffffffffffffffff1661131883610890565b73ffffffffffffffffffffffffffffffffffffffff167f8c5be1e5ebec7d5bd14f71427d1e84f3dd0314c0f7b2291e5b200ac8c7c3b92560405160405180910390a45050565b600061136982611231565b6113a8576040517f08c379a000000000000000000000000000000000000000000000000000000000815260040161139f90613111565b60405180910390fd5b60006113b383610890565b90508073ffffffffffffffffffffffffffffffffffffffff168473ffffffffffffffffffffffffffffffffffffffff1614806113f557506113f48185610ebd565b5b8061143357508373ffffffffffffffffffffffffffffffffffffffff1661141b84610580565b73ffffffffffffffffffffffffffffffffffffffff16145b91505092915050565b8273ffffffffffffffffffffffffffffffffffffffff1661145c82610890565b73ffffffffffffffffffffffffffffffffffffffff16146114b2576040517f08c379a00000000000000000000000000000000000000000000000000000000081526004016114a9906131a3565b60405180910390fd5b600073ffffffffffffffffffffffffffffffffffffffff168273ffffffffffffffffffffffffffffffffffffffff1603611521576040517f08c379a000000000000000000000000000000000000000000000000000000000815260040161151890613235565b60405180910390fd5b61152c838383611c72565b6115376000826112a5565b6001600360008573ffffffffffffffffffffffffffffffffffffffff1673ffffffffffffffffffffffffffffffffffffffff16815260200190815260200160002060008282546115879190613255565b925050819055506001600360008473ffffffffffffffffffffffffffffffffffffffff1673ffffffffffffffffffffffffffffffffffffffff16815260200190815260200160002060008282546115de9190613289565b92505081905550816002600083815260200190815260200160002060006101000a81548173ffffffffffffffffffffffffffffffffffffffff021916908373ffffffffffffffffffffffffffffffffffffffff160217905550808273ffffffffffffffffffffffffffffffffffffffff168473ffffffffffffffffffffffffffffffffffffffff167fddf252ad1be2c89b69c2b068fc378daa952ba7f163c4a11628f55a4df523b3ef60405160405180910390a461169d838383611c77565b505050565b6000600760009054906101000a900473ffffffffffffffffffffffffffffffffffffffff16905081600760006101000a81548173ffffffffffffffffffffffffffffffffffffffff021916908373ffffffffffffffffffffffffffffffffffffffff1602179055508173ffffffffffffffffffffffffffffffffffffffff168173ffffffffffffffffffffffffffffffffffffffff167f8be0079c531659141344cd1fd0a4f28419497f9722a3daafe3b4186f6b6457e060405160405180910390a35050565b8173ffffffffffffffffffffffffffffffffffffffff168373ffffffffffffffffffffffffffffffffffffffff16036117d6576040517f08c379a00000000000000000000000000000000000000000000000000000000081526004016117cd9061332b565b60405180910390fd5b80600560008573ffffffffffffffffffffffffffffffffffffffff1673ffffffffffffffffffffffffffffffffffffffff16815260200190815260200160002060008473ffffffffffffffffffffffffffffffffffffffff1673ffffffffffffffffffffffffffffffffffffffff16815260200190815260200160002060006101000a81548160ff0219169083151502179055508173ffffffffffffffffffffffffffffffffffffffff168373ffffffffffffffffffffffffffffffffffffffff167f17307eab39ab6107e8899845ad3d59bd9653f200f220920489ca2b5937696c31836040516118c79190612202565b60405180910390a3505050565b6118df84848461143c565b6118eb84848484611c7c565b806118fe57506118fd84848484611dd2565b5b61193d576040517f08c379a0000000000000000000000000000000000000000000000000000000008152600401611934906133e3565b60405180910390fd5b50505050565b606060405180602001604052806000815250905090565b606061196582611231565b6119a4576040517f08c379a000000000000000000000000000000000000000000000000000000000815260040161199b90613475565b60405180910390fd5b60006119ae611943565b905060008151116119ce57604051806020016040528060008152506119f9565b806119d884611f28565b6040516020016119e9929190612e6b565b6040516020818303038152906040525b915050919050565b6001816000016000828254019250508190555050565b600081600001549050919050565b600073ffffffffffffffffffffffffffffffffffffffff168273ffffffffffffffffffffffffffffffffffffffff1603611a94576040517f08c379a0000000000000000000000000000000000000000000000000000000008152600401611a8b906134e1565b60405180910390fd5b611a9d81611231565b15611add576040517f08c379a0000000000000000000000000000000000000000000000000000000008152600401611ad49061354d565b60405180910390fd5b611ae960008383611c72565b6001600360008473ffffffffffffffffffffffffffffffffffffffff1673ffffffffffffffffffffffffffffffffffffffff1681526020019081526020016000206000828254611b399190613289565b92505081905550816002600083815260200190815260200160002060006101000a81548173ffffffffffffffffffffffffffffffffffffffff021916908373ffffffffffffffffffffffffffffffffffffffff160217905550808273ffffffffffffffffffffffffffffffffffffffff16600073ffffffffffffffffffffffffffffffffffffffff167fddf252ad1be2c89b69c2b068fc378daa952ba7f163c4a11628f55a4df523b3ef60405160405180910390a4611bfa60008383611c77565b5050565b611c0782611231565b611c46576040517f08c379a0000000000000000000000000000000000000000000000000000000008152600401611c3d906135df565b60405180910390fd5b80600660008481526020019081526020016000209080519060200190611c6d9291906120ab565b505050565b505050565b505050565b6000611c9d8473ffffffffffffffffffffffffffffffffffffffff16612088565b15611dc5578373ffffffffffffffffffffffffffffffffffffffff16636745782b611cc661129d565b8786866040518563ffffffff1660e01b8152600401611ce89493929190613654565b6020604051808303816000875af1925050508015611d2457506040513d601f19601f82011682018060405250810190611d2191906136b5565b60015b611d75573d8060008114611d54576040519150601f19603f3d011682016040523d82523d6000602084013e611d59565b606091505b506000815103611d6d576000915050611dca565b805181602001fd5b636745782b60e01b7bffffffffffffffffffffffffffffffffffffffffffffffffffffffff1916817bffffffffffffffffffffffffffffffffffffffffffffffffffffffff191614915050611dca565b600190505b949350505050565b6000611df38473ffffffffffffffffffffffffffffffffffffffff16612088565b15611f1b578373ffffffffffffffffffffffffffffffffffffffff1663150b7a02611e1c61129d565b8786866040518563ffffffff1660e01b8152600401611e3e9493929190613654565b6020604051808303816000875af1925050508015611e7a57506040513d601f19601f82011682018060405250810190611e7791906136b5565b60015b611ecb573d8060008114611eaa576040519150601f19603f3d011682016040523d82523d6000602084013e611eaf565b606091505b506000815103611ec3576000915050611f20565b805181602001fd5b63150b7a0260e01b7bffffffffffffffffffffffffffffffffffffffffffffffffffffffff1916817bffffffffffffffffffffffffffffffffffffffffffffffffffffffff191614915050611f20565b600190505b949350505050565b606060008203611f6f576040518060400160405280600181526020017f30000000000000000000000000000000000000000000000000000000000000008152509050612083565b600082905060005b60008214611fa1578080611f8a90612f59565b915050600a82611f9a9190613711565b9150611f77565b60008167ffffffffffffffff811115611fbd57611fbc612523565b5b6040519080825280601f01601f191660200182016040528015611fef5781602001600182028036833780820191505090505b5090505b6000851461207c576001826120089190613255565b9150600a856120179190613742565b60306120239190613289565b60f81b81838151811061203957612038612e8f565b5b60200101907effffffffffffffffffffffffffffffffffffffffffffffffffffffffffffff1916908160001a905350600a856120759190613711565b9450611ff3565b8093505050505b919050565b6000808273ffffffffffffffffffffffffffffffffffffffff163b119050919050565b8280546120b79061294e565b90600052602060002090601f0160209004810192826120d95760008555612120565b82601f106120f257805160ff1916838001178555612120565b82800160010185558215612120579182015b8281111561211f578251825591602001919060010190612104565b5b50905061212d9190612131565b5090565b5b8082111561214a576000816000905550600101612132565b5090565b6000604051905090565b600080fd5b600080fd5b60007fffffffff0000000000000000000000000000000000000000000000000000000082169050919050565b61219781612162565b81146121a257600080fd5b50565b6000813590506121b48161218e565b92915050565b6000602082840312156121d0576121cf612158565b5b60006121de848285016121a5565b91505092915050565b60008115159050919050565b6121fc816121e7565b82525050565b600060208201905061221760008301846121f3565b92915050565b600081519050919050565b600082825260208201905092915050565b60005b8381101561225757808201518184015260208101905061223c565b83811115612266576000848401525b50505050565b6000601f19601f8301169050919050565b60006122888261221d565b6122928185612228565b93506122a2818560208601612239565b6122ab8161226c565b840191505092915050565b600060208201905081810360008301526122d0818461227d565b905092915050565b6000819050919050565b6122eb816122d8565b81146122f657600080fd5b50565b600081359050612308816122e2565b92915050565b60006020828403121561232457612323612158565b5b6000612332848285016122f9565b91505092915050565b600073ffffffffffffffffffffffffffffffffffffffff82169050919050565b60006123668261233b565b9050919050565b6123768161235b565b82525050565b6000602082019050612391600083018461236d565b92915050565b6123a08161235b565b81146123ab57600080fd5b50565b6000813590506123bd81612397565b92915050565b600080604083850312156123da576123d9612158565b5b60006123e8858286016123ae565b92505060206123f9858286016122f9565b9150509250929050565b60008060006060848603121561241c5761241b612158565b5b600061242a868287016123ae565b935050602061243b868287016123ae565b925050604061244c868287016122f9565b9150509250925092565b60006020828403121561246c5761246b612158565b5b600061247a848285016123ae565b91505092915050565b61248c816122d8565b82525050565b60006020820190506124a76000830184612483565b92915050565b6124b6816121e7565b81146124c157600080fd5b50565b6000813590506124d3816124ad565b92915050565b600080604083850312156124f0576124ef612158565b5b60006124fe858286016123ae565b925050602061250f858286016124c4565b9150509250929050565b600080fd5b600080fd5b7f4e487b7100000000000000000000000000000000000000000000000000000000600052604160045260246000fd5b61255b8261226c565b810181811067ffffffffffffffff8211171561257a57612579612523565b5b80604052505050565b600061258d61214e565b90506125998282612552565b919050565b600067ffffffffffffffff8211156125b9576125b8612523565b5b6125c28261226c565b9050602081019050919050565b82818337600083830152505050565b60006125f16125ec8461259e565b612583565b90508281526020810184848401111561260d5761260c61251e565b5b6126188482856125cf565b509392505050565b600082601f83011261263557612634612519565b5b81356126458482602086016125de565b91505092915050565b6000806000806080858703121561266857612667612158565b5b6000612676878288016123ae565b9450506020612687878288016123ae565b9350506040612698878288016122f9565b925050606085013567ffffffffffffffff8111156126b9576126b861215d565b5b6126c587828801612620565b91505092959194509250565b600067ffffffffffffffff8211156126ec576126eb612523565b5b602082029050602081019050919050565b600080fd5b6000612715612710846126d1565b612583565b90508083825260208201905060208402830185811115612738576127376126fd565b5b835b81811015612761578061274d88826123ae565b84526020840193505060208101905061273a565b5050509392505050565b600082601f8301126127805761277f612519565b5b8135612790848260208601612702565b91505092915050565b6000602082840312156127af576127ae612158565b5b600082013567ffffffffffffffff8111156127cd576127cc61215d565b5b6127d98482850161276b565b91505092915050565b600080604083850312156127f9576127f8612158565b5b6000612807858286016123ae565b9250506020612818858286016123ae565b9150509250929050565b600067ffffffffffffffff82111561283d5761283c612523565b5b6128468261226c565b9050602081019050919050565b600061286661286184612822565b612583565b9050828152602081018484840111156128825761288161251e565b5b61288d8482856125cf565b509392505050565b600082601f8301126128aa576128a9612519565b5b81356128ba848260208601612853565b91505092915050565b600080604083850312156128da576128d9612158565b5b60006128e8858286016123ae565b925050602083013567ffffffffffffffff8111156129095761290861215d565b5b61291585828601612895565b9150509250929050565b7f4e487b7100000000000000000000000000000000000000000000000000000000600052602260045260246000fd5b6000600282049050600182168061296657607f821691505b6020821081036129795761297861291f565b5b50919050565b7f4b495031373a20617070726f76656420717565727920666f72206e6f6e65786960008201527f7374656e7420746f6b656e000000000000000000000000000000000000000000602082015250565b60006129db602b83612228565b91506129e68261297f565b604082019050919050565b60006020820190508181036000830152612a0a816129ce565b9050919050565b7f4b495031373a20617070726f76616c20746f2063757272656e74206f776e6572600082015250565b6000612a47602083612228565b9150612a5282612a11565b602082019050919050565b60006020820190508181036000830152612a7681612a3a565b9050919050565b7f4b495031373a20617070726f76652063616c6c6572206973206e6f74206f776e60008201527f6572206e6f7220617070726f76656420666f7220616c6c000000000000000000602082015250565b6000612ad9603783612228565b9150612ae482612a7d565b604082019050919050565b60006020820190508181036000830152612b0881612acc565b9050919050565b7f6f776e6572206973206e6f7420616c6c6f7720746f2073656e64204e46540000600082015250565b6000612b45601e83612228565b9150612b5082612b0f565b602082019050919050565b60006020820190508181036000830152612b7481612b38565b9050919050565b7f4b495031373a207472616e736665722063616c6c6572206973206e6f74206f7760008201527f6e6572206e6f7220617070726f76656400000000000000000000000000000000602082015250565b6000612bd7603083612228565b9150612be282612b7b565b604082019050919050565b60006020820190508181036000830152612c0681612bca565b9050919050565b7f4b495031373a206f776e657220717565727920666f72206e6f6e65786973746560008201527f6e7420746f6b656e000000000000000000000000000000000000000000000000602082015250565b6000612c69602883612228565b9150612c7482612c0d565b604082019050919050565b60006020820190508181036000830152612c9881612c5c565b9050919050565b7f4b495031373a2061646472657373207a65726f206973206e6f7420612076616c60008201527f6964206f776e6572000000000000000000000000000000000000000000000000602082015250565b6000612cfb602883612228565b9150612d0682612c9f565b604082019050919050565b60006020820190508181036000830152612d2a81612cee565b9050919050565b7f4f776e61626c653a2063616c6c6572206973206e6f7420746865206f776e6572600082015250565b6000612d67602083612228565b9150612d7282612d31565b602082019050919050565b60006020820190508181036000830152612d9681612d5a565b9050919050565b7f4b4950313755524953746f726167653a2055524920717565727920666f72206e60008201527f6f6e6578697374656e7420746f6b656e00000000000000000000000000000000602082015250565b6000612df9603083612228565b9150612e0482612d9d565b604082019050919050565b60006020820190508181036000830152612e2881612dec565b9050919050565b600081905092915050565b6000612e458261221d565b612e4f8185612e2f565b9350612e5f818560208601612239565b80840191505092915050565b6000612e778285612e3a565b9150612e838284612e3a565b91508190509392505050565b7f4e487b7100000000000000000000000000000000000000000000000000000000600052603260045260246000fd5b7f636865636b20796f7572206c6973740000000000000000000000000000000000600082015250565b6000612ef4600f83612228565b9150612eff82612ebe565b602082019050919050565b60006020820190508181036000830152612f2381612ee7565b9050919050565b7f4e487b7100000000000000000000000000000000000000000000000000000000600052601160045260246000fd5b6000612f64826122d8565b91507fffffffffffffffffffffffffffffffffffffffffffffffffffffffffffffffff8203612f9657612f95612f2a565b5b600182019050919050565b7f596f75206e65656420746f2062652077686974656c6973746564000000000000600082015250565b6000612fd7601a83612228565b9150612fe282612fa1565b602082019050919050565b6000602082019050818103600083015261300681612fca565b9050919050565b7f4f776e61626c653a206e6577206f776e657220697320746865207a65726f206160008201527f6464726573730000000000000000000000000000000000000000000000000000602082015250565b6000613069602683612228565b91506130748261300d565b604082019050919050565b600060208201905081810360008301526130988161305c565b9050919050565b7f4b495031373a206f70657261746f7220717565727920666f72206e6f6e65786960008201527f7374656e7420746f6b656e000000000000000000000000000000000000000000602082015250565b60006130fb602b83612228565b91506131068261309f565b604082019050919050565b6000602082019050818103600083015261312a816130ee565b9050919050565b7f4b495031373a207472616e736665722066726f6d20696e636f7272656374206f60008201527f776e657200000000000000000000000000000000000000000000000000000000602082015250565b600061318d602483612228565b915061319882613131565b604082019050919050565b600060208201905081810360008301526131bc81613180565b9050919050565b7f4b495031373a207472616e7366657220746f20746865207a65726f206164647260008201527f6573730000000000000000000000000000000000000000000000000000000000602082015250565b600061321f602383612228565b915061322a826131c3565b604082019050919050565b6000602082019050818103600083015261324e81613212565b9050919050565b6000613260826122d8565b915061326b836122d8565b92508282101561327e5761327d612f2a565b5b828203905092915050565b6000613294826122d8565b915061329f836122d8565b9250827fffffffffffffffffffffffffffffffffffffffffffffffffffffffffffffffff038211156132d4576132d3612f2a565b5b828201905092915050565b7f4b495031373a20617070726f766520746f2063616c6c65720000000000000000600082015250565b6000613315601883612228565b9150613320826132df565b602082019050919050565b6000602082019050818103600083015261334481613308565b9050919050565b7f4b495031373a207472616e7366657220746f206e6f6e20494b4950313752656360008201527f65697665722f49455243373231526563656976657220696d706c656d656e746560208201527f7200000000000000000000000000000000000000000000000000000000000000604082015250565b60006133cd604183612228565b91506133d88261334b565b606082019050919050565b600060208201905081810360008301526133fc816133c0565b9050919050565b7f4b495031374d657461646174613a2055524920717565727920666f72206e6f6e60008201527f6578697374656e7420746f6b656e000000000000000000000000000000000000602082015250565b600061345f602e83612228565b915061346a82613403565b604082019050919050565b6000602082019050818103600083015261348e81613452565b9050919050565b7f4b495031373a206d696e7420746f20746865207a65726f206164647265737300600082015250565b60006134cb601f83612228565b91506134d682613495565b602082019050919050565b600060208201905081810360008301526134fa816134be565b9050919050565b7f4b495031373a20746f6b656e20616c7265616479206d696e7465640000000000600082015250565b6000613537601b83612228565b915061354282613501565b602082019050919050565b600060208201905081810360008301526135668161352a565b9050919050565b7f4b4950313755524953746f726167653a2055524920736574206f66206e6f6e6560008201527f78697374656e7420746f6b656e00000000000000000000000000000000000000602082015250565b60006135c9602d83612228565b91506135d48261356d565b604082019050919050565b600060208201905081810360008301526135f8816135bc565b9050919050565b600081519050919050565b600082825260208201905092915050565b6000613626826135ff565b613630818561360a565b9350613640818560208601612239565b6136498161226c565b840191505092915050565b6000608082019050613669600083018761236d565b613676602083018661236d565b6136836040830185612483565b8181036060830152613695818461361b565b905095945050505050565b6000815190506136af8161218e565b92915050565b6000602082840312156136cb576136ca612158565b5b60006136d9848285016136a0565b91505092915050565b7f4e487b7100000000000000000000000000000000000000000000000000000000600052601260045260246000fd5b600061371c826122d8565b9150613727836122d8565b925082613737576137366136e2565b5b828204905092915050565b600061374d826122d8565b9150613758836122d8565b925082613768576137676136e2565b5b82820690509291505056fea2646970667358221220966835606cd4dc18c16e292aca6cb8db0fdf48dbf0b83053622371c298b29e5b64736f6c634300080e0033",
  "immutableReferences": {},
  "source": "// SPDX-License-Identifier: MIT\npragma solidity ^0.8.0;\n\n\nimport \"@klaytn/contracts/KIP/token/KIP17/extensions/KIP17URIStorage.sol\";\nimport \"@klaytn/contracts/access/Ownable.sol\";\nimport \"@klaytn/contracts/utils/Counters.sol\";\n\ncontract SKNFT is KIP17URIStorage, Ownable {\n    using Counters for Counters.Counter;\n    Counters.Counter private _tokenIds;\n    mapping(address => bool) whitelistedAddresses;\n    bool public permission;\n\n    constructor() public KIP17(\"SKUNK\", \"SK\") {}\n\n    modifier isWhitelisted() {\n        require(whitelistedAddresses[msg.sender], \"You need to be whitelisted\");\n        _;\n    }\n\n    function changePermission() external onlyOwner {\n        permission = !permission;\n    }\n\n    function addUser(address[] memory whitelist) public onlyOwner {\n        for (uint256 i = 0; i < whitelist.length; i++) {\n            require(!whitelistedAddresses[whitelist[i]], \"check your list\");\n            whitelistedAddresses[whitelist[i]] = true;\n        }\n    }\n\n    function verifyUser(address _whitelistedAddress)\n        public\n        view\n        returns (bool)\n    {\n        return whitelistedAddresses[_whitelistedAddress];\n    }\n\n    function mintNFT(address to, string memory tokenURI)\n        public\n        isWhitelisted\n        returns (uint256)\n    {\n        _tokenIds.increment();\n        uint256 newItemId = _tokenIds.current();\n        _mint(to, newItemId);\n        _setTokenURI(newItemId, tokenURI);\n        return newItemId;\n    }\n\n    //NFT  ON / OFF  override require   \n    function transferFrom(\n        address from,\n        address to,\n        uint256 tokenId\n    ) public virtual override {\n      require(permission,\"owner is not allow to send NFT\");\n      require(_isApprovedOrOwner(_msgSender(), tokenId), \"KIP17: transfer caller is not owner nor approved\");\n        _transfer(from, to, tokenId);\n    }\n\n    function safeTransferFrom(\n        address from,\n        address to,\n        uint256 tokenId\n    ) public virtual override {\n        require(permission,\"owner is not allow to send NFT\");\n        safeTransferFrom(from, to, tokenId, \"\");\n    }\n}\n",
  "sourcePath": "/Users/anhyeongjun/Desktop/solidity/sk_sunny/contracts/SKNFT.sol",
  "compiler": {
    "name": "solc",
    "version": "0.8.14+commit.80d49f37.Emscripten.clang"
  },
  "schemaVersion": "3.4.7",
  "updatedAt": "2022-10-21T03:08:09.196Z",
  "networkType": "ethereum",
  "devdoc": {
    "kind": "dev",
    "methods": {
      "approve(address,uint256)": {
        "details": "See {IKIP17-approve}."
      },
      "balanceOf(address)": {
        "details": "See {IKIP17-balanceOf}."
      },
      "getApproved(uint256)": {
        "details": "See {IKIP17-getApproved}."
      },
      "isApprovedForAll(address,address)": {
        "details": "See {IKIP17-isApprovedForAll}."
      },
      "name()": {
        "details": "See {IKIP17Metadata-name}."
      },
      "owner()": {
        "details": "Returns the address of the current owner."
      },
      "ownerOf(uint256)": {
        "details": "See {IKIP17-ownerOf}."
      },
      "renounceOwnership()": {
        "details": "Leaves the contract without owner. It will not be possible to call `onlyOwner` functions anymore. Can only be called by the current owner. NOTE: Renouncing ownership will leave the contract without an owner, thereby removing any functionality that is only available to the owner."
      },
      "safeTransferFrom(address,address,uint256)": {
        "details": "See {IKIP17-safeTransferFrom}."
      },
      "safeTransferFrom(address,address,uint256,bytes)": {
        "details": "See {IKIP17-safeTransferFrom}."
      },
      "setApprovalForAll(address,bool)": {
        "details": "See {IKIP17-setApprovalForAll}."
      },
      "supportsInterface(bytes4)": {
        "details": "See {IKIP13-supportsInterface}."
      },
      "symbol()": {
        "details": "See {IKIP17Metadata-symbol}."
      },
      "tokenURI(uint256)": {
        "details": "See {IKIP17Metadata-tokenURI}."
      },
      "transferFrom(address,address,uint256)": {
        "details": "See {IKIP17-transferFrom}."
      },
      "transferOwnership(address)": {
        "details": "Transfers ownership of the contract to a new account (`newOwner`). Can only be called by the current owner."
      }
    },
    "version": 1
  },
  "userdoc": {
    "kind": "user",
    "methods": {},
    "version": 1
  }
}