{
  "contractName": "SKNFT2",
  "abi": [
    {
      "inputs": [],
      "stateMutability": "nonpayable",
      "type": "constructor"
    },
    {
      "anonymous": false,
      "inputs": [
        {
          "indexed": true,
          "internalType": "address",
          "name": "owner",
          "type": "address"
        },
        {
          "indexed": true,
          "internalType": "address",
          "name": "approved",
          "type": "address"
        },
        {
          "indexed": true,
          "internalType": "uint256",
          "name": "tokenId",
          "type": "uint256"
        }
      ],
      "name": "Approval",
      "type": "event"
    },
    {
      "anonymous": false,
      "inputs": [
        {
          "indexed": true,
          "internalType": "address",
          "name": "owner",
          "type": "address"
        },
        {
          "indexed": true,
          "internalType": "address",
          "name": "operator",
          "type": "address"
        },
        {
          "indexed": false,
          "internalType": "bool",
          "name": "approved",
          "type": "bool"
        }
      ],
      "name": "ApprovalForAll",
      "type": "event"
    },
    {
      "anonymous": false,
      "inputs": [
        {
          "indexed": true,
          "internalType": "address",
          "name": "previousOwner",
          "type": "address"
        },
        {
          "indexed": true,
          "internalType": "address",
          "name": "newOwner",
          "type": "address"
        }
      ],
      "name": "OwnershipTransferred",
      "type": "event"
    },
    {
      "anonymous": false,
      "inputs": [
        {
          "indexed": true,
          "internalType": "address",
          "name": "from",
          "type": "address"
        },
        {
          "indexed": true,
          "internalType": "address",
          "name": "to",
          "type": "address"
        },
        {
          "indexed": true,
          "internalType": "uint256",
          "name": "tokenId",
          "type": "uint256"
        }
      ],
      "name": "Transfer",
      "type": "event"
    },
    {
      "inputs": [
        {
          "internalType": "address",
          "name": "to",
          "type": "address"
        },
        {
          "internalType": "uint256",
          "name": "tokenId",
          "type": "uint256"
        }
      ],
      "name": "approve",
      "outputs": [],
      "stateMutability": "nonpayable",
      "type": "function"
    },
    {
      "inputs": [
        {
          "internalType": "address",
          "name": "owner",
          "type": "address"
        }
      ],
      "name": "balanceOf",
      "outputs": [
        {
          "internalType": "uint256",
          "name": "",
          "type": "uint256"
        }
      ],
      "stateMutability": "view",
      "type": "function",
      "constant": true
    },
    {
      "inputs": [
        {
          "internalType": "uint256",
          "name": "tokenId",
          "type": "uint256"
        }
      ],
      "name": "getApproved",
      "outputs": [
        {
          "internalType": "address",
          "name": "",
          "type": "address"
        }
      ],
      "stateMutability": "view",
      "type": "function",
      "constant": true
    },
    {
      "inputs": [
        {
          "internalType": "address",
          "name": "owner",
          "type": "address"
        },
        {
          "internalType": "address",
          "name": "operator",
          "type": "address"
        }
      ],
      "name": "isApprovedForAll",
      "outputs": [
        {
          "internalType": "bool",
          "name": "",
          "type": "bool"
        }
      ],
      "stateMutability": "view",
      "type": "function",
      "constant": true
    },
    {
      "inputs": [],
      "name": "name",
      "outputs": [
        {
          "internalType": "string",
          "name": "",
          "type": "string"
        }
      ],
      "stateMutability": "view",
      "type": "function",
      "constant": true
    },
    {
      "inputs": [],
      "name": "owner",
      "outputs": [
        {
          "internalType": "address",
          "name": "",
          "type": "address"
        }
      ],
      "stateMutability": "view",
      "type": "function",
      "constant": true
    },
    {
      "inputs": [
        {
          "internalType": "uint256",
          "name": "tokenId",
          "type": "uint256"
        }
      ],
      "name": "ownerOf",
      "outputs": [
        {
          "internalType": "address",
          "name": "",
          "type": "address"
        }
      ],
      "stateMutability": "view",
      "type": "function",
      "constant": true
    },
    {
      "inputs": [],
      "name": "permission",
      "outputs": [
        {
          "internalType": "bool",
          "name": "",
          "type": "bool"
        }
      ],
      "stateMutability": "view",
      "type": "function",
      "constant": true
    },
    {
      "inputs": [],
      "name": "renounceOwnership",
      "outputs": [],
      "stateMutability": "nonpayable",
      "type": "function"
    },
    {
      "inputs": [
        {
          "internalType": "address",
          "name": "operator",
          "type": "address"
        },
        {
          "internalType": "bool",
          "name": "approved",
          "type": "bool"
        }
      ],
      "name": "setApprovalForAll",
      "outputs": [],
      "stateMutability": "nonpayable",
      "type": "function"
    },
    {
      "inputs": [
        {
          "internalType": "bytes4",
          "name": "interfaceId",
          "type": "bytes4"
        }
      ],
      "name": "supportsInterface",
      "outputs": [
        {
          "internalType": "bool",
          "name": "",
          "type": "bool"
        }
      ],
      "stateMutability": "view",
      "type": "function",
      "constant": true
    },
    {
      "inputs": [],
      "name": "symbol",
      "outputs": [
        {
          "internalType": "string",
          "name": "",
          "type": "string"
        }
      ],
      "stateMutability": "view",
      "type": "function",
      "constant": true
    },
    {
      "inputs": [
        {
          "internalType": "uint256",
          "name": "tokenId",
          "type": "uint256"
        }
      ],
      "name": "tokenURI",
      "outputs": [
        {
          "internalType": "string",
          "name": "",
          "type": "string"
        }
      ],
      "stateMutability": "view",
      "type": "function",
      "constant": true
    },
    {
      "inputs": [
        {
          "internalType": "address",
          "name": "newOwner",
          "type": "address"
        }
      ],
      "name": "transferOwnership",
      "outputs": [],
      "stateMutability": "nonpayable",
      "type": "function"
    },
    {
      "inputs": [],
      "name": "changePermission",
      "outputs": [],
      "stateMutability": "nonpayable",
      "type": "function"
    },
    {
      "inputs": [
        {
          "internalType": "address[]",
          "name": "whitelist",
          "type": "address[]"
        }
      ],
      "name": "addUser",
      "outputs": [],
      "stateMutability": "nonpayable",
      "type": "function"
    },
    {
      "inputs": [
        {
          "internalType": "address",
          "name": "_whitelistedAddress",
          "type": "address"
        }
      ],
      "name": "verifyUser",
      "outputs": [
        {
          "internalType": "bool",
          "name": "",
          "type": "bool"
        }
      ],
      "stateMutability": "view",
      "type": "function",
      "constant": true
    },
    {
      "inputs": [
        {
          "internalType": "uint256",
          "name": "badge",
          "type": "uint256"
        },
        {
          "internalType": "address",
          "name": "to",
          "type": "address"
        },
        {
          "internalType": "uint256",
          "name": "tokenId",
          "type": "uint256"
        },
        {
          "internalType": "string",
          "name": "tokenURI",
          "type": "string"
        }
      ],
      "name": "mintNFT",
      "outputs": [
        {
          "internalType": "uint256",
          "name": "",
          "type": "uint256"
        }
      ],
      "stateMutability": "nonpayable",
      "type": "function"
    },
    {
      "inputs": [
        {
          "internalType": "address",
          "name": "from",
          "type": "address"
        },
        {
          "internalType": "address",
          "name": "to",
          "type": "address"
        },
        {
          "internalType": "uint256",
          "name": "tokenId",
          "type": "uint256"
        }
      ],
      "name": "transferFrom",
      "outputs": [],
      "stateMutability": "nonpayable",
      "type": "function"
    },
    {
      "inputs": [
        {
          "internalType": "address",
          "name": "from",
          "type": "address"
        },
        {
          "internalType": "address",
          "name": "to",
          "type": "address"
        },
        {
          "internalType": "uint256",
          "name": "tokenId",
          "type": "uint256"
        }
      ],
      "name": "safeTransferFrom",
      "outputs": [],
      "stateMutability": "nonpayable",
      "type": "function"
    },
    {
      "inputs": [
        {
          "internalType": "address",
          "name": "from",
          "type": "address"
        },
        {
          "internalType": "address",
          "name": "to",
          "type": "address"
        },
        {
          "internalType": "uint256",
          "name": "tokenId",
          "type": "uint256"
        },
        {
          "internalType": "bytes",
          "name": "_data",
          "type": "bytes"
        }
      ],
      "name": "safeTransferFrom",
      "outputs": [],
      "stateMutability": "nonpayable",
      "type": "function"
    }
  ],
  "bytecode": "0x60806040523480156200001157600080fd5b506040518060400160405280600581526020017f534b554e4b0000000000000000000000000000000000000000000000000000008152506040518060400160405280600281526020017f534b00000000000000000000000000000000000000000000000000000000000081525081600090816200008f919062000412565b508060019081620000a1919062000412565b505050620000c4620000b8620000ca60201b60201c565b620000d260201b60201c565b620004f9565b600033905090565b6000600760009054906101000a900473ffffffffffffffffffffffffffffffffffffffff16905081600760006101000a81548173ffffffffffffffffffffffffffffffffffffffff021916908373ffffffffffffffffffffffffffffffffffffffff1602179055508173ffffffffffffffffffffffffffffffffffffffff168173ffffffffffffffffffffffffffffffffffffffff167f8be0079c531659141344cd1fd0a4f28419497f9722a3daafe3b4186f6b6457e060405160405180910390a35050565b600081519050919050565b7f4e487b7100000000000000000000000000000000000000000000000000000000600052604160045260246000fd5b7f4e487b7100000000000000000000000000000000000000000000000000000000600052602260045260246000fd5b600060028204905060018216806200021a57607f821691505b60208210810362000230576200022f620001d2565b5b50919050565b60008190508160005260206000209050919050565b60006020601f8301049050919050565b600082821b905092915050565b6000600883026200029a7fffffffffffffffffffffffffffffffffffffffffffffffffffffffffffffffff826200025b565b620002a686836200025b565b95508019841693508086168417925050509392505050565b6000819050919050565b6000819050919050565b6000620002f3620002ed620002e784620002be565b620002c8565b620002be565b9050919050565b6000819050919050565b6200030f83620002d2565b620003276200031e82620002fa565b84845462000268565b825550505050565b600090565b6200033e6200032f565b6200034b81848462000304565b505050565b5b8181101562000373576200036760008262000334565b60018101905062000351565b5050565b601f821115620003c2576200038c8162000236565b62000397846200024b565b81016020851015620003a7578190505b620003bf620003b6856200024b565b83018262000350565b50505b505050565b600082821c905092915050565b6000620003e760001984600802620003c7565b1980831691505092915050565b6000620004028383620003d4565b9150826002028217905092915050565b6200041d8262000198565b67ffffffffffffffff811115620004395762000438620001a3565b5b62000445825462000201565b6200045282828562000377565b600060209050601f8311600181146200048a576000841562000475578287015190505b620004818582620003f4565b865550620004f1565b601f1984166200049a8662000236565b60005b82811015620004c4578489015182556001820191506020850194506020810190506200049d565b86831015620004e45784890151620004e0601f891682620003d4565b8355505b6001600288020188555050505b505050505050565b6139cb80620005096000396000f3fe608060405234801561001057600080fd5b50600436106101375760003560e01c80638da5cb5b116100b8578063c87b56dd1161007c578063c87b56dd1461034c578063cdfca7f21461037c578063e985e9c514610398578063f2fde38b146103c8578063f3b0c8b7146103e4578063fe4ea1ed1461040257610137565b80638da5cb5b146102a857806395d89b41146102c6578063a22cb465146102e4578063a2b191cc14610300578063b88d4fde1461033057610137565b806342842e0e116100ff57806342842e0e146101f25780634d8131201461020e5780636352211e1461023e57806370a082311461026e578063715018a61461029e57610137565b806301ffc9a71461013c57806306fdde031461016c578063081812fc1461018a578063095ea7b3146101ba57806323b872dd146101d6575b600080fd5b61015660048036038101906101519190612162565b61040c565b60405161016391906121aa565b60405180910390f35b6101746104ee565b6040516101819190612255565b60405180910390f35b6101a4600480360381019061019f91906122ad565b610580565b6040516101b1919061231b565b60405180910390f35b6101d460048036038101906101cf9190612362565b610605565b005b6101f060048036038101906101eb91906123a2565b61071c565b005b61020c600480360381019061020791906123a2565b6107cb565b005b610228600480360381019061022391906123f5565b61083a565b60405161023591906121aa565b60405180910390f35b610258600480360381019061025391906122ad565b610890565b604051610265919061231b565b60405180910390f35b610288600480360381019061028391906123f5565b610941565b6040516102959190612431565b60405180910390f35b6102a66109f8565b005b6102b0610a80565b6040516102bd919061231b565b60405180910390f35b6102ce610aaa565b6040516102db9190612255565b60405180910390f35b6102fe60048036038101906102f99190612478565b610b3c565b005b61031a600480360381019061031591906125ed565b610b52565b6040516103279190612431565b60405180910390f35b61034a60048036038101906103459190612711565b610bff565b005b610366600480360381019061036191906122ad565b610c61565b6040516103739190612255565b60405180910390f35b6103966004803603810190610391919061285c565b610db2565b005b6103b260048036038101906103ad91906128a5565b610f6a565b6040516103bf91906121aa565b60405180910390f35b6103e260048036038101906103dd91906123f5565b610ffe565b005b6103ec6110f5565b6040516103f991906121aa565b60405180910390f35b61040a611108565b005b60007f80ac58cd000000000000000000000000000000000000000000000000000000007bffffffffffffffffffffffffffffffffffffffffffffffffffffffff1916827bffffffffffffffffffffffffffffffffffffffffffffffffffffffff191614806104d757507f5b5e139f000000000000000000000000000000000000000000000000000000007bffffffffffffffffffffffffffffffffffffffffffffffffffffffff1916827bffffffffffffffffffffffffffffffffffffffffffffffffffffffff1916145b806104e757506104e6826111b0565b5b9050919050565b6060600080546104fd90612914565b80601f016020809104026020016040519081016040528092919081815260200182805461052990612914565b80156105765780601f1061054b57610100808354040283529160200191610576565b820191906000526020600020905b81548152906001019060200180831161055957829003601f168201915b5050505050905090565b600061058b8261121a565b6105ca576040517f08c379a00000000000000000000000000000000000000000000000000000000081526004016105c1906129b7565b60405180910390fd5b6004600083815260200190815260200160002060009054906101000a900473ffffffffffffffffffffffffffffffffffffffff169050919050565b600061061082610890565b90508073ffffffffffffffffffffffffffffffffffffffff168373ffffffffffffffffffffffffffffffffffffffff1603610680576040517f08c379a000000000000000000000000000000000000000000000000000000000815260040161067790612a23565b60405180910390fd5b8073ffffffffffffffffffffffffffffffffffffffff1661069f611286565b73ffffffffffffffffffffffffffffffffffffffff1614806106ce57506106cd816106c8611286565b610f6a565b5b61070d576040517f08c379a000000000000000000000000000000000000000000000000000000000815260040161070490612ab5565b60405180910390fd5b610717838361128e565b505050565b600a60009054906101000a900460ff1661076b576040517f08c379a000000000000000000000000000000000000000000000000000000000815260040161076290612b21565b60405180910390fd5b61077c610776611286565b82611347565b6107bb576040517f08c379a00000000000000000000000000000000000000000000000000000000081526004016107b290612bb3565b60405180910390fd5b6107c6838383611425565b505050565b600a60009054906101000a900460ff1661081a576040517f08c379a000000000000000000000000000000000000000000000000000000000815260040161081190612b21565b60405180910390fd5b61083583838360405180602001604052806000815250610bff565b505050565b6000600960008373ffffffffffffffffffffffffffffffffffffffff1673ffffffffffffffffffffffffffffffffffffffff16815260200190815260200160002060009054906101000a900460ff169050919050565b6000806002600084815260200190815260200160002060009054906101000a900473ffffffffffffffffffffffffffffffffffffffff169050600073ffffffffffffffffffffffffffffffffffffffff168173ffffffffffffffffffffffffffffffffffffffff1603610938576040517f08c379a000000000000000000000000000000000000000000000000000000000815260040161092f90612c45565b60405180910390fd5b80915050919050565b60008073ffffffffffffffffffffffffffffffffffffffff168273ffffffffffffffffffffffffffffffffffffffff16036109b1576040517f08c379a00000000000000000000000000000000000000000000000000000000081526004016109a890612cd7565b60405180910390fd5b600360008373ffffffffffffffffffffffffffffffffffffffff1673ffffffffffffffffffffffffffffffffffffffff168152602001908152602001600020549050919050565b610a00611286565b73ffffffffffffffffffffffffffffffffffffffff16610a1e610a80565b73ffffffffffffffffffffffffffffffffffffffff1614610a74576040517f08c379a0000000000000000000000000000000000000000000000000000000008152600401610a6b90612d43565b60405180910390fd5b610a7e600061168b565b565b6000600760009054906101000a900473ffffffffffffffffffffffffffffffffffffffff16905090565b606060018054610ab990612914565b80601f0160208091040260200160405190810160405280929190818152602001828054610ae590612914565b8015610b325780601f10610b0757610100808354040283529160200191610b32565b820191906000526020600020905b815481529060010190602001808311610b1557829003601f168201915b5050505050905090565b610b4e610b47611286565b8383611751565b5050565b6000600960003373ffffffffffffffffffffffffffffffffffffffff1673ffffffffffffffffffffffffffffffffffffffff16815260200190815260200160002060009054906101000a900460ff16610be0576040517f08c379a0000000000000000000000000000000000000000000000000000000008152600401610bd790612daf565b60405180910390fd5b610bea84846118bd565b610bf483836118db565b829050949350505050565b610c10610c0a611286565b83611347565b610c4f576040517f08c379a0000000000000000000000000000000000000000000000000000000008152600401610c4690612bb3565b60405180910390fd5b610c5b84848484611948565b50505050565b6060610c6c8261121a565b610cab576040517f08c379a0000000000000000000000000000000000000000000000000000000008152600401610ca290612e41565b60405180910390fd5b6000600660008481526020019081526020016000208054610ccb90612914565b80601f0160208091040260200160405190810160405280929190818152602001828054610cf790612914565b8015610d445780601f10610d1957610100808354040283529160200191610d44565b820191906000526020600020905b815481529060010190602001808311610d2757829003601f168201915b505050505090506000610d556119b7565b90506000815103610d6a578192505050610dad565b600082511115610d9f578082604051602001610d87929190612e9d565b60405160208183030381529060405292505050610dad565b610da8846119ce565b925050505b919050565b610dba611286565b73ffffffffffffffffffffffffffffffffffffffff16610dd8610a80565b73ffffffffffffffffffffffffffffffffffffffff1614610e2e576040517f08c379a0000000000000000000000000000000000000000000000000000000008152600401610e2590612d43565b60405180910390fd5b60005b8151811015610f665760096000838381518110610e5157610e50612ec1565b5b602002602001015173ffffffffffffffffffffffffffffffffffffffff1673ffffffffffffffffffffffffffffffffffffffff16815260200190815260200160002060009054906101000a900460ff1615610ee1576040517f08c379a0000000000000000000000000000000000000000000000000000000008152600401610ed890612f3c565b60405180910390fd5b600160096000848481518110610efa57610ef9612ec1565b5b602002602001015173ffffffffffffffffffffffffffffffffffffffff1673ffffffffffffffffffffffffffffffffffffffff16815260200190815260200160002060006101000a81548160ff0219169083151502179055508080610f5e90612f8b565b915050610e31565b5050565b6000600560008473ffffffffffffffffffffffffffffffffffffffff1673ffffffffffffffffffffffffffffffffffffffff16815260200190815260200160002060008373ffffffffffffffffffffffffffffffffffffffff1673ffffffffffffffffffffffffffffffffffffffff16815260200190815260200160002060009054906101000a900460ff16905092915050565b611006611286565b73ffffffffffffffffffffffffffffffffffffffff16611024610a80565b73ffffffffffffffffffffffffffffffffffffffff161461107a576040517f08c379a000000000000000000000000000000000000000000000000000000000815260040161107190612d43565b60405180910390fd5b600073ffffffffffffffffffffffffffffffffffffffff168173ffffffffffffffffffffffffffffffffffffffff16036110e9576040517f08c379a00000000000000000000000000000000000000000000000000000000081526004016110e090613045565b60405180910390fd5b6110f28161168b565b50565b600a60009054906101000a900460ff1681565b611110611286565b73ffffffffffffffffffffffffffffffffffffffff1661112e610a80565b73ffffffffffffffffffffffffffffffffffffffff1614611184576040517f08c379a000000000000000000000000000000000000000000000000000000000815260040161117b90612d43565b60405180910390fd5b600a60009054906101000a900460ff1615600a60006101000a81548160ff021916908315150217905550565b60007f01ffc9a7000000000000000000000000000000000000000000000000000000007bffffffffffffffffffffffffffffffffffffffffffffffffffffffff1916827bffffffffffffffffffffffffffffffffffffffffffffffffffffffff1916149050919050565b60008073ffffffffffffffffffffffffffffffffffffffff166002600084815260200190815260200160002060009054906101000a900473ffffffffffffffffffffffffffffffffffffffff1673ffffffffffffffffffffffffffffffffffffffff1614159050919050565b600033905090565b816004600083815260200190815260200160002060006101000a81548173ffffffffffffffffffffffffffffffffffffffff021916908373ffffffffffffffffffffffffffffffffffffffff160217905550808273ffffffffffffffffffffffffffffffffffffffff1661130183610890565b73ffffffffffffffffffffffffffffffffffffffff167f8c5be1e5ebec7d5bd14f71427d1e84f3dd0314c0f7b2291e5b200ac8c7c3b92560405160405180910390a45050565b60006113528261121a565b611391576040517f08c379a0000000000000000000000000000000000000000000000000000000008152600401611388906130d7565b60405180910390fd5b600061139c83610890565b90508073ffffffffffffffffffffffffffffffffffffffff168473ffffffffffffffffffffffffffffffffffffffff1614806113de57506113dd8185610f6a565b5b8061141c57508373ffffffffffffffffffffffffffffffffffffffff1661140484610580565b73ffffffffffffffffffffffffffffffffffffffff16145b91505092915050565b8273ffffffffffffffffffffffffffffffffffffffff1661144582610890565b73ffffffffffffffffffffffffffffffffffffffff161461149b576040517f08c379a000000000000000000000000000000000000000000000000000000000815260040161149290613169565b60405180910390fd5b600073ffffffffffffffffffffffffffffffffffffffff168273ffffffffffffffffffffffffffffffffffffffff160361150a576040517f08c379a0000000000000000000000000000000000000000000000000000000008152600401611501906131fb565b60405180910390fd5b611515838383611a75565b61152060008261128e565b6001600360008573ffffffffffffffffffffffffffffffffffffffff1673ffffffffffffffffffffffffffffffffffffffff1681526020019081526020016000206000828254611570919061321b565b925050819055506001600360008473ffffffffffffffffffffffffffffffffffffffff1673ffffffffffffffffffffffffffffffffffffffff16815260200190815260200160002060008282546115c7919061324f565b92505081905550816002600083815260200190815260200160002060006101000a81548173ffffffffffffffffffffffffffffffffffffffff021916908373ffffffffffffffffffffffffffffffffffffffff160217905550808273ffffffffffffffffffffffffffffffffffffffff168473ffffffffffffffffffffffffffffffffffffffff167fddf252ad1be2c89b69c2b068fc378daa952ba7f163c4a11628f55a4df523b3ef60405160405180910390a4611686838383611a7a565b505050565b6000600760009054906101000a900473ffffffffffffffffffffffffffffffffffffffff16905081600760006101000a81548173ffffffffffffffffffffffffffffffffffffffff021916908373ffffffffffffffffffffffffffffffffffffffff1602179055508173ffffffffffffffffffffffffffffffffffffffff168173ffffffffffffffffffffffffffffffffffffffff167f8be0079c531659141344cd1fd0a4f28419497f9722a3daafe3b4186f6b6457e060405160405180910390a35050565b8173ffffffffffffffffffffffffffffffffffffffff168373ffffffffffffffffffffffffffffffffffffffff16036117bf576040517f08c379a00000000000000000000000000000000000000000000000000000000081526004016117b6906132cf565b60405180910390fd5b80600560008573ffffffffffffffffffffffffffffffffffffffff1673ffffffffffffffffffffffffffffffffffffffff16815260200190815260200160002060008473ffffffffffffffffffffffffffffffffffffffff1673ffffffffffffffffffffffffffffffffffffffff16815260200190815260200160002060006101000a81548160ff0219169083151502179055508173ffffffffffffffffffffffffffffffffffffffff168373ffffffffffffffffffffffffffffffffffffffff167f17307eab39ab6107e8899845ad3d59bd9653f200f220920489ca2b5937696c31836040516118b091906121aa565b60405180910390a3505050565b6118d7828260405180602001604052806000815250611a7f565b5050565b6118e48261121a565b611923576040517f08c379a000000000000000000000000000000000000000000000000000000000815260040161191a90613361565b60405180910390fd5b80600660008481526020019081526020016000209081611943919061352d565b505050565b611953848484611425565b61195f84848484611aee565b80611972575061197184848484611c44565b5b6119b1576040517f08c379a00000000000000000000000000000000000000000000000000000000081526004016119a890613697565b60405180910390fd5b50505050565b606060405180602001604052806000815250905090565b60606119d98261121a565b611a18576040517f08c379a0000000000000000000000000000000000000000000000000000000008152600401611a0f90613729565b60405180910390fd5b6000611a226119b7565b90506000815111611a425760405180602001604052806000815250611a6d565b80611a4c84611d9a565b604051602001611a5d929190612e9d565b6040516020818303038152906040525b915050919050565b505050565b505050565b611a898383611efa565b611a966000848484611aee565b80611aaa5750611aa96000848484611c44565b5b611ae9576040517f08c379a0000000000000000000000000000000000000000000000000000000008152600401611ae090613697565b60405180910390fd5b505050565b6000611b0f8473ffffffffffffffffffffffffffffffffffffffff166120d3565b15611c37578373ffffffffffffffffffffffffffffffffffffffff16636745782b611b38611286565b8786866040518563ffffffff1660e01b8152600401611b5a949392919061379e565b6020604051808303816000875af1925050508015611b9657506040513d601f19601f82011682018060405250810190611b9391906137ff565b60015b611be7573d8060008114611bc6576040519150601f19603f3d011682016040523d82523d6000602084013e611bcb565b606091505b506000815103611bdf576000915050611c3c565b805181602001fd5b636745782b60e01b7bffffffffffffffffffffffffffffffffffffffffffffffffffffffff1916817bffffffffffffffffffffffffffffffffffffffffffffffffffffffff191614915050611c3c565b600190505b949350505050565b6000611c658473ffffffffffffffffffffffffffffffffffffffff166120d3565b15611d8d578373ffffffffffffffffffffffffffffffffffffffff1663150b7a02611c8e611286565b8786866040518563ffffffff1660e01b8152600401611cb0949392919061379e565b6020604051808303816000875af1925050508015611cec57506040513d601f19601f82011682018060405250810190611ce991906137ff565b60015b611d3d573d8060008114611d1c576040519150601f19603f3d011682016040523d82523d6000602084013e611d21565b606091505b506000815103611d35576000915050611d92565b805181602001fd5b63150b7a0260e01b7bffffffffffffffffffffffffffffffffffffffffffffffffffffffff1916817bffffffffffffffffffffffffffffffffffffffffffffffffffffffff191614915050611d92565b600190505b949350505050565b606060008203611de1576040518060400160405280600181526020017f30000000000000000000000000000000000000000000000000000000000000008152509050611ef5565b600082905060005b60008214611e13578080611dfc90612f8b565b915050600a82611e0c919061385b565b9150611de9565b60008167ffffffffffffffff811115611e2f57611e2e6124c2565b5b6040519080825280601f01601f191660200182016040528015611e615781602001600182028036833780820191505090505b5090505b60008514611eee57600182611e7a919061321b565b9150600a85611e89919061388c565b6030611e95919061324f565b60f81b818381518110611eab57611eaa612ec1565b5b60200101907effffffffffffffffffffffffffffffffffffffffffffffffffffffffffffff1916908160001a905350600a85611ee7919061385b565b9450611e65565b8093505050505b919050565b600073ffffffffffffffffffffffffffffffffffffffff168273ffffffffffffffffffffffffffffffffffffffff1603611f69576040517f08c379a0000000000000000000000000000000000000000000000000000000008152600401611f6090613909565b60405180910390fd5b611f728161121a565b15611fb2576040517f08c379a0000000000000000000000000000000000000000000000000000000008152600401611fa990613975565b60405180910390fd5b611fbe60008383611a75565b6001600360008473ffffffffffffffffffffffffffffffffffffffff1673ffffffffffffffffffffffffffffffffffffffff168152602001908152602001600020600082825461200e919061324f565b92505081905550816002600083815260200190815260200160002060006101000a81548173ffffffffffffffffffffffffffffffffffffffff021916908373ffffffffffffffffffffffffffffffffffffffff160217905550808273ffffffffffffffffffffffffffffffffffffffff16600073ffffffffffffffffffffffffffffffffffffffff167fddf252ad1be2c89b69c2b068fc378daa952ba7f163c4a11628f55a4df523b3ef60405160405180910390a46120cf60008383611a7a565b5050565b6000808273ffffffffffffffffffffffffffffffffffffffff163b119050919050565b6000604051905090565b600080fd5b600080fd5b60007fffffffff0000000000000000000000000000000000000000000000000000000082169050919050565b61213f8161210a565b811461214a57600080fd5b50565b60008135905061215c81612136565b92915050565b60006020828403121561217857612177612100565b5b60006121868482850161214d565b91505092915050565b60008115159050919050565b6121a48161218f565b82525050565b60006020820190506121bf600083018461219b565b92915050565b600081519050919050565b600082825260208201905092915050565b60005b838110156121ff5780820151818401526020810190506121e4565b60008484015250505050565b6000601f19601f8301169050919050565b6000612227826121c5565b61223181856121d0565b93506122418185602086016121e1565b61224a8161220b565b840191505092915050565b6000602082019050818103600083015261226f818461221c565b905092915050565b6000819050919050565b61228a81612277565b811461229557600080fd5b50565b6000813590506122a781612281565b92915050565b6000602082840312156122c3576122c2612100565b5b60006122d184828501612298565b91505092915050565b600073ffffffffffffffffffffffffffffffffffffffff82169050919050565b6000612305826122da565b9050919050565b612315816122fa565b82525050565b6000602082019050612330600083018461230c565b92915050565b61233f816122fa565b811461234a57600080fd5b50565b60008135905061235c81612336565b92915050565b6000806040838503121561237957612378612100565b5b60006123878582860161234d565b925050602061239885828601612298565b9150509250929050565b6000806000606084860312156123bb576123ba612100565b5b60006123c98682870161234d565b93505060206123da8682870161234d565b92505060406123eb86828701612298565b9150509250925092565b60006020828403121561240b5761240a612100565b5b60006124198482850161234d565b91505092915050565b61242b81612277565b82525050565b60006020820190506124466000830184612422565b92915050565b6124558161218f565b811461246057600080fd5b50565b6000813590506124728161244c565b92915050565b6000806040838503121561248f5761248e612100565b5b600061249d8582860161234d565b92505060206124ae85828601612463565b9150509250929050565b600080fd5b600080fd5b7f4e487b7100000000000000000000000000000000000000000000000000000000600052604160045260246000fd5b6124fa8261220b565b810181811067ffffffffffffffff82111715612519576125186124c2565b5b80604052505050565b600061252c6120f6565b905061253882826124f1565b919050565b600067ffffffffffffffff821115612558576125576124c2565b5b6125618261220b565b9050602081019050919050565b82818337600083830152505050565b600061259061258b8461253d565b612522565b9050828152602081018484840111156125ac576125ab6124bd565b5b6125b784828561256e565b509392505050565b600082601f8301126125d4576125d36124b8565b5b81356125e484826020860161257d565b91505092915050565b6000806000806080858703121561260757612606612100565b5b600061261587828801612298565b94505060206126268782880161234d565b935050604061263787828801612298565b925050606085013567ffffffffffffffff81111561265857612657612105565b5b612664878288016125bf565b91505092959194509250565b600067ffffffffffffffff82111561268b5761268a6124c2565b5b6126948261220b565b9050602081019050919050565b60006126b46126af84612670565b612522565b9050828152602081018484840111156126d0576126cf6124bd565b5b6126db84828561256e565b509392505050565b600082601f8301126126f8576126f76124b8565b5b81356127088482602086016126a1565b91505092915050565b6000806000806080858703121561272b5761272a612100565b5b60006127398782880161234d565b945050602061274a8782880161234d565b935050604061275b87828801612298565b925050606085013567ffffffffffffffff81111561277c5761277b612105565b5b612788878288016126e3565b91505092959194509250565b600067ffffffffffffffff8211156127af576127ae6124c2565b5b602082029050602081019050919050565b600080fd5b60006127d86127d384612794565b612522565b905080838252602082019050602084028301858111156127fb576127fa6127c0565b5b835b818110156128245780612810888261234d565b8452602084019350506020810190506127fd565b5050509392505050565b600082601f830112612843576128426124b8565b5b81356128538482602086016127c5565b91505092915050565b60006020828403121561287257612871612100565b5b600082013567ffffffffffffffff8111156128905761288f612105565b5b61289c8482850161282e565b91505092915050565b600080604083850312156128bc576128bb612100565b5b60006128ca8582860161234d565b92505060206128db8582860161234d565b9150509250929050565b7f4e487b7100000000000000000000000000000000000000000000000000000000600052602260045260246000fd5b6000600282049050600182168061292c57607f821691505b60208210810361293f5761293e6128e5565b5b50919050565b7f4b495031373a20617070726f76656420717565727920666f72206e6f6e65786960008201527f7374656e7420746f6b656e000000000000000000000000000000000000000000602082015250565b60006129a1602b836121d0565b91506129ac82612945565b604082019050919050565b600060208201905081810360008301526129d081612994565b9050919050565b7f4b495031373a20617070726f76616c20746f2063757272656e74206f776e6572600082015250565b6000612a0d6020836121d0565b9150612a18826129d7565b602082019050919050565b60006020820190508181036000830152612a3c81612a00565b9050919050565b7f4b495031373a20617070726f76652063616c6c6572206973206e6f74206f776e60008201527f6572206e6f7220617070726f76656420666f7220616c6c000000000000000000602082015250565b6000612a9f6037836121d0565b9150612aaa82612a43565b604082019050919050565b60006020820190508181036000830152612ace81612a92565b9050919050565b7f6f776e6572206973206e6f7420616c6c6f7720746f2073656e64204e46540000600082015250565b6000612b0b601e836121d0565b9150612b1682612ad5565b602082019050919050565b60006020820190508181036000830152612b3a81612afe565b9050919050565b7f4b495031373a207472616e736665722063616c6c6572206973206e6f74206f7760008201527f6e6572206e6f7220617070726f76656400000000000000000000000000000000602082015250565b6000612b9d6030836121d0565b9150612ba882612b41565b604082019050919050565b60006020820190508181036000830152612bcc81612b90565b9050919050565b7f4b495031373a206f776e657220717565727920666f72206e6f6e65786973746560008201527f6e7420746f6b656e000000000000000000000000000000000000000000000000602082015250565b6000612c2f6028836121d0565b9150612c3a82612bd3565b604082019050919050565b60006020820190508181036000830152612c5e81612c22565b9050919050565b7f4b495031373a2061646472657373207a65726f206973206e6f7420612076616c60008201527f6964206f776e6572000000000000000000000000000000000000000000000000602082015250565b6000612cc16028836121d0565b9150612ccc82612c65565b604082019050919050565b60006020820190508181036000830152612cf081612cb4565b9050919050565b7f4f776e61626c653a2063616c6c6572206973206e6f7420746865206f776e6572600082015250565b6000612d2d6020836121d0565b9150612d3882612cf7565b602082019050919050565b60006020820190508181036000830152612d5c81612d20565b9050919050565b7f596f75206e65656420746f2062652077686974656c6973746564000000000000600082015250565b6000612d99601a836121d0565b9150612da482612d63565b602082019050919050565b60006020820190508181036000830152612dc881612d8c565b9050919050565b7f4b4950313755524953746f726167653a2055524920717565727920666f72206e60008201527f6f6e6578697374656e7420746f6b656e00000000000000000000000000000000602082015250565b6000612e2b6030836121d0565b9150612e3682612dcf565b604082019050919050565b60006020820190508181036000830152612e5a81612e1e565b9050919050565b600081905092915050565b6000612e77826121c5565b612e818185612e61565b9350612e918185602086016121e1565b80840191505092915050565b6000612ea98285612e6c565b9150612eb58284612e6c565b91508190509392505050565b7f4e487b7100000000000000000000000000000000000000000000000000000000600052603260045260246000fd5b7f636865636b20796f7572206c6973740000000000000000000000000000000000600082015250565b6000612f26600f836121d0565b9150612f3182612ef0565b602082019050919050565b60006020820190508181036000830152612f5581612f19565b9050919050565b7f4e487b7100000000000000000000000000000000000000000000000000000000600052601160045260246000fd5b6000612f9682612277565b91507fffffffffffffffffffffffffffffffffffffffffffffffffffffffffffffffff8203612fc857612fc7612f5c565b5b600182019050919050565b7f4f776e61626c653a206e6577206f776e657220697320746865207a65726f206160008201527f6464726573730000000000000000000000000000000000000000000000000000602082015250565b600061302f6026836121d0565b915061303a82612fd3565b604082019050919050565b6000602082019050818103600083015261305e81613022565b9050919050565b7f4b495031373a206f70657261746f7220717565727920666f72206e6f6e65786960008201527f7374656e7420746f6b656e000000000000000000000000000000000000000000602082015250565b60006130c1602b836121d0565b91506130cc82613065565b604082019050919050565b600060208201905081810360008301526130f0816130b4565b9050919050565b7f4b495031373a207472616e736665722066726f6d20696e636f7272656374206f60008201527f776e657200000000000000000000000000000000000000000000000000000000602082015250565b60006131536024836121d0565b915061315e826130f7565b604082019050919050565b6000602082019050818103600083015261318281613146565b9050919050565b7f4b495031373a207472616e7366657220746f20746865207a65726f206164647260008201527f6573730000000000000000000000000000000000000000000000000000000000602082015250565b60006131e56023836121d0565b91506131f082613189565b604082019050919050565b60006020820190508181036000830152613214816131d8565b9050919050565b600061322682612277565b915061323183612277565b925082820390508181111561324957613248612f5c565b5b92915050565b600061325a82612277565b915061326583612277565b925082820190508082111561327d5761327c612f5c565b5b92915050565b7f4b495031373a20617070726f766520746f2063616c6c65720000000000000000600082015250565b60006132b96018836121d0565b91506132c482613283565b602082019050919050565b600060208201905081810360008301526132e8816132ac565b9050919050565b7f4b4950313755524953746f726167653a2055524920736574206f66206e6f6e6560008201527f78697374656e7420746f6b656e00000000000000000000000000000000000000602082015250565b600061334b602d836121d0565b9150613356826132ef565b604082019050919050565b6000602082019050818103600083015261337a8161333e565b9050919050565b60008190508160005260206000209050919050565b60006020601f8301049050919050565b600082821b905092915050565b6000600883026133e37fffffffffffffffffffffffffffffffffffffffffffffffffffffffffffffffff826133a6565b6133ed86836133a6565b95508019841693508086168417925050509392505050565b6000819050919050565b600061342a61342561342084612277565b613405565b612277565b9050919050565b6000819050919050565b6134448361340f565b61345861345082613431565b8484546133b3565b825550505050565b600090565b61346d613460565b61347881848461343b565b505050565b5b8181101561349c57613491600082613465565b60018101905061347e565b5050565b601f8211156134e1576134b281613381565b6134bb84613396565b810160208510156134ca578190505b6134de6134d685613396565b83018261347d565b50505b505050565b600082821c905092915050565b6000613504600019846008026134e6565b1980831691505092915050565b600061351d83836134f3565b9150826002028217905092915050565b613536826121c5565b67ffffffffffffffff81111561354f5761354e6124c2565b5b6135598254612914565b6135648282856134a0565b600060209050601f8311600181146135975760008415613585578287015190505b61358f8582613511565b8655506135f7565b601f1984166135a586613381565b60005b828110156135cd578489015182556001820191506020850194506020810190506135a8565b868310156135ea57848901516135e6601f8916826134f3565b8355505b6001600288020188555050505b505050505050565b7f4b495031373a207472616e7366657220746f206e6f6e20494b4950313752656360008201527f65697665722f49455243373231526563656976657220696d706c656d656e746560208201527f7200000000000000000000000000000000000000000000000000000000000000604082015250565b60006136816041836121d0565b915061368c826135ff565b606082019050919050565b600060208201905081810360008301526136b081613674565b9050919050565b7f4b495031374d657461646174613a2055524920717565727920666f72206e6f6e60008201527f6578697374656e7420746f6b656e000000000000000000000000000000000000602082015250565b6000613713602e836121d0565b915061371e826136b7565b604082019050919050565b6000602082019050818103600083015261374281613706565b9050919050565b600081519050919050565b600082825260208201905092915050565b600061377082613749565b61377a8185613754565b935061378a8185602086016121e1565b6137938161220b565b840191505092915050565b60006080820190506137b3600083018761230c565b6137c0602083018661230c565b6137cd6040830185612422565b81810360608301526137df8184613765565b905095945050505050565b6000815190506137f981612136565b92915050565b60006020828403121561381557613814612100565b5b6000613823848285016137ea565b91505092915050565b7f4e487b7100000000000000000000000000000000000000000000000000000000600052601260045260246000fd5b600061386682612277565b915061387183612277565b9250826138815761388061382c565b5b828204905092915050565b600061389782612277565b91506138a283612277565b9250826138b2576138b161382c565b5b828206905092915050565b7f4b495031373a206d696e7420746f20746865207a65726f206164647265737300600082015250565b60006138f3601f836121d0565b91506138fe826138bd565b602082019050919050565b60006020820190508181036000830152613922816138e6565b9050919050565b7f4b495031373a20746f6b656e20616c7265616479206d696e7465640000000000600082015250565b600061395f601b836121d0565b915061396a82613929565b602082019050919050565b6000602082019050818103600083015261398e81613952565b905091905056fea2646970667358221220092cec6c5369cba68f7b1187709897a0e0ecd647fbb8b6c44f5e2e6b1f510fea64736f6c63430008110033",
  "immutableReferences": {},
  "source": "// SPDX-License-Identifier: MIT\npragma solidity ^0.8.0;\n\n\nimport \"../node_modules/@klaytn/contracts/KIP/token/KIP17/extensions/KIP17URIStorage.sol\";\nimport \"../node_modules/@klaytn/contracts/access/Ownable.sol\";\nimport \"../node_modules/@klaytn/contracts/utils/Counters.sol\";\n\ncontract SKNFT2 is KIP17URIStorage, Ownable {\n    using Counters for Counters.Counter;\n    Counters.Counter private _tokenIds;\n    mapping(address => bool) whitelistedAddresses;\n    bool public permission;\n\n    constructor() public KIP17(\"SKUNK\", \"SK\") {}\n\n    modifier isWhitelisted() {\n        require(whitelistedAddresses[msg.sender], \"You need to be whitelisted\");\n        _;\n    }\n\n    function changePermission() external onlyOwner {\n        permission = !permission;\n    }\n\n    function addUser(address[] memory whitelist) public onlyOwner {\n        for (uint256 i = 0; i < whitelist.length; i++) {\n            require(!whitelistedAddresses[whitelist[i]], \"check your list\");\n            whitelistedAddresses[whitelist[i]] = true;\n        }\n    }\n\n    function verifyUser(address _whitelistedAddress)\n        public\n        view\n        returns (bool)\n    {\n        return whitelistedAddresses[_whitelistedAddress];\n    }\n\n    function mintNFT(uint badge, address to, uint tokenId, string memory tokenURI)\n        public\n        isWhitelisted\n        returns (uint256)\n    {\n     //   require(ownerOf(tokenId) == address(0), 'already in owner');\n        _safeMint(to, tokenId);\n        _setTokenURI(tokenId, tokenURI);\n        return tokenId;\n    }\n    //NFT  ON / OFF  override require   \n    function transferFrom(\n        address from,\n        address to,\n        uint256 tokenId\n    ) public virtual override {\n      require(permission,\"owner is not allow to send NFT\");\n      require(_isApprovedOrOwner(_msgSender(), tokenId), \"KIP17: transfer caller is not owner nor approved\");\n        _transfer(from, to, tokenId);\n    }\n\n    function safeTransferFrom(\n        address from,\n        address to,\n        uint256 tokenId\n    ) public virtual override {\n        require(permission,\"owner is not allow to send NFT\");\n        safeTransferFrom(from, to, tokenId, \"\");\n    }\n}\n",
  "sourcePath": "/Users/anhyeongjun/Desktop/solidity/Klaytn/sk_sunny/contracts/SKNFT2.sol",
  "compiler": {
    "name": "solc",
    "version": "0.8.17+commit.8df45f5f.Emscripten.clang"
  },
  "schemaVersion": "3.4.7",
  "updatedAt": "2022-11-25T05:16:11.825Z",
  "networkType": "ethereum",
  "devdoc": {
    "kind": "dev",
    "methods": {
      "approve(address,uint256)": {
        "details": "See {IKIP17-approve}."
      },
      "balanceOf(address)": {
        "details": "See {IKIP17-balanceOf}."
      },
      "getApproved(uint256)": {
        "details": "See {IKIP17-getApproved}."
      },
      "isApprovedForAll(address,address)": {
        "details": "See {IKIP17-isApprovedForAll}."
      },
      "name()": {
        "details": "See {IKIP17Metadata-name}."
      },
      "owner()": {
        "details": "Returns the address of the current owner."
      },
      "ownerOf(uint256)": {
        "details": "See {IKIP17-ownerOf}."
      },
      "renounceOwnership()": {
        "details": "Leaves the contract without owner. It will not be possible to call `onlyOwner` functions anymore. Can only be called by the current owner. NOTE: Renouncing ownership will leave the contract without an owner, thereby removing any functionality that is only available to the owner."
      },
      "safeTransferFrom(address,address,uint256)": {
        "details": "See {IKIP17-safeTransferFrom}."
      },
      "safeTransferFrom(address,address,uint256,bytes)": {
        "details": "See {IKIP17-safeTransferFrom}."
      },
      "setApprovalForAll(address,bool)": {
        "details": "See {IKIP17-setApprovalForAll}."
      },
      "supportsInterface(bytes4)": {
        "details": "See {IKIP13-supportsInterface}."
      },
      "symbol()": {
        "details": "See {IKIP17Metadata-symbol}."
      },
      "tokenURI(uint256)": {
        "details": "See {IKIP17Metadata-tokenURI}."
      },
      "transferFrom(address,address,uint256)": {
        "details": "See {IKIP17-transferFrom}."
      },
      "transferOwnership(address)": {
        "details": "Transfers ownership of the contract to a new account (`newOwner`). Can only be called by the current owner."
      }
    },
    "version": 1
  },
  "userdoc": {
    "kind": "user",
    "methods": {},
    "version": 1
  }
}