{
  "contractName": "TestNFT",
  "abi": [
    {
      "inputs": [],
      "stateMutability": "nonpayable",
      "type": "constructor"
    },
    {
      "anonymous": false,
      "inputs": [
        {
          "indexed": true,
          "internalType": "address",
          "name": "owner",
          "type": "address"
        },
        {
          "indexed": true,
          "internalType": "address",
          "name": "approved",
          "type": "address"
        },
        {
          "indexed": true,
          "internalType": "uint256",
          "name": "tokenId",
          "type": "uint256"
        }
      ],
      "name": "Approval",
      "type": "event"
    },
    {
      "anonymous": false,
      "inputs": [
        {
          "indexed": true,
          "internalType": "address",
          "name": "owner",
          "type": "address"
        },
        {
          "indexed": true,
          "internalType": "address",
          "name": "operator",
          "type": "address"
        },
        {
          "indexed": false,
          "internalType": "bool",
          "name": "approved",
          "type": "bool"
        }
      ],
      "name": "ApprovalForAll",
      "type": "event"
    },
    {
      "anonymous": false,
      "inputs": [
        {
          "indexed": true,
          "internalType": "address",
          "name": "previousOwner",
          "type": "address"
        },
        {
          "indexed": true,
          "internalType": "address",
          "name": "newOwner",
          "type": "address"
        }
      ],
      "name": "OwnershipTransferred",
      "type": "event"
    },
    {
      "anonymous": false,
      "inputs": [
        {
          "indexed": true,
          "internalType": "address",
          "name": "from",
          "type": "address"
        },
        {
          "indexed": true,
          "internalType": "address",
          "name": "to",
          "type": "address"
        },
        {
          "indexed": true,
          "internalType": "uint256",
          "name": "tokenId",
          "type": "uint256"
        }
      ],
      "name": "Transfer",
      "type": "event"
    },
    {
      "inputs": [],
      "name": "allow",
      "outputs": [
        {
          "internalType": "bool",
          "name": "",
          "type": "bool"
        }
      ],
      "stateMutability": "view",
      "type": "function"
    },
    {
      "inputs": [
        {
          "internalType": "address",
          "name": "to",
          "type": "address"
        },
        {
          "internalType": "uint256",
          "name": "tokenId",
          "type": "uint256"
        }
      ],
      "name": "approve",
      "outputs": [],
      "stateMutability": "nonpayable",
      "type": "function"
    },
    {
      "inputs": [
        {
          "internalType": "address",
          "name": "owner",
          "type": "address"
        }
      ],
      "name": "balanceOf",
      "outputs": [
        {
          "internalType": "uint256",
          "name": "",
          "type": "uint256"
        }
      ],
      "stateMutability": "view",
      "type": "function"
    },
    {
      "inputs": [
        {
          "internalType": "uint256",
          "name": "tokenId",
          "type": "uint256"
        }
      ],
      "name": "getApproved",
      "outputs": [
        {
          "internalType": "address",
          "name": "",
          "type": "address"
        }
      ],
      "stateMutability": "view",
      "type": "function"
    },
    {
      "inputs": [
        {
          "internalType": "address",
          "name": "owner",
          "type": "address"
        },
        {
          "internalType": "address",
          "name": "operator",
          "type": "address"
        }
      ],
      "name": "isApprovedForAll",
      "outputs": [
        {
          "internalType": "bool",
          "name": "",
          "type": "bool"
        }
      ],
      "stateMutability": "view",
      "type": "function"
    },
    {
      "inputs": [],
      "name": "name",
      "outputs": [
        {
          "internalType": "string",
          "name": "",
          "type": "string"
        }
      ],
      "stateMutability": "view",
      "type": "function"
    },
    {
      "inputs": [],
      "name": "owner",
      "outputs": [
        {
          "internalType": "address",
          "name": "",
          "type": "address"
        }
      ],
      "stateMutability": "view",
      "type": "function"
    },
    {
      "inputs": [
        {
          "internalType": "uint256",
          "name": "tokenId",
          "type": "uint256"
        }
      ],
      "name": "ownerOf",
      "outputs": [
        {
          "internalType": "address",
          "name": "",
          "type": "address"
        }
      ],
      "stateMutability": "view",
      "type": "function"
    },
    {
      "inputs": [],
      "name": "renounceOwnership",
      "outputs": [],
      "stateMutability": "nonpayable",
      "type": "function"
    },
    {
      "inputs": [
        {
          "internalType": "address",
          "name": "from",
          "type": "address"
        },
        {
          "internalType": "address",
          "name": "to",
          "type": "address"
        },
        {
          "internalType": "uint256",
          "name": "tokenId",
          "type": "uint256"
        }
      ],
      "name": "safeTransferFrom",
      "outputs": [],
      "stateMutability": "nonpayable",
      "type": "function"
    },
    {
      "inputs": [
        {
          "internalType": "address",
          "name": "from",
          "type": "address"
        },
        {
          "internalType": "address",
          "name": "to",
          "type": "address"
        },
        {
          "internalType": "uint256",
          "name": "tokenId",
          "type": "uint256"
        },
        {
          "internalType": "bytes",
          "name": "_data",
          "type": "bytes"
        }
      ],
      "name": "safeTransferFrom",
      "outputs": [],
      "stateMutability": "nonpayable",
      "type": "function"
    },
    {
      "inputs": [
        {
          "internalType": "address",
          "name": "operator",
          "type": "address"
        },
        {
          "internalType": "bool",
          "name": "approved",
          "type": "bool"
        }
      ],
      "name": "setApprovalForAll",
      "outputs": [],
      "stateMutability": "nonpayable",
      "type": "function"
    },
    {
      "inputs": [
        {
          "internalType": "bytes4",
          "name": "interfaceId",
          "type": "bytes4"
        }
      ],
      "name": "supportsInterface",
      "outputs": [
        {
          "internalType": "bool",
          "name": "",
          "type": "bool"
        }
      ],
      "stateMutability": "view",
      "type": "function"
    },
    {
      "inputs": [],
      "name": "symbol",
      "outputs": [
        {
          "internalType": "string",
          "name": "",
          "type": "string"
        }
      ],
      "stateMutability": "view",
      "type": "function"
    },
    {
      "inputs": [
        {
          "internalType": "uint256",
          "name": "tokenId",
          "type": "uint256"
        }
      ],
      "name": "tokenURI",
      "outputs": [
        {
          "internalType": "string",
          "name": "",
          "type": "string"
        }
      ],
      "stateMutability": "view",
      "type": "function"
    },
    {
      "inputs": [
        {
          "internalType": "address",
          "name": "newOwner",
          "type": "address"
        }
      ],
      "name": "transferOwnership",
      "outputs": [],
      "stateMutability": "nonpayable",
      "type": "function"
    },
    {
      "inputs": [],
      "name": "changeAllowState",
      "outputs": [],
      "stateMutability": "nonpayable",
      "type": "function"
    },
    {
      "inputs": [
        {
          "internalType": "address[]",
          "name": "whitelist",
          "type": "address[]"
        }
      ],
      "name": "addUser",
      "outputs": [],
      "stateMutability": "nonpayable",
      "type": "function"
    },
    {
      "inputs": [
        {
          "internalType": "address",
          "name": "_whitelistedAddress",
          "type": "address"
        }
      ],
      "name": "verifyUser",
      "outputs": [
        {
          "internalType": "bool",
          "name": "",
          "type": "bool"
        }
      ],
      "stateMutability": "view",
      "type": "function"
    },
    {
      "inputs": [
        {
          "internalType": "string",
          "name": "tokenURI",
          "type": "string"
        }
      ],
      "name": "mintNFT",
      "outputs": [
        {
          "internalType": "uint256",
          "name": "",
          "type": "uint256"
        }
      ],
      "stateMutability": "nonpayable",
      "type": "function"
    },
    {
      "inputs": [
        {
          "internalType": "address",
          "name": "from",
          "type": "address"
        },
        {
          "internalType": "address",
          "name": "to",
          "type": "address"
        },
        {
          "internalType": "uint256",
          "name": "tokenId",
          "type": "uint256"
        }
      ],
      "name": "transferFrom",
      "outputs": [],
      "stateMutability": "nonpayable",
      "type": "function"
    }
  ],
  "bytecode": "0x60806040523480156200001157600080fd5b506040518060400160405280600581526020017f534b554e4b0000000000000000000000000000000000000000000000000000008152506040518060400160405280600281526020017f534b000000000000000000000000000000000000000000000000000000000000815250816000908051906020019062000096929190620001a6565b508060019080519060200190620000af929190620001a6565b505050620000d2620000c6620000d860201b60201c565b620000e060201b60201c565b620002ba565b600033905090565b6000600760009054906101000a900473ffffffffffffffffffffffffffffffffffffffff16905081600760006101000a81548173ffffffffffffffffffffffffffffffffffffffff021916908373ffffffffffffffffffffffffffffffffffffffff1602179055508173ffffffffffffffffffffffffffffffffffffffff168173ffffffffffffffffffffffffffffffffffffffff167f8be0079c531659141344cd1fd0a4f28419497f9722a3daafe3b4186f6b6457e060405160405180910390a35050565b828054620001b49062000285565b90600052602060002090601f016020900481019282620001d8576000855562000224565b82601f10620001f357805160ff191683800117855562000224565b8280016001018555821562000224579182015b828111156200022357825182559160200191906001019062000206565b5b50905062000233919062000237565b5090565b5b808211156200025257600081600090555060010162000238565b5090565b7f4e487b7100000000000000000000000000000000000000000000000000000000600052602260045260246000fd5b600060028204905060018216806200029e57607f821691505b602082108103620002b457620002b362000256565b5b50919050565b61373880620002ca6000396000f3fe608060405234801561001057600080fd5b50600436106101375760003560e01c80638da5cb5b116100b8578063b88d4fde1161007c578063b88d4fde14610328578063c87b56dd14610344578063cdfca7f214610374578063e985e9c514610390578063f2fde38b146103c0578063fb37e883146103dc57610137565b80638da5cb5b146102a857806395d89b41146102c65780639fb99cd7146102e4578063a22cb465146102ee578063b1b3d3f61461030a57610137565b806342842e0e116100ff57806342842e0e146101f25780634d8131201461020e5780636352211e1461023e57806370a082311461026e578063715018a61461029e57610137565b806301ffc9a71461013c57806306fdde031461016c578063081812fc1461018a578063095ea7b3146101ba57806323b872dd146101d6575b600080fd5b6101566004803603810190610151919061215c565b61040c565b60405161016391906121a4565b60405180910390f35b6101746104ee565b6040516101819190612258565b60405180910390f35b6101a4600480360381019061019f91906122b0565b610580565b6040516101b1919061231e565b60405180910390f35b6101d460048036038101906101cf9190612365565b610605565b005b6101f060048036038101906101eb91906123a5565b61071c565b005b61020c600480360381019061020791906123a5565b6107bd565b005b610228600480360381019061022391906123f8565b6107dd565b60405161023591906121a4565b60405180910390f35b610258600480360381019061025391906122b0565b610833565b604051610265919061231e565b60405180910390f35b610288600480360381019061028391906123f8565b6108e4565b6040516102959190612434565b60405180910390f35b6102a661099b565b005b6102b0610a23565b6040516102bd919061231e565b60405180910390f35b6102ce610a4d565b6040516102db9190612258565b60405180910390f35b6102ec610adf565b005b6103086004803603810190610303919061247b565b610b87565b005b610312610b9d565b60405161031f91906121a4565b60405180910390f35b610342600480360381019061033d91906125f0565b610bb0565b005b61035e600480360381019061035991906122b0565b610c12565b60405161036b9190612258565b60405180910390f35b61038e6004803603810190610389919061273b565b610d63565b005b6103aa60048036038101906103a59190612784565b610f1b565b6040516103b791906121a4565b60405180910390f35b6103da60048036038101906103d591906123f8565b610faf565b005b6103f660048036038101906103f19190612865565b6110a6565b6040516104039190612434565b60405180910390f35b60007f80ac58cd000000000000000000000000000000000000000000000000000000007bffffffffffffffffffffffffffffffffffffffffffffffffffffffff1916827bffffffffffffffffffffffffffffffffffffffffffffffffffffffff191614806104d757507f5b5e139f000000000000000000000000000000000000000000000000000000007bffffffffffffffffffffffffffffffffffffffffffffffffffffffff1916827bffffffffffffffffffffffffffffffffffffffffffffffffffffffff1916145b806104e757506104e682611169565b5b9050919050565b6060600080546104fd906128dd565b80601f0160208091040260200160405190810160405280929190818152602001828054610529906128dd565b80156105765780601f1061054b57610100808354040283529160200191610576565b820191906000526020600020905b81548152906001019060200180831161055957829003601f168201915b5050505050905090565b600061058b826111d3565b6105ca576040517f08c379a00000000000000000000000000000000000000000000000000000000081526004016105c190612980565b60405180910390fd5b6004600083815260200190815260200160002060009054906101000a900473ffffffffffffffffffffffffffffffffffffffff169050919050565b600061061082610833565b90508073ffffffffffffffffffffffffffffffffffffffff168373ffffffffffffffffffffffffffffffffffffffff1603610680576040517f08c379a0000000000000000000000000000000000000000000000000000000008152600401610677906129ec565b60405180910390fd5b8073ffffffffffffffffffffffffffffffffffffffff1661069f61123f565b73ffffffffffffffffffffffffffffffffffffffff1614806106ce57506106cd816106c861123f565b610f1b565b5b61070d576040517f08c379a000000000000000000000000000000000000000000000000000000000815260040161070490612a7e565b60405180910390fd5b6107178383611247565b505050565b600061075d576040517f08c379a000000000000000000000000000000000000000000000000000000000815260040161075490612aea565b60405180910390fd5b61076e61076861123f565b82611300565b6107ad576040517f08c379a00000000000000000000000000000000000000000000000000000000081526004016107a490612b7c565b60405180910390fd5b6107b88383836113de565b505050565b6107d883838360405180602001604052806000815250610bb0565b505050565b6000600960008373ffffffffffffffffffffffffffffffffffffffff1673ffffffffffffffffffffffffffffffffffffffff16815260200190815260200160002060009054906101000a900460ff169050919050565b6000806002600084815260200190815260200160002060009054906101000a900473ffffffffffffffffffffffffffffffffffffffff169050600073ffffffffffffffffffffffffffffffffffffffff168173ffffffffffffffffffffffffffffffffffffffff16036108db576040517f08c379a00000000000000000000000000000000000000000000000000000000081526004016108d290612c0e565b60405180910390fd5b80915050919050565b60008073ffffffffffffffffffffffffffffffffffffffff168273ffffffffffffffffffffffffffffffffffffffff1603610954576040517f08c379a000000000000000000000000000000000000000000000000000000000815260040161094b90612ca0565b60405180910390fd5b600360008373ffffffffffffffffffffffffffffffffffffffff1673ffffffffffffffffffffffffffffffffffffffff168152602001908152602001600020549050919050565b6109a361123f565b73ffffffffffffffffffffffffffffffffffffffff166109c1610a23565b73ffffffffffffffffffffffffffffffffffffffff1614610a17576040517f08c379a0000000000000000000000000000000000000000000000000000000008152600401610a0e90612d0c565b60405180910390fd5b610a216000611644565b565b6000600760009054906101000a900473ffffffffffffffffffffffffffffffffffffffff16905090565b606060018054610a5c906128dd565b80601f0160208091040260200160405190810160405280929190818152602001828054610a88906128dd565b8015610ad55780601f10610aaa57610100808354040283529160200191610ad5565b820191906000526020600020905b815481529060010190602001808311610ab857829003601f168201915b5050505050905090565b610ae761123f565b73ffffffffffffffffffffffffffffffffffffffff16610b05610a23565b73ffffffffffffffffffffffffffffffffffffffff1614610b5b576040517f08c379a0000000000000000000000000000000000000000000000000000000008152600401610b5290612d0c565b60405180910390fd5b600a60009054906101000a900460ff1615600a60006101000a81548160ff021916908315150217905550565b610b99610b9261123f565b838361170a565b5050565b600a60009054906101000a900460ff1681565b610bc1610bbb61123f565b83611300565b610c00576040517f08c379a0000000000000000000000000000000000000000000000000000000008152600401610bf790612b7c565b60405180910390fd5b610c0c84848484611876565b50505050565b6060610c1d826111d3565b610c5c576040517f08c379a0000000000000000000000000000000000000000000000000000000008152600401610c5390612d9e565b60405180910390fd5b6000600660008481526020019081526020016000208054610c7c906128dd565b80601f0160208091040260200160405190810160405280929190818152602001828054610ca8906128dd565b8015610cf55780601f10610cca57610100808354040283529160200191610cf5565b820191906000526020600020905b815481529060010190602001808311610cd857829003601f168201915b505050505090506000610d066118e5565b90506000815103610d1b578192505050610d5e565b600082511115610d50578082604051602001610d38929190612dfa565b60405160208183030381529060405292505050610d5e565b610d59846118fc565b925050505b919050565b610d6b61123f565b73ffffffffffffffffffffffffffffffffffffffff16610d89610a23565b73ffffffffffffffffffffffffffffffffffffffff1614610ddf576040517f08c379a0000000000000000000000000000000000000000000000000000000008152600401610dd690612d0c565b60405180910390fd5b60005b8151811015610f175760096000838381518110610e0257610e01612e1e565b5b602002602001015173ffffffffffffffffffffffffffffffffffffffff1673ffffffffffffffffffffffffffffffffffffffff16815260200190815260200160002060009054906101000a900460ff1615610e92576040517f08c379a0000000000000000000000000000000000000000000000000000000008152600401610e8990612e99565b60405180910390fd5b600160096000848481518110610eab57610eaa612e1e565b5b602002602001015173ffffffffffffffffffffffffffffffffffffffff1673ffffffffffffffffffffffffffffffffffffffff16815260200190815260200160002060006101000a81548160ff0219169083151502179055508080610f0f90612ee8565b915050610de2565b5050565b6000600560008473ffffffffffffffffffffffffffffffffffffffff1673ffffffffffffffffffffffffffffffffffffffff16815260200190815260200160002060008373ffffffffffffffffffffffffffffffffffffffff1673ffffffffffffffffffffffffffffffffffffffff16815260200190815260200160002060009054906101000a900460ff16905092915050565b610fb761123f565b73ffffffffffffffffffffffffffffffffffffffff16610fd5610a23565b73ffffffffffffffffffffffffffffffffffffffff161461102b576040517f08c379a000000000000000000000000000000000000000000000000000000000815260040161102290612d0c565b60405180910390fd5b600073ffffffffffffffffffffffffffffffffffffffff168173ffffffffffffffffffffffffffffffffffffffff160361109a576040517f08c379a000000000000000000000000000000000000000000000000000000000815260040161109190612fa2565b60405180910390fd5b6110a381611644565b50565b6000600960003373ffffffffffffffffffffffffffffffffffffffff1673ffffffffffffffffffffffffffffffffffffffff16815260200190815260200160002060009054906101000a900460ff16611134576040517f08c379a000000000000000000000000000000000000000000000000000000000815260040161112b9061300e565b60405180910390fd5b61113e60086119a3565b600061114a60086119b9565b905061115633826119c7565b6111608184611ba0565b80915050919050565b60007f01ffc9a7000000000000000000000000000000000000000000000000000000007bffffffffffffffffffffffffffffffffffffffffffffffffffffffff1916827bffffffffffffffffffffffffffffffffffffffffffffffffffffffff1916149050919050565b60008073ffffffffffffffffffffffffffffffffffffffff166002600084815260200190815260200160002060009054906101000a900473ffffffffffffffffffffffffffffffffffffffff1673ffffffffffffffffffffffffffffffffffffffff1614159050919050565b600033905090565b816004600083815260200190815260200160002060006101000a81548173ffffffffffffffffffffffffffffffffffffffff021916908373ffffffffffffffffffffffffffffffffffffffff160217905550808273ffffffffffffffffffffffffffffffffffffffff166112ba83610833565b73ffffffffffffffffffffffffffffffffffffffff167f8c5be1e5ebec7d5bd14f71427d1e84f3dd0314c0f7b2291e5b200ac8c7c3b92560405160405180910390a45050565b600061130b826111d3565b61134a576040517f08c379a0000000000000000000000000000000000000000000000000000000008152600401611341906130a0565b60405180910390fd5b600061135583610833565b90508073ffffffffffffffffffffffffffffffffffffffff168473ffffffffffffffffffffffffffffffffffffffff16148061139757506113968185610f1b565b5b806113d557508373ffffffffffffffffffffffffffffffffffffffff166113bd84610580565b73ffffffffffffffffffffffffffffffffffffffff16145b91505092915050565b8273ffffffffffffffffffffffffffffffffffffffff166113fe82610833565b73ffffffffffffffffffffffffffffffffffffffff1614611454576040517f08c379a000000000000000000000000000000000000000000000000000000000815260040161144b90613132565b60405180910390fd5b600073ffffffffffffffffffffffffffffffffffffffff168273ffffffffffffffffffffffffffffffffffffffff16036114c3576040517f08c379a00000000000000000000000000000000000000000000000000000000081526004016114ba906131c4565b60405180910390fd5b6114ce838383611c14565b6114d9600082611247565b6001600360008573ffffffffffffffffffffffffffffffffffffffff1673ffffffffffffffffffffffffffffffffffffffff168152602001908152602001600020600082825461152991906131e4565b925050819055506001600360008473ffffffffffffffffffffffffffffffffffffffff1673ffffffffffffffffffffffffffffffffffffffff16815260200190815260200160002060008282546115809190613218565b92505081905550816002600083815260200190815260200160002060006101000a81548173ffffffffffffffffffffffffffffffffffffffff021916908373ffffffffffffffffffffffffffffffffffffffff160217905550808273ffffffffffffffffffffffffffffffffffffffff168473ffffffffffffffffffffffffffffffffffffffff167fddf252ad1be2c89b69c2b068fc378daa952ba7f163c4a11628f55a4df523b3ef60405160405180910390a461163f838383611c19565b505050565b6000600760009054906101000a900473ffffffffffffffffffffffffffffffffffffffff16905081600760006101000a81548173ffffffffffffffffffffffffffffffffffffffff021916908373ffffffffffffffffffffffffffffffffffffffff1602179055508173ffffffffffffffffffffffffffffffffffffffff168173ffffffffffffffffffffffffffffffffffffffff167f8be0079c531659141344cd1fd0a4f28419497f9722a3daafe3b4186f6b6457e060405160405180910390a35050565b8173ffffffffffffffffffffffffffffffffffffffff168373ffffffffffffffffffffffffffffffffffffffff1603611778576040517f08c379a000000000000000000000000000000000000000000000000000000000815260040161176f906132ba565b60405180910390fd5b80600560008573ffffffffffffffffffffffffffffffffffffffff1673ffffffffffffffffffffffffffffffffffffffff16815260200190815260200160002060008473ffffffffffffffffffffffffffffffffffffffff1673ffffffffffffffffffffffffffffffffffffffff16815260200190815260200160002060006101000a81548160ff0219169083151502179055508173ffffffffffffffffffffffffffffffffffffffff168373ffffffffffffffffffffffffffffffffffffffff167f17307eab39ab6107e8899845ad3d59bd9653f200f220920489ca2b5937696c318360405161186991906121a4565b60405180910390a3505050565b6118818484846113de565b61188d84848484611c1e565b806118a0575061189f84848484611d74565b5b6118df576040517f08c379a00000000000000000000000000000000000000000000000000000000081526004016118d690613372565b60405180910390fd5b50505050565b606060405180602001604052806000815250905090565b6060611907826111d3565b611946576040517f08c379a000000000000000000000000000000000000000000000000000000000815260040161193d90613404565b60405180910390fd5b60006119506118e5565b90506000815111611970576040518060200160405280600081525061199b565b8061197a84611eca565b60405160200161198b929190612dfa565b6040516020818303038152906040525b915050919050565b6001816000016000828254019250508190555050565b600081600001549050919050565b600073ffffffffffffffffffffffffffffffffffffffff168273ffffffffffffffffffffffffffffffffffffffff1603611a36576040517f08c379a0000000000000000000000000000000000000000000000000000000008152600401611a2d90613470565b60405180910390fd5b611a3f816111d3565b15611a7f576040517f08c379a0000000000000000000000000000000000000000000000000000000008152600401611a76906134dc565b60405180910390fd5b611a8b60008383611c14565b6001600360008473ffffffffffffffffffffffffffffffffffffffff1673ffffffffffffffffffffffffffffffffffffffff1681526020019081526020016000206000828254611adb9190613218565b92505081905550816002600083815260200190815260200160002060006101000a81548173ffffffffffffffffffffffffffffffffffffffff021916908373ffffffffffffffffffffffffffffffffffffffff160217905550808273ffffffffffffffffffffffffffffffffffffffff16600073ffffffffffffffffffffffffffffffffffffffff167fddf252ad1be2c89b69c2b068fc378daa952ba7f163c4a11628f55a4df523b3ef60405160405180910390a4611b9c60008383611c19565b5050565b611ba9826111d3565b611be8576040517f08c379a0000000000000000000000000000000000000000000000000000000008152600401611bdf9061356e565b60405180910390fd5b80600660008481526020019081526020016000209080519060200190611c0f92919061204d565b505050565b505050565b505050565b6000611c3f8473ffffffffffffffffffffffffffffffffffffffff1661202a565b15611d67578373ffffffffffffffffffffffffffffffffffffffff16636745782b611c6861123f565b8786866040518563ffffffff1660e01b8152600401611c8a94939291906135e3565b6020604051808303816000875af1925050508015611cc657506040513d601f19601f82011682018060405250810190611cc39190613644565b60015b611d17573d8060008114611cf6576040519150601f19603f3d011682016040523d82523d6000602084013e611cfb565b606091505b506000815103611d0f576000915050611d6c565b805181602001fd5b636745782b60e01b7bffffffffffffffffffffffffffffffffffffffffffffffffffffffff1916817bffffffffffffffffffffffffffffffffffffffffffffffffffffffff191614915050611d6c565b600190505b949350505050565b6000611d958473ffffffffffffffffffffffffffffffffffffffff1661202a565b15611ebd578373ffffffffffffffffffffffffffffffffffffffff1663150b7a02611dbe61123f565b8786866040518563ffffffff1660e01b8152600401611de094939291906135e3565b6020604051808303816000875af1925050508015611e1c57506040513d601f19601f82011682018060405250810190611e199190613644565b60015b611e6d573d8060008114611e4c576040519150601f19603f3d011682016040523d82523d6000602084013e611e51565b606091505b506000815103611e65576000915050611ec2565b805181602001fd5b63150b7a0260e01b7bffffffffffffffffffffffffffffffffffffffffffffffffffffffff1916817bffffffffffffffffffffffffffffffffffffffffffffffffffffffff191614915050611ec2565b600190505b949350505050565b606060008203611f11576040518060400160405280600181526020017f30000000000000000000000000000000000000000000000000000000000000008152509050612025565b600082905060005b60008214611f43578080611f2c90612ee8565b915050600a82611f3c91906136a0565b9150611f19565b60008167ffffffffffffffff811115611f5f57611f5e6124c5565b5b6040519080825280601f01601f191660200182016040528015611f915781602001600182028036833780820191505090505b5090505b6000851461201e57600182611faa91906131e4565b9150600a85611fb991906136d1565b6030611fc59190613218565b60f81b818381518110611fdb57611fda612e1e565b5b60200101907effffffffffffffffffffffffffffffffffffffffffffffffffffffffffffff1916908160001a905350600a8561201791906136a0565b9450611f95565b8093505050505b919050565b6000808273ffffffffffffffffffffffffffffffffffffffff163b119050919050565b828054612059906128dd565b90600052602060002090601f01602090048101928261207b57600085556120c2565b82601f1061209457805160ff19168380011785556120c2565b828001600101855582156120c2579182015b828111156120c15782518255916020019190600101906120a6565b5b5090506120cf91906120d3565b5090565b5b808211156120ec5760008160009055506001016120d4565b5090565b6000604051905090565b600080fd5b600080fd5b60007fffffffff0000000000000000000000000000000000000000000000000000000082169050919050565b61213981612104565b811461214457600080fd5b50565b60008135905061215681612130565b92915050565b600060208284031215612172576121716120fa565b5b600061218084828501612147565b91505092915050565b60008115159050919050565b61219e81612189565b82525050565b60006020820190506121b96000830184612195565b92915050565b600081519050919050565b600082825260208201905092915050565b60005b838110156121f95780820151818401526020810190506121de565b83811115612208576000848401525b50505050565b6000601f19601f8301169050919050565b600061222a826121bf565b61223481856121ca565b93506122448185602086016121db565b61224d8161220e565b840191505092915050565b60006020820190508181036000830152612272818461221f565b905092915050565b6000819050919050565b61228d8161227a565b811461229857600080fd5b50565b6000813590506122aa81612284565b92915050565b6000602082840312156122c6576122c56120fa565b5b60006122d48482850161229b565b91505092915050565b600073ffffffffffffffffffffffffffffffffffffffff82169050919050565b6000612308826122dd565b9050919050565b612318816122fd565b82525050565b6000602082019050612333600083018461230f565b92915050565b612342816122fd565b811461234d57600080fd5b50565b60008135905061235f81612339565b92915050565b6000806040838503121561237c5761237b6120fa565b5b600061238a85828601612350565b925050602061239b8582860161229b565b9150509250929050565b6000806000606084860312156123be576123bd6120fa565b5b60006123cc86828701612350565b93505060206123dd86828701612350565b92505060406123ee8682870161229b565b9150509250925092565b60006020828403121561240e5761240d6120fa565b5b600061241c84828501612350565b91505092915050565b61242e8161227a565b82525050565b60006020820190506124496000830184612425565b92915050565b61245881612189565b811461246357600080fd5b50565b6000813590506124758161244f565b92915050565b60008060408385031215612492576124916120fa565b5b60006124a085828601612350565b92505060206124b185828601612466565b9150509250929050565b600080fd5b600080fd5b7f4e487b7100000000000000000000000000000000000000000000000000000000600052604160045260246000fd5b6124fd8261220e565b810181811067ffffffffffffffff8211171561251c5761251b6124c5565b5b80604052505050565b600061252f6120f0565b905061253b82826124f4565b919050565b600067ffffffffffffffff82111561255b5761255a6124c5565b5b6125648261220e565b9050602081019050919050565b82818337600083830152505050565b600061259361258e84612540565b612525565b9050828152602081018484840111156125af576125ae6124c0565b5b6125ba848285612571565b509392505050565b600082601f8301126125d7576125d66124bb565b5b81356125e7848260208601612580565b91505092915050565b6000806000806080858703121561260a576126096120fa565b5b600061261887828801612350565b945050602061262987828801612350565b935050604061263a8782880161229b565b925050606085013567ffffffffffffffff81111561265b5761265a6120ff565b5b612667878288016125c2565b91505092959194509250565b600067ffffffffffffffff82111561268e5761268d6124c5565b5b602082029050602081019050919050565b600080fd5b60006126b76126b284612673565b612525565b905080838252602082019050602084028301858111156126da576126d961269f565b5b835b8181101561270357806126ef8882612350565b8452602084019350506020810190506126dc565b5050509392505050565b600082601f830112612722576127216124bb565b5b81356127328482602086016126a4565b91505092915050565b600060208284031215612751576127506120fa565b5b600082013567ffffffffffffffff81111561276f5761276e6120ff565b5b61277b8482850161270d565b91505092915050565b6000806040838503121561279b5761279a6120fa565b5b60006127a985828601612350565b92505060206127ba85828601612350565b9150509250929050565b600067ffffffffffffffff8211156127df576127de6124c5565b5b6127e88261220e565b9050602081019050919050565b6000612808612803846127c4565b612525565b905082815260208101848484011115612824576128236124c0565b5b61282f848285612571565b509392505050565b600082601f83011261284c5761284b6124bb565b5b813561285c8482602086016127f5565b91505092915050565b60006020828403121561287b5761287a6120fa565b5b600082013567ffffffffffffffff811115612899576128986120ff565b5b6128a584828501612837565b91505092915050565b7f4e487b7100000000000000000000000000000000000000000000000000000000600052602260045260246000fd5b600060028204905060018216806128f557607f821691505b602082108103612908576129076128ae565b5b50919050565b7f4b495031373a20617070726f76656420717565727920666f72206e6f6e65786960008201527f7374656e7420746f6b656e000000000000000000000000000000000000000000602082015250565b600061296a602b836121ca565b91506129758261290e565b604082019050919050565b600060208201905081810360008301526129998161295d565b9050919050565b7f4b495031373a20617070726f76616c20746f2063757272656e74206f776e6572600082015250565b60006129d66020836121ca565b91506129e1826129a0565b602082019050919050565b60006020820190508181036000830152612a05816129c9565b9050919050565b7f4b495031373a20617070726f76652063616c6c6572206973206e6f74206f776e60008201527f6572206e6f7220617070726f76656420666f7220616c6c000000000000000000602082015250565b6000612a686037836121ca565b9150612a7382612a0c565b604082019050919050565b60006020820190508181036000830152612a9781612a5b565b9050919050565b7f6f776e6572206973206e6f7420616c6c6f7720746f2073656e64204e46540000600082015250565b6000612ad4601e836121ca565b9150612adf82612a9e565b602082019050919050565b60006020820190508181036000830152612b0381612ac7565b9050919050565b7f4b495031373a207472616e736665722063616c6c6572206973206e6f74206f7760008201527f6e6572206e6f7220617070726f76656400000000000000000000000000000000602082015250565b6000612b666030836121ca565b9150612b7182612b0a565b604082019050919050565b60006020820190508181036000830152612b9581612b59565b9050919050565b7f4b495031373a206f776e657220717565727920666f72206e6f6e65786973746560008201527f6e7420746f6b656e000000000000000000000000000000000000000000000000602082015250565b6000612bf86028836121ca565b9150612c0382612b9c565b604082019050919050565b60006020820190508181036000830152612c2781612beb565b9050919050565b7f4b495031373a2061646472657373207a65726f206973206e6f7420612076616c60008201527f6964206f776e6572000000000000000000000000000000000000000000000000602082015250565b6000612c8a6028836121ca565b9150612c9582612c2e565b604082019050919050565b60006020820190508181036000830152612cb981612c7d565b9050919050565b7f4f776e61626c653a2063616c6c6572206973206e6f7420746865206f776e6572600082015250565b6000612cf66020836121ca565b9150612d0182612cc0565b602082019050919050565b60006020820190508181036000830152612d2581612ce9565b9050919050565b7f4b4950313755524953746f726167653a2055524920717565727920666f72206e60008201527f6f6e6578697374656e7420746f6b656e00000000000000000000000000000000602082015250565b6000612d886030836121ca565b9150612d9382612d2c565b604082019050919050565b60006020820190508181036000830152612db781612d7b565b9050919050565b600081905092915050565b6000612dd4826121bf565b612dde8185612dbe565b9350612dee8185602086016121db565b80840191505092915050565b6000612e068285612dc9565b9150612e128284612dc9565b91508190509392505050565b7f4e487b7100000000000000000000000000000000000000000000000000000000600052603260045260246000fd5b7f636865636b20796f7572206c6973740000000000000000000000000000000000600082015250565b6000612e83600f836121ca565b9150612e8e82612e4d565b602082019050919050565b60006020820190508181036000830152612eb281612e76565b9050919050565b7f4e487b7100000000000000000000000000000000000000000000000000000000600052601160045260246000fd5b6000612ef38261227a565b91507fffffffffffffffffffffffffffffffffffffffffffffffffffffffffffffffff8203612f2557612f24612eb9565b5b600182019050919050565b7f4f776e61626c653a206e6577206f776e657220697320746865207a65726f206160008201527f6464726573730000000000000000000000000000000000000000000000000000602082015250565b6000612f8c6026836121ca565b9150612f9782612f30565b604082019050919050565b60006020820190508181036000830152612fbb81612f7f565b9050919050565b7f596f75206e65656420746f2062652077686974656c6973746564000000000000600082015250565b6000612ff8601a836121ca565b915061300382612fc2565b602082019050919050565b6000602082019050818103600083015261302781612feb565b9050919050565b7f4b495031373a206f70657261746f7220717565727920666f72206e6f6e65786960008201527f7374656e7420746f6b656e000000000000000000000000000000000000000000602082015250565b600061308a602b836121ca565b91506130958261302e565b604082019050919050565b600060208201905081810360008301526130b98161307d565b9050919050565b7f4b495031373a207472616e736665722066726f6d20696e636f7272656374206f60008201527f776e657200000000000000000000000000000000000000000000000000000000602082015250565b600061311c6024836121ca565b9150613127826130c0565b604082019050919050565b6000602082019050818103600083015261314b8161310f565b9050919050565b7f4b495031373a207472616e7366657220746f20746865207a65726f206164647260008201527f6573730000000000000000000000000000000000000000000000000000000000602082015250565b60006131ae6023836121ca565b91506131b982613152565b604082019050919050565b600060208201905081810360008301526131dd816131a1565b9050919050565b60006131ef8261227a565b91506131fa8361227a565b92508282101561320d5761320c612eb9565b5b828203905092915050565b60006132238261227a565b915061322e8361227a565b9250827fffffffffffffffffffffffffffffffffffffffffffffffffffffffffffffffff0382111561326357613262612eb9565b5b828201905092915050565b7f4b495031373a20617070726f766520746f2063616c6c65720000000000000000600082015250565b60006132a46018836121ca565b91506132af8261326e565b602082019050919050565b600060208201905081810360008301526132d381613297565b9050919050565b7f4b495031373a207472616e7366657220746f206e6f6e20494b4950313752656360008201527f65697665722f49455243373231526563656976657220696d706c656d656e746560208201527f7200000000000000000000000000000000000000000000000000000000000000604082015250565b600061335c6041836121ca565b9150613367826132da565b606082019050919050565b6000602082019050818103600083015261338b8161334f565b9050919050565b7f4b495031374d657461646174613a2055524920717565727920666f72206e6f6e60008201527f6578697374656e7420746f6b656e000000000000000000000000000000000000602082015250565b60006133ee602e836121ca565b91506133f982613392565b604082019050919050565b6000602082019050818103600083015261341d816133e1565b9050919050565b7f4b495031373a206d696e7420746f20746865207a65726f206164647265737300600082015250565b600061345a601f836121ca565b915061346582613424565b602082019050919050565b600060208201905081810360008301526134898161344d565b9050919050565b7f4b495031373a20746f6b656e20616c7265616479206d696e7465640000000000600082015250565b60006134c6601b836121ca565b91506134d182613490565b602082019050919050565b600060208201905081810360008301526134f5816134b9565b9050919050565b7f4b4950313755524953746f726167653a2055524920736574206f66206e6f6e6560008201527f78697374656e7420746f6b656e00000000000000000000000000000000000000602082015250565b6000613558602d836121ca565b9150613563826134fc565b604082019050919050565b600060208201905081810360008301526135878161354b565b9050919050565b600081519050919050565b600082825260208201905092915050565b60006135b58261358e565b6135bf8185613599565b93506135cf8185602086016121db565b6135d88161220e565b840191505092915050565b60006080820190506135f8600083018761230f565b613605602083018661230f565b6136126040830185612425565b818103606083015261362481846135aa565b905095945050505050565b60008151905061363e81612130565b92915050565b60006020828403121561365a576136596120fa565b5b60006136688482850161362f565b91505092915050565b7f4e487b7100000000000000000000000000000000000000000000000000000000600052601260045260246000fd5b60006136ab8261227a565b91506136b68361227a565b9250826136c6576136c5613671565b5b828204905092915050565b60006136dc8261227a565b91506136e78361227a565b9250826136f7576136f6613671565b5b82820690509291505056fea2646970667358221220251722fae96760a15648ae54d431ff5e2ef608c1e1cfbafe1ff08ed72a1ebfc664736f6c634300080e0033",
  "immutableReferences": {},
  "source": "// SPDX-License-Identifier: MIT\npragma solidity ^0.8.0;\n\nimport \"@klaytn/contracts/KIP/token/KIP17/extensions/KIP17URIStorage.sol\";\nimport \"@klaytn/contracts/access/Ownable.sol\";\nimport \"@klaytn/contracts/utils/Counters.sol\";\n\ncontract TestNFT is KIP17URIStorage, Ownable {\n    using Counters for Counters.Counter;\n    Counters.Counter private _tokenIds;\n    mapping(address => bool) whitelistedAddresses;\n    bool public allow;\n\n    constructor() public KIP17(\"SKUNK\", \"SK\") {}\n\n    modifier isWhitelisted() {\n        require(whitelistedAddresses[msg.sender], \"You need to be whitelisted\");\n        _;\n    }\n\n    function changeAllowState()external onlyOwner {\n        allow = !allow;\n    }\n\n    function addUser(address[] memory whitelist) public onlyOwner {\n        for (uint256 i = 0; i < whitelist.length; i++) {\n            require(!whitelistedAddresses[whitelist[i]], \"check your list\");\n            whitelistedAddresses[whitelist[i]] = true;\n        }\n    }\n\n    function verifyUser(address _whitelistedAddress)\n        public\n        view\n        returns (bool)\n    {\n        return whitelistedAddresses[_whitelistedAddress];\n    }\n\n    function mintNFT(string memory tokenURI)\n        public\n        isWhitelisted\n        returns (uint256)\n    {\n        _tokenIds.increment();\n        uint256 newItemId = _tokenIds.current();\n        _mint(msg.sender, newItemId);\n        _setTokenURI(newItemId, tokenURI);\n        return newItemId;\n    }\n\n    function transferFrom(address from , address to, uint256 tokenId) public virtual override {\n      require(false,\"owner is not allow to send NFT\");\n      require(_isApprovedOrOwner(_msgSender(), tokenId), \"KIP17: transfer caller is not owner nor approved\");\n        _transfer(from, to, tokenId);\n    }\n}\n",
  "sourcePath": "/Users/anhyeongjun/Desktop/solidity/sk_sunny/contracts/NFT.sol",
  "compiler": {
    "name": "solc",
    "version": "0.8.14+commit.80d49f37.Emscripten.clang"
  },
  "schemaVersion": "3.4.7",
  "updatedAt": "2022-10-20T07:00:10.318Z",
  "devdoc": {
    "kind": "dev",
    "methods": {
      "approve(address,uint256)": {
        "details": "See {IKIP17-approve}."
      },
      "balanceOf(address)": {
        "details": "See {IKIP17-balanceOf}."
      },
      "getApproved(uint256)": {
        "details": "See {IKIP17-getApproved}."
      },
      "isApprovedForAll(address,address)": {
        "details": "See {IKIP17-isApprovedForAll}."
      },
      "name()": {
        "details": "See {IKIP17Metadata-name}."
      },
      "owner()": {
        "details": "Returns the address of the current owner."
      },
      "ownerOf(uint256)": {
        "details": "See {IKIP17-ownerOf}."
      },
      "renounceOwnership()": {
        "details": "Leaves the contract without owner. It will not be possible to call `onlyOwner` functions anymore. Can only be called by the current owner. NOTE: Renouncing ownership will leave the contract without an owner, thereby removing any functionality that is only available to the owner."
      },
      "safeTransferFrom(address,address,uint256)": {
        "details": "See {IKIP17-safeTransferFrom}."
      },
      "safeTransferFrom(address,address,uint256,bytes)": {
        "details": "See {IKIP17-safeTransferFrom}."
      },
      "setApprovalForAll(address,bool)": {
        "details": "See {IKIP17-setApprovalForAll}."
      },
      "supportsInterface(bytes4)": {
        "details": "See {IKIP13-supportsInterface}."
      },
      "symbol()": {
        "details": "See {IKIP17Metadata-symbol}."
      },
      "tokenURI(uint256)": {
        "details": "See {IKIP17Metadata-tokenURI}."
      },
      "transferFrom(address,address,uint256)": {
        "details": "See {IKIP17-transferFrom}."
      },
      "transferOwnership(address)": {
        "details": "Transfers ownership of the contract to a new account (`newOwner`). Can only be called by the current owner."
      }
    },
    "version": 1
  },
  "userdoc": {
    "kind": "user",
    "methods": {},
    "version": 1
  }
}