{
  "contractName": "TestNFT",
  "abi": [
    {
      "inputs": [],
      "stateMutability": "nonpayable",
      "type": "constructor"
    },
    {
      "anonymous": false,
      "inputs": [
        {
          "indexed": true,
          "internalType": "address",
          "name": "owner",
          "type": "address"
        },
        {
          "indexed": true,
          "internalType": "address",
          "name": "approved",
          "type": "address"
        },
        {
          "indexed": true,
          "internalType": "uint256",
          "name": "tokenId",
          "type": "uint256"
        }
      ],
      "name": "Approval",
      "type": "event"
    },
    {
      "anonymous": false,
      "inputs": [
        {
          "indexed": true,
          "internalType": "address",
          "name": "owner",
          "type": "address"
        },
        {
          "indexed": true,
          "internalType": "address",
          "name": "operator",
          "type": "address"
        },
        {
          "indexed": false,
          "internalType": "bool",
          "name": "approved",
          "type": "bool"
        }
      ],
      "name": "ApprovalForAll",
      "type": "event"
    },
    {
      "anonymous": false,
      "inputs": [
        {
          "indexed": true,
          "internalType": "address",
          "name": "previousOwner",
          "type": "address"
        },
        {
          "indexed": true,
          "internalType": "address",
          "name": "newOwner",
          "type": "address"
        }
      ],
      "name": "OwnershipTransferred",
      "type": "event"
    },
    {
      "anonymous": false,
      "inputs": [
        {
          "indexed": true,
          "internalType": "address",
          "name": "from",
          "type": "address"
        },
        {
          "indexed": true,
          "internalType": "address",
          "name": "to",
          "type": "address"
        },
        {
          "indexed": true,
          "internalType": "uint256",
          "name": "tokenId",
          "type": "uint256"
        }
      ],
      "name": "Transfer",
      "type": "event"
    },
    {
      "inputs": [
        {
          "internalType": "address",
          "name": "to",
          "type": "address"
        },
        {
          "internalType": "uint256",
          "name": "tokenId",
          "type": "uint256"
        }
      ],
      "name": "approve",
      "outputs": [],
      "stateMutability": "nonpayable",
      "type": "function"
    },
    {
      "inputs": [
        {
          "internalType": "address",
          "name": "owner",
          "type": "address"
        }
      ],
      "name": "balanceOf",
      "outputs": [
        {
          "internalType": "uint256",
          "name": "",
          "type": "uint256"
        }
      ],
      "stateMutability": "view",
      "type": "function"
    },
    {
      "inputs": [
        {
          "internalType": "uint256",
          "name": "tokenId",
          "type": "uint256"
        }
      ],
      "name": "getApproved",
      "outputs": [
        {
          "internalType": "address",
          "name": "",
          "type": "address"
        }
      ],
      "stateMutability": "view",
      "type": "function"
    },
    {
      "inputs": [
        {
          "internalType": "address",
          "name": "owner",
          "type": "address"
        },
        {
          "internalType": "address",
          "name": "operator",
          "type": "address"
        }
      ],
      "name": "isApprovedForAll",
      "outputs": [
        {
          "internalType": "bool",
          "name": "",
          "type": "bool"
        }
      ],
      "stateMutability": "view",
      "type": "function"
    },
    {
      "inputs": [],
      "name": "name",
      "outputs": [
        {
          "internalType": "string",
          "name": "",
          "type": "string"
        }
      ],
      "stateMutability": "view",
      "type": "function"
    },
    {
      "inputs": [],
      "name": "owner",
      "outputs": [
        {
          "internalType": "address",
          "name": "",
          "type": "address"
        }
      ],
      "stateMutability": "view",
      "type": "function"
    },
    {
      "inputs": [
        {
          "internalType": "uint256",
          "name": "tokenId",
          "type": "uint256"
        }
      ],
      "name": "ownerOf",
      "outputs": [
        {
          "internalType": "address",
          "name": "",
          "type": "address"
        }
      ],
      "stateMutability": "view",
      "type": "function"
    },
    {
      "inputs": [],
      "name": "permission",
      "outputs": [
        {
          "internalType": "bool",
          "name": "",
          "type": "bool"
        }
      ],
      "stateMutability": "view",
      "type": "function"
    },
    {
      "inputs": [],
      "name": "renounceOwnership",
      "outputs": [],
      "stateMutability": "nonpayable",
      "type": "function"
    },
    {
      "inputs": [
        {
          "internalType": "address",
          "name": "operator",
          "type": "address"
        },
        {
          "internalType": "bool",
          "name": "approved",
          "type": "bool"
        }
      ],
      "name": "setApprovalForAll",
      "outputs": [],
      "stateMutability": "nonpayable",
      "type": "function"
    },
    {
      "inputs": [
        {
          "internalType": "bytes4",
          "name": "interfaceId",
          "type": "bytes4"
        }
      ],
      "name": "supportsInterface",
      "outputs": [
        {
          "internalType": "bool",
          "name": "",
          "type": "bool"
        }
      ],
      "stateMutability": "view",
      "type": "function"
    },
    {
      "inputs": [],
      "name": "symbol",
      "outputs": [
        {
          "internalType": "string",
          "name": "",
          "type": "string"
        }
      ],
      "stateMutability": "view",
      "type": "function"
    },
    {
      "inputs": [
        {
          "internalType": "uint256",
          "name": "tokenId",
          "type": "uint256"
        }
      ],
      "name": "tokenURI",
      "outputs": [
        {
          "internalType": "string",
          "name": "",
          "type": "string"
        }
      ],
      "stateMutability": "view",
      "type": "function"
    },
    {
      "inputs": [
        {
          "internalType": "address",
          "name": "newOwner",
          "type": "address"
        }
      ],
      "name": "transferOwnership",
      "outputs": [],
      "stateMutability": "nonpayable",
      "type": "function"
    },
    {
      "inputs": [],
      "name": "changePermission",
      "outputs": [],
      "stateMutability": "nonpayable",
      "type": "function"
    },
    {
      "inputs": [
        {
          "internalType": "address[]",
          "name": "whitelist",
          "type": "address[]"
        }
      ],
      "name": "addUser",
      "outputs": [],
      "stateMutability": "nonpayable",
      "type": "function"
    },
    {
      "inputs": [
        {
          "internalType": "address",
          "name": "_whitelistedAddress",
          "type": "address"
        }
      ],
      "name": "verifyUser",
      "outputs": [
        {
          "internalType": "bool",
          "name": "",
          "type": "bool"
        }
      ],
      "stateMutability": "view",
      "type": "function"
    },
    {
      "inputs": [
        {
          "internalType": "address",
          "name": "to",
          "type": "address"
        },
        {
          "internalType": "string",
          "name": "tokenURI",
          "type": "string"
        }
      ],
      "name": "mintNFT",
      "outputs": [
        {
          "internalType": "uint256",
          "name": "",
          "type": "uint256"
        }
      ],
      "stateMutability": "nonpayable",
      "type": "function"
    },
    {
      "inputs": [
        {
          "internalType": "address",
          "name": "from",
          "type": "address"
        },
        {
          "internalType": "address",
          "name": "to",
          "type": "address"
        },
        {
          "internalType": "uint256",
          "name": "tokenId",
          "type": "uint256"
        }
      ],
      "name": "transferFrom",
      "outputs": [],
      "stateMutability": "nonpayable",
      "type": "function"
    },
    {
      "inputs": [
        {
          "internalType": "address",
          "name": "from",
          "type": "address"
        },
        {
          "internalType": "address",
          "name": "to",
          "type": "address"
        },
        {
          "internalType": "uint256",
          "name": "tokenId",
          "type": "uint256"
        }
      ],
      "name": "safeTransferFrom",
      "outputs": [],
      "stateMutability": "nonpayable",
      "type": "function"
    },
    {
      "inputs": [
        {
          "internalType": "address",
          "name": "from",
          "type": "address"
        },
        {
          "internalType": "address",
          "name": "to",
          "type": "address"
        },
        {
          "internalType": "uint256",
          "name": "tokenId",
          "type": "uint256"
        },
        {
          "internalType": "bytes",
          "name": "_data",
          "type": "bytes"
        }
      ],
      "name": "safeTransferFrom",
      "outputs": [],
      "stateMutability": "nonpayable",
      "type": "function"
    }
  ],
  "bytecode": "0x60806040523480156200001157600080fd5b506040518060400160405280600681526020017f534b554e4b3200000000000000000000000000000000000000000000000000008152506040518060400160405280600381526020017f534b32000000000000000000000000000000000000000000000000000000000081525081600090816200008f919062000412565b508060019081620000a1919062000412565b505050620000c4620000b8620000ca60201b60201c565b620000d260201b60201c565b620004f9565b600033905090565b6000600760009054906101000a900473ffffffffffffffffffffffffffffffffffffffff16905081600760006101000a81548173ffffffffffffffffffffffffffffffffffffffff021916908373ffffffffffffffffffffffffffffffffffffffff1602179055508173ffffffffffffffffffffffffffffffffffffffff168173ffffffffffffffffffffffffffffffffffffffff167f8be0079c531659141344cd1fd0a4f28419497f9722a3daafe3b4186f6b6457e060405160405180910390a35050565b600081519050919050565b7f4e487b7100000000000000000000000000000000000000000000000000000000600052604160045260246000fd5b7f4e487b7100000000000000000000000000000000000000000000000000000000600052602260045260246000fd5b600060028204905060018216806200021a57607f821691505b60208210810362000230576200022f620001d2565b5b50919050565b60008190508160005260206000209050919050565b60006020601f8301049050919050565b600082821b905092915050565b6000600883026200029a7fffffffffffffffffffffffffffffffffffffffffffffffffffffffffffffffff826200025b565b620002a686836200025b565b95508019841693508086168417925050509392505050565b6000819050919050565b6000819050919050565b6000620002f3620002ed620002e784620002be565b620002c8565b620002be565b9050919050565b6000819050919050565b6200030f83620002d2565b620003276200031e82620002fa565b84845462000268565b825550505050565b600090565b6200033e6200032f565b6200034b81848462000304565b505050565b5b8181101562000373576200036760008262000334565b60018101905062000351565b5050565b601f821115620003c2576200038c8162000236565b62000397846200024b565b81016020851015620003a7578190505b620003bf620003b6856200024b565b83018262000350565b50505b505050565b600082821c905092915050565b6000620003e760001984600802620003c7565b1980831691505092915050565b6000620004028383620003d4565b9150826002028217905092915050565b6200041d8262000198565b67ffffffffffffffff811115620004395762000438620001a3565b5b62000445825462000201565b6200045282828562000377565b600060209050601f8311600181146200048a576000841562000475578287015190505b620004818582620003f4565b865550620004f1565b601f1984166200049a8662000236565b60005b82811015620004c4578489015182556001820191506020850194506020810190506200049d565b86831015620004e45784890151620004e0601f891682620003d4565b8355505b6001600288020188555050505b505050505050565b6139aa80620005096000396000f3fe608060405234801561001057600080fd5b50600436106101375760003560e01c80638da5cb5b116100b8578063cdfca7f21161007c578063cdfca7f21461034c578063e985e9c514610368578063eacabe1414610398578063f2fde38b146103c8578063f3b0c8b7146103e4578063fe4ea1ed1461040257610137565b80638da5cb5b146102a857806395d89b41146102c6578063a22cb465146102e4578063b88d4fde14610300578063c87b56dd1461031c57610137565b806342842e0e116100ff57806342842e0e146101f25780634d8131201461020e5780636352211e1461023e57806370a082311461026e578063715018a61461029e57610137565b806301ffc9a71461013c57806306fdde031461016c578063081812fc1461018a578063095ea7b3146101ba57806323b872dd146101d6575b600080fd5b61015660048036038101906101519190612168565b61040c565b60405161016391906121b0565b60405180910390f35b6101746104ee565b604051610181919061225b565b60405180910390f35b6101a4600480360381019061019f91906122b3565b610580565b6040516101b19190612321565b60405180910390f35b6101d460048036038101906101cf9190612368565b610605565b005b6101f060048036038101906101eb91906123a8565b61071c565b005b61020c600480360381019061020791906123a8565b6107cb565b005b610228600480360381019061022391906123fb565b61083a565b60405161023591906121b0565b60405180910390f35b610258600480360381019061025391906122b3565b610890565b6040516102659190612321565b60405180910390f35b610288600480360381019061028391906123fb565b610941565b6040516102959190612437565b60405180910390f35b6102a66109f8565b005b6102b0610a80565b6040516102bd9190612321565b60405180910390f35b6102ce610aaa565b6040516102db919061225b565b60405180910390f35b6102fe60048036038101906102f9919061247e565b610b3c565b005b61031a600480360381019061031591906125f3565b610b52565b005b610336600480360381019061033191906122b3565b610bb4565b604051610343919061225b565b60405180910390f35b6103666004803603810190610361919061273e565b610d05565b005b610382600480360381019061037d9190612787565b610ebd565b60405161038f91906121b0565b60405180910390f35b6103b260048036038101906103ad9190612868565b610f51565b6040516103bf9190612437565b60405180910390f35b6103e260048036038101906103dd91906123fb565b61106d565b005b6103ec611164565b6040516103f991906121b0565b60405180910390f35b61040a611177565b005b60007f80ac58cd000000000000000000000000000000000000000000000000000000007bffffffffffffffffffffffffffffffffffffffffffffffffffffffff1916827bffffffffffffffffffffffffffffffffffffffffffffffffffffffff191614806104d757507f5b5e139f000000000000000000000000000000000000000000000000000000007bffffffffffffffffffffffffffffffffffffffffffffffffffffffff1916827bffffffffffffffffffffffffffffffffffffffffffffffffffffffff1916145b806104e757506104e68261121f565b5b9050919050565b6060600080546104fd906128f3565b80601f0160208091040260200160405190810160405280929190818152602001828054610529906128f3565b80156105765780601f1061054b57610100808354040283529160200191610576565b820191906000526020600020905b81548152906001019060200180831161055957829003601f168201915b5050505050905090565b600061058b82611289565b6105ca576040517f08c379a00000000000000000000000000000000000000000000000000000000081526004016105c190612996565b60405180910390fd5b6004600083815260200190815260200160002060009054906101000a900473ffffffffffffffffffffffffffffffffffffffff169050919050565b600061061082610890565b90508073ffffffffffffffffffffffffffffffffffffffff168373ffffffffffffffffffffffffffffffffffffffff1603610680576040517f08c379a000000000000000000000000000000000000000000000000000000000815260040161067790612a02565b60405180910390fd5b8073ffffffffffffffffffffffffffffffffffffffff1661069f6112f5565b73ffffffffffffffffffffffffffffffffffffffff1614806106ce57506106cd816106c86112f5565b610ebd565b5b61070d576040517f08c379a000000000000000000000000000000000000000000000000000000000815260040161070490612a94565b60405180910390fd5b61071783836112fd565b505050565b600a60009054906101000a900460ff1661076b576040517f08c379a000000000000000000000000000000000000000000000000000000000815260040161076290612b00565b60405180910390fd5b61077c6107766112f5565b826113b6565b6107bb576040517f08c379a00000000000000000000000000000000000000000000000000000000081526004016107b290612b92565b60405180910390fd5b6107c6838383611494565b505050565b600a60009054906101000a900460ff1661081a576040517f08c379a000000000000000000000000000000000000000000000000000000000815260040161081190612b00565b60405180910390fd5b61083583838360405180602001604052806000815250610b52565b505050565b6000600960008373ffffffffffffffffffffffffffffffffffffffff1673ffffffffffffffffffffffffffffffffffffffff16815260200190815260200160002060009054906101000a900460ff169050919050565b6000806002600084815260200190815260200160002060009054906101000a900473ffffffffffffffffffffffffffffffffffffffff169050600073ffffffffffffffffffffffffffffffffffffffff168173ffffffffffffffffffffffffffffffffffffffff1603610938576040517f08c379a000000000000000000000000000000000000000000000000000000000815260040161092f90612c24565b60405180910390fd5b80915050919050565b60008073ffffffffffffffffffffffffffffffffffffffff168273ffffffffffffffffffffffffffffffffffffffff16036109b1576040517f08c379a00000000000000000000000000000000000000000000000000000000081526004016109a890612cb6565b60405180910390fd5b600360008373ffffffffffffffffffffffffffffffffffffffff1673ffffffffffffffffffffffffffffffffffffffff168152602001908152602001600020549050919050565b610a006112f5565b73ffffffffffffffffffffffffffffffffffffffff16610a1e610a80565b73ffffffffffffffffffffffffffffffffffffffff1614610a74576040517f08c379a0000000000000000000000000000000000000000000000000000000008152600401610a6b90612d22565b60405180910390fd5b610a7e60006116fa565b565b6000600760009054906101000a900473ffffffffffffffffffffffffffffffffffffffff16905090565b606060018054610ab9906128f3565b80601f0160208091040260200160405190810160405280929190818152602001828054610ae5906128f3565b8015610b325780601f10610b0757610100808354040283529160200191610b32565b820191906000526020600020905b815481529060010190602001808311610b1557829003601f168201915b5050505050905090565b610b4e610b476112f5565b83836117c0565b5050565b610b63610b5d6112f5565b836113b6565b610ba2576040517f08c379a0000000000000000000000000000000000000000000000000000000008152600401610b9990612b92565b60405180910390fd5b610bae8484848461192c565b50505050565b6060610bbf82611289565b610bfe576040517f08c379a0000000000000000000000000000000000000000000000000000000008152600401610bf590612db4565b60405180910390fd5b6000600660008481526020019081526020016000208054610c1e906128f3565b80601f0160208091040260200160405190810160405280929190818152602001828054610c4a906128f3565b8015610c975780601f10610c6c57610100808354040283529160200191610c97565b820191906000526020600020905b815481529060010190602001808311610c7a57829003601f168201915b505050505090506000610ca861199b565b90506000815103610cbd578192505050610d00565b600082511115610cf2578082604051602001610cda929190612e10565b60405160208183030381529060405292505050610d00565b610cfb846119b2565b925050505b919050565b610d0d6112f5565b73ffffffffffffffffffffffffffffffffffffffff16610d2b610a80565b73ffffffffffffffffffffffffffffffffffffffff1614610d81576040517f08c379a0000000000000000000000000000000000000000000000000000000008152600401610d7890612d22565b60405180910390fd5b60005b8151811015610eb95760096000838381518110610da457610da3612e34565b5b602002602001015173ffffffffffffffffffffffffffffffffffffffff1673ffffffffffffffffffffffffffffffffffffffff16815260200190815260200160002060009054906101000a900460ff1615610e34576040517f08c379a0000000000000000000000000000000000000000000000000000000008152600401610e2b90612eaf565b60405180910390fd5b600160096000848481518110610e4d57610e4c612e34565b5b602002602001015173ffffffffffffffffffffffffffffffffffffffff1673ffffffffffffffffffffffffffffffffffffffff16815260200190815260200160002060006101000a81548160ff0219169083151502179055508080610eb190612efe565b915050610d84565b5050565b6000600560008473ffffffffffffffffffffffffffffffffffffffff1673ffffffffffffffffffffffffffffffffffffffff16815260200190815260200160002060008373ffffffffffffffffffffffffffffffffffffffff1673ffffffffffffffffffffffffffffffffffffffff16815260200190815260200160002060009054906101000a900460ff16905092915050565b6000600960003373ffffffffffffffffffffffffffffffffffffffff1673ffffffffffffffffffffffffffffffffffffffff16815260200190815260200160002060009054906101000a900460ff16610fdf576040517f08c379a0000000000000000000000000000000000000000000000000000000008152600401610fd690612f92565b60405180910390fd5b610fe96008611a59565b6000610ff56008611a6f565b90506110018482611a7d565b61100b8184611c56565b6000600960008673ffffffffffffffffffffffffffffffffffffffff1673ffffffffffffffffffffffffffffffffffffffff16815260200190815260200160002060006101000a81548160ff0219169083151502179055508091505092915050565b6110756112f5565b73ffffffffffffffffffffffffffffffffffffffff16611093610a80565b73ffffffffffffffffffffffffffffffffffffffff16146110e9576040517f08c379a00000000000000000000000000000000000000000000000000000000081526004016110e090612d22565b60405180910390fd5b600073ffffffffffffffffffffffffffffffffffffffff168173ffffffffffffffffffffffffffffffffffffffff1603611158576040517f08c379a000000000000000000000000000000000000000000000000000000000815260040161114f90613024565b60405180910390fd5b611161816116fa565b50565b600a60009054906101000a900460ff1681565b61117f6112f5565b73ffffffffffffffffffffffffffffffffffffffff1661119d610a80565b73ffffffffffffffffffffffffffffffffffffffff16146111f3576040517f08c379a00000000000000000000000000000000000000000000000000000000081526004016111ea90612d22565b60405180910390fd5b600a60009054906101000a900460ff1615600a60006101000a81548160ff021916908315150217905550565b60007f01ffc9a7000000000000000000000000000000000000000000000000000000007bffffffffffffffffffffffffffffffffffffffffffffffffffffffff1916827bffffffffffffffffffffffffffffffffffffffffffffffffffffffff1916149050919050565b60008073ffffffffffffffffffffffffffffffffffffffff166002600084815260200190815260200160002060009054906101000a900473ffffffffffffffffffffffffffffffffffffffff1673ffffffffffffffffffffffffffffffffffffffff1614159050919050565b600033905090565b816004600083815260200190815260200160002060006101000a81548173ffffffffffffffffffffffffffffffffffffffff021916908373ffffffffffffffffffffffffffffffffffffffff160217905550808273ffffffffffffffffffffffffffffffffffffffff1661137083610890565b73ffffffffffffffffffffffffffffffffffffffff167f8c5be1e5ebec7d5bd14f71427d1e84f3dd0314c0f7b2291e5b200ac8c7c3b92560405160405180910390a45050565b60006113c182611289565b611400576040517f08c379a00000000000000000000000000000000000000000000000000000000081526004016113f7906130b6565b60405180910390fd5b600061140b83610890565b90508073ffffffffffffffffffffffffffffffffffffffff168473ffffffffffffffffffffffffffffffffffffffff16148061144d575061144c8185610ebd565b5b8061148b57508373ffffffffffffffffffffffffffffffffffffffff1661147384610580565b73ffffffffffffffffffffffffffffffffffffffff16145b91505092915050565b8273ffffffffffffffffffffffffffffffffffffffff166114b482610890565b73ffffffffffffffffffffffffffffffffffffffff161461150a576040517f08c379a000000000000000000000000000000000000000000000000000000000815260040161150190613148565b60405180910390fd5b600073ffffffffffffffffffffffffffffffffffffffff168273ffffffffffffffffffffffffffffffffffffffff1603611579576040517f08c379a0000000000000000000000000000000000000000000000000000000008152600401611570906131da565b60405180910390fd5b611584838383611cc3565b61158f6000826112fd565b6001600360008573ffffffffffffffffffffffffffffffffffffffff1673ffffffffffffffffffffffffffffffffffffffff16815260200190815260200160002060008282546115df91906131fa565b925050819055506001600360008473ffffffffffffffffffffffffffffffffffffffff1673ffffffffffffffffffffffffffffffffffffffff1681526020019081526020016000206000828254611636919061322e565b92505081905550816002600083815260200190815260200160002060006101000a81548173ffffffffffffffffffffffffffffffffffffffff021916908373ffffffffffffffffffffffffffffffffffffffff160217905550808273ffffffffffffffffffffffffffffffffffffffff168473ffffffffffffffffffffffffffffffffffffffff167fddf252ad1be2c89b69c2b068fc378daa952ba7f163c4a11628f55a4df523b3ef60405160405180910390a46116f5838383611cc8565b505050565b6000600760009054906101000a900473ffffffffffffffffffffffffffffffffffffffff16905081600760006101000a81548173ffffffffffffffffffffffffffffffffffffffff021916908373ffffffffffffffffffffffffffffffffffffffff1602179055508173ffffffffffffffffffffffffffffffffffffffff168173ffffffffffffffffffffffffffffffffffffffff167f8be0079c531659141344cd1fd0a4f28419497f9722a3daafe3b4186f6b6457e060405160405180910390a35050565b8173ffffffffffffffffffffffffffffffffffffffff168373ffffffffffffffffffffffffffffffffffffffff160361182e576040517f08c379a0000000000000000000000000000000000000000000000000000000008152600401611825906132ae565b60405180910390fd5b80600560008573ffffffffffffffffffffffffffffffffffffffff1673ffffffffffffffffffffffffffffffffffffffff16815260200190815260200160002060008473ffffffffffffffffffffffffffffffffffffffff1673ffffffffffffffffffffffffffffffffffffffff16815260200190815260200160002060006101000a81548160ff0219169083151502179055508173ffffffffffffffffffffffffffffffffffffffff168373ffffffffffffffffffffffffffffffffffffffff167f17307eab39ab6107e8899845ad3d59bd9653f200f220920489ca2b5937696c318360405161191f91906121b0565b60405180910390a3505050565b611937848484611494565b61194384848484611ccd565b80611956575061195584848484611e23565b5b611995576040517f08c379a000000000000000000000000000000000000000000000000000000000815260040161198c90613366565b60405180910390fd5b50505050565b606060405180602001604052806000815250905090565b60606119bd82611289565b6119fc576040517f08c379a00000000000000000000000000000000000000000000000000000000081526004016119f3906133f8565b60405180910390fd5b6000611a0661199b565b90506000815111611a265760405180602001604052806000815250611a51565b80611a3084611f79565b604051602001611a41929190612e10565b6040516020818303038152906040525b915050919050565b6001816000016000828254019250508190555050565b600081600001549050919050565b600073ffffffffffffffffffffffffffffffffffffffff168273ffffffffffffffffffffffffffffffffffffffff1603611aec576040517f08c379a0000000000000000000000000000000000000000000000000000000008152600401611ae390613464565b60405180910390fd5b611af581611289565b15611b35576040517f08c379a0000000000000000000000000000000000000000000000000000000008152600401611b2c906134d0565b60405180910390fd5b611b4160008383611cc3565b6001600360008473ffffffffffffffffffffffffffffffffffffffff1673ffffffffffffffffffffffffffffffffffffffff1681526020019081526020016000206000828254611b91919061322e565b92505081905550816002600083815260200190815260200160002060006101000a81548173ffffffffffffffffffffffffffffffffffffffff021916908373ffffffffffffffffffffffffffffffffffffffff160217905550808273ffffffffffffffffffffffffffffffffffffffff16600073ffffffffffffffffffffffffffffffffffffffff167fddf252ad1be2c89b69c2b068fc378daa952ba7f163c4a11628f55a4df523b3ef60405160405180910390a4611c5260008383611cc8565b5050565b611c5f82611289565b611c9e576040517f08c379a0000000000000000000000000000000000000000000000000000000008152600401611c9590613562565b60405180910390fd5b80600660008481526020019081526020016000209081611cbe919061372e565b505050565b505050565b505050565b6000611cee8473ffffffffffffffffffffffffffffffffffffffff166120d9565b15611e16578373ffffffffffffffffffffffffffffffffffffffff16636745782b611d176112f5565b8786866040518563ffffffff1660e01b8152600401611d399493929190613855565b6020604051808303816000875af1925050508015611d7557506040513d601f19601f82011682018060405250810190611d7291906138b6565b60015b611dc6573d8060008114611da5576040519150601f19603f3d011682016040523d82523d6000602084013e611daa565b606091505b506000815103611dbe576000915050611e1b565b805181602001fd5b636745782b60e01b7bffffffffffffffffffffffffffffffffffffffffffffffffffffffff1916817bffffffffffffffffffffffffffffffffffffffffffffffffffffffff191614915050611e1b565b600190505b949350505050565b6000611e448473ffffffffffffffffffffffffffffffffffffffff166120d9565b15611f6c578373ffffffffffffffffffffffffffffffffffffffff1663150b7a02611e6d6112f5565b8786866040518563ffffffff1660e01b8152600401611e8f9493929190613855565b6020604051808303816000875af1925050508015611ecb57506040513d601f19601f82011682018060405250810190611ec891906138b6565b60015b611f1c573d8060008114611efb576040519150601f19603f3d011682016040523d82523d6000602084013e611f00565b606091505b506000815103611f14576000915050611f71565b805181602001fd5b63150b7a0260e01b7bffffffffffffffffffffffffffffffffffffffffffffffffffffffff1916817bffffffffffffffffffffffffffffffffffffffffffffffffffffffff191614915050611f71565b600190505b949350505050565b606060008203611fc0576040518060400160405280600181526020017f300000000000000000000000000000000000000000000000000000000000000081525090506120d4565b600082905060005b60008214611ff2578080611fdb90612efe565b915050600a82611feb9190613912565b9150611fc8565b60008167ffffffffffffffff81111561200e5761200d6124c8565b5b6040519080825280601f01601f1916602001820160405280156120405781602001600182028036833780820191505090505b5090505b600085146120cd5760018261205991906131fa565b9150600a856120689190613943565b6030612074919061322e565b60f81b81838151811061208a57612089612e34565b5b60200101907effffffffffffffffffffffffffffffffffffffffffffffffffffffffffffff1916908160001a905350600a856120c69190613912565b9450612044565b8093505050505b919050565b6000808273ffffffffffffffffffffffffffffffffffffffff163b119050919050565b6000604051905090565b600080fd5b600080fd5b60007fffffffff0000000000000000000000000000000000000000000000000000000082169050919050565b61214581612110565b811461215057600080fd5b50565b6000813590506121628161213c565b92915050565b60006020828403121561217e5761217d612106565b5b600061218c84828501612153565b91505092915050565b60008115159050919050565b6121aa81612195565b82525050565b60006020820190506121c560008301846121a1565b92915050565b600081519050919050565b600082825260208201905092915050565b60005b838110156122055780820151818401526020810190506121ea565b60008484015250505050565b6000601f19601f8301169050919050565b600061222d826121cb565b61223781856121d6565b93506122478185602086016121e7565b61225081612211565b840191505092915050565b600060208201905081810360008301526122758184612222565b905092915050565b6000819050919050565b6122908161227d565b811461229b57600080fd5b50565b6000813590506122ad81612287565b92915050565b6000602082840312156122c9576122c8612106565b5b60006122d78482850161229e565b91505092915050565b600073ffffffffffffffffffffffffffffffffffffffff82169050919050565b600061230b826122e0565b9050919050565b61231b81612300565b82525050565b60006020820190506123366000830184612312565b92915050565b61234581612300565b811461235057600080fd5b50565b6000813590506123628161233c565b92915050565b6000806040838503121561237f5761237e612106565b5b600061238d85828601612353565b925050602061239e8582860161229e565b9150509250929050565b6000806000606084860312156123c1576123c0612106565b5b60006123cf86828701612353565b93505060206123e086828701612353565b92505060406123f18682870161229e565b9150509250925092565b60006020828403121561241157612410612106565b5b600061241f84828501612353565b91505092915050565b6124318161227d565b82525050565b600060208201905061244c6000830184612428565b92915050565b61245b81612195565b811461246657600080fd5b50565b60008135905061247881612452565b92915050565b6000806040838503121561249557612494612106565b5b60006124a385828601612353565b92505060206124b485828601612469565b9150509250929050565b600080fd5b600080fd5b7f4e487b7100000000000000000000000000000000000000000000000000000000600052604160045260246000fd5b61250082612211565b810181811067ffffffffffffffff8211171561251f5761251e6124c8565b5b80604052505050565b60006125326120fc565b905061253e82826124f7565b919050565b600067ffffffffffffffff82111561255e5761255d6124c8565b5b61256782612211565b9050602081019050919050565b82818337600083830152505050565b600061259661259184612543565b612528565b9050828152602081018484840111156125b2576125b16124c3565b5b6125bd848285612574565b509392505050565b600082601f8301126125da576125d96124be565b5b81356125ea848260208601612583565b91505092915050565b6000806000806080858703121561260d5761260c612106565b5b600061261b87828801612353565b945050602061262c87828801612353565b935050604061263d8782880161229e565b925050606085013567ffffffffffffffff81111561265e5761265d61210b565b5b61266a878288016125c5565b91505092959194509250565b600067ffffffffffffffff821115612691576126906124c8565b5b602082029050602081019050919050565b600080fd5b60006126ba6126b584612676565b612528565b905080838252602082019050602084028301858111156126dd576126dc6126a2565b5b835b8181101561270657806126f28882612353565b8452602084019350506020810190506126df565b5050509392505050565b600082601f830112612725576127246124be565b5b81356127358482602086016126a7565b91505092915050565b60006020828403121561275457612753612106565b5b600082013567ffffffffffffffff8111156127725761277161210b565b5b61277e84828501612710565b91505092915050565b6000806040838503121561279e5761279d612106565b5b60006127ac85828601612353565b92505060206127bd85828601612353565b9150509250929050565b600067ffffffffffffffff8211156127e2576127e16124c8565b5b6127eb82612211565b9050602081019050919050565b600061280b612806846127c7565b612528565b905082815260208101848484011115612827576128266124c3565b5b612832848285612574565b509392505050565b600082601f83011261284f5761284e6124be565b5b813561285f8482602086016127f8565b91505092915050565b6000806040838503121561287f5761287e612106565b5b600061288d85828601612353565b925050602083013567ffffffffffffffff8111156128ae576128ad61210b565b5b6128ba8582860161283a565b9150509250929050565b7f4e487b7100000000000000000000000000000000000000000000000000000000600052602260045260246000fd5b6000600282049050600182168061290b57607f821691505b60208210810361291e5761291d6128c4565b5b50919050565b7f4b495031373a20617070726f76656420717565727920666f72206e6f6e65786960008201527f7374656e7420746f6b656e000000000000000000000000000000000000000000602082015250565b6000612980602b836121d6565b915061298b82612924565b604082019050919050565b600060208201905081810360008301526129af81612973565b9050919050565b7f4b495031373a20617070726f76616c20746f2063757272656e74206f776e6572600082015250565b60006129ec6020836121d6565b91506129f7826129b6565b602082019050919050565b60006020820190508181036000830152612a1b816129df565b9050919050565b7f4b495031373a20617070726f76652063616c6c6572206973206e6f74206f776e60008201527f6572206e6f7220617070726f76656420666f7220616c6c000000000000000000602082015250565b6000612a7e6037836121d6565b9150612a8982612a22565b604082019050919050565b60006020820190508181036000830152612aad81612a71565b9050919050565b7f6f776e6572206973206e6f7420616c6c6f7720746f2073656e64204e46540000600082015250565b6000612aea601e836121d6565b9150612af582612ab4565b602082019050919050565b60006020820190508181036000830152612b1981612add565b9050919050565b7f4b495031373a207472616e736665722063616c6c6572206973206e6f74206f7760008201527f6e6572206e6f7220617070726f76656400000000000000000000000000000000602082015250565b6000612b7c6030836121d6565b9150612b8782612b20565b604082019050919050565b60006020820190508181036000830152612bab81612b6f565b9050919050565b7f4b495031373a206f776e657220717565727920666f72206e6f6e65786973746560008201527f6e7420746f6b656e000000000000000000000000000000000000000000000000602082015250565b6000612c0e6028836121d6565b9150612c1982612bb2565b604082019050919050565b60006020820190508181036000830152612c3d81612c01565b9050919050565b7f4b495031373a2061646472657373207a65726f206973206e6f7420612076616c60008201527f6964206f776e6572000000000000000000000000000000000000000000000000602082015250565b6000612ca06028836121d6565b9150612cab82612c44565b604082019050919050565b60006020820190508181036000830152612ccf81612c93565b9050919050565b7f4f776e61626c653a2063616c6c6572206973206e6f7420746865206f776e6572600082015250565b6000612d0c6020836121d6565b9150612d1782612cd6565b602082019050919050565b60006020820190508181036000830152612d3b81612cff565b9050919050565b7f4b4950313755524953746f726167653a2055524920717565727920666f72206e60008201527f6f6e6578697374656e7420746f6b656e00000000000000000000000000000000602082015250565b6000612d9e6030836121d6565b9150612da982612d42565b604082019050919050565b60006020820190508181036000830152612dcd81612d91565b9050919050565b600081905092915050565b6000612dea826121cb565b612df48185612dd4565b9350612e048185602086016121e7565b80840191505092915050565b6000612e1c8285612ddf565b9150612e288284612ddf565b91508190509392505050565b7f4e487b7100000000000000000000000000000000000000000000000000000000600052603260045260246000fd5b7f636865636b20796f7572206c6973740000000000000000000000000000000000600082015250565b6000612e99600f836121d6565b9150612ea482612e63565b602082019050919050565b60006020820190508181036000830152612ec881612e8c565b9050919050565b7f4e487b7100000000000000000000000000000000000000000000000000000000600052601160045260246000fd5b6000612f098261227d565b91507fffffffffffffffffffffffffffffffffffffffffffffffffffffffffffffffff8203612f3b57612f3a612ecf565b5b600182019050919050565b7f596f75206e65656420746f2062652077686974656c6973746564000000000000600082015250565b6000612f7c601a836121d6565b9150612f8782612f46565b602082019050919050565b60006020820190508181036000830152612fab81612f6f565b9050919050565b7f4f776e61626c653a206e6577206f776e657220697320746865207a65726f206160008201527f6464726573730000000000000000000000000000000000000000000000000000602082015250565b600061300e6026836121d6565b915061301982612fb2565b604082019050919050565b6000602082019050818103600083015261303d81613001565b9050919050565b7f4b495031373a206f70657261746f7220717565727920666f72206e6f6e65786960008201527f7374656e7420746f6b656e000000000000000000000000000000000000000000602082015250565b60006130a0602b836121d6565b91506130ab82613044565b604082019050919050565b600060208201905081810360008301526130cf81613093565b9050919050565b7f4b495031373a207472616e736665722066726f6d20696e636f7272656374206f60008201527f776e657200000000000000000000000000000000000000000000000000000000602082015250565b60006131326024836121d6565b915061313d826130d6565b604082019050919050565b6000602082019050818103600083015261316181613125565b9050919050565b7f4b495031373a207472616e7366657220746f20746865207a65726f206164647260008201527f6573730000000000000000000000000000000000000000000000000000000000602082015250565b60006131c46023836121d6565b91506131cf82613168565b604082019050919050565b600060208201905081810360008301526131f3816131b7565b9050919050565b60006132058261227d565b91506132108361227d565b925082820390508181111561322857613227612ecf565b5b92915050565b60006132398261227d565b91506132448361227d565b925082820190508082111561325c5761325b612ecf565b5b92915050565b7f4b495031373a20617070726f766520746f2063616c6c65720000000000000000600082015250565b60006132986018836121d6565b91506132a382613262565b602082019050919050565b600060208201905081810360008301526132c78161328b565b9050919050565b7f4b495031373a207472616e7366657220746f206e6f6e20494b4950313752656360008201527f65697665722f49455243373231526563656976657220696d706c656d656e746560208201527f7200000000000000000000000000000000000000000000000000000000000000604082015250565b60006133506041836121d6565b915061335b826132ce565b606082019050919050565b6000602082019050818103600083015261337f81613343565b9050919050565b7f4b495031374d657461646174613a2055524920717565727920666f72206e6f6e60008201527f6578697374656e7420746f6b656e000000000000000000000000000000000000602082015250565b60006133e2602e836121d6565b91506133ed82613386565b604082019050919050565b60006020820190508181036000830152613411816133d5565b9050919050565b7f4b495031373a206d696e7420746f20746865207a65726f206164647265737300600082015250565b600061344e601f836121d6565b915061345982613418565b602082019050919050565b6000602082019050818103600083015261347d81613441565b9050919050565b7f4b495031373a20746f6b656e20616c7265616479206d696e7465640000000000600082015250565b60006134ba601b836121d6565b91506134c582613484565b602082019050919050565b600060208201905081810360008301526134e9816134ad565b9050919050565b7f4b4950313755524953746f726167653a2055524920736574206f66206e6f6e6560008201527f78697374656e7420746f6b656e00000000000000000000000000000000000000602082015250565b600061354c602d836121d6565b9150613557826134f0565b604082019050919050565b6000602082019050818103600083015261357b8161353f565b9050919050565b60008190508160005260206000209050919050565b60006020601f8301049050919050565b600082821b905092915050565b6000600883026135e47fffffffffffffffffffffffffffffffffffffffffffffffffffffffffffffffff826135a7565b6135ee86836135a7565b95508019841693508086168417925050509392505050565b6000819050919050565b600061362b6136266136218461227d565b613606565b61227d565b9050919050565b6000819050919050565b61364583613610565b61365961365182613632565b8484546135b4565b825550505050565b600090565b61366e613661565b61367981848461363c565b505050565b5b8181101561369d57613692600082613666565b60018101905061367f565b5050565b601f8211156136e2576136b381613582565b6136bc84613597565b810160208510156136cb578190505b6136df6136d785613597565b83018261367e565b50505b505050565b600082821c905092915050565b6000613705600019846008026136e7565b1980831691505092915050565b600061371e83836136f4565b9150826002028217905092915050565b613737826121cb565b67ffffffffffffffff8111156137505761374f6124c8565b5b61375a82546128f3565b6137658282856136a1565b600060209050601f8311600181146137985760008415613786578287015190505b6137908582613712565b8655506137f8565b601f1984166137a686613582565b60005b828110156137ce578489015182556001820191506020850194506020810190506137a9565b868310156137eb57848901516137e7601f8916826136f4565b8355505b6001600288020188555050505b505050505050565b600081519050919050565b600082825260208201905092915050565b600061382782613800565b613831818561380b565b93506138418185602086016121e7565b61384a81612211565b840191505092915050565b600060808201905061386a6000830187612312565b6138776020830186612312565b6138846040830185612428565b8181036060830152613896818461381c565b905095945050505050565b6000815190506138b08161213c565b92915050565b6000602082840312156138cc576138cb612106565b5b60006138da848285016138a1565b91505092915050565b7f4e487b7100000000000000000000000000000000000000000000000000000000600052601260045260246000fd5b600061391d8261227d565b91506139288361227d565b925082613938576139376138e3565b5b828204905092915050565b600061394e8261227d565b91506139598361227d565b925082613969576139686138e3565b5b82820690509291505056fea26469706673582212205cc8c3f65a8fde977c407ae406af2f1c00cd7f3f098cb63a4bc28a453d1d431e64736f6c63430008110033",
  "immutableReferences": {},
  "source": " // SPDX-License-Identifier: MIT\npragma solidity ^0.8.0;\n\nimport \"../node_modules/@klaytn/contracts/KIP/token/KIP17/extensions/KIP17URIStorage.sol\";\nimport \"../node_modules/@klaytn/contracts/access/Ownable.sol\";\nimport \"../node_modules/@klaytn/contracts/utils/Counters.sol\";\n\ncontract TestNFT is KIP17URIStorage, Ownable {\n    using Counters for Counters.Counter;\n    Counters.Counter private _tokenIds;\n    mapping(address => bool) whitelistedAddresses;\n    bool public permission;\n\n    constructor() public KIP17(\"SKUNK2\", \"SK2\") {}\n\n    modifier isWhitelisted() {\n        require(whitelistedAddresses[msg.sender], \"You need to be whitelisted\");\n        _;\n    }\n\n    function changePermission() external onlyOwner {\n        permission = !permission;\n    }\n\n    function addUser(address[] memory whitelist) public onlyOwner {\n        for (uint256 i = 0; i < whitelist.length; i++) {\n            require(!whitelistedAddresses[whitelist[i]], \"check your list\");\n            whitelistedAddresses[whitelist[i]] = true;\n        }\n    }\n\n    function verifyUser(address _whitelistedAddress)\n        public\n        view\n        returns (bool)\n    {\n        return whitelistedAddresses[_whitelistedAddress];\n    }\n   //   \n   function mintNFT(address to, string memory tokenURI)\n        public\n        isWhitelisted\n        returns (uint256)\n    {\n        _tokenIds.increment();\n        uint256 newItemId = _tokenIds.current();\n        _mint(to, newItemId);\n        _setTokenURI(newItemId, tokenURI);\n         whitelistedAddresses[to] = false;\n        return newItemId;\n    }\n\n    //NFT  ON / OFF  override require   \n    function transferFrom(\n        address from,\n        address to,\n        uint256 tokenId\n    ) public virtual override {\n      require(permission,\"owner is not allow to send NFT\");\n      require(_isApprovedOrOwner(_msgSender(), tokenId), \"KIP17: transfer caller is not owner nor approved\");\n        _transfer(from, to, tokenId);\n    }\n\n    function safeTransferFrom(\n        address from,\n        address to,\n        uint256 tokenId\n    ) public virtual override {\n        require(permission,\"owner is not allow to send NFT\");\n        safeTransferFrom(from, to, tokenId, \"\");\n    }\n}",
  "sourcePath": "/Users/anhyeongjun/Desktop/solidity/Klaytn/sk_sunny/contracts/SKNFT2.sol",
  "compiler": {
    "name": "solc",
    "version": "0.8.17+commit.8df45f5f.Emscripten.clang"
  },
  "schemaVersion": "3.4.7",
  "updatedAt": "2022-11-25T04:58:42.402Z",
  "devdoc": {
    "kind": "dev",
    "methods": {
      "approve(address,uint256)": {
        "details": "See {IKIP17-approve}."
      },
      "balanceOf(address)": {
        "details": "See {IKIP17-balanceOf}."
      },
      "getApproved(uint256)": {
        "details": "See {IKIP17-getApproved}."
      },
      "isApprovedForAll(address,address)": {
        "details": "See {IKIP17-isApprovedForAll}."
      },
      "name()": {
        "details": "See {IKIP17Metadata-name}."
      },
      "owner()": {
        "details": "Returns the address of the current owner."
      },
      "ownerOf(uint256)": {
        "details": "See {IKIP17-ownerOf}."
      },
      "renounceOwnership()": {
        "details": "Leaves the contract without owner. It will not be possible to call `onlyOwner` functions anymore. Can only be called by the current owner. NOTE: Renouncing ownership will leave the contract without an owner, thereby removing any functionality that is only available to the owner."
      },
      "safeTransferFrom(address,address,uint256)": {
        "details": "See {IKIP17-safeTransferFrom}."
      },
      "safeTransferFrom(address,address,uint256,bytes)": {
        "details": "See {IKIP17-safeTransferFrom}."
      },
      "setApprovalForAll(address,bool)": {
        "details": "See {IKIP17-setApprovalForAll}."
      },
      "supportsInterface(bytes4)": {
        "details": "See {IKIP13-supportsInterface}."
      },
      "symbol()": {
        "details": "See {IKIP17Metadata-symbol}."
      },
      "tokenURI(uint256)": {
        "details": "See {IKIP17Metadata-tokenURI}."
      },
      "transferFrom(address,address,uint256)": {
        "details": "See {IKIP17-transferFrom}."
      },
      "transferOwnership(address)": {
        "details": "Transfers ownership of the contract to a new account (`newOwner`). Can only be called by the current owner."
      }
    },
    "version": 1
  },
  "userdoc": {
    "kind": "user",
    "methods": {},
    "version": 1
  }
}