{
	"solidity_korea/CallTestContract.sol": {
		"CallTestContract": {
			"abi": [
				{
					"inputs": [
						{
							"internalType": "address",
							"name": "_test",
							"type": "address"
						},
						{
							"internalType": "uint256",
							"name": "_x",
							"type": "uint256"
						}
					],
					"name": "getX",
					"outputs": [],
					"stateMutability": "nonpayable",
					"type": "function"
				},
				{
					"inputs": [
						{
							"internalType": "contract TestContract",
							"name": "_test",
							"type": "address"
						},
						{
							"internalType": "uint256",
							"name": "_x",
							"type": "uint256"
						}
					],
					"name": "setX",
					"outputs": [],
					"stateMutability": "nonpayable",
					"type": "function"
				}
			],
			"devdoc": {
				"kind": "dev",
				"methods": {},
				"version": 1
			},
			"evm": {
				"assembly": "    /* \"solidity_korea/CallTestContract.sol\":57:269  contract CallTestContract {... */\n  mstore(0x40, 0x80)\n  callvalue\n  dup1\n  iszero\n  tag_1\n  jumpi\n  0x00\n  dup1\n  revert\ntag_1:\n  pop\n  dataSize(sub_0)\n  dup1\n  dataOffset(sub_0)\n  0x00\n  codecopy\n  0x00\n  return\nstop\n\nsub_0: assembly {\n        /* \"solidity_korea/CallTestContract.sol\":57:269  contract CallTestContract {... */\n      mstore(0x40, 0x80)\n      callvalue\n      dup1\n      iszero\n      tag_1\n      jumpi\n      0x00\n      dup1\n      revert\n    tag_1:\n      pop\n      jumpi(tag_2, lt(calldatasize, 0x04))\n      shr(0xe0, calldataload(0x00))\n      dup1\n      0x4a2ad99f\n      eq\n      tag_3\n      jumpi\n      dup1\n      0x525b63e0\n      eq\n      tag_4\n      jumpi\n    tag_2:\n      0x00\n      dup1\n      revert\n        /* \"solidity_korea/CallTestContract.sol\":89:172  function setX(TestContract _test, uint _x) external {... */\n    tag_3:\n      tag_5\n      0x04\n      dup1\n      calldatasize\n      sub\n      dup2\n      add\n      swap1\n      tag_6\n      swap2\n      swap1\n      tag_7\n      jump\t// in\n    tag_6:\n      tag_8\n      jump\t// in\n    tag_5:\n      stop\n        /* \"solidity_korea/CallTestContract.sol\":178:267  function getX(address _test, uint _x) external {... */\n    tag_4:\n      tag_9\n      0x04\n      dup1\n      calldatasize\n      sub\n      dup2\n      add\n      swap1\n      tag_10\n      swap2\n      swap1\n      tag_11\n      jump\t// in\n    tag_10:\n      tag_12\n      jump\t// in\n    tag_9:\n      stop\n        /* \"solidity_korea/CallTestContract.sol\":89:172  function setX(TestContract _test, uint _x) external {... */\n    tag_8:\n        /* \"solidity_korea/CallTestContract.sol\":151:156  _test */\n      dup2\n        /* \"solidity_korea/CallTestContract.sol\":151:161  _test.setX */\n      0xffffffffffffffffffffffffffffffffffffffff\n      and\n      0x4018d9aa\n        /* \"solidity_korea/CallTestContract.sol\":162:164  _x */\n      dup3\n        /* \"solidity_korea/CallTestContract.sol\":151:165  _test.setX(_x) */\n      mload(0x40)\n      dup3\n      0xffffffff\n      and\n      0xe0\n      shl\n      dup2\n      mstore\n      0x04\n      add\n      tag_14\n      swap2\n      swap1\n      tag_15\n      jump\t// in\n    tag_14:\n      0x00\n      mload(0x40)\n      dup1\n      dup4\n      sub\n      dup2\n      0x00\n      dup8\n      dup1\n      extcodesize\n      iszero\n      dup1\n      iszero\n      tag_16\n      jumpi\n      0x00\n      dup1\n      revert\n    tag_16:\n      pop\n      gas\n      call\n      iszero\n      dup1\n      iszero\n      tag_18\n      jumpi\n      returndatasize\n      0x00\n      dup1\n      returndatacopy\n      revert(0x00, returndatasize)\n    tag_18:\n      pop\n      pop\n      pop\n      pop\n        /* \"solidity_korea/CallTestContract.sol\":89:172  function setX(TestContract _test, uint _x) external {... */\n      pop\n      pop\n      jump\t// out\n        /* \"solidity_korea/CallTestContract.sol\":178:267  function getX(address _test, uint _x) external {... */\n    tag_12:\n        /* \"solidity_korea/CallTestContract.sol\":247:252  _test */\n      dup2\n        /* \"solidity_korea/CallTestContract.sol\":234:258  TestContract(_test).getX */\n      0xffffffffffffffffffffffffffffffffffffffff\n      and\n      0x5197c7aa\n        /* \"solidity_korea/CallTestContract.sol\":234:260  TestContract(_test).getX() */\n      mload(0x40)\n      dup2\n      0xffffffff\n      and\n      0xe0\n      shl\n      dup2\n      mstore\n      0x04\n      add\n      0x20\n      mload(0x40)\n      dup1\n      dup4\n      sub\n      dup2\n      dup7\n      dup1\n      extcodesize\n      iszero\n      dup1\n      iszero\n      tag_20\n      jumpi\n      0x00\n      dup1\n      revert\n    tag_20:\n      pop\n      gas\n      staticcall\n      iszero\n      dup1\n      iszero\n      tag_22\n      jumpi\n      returndatasize\n      0x00\n      dup1\n      returndatacopy\n      revert(0x00, returndatasize)\n    tag_22:\n      pop\n      pop\n      pop\n      pop\n      mload(0x40)\n      returndatasize\n      not(0x1f)\n      0x1f\n      dup3\n      add\n      and\n      dup3\n      add\n      dup1\n      0x40\n      mstore\n      pop\n      dup2\n      add\n      swap1\n      tag_23\n      swap2\n      swap1\n      tag_24\n      jump\t// in\n    tag_23:\n      pop\n        /* \"solidity_korea/CallTestContract.sol\":178:267  function getX(address _test, uint _x) external {... */\n      pop\n      pop\n      jump\t// out\n        /* \"#utility.yul\":7:146   */\n    tag_26:\n        /* \"#utility.yul\":53:58   */\n      0x00\n        /* \"#utility.yul\":91:97   */\n      dup2\n        /* \"#utility.yul\":78:98   */\n      calldataload\n        /* \"#utility.yul\":69:98   */\n      swap1\n      pop\n        /* \"#utility.yul\":107:140   */\n      tag_28\n        /* \"#utility.yul\":134:139   */\n      dup2\n        /* \"#utility.yul\":107:140   */\n      tag_29\n      jump\t// in\n    tag_28:\n        /* \"#utility.yul\":7:146   */\n      swap3\n      swap2\n      pop\n      pop\n      jump\t// out\n        /* \"#utility.yul\":152:329   */\n    tag_30:\n        /* \"#utility.yul\":217:222   */\n      0x00\n        /* \"#utility.yul\":255:261   */\n      dup2\n        /* \"#utility.yul\":242:262   */\n      calldataload\n        /* \"#utility.yul\":233:262   */\n      swap1\n      pop\n        /* \"#utility.yul\":271:323   */\n      tag_32\n        /* \"#utility.yul\":317:322   */\n      dup2\n        /* \"#utility.yul\":271:323   */\n      tag_33\n      jump\t// in\n    tag_32:\n        /* \"#utility.yul\":152:329   */\n      swap3\n      swap2\n      pop\n      pop\n      jump\t// out\n        /* \"#utility.yul\":335:474   */\n    tag_34:\n        /* \"#utility.yul\":381:386   */\n      0x00\n        /* \"#utility.yul\":419:425   */\n      dup2\n        /* \"#utility.yul\":406:426   */\n      calldataload\n        /* \"#utility.yul\":397:426   */\n      swap1\n      pop\n        /* \"#utility.yul\":435:468   */\n      tag_36\n        /* \"#utility.yul\":462:467   */\n      dup2\n        /* \"#utility.yul\":435:468   */\n      tag_37\n      jump\t// in\n    tag_36:\n        /* \"#utility.yul\":335:474   */\n      swap3\n      swap2\n      pop\n      pop\n      jump\t// out\n        /* \"#utility.yul\":480:623   */\n    tag_38:\n        /* \"#utility.yul\":537:542   */\n      0x00\n        /* \"#utility.yul\":568:574   */\n      dup2\n        /* \"#utility.yul\":562:575   */\n      mload\n        /* \"#utility.yul\":553:575   */\n      swap1\n      pop\n        /* \"#utility.yul\":584:617   */\n      tag_40\n        /* \"#utility.yul\":611:616   */\n      dup2\n        /* \"#utility.yul\":584:617   */\n      tag_37\n      jump\t// in\n    tag_40:\n        /* \"#utility.yul\":480:623   */\n      swap3\n      swap2\n      pop\n      pop\n      jump\t// out\n        /* \"#utility.yul\":629:1103   */\n    tag_11:\n        /* \"#utility.yul\":697:703   */\n      0x00\n        /* \"#utility.yul\":705:711   */\n      dup1\n        /* \"#utility.yul\":754:756   */\n      0x40\n        /* \"#utility.yul\":742:751   */\n      dup4\n        /* \"#utility.yul\":733:740   */\n      dup6\n        /* \"#utility.yul\":729:752   */\n      sub\n        /* \"#utility.yul\":725:757   */\n      slt\n        /* \"#utility.yul\":722:841   */\n      iszero\n      tag_42\n      jumpi\n        /* \"#utility.yul\":760:839   */\n      tag_43\n      tag_44\n      jump\t// in\n    tag_43:\n        /* \"#utility.yul\":722:841   */\n    tag_42:\n        /* \"#utility.yul\":880:881   */\n      0x00\n        /* \"#utility.yul\":905:958   */\n      tag_45\n        /* \"#utility.yul\":950:957   */\n      dup6\n        /* \"#utility.yul\":941:947   */\n      dup3\n        /* \"#utility.yul\":930:939   */\n      dup7\n        /* \"#utility.yul\":926:948   */\n      add\n        /* \"#utility.yul\":905:958   */\n      tag_26\n      jump\t// in\n    tag_45:\n        /* \"#utility.yul\":895:958   */\n      swap3\n      pop\n        /* \"#utility.yul\":851:968   */\n      pop\n        /* \"#utility.yul\":1007:1009   */\n      0x20\n        /* \"#utility.yul\":1033:1086   */\n      tag_46\n        /* \"#utility.yul\":1078:1085   */\n      dup6\n        /* \"#utility.yul\":1069:1075   */\n      dup3\n        /* \"#utility.yul\":1058:1067   */\n      dup7\n        /* \"#utility.yul\":1054:1076   */\n      add\n        /* \"#utility.yul\":1033:1086   */\n      tag_34\n      jump\t// in\n    tag_46:\n        /* \"#utility.yul\":1023:1086   */\n      swap2\n      pop\n        /* \"#utility.yul\":978:1096   */\n      pop\n        /* \"#utility.yul\":629:1103   */\n      swap3\n      pop\n      swap3\n      swap1\n      pop\n      jump\t// out\n        /* \"#utility.yul\":1109:1621   */\n    tag_7:\n        /* \"#utility.yul\":1196:1202   */\n      0x00\n        /* \"#utility.yul\":1204:1210   */\n      dup1\n        /* \"#utility.yul\":1253:1255   */\n      0x40\n        /* \"#utility.yul\":1241:1250   */\n      dup4\n        /* \"#utility.yul\":1232:1239   */\n      dup6\n        /* \"#utility.yul\":1228:1251   */\n      sub\n        /* \"#utility.yul\":1224:1256   */\n      slt\n        /* \"#utility.yul\":1221:1340   */\n      iszero\n      tag_48\n      jumpi\n        /* \"#utility.yul\":1259:1338   */\n      tag_49\n      tag_44\n      jump\t// in\n    tag_49:\n        /* \"#utility.yul\":1221:1340   */\n    tag_48:\n        /* \"#utility.yul\":1379:1380   */\n      0x00\n        /* \"#utility.yul\":1404:1476   */\n      tag_50\n        /* \"#utility.yul\":1468:1475   */\n      dup6\n        /* \"#utility.yul\":1459:1465   */\n      dup3\n        /* \"#utility.yul\":1448:1457   */\n      dup7\n        /* \"#utility.yul\":1444:1466   */\n      add\n        /* \"#utility.yul\":1404:1476   */\n      tag_30\n      jump\t// in\n    tag_50:\n        /* \"#utility.yul\":1394:1476   */\n      swap3\n      pop\n        /* \"#utility.yul\":1350:1486   */\n      pop\n        /* \"#utility.yul\":1525:1527   */\n      0x20\n        /* \"#utility.yul\":1551:1604   */\n      tag_51\n        /* \"#utility.yul\":1596:1603   */\n      dup6\n        /* \"#utility.yul\":1587:1593   */\n      dup3\n        /* \"#utility.yul\":1576:1585   */\n      dup7\n        /* \"#utility.yul\":1572:1594   */\n      add\n        /* \"#utility.yul\":1551:1604   */\n      tag_34\n      jump\t// in\n    tag_51:\n        /* \"#utility.yul\":1541:1604   */\n      swap2\n      pop\n        /* \"#utility.yul\":1496:1614   */\n      pop\n        /* \"#utility.yul\":1109:1621   */\n      swap3\n      pop\n      swap3\n      swap1\n      pop\n      jump\t// out\n        /* \"#utility.yul\":1627:1978   */\n    tag_24:\n        /* \"#utility.yul\":1697:1703   */\n      0x00\n        /* \"#utility.yul\":1746:1748   */\n      0x20\n        /* \"#utility.yul\":1734:1743   */\n      dup3\n        /* \"#utility.yul\":1725:1732   */\n      dup5\n        /* \"#utility.yul\":1721:1744   */\n      sub\n        /* \"#utility.yul\":1717:1749   */\n      slt\n        /* \"#utility.yul\":1714:1833   */\n      iszero\n      tag_53\n      jumpi\n        /* \"#utility.yul\":1752:1831   */\n      tag_54\n      tag_44\n      jump\t// in\n    tag_54:\n        /* \"#utility.yul\":1714:1833   */\n    tag_53:\n        /* \"#utility.yul\":1872:1873   */\n      0x00\n        /* \"#utility.yul\":1897:1961   */\n      tag_55\n        /* \"#utility.yul\":1953:1960   */\n      dup5\n        /* \"#utility.yul\":1944:1950   */\n      dup3\n        /* \"#utility.yul\":1933:1942   */\n      dup6\n        /* \"#utility.yul\":1929:1951   */\n      add\n        /* \"#utility.yul\":1897:1961   */\n      tag_38\n      jump\t// in\n    tag_55:\n        /* \"#utility.yul\":1887:1961   */\n      swap2\n      pop\n        /* \"#utility.yul\":1843:1971   */\n      pop\n        /* \"#utility.yul\":1627:1978   */\n      swap3\n      swap2\n      pop\n      pop\n      jump\t// out\n        /* \"#utility.yul\":1984:2102   */\n    tag_56:\n        /* \"#utility.yul\":2071:2095   */\n      tag_58\n        /* \"#utility.yul\":2089:2094   */\n      dup2\n        /* \"#utility.yul\":2071:2095   */\n      tag_59\n      jump\t// in\n    tag_58:\n        /* \"#utility.yul\":2066:2069   */\n      dup3\n        /* \"#utility.yul\":2059:2096   */\n      mstore\n        /* \"#utility.yul\":1984:2102   */\n      pop\n      pop\n      jump\t// out\n        /* \"#utility.yul\":2108:2330   */\n    tag_15:\n        /* \"#utility.yul\":2201:2205   */\n      0x00\n        /* \"#utility.yul\":2239:2241   */\n      0x20\n        /* \"#utility.yul\":2228:2237   */\n      dup3\n        /* \"#utility.yul\":2224:2242   */\n      add\n        /* \"#utility.yul\":2216:2242   */\n      swap1\n      pop\n        /* \"#utility.yul\":2252:2323   */\n      tag_61\n        /* \"#utility.yul\":2320:2321   */\n      0x00\n        /* \"#utility.yul\":2309:2318   */\n      dup4\n        /* \"#utility.yul\":2305:2322   */\n      add\n        /* \"#utility.yul\":2296:2302   */\n      dup5\n        /* \"#utility.yul\":2252:2323   */\n      tag_56\n      jump\t// in\n    tag_61:\n        /* \"#utility.yul\":2108:2330   */\n      swap3\n      swap2\n      pop\n      pop\n      jump\t// out\n        /* \"#utility.yul\":2417:2513   */\n    tag_64:\n        /* \"#utility.yul\":2454:2461   */\n      0x00\n        /* \"#utility.yul\":2483:2507   */\n      tag_66\n        /* \"#utility.yul\":2501:2506   */\n      dup3\n        /* \"#utility.yul\":2483:2507   */\n      tag_67\n      jump\t// in\n    tag_66:\n        /* \"#utility.yul\":2472:2507   */\n      swap1\n      pop\n        /* \"#utility.yul\":2417:2513   */\n      swap2\n      swap1\n      pop\n      jump\t// out\n        /* \"#utility.yul\":2519:2634   */\n    tag_68:\n        /* \"#utility.yul\":2575:2582   */\n      0x00\n        /* \"#utility.yul\":2604:2628   */\n      tag_70\n        /* \"#utility.yul\":2622:2627   */\n      dup3\n        /* \"#utility.yul\":2604:2628   */\n      tag_64\n      jump\t// in\n    tag_70:\n        /* \"#utility.yul\":2593:2628   */\n      swap1\n      pop\n        /* \"#utility.yul\":2519:2634   */\n      swap2\n      swap1\n      pop\n      jump\t// out\n        /* \"#utility.yul\":2640:2766   */\n    tag_67:\n        /* \"#utility.yul\":2677:2684   */\n      0x00\n        /* \"#utility.yul\":2717:2759   */\n      0xffffffffffffffffffffffffffffffffffffffff\n        /* \"#utility.yul\":2710:2715   */\n      dup3\n        /* \"#utility.yul\":2706:2760   */\n      and\n        /* \"#utility.yul\":2695:2760   */\n      swap1\n      pop\n        /* \"#utility.yul\":2640:2766   */\n      swap2\n      swap1\n      pop\n      jump\t// out\n        /* \"#utility.yul\":2772:2849   */\n    tag_59:\n        /* \"#utility.yul\":2809:2816   */\n      0x00\n        /* \"#utility.yul\":2838:2843   */\n      dup2\n        /* \"#utility.yul\":2827:2843   */\n      swap1\n      pop\n        /* \"#utility.yul\":2772:2849   */\n      swap2\n      swap1\n      pop\n      jump\t// out\n        /* \"#utility.yul\":2978:3095   */\n    tag_44:\n        /* \"#utility.yul\":3087:3088   */\n      0x00\n        /* \"#utility.yul\":3084:3085   */\n      dup1\n        /* \"#utility.yul\":3077:3089   */\n      revert\n        /* \"#utility.yul\":3101:3223   */\n    tag_29:\n        /* \"#utility.yul\":3174:3198   */\n      tag_77\n        /* \"#utility.yul\":3192:3197   */\n      dup2\n        /* \"#utility.yul\":3174:3198   */\n      tag_64\n      jump\t// in\n    tag_77:\n        /* \"#utility.yul\":3167:3172   */\n      dup2\n        /* \"#utility.yul\":3164:3199   */\n      eq\n        /* \"#utility.yul\":3154:3217   */\n      tag_78\n      jumpi\n        /* \"#utility.yul\":3213:3214   */\n      0x00\n        /* \"#utility.yul\":3210:3211   */\n      dup1\n        /* \"#utility.yul\":3203:3215   */\n      revert\n        /* \"#utility.yul\":3154:3217   */\n    tag_78:\n        /* \"#utility.yul\":3101:3223   */\n      pop\n      jump\t// out\n        /* \"#utility.yul\":3229:3389   */\n    tag_33:\n        /* \"#utility.yul\":3321:3364   */\n      tag_80\n        /* \"#utility.yul\":3358:3363   */\n      dup2\n        /* \"#utility.yul\":3321:3364   */\n      tag_68\n      jump\t// in\n    tag_80:\n        /* \"#utility.yul\":3314:3319   */\n      dup2\n        /* \"#utility.yul\":3311:3365   */\n      eq\n        /* \"#utility.yul\":3301:3383   */\n      tag_81\n      jumpi\n        /* \"#utility.yul\":3379:3380   */\n      0x00\n        /* \"#utility.yul\":3376:3377   */\n      dup1\n        /* \"#utility.yul\":3369:3381   */\n      revert\n        /* \"#utility.yul\":3301:3383   */\n    tag_81:\n        /* \"#utility.yul\":3229:3389   */\n      pop\n      jump\t// out\n        /* \"#utility.yul\":3395:3517   */\n    tag_37:\n        /* \"#utility.yul\":3468:3492   */\n      tag_83\n        /* \"#utility.yul\":3486:3491   */\n      dup2\n        /* \"#utility.yul\":3468:3492   */\n      tag_59\n      jump\t// in\n    tag_83:\n        /* \"#utility.yul\":3461:3466   */\n      dup2\n        /* \"#utility.yul\":3458:3493   */\n      eq\n        /* \"#utility.yul\":3448:3511   */\n      tag_84\n      jumpi\n        /* \"#utility.yul\":3507:3508   */\n      0x00\n        /* \"#utility.yul\":3504:3505   */\n      dup1\n        /* \"#utility.yul\":3497:3509   */\n      revert\n        /* \"#utility.yul\":3448:3511   */\n    tag_84:\n        /* \"#utility.yul\":3395:3517   */\n      pop\n      jump\t// out\n\n    auxdata: 0xa264697066735822122027ba909ccd425137e3b66823c663705c79b21cddece74cf0dd5f5b8a7e98286764736f6c63430008070033\n}\n",
				"bytecode": {
					"linkReferences": {},
					"object": "608060405234801561001057600080fd5b5061035e806100206000396000f3fe608060405234801561001057600080fd5b50600436106100365760003560e01c80634a2ad99f1461003b578063525b63e014610057575b600080fd5b610055600480360381019061005091906101f9565b610073565b005b610071600480360381019061006c91906101b9565b6100e2565b005b8173ffffffffffffffffffffffffffffffffffffffff16634018d9aa826040518263ffffffff1660e01b81526004016100ac9190610275565b600060405180830381600087803b1580156100c657600080fd5b505af11580156100da573d6000803e3d6000fd5b505050505050565b8173ffffffffffffffffffffffffffffffffffffffff16635197c7aa6040518163ffffffff1660e01b815260040160206040518083038186803b15801561012857600080fd5b505afa15801561013c573d6000803e3d6000fd5b505050506040513d601f19601f820116820180604052508101906101609190610239565b505050565b600081359050610174816102e3565b92915050565b600081359050610189816102fa565b92915050565b60008135905061019e81610311565b92915050565b6000815190506101b381610311565b92915050565b600080604083850312156101d0576101cf6102de565b5b60006101de85828601610165565b92505060206101ef8582860161018f565b9150509250929050565b600080604083850312156102105761020f6102de565b5b600061021e8582860161017a565b925050602061022f8582860161018f565b9150509250929050565b60006020828403121561024f5761024e6102de565b5b600061025d848285016101a4565b91505092915050565b61026f816102d4565b82525050565b600060208201905061028a6000830184610266565b92915050565b600061029b826102b4565b9050919050565b60006102ad82610290565b9050919050565b600073ffffffffffffffffffffffffffffffffffffffff82169050919050565b6000819050919050565b600080fd5b6102ec81610290565b81146102f757600080fd5b50565b610303816102a2565b811461030e57600080fd5b50565b61031a816102d4565b811461032557600080fd5b5056fea264697066735822122027ba909ccd425137e3b66823c663705c79b21cddece74cf0dd5f5b8a7e98286764736f6c63430008070033",
					"opcodes": "PUSH1 0x80 PUSH1 0x40 MSTORE CALLVALUE DUP1 ISZERO PUSH2 0x10 JUMPI PUSH1 0x0 DUP1 REVERT JUMPDEST POP PUSH2 0x35E DUP1 PUSH2 0x20 PUSH1 0x0 CODECOPY PUSH1 0x0 RETURN INVALID PUSH1 0x80 PUSH1 0x40 MSTORE CALLVALUE DUP1 ISZERO PUSH2 0x10 JUMPI PUSH1 0x0 DUP1 REVERT JUMPDEST POP PUSH1 0x4 CALLDATASIZE LT PUSH2 0x36 JUMPI PUSH1 0x0 CALLDATALOAD PUSH1 0xE0 SHR DUP1 PUSH4 0x4A2AD99F EQ PUSH2 0x3B JUMPI DUP1 PUSH4 0x525B63E0 EQ PUSH2 0x57 JUMPI JUMPDEST PUSH1 0x0 DUP1 REVERT JUMPDEST PUSH2 0x55 PUSH1 0x4 DUP1 CALLDATASIZE SUB DUP2 ADD SWAP1 PUSH2 0x50 SWAP2 SWAP1 PUSH2 0x1F9 JUMP JUMPDEST PUSH2 0x73 JUMP JUMPDEST STOP JUMPDEST PUSH2 0x71 PUSH1 0x4 DUP1 CALLDATASIZE SUB DUP2 ADD SWAP1 PUSH2 0x6C SWAP2 SWAP1 PUSH2 0x1B9 JUMP JUMPDEST PUSH2 0xE2 JUMP JUMPDEST STOP JUMPDEST DUP2 PUSH20 0xFFFFFFFFFFFFFFFFFFFFFFFFFFFFFFFFFFFFFFFF AND PUSH4 0x4018D9AA DUP3 PUSH1 0x40 MLOAD DUP3 PUSH4 0xFFFFFFFF AND PUSH1 0xE0 SHL DUP2 MSTORE PUSH1 0x4 ADD PUSH2 0xAC SWAP2 SWAP1 PUSH2 0x275 JUMP JUMPDEST PUSH1 0x0 PUSH1 0x40 MLOAD DUP1 DUP4 SUB DUP2 PUSH1 0x0 DUP8 DUP1 EXTCODESIZE ISZERO DUP1 ISZERO PUSH2 0xC6 JUMPI PUSH1 0x0 DUP1 REVERT JUMPDEST POP GAS CALL ISZERO DUP1 ISZERO PUSH2 0xDA JUMPI RETURNDATASIZE PUSH1 0x0 DUP1 RETURNDATACOPY RETURNDATASIZE PUSH1 0x0 REVERT JUMPDEST POP POP POP POP POP POP JUMP JUMPDEST DUP2 PUSH20 0xFFFFFFFFFFFFFFFFFFFFFFFFFFFFFFFFFFFFFFFF AND PUSH4 0x5197C7AA PUSH1 0x40 MLOAD DUP2 PUSH4 0xFFFFFFFF AND PUSH1 0xE0 SHL DUP2 MSTORE PUSH1 0x4 ADD PUSH1 0x20 PUSH1 0x40 MLOAD DUP1 DUP4 SUB DUP2 DUP7 DUP1 EXTCODESIZE ISZERO DUP1 ISZERO PUSH2 0x128 JUMPI PUSH1 0x0 DUP1 REVERT JUMPDEST POP GAS STATICCALL ISZERO DUP1 ISZERO PUSH2 0x13C JUMPI RETURNDATASIZE PUSH1 0x0 DUP1 RETURNDATACOPY RETURNDATASIZE PUSH1 0x0 REVERT JUMPDEST POP POP POP POP PUSH1 0x40 MLOAD RETURNDATASIZE PUSH1 0x1F NOT PUSH1 0x1F DUP3 ADD AND DUP3 ADD DUP1 PUSH1 0x40 MSTORE POP DUP2 ADD SWAP1 PUSH2 0x160 SWAP2 SWAP1 PUSH2 0x239 JUMP JUMPDEST POP POP POP JUMP JUMPDEST PUSH1 0x0 DUP2 CALLDATALOAD SWAP1 POP PUSH2 0x174 DUP2 PUSH2 0x2E3 JUMP JUMPDEST SWAP3 SWAP2 POP POP JUMP JUMPDEST PUSH1 0x0 DUP2 CALLDATALOAD SWAP1 POP PUSH2 0x189 DUP2 PUSH2 0x2FA JUMP JUMPDEST SWAP3 SWAP2 POP POP JUMP JUMPDEST PUSH1 0x0 DUP2 CALLDATALOAD SWAP1 POP PUSH2 0x19E DUP2 PUSH2 0x311 JUMP JUMPDEST SWAP3 SWAP2 POP POP JUMP JUMPDEST PUSH1 0x0 DUP2 MLOAD SWAP1 POP PUSH2 0x1B3 DUP2 PUSH2 0x311 JUMP JUMPDEST SWAP3 SWAP2 POP POP JUMP JUMPDEST PUSH1 0x0 DUP1 PUSH1 0x40 DUP4 DUP6 SUB SLT ISZERO PUSH2 0x1D0 JUMPI PUSH2 0x1CF PUSH2 0x2DE JUMP JUMPDEST JUMPDEST PUSH1 0x0 PUSH2 0x1DE DUP6 DUP3 DUP7 ADD PUSH2 0x165 JUMP JUMPDEST SWAP3 POP POP PUSH1 0x20 PUSH2 0x1EF DUP6 DUP3 DUP7 ADD PUSH2 0x18F JUMP JUMPDEST SWAP2 POP POP SWAP3 POP SWAP3 SWAP1 POP JUMP JUMPDEST PUSH1 0x0 DUP1 PUSH1 0x40 DUP4 DUP6 SUB SLT ISZERO PUSH2 0x210 JUMPI PUSH2 0x20F PUSH2 0x2DE JUMP JUMPDEST JUMPDEST PUSH1 0x0 PUSH2 0x21E DUP6 DUP3 DUP7 ADD PUSH2 0x17A JUMP JUMPDEST SWAP3 POP POP PUSH1 0x20 PUSH2 0x22F DUP6 DUP3 DUP7 ADD PUSH2 0x18F JUMP JUMPDEST SWAP2 POP POP SWAP3 POP SWAP3 SWAP1 POP JUMP JUMPDEST PUSH1 0x0 PUSH1 0x20 DUP3 DUP5 SUB SLT ISZERO PUSH2 0x24F JUMPI PUSH2 0x24E PUSH2 0x2DE JUMP JUMPDEST JUMPDEST PUSH1 0x0 PUSH2 0x25D DUP5 DUP3 DUP6 ADD PUSH2 0x1A4 JUMP JUMPDEST SWAP2 POP POP SWAP3 SWAP2 POP POP JUMP JUMPDEST PUSH2 0x26F DUP2 PUSH2 0x2D4 JUMP JUMPDEST DUP3 MSTORE POP POP JUMP JUMPDEST PUSH1 0x0 PUSH1 0x20 DUP3 ADD SWAP1 POP PUSH2 0x28A PUSH1 0x0 DUP4 ADD DUP5 PUSH2 0x266 JUMP JUMPDEST SWAP3 SWAP2 POP POP JUMP JUMPDEST PUSH1 0x0 PUSH2 0x29B DUP3 PUSH2 0x2B4 JUMP JUMPDEST SWAP1 POP SWAP2 SWAP1 POP JUMP JUMPDEST PUSH1 0x0 PUSH2 0x2AD DUP3 PUSH2 0x290 JUMP JUMPDEST SWAP1 POP SWAP2 SWAP1 POP JUMP JUMPDEST PUSH1 0x0 PUSH20 0xFFFFFFFFFFFFFFFFFFFFFFFFFFFFFFFFFFFFFFFF DUP3 AND SWAP1 POP SWAP2 SWAP1 POP JUMP JUMPDEST PUSH1 0x0 DUP2 SWAP1 POP SWAP2 SWAP1 POP JUMP JUMPDEST PUSH1 0x0 DUP1 REVERT JUMPDEST PUSH2 0x2EC DUP2 PUSH2 0x290 JUMP JUMPDEST DUP2 EQ PUSH2 0x2F7 JUMPI PUSH1 0x0 DUP1 REVERT JUMPDEST POP JUMP JUMPDEST PUSH2 0x303 DUP2 PUSH2 0x2A2 JUMP JUMPDEST DUP2 EQ PUSH2 0x30E JUMPI PUSH1 0x0 DUP1 REVERT JUMPDEST POP JUMP JUMPDEST PUSH2 0x31A DUP2 PUSH2 0x2D4 JUMP JUMPDEST DUP2 EQ PUSH2 0x325 JUMPI PUSH1 0x0 DUP1 REVERT JUMPDEST POP JUMP INVALID LOG2 PUSH5 0x6970667358 0x22 SLT KECCAK256 0x27 0xBA SWAP1 SWAP13 0xCD TIMESTAMP MLOAD CALLDATACOPY 0xE3 0xB6 PUSH9 0x23C663705C79B21CDD 0xEC 0xE7 0x4C CREATE 0xDD 0x5F JUMPDEST DUP11 PUSH31 0x98286764736F6C634300080700330000000000000000000000000000000000 "
				},
				"gasEstimates": {
					"creation": {
						"codeDepositCost": "172400",
						"executionCost": "214",
						"totalCost": "172614"
					},
					"external": {
						"getX(address,uint256)": "infinite",
						"setX(address,uint256)": "infinite"
					}
				},
				"methodIdentifiers": {
					"getX(address,uint256)": "525b63e0",
					"setX(address,uint256)": "4a2ad99f"
				}
			},
			"storageLayout": {
				"storage": [],
				"types": null
			},
			"userdoc": {
				"kind": "user",
				"methods": {},
				"version": 1
			}
		}
	}
}