{
	"solidity_korea/visibility.sol": {
		"B": {
			"abi": [
				{
					"inputs": [],
					"name": "pub",
					"outputs": [
						{
							"internalType": "uint256",
							"name": "",
							"type": "uint256"
						}
					],
					"stateMutability": "pure",
					"type": "function"
				},
				{
					"inputs": [],
					"name": "pubTest",
					"outputs": [
						{
							"internalType": "uint256",
							"name": "",
							"type": "uint256"
						}
					],
					"stateMutability": "pure",
					"type": "function"
				}
			],
			"devdoc": {
				"kind": "dev",
				"methods": {},
				"version": 1
			},
			"evm": {
				"assembly": "    /* \"solidity_korea/visibility.sol\":345:447  contract B is A{... */\n  mstore(0x40, 0x80)\n  callvalue\n  dup1\n  iszero\n  tag_1\n  jumpi\n  0x00\n  dup1\n  revert\ntag_1:\n  pop\n  dataSize(sub_0)\n  dup1\n  dataOffset(sub_0)\n  0x00\n  codecopy\n  0x00\n  return\nstop\n\nsub_0: assembly {\n        /* \"solidity_korea/visibility.sol\":345:447  contract B is A{... */\n      mstore(0x40, 0x80)\n      callvalue\n      dup1\n      iszero\n      tag_1\n      jumpi\n      0x00\n      dup1\n      revert\n    tag_1:\n      pop\n      jumpi(tag_2, lt(calldatasize, 0x04))\n      shr(0xe0, calldataload(0x00))\n      dup1\n      0x7defb410\n      eq\n      tag_3\n      jumpi\n      dup1\n      0xec60bd86\n      eq\n      tag_4\n      jumpi\n    tag_2:\n      0x00\n      dup1\n      revert\n        /* \"solidity_korea/visibility.sol\":266:334  function pub() public pure returns (uint){... */\n    tag_3:\n      tag_5\n      tag_6\n      jump\t// in\n    tag_5:\n      mload(0x40)\n      tag_7\n      swap2\n      swap1\n      tag_8\n      jump\t// in\n    tag_7:\n      mload(0x40)\n      dup1\n      swap2\n      sub\n      swap1\n      return\n        /* \"solidity_korea/visibility.sol\":367:444  function pubTest() external pure returns(uint){... */\n    tag_4:\n      tag_9\n      tag_10\n      jump\t// in\n    tag_9:\n      mload(0x40)\n      tag_11\n      swap2\n      swap1\n      tag_8\n      jump\t// in\n    tag_11:\n      mload(0x40)\n      dup1\n      swap2\n      sub\n      swap1\n      return\n        /* \"solidity_korea/visibility.sol\":266:334  function pub() public pure returns (uint){... */\n    tag_6:\n        /* \"solidity_korea/visibility.sol\":302:306  uint */\n      0x00\n        /* \"solidity_korea/visibility.sol\":325:326  1 */\n      0x01\n        /* \"solidity_korea/visibility.sol\":318:326  return 1 */\n      swap1\n      pop\n        /* \"solidity_korea/visibility.sol\":266:334  function pub() public pure returns (uint){... */\n      swap1\n      jump\t// out\n        /* \"solidity_korea/visibility.sol\":367:444  function pubTest() external pure returns(uint){... */\n    tag_10:\n        /* \"solidity_korea/visibility.sol\":408:412  uint */\n      0x00\n        /* \"solidity_korea/visibility.sol\":431:436  pub() */\n      tag_14\n        /* \"solidity_korea/visibility.sol\":431:434  pub */\n      tag_6\n        /* \"solidity_korea/visibility.sol\":431:436  pub() */\n      jump\t// in\n    tag_14:\n        /* \"solidity_korea/visibility.sol\":424:436  return pub() */\n      swap1\n      pop\n        /* \"solidity_korea/visibility.sol\":367:444  function pubTest() external pure returns(uint){... */\n      swap1\n      jump\t// out\n        /* \"#utility.yul\":7:125   */\n    tag_16:\n        /* \"#utility.yul\":94:118   */\n      tag_18\n        /* \"#utility.yul\":112:117   */\n      dup2\n        /* \"#utility.yul\":94:118   */\n      tag_19\n      jump\t// in\n    tag_18:\n        /* \"#utility.yul\":89:92   */\n      dup3\n        /* \"#utility.yul\":82:119   */\n      mstore\n        /* \"#utility.yul\":7:125   */\n      pop\n      pop\n      jump\t// out\n        /* \"#utility.yul\":131:353   */\n    tag_8:\n        /* \"#utility.yul\":224:228   */\n      0x00\n        /* \"#utility.yul\":262:264   */\n      0x20\n        /* \"#utility.yul\":251:260   */\n      dup3\n        /* \"#utility.yul\":247:265   */\n      add\n        /* \"#utility.yul\":239:265   */\n      swap1\n      pop\n        /* \"#utility.yul\":275:346   */\n      tag_21\n        /* \"#utility.yul\":343:344   */\n      0x00\n        /* \"#utility.yul\":332:341   */\n      dup4\n        /* \"#utility.yul\":328:345   */\n      add\n        /* \"#utility.yul\":319:325   */\n      dup5\n        /* \"#utility.yul\":275:346   */\n      tag_16\n      jump\t// in\n    tag_21:\n        /* \"#utility.yul\":131:353   */\n      swap3\n      swap2\n      pop\n      pop\n      jump\t// out\n        /* \"#utility.yul\":359:436   */\n    tag_19:\n        /* \"#utility.yul\":396:403   */\n      0x00\n        /* \"#utility.yul\":425:430   */\n      dup2\n        /* \"#utility.yul\":414:430   */\n      swap1\n      pop\n        /* \"#utility.yul\":359:436   */\n      swap2\n      swap1\n      pop\n      jump\t// out\n\n    auxdata: 0xa26469706673582212205620bd6b5c7839f13e757ecd19cc50851766b4931345e80ec1534b7d072a65f864736f6c63430008070033\n}\n",
				"bytecode": {
					"linkReferences": {},
					"object": "608060405234801561001057600080fd5b5060e78061001f6000396000f3fe6080604052348015600f57600080fd5b506004361060325760003560e01c80637defb410146037578063ec60bd86146051575b600080fd5b603d606b565b60405160489190608e565b60405180910390f35b60576074565b60405160629190608e565b60405180910390f35b60006001905090565b6000607c606b565b905090565b60888160a7565b82525050565b600060208201905060a160008301846081565b92915050565b600081905091905056fea26469706673582212205620bd6b5c7839f13e757ecd19cc50851766b4931345e80ec1534b7d072a65f864736f6c63430008070033",
					"opcodes": "PUSH1 0x80 PUSH1 0x40 MSTORE CALLVALUE DUP1 ISZERO PUSH2 0x10 JUMPI PUSH1 0x0 DUP1 REVERT JUMPDEST POP PUSH1 0xE7 DUP1 PUSH2 0x1F PUSH1 0x0 CODECOPY PUSH1 0x0 RETURN INVALID PUSH1 0x80 PUSH1 0x40 MSTORE CALLVALUE DUP1 ISZERO PUSH1 0xF JUMPI PUSH1 0x0 DUP1 REVERT JUMPDEST POP PUSH1 0x4 CALLDATASIZE LT PUSH1 0x32 JUMPI PUSH1 0x0 CALLDATALOAD PUSH1 0xE0 SHR DUP1 PUSH4 0x7DEFB410 EQ PUSH1 0x37 JUMPI DUP1 PUSH4 0xEC60BD86 EQ PUSH1 0x51 JUMPI JUMPDEST PUSH1 0x0 DUP1 REVERT JUMPDEST PUSH1 0x3D PUSH1 0x6B JUMP JUMPDEST PUSH1 0x40 MLOAD PUSH1 0x48 SWAP2 SWAP1 PUSH1 0x8E JUMP JUMPDEST PUSH1 0x40 MLOAD DUP1 SWAP2 SUB SWAP1 RETURN JUMPDEST PUSH1 0x57 PUSH1 0x74 JUMP JUMPDEST PUSH1 0x40 MLOAD PUSH1 0x62 SWAP2 SWAP1 PUSH1 0x8E JUMP JUMPDEST PUSH1 0x40 MLOAD DUP1 SWAP2 SUB SWAP1 RETURN JUMPDEST PUSH1 0x0 PUSH1 0x1 SWAP1 POP SWAP1 JUMP JUMPDEST PUSH1 0x0 PUSH1 0x7C PUSH1 0x6B JUMP JUMPDEST SWAP1 POP SWAP1 JUMP JUMPDEST PUSH1 0x88 DUP2 PUSH1 0xA7 JUMP JUMPDEST DUP3 MSTORE POP POP JUMP JUMPDEST PUSH1 0x0 PUSH1 0x20 DUP3 ADD SWAP1 POP PUSH1 0xA1 PUSH1 0x0 DUP4 ADD DUP5 PUSH1 0x81 JUMP JUMPDEST SWAP3 SWAP2 POP POP JUMP JUMPDEST PUSH1 0x0 DUP2 SWAP1 POP SWAP2 SWAP1 POP JUMP INVALID LOG2 PUSH5 0x6970667358 0x22 SLT KECCAK256 JUMP KECCAK256 0xBD PUSH12 0x5C7839F13E757ECD19CC5085 OR PUSH7 0xB4931345E80EC1 MSTORE8 0x4B PUSH30 0x72A65F864736F6C63430008070033000000000000000000000000000000 "
				},
				"gasEstimates": {
					"creation": {
						"codeDepositCost": "46200",
						"executionCost": "99",
						"totalCost": "46299"
					},
					"external": {
						"pub()": "315",
						"pubTest()": "372"
					}
				},
				"methodIdentifiers": {
					"pub()": "7defb410",
					"pubTest()": "ec60bd86"
				}
			},
			"storageLayout": {
				"storage": [],
				"types": null
			},
			"userdoc": {
				"kind": "user",
				"methods": {},
				"version": 1
			}
		}
	}
}