{
	"solidity_korea/visibility.sol": {
		"B": {
			"abi": [
				{
					"inputs": [],
					"name": "B",
					"outputs": [
						{
							"internalType": "uint256",
							"name": "",
							"type": "uint256"
						}
					],
					"stateMutability": "nonpayable",
					"type": "function"
				},
				{
					"inputs": [],
					"name": "pubTest",
					"outputs": [
						{
							"internalType": "uint256",
							"name": "",
							"type": "uint256"
						}
					],
					"stateMutability": "pure",
					"type": "function"
				}
			],
			"devdoc": {
				"kind": "dev",
				"methods": {},
				"version": 1
			},
			"evm": {
				"assembly": "    /* \"solidity_korea/visibility.sol\":419:519  contract B is A{... */\n  mstore(0x40, 0x80)\n  callvalue\n  dup1\n  iszero\n  tag_1\n  jumpi\n  0x00\n  dup1\n  revert\ntag_1:\n  pop\n  dataSize(sub_0)\n  dup1\n  dataOffset(sub_0)\n  0x00\n  codecopy\n  0x00\n  return\nstop\n\nsub_0: assembly {\n        /* \"solidity_korea/visibility.sol\":419:519  contract B is A{... */\n      mstore(0x40, 0x80)\n      callvalue\n      dup1\n      iszero\n      tag_1\n      jumpi\n      0x00\n      dup1\n      revert\n    tag_1:\n      pop\n      jumpi(tag_2, lt(calldatasize, 0x04))\n      shr(0xe0, calldataload(0x00))\n      dup1\n      0x32e7c5bf\n      eq\n      tag_3\n      jumpi\n      dup1\n      0xec60bd86\n      eq\n      tag_4\n      jumpi\n    tag_2:\n      0x00\n      dup1\n      revert\n        /* \"solidity_korea/visibility.sol\":343:408  function B() public  returns(uint){... */\n    tag_3:\n      tag_5\n      tag_6\n      jump\t// in\n    tag_5:\n      mload(0x40)\n      tag_7\n      swap2\n      swap1\n      tag_8\n      jump\t// in\n    tag_7:\n      mload(0x40)\n      dup1\n      swap2\n      sub\n      swap1\n      return\n        /* \"solidity_korea/visibility.sol\":441:516  function pubTest() external pure returns(uint){... */\n    tag_4:\n      tag_9\n      tag_10\n      jump\t// in\n    tag_9:\n      mload(0x40)\n      tag_11\n      swap2\n      swap1\n      tag_8\n      jump\t// in\n    tag_11:\n      mload(0x40)\n      dup1\n      swap2\n      sub\n      swap1\n      return\n        /* \"solidity_korea/visibility.sol\":343:408  function B() public  returns(uint){... */\n    tag_6:\n        /* \"solidity_korea/visibility.sol\":372:376  uint */\n      0x00\n        /* \"solidity_korea/visibility.sol\":395:400  pub() */\n      tag_13\n        /* \"solidity_korea/visibility.sol\":395:398  pub */\n      tag_14\n        /* \"solidity_korea/visibility.sol\":395:400  pub() */\n      jump\t// in\n    tag_13:\n        /* \"solidity_korea/visibility.sol\":388:400  return pub() */\n      swap1\n      pop\n        /* \"solidity_korea/visibility.sol\":343:408  function B() public  returns(uint){... */\n      swap1\n      jump\t// out\n        /* \"solidity_korea/visibility.sol\":441:516  function pubTest() external pure returns(uint){... */\n    tag_10:\n        /* \"solidity_korea/visibility.sol\":482:486  uint */\n      0x00\n        /* \"solidity_korea/visibility.sol\":503:508  pub() */\n      tag_16\n        /* \"solidity_korea/visibility.sol\":503:506  pub */\n      tag_14\n        /* \"solidity_korea/visibility.sol\":503:508  pub() */\n      jump\t// in\n    tag_16:\n        /* \"solidity_korea/visibility.sol\":496:508  return pub() */\n      swap1\n      pop\n        /* \"solidity_korea/visibility.sol\":441:516  function pubTest() external pure returns(uint){... */\n      swap1\n      jump\t// out\n        /* \"solidity_korea/visibility.sol\":266:336  function pub() internal pure returns (uint){... */\n    tag_14:\n        /* \"solidity_korea/visibility.sol\":304:308  uint */\n      0x00\n        /* \"solidity_korea/visibility.sol\":327:328  1 */\n      0x01\n        /* \"solidity_korea/visibility.sol\":320:328  return 1 */\n      swap1\n      pop\n        /* \"solidity_korea/visibility.sol\":266:336  function pub() internal pure returns (uint){... */\n      swap1\n      jump\t// out\n        /* \"#utility.yul\":7:125   */\n    tag_19:\n        /* \"#utility.yul\":94:118   */\n      tag_21\n        /* \"#utility.yul\":112:117   */\n      dup2\n        /* \"#utility.yul\":94:118   */\n      tag_22\n      jump\t// in\n    tag_21:\n        /* \"#utility.yul\":89:92   */\n      dup3\n        /* \"#utility.yul\":82:119   */\n      mstore\n        /* \"#utility.yul\":7:125   */\n      pop\n      pop\n      jump\t// out\n        /* \"#utility.yul\":131:353   */\n    tag_8:\n        /* \"#utility.yul\":224:228   */\n      0x00\n        /* \"#utility.yul\":262:264   */\n      0x20\n        /* \"#utility.yul\":251:260   */\n      dup3\n        /* \"#utility.yul\":247:265   */\n      add\n        /* \"#utility.yul\":239:265   */\n      swap1\n      pop\n        /* \"#utility.yul\":275:346   */\n      tag_24\n        /* \"#utility.yul\":343:344   */\n      0x00\n        /* \"#utility.yul\":332:341   */\n      dup4\n        /* \"#utility.yul\":328:345   */\n      add\n        /* \"#utility.yul\":319:325   */\n      dup5\n        /* \"#utility.yul\":275:346   */\n      tag_19\n      jump\t// in\n    tag_24:\n        /* \"#utility.yul\":131:353   */\n      swap3\n      swap2\n      pop\n      pop\n      jump\t// out\n        /* \"#utility.yul\":359:436   */\n    tag_22:\n        /* \"#utility.yul\":396:403   */\n      0x00\n        /* \"#utility.yul\":425:430   */\n      dup2\n        /* \"#utility.yul\":414:430   */\n      swap1\n      pop\n        /* \"#utility.yul\":359:436   */\n      swap2\n      swap1\n      pop\n      jump\t// out\n\n    auxdata: 0xa2646970667358221220799666e809c4c017db3e42baeed1808a6ae9660e86cbebe8f560d3a66a54f04c64736f6c63430008070033\n}\n",
				"bytecode": {
					"linkReferences": {},
					"object": "608060405234801561001057600080fd5b5060f48061001f6000396000f3fe6080604052348015600f57600080fd5b506004361060325760003560e01c806332e7c5bf146037578063ec60bd86146051575b600080fd5b603d606b565b60405160489190609b565b60405180910390f35b60576078565b60405160629190609b565b60405180910390f35b600060736085565b905090565b600060806085565b905090565b60006001905090565b60958160b4565b82525050565b600060208201905060ae6000830184608e565b92915050565b600081905091905056fea2646970667358221220799666e809c4c017db3e42baeed1808a6ae9660e86cbebe8f560d3a66a54f04c64736f6c63430008070033",
					"opcodes": "PUSH1 0x80 PUSH1 0x40 MSTORE CALLVALUE DUP1 ISZERO PUSH2 0x10 JUMPI PUSH1 0x0 DUP1 REVERT JUMPDEST POP PUSH1 0xF4 DUP1 PUSH2 0x1F PUSH1 0x0 CODECOPY PUSH1 0x0 RETURN INVALID PUSH1 0x80 PUSH1 0x40 MSTORE CALLVALUE DUP1 ISZERO PUSH1 0xF JUMPI PUSH1 0x0 DUP1 REVERT JUMPDEST POP PUSH1 0x4 CALLDATASIZE LT PUSH1 0x32 JUMPI PUSH1 0x0 CALLDATALOAD PUSH1 0xE0 SHR DUP1 PUSH4 0x32E7C5BF EQ PUSH1 0x37 JUMPI DUP1 PUSH4 0xEC60BD86 EQ PUSH1 0x51 JUMPI JUMPDEST PUSH1 0x0 DUP1 REVERT JUMPDEST PUSH1 0x3D PUSH1 0x6B JUMP JUMPDEST PUSH1 0x40 MLOAD PUSH1 0x48 SWAP2 SWAP1 PUSH1 0x9B JUMP JUMPDEST PUSH1 0x40 MLOAD DUP1 SWAP2 SUB SWAP1 RETURN JUMPDEST PUSH1 0x57 PUSH1 0x78 JUMP JUMPDEST PUSH1 0x40 MLOAD PUSH1 0x62 SWAP2 SWAP1 PUSH1 0x9B JUMP JUMPDEST PUSH1 0x40 MLOAD DUP1 SWAP2 SUB SWAP1 RETURN JUMPDEST PUSH1 0x0 PUSH1 0x73 PUSH1 0x85 JUMP JUMPDEST SWAP1 POP SWAP1 JUMP JUMPDEST PUSH1 0x0 PUSH1 0x80 PUSH1 0x85 JUMP JUMPDEST SWAP1 POP SWAP1 JUMP JUMPDEST PUSH1 0x0 PUSH1 0x1 SWAP1 POP SWAP1 JUMP JUMPDEST PUSH1 0x95 DUP2 PUSH1 0xB4 JUMP JUMPDEST DUP3 MSTORE POP POP JUMP JUMPDEST PUSH1 0x0 PUSH1 0x20 DUP3 ADD SWAP1 POP PUSH1 0xAE PUSH1 0x0 DUP4 ADD DUP5 PUSH1 0x8E JUMP JUMPDEST SWAP3 SWAP2 POP POP JUMP JUMPDEST PUSH1 0x0 DUP2 SWAP1 POP SWAP2 SWAP1 POP JUMP INVALID LOG2 PUSH5 0x6970667358 0x22 SLT KECCAK256 PUSH26 0x9666E809C4C017DB3E42BAEED1808A6AE9660E86CBEBE8F560D3 0xA6 PUSH11 0x54F04C64736F6C63430008 SMOD STOP CALLER "
				},
				"gasEstimates": {
					"creation": {
						"codeDepositCost": "48800",
						"executionCost": "99",
						"totalCost": "48899"
					},
					"external": {
						"B()": "350",
						"pubTest()": "372"
					}
				},
				"methodIdentifiers": {
					"B()": "32e7c5bf",
					"pubTest()": "ec60bd86"
				}
			},
			"storageLayout": {
				"storage": [],
				"types": null
			},
			"userdoc": {
				"kind": "user",
				"methods": {},
				"version": 1
			}
		}
	}
}