{
	"solidity_korea/Payable1.sol": {
		"Payable": {
			"abi": [
				{
					"inputs": [],
					"stateMutability": "nonpayable",
					"type": "constructor"
				},
				{
					"inputs": [],
					"name": "deposit",
					"outputs": [],
					"stateMutability": "nonpayable",
					"type": "function"
				},
				{
					"inputs": [],
					"name": "getBalance",
					"outputs": [],
					"stateMutability": "nonpayable",
					"type": "function"
				},
				{
					"inputs": [],
					"name": "owner",
					"outputs": [
						{
							"internalType": "address payable",
							"name": "",
							"type": "address"
						}
					],
					"stateMutability": "view",
					"type": "function"
				}
			],
			"devdoc": {
				"kind": "dev",
				"methods": {},
				"version": 1
			},
			"evm": {
				"assembly": "    /* \"solidity_korea/Payable1.sol\":59:278  contract Payable {... */\n  mstore(0x40, 0x80)\n    /* \"solidity_korea/Payable1.sol\":117:175  constructor() {... */\n  callvalue\n  dup1\n  iszero\n  tag_1\n  jumpi\n  0x00\n  dup1\n  revert\ntag_1:\n  pop\n    /* \"solidity_korea/Payable1.sol\":157:167  msg.sender */\n  caller\n    /* \"solidity_korea/Payable1.sol\":141:146  owner */\n  0x00\n  dup1\n    /* \"solidity_korea/Payable1.sol\":141:168  owner = payable(msg.sender) */\n  0x0100\n  exp\n  dup2\n  sload\n  dup2\n  0xffffffffffffffffffffffffffffffffffffffff\n  mul\n  not\n  and\n  swap1\n  dup4\n  0xffffffffffffffffffffffffffffffffffffffff\n  and\n  mul\n  or\n  swap1\n  sstore\n  pop\n    /* \"solidity_korea/Payable1.sol\":59:278  contract Payable {... */\n  dataSize(sub_0)\n  dup1\n  dataOffset(sub_0)\n  0x00\n  codecopy\n  0x00\n  return\nstop\n\nsub_0: assembly {\n        /* \"solidity_korea/Payable1.sol\":59:278  contract Payable {... */\n      mstore(0x40, 0x80)\n      callvalue\n      dup1\n      iszero\n      tag_1\n      jumpi\n      0x00\n      dup1\n      revert\n    tag_1:\n      pop\n      jumpi(tag_2, lt(calldatasize, 0x04))\n      shr(0xe0, calldataload(0x00))\n      dup1\n      0x12065fe0\n      eq\n      tag_3\n      jumpi\n      dup1\n      0x8da5cb5b\n      eq\n      tag_4\n      jumpi\n      dup1\n      0xd0e30db0\n      eq\n      tag_5\n      jumpi\n    tag_2:\n      0x00\n      dup1\n      revert\n        /* \"solidity_korea/Payable1.sol\":232:272  function getBalance() external {... */\n    tag_3:\n      tag_6\n      tag_7\n      jump\t// in\n    tag_6:\n      stop\n        /* \"solidity_korea/Payable1.sol\":82:110  address payable public owner */\n    tag_4:\n      tag_8\n      tag_9\n      jump\t// in\n    tag_8:\n      mload(0x40)\n      tag_10\n      swap2\n      swap1\n      tag_11\n      jump\t// in\n    tag_10:\n      mload(0x40)\n      dup1\n      swap2\n      sub\n      swap1\n      return\n        /* \"solidity_korea/Payable1.sol\":182:219  function deposit() external {... */\n    tag_5:\n      tag_12\n      tag_13\n      jump\t// in\n    tag_12:\n      stop\n        /* \"solidity_korea/Payable1.sol\":232:272  function getBalance() external {... */\n    tag_7:\n      jump\t// out\n        /* \"solidity_korea/Payable1.sol\":82:110  address payable public owner */\n    tag_9:\n      0x00\n      dup1\n      sload\n      swap1\n      0x0100\n      exp\n      swap1\n      div\n      0xffffffffffffffffffffffffffffffffffffffff\n      and\n      dup2\n      jump\t// out\n        /* \"solidity_korea/Payable1.sol\":182:219  function deposit() external {... */\n    tag_13:\n      jump\t// out\n        /* \"#utility.yul\":7:149   */\n    tag_17:\n        /* \"#utility.yul\":110:142   */\n      tag_19\n        /* \"#utility.yul\":136:141   */\n      dup2\n        /* \"#utility.yul\":110:142   */\n      tag_20\n      jump\t// in\n    tag_19:\n        /* \"#utility.yul\":105:108   */\n      dup3\n        /* \"#utility.yul\":98:143   */\n      mstore\n        /* \"#utility.yul\":7:149   */\n      pop\n      pop\n      jump\t// out\n        /* \"#utility.yul\":155:409   */\n    tag_11:\n        /* \"#utility.yul\":264:268   */\n      0x00\n        /* \"#utility.yul\":302:304   */\n      0x20\n        /* \"#utility.yul\":291:300   */\n      dup3\n        /* \"#utility.yul\":287:305   */\n      add\n        /* \"#utility.yul\":279:305   */\n      swap1\n      pop\n        /* \"#utility.yul\":315:402   */\n      tag_22\n        /* \"#utility.yul\":399:400   */\n      0x00\n        /* \"#utility.yul\":388:397   */\n      dup4\n        /* \"#utility.yul\":384:401   */\n      add\n        /* \"#utility.yul\":375:381   */\n      dup5\n        /* \"#utility.yul\":315:402   */\n      tag_17\n      jump\t// in\n    tag_22:\n        /* \"#utility.yul\":155:409   */\n      swap3\n      swap2\n      pop\n      pop\n      jump\t// out\n        /* \"#utility.yul\":415:519   */\n    tag_20:\n        /* \"#utility.yul\":460:467   */\n      0x00\n        /* \"#utility.yul\":489:513   */\n      tag_24\n        /* \"#utility.yul\":507:512   */\n      dup3\n        /* \"#utility.yul\":489:513   */\n      tag_25\n      jump\t// in\n    tag_24:\n        /* \"#utility.yul\":478:513   */\n      swap1\n      pop\n        /* \"#utility.yul\":415:519   */\n      swap2\n      swap1\n      pop\n      jump\t// out\n        /* \"#utility.yul\":525:651   */\n    tag_25:\n        /* \"#utility.yul\":562:569   */\n      0x00\n        /* \"#utility.yul\":602:644   */\n      0xffffffffffffffffffffffffffffffffffffffff\n        /* \"#utility.yul\":595:600   */\n      dup3\n        /* \"#utility.yul\":591:645   */\n      and\n        /* \"#utility.yul\":580:645   */\n      swap1\n      pop\n        /* \"#utility.yul\":525:651   */\n      swap2\n      swap1\n      pop\n      jump\t// out\n\n    auxdata: 0xa264697066735822122048e8f9fec38625b30b033522489a37ada29cffef9347799a7d2d2eb66eaf105464736f6c63430008070033\n}\n",
				"bytecode": {
					"linkReferences": {},
					"object": "608060405234801561001057600080fd5b50336000806101000a81548173ffffffffffffffffffffffffffffffffffffffff021916908373ffffffffffffffffffffffffffffffffffffffff16021790555061011f806100606000396000f3fe6080604052348015600f57600080fd5b5060043610603c5760003560e01c806312065fe01460415780638da5cb5b146049578063d0e30db0146063575b600080fd5b6047606b565b005b604f606d565b604051605a919060a0565b60405180910390f35b60696091565b005b565b60008054906101000a900473ffffffffffffffffffffffffffffffffffffffff1681565b565b609a8160b9565b82525050565b600060208201905060b360008301846093565b92915050565b600060c28260c9565b9050919050565b600073ffffffffffffffffffffffffffffffffffffffff8216905091905056fea264697066735822122048e8f9fec38625b30b033522489a37ada29cffef9347799a7d2d2eb66eaf105464736f6c63430008070033",
					"opcodes": "PUSH1 0x80 PUSH1 0x40 MSTORE CALLVALUE DUP1 ISZERO PUSH2 0x10 JUMPI PUSH1 0x0 DUP1 REVERT JUMPDEST POP CALLER PUSH1 0x0 DUP1 PUSH2 0x100 EXP DUP2 SLOAD DUP2 PUSH20 0xFFFFFFFFFFFFFFFFFFFFFFFFFFFFFFFFFFFFFFFF MUL NOT AND SWAP1 DUP4 PUSH20 0xFFFFFFFFFFFFFFFFFFFFFFFFFFFFFFFFFFFFFFFF AND MUL OR SWAP1 SSTORE POP PUSH2 0x11F DUP1 PUSH2 0x60 PUSH1 0x0 CODECOPY PUSH1 0x0 RETURN INVALID PUSH1 0x80 PUSH1 0x40 MSTORE CALLVALUE DUP1 ISZERO PUSH1 0xF JUMPI PUSH1 0x0 DUP1 REVERT JUMPDEST POP PUSH1 0x4 CALLDATASIZE LT PUSH1 0x3C JUMPI PUSH1 0x0 CALLDATALOAD PUSH1 0xE0 SHR DUP1 PUSH4 0x12065FE0 EQ PUSH1 0x41 JUMPI DUP1 PUSH4 0x8DA5CB5B EQ PUSH1 0x49 JUMPI DUP1 PUSH4 0xD0E30DB0 EQ PUSH1 0x63 JUMPI JUMPDEST PUSH1 0x0 DUP1 REVERT JUMPDEST PUSH1 0x47 PUSH1 0x6B JUMP JUMPDEST STOP JUMPDEST PUSH1 0x4F PUSH1 0x6D JUMP JUMPDEST PUSH1 0x40 MLOAD PUSH1 0x5A SWAP2 SWAP1 PUSH1 0xA0 JUMP JUMPDEST PUSH1 0x40 MLOAD DUP1 SWAP2 SUB SWAP1 RETURN JUMPDEST PUSH1 0x69 PUSH1 0x91 JUMP JUMPDEST STOP JUMPDEST JUMP JUMPDEST PUSH1 0x0 DUP1 SLOAD SWAP1 PUSH2 0x100 EXP SWAP1 DIV PUSH20 0xFFFFFFFFFFFFFFFFFFFFFFFFFFFFFFFFFFFFFFFF AND DUP2 JUMP JUMPDEST JUMP JUMPDEST PUSH1 0x9A DUP2 PUSH1 0xB9 JUMP JUMPDEST DUP3 MSTORE POP POP JUMP JUMPDEST PUSH1 0x0 PUSH1 0x20 DUP3 ADD SWAP1 POP PUSH1 0xB3 PUSH1 0x0 DUP4 ADD DUP5 PUSH1 0x93 JUMP JUMPDEST SWAP3 SWAP2 POP POP JUMP JUMPDEST PUSH1 0x0 PUSH1 0xC2 DUP3 PUSH1 0xC9 JUMP JUMPDEST SWAP1 POP SWAP2 SWAP1 POP JUMP JUMPDEST PUSH1 0x0 PUSH20 0xFFFFFFFFFFFFFFFFFFFFFFFFFFFFFFFFFFFFFFFF DUP3 AND SWAP1 POP SWAP2 SWAP1 POP JUMP INVALID LOG2 PUSH5 0x6970667358 0x22 SLT KECCAK256 BASEFEE 0xE8 0xF9 INVALID 0xC3 DUP7 0x25 0xB3 SIGNEXTEND SUB CALLDATALOAD 0x22 BASEFEE SWAP11 CALLDATACOPY 0xAD LOG2 SWAP13 SELFDESTRUCT 0xEF SWAP4 SELFBALANCE PUSH26 0x9A7D2D2EB66EAF105464736F6C63430008070033000000000000 "
				},
				"gasEstimates": {
					"creation": {
						"codeDepositCost": "57400",
						"executionCost": "24371",
						"totalCost": "81771"
					},
					"external": {
						"deposit()": "166",
						"getBalance()": "122",
						"owner()": "2511"
					}
				},
				"methodIdentifiers": {
					"deposit()": "d0e30db0",
					"getBalance()": "12065fe0",
					"owner()": "8da5cb5b"
				}
			},
			"storageLayout": {
				"storage": [
					{
						"astId": 3,
						"contract": "solidity_korea/Payable1.sol:Payable",
						"label": "owner",
						"offset": 0,
						"slot": "0",
						"type": "t_address_payable"
					}
				],
				"types": {
					"t_address_payable": {
						"encoding": "inplace",
						"label": "address payable",
						"numberOfBytes": "20"
					}
				}
			},
			"userdoc": {
				"kind": "user",
				"methods": {},
				"version": 1
			}
		}
	}
}