{
	"solidity_korea/CallTestContract.sol": {
		"CallTestContract": {
			"abi": [
				{
					"inputs": [
						{
							"internalType": "address",
							"name": "_test",
							"type": "address"
						},
						{
							"internalType": "uint256",
							"name": "_x",
							"type": "uint256"
						}
					],
					"name": "getX",
					"outputs": [],
					"stateMutability": "nonpayable",
					"type": "function"
				},
				{
					"inputs": [
						{
							"internalType": "contract TestContract",
							"name": "_test",
							"type": "address"
						},
						{
							"internalType": "uint256",
							"name": "_x",
							"type": "uint256"
						}
					],
					"name": "setX",
					"outputs": [],
					"stateMutability": "nonpayable",
					"type": "function"
				}
			],
			"devdoc": {
				"kind": "dev",
				"methods": {},
				"version": 1
			},
			"evm": {
				"assembly": "    /* \"solidity_korea/CallTestContract.sol\":57:271  contract CallTestContract {... */\n  mstore(0x40, 0x80)\n  callvalue\n  dup1\n  iszero\n  tag_1\n  jumpi\n  0x00\n  dup1\n  revert\ntag_1:\n  pop\n  dataSize(sub_0)\n  dup1\n  dataOffset(sub_0)\n  0x00\n  codecopy\n  0x00\n  return\nstop\n\nsub_0: assembly {\n        /* \"solidity_korea/CallTestContract.sol\":57:271  contract CallTestContract {... */\n      mstore(0x40, 0x80)\n      callvalue\n      dup1\n      iszero\n      tag_1\n      jumpi\n      0x00\n      dup1\n      revert\n    tag_1:\n      pop\n      jumpi(tag_2, lt(calldatasize, 0x04))\n      shr(0xe0, calldataload(0x00))\n      dup1\n      0x4a2ad99f\n      eq\n      tag_3\n      jumpi\n      dup1\n      0x525b63e0\n      eq\n      tag_4\n      jumpi\n    tag_2:\n      0x00\n      dup1\n      revert\n        /* \"solidity_korea/CallTestContract.sol\":89:172  function setX(TestContract _test, uint _x) external {... */\n    tag_3:\n      tag_5\n      0x04\n      dup1\n      calldatasize\n      sub\n      dup2\n      add\n      swap1\n      tag_6\n      swap2\n      swap1\n      tag_7\n      jump\t// in\n    tag_6:\n      tag_8\n      jump\t// in\n    tag_5:\n      stop\n        /* \"solidity_korea/CallTestContract.sol\":178:269  function getX(address _test, uint _x) external {... */\n    tag_4:\n      tag_9\n      0x04\n      dup1\n      calldatasize\n      sub\n      dup2\n      add\n      swap1\n      tag_10\n      swap2\n      swap1\n      tag_11\n      jump\t// in\n    tag_10:\n      tag_12\n      jump\t// in\n    tag_9:\n      stop\n        /* \"solidity_korea/CallTestContract.sol\":89:172  function setX(TestContract _test, uint _x) external {... */\n    tag_8:\n        /* \"solidity_korea/CallTestContract.sol\":151:156  _test */\n      dup2\n        /* \"solidity_korea/CallTestContract.sol\":151:161  _test.setX */\n      0xffffffffffffffffffffffffffffffffffffffff\n      and\n      0x4018d9aa\n        /* \"solidity_korea/CallTestContract.sol\":162:164  _x */\n      dup3\n        /* \"solidity_korea/CallTestContract.sol\":151:165  _test.setX(_x) */\n      mload(0x40)\n      dup3\n      0xffffffff\n      and\n      0xe0\n      shl\n      dup2\n      mstore\n      0x04\n      add\n      tag_14\n      swap2\n      swap1\n      tag_15\n      jump\t// in\n    tag_14:\n      0x00\n      mload(0x40)\n      dup1\n      dup4\n      sub\n      dup2\n      0x00\n      dup8\n      dup1\n      extcodesize\n      iszero\n      dup1\n      iszero\n      tag_16\n      jumpi\n      0x00\n      dup1\n      revert\n    tag_16:\n      pop\n      gas\n      call\n      iszero\n      dup1\n      iszero\n      tag_18\n      jumpi\n      returndatasize\n      0x00\n      dup1\n      returndatacopy\n      revert(0x00, returndatasize)\n    tag_18:\n      pop\n      pop\n      pop\n      pop\n        /* \"solidity_korea/CallTestContract.sol\":89:172  function setX(TestContract _test, uint _x) external {... */\n      pop\n      pop\n      jump\t// out\n        /* \"solidity_korea/CallTestContract.sol\":178:269  function getX(address _test, uint _x) external {... */\n    tag_12:\n        /* \"solidity_korea/CallTestContract.sol\":247:252  _test */\n      dup2\n        /* \"solidity_korea/CallTestContract.sol\":234:258  TestContract(_test).setX */\n      0xffffffffffffffffffffffffffffffffffffffff\n      and\n      0x4018d9aa\n        /* \"solidity_korea/CallTestContract.sol\":259:261  _x */\n      dup3\n        /* \"solidity_korea/CallTestContract.sol\":234:262  TestContract(_test).setX(_x) */\n      mload(0x40)\n      dup3\n      0xffffffff\n      and\n      0xe0\n      shl\n      dup2\n      mstore\n      0x04\n      add\n      tag_20\n      swap2\n      swap1\n      tag_15\n      jump\t// in\n    tag_20:\n      0x00\n      mload(0x40)\n      dup1\n      dup4\n      sub\n      dup2\n      0x00\n      dup8\n      dup1\n      extcodesize\n      iszero\n      dup1\n      iszero\n      tag_21\n      jumpi\n      0x00\n      dup1\n      revert\n    tag_21:\n      pop\n      gas\n      call\n      iszero\n      dup1\n      iszero\n      tag_23\n      jumpi\n      returndatasize\n      0x00\n      dup1\n      returndatacopy\n      revert(0x00, returndatasize)\n    tag_23:\n      pop\n      pop\n      pop\n      pop\n        /* \"solidity_korea/CallTestContract.sol\":178:269  function getX(address _test, uint _x) external {... */\n      pop\n      pop\n      jump\t// out\n        /* \"#utility.yul\":7:146   */\n    tag_25:\n        /* \"#utility.yul\":53:58   */\n      0x00\n        /* \"#utility.yul\":91:97   */\n      dup2\n        /* \"#utility.yul\":78:98   */\n      calldataload\n        /* \"#utility.yul\":69:98   */\n      swap1\n      pop\n        /* \"#utility.yul\":107:140   */\n      tag_27\n        /* \"#utility.yul\":134:139   */\n      dup2\n        /* \"#utility.yul\":107:140   */\n      tag_28\n      jump\t// in\n    tag_27:\n        /* \"#utility.yul\":7:146   */\n      swap3\n      swap2\n      pop\n      pop\n      jump\t// out\n        /* \"#utility.yul\":152:329   */\n    tag_29:\n        /* \"#utility.yul\":217:222   */\n      0x00\n        /* \"#utility.yul\":255:261   */\n      dup2\n        /* \"#utility.yul\":242:262   */\n      calldataload\n        /* \"#utility.yul\":233:262   */\n      swap1\n      pop\n        /* \"#utility.yul\":271:323   */\n      tag_31\n        /* \"#utility.yul\":317:322   */\n      dup2\n        /* \"#utility.yul\":271:323   */\n      tag_32\n      jump\t// in\n    tag_31:\n        /* \"#utility.yul\":152:329   */\n      swap3\n      swap2\n      pop\n      pop\n      jump\t// out\n        /* \"#utility.yul\":335:474   */\n    tag_33:\n        /* \"#utility.yul\":381:386   */\n      0x00\n        /* \"#utility.yul\":419:425   */\n      dup2\n        /* \"#utility.yul\":406:426   */\n      calldataload\n        /* \"#utility.yul\":397:426   */\n      swap1\n      pop\n        /* \"#utility.yul\":435:468   */\n      tag_35\n        /* \"#utility.yul\":462:467   */\n      dup2\n        /* \"#utility.yul\":435:468   */\n      tag_36\n      jump\t// in\n    tag_35:\n        /* \"#utility.yul\":335:474   */\n      swap3\n      swap2\n      pop\n      pop\n      jump\t// out\n        /* \"#utility.yul\":480:954   */\n    tag_11:\n        /* \"#utility.yul\":548:554   */\n      0x00\n        /* \"#utility.yul\":556:562   */\n      dup1\n        /* \"#utility.yul\":605:607   */\n      0x40\n        /* \"#utility.yul\":593:602   */\n      dup4\n        /* \"#utility.yul\":584:591   */\n      dup6\n        /* \"#utility.yul\":580:603   */\n      sub\n        /* \"#utility.yul\":576:608   */\n      slt\n        /* \"#utility.yul\":573:692   */\n      iszero\n      tag_38\n      jumpi\n        /* \"#utility.yul\":611:690   */\n      tag_39\n      tag_40\n      jump\t// in\n    tag_39:\n        /* \"#utility.yul\":573:692   */\n    tag_38:\n        /* \"#utility.yul\":731:732   */\n      0x00\n        /* \"#utility.yul\":756:809   */\n      tag_41\n        /* \"#utility.yul\":801:808   */\n      dup6\n        /* \"#utility.yul\":792:798   */\n      dup3\n        /* \"#utility.yul\":781:790   */\n      dup7\n        /* \"#utility.yul\":777:799   */\n      add\n        /* \"#utility.yul\":756:809   */\n      tag_25\n      jump\t// in\n    tag_41:\n        /* \"#utility.yul\":746:809   */\n      swap3\n      pop\n        /* \"#utility.yul\":702:819   */\n      pop\n        /* \"#utility.yul\":858:860   */\n      0x20\n        /* \"#utility.yul\":884:937   */\n      tag_42\n        /* \"#utility.yul\":929:936   */\n      dup6\n        /* \"#utility.yul\":920:926   */\n      dup3\n        /* \"#utility.yul\":909:918   */\n      dup7\n        /* \"#utility.yul\":905:927   */\n      add\n        /* \"#utility.yul\":884:937   */\n      tag_33\n      jump\t// in\n    tag_42:\n        /* \"#utility.yul\":874:937   */\n      swap2\n      pop\n        /* \"#utility.yul\":829:947   */\n      pop\n        /* \"#utility.yul\":480:954   */\n      swap3\n      pop\n      swap3\n      swap1\n      pop\n      jump\t// out\n        /* \"#utility.yul\":960:1472   */\n    tag_7:\n        /* \"#utility.yul\":1047:1053   */\n      0x00\n        /* \"#utility.yul\":1055:1061   */\n      dup1\n        /* \"#utility.yul\":1104:1106   */\n      0x40\n        /* \"#utility.yul\":1092:1101   */\n      dup4\n        /* \"#utility.yul\":1083:1090   */\n      dup6\n        /* \"#utility.yul\":1079:1102   */\n      sub\n        /* \"#utility.yul\":1075:1107   */\n      slt\n        /* \"#utility.yul\":1072:1191   */\n      iszero\n      tag_44\n      jumpi\n        /* \"#utility.yul\":1110:1189   */\n      tag_45\n      tag_40\n      jump\t// in\n    tag_45:\n        /* \"#utility.yul\":1072:1191   */\n    tag_44:\n        /* \"#utility.yul\":1230:1231   */\n      0x00\n        /* \"#utility.yul\":1255:1327   */\n      tag_46\n        /* \"#utility.yul\":1319:1326   */\n      dup6\n        /* \"#utility.yul\":1310:1316   */\n      dup3\n        /* \"#utility.yul\":1299:1308   */\n      dup7\n        /* \"#utility.yul\":1295:1317   */\n      add\n        /* \"#utility.yul\":1255:1327   */\n      tag_29\n      jump\t// in\n    tag_46:\n        /* \"#utility.yul\":1245:1327   */\n      swap3\n      pop\n        /* \"#utility.yul\":1201:1337   */\n      pop\n        /* \"#utility.yul\":1376:1378   */\n      0x20\n        /* \"#utility.yul\":1402:1455   */\n      tag_47\n        /* \"#utility.yul\":1447:1454   */\n      dup6\n        /* \"#utility.yul\":1438:1444   */\n      dup3\n        /* \"#utility.yul\":1427:1436   */\n      dup7\n        /* \"#utility.yul\":1423:1445   */\n      add\n        /* \"#utility.yul\":1402:1455   */\n      tag_33\n      jump\t// in\n    tag_47:\n        /* \"#utility.yul\":1392:1455   */\n      swap2\n      pop\n        /* \"#utility.yul\":1347:1465   */\n      pop\n        /* \"#utility.yul\":960:1472   */\n      swap3\n      pop\n      swap3\n      swap1\n      pop\n      jump\t// out\n        /* \"#utility.yul\":1478:1596   */\n    tag_48:\n        /* \"#utility.yul\":1565:1589   */\n      tag_50\n        /* \"#utility.yul\":1583:1588   */\n      dup2\n        /* \"#utility.yul\":1565:1589   */\n      tag_51\n      jump\t// in\n    tag_50:\n        /* \"#utility.yul\":1560:1563   */\n      dup3\n        /* \"#utility.yul\":1553:1590   */\n      mstore\n        /* \"#utility.yul\":1478:1596   */\n      pop\n      pop\n      jump\t// out\n        /* \"#utility.yul\":1602:1824   */\n    tag_15:\n        /* \"#utility.yul\":1695:1699   */\n      0x00\n        /* \"#utility.yul\":1733:1735   */\n      0x20\n        /* \"#utility.yul\":1722:1731   */\n      dup3\n        /* \"#utility.yul\":1718:1736   */\n      add\n        /* \"#utility.yul\":1710:1736   */\n      swap1\n      pop\n        /* \"#utility.yul\":1746:1817   */\n      tag_53\n        /* \"#utility.yul\":1814:1815   */\n      0x00\n        /* \"#utility.yul\":1803:1812   */\n      dup4\n        /* \"#utility.yul\":1799:1816   */\n      add\n        /* \"#utility.yul\":1790:1796   */\n      dup5\n        /* \"#utility.yul\":1746:1817   */\n      tag_48\n      jump\t// in\n    tag_53:\n        /* \"#utility.yul\":1602:1824   */\n      swap3\n      swap2\n      pop\n      pop\n      jump\t// out\n        /* \"#utility.yul\":1911:2007   */\n    tag_56:\n        /* \"#utility.yul\":1948:1955   */\n      0x00\n        /* \"#utility.yul\":1977:2001   */\n      tag_58\n        /* \"#utility.yul\":1995:2000   */\n      dup3\n        /* \"#utility.yul\":1977:2001   */\n      tag_59\n      jump\t// in\n    tag_58:\n        /* \"#utility.yul\":1966:2001   */\n      swap1\n      pop\n        /* \"#utility.yul\":1911:2007   */\n      swap2\n      swap1\n      pop\n      jump\t// out\n        /* \"#utility.yul\":2013:2128   */\n    tag_60:\n        /* \"#utility.yul\":2069:2076   */\n      0x00\n        /* \"#utility.yul\":2098:2122   */\n      tag_62\n        /* \"#utility.yul\":2116:2121   */\n      dup3\n        /* \"#utility.yul\":2098:2122   */\n      tag_56\n      jump\t// in\n    tag_62:\n        /* \"#utility.yul\":2087:2122   */\n      swap1\n      pop\n        /* \"#utility.yul\":2013:2128   */\n      swap2\n      swap1\n      pop\n      jump\t// out\n        /* \"#utility.yul\":2134:2260   */\n    tag_59:\n        /* \"#utility.yul\":2171:2178   */\n      0x00\n        /* \"#utility.yul\":2211:2253   */\n      0xffffffffffffffffffffffffffffffffffffffff\n        /* \"#utility.yul\":2204:2209   */\n      dup3\n        /* \"#utility.yul\":2200:2254   */\n      and\n        /* \"#utility.yul\":2189:2254   */\n      swap1\n      pop\n        /* \"#utility.yul\":2134:2260   */\n      swap2\n      swap1\n      pop\n      jump\t// out\n        /* \"#utility.yul\":2266:2343   */\n    tag_51:\n        /* \"#utility.yul\":2303:2310   */\n      0x00\n        /* \"#utility.yul\":2332:2337   */\n      dup2\n        /* \"#utility.yul\":2321:2337   */\n      swap1\n      pop\n        /* \"#utility.yul\":2266:2343   */\n      swap2\n      swap1\n      pop\n      jump\t// out\n        /* \"#utility.yul\":2472:2589   */\n    tag_40:\n        /* \"#utility.yul\":2581:2582   */\n      0x00\n        /* \"#utility.yul\":2578:2579   */\n      dup1\n        /* \"#utility.yul\":2571:2583   */\n      revert\n        /* \"#utility.yul\":2595:2717   */\n    tag_28:\n        /* \"#utility.yul\":2668:2692   */\n      tag_69\n        /* \"#utility.yul\":2686:2691   */\n      dup2\n        /* \"#utility.yul\":2668:2692   */\n      tag_56\n      jump\t// in\n    tag_69:\n        /* \"#utility.yul\":2661:2666   */\n      dup2\n        /* \"#utility.yul\":2658:2693   */\n      eq\n        /* \"#utility.yul\":2648:2711   */\n      tag_70\n      jumpi\n        /* \"#utility.yul\":2707:2708   */\n      0x00\n        /* \"#utility.yul\":2704:2705   */\n      dup1\n        /* \"#utility.yul\":2697:2709   */\n      revert\n        /* \"#utility.yul\":2648:2711   */\n    tag_70:\n        /* \"#utility.yul\":2595:2717   */\n      pop\n      jump\t// out\n        /* \"#utility.yul\":2723:2883   */\n    tag_32:\n        /* \"#utility.yul\":2815:2858   */\n      tag_72\n        /* \"#utility.yul\":2852:2857   */\n      dup2\n        /* \"#utility.yul\":2815:2858   */\n      tag_60\n      jump\t// in\n    tag_72:\n        /* \"#utility.yul\":2808:2813   */\n      dup2\n        /* \"#utility.yul\":2805:2859   */\n      eq\n        /* \"#utility.yul\":2795:2877   */\n      tag_73\n      jumpi\n        /* \"#utility.yul\":2873:2874   */\n      0x00\n        /* \"#utility.yul\":2870:2871   */\n      dup1\n        /* \"#utility.yul\":2863:2875   */\n      revert\n        /* \"#utility.yul\":2795:2877   */\n    tag_73:\n        /* \"#utility.yul\":2723:2883   */\n      pop\n      jump\t// out\n        /* \"#utility.yul\":2889:3011   */\n    tag_36:\n        /* \"#utility.yul\":2962:2986   */\n      tag_75\n        /* \"#utility.yul\":2980:2985   */\n      dup2\n        /* \"#utility.yul\":2962:2986   */\n      tag_51\n      jump\t// in\n    tag_75:\n        /* \"#utility.yul\":2955:2960   */\n      dup2\n        /* \"#utility.yul\":2952:2987   */\n      eq\n        /* \"#utility.yul\":2942:3005   */\n      tag_76\n      jumpi\n        /* \"#utility.yul\":3001:3002   */\n      0x00\n        /* \"#utility.yul\":2998:2999   */\n      dup1\n        /* \"#utility.yul\":2991:3003   */\n      revert\n        /* \"#utility.yul\":2942:3005   */\n    tag_76:\n        /* \"#utility.yul\":2889:3011   */\n      pop\n      jump\t// out\n\n    auxdata: 0xa2646970667358221220c9f7c4dbd86dd5cb62fcc889b69487d4dd9619165758785a9cbe3a9af3ca570e64736f6c63430008070033\n}\n",
				"bytecode": {
					"linkReferences": {},
					"object": "608060405234801561001057600080fd5b50610308806100206000396000f3fe608060405234801561001057600080fd5b50600436106100365760003560e01c80634a2ad99f1461003b578063525b63e014610057575b600080fd5b610055600480360381019061005091906101d0565b610073565b005b610071600480360381019061006c9190610190565b6100e2565b005b8173ffffffffffffffffffffffffffffffffffffffff16634018d9aa826040518263ffffffff1660e01b81526004016100ac919061021f565b600060405180830381600087803b1580156100c657600080fd5b505af11580156100da573d6000803e3d6000fd5b505050505050565b8173ffffffffffffffffffffffffffffffffffffffff16634018d9aa826040518263ffffffff1660e01b815260040161011b919061021f565b600060405180830381600087803b15801561013557600080fd5b505af1158015610149573d6000803e3d6000fd5b505050505050565b6000813590506101608161028d565b92915050565b600081359050610175816102a4565b92915050565b60008135905061018a816102bb565b92915050565b600080604083850312156101a7576101a6610288565b5b60006101b585828601610151565b92505060206101c68582860161017b565b9150509250929050565b600080604083850312156101e7576101e6610288565b5b60006101f585828601610166565b92505060206102068582860161017b565b9150509250929050565b6102198161027e565b82525050565b60006020820190506102346000830184610210565b92915050565b60006102458261025e565b9050919050565b60006102578261023a565b9050919050565b600073ffffffffffffffffffffffffffffffffffffffff82169050919050565b6000819050919050565b600080fd5b6102968161023a565b81146102a157600080fd5b50565b6102ad8161024c565b81146102b857600080fd5b50565b6102c48161027e565b81146102cf57600080fd5b5056fea2646970667358221220c9f7c4dbd86dd5cb62fcc889b69487d4dd9619165758785a9cbe3a9af3ca570e64736f6c63430008070033",
					"opcodes": "PUSH1 0x80 PUSH1 0x40 MSTORE CALLVALUE DUP1 ISZERO PUSH2 0x10 JUMPI PUSH1 0x0 DUP1 REVERT JUMPDEST POP PUSH2 0x308 DUP1 PUSH2 0x20 PUSH1 0x0 CODECOPY PUSH1 0x0 RETURN INVALID PUSH1 0x80 PUSH1 0x40 MSTORE CALLVALUE DUP1 ISZERO PUSH2 0x10 JUMPI PUSH1 0x0 DUP1 REVERT JUMPDEST POP PUSH1 0x4 CALLDATASIZE LT PUSH2 0x36 JUMPI PUSH1 0x0 CALLDATALOAD PUSH1 0xE0 SHR DUP1 PUSH4 0x4A2AD99F EQ PUSH2 0x3B JUMPI DUP1 PUSH4 0x525B63E0 EQ PUSH2 0x57 JUMPI JUMPDEST PUSH1 0x0 DUP1 REVERT JUMPDEST PUSH2 0x55 PUSH1 0x4 DUP1 CALLDATASIZE SUB DUP2 ADD SWAP1 PUSH2 0x50 SWAP2 SWAP1 PUSH2 0x1D0 JUMP JUMPDEST PUSH2 0x73 JUMP JUMPDEST STOP JUMPDEST PUSH2 0x71 PUSH1 0x4 DUP1 CALLDATASIZE SUB DUP2 ADD SWAP1 PUSH2 0x6C SWAP2 SWAP1 PUSH2 0x190 JUMP JUMPDEST PUSH2 0xE2 JUMP JUMPDEST STOP JUMPDEST DUP2 PUSH20 0xFFFFFFFFFFFFFFFFFFFFFFFFFFFFFFFFFFFFFFFF AND PUSH4 0x4018D9AA DUP3 PUSH1 0x40 MLOAD DUP3 PUSH4 0xFFFFFFFF AND PUSH1 0xE0 SHL DUP2 MSTORE PUSH1 0x4 ADD PUSH2 0xAC SWAP2 SWAP1 PUSH2 0x21F JUMP JUMPDEST PUSH1 0x0 PUSH1 0x40 MLOAD DUP1 DUP4 SUB DUP2 PUSH1 0x0 DUP8 DUP1 EXTCODESIZE ISZERO DUP1 ISZERO PUSH2 0xC6 JUMPI PUSH1 0x0 DUP1 REVERT JUMPDEST POP GAS CALL ISZERO DUP1 ISZERO PUSH2 0xDA JUMPI RETURNDATASIZE PUSH1 0x0 DUP1 RETURNDATACOPY RETURNDATASIZE PUSH1 0x0 REVERT JUMPDEST POP POP POP POP POP POP JUMP JUMPDEST DUP2 PUSH20 0xFFFFFFFFFFFFFFFFFFFFFFFFFFFFFFFFFFFFFFFF AND PUSH4 0x4018D9AA DUP3 PUSH1 0x40 MLOAD DUP3 PUSH4 0xFFFFFFFF AND PUSH1 0xE0 SHL DUP2 MSTORE PUSH1 0x4 ADD PUSH2 0x11B SWAP2 SWAP1 PUSH2 0x21F JUMP JUMPDEST PUSH1 0x0 PUSH1 0x40 MLOAD DUP1 DUP4 SUB DUP2 PUSH1 0x0 DUP8 DUP1 EXTCODESIZE ISZERO DUP1 ISZERO PUSH2 0x135 JUMPI PUSH1 0x0 DUP1 REVERT JUMPDEST POP GAS CALL ISZERO DUP1 ISZERO PUSH2 0x149 JUMPI RETURNDATASIZE PUSH1 0x0 DUP1 RETURNDATACOPY RETURNDATASIZE PUSH1 0x0 REVERT JUMPDEST POP POP POP POP POP POP JUMP JUMPDEST PUSH1 0x0 DUP2 CALLDATALOAD SWAP1 POP PUSH2 0x160 DUP2 PUSH2 0x28D JUMP JUMPDEST SWAP3 SWAP2 POP POP JUMP JUMPDEST PUSH1 0x0 DUP2 CALLDATALOAD SWAP1 POP PUSH2 0x175 DUP2 PUSH2 0x2A4 JUMP JUMPDEST SWAP3 SWAP2 POP POP JUMP JUMPDEST PUSH1 0x0 DUP2 CALLDATALOAD SWAP1 POP PUSH2 0x18A DUP2 PUSH2 0x2BB JUMP JUMPDEST SWAP3 SWAP2 POP POP JUMP JUMPDEST PUSH1 0x0 DUP1 PUSH1 0x40 DUP4 DUP6 SUB SLT ISZERO PUSH2 0x1A7 JUMPI PUSH2 0x1A6 PUSH2 0x288 JUMP JUMPDEST JUMPDEST PUSH1 0x0 PUSH2 0x1B5 DUP6 DUP3 DUP7 ADD PUSH2 0x151 JUMP JUMPDEST SWAP3 POP POP PUSH1 0x20 PUSH2 0x1C6 DUP6 DUP3 DUP7 ADD PUSH2 0x17B JUMP JUMPDEST SWAP2 POP POP SWAP3 POP SWAP3 SWAP1 POP JUMP JUMPDEST PUSH1 0x0 DUP1 PUSH1 0x40 DUP4 DUP6 SUB SLT ISZERO PUSH2 0x1E7 JUMPI PUSH2 0x1E6 PUSH2 0x288 JUMP JUMPDEST JUMPDEST PUSH1 0x0 PUSH2 0x1F5 DUP6 DUP3 DUP7 ADD PUSH2 0x166 JUMP JUMPDEST SWAP3 POP POP PUSH1 0x20 PUSH2 0x206 DUP6 DUP3 DUP7 ADD PUSH2 0x17B JUMP JUMPDEST SWAP2 POP POP SWAP3 POP SWAP3 SWAP1 POP JUMP JUMPDEST PUSH2 0x219 DUP2 PUSH2 0x27E JUMP JUMPDEST DUP3 MSTORE POP POP JUMP JUMPDEST PUSH1 0x0 PUSH1 0x20 DUP3 ADD SWAP1 POP PUSH2 0x234 PUSH1 0x0 DUP4 ADD DUP5 PUSH2 0x210 JUMP JUMPDEST SWAP3 SWAP2 POP POP JUMP JUMPDEST PUSH1 0x0 PUSH2 0x245 DUP3 PUSH2 0x25E JUMP JUMPDEST SWAP1 POP SWAP2 SWAP1 POP JUMP JUMPDEST PUSH1 0x0 PUSH2 0x257 DUP3 PUSH2 0x23A JUMP JUMPDEST SWAP1 POP SWAP2 SWAP1 POP JUMP JUMPDEST PUSH1 0x0 PUSH20 0xFFFFFFFFFFFFFFFFFFFFFFFFFFFFFFFFFFFFFFFF DUP3 AND SWAP1 POP SWAP2 SWAP1 POP JUMP JUMPDEST PUSH1 0x0 DUP2 SWAP1 POP SWAP2 SWAP1 POP JUMP JUMPDEST PUSH1 0x0 DUP1 REVERT JUMPDEST PUSH2 0x296 DUP2 PUSH2 0x23A JUMP JUMPDEST DUP2 EQ PUSH2 0x2A1 JUMPI PUSH1 0x0 DUP1 REVERT JUMPDEST POP JUMP JUMPDEST PUSH2 0x2AD DUP2 PUSH2 0x24C JUMP JUMPDEST DUP2 EQ PUSH2 0x2B8 JUMPI PUSH1 0x0 DUP1 REVERT JUMPDEST POP JUMP JUMPDEST PUSH2 0x2C4 DUP2 PUSH2 0x27E JUMP JUMPDEST DUP2 EQ PUSH2 0x2CF JUMPI PUSH1 0x0 DUP1 REVERT JUMPDEST POP JUMP INVALID LOG2 PUSH5 0x6970667358 0x22 SLT KECCAK256 0xC9 0xF7 0xC4 0xDB 0xD8 PUSH14 0xD5CB62FCC889B69487D4DD961916 JUMPI PC PUSH25 0x5A9CBE3A9AF3CA570E64736F6C634300080700330000000000 "
				},
				"gasEstimates": {
					"creation": {
						"codeDepositCost": "155200",
						"executionCost": "202",
						"totalCost": "155402"
					},
					"external": {
						"getX(address,uint256)": "infinite",
						"setX(address,uint256)": "infinite"
					}
				},
				"methodIdentifiers": {
					"getX(address,uint256)": "525b63e0",
					"setX(address,uint256)": "4a2ad99f"
				}
			},
			"storageLayout": {
				"storage": [],
				"types": null
			},
			"userdoc": {
				"kind": "user",
				"methods": {},
				"version": 1
			}
		}
	}
}