{
	"solidity_korea/Event.sol": {
		"Event": {
			"abi": [
				{
					"anonymous": false,
					"inputs": [
						{
							"indexed": false,
							"internalType": "string",
							"name": "message",
							"type": "string"
						},
						{
							"indexed": false,
							"internalType": "uint256",
							"name": "val",
							"type": "uint256"
						}
					],
					"name": "Log",
					"type": "event"
				},
				{
					"inputs": [
						{
							"internalType": "string",
							"name": "_text",
							"type": "string"
						},
						{
							"internalType": "uint256",
							"name": "_val",
							"type": "uint256"
						}
					],
					"name": "example",
					"outputs": [],
					"stateMutability": "nonpayable",
					"type": "function"
				}
			],
			"devdoc": {
				"kind": "dev",
				"methods": {},
				"version": 1
			},
			"evm": {
				"assembly": "    /* \"solidity_korea/Event.sol\":61:220  contract Event{... */\n  mstore(0x40, 0x80)\n  callvalue\n  dup1\n  iszero\n  tag_1\n  jumpi\n  0x00\n  dup1\n  revert\ntag_1:\n  pop\n  dataSize(sub_0)\n  dup1\n  dataOffset(sub_0)\n  0x00\n  codecopy\n  0x00\n  return\nstop\n\nsub_0: assembly {\n        /* \"solidity_korea/Event.sol\":61:220  contract Event{... */\n      mstore(0x40, 0x80)\n      callvalue\n      dup1\n      iszero\n      tag_1\n      jumpi\n      0x00\n      dup1\n      revert\n    tag_1:\n      pop\n      jumpi(tag_2, lt(calldatasize, 0x04))\n      shr(0xe0, calldataload(0x00))\n      dup1\n      0x2ddd33c5\n      eq\n      tag_3\n      jumpi\n    tag_2:\n      0x00\n      dup1\n      revert\n        /* \"solidity_korea/Event.sol\":122:218  function example(string calldata _text,uint _val) external {... */\n    tag_3:\n      tag_4\n      0x04\n      dup1\n      calldatasize\n      sub\n      dup2\n      add\n      swap1\n      tag_5\n      swap2\n      swap1\n      tag_6\n      jump\t// in\n    tag_5:\n      tag_7\n      jump\t// in\n    tag_4:\n      stop\n    tag_7:\n        /* \"solidity_korea/Event.sol\":196:211  Log(_text,_val) */\n      0xdd970dd9b5bfe707922155b058a407655cb18288b807e2216442bca8ad83d6b5\n        /* \"solidity_korea/Event.sol\":200:205  _text */\n      dup4\n      dup4\n        /* \"solidity_korea/Event.sol\":206:210  _val */\n      dup4\n        /* \"solidity_korea/Event.sol\":196:211  Log(_text,_val) */\n      mload(0x40)\n      tag_9\n      swap4\n      swap3\n      swap2\n      swap1\n      tag_10\n      jump\t// in\n    tag_9:\n      mload(0x40)\n      dup1\n      swap2\n      sub\n      swap1\n      log1\n        /* \"solidity_korea/Event.sol\":122:218  function example(string calldata _text,uint _val) external {... */\n      pop\n      pop\n      pop\n      jump\t// out\n        /* \"#utility.yul\":21:574   */\n    tag_12:\n        /* \"#utility.yul\":79:87   */\n      0x00\n        /* \"#utility.yul\":89:95   */\n      dup1\n        /* \"#utility.yul\":139:142   */\n      dup4\n        /* \"#utility.yul\":132:136   */\n      0x1f\n        /* \"#utility.yul\":124:130   */\n      dup5\n        /* \"#utility.yul\":120:137   */\n      add\n        /* \"#utility.yul\":116:143   */\n      slt\n        /* \"#utility.yul\":106:228   */\n      tag_14\n      jumpi\n        /* \"#utility.yul\":147:226   */\n      tag_15\n      tag_16\n      jump\t// in\n    tag_15:\n        /* \"#utility.yul\":106:228   */\n    tag_14:\n        /* \"#utility.yul\":260:266   */\n      dup3\n        /* \"#utility.yul\":247:267   */\n      calldataload\n        /* \"#utility.yul\":237:267   */\n      swap1\n      pop\n        /* \"#utility.yul\":290:308   */\n      0xffffffffffffffff\n        /* \"#utility.yul\":282:288   */\n      dup2\n        /* \"#utility.yul\":279:309   */\n      gt\n        /* \"#utility.yul\":276:393   */\n      iszero\n      tag_17\n      jumpi\n        /* \"#utility.yul\":312:391   */\n      tag_18\n      tag_19\n      jump\t// in\n    tag_18:\n        /* \"#utility.yul\":276:393   */\n    tag_17:\n        /* \"#utility.yul\":426:430   */\n      0x20\n        /* \"#utility.yul\":418:424   */\n      dup4\n        /* \"#utility.yul\":414:431   */\n      add\n        /* \"#utility.yul\":402:431   */\n      swap2\n      pop\n        /* \"#utility.yul\":480:483   */\n      dup4\n        /* \"#utility.yul\":472:476   */\n      0x01\n        /* \"#utility.yul\":464:470   */\n      dup3\n        /* \"#utility.yul\":460:477   */\n      mul\n        /* \"#utility.yul\":450:458   */\n      dup4\n        /* \"#utility.yul\":446:478   */\n      add\n        /* \"#utility.yul\":443:484   */\n      gt\n        /* \"#utility.yul\":440:568   */\n      iszero\n      tag_20\n      jumpi\n        /* \"#utility.yul\":487:566   */\n      tag_21\n      tag_22\n      jump\t// in\n    tag_21:\n        /* \"#utility.yul\":440:568   */\n    tag_20:\n        /* \"#utility.yul\":21:574   */\n      swap3\n      pop\n      swap3\n      swap1\n      pop\n      jump\t// out\n        /* \"#utility.yul\":580:719   */\n    tag_23:\n        /* \"#utility.yul\":626:631   */\n      0x00\n        /* \"#utility.yul\":664:670   */\n      dup2\n        /* \"#utility.yul\":651:671   */\n      calldataload\n        /* \"#utility.yul\":642:671   */\n      swap1\n      pop\n        /* \"#utility.yul\":680:713   */\n      tag_25\n        /* \"#utility.yul\":707:712   */\n      dup2\n        /* \"#utility.yul\":680:713   */\n      tag_26\n      jump\t// in\n    tag_25:\n        /* \"#utility.yul\":580:719   */\n      swap3\n      swap2\n      pop\n      pop\n      jump\t// out\n        /* \"#utility.yul\":725:1399   */\n    tag_6:\n        /* \"#utility.yul\":805:811   */\n      0x00\n        /* \"#utility.yul\":813:819   */\n      dup1\n        /* \"#utility.yul\":821:827   */\n      0x00\n        /* \"#utility.yul\":870:872   */\n      0x40\n        /* \"#utility.yul\":858:867   */\n      dup5\n        /* \"#utility.yul\":849:856   */\n      dup7\n        /* \"#utility.yul\":845:868   */\n      sub\n        /* \"#utility.yul\":841:873   */\n      slt\n        /* \"#utility.yul\":838:957   */\n      iszero\n      tag_28\n      jumpi\n        /* \"#utility.yul\":876:955   */\n      tag_29\n      tag_30\n      jump\t// in\n    tag_29:\n        /* \"#utility.yul\":838:957   */\n    tag_28:\n        /* \"#utility.yul\":1024:1025   */\n      0x00\n        /* \"#utility.yul\":1013:1022   */\n      dup5\n        /* \"#utility.yul\":1009:1026   */\n      add\n        /* \"#utility.yul\":996:1027   */\n      calldataload\n        /* \"#utility.yul\":1054:1072   */\n      0xffffffffffffffff\n        /* \"#utility.yul\":1046:1052   */\n      dup2\n        /* \"#utility.yul\":1043:1073   */\n      gt\n        /* \"#utility.yul\":1040:1157   */\n      iszero\n      tag_31\n      jumpi\n        /* \"#utility.yul\":1076:1155   */\n      tag_32\n      tag_33\n      jump\t// in\n    tag_32:\n        /* \"#utility.yul\":1040:1157   */\n    tag_31:\n        /* \"#utility.yul\":1189:1254   */\n      tag_34\n        /* \"#utility.yul\":1246:1253   */\n      dup7\n        /* \"#utility.yul\":1237:1243   */\n      dup3\n        /* \"#utility.yul\":1226:1235   */\n      dup8\n        /* \"#utility.yul\":1222:1244   */\n      add\n        /* \"#utility.yul\":1189:1254   */\n      tag_12\n      jump\t// in\n    tag_34:\n        /* \"#utility.yul\":1171:1254   */\n      swap4\n      pop\n      swap4\n      pop\n        /* \"#utility.yul\":967:1264   */\n      pop\n        /* \"#utility.yul\":1303:1305   */\n      0x20\n        /* \"#utility.yul\":1329:1382   */\n      tag_35\n        /* \"#utility.yul\":1374:1381   */\n      dup7\n        /* \"#utility.yul\":1365:1371   */\n      dup3\n        /* \"#utility.yul\":1354:1363   */\n      dup8\n        /* \"#utility.yul\":1350:1372   */\n      add\n        /* \"#utility.yul\":1329:1382   */\n      tag_23\n      jump\t// in\n    tag_35:\n        /* \"#utility.yul\":1319:1382   */\n      swap2\n      pop\n        /* \"#utility.yul\":1274:1392   */\n      pop\n        /* \"#utility.yul\":725:1399   */\n      swap3\n      pop\n      swap3\n      pop\n      swap3\n      jump\t// out\n        /* \"#utility.yul\":1429:1733   */\n    tag_36:\n        /* \"#utility.yul\":1527:1530   */\n      0x00\n        /* \"#utility.yul\":1548:1619   */\n      tag_38\n        /* \"#utility.yul\":1612:1618   */\n      dup4\n        /* \"#utility.yul\":1607:1610   */\n      dup6\n        /* \"#utility.yul\":1548:1619   */\n      tag_39\n      jump\t// in\n    tag_38:\n        /* \"#utility.yul\":1541:1619   */\n      swap4\n      pop\n        /* \"#utility.yul\":1629:1672   */\n      tag_40\n        /* \"#utility.yul\":1665:1671   */\n      dup4\n        /* \"#utility.yul\":1660:1663   */\n      dup6\n        /* \"#utility.yul\":1653:1658   */\n      dup5\n        /* \"#utility.yul\":1629:1672   */\n      tag_41\n      jump\t// in\n    tag_40:\n        /* \"#utility.yul\":1697:1726   */\n      tag_42\n        /* \"#utility.yul\":1719:1725   */\n      dup4\n        /* \"#utility.yul\":1697:1726   */\n      tag_43\n      jump\t// in\n    tag_42:\n        /* \"#utility.yul\":1692:1695   */\n      dup5\n        /* \"#utility.yul\":1688:1727   */\n      add\n        /* \"#utility.yul\":1681:1727   */\n      swap1\n      pop\n        /* \"#utility.yul\":1429:1733   */\n      swap4\n      swap3\n      pop\n      pop\n      pop\n      jump\t// out\n        /* \"#utility.yul\":1739:1857   */\n    tag_44:\n        /* \"#utility.yul\":1826:1850   */\n      tag_46\n        /* \"#utility.yul\":1844:1849   */\n      dup2\n        /* \"#utility.yul\":1826:1850   */\n      tag_47\n      jump\t// in\n    tag_46:\n        /* \"#utility.yul\":1821:1824   */\n      dup3\n        /* \"#utility.yul\":1814:1851   */\n      mstore\n        /* \"#utility.yul\":1739:1857   */\n      pop\n      pop\n      jump\t// out\n        /* \"#utility.yul\":1863:2306   */\n    tag_10:\n        /* \"#utility.yul\":2014:2018   */\n      0x00\n        /* \"#utility.yul\":2052:2054   */\n      0x40\n        /* \"#utility.yul\":2041:2050   */\n      dup3\n        /* \"#utility.yul\":2037:2055   */\n      add\n        /* \"#utility.yul\":2029:2055   */\n      swap1\n      pop\n        /* \"#utility.yul\":2101:2110   */\n      dup2\n        /* \"#utility.yul\":2095:2099   */\n      dup2\n        /* \"#utility.yul\":2091:2111   */\n      sub\n        /* \"#utility.yul\":2087:2088   */\n      0x00\n        /* \"#utility.yul\":2076:2085   */\n      dup4\n        /* \"#utility.yul\":2072:2089   */\n      add\n        /* \"#utility.yul\":2065:2112   */\n      mstore\n        /* \"#utility.yul\":2129:2217   */\n      tag_49\n        /* \"#utility.yul\":2212:2216   */\n      dup2\n        /* \"#utility.yul\":2203:2209   */\n      dup6\n        /* \"#utility.yul\":2195:2201   */\n      dup8\n        /* \"#utility.yul\":2129:2217   */\n      tag_36\n      jump\t// in\n    tag_49:\n        /* \"#utility.yul\":2121:2217   */\n      swap1\n      pop\n        /* \"#utility.yul\":2227:2299   */\n      tag_50\n        /* \"#utility.yul\":2295:2297   */\n      0x20\n        /* \"#utility.yul\":2284:2293   */\n      dup4\n        /* \"#utility.yul\":2280:2298   */\n      add\n        /* \"#utility.yul\":2271:2277   */\n      dup5\n        /* \"#utility.yul\":2227:2299   */\n      tag_44\n      jump\t// in\n    tag_50:\n        /* \"#utility.yul\":1863:2306   */\n      swap5\n      swap4\n      pop\n      pop\n      pop\n      pop\n      jump\t// out\n        /* \"#utility.yul\":2393:2562   */\n    tag_39:\n        /* \"#utility.yul\":2477:2488   */\n      0x00\n        /* \"#utility.yul\":2511:2517   */\n      dup3\n        /* \"#utility.yul\":2506:2509   */\n      dup3\n        /* \"#utility.yul\":2499:2518   */\n      mstore\n        /* \"#utility.yul\":2551:2555   */\n      0x20\n        /* \"#utility.yul\":2546:2549   */\n      dup3\n        /* \"#utility.yul\":2542:2556   */\n      add\n        /* \"#utility.yul\":2527:2556   */\n      swap1\n      pop\n        /* \"#utility.yul\":2393:2562   */\n      swap3\n      swap2\n      pop\n      pop\n      jump\t// out\n        /* \"#utility.yul\":2568:2645   */\n    tag_47:\n        /* \"#utility.yul\":2605:2612   */\n      0x00\n        /* \"#utility.yul\":2634:2639   */\n      dup2\n        /* \"#utility.yul\":2623:2639   */\n      swap1\n      pop\n        /* \"#utility.yul\":2568:2645   */\n      swap2\n      swap1\n      pop\n      jump\t// out\n        /* \"#utility.yul\":2651:2805   */\n    tag_41:\n        /* \"#utility.yul\":2735:2741   */\n      dup3\n        /* \"#utility.yul\":2730:2733   */\n      dup2\n        /* \"#utility.yul\":2725:2728   */\n      dup4\n        /* \"#utility.yul\":2712:2742   */\n      calldatacopy\n        /* \"#utility.yul\":2797:2798   */\n      0x00\n        /* \"#utility.yul\":2788:2794   */\n      dup4\n        /* \"#utility.yul\":2783:2786   */\n      dup4\n        /* \"#utility.yul\":2779:2795   */\n      add\n        /* \"#utility.yul\":2772:2799   */\n      mstore\n        /* \"#utility.yul\":2651:2805   */\n      pop\n      pop\n      pop\n      jump\t// out\n        /* \"#utility.yul\":2811:2928   */\n    tag_19:\n        /* \"#utility.yul\":2920:2921   */\n      0x00\n        /* \"#utility.yul\":2917:2918   */\n      dup1\n        /* \"#utility.yul\":2910:2922   */\n      revert\n        /* \"#utility.yul\":2934:3051   */\n    tag_16:\n        /* \"#utility.yul\":3043:3044   */\n      0x00\n        /* \"#utility.yul\":3040:3041   */\n      dup1\n        /* \"#utility.yul\":3033:3045   */\n      revert\n        /* \"#utility.yul\":3057:3174   */\n    tag_22:\n        /* \"#utility.yul\":3166:3167   */\n      0x00\n        /* \"#utility.yul\":3163:3164   */\n      dup1\n        /* \"#utility.yul\":3156:3168   */\n      revert\n        /* \"#utility.yul\":3180:3297   */\n    tag_33:\n        /* \"#utility.yul\":3289:3290   */\n      0x00\n        /* \"#utility.yul\":3286:3287   */\n      dup1\n        /* \"#utility.yul\":3279:3291   */\n      revert\n        /* \"#utility.yul\":3303:3420   */\n    tag_30:\n        /* \"#utility.yul\":3412:3413   */\n      0x00\n        /* \"#utility.yul\":3409:3410   */\n      dup1\n        /* \"#utility.yul\":3402:3414   */\n      revert\n        /* \"#utility.yul\":3426:3528   */\n    tag_43:\n        /* \"#utility.yul\":3467:3473   */\n      0x00\n        /* \"#utility.yul\":3518:3520   */\n      0x1f\n        /* \"#utility.yul\":3514:3521   */\n      not\n        /* \"#utility.yul\":3509:3511   */\n      0x1f\n        /* \"#utility.yul\":3502:3507   */\n      dup4\n        /* \"#utility.yul\":3498:3512   */\n      add\n        /* \"#utility.yul\":3494:3522   */\n      and\n        /* \"#utility.yul\":3484:3522   */\n      swap1\n      pop\n        /* \"#utility.yul\":3426:3528   */\n      swap2\n      swap1\n      pop\n      jump\t// out\n        /* \"#utility.yul\":3534:3656   */\n    tag_26:\n        /* \"#utility.yul\":3607:3631   */\n      tag_63\n        /* \"#utility.yul\":3625:3630   */\n      dup2\n        /* \"#utility.yul\":3607:3631   */\n      tag_47\n      jump\t// in\n    tag_63:\n        /* \"#utility.yul\":3600:3605   */\n      dup2\n        /* \"#utility.yul\":3597:3632   */\n      eq\n        /* \"#utility.yul\":3587:3650   */\n      tag_64\n      jumpi\n        /* \"#utility.yul\":3646:3647   */\n      0x00\n        /* \"#utility.yul\":3643:3644   */\n      dup1\n        /* \"#utility.yul\":3636:3648   */\n      revert\n        /* \"#utility.yul\":3587:3650   */\n    tag_64:\n        /* \"#utility.yul\":3534:3656   */\n      pop\n      jump\t// out\n\n    auxdata: 0xa2646970667358221220ead339f1420a22323b32ef435548248158eab43a978cce584ac8d67f384090a864736f6c63430008070033\n}\n",
				"bytecode": {
					"linkReferences": {},
					"object": "608060405234801561001057600080fd5b50610266806100206000396000f3fe608060405234801561001057600080fd5b506004361061002b5760003560e01c80632ddd33c514610030575b600080fd5b61004a600480360381019061004591906100f7565b61004c565b005b7fdd970dd9b5bfe707922155b058a407655cb18288b807e2216442bca8ad83d6b583838360405161007f93929190610193565b60405180910390a1505050565b60008083601f8401126100a2576100a16101f4565b5b8235905067ffffffffffffffff8111156100bf576100be6101ef565b5b6020830191508360018202830111156100db576100da6101f9565b5b9250929050565b6000813590506100f181610219565b92915050565b6000806000604084860312156101105761010f610203565b5b600084013567ffffffffffffffff81111561012e5761012d6101fe565b5b61013a8682870161008c565b9350935050602061014d868287016100e2565b9150509250925092565b600061016383856101c5565b93506101708385846101e0565b61017983610208565b840190509392505050565b61018d816101d6565b82525050565b600060408201905081810360008301526101ae818587610157565b90506101bd6020830184610184565b949350505050565b600082825260208201905092915050565b6000819050919050565b82818337600083830152505050565b600080fd5b600080fd5b600080fd5b600080fd5b600080fd5b6000601f19601f8301169050919050565b610222816101d6565b811461022d57600080fd5b5056fea2646970667358221220ead339f1420a22323b32ef435548248158eab43a978cce584ac8d67f384090a864736f6c63430008070033",
					"opcodes": "PUSH1 0x80 PUSH1 0x40 MSTORE CALLVALUE DUP1 ISZERO PUSH2 0x10 JUMPI PUSH1 0x0 DUP1 REVERT JUMPDEST POP PUSH2 0x266 DUP1 PUSH2 0x20 PUSH1 0x0 CODECOPY PUSH1 0x0 RETURN INVALID PUSH1 0x80 PUSH1 0x40 MSTORE CALLVALUE DUP1 ISZERO PUSH2 0x10 JUMPI PUSH1 0x0 DUP1 REVERT JUMPDEST POP PUSH1 0x4 CALLDATASIZE LT PUSH2 0x2B JUMPI PUSH1 0x0 CALLDATALOAD PUSH1 0xE0 SHR DUP1 PUSH4 0x2DDD33C5 EQ PUSH2 0x30 JUMPI JUMPDEST PUSH1 0x0 DUP1 REVERT JUMPDEST PUSH2 0x4A PUSH1 0x4 DUP1 CALLDATASIZE SUB DUP2 ADD SWAP1 PUSH2 0x45 SWAP2 SWAP1 PUSH2 0xF7 JUMP JUMPDEST PUSH2 0x4C JUMP JUMPDEST STOP JUMPDEST PUSH32 0xDD970DD9B5BFE707922155B058A407655CB18288B807E2216442BCA8AD83D6B5 DUP4 DUP4 DUP4 PUSH1 0x40 MLOAD PUSH2 0x7F SWAP4 SWAP3 SWAP2 SWAP1 PUSH2 0x193 JUMP JUMPDEST PUSH1 0x40 MLOAD DUP1 SWAP2 SUB SWAP1 LOG1 POP POP POP JUMP JUMPDEST PUSH1 0x0 DUP1 DUP4 PUSH1 0x1F DUP5 ADD SLT PUSH2 0xA2 JUMPI PUSH2 0xA1 PUSH2 0x1F4 JUMP JUMPDEST JUMPDEST DUP3 CALLDATALOAD SWAP1 POP PUSH8 0xFFFFFFFFFFFFFFFF DUP2 GT ISZERO PUSH2 0xBF JUMPI PUSH2 0xBE PUSH2 0x1EF JUMP JUMPDEST JUMPDEST PUSH1 0x20 DUP4 ADD SWAP2 POP DUP4 PUSH1 0x1 DUP3 MUL DUP4 ADD GT ISZERO PUSH2 0xDB JUMPI PUSH2 0xDA PUSH2 0x1F9 JUMP JUMPDEST JUMPDEST SWAP3 POP SWAP3 SWAP1 POP JUMP JUMPDEST PUSH1 0x0 DUP2 CALLDATALOAD SWAP1 POP PUSH2 0xF1 DUP2 PUSH2 0x219 JUMP JUMPDEST SWAP3 SWAP2 POP POP JUMP JUMPDEST PUSH1 0x0 DUP1 PUSH1 0x0 PUSH1 0x40 DUP5 DUP7 SUB SLT ISZERO PUSH2 0x110 JUMPI PUSH2 0x10F PUSH2 0x203 JUMP JUMPDEST JUMPDEST PUSH1 0x0 DUP5 ADD CALLDATALOAD PUSH8 0xFFFFFFFFFFFFFFFF DUP2 GT ISZERO PUSH2 0x12E JUMPI PUSH2 0x12D PUSH2 0x1FE JUMP JUMPDEST JUMPDEST PUSH2 0x13A DUP7 DUP3 DUP8 ADD PUSH2 0x8C JUMP JUMPDEST SWAP4 POP SWAP4 POP POP PUSH1 0x20 PUSH2 0x14D DUP7 DUP3 DUP8 ADD PUSH2 0xE2 JUMP JUMPDEST SWAP2 POP POP SWAP3 POP SWAP3 POP SWAP3 JUMP JUMPDEST PUSH1 0x0 PUSH2 0x163 DUP4 DUP6 PUSH2 0x1C5 JUMP JUMPDEST SWAP4 POP PUSH2 0x170 DUP4 DUP6 DUP5 PUSH2 0x1E0 JUMP JUMPDEST PUSH2 0x179 DUP4 PUSH2 0x208 JUMP JUMPDEST DUP5 ADD SWAP1 POP SWAP4 SWAP3 POP POP POP JUMP JUMPDEST PUSH2 0x18D DUP2 PUSH2 0x1D6 JUMP JUMPDEST DUP3 MSTORE POP POP JUMP JUMPDEST PUSH1 0x0 PUSH1 0x40 DUP3 ADD SWAP1 POP DUP2 DUP2 SUB PUSH1 0x0 DUP4 ADD MSTORE PUSH2 0x1AE DUP2 DUP6 DUP8 PUSH2 0x157 JUMP JUMPDEST SWAP1 POP PUSH2 0x1BD PUSH1 0x20 DUP4 ADD DUP5 PUSH2 0x184 JUMP JUMPDEST SWAP5 SWAP4 POP POP POP POP JUMP JUMPDEST PUSH1 0x0 DUP3 DUP3 MSTORE PUSH1 0x20 DUP3 ADD SWAP1 POP SWAP3 SWAP2 POP POP JUMP JUMPDEST PUSH1 0x0 DUP2 SWAP1 POP SWAP2 SWAP1 POP JUMP JUMPDEST DUP3 DUP2 DUP4 CALLDATACOPY PUSH1 0x0 DUP4 DUP4 ADD MSTORE POP POP POP JUMP JUMPDEST PUSH1 0x0 DUP1 REVERT JUMPDEST PUSH1 0x0 DUP1 REVERT JUMPDEST PUSH1 0x0 DUP1 REVERT JUMPDEST PUSH1 0x0 DUP1 REVERT JUMPDEST PUSH1 0x0 DUP1 REVERT JUMPDEST PUSH1 0x0 PUSH1 0x1F NOT PUSH1 0x1F DUP4 ADD AND SWAP1 POP SWAP2 SWAP1 POP JUMP JUMPDEST PUSH2 0x222 DUP2 PUSH2 0x1D6 JUMP JUMPDEST DUP2 EQ PUSH2 0x22D JUMPI PUSH1 0x0 DUP1 REVERT JUMPDEST POP JUMP INVALID LOG2 PUSH5 0x6970667358 0x22 SLT KECCAK256 0xEA 0xD3 CODECOPY CALL TIMESTAMP EXP 0x22 ORIGIN EXTCODESIZE ORIGIN 0xEF NUMBER SSTORE BASEFEE 0x24 DUP2 PC 0xEA 0xB4 GASPRICE SWAP8 DUP13 0xCE PC 0x4A 0xC8 0xD6 PUSH32 0x384090A864736F6C634300080700330000000000000000000000000000000000 "
				},
				"gasEstimates": {
					"creation": {
						"codeDepositCost": "122800",
						"executionCost": "171",
						"totalCost": "122971"
					},
					"external": {
						"example(string,uint256)": "infinite"
					}
				},
				"methodIdentifiers": {
					"example(string,uint256)": "2ddd33c5"
				}
			},
			"storageLayout": {
				"storage": [],
				"types": null
			},
			"userdoc": {
				"kind": "user",
				"methods": {},
				"version": 1
			}
		}
	}
}