{
	"solidity_korea/inheritance.sol": {
		"B": {
			"abi": [
				{
					"inputs": [],
					"name": "bar",
					"outputs": [
						{
							"internalType": "string",
							"name": "",
							"type": "string"
						}
					],
					"stateMutability": "pure",
					"type": "function"
				},
				{
					"inputs": [],
					"name": "baz",
					"outputs": [
						{
							"internalType": "string",
							"name": "",
							"type": "string"
						}
					],
					"stateMutability": "pure",
					"type": "function"
				},
				{
					"inputs": [
						{
							"internalType": "string",
							"name": "_text",
							"type": "string"
						}
					],
					"name": "foo",
					"outputs": [
						{
							"internalType": "string",
							"name": "",
							"type": "string"
						}
					],
					"stateMutability": "pure",
					"type": "function"
				}
			],
			"devdoc": {
				"kind": "dev",
				"methods": {},
				"version": 1
			},
			"evm": {
				"assembly": "    /* \"solidity_korea/inheritance.sol\":792:1024  contract B is A{... */\n  mstore(0x40, 0x80)\n  callvalue\n  dup1\n  iszero\n  tag_1\n  jumpi\n  0x00\n  dup1\n  revert\ntag_1:\n  pop\n  dataSize(sub_0)\n  dup1\n  dataOffset(sub_0)\n  0x00\n  codecopy\n  0x00\n  return\nstop\n\nsub_0: assembly {\n        /* \"solidity_korea/inheritance.sol\":792:1024  contract B is A{... */\n      mstore(0x40, 0x80)\n      callvalue\n      dup1\n      iszero\n      tag_1\n      jumpi\n      0x00\n      dup1\n      revert\n    tag_1:\n      pop\n      jumpi(tag_2, lt(calldatasize, 0x04))\n      shr(0xe0, calldataload(0x00))\n      dup1\n      0xa7916fac\n      eq\n      tag_3\n      jumpi\n      dup1\n      0xf31a6969\n      eq\n      tag_4\n      jumpi\n      dup1\n      0xfebb0f7e\n      eq\n      tag_5\n      jumpi\n    tag_2:\n      0x00\n      dup1\n      revert\n        /* \"solidity_korea/inheritance.sol\":278:356  function baz() external pure returns(string memory){... */\n    tag_3:\n      tag_6\n      tag_7\n      jump\t// in\n    tag_6:\n      mload(0x40)\n      tag_8\n      swap2\n      swap1\n      tag_9\n      jump\t// in\n    tag_8:\n      mload(0x40)\n      dup1\n      swap2\n      sub\n      swap1\n      return\n        /* \"solidity_korea/inheritance.sol\":813:922  function foo(string calldata _text)external pure override returns(string memory){... */\n    tag_4:\n      tag_10\n      0x04\n      dup1\n      calldatasize\n      sub\n      dup2\n      add\n      swap1\n      tag_11\n      swap2\n      swap1\n      tag_12\n      jump\t// in\n    tag_11:\n      tag_13\n      jump\t// in\n    tag_10:\n      mload(0x40)\n      tag_14\n      swap2\n      swap1\n      tag_9\n      jump\t// in\n    tag_14:\n      mload(0x40)\n      dup1\n      swap2\n      sub\n      swap1\n      return\n        /* \"solidity_korea/inheritance.sol\":927:1022  function bar() external pure virtual override returns(string memory){... */\n    tag_5:\n      tag_15\n      tag_16\n      jump\t// in\n    tag_15:\n      mload(0x40)\n      tag_17\n      swap2\n      swap1\n      tag_9\n      jump\t// in\n    tag_17:\n      mload(0x40)\n      dup1\n      swap2\n      sub\n      swap1\n      return\n        /* \"solidity_korea/inheritance.sol\":278:356  function baz() external pure returns(string memory){... */\n    tag_7:\n        /* \"solidity_korea/inheritance.sol\":315:328  string memory */\n      0x60\n        /* \"solidity_korea/inheritance.sol\":339:349  return \"A\" */\n      mload(0x40)\n      dup1\n      0x40\n      add\n      0x40\n      mstore\n      dup1\n      0x01\n      dup2\n      mstore\n      0x20\n      add\n      0x4100000000000000000000000000000000000000000000000000000000000000\n      dup2\n      mstore\n      pop\n      swap1\n      pop\n        /* \"solidity_korea/inheritance.sol\":278:356  function baz() external pure returns(string memory){... */\n      swap1\n      jump\t// out\n        /* \"solidity_korea/inheritance.sol\":813:922  function foo(string calldata _text)external pure override returns(string memory){... */\n    tag_13:\n        /* \"solidity_korea/inheritance.sol\":879:892  string memory */\n      0x60\n        /* \"solidity_korea/inheritance.sol\":910:915  _text */\n      dup3\n      dup3\n        /* \"solidity_korea/inheritance.sol\":903:915  return _text */\n      dup1\n      dup1\n      0x1f\n      add\n      0x20\n      dup1\n      swap2\n      div\n      mul\n      0x20\n      add\n      mload(0x40)\n      swap1\n      dup2\n      add\n      0x40\n      mstore\n      dup1\n      swap4\n      swap3\n      swap2\n      swap1\n      dup2\n      dup2\n      mstore\n      0x20\n      add\n      dup4\n      dup4\n      dup1\n      dup3\n      dup5\n      calldatacopy\n      0x00\n      dup2\n      dup5\n      add\n      mstore\n      not(0x1f)\n      0x1f\n      dup3\n      add\n      and\n      swap1\n      pop\n      dup1\n      dup4\n      add\n      swap3\n      pop\n      pop\n      pop\n      pop\n      pop\n      pop\n      pop\n      swap1\n      pop\n        /* \"solidity_korea/inheritance.sol\":813:922  function foo(string calldata _text)external pure override returns(string memory){... */\n      swap3\n      swap2\n      pop\n      pop\n      jump\t// out\n        /* \"solidity_korea/inheritance.sol\":927:1022  function bar() external pure virtual override returns(string memory){... */\n    tag_16:\n        /* \"solidity_korea/inheritance.sol\":981:994  string memory */\n      0x60\n        /* \"solidity_korea/inheritance.sol\":1005:1015  return \"B\" */\n      mload(0x40)\n      dup1\n      0x40\n      add\n      0x40\n      mstore\n      dup1\n      0x01\n      dup2\n      mstore\n      0x20\n      add\n      0x4200000000000000000000000000000000000000000000000000000000000000\n      dup2\n      mstore\n      pop\n      swap1\n      pop\n        /* \"solidity_korea/inheritance.sol\":927:1022  function bar() external pure virtual override returns(string memory){... */\n      swap1\n      jump\t// out\n        /* \"#utility.yul\":21:574   */\n    tag_22:\n        /* \"#utility.yul\":79:87   */\n      0x00\n        /* \"#utility.yul\":89:95   */\n      dup1\n        /* \"#utility.yul\":139:142   */\n      dup4\n        /* \"#utility.yul\":132:136   */\n      0x1f\n        /* \"#utility.yul\":124:130   */\n      dup5\n        /* \"#utility.yul\":120:137   */\n      add\n        /* \"#utility.yul\":116:143   */\n      slt\n        /* \"#utility.yul\":106:228   */\n      tag_24\n      jumpi\n        /* \"#utility.yul\":147:226   */\n      tag_25\n      tag_26\n      jump\t// in\n    tag_25:\n        /* \"#utility.yul\":106:228   */\n    tag_24:\n        /* \"#utility.yul\":260:266   */\n      dup3\n        /* \"#utility.yul\":247:267   */\n      calldataload\n        /* \"#utility.yul\":237:267   */\n      swap1\n      pop\n        /* \"#utility.yul\":290:308   */\n      0xffffffffffffffff\n        /* \"#utility.yul\":282:288   */\n      dup2\n        /* \"#utility.yul\":279:309   */\n      gt\n        /* \"#utility.yul\":276:393   */\n      iszero\n      tag_27\n      jumpi\n        /* \"#utility.yul\":312:391   */\n      tag_28\n      tag_29\n      jump\t// in\n    tag_28:\n        /* \"#utility.yul\":276:393   */\n    tag_27:\n        /* \"#utility.yul\":426:430   */\n      0x20\n        /* \"#utility.yul\":418:424   */\n      dup4\n        /* \"#utility.yul\":414:431   */\n      add\n        /* \"#utility.yul\":402:431   */\n      swap2\n      pop\n        /* \"#utility.yul\":480:483   */\n      dup4\n        /* \"#utility.yul\":472:476   */\n      0x01\n        /* \"#utility.yul\":464:470   */\n      dup3\n        /* \"#utility.yul\":460:477   */\n      mul\n        /* \"#utility.yul\":450:458   */\n      dup4\n        /* \"#utility.yul\":446:478   */\n      add\n        /* \"#utility.yul\":443:484   */\n      gt\n        /* \"#utility.yul\":440:568   */\n      iszero\n      tag_30\n      jumpi\n        /* \"#utility.yul\":487:566   */\n      tag_31\n      tag_32\n      jump\t// in\n    tag_31:\n        /* \"#utility.yul\":440:568   */\n    tag_30:\n        /* \"#utility.yul\":21:574   */\n      swap3\n      pop\n      swap3\n      swap1\n      pop\n      jump\t// out\n        /* \"#utility.yul\":580:1109   */\n    tag_12:\n        /* \"#utility.yul\":651:657   */\n      0x00\n        /* \"#utility.yul\":659:665   */\n      dup1\n        /* \"#utility.yul\":708:710   */\n      0x20\n        /* \"#utility.yul\":696:705   */\n      dup4\n        /* \"#utility.yul\":687:694   */\n      dup6\n        /* \"#utility.yul\":683:706   */\n      sub\n        /* \"#utility.yul\":679:711   */\n      slt\n        /* \"#utility.yul\":676:795   */\n      iszero\n      tag_34\n      jumpi\n        /* \"#utility.yul\":714:793   */\n      tag_35\n      tag_36\n      jump\t// in\n    tag_35:\n        /* \"#utility.yul\":676:795   */\n    tag_34:\n        /* \"#utility.yul\":862:863   */\n      0x00\n        /* \"#utility.yul\":851:860   */\n      dup4\n        /* \"#utility.yul\":847:864   */\n      add\n        /* \"#utility.yul\":834:865   */\n      calldataload\n        /* \"#utility.yul\":892:910   */\n      0xffffffffffffffff\n        /* \"#utility.yul\":884:890   */\n      dup2\n        /* \"#utility.yul\":881:911   */\n      gt\n        /* \"#utility.yul\":878:995   */\n      iszero\n      tag_37\n      jumpi\n        /* \"#utility.yul\":914:993   */\n      tag_38\n      tag_39\n      jump\t// in\n    tag_38:\n        /* \"#utility.yul\":878:995   */\n    tag_37:\n        /* \"#utility.yul\":1027:1092   */\n      tag_40\n        /* \"#utility.yul\":1084:1091   */\n      dup6\n        /* \"#utility.yul\":1075:1081   */\n      dup3\n        /* \"#utility.yul\":1064:1073   */\n      dup7\n        /* \"#utility.yul\":1060:1082   */\n      add\n        /* \"#utility.yul\":1027:1092   */\n      tag_22\n      jump\t// in\n    tag_40:\n        /* \"#utility.yul\":1009:1092   */\n      swap3\n      pop\n      swap3\n      pop\n        /* \"#utility.yul\":805:1102   */\n      pop\n        /* \"#utility.yul\":580:1109   */\n      swap3\n      pop\n      swap3\n      swap1\n      pop\n      jump\t// out\n        /* \"#utility.yul\":1115:1479   */\n    tag_41:\n        /* \"#utility.yul\":1203:1206   */\n      0x00\n        /* \"#utility.yul\":1231:1270   */\n      tag_43\n        /* \"#utility.yul\":1264:1269   */\n      dup3\n        /* \"#utility.yul\":1231:1270   */\n      tag_44\n      jump\t// in\n    tag_43:\n        /* \"#utility.yul\":1286:1357   */\n      tag_45\n        /* \"#utility.yul\":1350:1356   */\n      dup2\n        /* \"#utility.yul\":1345:1348   */\n      dup6\n        /* \"#utility.yul\":1286:1357   */\n      tag_46\n      jump\t// in\n    tag_45:\n        /* \"#utility.yul\":1279:1357   */\n      swap4\n      pop\n        /* \"#utility.yul\":1366:1418   */\n      tag_47\n        /* \"#utility.yul\":1411:1417   */\n      dup2\n        /* \"#utility.yul\":1406:1409   */\n      dup6\n        /* \"#utility.yul\":1399:1403   */\n      0x20\n        /* \"#utility.yul\":1392:1397   */\n      dup7\n        /* \"#utility.yul\":1388:1404   */\n      add\n        /* \"#utility.yul\":1366:1418   */\n      tag_48\n      jump\t// in\n    tag_47:\n        /* \"#utility.yul\":1443:1472   */\n      tag_49\n        /* \"#utility.yul\":1465:1471   */\n      dup2\n        /* \"#utility.yul\":1443:1472   */\n      tag_50\n      jump\t// in\n    tag_49:\n        /* \"#utility.yul\":1438:1441   */\n      dup5\n        /* \"#utility.yul\":1434:1473   */\n      add\n        /* \"#utility.yul\":1427:1473   */\n      swap2\n      pop\n        /* \"#utility.yul\":1207:1479   */\n      pop\n        /* \"#utility.yul\":1115:1479   */\n      swap3\n      swap2\n      pop\n      pop\n      jump\t// out\n        /* \"#utility.yul\":1485:1798   */\n    tag_9:\n        /* \"#utility.yul\":1598:1602   */\n      0x00\n        /* \"#utility.yul\":1636:1638   */\n      0x20\n        /* \"#utility.yul\":1625:1634   */\n      dup3\n        /* \"#utility.yul\":1621:1639   */\n      add\n        /* \"#utility.yul\":1613:1639   */\n      swap1\n      pop\n        /* \"#utility.yul\":1685:1694   */\n      dup2\n        /* \"#utility.yul\":1679:1683   */\n      dup2\n        /* \"#utility.yul\":1675:1695   */\n      sub\n        /* \"#utility.yul\":1671:1672   */\n      0x00\n        /* \"#utility.yul\":1660:1669   */\n      dup4\n        /* \"#utility.yul\":1656:1673   */\n      add\n        /* \"#utility.yul\":1649:1696   */\n      mstore\n        /* \"#utility.yul\":1713:1791   */\n      tag_52\n        /* \"#utility.yul\":1786:1790   */\n      dup2\n        /* \"#utility.yul\":1777:1783   */\n      dup5\n        /* \"#utility.yul\":1713:1791   */\n      tag_41\n      jump\t// in\n    tag_52:\n        /* \"#utility.yul\":1705:1791   */\n      swap1\n      pop\n        /* \"#utility.yul\":1485:1798   */\n      swap3\n      swap2\n      pop\n      pop\n      jump\t// out\n        /* \"#utility.yul\":1885:1984   */\n    tag_44:\n        /* \"#utility.yul\":1937:1943   */\n      0x00\n        /* \"#utility.yul\":1971:1976   */\n      dup2\n        /* \"#utility.yul\":1965:1977   */\n      mload\n        /* \"#utility.yul\":1955:1977   */\n      swap1\n      pop\n        /* \"#utility.yul\":1885:1984   */\n      swap2\n      swap1\n      pop\n      jump\t// out\n        /* \"#utility.yul\":1990:2159   */\n    tag_46:\n        /* \"#utility.yul\":2074:2085   */\n      0x00\n        /* \"#utility.yul\":2108:2114   */\n      dup3\n        /* \"#utility.yul\":2103:2106   */\n      dup3\n        /* \"#utility.yul\":2096:2115   */\n      mstore\n        /* \"#utility.yul\":2148:2152   */\n      0x20\n        /* \"#utility.yul\":2143:2146   */\n      dup3\n        /* \"#utility.yul\":2139:2153   */\n      add\n        /* \"#utility.yul\":2124:2153   */\n      swap1\n      pop\n        /* \"#utility.yul\":1990:2159   */\n      swap3\n      swap2\n      pop\n      pop\n      jump\t// out\n        /* \"#utility.yul\":2165:2472   */\n    tag_48:\n        /* \"#utility.yul\":2233:2234   */\n      0x00\n        /* \"#utility.yul\":2243:2356   */\n    tag_58:\n        /* \"#utility.yul\":2257:2263   */\n      dup4\n        /* \"#utility.yul\":2254:2255   */\n      dup2\n        /* \"#utility.yul\":2251:2264   */\n      lt\n        /* \"#utility.yul\":2243:2356   */\n      iszero\n      tag_60\n      jumpi\n        /* \"#utility.yul\":2342:2343   */\n      dup1\n        /* \"#utility.yul\":2337:2340   */\n      dup3\n        /* \"#utility.yul\":2333:2344   */\n      add\n        /* \"#utility.yul\":2327:2345   */\n      mload\n        /* \"#utility.yul\":2323:2324   */\n      dup2\n        /* \"#utility.yul\":2318:2321   */\n      dup5\n        /* \"#utility.yul\":2314:2325   */\n      add\n        /* \"#utility.yul\":2307:2346   */\n      mstore\n        /* \"#utility.yul\":2279:2281   */\n      0x20\n        /* \"#utility.yul\":2276:2277   */\n      dup2\n        /* \"#utility.yul\":2272:2282   */\n      add\n        /* \"#utility.yul\":2267:2282   */\n      swap1\n      pop\n        /* \"#utility.yul\":2243:2356   */\n      jump(tag_58)\n    tag_60:\n        /* \"#utility.yul\":2374:2380   */\n      dup4\n        /* \"#utility.yul\":2371:2372   */\n      dup2\n        /* \"#utility.yul\":2368:2381   */\n      gt\n        /* \"#utility.yul\":2365:2466   */\n      iszero\n      tag_61\n      jumpi\n        /* \"#utility.yul\":2454:2455   */\n      0x00\n        /* \"#utility.yul\":2445:2451   */\n      dup5\n        /* \"#utility.yul\":2440:2443   */\n      dup5\n        /* \"#utility.yul\":2436:2452   */\n      add\n        /* \"#utility.yul\":2429:2456   */\n      mstore\n        /* \"#utility.yul\":2365:2466   */\n    tag_61:\n        /* \"#utility.yul\":2214:2472   */\n      pop\n        /* \"#utility.yul\":2165:2472   */\n      pop\n      pop\n      pop\n      jump\t// out\n        /* \"#utility.yul\":2478:2595   */\n    tag_29:\n        /* \"#utility.yul\":2587:2588   */\n      0x00\n        /* \"#utility.yul\":2584:2585   */\n      dup1\n        /* \"#utility.yul\":2577:2589   */\n      revert\n        /* \"#utility.yul\":2601:2718   */\n    tag_26:\n        /* \"#utility.yul\":2710:2711   */\n      0x00\n        /* \"#utility.yul\":2707:2708   */\n      dup1\n        /* \"#utility.yul\":2700:2712   */\n      revert\n        /* \"#utility.yul\":2724:2841   */\n    tag_32:\n        /* \"#utility.yul\":2833:2834   */\n      0x00\n        /* \"#utility.yul\":2830:2831   */\n      dup1\n        /* \"#utility.yul\":2823:2835   */\n      revert\n        /* \"#utility.yul\":2847:2964   */\n    tag_39:\n        /* \"#utility.yul\":2956:2957   */\n      0x00\n        /* \"#utility.yul\":2953:2954   */\n      dup1\n        /* \"#utility.yul\":2946:2958   */\n      revert\n        /* \"#utility.yul\":2970:3087   */\n    tag_36:\n        /* \"#utility.yul\":3079:3080   */\n      0x00\n        /* \"#utility.yul\":3076:3077   */\n      dup1\n        /* \"#utility.yul\":3069:3081   */\n      revert\n        /* \"#utility.yul\":3093:3195   */\n    tag_50:\n        /* \"#utility.yul\":3134:3140   */\n      0x00\n        /* \"#utility.yul\":3185:3187   */\n      0x1f\n        /* \"#utility.yul\":3181:3188   */\n      not\n        /* \"#utility.yul\":3176:3178   */\n      0x1f\n        /* \"#utility.yul\":3169:3174   */\n      dup4\n        /* \"#utility.yul\":3165:3179   */\n      add\n        /* \"#utility.yul\":3161:3189   */\n      and\n        /* \"#utility.yul\":3151:3189   */\n      swap1\n      pop\n        /* \"#utility.yul\":3093:3195   */\n      swap2\n      swap1\n      pop\n      jump\t// out\n\n    auxdata: 0xa26469706673582212202d3bc530985d92b4b5a45a763176f956ba118b893681eb51eeedd40267c23f2164736f6c63430008070033\n}\n",
				"bytecode": {
					"linkReferences": {},
					"object": "608060405234801561001057600080fd5b50610328806100206000396000f3fe608060405234801561001057600080fd5b50600436106100415760003560e01c8063a7916fac14610046578063f31a696914610064578063febb0f7e14610094575b600080fd5b61004e6100b2565b60405161005b9190610257565b60405180910390f35b61007e600480360381019061007991906101d1565b6100ef565b60405161008b9190610257565b60405180910390f35b61009c61013e565b6040516100a99190610257565b60405180910390f35b60606040518060400160405280600181526020017f4100000000000000000000000000000000000000000000000000000000000000815250905090565b606082828080601f016020809104026020016040519081016040528093929190818152602001838380828437600081840152601f19601f82011690508083019250505050505050905092915050565b60606040518060400160405280600181526020017f4200000000000000000000000000000000000000000000000000000000000000815250905090565b60008083601f840112610191576101906102cd565b5b8235905067ffffffffffffffff8111156101ae576101ad6102c8565b5b6020830191508360018202830111156101ca576101c96102d2565b5b9250929050565b600080602083850312156101e8576101e76102dc565b5b600083013567ffffffffffffffff811115610206576102056102d7565b5b6102128582860161017b565b92509250509250929050565b600061022982610279565b6102338185610284565b9350610243818560208601610295565b61024c816102e1565b840191505092915050565b60006020820190508181036000830152610271818461021e565b905092915050565b600081519050919050565b600082825260208201905092915050565b60005b838110156102b3578082015181840152602081019050610298565b838111156102c2576000848401525b50505050565b600080fd5b600080fd5b600080fd5b600080fd5b600080fd5b6000601f19601f830116905091905056fea26469706673582212202d3bc530985d92b4b5a45a763176f956ba118b893681eb51eeedd40267c23f2164736f6c63430008070033",
					"opcodes": "PUSH1 0x80 PUSH1 0x40 MSTORE CALLVALUE DUP1 ISZERO PUSH2 0x10 JUMPI PUSH1 0x0 DUP1 REVERT JUMPDEST POP PUSH2 0x328 DUP1 PUSH2 0x20 PUSH1 0x0 CODECOPY PUSH1 0x0 RETURN INVALID PUSH1 0x80 PUSH1 0x40 MSTORE CALLVALUE DUP1 ISZERO PUSH2 0x10 JUMPI PUSH1 0x0 DUP1 REVERT JUMPDEST POP PUSH1 0x4 CALLDATASIZE LT PUSH2 0x41 JUMPI PUSH1 0x0 CALLDATALOAD PUSH1 0xE0 SHR DUP1 PUSH4 0xA7916FAC EQ PUSH2 0x46 JUMPI DUP1 PUSH4 0xF31A6969 EQ PUSH2 0x64 JUMPI DUP1 PUSH4 0xFEBB0F7E EQ PUSH2 0x94 JUMPI JUMPDEST PUSH1 0x0 DUP1 REVERT JUMPDEST PUSH2 0x4E PUSH2 0xB2 JUMP JUMPDEST PUSH1 0x40 MLOAD PUSH2 0x5B SWAP2 SWAP1 PUSH2 0x257 JUMP JUMPDEST PUSH1 0x40 MLOAD DUP1 SWAP2 SUB SWAP1 RETURN JUMPDEST PUSH2 0x7E PUSH1 0x4 DUP1 CALLDATASIZE SUB DUP2 ADD SWAP1 PUSH2 0x79 SWAP2 SWAP1 PUSH2 0x1D1 JUMP JUMPDEST PUSH2 0xEF JUMP JUMPDEST PUSH1 0x40 MLOAD PUSH2 0x8B SWAP2 SWAP1 PUSH2 0x257 JUMP JUMPDEST PUSH1 0x40 MLOAD DUP1 SWAP2 SUB SWAP1 RETURN JUMPDEST PUSH2 0x9C PUSH2 0x13E JUMP JUMPDEST PUSH1 0x40 MLOAD PUSH2 0xA9 SWAP2 SWAP1 PUSH2 0x257 JUMP JUMPDEST PUSH1 0x40 MLOAD DUP1 SWAP2 SUB SWAP1 RETURN JUMPDEST PUSH1 0x60 PUSH1 0x40 MLOAD DUP1 PUSH1 0x40 ADD PUSH1 0x40 MSTORE DUP1 PUSH1 0x1 DUP2 MSTORE PUSH1 0x20 ADD PUSH32 0x4100000000000000000000000000000000000000000000000000000000000000 DUP2 MSTORE POP SWAP1 POP SWAP1 JUMP JUMPDEST PUSH1 0x60 DUP3 DUP3 DUP1 DUP1 PUSH1 0x1F ADD PUSH1 0x20 DUP1 SWAP2 DIV MUL PUSH1 0x20 ADD PUSH1 0x40 MLOAD SWAP1 DUP2 ADD PUSH1 0x40 MSTORE DUP1 SWAP4 SWAP3 SWAP2 SWAP1 DUP2 DUP2 MSTORE PUSH1 0x20 ADD DUP4 DUP4 DUP1 DUP3 DUP5 CALLDATACOPY PUSH1 0x0 DUP2 DUP5 ADD MSTORE PUSH1 0x1F NOT PUSH1 0x1F DUP3 ADD AND SWAP1 POP DUP1 DUP4 ADD SWAP3 POP POP POP POP POP POP POP SWAP1 POP SWAP3 SWAP2 POP POP JUMP JUMPDEST PUSH1 0x60 PUSH1 0x40 MLOAD DUP1 PUSH1 0x40 ADD PUSH1 0x40 MSTORE DUP1 PUSH1 0x1 DUP2 MSTORE PUSH1 0x20 ADD PUSH32 0x4200000000000000000000000000000000000000000000000000000000000000 DUP2 MSTORE POP SWAP1 POP SWAP1 JUMP JUMPDEST PUSH1 0x0 DUP1 DUP4 PUSH1 0x1F DUP5 ADD SLT PUSH2 0x191 JUMPI PUSH2 0x190 PUSH2 0x2CD JUMP JUMPDEST JUMPDEST DUP3 CALLDATALOAD SWAP1 POP PUSH8 0xFFFFFFFFFFFFFFFF DUP2 GT ISZERO PUSH2 0x1AE JUMPI PUSH2 0x1AD PUSH2 0x2C8 JUMP JUMPDEST JUMPDEST PUSH1 0x20 DUP4 ADD SWAP2 POP DUP4 PUSH1 0x1 DUP3 MUL DUP4 ADD GT ISZERO PUSH2 0x1CA JUMPI PUSH2 0x1C9 PUSH2 0x2D2 JUMP JUMPDEST JUMPDEST SWAP3 POP SWAP3 SWAP1 POP JUMP JUMPDEST PUSH1 0x0 DUP1 PUSH1 0x20 DUP4 DUP6 SUB SLT ISZERO PUSH2 0x1E8 JUMPI PUSH2 0x1E7 PUSH2 0x2DC JUMP JUMPDEST JUMPDEST PUSH1 0x0 DUP4 ADD CALLDATALOAD PUSH8 0xFFFFFFFFFFFFFFFF DUP2 GT ISZERO PUSH2 0x206 JUMPI PUSH2 0x205 PUSH2 0x2D7 JUMP JUMPDEST JUMPDEST PUSH2 0x212 DUP6 DUP3 DUP7 ADD PUSH2 0x17B JUMP JUMPDEST SWAP3 POP SWAP3 POP POP SWAP3 POP SWAP3 SWAP1 POP JUMP JUMPDEST PUSH1 0x0 PUSH2 0x229 DUP3 PUSH2 0x279 JUMP JUMPDEST PUSH2 0x233 DUP2 DUP6 PUSH2 0x284 JUMP JUMPDEST SWAP4 POP PUSH2 0x243 DUP2 DUP6 PUSH1 0x20 DUP7 ADD PUSH2 0x295 JUMP JUMPDEST PUSH2 0x24C DUP2 PUSH2 0x2E1 JUMP JUMPDEST DUP5 ADD SWAP2 POP POP SWAP3 SWAP2 POP POP JUMP JUMPDEST PUSH1 0x0 PUSH1 0x20 DUP3 ADD SWAP1 POP DUP2 DUP2 SUB PUSH1 0x0 DUP4 ADD MSTORE PUSH2 0x271 DUP2 DUP5 PUSH2 0x21E JUMP JUMPDEST SWAP1 POP SWAP3 SWAP2 POP POP JUMP JUMPDEST PUSH1 0x0 DUP2 MLOAD SWAP1 POP SWAP2 SWAP1 POP JUMP JUMPDEST PUSH1 0x0 DUP3 DUP3 MSTORE PUSH1 0x20 DUP3 ADD SWAP1 POP SWAP3 SWAP2 POP POP JUMP JUMPDEST PUSH1 0x0 JUMPDEST DUP4 DUP2 LT ISZERO PUSH2 0x2B3 JUMPI DUP1 DUP3 ADD MLOAD DUP2 DUP5 ADD MSTORE PUSH1 0x20 DUP2 ADD SWAP1 POP PUSH2 0x298 JUMP JUMPDEST DUP4 DUP2 GT ISZERO PUSH2 0x2C2 JUMPI PUSH1 0x0 DUP5 DUP5 ADD MSTORE JUMPDEST POP POP POP POP JUMP JUMPDEST PUSH1 0x0 DUP1 REVERT JUMPDEST PUSH1 0x0 DUP1 REVERT JUMPDEST PUSH1 0x0 DUP1 REVERT JUMPDEST PUSH1 0x0 DUP1 REVERT JUMPDEST PUSH1 0x0 DUP1 REVERT JUMPDEST PUSH1 0x0 PUSH1 0x1F NOT PUSH1 0x1F DUP4 ADD AND SWAP1 POP SWAP2 SWAP1 POP JUMP INVALID LOG2 PUSH5 0x6970667358 0x22 SLT KECCAK256 0x2D EXTCODESIZE 0xC5 ADDRESS SWAP9 0x5D SWAP3 0xB4 0xB5 LOG4 GAS PUSH23 0x3176F956BA118B893681EB51EEEDD40267C23F2164736F PUSH13 0x63430008070033000000000000 "
				},
				"gasEstimates": {
					"creation": {
						"codeDepositCost": "161600",
						"executionCost": "208",
						"totalCost": "161808"
					},
					"external": {
						"bar()": "infinite",
						"baz()": "infinite",
						"foo(string)": "infinite"
					}
				},
				"methodIdentifiers": {
					"bar()": "febb0f7e",
					"baz()": "a7916fac",
					"foo(string)": "f31a6969"
				}
			},
			"storageLayout": {
				"storage": [],
				"types": null
			},
			"userdoc": {
				"kind": "user",
				"methods": {},
				"version": 1
			}
		}
	}
}