{
	"solidity_korea/New.sol": {
		"AccountFactory": {
			"abi": [
				{
					"inputs": [
						{
							"internalType": "uint256",
							"name": "",
							"type": "uint256"
						}
					],
					"name": "accounts",
					"outputs": [
						{
							"internalType": "contract Account",
							"name": "",
							"type": "address"
						}
					],
					"stateMutability": "view",
					"type": "function"
				},
				{
					"inputs": [
						{
							"internalType": "address",
							"name": "_owner",
							"type": "address"
						}
					],
					"name": "chagneOwner",
					"outputs": [],
					"stateMutability": "nonpayable",
					"type": "function"
				},
				{
					"inputs": [
						{
							"internalType": "address",
							"name": "_owner",
							"type": "address"
						}
					],
					"name": "creatAccount",
					"outputs": [],
					"stateMutability": "payable",
					"type": "function"
				}
			],
			"devdoc": {
				"kind": "dev",
				"methods": {},
				"version": 1
			},
			"evm": {
				"assembly": "    /* \"solidity_korea/New.sol\":317:686  contract AccountFactory{... */\n  mstore(0x40, 0x80)\n  callvalue\n  dup1\n  iszero\n  tag_1\n  jumpi\n  0x00\n  dup1\n  revert\ntag_1:\n  pop\n  dataSize(sub_0)\n  dup1\n  dataOffset(sub_0)\n  0x00\n  codecopy\n  0x00\n  return\nstop\n\nsub_0: assembly {\n        /* \"solidity_korea/New.sol\":317:686  contract AccountFactory{... */\n      mstore(0x40, 0x80)\n      jumpi(tag_1, lt(calldatasize, 0x04))\n      shr(0xe0, calldataload(0x00))\n      dup1\n      0x4b5ad09e\n      eq\n      tag_2\n      jumpi\n      dup1\n      0x97d9d8c2\n      eq\n      tag_3\n      jumpi\n      dup1\n      0xf2a40db8\n      eq\n      tag_4\n      jumpi\n    tag_1:\n      0x00\n      dup1\n      revert\n        /* \"solidity_korea/New.sol\":531:684  function chagneOwner(address _owner) external {... */\n    tag_2:\n      callvalue\n      dup1\n      iszero\n      tag_5\n      jumpi\n      0x00\n      dup1\n      revert\n    tag_5:\n      pop\n      tag_6\n      0x04\n      dup1\n      calldatasize\n      sub\n      dup2\n      add\n      swap1\n      tag_7\n      swap2\n      swap1\n      tag_8\n      jump\t// in\n    tag_7:\n      tag_9\n      jump\t// in\n    tag_6:\n      stop\n        /* \"solidity_korea/New.sol\":377:525  function creatAccount(address _owner) external payable {... */\n    tag_3:\n      tag_10\n      0x04\n      dup1\n      calldatasize\n      sub\n      dup2\n      add\n      swap1\n      tag_11\n      swap2\n      swap1\n      tag_8\n      jump\t// in\n    tag_11:\n      tag_12\n      jump\t// in\n    tag_10:\n      stop\n        /* \"solidity_korea/New.sol\":346:371  Account[] public accounts */\n    tag_4:\n      callvalue\n      dup1\n      iszero\n      tag_13\n      jumpi\n      0x00\n      dup1\n      revert\n    tag_13:\n      pop\n      tag_14\n      0x04\n      dup1\n      calldatasize\n      sub\n      dup2\n      add\n      swap1\n      tag_15\n      swap2\n      swap1\n      tag_16\n      jump\t// in\n    tag_15:\n      tag_17\n      jump\t// in\n    tag_14:\n      mload(0x40)\n      tag_18\n      swap2\n      swap1\n      tag_19\n      jump\t// in\n    tag_18:\n      mload(0x40)\n      dup1\n      swap2\n      sub\n      swap1\n      return\n        /* \"solidity_korea/New.sol\":531:684  function chagneOwner(address _owner) external {... */\n    tag_9:\n        /* \"solidity_korea/New.sol\":587:599  bool success */\n      0x00\n        /* \"solidity_korea/New.sol\":605:611  _owner */\n      dup2\n        /* \"solidity_korea/New.sol\":605:616  _owner.call */\n      0xffffffffffffffffffffffffffffffffffffffff\n      and\n        /* \"solidity_korea/New.sol\":640:668  Account.changeOwner.selector */\n      shl(0xe0, 0xa6f9dae1)\n        /* \"solidity_korea/New.sol\":669:675  _owner */\n      dup4\n        /* \"solidity_korea/New.sol\":617:676  abi.encodeWithSelector(Account.changeOwner.selector,_owner) */\n      add(0x24, mload(0x40))\n      tag_21\n      swap2\n      swap1\n      tag_22\n      jump\t// in\n    tag_21:\n      mload(0x40)\n      0x20\n      dup2\n      dup4\n      sub\n      sub\n      dup2\n      mstore\n      swap1\n      0x40\n      mstore\n      swap1\n      not(0xffffffffffffffffffffffffffffffffffffffffffffffffffffffff)\n      and\n      0x20\n      dup3\n      add\n      dup1\n      mload\n      0xffffffffffffffffffffffffffffffffffffffffffffffffffffffff\n      dup4\n      dup2\n      dup4\n      and\n      or\n      dup4\n      mstore\n      pop\n      pop\n      pop\n      pop\n        /* \"solidity_korea/New.sol\":605:677  _owner.call(abi.encodeWithSelector(Account.changeOwner.selector,_owner)) */\n      mload(0x40)\n      tag_23\n      swap2\n      swap1\n      tag_24\n      jump\t// in\n    tag_23:\n      0x00\n      mload(0x40)\n      dup1\n      dup4\n      sub\n      dup2\n      0x00\n      dup7\n      gas\n      call\n      swap2\n      pop\n      pop\n      returndatasize\n      dup1\n      0x00\n      dup2\n      eq\n      tag_27\n      jumpi\n      mload(0x40)\n      swap2\n      pop\n      and(add(returndatasize, 0x3f), not(0x1f))\n      dup3\n      add\n      0x40\n      mstore\n      returndatasize\n      dup3\n      mstore\n      returndatasize\n      0x00\n      0x20\n      dup5\n      add\n      returndatacopy\n      jump(tag_26)\n    tag_27:\n      0x60\n      swap2\n      pop\n    tag_26:\n      pop\n        /* \"solidity_korea/New.sol\":586:677  (bool success,) =  _owner.call(abi.encodeWithSelector(Account.changeOwner.selector,_owner)) */\n      pop\n      swap1\n      pop\n        /* \"solidity_korea/New.sol\":577:684  {... */\n      pop\n        /* \"solidity_korea/New.sol\":531:684  function chagneOwner(address _owner) external {... */\n      pop\n      jump\t// out\n        /* \"solidity_korea/New.sol\":377:525  function creatAccount(address _owner) external payable {... */\n    tag_12:\n        /* \"solidity_korea/New.sol\":440:455  Account account */\n      0x00\n        /* \"solidity_korea/New.sol\":476:479  111 */\n      0x6f\n        /* \"solidity_korea/New.sol\":481:487  _owner */\n      dup3\n        /* \"solidity_korea/New.sol\":458:488  new Account{value:111}(_owner) */\n      mload(0x40)\n      tag_29\n      swap1\n      tag_30\n      jump\t// in\n    tag_29:\n      tag_31\n      swap2\n      swap1\n      tag_22\n      jump\t// in\n    tag_31:\n      mload(0x40)\n      dup1\n      swap2\n      sub\n      swap1\n      dup3\n      create\n      swap1\n      pop\n      dup1\n      iszero\n      dup1\n      iszero\n      tag_32\n      jumpi\n      returndatasize\n      0x00\n      dup1\n      returndatacopy\n      revert(0x00, returndatasize)\n    tag_32:\n      pop\n        /* \"solidity_korea/New.sol\":440:488  Account account = new Account{value:111}(_owner) */\n      swap1\n      pop\n        /* \"solidity_korea/New.sol\":496:504  accounts */\n      0x00\n        /* \"solidity_korea/New.sol\":510:517  account */\n      dup2\n        /* \"solidity_korea/New.sol\":496:518  accounts.push(account) */\n      swap1\n      dup1\n      0x01\n      dup2\n      sload\n      add\n      dup1\n      dup3\n      sstore\n      dup1\n      swap2\n      pop\n      pop\n      0x01\n      swap1\n      sub\n      swap1\n      0x00\n      mstore\n      keccak256(0x00, 0x20)\n      add\n      0x00\n      swap1\n      swap2\n      swap1\n      swap2\n      swap1\n      swap2\n      0x0100\n      exp\n      dup2\n      sload\n      dup2\n      0xffffffffffffffffffffffffffffffffffffffff\n      mul\n      not\n      and\n      swap1\n      dup4\n      0xffffffffffffffffffffffffffffffffffffffff\n      and\n      mul\n      or\n      swap1\n      sstore\n      pop\n        /* \"solidity_korea/New.sol\":432:525  {... */\n      pop\n        /* \"solidity_korea/New.sol\":377:525  function creatAccount(address _owner) external payable {... */\n      pop\n      jump\t// out\n        /* \"solidity_korea/New.sol\":346:371  Account[] public accounts */\n    tag_17:\n      0x00\n      dup2\n      dup2\n      sload\n      dup2\n      lt\n      tag_34\n      jumpi\n      0x00\n      dup1\n      revert\n    tag_34:\n      swap1\n      0x00\n      mstore\n      keccak256(0x00, 0x20)\n      add\n      0x00\n      swap2\n      pop\n      sload\n      swap1\n      0x0100\n      exp\n      swap1\n      div\n      0xffffffffffffffffffffffffffffffffffffffff\n      and\n      dup2\n      jump\t// out\n    tag_30:\n      dataSize(sub_0)\n      dup1\n      dataOffset(sub_0)\n      dup4\n      codecopy\n      add\n      swap1\n      jump\t// out\n        /* \"#utility.yul\":7:146   */\n    tag_37:\n        /* \"#utility.yul\":53:58   */\n      0x00\n        /* \"#utility.yul\":91:97   */\n      dup2\n        /* \"#utility.yul\":78:98   */\n      calldataload\n        /* \"#utility.yul\":69:98   */\n      swap1\n      pop\n        /* \"#utility.yul\":107:140   */\n      tag_39\n        /* \"#utility.yul\":134:139   */\n      dup2\n        /* \"#utility.yul\":107:140   */\n      tag_40\n      jump\t// in\n    tag_39:\n        /* \"#utility.yul\":7:146   */\n      swap3\n      swap2\n      pop\n      pop\n      jump\t// out\n        /* \"#utility.yul\":152:291   */\n    tag_41:\n        /* \"#utility.yul\":198:203   */\n      0x00\n        /* \"#utility.yul\":236:242   */\n      dup2\n        /* \"#utility.yul\":223:243   */\n      calldataload\n        /* \"#utility.yul\":214:243   */\n      swap1\n      pop\n        /* \"#utility.yul\":252:285   */\n      tag_43\n        /* \"#utility.yul\":279:284   */\n      dup2\n        /* \"#utility.yul\":252:285   */\n      tag_44\n      jump\t// in\n    tag_43:\n        /* \"#utility.yul\":152:291   */\n      swap3\n      swap2\n      pop\n      pop\n      jump\t// out\n        /* \"#utility.yul\":297:626   */\n    tag_8:\n        /* \"#utility.yul\":356:362   */\n      0x00\n        /* \"#utility.yul\":405:407   */\n      0x20\n        /* \"#utility.yul\":393:402   */\n      dup3\n        /* \"#utility.yul\":384:391   */\n      dup5\n        /* \"#utility.yul\":380:403   */\n      sub\n        /* \"#utility.yul\":376:408   */\n      slt\n        /* \"#utility.yul\":373:492   */\n      iszero\n      tag_46\n      jumpi\n        /* \"#utility.yul\":411:490   */\n      tag_47\n      tag_48\n      jump\t// in\n    tag_47:\n        /* \"#utility.yul\":373:492   */\n    tag_46:\n        /* \"#utility.yul\":531:532   */\n      0x00\n        /* \"#utility.yul\":556:609   */\n      tag_49\n        /* \"#utility.yul\":601:608   */\n      dup5\n        /* \"#utility.yul\":592:598   */\n      dup3\n        /* \"#utility.yul\":581:590   */\n      dup6\n        /* \"#utility.yul\":577:599   */\n      add\n        /* \"#utility.yul\":556:609   */\n      tag_37\n      jump\t// in\n    tag_49:\n        /* \"#utility.yul\":546:609   */\n      swap2\n      pop\n        /* \"#utility.yul\":502:619   */\n      pop\n        /* \"#utility.yul\":297:626   */\n      swap3\n      swap2\n      pop\n      pop\n      jump\t// out\n        /* \"#utility.yul\":632:961   */\n    tag_16:\n        /* \"#utility.yul\":691:697   */\n      0x00\n        /* \"#utility.yul\":740:742   */\n      0x20\n        /* \"#utility.yul\":728:737   */\n      dup3\n        /* \"#utility.yul\":719:726   */\n      dup5\n        /* \"#utility.yul\":715:738   */\n      sub\n        /* \"#utility.yul\":711:743   */\n      slt\n        /* \"#utility.yul\":708:827   */\n      iszero\n      tag_51\n      jumpi\n        /* \"#utility.yul\":746:825   */\n      tag_52\n      tag_48\n      jump\t// in\n    tag_52:\n        /* \"#utility.yul\":708:827   */\n    tag_51:\n        /* \"#utility.yul\":866:867   */\n      0x00\n        /* \"#utility.yul\":891:944   */\n      tag_53\n        /* \"#utility.yul\":936:943   */\n      dup5\n        /* \"#utility.yul\":927:933   */\n      dup3\n        /* \"#utility.yul\":916:925   */\n      dup6\n        /* \"#utility.yul\":912:934   */\n      add\n        /* \"#utility.yul\":891:944   */\n      tag_41\n      jump\t// in\n    tag_53:\n        /* \"#utility.yul\":881:944   */\n      swap2\n      pop\n        /* \"#utility.yul\":837:954   */\n      pop\n        /* \"#utility.yul\":632:961   */\n      swap3\n      swap2\n      pop\n      pop\n      jump\t// out\n        /* \"#utility.yul\":967:1085   */\n    tag_54:\n        /* \"#utility.yul\":1054:1078   */\n      tag_56\n        /* \"#utility.yul\":1072:1077   */\n      dup2\n        /* \"#utility.yul\":1054:1078   */\n      tag_57\n      jump\t// in\n    tag_56:\n        /* \"#utility.yul\":1049:1052   */\n      dup3\n        /* \"#utility.yul\":1042:1079   */\n      mstore\n        /* \"#utility.yul\":967:1085   */\n      pop\n      pop\n      jump\t// out\n        /* \"#utility.yul\":1091:1464   */\n    tag_58:\n        /* \"#utility.yul\":1195:1198   */\n      0x00\n        /* \"#utility.yul\":1223:1261   */\n      tag_60\n        /* \"#utility.yul\":1255:1260   */\n      dup3\n        /* \"#utility.yul\":1223:1261   */\n      tag_61\n      jump\t// in\n    tag_60:\n        /* \"#utility.yul\":1277:1365   */\n      tag_62\n        /* \"#utility.yul\":1358:1364   */\n      dup2\n        /* \"#utility.yul\":1353:1356   */\n      dup6\n        /* \"#utility.yul\":1277:1365   */\n      tag_63\n      jump\t// in\n    tag_62:\n        /* \"#utility.yul\":1270:1365   */\n      swap4\n      pop\n        /* \"#utility.yul\":1374:1426   */\n      tag_64\n        /* \"#utility.yul\":1419:1425   */\n      dup2\n        /* \"#utility.yul\":1414:1417   */\n      dup6\n        /* \"#utility.yul\":1407:1411   */\n      0x20\n        /* \"#utility.yul\":1400:1405   */\n      dup7\n        /* \"#utility.yul\":1396:1412   */\n      add\n        /* \"#utility.yul\":1374:1426   */\n      tag_65\n      jump\t// in\n    tag_64:\n        /* \"#utility.yul\":1451:1457   */\n      dup1\n        /* \"#utility.yul\":1446:1449   */\n      dup5\n        /* \"#utility.yul\":1442:1458   */\n      add\n        /* \"#utility.yul\":1435:1458   */\n      swap2\n      pop\n        /* \"#utility.yul\":1199:1464   */\n      pop\n        /* \"#utility.yul\":1091:1464   */\n      swap3\n      swap2\n      pop\n      pop\n      jump\t// out\n        /* \"#utility.yul\":1470:1629   */\n    tag_66:\n        /* \"#utility.yul\":1571:1622   */\n      tag_68\n        /* \"#utility.yul\":1616:1621   */\n      dup2\n        /* \"#utility.yul\":1571:1622   */\n      tag_69\n      jump\t// in\n    tag_68:\n        /* \"#utility.yul\":1566:1569   */\n      dup3\n        /* \"#utility.yul\":1559:1623   */\n      mstore\n        /* \"#utility.yul\":1470:1629   */\n      pop\n      pop\n      jump\t// out\n        /* \"#utility.yul\":1635:1906   */\n    tag_24:\n        /* \"#utility.yul\":1765:1768   */\n      0x00\n        /* \"#utility.yul\":1787:1880   */\n      tag_71\n        /* \"#utility.yul\":1876:1879   */\n      dup3\n        /* \"#utility.yul\":1867:1873   */\n      dup5\n        /* \"#utility.yul\":1787:1880   */\n      tag_58\n      jump\t// in\n    tag_71:\n        /* \"#utility.yul\":1780:1880   */\n      swap2\n      pop\n        /* \"#utility.yul\":1897:1900   */\n      dup2\n        /* \"#utility.yul\":1890:1900   */\n      swap1\n      pop\n        /* \"#utility.yul\":1635:1906   */\n      swap3\n      swap2\n      pop\n      pop\n      jump\t// out\n        /* \"#utility.yul\":1912:2134   */\n    tag_22:\n        /* \"#utility.yul\":2005:2009   */\n      0x00\n        /* \"#utility.yul\":2043:2045   */\n      0x20\n        /* \"#utility.yul\":2032:2041   */\n      dup3\n        /* \"#utility.yul\":2028:2046   */\n      add\n        /* \"#utility.yul\":2020:2046   */\n      swap1\n      pop\n        /* \"#utility.yul\":2056:2127   */\n      tag_73\n        /* \"#utility.yul\":2124:2125   */\n      0x00\n        /* \"#utility.yul\":2113:2122   */\n      dup4\n        /* \"#utility.yul\":2109:2126   */\n      add\n        /* \"#utility.yul\":2100:2106   */\n      dup5\n        /* \"#utility.yul\":2056:2127   */\n      tag_54\n      jump\t// in\n    tag_73:\n        /* \"#utility.yul\":1912:2134   */\n      swap3\n      swap2\n      pop\n      pop\n      jump\t// out\n        /* \"#utility.yul\":2140:2390   */\n    tag_19:\n        /* \"#utility.yul\":2247:2251   */\n      0x00\n        /* \"#utility.yul\":2285:2287   */\n      0x20\n        /* \"#utility.yul\":2274:2283   */\n      dup3\n        /* \"#utility.yul\":2270:2288   */\n      add\n        /* \"#utility.yul\":2262:2288   */\n      swap1\n      pop\n        /* \"#utility.yul\":2298:2383   */\n      tag_75\n        /* \"#utility.yul\":2380:2381   */\n      0x00\n        /* \"#utility.yul\":2369:2378   */\n      dup4\n        /* \"#utility.yul\":2365:2382   */\n      add\n        /* \"#utility.yul\":2356:2362   */\n      dup5\n        /* \"#utility.yul\":2298:2383   */\n      tag_66\n      jump\t// in\n    tag_75:\n        /* \"#utility.yul\":2140:2390   */\n      swap3\n      swap2\n      pop\n      pop\n      jump\t// out\n        /* \"#utility.yul\":2477:2575   */\n    tag_61:\n        /* \"#utility.yul\":2528:2534   */\n      0x00\n        /* \"#utility.yul\":2562:2567   */\n      dup2\n        /* \"#utility.yul\":2556:2568   */\n      mload\n        /* \"#utility.yul\":2546:2568   */\n      swap1\n      pop\n        /* \"#utility.yul\":2477:2575   */\n      swap2\n      swap1\n      pop\n      jump\t// out\n        /* \"#utility.yul\":2581:2728   */\n    tag_63:\n        /* \"#utility.yul\":2682:2693   */\n      0x00\n        /* \"#utility.yul\":2719:2722   */\n      dup2\n        /* \"#utility.yul\":2704:2722   */\n      swap1\n      pop\n        /* \"#utility.yul\":2581:2728   */\n      swap3\n      swap2\n      pop\n      pop\n      jump\t// out\n        /* \"#utility.yul\":2734:2830   */\n    tag_57:\n        /* \"#utility.yul\":2771:2778   */\n      0x00\n        /* \"#utility.yul\":2800:2824   */\n      tag_81\n        /* \"#utility.yul\":2818:2823   */\n      dup3\n        /* \"#utility.yul\":2800:2824   */\n      tag_82\n      jump\t// in\n    tag_81:\n        /* \"#utility.yul\":2789:2824   */\n      swap1\n      pop\n        /* \"#utility.yul\":2734:2830   */\n      swap2\n      swap1\n      pop\n      jump\t// out\n        /* \"#utility.yul\":2836:2962   */\n    tag_82:\n        /* \"#utility.yul\":2873:2880   */\n      0x00\n        /* \"#utility.yul\":2913:2955   */\n      0xffffffffffffffffffffffffffffffffffffffff\n        /* \"#utility.yul\":2906:2911   */\n      dup3\n        /* \"#utility.yul\":2902:2956   */\n      and\n        /* \"#utility.yul\":2891:2956   */\n      swap1\n      pop\n        /* \"#utility.yul\":2836:2962   */\n      swap2\n      swap1\n      pop\n      jump\t// out\n        /* \"#utility.yul\":2968:3045   */\n    tag_84:\n        /* \"#utility.yul\":3005:3012   */\n      0x00\n        /* \"#utility.yul\":3034:3039   */\n      dup2\n        /* \"#utility.yul\":3023:3039   */\n      swap1\n      pop\n        /* \"#utility.yul\":2968:3045   */\n      swap2\n      swap1\n      pop\n      jump\t// out\n        /* \"#utility.yul\":3051:3191   */\n    tag_69:\n        /* \"#utility.yul\":3115:3124   */\n      0x00\n        /* \"#utility.yul\":3148:3185   */\n      tag_87\n        /* \"#utility.yul\":3179:3184   */\n      dup3\n        /* \"#utility.yul\":3148:3185   */\n      tag_88\n      jump\t// in\n    tag_87:\n        /* \"#utility.yul\":3135:3185   */\n      swap1\n      pop\n        /* \"#utility.yul\":3051:3191   */\n      swap2\n      swap1\n      pop\n      jump\t// out\n        /* \"#utility.yul\":3197:3323   */\n    tag_88:\n        /* \"#utility.yul\":3247:3256   */\n      0x00\n        /* \"#utility.yul\":3280:3317   */\n      tag_90\n        /* \"#utility.yul\":3311:3316   */\n      dup3\n        /* \"#utility.yul\":3280:3317   */\n      tag_91\n      jump\t// in\n    tag_90:\n        /* \"#utility.yul\":3267:3317   */\n      swap1\n      pop\n        /* \"#utility.yul\":3197:3323   */\n      swap2\n      swap1\n      pop\n      jump\t// out\n        /* \"#utility.yul\":3329:3442   */\n    tag_91:\n        /* \"#utility.yul\":3379:3388   */\n      0x00\n        /* \"#utility.yul\":3412:3436   */\n      tag_93\n        /* \"#utility.yul\":3430:3435   */\n      dup3\n        /* \"#utility.yul\":3412:3436   */\n      tag_82\n      jump\t// in\n    tag_93:\n        /* \"#utility.yul\":3399:3436   */\n      swap1\n      pop\n        /* \"#utility.yul\":3329:3442   */\n      swap2\n      swap1\n      pop\n      jump\t// out\n        /* \"#utility.yul\":3448:3755   */\n    tag_65:\n        /* \"#utility.yul\":3516:3517   */\n      0x00\n        /* \"#utility.yul\":3526:3639   */\n    tag_95:\n        /* \"#utility.yul\":3540:3546   */\n      dup4\n        /* \"#utility.yul\":3537:3538   */\n      dup2\n        /* \"#utility.yul\":3534:3547   */\n      lt\n        /* \"#utility.yul\":3526:3639   */\n      iszero\n      tag_97\n      jumpi\n        /* \"#utility.yul\":3625:3626   */\n      dup1\n        /* \"#utility.yul\":3620:3623   */\n      dup3\n        /* \"#utility.yul\":3616:3627   */\n      add\n        /* \"#utility.yul\":3610:3628   */\n      mload\n        /* \"#utility.yul\":3606:3607   */\n      dup2\n        /* \"#utility.yul\":3601:3604   */\n      dup5\n        /* \"#utility.yul\":3597:3608   */\n      add\n        /* \"#utility.yul\":3590:3629   */\n      mstore\n        /* \"#utility.yul\":3562:3564   */\n      0x20\n        /* \"#utility.yul\":3559:3560   */\n      dup2\n        /* \"#utility.yul\":3555:3565   */\n      add\n        /* \"#utility.yul\":3550:3565   */\n      swap1\n      pop\n        /* \"#utility.yul\":3526:3639   */\n      jump(tag_95)\n    tag_97:\n        /* \"#utility.yul\":3657:3663   */\n      dup4\n        /* \"#utility.yul\":3654:3655   */\n      dup2\n        /* \"#utility.yul\":3651:3664   */\n      gt\n        /* \"#utility.yul\":3648:3749   */\n      iszero\n      tag_98\n      jumpi\n        /* \"#utility.yul\":3737:3738   */\n      0x00\n        /* \"#utility.yul\":3728:3734   */\n      dup5\n        /* \"#utility.yul\":3723:3726   */\n      dup5\n        /* \"#utility.yul\":3719:3735   */\n      add\n        /* \"#utility.yul\":3712:3739   */\n      mstore\n        /* \"#utility.yul\":3648:3749   */\n    tag_98:\n        /* \"#utility.yul\":3497:3755   */\n      pop\n        /* \"#utility.yul\":3448:3755   */\n      pop\n      pop\n      pop\n      jump\t// out\n        /* \"#utility.yul\":3884:4001   */\n    tag_48:\n        /* \"#utility.yul\":3993:3994   */\n      0x00\n        /* \"#utility.yul\":3990:3991   */\n      dup1\n        /* \"#utility.yul\":3983:3995   */\n      revert\n        /* \"#utility.yul\":4007:4129   */\n    tag_40:\n        /* \"#utility.yul\":4080:4104   */\n      tag_103\n        /* \"#utility.yul\":4098:4103   */\n      dup2\n        /* \"#utility.yul\":4080:4104   */\n      tag_57\n      jump\t// in\n    tag_103:\n        /* \"#utility.yul\":4073:4078   */\n      dup2\n        /* \"#utility.yul\":4070:4105   */\n      eq\n        /* \"#utility.yul\":4060:4123   */\n      tag_104\n      jumpi\n        /* \"#utility.yul\":4119:4120   */\n      0x00\n        /* \"#utility.yul\":4116:4117   */\n      dup1\n        /* \"#utility.yul\":4109:4121   */\n      revert\n        /* \"#utility.yul\":4060:4123   */\n    tag_104:\n        /* \"#utility.yul\":4007:4129   */\n      pop\n      jump\t// out\n        /* \"#utility.yul\":4135:4257   */\n    tag_44:\n        /* \"#utility.yul\":4208:4232   */\n      tag_106\n        /* \"#utility.yul\":4226:4231   */\n      dup2\n        /* \"#utility.yul\":4208:4232   */\n      tag_84\n      jump\t// in\n    tag_106:\n        /* \"#utility.yul\":4201:4206   */\n      dup2\n        /* \"#utility.yul\":4198:4233   */\n      eq\n        /* \"#utility.yul\":4188:4251   */\n      tag_107\n      jumpi\n        /* \"#utility.yul\":4247:4248   */\n      0x00\n        /* \"#utility.yul\":4244:4245   */\n      dup1\n        /* \"#utility.yul\":4237:4249   */\n      revert\n        /* \"#utility.yul\":4188:4251   */\n    tag_107:\n        /* \"#utility.yul\":4135:4257   */\n      pop\n      jump\t// out\n    stop\n\n    sub_0: assembly {\n            /* \"solidity_korea/New.sol\":57:314  contract Account {... */\n          mstore(0x40, 0x80)\n            /* \"solidity_korea/New.sol\":136:230  constructor(address _owner) payable {... */\n          mload(0x40)\n          sub(codesize, bytecodeSize)\n          dup1\n          bytecodeSize\n          dup4\n          codecopy\n          dup2\n          dup2\n          add\n          0x40\n          mstore\n          dup2\n          add\n          swap1\n          tag_1\n          swap2\n          swap1\n          tag_2\n          jump\t// in\n        tag_1:\n            /* \"solidity_korea/New.sol\":189:199  msg.sender */\n          caller\n            /* \"solidity_korea/New.sol\":182:186  bank */\n          0x00\n          dup1\n            /* \"solidity_korea/New.sol\":182:199  bank = msg.sender */\n          0x0100\n          exp\n          dup2\n          sload\n          dup2\n          0xffffffffffffffffffffffffffffffffffffffff\n          mul\n          not\n          and\n          swap1\n          dup4\n          0xffffffffffffffffffffffffffffffffffffffff\n          and\n          mul\n          or\n          swap1\n          sstore\n          pop\n            /* \"solidity_korea/New.sol\":217:223  _owner */\n          dup1\n            /* \"solidity_korea/New.sol\":209:214  owner */\n          0x01\n          0x00\n            /* \"solidity_korea/New.sol\":209:223  owner = _owner */\n          0x0100\n          exp\n          dup2\n          sload\n          dup2\n          0xffffffffffffffffffffffffffffffffffffffff\n          mul\n          not\n          and\n          swap1\n          dup4\n          0xffffffffffffffffffffffffffffffffffffffff\n          and\n          mul\n          or\n          swap1\n          sstore\n          pop\n            /* \"solidity_korea/New.sol\":136:230  constructor(address _owner) payable {... */\n          pop\n            /* \"solidity_korea/New.sol\":57:314  contract Account {... */\n          jump(tag_5)\n            /* \"#utility.yul\":7:150   */\n        tag_7:\n            /* \"#utility.yul\":64:69   */\n          0x00\n            /* \"#utility.yul\":95:101   */\n          dup2\n            /* \"#utility.yul\":89:102   */\n          mload\n            /* \"#utility.yul\":80:102   */\n          swap1\n          pop\n            /* \"#utility.yul\":111:144   */\n          tag_9\n            /* \"#utility.yul\":138:143   */\n          dup2\n            /* \"#utility.yul\":111:144   */\n          tag_10\n          jump\t// in\n        tag_9:\n            /* \"#utility.yul\":7:150   */\n          swap3\n          swap2\n          pop\n          pop\n          jump\t// out\n            /* \"#utility.yul\":156:507   */\n        tag_2:\n            /* \"#utility.yul\":226:232   */\n          0x00\n            /* \"#utility.yul\":275:277   */\n          0x20\n            /* \"#utility.yul\":263:272   */\n          dup3\n            /* \"#utility.yul\":254:261   */\n          dup5\n            /* \"#utility.yul\":250:273   */\n          sub\n            /* \"#utility.yul\":246:278   */\n          slt\n            /* \"#utility.yul\":243:362   */\n          iszero\n          tag_12\n          jumpi\n            /* \"#utility.yul\":281:360   */\n          tag_13\n          tag_14\n          jump\t// in\n        tag_13:\n            /* \"#utility.yul\":243:362   */\n        tag_12:\n            /* \"#utility.yul\":401:402   */\n          0x00\n            /* \"#utility.yul\":426:490   */\n          tag_15\n            /* \"#utility.yul\":482:489   */\n          dup5\n            /* \"#utility.yul\":473:479   */\n          dup3\n            /* \"#utility.yul\":462:471   */\n          dup6\n            /* \"#utility.yul\":458:480   */\n          add\n            /* \"#utility.yul\":426:490   */\n          tag_7\n          jump\t// in\n        tag_15:\n            /* \"#utility.yul\":416:490   */\n          swap2\n          pop\n            /* \"#utility.yul\":372:500   */\n          pop\n            /* \"#utility.yul\":156:507   */\n          swap3\n          swap2\n          pop\n          pop\n          jump\t// out\n            /* \"#utility.yul\":594:690   */\n        tag_18:\n            /* \"#utility.yul\":631:638   */\n          0x00\n            /* \"#utility.yul\":660:684   */\n          tag_20\n            /* \"#utility.yul\":678:683   */\n          dup3\n            /* \"#utility.yul\":660:684   */\n          tag_21\n          jump\t// in\n        tag_20:\n            /* \"#utility.yul\":649:684   */\n          swap1\n          pop\n            /* \"#utility.yul\":594:690   */\n          swap2\n          swap1\n          pop\n          jump\t// out\n            /* \"#utility.yul\":696:822   */\n        tag_21:\n            /* \"#utility.yul\":733:740   */\n          0x00\n            /* \"#utility.yul\":773:815   */\n          0xffffffffffffffffffffffffffffffffffffffff\n            /* \"#utility.yul\":766:771   */\n          dup3\n            /* \"#utility.yul\":762:816   */\n          and\n            /* \"#utility.yul\":751:816   */\n          swap1\n          pop\n            /* \"#utility.yul\":696:822   */\n          swap2\n          swap1\n          pop\n          jump\t// out\n            /* \"#utility.yul\":951:1068   */\n        tag_14:\n            /* \"#utility.yul\":1060:1061   */\n          0x00\n            /* \"#utility.yul\":1057:1058   */\n          dup1\n            /* \"#utility.yul\":1050:1062   */\n          revert\n            /* \"#utility.yul\":1074:1196   */\n        tag_10:\n            /* \"#utility.yul\":1147:1171   */\n          tag_27\n            /* \"#utility.yul\":1165:1170   */\n          dup2\n            /* \"#utility.yul\":1147:1171   */\n          tag_18\n          jump\t// in\n        tag_27:\n            /* \"#utility.yul\":1140:1145   */\n          dup2\n            /* \"#utility.yul\":1137:1172   */\n          eq\n            /* \"#utility.yul\":1127:1190   */\n          tag_28\n          jumpi\n            /* \"#utility.yul\":1186:1187   */\n          0x00\n            /* \"#utility.yul\":1183:1184   */\n          dup1\n            /* \"#utility.yul\":1176:1188   */\n          revert\n            /* \"#utility.yul\":1127:1190   */\n        tag_28:\n            /* \"#utility.yul\":1074:1196   */\n          pop\n          jump\t// out\n            /* \"solidity_korea/New.sol\":57:314  contract Account {... */\n        tag_5:\n          dataSize(sub_0)\n          dup1\n          dataOffset(sub_0)\n          0x00\n          codecopy\n          0x00\n          return\n        stop\n\n        sub_0: assembly {\n                /* \"solidity_korea/New.sol\":57:314  contract Account {... */\n              mstore(0x40, 0x80)\n              callvalue\n              dup1\n              iszero\n              tag_1\n              jumpi\n              0x00\n              dup1\n              revert\n            tag_1:\n              pop\n              jumpi(tag_2, lt(calldatasize, 0x04))\n              shr(0xe0, calldataload(0x00))\n              dup1\n              0x76cdb03b\n              eq\n              tag_3\n              jumpi\n              dup1\n              0x8da5cb5b\n              eq\n              tag_4\n              jumpi\n              dup1\n              0xa6f9dae1\n              eq\n              tag_5\n              jumpi\n            tag_2:\n              0x00\n              dup1\n              revert\n                /* \"solidity_korea/New.sol\":80:99  address public bank */\n            tag_3:\n              tag_6\n              tag_7\n              jump\t// in\n            tag_6:\n              mload(0x40)\n              tag_8\n              swap2\n              swap1\n              tag_9\n              jump\t// in\n            tag_8:\n              mload(0x40)\n              dup1\n              swap2\n              sub\n              swap1\n              return\n                /* \"solidity_korea/New.sol\":105:125  address public owner */\n            tag_4:\n              tag_10\n              tag_11\n              jump\t// in\n            tag_10:\n              mload(0x40)\n              tag_12\n              swap2\n              swap1\n              tag_9\n              jump\t// in\n            tag_12:\n              mload(0x40)\n              dup1\n              swap2\n              sub\n              swap1\n              return\n                /* \"solidity_korea/New.sol\":235:311  function changeOwner(address _owner) external{... */\n            tag_5:\n              tag_13\n              0x04\n              dup1\n              calldatasize\n              sub\n              dup2\n              add\n              swap1\n              tag_14\n              swap2\n              swap1\n              tag_15\n              jump\t// in\n            tag_14:\n              tag_16\n              jump\t// in\n            tag_13:\n              stop\n                /* \"solidity_korea/New.sol\":80:99  address public bank */\n            tag_7:\n              0x00\n              dup1\n              sload\n              swap1\n              0x0100\n              exp\n              swap1\n              div\n              0xffffffffffffffffffffffffffffffffffffffff\n              and\n              dup2\n              jump\t// out\n                /* \"solidity_korea/New.sol\":105:125  address public owner */\n            tag_11:\n              0x01\n              0x00\n              swap1\n              sload\n              swap1\n              0x0100\n              exp\n              swap1\n              div\n              0xffffffffffffffffffffffffffffffffffffffff\n              and\n              dup2\n              jump\t// out\n                /* \"solidity_korea/New.sol\":235:311  function changeOwner(address _owner) external{... */\n            tag_16:\n                /* \"solidity_korea/New.sol\":298:304  _owner */\n              dup1\n                /* \"solidity_korea/New.sol\":290:295  owner */\n              0x01\n              0x00\n                /* \"solidity_korea/New.sol\":290:304  owner = _owner */\n              0x0100\n              exp\n              dup2\n              sload\n              dup2\n              0xffffffffffffffffffffffffffffffffffffffff\n              mul\n              not\n              and\n              swap1\n              dup4\n              0xffffffffffffffffffffffffffffffffffffffff\n              and\n              mul\n              or\n              swap1\n              sstore\n              pop\n                /* \"solidity_korea/New.sol\":235:311  function changeOwner(address _owner) external{... */\n              pop\n              jump\t// out\n                /* \"#utility.yul\":7:146   */\n            tag_19:\n                /* \"#utility.yul\":53:58   */\n              0x00\n                /* \"#utility.yul\":91:97   */\n              dup2\n                /* \"#utility.yul\":78:98   */\n              calldataload\n                /* \"#utility.yul\":69:98   */\n              swap1\n              pop\n                /* \"#utility.yul\":107:140   */\n              tag_21\n                /* \"#utility.yul\":134:139   */\n              dup2\n                /* \"#utility.yul\":107:140   */\n              tag_22\n              jump\t// in\n            tag_21:\n                /* \"#utility.yul\":7:146   */\n              swap3\n              swap2\n              pop\n              pop\n              jump\t// out\n                /* \"#utility.yul\":152:481   */\n            tag_15:\n                /* \"#utility.yul\":211:217   */\n              0x00\n                /* \"#utility.yul\":260:262   */\n              0x20\n                /* \"#utility.yul\":248:257   */\n              dup3\n                /* \"#utility.yul\":239:246   */\n              dup5\n                /* \"#utility.yul\":235:258   */\n              sub\n                /* \"#utility.yul\":231:263   */\n              slt\n                /* \"#utility.yul\":228:347   */\n              iszero\n              tag_24\n              jumpi\n                /* \"#utility.yul\":266:345   */\n              tag_25\n              tag_26\n              jump\t// in\n            tag_25:\n                /* \"#utility.yul\":228:347   */\n            tag_24:\n                /* \"#utility.yul\":386:387   */\n              0x00\n                /* \"#utility.yul\":411:464   */\n              tag_27\n                /* \"#utility.yul\":456:463   */\n              dup5\n                /* \"#utility.yul\":447:453   */\n              dup3\n                /* \"#utility.yul\":436:445   */\n              dup6\n                /* \"#utility.yul\":432:454   */\n              add\n                /* \"#utility.yul\":411:464   */\n              tag_19\n              jump\t// in\n            tag_27:\n                /* \"#utility.yul\":401:464   */\n              swap2\n              pop\n                /* \"#utility.yul\":357:474   */\n              pop\n                /* \"#utility.yul\":152:481   */\n              swap3\n              swap2\n              pop\n              pop\n              jump\t// out\n                /* \"#utility.yul\":487:605   */\n            tag_28:\n                /* \"#utility.yul\":574:598   */\n              tag_30\n                /* \"#utility.yul\":592:597   */\n              dup2\n                /* \"#utility.yul\":574:598   */\n              tag_31\n              jump\t// in\n            tag_30:\n                /* \"#utility.yul\":569:572   */\n              dup3\n                /* \"#utility.yul\":562:599   */\n              mstore\n                /* \"#utility.yul\":487:605   */\n              pop\n              pop\n              jump\t// out\n                /* \"#utility.yul\":611:833   */\n            tag_9:\n                /* \"#utility.yul\":704:708   */\n              0x00\n                /* \"#utility.yul\":742:744   */\n              0x20\n                /* \"#utility.yul\":731:740   */\n              dup3\n                /* \"#utility.yul\":727:745   */\n              add\n                /* \"#utility.yul\":719:745   */\n              swap1\n              pop\n                /* \"#utility.yul\":755:826   */\n              tag_33\n                /* \"#utility.yul\":823:824   */\n              0x00\n                /* \"#utility.yul\":812:821   */\n              dup4\n                /* \"#utility.yul\":808:825   */\n              add\n                /* \"#utility.yul\":799:805   */\n              dup5\n                /* \"#utility.yul\":755:826   */\n              tag_28\n              jump\t// in\n            tag_33:\n                /* \"#utility.yul\":611:833   */\n              swap3\n              swap2\n              pop\n              pop\n              jump\t// out\n                /* \"#utility.yul\":920:1016   */\n            tag_31:\n                /* \"#utility.yul\":957:964   */\n              0x00\n                /* \"#utility.yul\":986:1010   */\n              tag_37\n                /* \"#utility.yul\":1004:1009   */\n              dup3\n                /* \"#utility.yul\":986:1010   */\n              tag_38\n              jump\t// in\n            tag_37:\n                /* \"#utility.yul\":975:1010   */\n              swap1\n              pop\n                /* \"#utility.yul\":920:1016   */\n              swap2\n              swap1\n              pop\n              jump\t// out\n                /* \"#utility.yul\":1022:1148   */\n            tag_38:\n                /* \"#utility.yul\":1059:1066   */\n              0x00\n                /* \"#utility.yul\":1099:1141   */\n              0xffffffffffffffffffffffffffffffffffffffff\n                /* \"#utility.yul\":1092:1097   */\n              dup3\n                /* \"#utility.yul\":1088:1142   */\n              and\n                /* \"#utility.yul\":1077:1142   */\n              swap1\n              pop\n                /* \"#utility.yul\":1022:1148   */\n              swap2\n              swap1\n              pop\n              jump\t// out\n                /* \"#utility.yul\":1277:1394   */\n            tag_26:\n                /* \"#utility.yul\":1386:1387   */\n              0x00\n                /* \"#utility.yul\":1383:1384   */\n              dup1\n                /* \"#utility.yul\":1376:1388   */\n              revert\n                /* \"#utility.yul\":1400:1522   */\n            tag_22:\n                /* \"#utility.yul\":1473:1497   */\n              tag_44\n                /* \"#utility.yul\":1491:1496   */\n              dup2\n                /* \"#utility.yul\":1473:1497   */\n              tag_31\n              jump\t// in\n            tag_44:\n                /* \"#utility.yul\":1466:1471   */\n              dup2\n                /* \"#utility.yul\":1463:1498   */\n              eq\n                /* \"#utility.yul\":1453:1516   */\n              tag_45\n              jumpi\n                /* \"#utility.yul\":1512:1513   */\n              0x00\n                /* \"#utility.yul\":1509:1510   */\n              dup1\n                /* \"#utility.yul\":1502:1514   */\n              revert\n                /* \"#utility.yul\":1453:1516   */\n            tag_45:\n                /* \"#utility.yul\":1400:1522   */\n              pop\n              jump\t// out\n\n            auxdata: 0xa2646970667358221220a22fc1717a26ed31816e829733a1df5cf353f6c7ecf449a0365cda3b9704e30664736f6c63430008070033\n        }\n    }\n\n    auxdata: 0xa2646970667358221220549cf3b1f939132adb4f3fc4c026354dc1bf810077037e99995148c3b8fdfa1d64736f6c63430008070033\n}\n",
				"bytecode": {
					"linkReferences": {},
					"object": "608060405234801561001057600080fd5b5061083a806100206000396000f3fe6080604052600436106100345760003560e01c80634b5ad09e1461003957806397d9d8c214610062578063f2a40db81461007e575b600080fd5b34801561004557600080fd5b50610060600480360381019061005b91906102b9565b6100bb565b005b61007c600480360381019061007791906102b9565b6101a1565b005b34801561008a57600080fd5b506100a560048036038101906100a091906102e6565b610243565b6040516100b29190610394565b60405180910390f35b60008173ffffffffffffffffffffffffffffffffffffffff1663a6f9dae160e01b836040516024016100ed9190610379565b604051602081830303815290604052907bffffffffffffffffffffffffffffffffffffffffffffffffffffffff19166020820180517bffffffffffffffffffffffffffffffffffffffffffffffffffffffff83818316178352505050506040516101579190610362565b6000604051808303816000865af19150503d8060008114610194576040519150601f19603f3d011682016040523d82523d6000602084013e610199565b606091505b505090505050565b6000606f826040516101b290610282565b6101bc9190610379565b6040518091039082f09050801580156101d9573d6000803e3d6000fd5b5090506000819080600181540180825580915050600190039060005260206000200160009091909190916101000a81548173ffffffffffffffffffffffffffffffffffffffff021916908373ffffffffffffffffffffffffffffffffffffffff1602179055505050565b6000818154811061025357600080fd5b906000526020600020016000915054906101000a900473ffffffffffffffffffffffffffffffffffffffff1681565b6103678061049e83390190565b60008135905061029e8161046f565b92915050565b6000813590506102b381610486565b92915050565b6000602082840312156102cf576102ce61046a565b5b60006102dd8482850161028f565b91505092915050565b6000602082840312156102fc576102fb61046a565b5b600061030a848285016102a4565b91505092915050565b61031c816103c5565b82525050565b600061032d826103af565b61033781856103ba565b9350610347818560208601610437565b80840191505092915050565b61035c81610401565b82525050565b600061036e8284610322565b915081905092915050565b600060208201905061038e6000830184610313565b92915050565b60006020820190506103a96000830184610353565b92915050565b600081519050919050565b600081905092915050565b60006103d0826103d7565b9050919050565b600073ffffffffffffffffffffffffffffffffffffffff82169050919050565b6000819050919050565b600061040c82610413565b9050919050565b600061041e82610425565b9050919050565b6000610430826103d7565b9050919050565b60005b8381101561045557808201518184015260208101905061043a565b83811115610464576000848401525b50505050565b600080fd5b610478816103c5565b811461048357600080fd5b50565b61048f816103f7565b811461049a57600080fd5b5056fe6080604052604051610367380380610367833981810160405281019061002591906100c1565b336000806101000a81548173ffffffffffffffffffffffffffffffffffffffff021916908373ffffffffffffffffffffffffffffffffffffffff16021790555080600160006101000a81548173ffffffffffffffffffffffffffffffffffffffff021916908373ffffffffffffffffffffffffffffffffffffffff1602179055505061013c565b6000815190506100bb81610125565b92915050565b6000602082840312156100d7576100d6610120565b5b60006100e5848285016100ac565b91505092915050565b60006100f982610100565b9050919050565b600073ffffffffffffffffffffffffffffffffffffffff82169050919050565b600080fd5b61012e816100ee565b811461013957600080fd5b50565b61021c8061014b6000396000f3fe608060405234801561001057600080fd5b50600436106100415760003560e01c806376cdb03b146100465780638da5cb5b14610064578063a6f9dae114610082575b600080fd5b61004e61009e565b60405161005b919061017d565b60405180910390f35b61006c6100c2565b604051610079919061017d565b60405180910390f35b61009c60048036038101906100979190610141565b6100e8565b005b60008054906101000a900473ffffffffffffffffffffffffffffffffffffffff1681565b600160009054906101000a900473ffffffffffffffffffffffffffffffffffffffff1681565b80600160006101000a81548173ffffffffffffffffffffffffffffffffffffffff021916908373ffffffffffffffffffffffffffffffffffffffff16021790555050565b60008135905061013b816101cf565b92915050565b600060208284031215610157576101566101ca565b5b60006101658482850161012c565b91505092915050565b61017781610198565b82525050565b6000602082019050610192600083018461016e565b92915050565b60006101a3826101aa565b9050919050565b600073ffffffffffffffffffffffffffffffffffffffff82169050919050565b600080fd5b6101d881610198565b81146101e357600080fd5b5056fea2646970667358221220a22fc1717a26ed31816e829733a1df5cf353f6c7ecf449a0365cda3b9704e30664736f6c63430008070033a2646970667358221220549cf3b1f939132adb4f3fc4c026354dc1bf810077037e99995148c3b8fdfa1d64736f6c63430008070033",
					"opcodes": "PUSH1 0x80 PUSH1 0x40 MSTORE CALLVALUE DUP1 ISZERO PUSH2 0x10 JUMPI PUSH1 0x0 DUP1 REVERT JUMPDEST POP PUSH2 0x83A DUP1 PUSH2 0x20 PUSH1 0x0 CODECOPY PUSH1 0x0 RETURN INVALID PUSH1 0x80 PUSH1 0x40 MSTORE PUSH1 0x4 CALLDATASIZE LT PUSH2 0x34 JUMPI PUSH1 0x0 CALLDATALOAD PUSH1 0xE0 SHR DUP1 PUSH4 0x4B5AD09E EQ PUSH2 0x39 JUMPI DUP1 PUSH4 0x97D9D8C2 EQ PUSH2 0x62 JUMPI DUP1 PUSH4 0xF2A40DB8 EQ PUSH2 0x7E JUMPI JUMPDEST PUSH1 0x0 DUP1 REVERT JUMPDEST CALLVALUE DUP1 ISZERO PUSH2 0x45 JUMPI PUSH1 0x0 DUP1 REVERT JUMPDEST POP PUSH2 0x60 PUSH1 0x4 DUP1 CALLDATASIZE SUB DUP2 ADD SWAP1 PUSH2 0x5B SWAP2 SWAP1 PUSH2 0x2B9 JUMP JUMPDEST PUSH2 0xBB JUMP JUMPDEST STOP JUMPDEST PUSH2 0x7C PUSH1 0x4 DUP1 CALLDATASIZE SUB DUP2 ADD SWAP1 PUSH2 0x77 SWAP2 SWAP1 PUSH2 0x2B9 JUMP JUMPDEST PUSH2 0x1A1 JUMP JUMPDEST STOP JUMPDEST CALLVALUE DUP1 ISZERO PUSH2 0x8A JUMPI PUSH1 0x0 DUP1 REVERT JUMPDEST POP PUSH2 0xA5 PUSH1 0x4 DUP1 CALLDATASIZE SUB DUP2 ADD SWAP1 PUSH2 0xA0 SWAP2 SWAP1 PUSH2 0x2E6 JUMP JUMPDEST PUSH2 0x243 JUMP JUMPDEST PUSH1 0x40 MLOAD PUSH2 0xB2 SWAP2 SWAP1 PUSH2 0x394 JUMP JUMPDEST PUSH1 0x40 MLOAD DUP1 SWAP2 SUB SWAP1 RETURN JUMPDEST PUSH1 0x0 DUP2 PUSH20 0xFFFFFFFFFFFFFFFFFFFFFFFFFFFFFFFFFFFFFFFF AND PUSH4 0xA6F9DAE1 PUSH1 0xE0 SHL DUP4 PUSH1 0x40 MLOAD PUSH1 0x24 ADD PUSH2 0xED SWAP2 SWAP1 PUSH2 0x379 JUMP JUMPDEST PUSH1 0x40 MLOAD PUSH1 0x20 DUP2 DUP4 SUB SUB DUP2 MSTORE SWAP1 PUSH1 0x40 MSTORE SWAP1 PUSH28 0xFFFFFFFFFFFFFFFFFFFFFFFFFFFFFFFFFFFFFFFFFFFFFFFFFFFFFFFF NOT AND PUSH1 0x20 DUP3 ADD DUP1 MLOAD PUSH28 0xFFFFFFFFFFFFFFFFFFFFFFFFFFFFFFFFFFFFFFFFFFFFFFFFFFFFFFFF DUP4 DUP2 DUP4 AND OR DUP4 MSTORE POP POP POP POP PUSH1 0x40 MLOAD PUSH2 0x157 SWAP2 SWAP1 PUSH2 0x362 JUMP JUMPDEST PUSH1 0x0 PUSH1 0x40 MLOAD DUP1 DUP4 SUB DUP2 PUSH1 0x0 DUP7 GAS CALL SWAP2 POP POP RETURNDATASIZE DUP1 PUSH1 0x0 DUP2 EQ PUSH2 0x194 JUMPI PUSH1 0x40 MLOAD SWAP2 POP PUSH1 0x1F NOT PUSH1 0x3F RETURNDATASIZE ADD AND DUP3 ADD PUSH1 0x40 MSTORE RETURNDATASIZE DUP3 MSTORE RETURNDATASIZE PUSH1 0x0 PUSH1 0x20 DUP5 ADD RETURNDATACOPY PUSH2 0x199 JUMP JUMPDEST PUSH1 0x60 SWAP2 POP JUMPDEST POP POP SWAP1 POP POP POP JUMP JUMPDEST PUSH1 0x0 PUSH1 0x6F DUP3 PUSH1 0x40 MLOAD PUSH2 0x1B2 SWAP1 PUSH2 0x282 JUMP JUMPDEST PUSH2 0x1BC SWAP2 SWAP1 PUSH2 0x379 JUMP JUMPDEST PUSH1 0x40 MLOAD DUP1 SWAP2 SUB SWAP1 DUP3 CREATE SWAP1 POP DUP1 ISZERO DUP1 ISZERO PUSH2 0x1D9 JUMPI RETURNDATASIZE PUSH1 0x0 DUP1 RETURNDATACOPY RETURNDATASIZE PUSH1 0x0 REVERT JUMPDEST POP SWAP1 POP PUSH1 0x0 DUP2 SWAP1 DUP1 PUSH1 0x1 DUP2 SLOAD ADD DUP1 DUP3 SSTORE DUP1 SWAP2 POP POP PUSH1 0x1 SWAP1 SUB SWAP1 PUSH1 0x0 MSTORE PUSH1 0x20 PUSH1 0x0 KECCAK256 ADD PUSH1 0x0 SWAP1 SWAP2 SWAP1 SWAP2 SWAP1 SWAP2 PUSH2 0x100 EXP DUP2 SLOAD DUP2 PUSH20 0xFFFFFFFFFFFFFFFFFFFFFFFFFFFFFFFFFFFFFFFF MUL NOT AND SWAP1 DUP4 PUSH20 0xFFFFFFFFFFFFFFFFFFFFFFFFFFFFFFFFFFFFFFFF AND MUL OR SWAP1 SSTORE POP POP POP JUMP JUMPDEST PUSH1 0x0 DUP2 DUP2 SLOAD DUP2 LT PUSH2 0x253 JUMPI PUSH1 0x0 DUP1 REVERT JUMPDEST SWAP1 PUSH1 0x0 MSTORE PUSH1 0x20 PUSH1 0x0 KECCAK256 ADD PUSH1 0x0 SWAP2 POP SLOAD SWAP1 PUSH2 0x100 EXP SWAP1 DIV PUSH20 0xFFFFFFFFFFFFFFFFFFFFFFFFFFFFFFFFFFFFFFFF AND DUP2 JUMP JUMPDEST PUSH2 0x367 DUP1 PUSH2 0x49E DUP4 CODECOPY ADD SWAP1 JUMP JUMPDEST PUSH1 0x0 DUP2 CALLDATALOAD SWAP1 POP PUSH2 0x29E DUP2 PUSH2 0x46F JUMP JUMPDEST SWAP3 SWAP2 POP POP JUMP JUMPDEST PUSH1 0x0 DUP2 CALLDATALOAD SWAP1 POP PUSH2 0x2B3 DUP2 PUSH2 0x486 JUMP JUMPDEST SWAP3 SWAP2 POP POP JUMP JUMPDEST PUSH1 0x0 PUSH1 0x20 DUP3 DUP5 SUB SLT ISZERO PUSH2 0x2CF JUMPI PUSH2 0x2CE PUSH2 0x46A JUMP JUMPDEST JUMPDEST PUSH1 0x0 PUSH2 0x2DD DUP5 DUP3 DUP6 ADD PUSH2 0x28F JUMP JUMPDEST SWAP2 POP POP SWAP3 SWAP2 POP POP JUMP JUMPDEST PUSH1 0x0 PUSH1 0x20 DUP3 DUP5 SUB SLT ISZERO PUSH2 0x2FC JUMPI PUSH2 0x2FB PUSH2 0x46A JUMP JUMPDEST JUMPDEST PUSH1 0x0 PUSH2 0x30A DUP5 DUP3 DUP6 ADD PUSH2 0x2A4 JUMP JUMPDEST SWAP2 POP POP SWAP3 SWAP2 POP POP JUMP JUMPDEST PUSH2 0x31C DUP2 PUSH2 0x3C5 JUMP JUMPDEST DUP3 MSTORE POP POP JUMP JUMPDEST PUSH1 0x0 PUSH2 0x32D DUP3 PUSH2 0x3AF JUMP JUMPDEST PUSH2 0x337 DUP2 DUP6 PUSH2 0x3BA JUMP JUMPDEST SWAP4 POP PUSH2 0x347 DUP2 DUP6 PUSH1 0x20 DUP7 ADD PUSH2 0x437 JUMP JUMPDEST DUP1 DUP5 ADD SWAP2 POP POP SWAP3 SWAP2 POP POP JUMP JUMPDEST PUSH2 0x35C DUP2 PUSH2 0x401 JUMP JUMPDEST DUP3 MSTORE POP POP JUMP JUMPDEST PUSH1 0x0 PUSH2 0x36E DUP3 DUP5 PUSH2 0x322 JUMP JUMPDEST SWAP2 POP DUP2 SWAP1 POP SWAP3 SWAP2 POP POP JUMP JUMPDEST PUSH1 0x0 PUSH1 0x20 DUP3 ADD SWAP1 POP PUSH2 0x38E PUSH1 0x0 DUP4 ADD DUP5 PUSH2 0x313 JUMP JUMPDEST SWAP3 SWAP2 POP POP JUMP JUMPDEST PUSH1 0x0 PUSH1 0x20 DUP3 ADD SWAP1 POP PUSH2 0x3A9 PUSH1 0x0 DUP4 ADD DUP5 PUSH2 0x353 JUMP JUMPDEST SWAP3 SWAP2 POP POP JUMP JUMPDEST PUSH1 0x0 DUP2 MLOAD SWAP1 POP SWAP2 SWAP1 POP JUMP JUMPDEST PUSH1 0x0 DUP2 SWAP1 POP SWAP3 SWAP2 POP POP JUMP JUMPDEST PUSH1 0x0 PUSH2 0x3D0 DUP3 PUSH2 0x3D7 JUMP JUMPDEST SWAP1 POP SWAP2 SWAP1 POP JUMP JUMPDEST PUSH1 0x0 PUSH20 0xFFFFFFFFFFFFFFFFFFFFFFFFFFFFFFFFFFFFFFFF DUP3 AND SWAP1 POP SWAP2 SWAP1 POP JUMP JUMPDEST PUSH1 0x0 DUP2 SWAP1 POP SWAP2 SWAP1 POP JUMP JUMPDEST PUSH1 0x0 PUSH2 0x40C DUP3 PUSH2 0x413 JUMP JUMPDEST SWAP1 POP SWAP2 SWAP1 POP JUMP JUMPDEST PUSH1 0x0 PUSH2 0x41E DUP3 PUSH2 0x425 JUMP JUMPDEST SWAP1 POP SWAP2 SWAP1 POP JUMP JUMPDEST PUSH1 0x0 PUSH2 0x430 DUP3 PUSH2 0x3D7 JUMP JUMPDEST SWAP1 POP SWAP2 SWAP1 POP JUMP JUMPDEST PUSH1 0x0 JUMPDEST DUP4 DUP2 LT ISZERO PUSH2 0x455 JUMPI DUP1 DUP3 ADD MLOAD DUP2 DUP5 ADD MSTORE PUSH1 0x20 DUP2 ADD SWAP1 POP PUSH2 0x43A JUMP JUMPDEST DUP4 DUP2 GT ISZERO PUSH2 0x464 JUMPI PUSH1 0x0 DUP5 DUP5 ADD MSTORE JUMPDEST POP POP POP POP JUMP JUMPDEST PUSH1 0x0 DUP1 REVERT JUMPDEST PUSH2 0x478 DUP2 PUSH2 0x3C5 JUMP JUMPDEST DUP2 EQ PUSH2 0x483 JUMPI PUSH1 0x0 DUP1 REVERT JUMPDEST POP JUMP JUMPDEST PUSH2 0x48F DUP2 PUSH2 0x3F7 JUMP JUMPDEST DUP2 EQ PUSH2 0x49A JUMPI PUSH1 0x0 DUP1 REVERT JUMPDEST POP JUMP INVALID PUSH1 0x80 PUSH1 0x40 MSTORE PUSH1 0x40 MLOAD PUSH2 0x367 CODESIZE SUB DUP1 PUSH2 0x367 DUP4 CODECOPY DUP2 DUP2 ADD PUSH1 0x40 MSTORE DUP2 ADD SWAP1 PUSH2 0x25 SWAP2 SWAP1 PUSH2 0xC1 JUMP JUMPDEST CALLER PUSH1 0x0 DUP1 PUSH2 0x100 EXP DUP2 SLOAD DUP2 PUSH20 0xFFFFFFFFFFFFFFFFFFFFFFFFFFFFFFFFFFFFFFFF MUL NOT AND SWAP1 DUP4 PUSH20 0xFFFFFFFFFFFFFFFFFFFFFFFFFFFFFFFFFFFFFFFF AND MUL OR SWAP1 SSTORE POP DUP1 PUSH1 0x1 PUSH1 0x0 PUSH2 0x100 EXP DUP2 SLOAD DUP2 PUSH20 0xFFFFFFFFFFFFFFFFFFFFFFFFFFFFFFFFFFFFFFFF MUL NOT AND SWAP1 DUP4 PUSH20 0xFFFFFFFFFFFFFFFFFFFFFFFFFFFFFFFFFFFFFFFF AND MUL OR SWAP1 SSTORE POP POP PUSH2 0x13C JUMP JUMPDEST PUSH1 0x0 DUP2 MLOAD SWAP1 POP PUSH2 0xBB DUP2 PUSH2 0x125 JUMP JUMPDEST SWAP3 SWAP2 POP POP JUMP JUMPDEST PUSH1 0x0 PUSH1 0x20 DUP3 DUP5 SUB SLT ISZERO PUSH2 0xD7 JUMPI PUSH2 0xD6 PUSH2 0x120 JUMP JUMPDEST JUMPDEST PUSH1 0x0 PUSH2 0xE5 DUP5 DUP3 DUP6 ADD PUSH2 0xAC JUMP JUMPDEST SWAP2 POP POP SWAP3 SWAP2 POP POP JUMP JUMPDEST PUSH1 0x0 PUSH2 0xF9 DUP3 PUSH2 0x100 JUMP JUMPDEST SWAP1 POP SWAP2 SWAP1 POP JUMP JUMPDEST PUSH1 0x0 PUSH20 0xFFFFFFFFFFFFFFFFFFFFFFFFFFFFFFFFFFFFFFFF DUP3 AND SWAP1 POP SWAP2 SWAP1 POP JUMP JUMPDEST PUSH1 0x0 DUP1 REVERT JUMPDEST PUSH2 0x12E DUP2 PUSH2 0xEE JUMP JUMPDEST DUP2 EQ PUSH2 0x139 JUMPI PUSH1 0x0 DUP1 REVERT JUMPDEST POP JUMP JUMPDEST PUSH2 0x21C DUP1 PUSH2 0x14B PUSH1 0x0 CODECOPY PUSH1 0x0 RETURN INVALID PUSH1 0x80 PUSH1 0x40 MSTORE CALLVALUE DUP1 ISZERO PUSH2 0x10 JUMPI PUSH1 0x0 DUP1 REVERT JUMPDEST POP PUSH1 0x4 CALLDATASIZE LT PUSH2 0x41 JUMPI PUSH1 0x0 CALLDATALOAD PUSH1 0xE0 SHR DUP1 PUSH4 0x76CDB03B EQ PUSH2 0x46 JUMPI DUP1 PUSH4 0x8DA5CB5B EQ PUSH2 0x64 JUMPI DUP1 PUSH4 0xA6F9DAE1 EQ PUSH2 0x82 JUMPI JUMPDEST PUSH1 0x0 DUP1 REVERT JUMPDEST PUSH2 0x4E PUSH2 0x9E JUMP JUMPDEST PUSH1 0x40 MLOAD PUSH2 0x5B SWAP2 SWAP1 PUSH2 0x17D JUMP JUMPDEST PUSH1 0x40 MLOAD DUP1 SWAP2 SUB SWAP1 RETURN JUMPDEST PUSH2 0x6C PUSH2 0xC2 JUMP JUMPDEST PUSH1 0x40 MLOAD PUSH2 0x79 SWAP2 SWAP1 PUSH2 0x17D JUMP JUMPDEST PUSH1 0x40 MLOAD DUP1 SWAP2 SUB SWAP1 RETURN JUMPDEST PUSH2 0x9C PUSH1 0x4 DUP1 CALLDATASIZE SUB DUP2 ADD SWAP1 PUSH2 0x97 SWAP2 SWAP1 PUSH2 0x141 JUMP JUMPDEST PUSH2 0xE8 JUMP JUMPDEST STOP JUMPDEST PUSH1 0x0 DUP1 SLOAD SWAP1 PUSH2 0x100 EXP SWAP1 DIV PUSH20 0xFFFFFFFFFFFFFFFFFFFFFFFFFFFFFFFFFFFFFFFF AND DUP2 JUMP JUMPDEST PUSH1 0x1 PUSH1 0x0 SWAP1 SLOAD SWAP1 PUSH2 0x100 EXP SWAP1 DIV PUSH20 0xFFFFFFFFFFFFFFFFFFFFFFFFFFFFFFFFFFFFFFFF AND DUP2 JUMP JUMPDEST DUP1 PUSH1 0x1 PUSH1 0x0 PUSH2 0x100 EXP DUP2 SLOAD DUP2 PUSH20 0xFFFFFFFFFFFFFFFFFFFFFFFFFFFFFFFFFFFFFFFF MUL NOT AND SWAP1 DUP4 PUSH20 0xFFFFFFFFFFFFFFFFFFFFFFFFFFFFFFFFFFFFFFFF AND MUL OR SWAP1 SSTORE POP POP JUMP JUMPDEST PUSH1 0x0 DUP2 CALLDATALOAD SWAP1 POP PUSH2 0x13B DUP2 PUSH2 0x1CF JUMP JUMPDEST SWAP3 SWAP2 POP POP JUMP JUMPDEST PUSH1 0x0 PUSH1 0x20 DUP3 DUP5 SUB SLT ISZERO PUSH2 0x157 JUMPI PUSH2 0x156 PUSH2 0x1CA JUMP JUMPDEST JUMPDEST PUSH1 0x0 PUSH2 0x165 DUP5 DUP3 DUP6 ADD PUSH2 0x12C JUMP JUMPDEST SWAP2 POP POP SWAP3 SWAP2 POP POP JUMP JUMPDEST PUSH2 0x177 DUP2 PUSH2 0x198 JUMP JUMPDEST DUP3 MSTORE POP POP JUMP JUMPDEST PUSH1 0x0 PUSH1 0x20 DUP3 ADD SWAP1 POP PUSH2 0x192 PUSH1 0x0 DUP4 ADD DUP5 PUSH2 0x16E JUMP JUMPDEST SWAP3 SWAP2 POP POP JUMP JUMPDEST PUSH1 0x0 PUSH2 0x1A3 DUP3 PUSH2 0x1AA JUMP JUMPDEST SWAP1 POP SWAP2 SWAP1 POP JUMP JUMPDEST PUSH1 0x0 PUSH20 0xFFFFFFFFFFFFFFFFFFFFFFFFFFFFFFFFFFFFFFFF DUP3 AND SWAP1 POP SWAP2 SWAP1 POP JUMP JUMPDEST PUSH1 0x0 DUP1 REVERT JUMPDEST PUSH2 0x1D8 DUP2 PUSH2 0x198 JUMP JUMPDEST DUP2 EQ PUSH2 0x1E3 JUMPI PUSH1 0x0 DUP1 REVERT JUMPDEST POP JUMP INVALID LOG2 PUSH5 0x6970667358 0x22 SLT KECCAK256 LOG2 0x2F 0xC1 PUSH18 0x7A26ED31816E829733A1DF5CF353F6C7ECF4 0x49 LOG0 CALLDATASIZE 0x5C 0xDA EXTCODESIZE SWAP8 DIV 0xE3 MOD PUSH5 0x736F6C6343 STOP ADDMOD SMOD STOP CALLER LOG2 PUSH5 0x6970667358 0x22 SLT KECCAK256 SLOAD SWAP13 RETURN 0xB1 0xF9 CODECOPY SGT 0x2A 0xDB 0x4F EXTCODEHASH 0xC4 0xC0 0x26 CALLDATALOAD 0x4D 0xC1 0xBF DUP2 STOP PUSH24 0x37E99995148C3B8FDFA1D64736F6C634300080700330000 "
				},
				"gasEstimates": {
					"creation": {
						"codeDepositCost": "421200",
						"executionCost": "455",
						"totalCost": "421655"
					},
					"external": {
						"accounts(uint256)": "5064",
						"chagneOwner(address)": "infinite",
						"creatAccount(address)": "infinite"
					}
				},
				"methodIdentifiers": {
					"accounts(uint256)": "f2a40db8",
					"chagneOwner(address)": "4b5ad09e",
					"creatAccount(address)": "97d9d8c2"
				}
			},
			"storageLayout": {
				"storage": [
					{
						"astId": 35,
						"contract": "solidity_korea/New.sol:AccountFactory",
						"label": "accounts",
						"offset": 0,
						"slot": "0",
						"type": "t_array(t_contract(Account)31)dyn_storage"
					}
				],
				"types": {
					"t_array(t_contract(Account)31)dyn_storage": {
						"base": "t_contract(Account)31",
						"encoding": "dynamic_array",
						"label": "contract Account[]",
						"numberOfBytes": "32"
					},
					"t_contract(Account)31": {
						"encoding": "inplace",
						"label": "contract Account",
						"numberOfBytes": "20"
					}
				}
			},
			"userdoc": {
				"kind": "user",
				"methods": {},
				"version": 1
			}
		}
	}
}