{
	"solidity_korea/storage_calldata_memory.sol": {
		"Storage": {
			"abi": [
				{
					"inputs": [
						{
							"internalType": "uint256[]",
							"name": "y",
							"type": "uint256[]"
						},
						{
							"internalType": "string",
							"name": "",
							"type": "string"
						}
					],
					"name": "examples",
					"outputs": [],
					"stateMutability": "nonpayable",
					"type": "function"
				},
				{
					"inputs": [
						{
							"internalType": "address",
							"name": "addr",
							"type": "address"
						}
					],
					"name": "readOnlys",
					"outputs": [
						{
							"components": [
								{
									"internalType": "uint256",
									"name": "foo",
									"type": "uint256"
								},
								{
									"internalType": "string",
									"name": "text",
									"type": "string"
								}
							],
							"internalType": "struct Storage.MyStruct",
							"name": "",
							"type": "tuple"
						}
					],
					"stateMutability": "view",
					"type": "function"
				}
			],
			"devdoc": {
				"kind": "dev",
				"methods": {},
				"version": 1
			},
			"evm": {
				"assembly": "    /* \"solidity_korea/storage_calldata_memory.sol\":61:643  contract Storage{... */\n  mstore(0x40, 0x80)\n  callvalue\n  dup1\n  iszero\n  tag_1\n  jumpi\n  0x00\n  dup1\n  revert\ntag_1:\n  pop\n  dataSize(sub_0)\n  dup1\n  dataOffset(sub_0)\n  0x00\n  codecopy\n  0x00\n  return\nstop\n\nsub_0: assembly {\n        /* \"solidity_korea/storage_calldata_memory.sol\":61:643  contract Storage{... */\n      mstore(0x40, 0x80)\n      callvalue\n      dup1\n      iszero\n      tag_1\n      jumpi\n      0x00\n      dup1\n      revert\n    tag_1:\n      pop\n      jumpi(tag_2, lt(calldatasize, 0x04))\n      shr(0xe0, calldataload(0x00))\n      dup1\n      0xd6d6d74f\n      eq\n      tag_3\n      jumpi\n      dup1\n      0xfc277a95\n      eq\n      tag_4\n      jumpi\n    tag_2:\n      0x00\n      dup1\n      revert\n        /* \"solidity_korea/storage_calldata_memory.sol\":532:640  function readOnlys(address addr) external view returns(MyStruct memory){... */\n    tag_3:\n      tag_5\n      0x04\n      dup1\n      calldatasize\n      sub\n      dup2\n      add\n      swap1\n      tag_6\n      swap2\n      swap1\n      tag_7\n      jump\t// in\n    tag_6:\n      tag_8\n      jump\t// in\n    tag_5:\n      mload(0x40)\n      tag_9\n      swap2\n      swap1\n      tag_10\n      jump\t// in\n    tag_9:\n      mload(0x40)\n      dup1\n      swap2\n      sub\n      swap1\n      return\n        /* \"solidity_korea/storage_calldata_memory.sol\":230:527  function examples(uint[] memory y, string memory) external {... */\n    tag_4:\n      tag_11\n      0x04\n      dup1\n      calldatasize\n      sub\n      dup2\n      add\n      swap1\n      tag_12\n      swap2\n      swap1\n      tag_13\n      jump\t// in\n    tag_12:\n      tag_14\n      jump\t// in\n    tag_11:\n      stop\n        /* \"solidity_korea/storage_calldata_memory.sol\":532:640  function readOnlys(address addr) external view returns(MyStruct memory){... */\n    tag_8:\n        /* \"solidity_korea/storage_calldata_memory.sol\":587:602  MyStruct memory */\n      tag_15\n      tag_16\n      jump\t// in\n    tag_15:\n        /* \"solidity_korea/storage_calldata_memory.sol\":619:628  myStructs */\n      0x00\n        /* \"solidity_korea/storage_calldata_memory.sol\":619:634  myStructs[addr] */\n      dup1\n        /* \"solidity_korea/storage_calldata_memory.sol\":629:633  addr */\n      dup4\n        /* \"solidity_korea/storage_calldata_memory.sol\":619:634  myStructs[addr] */\n      0xffffffffffffffffffffffffffffffffffffffff\n      and\n      0xffffffffffffffffffffffffffffffffffffffff\n      and\n      dup2\n      mstore\n      0x20\n      add\n      swap1\n      dup2\n      mstore\n      0x20\n      add\n      0x00\n      keccak256\n        /* \"solidity_korea/storage_calldata_memory.sol\":612:634  return myStructs[addr] */\n      mload(0x40)\n      dup1\n      0x40\n      add\n      0x40\n      mstore\n      swap1\n      dup2\n      0x00\n      dup3\n      add\n      sload\n      dup2\n      mstore\n      0x20\n      add\n      0x01\n      dup3\n      add\n      dup1\n      sload\n      tag_18\n      swap1\n      tag_19\n      jump\t// in\n    tag_18:\n      dup1\n      0x1f\n      add\n      0x20\n      dup1\n      swap2\n      div\n      mul\n      0x20\n      add\n      mload(0x40)\n      swap1\n      dup2\n      add\n      0x40\n      mstore\n      dup1\n      swap3\n      swap2\n      swap1\n      dup2\n      dup2\n      mstore\n      0x20\n      add\n      dup3\n      dup1\n      sload\n      tag_20\n      swap1\n      tag_19\n      jump\t// in\n    tag_20:\n      dup1\n      iszero\n      tag_21\n      jumpi\n      dup1\n      0x1f\n      lt\n      tag_22\n      jumpi\n      0x0100\n      dup1\n      dup4\n      sload\n      div\n      mul\n      dup4\n      mstore\n      swap2\n      0x20\n      add\n      swap2\n      jump(tag_21)\n    tag_22:\n      dup3\n      add\n      swap2\n      swap1\n      0x00\n      mstore\n      keccak256(0x00, 0x20)\n      swap1\n    tag_23:\n      dup2\n      sload\n      dup2\n      mstore\n      swap1\n      0x01\n      add\n      swap1\n      0x20\n      add\n      dup1\n      dup4\n      gt\n      tag_23\n      jumpi\n      dup3\n      swap1\n      sub\n      0x1f\n      and\n      dup3\n      add\n      swap2\n    tag_21:\n      pop\n      pop\n      pop\n      pop\n      pop\n      dup2\n      mstore\n      pop\n      pop\n      swap1\n      pop\n        /* \"solidity_korea/storage_calldata_memory.sol\":532:640  function readOnlys(address addr) external view returns(MyStruct memory){... */\n      swap2\n      swap1\n      pop\n      jump\t// out\n        /* \"solidity_korea/storage_calldata_memory.sol\":230:527  function examples(uint[] memory y, string memory) external {... */\n    tag_14:\n        /* \"solidity_korea/storage_calldata_memory.sol\":319:351  MyStruct({foo:123,text:\"hello\"}) */\n      mload(0x40)\n      dup1\n      0x40\n      add\n      0x40\n      mstore\n      dup1\n        /* \"solidity_korea/storage_calldata_memory.sol\":333:336  123 */\n      0x7b\n        /* \"solidity_korea/storage_calldata_memory.sol\":319:351  MyStruct({foo:123,text:\"hello\"}) */\n      dup2\n      mstore\n      0x20\n      add\n      mload(0x40)\n      dup1\n      0x40\n      add\n      0x40\n      mstore\n      dup1\n      0x05\n      dup2\n      mstore\n      0x20\n      add\n      0x68656c6c6f000000000000000000000000000000000000000000000000000000\n      dup2\n      mstore\n      pop\n      dup2\n      mstore\n      pop\n        /* \"solidity_korea/storage_calldata_memory.sol\":295:304  myStructs */\n      0x00\n        /* \"solidity_korea/storage_calldata_memory.sol\":295:316  myStructs[msg.sender] */\n      dup1\n        /* \"solidity_korea/storage_calldata_memory.sol\":305:315  msg.sender */\n      caller\n        /* \"solidity_korea/storage_calldata_memory.sol\":295:316  myStructs[msg.sender] */\n      0xffffffffffffffffffffffffffffffffffffffff\n      and\n      0xffffffffffffffffffffffffffffffffffffffff\n      and\n      dup2\n      mstore\n      0x20\n      add\n      swap1\n      dup2\n      mstore\n      0x20\n      add\n      0x00\n      keccak256\n        /* \"solidity_korea/storage_calldata_memory.sol\":295:351  myStructs[msg.sender] = MyStruct({foo:123,text:\"hello\"}) */\n      0x00\n      dup3\n      add\n      mload\n      dup2\n      0x00\n      add\n      sstore\n      0x20\n      dup3\n      add\n      mload\n      dup2\n      0x01\n      add\n      swap1\n      dup1\n      mload\n      swap1\n      0x20\n      add\n      swap1\n      tag_25\n      swap3\n      swap2\n      swap1\n      tag_26\n      jump\t// in\n    tag_25:\n      pop\n      swap1\n      pop\n      pop\n        /* \"solidity_korea/storage_calldata_memory.sol\":357:382  MyStruct storage myStruct */\n      0x00\n        /* \"solidity_korea/storage_calldata_memory.sol\":385:394  myStructs */\n      dup1\n        /* \"solidity_korea/storage_calldata_memory.sol\":385:406  myStructs[msg.sender] */\n      0x00\n        /* \"solidity_korea/storage_calldata_memory.sol\":395:405  msg.sender */\n      caller\n        /* \"solidity_korea/storage_calldata_memory.sol\":385:406  myStructs[msg.sender] */\n      0xffffffffffffffffffffffffffffffffffffffff\n      and\n      0xffffffffffffffffffffffffffffffffffffffff\n      and\n      dup2\n      mstore\n      0x20\n      add\n      swap1\n      dup2\n      mstore\n      0x20\n      add\n      0x00\n      keccak256\n        /* \"solidity_korea/storage_calldata_memory.sol\":357:406  MyStruct storage myStruct = myStructs[msg.sender] */\n      swap1\n      pop\n        /* \"solidity_korea/storage_calldata_memory.sol\":412:437  myStruct.text =\"no hello\" */\n      mload(0x40)\n      dup1\n      0x40\n      add\n      0x40\n      mstore\n      dup1\n      0x08\n      dup2\n      mstore\n      0x20\n      add\n      0x6e6f2068656c6c6f000000000000000000000000000000000000000000000000\n      dup2\n      mstore\n      pop\n        /* \"solidity_korea/storage_calldata_memory.sol\":412:420  myStruct */\n      dup2\n        /* \"solidity_korea/storage_calldata_memory.sol\":412:425  myStruct.text */\n      0x01\n      add\n        /* \"solidity_korea/storage_calldata_memory.sol\":412:437  myStruct.text =\"no hello\" */\n      swap1\n      dup1\n      mload\n      swap1\n      0x20\n      add\n      swap1\n      tag_27\n      swap3\n      swap2\n      swap1\n      tag_26\n      jump\t// in\n    tag_27:\n      pop\n        /* \"solidity_korea/storage_calldata_memory.sol\":446:470  MyStruct memory readOnly */\n      0x00\n        /* \"solidity_korea/storage_calldata_memory.sol\":473:482  myStructs */\n      dup1\n        /* \"solidity_korea/storage_calldata_memory.sol\":473:494  myStructs[msg.sender] */\n      0x00\n        /* \"solidity_korea/storage_calldata_memory.sol\":483:493  msg.sender */\n      caller\n        /* \"solidity_korea/storage_calldata_memory.sol\":473:494  myStructs[msg.sender] */\n      0xffffffffffffffffffffffffffffffffffffffff\n      and\n      0xffffffffffffffffffffffffffffffffffffffff\n      and\n      dup2\n      mstore\n      0x20\n      add\n      swap1\n      dup2\n      mstore\n      0x20\n      add\n      0x00\n      keccak256\n        /* \"solidity_korea/storage_calldata_memory.sol\":446:494  MyStruct memory readOnly = myStructs[msg.sender] */\n      mload(0x40)\n      dup1\n      0x40\n      add\n      0x40\n      mstore\n      swap1\n      dup2\n      0x00\n      dup3\n      add\n      sload\n      dup2\n      mstore\n      0x20\n      add\n      0x01\n      dup3\n      add\n      dup1\n      sload\n      tag_28\n      swap1\n      tag_19\n      jump\t// in\n    tag_28:\n      dup1\n      0x1f\n      add\n      0x20\n      dup1\n      swap2\n      div\n      mul\n      0x20\n      add\n      mload(0x40)\n      swap1\n      dup2\n      add\n      0x40\n      mstore\n      dup1\n      swap3\n      swap2\n      swap1\n      dup2\n      dup2\n      mstore\n      0x20\n      add\n      dup3\n      dup1\n      sload\n      tag_29\n      swap1\n      tag_19\n      jump\t// in\n    tag_29:\n      dup1\n      iszero\n      tag_30\n      jumpi\n      dup1\n      0x1f\n      lt\n      tag_31\n      jumpi\n      0x0100\n      dup1\n      dup4\n      sload\n      div\n      mul\n      dup4\n      mstore\n      swap2\n      0x20\n      add\n      swap2\n      jump(tag_30)\n    tag_31:\n      dup3\n      add\n      swap2\n      swap1\n      0x00\n      mstore\n      keccak256(0x00, 0x20)\n      swap1\n    tag_32:\n      dup2\n      sload\n      dup2\n      mstore\n      swap1\n      0x01\n      add\n      swap1\n      0x20\n      add\n      dup1\n      dup4\n      gt\n      tag_32\n      jumpi\n      dup3\n      swap1\n      sub\n      0x1f\n      and\n      dup3\n      add\n      swap2\n    tag_30:\n      pop\n      pop\n      pop\n      pop\n      pop\n      dup2\n      mstore\n      pop\n      pop\n      swap1\n      pop\n        /* \"solidity_korea/storage_calldata_memory.sol\":517:520  456 */\n      0x01c8\n        /* \"solidity_korea/storage_calldata_memory.sol\":502:510  readOnly */\n      dup2\n        /* \"solidity_korea/storage_calldata_memory.sol\":502:514  readOnly.foo */\n      0x00\n      add\n        /* \"solidity_korea/storage_calldata_memory.sol\":502:520  readOnly.foo = 456 */\n      dup2\n      dup2\n      mstore\n      pop\n      pop\n        /* \"solidity_korea/storage_calldata_memory.sol\":289:527  {... */\n      pop\n      pop\n        /* \"solidity_korea/storage_calldata_memory.sol\":230:527  function examples(uint[] memory y, string memory) external {... */\n      pop\n      pop\n      jump\t// out\n    tag_16:\n      mload(0x40)\n      dup1\n      0x40\n      add\n      0x40\n      mstore\n      dup1\n      0x00\n      dup2\n      mstore\n      0x20\n      add\n      0x60\n      dup2\n      mstore\n      pop\n      swap1\n      jump\t// out\n    tag_26:\n      dup3\n      dup1\n      sload\n      tag_33\n      swap1\n      tag_19\n      jump\t// in\n    tag_33:\n      swap1\n      0x00\n      mstore\n      keccak256(0x00, 0x20)\n      swap1\n      0x1f\n      add\n      0x20\n      swap1\n      div\n      dup2\n      add\n      swap3\n      dup3\n      tag_35\n      jumpi\n      0x00\n      dup6\n      sstore\n      jump(tag_34)\n    tag_35:\n      dup3\n      0x1f\n      lt\n      tag_36\n      jumpi\n      dup1\n      mload\n      not(0xff)\n      and\n      dup4\n      dup1\n      add\n      or\n      dup6\n      sstore\n      jump(tag_34)\n    tag_36:\n      dup3\n      dup1\n      add\n      0x01\n      add\n      dup6\n      sstore\n      dup3\n      iszero\n      tag_34\n      jumpi\n      swap2\n      dup3\n      add\n    tag_37:\n      dup3\n      dup2\n      gt\n      iszero\n      tag_38\n      jumpi\n      dup3\n      mload\n      dup3\n      sstore\n      swap2\n      0x20\n      add\n      swap2\n      swap1\n      0x01\n      add\n      swap1\n      jump(tag_37)\n    tag_38:\n    tag_34:\n      pop\n      swap1\n      pop\n      tag_39\n      swap2\n      swap1\n      tag_40\n      jump\t// in\n    tag_39:\n      pop\n      swap1\n      jump\t// out\n    tag_40:\n    tag_41:\n      dup1\n      dup3\n      gt\n      iszero\n      tag_42\n      jumpi\n      0x00\n      dup2\n      0x00\n      swap1\n      sstore\n      pop\n      0x01\n      add\n      jump(tag_41)\n    tag_42:\n      pop\n      swap1\n      jump\t// out\n        /* \"#utility.yul\":24:746   */\n    tag_44:\n        /* \"#utility.yul\":120:125   */\n      0x00\n        /* \"#utility.yul\":145:226   */\n      tag_46\n        /* \"#utility.yul\":161:225   */\n      tag_47\n        /* \"#utility.yul\":218:224   */\n      dup5\n        /* \"#utility.yul\":161:225   */\n      tag_48\n      jump\t// in\n    tag_47:\n        /* \"#utility.yul\":145:226   */\n      tag_49\n      jump\t// in\n    tag_46:\n        /* \"#utility.yul\":136:226   */\n      swap1\n      pop\n        /* \"#utility.yul\":246:251   */\n      dup1\n        /* \"#utility.yul\":275:281   */\n      dup4\n        /* \"#utility.yul\":268:273   */\n      dup3\n        /* \"#utility.yul\":261:282   */\n      mstore\n        /* \"#utility.yul\":309:313   */\n      0x20\n        /* \"#utility.yul\":302:307   */\n      dup3\n        /* \"#utility.yul\":298:314   */\n      add\n        /* \"#utility.yul\":291:314   */\n      swap1\n      pop\n        /* \"#utility.yul\":335:341   */\n      dup3\n        /* \"#utility.yul\":385:388   */\n      dup6\n        /* \"#utility.yul\":377:381   */\n      0x20\n        /* \"#utility.yul\":369:375   */\n      dup7\n        /* \"#utility.yul\":365:382   */\n      mul\n        /* \"#utility.yul\":360:363   */\n      dup3\n        /* \"#utility.yul\":356:383   */\n      add\n        /* \"#utility.yul\":353:389   */\n      gt\n        /* \"#utility.yul\":350:493   */\n      iszero\n      tag_50\n      jumpi\n        /* \"#utility.yul\":404:483   */\n      tag_51\n      tag_52\n      jump\t// in\n    tag_51:\n        /* \"#utility.yul\":350:493   */\n    tag_50:\n        /* \"#utility.yul\":517:518   */\n      0x00\n        /* \"#utility.yul\":502:740   */\n    tag_53:\n        /* \"#utility.yul\":527:533   */\n      dup6\n        /* \"#utility.yul\":524:525   */\n      dup2\n        /* \"#utility.yul\":521:534   */\n      lt\n        /* \"#utility.yul\":502:740   */\n      iszero\n      tag_55\n      jumpi\n        /* \"#utility.yul\":595:598   */\n      dup2\n        /* \"#utility.yul\":624:661   */\n      tag_56\n        /* \"#utility.yul\":657:660   */\n      dup9\n        /* \"#utility.yul\":645:655   */\n      dup3\n        /* \"#utility.yul\":624:661   */\n      tag_57\n      jump\t// in\n    tag_56:\n        /* \"#utility.yul\":619:622   */\n      dup5\n        /* \"#utility.yul\":612:662   */\n      mstore\n        /* \"#utility.yul\":691:695   */\n      0x20\n        /* \"#utility.yul\":686:689   */\n      dup5\n        /* \"#utility.yul\":682:696   */\n      add\n        /* \"#utility.yul\":675:696   */\n      swap4\n      pop\n        /* \"#utility.yul\":725:729   */\n      0x20\n        /* \"#utility.yul\":720:723   */\n      dup4\n        /* \"#utility.yul\":716:730   */\n      add\n        /* \"#utility.yul\":709:730   */\n      swap3\n      pop\n        /* \"#utility.yul\":562:740   */\n      pop\n        /* \"#utility.yul\":549:550   */\n      0x01\n        /* \"#utility.yul\":546:547   */\n      dup2\n        /* \"#utility.yul\":542:551   */\n      add\n        /* \"#utility.yul\":537:551   */\n      swap1\n      pop\n        /* \"#utility.yul\":502:740   */\n      jump(tag_53)\n    tag_55:\n        /* \"#utility.yul\":506:520   */\n      pop\n        /* \"#utility.yul\":126:746   */\n      pop\n      pop\n        /* \"#utility.yul\":24:746   */\n      swap4\n      swap3\n      pop\n      pop\n      pop\n      jump\t// out\n        /* \"#utility.yul\":752:1164   */\n    tag_58:\n        /* \"#utility.yul\":830:835   */\n      0x00\n        /* \"#utility.yul\":855:921   */\n      tag_60\n        /* \"#utility.yul\":871:920   */\n      tag_61\n        /* \"#utility.yul\":913:919   */\n      dup5\n        /* \"#utility.yul\":871:920   */\n      tag_62\n      jump\t// in\n    tag_61:\n        /* \"#utility.yul\":855:921   */\n      tag_49\n      jump\t// in\n    tag_60:\n        /* \"#utility.yul\":846:921   */\n      swap1\n      pop\n        /* \"#utility.yul\":944:950   */\n      dup3\n        /* \"#utility.yul\":937:942   */\n      dup2\n        /* \"#utility.yul\":930:951   */\n      mstore\n        /* \"#utility.yul\":982:986   */\n      0x20\n        /* \"#utility.yul\":975:980   */\n      dup2\n        /* \"#utility.yul\":971:987   */\n      add\n        /* \"#utility.yul\":1020:1023   */\n      dup5\n        /* \"#utility.yul\":1011:1017   */\n      dup5\n        /* \"#utility.yul\":1006:1009   */\n      dup5\n        /* \"#utility.yul\":1002:1018   */\n      add\n        /* \"#utility.yul\":999:1024   */\n      gt\n        /* \"#utility.yul\":996:1108   */\n      iszero\n      tag_63\n      jumpi\n        /* \"#utility.yul\":1027:1106   */\n      tag_64\n      tag_65\n      jump\t// in\n    tag_64:\n        /* \"#utility.yul\":996:1108   */\n    tag_63:\n        /* \"#utility.yul\":1117:1158   */\n      tag_66\n        /* \"#utility.yul\":1151:1157   */\n      dup5\n        /* \"#utility.yul\":1146:1149   */\n      dup3\n        /* \"#utility.yul\":1141:1144   */\n      dup6\n        /* \"#utility.yul\":1117:1158   */\n      tag_67\n      jump\t// in\n    tag_66:\n        /* \"#utility.yul\":836:1164   */\n      pop\n        /* \"#utility.yul\":752:1164   */\n      swap4\n      swap3\n      pop\n      pop\n      pop\n      jump\t// out\n        /* \"#utility.yul\":1170:1309   */\n    tag_68:\n        /* \"#utility.yul\":1216:1221   */\n      0x00\n        /* \"#utility.yul\":1254:1260   */\n      dup2\n        /* \"#utility.yul\":1241:1261   */\n      calldataload\n        /* \"#utility.yul\":1232:1261   */\n      swap1\n      pop\n        /* \"#utility.yul\":1270:1303   */\n      tag_70\n        /* \"#utility.yul\":1297:1302   */\n      dup2\n        /* \"#utility.yul\":1270:1303   */\n      tag_71\n      jump\t// in\n    tag_70:\n        /* \"#utility.yul\":1170:1309   */\n      swap3\n      swap2\n      pop\n      pop\n      jump\t// out\n        /* \"#utility.yul\":1332:1702   */\n    tag_72:\n        /* \"#utility.yul\":1403:1408   */\n      0x00\n        /* \"#utility.yul\":1452:1455   */\n      dup3\n        /* \"#utility.yul\":1445:1449   */\n      0x1f\n        /* \"#utility.yul\":1437:1443   */\n      dup4\n        /* \"#utility.yul\":1433:1450   */\n      add\n        /* \"#utility.yul\":1429:1456   */\n      slt\n        /* \"#utility.yul\":1419:1541   */\n      tag_74\n      jumpi\n        /* \"#utility.yul\":1460:1539   */\n      tag_75\n      tag_76\n      jump\t// in\n    tag_75:\n        /* \"#utility.yul\":1419:1541   */\n    tag_74:\n        /* \"#utility.yul\":1577:1583   */\n      dup2\n        /* \"#utility.yul\":1564:1584   */\n      calldataload\n        /* \"#utility.yul\":1602:1696   */\n      tag_77\n        /* \"#utility.yul\":1692:1695   */\n      dup5\n        /* \"#utility.yul\":1684:1690   */\n      dup3\n        /* \"#utility.yul\":1677:1681   */\n      0x20\n        /* \"#utility.yul\":1669:1675   */\n      dup7\n        /* \"#utility.yul\":1665:1682   */\n      add\n        /* \"#utility.yul\":1602:1696   */\n      tag_44\n      jump\t// in\n    tag_77:\n        /* \"#utility.yul\":1593:1696   */\n      swap2\n      pop\n        /* \"#utility.yul\":1409:1702   */\n      pop\n        /* \"#utility.yul\":1332:1702   */\n      swap3\n      swap2\n      pop\n      pop\n      jump\t// out\n        /* \"#utility.yul\":1722:2062   */\n    tag_78:\n        /* \"#utility.yul\":1778:1783   */\n      0x00\n        /* \"#utility.yul\":1827:1830   */\n      dup3\n        /* \"#utility.yul\":1820:1824   */\n      0x1f\n        /* \"#utility.yul\":1812:1818   */\n      dup4\n        /* \"#utility.yul\":1808:1825   */\n      add\n        /* \"#utility.yul\":1804:1831   */\n      slt\n        /* \"#utility.yul\":1794:1916   */\n      tag_80\n      jumpi\n        /* \"#utility.yul\":1835:1914   */\n      tag_81\n      tag_76\n      jump\t// in\n    tag_81:\n        /* \"#utility.yul\":1794:1916   */\n    tag_80:\n        /* \"#utility.yul\":1952:1958   */\n      dup2\n        /* \"#utility.yul\":1939:1959   */\n      calldataload\n        /* \"#utility.yul\":1977:2056   */\n      tag_82\n        /* \"#utility.yul\":2052:2055   */\n      dup5\n        /* \"#utility.yul\":2044:2050   */\n      dup3\n        /* \"#utility.yul\":2037:2041   */\n      0x20\n        /* \"#utility.yul\":2029:2035   */\n      dup7\n        /* \"#utility.yul\":2025:2042   */\n      add\n        /* \"#utility.yul\":1977:2056   */\n      tag_58\n      jump\t// in\n    tag_82:\n        /* \"#utility.yul\":1968:2056   */\n      swap2\n      pop\n        /* \"#utility.yul\":1784:2062   */\n      pop\n        /* \"#utility.yul\":1722:2062   */\n      swap3\n      swap2\n      pop\n      pop\n      jump\t// out\n        /* \"#utility.yul\":2068:2207   */\n    tag_57:\n        /* \"#utility.yul\":2114:2119   */\n      0x00\n        /* \"#utility.yul\":2152:2158   */\n      dup2\n        /* \"#utility.yul\":2139:2159   */\n      calldataload\n        /* \"#utility.yul\":2130:2159   */\n      swap1\n      pop\n        /* \"#utility.yul\":2168:2201   */\n      tag_84\n        /* \"#utility.yul\":2195:2200   */\n      dup2\n        /* \"#utility.yul\":2168:2201   */\n      tag_85\n      jump\t// in\n    tag_84:\n        /* \"#utility.yul\":2068:2207   */\n      swap3\n      swap2\n      pop\n      pop\n      jump\t// out\n        /* \"#utility.yul\":2213:2542   */\n    tag_7:\n        /* \"#utility.yul\":2272:2278   */\n      0x00\n        /* \"#utility.yul\":2321:2323   */\n      0x20\n        /* \"#utility.yul\":2309:2318   */\n      dup3\n        /* \"#utility.yul\":2300:2307   */\n      dup5\n        /* \"#utility.yul\":2296:2319   */\n      sub\n        /* \"#utility.yul\":2292:2324   */\n      slt\n        /* \"#utility.yul\":2289:2408   */\n      iszero\n      tag_87\n      jumpi\n        /* \"#utility.yul\":2327:2406   */\n      tag_88\n      tag_89\n      jump\t// in\n    tag_88:\n        /* \"#utility.yul\":2289:2408   */\n    tag_87:\n        /* \"#utility.yul\":2447:2448   */\n      0x00\n        /* \"#utility.yul\":2472:2525   */\n      tag_90\n        /* \"#utility.yul\":2517:2524   */\n      dup5\n        /* \"#utility.yul\":2508:2514   */\n      dup3\n        /* \"#utility.yul\":2497:2506   */\n      dup6\n        /* \"#utility.yul\":2493:2515   */\n      add\n        /* \"#utility.yul\":2472:2525   */\n      tag_68\n      jump\t// in\n    tag_90:\n        /* \"#utility.yul\":2462:2525   */\n      swap2\n      pop\n        /* \"#utility.yul\":2418:2535   */\n      pop\n        /* \"#utility.yul\":2213:2542   */\n      swap3\n      swap2\n      pop\n      pop\n      jump\t// out\n        /* \"#utility.yul\":2548:3412   */\n    tag_13:\n        /* \"#utility.yul\":2651:2657   */\n      0x00\n        /* \"#utility.yul\":2659:2665   */\n      dup1\n        /* \"#utility.yul\":2708:2710   */\n      0x40\n        /* \"#utility.yul\":2696:2705   */\n      dup4\n        /* \"#utility.yul\":2687:2694   */\n      dup6\n        /* \"#utility.yul\":2683:2706   */\n      sub\n        /* \"#utility.yul\":2679:2711   */\n      slt\n        /* \"#utility.yul\":2676:2795   */\n      iszero\n      tag_92\n      jumpi\n        /* \"#utility.yul\":2714:2793   */\n      tag_93\n      tag_89\n      jump\t// in\n    tag_93:\n        /* \"#utility.yul\":2676:2795   */\n    tag_92:\n        /* \"#utility.yul\":2862:2863   */\n      0x00\n        /* \"#utility.yul\":2851:2860   */\n      dup4\n        /* \"#utility.yul\":2847:2864   */\n      add\n        /* \"#utility.yul\":2834:2865   */\n      calldataload\n        /* \"#utility.yul\":2892:2910   */\n      0xffffffffffffffff\n        /* \"#utility.yul\":2884:2890   */\n      dup2\n        /* \"#utility.yul\":2881:2911   */\n      gt\n        /* \"#utility.yul\":2878:2995   */\n      iszero\n      tag_94\n      jumpi\n        /* \"#utility.yul\":2914:2993   */\n      tag_95\n      tag_96\n      jump\t// in\n    tag_95:\n        /* \"#utility.yul\":2878:2995   */\n    tag_94:\n        /* \"#utility.yul\":3019:3097   */\n      tag_97\n        /* \"#utility.yul\":3089:3096   */\n      dup6\n        /* \"#utility.yul\":3080:3086   */\n      dup3\n        /* \"#utility.yul\":3069:3078   */\n      dup7\n        /* \"#utility.yul\":3065:3087   */\n      add\n        /* \"#utility.yul\":3019:3097   */\n      tag_72\n      jump\t// in\n    tag_97:\n        /* \"#utility.yul\":3009:3097   */\n      swap3\n      pop\n        /* \"#utility.yul\":2805:3107   */\n      pop\n        /* \"#utility.yul\":3174:3176   */\n      0x20\n        /* \"#utility.yul\":3163:3172   */\n      dup4\n        /* \"#utility.yul\":3159:3177   */\n      add\n        /* \"#utility.yul\":3146:3178   */\n      calldataload\n        /* \"#utility.yul\":3205:3223   */\n      0xffffffffffffffff\n        /* \"#utility.yul\":3197:3203   */\n      dup2\n        /* \"#utility.yul\":3194:3224   */\n      gt\n        /* \"#utility.yul\":3191:3308   */\n      iszero\n      tag_98\n      jumpi\n        /* \"#utility.yul\":3227:3306   */\n      tag_99\n      tag_96\n      jump\t// in\n    tag_99:\n        /* \"#utility.yul\":3191:3308   */\n    tag_98:\n        /* \"#utility.yul\":3332:3395   */\n      tag_100\n        /* \"#utility.yul\":3387:3394   */\n      dup6\n        /* \"#utility.yul\":3378:3384   */\n      dup3\n        /* \"#utility.yul\":3367:3376   */\n      dup7\n        /* \"#utility.yul\":3363:3385   */\n      add\n        /* \"#utility.yul\":3332:3395   */\n      tag_78\n      jump\t// in\n    tag_100:\n        /* \"#utility.yul\":3322:3395   */\n      swap2\n      pop\n        /* \"#utility.yul\":3117:3405   */\n      pop\n        /* \"#utility.yul\":2548:3412   */\n      swap3\n      pop\n      swap3\n      swap1\n      pop\n      jump\t// out\n        /* \"#utility.yul\":3418:3762   */\n    tag_101:\n        /* \"#utility.yul\":3496:3499   */\n      0x00\n        /* \"#utility.yul\":3524:3563   */\n      tag_103\n        /* \"#utility.yul\":3557:3562   */\n      dup3\n        /* \"#utility.yul\":3524:3563   */\n      tag_104\n      jump\t// in\n    tag_103:\n        /* \"#utility.yul\":3579:3640   */\n      tag_105\n        /* \"#utility.yul\":3633:3639   */\n      dup2\n        /* \"#utility.yul\":3628:3631   */\n      dup6\n        /* \"#utility.yul\":3579:3640   */\n      tag_106\n      jump\t// in\n    tag_105:\n        /* \"#utility.yul\":3572:3640   */\n      swap4\n      pop\n        /* \"#utility.yul\":3649:3701   */\n      tag_107\n        /* \"#utility.yul\":3694:3700   */\n      dup2\n        /* \"#utility.yul\":3689:3692   */\n      dup6\n        /* \"#utility.yul\":3682:3686   */\n      0x20\n        /* \"#utility.yul\":3675:3680   */\n      dup7\n        /* \"#utility.yul\":3671:3687   */\n      add\n        /* \"#utility.yul\":3649:3701   */\n      tag_108\n      jump\t// in\n    tag_107:\n        /* \"#utility.yul\":3726:3755   */\n      tag_109\n        /* \"#utility.yul\":3748:3754   */\n      dup2\n        /* \"#utility.yul\":3726:3755   */\n      tag_110\n      jump\t// in\n    tag_109:\n        /* \"#utility.yul\":3721:3724   */\n      dup5\n        /* \"#utility.yul\":3717:3756   */\n      add\n        /* \"#utility.yul\":3710:3756   */\n      swap2\n      pop\n        /* \"#utility.yul\":3500:3762   */\n      pop\n        /* \"#utility.yul\":3418:3762   */\n      swap3\n      swap2\n      pop\n      pop\n      jump\t// out\n        /* \"#utility.yul\":3826:4427   */\n    tag_111:\n        /* \"#utility.yul\":3941:3944   */\n      0x00\n        /* \"#utility.yul\":3977:3981   */\n      0x40\n        /* \"#utility.yul\":3972:3975   */\n      dup4\n        /* \"#utility.yul\":3968:3982   */\n      add\n        /* \"#utility.yul\":4063:4067   */\n      0x00\n        /* \"#utility.yul\":4056:4061   */\n      dup4\n        /* \"#utility.yul\":4052:4068   */\n      add\n        /* \"#utility.yul\":4046:4069   */\n      mload\n        /* \"#utility.yul\":4082:4145   */\n      tag_113\n        /* \"#utility.yul\":4139:4143   */\n      0x00\n        /* \"#utility.yul\":4134:4137   */\n      dup7\n        /* \"#utility.yul\":4130:4144   */\n      add\n        /* \"#utility.yul\":4116:4128   */\n      dup3\n        /* \"#utility.yul\":4082:4145   */\n      tag_114\n      jump\t// in\n    tag_113:\n        /* \"#utility.yul\":3992:4155   */\n      pop\n        /* \"#utility.yul\":4237:4241   */\n      0x20\n        /* \"#utility.yul\":4230:4235   */\n      dup4\n        /* \"#utility.yul\":4226:4242   */\n      add\n        /* \"#utility.yul\":4220:4243   */\n      mload\n        /* \"#utility.yul\":4290:4293   */\n      dup5\n        /* \"#utility.yul\":4284:4288   */\n      dup3\n        /* \"#utility.yul\":4280:4294   */\n      sub\n        /* \"#utility.yul\":4273:4277   */\n      0x20\n        /* \"#utility.yul\":4268:4271   */\n      dup7\n        /* \"#utility.yul\":4264:4278   */\n      add\n        /* \"#utility.yul\":4257:4295   */\n      mstore\n        /* \"#utility.yul\":4316:4389   */\n      tag_115\n        /* \"#utility.yul\":4384:4388   */\n      dup3\n        /* \"#utility.yul\":4370:4382   */\n      dup3\n        /* \"#utility.yul\":4316:4389   */\n      tag_101\n      jump\t// in\n    tag_115:\n        /* \"#utility.yul\":4308:4389   */\n      swap2\n      pop\n        /* \"#utility.yul\":4165:4400   */\n      pop\n        /* \"#utility.yul\":4417:4421   */\n      dup1\n        /* \"#utility.yul\":4410:4421   */\n      swap2\n      pop\n        /* \"#utility.yul\":3946:4427   */\n      pop\n        /* \"#utility.yul\":3826:4427   */\n      swap3\n      swap2\n      pop\n      pop\n      jump\t// out\n        /* \"#utility.yul\":4433:4541   */\n    tag_114:\n        /* \"#utility.yul\":4510:4534   */\n      tag_117\n        /* \"#utility.yul\":4528:4533   */\n      dup2\n        /* \"#utility.yul\":4510:4534   */\n      tag_118\n      jump\t// in\n    tag_117:\n        /* \"#utility.yul\":4505:4508   */\n      dup3\n        /* \"#utility.yul\":4498:4535   */\n      mstore\n        /* \"#utility.yul\":4433:4541   */\n      pop\n      pop\n      jump\t// out\n        /* \"#utility.yul\":4547:4912   */\n    tag_10:\n        /* \"#utility.yul\":4686:4690   */\n      0x00\n        /* \"#utility.yul\":4724:4726   */\n      0x20\n        /* \"#utility.yul\":4713:4722   */\n      dup3\n        /* \"#utility.yul\":4709:4727   */\n      add\n        /* \"#utility.yul\":4701:4727   */\n      swap1\n      pop\n        /* \"#utility.yul\":4773:4782   */\n      dup2\n        /* \"#utility.yul\":4767:4771   */\n      dup2\n        /* \"#utility.yul\":4763:4783   */\n      sub\n        /* \"#utility.yul\":4759:4760   */\n      0x00\n        /* \"#utility.yul\":4748:4757   */\n      dup4\n        /* \"#utility.yul\":4744:4761   */\n      add\n        /* \"#utility.yul\":4737:4784   */\n      mstore\n        /* \"#utility.yul\":4801:4905   */\n      tag_120\n        /* \"#utility.yul\":4900:4904   */\n      dup2\n        /* \"#utility.yul\":4891:4897   */\n      dup5\n        /* \"#utility.yul\":4801:4905   */\n      tag_111\n      jump\t// in\n    tag_120:\n        /* \"#utility.yul\":4793:4905   */\n      swap1\n      pop\n        /* \"#utility.yul\":4547:4912   */\n      swap3\n      swap2\n      pop\n      pop\n      jump\t// out\n        /* \"#utility.yul\":4918:5047   */\n    tag_49:\n        /* \"#utility.yul\":4952:4958   */\n      0x00\n        /* \"#utility.yul\":4979:4999   */\n      tag_122\n      tag_123\n      jump\t// in\n    tag_122:\n        /* \"#utility.yul\":4969:4999   */\n      swap1\n      pop\n        /* \"#utility.yul\":5008:5041   */\n      tag_124\n        /* \"#utility.yul\":5036:5040   */\n      dup3\n        /* \"#utility.yul\":5028:5034   */\n      dup3\n        /* \"#utility.yul\":5008:5041   */\n      tag_125\n      jump\t// in\n    tag_124:\n        /* \"#utility.yul\":4918:5047   */\n      swap2\n      swap1\n      pop\n      jump\t// out\n        /* \"#utility.yul\":5053:5128   */\n    tag_123:\n        /* \"#utility.yul\":5086:5092   */\n      0x00\n        /* \"#utility.yul\":5119:5121   */\n      0x40\n        /* \"#utility.yul\":5113:5122   */\n      mload\n        /* \"#utility.yul\":5103:5122   */\n      swap1\n      pop\n        /* \"#utility.yul\":5053:5128   */\n      swap1\n      jump\t// out\n        /* \"#utility.yul\":5134:5445   */\n    tag_48:\n        /* \"#utility.yul\":5211:5215   */\n      0x00\n        /* \"#utility.yul\":5301:5319   */\n      0xffffffffffffffff\n        /* \"#utility.yul\":5293:5299   */\n      dup3\n        /* \"#utility.yul\":5290:5320   */\n      gt\n        /* \"#utility.yul\":5287:5343   */\n      iszero\n      tag_128\n      jumpi\n        /* \"#utility.yul\":5323:5341   */\n      tag_129\n      tag_130\n      jump\t// in\n    tag_129:\n        /* \"#utility.yul\":5287:5343   */\n    tag_128:\n        /* \"#utility.yul\":5373:5377   */\n      0x20\n        /* \"#utility.yul\":5365:5371   */\n      dup3\n        /* \"#utility.yul\":5361:5378   */\n      mul\n        /* \"#utility.yul\":5353:5378   */\n      swap1\n      pop\n        /* \"#utility.yul\":5433:5437   */\n      0x20\n        /* \"#utility.yul\":5427:5431   */\n      dup2\n        /* \"#utility.yul\":5423:5438   */\n      add\n        /* \"#utility.yul\":5415:5438   */\n      swap1\n      pop\n        /* \"#utility.yul\":5134:5445   */\n      swap2\n      swap1\n      pop\n      jump\t// out\n        /* \"#utility.yul\":5451:5759   */\n    tag_62:\n        /* \"#utility.yul\":5513:5517   */\n      0x00\n        /* \"#utility.yul\":5603:5621   */\n      0xffffffffffffffff\n        /* \"#utility.yul\":5595:5601   */\n      dup3\n        /* \"#utility.yul\":5592:5622   */\n      gt\n        /* \"#utility.yul\":5589:5645   */\n      iszero\n      tag_132\n      jumpi\n        /* \"#utility.yul\":5625:5643   */\n      tag_133\n      tag_130\n      jump\t// in\n    tag_133:\n        /* \"#utility.yul\":5589:5645   */\n    tag_132:\n        /* \"#utility.yul\":5663:5692   */\n      tag_134\n        /* \"#utility.yul\":5685:5691   */\n      dup3\n        /* \"#utility.yul\":5663:5692   */\n      tag_110\n      jump\t// in\n    tag_134:\n        /* \"#utility.yul\":5655:5692   */\n      swap1\n      pop\n        /* \"#utility.yul\":5747:5751   */\n      0x20\n        /* \"#utility.yul\":5741:5745   */\n      dup2\n        /* \"#utility.yul\":5737:5752   */\n      add\n        /* \"#utility.yul\":5729:5752   */\n      swap1\n      pop\n        /* \"#utility.yul\":5451:5759   */\n      swap2\n      swap1\n      pop\n      jump\t// out\n        /* \"#utility.yul\":5765:5864   */\n    tag_104:\n        /* \"#utility.yul\":5817:5823   */\n      0x00\n        /* \"#utility.yul\":5851:5856   */\n      dup2\n        /* \"#utility.yul\":5845:5857   */\n      mload\n        /* \"#utility.yul\":5835:5857   */\n      swap1\n      pop\n        /* \"#utility.yul\":5765:5864   */\n      swap2\n      swap1\n      pop\n      jump\t// out\n        /* \"#utility.yul\":5870:6029   */\n    tag_106:\n        /* \"#utility.yul\":5944:5955   */\n      0x00\n        /* \"#utility.yul\":5978:5984   */\n      dup3\n        /* \"#utility.yul\":5973:5976   */\n      dup3\n        /* \"#utility.yul\":5966:5985   */\n      mstore\n        /* \"#utility.yul\":6018:6022   */\n      0x20\n        /* \"#utility.yul\":6013:6016   */\n      dup3\n        /* \"#utility.yul\":6009:6023   */\n      add\n        /* \"#utility.yul\":5994:6023   */\n      swap1\n      pop\n        /* \"#utility.yul\":5870:6029   */\n      swap3\n      swap2\n      pop\n      pop\n      jump\t// out\n        /* \"#utility.yul\":6035:6131   */\n    tag_137:\n        /* \"#utility.yul\":6072:6079   */\n      0x00\n        /* \"#utility.yul\":6101:6125   */\n      tag_139\n        /* \"#utility.yul\":6119:6124   */\n      dup3\n        /* \"#utility.yul\":6101:6125   */\n      tag_140\n      jump\t// in\n    tag_139:\n        /* \"#utility.yul\":6090:6125   */\n      swap1\n      pop\n        /* \"#utility.yul\":6035:6131   */\n      swap2\n      swap1\n      pop\n      jump\t// out\n        /* \"#utility.yul\":6137:6263   */\n    tag_140:\n        /* \"#utility.yul\":6174:6181   */\n      0x00\n        /* \"#utility.yul\":6214:6256   */\n      0xffffffffffffffffffffffffffffffffffffffff\n        /* \"#utility.yul\":6207:6212   */\n      dup3\n        /* \"#utility.yul\":6203:6257   */\n      and\n        /* \"#utility.yul\":6192:6257   */\n      swap1\n      pop\n        /* \"#utility.yul\":6137:6263   */\n      swap2\n      swap1\n      pop\n      jump\t// out\n        /* \"#utility.yul\":6269:6346   */\n    tag_118:\n        /* \"#utility.yul\":6306:6313   */\n      0x00\n        /* \"#utility.yul\":6335:6340   */\n      dup2\n        /* \"#utility.yul\":6324:6340   */\n      swap1\n      pop\n        /* \"#utility.yul\":6269:6346   */\n      swap2\n      swap1\n      pop\n      jump\t// out\n        /* \"#utility.yul\":6352:6506   */\n    tag_67:\n        /* \"#utility.yul\":6436:6442   */\n      dup3\n        /* \"#utility.yul\":6431:6434   */\n      dup2\n        /* \"#utility.yul\":6426:6429   */\n      dup4\n        /* \"#utility.yul\":6413:6443   */\n      calldatacopy\n        /* \"#utility.yul\":6498:6499   */\n      0x00\n        /* \"#utility.yul\":6489:6495   */\n      dup4\n        /* \"#utility.yul\":6484:6487   */\n      dup4\n        /* \"#utility.yul\":6480:6496   */\n      add\n        /* \"#utility.yul\":6473:6500   */\n      mstore\n        /* \"#utility.yul\":6352:6506   */\n      pop\n      pop\n      pop\n      jump\t// out\n        /* \"#utility.yul\":6512:6819   */\n    tag_108:\n        /* \"#utility.yul\":6580:6581   */\n      0x00\n        /* \"#utility.yul\":6590:6703   */\n    tag_145:\n        /* \"#utility.yul\":6604:6610   */\n      dup4\n        /* \"#utility.yul\":6601:6602   */\n      dup2\n        /* \"#utility.yul\":6598:6611   */\n      lt\n        /* \"#utility.yul\":6590:6703   */\n      iszero\n      tag_147\n      jumpi\n        /* \"#utility.yul\":6689:6690   */\n      dup1\n        /* \"#utility.yul\":6684:6687   */\n      dup3\n        /* \"#utility.yul\":6680:6691   */\n      add\n        /* \"#utility.yul\":6674:6692   */\n      mload\n        /* \"#utility.yul\":6670:6671   */\n      dup2\n        /* \"#utility.yul\":6665:6668   */\n      dup5\n        /* \"#utility.yul\":6661:6672   */\n      add\n        /* \"#utility.yul\":6654:6693   */\n      mstore\n        /* \"#utility.yul\":6626:6628   */\n      0x20\n        /* \"#utility.yul\":6623:6624   */\n      dup2\n        /* \"#utility.yul\":6619:6629   */\n      add\n        /* \"#utility.yul\":6614:6629   */\n      swap1\n      pop\n        /* \"#utility.yul\":6590:6703   */\n      jump(tag_145)\n    tag_147:\n        /* \"#utility.yul\":6721:6727   */\n      dup4\n        /* \"#utility.yul\":6718:6719   */\n      dup2\n        /* \"#utility.yul\":6715:6728   */\n      gt\n        /* \"#utility.yul\":6712:6813   */\n      iszero\n      tag_148\n      jumpi\n        /* \"#utility.yul\":6801:6802   */\n      0x00\n        /* \"#utility.yul\":6792:6798   */\n      dup5\n        /* \"#utility.yul\":6787:6790   */\n      dup5\n        /* \"#utility.yul\":6783:6799   */\n      add\n        /* \"#utility.yul\":6776:6803   */\n      mstore\n        /* \"#utility.yul\":6712:6813   */\n    tag_148:\n        /* \"#utility.yul\":6561:6819   */\n      pop\n        /* \"#utility.yul\":6512:6819   */\n      pop\n      pop\n      pop\n      jump\t// out\n        /* \"#utility.yul\":6825:7145   */\n    tag_19:\n        /* \"#utility.yul\":6869:6875   */\n      0x00\n        /* \"#utility.yul\":6906:6907   */\n      0x02\n        /* \"#utility.yul\":6900:6904   */\n      dup3\n        /* \"#utility.yul\":6896:6908   */\n      div\n        /* \"#utility.yul\":6886:6908   */\n      swap1\n      pop\n        /* \"#utility.yul\":6953:6954   */\n      0x01\n        /* \"#utility.yul\":6947:6951   */\n      dup3\n        /* \"#utility.yul\":6943:6955   */\n      and\n        /* \"#utility.yul\":6974:6992   */\n      dup1\n        /* \"#utility.yul\":6964:7045   */\n      tag_150\n      jumpi\n        /* \"#utility.yul\":7030:7034   */\n      0x7f\n        /* \"#utility.yul\":7022:7028   */\n      dup3\n        /* \"#utility.yul\":7018:7035   */\n      and\n        /* \"#utility.yul\":7008:7035   */\n      swap2\n      pop\n        /* \"#utility.yul\":6964:7045   */\n    tag_150:\n        /* \"#utility.yul\":7092:7094   */\n      0x20\n        /* \"#utility.yul\":7084:7090   */\n      dup3\n        /* \"#utility.yul\":7081:7095   */\n      lt\n        /* \"#utility.yul\":7061:7079   */\n      dup2\n        /* \"#utility.yul\":7058:7096   */\n      eq\n        /* \"#utility.yul\":7055:7139   */\n      iszero\n      tag_151\n      jumpi\n        /* \"#utility.yul\":7111:7129   */\n      tag_152\n      tag_153\n      jump\t// in\n    tag_152:\n        /* \"#utility.yul\":7055:7139   */\n    tag_151:\n        /* \"#utility.yul\":6876:7145   */\n      pop\n        /* \"#utility.yul\":6825:7145   */\n      swap2\n      swap1\n      pop\n      jump\t// out\n        /* \"#utility.yul\":7151:7432   */\n    tag_125:\n        /* \"#utility.yul\":7234:7261   */\n      tag_155\n        /* \"#utility.yul\":7256:7260   */\n      dup3\n        /* \"#utility.yul\":7234:7261   */\n      tag_110\n      jump\t// in\n    tag_155:\n        /* \"#utility.yul\":7226:7232   */\n      dup2\n        /* \"#utility.yul\":7222:7262   */\n      add\n        /* \"#utility.yul\":7364:7370   */\n      dup2\n        /* \"#utility.yul\":7352:7362   */\n      dup2\n        /* \"#utility.yul\":7349:7371   */\n      lt\n        /* \"#utility.yul\":7328:7346   */\n      0xffffffffffffffff\n        /* \"#utility.yul\":7316:7326   */\n      dup3\n        /* \"#utility.yul\":7313:7347   */\n      gt\n        /* \"#utility.yul\":7310:7372   */\n      or\n        /* \"#utility.yul\":7307:7395   */\n      iszero\n      tag_156\n      jumpi\n        /* \"#utility.yul\":7375:7393   */\n      tag_157\n      tag_130\n      jump\t// in\n    tag_157:\n        /* \"#utility.yul\":7307:7395   */\n    tag_156:\n        /* \"#utility.yul\":7415:7425   */\n      dup1\n        /* \"#utility.yul\":7411:7413   */\n      0x40\n        /* \"#utility.yul\":7404:7426   */\n      mstore\n        /* \"#utility.yul\":7194:7432   */\n      pop\n        /* \"#utility.yul\":7151:7432   */\n      pop\n      pop\n      jump\t// out\n        /* \"#utility.yul\":7438:7618   */\n    tag_153:\n        /* \"#utility.yul\":7486:7563   */\n      0x4e487b7100000000000000000000000000000000000000000000000000000000\n        /* \"#utility.yul\":7483:7484   */\n      0x00\n        /* \"#utility.yul\":7476:7564   */\n      mstore\n        /* \"#utility.yul\":7583:7587   */\n      0x22\n        /* \"#utility.yul\":7580:7581   */\n      0x04\n        /* \"#utility.yul\":7573:7588   */\n      mstore\n        /* \"#utility.yul\":7607:7611   */\n      0x24\n        /* \"#utility.yul\":7604:7605   */\n      0x00\n        /* \"#utility.yul\":7597:7612   */\n      revert\n        /* \"#utility.yul\":7624:7804   */\n    tag_130:\n        /* \"#utility.yul\":7672:7749   */\n      0x4e487b7100000000000000000000000000000000000000000000000000000000\n        /* \"#utility.yul\":7669:7670   */\n      0x00\n        /* \"#utility.yul\":7662:7750   */\n      mstore\n        /* \"#utility.yul\":7769:7773   */\n      0x41\n        /* \"#utility.yul\":7766:7767   */\n      0x04\n        /* \"#utility.yul\":7759:7774   */\n      mstore\n        /* \"#utility.yul\":7793:7797   */\n      0x24\n        /* \"#utility.yul\":7790:7791   */\n      0x00\n        /* \"#utility.yul\":7783:7798   */\n      revert\n        /* \"#utility.yul\":7810:7927   */\n    tag_76:\n        /* \"#utility.yul\":7919:7920   */\n      0x00\n        /* \"#utility.yul\":7916:7917   */\n      dup1\n        /* \"#utility.yul\":7909:7921   */\n      revert\n        /* \"#utility.yul\":7933:8050   */\n    tag_52:\n        /* \"#utility.yul\":8042:8043   */\n      0x00\n        /* \"#utility.yul\":8039:8040   */\n      dup1\n        /* \"#utility.yul\":8032:8044   */\n      revert\n        /* \"#utility.yul\":8056:8173   */\n    tag_65:\n        /* \"#utility.yul\":8165:8166   */\n      0x00\n        /* \"#utility.yul\":8162:8163   */\n      dup1\n        /* \"#utility.yul\":8155:8167   */\n      revert\n        /* \"#utility.yul\":8179:8296   */\n    tag_96:\n        /* \"#utility.yul\":8288:8289   */\n      0x00\n        /* \"#utility.yul\":8285:8286   */\n      dup1\n        /* \"#utility.yul\":8278:8290   */\n      revert\n        /* \"#utility.yul\":8302:8419   */\n    tag_89:\n        /* \"#utility.yul\":8411:8412   */\n      0x00\n        /* \"#utility.yul\":8408:8409   */\n      dup1\n        /* \"#utility.yul\":8401:8413   */\n      revert\n        /* \"#utility.yul\":8425:8527   */\n    tag_110:\n        /* \"#utility.yul\":8466:8472   */\n      0x00\n        /* \"#utility.yul\":8517:8519   */\n      0x1f\n        /* \"#utility.yul\":8513:8520   */\n      not\n        /* \"#utility.yul\":8508:8510   */\n      0x1f\n        /* \"#utility.yul\":8501:8506   */\n      dup4\n        /* \"#utility.yul\":8497:8511   */\n      add\n        /* \"#utility.yul\":8493:8521   */\n      and\n        /* \"#utility.yul\":8483:8521   */\n      swap1\n      pop\n        /* \"#utility.yul\":8425:8527   */\n      swap2\n      swap1\n      pop\n      jump\t// out\n        /* \"#utility.yul\":8533:8655   */\n    tag_71:\n        /* \"#utility.yul\":8606:8630   */\n      tag_167\n        /* \"#utility.yul\":8624:8629   */\n      dup2\n        /* \"#utility.yul\":8606:8630   */\n      tag_137\n      jump\t// in\n    tag_167:\n        /* \"#utility.yul\":8599:8604   */\n      dup2\n        /* \"#utility.yul\":8596:8631   */\n      eq\n        /* \"#utility.yul\":8586:8649   */\n      tag_168\n      jumpi\n        /* \"#utility.yul\":8645:8646   */\n      0x00\n        /* \"#utility.yul\":8642:8643   */\n      dup1\n        /* \"#utility.yul\":8635:8647   */\n      revert\n        /* \"#utility.yul\":8586:8649   */\n    tag_168:\n        /* \"#utility.yul\":8533:8655   */\n      pop\n      jump\t// out\n        /* \"#utility.yul\":8661:8783   */\n    tag_85:\n        /* \"#utility.yul\":8734:8758   */\n      tag_170\n        /* \"#utility.yul\":8752:8757   */\n      dup2\n        /* \"#utility.yul\":8734:8758   */\n      tag_118\n      jump\t// in\n    tag_170:\n        /* \"#utility.yul\":8727:8732   */\n      dup2\n        /* \"#utility.yul\":8724:8759   */\n      eq\n        /* \"#utility.yul\":8714:8777   */\n      tag_171\n      jumpi\n        /* \"#utility.yul\":8773:8774   */\n      0x00\n        /* \"#utility.yul\":8770:8771   */\n      dup1\n        /* \"#utility.yul\":8763:8775   */\n      revert\n        /* \"#utility.yul\":8714:8777   */\n    tag_171:\n        /* \"#utility.yul\":8661:8783   */\n      pop\n      jump\t// out\n\n    auxdata: 0xa264697066735822122012f382e1c8b2abb1ebf18bb7ede754ee2e744e29b121c1fc0b68397e008b2e5d64736f6c63430008070033\n}\n",
				"bytecode": {
					"linkReferences": {},
					"object": "608060405234801561001057600080fd5b50610965806100206000396000f3fe608060405234801561001057600080fd5b50600436106100365760003560e01c8063d6d6d74f1461003b578063fc277a951461006b575b600080fd5b610055600480360381019061005091906105ae565b610087565b60405161006291906106d8565b60405180910390f35b610085600480360381019061008091906105db565b61017b565b005b61008f6103b9565b6000808373ffffffffffffffffffffffffffffffffffffffff1673ffffffffffffffffffffffffffffffffffffffff168152602001908152602001600020604051806040016040529081600082015481526020016001820180546100f290610816565b80601f016020809104026020016040519081016040528092919081815260200182805461011e90610816565b801561016b5780601f106101405761010080835404028352916020019161016b565b820191906000526020600020905b81548152906001019060200180831161014e57829003601f168201915b5050505050815250509050919050565b6040518060400160405280607b81526020016040518060400160405280600581526020017f68656c6c6f0000000000000000000000000000000000000000000000000000008152508152506000803373ffffffffffffffffffffffffffffffffffffffff1673ffffffffffffffffffffffffffffffffffffffff16815260200190815260200160002060008201518160000155602082015181600101908051906020019061022a9291906103d3565b5090505060008060003373ffffffffffffffffffffffffffffffffffffffff1673ffffffffffffffffffffffffffffffffffffffff16815260200190815260200160002090506040518060400160405280600881526020017f6e6f2068656c6c6f0000000000000000000000000000000000000000000000008152508160010190805190602001906102bd9291906103d3565b5060008060003373ffffffffffffffffffffffffffffffffffffffff1673ffffffffffffffffffffffffffffffffffffffff1681526020019081526020016000206040518060400160405290816000820154815260200160018201805461032390610816565b80601f016020809104026020016040519081016040528092919081815260200182805461034f90610816565b801561039c5780601f106103715761010080835404028352916020019161039c565b820191906000526020600020905b81548152906001019060200180831161037f57829003601f168201915b50505050508152505090506101c881600001818152505050505050565b604051806040016040528060008152602001606081525090565b8280546103df90610816565b90600052602060002090601f0160209004810192826104015760008555610448565b82601f1061041a57805160ff1916838001178555610448565b82800160010185558215610448579182015b8281111561044757825182559160200191906001019061042c565b5b5090506104559190610459565b5090565b5b8082111561047257600081600090555060010161045a565b5090565b60006104896104848461071f565b6106fa565b905080838252602082019050828560208602820111156104ac576104ab6108dc565b5b60005b858110156104dc57816104c28882610599565b8452602084019350602083019250506001810190506104af565b5050509392505050565b60006104f96104f48461074b565b6106fa565b905082815260208101848484011115610515576105146108e1565b5b6105208482856107d4565b509392505050565b60008135905061053781610901565b92915050565b600082601f830112610552576105516108d7565b5b8135610562848260208601610476565b91505092915050565b600082601f8301126105805761057f6108d7565b5b81356105908482602086016104e6565b91505092915050565b6000813590506105a881610918565b92915050565b6000602082840312156105c4576105c36108eb565b5b60006105d284828501610528565b91505092915050565b600080604083850312156105f2576105f16108eb565b5b600083013567ffffffffffffffff8111156106105761060f6108e6565b5b61061c8582860161053d565b925050602083013567ffffffffffffffff81111561063d5761063c6108e6565b5b6106498582860161056b565b9150509250929050565b600061065e8261077c565b6106688185610787565b93506106788185602086016107e3565b610681816108f0565b840191505092915050565b60006040830160008301516106a460008601826106c9565b50602083015184820360208601526106bc8282610653565b9150508091505092915050565b6106d2816107ca565b82525050565b600060208201905081810360008301526106f2818461068c565b905092915050565b6000610704610715565b90506107108282610848565b919050565b6000604051905090565b600067ffffffffffffffff82111561073a576107396108a8565b5b602082029050602081019050919050565b600067ffffffffffffffff821115610766576107656108a8565b5b61076f826108f0565b9050602081019050919050565b600081519050919050565b600082825260208201905092915050565b60006107a3826107aa565b9050919050565b600073ffffffffffffffffffffffffffffffffffffffff82169050919050565b6000819050919050565b82818337600083830152505050565b60005b838110156108015780820151818401526020810190506107e6565b83811115610810576000848401525b50505050565b6000600282049050600182168061082e57607f821691505b6020821081141561084257610841610879565b5b50919050565b610851826108f0565b810181811067ffffffffffffffff821117156108705761086f6108a8565b5b80604052505050565b7f4e487b7100000000000000000000000000000000000000000000000000000000600052602260045260246000fd5b7f4e487b7100000000000000000000000000000000000000000000000000000000600052604160045260246000fd5b600080fd5b600080fd5b600080fd5b600080fd5b600080fd5b6000601f19601f8301169050919050565b61090a81610798565b811461091557600080fd5b50565b610921816107ca565b811461092c57600080fd5b5056fea264697066735822122012f382e1c8b2abb1ebf18bb7ede754ee2e744e29b121c1fc0b68397e008b2e5d64736f6c63430008070033",
					"opcodes": "PUSH1 0x80 PUSH1 0x40 MSTORE CALLVALUE DUP1 ISZERO PUSH2 0x10 JUMPI PUSH1 0x0 DUP1 REVERT JUMPDEST POP PUSH2 0x965 DUP1 PUSH2 0x20 PUSH1 0x0 CODECOPY PUSH1 0x0 RETURN INVALID PUSH1 0x80 PUSH1 0x40 MSTORE CALLVALUE DUP1 ISZERO PUSH2 0x10 JUMPI PUSH1 0x0 DUP1 REVERT JUMPDEST POP PUSH1 0x4 CALLDATASIZE LT PUSH2 0x36 JUMPI PUSH1 0x0 CALLDATALOAD PUSH1 0xE0 SHR DUP1 PUSH4 0xD6D6D74F EQ PUSH2 0x3B JUMPI DUP1 PUSH4 0xFC277A95 EQ PUSH2 0x6B JUMPI JUMPDEST PUSH1 0x0 DUP1 REVERT JUMPDEST PUSH2 0x55 PUSH1 0x4 DUP1 CALLDATASIZE SUB DUP2 ADD SWAP1 PUSH2 0x50 SWAP2 SWAP1 PUSH2 0x5AE JUMP JUMPDEST PUSH2 0x87 JUMP JUMPDEST PUSH1 0x40 MLOAD PUSH2 0x62 SWAP2 SWAP1 PUSH2 0x6D8 JUMP JUMPDEST PUSH1 0x40 MLOAD DUP1 SWAP2 SUB SWAP1 RETURN JUMPDEST PUSH2 0x85 PUSH1 0x4 DUP1 CALLDATASIZE SUB DUP2 ADD SWAP1 PUSH2 0x80 SWAP2 SWAP1 PUSH2 0x5DB JUMP JUMPDEST PUSH2 0x17B JUMP JUMPDEST STOP JUMPDEST PUSH2 0x8F PUSH2 0x3B9 JUMP JUMPDEST PUSH1 0x0 DUP1 DUP4 PUSH20 0xFFFFFFFFFFFFFFFFFFFFFFFFFFFFFFFFFFFFFFFF AND PUSH20 0xFFFFFFFFFFFFFFFFFFFFFFFFFFFFFFFFFFFFFFFF AND DUP2 MSTORE PUSH1 0x20 ADD SWAP1 DUP2 MSTORE PUSH1 0x20 ADD PUSH1 0x0 KECCAK256 PUSH1 0x40 MLOAD DUP1 PUSH1 0x40 ADD PUSH1 0x40 MSTORE SWAP1 DUP2 PUSH1 0x0 DUP3 ADD SLOAD DUP2 MSTORE PUSH1 0x20 ADD PUSH1 0x1 DUP3 ADD DUP1 SLOAD PUSH2 0xF2 SWAP1 PUSH2 0x816 JUMP JUMPDEST DUP1 PUSH1 0x1F ADD PUSH1 0x20 DUP1 SWAP2 DIV MUL PUSH1 0x20 ADD PUSH1 0x40 MLOAD SWAP1 DUP2 ADD PUSH1 0x40 MSTORE DUP1 SWAP3 SWAP2 SWAP1 DUP2 DUP2 MSTORE PUSH1 0x20 ADD DUP3 DUP1 SLOAD PUSH2 0x11E SWAP1 PUSH2 0x816 JUMP JUMPDEST DUP1 ISZERO PUSH2 0x16B JUMPI DUP1 PUSH1 0x1F LT PUSH2 0x140 JUMPI PUSH2 0x100 DUP1 DUP4 SLOAD DIV MUL DUP4 MSTORE SWAP2 PUSH1 0x20 ADD SWAP2 PUSH2 0x16B JUMP JUMPDEST DUP3 ADD SWAP2 SWAP1 PUSH1 0x0 MSTORE PUSH1 0x20 PUSH1 0x0 KECCAK256 SWAP1 JUMPDEST DUP2 SLOAD DUP2 MSTORE SWAP1 PUSH1 0x1 ADD SWAP1 PUSH1 0x20 ADD DUP1 DUP4 GT PUSH2 0x14E JUMPI DUP3 SWAP1 SUB PUSH1 0x1F AND DUP3 ADD SWAP2 JUMPDEST POP POP POP POP POP DUP2 MSTORE POP POP SWAP1 POP SWAP2 SWAP1 POP JUMP JUMPDEST PUSH1 0x40 MLOAD DUP1 PUSH1 0x40 ADD PUSH1 0x40 MSTORE DUP1 PUSH1 0x7B DUP2 MSTORE PUSH1 0x20 ADD PUSH1 0x40 MLOAD DUP1 PUSH1 0x40 ADD PUSH1 0x40 MSTORE DUP1 PUSH1 0x5 DUP2 MSTORE PUSH1 0x20 ADD PUSH32 0x68656C6C6F000000000000000000000000000000000000000000000000000000 DUP2 MSTORE POP DUP2 MSTORE POP PUSH1 0x0 DUP1 CALLER PUSH20 0xFFFFFFFFFFFFFFFFFFFFFFFFFFFFFFFFFFFFFFFF AND PUSH20 0xFFFFFFFFFFFFFFFFFFFFFFFFFFFFFFFFFFFFFFFF AND DUP2 MSTORE PUSH1 0x20 ADD SWAP1 DUP2 MSTORE PUSH1 0x20 ADD PUSH1 0x0 KECCAK256 PUSH1 0x0 DUP3 ADD MLOAD DUP2 PUSH1 0x0 ADD SSTORE PUSH1 0x20 DUP3 ADD MLOAD DUP2 PUSH1 0x1 ADD SWAP1 DUP1 MLOAD SWAP1 PUSH1 0x20 ADD SWAP1 PUSH2 0x22A SWAP3 SWAP2 SWAP1 PUSH2 0x3D3 JUMP JUMPDEST POP SWAP1 POP POP PUSH1 0x0 DUP1 PUSH1 0x0 CALLER PUSH20 0xFFFFFFFFFFFFFFFFFFFFFFFFFFFFFFFFFFFFFFFF AND PUSH20 0xFFFFFFFFFFFFFFFFFFFFFFFFFFFFFFFFFFFFFFFF AND DUP2 MSTORE PUSH1 0x20 ADD SWAP1 DUP2 MSTORE PUSH1 0x20 ADD PUSH1 0x0 KECCAK256 SWAP1 POP PUSH1 0x40 MLOAD DUP1 PUSH1 0x40 ADD PUSH1 0x40 MSTORE DUP1 PUSH1 0x8 DUP2 MSTORE PUSH1 0x20 ADD PUSH32 0x6E6F2068656C6C6F000000000000000000000000000000000000000000000000 DUP2 MSTORE POP DUP2 PUSH1 0x1 ADD SWAP1 DUP1 MLOAD SWAP1 PUSH1 0x20 ADD SWAP1 PUSH2 0x2BD SWAP3 SWAP2 SWAP1 PUSH2 0x3D3 JUMP JUMPDEST POP PUSH1 0x0 DUP1 PUSH1 0x0 CALLER PUSH20 0xFFFFFFFFFFFFFFFFFFFFFFFFFFFFFFFFFFFFFFFF AND PUSH20 0xFFFFFFFFFFFFFFFFFFFFFFFFFFFFFFFFFFFFFFFF AND DUP2 MSTORE PUSH1 0x20 ADD SWAP1 DUP2 MSTORE PUSH1 0x20 ADD PUSH1 0x0 KECCAK256 PUSH1 0x40 MLOAD DUP1 PUSH1 0x40 ADD PUSH1 0x40 MSTORE SWAP1 DUP2 PUSH1 0x0 DUP3 ADD SLOAD DUP2 MSTORE PUSH1 0x20 ADD PUSH1 0x1 DUP3 ADD DUP1 SLOAD PUSH2 0x323 SWAP1 PUSH2 0x816 JUMP JUMPDEST DUP1 PUSH1 0x1F ADD PUSH1 0x20 DUP1 SWAP2 DIV MUL PUSH1 0x20 ADD PUSH1 0x40 MLOAD SWAP1 DUP2 ADD PUSH1 0x40 MSTORE DUP1 SWAP3 SWAP2 SWAP1 DUP2 DUP2 MSTORE PUSH1 0x20 ADD DUP3 DUP1 SLOAD PUSH2 0x34F SWAP1 PUSH2 0x816 JUMP JUMPDEST DUP1 ISZERO PUSH2 0x39C JUMPI DUP1 PUSH1 0x1F LT PUSH2 0x371 JUMPI PUSH2 0x100 DUP1 DUP4 SLOAD DIV MUL DUP4 MSTORE SWAP2 PUSH1 0x20 ADD SWAP2 PUSH2 0x39C JUMP JUMPDEST DUP3 ADD SWAP2 SWAP1 PUSH1 0x0 MSTORE PUSH1 0x20 PUSH1 0x0 KECCAK256 SWAP1 JUMPDEST DUP2 SLOAD DUP2 MSTORE SWAP1 PUSH1 0x1 ADD SWAP1 PUSH1 0x20 ADD DUP1 DUP4 GT PUSH2 0x37F JUMPI DUP3 SWAP1 SUB PUSH1 0x1F AND DUP3 ADD SWAP2 JUMPDEST POP POP POP POP POP DUP2 MSTORE POP POP SWAP1 POP PUSH2 0x1C8 DUP2 PUSH1 0x0 ADD DUP2 DUP2 MSTORE POP POP POP POP POP POP JUMP JUMPDEST PUSH1 0x40 MLOAD DUP1 PUSH1 0x40 ADD PUSH1 0x40 MSTORE DUP1 PUSH1 0x0 DUP2 MSTORE PUSH1 0x20 ADD PUSH1 0x60 DUP2 MSTORE POP SWAP1 JUMP JUMPDEST DUP3 DUP1 SLOAD PUSH2 0x3DF SWAP1 PUSH2 0x816 JUMP JUMPDEST SWAP1 PUSH1 0x0 MSTORE PUSH1 0x20 PUSH1 0x0 KECCAK256 SWAP1 PUSH1 0x1F ADD PUSH1 0x20 SWAP1 DIV DUP2 ADD SWAP3 DUP3 PUSH2 0x401 JUMPI PUSH1 0x0 DUP6 SSTORE PUSH2 0x448 JUMP JUMPDEST DUP3 PUSH1 0x1F LT PUSH2 0x41A JUMPI DUP1 MLOAD PUSH1 0xFF NOT AND DUP4 DUP1 ADD OR DUP6 SSTORE PUSH2 0x448 JUMP JUMPDEST DUP3 DUP1 ADD PUSH1 0x1 ADD DUP6 SSTORE DUP3 ISZERO PUSH2 0x448 JUMPI SWAP2 DUP3 ADD JUMPDEST DUP3 DUP2 GT ISZERO PUSH2 0x447 JUMPI DUP3 MLOAD DUP3 SSTORE SWAP2 PUSH1 0x20 ADD SWAP2 SWAP1 PUSH1 0x1 ADD SWAP1 PUSH2 0x42C JUMP JUMPDEST JUMPDEST POP SWAP1 POP PUSH2 0x455 SWAP2 SWAP1 PUSH2 0x459 JUMP JUMPDEST POP SWAP1 JUMP JUMPDEST JUMPDEST DUP1 DUP3 GT ISZERO PUSH2 0x472 JUMPI PUSH1 0x0 DUP2 PUSH1 0x0 SWAP1 SSTORE POP PUSH1 0x1 ADD PUSH2 0x45A JUMP JUMPDEST POP SWAP1 JUMP JUMPDEST PUSH1 0x0 PUSH2 0x489 PUSH2 0x484 DUP5 PUSH2 0x71F JUMP JUMPDEST PUSH2 0x6FA JUMP JUMPDEST SWAP1 POP DUP1 DUP4 DUP3 MSTORE PUSH1 0x20 DUP3 ADD SWAP1 POP DUP3 DUP6 PUSH1 0x20 DUP7 MUL DUP3 ADD GT ISZERO PUSH2 0x4AC JUMPI PUSH2 0x4AB PUSH2 0x8DC JUMP JUMPDEST JUMPDEST PUSH1 0x0 JUMPDEST DUP6 DUP2 LT ISZERO PUSH2 0x4DC JUMPI DUP2 PUSH2 0x4C2 DUP9 DUP3 PUSH2 0x599 JUMP JUMPDEST DUP5 MSTORE PUSH1 0x20 DUP5 ADD SWAP4 POP PUSH1 0x20 DUP4 ADD SWAP3 POP POP PUSH1 0x1 DUP2 ADD SWAP1 POP PUSH2 0x4AF JUMP JUMPDEST POP POP POP SWAP4 SWAP3 POP POP POP JUMP JUMPDEST PUSH1 0x0 PUSH2 0x4F9 PUSH2 0x4F4 DUP5 PUSH2 0x74B JUMP JUMPDEST PUSH2 0x6FA JUMP JUMPDEST SWAP1 POP DUP3 DUP2 MSTORE PUSH1 0x20 DUP2 ADD DUP5 DUP5 DUP5 ADD GT ISZERO PUSH2 0x515 JUMPI PUSH2 0x514 PUSH2 0x8E1 JUMP JUMPDEST JUMPDEST PUSH2 0x520 DUP5 DUP3 DUP6 PUSH2 0x7D4 JUMP JUMPDEST POP SWAP4 SWAP3 POP POP POP JUMP JUMPDEST PUSH1 0x0 DUP2 CALLDATALOAD SWAP1 POP PUSH2 0x537 DUP2 PUSH2 0x901 JUMP JUMPDEST SWAP3 SWAP2 POP POP JUMP JUMPDEST PUSH1 0x0 DUP3 PUSH1 0x1F DUP4 ADD SLT PUSH2 0x552 JUMPI PUSH2 0x551 PUSH2 0x8D7 JUMP JUMPDEST JUMPDEST DUP2 CALLDATALOAD PUSH2 0x562 DUP5 DUP3 PUSH1 0x20 DUP7 ADD PUSH2 0x476 JUMP JUMPDEST SWAP2 POP POP SWAP3 SWAP2 POP POP JUMP JUMPDEST PUSH1 0x0 DUP3 PUSH1 0x1F DUP4 ADD SLT PUSH2 0x580 JUMPI PUSH2 0x57F PUSH2 0x8D7 JUMP JUMPDEST JUMPDEST DUP2 CALLDATALOAD PUSH2 0x590 DUP5 DUP3 PUSH1 0x20 DUP7 ADD PUSH2 0x4E6 JUMP JUMPDEST SWAP2 POP POP SWAP3 SWAP2 POP POP JUMP JUMPDEST PUSH1 0x0 DUP2 CALLDATALOAD SWAP1 POP PUSH2 0x5A8 DUP2 PUSH2 0x918 JUMP JUMPDEST SWAP3 SWAP2 POP POP JUMP JUMPDEST PUSH1 0x0 PUSH1 0x20 DUP3 DUP5 SUB SLT ISZERO PUSH2 0x5C4 JUMPI PUSH2 0x5C3 PUSH2 0x8EB JUMP JUMPDEST JUMPDEST PUSH1 0x0 PUSH2 0x5D2 DUP5 DUP3 DUP6 ADD PUSH2 0x528 JUMP JUMPDEST SWAP2 POP POP SWAP3 SWAP2 POP POP JUMP JUMPDEST PUSH1 0x0 DUP1 PUSH1 0x40 DUP4 DUP6 SUB SLT ISZERO PUSH2 0x5F2 JUMPI PUSH2 0x5F1 PUSH2 0x8EB JUMP JUMPDEST JUMPDEST PUSH1 0x0 DUP4 ADD CALLDATALOAD PUSH8 0xFFFFFFFFFFFFFFFF DUP2 GT ISZERO PUSH2 0x610 JUMPI PUSH2 0x60F PUSH2 0x8E6 JUMP JUMPDEST JUMPDEST PUSH2 0x61C DUP6 DUP3 DUP7 ADD PUSH2 0x53D JUMP JUMPDEST SWAP3 POP POP PUSH1 0x20 DUP4 ADD CALLDATALOAD PUSH8 0xFFFFFFFFFFFFFFFF DUP2 GT ISZERO PUSH2 0x63D JUMPI PUSH2 0x63C PUSH2 0x8E6 JUMP JUMPDEST JUMPDEST PUSH2 0x649 DUP6 DUP3 DUP7 ADD PUSH2 0x56B JUMP JUMPDEST SWAP2 POP POP SWAP3 POP SWAP3 SWAP1 POP JUMP JUMPDEST PUSH1 0x0 PUSH2 0x65E DUP3 PUSH2 0x77C JUMP JUMPDEST PUSH2 0x668 DUP2 DUP6 PUSH2 0x787 JUMP JUMPDEST SWAP4 POP PUSH2 0x678 DUP2 DUP6 PUSH1 0x20 DUP7 ADD PUSH2 0x7E3 JUMP JUMPDEST PUSH2 0x681 DUP2 PUSH2 0x8F0 JUMP JUMPDEST DUP5 ADD SWAP2 POP POP SWAP3 SWAP2 POP POP JUMP JUMPDEST PUSH1 0x0 PUSH1 0x40 DUP4 ADD PUSH1 0x0 DUP4 ADD MLOAD PUSH2 0x6A4 PUSH1 0x0 DUP7 ADD DUP3 PUSH2 0x6C9 JUMP JUMPDEST POP PUSH1 0x20 DUP4 ADD MLOAD DUP5 DUP3 SUB PUSH1 0x20 DUP7 ADD MSTORE PUSH2 0x6BC DUP3 DUP3 PUSH2 0x653 JUMP JUMPDEST SWAP2 POP POP DUP1 SWAP2 POP POP SWAP3 SWAP2 POP POP JUMP JUMPDEST PUSH2 0x6D2 DUP2 PUSH2 0x7CA JUMP JUMPDEST DUP3 MSTORE POP POP JUMP JUMPDEST PUSH1 0x0 PUSH1 0x20 DUP3 ADD SWAP1 POP DUP2 DUP2 SUB PUSH1 0x0 DUP4 ADD MSTORE PUSH2 0x6F2 DUP2 DUP5 PUSH2 0x68C JUMP JUMPDEST SWAP1 POP SWAP3 SWAP2 POP POP JUMP JUMPDEST PUSH1 0x0 PUSH2 0x704 PUSH2 0x715 JUMP JUMPDEST SWAP1 POP PUSH2 0x710 DUP3 DUP3 PUSH2 0x848 JUMP JUMPDEST SWAP2 SWAP1 POP JUMP JUMPDEST PUSH1 0x0 PUSH1 0x40 MLOAD SWAP1 POP SWAP1 JUMP JUMPDEST PUSH1 0x0 PUSH8 0xFFFFFFFFFFFFFFFF DUP3 GT ISZERO PUSH2 0x73A JUMPI PUSH2 0x739 PUSH2 0x8A8 JUMP JUMPDEST JUMPDEST PUSH1 0x20 DUP3 MUL SWAP1 POP PUSH1 0x20 DUP2 ADD SWAP1 POP SWAP2 SWAP1 POP JUMP JUMPDEST PUSH1 0x0 PUSH8 0xFFFFFFFFFFFFFFFF DUP3 GT ISZERO PUSH2 0x766 JUMPI PUSH2 0x765 PUSH2 0x8A8 JUMP JUMPDEST JUMPDEST PUSH2 0x76F DUP3 PUSH2 0x8F0 JUMP JUMPDEST SWAP1 POP PUSH1 0x20 DUP2 ADD SWAP1 POP SWAP2 SWAP1 POP JUMP JUMPDEST PUSH1 0x0 DUP2 MLOAD SWAP1 POP SWAP2 SWAP1 POP JUMP JUMPDEST PUSH1 0x0 DUP3 DUP3 MSTORE PUSH1 0x20 DUP3 ADD SWAP1 POP SWAP3 SWAP2 POP POP JUMP JUMPDEST PUSH1 0x0 PUSH2 0x7A3 DUP3 PUSH2 0x7AA JUMP JUMPDEST SWAP1 POP SWAP2 SWAP1 POP JUMP JUMPDEST PUSH1 0x0 PUSH20 0xFFFFFFFFFFFFFFFFFFFFFFFFFFFFFFFFFFFFFFFF DUP3 AND SWAP1 POP SWAP2 SWAP1 POP JUMP JUMPDEST PUSH1 0x0 DUP2 SWAP1 POP SWAP2 SWAP1 POP JUMP JUMPDEST DUP3 DUP2 DUP4 CALLDATACOPY PUSH1 0x0 DUP4 DUP4 ADD MSTORE POP POP POP JUMP JUMPDEST PUSH1 0x0 JUMPDEST DUP4 DUP2 LT ISZERO PUSH2 0x801 JUMPI DUP1 DUP3 ADD MLOAD DUP2 DUP5 ADD MSTORE PUSH1 0x20 DUP2 ADD SWAP1 POP PUSH2 0x7E6 JUMP JUMPDEST DUP4 DUP2 GT ISZERO PUSH2 0x810 JUMPI PUSH1 0x0 DUP5 DUP5 ADD MSTORE JUMPDEST POP POP POP POP JUMP JUMPDEST PUSH1 0x0 PUSH1 0x2 DUP3 DIV SWAP1 POP PUSH1 0x1 DUP3 AND DUP1 PUSH2 0x82E JUMPI PUSH1 0x7F DUP3 AND SWAP2 POP JUMPDEST PUSH1 0x20 DUP3 LT DUP2 EQ ISZERO PUSH2 0x842 JUMPI PUSH2 0x841 PUSH2 0x879 JUMP JUMPDEST JUMPDEST POP SWAP2 SWAP1 POP JUMP JUMPDEST PUSH2 0x851 DUP3 PUSH2 0x8F0 JUMP JUMPDEST DUP2 ADD DUP2 DUP2 LT PUSH8 0xFFFFFFFFFFFFFFFF DUP3 GT OR ISZERO PUSH2 0x870 JUMPI PUSH2 0x86F PUSH2 0x8A8 JUMP JUMPDEST JUMPDEST DUP1 PUSH1 0x40 MSTORE POP POP POP JUMP JUMPDEST PUSH32 0x4E487B7100000000000000000000000000000000000000000000000000000000 PUSH1 0x0 MSTORE PUSH1 0x22 PUSH1 0x4 MSTORE PUSH1 0x24 PUSH1 0x0 REVERT JUMPDEST PUSH32 0x4E487B7100000000000000000000000000000000000000000000000000000000 PUSH1 0x0 MSTORE PUSH1 0x41 PUSH1 0x4 MSTORE PUSH1 0x24 PUSH1 0x0 REVERT JUMPDEST PUSH1 0x0 DUP1 REVERT JUMPDEST PUSH1 0x0 DUP1 REVERT JUMPDEST PUSH1 0x0 DUP1 REVERT JUMPDEST PUSH1 0x0 DUP1 REVERT JUMPDEST PUSH1 0x0 DUP1 REVERT JUMPDEST PUSH1 0x0 PUSH1 0x1F NOT PUSH1 0x1F DUP4 ADD AND SWAP1 POP SWAP2 SWAP1 POP JUMP JUMPDEST PUSH2 0x90A DUP2 PUSH2 0x798 JUMP JUMPDEST DUP2 EQ PUSH2 0x915 JUMPI PUSH1 0x0 DUP1 REVERT JUMPDEST POP JUMP JUMPDEST PUSH2 0x921 DUP2 PUSH2 0x7CA JUMP JUMPDEST DUP2 EQ PUSH2 0x92C JUMPI PUSH1 0x0 DUP1 REVERT JUMPDEST POP JUMP INVALID LOG2 PUSH5 0x6970667358 0x22 SLT KECCAK256 SLT RETURN DUP3 0xE1 0xC8 0xB2 0xAB 0xB1 0xEB CALL DUP12 0xB7 0xED 0xE7 SLOAD 0xEE 0x2E PUSH21 0x4E29B121C1FC0B68397E008B2E5D64736F6C634300 ADDMOD SMOD STOP CALLER "
				},
				"gasEstimates": {
					"creation": {
						"codeDepositCost": "481000",
						"executionCost": "518",
						"totalCost": "481518"
					},
					"external": {
						"examples(uint256[],string)": "infinite",
						"readOnlys(address)": "infinite"
					}
				},
				"methodIdentifiers": {
					"examples(uint256[],string)": "fc277a95",
					"readOnlys(address)": "d6d6d74f"
				}
			},
			"storageLayout": {
				"storage": [
					{
						"astId": 11,
						"contract": "solidity_korea/storage_calldata_memory.sol:Storage",
						"label": "myStructs",
						"offset": 0,
						"slot": "0",
						"type": "t_mapping(t_address,t_struct(MyStruct)6_storage)"
					}
				],
				"types": {
					"t_address": {
						"encoding": "inplace",
						"label": "address",
						"numberOfBytes": "20"
					},
					"t_mapping(t_address,t_struct(MyStruct)6_storage)": {
						"encoding": "mapping",
						"key": "t_address",
						"label": "mapping(address => struct Storage.MyStruct)",
						"numberOfBytes": "32",
						"value": "t_struct(MyStruct)6_storage"
					},
					"t_string_storage": {
						"encoding": "bytes",
						"label": "string",
						"numberOfBytes": "32"
					},
					"t_struct(MyStruct)6_storage": {
						"encoding": "inplace",
						"label": "struct Storage.MyStruct",
						"members": [
							{
								"astId": 3,
								"contract": "solidity_korea/storage_calldata_memory.sol:Storage",
								"label": "foo",
								"offset": 0,
								"slot": "0",
								"type": "t_uint256"
							},
							{
								"astId": 5,
								"contract": "solidity_korea/storage_calldata_memory.sol:Storage",
								"label": "text",
								"offset": 0,
								"slot": "1",
								"type": "t_string_storage"
							}
						],
						"numberOfBytes": "64"
					},
					"t_uint256": {
						"encoding": "inplace",
						"label": "uint256",
						"numberOfBytes": "32"
					}
				}
			},
			"userdoc": {
				"kind": "user",
				"methods": {},
				"version": 1
			}
		}
	}
}