{
	"solidity_korea/CallTestContract.sol": {
		"TestContract": {
			"abi": [
				{
					"inputs": [],
					"name": "getX",
					"outputs": [
						{
							"internalType": "uint256",
							"name": "",
							"type": "uint256"
						}
					],
					"stateMutability": "view",
					"type": "function"
				},
				{
					"inputs": [],
					"name": "getXandValue",
					"outputs": [
						{
							"internalType": "uint256",
							"name": "",
							"type": "uint256"
						},
						{
							"internalType": "uint256",
							"name": "",
							"type": "uint256"
						}
					],
					"stateMutability": "view",
					"type": "function"
				},
				{
					"inputs": [
						{
							"internalType": "uint256",
							"name": "_x",
							"type": "uint256"
						}
					],
					"name": "setX",
					"outputs": [],
					"stateMutability": "nonpayable",
					"type": "function"
				},
				{
					"inputs": [
						{
							"internalType": "uint256",
							"name": "_x",
							"type": "uint256"
						}
					],
					"name": "setXandReceiveEther",
					"outputs": [],
					"stateMutability": "payable",
					"type": "function"
				},
				{
					"inputs": [],
					"name": "value",
					"outputs": [
						{
							"internalType": "uint256",
							"name": "",
							"type": "uint256"
						}
					],
					"stateMutability": "view",
					"type": "function"
				},
				{
					"inputs": [],
					"name": "x",
					"outputs": [
						{
							"internalType": "uint256",
							"name": "",
							"type": "uint256"
						}
					],
					"stateMutability": "view",
					"type": "function"
				}
			],
			"devdoc": {
				"kind": "dev",
				"methods": {},
				"version": 1
			},
			"evm": {
				"assembly": "    /* \"solidity_korea/CallTestContract.sol\":176:562  contract TestContract {... */\n  mstore(0x40, 0x80)\n    /* \"solidity_korea/CallTestContract.sol\":244:247  123 */\n  0x7b\n    /* \"solidity_korea/CallTestContract.sol\":224:247  uint public value = 123 */\n  0x01\n  sstore\n    /* \"solidity_korea/CallTestContract.sol\":176:562  contract TestContract {... */\n  callvalue\n  dup1\n  iszero\n  tag_1\n  jumpi\n  0x00\n  dup1\n  revert\ntag_1:\n  pop\n  dataSize(sub_0)\n  dup1\n  dataOffset(sub_0)\n  0x00\n  codecopy\n  0x00\n  return\nstop\n\nsub_0: assembly {\n        /* \"solidity_korea/CallTestContract.sol\":176:562  contract TestContract {... */\n      mstore(0x40, 0x80)\n      jumpi(tag_1, lt(calldatasize, 0x04))\n      shr(0xe0, calldataload(0x00))\n      dup1\n      0x02f42be9\n      eq\n      tag_2\n      jumpi\n      dup1\n      0x0c55699c\n      eq\n      tag_3\n      jumpi\n      dup1\n      0x3fa4f245\n      eq\n      tag_4\n      jumpi\n      dup1\n      0x4018d9aa\n      eq\n      tag_5\n      jumpi\n      dup1\n      0x5197c7aa\n      eq\n      tag_6\n      jumpi\n      dup1\n      0xd6c7a3be\n      eq\n      tag_7\n      jumpi\n    tag_1:\n      0x00\n      dup1\n      revert\n        /* \"solidity_korea/CallTestContract.sol\":387:490  function setXandReceiveEther(uint _x) external payable {... */\n    tag_2:\n      tag_8\n      0x04\n      dup1\n      calldatasize\n      sub\n      dup2\n      add\n      swap1\n      tag_9\n      swap2\n      swap1\n      tag_10\n      jump\t// in\n    tag_9:\n      tag_11\n      jump\t// in\n    tag_8:\n      stop\n        /* \"solidity_korea/CallTestContract.sol\":205:218  uint public x */\n    tag_3:\n      callvalue\n      dup1\n      iszero\n      tag_12\n      jumpi\n      0x00\n      dup1\n      revert\n    tag_12:\n      pop\n      tag_13\n      tag_14\n      jump\t// in\n    tag_13:\n      mload(0x40)\n      tag_15\n      swap2\n      swap1\n      tag_16\n      jump\t// in\n    tag_15:\n      mload(0x40)\n      dup1\n      swap2\n      sub\n      swap1\n      return\n        /* \"solidity_korea/CallTestContract.sol\":224:247  uint public value = 123 */\n    tag_4:\n      callvalue\n      dup1\n      iszero\n      tag_17\n      jumpi\n      0x00\n      dup1\n      revert\n    tag_17:\n      pop\n      tag_18\n      tag_19\n      jump\t// in\n    tag_18:\n      mload(0x40)\n      tag_20\n      swap2\n      swap1\n      tag_16\n      jump\t// in\n    tag_20:\n      mload(0x40)\n      dup1\n      swap2\n      sub\n      swap1\n      return\n        /* \"solidity_korea/CallTestContract.sol\":254:309  function setX(uint _x) external {... */\n    tag_5:\n      callvalue\n      dup1\n      iszero\n      tag_21\n      jumpi\n      0x00\n      dup1\n      revert\n    tag_21:\n      pop\n      tag_22\n      0x04\n      dup1\n      calldatasize\n      sub\n      dup2\n      add\n      swap1\n      tag_23\n      swap2\n      swap1\n      tag_10\n      jump\t// in\n    tag_23:\n      tag_24\n      jump\t// in\n    tag_22:\n      stop\n        /* \"solidity_korea/CallTestContract.sol\":314:382  function getX() external view returns(uint){... */\n    tag_6:\n      callvalue\n      dup1\n      iszero\n      tag_25\n      jumpi\n      0x00\n      dup1\n      revert\n    tag_25:\n      pop\n      tag_26\n      tag_27\n      jump\t// in\n    tag_26:\n      mload(0x40)\n      tag_28\n      swap2\n      swap1\n      tag_16\n      jump\t// in\n    tag_28:\n      mload(0x40)\n      dup1\n      swap2\n      sub\n      swap1\n      return\n        /* \"solidity_korea/CallTestContract.sol\":495:560  function getXandValue() external view returns(uint, uint){... */\n    tag_7:\n      callvalue\n      dup1\n      iszero\n      tag_29\n      jumpi\n      0x00\n      dup1\n      revert\n    tag_29:\n      pop\n      tag_30\n      tag_31\n      jump\t// in\n    tag_30:\n      mload(0x40)\n      tag_32\n      swap3\n      swap2\n      swap1\n      tag_33\n      jump\t// in\n    tag_32:\n      mload(0x40)\n      dup1\n      swap2\n      sub\n      swap1\n      return\n        /* \"solidity_korea/CallTestContract.sol\":387:490  function setXandReceiveEther(uint _x) external payable {... */\n    tag_11:\n        /* \"solidity_korea/CallTestContract.sol\":455:457  _x */\n      dup1\n        /* \"solidity_korea/CallTestContract.sol\":451:452  x */\n      0x00\n        /* \"solidity_korea/CallTestContract.sol\":451:457  x = _x */\n      dup2\n      swap1\n      sstore\n      pop\n        /* \"solidity_korea/CallTestContract.sol\":474:483  msg.value */\n      callvalue\n        /* \"solidity_korea/CallTestContract.sol\":466:471  value */\n      sload(0x01)\n        /* \"solidity_korea/CallTestContract.sol\":466:483  value - msg.value */\n      tag_35\n      swap2\n      swap1\n      tag_36\n      jump\t// in\n    tag_35:\n      pop\n        /* \"solidity_korea/CallTestContract.sol\":387:490  function setXandReceiveEther(uint _x) external payable {... */\n      pop\n      jump\t// out\n        /* \"solidity_korea/CallTestContract.sol\":205:218  uint public x */\n    tag_14:\n      sload(0x00)\n      dup2\n      jump\t// out\n        /* \"solidity_korea/CallTestContract.sol\":224:247  uint public value = 123 */\n    tag_19:\n      sload(0x01)\n      dup2\n      jump\t// out\n        /* \"solidity_korea/CallTestContract.sol\":254:309  function setX(uint _x) external {... */\n    tag_24:\n        /* \"solidity_korea/CallTestContract.sol\":300:302  _x */\n      dup1\n        /* \"solidity_korea/CallTestContract.sol\":296:297  x */\n      0x00\n        /* \"solidity_korea/CallTestContract.sol\":296:302  x = _x */\n      dup2\n      swap1\n      sstore\n      pop\n        /* \"solidity_korea/CallTestContract.sol\":254:309  function setX(uint _x) external {... */\n      pop\n      jump\t// out\n        /* \"solidity_korea/CallTestContract.sol\":314:382  function getX() external view returns(uint){... */\n    tag_27:\n        /* \"solidity_korea/CallTestContract.sol\":352:356  uint */\n      0x00\n        /* \"solidity_korea/CallTestContract.sol\":374:375  x */\n      dup1\n      sload\n        /* \"solidity_korea/CallTestContract.sol\":367:375  return x */\n      swap1\n      pop\n        /* \"solidity_korea/CallTestContract.sol\":314:382  function getX() external view returns(uint){... */\n      swap1\n      jump\t// out\n        /* \"solidity_korea/CallTestContract.sol\":495:560  function getXandValue() external view returns(uint, uint){... */\n    tag_31:\n        /* \"solidity_korea/CallTestContract.sol\":541:545  uint */\n      0x00\n        /* \"solidity_korea/CallTestContract.sol\":547:551  uint */\n      dup1\n        /* \"solidity_korea/CallTestContract.sol\":495:560  function getXandValue() external view returns(uint, uint){... */\n      swap2\n      jump\t// out\n        /* \"#utility.yul\":7:146   */\n    tag_41:\n        /* \"#utility.yul\":53:58   */\n      0x00\n        /* \"#utility.yul\":91:97   */\n      dup2\n        /* \"#utility.yul\":78:98   */\n      calldataload\n        /* \"#utility.yul\":69:98   */\n      swap1\n      pop\n        /* \"#utility.yul\":107:140   */\n      tag_43\n        /* \"#utility.yul\":134:139   */\n      dup2\n        /* \"#utility.yul\":107:140   */\n      tag_44\n      jump\t// in\n    tag_43:\n        /* \"#utility.yul\":7:146   */\n      swap3\n      swap2\n      pop\n      pop\n      jump\t// out\n        /* \"#utility.yul\":152:481   */\n    tag_10:\n        /* \"#utility.yul\":211:217   */\n      0x00\n        /* \"#utility.yul\":260:262   */\n      0x20\n        /* \"#utility.yul\":248:257   */\n      dup3\n        /* \"#utility.yul\":239:246   */\n      dup5\n        /* \"#utility.yul\":235:258   */\n      sub\n        /* \"#utility.yul\":231:263   */\n      slt\n        /* \"#utility.yul\":228:347   */\n      iszero\n      tag_46\n      jumpi\n        /* \"#utility.yul\":266:345   */\n      tag_47\n      tag_48\n      jump\t// in\n    tag_47:\n        /* \"#utility.yul\":228:347   */\n    tag_46:\n        /* \"#utility.yul\":386:387   */\n      0x00\n        /* \"#utility.yul\":411:464   */\n      tag_49\n        /* \"#utility.yul\":456:463   */\n      dup5\n        /* \"#utility.yul\":447:453   */\n      dup3\n        /* \"#utility.yul\":436:445   */\n      dup6\n        /* \"#utility.yul\":432:454   */\n      add\n        /* \"#utility.yul\":411:464   */\n      tag_41\n      jump\t// in\n    tag_49:\n        /* \"#utility.yul\":401:464   */\n      swap2\n      pop\n        /* \"#utility.yul\":357:474   */\n      pop\n        /* \"#utility.yul\":152:481   */\n      swap3\n      swap2\n      pop\n      pop\n      jump\t// out\n        /* \"#utility.yul\":487:605   */\n    tag_50:\n        /* \"#utility.yul\":574:598   */\n      tag_52\n        /* \"#utility.yul\":592:597   */\n      dup2\n        /* \"#utility.yul\":574:598   */\n      tag_53\n      jump\t// in\n    tag_52:\n        /* \"#utility.yul\":569:572   */\n      dup3\n        /* \"#utility.yul\":562:599   */\n      mstore\n        /* \"#utility.yul\":487:605   */\n      pop\n      pop\n      jump\t// out\n        /* \"#utility.yul\":611:833   */\n    tag_16:\n        /* \"#utility.yul\":704:708   */\n      0x00\n        /* \"#utility.yul\":742:744   */\n      0x20\n        /* \"#utility.yul\":731:740   */\n      dup3\n        /* \"#utility.yul\":727:745   */\n      add\n        /* \"#utility.yul\":719:745   */\n      swap1\n      pop\n        /* \"#utility.yul\":755:826   */\n      tag_55\n        /* \"#utility.yul\":823:824   */\n      0x00\n        /* \"#utility.yul\":812:821   */\n      dup4\n        /* \"#utility.yul\":808:825   */\n      add\n        /* \"#utility.yul\":799:805   */\n      dup5\n        /* \"#utility.yul\":755:826   */\n      tag_50\n      jump\t// in\n    tag_55:\n        /* \"#utility.yul\":611:833   */\n      swap3\n      swap2\n      pop\n      pop\n      jump\t// out\n        /* \"#utility.yul\":839:1171   */\n    tag_33:\n        /* \"#utility.yul\":960:964   */\n      0x00\n        /* \"#utility.yul\":998:1000   */\n      0x40\n        /* \"#utility.yul\":987:996   */\n      dup3\n        /* \"#utility.yul\":983:1001   */\n      add\n        /* \"#utility.yul\":975:1001   */\n      swap1\n      pop\n        /* \"#utility.yul\":1011:1082   */\n      tag_57\n        /* \"#utility.yul\":1079:1080   */\n      0x00\n        /* \"#utility.yul\":1068:1077   */\n      dup4\n        /* \"#utility.yul\":1064:1081   */\n      add\n        /* \"#utility.yul\":1055:1061   */\n      dup6\n        /* \"#utility.yul\":1011:1082   */\n      tag_50\n      jump\t// in\n    tag_57:\n        /* \"#utility.yul\":1092:1164   */\n      tag_58\n        /* \"#utility.yul\":1160:1162   */\n      0x20\n        /* \"#utility.yul\":1149:1158   */\n      dup4\n        /* \"#utility.yul\":1145:1163   */\n      add\n        /* \"#utility.yul\":1136:1142   */\n      dup5\n        /* \"#utility.yul\":1092:1164   */\n      tag_50\n      jump\t// in\n    tag_58:\n        /* \"#utility.yul\":839:1171   */\n      swap4\n      swap3\n      pop\n      pop\n      pop\n      jump\t// out\n        /* \"#utility.yul\":1258:1449   */\n    tag_36:\n        /* \"#utility.yul\":1298:1302   */\n      0x00\n        /* \"#utility.yul\":1318:1338   */\n      tag_62\n        /* \"#utility.yul\":1336:1337   */\n      dup3\n        /* \"#utility.yul\":1318:1338   */\n      tag_53\n      jump\t// in\n    tag_62:\n        /* \"#utility.yul\":1313:1338   */\n      swap2\n      pop\n        /* \"#utility.yul\":1352:1372   */\n      tag_63\n        /* \"#utility.yul\":1370:1371   */\n      dup4\n        /* \"#utility.yul\":1352:1372   */\n      tag_53\n      jump\t// in\n    tag_63:\n        /* \"#utility.yul\":1347:1372   */\n      swap3\n      pop\n        /* \"#utility.yul\":1391:1392   */\n      dup3\n        /* \"#utility.yul\":1388:1389   */\n      dup3\n        /* \"#utility.yul\":1385:1393   */\n      lt\n        /* \"#utility.yul\":1382:1416   */\n      iszero\n      tag_64\n      jumpi\n        /* \"#utility.yul\":1396:1414   */\n      tag_65\n      tag_66\n      jump\t// in\n    tag_65:\n        /* \"#utility.yul\":1382:1416   */\n    tag_64:\n        /* \"#utility.yul\":1441:1442   */\n      dup3\n        /* \"#utility.yul\":1438:1439   */\n      dup3\n        /* \"#utility.yul\":1434:1443   */\n      sub\n        /* \"#utility.yul\":1426:1443   */\n      swap1\n      pop\n        /* \"#utility.yul\":1258:1449   */\n      swap3\n      swap2\n      pop\n      pop\n      jump\t// out\n        /* \"#utility.yul\":1455:1532   */\n    tag_53:\n        /* \"#utility.yul\":1492:1499   */\n      0x00\n        /* \"#utility.yul\":1521:1526   */\n      dup2\n        /* \"#utility.yul\":1510:1526   */\n      swap1\n      pop\n        /* \"#utility.yul\":1455:1532   */\n      swap2\n      swap1\n      pop\n      jump\t// out\n        /* \"#utility.yul\":1538:1718   */\n    tag_66:\n        /* \"#utility.yul\":1586:1663   */\n      0x4e487b7100000000000000000000000000000000000000000000000000000000\n        /* \"#utility.yul\":1583:1584   */\n      0x00\n        /* \"#utility.yul\":1576:1664   */\n      mstore\n        /* \"#utility.yul\":1683:1687   */\n      0x11\n        /* \"#utility.yul\":1680:1681   */\n      0x04\n        /* \"#utility.yul\":1673:1688   */\n      mstore\n        /* \"#utility.yul\":1707:1711   */\n      0x24\n        /* \"#utility.yul\":1704:1705   */\n      0x00\n        /* \"#utility.yul\":1697:1712   */\n      revert\n        /* \"#utility.yul\":1847:1964   */\n    tag_48:\n        /* \"#utility.yul\":1956:1957   */\n      0x00\n        /* \"#utility.yul\":1953:1954   */\n      dup1\n        /* \"#utility.yul\":1946:1958   */\n      revert\n        /* \"#utility.yul\":1970:2092   */\n    tag_44:\n        /* \"#utility.yul\":2043:2067   */\n      tag_73\n        /* \"#utility.yul\":2061:2066   */\n      dup2\n        /* \"#utility.yul\":2043:2067   */\n      tag_53\n      jump\t// in\n    tag_73:\n        /* \"#utility.yul\":2036:2041   */\n      dup2\n        /* \"#utility.yul\":2033:2068   */\n      eq\n        /* \"#utility.yul\":2023:2086   */\n      tag_74\n      jumpi\n        /* \"#utility.yul\":2082:2083   */\n      0x00\n        /* \"#utility.yul\":2079:2080   */\n      dup1\n        /* \"#utility.yul\":2072:2084   */\n      revert\n        /* \"#utility.yul\":2023:2086   */\n    tag_74:\n        /* \"#utility.yul\":1970:2092   */\n      pop\n      jump\t// out\n\n    auxdata: 0xa26469706673582212207ba0db4d7b9fe6d6e7c4e943e6eae29168b793c933329e9d1fe73662efe8437b64736f6c63430008070033\n}\n",
				"bytecode": {
					"linkReferences": {},
					"object": "6080604052607b60015534801561001557600080fd5b506102de806100256000396000f3fe6080604052600436106100555760003560e01c806302f42be91461005a5780630c55699c146100765780633fa4f245146100a15780634018d9aa146100cc5780635197c7aa146100f5578063d6c7a3be14610120575b600080fd5b610074600480360381019061006f919061019f565b61014c565b005b34801561008257600080fd5b5061008b610165565b60405161009891906101db565b60405180910390f35b3480156100ad57600080fd5b506100b661016b565b6040516100c391906101db565b60405180910390f35b3480156100d857600080fd5b506100f360048036038101906100ee919061019f565b610171565b005b34801561010157600080fd5b5061010a61017b565b60405161011791906101db565b60405180910390f35b34801561012c57600080fd5b50610135610184565b6040516101439291906101f6565b60405180910390f35b8060008190555034600154610161919061021f565b5050565b60005481565b60015481565b8060008190555050565b60008054905090565b60008091565b60008135905061019981610291565b92915050565b6000602082840312156101b5576101b461028c565b5b60006101c38482850161018a565b91505092915050565b6101d581610253565b82525050565b60006020820190506101f060008301846101cc565b92915050565b600060408201905061020b60008301856101cc565b61021860208301846101cc565b9392505050565b600061022a82610253565b915061023583610253565b9250828210156102485761024761025d565b5b828203905092915050565b6000819050919050565b7f4e487b7100000000000000000000000000000000000000000000000000000000600052601160045260246000fd5b600080fd5b61029a81610253565b81146102a557600080fd5b5056fea26469706673582212207ba0db4d7b9fe6d6e7c4e943e6eae29168b793c933329e9d1fe73662efe8437b64736f6c63430008070033",
					"opcodes": "PUSH1 0x80 PUSH1 0x40 MSTORE PUSH1 0x7B PUSH1 0x1 SSTORE CALLVALUE DUP1 ISZERO PUSH2 0x15 JUMPI PUSH1 0x0 DUP1 REVERT JUMPDEST POP PUSH2 0x2DE DUP1 PUSH2 0x25 PUSH1 0x0 CODECOPY PUSH1 0x0 RETURN INVALID PUSH1 0x80 PUSH1 0x40 MSTORE PUSH1 0x4 CALLDATASIZE LT PUSH2 0x55 JUMPI PUSH1 0x0 CALLDATALOAD PUSH1 0xE0 SHR DUP1 PUSH4 0x2F42BE9 EQ PUSH2 0x5A JUMPI DUP1 PUSH4 0xC55699C EQ PUSH2 0x76 JUMPI DUP1 PUSH4 0x3FA4F245 EQ PUSH2 0xA1 JUMPI DUP1 PUSH4 0x4018D9AA EQ PUSH2 0xCC JUMPI DUP1 PUSH4 0x5197C7AA EQ PUSH2 0xF5 JUMPI DUP1 PUSH4 0xD6C7A3BE EQ PUSH2 0x120 JUMPI JUMPDEST PUSH1 0x0 DUP1 REVERT JUMPDEST PUSH2 0x74 PUSH1 0x4 DUP1 CALLDATASIZE SUB DUP2 ADD SWAP1 PUSH2 0x6F SWAP2 SWAP1 PUSH2 0x19F JUMP JUMPDEST PUSH2 0x14C JUMP JUMPDEST STOP JUMPDEST CALLVALUE DUP1 ISZERO PUSH2 0x82 JUMPI PUSH1 0x0 DUP1 REVERT JUMPDEST POP PUSH2 0x8B PUSH2 0x165 JUMP JUMPDEST PUSH1 0x40 MLOAD PUSH2 0x98 SWAP2 SWAP1 PUSH2 0x1DB JUMP JUMPDEST PUSH1 0x40 MLOAD DUP1 SWAP2 SUB SWAP1 RETURN JUMPDEST CALLVALUE DUP1 ISZERO PUSH2 0xAD JUMPI PUSH1 0x0 DUP1 REVERT JUMPDEST POP PUSH2 0xB6 PUSH2 0x16B JUMP JUMPDEST PUSH1 0x40 MLOAD PUSH2 0xC3 SWAP2 SWAP1 PUSH2 0x1DB JUMP JUMPDEST PUSH1 0x40 MLOAD DUP1 SWAP2 SUB SWAP1 RETURN JUMPDEST CALLVALUE DUP1 ISZERO PUSH2 0xD8 JUMPI PUSH1 0x0 DUP1 REVERT JUMPDEST POP PUSH2 0xF3 PUSH1 0x4 DUP1 CALLDATASIZE SUB DUP2 ADD SWAP1 PUSH2 0xEE SWAP2 SWAP1 PUSH2 0x19F JUMP JUMPDEST PUSH2 0x171 JUMP JUMPDEST STOP JUMPDEST CALLVALUE DUP1 ISZERO PUSH2 0x101 JUMPI PUSH1 0x0 DUP1 REVERT JUMPDEST POP PUSH2 0x10A PUSH2 0x17B JUMP JUMPDEST PUSH1 0x40 MLOAD PUSH2 0x117 SWAP2 SWAP1 PUSH2 0x1DB JUMP JUMPDEST PUSH1 0x40 MLOAD DUP1 SWAP2 SUB SWAP1 RETURN JUMPDEST CALLVALUE DUP1 ISZERO PUSH2 0x12C JUMPI PUSH1 0x0 DUP1 REVERT JUMPDEST POP PUSH2 0x135 PUSH2 0x184 JUMP JUMPDEST PUSH1 0x40 MLOAD PUSH2 0x143 SWAP3 SWAP2 SWAP1 PUSH2 0x1F6 JUMP JUMPDEST PUSH1 0x40 MLOAD DUP1 SWAP2 SUB SWAP1 RETURN JUMPDEST DUP1 PUSH1 0x0 DUP2 SWAP1 SSTORE POP CALLVALUE PUSH1 0x1 SLOAD PUSH2 0x161 SWAP2 SWAP1 PUSH2 0x21F JUMP JUMPDEST POP POP JUMP JUMPDEST PUSH1 0x0 SLOAD DUP2 JUMP JUMPDEST PUSH1 0x1 SLOAD DUP2 JUMP JUMPDEST DUP1 PUSH1 0x0 DUP2 SWAP1 SSTORE POP POP JUMP JUMPDEST PUSH1 0x0 DUP1 SLOAD SWAP1 POP SWAP1 JUMP JUMPDEST PUSH1 0x0 DUP1 SWAP2 JUMP JUMPDEST PUSH1 0x0 DUP2 CALLDATALOAD SWAP1 POP PUSH2 0x199 DUP2 PUSH2 0x291 JUMP JUMPDEST SWAP3 SWAP2 POP POP JUMP JUMPDEST PUSH1 0x0 PUSH1 0x20 DUP3 DUP5 SUB SLT ISZERO PUSH2 0x1B5 JUMPI PUSH2 0x1B4 PUSH2 0x28C JUMP JUMPDEST JUMPDEST PUSH1 0x0 PUSH2 0x1C3 DUP5 DUP3 DUP6 ADD PUSH2 0x18A JUMP JUMPDEST SWAP2 POP POP SWAP3 SWAP2 POP POP JUMP JUMPDEST PUSH2 0x1D5 DUP2 PUSH2 0x253 JUMP JUMPDEST DUP3 MSTORE POP POP JUMP JUMPDEST PUSH1 0x0 PUSH1 0x20 DUP3 ADD SWAP1 POP PUSH2 0x1F0 PUSH1 0x0 DUP4 ADD DUP5 PUSH2 0x1CC JUMP JUMPDEST SWAP3 SWAP2 POP POP JUMP JUMPDEST PUSH1 0x0 PUSH1 0x40 DUP3 ADD SWAP1 POP PUSH2 0x20B PUSH1 0x0 DUP4 ADD DUP6 PUSH2 0x1CC JUMP JUMPDEST PUSH2 0x218 PUSH1 0x20 DUP4 ADD DUP5 PUSH2 0x1CC JUMP JUMPDEST SWAP4 SWAP3 POP POP POP JUMP JUMPDEST PUSH1 0x0 PUSH2 0x22A DUP3 PUSH2 0x253 JUMP JUMPDEST SWAP2 POP PUSH2 0x235 DUP4 PUSH2 0x253 JUMP JUMPDEST SWAP3 POP DUP3 DUP3 LT ISZERO PUSH2 0x248 JUMPI PUSH2 0x247 PUSH2 0x25D JUMP JUMPDEST JUMPDEST DUP3 DUP3 SUB SWAP1 POP SWAP3 SWAP2 POP POP JUMP JUMPDEST PUSH1 0x0 DUP2 SWAP1 POP SWAP2 SWAP1 POP JUMP JUMPDEST PUSH32 0x4E487B7100000000000000000000000000000000000000000000000000000000 PUSH1 0x0 MSTORE PUSH1 0x11 PUSH1 0x4 MSTORE PUSH1 0x24 PUSH1 0x0 REVERT JUMPDEST PUSH1 0x0 DUP1 REVERT JUMPDEST PUSH2 0x29A DUP2 PUSH2 0x253 JUMP JUMPDEST DUP2 EQ PUSH2 0x2A5 JUMPI PUSH1 0x0 DUP1 REVERT JUMPDEST POP JUMP INVALID LOG2 PUSH5 0x6970667358 0x22 SLT KECCAK256 PUSH28 0xA0DB4D7B9FE6D6E7C4E943E6EAE29168B793C933329E9D1FE73662EF 0xE8 NUMBER PUSH28 0x64736F6C634300080700330000000000000000000000000000000000 "
				},
				"gasEstimates": {
					"creation": {
						"codeDepositCost": "146800",
						"executionCost": "22296",
						"totalCost": "169096"
					},
					"external": {
						"getX()": "2503",
						"getXandValue()": "infinite",
						"setX(uint256)": "22564",
						"setXandReceiveEther(uint256)": "infinite",
						"value()": "2451",
						"x()": "2429"
					}
				},
				"methodIdentifiers": {
					"getX()": "5197c7aa",
					"getXandValue()": "d6c7a3be",
					"setX(uint256)": "4018d9aa",
					"setXandReceiveEther(uint256)": "02f42be9",
					"value()": "3fa4f245",
					"x()": "0c55699c"
				}
			},
			"storageLayout": {
				"storage": [
					{
						"astId": 19,
						"contract": "solidity_korea/CallTestContract.sol:TestContract",
						"label": "x",
						"offset": 0,
						"slot": "0",
						"type": "t_uint256"
					},
					{
						"astId": 22,
						"contract": "solidity_korea/CallTestContract.sol:TestContract",
						"label": "value",
						"offset": 0,
						"slot": "1",
						"type": "t_uint256"
					}
				],
				"types": {
					"t_uint256": {
						"encoding": "inplace",
						"label": "uint256",
						"numberOfBytes": "32"
					}
				}
			},
			"userdoc": {
				"kind": "user",
				"methods": {},
				"version": 1
			}
		}
	}
}