{
	"solidity_korea/storage_calldata_memory.sol": {
		"Storage": {
			"abi": [
				{
					"inputs": [],
					"name": "examples",
					"outputs": [],
					"stateMutability": "nonpayable",
					"type": "function"
				},
				{
					"inputs": [
						{
							"internalType": "address",
							"name": "addr",
							"type": "address"
						}
					],
					"name": "readOnly",
					"outputs": [
						{
							"components": [
								{
									"internalType": "uint256",
									"name": "foo",
									"type": "uint256"
								},
								{
									"internalType": "string",
									"name": "text",
									"type": "string"
								}
							],
							"internalType": "struct Storage.MyStruct",
							"name": "",
							"type": "tuple"
						}
					],
					"stateMutability": "view",
					"type": "function"
				}
			],
			"devdoc": {
				"kind": "dev",
				"methods": {},
				"version": 1
			},
			"evm": {
				"assembly": "    /* \"solidity_korea/storage_calldata_memory.sol\":61:586  contract Storage{... */\n  mstore(0x40, 0x80)\n  callvalue\n  dup1\n  iszero\n  tag_1\n  jumpi\n  0x00\n  dup1\n  revert\ntag_1:\n  pop\n  dataSize(sub_0)\n  dup1\n  dataOffset(sub_0)\n  0x00\n  codecopy\n  0x00\n  return\nstop\n\nsub_0: assembly {\n        /* \"solidity_korea/storage_calldata_memory.sol\":61:586  contract Storage{... */\n      mstore(0x40, 0x80)\n      callvalue\n      dup1\n      iszero\n      tag_1\n      jumpi\n      0x00\n      dup1\n      revert\n    tag_1:\n      pop\n      jumpi(tag_2, lt(calldatasize, 0x04))\n      shr(0xe0, calldataload(0x00))\n      dup1\n      0x335d00c2\n      eq\n      tag_3\n      jumpi\n      dup1\n      0x9287abc6\n      eq\n      tag_4\n      jumpi\n    tag_2:\n      0x00\n      dup1\n      revert\n        /* \"solidity_korea/storage_calldata_memory.sol\":230:471  function examples() external {... */\n    tag_3:\n      tag_5\n      tag_6\n      jump\t// in\n    tag_5:\n      stop\n        /* \"solidity_korea/storage_calldata_memory.sol\":476:583  function readOnly(address addr) external view returns(MyStruct memory){... */\n    tag_4:\n      tag_7\n      0x04\n      dup1\n      calldatasize\n      sub\n      dup2\n      add\n      swap1\n      tag_8\n      swap2\n      swap1\n      tag_9\n      jump\t// in\n    tag_8:\n      tag_10\n      jump\t// in\n    tag_7:\n      mload(0x40)\n      tag_11\n      swap2\n      swap1\n      tag_12\n      jump\t// in\n    tag_11:\n      mload(0x40)\n      dup1\n      swap2\n      sub\n      swap1\n      return\n        /* \"solidity_korea/storage_calldata_memory.sol\":230:471  function examples() external {... */\n    tag_6:\n        /* \"solidity_korea/storage_calldata_memory.sol\":289:321  MyStruct({foo:123,text:\"hello\"}) */\n      mload(0x40)\n      dup1\n      0x40\n      add\n      0x40\n      mstore\n      dup1\n        /* \"solidity_korea/storage_calldata_memory.sol\":303:306  123 */\n      0x7b\n        /* \"solidity_korea/storage_calldata_memory.sol\":289:321  MyStruct({foo:123,text:\"hello\"}) */\n      dup2\n      mstore\n      0x20\n      add\n      mload(0x40)\n      dup1\n      0x40\n      add\n      0x40\n      mstore\n      dup1\n      0x05\n      dup2\n      mstore\n      0x20\n      add\n      0x68656c6c6f000000000000000000000000000000000000000000000000000000\n      dup2\n      mstore\n      pop\n      dup2\n      mstore\n      pop\n        /* \"solidity_korea/storage_calldata_memory.sol\":265:274  myStructs */\n      0x00\n        /* \"solidity_korea/storage_calldata_memory.sol\":265:286  myStructs[msg.sender] */\n      dup1\n        /* \"solidity_korea/storage_calldata_memory.sol\":275:285  msg.sender */\n      caller\n        /* \"solidity_korea/storage_calldata_memory.sol\":265:286  myStructs[msg.sender] */\n      0xffffffffffffffffffffffffffffffffffffffff\n      and\n      0xffffffffffffffffffffffffffffffffffffffff\n      and\n      dup2\n      mstore\n      0x20\n      add\n      swap1\n      dup2\n      mstore\n      0x20\n      add\n      0x00\n      keccak256\n        /* \"solidity_korea/storage_calldata_memory.sol\":265:321  myStructs[msg.sender] = MyStruct({foo:123,text:\"hello\"}) */\n      0x00\n      dup3\n      add\n      mload\n      dup2\n      0x00\n      add\n      sstore\n      0x20\n      dup3\n      add\n      mload\n      dup2\n      0x01\n      add\n      swap1\n      dup1\n      mload\n      swap1\n      0x20\n      add\n      swap1\n      tag_14\n      swap3\n      swap2\n      swap1\n      tag_15\n      jump\t// in\n    tag_14:\n      pop\n      swap1\n      pop\n      pop\n        /* \"solidity_korea/storage_calldata_memory.sol\":327:352  MyStruct storage myStruct */\n      0x00\n        /* \"solidity_korea/storage_calldata_memory.sol\":355:364  myStructs */\n      dup1\n        /* \"solidity_korea/storage_calldata_memory.sol\":355:376  myStructs[msg.sender] */\n      0x00\n        /* \"solidity_korea/storage_calldata_memory.sol\":365:375  msg.sender */\n      caller\n        /* \"solidity_korea/storage_calldata_memory.sol\":355:376  myStructs[msg.sender] */\n      0xffffffffffffffffffffffffffffffffffffffff\n      and\n      0xffffffffffffffffffffffffffffffffffffffff\n      and\n      dup2\n      mstore\n      0x20\n      add\n      swap1\n      dup2\n      mstore\n      0x20\n      add\n      0x00\n      keccak256\n        /* \"solidity_korea/storage_calldata_memory.sol\":327:376  MyStruct storage myStruct = myStructs[msg.sender] */\n      swap1\n      pop\n        /* \"solidity_korea/storage_calldata_memory.sol\":382:407  myStruct.text =\"no hello\" */\n      mload(0x40)\n      dup1\n      0x40\n      add\n      0x40\n      mstore\n      dup1\n      0x08\n      dup2\n      mstore\n      0x20\n      add\n      0x6e6f2068656c6c6f000000000000000000000000000000000000000000000000\n      dup2\n      mstore\n      pop\n        /* \"solidity_korea/storage_calldata_memory.sol\":382:390  myStruct */\n      dup2\n        /* \"solidity_korea/storage_calldata_memory.sol\":382:395  myStruct.text */\n      0x01\n      add\n        /* \"solidity_korea/storage_calldata_memory.sol\":382:407  myStruct.text =\"no hello\" */\n      swap1\n      dup1\n      mload\n      swap1\n      0x20\n      add\n      swap1\n      tag_16\n      swap3\n      swap2\n      swap1\n      tag_15\n      jump\t// in\n    tag_16:\n      pop\n        /* \"solidity_korea/storage_calldata_memory.sol\":416:440  MyStruct memory readOnly */\n      0x00\n        /* \"solidity_korea/storage_calldata_memory.sol\":443:452  myStructs */\n      dup1\n        /* \"solidity_korea/storage_calldata_memory.sol\":443:464  myStructs[msg.sender] */\n      0x00\n        /* \"solidity_korea/storage_calldata_memory.sol\":453:463  msg.sender */\n      caller\n        /* \"solidity_korea/storage_calldata_memory.sol\":443:464  myStructs[msg.sender] */\n      0xffffffffffffffffffffffffffffffffffffffff\n      and\n      0xffffffffffffffffffffffffffffffffffffffff\n      and\n      dup2\n      mstore\n      0x20\n      add\n      swap1\n      dup2\n      mstore\n      0x20\n      add\n      0x00\n      keccak256\n        /* \"solidity_korea/storage_calldata_memory.sol\":416:464  MyStruct memory readOnly = myStructs[msg.sender] */\n      mload(0x40)\n      dup1\n      0x40\n      add\n      0x40\n      mstore\n      swap1\n      dup2\n      0x00\n      dup3\n      add\n      sload\n      dup2\n      mstore\n      0x20\n      add\n      0x01\n      dup3\n      add\n      dup1\n      sload\n      tag_17\n      swap1\n      tag_18\n      jump\t// in\n    tag_17:\n      dup1\n      0x1f\n      add\n      0x20\n      dup1\n      swap2\n      div\n      mul\n      0x20\n      add\n      mload(0x40)\n      swap1\n      dup2\n      add\n      0x40\n      mstore\n      dup1\n      swap3\n      swap2\n      swap1\n      dup2\n      dup2\n      mstore\n      0x20\n      add\n      dup3\n      dup1\n      sload\n      tag_19\n      swap1\n      tag_18\n      jump\t// in\n    tag_19:\n      dup1\n      iszero\n      tag_20\n      jumpi\n      dup1\n      0x1f\n      lt\n      tag_21\n      jumpi\n      0x0100\n      dup1\n      dup4\n      sload\n      div\n      mul\n      dup4\n      mstore\n      swap2\n      0x20\n      add\n      swap2\n      jump(tag_20)\n    tag_21:\n      dup3\n      add\n      swap2\n      swap1\n      0x00\n      mstore\n      keccak256(0x00, 0x20)\n      swap1\n    tag_22:\n      dup2\n      sload\n      dup2\n      mstore\n      swap1\n      0x01\n      add\n      swap1\n      0x20\n      add\n      dup1\n      dup4\n      gt\n      tag_22\n      jumpi\n      dup3\n      swap1\n      sub\n      0x1f\n      and\n      dup3\n      add\n      swap2\n    tag_20:\n      pop\n      pop\n      pop\n      pop\n      pop\n      dup2\n      mstore\n      pop\n      pop\n      swap1\n      pop\n        /* \"solidity_korea/storage_calldata_memory.sol\":259:471  {... */\n      pop\n      pop\n        /* \"solidity_korea/storage_calldata_memory.sol\":230:471  function examples() external {... */\n      jump\t// out\n        /* \"solidity_korea/storage_calldata_memory.sol\":476:583  function readOnly(address addr) external view returns(MyStruct memory){... */\n    tag_10:\n        /* \"solidity_korea/storage_calldata_memory.sol\":530:545  MyStruct memory */\n      tag_23\n      tag_24\n      jump\t// in\n    tag_23:\n        /* \"solidity_korea/storage_calldata_memory.sol\":562:571  myStructs */\n      0x00\n        /* \"solidity_korea/storage_calldata_memory.sol\":562:577  myStructs[addr] */\n      dup1\n        /* \"solidity_korea/storage_calldata_memory.sol\":572:576  addr */\n      dup4\n        /* \"solidity_korea/storage_calldata_memory.sol\":562:577  myStructs[addr] */\n      0xffffffffffffffffffffffffffffffffffffffff\n      and\n      0xffffffffffffffffffffffffffffffffffffffff\n      and\n      dup2\n      mstore\n      0x20\n      add\n      swap1\n      dup2\n      mstore\n      0x20\n      add\n      0x00\n      keccak256\n        /* \"solidity_korea/storage_calldata_memory.sol\":555:577  return myStructs[addr] */\n      mload(0x40)\n      dup1\n      0x40\n      add\n      0x40\n      mstore\n      swap1\n      dup2\n      0x00\n      dup3\n      add\n      sload\n      dup2\n      mstore\n      0x20\n      add\n      0x01\n      dup3\n      add\n      dup1\n      sload\n      tag_26\n      swap1\n      tag_18\n      jump\t// in\n    tag_26:\n      dup1\n      0x1f\n      add\n      0x20\n      dup1\n      swap2\n      div\n      mul\n      0x20\n      add\n      mload(0x40)\n      swap1\n      dup2\n      add\n      0x40\n      mstore\n      dup1\n      swap3\n      swap2\n      swap1\n      dup2\n      dup2\n      mstore\n      0x20\n      add\n      dup3\n      dup1\n      sload\n      tag_27\n      swap1\n      tag_18\n      jump\t// in\n    tag_27:\n      dup1\n      iszero\n      tag_28\n      jumpi\n      dup1\n      0x1f\n      lt\n      tag_29\n      jumpi\n      0x0100\n      dup1\n      dup4\n      sload\n      div\n      mul\n      dup4\n      mstore\n      swap2\n      0x20\n      add\n      swap2\n      jump(tag_28)\n    tag_29:\n      dup3\n      add\n      swap2\n      swap1\n      0x00\n      mstore\n      keccak256(0x00, 0x20)\n      swap1\n    tag_30:\n      dup2\n      sload\n      dup2\n      mstore\n      swap1\n      0x01\n      add\n      swap1\n      0x20\n      add\n      dup1\n      dup4\n      gt\n      tag_30\n      jumpi\n      dup3\n      swap1\n      sub\n      0x1f\n      and\n      dup3\n      add\n      swap2\n    tag_28:\n      pop\n      pop\n      pop\n      pop\n      pop\n      dup2\n      mstore\n      pop\n      pop\n      swap1\n      pop\n        /* \"solidity_korea/storage_calldata_memory.sol\":476:583  function readOnly(address addr) external view returns(MyStruct memory){... */\n      swap2\n      swap1\n      pop\n      jump\t// out\n    tag_15:\n      dup3\n      dup1\n      sload\n      tag_31\n      swap1\n      tag_18\n      jump\t// in\n    tag_31:\n      swap1\n      0x00\n      mstore\n      keccak256(0x00, 0x20)\n      swap1\n      0x1f\n      add\n      0x20\n      swap1\n      div\n      dup2\n      add\n      swap3\n      dup3\n      tag_33\n      jumpi\n      0x00\n      dup6\n      sstore\n      jump(tag_32)\n    tag_33:\n      dup3\n      0x1f\n      lt\n      tag_34\n      jumpi\n      dup1\n      mload\n      not(0xff)\n      and\n      dup4\n      dup1\n      add\n      or\n      dup6\n      sstore\n      jump(tag_32)\n    tag_34:\n      dup3\n      dup1\n      add\n      0x01\n      add\n      dup6\n      sstore\n      dup3\n      iszero\n      tag_32\n      jumpi\n      swap2\n      dup3\n      add\n    tag_35:\n      dup3\n      dup2\n      gt\n      iszero\n      tag_36\n      jumpi\n      dup3\n      mload\n      dup3\n      sstore\n      swap2\n      0x20\n      add\n      swap2\n      swap1\n      0x01\n      add\n      swap1\n      jump(tag_35)\n    tag_36:\n    tag_32:\n      pop\n      swap1\n      pop\n      tag_37\n      swap2\n      swap1\n      tag_38\n      jump\t// in\n    tag_37:\n      pop\n      swap1\n      jump\t// out\n    tag_24:\n      mload(0x40)\n      dup1\n      0x40\n      add\n      0x40\n      mstore\n      dup1\n      0x00\n      dup2\n      mstore\n      0x20\n      add\n      0x60\n      dup2\n      mstore\n      pop\n      swap1\n      jump\t// out\n    tag_38:\n    tag_39:\n      dup1\n      dup3\n      gt\n      iszero\n      tag_40\n      jumpi\n      0x00\n      dup2\n      0x00\n      swap1\n      sstore\n      pop\n      0x01\n      add\n      jump(tag_39)\n    tag_40:\n      pop\n      swap1\n      jump\t// out\n        /* \"#utility.yul\":7:146   */\n    tag_42:\n        /* \"#utility.yul\":53:58   */\n      0x00\n        /* \"#utility.yul\":91:97   */\n      dup2\n        /* \"#utility.yul\":78:98   */\n      calldataload\n        /* \"#utility.yul\":69:98   */\n      swap1\n      pop\n        /* \"#utility.yul\":107:140   */\n      tag_44\n        /* \"#utility.yul\":134:139   */\n      dup2\n        /* \"#utility.yul\":107:140   */\n      tag_45\n      jump\t// in\n    tag_44:\n        /* \"#utility.yul\":7:146   */\n      swap3\n      swap2\n      pop\n      pop\n      jump\t// out\n        /* \"#utility.yul\":152:481   */\n    tag_9:\n        /* \"#utility.yul\":211:217   */\n      0x00\n        /* \"#utility.yul\":260:262   */\n      0x20\n        /* \"#utility.yul\":248:257   */\n      dup3\n        /* \"#utility.yul\":239:246   */\n      dup5\n        /* \"#utility.yul\":235:258   */\n      sub\n        /* \"#utility.yul\":231:263   */\n      slt\n        /* \"#utility.yul\":228:347   */\n      iszero\n      tag_47\n      jumpi\n        /* \"#utility.yul\":266:345   */\n      tag_48\n      tag_49\n      jump\t// in\n    tag_48:\n        /* \"#utility.yul\":228:347   */\n    tag_47:\n        /* \"#utility.yul\":386:387   */\n      0x00\n        /* \"#utility.yul\":411:464   */\n      tag_50\n        /* \"#utility.yul\":456:463   */\n      dup5\n        /* \"#utility.yul\":447:453   */\n      dup3\n        /* \"#utility.yul\":436:445   */\n      dup6\n        /* \"#utility.yul\":432:454   */\n      add\n        /* \"#utility.yul\":411:464   */\n      tag_42\n      jump\t// in\n    tag_50:\n        /* \"#utility.yul\":401:464   */\n      swap2\n      pop\n        /* \"#utility.yul\":357:474   */\n      pop\n        /* \"#utility.yul\":152:481   */\n      swap3\n      swap2\n      pop\n      pop\n      jump\t// out\n        /* \"#utility.yul\":487:831   */\n    tag_51:\n        /* \"#utility.yul\":565:568   */\n      0x00\n        /* \"#utility.yul\":593:632   */\n      tag_53\n        /* \"#utility.yul\":626:631   */\n      dup3\n        /* \"#utility.yul\":593:632   */\n      tag_54\n      jump\t// in\n    tag_53:\n        /* \"#utility.yul\":648:709   */\n      tag_55\n        /* \"#utility.yul\":702:708   */\n      dup2\n        /* \"#utility.yul\":697:700   */\n      dup6\n        /* \"#utility.yul\":648:709   */\n      tag_56\n      jump\t// in\n    tag_55:\n        /* \"#utility.yul\":641:709   */\n      swap4\n      pop\n        /* \"#utility.yul\":718:770   */\n      tag_57\n        /* \"#utility.yul\":763:769   */\n      dup2\n        /* \"#utility.yul\":758:761   */\n      dup6\n        /* \"#utility.yul\":751:755   */\n      0x20\n        /* \"#utility.yul\":744:749   */\n      dup7\n        /* \"#utility.yul\":740:756   */\n      add\n        /* \"#utility.yul\":718:770   */\n      tag_58\n      jump\t// in\n    tag_57:\n        /* \"#utility.yul\":795:824   */\n      tag_59\n        /* \"#utility.yul\":817:823   */\n      dup2\n        /* \"#utility.yul\":795:824   */\n      tag_60\n      jump\t// in\n    tag_59:\n        /* \"#utility.yul\":790:793   */\n      dup5\n        /* \"#utility.yul\":786:825   */\n      add\n        /* \"#utility.yul\":779:825   */\n      swap2\n      pop\n        /* \"#utility.yul\":569:831   */\n      pop\n        /* \"#utility.yul\":487:831   */\n      swap3\n      swap2\n      pop\n      pop\n      jump\t// out\n        /* \"#utility.yul\":895:1496   */\n    tag_61:\n        /* \"#utility.yul\":1010:1013   */\n      0x00\n        /* \"#utility.yul\":1046:1050   */\n      0x40\n        /* \"#utility.yul\":1041:1044   */\n      dup4\n        /* \"#utility.yul\":1037:1051   */\n      add\n        /* \"#utility.yul\":1132:1136   */\n      0x00\n        /* \"#utility.yul\":1125:1130   */\n      dup4\n        /* \"#utility.yul\":1121:1137   */\n      add\n        /* \"#utility.yul\":1115:1138   */\n      mload\n        /* \"#utility.yul\":1151:1214   */\n      tag_63\n        /* \"#utility.yul\":1208:1212   */\n      0x00\n        /* \"#utility.yul\":1203:1206   */\n      dup7\n        /* \"#utility.yul\":1199:1213   */\n      add\n        /* \"#utility.yul\":1185:1197   */\n      dup3\n        /* \"#utility.yul\":1151:1214   */\n      tag_64\n      jump\t// in\n    tag_63:\n        /* \"#utility.yul\":1061:1224   */\n      pop\n        /* \"#utility.yul\":1306:1310   */\n      0x20\n        /* \"#utility.yul\":1299:1304   */\n      dup4\n        /* \"#utility.yul\":1295:1311   */\n      add\n        /* \"#utility.yul\":1289:1312   */\n      mload\n        /* \"#utility.yul\":1359:1362   */\n      dup5\n        /* \"#utility.yul\":1353:1357   */\n      dup3\n        /* \"#utility.yul\":1349:1363   */\n      sub\n        /* \"#utility.yul\":1342:1346   */\n      0x20\n        /* \"#utility.yul\":1337:1340   */\n      dup7\n        /* \"#utility.yul\":1333:1347   */\n      add\n        /* \"#utility.yul\":1326:1364   */\n      mstore\n        /* \"#utility.yul\":1385:1458   */\n      tag_65\n        /* \"#utility.yul\":1453:1457   */\n      dup3\n        /* \"#utility.yul\":1439:1451   */\n      dup3\n        /* \"#utility.yul\":1385:1458   */\n      tag_51\n      jump\t// in\n    tag_65:\n        /* \"#utility.yul\":1377:1458   */\n      swap2\n      pop\n        /* \"#utility.yul\":1234:1469   */\n      pop\n        /* \"#utility.yul\":1486:1490   */\n      dup1\n        /* \"#utility.yul\":1479:1490   */\n      swap2\n      pop\n        /* \"#utility.yul\":1015:1496   */\n      pop\n        /* \"#utility.yul\":895:1496   */\n      swap3\n      swap2\n      pop\n      pop\n      jump\t// out\n        /* \"#utility.yul\":1502:1610   */\n    tag_64:\n        /* \"#utility.yul\":1579:1603   */\n      tag_67\n        /* \"#utility.yul\":1597:1602   */\n      dup2\n        /* \"#utility.yul\":1579:1603   */\n      tag_68\n      jump\t// in\n    tag_67:\n        /* \"#utility.yul\":1574:1577   */\n      dup3\n        /* \"#utility.yul\":1567:1604   */\n      mstore\n        /* \"#utility.yul\":1502:1610   */\n      pop\n      pop\n      jump\t// out\n        /* \"#utility.yul\":1616:1981   */\n    tag_12:\n        /* \"#utility.yul\":1755:1759   */\n      0x00\n        /* \"#utility.yul\":1793:1795   */\n      0x20\n        /* \"#utility.yul\":1782:1791   */\n      dup3\n        /* \"#utility.yul\":1778:1796   */\n      add\n        /* \"#utility.yul\":1770:1796   */\n      swap1\n      pop\n        /* \"#utility.yul\":1842:1851   */\n      dup2\n        /* \"#utility.yul\":1836:1840   */\n      dup2\n        /* \"#utility.yul\":1832:1852   */\n      sub\n        /* \"#utility.yul\":1828:1829   */\n      0x00\n        /* \"#utility.yul\":1817:1826   */\n      dup4\n        /* \"#utility.yul\":1813:1830   */\n      add\n        /* \"#utility.yul\":1806:1853   */\n      mstore\n        /* \"#utility.yul\":1870:1974   */\n      tag_70\n        /* \"#utility.yul\":1969:1973   */\n      dup2\n        /* \"#utility.yul\":1960:1966   */\n      dup5\n        /* \"#utility.yul\":1870:1974   */\n      tag_61\n      jump\t// in\n    tag_70:\n        /* \"#utility.yul\":1862:1974   */\n      swap1\n      pop\n        /* \"#utility.yul\":1616:1981   */\n      swap3\n      swap2\n      pop\n      pop\n      jump\t// out\n        /* \"#utility.yul\":2068:2167   */\n    tag_54:\n        /* \"#utility.yul\":2120:2126   */\n      0x00\n        /* \"#utility.yul\":2154:2159   */\n      dup2\n        /* \"#utility.yul\":2148:2160   */\n      mload\n        /* \"#utility.yul\":2138:2160   */\n      swap1\n      pop\n        /* \"#utility.yul\":2068:2167   */\n      swap2\n      swap1\n      pop\n      jump\t// out\n        /* \"#utility.yul\":2173:2332   */\n    tag_56:\n        /* \"#utility.yul\":2247:2258   */\n      0x00\n        /* \"#utility.yul\":2281:2287   */\n      dup3\n        /* \"#utility.yul\":2276:2279   */\n      dup3\n        /* \"#utility.yul\":2269:2288   */\n      mstore\n        /* \"#utility.yul\":2321:2325   */\n      0x20\n        /* \"#utility.yul\":2316:2319   */\n      dup3\n        /* \"#utility.yul\":2312:2326   */\n      add\n        /* \"#utility.yul\":2297:2326   */\n      swap1\n      pop\n        /* \"#utility.yul\":2173:2332   */\n      swap3\n      swap2\n      pop\n      pop\n      jump\t// out\n        /* \"#utility.yul\":2338:2434   */\n    tag_75:\n        /* \"#utility.yul\":2375:2382   */\n      0x00\n        /* \"#utility.yul\":2404:2428   */\n      tag_77\n        /* \"#utility.yul\":2422:2427   */\n      dup3\n        /* \"#utility.yul\":2404:2428   */\n      tag_78\n      jump\t// in\n    tag_77:\n        /* \"#utility.yul\":2393:2428   */\n      swap1\n      pop\n        /* \"#utility.yul\":2338:2434   */\n      swap2\n      swap1\n      pop\n      jump\t// out\n        /* \"#utility.yul\":2440:2566   */\n    tag_78:\n        /* \"#utility.yul\":2477:2484   */\n      0x00\n        /* \"#utility.yul\":2517:2559   */\n      0xffffffffffffffffffffffffffffffffffffffff\n        /* \"#utility.yul\":2510:2515   */\n      dup3\n        /* \"#utility.yul\":2506:2560   */\n      and\n        /* \"#utility.yul\":2495:2560   */\n      swap1\n      pop\n        /* \"#utility.yul\":2440:2566   */\n      swap2\n      swap1\n      pop\n      jump\t// out\n        /* \"#utility.yul\":2572:2649   */\n    tag_68:\n        /* \"#utility.yul\":2609:2616   */\n      0x00\n        /* \"#utility.yul\":2638:2643   */\n      dup2\n        /* \"#utility.yul\":2627:2643   */\n      swap1\n      pop\n        /* \"#utility.yul\":2572:2649   */\n      swap2\n      swap1\n      pop\n      jump\t// out\n        /* \"#utility.yul\":2655:2962   */\n    tag_58:\n        /* \"#utility.yul\":2723:2724   */\n      0x00\n        /* \"#utility.yul\":2733:2846   */\n    tag_82:\n        /* \"#utility.yul\":2747:2753   */\n      dup4\n        /* \"#utility.yul\":2744:2745   */\n      dup2\n        /* \"#utility.yul\":2741:2754   */\n      lt\n        /* \"#utility.yul\":2733:2846   */\n      iszero\n      tag_84\n      jumpi\n        /* \"#utility.yul\":2832:2833   */\n      dup1\n        /* \"#utility.yul\":2827:2830   */\n      dup3\n        /* \"#utility.yul\":2823:2834   */\n      add\n        /* \"#utility.yul\":2817:2835   */\n      mload\n        /* \"#utility.yul\":2813:2814   */\n      dup2\n        /* \"#utility.yul\":2808:2811   */\n      dup5\n        /* \"#utility.yul\":2804:2815   */\n      add\n        /* \"#utility.yul\":2797:2836   */\n      mstore\n        /* \"#utility.yul\":2769:2771   */\n      0x20\n        /* \"#utility.yul\":2766:2767   */\n      dup2\n        /* \"#utility.yul\":2762:2772   */\n      add\n        /* \"#utility.yul\":2757:2772   */\n      swap1\n      pop\n        /* \"#utility.yul\":2733:2846   */\n      jump(tag_82)\n    tag_84:\n        /* \"#utility.yul\":2864:2870   */\n      dup4\n        /* \"#utility.yul\":2861:2862   */\n      dup2\n        /* \"#utility.yul\":2858:2871   */\n      gt\n        /* \"#utility.yul\":2855:2956   */\n      iszero\n      tag_85\n      jumpi\n        /* \"#utility.yul\":2944:2945   */\n      0x00\n        /* \"#utility.yul\":2935:2941   */\n      dup5\n        /* \"#utility.yul\":2930:2933   */\n      dup5\n        /* \"#utility.yul\":2926:2942   */\n      add\n        /* \"#utility.yul\":2919:2946   */\n      mstore\n        /* \"#utility.yul\":2855:2956   */\n    tag_85:\n        /* \"#utility.yul\":2704:2962   */\n      pop\n        /* \"#utility.yul\":2655:2962   */\n      pop\n      pop\n      pop\n      jump\t// out\n        /* \"#utility.yul\":2968:3288   */\n    tag_18:\n        /* \"#utility.yul\":3012:3018   */\n      0x00\n        /* \"#utility.yul\":3049:3050   */\n      0x02\n        /* \"#utility.yul\":3043:3047   */\n      dup3\n        /* \"#utility.yul\":3039:3051   */\n      div\n        /* \"#utility.yul\":3029:3051   */\n      swap1\n      pop\n        /* \"#utility.yul\":3096:3097   */\n      0x01\n        /* \"#utility.yul\":3090:3094   */\n      dup3\n        /* \"#utility.yul\":3086:3098   */\n      and\n        /* \"#utility.yul\":3117:3135   */\n      dup1\n        /* \"#utility.yul\":3107:3188   */\n      tag_87\n      jumpi\n        /* \"#utility.yul\":3173:3177   */\n      0x7f\n        /* \"#utility.yul\":3165:3171   */\n      dup3\n        /* \"#utility.yul\":3161:3178   */\n      and\n        /* \"#utility.yul\":3151:3178   */\n      swap2\n      pop\n        /* \"#utility.yul\":3107:3188   */\n    tag_87:\n        /* \"#utility.yul\":3235:3237   */\n      0x20\n        /* \"#utility.yul\":3227:3233   */\n      dup3\n        /* \"#utility.yul\":3224:3238   */\n      lt\n        /* \"#utility.yul\":3204:3222   */\n      dup2\n        /* \"#utility.yul\":3201:3239   */\n      eq\n        /* \"#utility.yul\":3198:3282   */\n      iszero\n      tag_88\n      jumpi\n        /* \"#utility.yul\":3254:3272   */\n      tag_89\n      tag_90\n      jump\t// in\n    tag_89:\n        /* \"#utility.yul\":3198:3282   */\n    tag_88:\n        /* \"#utility.yul\":3019:3288   */\n      pop\n        /* \"#utility.yul\":2968:3288   */\n      swap2\n      swap1\n      pop\n      jump\t// out\n        /* \"#utility.yul\":3294:3474   */\n    tag_90:\n        /* \"#utility.yul\":3342:3419   */\n      0x4e487b7100000000000000000000000000000000000000000000000000000000\n        /* \"#utility.yul\":3339:3340   */\n      0x00\n        /* \"#utility.yul\":3332:3420   */\n      mstore\n        /* \"#utility.yul\":3439:3443   */\n      0x22\n        /* \"#utility.yul\":3436:3437   */\n      0x04\n        /* \"#utility.yul\":3429:3444   */\n      mstore\n        /* \"#utility.yul\":3463:3467   */\n      0x24\n        /* \"#utility.yul\":3460:3461   */\n      0x00\n        /* \"#utility.yul\":3453:3468   */\n      revert\n        /* \"#utility.yul\":3603:3720   */\n    tag_49:\n        /* \"#utility.yul\":3712:3713   */\n      0x00\n        /* \"#utility.yul\":3709:3710   */\n      dup1\n        /* \"#utility.yul\":3702:3714   */\n      revert\n        /* \"#utility.yul\":3726:3828   */\n    tag_60:\n        /* \"#utility.yul\":3767:3773   */\n      0x00\n        /* \"#utility.yul\":3818:3820   */\n      0x1f\n        /* \"#utility.yul\":3814:3821   */\n      not\n        /* \"#utility.yul\":3809:3811   */\n      0x1f\n        /* \"#utility.yul\":3802:3807   */\n      dup4\n        /* \"#utility.yul\":3798:3812   */\n      add\n        /* \"#utility.yul\":3794:3822   */\n      and\n        /* \"#utility.yul\":3784:3822   */\n      swap1\n      pop\n        /* \"#utility.yul\":3726:3828   */\n      swap2\n      swap1\n      pop\n      jump\t// out\n        /* \"#utility.yul\":3834:3956   */\n    tag_45:\n        /* \"#utility.yul\":3907:3931   */\n      tag_97\n        /* \"#utility.yul\":3925:3930   */\n      dup2\n        /* \"#utility.yul\":3907:3931   */\n      tag_75\n      jump\t// in\n    tag_97:\n        /* \"#utility.yul\":3900:3905   */\n      dup2\n        /* \"#utility.yul\":3897:3932   */\n      eq\n        /* \"#utility.yul\":3887:3950   */\n      tag_98\n      jumpi\n        /* \"#utility.yul\":3946:3947   */\n      0x00\n        /* \"#utility.yul\":3943:3944   */\n      dup1\n        /* \"#utility.yul\":3936:3948   */\n      revert\n        /* \"#utility.yul\":3887:3950   */\n    tag_98:\n        /* \"#utility.yul\":3834:3956   */\n      pop\n      jump\t// out\n\n    auxdata: 0xa2646970667358221220bbe13efa8b1658da9001985669050199211fe8e5f5a8b38608dc0c94bf23909c64736f6c63430008070033\n}\n",
				"bytecode": {
					"linkReferences": {},
					"object": "608060405234801561001057600080fd5b5061068e806100206000396000f3fe608060405234801561001057600080fd5b50600436106100365760003560e01c8063335d00c21461003b5780639287abc614610045575b600080fd5b610043610075565b005b61005f600480360381019061005a919061046b565b6102a5565b60405161006c919061051d565b60405180910390f35b6040518060400160405280607b81526020016040518060400160405280600581526020017f68656c6c6f0000000000000000000000000000000000000000000000000000008152508152506000803373ffffffffffffffffffffffffffffffffffffffff1673ffffffffffffffffffffffffffffffffffffffff168152602001908152602001600020600082015181600001556020820151816001019080519060200190610124929190610399565b5090505060008060003373ffffffffffffffffffffffffffffffffffffffff1673ffffffffffffffffffffffffffffffffffffffff16815260200190815260200160002090506040518060400160405280600881526020017f6e6f2068656c6c6f0000000000000000000000000000000000000000000000008152508160010190805190602001906101b7929190610399565b5060008060003373ffffffffffffffffffffffffffffffffffffffff1673ffffffffffffffffffffffffffffffffffffffff1681526020019081526020016000206040518060400160405290816000820154815260200160018201805461021d906105ca565b80601f0160208091040260200160405190810160405280929190818152602001828054610249906105ca565b80156102965780601f1061026b57610100808354040283529160200191610296565b820191906000526020600020905b81548152906001019060200180831161027957829003601f168201915b50505050508152505090505050565b6102ad61041f565b6000808373ffffffffffffffffffffffffffffffffffffffff1673ffffffffffffffffffffffffffffffffffffffff16815260200190815260200160002060405180604001604052908160008201548152602001600182018054610310906105ca565b80601f016020809104026020016040519081016040528092919081815260200182805461033c906105ca565b80156103895780601f1061035e57610100808354040283529160200191610389565b820191906000526020600020905b81548152906001019060200180831161036c57829003601f168201915b5050505050815250509050919050565b8280546103a5906105ca565b90600052602060002090601f0160209004810192826103c7576000855561040e565b82601f106103e057805160ff191683800117855561040e565b8280016001018555821561040e579182015b8281111561040d5782518255916020019190600101906103f2565b5b50905061041b9190610439565b5090565b604051806040016040528060008152602001606081525090565b5b8082111561045257600081600090555060010161043a565b5090565b60008135905061046581610641565b92915050565b6000602082840312156104815761048061062b565b5b600061048f84828501610456565b91505092915050565b60006104a38261053f565b6104ad818561054a565b93506104bd818560208601610597565b6104c681610630565b840191505092915050565b60006040830160008301516104e9600086018261050e565b50602083015184820360208601526105018282610498565b9150508091505092915050565b6105178161058d565b82525050565b6000602082019050818103600083015261053781846104d1565b905092915050565b600081519050919050565b600082825260208201905092915050565b60006105668261056d565b9050919050565b600073ffffffffffffffffffffffffffffffffffffffff82169050919050565b6000819050919050565b60005b838110156105b557808201518184015260208101905061059a565b838111156105c4576000848401525b50505050565b600060028204905060018216806105e257607f821691505b602082108114156105f6576105f56105fc565b5b50919050565b7f4e487b7100000000000000000000000000000000000000000000000000000000600052602260045260246000fd5b600080fd5b6000601f19601f8301169050919050565b61064a8161055b565b811461065557600080fd5b5056fea2646970667358221220bbe13efa8b1658da9001985669050199211fe8e5f5a8b38608dc0c94bf23909c64736f6c63430008070033",
					"opcodes": "PUSH1 0x80 PUSH1 0x40 MSTORE CALLVALUE DUP1 ISZERO PUSH2 0x10 JUMPI PUSH1 0x0 DUP1 REVERT JUMPDEST POP PUSH2 0x68E DUP1 PUSH2 0x20 PUSH1 0x0 CODECOPY PUSH1 0x0 RETURN INVALID PUSH1 0x80 PUSH1 0x40 MSTORE CALLVALUE DUP1 ISZERO PUSH2 0x10 JUMPI PUSH1 0x0 DUP1 REVERT JUMPDEST POP PUSH1 0x4 CALLDATASIZE LT PUSH2 0x36 JUMPI PUSH1 0x0 CALLDATALOAD PUSH1 0xE0 SHR DUP1 PUSH4 0x335D00C2 EQ PUSH2 0x3B JUMPI DUP1 PUSH4 0x9287ABC6 EQ PUSH2 0x45 JUMPI JUMPDEST PUSH1 0x0 DUP1 REVERT JUMPDEST PUSH2 0x43 PUSH2 0x75 JUMP JUMPDEST STOP JUMPDEST PUSH2 0x5F PUSH1 0x4 DUP1 CALLDATASIZE SUB DUP2 ADD SWAP1 PUSH2 0x5A SWAP2 SWAP1 PUSH2 0x46B JUMP JUMPDEST PUSH2 0x2A5 JUMP JUMPDEST PUSH1 0x40 MLOAD PUSH2 0x6C SWAP2 SWAP1 PUSH2 0x51D JUMP JUMPDEST PUSH1 0x40 MLOAD DUP1 SWAP2 SUB SWAP1 RETURN JUMPDEST PUSH1 0x40 MLOAD DUP1 PUSH1 0x40 ADD PUSH1 0x40 MSTORE DUP1 PUSH1 0x7B DUP2 MSTORE PUSH1 0x20 ADD PUSH1 0x40 MLOAD DUP1 PUSH1 0x40 ADD PUSH1 0x40 MSTORE DUP1 PUSH1 0x5 DUP2 MSTORE PUSH1 0x20 ADD PUSH32 0x68656C6C6F000000000000000000000000000000000000000000000000000000 DUP2 MSTORE POP DUP2 MSTORE POP PUSH1 0x0 DUP1 CALLER PUSH20 0xFFFFFFFFFFFFFFFFFFFFFFFFFFFFFFFFFFFFFFFF AND PUSH20 0xFFFFFFFFFFFFFFFFFFFFFFFFFFFFFFFFFFFFFFFF AND DUP2 MSTORE PUSH1 0x20 ADD SWAP1 DUP2 MSTORE PUSH1 0x20 ADD PUSH1 0x0 KECCAK256 PUSH1 0x0 DUP3 ADD MLOAD DUP2 PUSH1 0x0 ADD SSTORE PUSH1 0x20 DUP3 ADD MLOAD DUP2 PUSH1 0x1 ADD SWAP1 DUP1 MLOAD SWAP1 PUSH1 0x20 ADD SWAP1 PUSH2 0x124 SWAP3 SWAP2 SWAP1 PUSH2 0x399 JUMP JUMPDEST POP SWAP1 POP POP PUSH1 0x0 DUP1 PUSH1 0x0 CALLER PUSH20 0xFFFFFFFFFFFFFFFFFFFFFFFFFFFFFFFFFFFFFFFF AND PUSH20 0xFFFFFFFFFFFFFFFFFFFFFFFFFFFFFFFFFFFFFFFF AND DUP2 MSTORE PUSH1 0x20 ADD SWAP1 DUP2 MSTORE PUSH1 0x20 ADD PUSH1 0x0 KECCAK256 SWAP1 POP PUSH1 0x40 MLOAD DUP1 PUSH1 0x40 ADD PUSH1 0x40 MSTORE DUP1 PUSH1 0x8 DUP2 MSTORE PUSH1 0x20 ADD PUSH32 0x6E6F2068656C6C6F000000000000000000000000000000000000000000000000 DUP2 MSTORE POP DUP2 PUSH1 0x1 ADD SWAP1 DUP1 MLOAD SWAP1 PUSH1 0x20 ADD SWAP1 PUSH2 0x1B7 SWAP3 SWAP2 SWAP1 PUSH2 0x399 JUMP JUMPDEST POP PUSH1 0x0 DUP1 PUSH1 0x0 CALLER PUSH20 0xFFFFFFFFFFFFFFFFFFFFFFFFFFFFFFFFFFFFFFFF AND PUSH20 0xFFFFFFFFFFFFFFFFFFFFFFFFFFFFFFFFFFFFFFFF AND DUP2 MSTORE PUSH1 0x20 ADD SWAP1 DUP2 MSTORE PUSH1 0x20 ADD PUSH1 0x0 KECCAK256 PUSH1 0x40 MLOAD DUP1 PUSH1 0x40 ADD PUSH1 0x40 MSTORE SWAP1 DUP2 PUSH1 0x0 DUP3 ADD SLOAD DUP2 MSTORE PUSH1 0x20 ADD PUSH1 0x1 DUP3 ADD DUP1 SLOAD PUSH2 0x21D SWAP1 PUSH2 0x5CA JUMP JUMPDEST DUP1 PUSH1 0x1F ADD PUSH1 0x20 DUP1 SWAP2 DIV MUL PUSH1 0x20 ADD PUSH1 0x40 MLOAD SWAP1 DUP2 ADD PUSH1 0x40 MSTORE DUP1 SWAP3 SWAP2 SWAP1 DUP2 DUP2 MSTORE PUSH1 0x20 ADD DUP3 DUP1 SLOAD PUSH2 0x249 SWAP1 PUSH2 0x5CA JUMP JUMPDEST DUP1 ISZERO PUSH2 0x296 JUMPI DUP1 PUSH1 0x1F LT PUSH2 0x26B JUMPI PUSH2 0x100 DUP1 DUP4 SLOAD DIV MUL DUP4 MSTORE SWAP2 PUSH1 0x20 ADD SWAP2 PUSH2 0x296 JUMP JUMPDEST DUP3 ADD SWAP2 SWAP1 PUSH1 0x0 MSTORE PUSH1 0x20 PUSH1 0x0 KECCAK256 SWAP1 JUMPDEST DUP2 SLOAD DUP2 MSTORE SWAP1 PUSH1 0x1 ADD SWAP1 PUSH1 0x20 ADD DUP1 DUP4 GT PUSH2 0x279 JUMPI DUP3 SWAP1 SUB PUSH1 0x1F AND DUP3 ADD SWAP2 JUMPDEST POP POP POP POP POP DUP2 MSTORE POP POP SWAP1 POP POP POP JUMP JUMPDEST PUSH2 0x2AD PUSH2 0x41F JUMP JUMPDEST PUSH1 0x0 DUP1 DUP4 PUSH20 0xFFFFFFFFFFFFFFFFFFFFFFFFFFFFFFFFFFFFFFFF AND PUSH20 0xFFFFFFFFFFFFFFFFFFFFFFFFFFFFFFFFFFFFFFFF AND DUP2 MSTORE PUSH1 0x20 ADD SWAP1 DUP2 MSTORE PUSH1 0x20 ADD PUSH1 0x0 KECCAK256 PUSH1 0x40 MLOAD DUP1 PUSH1 0x40 ADD PUSH1 0x40 MSTORE SWAP1 DUP2 PUSH1 0x0 DUP3 ADD SLOAD DUP2 MSTORE PUSH1 0x20 ADD PUSH1 0x1 DUP3 ADD DUP1 SLOAD PUSH2 0x310 SWAP1 PUSH2 0x5CA JUMP JUMPDEST DUP1 PUSH1 0x1F ADD PUSH1 0x20 DUP1 SWAP2 DIV MUL PUSH1 0x20 ADD PUSH1 0x40 MLOAD SWAP1 DUP2 ADD PUSH1 0x40 MSTORE DUP1 SWAP3 SWAP2 SWAP1 DUP2 DUP2 MSTORE PUSH1 0x20 ADD DUP3 DUP1 SLOAD PUSH2 0x33C SWAP1 PUSH2 0x5CA JUMP JUMPDEST DUP1 ISZERO PUSH2 0x389 JUMPI DUP1 PUSH1 0x1F LT PUSH2 0x35E JUMPI PUSH2 0x100 DUP1 DUP4 SLOAD DIV MUL DUP4 MSTORE SWAP2 PUSH1 0x20 ADD SWAP2 PUSH2 0x389 JUMP JUMPDEST DUP3 ADD SWAP2 SWAP1 PUSH1 0x0 MSTORE PUSH1 0x20 PUSH1 0x0 KECCAK256 SWAP1 JUMPDEST DUP2 SLOAD DUP2 MSTORE SWAP1 PUSH1 0x1 ADD SWAP1 PUSH1 0x20 ADD DUP1 DUP4 GT PUSH2 0x36C JUMPI DUP3 SWAP1 SUB PUSH1 0x1F AND DUP3 ADD SWAP2 JUMPDEST POP POP POP POP POP DUP2 MSTORE POP POP SWAP1 POP SWAP2 SWAP1 POP JUMP JUMPDEST DUP3 DUP1 SLOAD PUSH2 0x3A5 SWAP1 PUSH2 0x5CA JUMP JUMPDEST SWAP1 PUSH1 0x0 MSTORE PUSH1 0x20 PUSH1 0x0 KECCAK256 SWAP1 PUSH1 0x1F ADD PUSH1 0x20 SWAP1 DIV DUP2 ADD SWAP3 DUP3 PUSH2 0x3C7 JUMPI PUSH1 0x0 DUP6 SSTORE PUSH2 0x40E JUMP JUMPDEST DUP3 PUSH1 0x1F LT PUSH2 0x3E0 JUMPI DUP1 MLOAD PUSH1 0xFF NOT AND DUP4 DUP1 ADD OR DUP6 SSTORE PUSH2 0x40E JUMP JUMPDEST DUP3 DUP1 ADD PUSH1 0x1 ADD DUP6 SSTORE DUP3 ISZERO PUSH2 0x40E JUMPI SWAP2 DUP3 ADD JUMPDEST DUP3 DUP2 GT ISZERO PUSH2 0x40D JUMPI DUP3 MLOAD DUP3 SSTORE SWAP2 PUSH1 0x20 ADD SWAP2 SWAP1 PUSH1 0x1 ADD SWAP1 PUSH2 0x3F2 JUMP JUMPDEST JUMPDEST POP SWAP1 POP PUSH2 0x41B SWAP2 SWAP1 PUSH2 0x439 JUMP JUMPDEST POP SWAP1 JUMP JUMPDEST PUSH1 0x40 MLOAD DUP1 PUSH1 0x40 ADD PUSH1 0x40 MSTORE DUP1 PUSH1 0x0 DUP2 MSTORE PUSH1 0x20 ADD PUSH1 0x60 DUP2 MSTORE POP SWAP1 JUMP JUMPDEST JUMPDEST DUP1 DUP3 GT ISZERO PUSH2 0x452 JUMPI PUSH1 0x0 DUP2 PUSH1 0x0 SWAP1 SSTORE POP PUSH1 0x1 ADD PUSH2 0x43A JUMP JUMPDEST POP SWAP1 JUMP JUMPDEST PUSH1 0x0 DUP2 CALLDATALOAD SWAP1 POP PUSH2 0x465 DUP2 PUSH2 0x641 JUMP JUMPDEST SWAP3 SWAP2 POP POP JUMP JUMPDEST PUSH1 0x0 PUSH1 0x20 DUP3 DUP5 SUB SLT ISZERO PUSH2 0x481 JUMPI PUSH2 0x480 PUSH2 0x62B JUMP JUMPDEST JUMPDEST PUSH1 0x0 PUSH2 0x48F DUP5 DUP3 DUP6 ADD PUSH2 0x456 JUMP JUMPDEST SWAP2 POP POP SWAP3 SWAP2 POP POP JUMP JUMPDEST PUSH1 0x0 PUSH2 0x4A3 DUP3 PUSH2 0x53F JUMP JUMPDEST PUSH2 0x4AD DUP2 DUP6 PUSH2 0x54A JUMP JUMPDEST SWAP4 POP PUSH2 0x4BD DUP2 DUP6 PUSH1 0x20 DUP7 ADD PUSH2 0x597 JUMP JUMPDEST PUSH2 0x4C6 DUP2 PUSH2 0x630 JUMP JUMPDEST DUP5 ADD SWAP2 POP POP SWAP3 SWAP2 POP POP JUMP JUMPDEST PUSH1 0x0 PUSH1 0x40 DUP4 ADD PUSH1 0x0 DUP4 ADD MLOAD PUSH2 0x4E9 PUSH1 0x0 DUP7 ADD DUP3 PUSH2 0x50E JUMP JUMPDEST POP PUSH1 0x20 DUP4 ADD MLOAD DUP5 DUP3 SUB PUSH1 0x20 DUP7 ADD MSTORE PUSH2 0x501 DUP3 DUP3 PUSH2 0x498 JUMP JUMPDEST SWAP2 POP POP DUP1 SWAP2 POP POP SWAP3 SWAP2 POP POP JUMP JUMPDEST PUSH2 0x517 DUP2 PUSH2 0x58D JUMP JUMPDEST DUP3 MSTORE POP POP JUMP JUMPDEST PUSH1 0x0 PUSH1 0x20 DUP3 ADD SWAP1 POP DUP2 DUP2 SUB PUSH1 0x0 DUP4 ADD MSTORE PUSH2 0x537 DUP2 DUP5 PUSH2 0x4D1 JUMP JUMPDEST SWAP1 POP SWAP3 SWAP2 POP POP JUMP JUMPDEST PUSH1 0x0 DUP2 MLOAD SWAP1 POP SWAP2 SWAP1 POP JUMP JUMPDEST PUSH1 0x0 DUP3 DUP3 MSTORE PUSH1 0x20 DUP3 ADD SWAP1 POP SWAP3 SWAP2 POP POP JUMP JUMPDEST PUSH1 0x0 PUSH2 0x566 DUP3 PUSH2 0x56D JUMP JUMPDEST SWAP1 POP SWAP2 SWAP1 POP JUMP JUMPDEST PUSH1 0x0 PUSH20 0xFFFFFFFFFFFFFFFFFFFFFFFFFFFFFFFFFFFFFFFF DUP3 AND SWAP1 POP SWAP2 SWAP1 POP JUMP JUMPDEST PUSH1 0x0 DUP2 SWAP1 POP SWAP2 SWAP1 POP JUMP JUMPDEST PUSH1 0x0 JUMPDEST DUP4 DUP2 LT ISZERO PUSH2 0x5B5 JUMPI DUP1 DUP3 ADD MLOAD DUP2 DUP5 ADD MSTORE PUSH1 0x20 DUP2 ADD SWAP1 POP PUSH2 0x59A JUMP JUMPDEST DUP4 DUP2 GT ISZERO PUSH2 0x5C4 JUMPI PUSH1 0x0 DUP5 DUP5 ADD MSTORE JUMPDEST POP POP POP POP JUMP JUMPDEST PUSH1 0x0 PUSH1 0x2 DUP3 DIV SWAP1 POP PUSH1 0x1 DUP3 AND DUP1 PUSH2 0x5E2 JUMPI PUSH1 0x7F DUP3 AND SWAP2 POP JUMPDEST PUSH1 0x20 DUP3 LT DUP2 EQ ISZERO PUSH2 0x5F6 JUMPI PUSH2 0x5F5 PUSH2 0x5FC JUMP JUMPDEST JUMPDEST POP SWAP2 SWAP1 POP JUMP JUMPDEST PUSH32 0x4E487B7100000000000000000000000000000000000000000000000000000000 PUSH1 0x0 MSTORE PUSH1 0x22 PUSH1 0x4 MSTORE PUSH1 0x24 PUSH1 0x0 REVERT JUMPDEST PUSH1 0x0 DUP1 REVERT JUMPDEST PUSH1 0x0 PUSH1 0x1F NOT PUSH1 0x1F DUP4 ADD AND SWAP1 POP SWAP2 SWAP1 POP JUMP JUMPDEST PUSH2 0x64A DUP2 PUSH2 0x55B JUMP JUMPDEST DUP2 EQ PUSH2 0x655 JUMPI PUSH1 0x0 DUP1 REVERT JUMPDEST POP JUMP INVALID LOG2 PUSH5 0x6970667358 0x22 SLT KECCAK256 0xBB 0xE1 RETURNDATACOPY STATICCALL DUP12 AND PC 0xDA SWAP1 ADD SWAP9 JUMP PUSH10 0x50199211FE8E5F5A8B3 DUP7 ADDMOD 0xDC 0xC SWAP5 0xBF 0x23 SWAP1 SWAP13 PUSH5 0x736F6C6343 STOP ADDMOD SMOD STOP CALLER "
				},
				"gasEstimates": {
					"creation": {
						"codeDepositCost": "335600",
						"executionCost": "374",
						"totalCost": "335974"
					},
					"external": {
						"examples()": "infinite",
						"readOnly(address)": "infinite"
					}
				},
				"methodIdentifiers": {
					"examples()": "335d00c2",
					"readOnly(address)": "9287abc6"
				}
			},
			"storageLayout": {
				"storage": [
					{
						"astId": 11,
						"contract": "solidity_korea/storage_calldata_memory.sol:Storage",
						"label": "myStructs",
						"offset": 0,
						"slot": "0",
						"type": "t_mapping(t_address,t_struct(MyStruct)6_storage)"
					}
				],
				"types": {
					"t_address": {
						"encoding": "inplace",
						"label": "address",
						"numberOfBytes": "20"
					},
					"t_mapping(t_address,t_struct(MyStruct)6_storage)": {
						"encoding": "mapping",
						"key": "t_address",
						"label": "mapping(address => struct Storage.MyStruct)",
						"numberOfBytes": "32",
						"value": "t_struct(MyStruct)6_storage"
					},
					"t_string_storage": {
						"encoding": "bytes",
						"label": "string",
						"numberOfBytes": "32"
					},
					"t_struct(MyStruct)6_storage": {
						"encoding": "inplace",
						"label": "struct Storage.MyStruct",
						"members": [
							{
								"astId": 3,
								"contract": "solidity_korea/storage_calldata_memory.sol:Storage",
								"label": "foo",
								"offset": 0,
								"slot": "0",
								"type": "t_uint256"
							},
							{
								"astId": 5,
								"contract": "solidity_korea/storage_calldata_memory.sol:Storage",
								"label": "text",
								"offset": 0,
								"slot": "1",
								"type": "t_string_storage"
							}
						],
						"numberOfBytes": "64"
					},
					"t_uint256": {
						"encoding": "inplace",
						"label": "uint256",
						"numberOfBytes": "32"
					}
				}
			},
			"userdoc": {
				"kind": "user",
				"methods": {},
				"version": 1
			}
		}
	}
}