{
	"solidity_korea/storage_calldata_memory.sol": {
		"Storage": {
			"abi": [
				{
					"inputs": [
						{
							"internalType": "uint256[]",
							"name": "y",
							"type": "uint256[]"
						},
						{
							"internalType": "string",
							"name": "s",
							"type": "string"
						}
					],
					"name": "examples",
					"outputs": [
						{
							"internalType": "uint256[]",
							"name": "",
							"type": "uint256[]"
						}
					],
					"stateMutability": "nonpayable",
					"type": "function"
				},
				{
					"inputs": [
						{
							"internalType": "address",
							"name": "addr",
							"type": "address"
						}
					],
					"name": "readOnlys",
					"outputs": [
						{
							"components": [
								{
									"internalType": "uint256",
									"name": "foo",
									"type": "uint256"
								},
								{
									"internalType": "string",
									"name": "text",
									"type": "string"
								}
							],
							"internalType": "struct Storage.MyStruct",
							"name": "",
							"type": "tuple"
						}
					],
					"stateMutability": "view",
					"type": "function"
				}
			],
			"devdoc": {
				"kind": "dev",
				"methods": {},
				"version": 1
			},
			"evm": {
				"assembly": "    /* \"solidity_korea/storage_calldata_memory.sol\":61:784  contract Storage{... */\n  mstore(0x40, 0x80)\n  callvalue\n  dup1\n  iszero\n  tag_1\n  jumpi\n  0x00\n  dup1\n  revert\ntag_1:\n  pop\n  dataSize(sub_0)\n  dup1\n  dataOffset(sub_0)\n  0x00\n  codecopy\n  0x00\n  return\nstop\n\nsub_0: assembly {\n        /* \"solidity_korea/storage_calldata_memory.sol\":61:784  contract Storage{... */\n      mstore(0x40, 0x80)\n      callvalue\n      dup1\n      iszero\n      tag_1\n      jumpi\n      0x00\n      dup1\n      revert\n    tag_1:\n      pop\n      jumpi(tag_2, lt(calldatasize, 0x04))\n      shr(0xe0, calldataload(0x00))\n      dup1\n      0xd6d6d74f\n      eq\n      tag_3\n      jumpi\n      dup1\n      0xfc277a95\n      eq\n      tag_4\n      jumpi\n    tag_2:\n      0x00\n      dup1\n      revert\n        /* \"solidity_korea/storage_calldata_memory.sol\":673:781  function readOnlys(address addr) external view returns(MyStruct memory){... */\n    tag_3:\n      tag_5\n      0x04\n      dup1\n      calldatasize\n      sub\n      dup2\n      add\n      swap1\n      tag_6\n      swap2\n      swap1\n      tag_7\n      jump\t// in\n    tag_6:\n      tag_8\n      jump\t// in\n    tag_5:\n      mload(0x40)\n      tag_9\n      swap2\n      swap1\n      tag_10\n      jump\t// in\n    tag_9:\n      mload(0x40)\n      dup1\n      swap2\n      sub\n      swap1\n      return\n        /* \"solidity_korea/storage_calldata_memory.sol\":230:668  function examples(uint[] memory y, string memory s) external returns(uint[] memory){... */\n    tag_4:\n      tag_11\n      0x04\n      dup1\n      calldatasize\n      sub\n      dup2\n      add\n      swap1\n      tag_12\n      swap2\n      swap1\n      tag_13\n      jump\t// in\n    tag_12:\n      tag_14\n      jump\t// in\n    tag_11:\n      mload(0x40)\n      tag_15\n      swap2\n      swap1\n      tag_16\n      jump\t// in\n    tag_15:\n      mload(0x40)\n      dup1\n      swap2\n      sub\n      swap1\n      return\n        /* \"solidity_korea/storage_calldata_memory.sol\":673:781  function readOnlys(address addr) external view returns(MyStruct memory){... */\n    tag_8:\n        /* \"solidity_korea/storage_calldata_memory.sol\":728:743  MyStruct memory */\n      tag_17\n      tag_18\n      jump\t// in\n    tag_17:\n        /* \"solidity_korea/storage_calldata_memory.sol\":760:769  myStructs */\n      0x00\n        /* \"solidity_korea/storage_calldata_memory.sol\":760:775  myStructs[addr] */\n      dup1\n        /* \"solidity_korea/storage_calldata_memory.sol\":770:774  addr */\n      dup4\n        /* \"solidity_korea/storage_calldata_memory.sol\":760:775  myStructs[addr] */\n      0xffffffffffffffffffffffffffffffffffffffff\n      and\n      0xffffffffffffffffffffffffffffffffffffffff\n      and\n      dup2\n      mstore\n      0x20\n      add\n      swap1\n      dup2\n      mstore\n      0x20\n      add\n      0x00\n      keccak256\n        /* \"solidity_korea/storage_calldata_memory.sol\":753:775  return myStructs[addr] */\n      mload(0x40)\n      dup1\n      0x40\n      add\n      0x40\n      mstore\n      swap1\n      dup2\n      0x00\n      dup3\n      add\n      sload\n      dup2\n      mstore\n      0x20\n      add\n      0x01\n      dup3\n      add\n      dup1\n      sload\n      tag_20\n      swap1\n      tag_21\n      jump\t// in\n    tag_20:\n      dup1\n      0x1f\n      add\n      0x20\n      dup1\n      swap2\n      div\n      mul\n      0x20\n      add\n      mload(0x40)\n      swap1\n      dup2\n      add\n      0x40\n      mstore\n      dup1\n      swap3\n      swap2\n      swap1\n      dup2\n      dup2\n      mstore\n      0x20\n      add\n      dup3\n      dup1\n      sload\n      tag_22\n      swap1\n      tag_21\n      jump\t// in\n    tag_22:\n      dup1\n      iszero\n      tag_23\n      jumpi\n      dup1\n      0x1f\n      lt\n      tag_24\n      jumpi\n      0x0100\n      dup1\n      dup4\n      sload\n      div\n      mul\n      dup4\n      mstore\n      swap2\n      0x20\n      add\n      swap2\n      jump(tag_23)\n    tag_24:\n      dup3\n      add\n      swap2\n      swap1\n      0x00\n      mstore\n      keccak256(0x00, 0x20)\n      swap1\n    tag_25:\n      dup2\n      sload\n      dup2\n      mstore\n      swap1\n      0x01\n      add\n      swap1\n      0x20\n      add\n      dup1\n      dup4\n      gt\n      tag_25\n      jumpi\n      dup3\n      swap1\n      sub\n      0x1f\n      and\n      dup3\n      add\n      swap2\n    tag_23:\n      pop\n      pop\n      pop\n      pop\n      pop\n      dup2\n      mstore\n      pop\n      pop\n      swap1\n      pop\n        /* \"solidity_korea/storage_calldata_memory.sol\":673:781  function readOnlys(address addr) external view returns(MyStruct memory){... */\n      swap2\n      swap1\n      pop\n      jump\t// out\n        /* \"solidity_korea/storage_calldata_memory.sol\":230:668  function examples(uint[] memory y, string memory s) external returns(uint[] memory){... */\n    tag_14:\n        /* \"solidity_korea/storage_calldata_memory.sol\":299:312  uint[] memory */\n      0x60\n        /* \"solidity_korea/storage_calldata_memory.sol\":343:375  MyStruct({foo:123,text:\"hello\"}) */\n      mload(0x40)\n      dup1\n      0x40\n      add\n      0x40\n      mstore\n      dup1\n        /* \"solidity_korea/storage_calldata_memory.sol\":357:360  123 */\n      0x7b\n        /* \"solidity_korea/storage_calldata_memory.sol\":343:375  MyStruct({foo:123,text:\"hello\"}) */\n      dup2\n      mstore\n      0x20\n      add\n      mload(0x40)\n      dup1\n      0x40\n      add\n      0x40\n      mstore\n      dup1\n      0x05\n      dup2\n      mstore\n      0x20\n      add\n      0x68656c6c6f000000000000000000000000000000000000000000000000000000\n      dup2\n      mstore\n      pop\n      dup2\n      mstore\n      pop\n        /* \"solidity_korea/storage_calldata_memory.sol\":319:328  myStructs */\n      0x00\n        /* \"solidity_korea/storage_calldata_memory.sol\":319:340  myStructs[msg.sender] */\n      dup1\n        /* \"solidity_korea/storage_calldata_memory.sol\":329:339  msg.sender */\n      caller\n        /* \"solidity_korea/storage_calldata_memory.sol\":319:340  myStructs[msg.sender] */\n      0xffffffffffffffffffffffffffffffffffffffff\n      and\n      0xffffffffffffffffffffffffffffffffffffffff\n      and\n      dup2\n      mstore\n      0x20\n      add\n      swap1\n      dup2\n      mstore\n      0x20\n      add\n      0x00\n      keccak256\n        /* \"solidity_korea/storage_calldata_memory.sol\":319:375  myStructs[msg.sender] = MyStruct({foo:123,text:\"hello\"}) */\n      0x00\n      dup3\n      add\n      mload\n      dup2\n      0x00\n      add\n      sstore\n      0x20\n      dup3\n      add\n      mload\n      dup2\n      0x01\n      add\n      swap1\n      dup1\n      mload\n      swap1\n      0x20\n      add\n      swap1\n      tag_27\n      swap3\n      swap2\n      swap1\n      tag_28\n      jump\t// in\n    tag_27:\n      pop\n      swap1\n      pop\n      pop\n        /* \"solidity_korea/storage_calldata_memory.sol\":381:406  MyStruct storage myStruct */\n      0x00\n        /* \"solidity_korea/storage_calldata_memory.sol\":409:418  myStructs */\n      dup1\n        /* \"solidity_korea/storage_calldata_memory.sol\":409:430  myStructs[msg.sender] */\n      0x00\n        /* \"solidity_korea/storage_calldata_memory.sol\":419:429  msg.sender */\n      caller\n        /* \"solidity_korea/storage_calldata_memory.sol\":409:430  myStructs[msg.sender] */\n      0xffffffffffffffffffffffffffffffffffffffff\n      and\n      0xffffffffffffffffffffffffffffffffffffffff\n      and\n      dup2\n      mstore\n      0x20\n      add\n      swap1\n      dup2\n      mstore\n      0x20\n      add\n      0x00\n      keccak256\n        /* \"solidity_korea/storage_calldata_memory.sol\":381:430  MyStruct storage myStruct = myStructs[msg.sender] */\n      swap1\n      pop\n        /* \"solidity_korea/storage_calldata_memory.sol\":436:461  myStruct.text =\"no hello\" */\n      mload(0x40)\n      dup1\n      0x40\n      add\n      0x40\n      mstore\n      dup1\n      0x08\n      dup2\n      mstore\n      0x20\n      add\n      0x6e6f2068656c6c6f000000000000000000000000000000000000000000000000\n      dup2\n      mstore\n      pop\n        /* \"solidity_korea/storage_calldata_memory.sol\":436:444  myStruct */\n      dup2\n        /* \"solidity_korea/storage_calldata_memory.sol\":436:449  myStruct.text */\n      0x01\n      add\n        /* \"solidity_korea/storage_calldata_memory.sol\":436:461  myStruct.text =\"no hello\" */\n      swap1\n      dup1\n      mload\n      swap1\n      0x20\n      add\n      swap1\n      tag_29\n      swap3\n      swap2\n      swap1\n      tag_28\n      jump\t// in\n    tag_29:\n      pop\n        /* \"solidity_korea/storage_calldata_memory.sol\":584:604  uint[] memory menArr */\n      0x00\n        /* \"solidity_korea/storage_calldata_memory.sol\":618:619  3 */\n      0x03\n        /* \"solidity_korea/storage_calldata_memory.sol\":607:620  new uint[](3) */\n      0xffffffffffffffff\n      dup2\n      gt\n      iszero\n      tag_30\n      jumpi\n      tag_31\n      tag_32\n      jump\t// in\n    tag_31:\n    tag_30:\n      mload(0x40)\n      swap1\n      dup1\n      dup3\n      mstore\n      dup1\n      0x20\n      mul\n      0x20\n      add\n      dup3\n      add\n      0x40\n      mstore\n      dup1\n      iszero\n      tag_33\n      jumpi\n      dup2\n      0x20\n      add\n      0x20\n      dup3\n      mul\n      dup1\n      calldatasize\n      dup4\n      calldatacopy\n      dup1\n      dup3\n      add\n      swap2\n      pop\n      pop\n      swap1\n      pop\n    tag_33:\n      pop\n        /* \"solidity_korea/storage_calldata_memory.sol\":584:620  uint[] memory menArr = new uint[](3) */\n      swap1\n      pop\n        /* \"solidity_korea/storage_calldata_memory.sol\":638:641  123 */\n      0x7b\n        /* \"solidity_korea/storage_calldata_memory.sol\":626:632  menArr */\n      dup2\n        /* \"solidity_korea/storage_calldata_memory.sol\":633:634  0 */\n      0x00\n        /* \"solidity_korea/storage_calldata_memory.sol\":626:635  menArr[0] */\n      dup2\n      mload\n      dup2\n      lt\n      tag_34\n      jumpi\n      tag_35\n      tag_36\n      jump\t// in\n    tag_35:\n    tag_34:\n      0x20\n      mul\n      0x20\n      add\n      add\n        /* \"solidity_korea/storage_calldata_memory.sol\":626:641  menArr[0] = 123 */\n      dup2\n      dup2\n      mstore\n      pop\n      pop\n        /* \"solidity_korea/storage_calldata_memory.sol\":655:661  menArr */\n      dup1\n        /* \"solidity_korea/storage_calldata_memory.sol\":648:661  return menArr */\n      swap3\n      pop\n      pop\n      pop\n        /* \"solidity_korea/storage_calldata_memory.sol\":230:668  function examples(uint[] memory y, string memory s) external returns(uint[] memory){... */\n      swap3\n      swap2\n      pop\n      pop\n      jump\t// out\n    tag_18:\n      mload(0x40)\n      dup1\n      0x40\n      add\n      0x40\n      mstore\n      dup1\n      0x00\n      dup2\n      mstore\n      0x20\n      add\n      0x60\n      dup2\n      mstore\n      pop\n      swap1\n      jump\t// out\n    tag_28:\n      dup3\n      dup1\n      sload\n      tag_37\n      swap1\n      tag_21\n      jump\t// in\n    tag_37:\n      swap1\n      0x00\n      mstore\n      keccak256(0x00, 0x20)\n      swap1\n      0x1f\n      add\n      0x20\n      swap1\n      div\n      dup2\n      add\n      swap3\n      dup3\n      tag_39\n      jumpi\n      0x00\n      dup6\n      sstore\n      jump(tag_38)\n    tag_39:\n      dup3\n      0x1f\n      lt\n      tag_40\n      jumpi\n      dup1\n      mload\n      not(0xff)\n      and\n      dup4\n      dup1\n      add\n      or\n      dup6\n      sstore\n      jump(tag_38)\n    tag_40:\n      dup3\n      dup1\n      add\n      0x01\n      add\n      dup6\n      sstore\n      dup3\n      iszero\n      tag_38\n      jumpi\n      swap2\n      dup3\n      add\n    tag_41:\n      dup3\n      dup2\n      gt\n      iszero\n      tag_42\n      jumpi\n      dup3\n      mload\n      dup3\n      sstore\n      swap2\n      0x20\n      add\n      swap2\n      swap1\n      0x01\n      add\n      swap1\n      jump(tag_41)\n    tag_42:\n    tag_38:\n      pop\n      swap1\n      pop\n      tag_43\n      swap2\n      swap1\n      tag_44\n      jump\t// in\n    tag_43:\n      pop\n      swap1\n      jump\t// out\n    tag_44:\n    tag_45:\n      dup1\n      dup3\n      gt\n      iszero\n      tag_46\n      jumpi\n      0x00\n      dup2\n      0x00\n      swap1\n      sstore\n      pop\n      0x01\n      add\n      jump(tag_45)\n    tag_46:\n      pop\n      swap1\n      jump\t// out\n        /* \"#utility.yul\":24:746   */\n    tag_48:\n        /* \"#utility.yul\":120:125   */\n      0x00\n        /* \"#utility.yul\":145:226   */\n      tag_50\n        /* \"#utility.yul\":161:225   */\n      tag_51\n        /* \"#utility.yul\":218:224   */\n      dup5\n        /* \"#utility.yul\":161:225   */\n      tag_52\n      jump\t// in\n    tag_51:\n        /* \"#utility.yul\":145:226   */\n      tag_53\n      jump\t// in\n    tag_50:\n        /* \"#utility.yul\":136:226   */\n      swap1\n      pop\n        /* \"#utility.yul\":246:251   */\n      dup1\n        /* \"#utility.yul\":275:281   */\n      dup4\n        /* \"#utility.yul\":268:273   */\n      dup3\n        /* \"#utility.yul\":261:282   */\n      mstore\n        /* \"#utility.yul\":309:313   */\n      0x20\n        /* \"#utility.yul\":302:307   */\n      dup3\n        /* \"#utility.yul\":298:314   */\n      add\n        /* \"#utility.yul\":291:314   */\n      swap1\n      pop\n        /* \"#utility.yul\":335:341   */\n      dup3\n        /* \"#utility.yul\":385:388   */\n      dup6\n        /* \"#utility.yul\":377:381   */\n      0x20\n        /* \"#utility.yul\":369:375   */\n      dup7\n        /* \"#utility.yul\":365:382   */\n      mul\n        /* \"#utility.yul\":360:363   */\n      dup3\n        /* \"#utility.yul\":356:383   */\n      add\n        /* \"#utility.yul\":353:389   */\n      gt\n        /* \"#utility.yul\":350:493   */\n      iszero\n      tag_54\n      jumpi\n        /* \"#utility.yul\":404:483   */\n      tag_55\n      tag_56\n      jump\t// in\n    tag_55:\n        /* \"#utility.yul\":350:493   */\n    tag_54:\n        /* \"#utility.yul\":517:518   */\n      0x00\n        /* \"#utility.yul\":502:740   */\n    tag_57:\n        /* \"#utility.yul\":527:533   */\n      dup6\n        /* \"#utility.yul\":524:525   */\n      dup2\n        /* \"#utility.yul\":521:534   */\n      lt\n        /* \"#utility.yul\":502:740   */\n      iszero\n      tag_59\n      jumpi\n        /* \"#utility.yul\":595:598   */\n      dup2\n        /* \"#utility.yul\":624:661   */\n      tag_60\n        /* \"#utility.yul\":657:660   */\n      dup9\n        /* \"#utility.yul\":645:655   */\n      dup3\n        /* \"#utility.yul\":624:661   */\n      tag_61\n      jump\t// in\n    tag_60:\n        /* \"#utility.yul\":619:622   */\n      dup5\n        /* \"#utility.yul\":612:662   */\n      mstore\n        /* \"#utility.yul\":691:695   */\n      0x20\n        /* \"#utility.yul\":686:689   */\n      dup5\n        /* \"#utility.yul\":682:696   */\n      add\n        /* \"#utility.yul\":675:696   */\n      swap4\n      pop\n        /* \"#utility.yul\":725:729   */\n      0x20\n        /* \"#utility.yul\":720:723   */\n      dup4\n        /* \"#utility.yul\":716:730   */\n      add\n        /* \"#utility.yul\":709:730   */\n      swap3\n      pop\n        /* \"#utility.yul\":562:740   */\n      pop\n        /* \"#utility.yul\":549:550   */\n      0x01\n        /* \"#utility.yul\":546:547   */\n      dup2\n        /* \"#utility.yul\":542:551   */\n      add\n        /* \"#utility.yul\":537:551   */\n      swap1\n      pop\n        /* \"#utility.yul\":502:740   */\n      jump(tag_57)\n    tag_59:\n        /* \"#utility.yul\":506:520   */\n      pop\n        /* \"#utility.yul\":126:746   */\n      pop\n      pop\n        /* \"#utility.yul\":24:746   */\n      swap4\n      swap3\n      pop\n      pop\n      pop\n      jump\t// out\n        /* \"#utility.yul\":752:1164   */\n    tag_62:\n        /* \"#utility.yul\":830:835   */\n      0x00\n        /* \"#utility.yul\":855:921   */\n      tag_64\n        /* \"#utility.yul\":871:920   */\n      tag_65\n        /* \"#utility.yul\":913:919   */\n      dup5\n        /* \"#utility.yul\":871:920   */\n      tag_66\n      jump\t// in\n    tag_65:\n        /* \"#utility.yul\":855:921   */\n      tag_53\n      jump\t// in\n    tag_64:\n        /* \"#utility.yul\":846:921   */\n      swap1\n      pop\n        /* \"#utility.yul\":944:950   */\n      dup3\n        /* \"#utility.yul\":937:942   */\n      dup2\n        /* \"#utility.yul\":930:951   */\n      mstore\n        /* \"#utility.yul\":982:986   */\n      0x20\n        /* \"#utility.yul\":975:980   */\n      dup2\n        /* \"#utility.yul\":971:987   */\n      add\n        /* \"#utility.yul\":1020:1023   */\n      dup5\n        /* \"#utility.yul\":1011:1017   */\n      dup5\n        /* \"#utility.yul\":1006:1009   */\n      dup5\n        /* \"#utility.yul\":1002:1018   */\n      add\n        /* \"#utility.yul\":999:1024   */\n      gt\n        /* \"#utility.yul\":996:1108   */\n      iszero\n      tag_67\n      jumpi\n        /* \"#utility.yul\":1027:1106   */\n      tag_68\n      tag_69\n      jump\t// in\n    tag_68:\n        /* \"#utility.yul\":996:1108   */\n    tag_67:\n        /* \"#utility.yul\":1117:1158   */\n      tag_70\n        /* \"#utility.yul\":1151:1157   */\n      dup5\n        /* \"#utility.yul\":1146:1149   */\n      dup3\n        /* \"#utility.yul\":1141:1144   */\n      dup6\n        /* \"#utility.yul\":1117:1158   */\n      tag_71\n      jump\t// in\n    tag_70:\n        /* \"#utility.yul\":836:1164   */\n      pop\n        /* \"#utility.yul\":752:1164   */\n      swap4\n      swap3\n      pop\n      pop\n      pop\n      jump\t// out\n        /* \"#utility.yul\":1170:1309   */\n    tag_72:\n        /* \"#utility.yul\":1216:1221   */\n      0x00\n        /* \"#utility.yul\":1254:1260   */\n      dup2\n        /* \"#utility.yul\":1241:1261   */\n      calldataload\n        /* \"#utility.yul\":1232:1261   */\n      swap1\n      pop\n        /* \"#utility.yul\":1270:1303   */\n      tag_74\n        /* \"#utility.yul\":1297:1302   */\n      dup2\n        /* \"#utility.yul\":1270:1303   */\n      tag_75\n      jump\t// in\n    tag_74:\n        /* \"#utility.yul\":1170:1309   */\n      swap3\n      swap2\n      pop\n      pop\n      jump\t// out\n        /* \"#utility.yul\":1332:1702   */\n    tag_76:\n        /* \"#utility.yul\":1403:1408   */\n      0x00\n        /* \"#utility.yul\":1452:1455   */\n      dup3\n        /* \"#utility.yul\":1445:1449   */\n      0x1f\n        /* \"#utility.yul\":1437:1443   */\n      dup4\n        /* \"#utility.yul\":1433:1450   */\n      add\n        /* \"#utility.yul\":1429:1456   */\n      slt\n        /* \"#utility.yul\":1419:1541   */\n      tag_78\n      jumpi\n        /* \"#utility.yul\":1460:1539   */\n      tag_79\n      tag_80\n      jump\t// in\n    tag_79:\n        /* \"#utility.yul\":1419:1541   */\n    tag_78:\n        /* \"#utility.yul\":1577:1583   */\n      dup2\n        /* \"#utility.yul\":1564:1584   */\n      calldataload\n        /* \"#utility.yul\":1602:1696   */\n      tag_81\n        /* \"#utility.yul\":1692:1695   */\n      dup5\n        /* \"#utility.yul\":1684:1690   */\n      dup3\n        /* \"#utility.yul\":1677:1681   */\n      0x20\n        /* \"#utility.yul\":1669:1675   */\n      dup7\n        /* \"#utility.yul\":1665:1682   */\n      add\n        /* \"#utility.yul\":1602:1696   */\n      tag_48\n      jump\t// in\n    tag_81:\n        /* \"#utility.yul\":1593:1696   */\n      swap2\n      pop\n        /* \"#utility.yul\":1409:1702   */\n      pop\n        /* \"#utility.yul\":1332:1702   */\n      swap3\n      swap2\n      pop\n      pop\n      jump\t// out\n        /* \"#utility.yul\":1722:2062   */\n    tag_82:\n        /* \"#utility.yul\":1778:1783   */\n      0x00\n        /* \"#utility.yul\":1827:1830   */\n      dup3\n        /* \"#utility.yul\":1820:1824   */\n      0x1f\n        /* \"#utility.yul\":1812:1818   */\n      dup4\n        /* \"#utility.yul\":1808:1825   */\n      add\n        /* \"#utility.yul\":1804:1831   */\n      slt\n        /* \"#utility.yul\":1794:1916   */\n      tag_84\n      jumpi\n        /* \"#utility.yul\":1835:1914   */\n      tag_85\n      tag_80\n      jump\t// in\n    tag_85:\n        /* \"#utility.yul\":1794:1916   */\n    tag_84:\n        /* \"#utility.yul\":1952:1958   */\n      dup2\n        /* \"#utility.yul\":1939:1959   */\n      calldataload\n        /* \"#utility.yul\":1977:2056   */\n      tag_86\n        /* \"#utility.yul\":2052:2055   */\n      dup5\n        /* \"#utility.yul\":2044:2050   */\n      dup3\n        /* \"#utility.yul\":2037:2041   */\n      0x20\n        /* \"#utility.yul\":2029:2035   */\n      dup7\n        /* \"#utility.yul\":2025:2042   */\n      add\n        /* \"#utility.yul\":1977:2056   */\n      tag_62\n      jump\t// in\n    tag_86:\n        /* \"#utility.yul\":1968:2056   */\n      swap2\n      pop\n        /* \"#utility.yul\":1784:2062   */\n      pop\n        /* \"#utility.yul\":1722:2062   */\n      swap3\n      swap2\n      pop\n      pop\n      jump\t// out\n        /* \"#utility.yul\":2068:2207   */\n    tag_61:\n        /* \"#utility.yul\":2114:2119   */\n      0x00\n        /* \"#utility.yul\":2152:2158   */\n      dup2\n        /* \"#utility.yul\":2139:2159   */\n      calldataload\n        /* \"#utility.yul\":2130:2159   */\n      swap1\n      pop\n        /* \"#utility.yul\":2168:2201   */\n      tag_88\n        /* \"#utility.yul\":2195:2200   */\n      dup2\n        /* \"#utility.yul\":2168:2201   */\n      tag_89\n      jump\t// in\n    tag_88:\n        /* \"#utility.yul\":2068:2207   */\n      swap3\n      swap2\n      pop\n      pop\n      jump\t// out\n        /* \"#utility.yul\":2213:2542   */\n    tag_7:\n        /* \"#utility.yul\":2272:2278   */\n      0x00\n        /* \"#utility.yul\":2321:2323   */\n      0x20\n        /* \"#utility.yul\":2309:2318   */\n      dup3\n        /* \"#utility.yul\":2300:2307   */\n      dup5\n        /* \"#utility.yul\":2296:2319   */\n      sub\n        /* \"#utility.yul\":2292:2324   */\n      slt\n        /* \"#utility.yul\":2289:2408   */\n      iszero\n      tag_91\n      jumpi\n        /* \"#utility.yul\":2327:2406   */\n      tag_92\n      tag_93\n      jump\t// in\n    tag_92:\n        /* \"#utility.yul\":2289:2408   */\n    tag_91:\n        /* \"#utility.yul\":2447:2448   */\n      0x00\n        /* \"#utility.yul\":2472:2525   */\n      tag_94\n        /* \"#utility.yul\":2517:2524   */\n      dup5\n        /* \"#utility.yul\":2508:2514   */\n      dup3\n        /* \"#utility.yul\":2497:2506   */\n      dup6\n        /* \"#utility.yul\":2493:2515   */\n      add\n        /* \"#utility.yul\":2472:2525   */\n      tag_72\n      jump\t// in\n    tag_94:\n        /* \"#utility.yul\":2462:2525   */\n      swap2\n      pop\n        /* \"#utility.yul\":2418:2535   */\n      pop\n        /* \"#utility.yul\":2213:2542   */\n      swap3\n      swap2\n      pop\n      pop\n      jump\t// out\n        /* \"#utility.yul\":2548:3412   */\n    tag_13:\n        /* \"#utility.yul\":2651:2657   */\n      0x00\n        /* \"#utility.yul\":2659:2665   */\n      dup1\n        /* \"#utility.yul\":2708:2710   */\n      0x40\n        /* \"#utility.yul\":2696:2705   */\n      dup4\n        /* \"#utility.yul\":2687:2694   */\n      dup6\n        /* \"#utility.yul\":2683:2706   */\n      sub\n        /* \"#utility.yul\":2679:2711   */\n      slt\n        /* \"#utility.yul\":2676:2795   */\n      iszero\n      tag_96\n      jumpi\n        /* \"#utility.yul\":2714:2793   */\n      tag_97\n      tag_93\n      jump\t// in\n    tag_97:\n        /* \"#utility.yul\":2676:2795   */\n    tag_96:\n        /* \"#utility.yul\":2862:2863   */\n      0x00\n        /* \"#utility.yul\":2851:2860   */\n      dup4\n        /* \"#utility.yul\":2847:2864   */\n      add\n        /* \"#utility.yul\":2834:2865   */\n      calldataload\n        /* \"#utility.yul\":2892:2910   */\n      0xffffffffffffffff\n        /* \"#utility.yul\":2884:2890   */\n      dup2\n        /* \"#utility.yul\":2881:2911   */\n      gt\n        /* \"#utility.yul\":2878:2995   */\n      iszero\n      tag_98\n      jumpi\n        /* \"#utility.yul\":2914:2993   */\n      tag_99\n      tag_100\n      jump\t// in\n    tag_99:\n        /* \"#utility.yul\":2878:2995   */\n    tag_98:\n        /* \"#utility.yul\":3019:3097   */\n      tag_101\n        /* \"#utility.yul\":3089:3096   */\n      dup6\n        /* \"#utility.yul\":3080:3086   */\n      dup3\n        /* \"#utility.yul\":3069:3078   */\n      dup7\n        /* \"#utility.yul\":3065:3087   */\n      add\n        /* \"#utility.yul\":3019:3097   */\n      tag_76\n      jump\t// in\n    tag_101:\n        /* \"#utility.yul\":3009:3097   */\n      swap3\n      pop\n        /* \"#utility.yul\":2805:3107   */\n      pop\n        /* \"#utility.yul\":3174:3176   */\n      0x20\n        /* \"#utility.yul\":3163:3172   */\n      dup4\n        /* \"#utility.yul\":3159:3177   */\n      add\n        /* \"#utility.yul\":3146:3178   */\n      calldataload\n        /* \"#utility.yul\":3205:3223   */\n      0xffffffffffffffff\n        /* \"#utility.yul\":3197:3203   */\n      dup2\n        /* \"#utility.yul\":3194:3224   */\n      gt\n        /* \"#utility.yul\":3191:3308   */\n      iszero\n      tag_102\n      jumpi\n        /* \"#utility.yul\":3227:3306   */\n      tag_103\n      tag_100\n      jump\t// in\n    tag_103:\n        /* \"#utility.yul\":3191:3308   */\n    tag_102:\n        /* \"#utility.yul\":3332:3395   */\n      tag_104\n        /* \"#utility.yul\":3387:3394   */\n      dup6\n        /* \"#utility.yul\":3378:3384   */\n      dup3\n        /* \"#utility.yul\":3367:3376   */\n      dup7\n        /* \"#utility.yul\":3363:3385   */\n      add\n        /* \"#utility.yul\":3332:3395   */\n      tag_82\n      jump\t// in\n    tag_104:\n        /* \"#utility.yul\":3322:3395   */\n      swap2\n      pop\n        /* \"#utility.yul\":3117:3405   */\n      pop\n        /* \"#utility.yul\":2548:3412   */\n      swap3\n      pop\n      swap3\n      swap1\n      pop\n      jump\t// out\n        /* \"#utility.yul\":3418:3597   */\n    tag_105:\n        /* \"#utility.yul\":3487:3497   */\n      0x00\n        /* \"#utility.yul\":3508:3554   */\n      tag_107\n        /* \"#utility.yul\":3550:3553   */\n      dup4\n        /* \"#utility.yul\":3542:3548   */\n      dup4\n        /* \"#utility.yul\":3508:3554   */\n      tag_108\n      jump\t// in\n    tag_107:\n        /* \"#utility.yul\":3586:3590   */\n      0x20\n        /* \"#utility.yul\":3581:3584   */\n      dup4\n        /* \"#utility.yul\":3577:3591   */\n      add\n        /* \"#utility.yul\":3563:3591   */\n      swap1\n      pop\n        /* \"#utility.yul\":3418:3597   */\n      swap3\n      swap2\n      pop\n      pop\n      jump\t// out\n        /* \"#utility.yul\":3633:4365   */\n    tag_109:\n        /* \"#utility.yul\":3752:3755   */\n      0x00\n        /* \"#utility.yul\":3781:3835   */\n      tag_111\n        /* \"#utility.yul\":3829:3834   */\n      dup3\n        /* \"#utility.yul\":3781:3835   */\n      tag_112\n      jump\t// in\n    tag_111:\n        /* \"#utility.yul\":3851:3937   */\n      tag_113\n        /* \"#utility.yul\":3930:3936   */\n      dup2\n        /* \"#utility.yul\":3925:3928   */\n      dup6\n        /* \"#utility.yul\":3851:3937   */\n      tag_114\n      jump\t// in\n    tag_113:\n        /* \"#utility.yul\":3844:3937   */\n      swap4\n      pop\n        /* \"#utility.yul\":3961:4017   */\n      tag_115\n        /* \"#utility.yul\":4011:4016   */\n      dup4\n        /* \"#utility.yul\":3961:4017   */\n      tag_116\n      jump\t// in\n    tag_115:\n        /* \"#utility.yul\":4040:4047   */\n      dup1\n        /* \"#utility.yul\":4071:4072   */\n      0x00\n        /* \"#utility.yul\":4056:4340   */\n    tag_117:\n        /* \"#utility.yul\":4081:4087   */\n      dup4\n        /* \"#utility.yul\":4078:4079   */\n      dup2\n        /* \"#utility.yul\":4075:4088   */\n      lt\n        /* \"#utility.yul\":4056:4340   */\n      iszero\n      tag_119\n      jumpi\n        /* \"#utility.yul\":4157:4163   */\n      dup2\n        /* \"#utility.yul\":4151:4164   */\n      mload\n        /* \"#utility.yul\":4184:4247   */\n      tag_120\n        /* \"#utility.yul\":4243:4246   */\n      dup9\n        /* \"#utility.yul\":4228:4241   */\n      dup3\n        /* \"#utility.yul\":4184:4247   */\n      tag_105\n      jump\t// in\n    tag_120:\n        /* \"#utility.yul\":4177:4247   */\n      swap8\n      pop\n        /* \"#utility.yul\":4270:4330   */\n      tag_121\n        /* \"#utility.yul\":4323:4329   */\n      dup4\n        /* \"#utility.yul\":4270:4330   */\n      tag_122\n      jump\t// in\n    tag_121:\n        /* \"#utility.yul\":4260:4330   */\n      swap3\n      pop\n        /* \"#utility.yul\":4116:4340   */\n      pop\n        /* \"#utility.yul\":4103:4104   */\n      0x01\n        /* \"#utility.yul\":4100:4101   */\n      dup2\n        /* \"#utility.yul\":4096:4105   */\n      add\n        /* \"#utility.yul\":4091:4105   */\n      swap1\n      pop\n        /* \"#utility.yul\":4056:4340   */\n      jump(tag_117)\n    tag_119:\n        /* \"#utility.yul\":4060:4074   */\n      pop\n        /* \"#utility.yul\":4356:4359   */\n      dup6\n        /* \"#utility.yul\":4349:4359   */\n      swap4\n      pop\n        /* \"#utility.yul\":3757:4365   */\n      pop\n      pop\n      pop\n        /* \"#utility.yul\":3633:4365   */\n      swap3\n      swap2\n      pop\n      pop\n      jump\t// out\n        /* \"#utility.yul\":4371:4715   */\n    tag_123:\n        /* \"#utility.yul\":4449:4452   */\n      0x00\n        /* \"#utility.yul\":4477:4516   */\n      tag_125\n        /* \"#utility.yul\":4510:4515   */\n      dup3\n        /* \"#utility.yul\":4477:4516   */\n      tag_126\n      jump\t// in\n    tag_125:\n        /* \"#utility.yul\":4532:4593   */\n      tag_127\n        /* \"#utility.yul\":4586:4592   */\n      dup2\n        /* \"#utility.yul\":4581:4584   */\n      dup6\n        /* \"#utility.yul\":4532:4593   */\n      tag_128\n      jump\t// in\n    tag_127:\n        /* \"#utility.yul\":4525:4593   */\n      swap4\n      pop\n        /* \"#utility.yul\":4602:4654   */\n      tag_129\n        /* \"#utility.yul\":4647:4653   */\n      dup2\n        /* \"#utility.yul\":4642:4645   */\n      dup6\n        /* \"#utility.yul\":4635:4639   */\n      0x20\n        /* \"#utility.yul\":4628:4633   */\n      dup7\n        /* \"#utility.yul\":4624:4640   */\n      add\n        /* \"#utility.yul\":4602:4654   */\n      tag_130\n      jump\t// in\n    tag_129:\n        /* \"#utility.yul\":4679:4708   */\n      tag_131\n        /* \"#utility.yul\":4701:4707   */\n      dup2\n        /* \"#utility.yul\":4679:4708   */\n      tag_132\n      jump\t// in\n    tag_131:\n        /* \"#utility.yul\":4674:4677   */\n      dup5\n        /* \"#utility.yul\":4670:4709   */\n      add\n        /* \"#utility.yul\":4663:4709   */\n      swap2\n      pop\n        /* \"#utility.yul\":4453:4715   */\n      pop\n        /* \"#utility.yul\":4371:4715   */\n      swap3\n      swap2\n      pop\n      pop\n      jump\t// out\n        /* \"#utility.yul\":4779:5380   */\n    tag_133:\n        /* \"#utility.yul\":4894:4897   */\n      0x00\n        /* \"#utility.yul\":4930:4934   */\n      0x40\n        /* \"#utility.yul\":4925:4928   */\n      dup4\n        /* \"#utility.yul\":4921:4935   */\n      add\n        /* \"#utility.yul\":5016:5020   */\n      0x00\n        /* \"#utility.yul\":5009:5014   */\n      dup4\n        /* \"#utility.yul\":5005:5021   */\n      add\n        /* \"#utility.yul\":4999:5022   */\n      mload\n        /* \"#utility.yul\":5035:5098   */\n      tag_135\n        /* \"#utility.yul\":5092:5096   */\n      0x00\n        /* \"#utility.yul\":5087:5090   */\n      dup7\n        /* \"#utility.yul\":5083:5097   */\n      add\n        /* \"#utility.yul\":5069:5081   */\n      dup3\n        /* \"#utility.yul\":5035:5098   */\n      tag_108\n      jump\t// in\n    tag_135:\n        /* \"#utility.yul\":4945:5108   */\n      pop\n        /* \"#utility.yul\":5190:5194   */\n      0x20\n        /* \"#utility.yul\":5183:5188   */\n      dup4\n        /* \"#utility.yul\":5179:5195   */\n      add\n        /* \"#utility.yul\":5173:5196   */\n      mload\n        /* \"#utility.yul\":5243:5246   */\n      dup5\n        /* \"#utility.yul\":5237:5241   */\n      dup3\n        /* \"#utility.yul\":5233:5247   */\n      sub\n        /* \"#utility.yul\":5226:5230   */\n      0x20\n        /* \"#utility.yul\":5221:5224   */\n      dup7\n        /* \"#utility.yul\":5217:5231   */\n      add\n        /* \"#utility.yul\":5210:5248   */\n      mstore\n        /* \"#utility.yul\":5269:5342   */\n      tag_136\n        /* \"#utility.yul\":5337:5341   */\n      dup3\n        /* \"#utility.yul\":5323:5335   */\n      dup3\n        /* \"#utility.yul\":5269:5342   */\n      tag_123\n      jump\t// in\n    tag_136:\n        /* \"#utility.yul\":5261:5342   */\n      swap2\n      pop\n        /* \"#utility.yul\":5118:5353   */\n      pop\n        /* \"#utility.yul\":5370:5374   */\n      dup1\n        /* \"#utility.yul\":5363:5374   */\n      swap2\n      pop\n        /* \"#utility.yul\":4899:5380   */\n      pop\n        /* \"#utility.yul\":4779:5380   */\n      swap3\n      swap2\n      pop\n      pop\n      jump\t// out\n        /* \"#utility.yul\":5386:5494   */\n    tag_108:\n        /* \"#utility.yul\":5463:5487   */\n      tag_138\n        /* \"#utility.yul\":5481:5486   */\n      dup2\n        /* \"#utility.yul\":5463:5487   */\n      tag_139\n      jump\t// in\n    tag_138:\n        /* \"#utility.yul\":5458:5461   */\n      dup3\n        /* \"#utility.yul\":5451:5488   */\n      mstore\n        /* \"#utility.yul\":5386:5494   */\n      pop\n      pop\n      jump\t// out\n        /* \"#utility.yul\":5500:5873   */\n    tag_16:\n        /* \"#utility.yul\":5643:5647   */\n      0x00\n        /* \"#utility.yul\":5681:5683   */\n      0x20\n        /* \"#utility.yul\":5670:5679   */\n      dup3\n        /* \"#utility.yul\":5666:5684   */\n      add\n        /* \"#utility.yul\":5658:5684   */\n      swap1\n      pop\n        /* \"#utility.yul\":5730:5739   */\n      dup2\n        /* \"#utility.yul\":5724:5728   */\n      dup2\n        /* \"#utility.yul\":5720:5740   */\n      sub\n        /* \"#utility.yul\":5716:5717   */\n      0x00\n        /* \"#utility.yul\":5705:5714   */\n      dup4\n        /* \"#utility.yul\":5701:5718   */\n      add\n        /* \"#utility.yul\":5694:5741   */\n      mstore\n        /* \"#utility.yul\":5758:5866   */\n      tag_141\n        /* \"#utility.yul\":5861:5865   */\n      dup2\n        /* \"#utility.yul\":5852:5858   */\n      dup5\n        /* \"#utility.yul\":5758:5866   */\n      tag_109\n      jump\t// in\n    tag_141:\n        /* \"#utility.yul\":5750:5866   */\n      swap1\n      pop\n        /* \"#utility.yul\":5500:5873   */\n      swap3\n      swap2\n      pop\n      pop\n      jump\t// out\n        /* \"#utility.yul\":5879:6244   */\n    tag_10:\n        /* \"#utility.yul\":6018:6022   */\n      0x00\n        /* \"#utility.yul\":6056:6058   */\n      0x20\n        /* \"#utility.yul\":6045:6054   */\n      dup3\n        /* \"#utility.yul\":6041:6059   */\n      add\n        /* \"#utility.yul\":6033:6059   */\n      swap1\n      pop\n        /* \"#utility.yul\":6105:6114   */\n      dup2\n        /* \"#utility.yul\":6099:6103   */\n      dup2\n        /* \"#utility.yul\":6095:6115   */\n      sub\n        /* \"#utility.yul\":6091:6092   */\n      0x00\n        /* \"#utility.yul\":6080:6089   */\n      dup4\n        /* \"#utility.yul\":6076:6093   */\n      add\n        /* \"#utility.yul\":6069:6116   */\n      mstore\n        /* \"#utility.yul\":6133:6237   */\n      tag_143\n        /* \"#utility.yul\":6232:6236   */\n      dup2\n        /* \"#utility.yul\":6223:6229   */\n      dup5\n        /* \"#utility.yul\":6133:6237   */\n      tag_133\n      jump\t// in\n    tag_143:\n        /* \"#utility.yul\":6125:6237   */\n      swap1\n      pop\n        /* \"#utility.yul\":5879:6244   */\n      swap3\n      swap2\n      pop\n      pop\n      jump\t// out\n        /* \"#utility.yul\":6250:6379   */\n    tag_53:\n        /* \"#utility.yul\":6284:6290   */\n      0x00\n        /* \"#utility.yul\":6311:6331   */\n      tag_145\n      tag_146\n      jump\t// in\n    tag_145:\n        /* \"#utility.yul\":6301:6331   */\n      swap1\n      pop\n        /* \"#utility.yul\":6340:6373   */\n      tag_147\n        /* \"#utility.yul\":6368:6372   */\n      dup3\n        /* \"#utility.yul\":6360:6366   */\n      dup3\n        /* \"#utility.yul\":6340:6373   */\n      tag_148\n      jump\t// in\n    tag_147:\n        /* \"#utility.yul\":6250:6379   */\n      swap2\n      swap1\n      pop\n      jump\t// out\n        /* \"#utility.yul\":6385:6460   */\n    tag_146:\n        /* \"#utility.yul\":6418:6424   */\n      0x00\n        /* \"#utility.yul\":6451:6453   */\n      0x40\n        /* \"#utility.yul\":6445:6454   */\n      mload\n        /* \"#utility.yul\":6435:6454   */\n      swap1\n      pop\n        /* \"#utility.yul\":6385:6460   */\n      swap1\n      jump\t// out\n        /* \"#utility.yul\":6466:6777   */\n    tag_52:\n        /* \"#utility.yul\":6543:6547   */\n      0x00\n        /* \"#utility.yul\":6633:6651   */\n      0xffffffffffffffff\n        /* \"#utility.yul\":6625:6631   */\n      dup3\n        /* \"#utility.yul\":6622:6652   */\n      gt\n        /* \"#utility.yul\":6619:6675   */\n      iszero\n      tag_151\n      jumpi\n        /* \"#utility.yul\":6655:6673   */\n      tag_152\n      tag_32\n      jump\t// in\n    tag_152:\n        /* \"#utility.yul\":6619:6675   */\n    tag_151:\n        /* \"#utility.yul\":6705:6709   */\n      0x20\n        /* \"#utility.yul\":6697:6703   */\n      dup3\n        /* \"#utility.yul\":6693:6710   */\n      mul\n        /* \"#utility.yul\":6685:6710   */\n      swap1\n      pop\n        /* \"#utility.yul\":6765:6769   */\n      0x20\n        /* \"#utility.yul\":6759:6763   */\n      dup2\n        /* \"#utility.yul\":6755:6770   */\n      add\n        /* \"#utility.yul\":6747:6770   */\n      swap1\n      pop\n        /* \"#utility.yul\":6466:6777   */\n      swap2\n      swap1\n      pop\n      jump\t// out\n        /* \"#utility.yul\":6783:7091   */\n    tag_66:\n        /* \"#utility.yul\":6845:6849   */\n      0x00\n        /* \"#utility.yul\":6935:6953   */\n      0xffffffffffffffff\n        /* \"#utility.yul\":6927:6933   */\n      dup3\n        /* \"#utility.yul\":6924:6954   */\n      gt\n        /* \"#utility.yul\":6921:6977   */\n      iszero\n      tag_154\n      jumpi\n        /* \"#utility.yul\":6957:6975   */\n      tag_155\n      tag_32\n      jump\t// in\n    tag_155:\n        /* \"#utility.yul\":6921:6977   */\n    tag_154:\n        /* \"#utility.yul\":6995:7024   */\n      tag_156\n        /* \"#utility.yul\":7017:7023   */\n      dup3\n        /* \"#utility.yul\":6995:7024   */\n      tag_132\n      jump\t// in\n    tag_156:\n        /* \"#utility.yul\":6987:7024   */\n      swap1\n      pop\n        /* \"#utility.yul\":7079:7083   */\n      0x20\n        /* \"#utility.yul\":7073:7077   */\n      dup2\n        /* \"#utility.yul\":7069:7084   */\n      add\n        /* \"#utility.yul\":7061:7084   */\n      swap1\n      pop\n        /* \"#utility.yul\":6783:7091   */\n      swap2\n      swap1\n      pop\n      jump\t// out\n        /* \"#utility.yul\":7097:7229   */\n    tag_116:\n        /* \"#utility.yul\":7164:7168   */\n      0x00\n        /* \"#utility.yul\":7187:7190   */\n      dup2\n        /* \"#utility.yul\":7179:7190   */\n      swap1\n      pop\n        /* \"#utility.yul\":7217:7221   */\n      0x20\n        /* \"#utility.yul\":7212:7215   */\n      dup3\n        /* \"#utility.yul\":7208:7222   */\n      add\n        /* \"#utility.yul\":7200:7222   */\n      swap1\n      pop\n        /* \"#utility.yul\":7097:7229   */\n      swap2\n      swap1\n      pop\n      jump\t// out\n        /* \"#utility.yul\":7235:7349   */\n    tag_112:\n        /* \"#utility.yul\":7302:7308   */\n      0x00\n        /* \"#utility.yul\":7336:7341   */\n      dup2\n        /* \"#utility.yul\":7330:7342   */\n      mload\n        /* \"#utility.yul\":7320:7342   */\n      swap1\n      pop\n        /* \"#utility.yul\":7235:7349   */\n      swap2\n      swap1\n      pop\n      jump\t// out\n        /* \"#utility.yul\":7355:7454   */\n    tag_126:\n        /* \"#utility.yul\":7407:7413   */\n      0x00\n        /* \"#utility.yul\":7441:7446   */\n      dup2\n        /* \"#utility.yul\":7435:7447   */\n      mload\n        /* \"#utility.yul\":7425:7447   */\n      swap1\n      pop\n        /* \"#utility.yul\":7355:7454   */\n      swap2\n      swap1\n      pop\n      jump\t// out\n        /* \"#utility.yul\":7460:7573   */\n    tag_122:\n        /* \"#utility.yul\":7530:7534   */\n      0x00\n        /* \"#utility.yul\":7562:7566   */\n      0x20\n        /* \"#utility.yul\":7557:7560   */\n      dup3\n        /* \"#utility.yul\":7553:7567   */\n      add\n        /* \"#utility.yul\":7545:7567   */\n      swap1\n      pop\n        /* \"#utility.yul\":7460:7573   */\n      swap2\n      swap1\n      pop\n      jump\t// out\n        /* \"#utility.yul\":7579:7763   */\n    tag_114:\n        /* \"#utility.yul\":7678:7689   */\n      0x00\n        /* \"#utility.yul\":7712:7718   */\n      dup3\n        /* \"#utility.yul\":7707:7710   */\n      dup3\n        /* \"#utility.yul\":7700:7719   */\n      mstore\n        /* \"#utility.yul\":7752:7756   */\n      0x20\n        /* \"#utility.yul\":7747:7750   */\n      dup3\n        /* \"#utility.yul\":7743:7757   */\n      add\n        /* \"#utility.yul\":7728:7757   */\n      swap1\n      pop\n        /* \"#utility.yul\":7579:7763   */\n      swap3\n      swap2\n      pop\n      pop\n      jump\t// out\n        /* \"#utility.yul\":7769:7928   */\n    tag_128:\n        /* \"#utility.yul\":7843:7854   */\n      0x00\n        /* \"#utility.yul\":7877:7883   */\n      dup3\n        /* \"#utility.yul\":7872:7875   */\n      dup3\n        /* \"#utility.yul\":7865:7884   */\n      mstore\n        /* \"#utility.yul\":7917:7921   */\n      0x20\n        /* \"#utility.yul\":7912:7915   */\n      dup3\n        /* \"#utility.yul\":7908:7922   */\n      add\n        /* \"#utility.yul\":7893:7922   */\n      swap1\n      pop\n        /* \"#utility.yul\":7769:7928   */\n      swap3\n      swap2\n      pop\n      pop\n      jump\t// out\n        /* \"#utility.yul\":7934:8030   */\n    tag_163:\n        /* \"#utility.yul\":7971:7978   */\n      0x00\n        /* \"#utility.yul\":8000:8024   */\n      tag_165\n        /* \"#utility.yul\":8018:8023   */\n      dup3\n        /* \"#utility.yul\":8000:8024   */\n      tag_166\n      jump\t// in\n    tag_165:\n        /* \"#utility.yul\":7989:8024   */\n      swap1\n      pop\n        /* \"#utility.yul\":7934:8030   */\n      swap2\n      swap1\n      pop\n      jump\t// out\n        /* \"#utility.yul\":8036:8162   */\n    tag_166:\n        /* \"#utility.yul\":8073:8080   */\n      0x00\n        /* \"#utility.yul\":8113:8155   */\n      0xffffffffffffffffffffffffffffffffffffffff\n        /* \"#utility.yul\":8106:8111   */\n      dup3\n        /* \"#utility.yul\":8102:8156   */\n      and\n        /* \"#utility.yul\":8091:8156   */\n      swap1\n      pop\n        /* \"#utility.yul\":8036:8162   */\n      swap2\n      swap1\n      pop\n      jump\t// out\n        /* \"#utility.yul\":8168:8245   */\n    tag_139:\n        /* \"#utility.yul\":8205:8212   */\n      0x00\n        /* \"#utility.yul\":8234:8239   */\n      dup2\n        /* \"#utility.yul\":8223:8239   */\n      swap1\n      pop\n        /* \"#utility.yul\":8168:8245   */\n      swap2\n      swap1\n      pop\n      jump\t// out\n        /* \"#utility.yul\":8251:8405   */\n    tag_71:\n        /* \"#utility.yul\":8335:8341   */\n      dup3\n        /* \"#utility.yul\":8330:8333   */\n      dup2\n        /* \"#utility.yul\":8325:8328   */\n      dup4\n        /* \"#utility.yul\":8312:8342   */\n      calldatacopy\n        /* \"#utility.yul\":8397:8398   */\n      0x00\n        /* \"#utility.yul\":8388:8394   */\n      dup4\n        /* \"#utility.yul\":8383:8386   */\n      dup4\n        /* \"#utility.yul\":8379:8395   */\n      add\n        /* \"#utility.yul\":8372:8399   */\n      mstore\n        /* \"#utility.yul\":8251:8405   */\n      pop\n      pop\n      pop\n      jump\t// out\n        /* \"#utility.yul\":8411:8718   */\n    tag_130:\n        /* \"#utility.yul\":8479:8480   */\n      0x00\n        /* \"#utility.yul\":8489:8602   */\n    tag_171:\n        /* \"#utility.yul\":8503:8509   */\n      dup4\n        /* \"#utility.yul\":8500:8501   */\n      dup2\n        /* \"#utility.yul\":8497:8510   */\n      lt\n        /* \"#utility.yul\":8489:8602   */\n      iszero\n      tag_173\n      jumpi\n        /* \"#utility.yul\":8588:8589   */\n      dup1\n        /* \"#utility.yul\":8583:8586   */\n      dup3\n        /* \"#utility.yul\":8579:8590   */\n      add\n        /* \"#utility.yul\":8573:8591   */\n      mload\n        /* \"#utility.yul\":8569:8570   */\n      dup2\n        /* \"#utility.yul\":8564:8567   */\n      dup5\n        /* \"#utility.yul\":8560:8571   */\n      add\n        /* \"#utility.yul\":8553:8592   */\n      mstore\n        /* \"#utility.yul\":8525:8527   */\n      0x20\n        /* \"#utility.yul\":8522:8523   */\n      dup2\n        /* \"#utility.yul\":8518:8528   */\n      add\n        /* \"#utility.yul\":8513:8528   */\n      swap1\n      pop\n        /* \"#utility.yul\":8489:8602   */\n      jump(tag_171)\n    tag_173:\n        /* \"#utility.yul\":8620:8626   */\n      dup4\n        /* \"#utility.yul\":8617:8618   */\n      dup2\n        /* \"#utility.yul\":8614:8627   */\n      gt\n        /* \"#utility.yul\":8611:8712   */\n      iszero\n      tag_174\n      jumpi\n        /* \"#utility.yul\":8700:8701   */\n      0x00\n        /* \"#utility.yul\":8691:8697   */\n      dup5\n        /* \"#utility.yul\":8686:8689   */\n      dup5\n        /* \"#utility.yul\":8682:8698   */\n      add\n        /* \"#utility.yul\":8675:8702   */\n      mstore\n        /* \"#utility.yul\":8611:8712   */\n    tag_174:\n        /* \"#utility.yul\":8460:8718   */\n      pop\n        /* \"#utility.yul\":8411:8718   */\n      pop\n      pop\n      pop\n      jump\t// out\n        /* \"#utility.yul\":8724:9044   */\n    tag_21:\n        /* \"#utility.yul\":8768:8774   */\n      0x00\n        /* \"#utility.yul\":8805:8806   */\n      0x02\n        /* \"#utility.yul\":8799:8803   */\n      dup3\n        /* \"#utility.yul\":8795:8807   */\n      div\n        /* \"#utility.yul\":8785:8807   */\n      swap1\n      pop\n        /* \"#utility.yul\":8852:8853   */\n      0x01\n        /* \"#utility.yul\":8846:8850   */\n      dup3\n        /* \"#utility.yul\":8842:8854   */\n      and\n        /* \"#utility.yul\":8873:8891   */\n      dup1\n        /* \"#utility.yul\":8863:8944   */\n      tag_176\n      jumpi\n        /* \"#utility.yul\":8929:8933   */\n      0x7f\n        /* \"#utility.yul\":8921:8927   */\n      dup3\n        /* \"#utility.yul\":8917:8934   */\n      and\n        /* \"#utility.yul\":8907:8934   */\n      swap2\n      pop\n        /* \"#utility.yul\":8863:8944   */\n    tag_176:\n        /* \"#utility.yul\":8991:8993   */\n      0x20\n        /* \"#utility.yul\":8983:8989   */\n      dup3\n        /* \"#utility.yul\":8980:8994   */\n      lt\n        /* \"#utility.yul\":8960:8978   */\n      dup2\n        /* \"#utility.yul\":8957:8995   */\n      eq\n        /* \"#utility.yul\":8954:9038   */\n      iszero\n      tag_177\n      jumpi\n        /* \"#utility.yul\":9010:9028   */\n      tag_178\n      tag_179\n      jump\t// in\n    tag_178:\n        /* \"#utility.yul\":8954:9038   */\n    tag_177:\n        /* \"#utility.yul\":8775:9044   */\n      pop\n        /* \"#utility.yul\":8724:9044   */\n      swap2\n      swap1\n      pop\n      jump\t// out\n        /* \"#utility.yul\":9050:9331   */\n    tag_148:\n        /* \"#utility.yul\":9133:9160   */\n      tag_181\n        /* \"#utility.yul\":9155:9159   */\n      dup3\n        /* \"#utility.yul\":9133:9160   */\n      tag_132\n      jump\t// in\n    tag_181:\n        /* \"#utility.yul\":9125:9131   */\n      dup2\n        /* \"#utility.yul\":9121:9161   */\n      add\n        /* \"#utility.yul\":9263:9269   */\n      dup2\n        /* \"#utility.yul\":9251:9261   */\n      dup2\n        /* \"#utility.yul\":9248:9270   */\n      lt\n        /* \"#utility.yul\":9227:9245   */\n      0xffffffffffffffff\n        /* \"#utility.yul\":9215:9225   */\n      dup3\n        /* \"#utility.yul\":9212:9246   */\n      gt\n        /* \"#utility.yul\":9209:9271   */\n      or\n        /* \"#utility.yul\":9206:9294   */\n      iszero\n      tag_182\n      jumpi\n        /* \"#utility.yul\":9274:9292   */\n      tag_183\n      tag_32\n      jump\t// in\n    tag_183:\n        /* \"#utility.yul\":9206:9294   */\n    tag_182:\n        /* \"#utility.yul\":9314:9324   */\n      dup1\n        /* \"#utility.yul\":9310:9312   */\n      0x40\n        /* \"#utility.yul\":9303:9325   */\n      mstore\n        /* \"#utility.yul\":9093:9331   */\n      pop\n        /* \"#utility.yul\":9050:9331   */\n      pop\n      pop\n      jump\t// out\n        /* \"#utility.yul\":9337:9517   */\n    tag_179:\n        /* \"#utility.yul\":9385:9462   */\n      0x4e487b7100000000000000000000000000000000000000000000000000000000\n        /* \"#utility.yul\":9382:9383   */\n      0x00\n        /* \"#utility.yul\":9375:9463   */\n      mstore\n        /* \"#utility.yul\":9482:9486   */\n      0x22\n        /* \"#utility.yul\":9479:9480   */\n      0x04\n        /* \"#utility.yul\":9472:9487   */\n      mstore\n        /* \"#utility.yul\":9506:9510   */\n      0x24\n        /* \"#utility.yul\":9503:9504   */\n      0x00\n        /* \"#utility.yul\":9496:9511   */\n      revert\n        /* \"#utility.yul\":9523:9703   */\n    tag_36:\n        /* \"#utility.yul\":9571:9648   */\n      0x4e487b7100000000000000000000000000000000000000000000000000000000\n        /* \"#utility.yul\":9568:9569   */\n      0x00\n        /* \"#utility.yul\":9561:9649   */\n      mstore\n        /* \"#utility.yul\":9668:9672   */\n      0x32\n        /* \"#utility.yul\":9665:9666   */\n      0x04\n        /* \"#utility.yul\":9658:9673   */\n      mstore\n        /* \"#utility.yul\":9692:9696   */\n      0x24\n        /* \"#utility.yul\":9689:9690   */\n      0x00\n        /* \"#utility.yul\":9682:9697   */\n      revert\n        /* \"#utility.yul\":9709:9889   */\n    tag_32:\n        /* \"#utility.yul\":9757:9834   */\n      0x4e487b7100000000000000000000000000000000000000000000000000000000\n        /* \"#utility.yul\":9754:9755   */\n      0x00\n        /* \"#utility.yul\":9747:9835   */\n      mstore\n        /* \"#utility.yul\":9854:9858   */\n      0x41\n        /* \"#utility.yul\":9851:9852   */\n      0x04\n        /* \"#utility.yul\":9844:9859   */\n      mstore\n        /* \"#utility.yul\":9878:9882   */\n      0x24\n        /* \"#utility.yul\":9875:9876   */\n      0x00\n        /* \"#utility.yul\":9868:9883   */\n      revert\n        /* \"#utility.yul\":9895:10012   */\n    tag_80:\n        /* \"#utility.yul\":10004:10005   */\n      0x00\n        /* \"#utility.yul\":10001:10002   */\n      dup1\n        /* \"#utility.yul\":9994:10006   */\n      revert\n        /* \"#utility.yul\":10018:10135   */\n    tag_56:\n        /* \"#utility.yul\":10127:10128   */\n      0x00\n        /* \"#utility.yul\":10124:10125   */\n      dup1\n        /* \"#utility.yul\":10117:10129   */\n      revert\n        /* \"#utility.yul\":10141:10258   */\n    tag_69:\n        /* \"#utility.yul\":10250:10251   */\n      0x00\n        /* \"#utility.yul\":10247:10248   */\n      dup1\n        /* \"#utility.yul\":10240:10252   */\n      revert\n        /* \"#utility.yul\":10264:10381   */\n    tag_100:\n        /* \"#utility.yul\":10373:10374   */\n      0x00\n        /* \"#utility.yul\":10370:10371   */\n      dup1\n        /* \"#utility.yul\":10363:10375   */\n      revert\n        /* \"#utility.yul\":10387:10504   */\n    tag_93:\n        /* \"#utility.yul\":10496:10497   */\n      0x00\n        /* \"#utility.yul\":10493:10494   */\n      dup1\n        /* \"#utility.yul\":10486:10498   */\n      revert\n        /* \"#utility.yul\":10510:10612   */\n    tag_132:\n        /* \"#utility.yul\":10551:10557   */\n      0x00\n        /* \"#utility.yul\":10602:10604   */\n      0x1f\n        /* \"#utility.yul\":10598:10605   */\n      not\n        /* \"#utility.yul\":10593:10595   */\n      0x1f\n        /* \"#utility.yul\":10586:10591   */\n      dup4\n        /* \"#utility.yul\":10582:10596   */\n      add\n        /* \"#utility.yul\":10578:10606   */\n      and\n        /* \"#utility.yul\":10568:10606   */\n      swap1\n      pop\n        /* \"#utility.yul\":10510:10612   */\n      swap2\n      swap1\n      pop\n      jump\t// out\n        /* \"#utility.yul\":10618:10740   */\n    tag_75:\n        /* \"#utility.yul\":10691:10715   */\n      tag_194\n        /* \"#utility.yul\":10709:10714   */\n      dup2\n        /* \"#utility.yul\":10691:10715   */\n      tag_163\n      jump\t// in\n    tag_194:\n        /* \"#utility.yul\":10684:10689   */\n      dup2\n        /* \"#utility.yul\":10681:10716   */\n      eq\n        /* \"#utility.yul\":10671:10734   */\n      tag_195\n      jumpi\n        /* \"#utility.yul\":10730:10731   */\n      0x00\n        /* \"#utility.yul\":10727:10728   */\n      dup1\n        /* \"#utility.yul\":10720:10732   */\n      revert\n        /* \"#utility.yul\":10671:10734   */\n    tag_195:\n        /* \"#utility.yul\":10618:10740   */\n      pop\n      jump\t// out\n        /* \"#utility.yul\":10746:10868   */\n    tag_89:\n        /* \"#utility.yul\":10819:10843   */\n      tag_197\n        /* \"#utility.yul\":10837:10842   */\n      dup2\n        /* \"#utility.yul\":10819:10843   */\n      tag_139\n      jump\t// in\n    tag_197:\n        /* \"#utility.yul\":10812:10817   */\n      dup2\n        /* \"#utility.yul\":10809:10844   */\n      eq\n        /* \"#utility.yul\":10799:10862   */\n      tag_198\n      jumpi\n        /* \"#utility.yul\":10858:10859   */\n      0x00\n        /* \"#utility.yul\":10855:10856   */\n      dup1\n        /* \"#utility.yul\":10848:10860   */\n      revert\n        /* \"#utility.yul\":10799:10862   */\n    tag_198:\n        /* \"#utility.yul\":10746:10868   */\n      pop\n      jump\t// out\n\n    auxdata: 0xa264697066735822122008b674ed7418a44c7502b8e5c5cc18e95b1673df36d0372519071e0c7400efac64736f6c63430008070033\n}\n",
				"bytecode": {
					"linkReferences": {},
					"object": "608060405234801561001057600080fd5b506109fb806100206000396000f3fe608060405234801561001057600080fd5b50600436106100365760003560e01c8063d6d6d74f1461003b578063fc277a951461006b575b600080fd5b61005560048036038101906100509190610544565b61009b565b6040516100629190610706565b60405180910390f35b61008560048036038101906100809190610571565b61018f565b60405161009291906106e4565b60405180910390f35b6100a361034f565b6000808373ffffffffffffffffffffffffffffffffffffffff1673ffffffffffffffffffffffffffffffffffffffff168152602001908152602001600020604051806040016040529081600082015481526020016001820180546101069061087d565b80601f01602080910402602001604051908101604052809291908181526020018280546101329061087d565b801561017f5780601f106101545761010080835404028352916020019161017f565b820191906000526020600020905b81548152906001019060200180831161016257829003601f168201915b5050505050815250509050919050565b60606040518060400160405280607b81526020016040518060400160405280600581526020017f68656c6c6f0000000000000000000000000000000000000000000000000000008152508152506000803373ffffffffffffffffffffffffffffffffffffffff1673ffffffffffffffffffffffffffffffffffffffff168152602001908152602001600020600082015181600001556020820151816001019080519060200190610240929190610369565b5090505060008060003373ffffffffffffffffffffffffffffffffffffffff1673ffffffffffffffffffffffffffffffffffffffff16815260200190815260200160002090506040518060400160405280600881526020017f6e6f2068656c6c6f0000000000000000000000000000000000000000000000008152508160010190805190602001906102d3929190610369565b506000600367ffffffffffffffff8111156102f1576102f061093e565b5b60405190808252806020026020018201604052801561031f5781602001602082028036833780820191505090505b509050607b816000815181106103385761033761090f565b5b602002602001018181525050809250505092915050565b604051806040016040528060008152602001606081525090565b8280546103759061087d565b90600052602060002090601f01602090048101928261039757600085556103de565b82601f106103b057805160ff19168380011785556103de565b828001600101855582156103de579182015b828111156103dd5782518255916020019190600101906103c2565b5b5090506103eb91906103ef565b5090565b5b808211156104085760008160009055506001016103f0565b5090565b600061041f61041a8461074d565b610728565b9050808382526020820190508285602086028201111561044257610441610972565b5b60005b858110156104725781610458888261052f565b845260208401935060208301925050600181019050610445565b5050509392505050565b600061048f61048a84610779565b610728565b9050828152602081018484840111156104ab576104aa610977565b5b6104b684828561083b565b509392505050565b6000813590506104cd81610997565b92915050565b600082601f8301126104e8576104e761096d565b5b81356104f884826020860161040c565b91505092915050565b600082601f8301126105165761051561096d565b5b813561052684826020860161047c565b91505092915050565b60008135905061053e816109ae565b92915050565b60006020828403121561055a57610559610981565b5b6000610568848285016104be565b91505092915050565b6000806040838503121561058857610587610981565b5b600083013567ffffffffffffffff8111156105a6576105a561097c565b5b6105b2858286016104d3565b925050602083013567ffffffffffffffff8111156105d3576105d261097c565b5b6105df85828601610501565b9150509250929050565b60006105f583836106d5565b60208301905092915050565b600061060c826107ba565b61061681856107dd565b9350610621836107aa565b8060005b8381101561065257815161063988826105e9565b9750610644836107d0565b925050600181019050610625565b5085935050505092915050565b600061066a826107c5565b61067481856107ee565b935061068481856020860161084a565b61068d81610986565b840191505092915050565b60006040830160008301516106b060008601826106d5565b50602083015184820360208601526106c8828261065f565b9150508091505092915050565b6106de81610831565b82525050565b600060208201905081810360008301526106fe8184610601565b905092915050565b600060208201905081810360008301526107208184610698565b905092915050565b6000610732610743565b905061073e82826108af565b919050565b6000604051905090565b600067ffffffffffffffff8211156107685761076761093e565b5b602082029050602081019050919050565b600067ffffffffffffffff8211156107945761079361093e565b5b61079d82610986565b9050602081019050919050565b6000819050602082019050919050565b600081519050919050565b600081519050919050565b6000602082019050919050565b600082825260208201905092915050565b600082825260208201905092915050565b600061080a82610811565b9050919050565b600073ffffffffffffffffffffffffffffffffffffffff82169050919050565b6000819050919050565b82818337600083830152505050565b60005b8381101561086857808201518184015260208101905061084d565b83811115610877576000848401525b50505050565b6000600282049050600182168061089557607f821691505b602082108114156108a9576108a86108e0565b5b50919050565b6108b882610986565b810181811067ffffffffffffffff821117156108d7576108d661093e565b5b80604052505050565b7f4e487b7100000000000000000000000000000000000000000000000000000000600052602260045260246000fd5b7f4e487b7100000000000000000000000000000000000000000000000000000000600052603260045260246000fd5b7f4e487b7100000000000000000000000000000000000000000000000000000000600052604160045260246000fd5b600080fd5b600080fd5b600080fd5b600080fd5b600080fd5b6000601f19601f8301169050919050565b6109a0816107ff565b81146109ab57600080fd5b50565b6109b781610831565b81146109c257600080fd5b5056fea264697066735822122008b674ed7418a44c7502b8e5c5cc18e95b1673df36d0372519071e0c7400efac64736f6c63430008070033",
					"opcodes": "PUSH1 0x80 PUSH1 0x40 MSTORE CALLVALUE DUP1 ISZERO PUSH2 0x10 JUMPI PUSH1 0x0 DUP1 REVERT JUMPDEST POP PUSH2 0x9FB DUP1 PUSH2 0x20 PUSH1 0x0 CODECOPY PUSH1 0x0 RETURN INVALID PUSH1 0x80 PUSH1 0x40 MSTORE CALLVALUE DUP1 ISZERO PUSH2 0x10 JUMPI PUSH1 0x0 DUP1 REVERT JUMPDEST POP PUSH1 0x4 CALLDATASIZE LT PUSH2 0x36 JUMPI PUSH1 0x0 CALLDATALOAD PUSH1 0xE0 SHR DUP1 PUSH4 0xD6D6D74F EQ PUSH2 0x3B JUMPI DUP1 PUSH4 0xFC277A95 EQ PUSH2 0x6B JUMPI JUMPDEST PUSH1 0x0 DUP1 REVERT JUMPDEST PUSH2 0x55 PUSH1 0x4 DUP1 CALLDATASIZE SUB DUP2 ADD SWAP1 PUSH2 0x50 SWAP2 SWAP1 PUSH2 0x544 JUMP JUMPDEST PUSH2 0x9B JUMP JUMPDEST PUSH1 0x40 MLOAD PUSH2 0x62 SWAP2 SWAP1 PUSH2 0x706 JUMP JUMPDEST PUSH1 0x40 MLOAD DUP1 SWAP2 SUB SWAP1 RETURN JUMPDEST PUSH2 0x85 PUSH1 0x4 DUP1 CALLDATASIZE SUB DUP2 ADD SWAP1 PUSH2 0x80 SWAP2 SWAP1 PUSH2 0x571 JUMP JUMPDEST PUSH2 0x18F JUMP JUMPDEST PUSH1 0x40 MLOAD PUSH2 0x92 SWAP2 SWAP1 PUSH2 0x6E4 JUMP JUMPDEST PUSH1 0x40 MLOAD DUP1 SWAP2 SUB SWAP1 RETURN JUMPDEST PUSH2 0xA3 PUSH2 0x34F JUMP JUMPDEST PUSH1 0x0 DUP1 DUP4 PUSH20 0xFFFFFFFFFFFFFFFFFFFFFFFFFFFFFFFFFFFFFFFF AND PUSH20 0xFFFFFFFFFFFFFFFFFFFFFFFFFFFFFFFFFFFFFFFF AND DUP2 MSTORE PUSH1 0x20 ADD SWAP1 DUP2 MSTORE PUSH1 0x20 ADD PUSH1 0x0 KECCAK256 PUSH1 0x40 MLOAD DUP1 PUSH1 0x40 ADD PUSH1 0x40 MSTORE SWAP1 DUP2 PUSH1 0x0 DUP3 ADD SLOAD DUP2 MSTORE PUSH1 0x20 ADD PUSH1 0x1 DUP3 ADD DUP1 SLOAD PUSH2 0x106 SWAP1 PUSH2 0x87D JUMP JUMPDEST DUP1 PUSH1 0x1F ADD PUSH1 0x20 DUP1 SWAP2 DIV MUL PUSH1 0x20 ADD PUSH1 0x40 MLOAD SWAP1 DUP2 ADD PUSH1 0x40 MSTORE DUP1 SWAP3 SWAP2 SWAP1 DUP2 DUP2 MSTORE PUSH1 0x20 ADD DUP3 DUP1 SLOAD PUSH2 0x132 SWAP1 PUSH2 0x87D JUMP JUMPDEST DUP1 ISZERO PUSH2 0x17F JUMPI DUP1 PUSH1 0x1F LT PUSH2 0x154 JUMPI PUSH2 0x100 DUP1 DUP4 SLOAD DIV MUL DUP4 MSTORE SWAP2 PUSH1 0x20 ADD SWAP2 PUSH2 0x17F JUMP JUMPDEST DUP3 ADD SWAP2 SWAP1 PUSH1 0x0 MSTORE PUSH1 0x20 PUSH1 0x0 KECCAK256 SWAP1 JUMPDEST DUP2 SLOAD DUP2 MSTORE SWAP1 PUSH1 0x1 ADD SWAP1 PUSH1 0x20 ADD DUP1 DUP4 GT PUSH2 0x162 JUMPI DUP3 SWAP1 SUB PUSH1 0x1F AND DUP3 ADD SWAP2 JUMPDEST POP POP POP POP POP DUP2 MSTORE POP POP SWAP1 POP SWAP2 SWAP1 POP JUMP JUMPDEST PUSH1 0x60 PUSH1 0x40 MLOAD DUP1 PUSH1 0x40 ADD PUSH1 0x40 MSTORE DUP1 PUSH1 0x7B DUP2 MSTORE PUSH1 0x20 ADD PUSH1 0x40 MLOAD DUP1 PUSH1 0x40 ADD PUSH1 0x40 MSTORE DUP1 PUSH1 0x5 DUP2 MSTORE PUSH1 0x20 ADD PUSH32 0x68656C6C6F000000000000000000000000000000000000000000000000000000 DUP2 MSTORE POP DUP2 MSTORE POP PUSH1 0x0 DUP1 CALLER PUSH20 0xFFFFFFFFFFFFFFFFFFFFFFFFFFFFFFFFFFFFFFFF AND PUSH20 0xFFFFFFFFFFFFFFFFFFFFFFFFFFFFFFFFFFFFFFFF AND DUP2 MSTORE PUSH1 0x20 ADD SWAP1 DUP2 MSTORE PUSH1 0x20 ADD PUSH1 0x0 KECCAK256 PUSH1 0x0 DUP3 ADD MLOAD DUP2 PUSH1 0x0 ADD SSTORE PUSH1 0x20 DUP3 ADD MLOAD DUP2 PUSH1 0x1 ADD SWAP1 DUP1 MLOAD SWAP1 PUSH1 0x20 ADD SWAP1 PUSH2 0x240 SWAP3 SWAP2 SWAP1 PUSH2 0x369 JUMP JUMPDEST POP SWAP1 POP POP PUSH1 0x0 DUP1 PUSH1 0x0 CALLER PUSH20 0xFFFFFFFFFFFFFFFFFFFFFFFFFFFFFFFFFFFFFFFF AND PUSH20 0xFFFFFFFFFFFFFFFFFFFFFFFFFFFFFFFFFFFFFFFF AND DUP2 MSTORE PUSH1 0x20 ADD SWAP1 DUP2 MSTORE PUSH1 0x20 ADD PUSH1 0x0 KECCAK256 SWAP1 POP PUSH1 0x40 MLOAD DUP1 PUSH1 0x40 ADD PUSH1 0x40 MSTORE DUP1 PUSH1 0x8 DUP2 MSTORE PUSH1 0x20 ADD PUSH32 0x6E6F2068656C6C6F000000000000000000000000000000000000000000000000 DUP2 MSTORE POP DUP2 PUSH1 0x1 ADD SWAP1 DUP1 MLOAD SWAP1 PUSH1 0x20 ADD SWAP1 PUSH2 0x2D3 SWAP3 SWAP2 SWAP1 PUSH2 0x369 JUMP JUMPDEST POP PUSH1 0x0 PUSH1 0x3 PUSH8 0xFFFFFFFFFFFFFFFF DUP2 GT ISZERO PUSH2 0x2F1 JUMPI PUSH2 0x2F0 PUSH2 0x93E JUMP JUMPDEST JUMPDEST PUSH1 0x40 MLOAD SWAP1 DUP1 DUP3 MSTORE DUP1 PUSH1 0x20 MUL PUSH1 0x20 ADD DUP3 ADD PUSH1 0x40 MSTORE DUP1 ISZERO PUSH2 0x31F JUMPI DUP2 PUSH1 0x20 ADD PUSH1 0x20 DUP3 MUL DUP1 CALLDATASIZE DUP4 CALLDATACOPY DUP1 DUP3 ADD SWAP2 POP POP SWAP1 POP JUMPDEST POP SWAP1 POP PUSH1 0x7B DUP2 PUSH1 0x0 DUP2 MLOAD DUP2 LT PUSH2 0x338 JUMPI PUSH2 0x337 PUSH2 0x90F JUMP JUMPDEST JUMPDEST PUSH1 0x20 MUL PUSH1 0x20 ADD ADD DUP2 DUP2 MSTORE POP POP DUP1 SWAP3 POP POP POP SWAP3 SWAP2 POP POP JUMP JUMPDEST PUSH1 0x40 MLOAD DUP1 PUSH1 0x40 ADD PUSH1 0x40 MSTORE DUP1 PUSH1 0x0 DUP2 MSTORE PUSH1 0x20 ADD PUSH1 0x60 DUP2 MSTORE POP SWAP1 JUMP JUMPDEST DUP3 DUP1 SLOAD PUSH2 0x375 SWAP1 PUSH2 0x87D JUMP JUMPDEST SWAP1 PUSH1 0x0 MSTORE PUSH1 0x20 PUSH1 0x0 KECCAK256 SWAP1 PUSH1 0x1F ADD PUSH1 0x20 SWAP1 DIV DUP2 ADD SWAP3 DUP3 PUSH2 0x397 JUMPI PUSH1 0x0 DUP6 SSTORE PUSH2 0x3DE JUMP JUMPDEST DUP3 PUSH1 0x1F LT PUSH2 0x3B0 JUMPI DUP1 MLOAD PUSH1 0xFF NOT AND DUP4 DUP1 ADD OR DUP6 SSTORE PUSH2 0x3DE JUMP JUMPDEST DUP3 DUP1 ADD PUSH1 0x1 ADD DUP6 SSTORE DUP3 ISZERO PUSH2 0x3DE JUMPI SWAP2 DUP3 ADD JUMPDEST DUP3 DUP2 GT ISZERO PUSH2 0x3DD JUMPI DUP3 MLOAD DUP3 SSTORE SWAP2 PUSH1 0x20 ADD SWAP2 SWAP1 PUSH1 0x1 ADD SWAP1 PUSH2 0x3C2 JUMP JUMPDEST JUMPDEST POP SWAP1 POP PUSH2 0x3EB SWAP2 SWAP1 PUSH2 0x3EF JUMP JUMPDEST POP SWAP1 JUMP JUMPDEST JUMPDEST DUP1 DUP3 GT ISZERO PUSH2 0x408 JUMPI PUSH1 0x0 DUP2 PUSH1 0x0 SWAP1 SSTORE POP PUSH1 0x1 ADD PUSH2 0x3F0 JUMP JUMPDEST POP SWAP1 JUMP JUMPDEST PUSH1 0x0 PUSH2 0x41F PUSH2 0x41A DUP5 PUSH2 0x74D JUMP JUMPDEST PUSH2 0x728 JUMP JUMPDEST SWAP1 POP DUP1 DUP4 DUP3 MSTORE PUSH1 0x20 DUP3 ADD SWAP1 POP DUP3 DUP6 PUSH1 0x20 DUP7 MUL DUP3 ADD GT ISZERO PUSH2 0x442 JUMPI PUSH2 0x441 PUSH2 0x972 JUMP JUMPDEST JUMPDEST PUSH1 0x0 JUMPDEST DUP6 DUP2 LT ISZERO PUSH2 0x472 JUMPI DUP2 PUSH2 0x458 DUP9 DUP3 PUSH2 0x52F JUMP JUMPDEST DUP5 MSTORE PUSH1 0x20 DUP5 ADD SWAP4 POP PUSH1 0x20 DUP4 ADD SWAP3 POP POP PUSH1 0x1 DUP2 ADD SWAP1 POP PUSH2 0x445 JUMP JUMPDEST POP POP POP SWAP4 SWAP3 POP POP POP JUMP JUMPDEST PUSH1 0x0 PUSH2 0x48F PUSH2 0x48A DUP5 PUSH2 0x779 JUMP JUMPDEST PUSH2 0x728 JUMP JUMPDEST SWAP1 POP DUP3 DUP2 MSTORE PUSH1 0x20 DUP2 ADD DUP5 DUP5 DUP5 ADD GT ISZERO PUSH2 0x4AB JUMPI PUSH2 0x4AA PUSH2 0x977 JUMP JUMPDEST JUMPDEST PUSH2 0x4B6 DUP5 DUP3 DUP6 PUSH2 0x83B JUMP JUMPDEST POP SWAP4 SWAP3 POP POP POP JUMP JUMPDEST PUSH1 0x0 DUP2 CALLDATALOAD SWAP1 POP PUSH2 0x4CD DUP2 PUSH2 0x997 JUMP JUMPDEST SWAP3 SWAP2 POP POP JUMP JUMPDEST PUSH1 0x0 DUP3 PUSH1 0x1F DUP4 ADD SLT PUSH2 0x4E8 JUMPI PUSH2 0x4E7 PUSH2 0x96D JUMP JUMPDEST JUMPDEST DUP2 CALLDATALOAD PUSH2 0x4F8 DUP5 DUP3 PUSH1 0x20 DUP7 ADD PUSH2 0x40C JUMP JUMPDEST SWAP2 POP POP SWAP3 SWAP2 POP POP JUMP JUMPDEST PUSH1 0x0 DUP3 PUSH1 0x1F DUP4 ADD SLT PUSH2 0x516 JUMPI PUSH2 0x515 PUSH2 0x96D JUMP JUMPDEST JUMPDEST DUP2 CALLDATALOAD PUSH2 0x526 DUP5 DUP3 PUSH1 0x20 DUP7 ADD PUSH2 0x47C JUMP JUMPDEST SWAP2 POP POP SWAP3 SWAP2 POP POP JUMP JUMPDEST PUSH1 0x0 DUP2 CALLDATALOAD SWAP1 POP PUSH2 0x53E DUP2 PUSH2 0x9AE JUMP JUMPDEST SWAP3 SWAP2 POP POP JUMP JUMPDEST PUSH1 0x0 PUSH1 0x20 DUP3 DUP5 SUB SLT ISZERO PUSH2 0x55A JUMPI PUSH2 0x559 PUSH2 0x981 JUMP JUMPDEST JUMPDEST PUSH1 0x0 PUSH2 0x568 DUP5 DUP3 DUP6 ADD PUSH2 0x4BE JUMP JUMPDEST SWAP2 POP POP SWAP3 SWAP2 POP POP JUMP JUMPDEST PUSH1 0x0 DUP1 PUSH1 0x40 DUP4 DUP6 SUB SLT ISZERO PUSH2 0x588 JUMPI PUSH2 0x587 PUSH2 0x981 JUMP JUMPDEST JUMPDEST PUSH1 0x0 DUP4 ADD CALLDATALOAD PUSH8 0xFFFFFFFFFFFFFFFF DUP2 GT ISZERO PUSH2 0x5A6 JUMPI PUSH2 0x5A5 PUSH2 0x97C JUMP JUMPDEST JUMPDEST PUSH2 0x5B2 DUP6 DUP3 DUP7 ADD PUSH2 0x4D3 JUMP JUMPDEST SWAP3 POP POP PUSH1 0x20 DUP4 ADD CALLDATALOAD PUSH8 0xFFFFFFFFFFFFFFFF DUP2 GT ISZERO PUSH2 0x5D3 JUMPI PUSH2 0x5D2 PUSH2 0x97C JUMP JUMPDEST JUMPDEST PUSH2 0x5DF DUP6 DUP3 DUP7 ADD PUSH2 0x501 JUMP JUMPDEST SWAP2 POP POP SWAP3 POP SWAP3 SWAP1 POP JUMP JUMPDEST PUSH1 0x0 PUSH2 0x5F5 DUP4 DUP4 PUSH2 0x6D5 JUMP JUMPDEST PUSH1 0x20 DUP4 ADD SWAP1 POP SWAP3 SWAP2 POP POP JUMP JUMPDEST PUSH1 0x0 PUSH2 0x60C DUP3 PUSH2 0x7BA JUMP JUMPDEST PUSH2 0x616 DUP2 DUP6 PUSH2 0x7DD JUMP JUMPDEST SWAP4 POP PUSH2 0x621 DUP4 PUSH2 0x7AA JUMP JUMPDEST DUP1 PUSH1 0x0 JUMPDEST DUP4 DUP2 LT ISZERO PUSH2 0x652 JUMPI DUP2 MLOAD PUSH2 0x639 DUP9 DUP3 PUSH2 0x5E9 JUMP JUMPDEST SWAP8 POP PUSH2 0x644 DUP4 PUSH2 0x7D0 JUMP JUMPDEST SWAP3 POP POP PUSH1 0x1 DUP2 ADD SWAP1 POP PUSH2 0x625 JUMP JUMPDEST POP DUP6 SWAP4 POP POP POP POP SWAP3 SWAP2 POP POP JUMP JUMPDEST PUSH1 0x0 PUSH2 0x66A DUP3 PUSH2 0x7C5 JUMP JUMPDEST PUSH2 0x674 DUP2 DUP6 PUSH2 0x7EE JUMP JUMPDEST SWAP4 POP PUSH2 0x684 DUP2 DUP6 PUSH1 0x20 DUP7 ADD PUSH2 0x84A JUMP JUMPDEST PUSH2 0x68D DUP2 PUSH2 0x986 JUMP JUMPDEST DUP5 ADD SWAP2 POP POP SWAP3 SWAP2 POP POP JUMP JUMPDEST PUSH1 0x0 PUSH1 0x40 DUP4 ADD PUSH1 0x0 DUP4 ADD MLOAD PUSH2 0x6B0 PUSH1 0x0 DUP7 ADD DUP3 PUSH2 0x6D5 JUMP JUMPDEST POP PUSH1 0x20 DUP4 ADD MLOAD DUP5 DUP3 SUB PUSH1 0x20 DUP7 ADD MSTORE PUSH2 0x6C8 DUP3 DUP3 PUSH2 0x65F JUMP JUMPDEST SWAP2 POP POP DUP1 SWAP2 POP POP SWAP3 SWAP2 POP POP JUMP JUMPDEST PUSH2 0x6DE DUP2 PUSH2 0x831 JUMP JUMPDEST DUP3 MSTORE POP POP JUMP JUMPDEST PUSH1 0x0 PUSH1 0x20 DUP3 ADD SWAP1 POP DUP2 DUP2 SUB PUSH1 0x0 DUP4 ADD MSTORE PUSH2 0x6FE DUP2 DUP5 PUSH2 0x601 JUMP JUMPDEST SWAP1 POP SWAP3 SWAP2 POP POP JUMP JUMPDEST PUSH1 0x0 PUSH1 0x20 DUP3 ADD SWAP1 POP DUP2 DUP2 SUB PUSH1 0x0 DUP4 ADD MSTORE PUSH2 0x720 DUP2 DUP5 PUSH2 0x698 JUMP JUMPDEST SWAP1 POP SWAP3 SWAP2 POP POP JUMP JUMPDEST PUSH1 0x0 PUSH2 0x732 PUSH2 0x743 JUMP JUMPDEST SWAP1 POP PUSH2 0x73E DUP3 DUP3 PUSH2 0x8AF JUMP JUMPDEST SWAP2 SWAP1 POP JUMP JUMPDEST PUSH1 0x0 PUSH1 0x40 MLOAD SWAP1 POP SWAP1 JUMP JUMPDEST PUSH1 0x0 PUSH8 0xFFFFFFFFFFFFFFFF DUP3 GT ISZERO PUSH2 0x768 JUMPI PUSH2 0x767 PUSH2 0x93E JUMP JUMPDEST JUMPDEST PUSH1 0x20 DUP3 MUL SWAP1 POP PUSH1 0x20 DUP2 ADD SWAP1 POP SWAP2 SWAP1 POP JUMP JUMPDEST PUSH1 0x0 PUSH8 0xFFFFFFFFFFFFFFFF DUP3 GT ISZERO PUSH2 0x794 JUMPI PUSH2 0x793 PUSH2 0x93E JUMP JUMPDEST JUMPDEST PUSH2 0x79D DUP3 PUSH2 0x986 JUMP JUMPDEST SWAP1 POP PUSH1 0x20 DUP2 ADD SWAP1 POP SWAP2 SWAP1 POP JUMP JUMPDEST PUSH1 0x0 DUP2 SWAP1 POP PUSH1 0x20 DUP3 ADD SWAP1 POP SWAP2 SWAP1 POP JUMP JUMPDEST PUSH1 0x0 DUP2 MLOAD SWAP1 POP SWAP2 SWAP1 POP JUMP JUMPDEST PUSH1 0x0 DUP2 MLOAD SWAP1 POP SWAP2 SWAP1 POP JUMP JUMPDEST PUSH1 0x0 PUSH1 0x20 DUP3 ADD SWAP1 POP SWAP2 SWAP1 POP JUMP JUMPDEST PUSH1 0x0 DUP3 DUP3 MSTORE PUSH1 0x20 DUP3 ADD SWAP1 POP SWAP3 SWAP2 POP POP JUMP JUMPDEST PUSH1 0x0 DUP3 DUP3 MSTORE PUSH1 0x20 DUP3 ADD SWAP1 POP SWAP3 SWAP2 POP POP JUMP JUMPDEST PUSH1 0x0 PUSH2 0x80A DUP3 PUSH2 0x811 JUMP JUMPDEST SWAP1 POP SWAP2 SWAP1 POP JUMP JUMPDEST PUSH1 0x0 PUSH20 0xFFFFFFFFFFFFFFFFFFFFFFFFFFFFFFFFFFFFFFFF DUP3 AND SWAP1 POP SWAP2 SWAP1 POP JUMP JUMPDEST PUSH1 0x0 DUP2 SWAP1 POP SWAP2 SWAP1 POP JUMP JUMPDEST DUP3 DUP2 DUP4 CALLDATACOPY PUSH1 0x0 DUP4 DUP4 ADD MSTORE POP POP POP JUMP JUMPDEST PUSH1 0x0 JUMPDEST DUP4 DUP2 LT ISZERO PUSH2 0x868 JUMPI DUP1 DUP3 ADD MLOAD DUP2 DUP5 ADD MSTORE PUSH1 0x20 DUP2 ADD SWAP1 POP PUSH2 0x84D JUMP JUMPDEST DUP4 DUP2 GT ISZERO PUSH2 0x877 JUMPI PUSH1 0x0 DUP5 DUP5 ADD MSTORE JUMPDEST POP POP POP POP JUMP JUMPDEST PUSH1 0x0 PUSH1 0x2 DUP3 DIV SWAP1 POP PUSH1 0x1 DUP3 AND DUP1 PUSH2 0x895 JUMPI PUSH1 0x7F DUP3 AND SWAP2 POP JUMPDEST PUSH1 0x20 DUP3 LT DUP2 EQ ISZERO PUSH2 0x8A9 JUMPI PUSH2 0x8A8 PUSH2 0x8E0 JUMP JUMPDEST JUMPDEST POP SWAP2 SWAP1 POP JUMP JUMPDEST PUSH2 0x8B8 DUP3 PUSH2 0x986 JUMP JUMPDEST DUP2 ADD DUP2 DUP2 LT PUSH8 0xFFFFFFFFFFFFFFFF DUP3 GT OR ISZERO PUSH2 0x8D7 JUMPI PUSH2 0x8D6 PUSH2 0x93E JUMP JUMPDEST JUMPDEST DUP1 PUSH1 0x40 MSTORE POP POP POP JUMP JUMPDEST PUSH32 0x4E487B7100000000000000000000000000000000000000000000000000000000 PUSH1 0x0 MSTORE PUSH1 0x22 PUSH1 0x4 MSTORE PUSH1 0x24 PUSH1 0x0 REVERT JUMPDEST PUSH32 0x4E487B7100000000000000000000000000000000000000000000000000000000 PUSH1 0x0 MSTORE PUSH1 0x32 PUSH1 0x4 MSTORE PUSH1 0x24 PUSH1 0x0 REVERT JUMPDEST PUSH32 0x4E487B7100000000000000000000000000000000000000000000000000000000 PUSH1 0x0 MSTORE PUSH1 0x41 PUSH1 0x4 MSTORE PUSH1 0x24 PUSH1 0x0 REVERT JUMPDEST PUSH1 0x0 DUP1 REVERT JUMPDEST PUSH1 0x0 DUP1 REVERT JUMPDEST PUSH1 0x0 DUP1 REVERT JUMPDEST PUSH1 0x0 DUP1 REVERT JUMPDEST PUSH1 0x0 DUP1 REVERT JUMPDEST PUSH1 0x0 PUSH1 0x1F NOT PUSH1 0x1F DUP4 ADD AND SWAP1 POP SWAP2 SWAP1 POP JUMP JUMPDEST PUSH2 0x9A0 DUP2 PUSH2 0x7FF JUMP JUMPDEST DUP2 EQ PUSH2 0x9AB JUMPI PUSH1 0x0 DUP1 REVERT JUMPDEST POP JUMP JUMPDEST PUSH2 0x9B7 DUP2 PUSH2 0x831 JUMP JUMPDEST DUP2 EQ PUSH2 0x9C2 JUMPI PUSH1 0x0 DUP1 REVERT JUMPDEST POP JUMP INVALID LOG2 PUSH5 0x6970667358 0x22 SLT KECCAK256 ADDMOD 0xB6 PUSH21 0xED7418A44C7502B8E5C5CC18E95B1673DF36D03725 NOT SMOD 0x1E 0xC PUSH21 0xEFAC64736F6C6343000807003300000000000000 "
				},
				"gasEstimates": {
					"creation": {
						"codeDepositCost": "511000",
						"executionCost": "543",
						"totalCost": "511543"
					},
					"external": {
						"examples(uint256[],string)": "infinite",
						"readOnlys(address)": "infinite"
					}
				},
				"methodIdentifiers": {
					"examples(uint256[],string)": "fc277a95",
					"readOnlys(address)": "d6d6d74f"
				}
			},
			"storageLayout": {
				"storage": [
					{
						"astId": 11,
						"contract": "solidity_korea/storage_calldata_memory.sol:Storage",
						"label": "myStructs",
						"offset": 0,
						"slot": "0",
						"type": "t_mapping(t_address,t_struct(MyStruct)6_storage)"
					}
				],
				"types": {
					"t_address": {
						"encoding": "inplace",
						"label": "address",
						"numberOfBytes": "20"
					},
					"t_mapping(t_address,t_struct(MyStruct)6_storage)": {
						"encoding": "mapping",
						"key": "t_address",
						"label": "mapping(address => struct Storage.MyStruct)",
						"numberOfBytes": "32",
						"value": "t_struct(MyStruct)6_storage"
					},
					"t_string_storage": {
						"encoding": "bytes",
						"label": "string",
						"numberOfBytes": "32"
					},
					"t_struct(MyStruct)6_storage": {
						"encoding": "inplace",
						"label": "struct Storage.MyStruct",
						"members": [
							{
								"astId": 3,
								"contract": "solidity_korea/storage_calldata_memory.sol:Storage",
								"label": "foo",
								"offset": 0,
								"slot": "0",
								"type": "t_uint256"
							},
							{
								"astId": 5,
								"contract": "solidity_korea/storage_calldata_memory.sol:Storage",
								"label": "text",
								"offset": 0,
								"slot": "1",
								"type": "t_string_storage"
							}
						],
						"numberOfBytes": "64"
					},
					"t_uint256": {
						"encoding": "inplace",
						"label": "uint256",
						"numberOfBytes": "32"
					}
				}
			},
			"userdoc": {
				"kind": "user",
				"methods": {},
				"version": 1
			}
		}
	}
}