{
	"Ethereum/ENS/contracts/ENSHandler.sol": {
		"ENSHandler": {
			"abi": [
				{
					"anonymous": false,
					"inputs": [
						{
							"indexed": false,
							"internalType": "address",
							"name": "to",
							"type": "address"
						},
						{
							"indexed": false,
							"internalType": "bytes32",
							"name": "_label",
							"type": "bytes32"
						}
					],
					"name": "NewEns",
					"type": "event"
				},
				{
					"inputs": [],
					"name": "ens",
					"outputs": [
						{
							"internalType": "contract ENS",
							"name": "",
							"type": "address"
						}
					],
					"stateMutability": "view",
					"type": "function"
				},
				{
					"inputs": [],
					"name": "resolver",
					"outputs": [
						{
							"internalType": "contract ENSResolver",
							"name": "",
							"type": "address"
						}
					],
					"stateMutability": "view",
					"type": "function"
				},
				{
					"inputs": [
						{
							"internalType": "bytes32",
							"name": "_rootNode",
							"type": "bytes32"
						},
						{
							"internalType": "address",
							"name": "_target",
							"type": "address"
						},
						{
							"internalType": "bytes32",
							"name": "_label",
							"type": "bytes32"
						},
						{
							"internalType": "bytes32",
							"name": "_subNodeHash",
							"type": "bytes32"
						}
					],
					"name": "setSubNode",
					"outputs": [],
					"stateMutability": "nonpayable",
					"type": "function"
				}
			],
			"devdoc": {
				"kind": "dev",
				"methods": {},
				"version": 1
			},
			"evm": {
				"assembly": "    /* \"Ethereum/ENS/contracts/ENSHandler.sol\":434:979  contract ENSHandler {... */\n  mstore(0x40, 0x80)\n    /* \"Ethereum/ENS/contracts/ENSHandler.sol\":536:578  0x00000000000C2E074eC69A0dFb2997BA6C7d2e1e */\n  0x0c2e074ec69a0dfb2997ba6c7d2e1e\n    /* \"Ethereum/ENS/contracts/ENSHandler.sol\":507:580  ENS public ens = ENS(address(0x00000000000C2E074eC69A0dFb2997BA6C7d2e1e)) */\n  0x00\n  dup1\n  0x0100\n  exp\n  dup2\n  sload\n  dup2\n  0xffffffffffffffffffffffffffffffffffffffff\n  mul\n  not\n  and\n  swap1\n  dup4\n  0xffffffffffffffffffffffffffffffffffffffff\n  and\n  mul\n  or\n  swap1\n  sstore\n  pop\n    /* \"Ethereum/ENS/contracts/ENSHandler.sol\":636:678  0xE264d5bb84bA3b8061ADC38D3D76e6674aB91852 */\n  0xe264d5bb84ba3b8061adc38d3d76e6674ab91852\n    /* \"Ethereum/ENS/contracts/ENSHandler.sol\":586:680  ENSResolver public resolver = ENSResolver(address(0xE264d5bb84bA3b8061ADC38D3D76e6674aB91852)) */\n  0x01\n  exp(0x0100, 0x00)\n  dup2\n  sload\n  dup2\n  0xffffffffffffffffffffffffffffffffffffffff\n  mul\n  not\n  and\n  swap1\n  dup4\n  0xffffffffffffffffffffffffffffffffffffffff\n  and\n  mul\n  or\n  swap1\n  sstore\n  pop\n    /* \"Ethereum/ENS/contracts/ENSHandler.sol\":434:979  contract ENSHandler {... */\n  callvalue\n  dup1\n  iszero\n  tag_1\n  jumpi\n  0x00\n  dup1\n  revert\ntag_1:\n  pop\n  dataSize(sub_0)\n  dup1\n  dataOffset(sub_0)\n  0x00\n  codecopy\n  0x00\n  return\nstop\n\nsub_0: assembly {\n        /* \"Ethereum/ENS/contracts/ENSHandler.sol\":434:979  contract ENSHandler {... */\n      mstore(0x40, 0x80)\n      callvalue\n      dup1\n      iszero\n      tag_1\n      jumpi\n      0x00\n      dup1\n      revert\n    tag_1:\n      pop\n      jumpi(tag_2, lt(calldatasize, 0x04))\n      shr(0xe0, calldataload(0x00))\n      dup1\n      0x04f3bcec\n      eq\n      tag_3\n      jumpi\n      dup1\n      0x3f15457f\n      eq\n      tag_4\n      jumpi\n      dup1\n      0x8669b167\n      eq\n      tag_5\n      jumpi\n    tag_2:\n      0x00\n      dup1\n      revert\n        /* \"Ethereum/ENS/contracts/ENSHandler.sol\":586:680  ENSResolver public resolver = ENSResolver(address(0xE264d5bb84bA3b8061ADC38D3D76e6674aB91852)) */\n    tag_3:\n      tag_6\n      tag_7\n      jump\t// in\n    tag_6:\n      mload(0x40)\n      tag_8\n      swap2\n      swap1\n      tag_9\n      jump\t// in\n    tag_8:\n      mload(0x40)\n      dup1\n      swap2\n      sub\n      swap1\n      return\n        /* \"Ethereum/ENS/contracts/ENSHandler.sol\":507:580  ENS public ens = ENS(address(0x00000000000C2E074eC69A0dFb2997BA6C7d2e1e)) */\n    tag_4:\n      tag_10\n      tag_11\n      jump\t// in\n    tag_10:\n      mload(0x40)\n      tag_12\n      swap2\n      swap1\n      tag_13\n      jump\t// in\n    tag_12:\n      mload(0x40)\n      dup1\n      swap2\n      sub\n      swap1\n      return\n        /* \"Ethereum/ENS/contracts/ENSHandler.sol\":687:977  function setSubNode(bytes32 _rootNode, address _target, bytes32 _label, bytes32 _subNodeHash) external {... */\n    tag_5:\n      tag_14\n      0x04\n      dup1\n      calldatasize\n      sub\n      dup2\n      add\n      swap1\n      tag_15\n      swap2\n      swap1\n      tag_16\n      jump\t// in\n    tag_15:\n      tag_17\n      jump\t// in\n    tag_14:\n      stop\n        /* \"Ethereum/ENS/contracts/ENSHandler.sol\":586:680  ENSResolver public resolver = ENSResolver(address(0xE264d5bb84bA3b8061ADC38D3D76e6674aB91852)) */\n    tag_7:\n      0x01\n      0x00\n      swap1\n      sload\n      swap1\n      0x0100\n      exp\n      swap1\n      div\n      0xffffffffffffffffffffffffffffffffffffffff\n      and\n      dup2\n      jump\t// out\n        /* \"Ethereum/ENS/contracts/ENSHandler.sol\":507:580  ENS public ens = ENS(address(0x00000000000C2E074eC69A0dFb2997BA6C7d2e1e)) */\n    tag_11:\n      0x00\n      dup1\n      sload\n      swap1\n      0x0100\n      exp\n      swap1\n      div\n      0xffffffffffffffffffffffffffffffffffffffff\n      and\n      dup2\n      jump\t// out\n        /* \"Ethereum/ENS/contracts/ENSHandler.sol\":687:977  function setSubNode(bytes32 _rootNode, address _target, bytes32 _label, bytes32 _subNodeHash) external {... */\n    tag_17:\n        /* \"Ethereum/ENS/contracts/ENSHandler.sol\":800:803  ens */\n      0x00\n      dup1\n      sload\n      swap1\n      0x0100\n      exp\n      swap1\n      div\n      0xffffffffffffffffffffffffffffffffffffffff\n      and\n        /* \"Ethereum/ENS/contracts/ENSHandler.sol\":800:820  ens.setSubnodeRecord */\n      0xffffffffffffffffffffffffffffffffffffffff\n      and\n      0x5ef2c7f0\n        /* \"Ethereum/ENS/contracts/ENSHandler.sol\":821:830  _rootNode */\n      dup6\n        /* \"Ethereum/ENS/contracts/ENSHandler.sol\":832:838  _label */\n      dup5\n        /* \"Ethereum/ENS/contracts/ENSHandler.sol\":848:852  this */\n      address\n        /* \"Ethereum/ENS/contracts/ENSHandler.sol\":863:871  resolver */\n      0x01\n      0x00\n      swap1\n      sload\n      swap1\n      0x0100\n      exp\n      swap1\n      div\n      0xffffffffffffffffffffffffffffffffffffffff\n      and\n        /* \"Ethereum/ENS/contracts/ENSHandler.sol\":874:875  0 */\n      0x00\n        /* \"Ethereum/ENS/contracts/ENSHandler.sol\":800:876  ens.setSubnodeRecord(_rootNode, _label, address(this), address(resolver), 0) */\n      mload(0x40)\n      dup7\n      0xffffffff\n      and\n      0xe0\n      shl\n      dup2\n      mstore\n      0x04\n      add\n      tag_19\n      swap6\n      swap5\n      swap4\n      swap3\n      swap2\n      swap1\n      tag_20\n      jump\t// in\n    tag_19:\n      0x00\n      mload(0x40)\n      dup1\n      dup4\n      sub\n      dup2\n      0x00\n      dup8\n      dup1\n      extcodesize\n      iszero\n      dup1\n      iszero\n      tag_21\n      jumpi\n      0x00\n      dup1\n      revert\n    tag_21:\n      pop\n      gas\n      call\n      iszero\n      dup1\n      iszero\n      tag_23\n      jumpi\n      returndatasize\n      0x00\n      dup1\n      returndatacopy\n      revert(0x00, returndatasize)\n    tag_23:\n      pop\n      pop\n      pop\n      pop\n        /* \"Ethereum/ENS/contracts/ENSHandler.sol\":886:894  resolver */\n      0x01\n      0x00\n      swap1\n      sload\n      swap1\n      0x0100\n      exp\n      swap1\n      div\n      0xffffffffffffffffffffffffffffffffffffffff\n      and\n        /* \"Ethereum/ENS/contracts/ENSHandler.sol\":886:902  resolver.setAddr */\n      0xffffffffffffffffffffffffffffffffffffffff\n      and\n      0xd5fa2b00\n        /* \"Ethereum/ENS/contracts/ENSHandler.sol\":903:915  _subNodeHash */\n      dup3\n        /* \"Ethereum/ENS/contracts/ENSHandler.sol\":917:924  _target */\n      dup6\n        /* \"Ethereum/ENS/contracts/ENSHandler.sol\":886:925  resolver.setAddr(_subNodeHash, _target) */\n      mload(0x40)\n      dup4\n      0xffffffff\n      and\n      0xe0\n      shl\n      dup2\n      mstore\n      0x04\n      add\n      tag_24\n      swap3\n      swap2\n      swap1\n      tag_25\n      jump\t// in\n    tag_24:\n      0x00\n      mload(0x40)\n      dup1\n      dup4\n      sub\n      dup2\n      0x00\n      dup8\n      dup1\n      extcodesize\n      iszero\n      dup1\n      iszero\n      tag_26\n      jumpi\n      0x00\n      dup1\n      revert\n    tag_26:\n      pop\n      gas\n      call\n      iszero\n      dup1\n      iszero\n      tag_28\n      jumpi\n      returndatasize\n      0x00\n      dup1\n      returndatacopy\n      revert(0x00, returndatasize)\n    tag_28:\n      pop\n      pop\n      pop\n      pop\n        /* \"Ethereum/ENS/contracts/ENSHandler.sol\":935:938  ens */\n      0x00\n      dup1\n      sload\n      swap1\n      0x0100\n      exp\n      swap1\n      div\n      0xffffffffffffffffffffffffffffffffffffffff\n      and\n        /* \"Ethereum/ENS/contracts/ENSHandler.sol\":935:947  ens.setOwner */\n      0xffffffffffffffffffffffffffffffffffffffff\n      and\n      0x5b0fc9c3\n        /* \"Ethereum/ENS/contracts/ENSHandler.sol\":948:960  _subNodeHash */\n      dup3\n        /* \"Ethereum/ENS/contracts/ENSHandler.sol\":962:969  _target */\n      dup6\n        /* \"Ethereum/ENS/contracts/ENSHandler.sol\":935:970  ens.setOwner(_subNodeHash, _target) */\n      mload(0x40)\n      dup4\n      0xffffffff\n      and\n      0xe0\n      shl\n      dup2\n      mstore\n      0x04\n      add\n      tag_29\n      swap3\n      swap2\n      swap1\n      tag_25\n      jump\t// in\n    tag_29:\n      0x00\n      mload(0x40)\n      dup1\n      dup4\n      sub\n      dup2\n      0x00\n      dup8\n      dup1\n      extcodesize\n      iszero\n      dup1\n      iszero\n      tag_30\n      jumpi\n      0x00\n      dup1\n      revert\n    tag_30:\n      pop\n      gas\n      call\n      iszero\n      dup1\n      iszero\n      tag_32\n      jumpi\n      returndatasize\n      0x00\n      dup1\n      returndatacopy\n      revert(0x00, returndatasize)\n    tag_32:\n      pop\n      pop\n      pop\n      pop\n        /* \"Ethereum/ENS/contracts/ENSHandler.sol\":687:977  function setSubNode(bytes32 _rootNode, address _target, bytes32 _label, bytes32 _subNodeHash) external {... */\n      pop\n      pop\n      pop\n      pop\n      jump\t// out\n        /* \"#utility.yul\":7:146   */\n    tag_34:\n        /* \"#utility.yul\":53:58   */\n      0x00\n        /* \"#utility.yul\":91:97   */\n      dup2\n        /* \"#utility.yul\":78:98   */\n      calldataload\n        /* \"#utility.yul\":69:98   */\n      swap1\n      pop\n        /* \"#utility.yul\":107:140   */\n      tag_36\n        /* \"#utility.yul\":134:139   */\n      dup2\n        /* \"#utility.yul\":107:140   */\n      tag_37\n      jump\t// in\n    tag_36:\n        /* \"#utility.yul\":7:146   */\n      swap3\n      swap2\n      pop\n      pop\n      jump\t// out\n        /* \"#utility.yul\":152:291   */\n    tag_38:\n        /* \"#utility.yul\":198:203   */\n      0x00\n        /* \"#utility.yul\":236:242   */\n      dup2\n        /* \"#utility.yul\":223:243   */\n      calldataload\n        /* \"#utility.yul\":214:243   */\n      swap1\n      pop\n        /* \"#utility.yul\":252:285   */\n      tag_40\n        /* \"#utility.yul\":279:284   */\n      dup2\n        /* \"#utility.yul\":252:285   */\n      tag_41\n      jump\t// in\n    tag_40:\n        /* \"#utility.yul\":152:291   */\n      swap3\n      swap2\n      pop\n      pop\n      jump\t// out\n        /* \"#utility.yul\":297:1062   */\n    tag_16:\n        /* \"#utility.yul\":383:389   */\n      0x00\n        /* \"#utility.yul\":391:397   */\n      dup1\n        /* \"#utility.yul\":399:405   */\n      0x00\n        /* \"#utility.yul\":407:413   */\n      dup1\n        /* \"#utility.yul\":456:459   */\n      0x80\n        /* \"#utility.yul\":444:453   */\n      dup6\n        /* \"#utility.yul\":435:442   */\n      dup8\n        /* \"#utility.yul\":431:454   */\n      sub\n        /* \"#utility.yul\":427:460   */\n      slt\n        /* \"#utility.yul\":424:544   */\n      iszero\n      tag_43\n      jumpi\n        /* \"#utility.yul\":463:542   */\n      tag_44\n      tag_45\n      jump\t// in\n    tag_44:\n        /* \"#utility.yul\":424:544   */\n    tag_43:\n        /* \"#utility.yul\":583:584   */\n      0x00\n        /* \"#utility.yul\":608:661   */\n      tag_46\n        /* \"#utility.yul\":653:660   */\n      dup8\n        /* \"#utility.yul\":644:650   */\n      dup3\n        /* \"#utility.yul\":633:642   */\n      dup9\n        /* \"#utility.yul\":629:651   */\n      add\n        /* \"#utility.yul\":608:661   */\n      tag_38\n      jump\t// in\n    tag_46:\n        /* \"#utility.yul\":598:661   */\n      swap5\n      pop\n        /* \"#utility.yul\":554:671   */\n      pop\n        /* \"#utility.yul\":710:712   */\n      0x20\n        /* \"#utility.yul\":736:789   */\n      tag_47\n        /* \"#utility.yul\":781:788   */\n      dup8\n        /* \"#utility.yul\":772:778   */\n      dup3\n        /* \"#utility.yul\":761:770   */\n      dup9\n        /* \"#utility.yul\":757:779   */\n      add\n        /* \"#utility.yul\":736:789   */\n      tag_34\n      jump\t// in\n    tag_47:\n        /* \"#utility.yul\":726:789   */\n      swap4\n      pop\n        /* \"#utility.yul\":681:799   */\n      pop\n        /* \"#utility.yul\":838:840   */\n      0x40\n        /* \"#utility.yul\":864:917   */\n      tag_48\n        /* \"#utility.yul\":909:916   */\n      dup8\n        /* \"#utility.yul\":900:906   */\n      dup3\n        /* \"#utility.yul\":889:898   */\n      dup9\n        /* \"#utility.yul\":885:907   */\n      add\n        /* \"#utility.yul\":864:917   */\n      tag_38\n      jump\t// in\n    tag_48:\n        /* \"#utility.yul\":854:917   */\n      swap3\n      pop\n        /* \"#utility.yul\":809:927   */\n      pop\n        /* \"#utility.yul\":966:968   */\n      0x60\n        /* \"#utility.yul\":992:1045   */\n      tag_49\n        /* \"#utility.yul\":1037:1044   */\n      dup8\n        /* \"#utility.yul\":1028:1034   */\n      dup3\n        /* \"#utility.yul\":1017:1026   */\n      dup9\n        /* \"#utility.yul\":1013:1035   */\n      add\n        /* \"#utility.yul\":992:1045   */\n      tag_38\n      jump\t// in\n    tag_49:\n        /* \"#utility.yul\":982:1045   */\n      swap2\n      pop\n        /* \"#utility.yul\":937:1055   */\n      pop\n        /* \"#utility.yul\":297:1062   */\n      swap3\n      swap6\n      swap2\n      swap5\n      pop\n      swap3\n      pop\n      jump\t// out\n        /* \"#utility.yul\":1068:1186   */\n    tag_50:\n        /* \"#utility.yul\":1155:1179   */\n      tag_52\n        /* \"#utility.yul\":1173:1178   */\n      dup2\n        /* \"#utility.yul\":1155:1179   */\n      tag_53\n      jump\t// in\n    tag_52:\n        /* \"#utility.yul\":1150:1153   */\n      dup3\n        /* \"#utility.yul\":1143:1180   */\n      mstore\n        /* \"#utility.yul\":1068:1186   */\n      pop\n      pop\n      jump\t// out\n        /* \"#utility.yul\":1192:1310   */\n    tag_54:\n        /* \"#utility.yul\":1279:1303   */\n      tag_56\n        /* \"#utility.yul\":1297:1302   */\n      dup2\n        /* \"#utility.yul\":1279:1303   */\n      tag_57\n      jump\t// in\n    tag_56:\n        /* \"#utility.yul\":1274:1277   */\n      dup3\n        /* \"#utility.yul\":1267:1304   */\n      mstore\n        /* \"#utility.yul\":1192:1310   */\n      pop\n      pop\n      jump\t// out\n        /* \"#utility.yul\":1316:1483   */\n    tag_58:\n        /* \"#utility.yul\":1421:1476   */\n      tag_60\n        /* \"#utility.yul\":1470:1475   */\n      dup2\n        /* \"#utility.yul\":1421:1476   */\n      tag_61\n      jump\t// in\n    tag_60:\n        /* \"#utility.yul\":1416:1419   */\n      dup3\n        /* \"#utility.yul\":1409:1477   */\n      mstore\n        /* \"#utility.yul\":1316:1483   */\n      pop\n      pop\n      jump\t// out\n        /* \"#utility.yul\":1489:1640   */\n    tag_62:\n        /* \"#utility.yul\":1586:1633   */\n      tag_64\n        /* \"#utility.yul\":1627:1632   */\n      dup2\n        /* \"#utility.yul\":1586:1633   */\n      tag_65\n      jump\t// in\n    tag_64:\n        /* \"#utility.yul\":1581:1584   */\n      dup3\n        /* \"#utility.yul\":1574:1634   */\n      mstore\n        /* \"#utility.yul\":1489:1640   */\n      pop\n      pop\n      jump\t// out\n        /* \"#utility.yul\":1646:1791   */\n    tag_66:\n        /* \"#utility.yul\":1740:1784   */\n      tag_68\n        /* \"#utility.yul\":1778:1783   */\n      dup2\n        /* \"#utility.yul\":1740:1784   */\n      tag_69\n      jump\t// in\n    tag_68:\n        /* \"#utility.yul\":1735:1738   */\n      dup3\n        /* \"#utility.yul\":1728:1785   */\n      mstore\n        /* \"#utility.yul\":1646:1791   */\n      pop\n      pop\n      jump\t// out\n        /* \"#utility.yul\":1797:2129   */\n    tag_25:\n        /* \"#utility.yul\":1918:1922   */\n      0x00\n        /* \"#utility.yul\":1956:1958   */\n      0x40\n        /* \"#utility.yul\":1945:1954   */\n      dup3\n        /* \"#utility.yul\":1941:1959   */\n      add\n        /* \"#utility.yul\":1933:1959   */\n      swap1\n      pop\n        /* \"#utility.yul\":1969:2040   */\n      tag_71\n        /* \"#utility.yul\":2037:2038   */\n      0x00\n        /* \"#utility.yul\":2026:2035   */\n      dup4\n        /* \"#utility.yul\":2022:2039   */\n      add\n        /* \"#utility.yul\":2013:2019   */\n      dup6\n        /* \"#utility.yul\":1969:2040   */\n      tag_54\n      jump\t// in\n    tag_71:\n        /* \"#utility.yul\":2050:2122   */\n      tag_72\n        /* \"#utility.yul\":2118:2120   */\n      0x20\n        /* \"#utility.yul\":2107:2116   */\n      dup4\n        /* \"#utility.yul\":2103:2121   */\n      add\n        /* \"#utility.yul\":2094:2100   */\n      dup5\n        /* \"#utility.yul\":2050:2122   */\n      tag_50\n      jump\t// in\n    tag_72:\n        /* \"#utility.yul\":1797:2129   */\n      swap4\n      swap3\n      pop\n      pop\n      pop\n      jump\t// out\n        /* \"#utility.yul\":2135:2813   */\n    tag_20:\n        /* \"#utility.yul\":2347:2351   */\n      0x00\n        /* \"#utility.yul\":2385:2388   */\n      0xa0\n        /* \"#utility.yul\":2374:2383   */\n      dup3\n        /* \"#utility.yul\":2370:2389   */\n      add\n        /* \"#utility.yul\":2362:2389   */\n      swap1\n      pop\n        /* \"#utility.yul\":2399:2470   */\n      tag_74\n        /* \"#utility.yul\":2467:2468   */\n      0x00\n        /* \"#utility.yul\":2456:2465   */\n      dup4\n        /* \"#utility.yul\":2452:2469   */\n      add\n        /* \"#utility.yul\":2443:2449   */\n      dup9\n        /* \"#utility.yul\":2399:2470   */\n      tag_54\n      jump\t// in\n    tag_74:\n        /* \"#utility.yul\":2480:2552   */\n      tag_75\n        /* \"#utility.yul\":2548:2550   */\n      0x20\n        /* \"#utility.yul\":2537:2546   */\n      dup4\n        /* \"#utility.yul\":2533:2551   */\n      add\n        /* \"#utility.yul\":2524:2530   */\n      dup8\n        /* \"#utility.yul\":2480:2552   */\n      tag_54\n      jump\t// in\n    tag_75:\n        /* \"#utility.yul\":2562:2634   */\n      tag_76\n        /* \"#utility.yul\":2630:2632   */\n      0x40\n        /* \"#utility.yul\":2619:2628   */\n      dup4\n        /* \"#utility.yul\":2615:2633   */\n      add\n        /* \"#utility.yul\":2606:2612   */\n      dup7\n        /* \"#utility.yul\":2562:2634   */\n      tag_50\n      jump\t// in\n    tag_76:\n        /* \"#utility.yul\":2644:2716   */\n      tag_77\n        /* \"#utility.yul\":2712:2714   */\n      0x60\n        /* \"#utility.yul\":2701:2710   */\n      dup4\n        /* \"#utility.yul\":2697:2715   */\n      add\n        /* \"#utility.yul\":2688:2694   */\n      dup6\n        /* \"#utility.yul\":2644:2716   */\n      tag_50\n      jump\t// in\n    tag_77:\n        /* \"#utility.yul\":2726:2806   */\n      tag_78\n        /* \"#utility.yul\":2801:2804   */\n      0x80\n        /* \"#utility.yul\":2790:2799   */\n      dup4\n        /* \"#utility.yul\":2786:2805   */\n      add\n        /* \"#utility.yul\":2777:2783   */\n      dup5\n        /* \"#utility.yul\":2726:2806   */\n      tag_66\n      jump\t// in\n    tag_78:\n        /* \"#utility.yul\":2135:2813   */\n      swap7\n      swap6\n      pop\n      pop\n      pop\n      pop\n      pop\n      pop\n      jump\t// out\n        /* \"#utility.yul\":2819:3077   */\n    tag_9:\n        /* \"#utility.yul\":2930:2934   */\n      0x00\n        /* \"#utility.yul\":2968:2970   */\n      0x20\n        /* \"#utility.yul\":2957:2966   */\n      dup3\n        /* \"#utility.yul\":2953:2971   */\n      add\n        /* \"#utility.yul\":2945:2971   */\n      swap1\n      pop\n        /* \"#utility.yul\":2981:3070   */\n      tag_80\n        /* \"#utility.yul\":3067:3068   */\n      0x00\n        /* \"#utility.yul\":3056:3065   */\n      dup4\n        /* \"#utility.yul\":3052:3069   */\n      add\n        /* \"#utility.yul\":3043:3049   */\n      dup5\n        /* \"#utility.yul\":2981:3070   */\n      tag_58\n      jump\t// in\n    tag_80:\n        /* \"#utility.yul\":2819:3077   */\n      swap3\n      swap2\n      pop\n      pop\n      jump\t// out\n        /* \"#utility.yul\":3083:3325   */\n    tag_13:\n        /* \"#utility.yul\":3186:3190   */\n      0x00\n        /* \"#utility.yul\":3224:3226   */\n      0x20\n        /* \"#utility.yul\":3213:3222   */\n      dup3\n        /* \"#utility.yul\":3209:3227   */\n      add\n        /* \"#utility.yul\":3201:3227   */\n      swap1\n      pop\n        /* \"#utility.yul\":3237:3318   */\n      tag_82\n        /* \"#utility.yul\":3315:3316   */\n      0x00\n        /* \"#utility.yul\":3304:3313   */\n      dup4\n        /* \"#utility.yul\":3300:3317   */\n      add\n        /* \"#utility.yul\":3291:3297   */\n      dup5\n        /* \"#utility.yul\":3237:3318   */\n      tag_62\n      jump\t// in\n    tag_82:\n        /* \"#utility.yul\":3083:3325   */\n      swap3\n      swap2\n      pop\n      pop\n      jump\t// out\n        /* \"#utility.yul\":3412:3508   */\n    tag_53:\n        /* \"#utility.yul\":3449:3456   */\n      0x00\n        /* \"#utility.yul\":3478:3502   */\n      tag_86\n        /* \"#utility.yul\":3496:3501   */\n      dup3\n        /* \"#utility.yul\":3478:3502   */\n      tag_87\n      jump\t// in\n    tag_86:\n        /* \"#utility.yul\":3467:3502   */\n      swap1\n      pop\n        /* \"#utility.yul\":3412:3508   */\n      swap2\n      swap1\n      pop\n      jump\t// out\n        /* \"#utility.yul\":3514:3591   */\n    tag_57:\n        /* \"#utility.yul\":3551:3558   */\n      0x00\n        /* \"#utility.yul\":3580:3585   */\n      dup2\n        /* \"#utility.yul\":3569:3585   */\n      swap1\n      pop\n        /* \"#utility.yul\":3514:3591   */\n      swap2\n      swap1\n      pop\n      jump\t// out\n        /* \"#utility.yul\":3597:3723   */\n    tag_87:\n        /* \"#utility.yul\":3634:3641   */\n      0x00\n        /* \"#utility.yul\":3674:3716   */\n      0xffffffffffffffffffffffffffffffffffffffff\n        /* \"#utility.yul\":3667:3672   */\n      dup3\n        /* \"#utility.yul\":3663:3717   */\n      and\n        /* \"#utility.yul\":3652:3717   */\n      swap1\n      pop\n        /* \"#utility.yul\":3597:3723   */\n      swap2\n      swap1\n      pop\n      jump\t// out\n        /* \"#utility.yul\":3729:3830   */\n    tag_90:\n        /* \"#utility.yul\":3765:3772   */\n      0x00\n        /* \"#utility.yul\":3805:3823   */\n      0xffffffffffffffff\n        /* \"#utility.yul\":3798:3803   */\n      dup3\n        /* \"#utility.yul\":3794:3824   */\n      and\n        /* \"#utility.yul\":3783:3824   */\n      swap1\n      pop\n        /* \"#utility.yul\":3729:3830   */\n      swap2\n      swap1\n      pop\n      jump\t// out\n        /* \"#utility.yul\":3836:3980   */\n    tag_61:\n        /* \"#utility.yul\":3904:3913   */\n      0x00\n        /* \"#utility.yul\":3937:3974   */\n      tag_93\n        /* \"#utility.yul\":3968:3973   */\n      dup3\n        /* \"#utility.yul\":3937:3974   */\n      tag_94\n      jump\t// in\n    tag_93:\n        /* \"#utility.yul\":3924:3974   */\n      swap1\n      pop\n        /* \"#utility.yul\":3836:3980   */\n      swap2\n      swap1\n      pop\n      jump\t// out\n        /* \"#utility.yul\":3986:4122   */\n    tag_65:\n        /* \"#utility.yul\":4046:4055   */\n      0x00\n        /* \"#utility.yul\":4079:4116   */\n      tag_96\n        /* \"#utility.yul\":4110:4115   */\n      dup3\n        /* \"#utility.yul\":4079:4116   */\n      tag_94\n      jump\t// in\n    tag_96:\n        /* \"#utility.yul\":4066:4116   */\n      swap1\n      pop\n        /* \"#utility.yul\":3986:4122   */\n      swap2\n      swap1\n      pop\n      jump\t// out\n        /* \"#utility.yul\":4128:4247   */\n    tag_69:\n        /* \"#utility.yul\":4185:4194   */\n      0x00\n        /* \"#utility.yul\":4218:4241   */\n      tag_98\n        /* \"#utility.yul\":4235:4240   */\n      dup3\n        /* \"#utility.yul\":4218:4241   */\n      tag_90\n      jump\t// in\n    tag_98:\n        /* \"#utility.yul\":4205:4241   */\n      swap1\n      pop\n        /* \"#utility.yul\":4128:4247   */\n      swap2\n      swap1\n      pop\n      jump\t// out\n        /* \"#utility.yul\":4253:4379   */\n    tag_94:\n        /* \"#utility.yul\":4303:4312   */\n      0x00\n        /* \"#utility.yul\":4336:4373   */\n      tag_100\n        /* \"#utility.yul\":4367:4372   */\n      dup3\n        /* \"#utility.yul\":4336:4373   */\n      tag_101\n      jump\t// in\n    tag_100:\n        /* \"#utility.yul\":4323:4373   */\n      swap1\n      pop\n        /* \"#utility.yul\":4253:4379   */\n      swap2\n      swap1\n      pop\n      jump\t// out\n        /* \"#utility.yul\":4385:4498   */\n    tag_101:\n        /* \"#utility.yul\":4435:4444   */\n      0x00\n        /* \"#utility.yul\":4468:4492   */\n      tag_103\n        /* \"#utility.yul\":4486:4491   */\n      dup3\n        /* \"#utility.yul\":4468:4492   */\n      tag_87\n      jump\t// in\n    tag_103:\n        /* \"#utility.yul\":4455:4492   */\n      swap1\n      pop\n        /* \"#utility.yul\":4385:4498   */\n      swap2\n      swap1\n      pop\n      jump\t// out\n        /* \"#utility.yul\":4627:4744   */\n    tag_45:\n        /* \"#utility.yul\":4736:4737   */\n      0x00\n        /* \"#utility.yul\":4733:4734   */\n      dup1\n        /* \"#utility.yul\":4726:4738   */\n      revert\n        /* \"#utility.yul\":4750:4872   */\n    tag_37:\n        /* \"#utility.yul\":4823:4847   */\n      tag_108\n        /* \"#utility.yul\":4841:4846   */\n      dup2\n        /* \"#utility.yul\":4823:4847   */\n      tag_53\n      jump\t// in\n    tag_108:\n        /* \"#utility.yul\":4816:4821   */\n      dup2\n        /* \"#utility.yul\":4813:4848   */\n      eq\n        /* \"#utility.yul\":4803:4866   */\n      tag_109\n      jumpi\n        /* \"#utility.yul\":4862:4863   */\n      0x00\n        /* \"#utility.yul\":4859:4860   */\n      dup1\n        /* \"#utility.yul\":4852:4864   */\n      revert\n        /* \"#utility.yul\":4803:4866   */\n    tag_109:\n        /* \"#utility.yul\":4750:4872   */\n      pop\n      jump\t// out\n        /* \"#utility.yul\":4878:5000   */\n    tag_41:\n        /* \"#utility.yul\":4951:4975   */\n      tag_111\n        /* \"#utility.yul\":4969:4974   */\n      dup2\n        /* \"#utility.yul\":4951:4975   */\n      tag_57\n      jump\t// in\n    tag_111:\n        /* \"#utility.yul\":4944:4949   */\n      dup2\n        /* \"#utility.yul\":4941:4976   */\n      eq\n        /* \"#utility.yul\":4931:4994   */\n      tag_112\n      jumpi\n        /* \"#utility.yul\":4990:4991   */\n      0x00\n        /* \"#utility.yul\":4987:4988   */\n      dup1\n        /* \"#utility.yul\":4980:4992   */\n      revert\n        /* \"#utility.yul\":4931:4994   */\n    tag_112:\n        /* \"#utility.yul\":4878:5000   */\n      pop\n      jump\t// out\n\n    auxdata: 0xa264697066735822122026e660e06c85d2dae6c983da7e900499f3bfce3a8b3305f1731c9ab42bd686c564736f6c63430008070033\n}\n",
				"bytecode": {
					"linkReferences": {},
					"object": "60806040526e0c2e074ec69a0dfb2997ba6c7d2e1e6000806101000a81548173ffffffffffffffffffffffffffffffffffffffff021916908373ffffffffffffffffffffffffffffffffffffffff16021790555073e264d5bb84ba3b8061adc38d3d76e6674ab91852600160006101000a81548173ffffffffffffffffffffffffffffffffffffffff021916908373ffffffffffffffffffffffffffffffffffffffff1602179055503480156100b457600080fd5b50610561806100c46000396000f3fe608060405234801561001057600080fd5b50600436106100415760003560e01c806304f3bcec146100465780633f15457f146100645780638669b16714610082575b600080fd5b61004e61009e565b60405161005b9190610418565b60405180910390f35b61006c6100c4565b6040516100799190610433565b60405180910390f35b61009c600480360381019061009791906102ea565b6100e8565b005b600160009054906101000a900473ffffffffffffffffffffffffffffffffffffffff1681565b60008054906101000a900473ffffffffffffffffffffffffffffffffffffffff1681565b60008054906101000a900473ffffffffffffffffffffffffffffffffffffffff1673ffffffffffffffffffffffffffffffffffffffff16635ef2c7f0858430600160009054906101000a900473ffffffffffffffffffffffffffffffffffffffff1660006040518663ffffffff1660e01b815260040161016c9594939291906103c5565b600060405180830381600087803b15801561018657600080fd5b505af115801561019a573d6000803e3d6000fd5b50505050600160009054906101000a900473ffffffffffffffffffffffffffffffffffffffff1673ffffffffffffffffffffffffffffffffffffffff1663d5fa2b0082856040518363ffffffff1660e01b81526004016101fb92919061039c565b600060405180830381600087803b15801561021557600080fd5b505af1158015610229573d6000803e3d6000fd5b5050505060008054906101000a900473ffffffffffffffffffffffffffffffffffffffff1673ffffffffffffffffffffffffffffffffffffffff16635b0fc9c382856040518363ffffffff1660e01b815260040161028892919061039c565b600060405180830381600087803b1580156102a257600080fd5b505af11580156102b6573d6000803e3d6000fd5b5050505050505050565b6000813590506102cf816104fd565b92915050565b6000813590506102e481610514565b92915050565b60008060008060808587031215610304576103036104f8565b5b6000610312878288016102d5565b9450506020610323878288016102c0565b9350506040610334878288016102d5565b9250506060610345878288016102d5565b91505092959194509250565b61035a8161044e565b82525050565b61036981610460565b82525050565b6103788161049e565b82525050565b610387816104b0565b82525050565b610396816104c2565b82525050565b60006040820190506103b16000830185610360565b6103be6020830184610351565b9392505050565b600060a0820190506103da6000830188610360565b6103e76020830187610360565b6103f46040830186610351565b6104016060830185610351565b61040e608083018461038d565b9695505050505050565b600060208201905061042d600083018461036f565b92915050565b6000602082019050610448600083018461037e565b92915050565b60006104598261046a565b9050919050565b6000819050919050565b600073ffffffffffffffffffffffffffffffffffffffff82169050919050565b600067ffffffffffffffff82169050919050565b60006104a9826104d4565b9050919050565b60006104bb826104d4565b9050919050565b60006104cd8261048a565b9050919050565b60006104df826104e6565b9050919050565b60006104f18261046a565b9050919050565b600080fd5b6105068161044e565b811461051157600080fd5b50565b61051d81610460565b811461052857600080fd5b5056fea264697066735822122026e660e06c85d2dae6c983da7e900499f3bfce3a8b3305f1731c9ab42bd686c564736f6c63430008070033",
					"opcodes": "PUSH1 0x80 PUSH1 0x40 MSTORE PUSH15 0xC2E074EC69A0DFB2997BA6C7D2E1E PUSH1 0x0 DUP1 PUSH2 0x100 EXP DUP2 SLOAD DUP2 PUSH20 0xFFFFFFFFFFFFFFFFFFFFFFFFFFFFFFFFFFFFFFFF MUL NOT AND SWAP1 DUP4 PUSH20 0xFFFFFFFFFFFFFFFFFFFFFFFFFFFFFFFFFFFFFFFF AND MUL OR SWAP1 SSTORE POP PUSH20 0xE264D5BB84BA3B8061ADC38D3D76E6674AB91852 PUSH1 0x1 PUSH1 0x0 PUSH2 0x100 EXP DUP2 SLOAD DUP2 PUSH20 0xFFFFFFFFFFFFFFFFFFFFFFFFFFFFFFFFFFFFFFFF MUL NOT AND SWAP1 DUP4 PUSH20 0xFFFFFFFFFFFFFFFFFFFFFFFFFFFFFFFFFFFFFFFF AND MUL OR SWAP1 SSTORE POP CALLVALUE DUP1 ISZERO PUSH2 0xB4 JUMPI PUSH1 0x0 DUP1 REVERT JUMPDEST POP PUSH2 0x561 DUP1 PUSH2 0xC4 PUSH1 0x0 CODECOPY PUSH1 0x0 RETURN INVALID PUSH1 0x80 PUSH1 0x40 MSTORE CALLVALUE DUP1 ISZERO PUSH2 0x10 JUMPI PUSH1 0x0 DUP1 REVERT JUMPDEST POP PUSH1 0x4 CALLDATASIZE LT PUSH2 0x41 JUMPI PUSH1 0x0 CALLDATALOAD PUSH1 0xE0 SHR DUP1 PUSH4 0x4F3BCEC EQ PUSH2 0x46 JUMPI DUP1 PUSH4 0x3F15457F EQ PUSH2 0x64 JUMPI DUP1 PUSH4 0x8669B167 EQ PUSH2 0x82 JUMPI JUMPDEST PUSH1 0x0 DUP1 REVERT JUMPDEST PUSH2 0x4E PUSH2 0x9E JUMP JUMPDEST PUSH1 0x40 MLOAD PUSH2 0x5B SWAP2 SWAP1 PUSH2 0x418 JUMP JUMPDEST PUSH1 0x40 MLOAD DUP1 SWAP2 SUB SWAP1 RETURN JUMPDEST PUSH2 0x6C PUSH2 0xC4 JUMP JUMPDEST PUSH1 0x40 MLOAD PUSH2 0x79 SWAP2 SWAP1 PUSH2 0x433 JUMP JUMPDEST PUSH1 0x40 MLOAD DUP1 SWAP2 SUB SWAP1 RETURN JUMPDEST PUSH2 0x9C PUSH1 0x4 DUP1 CALLDATASIZE SUB DUP2 ADD SWAP1 PUSH2 0x97 SWAP2 SWAP1 PUSH2 0x2EA JUMP JUMPDEST PUSH2 0xE8 JUMP JUMPDEST STOP JUMPDEST PUSH1 0x1 PUSH1 0x0 SWAP1 SLOAD SWAP1 PUSH2 0x100 EXP SWAP1 DIV PUSH20 0xFFFFFFFFFFFFFFFFFFFFFFFFFFFFFFFFFFFFFFFF AND DUP2 JUMP JUMPDEST PUSH1 0x0 DUP1 SLOAD SWAP1 PUSH2 0x100 EXP SWAP1 DIV PUSH20 0xFFFFFFFFFFFFFFFFFFFFFFFFFFFFFFFFFFFFFFFF AND DUP2 JUMP JUMPDEST PUSH1 0x0 DUP1 SLOAD SWAP1 PUSH2 0x100 EXP SWAP1 DIV PUSH20 0xFFFFFFFFFFFFFFFFFFFFFFFFFFFFFFFFFFFFFFFF AND PUSH20 0xFFFFFFFFFFFFFFFFFFFFFFFFFFFFFFFFFFFFFFFF AND PUSH4 0x5EF2C7F0 DUP6 DUP5 ADDRESS PUSH1 0x1 PUSH1 0x0 SWAP1 SLOAD SWAP1 PUSH2 0x100 EXP SWAP1 DIV PUSH20 0xFFFFFFFFFFFFFFFFFFFFFFFFFFFFFFFFFFFFFFFF AND PUSH1 0x0 PUSH1 0x40 MLOAD DUP7 PUSH4 0xFFFFFFFF AND PUSH1 0xE0 SHL DUP2 MSTORE PUSH1 0x4 ADD PUSH2 0x16C SWAP6 SWAP5 SWAP4 SWAP3 SWAP2 SWAP1 PUSH2 0x3C5 JUMP JUMPDEST PUSH1 0x0 PUSH1 0x40 MLOAD DUP1 DUP4 SUB DUP2 PUSH1 0x0 DUP8 DUP1 EXTCODESIZE ISZERO DUP1 ISZERO PUSH2 0x186 JUMPI PUSH1 0x0 DUP1 REVERT JUMPDEST POP GAS CALL ISZERO DUP1 ISZERO PUSH2 0x19A JUMPI RETURNDATASIZE PUSH1 0x0 DUP1 RETURNDATACOPY RETURNDATASIZE PUSH1 0x0 REVERT JUMPDEST POP POP POP POP PUSH1 0x1 PUSH1 0x0 SWAP1 SLOAD SWAP1 PUSH2 0x100 EXP SWAP1 DIV PUSH20 0xFFFFFFFFFFFFFFFFFFFFFFFFFFFFFFFFFFFFFFFF AND PUSH20 0xFFFFFFFFFFFFFFFFFFFFFFFFFFFFFFFFFFFFFFFF AND PUSH4 0xD5FA2B00 DUP3 DUP6 PUSH1 0x40 MLOAD DUP4 PUSH4 0xFFFFFFFF AND PUSH1 0xE0 SHL DUP2 MSTORE PUSH1 0x4 ADD PUSH2 0x1FB SWAP3 SWAP2 SWAP1 PUSH2 0x39C JUMP JUMPDEST PUSH1 0x0 PUSH1 0x40 MLOAD DUP1 DUP4 SUB DUP2 PUSH1 0x0 DUP8 DUP1 EXTCODESIZE ISZERO DUP1 ISZERO PUSH2 0x215 JUMPI PUSH1 0x0 DUP1 REVERT JUMPDEST POP GAS CALL ISZERO DUP1 ISZERO PUSH2 0x229 JUMPI RETURNDATASIZE PUSH1 0x0 DUP1 RETURNDATACOPY RETURNDATASIZE PUSH1 0x0 REVERT JUMPDEST POP POP POP POP PUSH1 0x0 DUP1 SLOAD SWAP1 PUSH2 0x100 EXP SWAP1 DIV PUSH20 0xFFFFFFFFFFFFFFFFFFFFFFFFFFFFFFFFFFFFFFFF AND PUSH20 0xFFFFFFFFFFFFFFFFFFFFFFFFFFFFFFFFFFFFFFFF AND PUSH4 0x5B0FC9C3 DUP3 DUP6 PUSH1 0x40 MLOAD DUP4 PUSH4 0xFFFFFFFF AND PUSH1 0xE0 SHL DUP2 MSTORE PUSH1 0x4 ADD PUSH2 0x288 SWAP3 SWAP2 SWAP1 PUSH2 0x39C JUMP JUMPDEST PUSH1 0x0 PUSH1 0x40 MLOAD DUP1 DUP4 SUB DUP2 PUSH1 0x0 DUP8 DUP1 EXTCODESIZE ISZERO DUP1 ISZERO PUSH2 0x2A2 JUMPI PUSH1 0x0 DUP1 REVERT JUMPDEST POP GAS CALL ISZERO DUP1 ISZERO PUSH2 0x2B6 JUMPI RETURNDATASIZE PUSH1 0x0 DUP1 RETURNDATACOPY RETURNDATASIZE PUSH1 0x0 REVERT JUMPDEST POP POP POP POP POP POP POP POP JUMP JUMPDEST PUSH1 0x0 DUP2 CALLDATALOAD SWAP1 POP PUSH2 0x2CF DUP2 PUSH2 0x4FD JUMP JUMPDEST SWAP3 SWAP2 POP POP JUMP JUMPDEST PUSH1 0x0 DUP2 CALLDATALOAD SWAP1 POP PUSH2 0x2E4 DUP2 PUSH2 0x514 JUMP JUMPDEST SWAP3 SWAP2 POP POP JUMP JUMPDEST PUSH1 0x0 DUP1 PUSH1 0x0 DUP1 PUSH1 0x80 DUP6 DUP8 SUB SLT ISZERO PUSH2 0x304 JUMPI PUSH2 0x303 PUSH2 0x4F8 JUMP JUMPDEST JUMPDEST PUSH1 0x0 PUSH2 0x312 DUP8 DUP3 DUP9 ADD PUSH2 0x2D5 JUMP JUMPDEST SWAP5 POP POP PUSH1 0x20 PUSH2 0x323 DUP8 DUP3 DUP9 ADD PUSH2 0x2C0 JUMP JUMPDEST SWAP4 POP POP PUSH1 0x40 PUSH2 0x334 DUP8 DUP3 DUP9 ADD PUSH2 0x2D5 JUMP JUMPDEST SWAP3 POP POP PUSH1 0x60 PUSH2 0x345 DUP8 DUP3 DUP9 ADD PUSH2 0x2D5 JUMP JUMPDEST SWAP2 POP POP SWAP3 SWAP6 SWAP2 SWAP5 POP SWAP3 POP JUMP JUMPDEST PUSH2 0x35A DUP2 PUSH2 0x44E JUMP JUMPDEST DUP3 MSTORE POP POP JUMP JUMPDEST PUSH2 0x369 DUP2 PUSH2 0x460 JUMP JUMPDEST DUP3 MSTORE POP POP JUMP JUMPDEST PUSH2 0x378 DUP2 PUSH2 0x49E JUMP JUMPDEST DUP3 MSTORE POP POP JUMP JUMPDEST PUSH2 0x387 DUP2 PUSH2 0x4B0 JUMP JUMPDEST DUP3 MSTORE POP POP JUMP JUMPDEST PUSH2 0x396 DUP2 PUSH2 0x4C2 JUMP JUMPDEST DUP3 MSTORE POP POP JUMP JUMPDEST PUSH1 0x0 PUSH1 0x40 DUP3 ADD SWAP1 POP PUSH2 0x3B1 PUSH1 0x0 DUP4 ADD DUP6 PUSH2 0x360 JUMP JUMPDEST PUSH2 0x3BE PUSH1 0x20 DUP4 ADD DUP5 PUSH2 0x351 JUMP JUMPDEST SWAP4 SWAP3 POP POP POP JUMP JUMPDEST PUSH1 0x0 PUSH1 0xA0 DUP3 ADD SWAP1 POP PUSH2 0x3DA PUSH1 0x0 DUP4 ADD DUP9 PUSH2 0x360 JUMP JUMPDEST PUSH2 0x3E7 PUSH1 0x20 DUP4 ADD DUP8 PUSH2 0x360 JUMP JUMPDEST PUSH2 0x3F4 PUSH1 0x40 DUP4 ADD DUP7 PUSH2 0x351 JUMP JUMPDEST PUSH2 0x401 PUSH1 0x60 DUP4 ADD DUP6 PUSH2 0x351 JUMP JUMPDEST PUSH2 0x40E PUSH1 0x80 DUP4 ADD DUP5 PUSH2 0x38D JUMP JUMPDEST SWAP7 SWAP6 POP POP POP POP POP POP JUMP JUMPDEST PUSH1 0x0 PUSH1 0x20 DUP3 ADD SWAP1 POP PUSH2 0x42D PUSH1 0x0 DUP4 ADD DUP5 PUSH2 0x36F JUMP JUMPDEST SWAP3 SWAP2 POP POP JUMP JUMPDEST PUSH1 0x0 PUSH1 0x20 DUP3 ADD SWAP1 POP PUSH2 0x448 PUSH1 0x0 DUP4 ADD DUP5 PUSH2 0x37E JUMP JUMPDEST SWAP3 SWAP2 POP POP JUMP JUMPDEST PUSH1 0x0 PUSH2 0x459 DUP3 PUSH2 0x46A JUMP JUMPDEST SWAP1 POP SWAP2 SWAP1 POP JUMP JUMPDEST PUSH1 0x0 DUP2 SWAP1 POP SWAP2 SWAP1 POP JUMP JUMPDEST PUSH1 0x0 PUSH20 0xFFFFFFFFFFFFFFFFFFFFFFFFFFFFFFFFFFFFFFFF DUP3 AND SWAP1 POP SWAP2 SWAP1 POP JUMP JUMPDEST PUSH1 0x0 PUSH8 0xFFFFFFFFFFFFFFFF DUP3 AND SWAP1 POP SWAP2 SWAP1 POP JUMP JUMPDEST PUSH1 0x0 PUSH2 0x4A9 DUP3 PUSH2 0x4D4 JUMP JUMPDEST SWAP1 POP SWAP2 SWAP1 POP JUMP JUMPDEST PUSH1 0x0 PUSH2 0x4BB DUP3 PUSH2 0x4D4 JUMP JUMPDEST SWAP1 POP SWAP2 SWAP1 POP JUMP JUMPDEST PUSH1 0x0 PUSH2 0x4CD DUP3 PUSH2 0x48A JUMP JUMPDEST SWAP1 POP SWAP2 SWAP1 POP JUMP JUMPDEST PUSH1 0x0 PUSH2 0x4DF DUP3 PUSH2 0x4E6 JUMP JUMPDEST SWAP1 POP SWAP2 SWAP1 POP JUMP JUMPDEST PUSH1 0x0 PUSH2 0x4F1 DUP3 PUSH2 0x46A JUMP JUMPDEST SWAP1 POP SWAP2 SWAP1 POP JUMP JUMPDEST PUSH1 0x0 DUP1 REVERT JUMPDEST PUSH2 0x506 DUP2 PUSH2 0x44E JUMP JUMPDEST DUP2 EQ PUSH2 0x511 JUMPI PUSH1 0x0 DUP1 REVERT JUMPDEST POP JUMP JUMPDEST PUSH2 0x51D DUP2 PUSH2 0x460 JUMP JUMPDEST DUP2 EQ PUSH2 0x528 JUMPI PUSH1 0x0 DUP1 REVERT JUMPDEST POP JUMP INVALID LOG2 PUSH5 0x6970667358 0x22 SLT KECCAK256 0x26 0xE6 PUSH1 0xE0 PUSH13 0x85D2DAE6C983DA7E900499F3BF 0xCE GASPRICE DUP12 CALLER SDIV CALL PUSH20 0x1C9AB42BD686C564736F6C634300080700330000 "
				},
				"gasEstimates": {
					"creation": {
						"codeDepositCost": "275400",
						"executionCost": "48852",
						"totalCost": "324252"
					},
					"external": {
						"ens()": "2597",
						"resolver()": "2578",
						"setSubNode(bytes32,address,bytes32,bytes32)": "infinite"
					}
				},
				"methodIdentifiers": {
					"ens()": "3f15457f",
					"resolver()": "04f3bcec",
					"setSubNode(bytes32,address,bytes32,bytes32)": "8669b167"
				}
			},
			"storageLayout": {
				"storage": [
					{
						"astId": 56,
						"contract": "Ethereum/ENS/contracts/ENSHandler.sol:ENSHandler",
						"label": "ens",
						"offset": 0,
						"slot": "0",
						"type": "t_contract(ENS)33"
					},
					{
						"astId": 65,
						"contract": "Ethereum/ENS/contracts/ENSHandler.sol:ENSHandler",
						"label": "resolver",
						"offset": 0,
						"slot": "1",
						"type": "t_contract(ENSResolver)41"
					}
				],
				"types": {
					"t_contract(ENS)33": {
						"encoding": "inplace",
						"label": "contract ENS",
						"numberOfBytes": "20"
					},
					"t_contract(ENSResolver)41": {
						"encoding": "inplace",
						"label": "contract ENSResolver",
						"numberOfBytes": "20"
					}
				}
			},
			"userdoc": {
				"kind": "user",
				"methods": {},
				"version": 1
			}
		}
	}
}