{
	"Ethereum/ENS/contracts/ENSHandler.sol": {
		"ENSHandler": {
			"abi": [
				{
					"anonymous": false,
					"inputs": [
						{
							"indexed": false,
							"internalType": "address",
							"name": "to",
							"type": "address"
						},
						{
							"indexed": false,
							"internalType": "bytes32",
							"name": "_label",
							"type": "bytes32"
						}
					],
					"name": "NewEns",
					"type": "event"
				},
				{
					"inputs": [],
					"name": "ens",
					"outputs": [
						{
							"internalType": "contract ENS",
							"name": "",
							"type": "address"
						}
					],
					"stateMutability": "view",
					"type": "function"
				},
				{
					"inputs": [],
					"name": "resolver",
					"outputs": [
						{
							"internalType": "contract ENSResolver",
							"name": "",
							"type": "address"
						}
					],
					"stateMutability": "view",
					"type": "function"
				},
				{
					"inputs": [
						{
							"internalType": "bytes32",
							"name": "_rootNode",
							"type": "bytes32"
						},
						{
							"internalType": "address",
							"name": "_target",
							"type": "address"
						},
						{
							"internalType": "bytes32",
							"name": "_label",
							"type": "bytes32"
						},
						{
							"internalType": "bytes32",
							"name": "_subNodeHash",
							"type": "bytes32"
						}
					],
					"name": "setSubNode",
					"outputs": [],
					"stateMutability": "nonpayable",
					"type": "function"
				}
			],
			"devdoc": {
				"kind": "dev",
				"methods": {},
				"version": 1
			},
			"evm": {
				"assembly": "    /* \"Ethereum/ENS/contracts/ENSHandler.sol\":434:1017  contract ENSHandler {... */\n  mstore(0x40, 0x80)\n    /* \"Ethereum/ENS/contracts/ENSHandler.sol\":536:578  0x00000000000C2E074eC69A0dFb2997BA6C7d2e1e */\n  0x0c2e074ec69a0dfb2997ba6c7d2e1e\n    /* \"Ethereum/ENS/contracts/ENSHandler.sol\":507:580  ENS public ens = ENS(address(0x00000000000C2E074eC69A0dFb2997BA6C7d2e1e)) */\n  0x00\n  dup1\n  0x0100\n  exp\n  dup2\n  sload\n  dup2\n  0xffffffffffffffffffffffffffffffffffffffff\n  mul\n  not\n  and\n  swap1\n  dup4\n  0xffffffffffffffffffffffffffffffffffffffff\n  and\n  mul\n  or\n  swap1\n  sstore\n  pop\n    /* \"Ethereum/ENS/contracts/ENSHandler.sol\":636:678  0xE264d5bb84bA3b8061ADC38D3D76e6674aB91852 */\n  0xe264d5bb84ba3b8061adc38d3d76e6674ab91852\n    /* \"Ethereum/ENS/contracts/ENSHandler.sol\":586:680  ENSResolver public resolver = ENSResolver(address(0xE264d5bb84bA3b8061ADC38D3D76e6674aB91852)) */\n  0x01\n  exp(0x0100, 0x00)\n  dup2\n  sload\n  dup2\n  0xffffffffffffffffffffffffffffffffffffffff\n  mul\n  not\n  and\n  swap1\n  dup4\n  0xffffffffffffffffffffffffffffffffffffffff\n  and\n  mul\n  or\n  swap1\n  sstore\n  pop\n    /* \"Ethereum/ENS/contracts/ENSHandler.sol\":434:1017  contract ENSHandler {... */\n  callvalue\n  dup1\n  iszero\n  tag_1\n  jumpi\n  0x00\n  dup1\n  revert\ntag_1:\n  pop\n  dataSize(sub_0)\n  dup1\n  dataOffset(sub_0)\n  0x00\n  codecopy\n  0x00\n  return\nstop\n\nsub_0: assembly {\n        /* \"Ethereum/ENS/contracts/ENSHandler.sol\":434:1017  contract ENSHandler {... */\n      mstore(0x40, 0x80)\n      callvalue\n      dup1\n      iszero\n      tag_1\n      jumpi\n      0x00\n      dup1\n      revert\n    tag_1:\n      pop\n      jumpi(tag_2, lt(calldatasize, 0x04))\n      shr(0xe0, calldataload(0x00))\n      dup1\n      0x04f3bcec\n      eq\n      tag_3\n      jumpi\n      dup1\n      0x3f15457f\n      eq\n      tag_4\n      jumpi\n      dup1\n      0x8669b167\n      eq\n      tag_5\n      jumpi\n    tag_2:\n      0x00\n      dup1\n      revert\n        /* \"Ethereum/ENS/contracts/ENSHandler.sol\":586:680  ENSResolver public resolver = ENSResolver(address(0xE264d5bb84bA3b8061ADC38D3D76e6674aB91852)) */\n    tag_3:\n      tag_6\n      tag_7\n      jump\t// in\n    tag_6:\n      mload(0x40)\n      tag_8\n      swap2\n      swap1\n      tag_9\n      jump\t// in\n    tag_8:\n      mload(0x40)\n      dup1\n      swap2\n      sub\n      swap1\n      return\n        /* \"Ethereum/ENS/contracts/ENSHandler.sol\":507:580  ENS public ens = ENS(address(0x00000000000C2E074eC69A0dFb2997BA6C7d2e1e)) */\n    tag_4:\n      tag_10\n      tag_11\n      jump\t// in\n    tag_10:\n      mload(0x40)\n      tag_12\n      swap2\n      swap1\n      tag_13\n      jump\t// in\n    tag_12:\n      mload(0x40)\n      dup1\n      swap2\n      sub\n      swap1\n      return\n        /* \"Ethereum/ENS/contracts/ENSHandler.sol\":687:1015  function setSubNode(bytes32 _rootNode, address _target, bytes32 _label, bytes32 _subNodeHash) external {... */\n    tag_5:\n      tag_14\n      0x04\n      dup1\n      calldatasize\n      sub\n      dup2\n      add\n      swap1\n      tag_15\n      swap2\n      swap1\n      tag_16\n      jump\t// in\n    tag_15:\n      tag_17\n      jump\t// in\n    tag_14:\n      stop\n        /* \"Ethereum/ENS/contracts/ENSHandler.sol\":586:680  ENSResolver public resolver = ENSResolver(address(0xE264d5bb84bA3b8061ADC38D3D76e6674aB91852)) */\n    tag_7:\n      0x01\n      0x00\n      swap1\n      sload\n      swap1\n      0x0100\n      exp\n      swap1\n      div\n      0xffffffffffffffffffffffffffffffffffffffff\n      and\n      dup2\n      jump\t// out\n        /* \"Ethereum/ENS/contracts/ENSHandler.sol\":507:580  ENS public ens = ENS(address(0x00000000000C2E074eC69A0dFb2997BA6C7d2e1e)) */\n    tag_11:\n      0x00\n      dup1\n      sload\n      swap1\n      0x0100\n      exp\n      swap1\n      div\n      0xffffffffffffffffffffffffffffffffffffffff\n      and\n      dup2\n      jump\t// out\n        /* \"Ethereum/ENS/contracts/ENSHandler.sol\":687:1015  function setSubNode(bytes32 _rootNode, address _target, bytes32 _label, bytes32 _subNodeHash) external {... */\n    tag_17:\n        /* \"Ethereum/ENS/contracts/ENSHandler.sol\":800:803  ens */\n      0x00\n      dup1\n      sload\n      swap1\n      0x0100\n      exp\n      swap1\n      div\n      0xffffffffffffffffffffffffffffffffffffffff\n      and\n        /* \"Ethereum/ENS/contracts/ENSHandler.sol\":800:820  ens.setSubnodeRecord */\n      0xffffffffffffffffffffffffffffffffffffffff\n      and\n      0x5ef2c7f0\n        /* \"Ethereum/ENS/contracts/ENSHandler.sol\":821:830  _rootNode */\n      dup6\n        /* \"Ethereum/ENS/contracts/ENSHandler.sol\":832:838  _label */\n      dup5\n        /* \"Ethereum/ENS/contracts/ENSHandler.sol\":848:852  this */\n      address\n        /* \"Ethereum/ENS/contracts/ENSHandler.sol\":863:871  resolver */\n      0x01\n      0x00\n      swap1\n      sload\n      swap1\n      0x0100\n      exp\n      swap1\n      div\n      0xffffffffffffffffffffffffffffffffffffffff\n      and\n        /* \"Ethereum/ENS/contracts/ENSHandler.sol\":874:875  0 */\n      0x00\n        /* \"Ethereum/ENS/contracts/ENSHandler.sol\":800:876  ens.setSubnodeRecord(_rootNode, _label, address(this), address(resolver), 0) */\n      mload(0x40)\n      dup7\n      0xffffffff\n      and\n      0xe0\n      shl\n      dup2\n      mstore\n      0x04\n      add\n      tag_19\n      swap6\n      swap5\n      swap4\n      swap3\n      swap2\n      swap1\n      tag_20\n      jump\t// in\n    tag_19:\n      0x00\n      mload(0x40)\n      dup1\n      dup4\n      sub\n      dup2\n      0x00\n      dup8\n      dup1\n      extcodesize\n      iszero\n      dup1\n      iszero\n      tag_21\n      jumpi\n      0x00\n      dup1\n      revert\n    tag_21:\n      pop\n      gas\n      call\n      iszero\n      dup1\n      iszero\n      tag_23\n      jumpi\n      returndatasize\n      0x00\n      dup1\n      returndatacopy\n      revert(0x00, returndatasize)\n    tag_23:\n      pop\n      pop\n      pop\n      pop\n        /* \"Ethereum/ENS/contracts/ENSHandler.sol\":886:894  resolver */\n      0x01\n      0x00\n      swap1\n      sload\n      swap1\n      0x0100\n      exp\n      swap1\n      div\n      0xffffffffffffffffffffffffffffffffffffffff\n      and\n        /* \"Ethereum/ENS/contracts/ENSHandler.sol\":886:902  resolver.setAddr */\n      0xffffffffffffffffffffffffffffffffffffffff\n      and\n      0xd5fa2b00\n        /* \"Ethereum/ENS/contracts/ENSHandler.sol\":903:915  _subNodeHash */\n      dup3\n        /* \"Ethereum/ENS/contracts/ENSHandler.sol\":917:924  _target */\n      dup6\n        /* \"Ethereum/ENS/contracts/ENSHandler.sol\":886:925  resolver.setAddr(_subNodeHash, _target) */\n      mload(0x40)\n      dup4\n      0xffffffff\n      and\n      0xe0\n      shl\n      dup2\n      mstore\n      0x04\n      add\n      tag_24\n      swap3\n      swap2\n      swap1\n      tag_25\n      jump\t// in\n    tag_24:\n      0x00\n      mload(0x40)\n      dup1\n      dup4\n      sub\n      dup2\n      0x00\n      dup8\n      dup1\n      extcodesize\n      iszero\n      dup1\n      iszero\n      tag_26\n      jumpi\n      0x00\n      dup1\n      revert\n    tag_26:\n      pop\n      gas\n      call\n      iszero\n      dup1\n      iszero\n      tag_28\n      jumpi\n      returndatasize\n      0x00\n      dup1\n      returndatacopy\n      revert(0x00, returndatasize)\n    tag_28:\n      pop\n      pop\n      pop\n      pop\n        /* \"Ethereum/ENS/contracts/ENSHandler.sol\":935:938  ens */\n      0x00\n      dup1\n      sload\n      swap1\n      0x0100\n      exp\n      swap1\n      div\n      0xffffffffffffffffffffffffffffffffffffffff\n      and\n        /* \"Ethereum/ENS/contracts/ENSHandler.sol\":935:947  ens.setOwner */\n      0xffffffffffffffffffffffffffffffffffffffff\n      and\n      0x5b0fc9c3\n        /* \"Ethereum/ENS/contracts/ENSHandler.sol\":948:960  _subNodeHash */\n      dup3\n        /* \"Ethereum/ENS/contracts/ENSHandler.sol\":962:969  _target */\n      dup6\n        /* \"Ethereum/ENS/contracts/ENSHandler.sol\":935:970  ens.setOwner(_subNodeHash, _target) */\n      mload(0x40)\n      dup4\n      0xffffffff\n      and\n      0xe0\n      shl\n      dup2\n      mstore\n      0x04\n      add\n      tag_29\n      swap3\n      swap2\n      swap1\n      tag_25\n      jump\t// in\n    tag_29:\n      0x00\n      mload(0x40)\n      dup1\n      dup4\n      sub\n      dup2\n      0x00\n      dup8\n      dup1\n      extcodesize\n      iszero\n      dup1\n      iszero\n      tag_30\n      jumpi\n      0x00\n      dup1\n      revert\n    tag_30:\n      pop\n      gas\n      call\n      iszero\n      dup1\n      iszero\n      tag_32\n      jumpi\n      returndatasize\n      0x00\n      dup1\n      returndatacopy\n      revert(0x00, returndatasize)\n    tag_32:\n      pop\n      pop\n      pop\n      pop\n        /* \"Ethereum/ENS/contracts/ENSHandler.sol\":985:1008  NewEns(_target, _label) */\n      0x7bf6af1c34b394f80f8bc92a067670a876dc2805b5bd2b83881ed04f0e14e239\n        /* \"Ethereum/ENS/contracts/ENSHandler.sol\":992:999  _target */\n      dup4\n        /* \"Ethereum/ENS/contracts/ENSHandler.sol\":1001:1007  _label */\n      dup4\n        /* \"Ethereum/ENS/contracts/ENSHandler.sol\":985:1008  NewEns(_target, _label) */\n      mload(0x40)\n      tag_33\n      swap3\n      swap2\n      swap1\n      tag_34\n      jump\t// in\n    tag_33:\n      mload(0x40)\n      dup1\n      swap2\n      sub\n      swap1\n      log1\n        /* \"Ethereum/ENS/contracts/ENSHandler.sol\":687:1015  function setSubNode(bytes32 _rootNode, address _target, bytes32 _label, bytes32 _subNodeHash) external {... */\n      pop\n      pop\n      pop\n      pop\n      jump\t// out\n        /* \"#utility.yul\":7:146   */\n    tag_36:\n        /* \"#utility.yul\":53:58   */\n      0x00\n        /* \"#utility.yul\":91:97   */\n      dup2\n        /* \"#utility.yul\":78:98   */\n      calldataload\n        /* \"#utility.yul\":69:98   */\n      swap1\n      pop\n        /* \"#utility.yul\":107:140   */\n      tag_38\n        /* \"#utility.yul\":134:139   */\n      dup2\n        /* \"#utility.yul\":107:140   */\n      tag_39\n      jump\t// in\n    tag_38:\n        /* \"#utility.yul\":7:146   */\n      swap3\n      swap2\n      pop\n      pop\n      jump\t// out\n        /* \"#utility.yul\":152:291   */\n    tag_40:\n        /* \"#utility.yul\":198:203   */\n      0x00\n        /* \"#utility.yul\":236:242   */\n      dup2\n        /* \"#utility.yul\":223:243   */\n      calldataload\n        /* \"#utility.yul\":214:243   */\n      swap1\n      pop\n        /* \"#utility.yul\":252:285   */\n      tag_42\n        /* \"#utility.yul\":279:284   */\n      dup2\n        /* \"#utility.yul\":252:285   */\n      tag_43\n      jump\t// in\n    tag_42:\n        /* \"#utility.yul\":152:291   */\n      swap3\n      swap2\n      pop\n      pop\n      jump\t// out\n        /* \"#utility.yul\":297:1062   */\n    tag_16:\n        /* \"#utility.yul\":383:389   */\n      0x00\n        /* \"#utility.yul\":391:397   */\n      dup1\n        /* \"#utility.yul\":399:405   */\n      0x00\n        /* \"#utility.yul\":407:413   */\n      dup1\n        /* \"#utility.yul\":456:459   */\n      0x80\n        /* \"#utility.yul\":444:453   */\n      dup6\n        /* \"#utility.yul\":435:442   */\n      dup8\n        /* \"#utility.yul\":431:454   */\n      sub\n        /* \"#utility.yul\":427:460   */\n      slt\n        /* \"#utility.yul\":424:544   */\n      iszero\n      tag_45\n      jumpi\n        /* \"#utility.yul\":463:542   */\n      tag_46\n      tag_47\n      jump\t// in\n    tag_46:\n        /* \"#utility.yul\":424:544   */\n    tag_45:\n        /* \"#utility.yul\":583:584   */\n      0x00\n        /* \"#utility.yul\":608:661   */\n      tag_48\n        /* \"#utility.yul\":653:660   */\n      dup8\n        /* \"#utility.yul\":644:650   */\n      dup3\n        /* \"#utility.yul\":633:642   */\n      dup9\n        /* \"#utility.yul\":629:651   */\n      add\n        /* \"#utility.yul\":608:661   */\n      tag_40\n      jump\t// in\n    tag_48:\n        /* \"#utility.yul\":598:661   */\n      swap5\n      pop\n        /* \"#utility.yul\":554:671   */\n      pop\n        /* \"#utility.yul\":710:712   */\n      0x20\n        /* \"#utility.yul\":736:789   */\n      tag_49\n        /* \"#utility.yul\":781:788   */\n      dup8\n        /* \"#utility.yul\":772:778   */\n      dup3\n        /* \"#utility.yul\":761:770   */\n      dup9\n        /* \"#utility.yul\":757:779   */\n      add\n        /* \"#utility.yul\":736:789   */\n      tag_36\n      jump\t// in\n    tag_49:\n        /* \"#utility.yul\":726:789   */\n      swap4\n      pop\n        /* \"#utility.yul\":681:799   */\n      pop\n        /* \"#utility.yul\":838:840   */\n      0x40\n        /* \"#utility.yul\":864:917   */\n      tag_50\n        /* \"#utility.yul\":909:916   */\n      dup8\n        /* \"#utility.yul\":900:906   */\n      dup3\n        /* \"#utility.yul\":889:898   */\n      dup9\n        /* \"#utility.yul\":885:907   */\n      add\n        /* \"#utility.yul\":864:917   */\n      tag_40\n      jump\t// in\n    tag_50:\n        /* \"#utility.yul\":854:917   */\n      swap3\n      pop\n        /* \"#utility.yul\":809:927   */\n      pop\n        /* \"#utility.yul\":966:968   */\n      0x60\n        /* \"#utility.yul\":992:1045   */\n      tag_51\n        /* \"#utility.yul\":1037:1044   */\n      dup8\n        /* \"#utility.yul\":1028:1034   */\n      dup3\n        /* \"#utility.yul\":1017:1026   */\n      dup9\n        /* \"#utility.yul\":1013:1035   */\n      add\n        /* \"#utility.yul\":992:1045   */\n      tag_40\n      jump\t// in\n    tag_51:\n        /* \"#utility.yul\":982:1045   */\n      swap2\n      pop\n        /* \"#utility.yul\":937:1055   */\n      pop\n        /* \"#utility.yul\":297:1062   */\n      swap3\n      swap6\n      swap2\n      swap5\n      pop\n      swap3\n      pop\n      jump\t// out\n        /* \"#utility.yul\":1068:1186   */\n    tag_52:\n        /* \"#utility.yul\":1155:1179   */\n      tag_54\n        /* \"#utility.yul\":1173:1178   */\n      dup2\n        /* \"#utility.yul\":1155:1179   */\n      tag_55\n      jump\t// in\n    tag_54:\n        /* \"#utility.yul\":1150:1153   */\n      dup3\n        /* \"#utility.yul\":1143:1180   */\n      mstore\n        /* \"#utility.yul\":1068:1186   */\n      pop\n      pop\n      jump\t// out\n        /* \"#utility.yul\":1192:1310   */\n    tag_56:\n        /* \"#utility.yul\":1279:1303   */\n      tag_58\n        /* \"#utility.yul\":1297:1302   */\n      dup2\n        /* \"#utility.yul\":1279:1303   */\n      tag_59\n      jump\t// in\n    tag_58:\n        /* \"#utility.yul\":1274:1277   */\n      dup3\n        /* \"#utility.yul\":1267:1304   */\n      mstore\n        /* \"#utility.yul\":1192:1310   */\n      pop\n      pop\n      jump\t// out\n        /* \"#utility.yul\":1316:1483   */\n    tag_60:\n        /* \"#utility.yul\":1421:1476   */\n      tag_62\n        /* \"#utility.yul\":1470:1475   */\n      dup2\n        /* \"#utility.yul\":1421:1476   */\n      tag_63\n      jump\t// in\n    tag_62:\n        /* \"#utility.yul\":1416:1419   */\n      dup3\n        /* \"#utility.yul\":1409:1477   */\n      mstore\n        /* \"#utility.yul\":1316:1483   */\n      pop\n      pop\n      jump\t// out\n        /* \"#utility.yul\":1489:1640   */\n    tag_64:\n        /* \"#utility.yul\":1586:1633   */\n      tag_66\n        /* \"#utility.yul\":1627:1632   */\n      dup2\n        /* \"#utility.yul\":1586:1633   */\n      tag_67\n      jump\t// in\n    tag_66:\n        /* \"#utility.yul\":1581:1584   */\n      dup3\n        /* \"#utility.yul\":1574:1634   */\n      mstore\n        /* \"#utility.yul\":1489:1640   */\n      pop\n      pop\n      jump\t// out\n        /* \"#utility.yul\":1646:1791   */\n    tag_68:\n        /* \"#utility.yul\":1740:1784   */\n      tag_70\n        /* \"#utility.yul\":1778:1783   */\n      dup2\n        /* \"#utility.yul\":1740:1784   */\n      tag_71\n      jump\t// in\n    tag_70:\n        /* \"#utility.yul\":1735:1738   */\n      dup3\n        /* \"#utility.yul\":1728:1785   */\n      mstore\n        /* \"#utility.yul\":1646:1791   */\n      pop\n      pop\n      jump\t// out\n        /* \"#utility.yul\":1797:2129   */\n    tag_34:\n        /* \"#utility.yul\":1918:1922   */\n      0x00\n        /* \"#utility.yul\":1956:1958   */\n      0x40\n        /* \"#utility.yul\":1945:1954   */\n      dup3\n        /* \"#utility.yul\":1941:1959   */\n      add\n        /* \"#utility.yul\":1933:1959   */\n      swap1\n      pop\n        /* \"#utility.yul\":1969:2040   */\n      tag_73\n        /* \"#utility.yul\":2037:2038   */\n      0x00\n        /* \"#utility.yul\":2026:2035   */\n      dup4\n        /* \"#utility.yul\":2022:2039   */\n      add\n        /* \"#utility.yul\":2013:2019   */\n      dup6\n        /* \"#utility.yul\":1969:2040   */\n      tag_52\n      jump\t// in\n    tag_73:\n        /* \"#utility.yul\":2050:2122   */\n      tag_74\n        /* \"#utility.yul\":2118:2120   */\n      0x20\n        /* \"#utility.yul\":2107:2116   */\n      dup4\n        /* \"#utility.yul\":2103:2121   */\n      add\n        /* \"#utility.yul\":2094:2100   */\n      dup5\n        /* \"#utility.yul\":2050:2122   */\n      tag_56\n      jump\t// in\n    tag_74:\n        /* \"#utility.yul\":1797:2129   */\n      swap4\n      swap3\n      pop\n      pop\n      pop\n      jump\t// out\n        /* \"#utility.yul\":2135:2467   */\n    tag_25:\n        /* \"#utility.yul\":2256:2260   */\n      0x00\n        /* \"#utility.yul\":2294:2296   */\n      0x40\n        /* \"#utility.yul\":2283:2292   */\n      dup3\n        /* \"#utility.yul\":2279:2297   */\n      add\n        /* \"#utility.yul\":2271:2297   */\n      swap1\n      pop\n        /* \"#utility.yul\":2307:2378   */\n      tag_76\n        /* \"#utility.yul\":2375:2376   */\n      0x00\n        /* \"#utility.yul\":2364:2373   */\n      dup4\n        /* \"#utility.yul\":2360:2377   */\n      add\n        /* \"#utility.yul\":2351:2357   */\n      dup6\n        /* \"#utility.yul\":2307:2378   */\n      tag_56\n      jump\t// in\n    tag_76:\n        /* \"#utility.yul\":2388:2460   */\n      tag_77\n        /* \"#utility.yul\":2456:2458   */\n      0x20\n        /* \"#utility.yul\":2445:2454   */\n      dup4\n        /* \"#utility.yul\":2441:2459   */\n      add\n        /* \"#utility.yul\":2432:2438   */\n      dup5\n        /* \"#utility.yul\":2388:2460   */\n      tag_52\n      jump\t// in\n    tag_77:\n        /* \"#utility.yul\":2135:2467   */\n      swap4\n      swap3\n      pop\n      pop\n      pop\n      jump\t// out\n        /* \"#utility.yul\":2473:3151   */\n    tag_20:\n        /* \"#utility.yul\":2685:2689   */\n      0x00\n        /* \"#utility.yul\":2723:2726   */\n      0xa0\n        /* \"#utility.yul\":2712:2721   */\n      dup3\n        /* \"#utility.yul\":2708:2727   */\n      add\n        /* \"#utility.yul\":2700:2727   */\n      swap1\n      pop\n        /* \"#utility.yul\":2737:2808   */\n      tag_79\n        /* \"#utility.yul\":2805:2806   */\n      0x00\n        /* \"#utility.yul\":2794:2803   */\n      dup4\n        /* \"#utility.yul\":2790:2807   */\n      add\n        /* \"#utility.yul\":2781:2787   */\n      dup9\n        /* \"#utility.yul\":2737:2808   */\n      tag_56\n      jump\t// in\n    tag_79:\n        /* \"#utility.yul\":2818:2890   */\n      tag_80\n        /* \"#utility.yul\":2886:2888   */\n      0x20\n        /* \"#utility.yul\":2875:2884   */\n      dup4\n        /* \"#utility.yul\":2871:2889   */\n      add\n        /* \"#utility.yul\":2862:2868   */\n      dup8\n        /* \"#utility.yul\":2818:2890   */\n      tag_56\n      jump\t// in\n    tag_80:\n        /* \"#utility.yul\":2900:2972   */\n      tag_81\n        /* \"#utility.yul\":2968:2970   */\n      0x40\n        /* \"#utility.yul\":2957:2966   */\n      dup4\n        /* \"#utility.yul\":2953:2971   */\n      add\n        /* \"#utility.yul\":2944:2950   */\n      dup7\n        /* \"#utility.yul\":2900:2972   */\n      tag_52\n      jump\t// in\n    tag_81:\n        /* \"#utility.yul\":2982:3054   */\n      tag_82\n        /* \"#utility.yul\":3050:3052   */\n      0x60\n        /* \"#utility.yul\":3039:3048   */\n      dup4\n        /* \"#utility.yul\":3035:3053   */\n      add\n        /* \"#utility.yul\":3026:3032   */\n      dup6\n        /* \"#utility.yul\":2982:3054   */\n      tag_52\n      jump\t// in\n    tag_82:\n        /* \"#utility.yul\":3064:3144   */\n      tag_83\n        /* \"#utility.yul\":3139:3142   */\n      0x80\n        /* \"#utility.yul\":3128:3137   */\n      dup4\n        /* \"#utility.yul\":3124:3143   */\n      add\n        /* \"#utility.yul\":3115:3121   */\n      dup5\n        /* \"#utility.yul\":3064:3144   */\n      tag_68\n      jump\t// in\n    tag_83:\n        /* \"#utility.yul\":2473:3151   */\n      swap7\n      swap6\n      pop\n      pop\n      pop\n      pop\n      pop\n      pop\n      jump\t// out\n        /* \"#utility.yul\":3157:3415   */\n    tag_9:\n        /* \"#utility.yul\":3268:3272   */\n      0x00\n        /* \"#utility.yul\":3306:3308   */\n      0x20\n        /* \"#utility.yul\":3295:3304   */\n      dup3\n        /* \"#utility.yul\":3291:3309   */\n      add\n        /* \"#utility.yul\":3283:3309   */\n      swap1\n      pop\n        /* \"#utility.yul\":3319:3408   */\n      tag_85\n        /* \"#utility.yul\":3405:3406   */\n      0x00\n        /* \"#utility.yul\":3394:3403   */\n      dup4\n        /* \"#utility.yul\":3390:3407   */\n      add\n        /* \"#utility.yul\":3381:3387   */\n      dup5\n        /* \"#utility.yul\":3319:3408   */\n      tag_60\n      jump\t// in\n    tag_85:\n        /* \"#utility.yul\":3157:3415   */\n      swap3\n      swap2\n      pop\n      pop\n      jump\t// out\n        /* \"#utility.yul\":3421:3663   */\n    tag_13:\n        /* \"#utility.yul\":3524:3528   */\n      0x00\n        /* \"#utility.yul\":3562:3564   */\n      0x20\n        /* \"#utility.yul\":3551:3560   */\n      dup3\n        /* \"#utility.yul\":3547:3565   */\n      add\n        /* \"#utility.yul\":3539:3565   */\n      swap1\n      pop\n        /* \"#utility.yul\":3575:3656   */\n      tag_87\n        /* \"#utility.yul\":3653:3654   */\n      0x00\n        /* \"#utility.yul\":3642:3651   */\n      dup4\n        /* \"#utility.yul\":3638:3655   */\n      add\n        /* \"#utility.yul\":3629:3635   */\n      dup5\n        /* \"#utility.yul\":3575:3656   */\n      tag_64\n      jump\t// in\n    tag_87:\n        /* \"#utility.yul\":3421:3663   */\n      swap3\n      swap2\n      pop\n      pop\n      jump\t// out\n        /* \"#utility.yul\":3750:3846   */\n    tag_55:\n        /* \"#utility.yul\":3787:3794   */\n      0x00\n        /* \"#utility.yul\":3816:3840   */\n      tag_91\n        /* \"#utility.yul\":3834:3839   */\n      dup3\n        /* \"#utility.yul\":3816:3840   */\n      tag_92\n      jump\t// in\n    tag_91:\n        /* \"#utility.yul\":3805:3840   */\n      swap1\n      pop\n        /* \"#utility.yul\":3750:3846   */\n      swap2\n      swap1\n      pop\n      jump\t// out\n        /* \"#utility.yul\":3852:3929   */\n    tag_59:\n        /* \"#utility.yul\":3889:3896   */\n      0x00\n        /* \"#utility.yul\":3918:3923   */\n      dup2\n        /* \"#utility.yul\":3907:3923   */\n      swap1\n      pop\n        /* \"#utility.yul\":3852:3929   */\n      swap2\n      swap1\n      pop\n      jump\t// out\n        /* \"#utility.yul\":3935:4061   */\n    tag_92:\n        /* \"#utility.yul\":3972:3979   */\n      0x00\n        /* \"#utility.yul\":4012:4054   */\n      0xffffffffffffffffffffffffffffffffffffffff\n        /* \"#utility.yul\":4005:4010   */\n      dup3\n        /* \"#utility.yul\":4001:4055   */\n      and\n        /* \"#utility.yul\":3990:4055   */\n      swap1\n      pop\n        /* \"#utility.yul\":3935:4061   */\n      swap2\n      swap1\n      pop\n      jump\t// out\n        /* \"#utility.yul\":4067:4168   */\n    tag_95:\n        /* \"#utility.yul\":4103:4110   */\n      0x00\n        /* \"#utility.yul\":4143:4161   */\n      0xffffffffffffffff\n        /* \"#utility.yul\":4136:4141   */\n      dup3\n        /* \"#utility.yul\":4132:4162   */\n      and\n        /* \"#utility.yul\":4121:4162   */\n      swap1\n      pop\n        /* \"#utility.yul\":4067:4168   */\n      swap2\n      swap1\n      pop\n      jump\t// out\n        /* \"#utility.yul\":4174:4318   */\n    tag_63:\n        /* \"#utility.yul\":4242:4251   */\n      0x00\n        /* \"#utility.yul\":4275:4312   */\n      tag_98\n        /* \"#utility.yul\":4306:4311   */\n      dup3\n        /* \"#utility.yul\":4275:4312   */\n      tag_99\n      jump\t// in\n    tag_98:\n        /* \"#utility.yul\":4262:4312   */\n      swap1\n      pop\n        /* \"#utility.yul\":4174:4318   */\n      swap2\n      swap1\n      pop\n      jump\t// out\n        /* \"#utility.yul\":4324:4460   */\n    tag_67:\n        /* \"#utility.yul\":4384:4393   */\n      0x00\n        /* \"#utility.yul\":4417:4454   */\n      tag_101\n        /* \"#utility.yul\":4448:4453   */\n      dup3\n        /* \"#utility.yul\":4417:4454   */\n      tag_99\n      jump\t// in\n    tag_101:\n        /* \"#utility.yul\":4404:4454   */\n      swap1\n      pop\n        /* \"#utility.yul\":4324:4460   */\n      swap2\n      swap1\n      pop\n      jump\t// out\n        /* \"#utility.yul\":4466:4585   */\n    tag_71:\n        /* \"#utility.yul\":4523:4532   */\n      0x00\n        /* \"#utility.yul\":4556:4579   */\n      tag_103\n        /* \"#utility.yul\":4573:4578   */\n      dup3\n        /* \"#utility.yul\":4556:4579   */\n      tag_95\n      jump\t// in\n    tag_103:\n        /* \"#utility.yul\":4543:4579   */\n      swap1\n      pop\n        /* \"#utility.yul\":4466:4585   */\n      swap2\n      swap1\n      pop\n      jump\t// out\n        /* \"#utility.yul\":4591:4717   */\n    tag_99:\n        /* \"#utility.yul\":4641:4650   */\n      0x00\n        /* \"#utility.yul\":4674:4711   */\n      tag_105\n        /* \"#utility.yul\":4705:4710   */\n      dup3\n        /* \"#utility.yul\":4674:4711   */\n      tag_106\n      jump\t// in\n    tag_105:\n        /* \"#utility.yul\":4661:4711   */\n      swap1\n      pop\n        /* \"#utility.yul\":4591:4717   */\n      swap2\n      swap1\n      pop\n      jump\t// out\n        /* \"#utility.yul\":4723:4836   */\n    tag_106:\n        /* \"#utility.yul\":4773:4782   */\n      0x00\n        /* \"#utility.yul\":4806:4830   */\n      tag_108\n        /* \"#utility.yul\":4824:4829   */\n      dup3\n        /* \"#utility.yul\":4806:4830   */\n      tag_92\n      jump\t// in\n    tag_108:\n        /* \"#utility.yul\":4793:4830   */\n      swap1\n      pop\n        /* \"#utility.yul\":4723:4836   */\n      swap2\n      swap1\n      pop\n      jump\t// out\n        /* \"#utility.yul\":4965:5082   */\n    tag_47:\n        /* \"#utility.yul\":5074:5075   */\n      0x00\n        /* \"#utility.yul\":5071:5072   */\n      dup1\n        /* \"#utility.yul\":5064:5076   */\n      revert\n        /* \"#utility.yul\":5088:5210   */\n    tag_39:\n        /* \"#utility.yul\":5161:5185   */\n      tag_113\n        /* \"#utility.yul\":5179:5184   */\n      dup2\n        /* \"#utility.yul\":5161:5185   */\n      tag_55\n      jump\t// in\n    tag_113:\n        /* \"#utility.yul\":5154:5159   */\n      dup2\n        /* \"#utility.yul\":5151:5186   */\n      eq\n        /* \"#utility.yul\":5141:5204   */\n      tag_114\n      jumpi\n        /* \"#utility.yul\":5200:5201   */\n      0x00\n        /* \"#utility.yul\":5197:5198   */\n      dup1\n        /* \"#utility.yul\":5190:5202   */\n      revert\n        /* \"#utility.yul\":5141:5204   */\n    tag_114:\n        /* \"#utility.yul\":5088:5210   */\n      pop\n      jump\t// out\n        /* \"#utility.yul\":5216:5338   */\n    tag_43:\n        /* \"#utility.yul\":5289:5313   */\n      tag_116\n        /* \"#utility.yul\":5307:5312   */\n      dup2\n        /* \"#utility.yul\":5289:5313   */\n      tag_59\n      jump\t// in\n    tag_116:\n        /* \"#utility.yul\":5282:5287   */\n      dup2\n        /* \"#utility.yul\":5279:5314   */\n      eq\n        /* \"#utility.yul\":5269:5332   */\n      tag_117\n      jumpi\n        /* \"#utility.yul\":5328:5329   */\n      0x00\n        /* \"#utility.yul\":5325:5326   */\n      dup1\n        /* \"#utility.yul\":5318:5330   */\n      revert\n        /* \"#utility.yul\":5269:5332   */\n    tag_117:\n        /* \"#utility.yul\":5216:5338   */\n      pop\n      jump\t// out\n\n    auxdata: 0xa264697066735822122060a5ee104423062fc75130ece086c1d6b39a60970072d9168fbe4d65c1a5ceb064736f6c63430008070033\n}\n",
				"bytecode": {
					"linkReferences": {},
					"object": "60806040526e0c2e074ec69a0dfb2997ba6c7d2e1e6000806101000a81548173ffffffffffffffffffffffffffffffffffffffff021916908373ffffffffffffffffffffffffffffffffffffffff16021790555073e264d5bb84ba3b8061adc38d3d76e6674ab91852600160006101000a81548173ffffffffffffffffffffffffffffffffffffffff021916908373ffffffffffffffffffffffffffffffffffffffff1602179055503480156100b457600080fd5b506105c3806100c46000396000f3fe608060405234801561001057600080fd5b50600436106100415760003560e01c806304f3bcec146100465780633f15457f146100645780638669b16714610082575b600080fd5b61004e61009e565b60405161005b919061047a565b60405180910390f35b61006c6100c4565b6040516100799190610495565b60405180910390f35b61009c60048036038101906100979190610323565b6100e8565b005b600160009054906101000a900473ffffffffffffffffffffffffffffffffffffffff1681565b60008054906101000a900473ffffffffffffffffffffffffffffffffffffffff1681565b60008054906101000a900473ffffffffffffffffffffffffffffffffffffffff1673ffffffffffffffffffffffffffffffffffffffff16635ef2c7f0858430600160009054906101000a900473ffffffffffffffffffffffffffffffffffffffff1660006040518663ffffffff1660e01b815260040161016c959493929190610427565b600060405180830381600087803b15801561018657600080fd5b505af115801561019a573d6000803e3d6000fd5b50505050600160009054906101000a900473ffffffffffffffffffffffffffffffffffffffff1673ffffffffffffffffffffffffffffffffffffffff1663d5fa2b0082856040518363ffffffff1660e01b81526004016101fb9291906103fe565b600060405180830381600087803b15801561021557600080fd5b505af1158015610229573d6000803e3d6000fd5b5050505060008054906101000a900473ffffffffffffffffffffffffffffffffffffffff1673ffffffffffffffffffffffffffffffffffffffff16635b0fc9c382856040518363ffffffff1660e01b81526004016102889291906103fe565b600060405180830381600087803b1580156102a257600080fd5b505af11580156102b6573d6000803e3d6000fd5b505050507f7bf6af1c34b394f80f8bc92a067670a876dc2805b5bd2b83881ed04f0e14e23983836040516102eb9291906103d5565b60405180910390a150505050565b6000813590506103088161055f565b92915050565b60008135905061031d81610576565b92915050565b6000806000806080858703121561033d5761033c61055a565b5b600061034b8782880161030e565b945050602061035c878288016102f9565b935050604061036d8782880161030e565b925050606061037e8782880161030e565b91505092959194509250565b610393816104b0565b82525050565b6103a2816104c2565b82525050565b6103b181610500565b82525050565b6103c081610512565b82525050565b6103cf81610524565b82525050565b60006040820190506103ea600083018561038a565b6103f76020830184610399565b9392505050565b60006040820190506104136000830185610399565b610420602083018461038a565b9392505050565b600060a08201905061043c6000830188610399565b6104496020830187610399565b610456604083018661038a565b610463606083018561038a565b61047060808301846103c6565b9695505050505050565b600060208201905061048f60008301846103a8565b92915050565b60006020820190506104aa60008301846103b7565b92915050565b60006104bb826104cc565b9050919050565b6000819050919050565b600073ffffffffffffffffffffffffffffffffffffffff82169050919050565b600067ffffffffffffffff82169050919050565b600061050b82610536565b9050919050565b600061051d82610536565b9050919050565b600061052f826104ec565b9050919050565b600061054182610548565b9050919050565b6000610553826104cc565b9050919050565b600080fd5b610568816104b0565b811461057357600080fd5b50565b61057f816104c2565b811461058a57600080fd5b5056fea264697066735822122060a5ee104423062fc75130ece086c1d6b39a60970072d9168fbe4d65c1a5ceb064736f6c63430008070033",
					"opcodes": "PUSH1 0x80 PUSH1 0x40 MSTORE PUSH15 0xC2E074EC69A0DFB2997BA6C7D2E1E PUSH1 0x0 DUP1 PUSH2 0x100 EXP DUP2 SLOAD DUP2 PUSH20 0xFFFFFFFFFFFFFFFFFFFFFFFFFFFFFFFFFFFFFFFF MUL NOT AND SWAP1 DUP4 PUSH20 0xFFFFFFFFFFFFFFFFFFFFFFFFFFFFFFFFFFFFFFFF AND MUL OR SWAP1 SSTORE POP PUSH20 0xE264D5BB84BA3B8061ADC38D3D76E6674AB91852 PUSH1 0x1 PUSH1 0x0 PUSH2 0x100 EXP DUP2 SLOAD DUP2 PUSH20 0xFFFFFFFFFFFFFFFFFFFFFFFFFFFFFFFFFFFFFFFF MUL NOT AND SWAP1 DUP4 PUSH20 0xFFFFFFFFFFFFFFFFFFFFFFFFFFFFFFFFFFFFFFFF AND MUL OR SWAP1 SSTORE POP CALLVALUE DUP1 ISZERO PUSH2 0xB4 JUMPI PUSH1 0x0 DUP1 REVERT JUMPDEST POP PUSH2 0x5C3 DUP1 PUSH2 0xC4 PUSH1 0x0 CODECOPY PUSH1 0x0 RETURN INVALID PUSH1 0x80 PUSH1 0x40 MSTORE CALLVALUE DUP1 ISZERO PUSH2 0x10 JUMPI PUSH1 0x0 DUP1 REVERT JUMPDEST POP PUSH1 0x4 CALLDATASIZE LT PUSH2 0x41 JUMPI PUSH1 0x0 CALLDATALOAD PUSH1 0xE0 SHR DUP1 PUSH4 0x4F3BCEC EQ PUSH2 0x46 JUMPI DUP1 PUSH4 0x3F15457F EQ PUSH2 0x64 JUMPI DUP1 PUSH4 0x8669B167 EQ PUSH2 0x82 JUMPI JUMPDEST PUSH1 0x0 DUP1 REVERT JUMPDEST PUSH2 0x4E PUSH2 0x9E JUMP JUMPDEST PUSH1 0x40 MLOAD PUSH2 0x5B SWAP2 SWAP1 PUSH2 0x47A JUMP JUMPDEST PUSH1 0x40 MLOAD DUP1 SWAP2 SUB SWAP1 RETURN JUMPDEST PUSH2 0x6C PUSH2 0xC4 JUMP JUMPDEST PUSH1 0x40 MLOAD PUSH2 0x79 SWAP2 SWAP1 PUSH2 0x495 JUMP JUMPDEST PUSH1 0x40 MLOAD DUP1 SWAP2 SUB SWAP1 RETURN JUMPDEST PUSH2 0x9C PUSH1 0x4 DUP1 CALLDATASIZE SUB DUP2 ADD SWAP1 PUSH2 0x97 SWAP2 SWAP1 PUSH2 0x323 JUMP JUMPDEST PUSH2 0xE8 JUMP JUMPDEST STOP JUMPDEST PUSH1 0x1 PUSH1 0x0 SWAP1 SLOAD SWAP1 PUSH2 0x100 EXP SWAP1 DIV PUSH20 0xFFFFFFFFFFFFFFFFFFFFFFFFFFFFFFFFFFFFFFFF AND DUP2 JUMP JUMPDEST PUSH1 0x0 DUP1 SLOAD SWAP1 PUSH2 0x100 EXP SWAP1 DIV PUSH20 0xFFFFFFFFFFFFFFFFFFFFFFFFFFFFFFFFFFFFFFFF AND DUP2 JUMP JUMPDEST PUSH1 0x0 DUP1 SLOAD SWAP1 PUSH2 0x100 EXP SWAP1 DIV PUSH20 0xFFFFFFFFFFFFFFFFFFFFFFFFFFFFFFFFFFFFFFFF AND PUSH20 0xFFFFFFFFFFFFFFFFFFFFFFFFFFFFFFFFFFFFFFFF AND PUSH4 0x5EF2C7F0 DUP6 DUP5 ADDRESS PUSH1 0x1 PUSH1 0x0 SWAP1 SLOAD SWAP1 PUSH2 0x100 EXP SWAP1 DIV PUSH20 0xFFFFFFFFFFFFFFFFFFFFFFFFFFFFFFFFFFFFFFFF AND PUSH1 0x0 PUSH1 0x40 MLOAD DUP7 PUSH4 0xFFFFFFFF AND PUSH1 0xE0 SHL DUP2 MSTORE PUSH1 0x4 ADD PUSH2 0x16C SWAP6 SWAP5 SWAP4 SWAP3 SWAP2 SWAP1 PUSH2 0x427 JUMP JUMPDEST PUSH1 0x0 PUSH1 0x40 MLOAD DUP1 DUP4 SUB DUP2 PUSH1 0x0 DUP8 DUP1 EXTCODESIZE ISZERO DUP1 ISZERO PUSH2 0x186 JUMPI PUSH1 0x0 DUP1 REVERT JUMPDEST POP GAS CALL ISZERO DUP1 ISZERO PUSH2 0x19A JUMPI RETURNDATASIZE PUSH1 0x0 DUP1 RETURNDATACOPY RETURNDATASIZE PUSH1 0x0 REVERT JUMPDEST POP POP POP POP PUSH1 0x1 PUSH1 0x0 SWAP1 SLOAD SWAP1 PUSH2 0x100 EXP SWAP1 DIV PUSH20 0xFFFFFFFFFFFFFFFFFFFFFFFFFFFFFFFFFFFFFFFF AND PUSH20 0xFFFFFFFFFFFFFFFFFFFFFFFFFFFFFFFFFFFFFFFF AND PUSH4 0xD5FA2B00 DUP3 DUP6 PUSH1 0x40 MLOAD DUP4 PUSH4 0xFFFFFFFF AND PUSH1 0xE0 SHL DUP2 MSTORE PUSH1 0x4 ADD PUSH2 0x1FB SWAP3 SWAP2 SWAP1 PUSH2 0x3FE JUMP JUMPDEST PUSH1 0x0 PUSH1 0x40 MLOAD DUP1 DUP4 SUB DUP2 PUSH1 0x0 DUP8 DUP1 EXTCODESIZE ISZERO DUP1 ISZERO PUSH2 0x215 JUMPI PUSH1 0x0 DUP1 REVERT JUMPDEST POP GAS CALL ISZERO DUP1 ISZERO PUSH2 0x229 JUMPI RETURNDATASIZE PUSH1 0x0 DUP1 RETURNDATACOPY RETURNDATASIZE PUSH1 0x0 REVERT JUMPDEST POP POP POP POP PUSH1 0x0 DUP1 SLOAD SWAP1 PUSH2 0x100 EXP SWAP1 DIV PUSH20 0xFFFFFFFFFFFFFFFFFFFFFFFFFFFFFFFFFFFFFFFF AND PUSH20 0xFFFFFFFFFFFFFFFFFFFFFFFFFFFFFFFFFFFFFFFF AND PUSH4 0x5B0FC9C3 DUP3 DUP6 PUSH1 0x40 MLOAD DUP4 PUSH4 0xFFFFFFFF AND PUSH1 0xE0 SHL DUP2 MSTORE PUSH1 0x4 ADD PUSH2 0x288 SWAP3 SWAP2 SWAP1 PUSH2 0x3FE JUMP JUMPDEST PUSH1 0x0 PUSH1 0x40 MLOAD DUP1 DUP4 SUB DUP2 PUSH1 0x0 DUP8 DUP1 EXTCODESIZE ISZERO DUP1 ISZERO PUSH2 0x2A2 JUMPI PUSH1 0x0 DUP1 REVERT JUMPDEST POP GAS CALL ISZERO DUP1 ISZERO PUSH2 0x2B6 JUMPI RETURNDATASIZE PUSH1 0x0 DUP1 RETURNDATACOPY RETURNDATASIZE PUSH1 0x0 REVERT JUMPDEST POP POP POP POP PUSH32 0x7BF6AF1C34B394F80F8BC92A067670A876DC2805B5BD2B83881ED04F0E14E239 DUP4 DUP4 PUSH1 0x40 MLOAD PUSH2 0x2EB SWAP3 SWAP2 SWAP1 PUSH2 0x3D5 JUMP JUMPDEST PUSH1 0x40 MLOAD DUP1 SWAP2 SUB SWAP1 LOG1 POP POP POP POP JUMP JUMPDEST PUSH1 0x0 DUP2 CALLDATALOAD SWAP1 POP PUSH2 0x308 DUP2 PUSH2 0x55F JUMP JUMPDEST SWAP3 SWAP2 POP POP JUMP JUMPDEST PUSH1 0x0 DUP2 CALLDATALOAD SWAP1 POP PUSH2 0x31D DUP2 PUSH2 0x576 JUMP JUMPDEST SWAP3 SWAP2 POP POP JUMP JUMPDEST PUSH1 0x0 DUP1 PUSH1 0x0 DUP1 PUSH1 0x80 DUP6 DUP8 SUB SLT ISZERO PUSH2 0x33D JUMPI PUSH2 0x33C PUSH2 0x55A JUMP JUMPDEST JUMPDEST PUSH1 0x0 PUSH2 0x34B DUP8 DUP3 DUP9 ADD PUSH2 0x30E JUMP JUMPDEST SWAP5 POP POP PUSH1 0x20 PUSH2 0x35C DUP8 DUP3 DUP9 ADD PUSH2 0x2F9 JUMP JUMPDEST SWAP4 POP POP PUSH1 0x40 PUSH2 0x36D DUP8 DUP3 DUP9 ADD PUSH2 0x30E JUMP JUMPDEST SWAP3 POP POP PUSH1 0x60 PUSH2 0x37E DUP8 DUP3 DUP9 ADD PUSH2 0x30E JUMP JUMPDEST SWAP2 POP POP SWAP3 SWAP6 SWAP2 SWAP5 POP SWAP3 POP JUMP JUMPDEST PUSH2 0x393 DUP2 PUSH2 0x4B0 JUMP JUMPDEST DUP3 MSTORE POP POP JUMP JUMPDEST PUSH2 0x3A2 DUP2 PUSH2 0x4C2 JUMP JUMPDEST DUP3 MSTORE POP POP JUMP JUMPDEST PUSH2 0x3B1 DUP2 PUSH2 0x500 JUMP JUMPDEST DUP3 MSTORE POP POP JUMP JUMPDEST PUSH2 0x3C0 DUP2 PUSH2 0x512 JUMP JUMPDEST DUP3 MSTORE POP POP JUMP JUMPDEST PUSH2 0x3CF DUP2 PUSH2 0x524 JUMP JUMPDEST DUP3 MSTORE POP POP JUMP JUMPDEST PUSH1 0x0 PUSH1 0x40 DUP3 ADD SWAP1 POP PUSH2 0x3EA PUSH1 0x0 DUP4 ADD DUP6 PUSH2 0x38A JUMP JUMPDEST PUSH2 0x3F7 PUSH1 0x20 DUP4 ADD DUP5 PUSH2 0x399 JUMP JUMPDEST SWAP4 SWAP3 POP POP POP JUMP JUMPDEST PUSH1 0x0 PUSH1 0x40 DUP3 ADD SWAP1 POP PUSH2 0x413 PUSH1 0x0 DUP4 ADD DUP6 PUSH2 0x399 JUMP JUMPDEST PUSH2 0x420 PUSH1 0x20 DUP4 ADD DUP5 PUSH2 0x38A JUMP JUMPDEST SWAP4 SWAP3 POP POP POP JUMP JUMPDEST PUSH1 0x0 PUSH1 0xA0 DUP3 ADD SWAP1 POP PUSH2 0x43C PUSH1 0x0 DUP4 ADD DUP9 PUSH2 0x399 JUMP JUMPDEST PUSH2 0x449 PUSH1 0x20 DUP4 ADD DUP8 PUSH2 0x399 JUMP JUMPDEST PUSH2 0x456 PUSH1 0x40 DUP4 ADD DUP7 PUSH2 0x38A JUMP JUMPDEST PUSH2 0x463 PUSH1 0x60 DUP4 ADD DUP6 PUSH2 0x38A JUMP JUMPDEST PUSH2 0x470 PUSH1 0x80 DUP4 ADD DUP5 PUSH2 0x3C6 JUMP JUMPDEST SWAP7 SWAP6 POP POP POP POP POP POP JUMP JUMPDEST PUSH1 0x0 PUSH1 0x20 DUP3 ADD SWAP1 POP PUSH2 0x48F PUSH1 0x0 DUP4 ADD DUP5 PUSH2 0x3A8 JUMP JUMPDEST SWAP3 SWAP2 POP POP JUMP JUMPDEST PUSH1 0x0 PUSH1 0x20 DUP3 ADD SWAP1 POP PUSH2 0x4AA PUSH1 0x0 DUP4 ADD DUP5 PUSH2 0x3B7 JUMP JUMPDEST SWAP3 SWAP2 POP POP JUMP JUMPDEST PUSH1 0x0 PUSH2 0x4BB DUP3 PUSH2 0x4CC JUMP JUMPDEST SWAP1 POP SWAP2 SWAP1 POP JUMP JUMPDEST PUSH1 0x0 DUP2 SWAP1 POP SWAP2 SWAP1 POP JUMP JUMPDEST PUSH1 0x0 PUSH20 0xFFFFFFFFFFFFFFFFFFFFFFFFFFFFFFFFFFFFFFFF DUP3 AND SWAP1 POP SWAP2 SWAP1 POP JUMP JUMPDEST PUSH1 0x0 PUSH8 0xFFFFFFFFFFFFFFFF DUP3 AND SWAP1 POP SWAP2 SWAP1 POP JUMP JUMPDEST PUSH1 0x0 PUSH2 0x50B DUP3 PUSH2 0x536 JUMP JUMPDEST SWAP1 POP SWAP2 SWAP1 POP JUMP JUMPDEST PUSH1 0x0 PUSH2 0x51D DUP3 PUSH2 0x536 JUMP JUMPDEST SWAP1 POP SWAP2 SWAP1 POP JUMP JUMPDEST PUSH1 0x0 PUSH2 0x52F DUP3 PUSH2 0x4EC JUMP JUMPDEST SWAP1 POP SWAP2 SWAP1 POP JUMP JUMPDEST PUSH1 0x0 PUSH2 0x541 DUP3 PUSH2 0x548 JUMP JUMPDEST SWAP1 POP SWAP2 SWAP1 POP JUMP JUMPDEST PUSH1 0x0 PUSH2 0x553 DUP3 PUSH2 0x4CC JUMP JUMPDEST SWAP1 POP SWAP2 SWAP1 POP JUMP JUMPDEST PUSH1 0x0 DUP1 REVERT JUMPDEST PUSH2 0x568 DUP2 PUSH2 0x4B0 JUMP JUMPDEST DUP2 EQ PUSH2 0x573 JUMPI PUSH1 0x0 DUP1 REVERT JUMPDEST POP JUMP JUMPDEST PUSH2 0x57F DUP2 PUSH2 0x4C2 JUMP JUMPDEST DUP2 EQ PUSH2 0x58A JUMPI PUSH1 0x0 DUP1 REVERT JUMPDEST POP JUMP INVALID LOG2 PUSH5 0x6970667358 0x22 SLT KECCAK256 PUSH1 0xA5 0xEE LT DIFFICULTY 0x23 MOD 0x2F 0xC7 MLOAD ADDRESS 0xEC 0xE0 DUP7 0xC1 0xD6 0xB3 SWAP11 PUSH1 0x97 STOP PUSH19 0xD9168FBE4D65C1A5CEB064736F6C6343000807 STOP CALLER "
				},
				"gasEstimates": {
					"creation": {
						"codeDepositCost": "295000",
						"executionCost": "48871",
						"totalCost": "343871"
					},
					"external": {
						"ens()": "2597",
						"resolver()": "2578",
						"setSubNode(bytes32,address,bytes32,bytes32)": "infinite"
					}
				},
				"methodIdentifiers": {
					"ens()": "3f15457f",
					"resolver()": "04f3bcec",
					"setSubNode(bytes32,address,bytes32,bytes32)": "8669b167"
				}
			},
			"storageLayout": {
				"storage": [
					{
						"astId": 56,
						"contract": "Ethereum/ENS/contracts/ENSHandler.sol:ENSHandler",
						"label": "ens",
						"offset": 0,
						"slot": "0",
						"type": "t_contract(ENS)33"
					},
					{
						"astId": 65,
						"contract": "Ethereum/ENS/contracts/ENSHandler.sol:ENSHandler",
						"label": "resolver",
						"offset": 0,
						"slot": "1",
						"type": "t_contract(ENSResolver)41"
					}
				],
				"types": {
					"t_contract(ENS)33": {
						"encoding": "inplace",
						"label": "contract ENS",
						"numberOfBytes": "20"
					},
					"t_contract(ENSResolver)41": {
						"encoding": "inplace",
						"label": "contract ENSResolver",
						"numberOfBytes": "20"
					}
				}
			},
			"userdoc": {
				"kind": "user",
				"methods": {},
				"version": 1
			}
		}
	}
}