{
	"Ethereum/ENS/contracts/ENSHandler.sol": {
		"ENSHadler": {
			"abi": [
				{
					"inputs": [
						{
							"internalType": "address",
							"name": "ENS",
							"type": "address"
						},
						{
							"internalType": "bytes32",
							"name": "node",
							"type": "bytes32"
						},
						{
							"internalType": "bytes32",
							"name": "label",
							"type": "bytes32"
						},
						{
							"internalType": "address",
							"name": "owner",
							"type": "address"
						},
						{
							"internalType": "address",
							"name": "resolver",
							"type": "address"
						},
						{
							"internalType": "uint64",
							"name": "ttl",
							"type": "uint64"
						}
					],
					"name": "setSubNode",
					"outputs": [],
					"stateMutability": "nonpayable",
					"type": "function"
				}
			],
			"devdoc": {
				"kind": "dev",
				"methods": {},
				"version": 1
			},
			"evm": {
				"assembly": "    /* \"Ethereum/ENS/contracts/ENSHandler.sol\":58:547  contract ENSHadler {... */\n  mstore(0x40, 0x80)\n  callvalue\n  dup1\n  iszero\n  tag_1\n  jumpi\n  0x00\n  dup1\n  revert\ntag_1:\n  pop\n  dataSize(sub_0)\n  dup1\n  dataOffset(sub_0)\n  0x00\n  codecopy\n  0x00\n  return\nstop\n\nsub_0: assembly {\n        /* \"Ethereum/ENS/contracts/ENSHandler.sol\":58:547  contract ENSHadler {... */\n      mstore(0x40, 0x80)\n      callvalue\n      dup1\n      iszero\n      tag_1\n      jumpi\n      0x00\n      dup1\n      revert\n    tag_1:\n      pop\n      jumpi(tag_2, lt(calldatasize, 0x04))\n      shr(0xe0, calldataload(0x00))\n      dup1\n      0xff8af7f4\n      eq\n      tag_3\n      jumpi\n    tag_2:\n      0x00\n      dup1\n      revert\n        /* \"Ethereum/ENS/contracts/ENSHandler.sol\":203:545  function setSubNode(address ENS, bytes32 node, bytes32 label, address owner, address resolver, uint64 ttl) external {... */\n    tag_3:\n      tag_4\n      0x04\n      dup1\n      calldatasize\n      sub\n      dup2\n      add\n      swap1\n      tag_5\n      swap2\n      swap1\n      tag_6\n      jump\t// in\n    tag_5:\n      tag_7\n      jump\t// in\n    tag_4:\n      stop\n    tag_7:\n        /* \"Ethereum/ENS/contracts/ENSHandler.sol\":325:337  bool success */\n      0x00\n        /* \"Ethereum/ENS/contracts/ENSHandler.sol\":343:346  ENS */\n      dup7\n        /* \"Ethereum/ENS/contracts/ENSHandler.sol\":343:351  ENS.call */\n      0xffffffffffffffffffffffffffffffffffffffff\n      and\n        /* \"Ethereum/ENS/contracts/ENSHandler.sol\":469:473  node */\n      dup7\n        /* \"Ethereum/ENS/contracts/ENSHandler.sol\":474:479  label */\n      dup7\n        /* \"Ethereum/ENS/contracts/ENSHandler.sol\":480:485  owner */\n      dup7\n        /* \"Ethereum/ENS/contracts/ENSHandler.sol\":486:494  resolver */\n      dup7\n        /* \"Ethereum/ENS/contracts/ENSHandler.sol\":495:498  ttl */\n      dup7\n        /* \"Ethereum/ENS/contracts/ENSHandler.sol\":352:499  abi.encodeWithSignature(\"setSubnodeRecord(bytes32 node, bytes32 label, address owner, address resolver, uint64 ttl)\",node,label,owner,resolver,ttl) */\n      add(0x24, mload(0x40))\n      tag_9\n      swap6\n      swap5\n      swap4\n      swap3\n      swap2\n      swap1\n      tag_10\n      jump\t// in\n    tag_9:\n      mload(0x40)\n      0x20\n      dup2\n      dup4\n      sub\n      sub\n      dup2\n      mstore\n      swap1\n      0x40\n      mstore\n      and(not(0xffffffffffffffffffffffffffffffffffffffffffffffffffffffff), 0x012bc98300000000000000000000000000000000000000000000000000000000)\n      0x20\n      dup3\n      add\n      dup1\n      mload\n      0xffffffffffffffffffffffffffffffffffffffffffffffffffffffff\n      dup4\n      dup2\n      dup4\n      and\n      or\n      dup4\n      mstore\n      pop\n      pop\n      pop\n      pop\n        /* \"Ethereum/ENS/contracts/ENSHandler.sol\":343:500  ENS.call(abi.encodeWithSignature(\"setSubnodeRecord(bytes32 node, bytes32 label, address owner, address resolver, uint64 ttl)\",node,label,owner,resolver,ttl)) */\n      mload(0x40)\n      tag_11\n      swap2\n      swap1\n      tag_12\n      jump\t// in\n    tag_11:\n      0x00\n      mload(0x40)\n      dup1\n      dup4\n      sub\n      dup2\n      0x00\n      dup7\n      gas\n      call\n      swap2\n      pop\n      pop\n      returndatasize\n      dup1\n      0x00\n      dup2\n      eq\n      tag_15\n      jumpi\n      mload(0x40)\n      swap2\n      pop\n      and(add(returndatasize, 0x3f), not(0x1f))\n      dup3\n      add\n      0x40\n      mstore\n      returndatasize\n      dup3\n      mstore\n      returndatasize\n      0x00\n      0x20\n      dup5\n      add\n      returndatacopy\n      jump(tag_14)\n    tag_15:\n      0x60\n      swap2\n      pop\n    tag_14:\n      pop\n        /* \"Ethereum/ENS/contracts/ENSHandler.sol\":324:500  (bool success, ) = ENS.call(abi.encodeWithSignature(\"setSubnodeRecord(bytes32 node, bytes32 label, address owner, address resolver, uint64 ttl)\",node,label,owner,resolver,ttl)) */\n      pop\n      swap1\n      pop\n        /* \"Ethereum/ENS/contracts/ENSHandler.sol\":517:524  success */\n      dup1\n        /* \"Ethereum/ENS/contracts/ENSHandler.sol\":509:540  require(success, \"call failed\") */\n      tag_16\n      jumpi\n      mload(0x40)\n      0x08c379a000000000000000000000000000000000000000000000000000000000\n      dup2\n      mstore\n      0x04\n      add\n      tag_17\n      swap1\n      tag_18\n      jump\t// in\n    tag_17:\n      mload(0x40)\n      dup1\n      swap2\n      sub\n      swap1\n      revert\n    tag_16:\n        /* \"Ethereum/ENS/contracts/ENSHandler.sol\":319:545  {... */\n      pop\n        /* \"Ethereum/ENS/contracts/ENSHandler.sol\":203:545  function setSubNode(address ENS, bytes32 node, bytes32 label, address owner, address resolver, uint64 ttl) external {... */\n      pop\n      pop\n      pop\n      pop\n      pop\n      pop\n      jump\t// out\n        /* \"#utility.yul\":7:146   */\n    tag_20:\n        /* \"#utility.yul\":53:58   */\n      0x00\n        /* \"#utility.yul\":91:97   */\n      dup2\n        /* \"#utility.yul\":78:98   */\n      calldataload\n        /* \"#utility.yul\":69:98   */\n      swap1\n      pop\n        /* \"#utility.yul\":107:140   */\n      tag_22\n        /* \"#utility.yul\":134:139   */\n      dup2\n        /* \"#utility.yul\":107:140   */\n      tag_23\n      jump\t// in\n    tag_22:\n        /* \"#utility.yul\":7:146   */\n      swap3\n      swap2\n      pop\n      pop\n      jump\t// out\n        /* \"#utility.yul\":152:291   */\n    tag_24:\n        /* \"#utility.yul\":198:203   */\n      0x00\n        /* \"#utility.yul\":236:242   */\n      dup2\n        /* \"#utility.yul\":223:243   */\n      calldataload\n        /* \"#utility.yul\":214:243   */\n      swap1\n      pop\n        /* \"#utility.yul\":252:285   */\n      tag_26\n        /* \"#utility.yul\":279:284   */\n      dup2\n        /* \"#utility.yul\":252:285   */\n      tag_27\n      jump\t// in\n    tag_26:\n        /* \"#utility.yul\":152:291   */\n      swap3\n      swap2\n      pop\n      pop\n      jump\t// out\n        /* \"#utility.yul\":297:434   */\n    tag_28:\n        /* \"#utility.yul\":342:347   */\n      0x00\n        /* \"#utility.yul\":380:386   */\n      dup2\n        /* \"#utility.yul\":367:387   */\n      calldataload\n        /* \"#utility.yul\":358:387   */\n      swap1\n      pop\n        /* \"#utility.yul\":396:428   */\n      tag_30\n        /* \"#utility.yul\":422:427   */\n      dup2\n        /* \"#utility.yul\":396:428   */\n      tag_31\n      jump\t// in\n    tag_30:\n        /* \"#utility.yul\":297:434   */\n      swap3\n      swap2\n      pop\n      pop\n      jump\t// out\n        /* \"#utility.yul\":440:1495   */\n    tag_6:\n        /* \"#utility.yul\":543:549   */\n      0x00\n        /* \"#utility.yul\":551:557   */\n      dup1\n        /* \"#utility.yul\":559:565   */\n      0x00\n        /* \"#utility.yul\":567:573   */\n      dup1\n        /* \"#utility.yul\":575:581   */\n      0x00\n        /* \"#utility.yul\":583:589   */\n      dup1\n        /* \"#utility.yul\":632:635   */\n      0xc0\n        /* \"#utility.yul\":620:629   */\n      dup8\n        /* \"#utility.yul\":611:618   */\n      dup10\n        /* \"#utility.yul\":607:630   */\n      sub\n        /* \"#utility.yul\":603:636   */\n      slt\n        /* \"#utility.yul\":600:720   */\n      iszero\n      tag_33\n      jumpi\n        /* \"#utility.yul\":639:718   */\n      tag_34\n      tag_35\n      jump\t// in\n    tag_34:\n        /* \"#utility.yul\":600:720   */\n    tag_33:\n        /* \"#utility.yul\":759:760   */\n      0x00\n        /* \"#utility.yul\":784:837   */\n      tag_36\n        /* \"#utility.yul\":829:836   */\n      dup10\n        /* \"#utility.yul\":820:826   */\n      dup3\n        /* \"#utility.yul\":809:818   */\n      dup11\n        /* \"#utility.yul\":805:827   */\n      add\n        /* \"#utility.yul\":784:837   */\n      tag_20\n      jump\t// in\n    tag_36:\n        /* \"#utility.yul\":774:837   */\n      swap7\n      pop\n        /* \"#utility.yul\":730:847   */\n      pop\n        /* \"#utility.yul\":886:888   */\n      0x20\n        /* \"#utility.yul\":912:965   */\n      tag_37\n        /* \"#utility.yul\":957:964   */\n      dup10\n        /* \"#utility.yul\":948:954   */\n      dup3\n        /* \"#utility.yul\":937:946   */\n      dup11\n        /* \"#utility.yul\":933:955   */\n      add\n        /* \"#utility.yul\":912:965   */\n      tag_24\n      jump\t// in\n    tag_37:\n        /* \"#utility.yul\":902:965   */\n      swap6\n      pop\n        /* \"#utility.yul\":857:975   */\n      pop\n        /* \"#utility.yul\":1014:1016   */\n      0x40\n        /* \"#utility.yul\":1040:1093   */\n      tag_38\n        /* \"#utility.yul\":1085:1092   */\n      dup10\n        /* \"#utility.yul\":1076:1082   */\n      dup3\n        /* \"#utility.yul\":1065:1074   */\n      dup11\n        /* \"#utility.yul\":1061:1083   */\n      add\n        /* \"#utility.yul\":1040:1093   */\n      tag_24\n      jump\t// in\n    tag_38:\n        /* \"#utility.yul\":1030:1093   */\n      swap5\n      pop\n        /* \"#utility.yul\":985:1103   */\n      pop\n        /* \"#utility.yul\":1142:1144   */\n      0x60\n        /* \"#utility.yul\":1168:1221   */\n      tag_39\n        /* \"#utility.yul\":1213:1220   */\n      dup10\n        /* \"#utility.yul\":1204:1210   */\n      dup3\n        /* \"#utility.yul\":1193:1202   */\n      dup11\n        /* \"#utility.yul\":1189:1211   */\n      add\n        /* \"#utility.yul\":1168:1221   */\n      tag_20\n      jump\t// in\n    tag_39:\n        /* \"#utility.yul\":1158:1221   */\n      swap4\n      pop\n        /* \"#utility.yul\":1113:1231   */\n      pop\n        /* \"#utility.yul\":1270:1273   */\n      0x80\n        /* \"#utility.yul\":1297:1350   */\n      tag_40\n        /* \"#utility.yul\":1342:1349   */\n      dup10\n        /* \"#utility.yul\":1333:1339   */\n      dup3\n        /* \"#utility.yul\":1322:1331   */\n      dup11\n        /* \"#utility.yul\":1318:1340   */\n      add\n        /* \"#utility.yul\":1297:1350   */\n      tag_20\n      jump\t// in\n    tag_40:\n        /* \"#utility.yul\":1287:1350   */\n      swap3\n      pop\n        /* \"#utility.yul\":1241:1360   */\n      pop\n        /* \"#utility.yul\":1399:1402   */\n      0xa0\n        /* \"#utility.yul\":1426:1478   */\n      tag_41\n        /* \"#utility.yul\":1470:1477   */\n      dup10\n        /* \"#utility.yul\":1461:1467   */\n      dup3\n        /* \"#utility.yul\":1450:1459   */\n      dup11\n        /* \"#utility.yul\":1446:1468   */\n      add\n        /* \"#utility.yul\":1426:1478   */\n      tag_28\n      jump\t// in\n    tag_41:\n        /* \"#utility.yul\":1416:1478   */\n      swap2\n      pop\n        /* \"#utility.yul\":1370:1488   */\n      pop\n        /* \"#utility.yul\":440:1495   */\n      swap3\n      swap6\n      pop\n      swap3\n      swap6\n      pop\n      swap3\n      swap6\n      jump\t// out\n        /* \"#utility.yul\":1501:1619   */\n    tag_42:\n        /* \"#utility.yul\":1588:1612   */\n      tag_44\n        /* \"#utility.yul\":1606:1611   */\n      dup2\n        /* \"#utility.yul\":1588:1612   */\n      tag_45\n      jump\t// in\n    tag_44:\n        /* \"#utility.yul\":1583:1586   */\n      dup3\n        /* \"#utility.yul\":1576:1613   */\n      mstore\n        /* \"#utility.yul\":1501:1619   */\n      pop\n      pop\n      jump\t// out\n        /* \"#utility.yul\":1625:1743   */\n    tag_46:\n        /* \"#utility.yul\":1712:1736   */\n      tag_48\n        /* \"#utility.yul\":1730:1735   */\n      dup2\n        /* \"#utility.yul\":1712:1736   */\n      tag_49\n      jump\t// in\n    tag_48:\n        /* \"#utility.yul\":1707:1710   */\n      dup3\n        /* \"#utility.yul\":1700:1737   */\n      mstore\n        /* \"#utility.yul\":1625:1743   */\n      pop\n      pop\n      jump\t// out\n        /* \"#utility.yul\":1749:2122   */\n    tag_50:\n        /* \"#utility.yul\":1853:1856   */\n      0x00\n        /* \"#utility.yul\":1881:1919   */\n      tag_52\n        /* \"#utility.yul\":1913:1918   */\n      dup3\n        /* \"#utility.yul\":1881:1919   */\n      tag_53\n      jump\t// in\n    tag_52:\n        /* \"#utility.yul\":1935:2023   */\n      tag_54\n        /* \"#utility.yul\":2016:2022   */\n      dup2\n        /* \"#utility.yul\":2011:2014   */\n      dup6\n        /* \"#utility.yul\":1935:2023   */\n      tag_55\n      jump\t// in\n    tag_54:\n        /* \"#utility.yul\":1928:2023   */\n      swap4\n      pop\n        /* \"#utility.yul\":2032:2084   */\n      tag_56\n        /* \"#utility.yul\":2077:2083   */\n      dup2\n        /* \"#utility.yul\":2072:2075   */\n      dup6\n        /* \"#utility.yul\":2065:2069   */\n      0x20\n        /* \"#utility.yul\":2058:2063   */\n      dup7\n        /* \"#utility.yul\":2054:2070   */\n      add\n        /* \"#utility.yul\":2032:2084   */\n      tag_57\n      jump\t// in\n    tag_56:\n        /* \"#utility.yul\":2109:2115   */\n      dup1\n        /* \"#utility.yul\":2104:2107   */\n      dup5\n        /* \"#utility.yul\":2100:2116   */\n      add\n        /* \"#utility.yul\":2093:2116   */\n      swap2\n      pop\n        /* \"#utility.yul\":1857:2122   */\n      pop\n        /* \"#utility.yul\":1749:2122   */\n      swap3\n      swap2\n      pop\n      pop\n      jump\t// out\n        /* \"#utility.yul\":2128:2494   */\n    tag_58:\n        /* \"#utility.yul\":2270:2273   */\n      0x00\n        /* \"#utility.yul\":2291:2358   */\n      tag_60\n        /* \"#utility.yul\":2355:2357   */\n      0x0b\n        /* \"#utility.yul\":2350:2353   */\n      dup4\n        /* \"#utility.yul\":2291:2358   */\n      tag_61\n      jump\t// in\n    tag_60:\n        /* \"#utility.yul\":2284:2358   */\n      swap2\n      pop\n        /* \"#utility.yul\":2367:2460   */\n      tag_62\n        /* \"#utility.yul\":2456:2459   */\n      dup3\n        /* \"#utility.yul\":2367:2460   */\n      tag_63\n      jump\t// in\n    tag_62:\n        /* \"#utility.yul\":2485:2487   */\n      0x20\n        /* \"#utility.yul\":2480:2483   */\n      dup3\n        /* \"#utility.yul\":2476:2488   */\n      add\n        /* \"#utility.yul\":2469:2488   */\n      swap1\n      pop\n        /* \"#utility.yul\":2128:2494   */\n      swap2\n      swap1\n      pop\n      jump\t// out\n        /* \"#utility.yul\":2500:2615   */\n    tag_64:\n        /* \"#utility.yul\":2585:2608   */\n      tag_66\n        /* \"#utility.yul\":2602:2607   */\n      dup2\n        /* \"#utility.yul\":2585:2608   */\n      tag_67\n      jump\t// in\n    tag_66:\n        /* \"#utility.yul\":2580:2583   */\n      dup3\n        /* \"#utility.yul\":2573:2609   */\n      mstore\n        /* \"#utility.yul\":2500:2615   */\n      pop\n      pop\n      jump\t// out\n        /* \"#utility.yul\":2621:2892   */\n    tag_12:\n        /* \"#utility.yul\":2751:2754   */\n      0x00\n        /* \"#utility.yul\":2773:2866   */\n      tag_69\n        /* \"#utility.yul\":2862:2865   */\n      dup3\n        /* \"#utility.yul\":2853:2859   */\n      dup5\n        /* \"#utility.yul\":2773:2866   */\n      tag_50\n      jump\t// in\n    tag_69:\n        /* \"#utility.yul\":2766:2866   */\n      swap2\n      pop\n        /* \"#utility.yul\":2883:2886   */\n      dup2\n        /* \"#utility.yul\":2876:2886   */\n      swap1\n      pop\n        /* \"#utility.yul\":2621:2892   */\n      swap3\n      swap2\n      pop\n      pop\n      jump\t// out\n        /* \"#utility.yul\":2898:3558   */\n    tag_10:\n        /* \"#utility.yul\":3101:3105   */\n      0x00\n        /* \"#utility.yul\":3139:3142   */\n      0xa0\n        /* \"#utility.yul\":3128:3137   */\n      dup3\n        /* \"#utility.yul\":3124:3143   */\n      add\n        /* \"#utility.yul\":3116:3143   */\n      swap1\n      pop\n        /* \"#utility.yul\":3153:3224   */\n      tag_71\n        /* \"#utility.yul\":3221:3222   */\n      0x00\n        /* \"#utility.yul\":3210:3219   */\n      dup4\n        /* \"#utility.yul\":3206:3223   */\n      add\n        /* \"#utility.yul\":3197:3203   */\n      dup9\n        /* \"#utility.yul\":3153:3224   */\n      tag_46\n      jump\t// in\n    tag_71:\n        /* \"#utility.yul\":3234:3306   */\n      tag_72\n        /* \"#utility.yul\":3302:3304   */\n      0x20\n        /* \"#utility.yul\":3291:3300   */\n      dup4\n        /* \"#utility.yul\":3287:3305   */\n      add\n        /* \"#utility.yul\":3278:3284   */\n      dup8\n        /* \"#utility.yul\":3234:3306   */\n      tag_46\n      jump\t// in\n    tag_72:\n        /* \"#utility.yul\":3316:3388   */\n      tag_73\n        /* \"#utility.yul\":3384:3386   */\n      0x40\n        /* \"#utility.yul\":3373:3382   */\n      dup4\n        /* \"#utility.yul\":3369:3387   */\n      add\n        /* \"#utility.yul\":3360:3366   */\n      dup7\n        /* \"#utility.yul\":3316:3388   */\n      tag_42\n      jump\t// in\n    tag_73:\n        /* \"#utility.yul\":3398:3470   */\n      tag_74\n        /* \"#utility.yul\":3466:3468   */\n      0x60\n        /* \"#utility.yul\":3455:3464   */\n      dup4\n        /* \"#utility.yul\":3451:3469   */\n      add\n        /* \"#utility.yul\":3442:3448   */\n      dup6\n        /* \"#utility.yul\":3398:3470   */\n      tag_42\n      jump\t// in\n    tag_74:\n        /* \"#utility.yul\":3480:3551   */\n      tag_75\n        /* \"#utility.yul\":3546:3549   */\n      0x80\n        /* \"#utility.yul\":3535:3544   */\n      dup4\n        /* \"#utility.yul\":3531:3550   */\n      add\n        /* \"#utility.yul\":3522:3528   */\n      dup5\n        /* \"#utility.yul\":3480:3551   */\n      tag_64\n      jump\t// in\n    tag_75:\n        /* \"#utility.yul\":2898:3558   */\n      swap7\n      swap6\n      pop\n      pop\n      pop\n      pop\n      pop\n      pop\n      jump\t// out\n        /* \"#utility.yul\":3564:3983   */\n    tag_18:\n        /* \"#utility.yul\":3730:3734   */\n      0x00\n        /* \"#utility.yul\":3768:3770   */\n      0x20\n        /* \"#utility.yul\":3757:3766   */\n      dup3\n        /* \"#utility.yul\":3753:3771   */\n      add\n        /* \"#utility.yul\":3745:3771   */\n      swap1\n      pop\n        /* \"#utility.yul\":3817:3826   */\n      dup2\n        /* \"#utility.yul\":3811:3815   */\n      dup2\n        /* \"#utility.yul\":3807:3827   */\n      sub\n        /* \"#utility.yul\":3803:3804   */\n      0x00\n        /* \"#utility.yul\":3792:3801   */\n      dup4\n        /* \"#utility.yul\":3788:3805   */\n      add\n        /* \"#utility.yul\":3781:3828   */\n      mstore\n        /* \"#utility.yul\":3845:3976   */\n      tag_77\n        /* \"#utility.yul\":3971:3975   */\n      dup2\n        /* \"#utility.yul\":3845:3976   */\n      tag_58\n      jump\t// in\n    tag_77:\n        /* \"#utility.yul\":3837:3976   */\n      swap1\n      pop\n        /* \"#utility.yul\":3564:3983   */\n      swap2\n      swap1\n      pop\n      jump\t// out\n        /* \"#utility.yul\":4070:4168   */\n    tag_53:\n        /* \"#utility.yul\":4121:4127   */\n      0x00\n        /* \"#utility.yul\":4155:4160   */\n      dup2\n        /* \"#utility.yul\":4149:4161   */\n      mload\n        /* \"#utility.yul\":4139:4161   */\n      swap1\n      pop\n        /* \"#utility.yul\":4070:4168   */\n      swap2\n      swap1\n      pop\n      jump\t// out\n        /* \"#utility.yul\":4174:4321   */\n    tag_55:\n        /* \"#utility.yul\":4275:4286   */\n      0x00\n        /* \"#utility.yul\":4312:4315   */\n      dup2\n        /* \"#utility.yul\":4297:4315   */\n      swap1\n      pop\n        /* \"#utility.yul\":4174:4321   */\n      swap3\n      swap2\n      pop\n      pop\n      jump\t// out\n        /* \"#utility.yul\":4327:4496   */\n    tag_61:\n        /* \"#utility.yul\":4411:4422   */\n      0x00\n        /* \"#utility.yul\":4445:4451   */\n      dup3\n        /* \"#utility.yul\":4440:4443   */\n      dup3\n        /* \"#utility.yul\":4433:4452   */\n      mstore\n        /* \"#utility.yul\":4485:4489   */\n      0x20\n        /* \"#utility.yul\":4480:4483   */\n      dup3\n        /* \"#utility.yul\":4476:4490   */\n      add\n        /* \"#utility.yul\":4461:4490   */\n      swap1\n      pop\n        /* \"#utility.yul\":4327:4496   */\n      swap3\n      swap2\n      pop\n      pop\n      jump\t// out\n        /* \"#utility.yul\":4502:4598   */\n    tag_45:\n        /* \"#utility.yul\":4539:4546   */\n      0x00\n        /* \"#utility.yul\":4568:4592   */\n      tag_84\n        /* \"#utility.yul\":4586:4591   */\n      dup3\n        /* \"#utility.yul\":4568:4592   */\n      tag_85\n      jump\t// in\n    tag_84:\n        /* \"#utility.yul\":4557:4592   */\n      swap1\n      pop\n        /* \"#utility.yul\":4502:4598   */\n      swap2\n      swap1\n      pop\n      jump\t// out\n        /* \"#utility.yul\":4604:4681   */\n    tag_49:\n        /* \"#utility.yul\":4641:4648   */\n      0x00\n        /* \"#utility.yul\":4670:4675   */\n      dup2\n        /* \"#utility.yul\":4659:4675   */\n      swap1\n      pop\n        /* \"#utility.yul\":4604:4681   */\n      swap2\n      swap1\n      pop\n      jump\t// out\n        /* \"#utility.yul\":4687:4813   */\n    tag_85:\n        /* \"#utility.yul\":4724:4731   */\n      0x00\n        /* \"#utility.yul\":4764:4806   */\n      0xffffffffffffffffffffffffffffffffffffffff\n        /* \"#utility.yul\":4757:4762   */\n      dup3\n        /* \"#utility.yul\":4753:4807   */\n      and\n        /* \"#utility.yul\":4742:4807   */\n      swap1\n      pop\n        /* \"#utility.yul\":4687:4813   */\n      swap2\n      swap1\n      pop\n      jump\t// out\n        /* \"#utility.yul\":4819:4920   */\n    tag_67:\n        /* \"#utility.yul\":4855:4862   */\n      0x00\n        /* \"#utility.yul\":4895:4913   */\n      0xffffffffffffffff\n        /* \"#utility.yul\":4888:4893   */\n      dup3\n        /* \"#utility.yul\":4884:4914   */\n      and\n        /* \"#utility.yul\":4873:4914   */\n      swap1\n      pop\n        /* \"#utility.yul\":4819:4920   */\n      swap2\n      swap1\n      pop\n      jump\t// out\n        /* \"#utility.yul\":4926:5233   */\n    tag_57:\n        /* \"#utility.yul\":4994:4995   */\n      0x00\n        /* \"#utility.yul\":5004:5117   */\n    tag_90:\n        /* \"#utility.yul\":5018:5024   */\n      dup4\n        /* \"#utility.yul\":5015:5016   */\n      dup2\n        /* \"#utility.yul\":5012:5025   */\n      lt\n        /* \"#utility.yul\":5004:5117   */\n      iszero\n      tag_92\n      jumpi\n        /* \"#utility.yul\":5103:5104   */\n      dup1\n        /* \"#utility.yul\":5098:5101   */\n      dup3\n        /* \"#utility.yul\":5094:5105   */\n      add\n        /* \"#utility.yul\":5088:5106   */\n      mload\n        /* \"#utility.yul\":5084:5085   */\n      dup2\n        /* \"#utility.yul\":5079:5082   */\n      dup5\n        /* \"#utility.yul\":5075:5086   */\n      add\n        /* \"#utility.yul\":5068:5107   */\n      mstore\n        /* \"#utility.yul\":5040:5042   */\n      0x20\n        /* \"#utility.yul\":5037:5038   */\n      dup2\n        /* \"#utility.yul\":5033:5043   */\n      add\n        /* \"#utility.yul\":5028:5043   */\n      swap1\n      pop\n        /* \"#utility.yul\":5004:5117   */\n      jump(tag_90)\n    tag_92:\n        /* \"#utility.yul\":5135:5141   */\n      dup4\n        /* \"#utility.yul\":5132:5133   */\n      dup2\n        /* \"#utility.yul\":5129:5142   */\n      gt\n        /* \"#utility.yul\":5126:5227   */\n      iszero\n      tag_93\n      jumpi\n        /* \"#utility.yul\":5215:5216   */\n      0x00\n        /* \"#utility.yul\":5206:5212   */\n      dup5\n        /* \"#utility.yul\":5201:5204   */\n      dup5\n        /* \"#utility.yul\":5197:5213   */\n      add\n        /* \"#utility.yul\":5190:5217   */\n      mstore\n        /* \"#utility.yul\":5126:5227   */\n    tag_93:\n        /* \"#utility.yul\":4975:5233   */\n      pop\n        /* \"#utility.yul\":4926:5233   */\n      pop\n      pop\n      pop\n      jump\t// out\n        /* \"#utility.yul\":5362:5479   */\n    tag_35:\n        /* \"#utility.yul\":5471:5472   */\n      0x00\n        /* \"#utility.yul\":5468:5469   */\n      dup1\n        /* \"#utility.yul\":5461:5473   */\n      revert\n        /* \"#utility.yul\":5485:5646   */\n    tag_63:\n        /* \"#utility.yul\":5625:5638   */\n      0x63616c6c206661696c6564000000000000000000000000000000000000000000\n        /* \"#utility.yul\":5621:5622   */\n      0x00\n        /* \"#utility.yul\":5613:5619   */\n      dup3\n        /* \"#utility.yul\":5609:5623   */\n      add\n        /* \"#utility.yul\":5602:5639   */\n      mstore\n        /* \"#utility.yul\":5485:5646   */\n      pop\n      jump\t// out\n        /* \"#utility.yul\":5652:5774   */\n    tag_23:\n        /* \"#utility.yul\":5725:5749   */\n      tag_99\n        /* \"#utility.yul\":5743:5748   */\n      dup2\n        /* \"#utility.yul\":5725:5749   */\n      tag_45\n      jump\t// in\n    tag_99:\n        /* \"#utility.yul\":5718:5723   */\n      dup2\n        /* \"#utility.yul\":5715:5750   */\n      eq\n        /* \"#utility.yul\":5705:5768   */\n      tag_100\n      jumpi\n        /* \"#utility.yul\":5764:5765   */\n      0x00\n        /* \"#utility.yul\":5761:5762   */\n      dup1\n        /* \"#utility.yul\":5754:5766   */\n      revert\n        /* \"#utility.yul\":5705:5768   */\n    tag_100:\n        /* \"#utility.yul\":5652:5774   */\n      pop\n      jump\t// out\n        /* \"#utility.yul\":5780:5902   */\n    tag_27:\n        /* \"#utility.yul\":5853:5877   */\n      tag_102\n        /* \"#utility.yul\":5871:5876   */\n      dup2\n        /* \"#utility.yul\":5853:5877   */\n      tag_49\n      jump\t// in\n    tag_102:\n        /* \"#utility.yul\":5846:5851   */\n      dup2\n        /* \"#utility.yul\":5843:5878   */\n      eq\n        /* \"#utility.yul\":5833:5896   */\n      tag_103\n      jumpi\n        /* \"#utility.yul\":5892:5893   */\n      0x00\n        /* \"#utility.yul\":5889:5890   */\n      dup1\n        /* \"#utility.yul\":5882:5894   */\n      revert\n        /* \"#utility.yul\":5833:5896   */\n    tag_103:\n        /* \"#utility.yul\":5780:5902   */\n      pop\n      jump\t// out\n        /* \"#utility.yul\":5908:6028   */\n    tag_31:\n        /* \"#utility.yul\":5980:6003   */\n      tag_105\n        /* \"#utility.yul\":5997:6002   */\n      dup2\n        /* \"#utility.yul\":5980:6003   */\n      tag_67\n      jump\t// in\n    tag_105:\n        /* \"#utility.yul\":5973:5978   */\n      dup2\n        /* \"#utility.yul\":5970:6004   */\n      eq\n        /* \"#utility.yul\":5960:6022   */\n      tag_106\n      jumpi\n        /* \"#utility.yul\":6018:6019   */\n      0x00\n        /* \"#utility.yul\":6015:6016   */\n      dup1\n        /* \"#utility.yul\":6008:6020   */\n      revert\n        /* \"#utility.yul\":5960:6022   */\n    tag_106:\n        /* \"#utility.yul\":5908:6028   */\n      pop\n      jump\t// out\n\n    auxdata: 0xa26469706673582212202b2a06bc9e2668a4e719789c719d42c79bb0460a92833853369cfcd1ee15587364736f6c63430008070033\n}\n",
				"bytecode": {
					"linkReferences": {},
					"object": "608060405234801561001057600080fd5b506104c1806100206000396000f3fe608060405234801561001057600080fd5b506004361061002b5760003560e01c8063ff8af7f414610030575b600080fd5b61004a600480360381019061004591906101d6565b61004c565b005b60008673ffffffffffffffffffffffffffffffffffffffff16868686868660405160240161007e9594939291906102fb565b6040516020818303038152906040527f012bc983000000000000000000000000000000000000000000000000000000007bffffffffffffffffffffffffffffffffffffffffffffffffffffffff19166020820180517bffffffffffffffffffffffffffffffffffffffffffffffffffffffff838183161783525050505060405161010891906102e4565b6000604051808303816000865af19150503d8060008114610145576040519150601f19603f3d011682016040523d82523d6000602084013e61014a565b606091505b505090508061018e576040517f08c379a00000000000000000000000000000000000000000000000000000000081526004016101859061034e565b60405180910390fd5b50505050505050565b6000813590506101a681610446565b92915050565b6000813590506101bb8161045d565b92915050565b6000813590506101d081610474565b92915050565b60008060008060008060c087890312156101f3576101f2610418565b5b600061020189828a01610197565b965050602061021289828a016101ac565b955050604061022389828a016101ac565b945050606061023489828a01610197565b935050608061024589828a01610197565b92505060a061025689828a016101c1565b9150509295509295509295565b61026c81610395565b82525050565b61027b816103a7565b82525050565b600061028c8261036e565b6102968185610379565b93506102a68185602086016103e5565b80840191505092915050565b60006102bf600b83610384565b91506102ca8261041d565b602082019050919050565b6102de816103d1565b82525050565b60006102f08284610281565b915081905092915050565b600060a0820190506103106000830188610272565b61031d6020830187610272565b61032a6040830186610263565b6103376060830185610263565b61034460808301846102d5565b9695505050505050565b60006020820190508181036000830152610367816102b2565b9050919050565b600081519050919050565b600081905092915050565b600082825260208201905092915050565b60006103a0826103b1565b9050919050565b6000819050919050565b600073ffffffffffffffffffffffffffffffffffffffff82169050919050565b600067ffffffffffffffff82169050919050565b60005b838110156104035780820151818401526020810190506103e8565b83811115610412576000848401525b50505050565b600080fd5b7f63616c6c206661696c6564000000000000000000000000000000000000000000600082015250565b61044f81610395565b811461045a57600080fd5b50565b610466816103a7565b811461047157600080fd5b50565b61047d816103d1565b811461048857600080fd5b5056fea26469706673582212202b2a06bc9e2668a4e719789c719d42c79bb0460a92833853369cfcd1ee15587364736f6c63430008070033",
					"opcodes": "PUSH1 0x80 PUSH1 0x40 MSTORE CALLVALUE DUP1 ISZERO PUSH2 0x10 JUMPI PUSH1 0x0 DUP1 REVERT JUMPDEST POP PUSH2 0x4C1 DUP1 PUSH2 0x20 PUSH1 0x0 CODECOPY PUSH1 0x0 RETURN INVALID PUSH1 0x80 PUSH1 0x40 MSTORE CALLVALUE DUP1 ISZERO PUSH2 0x10 JUMPI PUSH1 0x0 DUP1 REVERT JUMPDEST POP PUSH1 0x4 CALLDATASIZE LT PUSH2 0x2B JUMPI PUSH1 0x0 CALLDATALOAD PUSH1 0xE0 SHR DUP1 PUSH4 0xFF8AF7F4 EQ PUSH2 0x30 JUMPI JUMPDEST PUSH1 0x0 DUP1 REVERT JUMPDEST PUSH2 0x4A PUSH1 0x4 DUP1 CALLDATASIZE SUB DUP2 ADD SWAP1 PUSH2 0x45 SWAP2 SWAP1 PUSH2 0x1D6 JUMP JUMPDEST PUSH2 0x4C JUMP JUMPDEST STOP JUMPDEST PUSH1 0x0 DUP7 PUSH20 0xFFFFFFFFFFFFFFFFFFFFFFFFFFFFFFFFFFFFFFFF AND DUP7 DUP7 DUP7 DUP7 DUP7 PUSH1 0x40 MLOAD PUSH1 0x24 ADD PUSH2 0x7E SWAP6 SWAP5 SWAP4 SWAP3 SWAP2 SWAP1 PUSH2 0x2FB JUMP JUMPDEST PUSH1 0x40 MLOAD PUSH1 0x20 DUP2 DUP4 SUB SUB DUP2 MSTORE SWAP1 PUSH1 0x40 MSTORE PUSH32 0x12BC98300000000000000000000000000000000000000000000000000000000 PUSH28 0xFFFFFFFFFFFFFFFFFFFFFFFFFFFFFFFFFFFFFFFFFFFFFFFFFFFFFFFF NOT AND PUSH1 0x20 DUP3 ADD DUP1 MLOAD PUSH28 0xFFFFFFFFFFFFFFFFFFFFFFFFFFFFFFFFFFFFFFFFFFFFFFFFFFFFFFFF DUP4 DUP2 DUP4 AND OR DUP4 MSTORE POP POP POP POP PUSH1 0x40 MLOAD PUSH2 0x108 SWAP2 SWAP1 PUSH2 0x2E4 JUMP JUMPDEST PUSH1 0x0 PUSH1 0x40 MLOAD DUP1 DUP4 SUB DUP2 PUSH1 0x0 DUP7 GAS CALL SWAP2 POP POP RETURNDATASIZE DUP1 PUSH1 0x0 DUP2 EQ PUSH2 0x145 JUMPI PUSH1 0x40 MLOAD SWAP2 POP PUSH1 0x1F NOT PUSH1 0x3F RETURNDATASIZE ADD AND DUP3 ADD PUSH1 0x40 MSTORE RETURNDATASIZE DUP3 MSTORE RETURNDATASIZE PUSH1 0x0 PUSH1 0x20 DUP5 ADD RETURNDATACOPY PUSH2 0x14A JUMP JUMPDEST PUSH1 0x60 SWAP2 POP JUMPDEST POP POP SWAP1 POP DUP1 PUSH2 0x18E JUMPI PUSH1 0x40 MLOAD PUSH32 0x8C379A000000000000000000000000000000000000000000000000000000000 DUP2 MSTORE PUSH1 0x4 ADD PUSH2 0x185 SWAP1 PUSH2 0x34E JUMP JUMPDEST PUSH1 0x40 MLOAD DUP1 SWAP2 SUB SWAP1 REVERT JUMPDEST POP POP POP POP POP POP POP JUMP JUMPDEST PUSH1 0x0 DUP2 CALLDATALOAD SWAP1 POP PUSH2 0x1A6 DUP2 PUSH2 0x446 JUMP JUMPDEST SWAP3 SWAP2 POP POP JUMP JUMPDEST PUSH1 0x0 DUP2 CALLDATALOAD SWAP1 POP PUSH2 0x1BB DUP2 PUSH2 0x45D JUMP JUMPDEST SWAP3 SWAP2 POP POP JUMP JUMPDEST PUSH1 0x0 DUP2 CALLDATALOAD SWAP1 POP PUSH2 0x1D0 DUP2 PUSH2 0x474 JUMP JUMPDEST SWAP3 SWAP2 POP POP JUMP JUMPDEST PUSH1 0x0 DUP1 PUSH1 0x0 DUP1 PUSH1 0x0 DUP1 PUSH1 0xC0 DUP8 DUP10 SUB SLT ISZERO PUSH2 0x1F3 JUMPI PUSH2 0x1F2 PUSH2 0x418 JUMP JUMPDEST JUMPDEST PUSH1 0x0 PUSH2 0x201 DUP10 DUP3 DUP11 ADD PUSH2 0x197 JUMP JUMPDEST SWAP7 POP POP PUSH1 0x20 PUSH2 0x212 DUP10 DUP3 DUP11 ADD PUSH2 0x1AC JUMP JUMPDEST SWAP6 POP POP PUSH1 0x40 PUSH2 0x223 DUP10 DUP3 DUP11 ADD PUSH2 0x1AC JUMP JUMPDEST SWAP5 POP POP PUSH1 0x60 PUSH2 0x234 DUP10 DUP3 DUP11 ADD PUSH2 0x197 JUMP JUMPDEST SWAP4 POP POP PUSH1 0x80 PUSH2 0x245 DUP10 DUP3 DUP11 ADD PUSH2 0x197 JUMP JUMPDEST SWAP3 POP POP PUSH1 0xA0 PUSH2 0x256 DUP10 DUP3 DUP11 ADD PUSH2 0x1C1 JUMP JUMPDEST SWAP2 POP POP SWAP3 SWAP6 POP SWAP3 SWAP6 POP SWAP3 SWAP6 JUMP JUMPDEST PUSH2 0x26C DUP2 PUSH2 0x395 JUMP JUMPDEST DUP3 MSTORE POP POP JUMP JUMPDEST PUSH2 0x27B DUP2 PUSH2 0x3A7 JUMP JUMPDEST DUP3 MSTORE POP POP JUMP JUMPDEST PUSH1 0x0 PUSH2 0x28C DUP3 PUSH2 0x36E JUMP JUMPDEST PUSH2 0x296 DUP2 DUP6 PUSH2 0x379 JUMP JUMPDEST SWAP4 POP PUSH2 0x2A6 DUP2 DUP6 PUSH1 0x20 DUP7 ADD PUSH2 0x3E5 JUMP JUMPDEST DUP1 DUP5 ADD SWAP2 POP POP SWAP3 SWAP2 POP POP JUMP JUMPDEST PUSH1 0x0 PUSH2 0x2BF PUSH1 0xB DUP4 PUSH2 0x384 JUMP JUMPDEST SWAP2 POP PUSH2 0x2CA DUP3 PUSH2 0x41D JUMP JUMPDEST PUSH1 0x20 DUP3 ADD SWAP1 POP SWAP2 SWAP1 POP JUMP JUMPDEST PUSH2 0x2DE DUP2 PUSH2 0x3D1 JUMP JUMPDEST DUP3 MSTORE POP POP JUMP JUMPDEST PUSH1 0x0 PUSH2 0x2F0 DUP3 DUP5 PUSH2 0x281 JUMP JUMPDEST SWAP2 POP DUP2 SWAP1 POP SWAP3 SWAP2 POP POP JUMP JUMPDEST PUSH1 0x0 PUSH1 0xA0 DUP3 ADD SWAP1 POP PUSH2 0x310 PUSH1 0x0 DUP4 ADD DUP9 PUSH2 0x272 JUMP JUMPDEST PUSH2 0x31D PUSH1 0x20 DUP4 ADD DUP8 PUSH2 0x272 JUMP JUMPDEST PUSH2 0x32A PUSH1 0x40 DUP4 ADD DUP7 PUSH2 0x263 JUMP JUMPDEST PUSH2 0x337 PUSH1 0x60 DUP4 ADD DUP6 PUSH2 0x263 JUMP JUMPDEST PUSH2 0x344 PUSH1 0x80 DUP4 ADD DUP5 PUSH2 0x2D5 JUMP JUMPDEST SWAP7 SWAP6 POP POP POP POP POP POP JUMP JUMPDEST PUSH1 0x0 PUSH1 0x20 DUP3 ADD SWAP1 POP DUP2 DUP2 SUB PUSH1 0x0 DUP4 ADD MSTORE PUSH2 0x367 DUP2 PUSH2 0x2B2 JUMP JUMPDEST SWAP1 POP SWAP2 SWAP1 POP JUMP JUMPDEST PUSH1 0x0 DUP2 MLOAD SWAP1 POP SWAP2 SWAP1 POP JUMP JUMPDEST PUSH1 0x0 DUP2 SWAP1 POP SWAP3 SWAP2 POP POP JUMP JUMPDEST PUSH1 0x0 DUP3 DUP3 MSTORE PUSH1 0x20 DUP3 ADD SWAP1 POP SWAP3 SWAP2 POP POP JUMP JUMPDEST PUSH1 0x0 PUSH2 0x3A0 DUP3 PUSH2 0x3B1 JUMP JUMPDEST SWAP1 POP SWAP2 SWAP1 POP JUMP JUMPDEST PUSH1 0x0 DUP2 SWAP1 POP SWAP2 SWAP1 POP JUMP JUMPDEST PUSH1 0x0 PUSH20 0xFFFFFFFFFFFFFFFFFFFFFFFFFFFFFFFFFFFFFFFF DUP3 AND SWAP1 POP SWAP2 SWAP1 POP JUMP JUMPDEST PUSH1 0x0 PUSH8 0xFFFFFFFFFFFFFFFF DUP3 AND SWAP1 POP SWAP2 SWAP1 POP JUMP JUMPDEST PUSH1 0x0 JUMPDEST DUP4 DUP2 LT ISZERO PUSH2 0x403 JUMPI DUP1 DUP3 ADD MLOAD DUP2 DUP5 ADD MSTORE PUSH1 0x20 DUP2 ADD SWAP1 POP PUSH2 0x3E8 JUMP JUMPDEST DUP4 DUP2 GT ISZERO PUSH2 0x412 JUMPI PUSH1 0x0 DUP5 DUP5 ADD MSTORE JUMPDEST POP POP POP POP JUMP JUMPDEST PUSH1 0x0 DUP1 REVERT JUMPDEST PUSH32 0x63616C6C206661696C6564000000000000000000000000000000000000000000 PUSH1 0x0 DUP3 ADD MSTORE POP JUMP JUMPDEST PUSH2 0x44F DUP2 PUSH2 0x395 JUMP JUMPDEST DUP2 EQ PUSH2 0x45A JUMPI PUSH1 0x0 DUP1 REVERT JUMPDEST POP JUMP JUMPDEST PUSH2 0x466 DUP2 PUSH2 0x3A7 JUMP JUMPDEST DUP2 EQ PUSH2 0x471 JUMPI PUSH1 0x0 DUP1 REVERT JUMPDEST POP JUMP JUMPDEST PUSH2 0x47D DUP2 PUSH2 0x3D1 JUMP JUMPDEST DUP2 EQ PUSH2 0x488 JUMPI PUSH1 0x0 DUP1 REVERT JUMPDEST POP JUMP INVALID LOG2 PUSH5 0x6970667358 0x22 SLT KECCAK256 0x2B 0x2A MOD 0xBC SWAP15 0x26 PUSH9 0xA4E719789C719D42C7 SWAP12 0xB0 CHAINID EXP SWAP3 DUP4 CODESIZE MSTORE8 CALLDATASIZE SWAP13 0xFC 0xD1 0xEE ISZERO PC PUSH20 0x64736F6C63430008070033000000000000000000 "
				},
				"gasEstimates": {
					"creation": {
						"codeDepositCost": "243400",
						"executionCost": "287",
						"totalCost": "243687"
					},
					"external": {
						"setSubNode(address,bytes32,bytes32,address,address,uint64)": "infinite"
					}
				},
				"methodIdentifiers": {
					"setSubNode(address,bytes32,bytes32,address,address,uint64)": "ff8af7f4"
				}
			},
			"storageLayout": {
				"storage": [],
				"types": null
			},
			"userdoc": {
				"kind": "user",
				"methods": {},
				"version": 1
			}
		}
	}
}