{
	"Ethereum/ENS/contracts/ENSHandler.sol": {
		"ENSHandler": {
			"abi": [
				{
					"inputs": [],
					"name": "resolver",
					"outputs": [
						{
							"internalType": "address",
							"name": "",
							"type": "address"
						}
					],
					"stateMutability": "view",
					"type": "function"
				},
				{
					"inputs": [
						{
							"internalType": "address",
							"name": "_resolver",
							"type": "address"
						},
						{
							"internalType": "address",
							"name": "_ens",
							"type": "address"
						},
						{
							"internalType": "bytes32",
							"name": "_rootNode",
							"type": "bytes32"
						},
						{
							"internalType": "address",
							"name": "_target",
							"type": "address"
						},
						{
							"internalType": "bytes32",
							"name": "_label",
							"type": "bytes32"
						},
						{
							"internalType": "bytes32",
							"name": "_subNodeHash",
							"type": "bytes32"
						}
					],
					"name": "setSubNode",
					"outputs": [],
					"stateMutability": "nonpayable",
					"type": "function"
				}
			],
			"devdoc": {
				"kind": "dev",
				"methods": {},
				"version": 1
			},
			"evm": {
				"assembly": "    /* \"Ethereum/ENS/contracts/ENSHandler.sol\":434:878  contract ENSHandler {... */\n  mstore(0x40, 0x80)\n    /* \"Ethereum/ENS/contracts/ENSHandler.sol\":487:529  0x8Debe79F70F3fbC00CB6f3d1bD32f0e2bC13ABaF */\n  0x8debe79f70f3fbc00cb6f3d1bd32f0e2bc13abaf\n    /* \"Ethereum/ENS/contracts/ENSHandler.sol\":461:529  address public resolver = 0x8Debe79F70F3fbC00CB6f3d1bD32f0e2bC13ABaF */\n  0x00\n  dup1\n  0x0100\n  exp\n  dup2\n  sload\n  dup2\n  0xffffffffffffffffffffffffffffffffffffffff\n  mul\n  not\n  and\n  swap1\n  dup4\n  0xffffffffffffffffffffffffffffffffffffffff\n  and\n  mul\n  or\n  swap1\n  sstore\n  pop\n    /* \"Ethereum/ENS/contracts/ENSHandler.sol\":434:878  contract ENSHandler {... */\n  callvalue\n  dup1\n  iszero\n  tag_1\n  jumpi\n  0x00\n  dup1\n  revert\ntag_1:\n  pop\n  dataSize(sub_0)\n  dup1\n  dataOffset(sub_0)\n  0x00\n  codecopy\n  0x00\n  return\nstop\n\nsub_0: assembly {\n        /* \"Ethereum/ENS/contracts/ENSHandler.sol\":434:878  contract ENSHandler {... */\n      mstore(0x40, 0x80)\n      callvalue\n      dup1\n      iszero\n      tag_1\n      jumpi\n      0x00\n      dup1\n      revert\n    tag_1:\n      pop\n      jumpi(tag_2, lt(calldatasize, 0x04))\n      shr(0xe0, calldataload(0x00))\n      dup1\n      0x04f3bcec\n      eq\n      tag_3\n      jumpi\n      dup1\n      0xb99f0ab4\n      eq\n      tag_4\n      jumpi\n    tag_2:\n      0x00\n      dup1\n      revert\n        /* \"Ethereum/ENS/contracts/ENSHandler.sol\":461:529  address public resolver = 0x8Debe79F70F3fbC00CB6f3d1bD32f0e2bC13ABaF */\n    tag_3:\n      tag_5\n      tag_6\n      jump\t// in\n    tag_5:\n      mload(0x40)\n      tag_7\n      swap2\n      swap1\n      tag_8\n      jump\t// in\n    tag_7:\n      mload(0x40)\n      dup1\n      swap2\n      sub\n      swap1\n      return\n        /* \"Ethereum/ENS/contracts/ENSHandler.sol\":535:876  function setSubNode(address _resolver, address _ens, bytes32 _rootNode, address _target, bytes32 _label, bytes32 _subNodeHash) external {... */\n    tag_4:\n      tag_9\n      0x04\n      dup1\n      calldatasize\n      sub\n      dup2\n      add\n      swap1\n      tag_10\n      swap2\n      swap1\n      tag_11\n      jump\t// in\n    tag_10:\n      tag_12\n      jump\t// in\n    tag_9:\n      stop\n        /* \"Ethereum/ENS/contracts/ENSHandler.sol\":461:529  address public resolver = 0x8Debe79F70F3fbC00CB6f3d1bD32f0e2bC13ABaF */\n    tag_6:\n      0x00\n      dup1\n      sload\n      swap1\n      0x0100\n      exp\n      swap1\n      div\n      0xffffffffffffffffffffffffffffffffffffffff\n      and\n      dup2\n      jump\t// out\n        /* \"Ethereum/ENS/contracts/ENSHandler.sol\":535:876  function setSubNode(address _resolver, address _ens, bytes32 _rootNode, address _target, bytes32 _label, bytes32 _subNodeHash) external {... */\n    tag_12:\n        /* \"Ethereum/ENS/contracts/ENSHandler.sol\":685:689  _ens */\n      dup5\n        /* \"Ethereum/ENS/contracts/ENSHandler.sol\":681:707  ENS(_ens).setSubnodeRecord */\n      0xffffffffffffffffffffffffffffffffffffffff\n      and\n      0x5ef2c7f0\n        /* \"Ethereum/ENS/contracts/ENSHandler.sol\":708:717  _rootNode */\n      dup6\n        /* \"Ethereum/ENS/contracts/ENSHandler.sol\":719:725  _label */\n      dup5\n        /* \"Ethereum/ENS/contracts/ENSHandler.sol\":735:739  this */\n      address\n        /* \"Ethereum/ENS/contracts/ENSHandler.sol\":742:751  _resolver */\n      dup11\n        /* \"Ethereum/ENS/contracts/ENSHandler.sol\":753:754  0 */\n      0x00\n        /* \"Ethereum/ENS/contracts/ENSHandler.sol\":681:755  ENS(_ens).setSubnodeRecord(_rootNode, _label, address(this), _resolver, 0) */\n      mload(0x40)\n      dup7\n      0xffffffff\n      and\n      0xe0\n      shl\n      dup2\n      mstore\n      0x04\n      add\n      tag_14\n      swap6\n      swap5\n      swap4\n      swap3\n      swap2\n      swap1\n      tag_15\n      jump\t// in\n    tag_14:\n      0x00\n      mload(0x40)\n      dup1\n      dup4\n      sub\n      dup2\n      0x00\n      dup8\n      dup1\n      extcodesize\n      iszero\n      dup1\n      iszero\n      tag_16\n      jumpi\n      0x00\n      dup1\n      revert\n    tag_16:\n      pop\n      gas\n      call\n      iszero\n      dup1\n      iszero\n      tag_18\n      jumpi\n      returndatasize\n      0x00\n      dup1\n      returndatacopy\n      revert(0x00, returndatasize)\n    tag_18:\n      pop\n      pop\n      pop\n      pop\n        /* \"Ethereum/ENS/contracts/ENSHandler.sol\":777:786  _resolver */\n      dup6\n        /* \"Ethereum/ENS/contracts/ENSHandler.sol\":765:795  ENSResolver(_resolver).setAddr */\n      0xffffffffffffffffffffffffffffffffffffffff\n      and\n      0xd5fa2b00\n        /* \"Ethereum/ENS/contracts/ENSHandler.sol\":796:808  _subNodeHash */\n      dup3\n        /* \"Ethereum/ENS/contracts/ENSHandler.sol\":810:817  _target */\n      dup6\n        /* \"Ethereum/ENS/contracts/ENSHandler.sol\":765:818  ENSResolver(_resolver).setAddr(_subNodeHash, _target) */\n      mload(0x40)\n      dup4\n      0xffffffff\n      and\n      0xe0\n      shl\n      dup2\n      mstore\n      0x04\n      add\n      tag_19\n      swap3\n      swap2\n      swap1\n      tag_20\n      jump\t// in\n    tag_19:\n      0x00\n      mload(0x40)\n      dup1\n      dup4\n      sub\n      dup2\n      0x00\n      dup8\n      dup1\n      extcodesize\n      iszero\n      dup1\n      iszero\n      tag_21\n      jumpi\n      0x00\n      dup1\n      revert\n    tag_21:\n      pop\n      gas\n      call\n      iszero\n      dup1\n      iszero\n      tag_23\n      jumpi\n      returndatasize\n      0x00\n      dup1\n      returndatacopy\n      revert(0x00, returndatasize)\n    tag_23:\n      pop\n      pop\n      pop\n      pop\n        /* \"Ethereum/ENS/contracts/ENSHandler.sol\":832:836  _ens */\n      dup5\n        /* \"Ethereum/ENS/contracts/ENSHandler.sol\":828:846  ENS(_ens).setOwner */\n      0xffffffffffffffffffffffffffffffffffffffff\n      and\n      0x5b0fc9c3\n        /* \"Ethereum/ENS/contracts/ENSHandler.sol\":847:859  _subNodeHash */\n      dup3\n        /* \"Ethereum/ENS/contracts/ENSHandler.sol\":861:868  _target */\n      dup6\n        /* \"Ethereum/ENS/contracts/ENSHandler.sol\":828:869  ENS(_ens).setOwner(_subNodeHash, _target) */\n      mload(0x40)\n      dup4\n      0xffffffff\n      and\n      0xe0\n      shl\n      dup2\n      mstore\n      0x04\n      add\n      tag_24\n      swap3\n      swap2\n      swap1\n      tag_20\n      jump\t// in\n    tag_24:\n      0x00\n      mload(0x40)\n      dup1\n      dup4\n      sub\n      dup2\n      0x00\n      dup8\n      dup1\n      extcodesize\n      iszero\n      dup1\n      iszero\n      tag_25\n      jumpi\n      0x00\n      dup1\n      revert\n    tag_25:\n      pop\n      gas\n      call\n      iszero\n      dup1\n      iszero\n      tag_27\n      jumpi\n      returndatasize\n      0x00\n      dup1\n      returndatacopy\n      revert(0x00, returndatasize)\n    tag_27:\n      pop\n      pop\n      pop\n      pop\n        /* \"Ethereum/ENS/contracts/ENSHandler.sol\":535:876  function setSubNode(address _resolver, address _ens, bytes32 _rootNode, address _target, bytes32 _label, bytes32 _subNodeHash) external {... */\n      pop\n      pop\n      pop\n      pop\n      pop\n      pop\n      jump\t// out\n        /* \"#utility.yul\":7:146   */\n    tag_29:\n        /* \"#utility.yul\":53:58   */\n      0x00\n        /* \"#utility.yul\":91:97   */\n      dup2\n        /* \"#utility.yul\":78:98   */\n      calldataload\n        /* \"#utility.yul\":69:98   */\n      swap1\n      pop\n        /* \"#utility.yul\":107:140   */\n      tag_31\n        /* \"#utility.yul\":134:139   */\n      dup2\n        /* \"#utility.yul\":107:140   */\n      tag_32\n      jump\t// in\n    tag_31:\n        /* \"#utility.yul\":7:146   */\n      swap3\n      swap2\n      pop\n      pop\n      jump\t// out\n        /* \"#utility.yul\":152:291   */\n    tag_33:\n        /* \"#utility.yul\":198:203   */\n      0x00\n        /* \"#utility.yul\":236:242   */\n      dup2\n        /* \"#utility.yul\":223:243   */\n      calldataload\n        /* \"#utility.yul\":214:243   */\n      swap1\n      pop\n        /* \"#utility.yul\":252:285   */\n      tag_35\n        /* \"#utility.yul\":279:284   */\n      dup2\n        /* \"#utility.yul\":252:285   */\n      tag_36\n      jump\t// in\n    tag_35:\n        /* \"#utility.yul\":152:291   */\n      swap3\n      swap2\n      pop\n      pop\n      jump\t// out\n        /* \"#utility.yul\":297:1354   */\n    tag_11:\n        /* \"#utility.yul\":401:407   */\n      0x00\n        /* \"#utility.yul\":409:415   */\n      dup1\n        /* \"#utility.yul\":417:423   */\n      0x00\n        /* \"#utility.yul\":425:431   */\n      dup1\n        /* \"#utility.yul\":433:439   */\n      0x00\n        /* \"#utility.yul\":441:447   */\n      dup1\n        /* \"#utility.yul\":490:493   */\n      0xc0\n        /* \"#utility.yul\":478:487   */\n      dup8\n        /* \"#utility.yul\":469:476   */\n      dup10\n        /* \"#utility.yul\":465:488   */\n      sub\n        /* \"#utility.yul\":461:494   */\n      slt\n        /* \"#utility.yul\":458:578   */\n      iszero\n      tag_38\n      jumpi\n        /* \"#utility.yul\":497:576   */\n      tag_39\n      tag_40\n      jump\t// in\n    tag_39:\n        /* \"#utility.yul\":458:578   */\n    tag_38:\n        /* \"#utility.yul\":617:618   */\n      0x00\n        /* \"#utility.yul\":642:695   */\n      tag_41\n        /* \"#utility.yul\":687:694   */\n      dup10\n        /* \"#utility.yul\":678:684   */\n      dup3\n        /* \"#utility.yul\":667:676   */\n      dup11\n        /* \"#utility.yul\":663:685   */\n      add\n        /* \"#utility.yul\":642:695   */\n      tag_29\n      jump\t// in\n    tag_41:\n        /* \"#utility.yul\":632:695   */\n      swap7\n      pop\n        /* \"#utility.yul\":588:705   */\n      pop\n        /* \"#utility.yul\":744:746   */\n      0x20\n        /* \"#utility.yul\":770:823   */\n      tag_42\n        /* \"#utility.yul\":815:822   */\n      dup10\n        /* \"#utility.yul\":806:812   */\n      dup3\n        /* \"#utility.yul\":795:804   */\n      dup11\n        /* \"#utility.yul\":791:813   */\n      add\n        /* \"#utility.yul\":770:823   */\n      tag_29\n      jump\t// in\n    tag_42:\n        /* \"#utility.yul\":760:823   */\n      swap6\n      pop\n        /* \"#utility.yul\":715:833   */\n      pop\n        /* \"#utility.yul\":872:874   */\n      0x40\n        /* \"#utility.yul\":898:951   */\n      tag_43\n        /* \"#utility.yul\":943:950   */\n      dup10\n        /* \"#utility.yul\":934:940   */\n      dup3\n        /* \"#utility.yul\":923:932   */\n      dup11\n        /* \"#utility.yul\":919:941   */\n      add\n        /* \"#utility.yul\":898:951   */\n      tag_33\n      jump\t// in\n    tag_43:\n        /* \"#utility.yul\":888:951   */\n      swap5\n      pop\n        /* \"#utility.yul\":843:961   */\n      pop\n        /* \"#utility.yul\":1000:1002   */\n      0x60\n        /* \"#utility.yul\":1026:1079   */\n      tag_44\n        /* \"#utility.yul\":1071:1078   */\n      dup10\n        /* \"#utility.yul\":1062:1068   */\n      dup3\n        /* \"#utility.yul\":1051:1060   */\n      dup11\n        /* \"#utility.yul\":1047:1069   */\n      add\n        /* \"#utility.yul\":1026:1079   */\n      tag_29\n      jump\t// in\n    tag_44:\n        /* \"#utility.yul\":1016:1079   */\n      swap4\n      pop\n        /* \"#utility.yul\":971:1089   */\n      pop\n        /* \"#utility.yul\":1128:1131   */\n      0x80\n        /* \"#utility.yul\":1155:1208   */\n      tag_45\n        /* \"#utility.yul\":1200:1207   */\n      dup10\n        /* \"#utility.yul\":1191:1197   */\n      dup3\n        /* \"#utility.yul\":1180:1189   */\n      dup11\n        /* \"#utility.yul\":1176:1198   */\n      add\n        /* \"#utility.yul\":1155:1208   */\n      tag_33\n      jump\t// in\n    tag_45:\n        /* \"#utility.yul\":1145:1208   */\n      swap3\n      pop\n        /* \"#utility.yul\":1099:1218   */\n      pop\n        /* \"#utility.yul\":1257:1260   */\n      0xa0\n        /* \"#utility.yul\":1284:1337   */\n      tag_46\n        /* \"#utility.yul\":1329:1336   */\n      dup10\n        /* \"#utility.yul\":1320:1326   */\n      dup3\n        /* \"#utility.yul\":1309:1318   */\n      dup11\n        /* \"#utility.yul\":1305:1327   */\n      add\n        /* \"#utility.yul\":1284:1337   */\n      tag_33\n      jump\t// in\n    tag_46:\n        /* \"#utility.yul\":1274:1337   */\n      swap2\n      pop\n        /* \"#utility.yul\":1228:1347   */\n      pop\n        /* \"#utility.yul\":297:1354   */\n      swap3\n      swap6\n      pop\n      swap3\n      swap6\n      pop\n      swap3\n      swap6\n      jump\t// out\n        /* \"#utility.yul\":1360:1478   */\n    tag_47:\n        /* \"#utility.yul\":1447:1471   */\n      tag_49\n        /* \"#utility.yul\":1465:1470   */\n      dup2\n        /* \"#utility.yul\":1447:1471   */\n      tag_50\n      jump\t// in\n    tag_49:\n        /* \"#utility.yul\":1442:1445   */\n      dup3\n        /* \"#utility.yul\":1435:1472   */\n      mstore\n        /* \"#utility.yul\":1360:1478   */\n      pop\n      pop\n      jump\t// out\n        /* \"#utility.yul\":1484:1602   */\n    tag_51:\n        /* \"#utility.yul\":1571:1595   */\n      tag_53\n        /* \"#utility.yul\":1589:1594   */\n      dup2\n        /* \"#utility.yul\":1571:1595   */\n      tag_54\n      jump\t// in\n    tag_53:\n        /* \"#utility.yul\":1566:1569   */\n      dup3\n        /* \"#utility.yul\":1559:1596   */\n      mstore\n        /* \"#utility.yul\":1484:1602   */\n      pop\n      pop\n      jump\t// out\n        /* \"#utility.yul\":1608:1753   */\n    tag_55:\n        /* \"#utility.yul\":1702:1746   */\n      tag_57\n        /* \"#utility.yul\":1740:1745   */\n      dup2\n        /* \"#utility.yul\":1702:1746   */\n      tag_58\n      jump\t// in\n    tag_57:\n        /* \"#utility.yul\":1697:1700   */\n      dup3\n        /* \"#utility.yul\":1690:1747   */\n      mstore\n        /* \"#utility.yul\":1608:1753   */\n      pop\n      pop\n      jump\t// out\n        /* \"#utility.yul\":1759:1981   */\n    tag_8:\n        /* \"#utility.yul\":1852:1856   */\n      0x00\n        /* \"#utility.yul\":1890:1892   */\n      0x20\n        /* \"#utility.yul\":1879:1888   */\n      dup3\n        /* \"#utility.yul\":1875:1893   */\n      add\n        /* \"#utility.yul\":1867:1893   */\n      swap1\n      pop\n        /* \"#utility.yul\":1903:1974   */\n      tag_60\n        /* \"#utility.yul\":1971:1972   */\n      0x00\n        /* \"#utility.yul\":1960:1969   */\n      dup4\n        /* \"#utility.yul\":1956:1973   */\n      add\n        /* \"#utility.yul\":1947:1953   */\n      dup5\n        /* \"#utility.yul\":1903:1974   */\n      tag_47\n      jump\t// in\n    tag_60:\n        /* \"#utility.yul\":1759:1981   */\n      swap3\n      swap2\n      pop\n      pop\n      jump\t// out\n        /* \"#utility.yul\":1987:2319   */\n    tag_20:\n        /* \"#utility.yul\":2108:2112   */\n      0x00\n        /* \"#utility.yul\":2146:2148   */\n      0x40\n        /* \"#utility.yul\":2135:2144   */\n      dup3\n        /* \"#utility.yul\":2131:2149   */\n      add\n        /* \"#utility.yul\":2123:2149   */\n      swap1\n      pop\n        /* \"#utility.yul\":2159:2230   */\n      tag_62\n        /* \"#utility.yul\":2227:2228   */\n      0x00\n        /* \"#utility.yul\":2216:2225   */\n      dup4\n        /* \"#utility.yul\":2212:2229   */\n      add\n        /* \"#utility.yul\":2203:2209   */\n      dup6\n        /* \"#utility.yul\":2159:2230   */\n      tag_51\n      jump\t// in\n    tag_62:\n        /* \"#utility.yul\":2240:2312   */\n      tag_63\n        /* \"#utility.yul\":2308:2310   */\n      0x20\n        /* \"#utility.yul\":2297:2306   */\n      dup4\n        /* \"#utility.yul\":2293:2311   */\n      add\n        /* \"#utility.yul\":2284:2290   */\n      dup5\n        /* \"#utility.yul\":2240:2312   */\n      tag_47\n      jump\t// in\n    tag_63:\n        /* \"#utility.yul\":1987:2319   */\n      swap4\n      swap3\n      pop\n      pop\n      pop\n      jump\t// out\n        /* \"#utility.yul\":2325:3003   */\n    tag_15:\n        /* \"#utility.yul\":2537:2541   */\n      0x00\n        /* \"#utility.yul\":2575:2578   */\n      0xa0\n        /* \"#utility.yul\":2564:2573   */\n      dup3\n        /* \"#utility.yul\":2560:2579   */\n      add\n        /* \"#utility.yul\":2552:2579   */\n      swap1\n      pop\n        /* \"#utility.yul\":2589:2660   */\n      tag_65\n        /* \"#utility.yul\":2657:2658   */\n      0x00\n        /* \"#utility.yul\":2646:2655   */\n      dup4\n        /* \"#utility.yul\":2642:2659   */\n      add\n        /* \"#utility.yul\":2633:2639   */\n      dup9\n        /* \"#utility.yul\":2589:2660   */\n      tag_51\n      jump\t// in\n    tag_65:\n        /* \"#utility.yul\":2670:2742   */\n      tag_66\n        /* \"#utility.yul\":2738:2740   */\n      0x20\n        /* \"#utility.yul\":2727:2736   */\n      dup4\n        /* \"#utility.yul\":2723:2741   */\n      add\n        /* \"#utility.yul\":2714:2720   */\n      dup8\n        /* \"#utility.yul\":2670:2742   */\n      tag_51\n      jump\t// in\n    tag_66:\n        /* \"#utility.yul\":2752:2824   */\n      tag_67\n        /* \"#utility.yul\":2820:2822   */\n      0x40\n        /* \"#utility.yul\":2809:2818   */\n      dup4\n        /* \"#utility.yul\":2805:2823   */\n      add\n        /* \"#utility.yul\":2796:2802   */\n      dup7\n        /* \"#utility.yul\":2752:2824   */\n      tag_47\n      jump\t// in\n    tag_67:\n        /* \"#utility.yul\":2834:2906   */\n      tag_68\n        /* \"#utility.yul\":2902:2904   */\n      0x60\n        /* \"#utility.yul\":2891:2900   */\n      dup4\n        /* \"#utility.yul\":2887:2905   */\n      add\n        /* \"#utility.yul\":2878:2884   */\n      dup6\n        /* \"#utility.yul\":2834:2906   */\n      tag_47\n      jump\t// in\n    tag_68:\n        /* \"#utility.yul\":2916:2996   */\n      tag_69\n        /* \"#utility.yul\":2991:2994   */\n      0x80\n        /* \"#utility.yul\":2980:2989   */\n      dup4\n        /* \"#utility.yul\":2976:2995   */\n      add\n        /* \"#utility.yul\":2967:2973   */\n      dup5\n        /* \"#utility.yul\":2916:2996   */\n      tag_55\n      jump\t// in\n    tag_69:\n        /* \"#utility.yul\":2325:3003   */\n      swap7\n      swap6\n      pop\n      pop\n      pop\n      pop\n      pop\n      pop\n      jump\t// out\n        /* \"#utility.yul\":3090:3186   */\n    tag_50:\n        /* \"#utility.yul\":3127:3134   */\n      0x00\n        /* \"#utility.yul\":3156:3180   */\n      tag_73\n        /* \"#utility.yul\":3174:3179   */\n      dup3\n        /* \"#utility.yul\":3156:3180   */\n      tag_74\n      jump\t// in\n    tag_73:\n        /* \"#utility.yul\":3145:3180   */\n      swap1\n      pop\n        /* \"#utility.yul\":3090:3186   */\n      swap2\n      swap1\n      pop\n      jump\t// out\n        /* \"#utility.yul\":3192:3269   */\n    tag_54:\n        /* \"#utility.yul\":3229:3236   */\n      0x00\n        /* \"#utility.yul\":3258:3263   */\n      dup2\n        /* \"#utility.yul\":3247:3263   */\n      swap1\n      pop\n        /* \"#utility.yul\":3192:3269   */\n      swap2\n      swap1\n      pop\n      jump\t// out\n        /* \"#utility.yul\":3275:3401   */\n    tag_74:\n        /* \"#utility.yul\":3312:3319   */\n      0x00\n        /* \"#utility.yul\":3352:3394   */\n      0xffffffffffffffffffffffffffffffffffffffff\n        /* \"#utility.yul\":3345:3350   */\n      dup3\n        /* \"#utility.yul\":3341:3395   */\n      and\n        /* \"#utility.yul\":3330:3395   */\n      swap1\n      pop\n        /* \"#utility.yul\":3275:3401   */\n      swap2\n      swap1\n      pop\n      jump\t// out\n        /* \"#utility.yul\":3407:3508   */\n    tag_77:\n        /* \"#utility.yul\":3443:3450   */\n      0x00\n        /* \"#utility.yul\":3483:3501   */\n      0xffffffffffffffff\n        /* \"#utility.yul\":3476:3481   */\n      dup3\n        /* \"#utility.yul\":3472:3502   */\n      and\n        /* \"#utility.yul\":3461:3502   */\n      swap1\n      pop\n        /* \"#utility.yul\":3407:3508   */\n      swap2\n      swap1\n      pop\n      jump\t// out\n        /* \"#utility.yul\":3514:3633   */\n    tag_58:\n        /* \"#utility.yul\":3571:3580   */\n      0x00\n        /* \"#utility.yul\":3604:3627   */\n      tag_80\n        /* \"#utility.yul\":3621:3626   */\n      dup3\n        /* \"#utility.yul\":3604:3627   */\n      tag_77\n      jump\t// in\n    tag_80:\n        /* \"#utility.yul\":3591:3627   */\n      swap1\n      pop\n        /* \"#utility.yul\":3514:3633   */\n      swap2\n      swap1\n      pop\n      jump\t// out\n        /* \"#utility.yul\":3762:3879   */\n    tag_40:\n        /* \"#utility.yul\":3871:3872   */\n      0x00\n        /* \"#utility.yul\":3868:3869   */\n      dup1\n        /* \"#utility.yul\":3861:3873   */\n      revert\n        /* \"#utility.yul\":3885:4007   */\n    tag_32:\n        /* \"#utility.yul\":3958:3982   */\n      tag_85\n        /* \"#utility.yul\":3976:3981   */\n      dup2\n        /* \"#utility.yul\":3958:3982   */\n      tag_50\n      jump\t// in\n    tag_85:\n        /* \"#utility.yul\":3951:3956   */\n      dup2\n        /* \"#utility.yul\":3948:3983   */\n      eq\n        /* \"#utility.yul\":3938:4001   */\n      tag_86\n      jumpi\n        /* \"#utility.yul\":3997:3998   */\n      0x00\n        /* \"#utility.yul\":3994:3995   */\n      dup1\n        /* \"#utility.yul\":3987:3999   */\n      revert\n        /* \"#utility.yul\":3938:4001   */\n    tag_86:\n        /* \"#utility.yul\":3885:4007   */\n      pop\n      jump\t// out\n        /* \"#utility.yul\":4013:4135   */\n    tag_36:\n        /* \"#utility.yul\":4086:4110   */\n      tag_88\n        /* \"#utility.yul\":4104:4109   */\n      dup2\n        /* \"#utility.yul\":4086:4110   */\n      tag_54\n      jump\t// in\n    tag_88:\n        /* \"#utility.yul\":4079:4084   */\n      dup2\n        /* \"#utility.yul\":4076:4111   */\n      eq\n        /* \"#utility.yul\":4066:4129   */\n      tag_89\n      jumpi\n        /* \"#utility.yul\":4125:4126   */\n      0x00\n        /* \"#utility.yul\":4122:4123   */\n      dup1\n        /* \"#utility.yul\":4115:4127   */\n      revert\n        /* \"#utility.yul\":4066:4129   */\n    tag_89:\n        /* \"#utility.yul\":4013:4135   */\n      pop\n      jump\t// out\n\n    auxdata: 0xa2646970667358221220d4f7f4ba5b6f26fe9490e30ef90084123316d414705d2de68dcdab80aa71809c64736f6c63430008070033\n}\n",
				"bytecode": {
					"linkReferences": {},
					"object": "6080604052738debe79f70f3fbc00cb6f3d1bd32f0e2bc13abaf6000806101000a81548173ffffffffffffffffffffffffffffffffffffffff021916908373ffffffffffffffffffffffffffffffffffffffff16021790555034801561006457600080fd5b50610435806100746000396000f3fe608060405234801561001057600080fd5b50600436106100365760003560e01c806304f3bcec1461003b578063b99f0ab414610059575b600080fd5b610043610075565b60405161005091906102d3565b60405180910390f35b610073600480360381019061006e9190610219565b610099565b005b60008054906101000a900473ffffffffffffffffffffffffffffffffffffffff1681565b8473ffffffffffffffffffffffffffffffffffffffff16635ef2c7f08584308a60006040518663ffffffff1660e01b81526004016100db959493929190610317565b600060405180830381600087803b1580156100f557600080fd5b505af1158015610109573d6000803e3d6000fd5b505050508573ffffffffffffffffffffffffffffffffffffffff1663d5fa2b0082856040518363ffffffff1660e01b81526004016101489291906102ee565b600060405180830381600087803b15801561016257600080fd5b505af1158015610176573d6000803e3d6000fd5b505050508473ffffffffffffffffffffffffffffffffffffffff16635b0fc9c382856040518363ffffffff1660e01b81526004016101b59291906102ee565b600060405180830381600087803b1580156101cf57600080fd5b505af11580156101e3573d6000803e3d6000fd5b50505050505050505050565b6000813590506101fe816103d1565b92915050565b600081359050610213816103e8565b92915050565b60008060008060008060c08789031215610236576102356103cc565b5b600061024489828a016101ef565b965050602061025589828a016101ef565b955050604061026689828a01610204565b945050606061027789828a016101ef565b935050608061028889828a01610204565b92505060a061029989828a01610204565b9150509295509295509295565b6102af8161036a565b82525050565b6102be8161037c565b82525050565b6102cd816103ba565b82525050565b60006020820190506102e860008301846102a6565b92915050565b600060408201905061030360008301856102b5565b61031060208301846102a6565b9392505050565b600060a08201905061032c60008301886102b5565b61033960208301876102b5565b61034660408301866102a6565b61035360608301856102a6565b61036060808301846102c4565b9695505050505050565b600061037582610386565b9050919050565b6000819050919050565b600073ffffffffffffffffffffffffffffffffffffffff82169050919050565b600067ffffffffffffffff82169050919050565b60006103c5826103a6565b9050919050565b600080fd5b6103da8161036a565b81146103e557600080fd5b50565b6103f18161037c565b81146103fc57600080fd5b5056fea2646970667358221220d4f7f4ba5b6f26fe9490e30ef90084123316d414705d2de68dcdab80aa71809c64736f6c63430008070033",
					"opcodes": "PUSH1 0x80 PUSH1 0x40 MSTORE PUSH20 0x8DEBE79F70F3FBC00CB6F3D1BD32F0E2BC13ABAF PUSH1 0x0 DUP1 PUSH2 0x100 EXP DUP2 SLOAD DUP2 PUSH20 0xFFFFFFFFFFFFFFFFFFFFFFFFFFFFFFFFFFFFFFFF MUL NOT AND SWAP1 DUP4 PUSH20 0xFFFFFFFFFFFFFFFFFFFFFFFFFFFFFFFFFFFFFFFF AND MUL OR SWAP1 SSTORE POP CALLVALUE DUP1 ISZERO PUSH2 0x64 JUMPI PUSH1 0x0 DUP1 REVERT JUMPDEST POP PUSH2 0x435 DUP1 PUSH2 0x74 PUSH1 0x0 CODECOPY PUSH1 0x0 RETURN INVALID PUSH1 0x80 PUSH1 0x40 MSTORE CALLVALUE DUP1 ISZERO PUSH2 0x10 JUMPI PUSH1 0x0 DUP1 REVERT JUMPDEST POP PUSH1 0x4 CALLDATASIZE LT PUSH2 0x36 JUMPI PUSH1 0x0 CALLDATALOAD PUSH1 0xE0 SHR DUP1 PUSH4 0x4F3BCEC EQ PUSH2 0x3B JUMPI DUP1 PUSH4 0xB99F0AB4 EQ PUSH2 0x59 JUMPI JUMPDEST PUSH1 0x0 DUP1 REVERT JUMPDEST PUSH2 0x43 PUSH2 0x75 JUMP JUMPDEST PUSH1 0x40 MLOAD PUSH2 0x50 SWAP2 SWAP1 PUSH2 0x2D3 JUMP JUMPDEST PUSH1 0x40 MLOAD DUP1 SWAP2 SUB SWAP1 RETURN JUMPDEST PUSH2 0x73 PUSH1 0x4 DUP1 CALLDATASIZE SUB DUP2 ADD SWAP1 PUSH2 0x6E SWAP2 SWAP1 PUSH2 0x219 JUMP JUMPDEST PUSH2 0x99 JUMP JUMPDEST STOP JUMPDEST PUSH1 0x0 DUP1 SLOAD SWAP1 PUSH2 0x100 EXP SWAP1 DIV PUSH20 0xFFFFFFFFFFFFFFFFFFFFFFFFFFFFFFFFFFFFFFFF AND DUP2 JUMP JUMPDEST DUP5 PUSH20 0xFFFFFFFFFFFFFFFFFFFFFFFFFFFFFFFFFFFFFFFF AND PUSH4 0x5EF2C7F0 DUP6 DUP5 ADDRESS DUP11 PUSH1 0x0 PUSH1 0x40 MLOAD DUP7 PUSH4 0xFFFFFFFF AND PUSH1 0xE0 SHL DUP2 MSTORE PUSH1 0x4 ADD PUSH2 0xDB SWAP6 SWAP5 SWAP4 SWAP3 SWAP2 SWAP1 PUSH2 0x317 JUMP JUMPDEST PUSH1 0x0 PUSH1 0x40 MLOAD DUP1 DUP4 SUB DUP2 PUSH1 0x0 DUP8 DUP1 EXTCODESIZE ISZERO DUP1 ISZERO PUSH2 0xF5 JUMPI PUSH1 0x0 DUP1 REVERT JUMPDEST POP GAS CALL ISZERO DUP1 ISZERO PUSH2 0x109 JUMPI RETURNDATASIZE PUSH1 0x0 DUP1 RETURNDATACOPY RETURNDATASIZE PUSH1 0x0 REVERT JUMPDEST POP POP POP POP DUP6 PUSH20 0xFFFFFFFFFFFFFFFFFFFFFFFFFFFFFFFFFFFFFFFF AND PUSH4 0xD5FA2B00 DUP3 DUP6 PUSH1 0x40 MLOAD DUP4 PUSH4 0xFFFFFFFF AND PUSH1 0xE0 SHL DUP2 MSTORE PUSH1 0x4 ADD PUSH2 0x148 SWAP3 SWAP2 SWAP1 PUSH2 0x2EE JUMP JUMPDEST PUSH1 0x0 PUSH1 0x40 MLOAD DUP1 DUP4 SUB DUP2 PUSH1 0x0 DUP8 DUP1 EXTCODESIZE ISZERO DUP1 ISZERO PUSH2 0x162 JUMPI PUSH1 0x0 DUP1 REVERT JUMPDEST POP GAS CALL ISZERO DUP1 ISZERO PUSH2 0x176 JUMPI RETURNDATASIZE PUSH1 0x0 DUP1 RETURNDATACOPY RETURNDATASIZE PUSH1 0x0 REVERT JUMPDEST POP POP POP POP DUP5 PUSH20 0xFFFFFFFFFFFFFFFFFFFFFFFFFFFFFFFFFFFFFFFF AND PUSH4 0x5B0FC9C3 DUP3 DUP6 PUSH1 0x40 MLOAD DUP4 PUSH4 0xFFFFFFFF AND PUSH1 0xE0 SHL DUP2 MSTORE PUSH1 0x4 ADD PUSH2 0x1B5 SWAP3 SWAP2 SWAP1 PUSH2 0x2EE JUMP JUMPDEST PUSH1 0x0 PUSH1 0x40 MLOAD DUP1 DUP4 SUB DUP2 PUSH1 0x0 DUP8 DUP1 EXTCODESIZE ISZERO DUP1 ISZERO PUSH2 0x1CF JUMPI PUSH1 0x0 DUP1 REVERT JUMPDEST POP GAS CALL ISZERO DUP1 ISZERO PUSH2 0x1E3 JUMPI RETURNDATASIZE PUSH1 0x0 DUP1 RETURNDATACOPY RETURNDATASIZE PUSH1 0x0 REVERT JUMPDEST POP POP POP POP POP POP POP POP POP POP JUMP JUMPDEST PUSH1 0x0 DUP2 CALLDATALOAD SWAP1 POP PUSH2 0x1FE DUP2 PUSH2 0x3D1 JUMP JUMPDEST SWAP3 SWAP2 POP POP JUMP JUMPDEST PUSH1 0x0 DUP2 CALLDATALOAD SWAP1 POP PUSH2 0x213 DUP2 PUSH2 0x3E8 JUMP JUMPDEST SWAP3 SWAP2 POP POP JUMP JUMPDEST PUSH1 0x0 DUP1 PUSH1 0x0 DUP1 PUSH1 0x0 DUP1 PUSH1 0xC0 DUP8 DUP10 SUB SLT ISZERO PUSH2 0x236 JUMPI PUSH2 0x235 PUSH2 0x3CC JUMP JUMPDEST JUMPDEST PUSH1 0x0 PUSH2 0x244 DUP10 DUP3 DUP11 ADD PUSH2 0x1EF JUMP JUMPDEST SWAP7 POP POP PUSH1 0x20 PUSH2 0x255 DUP10 DUP3 DUP11 ADD PUSH2 0x1EF JUMP JUMPDEST SWAP6 POP POP PUSH1 0x40 PUSH2 0x266 DUP10 DUP3 DUP11 ADD PUSH2 0x204 JUMP JUMPDEST SWAP5 POP POP PUSH1 0x60 PUSH2 0x277 DUP10 DUP3 DUP11 ADD PUSH2 0x1EF JUMP JUMPDEST SWAP4 POP POP PUSH1 0x80 PUSH2 0x288 DUP10 DUP3 DUP11 ADD PUSH2 0x204 JUMP JUMPDEST SWAP3 POP POP PUSH1 0xA0 PUSH2 0x299 DUP10 DUP3 DUP11 ADD PUSH2 0x204 JUMP JUMPDEST SWAP2 POP POP SWAP3 SWAP6 POP SWAP3 SWAP6 POP SWAP3 SWAP6 JUMP JUMPDEST PUSH2 0x2AF DUP2 PUSH2 0x36A JUMP JUMPDEST DUP3 MSTORE POP POP JUMP JUMPDEST PUSH2 0x2BE DUP2 PUSH2 0x37C JUMP JUMPDEST DUP3 MSTORE POP POP JUMP JUMPDEST PUSH2 0x2CD DUP2 PUSH2 0x3BA JUMP JUMPDEST DUP3 MSTORE POP POP JUMP JUMPDEST PUSH1 0x0 PUSH1 0x20 DUP3 ADD SWAP1 POP PUSH2 0x2E8 PUSH1 0x0 DUP4 ADD DUP5 PUSH2 0x2A6 JUMP JUMPDEST SWAP3 SWAP2 POP POP JUMP JUMPDEST PUSH1 0x0 PUSH1 0x40 DUP3 ADD SWAP1 POP PUSH2 0x303 PUSH1 0x0 DUP4 ADD DUP6 PUSH2 0x2B5 JUMP JUMPDEST PUSH2 0x310 PUSH1 0x20 DUP4 ADD DUP5 PUSH2 0x2A6 JUMP JUMPDEST SWAP4 SWAP3 POP POP POP JUMP JUMPDEST PUSH1 0x0 PUSH1 0xA0 DUP3 ADD SWAP1 POP PUSH2 0x32C PUSH1 0x0 DUP4 ADD DUP9 PUSH2 0x2B5 JUMP JUMPDEST PUSH2 0x339 PUSH1 0x20 DUP4 ADD DUP8 PUSH2 0x2B5 JUMP JUMPDEST PUSH2 0x346 PUSH1 0x40 DUP4 ADD DUP7 PUSH2 0x2A6 JUMP JUMPDEST PUSH2 0x353 PUSH1 0x60 DUP4 ADD DUP6 PUSH2 0x2A6 JUMP JUMPDEST PUSH2 0x360 PUSH1 0x80 DUP4 ADD DUP5 PUSH2 0x2C4 JUMP JUMPDEST SWAP7 SWAP6 POP POP POP POP POP POP JUMP JUMPDEST PUSH1 0x0 PUSH2 0x375 DUP3 PUSH2 0x386 JUMP JUMPDEST SWAP1 POP SWAP2 SWAP1 POP JUMP JUMPDEST PUSH1 0x0 DUP2 SWAP1 POP SWAP2 SWAP1 POP JUMP JUMPDEST PUSH1 0x0 PUSH20 0xFFFFFFFFFFFFFFFFFFFFFFFFFFFFFFFFFFFFFFFF DUP3 AND SWAP1 POP SWAP2 SWAP1 POP JUMP JUMPDEST PUSH1 0x0 PUSH8 0xFFFFFFFFFFFFFFFF DUP3 AND SWAP1 POP SWAP2 SWAP1 POP JUMP JUMPDEST PUSH1 0x0 PUSH2 0x3C5 DUP3 PUSH2 0x3A6 JUMP JUMPDEST SWAP1 POP SWAP2 SWAP1 POP JUMP JUMPDEST PUSH1 0x0 DUP1 REVERT JUMPDEST PUSH2 0x3DA DUP2 PUSH2 0x36A JUMP JUMPDEST DUP2 EQ PUSH2 0x3E5 JUMPI PUSH1 0x0 DUP1 REVERT JUMPDEST POP JUMP JUMPDEST PUSH2 0x3F1 DUP2 PUSH2 0x37C JUMP JUMPDEST DUP2 EQ PUSH2 0x3FC JUMPI PUSH1 0x0 DUP1 REVERT JUMPDEST POP JUMP INVALID LOG2 PUSH5 0x6970667358 0x22 SLT KECCAK256 0xD4 0xF7 DELEGATECALL 0xBA JUMPDEST PUSH16 0x26FE9490E30EF90084123316D414705D 0x2D 0xE6 DUP14 0xCD 0xAB DUP1 0xAA PUSH18 0x809C64736F6C634300080700330000000000 "
				},
				"gasEstimates": {
					"creation": {
						"codeDepositCost": "215400",
						"executionCost": "24524",
						"totalCost": "239924"
					},
					"external": {
						"resolver()": "2489",
						"setSubNode(address,address,bytes32,address,bytes32,bytes32)": "infinite"
					}
				},
				"methodIdentifiers": {
					"resolver()": "04f3bcec",
					"setSubNode(address,address,bytes32,address,bytes32,bytes32)": "b99f0ab4"
				}
			},
			"storageLayout": {
				"storage": [
					{
						"astId": 44,
						"contract": "Ethereum/ENS/contracts/ENSHandler.sol:ENSHandler",
						"label": "resolver",
						"offset": 0,
						"slot": "0",
						"type": "t_address"
					}
				],
				"types": {
					"t_address": {
						"encoding": "inplace",
						"label": "address",
						"numberOfBytes": "20"
					}
				}
			},
			"userdoc": {
				"kind": "user",
				"methods": {},
				"version": 1
			}
		}
	}
}