{
	"Ethereum/ENS/contracts/ENSHandler.sol": {
		"ENSHandler": {
			"abi": [
				{
					"inputs": [
						{
							"internalType": "address",
							"name": "_resolver",
							"type": "address"
						},
						{
							"internalType": "address",
							"name": "_ens",
							"type": "address"
						},
						{
							"internalType": "address",
							"name": "_target",
							"type": "address"
						},
						{
							"internalType": "bytes32",
							"name": "_label",
							"type": "bytes32"
						},
						{
							"internalType": "bytes32",
							"name": "_subNodeHash",
							"type": "bytes32"
						}
					],
					"name": "setSubNode",
					"outputs": [],
					"stateMutability": "nonpayable",
					"type": "function"
				}
			],
			"devdoc": {
				"kind": "dev",
				"methods": {},
				"version": 1
			},
			"evm": {
				"assembly": "    /* \"Ethereum/ENS/contracts/ENSHandler.sol\":434:885  contract ENSHandler {... */\n  mstore(0x40, 0x80)\n    /* \"Ethereum/ENS/contracts/ENSHandler.sol\":488:554  0xfd7f5c28743a891291f9f9971b1e06920f5a26919632c52b05c186bbc4d2fb54 */\n  0xfd7f5c28743a891291f9f9971b1e06920f5a26919632c52b05c186bbc4d2fb54\n    /* \"Ethereum/ENS/contracts/ENSHandler.sol\":460:554  bytes32 private _rootNode = 0xfd7f5c28743a891291f9f9971b1e06920f5a26919632c52b05c186bbc4d2fb54 */\n  0x00\n  shl\n  0x00\n  sstore\n    /* \"Ethereum/ENS/contracts/ENSHandler.sol\":434:885  contract ENSHandler {... */\n  callvalue\n  dup1\n  iszero\n  tag_1\n  jumpi\n  0x00\n  dup1\n  revert\ntag_1:\n  pop\n  dataSize(sub_0)\n  dup1\n  dataOffset(sub_0)\n  0x00\n  codecopy\n  0x00\n  return\nstop\n\nsub_0: assembly {\n        /* \"Ethereum/ENS/contracts/ENSHandler.sol\":434:885  contract ENSHandler {... */\n      mstore(0x40, 0x80)\n      callvalue\n      dup1\n      iszero\n      tag_1\n      jumpi\n      0x00\n      dup1\n      revert\n    tag_1:\n      pop\n      jumpi(tag_2, lt(calldatasize, 0x04))\n      shr(0xe0, calldataload(0x00))\n      dup1\n      0x56dcbdc0\n      eq\n      tag_3\n      jumpi\n    tag_2:\n      0x00\n      dup1\n      revert\n        /* \"Ethereum/ENS/contracts/ENSHandler.sol\":561:883  function setSubNode(address _resolver, address _ens, address _target, bytes32 _label, bytes32 _subNodeHash) external {... */\n    tag_3:\n      tag_4\n      0x04\n      dup1\n      calldatasize\n      sub\n      dup2\n      add\n      swap1\n      tag_5\n      swap2\n      swap1\n      tag_6\n      jump\t// in\n    tag_5:\n      tag_7\n      jump\t// in\n    tag_4:\n      stop\n    tag_7:\n        /* \"Ethereum/ENS/contracts/ENSHandler.sol\":692:696  _ens */\n      dup4\n        /* \"Ethereum/ENS/contracts/ENSHandler.sol\":688:714  ENS(_ens).setSubnodeRecord */\n      0xffffffffffffffffffffffffffffffffffffffff\n      and\n      0x5ef2c7f0\n        /* \"Ethereum/ENS/contracts/ENSHandler.sol\":715:724  _rootNode */\n      sload(0x00)\n        /* \"Ethereum/ENS/contracts/ENSHandler.sol\":726:732  _label */\n      dup5\n        /* \"Ethereum/ENS/contracts/ENSHandler.sol\":742:746  this */\n      address\n        /* \"Ethereum/ENS/contracts/ENSHandler.sol\":749:758  _resolver */\n      dup10\n        /* \"Ethereum/ENS/contracts/ENSHandler.sol\":760:761  0 */\n      0x00\n        /* \"Ethereum/ENS/contracts/ENSHandler.sol\":688:762  ENS(_ens).setSubnodeRecord(_rootNode, _label, address(this), _resolver, 0) */\n      mload(0x40)\n      dup7\n      0xffffffff\n      and\n      0xe0\n      shl\n      dup2\n      mstore\n      0x04\n      add\n      tag_9\n      swap6\n      swap5\n      swap4\n      swap3\n      swap2\n      swap1\n      tag_10\n      jump\t// in\n    tag_9:\n      0x00\n      mload(0x40)\n      dup1\n      dup4\n      sub\n      dup2\n      0x00\n      dup8\n      dup1\n      extcodesize\n      iszero\n      dup1\n      iszero\n      tag_11\n      jumpi\n      0x00\n      dup1\n      revert\n    tag_11:\n      pop\n      gas\n      call\n      iszero\n      dup1\n      iszero\n      tag_13\n      jumpi\n      returndatasize\n      0x00\n      dup1\n      returndatacopy\n      revert(0x00, returndatasize)\n    tag_13:\n      pop\n      pop\n      pop\n      pop\n        /* \"Ethereum/ENS/contracts/ENSHandler.sol\":784:793  _resolver */\n      dup5\n        /* \"Ethereum/ENS/contracts/ENSHandler.sol\":772:802  ENSResolver(_resolver).setAddr */\n      0xffffffffffffffffffffffffffffffffffffffff\n      and\n      0xd5fa2b00\n        /* \"Ethereum/ENS/contracts/ENSHandler.sol\":803:815  _subNodeHash */\n      dup3\n        /* \"Ethereum/ENS/contracts/ENSHandler.sol\":817:824  _target */\n      dup6\n        /* \"Ethereum/ENS/contracts/ENSHandler.sol\":772:825  ENSResolver(_resolver).setAddr(_subNodeHash, _target) */\n      mload(0x40)\n      dup4\n      0xffffffff\n      and\n      0xe0\n      shl\n      dup2\n      mstore\n      0x04\n      add\n      tag_14\n      swap3\n      swap2\n      swap1\n      tag_15\n      jump\t// in\n    tag_14:\n      0x00\n      mload(0x40)\n      dup1\n      dup4\n      sub\n      dup2\n      0x00\n      dup8\n      dup1\n      extcodesize\n      iszero\n      dup1\n      iszero\n      tag_16\n      jumpi\n      0x00\n      dup1\n      revert\n    tag_16:\n      pop\n      gas\n      call\n      iszero\n      dup1\n      iszero\n      tag_18\n      jumpi\n      returndatasize\n      0x00\n      dup1\n      returndatacopy\n      revert(0x00, returndatasize)\n    tag_18:\n      pop\n      pop\n      pop\n      pop\n        /* \"Ethereum/ENS/contracts/ENSHandler.sol\":839:843  _ens */\n      dup4\n        /* \"Ethereum/ENS/contracts/ENSHandler.sol\":835:853  ENS(_ens).setOwner */\n      0xffffffffffffffffffffffffffffffffffffffff\n      and\n      0x5b0fc9c3\n        /* \"Ethereum/ENS/contracts/ENSHandler.sol\":854:866  _subNodeHash */\n      dup3\n        /* \"Ethereum/ENS/contracts/ENSHandler.sol\":868:875  _target */\n      dup6\n        /* \"Ethereum/ENS/contracts/ENSHandler.sol\":835:876  ENS(_ens).setOwner(_subNodeHash, _target) */\n      mload(0x40)\n      dup4\n      0xffffffff\n      and\n      0xe0\n      shl\n      dup2\n      mstore\n      0x04\n      add\n      tag_19\n      swap3\n      swap2\n      swap1\n      tag_15\n      jump\t// in\n    tag_19:\n      0x00\n      mload(0x40)\n      dup1\n      dup4\n      sub\n      dup2\n      0x00\n      dup8\n      dup1\n      extcodesize\n      iszero\n      dup1\n      iszero\n      tag_20\n      jumpi\n      0x00\n      dup1\n      revert\n    tag_20:\n      pop\n      gas\n      call\n      iszero\n      dup1\n      iszero\n      tag_22\n      jumpi\n      returndatasize\n      0x00\n      dup1\n      returndatacopy\n      revert(0x00, returndatasize)\n    tag_22:\n      pop\n      pop\n      pop\n      pop\n        /* \"Ethereum/ENS/contracts/ENSHandler.sol\":561:883  function setSubNode(address _resolver, address _ens, address _target, bytes32 _label, bytes32 _subNodeHash) external {... */\n      pop\n      pop\n      pop\n      pop\n      pop\n      jump\t// out\n        /* \"#utility.yul\":7:146   */\n    tag_24:\n        /* \"#utility.yul\":53:58   */\n      0x00\n        /* \"#utility.yul\":91:97   */\n      dup2\n        /* \"#utility.yul\":78:98   */\n      calldataload\n        /* \"#utility.yul\":69:98   */\n      swap1\n      pop\n        /* \"#utility.yul\":107:140   */\n      tag_26\n        /* \"#utility.yul\":134:139   */\n      dup2\n        /* \"#utility.yul\":107:140   */\n      tag_27\n      jump\t// in\n    tag_26:\n        /* \"#utility.yul\":7:146   */\n      swap3\n      swap2\n      pop\n      pop\n      jump\t// out\n        /* \"#utility.yul\":152:291   */\n    tag_28:\n        /* \"#utility.yul\":198:203   */\n      0x00\n        /* \"#utility.yul\":236:242   */\n      dup2\n        /* \"#utility.yul\":223:243   */\n      calldataload\n        /* \"#utility.yul\":214:243   */\n      swap1\n      pop\n        /* \"#utility.yul\":252:285   */\n      tag_30\n        /* \"#utility.yul\":279:284   */\n      dup2\n        /* \"#utility.yul\":252:285   */\n      tag_31\n      jump\t// in\n    tag_30:\n        /* \"#utility.yul\":152:291   */\n      swap3\n      swap2\n      pop\n      pop\n      jump\t// out\n        /* \"#utility.yul\":297:1208   */\n    tag_6:\n        /* \"#utility.yul\":392:398   */\n      0x00\n        /* \"#utility.yul\":400:406   */\n      dup1\n        /* \"#utility.yul\":408:414   */\n      0x00\n        /* \"#utility.yul\":416:422   */\n      dup1\n        /* \"#utility.yul\":424:430   */\n      0x00\n        /* \"#utility.yul\":473:476   */\n      0xa0\n        /* \"#utility.yul\":461:470   */\n      dup7\n        /* \"#utility.yul\":452:459   */\n      dup9\n        /* \"#utility.yul\":448:471   */\n      sub\n        /* \"#utility.yul\":444:477   */\n      slt\n        /* \"#utility.yul\":441:561   */\n      iszero\n      tag_33\n      jumpi\n        /* \"#utility.yul\":480:559   */\n      tag_34\n      tag_35\n      jump\t// in\n    tag_34:\n        /* \"#utility.yul\":441:561   */\n    tag_33:\n        /* \"#utility.yul\":600:601   */\n      0x00\n        /* \"#utility.yul\":625:678   */\n      tag_36\n        /* \"#utility.yul\":670:677   */\n      dup9\n        /* \"#utility.yul\":661:667   */\n      dup3\n        /* \"#utility.yul\":650:659   */\n      dup10\n        /* \"#utility.yul\":646:668   */\n      add\n        /* \"#utility.yul\":625:678   */\n      tag_24\n      jump\t// in\n    tag_36:\n        /* \"#utility.yul\":615:678   */\n      swap6\n      pop\n        /* \"#utility.yul\":571:688   */\n      pop\n        /* \"#utility.yul\":727:729   */\n      0x20\n        /* \"#utility.yul\":753:806   */\n      tag_37\n        /* \"#utility.yul\":798:805   */\n      dup9\n        /* \"#utility.yul\":789:795   */\n      dup3\n        /* \"#utility.yul\":778:787   */\n      dup10\n        /* \"#utility.yul\":774:796   */\n      add\n        /* \"#utility.yul\":753:806   */\n      tag_24\n      jump\t// in\n    tag_37:\n        /* \"#utility.yul\":743:806   */\n      swap5\n      pop\n        /* \"#utility.yul\":698:816   */\n      pop\n        /* \"#utility.yul\":855:857   */\n      0x40\n        /* \"#utility.yul\":881:934   */\n      tag_38\n        /* \"#utility.yul\":926:933   */\n      dup9\n        /* \"#utility.yul\":917:923   */\n      dup3\n        /* \"#utility.yul\":906:915   */\n      dup10\n        /* \"#utility.yul\":902:924   */\n      add\n        /* \"#utility.yul\":881:934   */\n      tag_24\n      jump\t// in\n    tag_38:\n        /* \"#utility.yul\":871:934   */\n      swap4\n      pop\n        /* \"#utility.yul\":826:944   */\n      pop\n        /* \"#utility.yul\":983:985   */\n      0x60\n        /* \"#utility.yul\":1009:1062   */\n      tag_39\n        /* \"#utility.yul\":1054:1061   */\n      dup9\n        /* \"#utility.yul\":1045:1051   */\n      dup3\n        /* \"#utility.yul\":1034:1043   */\n      dup10\n        /* \"#utility.yul\":1030:1052   */\n      add\n        /* \"#utility.yul\":1009:1062   */\n      tag_28\n      jump\t// in\n    tag_39:\n        /* \"#utility.yul\":999:1062   */\n      swap3\n      pop\n        /* \"#utility.yul\":954:1072   */\n      pop\n        /* \"#utility.yul\":1111:1114   */\n      0x80\n        /* \"#utility.yul\":1138:1191   */\n      tag_40\n        /* \"#utility.yul\":1183:1190   */\n      dup9\n        /* \"#utility.yul\":1174:1180   */\n      dup3\n        /* \"#utility.yul\":1163:1172   */\n      dup10\n        /* \"#utility.yul\":1159:1181   */\n      add\n        /* \"#utility.yul\":1138:1191   */\n      tag_28\n      jump\t// in\n    tag_40:\n        /* \"#utility.yul\":1128:1191   */\n      swap2\n      pop\n        /* \"#utility.yul\":1082:1201   */\n      pop\n        /* \"#utility.yul\":297:1208   */\n      swap3\n      swap6\n      pop\n      swap3\n      swap6\n      swap1\n      swap4\n      pop\n      jump\t// out\n        /* \"#utility.yul\":1214:1332   */\n    tag_41:\n        /* \"#utility.yul\":1301:1325   */\n      tag_43\n        /* \"#utility.yul\":1319:1324   */\n      dup2\n        /* \"#utility.yul\":1301:1325   */\n      tag_44\n      jump\t// in\n    tag_43:\n        /* \"#utility.yul\":1296:1299   */\n      dup3\n        /* \"#utility.yul\":1289:1326   */\n      mstore\n        /* \"#utility.yul\":1214:1332   */\n      pop\n      pop\n      jump\t// out\n        /* \"#utility.yul\":1338:1456   */\n    tag_45:\n        /* \"#utility.yul\":1425:1449   */\n      tag_47\n        /* \"#utility.yul\":1443:1448   */\n      dup2\n        /* \"#utility.yul\":1425:1449   */\n      tag_48\n      jump\t// in\n    tag_47:\n        /* \"#utility.yul\":1420:1423   */\n      dup3\n        /* \"#utility.yul\":1413:1450   */\n      mstore\n        /* \"#utility.yul\":1338:1456   */\n      pop\n      pop\n      jump\t// out\n        /* \"#utility.yul\":1462:1607   */\n    tag_49:\n        /* \"#utility.yul\":1556:1600   */\n      tag_51\n        /* \"#utility.yul\":1594:1599   */\n      dup2\n        /* \"#utility.yul\":1556:1600   */\n      tag_52\n      jump\t// in\n    tag_51:\n        /* \"#utility.yul\":1551:1554   */\n      dup3\n        /* \"#utility.yul\":1544:1601   */\n      mstore\n        /* \"#utility.yul\":1462:1607   */\n      pop\n      pop\n      jump\t// out\n        /* \"#utility.yul\":1613:1945   */\n    tag_15:\n        /* \"#utility.yul\":1734:1738   */\n      0x00\n        /* \"#utility.yul\":1772:1774   */\n      0x40\n        /* \"#utility.yul\":1761:1770   */\n      dup3\n        /* \"#utility.yul\":1757:1775   */\n      add\n        /* \"#utility.yul\":1749:1775   */\n      swap1\n      pop\n        /* \"#utility.yul\":1785:1856   */\n      tag_54\n        /* \"#utility.yul\":1853:1854   */\n      0x00\n        /* \"#utility.yul\":1842:1851   */\n      dup4\n        /* \"#utility.yul\":1838:1855   */\n      add\n        /* \"#utility.yul\":1829:1835   */\n      dup6\n        /* \"#utility.yul\":1785:1856   */\n      tag_45\n      jump\t// in\n    tag_54:\n        /* \"#utility.yul\":1866:1938   */\n      tag_55\n        /* \"#utility.yul\":1934:1936   */\n      0x20\n        /* \"#utility.yul\":1923:1932   */\n      dup4\n        /* \"#utility.yul\":1919:1937   */\n      add\n        /* \"#utility.yul\":1910:1916   */\n      dup5\n        /* \"#utility.yul\":1866:1938   */\n      tag_41\n      jump\t// in\n    tag_55:\n        /* \"#utility.yul\":1613:1945   */\n      swap4\n      swap3\n      pop\n      pop\n      pop\n      jump\t// out\n        /* \"#utility.yul\":1951:2629   */\n    tag_10:\n        /* \"#utility.yul\":2163:2167   */\n      0x00\n        /* \"#utility.yul\":2201:2204   */\n      0xa0\n        /* \"#utility.yul\":2190:2199   */\n      dup3\n        /* \"#utility.yul\":2186:2205   */\n      add\n        /* \"#utility.yul\":2178:2205   */\n      swap1\n      pop\n        /* \"#utility.yul\":2215:2286   */\n      tag_57\n        /* \"#utility.yul\":2283:2284   */\n      0x00\n        /* \"#utility.yul\":2272:2281   */\n      dup4\n        /* \"#utility.yul\":2268:2285   */\n      add\n        /* \"#utility.yul\":2259:2265   */\n      dup9\n        /* \"#utility.yul\":2215:2286   */\n      tag_45\n      jump\t// in\n    tag_57:\n        /* \"#utility.yul\":2296:2368   */\n      tag_58\n        /* \"#utility.yul\":2364:2366   */\n      0x20\n        /* \"#utility.yul\":2353:2362   */\n      dup4\n        /* \"#utility.yul\":2349:2367   */\n      add\n        /* \"#utility.yul\":2340:2346   */\n      dup8\n        /* \"#utility.yul\":2296:2368   */\n      tag_45\n      jump\t// in\n    tag_58:\n        /* \"#utility.yul\":2378:2450   */\n      tag_59\n        /* \"#utility.yul\":2446:2448   */\n      0x40\n        /* \"#utility.yul\":2435:2444   */\n      dup4\n        /* \"#utility.yul\":2431:2449   */\n      add\n        /* \"#utility.yul\":2422:2428   */\n      dup7\n        /* \"#utility.yul\":2378:2450   */\n      tag_41\n      jump\t// in\n    tag_59:\n        /* \"#utility.yul\":2460:2532   */\n      tag_60\n        /* \"#utility.yul\":2528:2530   */\n      0x60\n        /* \"#utility.yul\":2517:2526   */\n      dup4\n        /* \"#utility.yul\":2513:2531   */\n      add\n        /* \"#utility.yul\":2504:2510   */\n      dup6\n        /* \"#utility.yul\":2460:2532   */\n      tag_41\n      jump\t// in\n    tag_60:\n        /* \"#utility.yul\":2542:2622   */\n      tag_61\n        /* \"#utility.yul\":2617:2620   */\n      0x80\n        /* \"#utility.yul\":2606:2615   */\n      dup4\n        /* \"#utility.yul\":2602:2621   */\n      add\n        /* \"#utility.yul\":2593:2599   */\n      dup5\n        /* \"#utility.yul\":2542:2622   */\n      tag_49\n      jump\t// in\n    tag_61:\n        /* \"#utility.yul\":1951:2629   */\n      swap7\n      swap6\n      pop\n      pop\n      pop\n      pop\n      pop\n      pop\n      jump\t// out\n        /* \"#utility.yul\":2716:2812   */\n    tag_44:\n        /* \"#utility.yul\":2753:2760   */\n      0x00\n        /* \"#utility.yul\":2782:2806   */\n      tag_65\n        /* \"#utility.yul\":2800:2805   */\n      dup3\n        /* \"#utility.yul\":2782:2806   */\n      tag_66\n      jump\t// in\n    tag_65:\n        /* \"#utility.yul\":2771:2806   */\n      swap1\n      pop\n        /* \"#utility.yul\":2716:2812   */\n      swap2\n      swap1\n      pop\n      jump\t// out\n        /* \"#utility.yul\":2818:2895   */\n    tag_48:\n        /* \"#utility.yul\":2855:2862   */\n      0x00\n        /* \"#utility.yul\":2884:2889   */\n      dup2\n        /* \"#utility.yul\":2873:2889   */\n      swap1\n      pop\n        /* \"#utility.yul\":2818:2895   */\n      swap2\n      swap1\n      pop\n      jump\t// out\n        /* \"#utility.yul\":2901:3027   */\n    tag_66:\n        /* \"#utility.yul\":2938:2945   */\n      0x00\n        /* \"#utility.yul\":2978:3020   */\n      0xffffffffffffffffffffffffffffffffffffffff\n        /* \"#utility.yul\":2971:2976   */\n      dup3\n        /* \"#utility.yul\":2967:3021   */\n      and\n        /* \"#utility.yul\":2956:3021   */\n      swap1\n      pop\n        /* \"#utility.yul\":2901:3027   */\n      swap2\n      swap1\n      pop\n      jump\t// out\n        /* \"#utility.yul\":3033:3134   */\n    tag_69:\n        /* \"#utility.yul\":3069:3076   */\n      0x00\n        /* \"#utility.yul\":3109:3127   */\n      0xffffffffffffffff\n        /* \"#utility.yul\":3102:3107   */\n      dup3\n        /* \"#utility.yul\":3098:3128   */\n      and\n        /* \"#utility.yul\":3087:3128   */\n      swap1\n      pop\n        /* \"#utility.yul\":3033:3134   */\n      swap2\n      swap1\n      pop\n      jump\t// out\n        /* \"#utility.yul\":3140:3259   */\n    tag_52:\n        /* \"#utility.yul\":3197:3206   */\n      0x00\n        /* \"#utility.yul\":3230:3253   */\n      tag_72\n        /* \"#utility.yul\":3247:3252   */\n      dup3\n        /* \"#utility.yul\":3230:3253   */\n      tag_69\n      jump\t// in\n    tag_72:\n        /* \"#utility.yul\":3217:3253   */\n      swap1\n      pop\n        /* \"#utility.yul\":3140:3259   */\n      swap2\n      swap1\n      pop\n      jump\t// out\n        /* \"#utility.yul\":3388:3505   */\n    tag_35:\n        /* \"#utility.yul\":3497:3498   */\n      0x00\n        /* \"#utility.yul\":3494:3495   */\n      dup1\n        /* \"#utility.yul\":3487:3499   */\n      revert\n        /* \"#utility.yul\":3511:3633   */\n    tag_27:\n        /* \"#utility.yul\":3584:3608   */\n      tag_77\n        /* \"#utility.yul\":3602:3607   */\n      dup2\n        /* \"#utility.yul\":3584:3608   */\n      tag_44\n      jump\t// in\n    tag_77:\n        /* \"#utility.yul\":3577:3582   */\n      dup2\n        /* \"#utility.yul\":3574:3609   */\n      eq\n        /* \"#utility.yul\":3564:3627   */\n      tag_78\n      jumpi\n        /* \"#utility.yul\":3623:3624   */\n      0x00\n        /* \"#utility.yul\":3620:3621   */\n      dup1\n        /* \"#utility.yul\":3613:3625   */\n      revert\n        /* \"#utility.yul\":3564:3627   */\n    tag_78:\n        /* \"#utility.yul\":3511:3633   */\n      pop\n      jump\t// out\n        /* \"#utility.yul\":3639:3761   */\n    tag_31:\n        /* \"#utility.yul\":3712:3736   */\n      tag_80\n        /* \"#utility.yul\":3730:3735   */\n      dup2\n        /* \"#utility.yul\":3712:3736   */\n      tag_48\n      jump\t// in\n    tag_80:\n        /* \"#utility.yul\":3705:3710   */\n      dup2\n        /* \"#utility.yul\":3702:3737   */\n      eq\n        /* \"#utility.yul\":3692:3755   */\n      tag_81\n      jumpi\n        /* \"#utility.yul\":3751:3752   */\n      0x00\n        /* \"#utility.yul\":3748:3749   */\n      dup1\n        /* \"#utility.yul\":3741:3753   */\n      revert\n        /* \"#utility.yul\":3692:3755   */\n    tag_81:\n        /* \"#utility.yul\":3639:3761   */\n      pop\n      jump\t// out\n\n    auxdata: 0xa26469706673582212202abef9aeb9e519718320b6545d8c22826ff9654f08b5f91b53012b0fc06a848e64736f6c63430008070033\n}\n",
				"bytecode": {
					"linkReferences": {},
					"object": "60806040527ffd7f5c28743a891291f9f9971b1e06920f5a26919632c52b05c186bbc4d2fb5460001b60005534801561003757600080fd5b506103bc806100476000396000f3fe608060405234801561001057600080fd5b506004361061002b5760003560e01c806356dcbdc014610030575b600080fd5b61004a600480360381019061004591906101cd565b61004c565b005b8373ffffffffffffffffffffffffffffffffffffffff16635ef2c7f060005484308960006040518663ffffffff1660e01b815260040161009095949392919061029e565b600060405180830381600087803b1580156100aa57600080fd5b505af11580156100be573d6000803e3d6000fd5b505050508473ffffffffffffffffffffffffffffffffffffffff1663d5fa2b0082856040518363ffffffff1660e01b81526004016100fd929190610275565b600060405180830381600087803b15801561011757600080fd5b505af115801561012b573d6000803e3d6000fd5b505050508373ffffffffffffffffffffffffffffffffffffffff16635b0fc9c382856040518363ffffffff1660e01b815260040161016a929190610275565b600060405180830381600087803b15801561018457600080fd5b505af1158015610198573d6000803e3d6000fd5b505050505050505050565b6000813590506101b281610358565b92915050565b6000813590506101c78161036f565b92915050565b600080600080600060a086880312156101e9576101e8610353565b5b60006101f7888289016101a3565b9550506020610208888289016101a3565b9450506040610219888289016101a3565b935050606061022a888289016101b8565b925050608061023b888289016101b8565b9150509295509295909350565b610251816102f1565b82525050565b61026081610303565b82525050565b61026f81610341565b82525050565b600060408201905061028a6000830185610257565b6102976020830184610248565b9392505050565b600060a0820190506102b36000830188610257565b6102c06020830187610257565b6102cd6040830186610248565b6102da6060830185610248565b6102e76080830184610266565b9695505050505050565b60006102fc8261030d565b9050919050565b6000819050919050565b600073ffffffffffffffffffffffffffffffffffffffff82169050919050565b600067ffffffffffffffff82169050919050565b600061034c8261032d565b9050919050565b600080fd5b610361816102f1565b811461036c57600080fd5b50565b61037881610303565b811461038357600080fd5b5056fea26469706673582212202abef9aeb9e519718320b6545d8c22826ff9654f08b5f91b53012b0fc06a848e64736f6c63430008070033",
					"opcodes": "PUSH1 0x80 PUSH1 0x40 MSTORE PUSH32 0xFD7F5C28743A891291F9F9971B1E06920F5A26919632C52B05C186BBC4D2FB54 PUSH1 0x0 SHL PUSH1 0x0 SSTORE CALLVALUE DUP1 ISZERO PUSH2 0x37 JUMPI PUSH1 0x0 DUP1 REVERT JUMPDEST POP PUSH2 0x3BC DUP1 PUSH2 0x47 PUSH1 0x0 CODECOPY PUSH1 0x0 RETURN INVALID PUSH1 0x80 PUSH1 0x40 MSTORE CALLVALUE DUP1 ISZERO PUSH2 0x10 JUMPI PUSH1 0x0 DUP1 REVERT JUMPDEST POP PUSH1 0x4 CALLDATASIZE LT PUSH2 0x2B JUMPI PUSH1 0x0 CALLDATALOAD PUSH1 0xE0 SHR DUP1 PUSH4 0x56DCBDC0 EQ PUSH2 0x30 JUMPI JUMPDEST PUSH1 0x0 DUP1 REVERT JUMPDEST PUSH2 0x4A PUSH1 0x4 DUP1 CALLDATASIZE SUB DUP2 ADD SWAP1 PUSH2 0x45 SWAP2 SWAP1 PUSH2 0x1CD JUMP JUMPDEST PUSH2 0x4C JUMP JUMPDEST STOP JUMPDEST DUP4 PUSH20 0xFFFFFFFFFFFFFFFFFFFFFFFFFFFFFFFFFFFFFFFF AND PUSH4 0x5EF2C7F0 PUSH1 0x0 SLOAD DUP5 ADDRESS DUP10 PUSH1 0x0 PUSH1 0x40 MLOAD DUP7 PUSH4 0xFFFFFFFF AND PUSH1 0xE0 SHL DUP2 MSTORE PUSH1 0x4 ADD PUSH2 0x90 SWAP6 SWAP5 SWAP4 SWAP3 SWAP2 SWAP1 PUSH2 0x29E JUMP JUMPDEST PUSH1 0x0 PUSH1 0x40 MLOAD DUP1 DUP4 SUB DUP2 PUSH1 0x0 DUP8 DUP1 EXTCODESIZE ISZERO DUP1 ISZERO PUSH2 0xAA JUMPI PUSH1 0x0 DUP1 REVERT JUMPDEST POP GAS CALL ISZERO DUP1 ISZERO PUSH2 0xBE JUMPI RETURNDATASIZE PUSH1 0x0 DUP1 RETURNDATACOPY RETURNDATASIZE PUSH1 0x0 REVERT JUMPDEST POP POP POP POP DUP5 PUSH20 0xFFFFFFFFFFFFFFFFFFFFFFFFFFFFFFFFFFFFFFFF AND PUSH4 0xD5FA2B00 DUP3 DUP6 PUSH1 0x40 MLOAD DUP4 PUSH4 0xFFFFFFFF AND PUSH1 0xE0 SHL DUP2 MSTORE PUSH1 0x4 ADD PUSH2 0xFD SWAP3 SWAP2 SWAP1 PUSH2 0x275 JUMP JUMPDEST PUSH1 0x0 PUSH1 0x40 MLOAD DUP1 DUP4 SUB DUP2 PUSH1 0x0 DUP8 DUP1 EXTCODESIZE ISZERO DUP1 ISZERO PUSH2 0x117 JUMPI PUSH1 0x0 DUP1 REVERT JUMPDEST POP GAS CALL ISZERO DUP1 ISZERO PUSH2 0x12B JUMPI RETURNDATASIZE PUSH1 0x0 DUP1 RETURNDATACOPY RETURNDATASIZE PUSH1 0x0 REVERT JUMPDEST POP POP POP POP DUP4 PUSH20 0xFFFFFFFFFFFFFFFFFFFFFFFFFFFFFFFFFFFFFFFF AND PUSH4 0x5B0FC9C3 DUP3 DUP6 PUSH1 0x40 MLOAD DUP4 PUSH4 0xFFFFFFFF AND PUSH1 0xE0 SHL DUP2 MSTORE PUSH1 0x4 ADD PUSH2 0x16A SWAP3 SWAP2 SWAP1 PUSH2 0x275 JUMP JUMPDEST PUSH1 0x0 PUSH1 0x40 MLOAD DUP1 DUP4 SUB DUP2 PUSH1 0x0 DUP8 DUP1 EXTCODESIZE ISZERO DUP1 ISZERO PUSH2 0x184 JUMPI PUSH1 0x0 DUP1 REVERT JUMPDEST POP GAS CALL ISZERO DUP1 ISZERO PUSH2 0x198 JUMPI RETURNDATASIZE PUSH1 0x0 DUP1 RETURNDATACOPY RETURNDATASIZE PUSH1 0x0 REVERT JUMPDEST POP POP POP POP POP POP POP POP POP JUMP JUMPDEST PUSH1 0x0 DUP2 CALLDATALOAD SWAP1 POP PUSH2 0x1B2 DUP2 PUSH2 0x358 JUMP JUMPDEST SWAP3 SWAP2 POP POP JUMP JUMPDEST PUSH1 0x0 DUP2 CALLDATALOAD SWAP1 POP PUSH2 0x1C7 DUP2 PUSH2 0x36F JUMP JUMPDEST SWAP3 SWAP2 POP POP JUMP JUMPDEST PUSH1 0x0 DUP1 PUSH1 0x0 DUP1 PUSH1 0x0 PUSH1 0xA0 DUP7 DUP9 SUB SLT ISZERO PUSH2 0x1E9 JUMPI PUSH2 0x1E8 PUSH2 0x353 JUMP JUMPDEST JUMPDEST PUSH1 0x0 PUSH2 0x1F7 DUP9 DUP3 DUP10 ADD PUSH2 0x1A3 JUMP JUMPDEST SWAP6 POP POP PUSH1 0x20 PUSH2 0x208 DUP9 DUP3 DUP10 ADD PUSH2 0x1A3 JUMP JUMPDEST SWAP5 POP POP PUSH1 0x40 PUSH2 0x219 DUP9 DUP3 DUP10 ADD PUSH2 0x1A3 JUMP JUMPDEST SWAP4 POP POP PUSH1 0x60 PUSH2 0x22A DUP9 DUP3 DUP10 ADD PUSH2 0x1B8 JUMP JUMPDEST SWAP3 POP POP PUSH1 0x80 PUSH2 0x23B DUP9 DUP3 DUP10 ADD PUSH2 0x1B8 JUMP JUMPDEST SWAP2 POP POP SWAP3 SWAP6 POP SWAP3 SWAP6 SWAP1 SWAP4 POP JUMP JUMPDEST PUSH2 0x251 DUP2 PUSH2 0x2F1 JUMP JUMPDEST DUP3 MSTORE POP POP JUMP JUMPDEST PUSH2 0x260 DUP2 PUSH2 0x303 JUMP JUMPDEST DUP3 MSTORE POP POP JUMP JUMPDEST PUSH2 0x26F DUP2 PUSH2 0x341 JUMP JUMPDEST DUP3 MSTORE POP POP JUMP JUMPDEST PUSH1 0x0 PUSH1 0x40 DUP3 ADD SWAP1 POP PUSH2 0x28A PUSH1 0x0 DUP4 ADD DUP6 PUSH2 0x257 JUMP JUMPDEST PUSH2 0x297 PUSH1 0x20 DUP4 ADD DUP5 PUSH2 0x248 JUMP JUMPDEST SWAP4 SWAP3 POP POP POP JUMP JUMPDEST PUSH1 0x0 PUSH1 0xA0 DUP3 ADD SWAP1 POP PUSH2 0x2B3 PUSH1 0x0 DUP4 ADD DUP9 PUSH2 0x257 JUMP JUMPDEST PUSH2 0x2C0 PUSH1 0x20 DUP4 ADD DUP8 PUSH2 0x257 JUMP JUMPDEST PUSH2 0x2CD PUSH1 0x40 DUP4 ADD DUP7 PUSH2 0x248 JUMP JUMPDEST PUSH2 0x2DA PUSH1 0x60 DUP4 ADD DUP6 PUSH2 0x248 JUMP JUMPDEST PUSH2 0x2E7 PUSH1 0x80 DUP4 ADD DUP5 PUSH2 0x266 JUMP JUMPDEST SWAP7 SWAP6 POP POP POP POP POP POP JUMP JUMPDEST PUSH1 0x0 PUSH2 0x2FC DUP3 PUSH2 0x30D JUMP JUMPDEST SWAP1 POP SWAP2 SWAP1 POP JUMP JUMPDEST PUSH1 0x0 DUP2 SWAP1 POP SWAP2 SWAP1 POP JUMP JUMPDEST PUSH1 0x0 PUSH20 0xFFFFFFFFFFFFFFFFFFFFFFFFFFFFFFFFFFFFFFFF DUP3 AND SWAP1 POP SWAP2 SWAP1 POP JUMP JUMPDEST PUSH1 0x0 PUSH8 0xFFFFFFFFFFFFFFFF DUP3 AND SWAP1 POP SWAP2 SWAP1 POP JUMP JUMPDEST PUSH1 0x0 PUSH2 0x34C DUP3 PUSH2 0x32D JUMP JUMPDEST SWAP1 POP SWAP2 SWAP1 POP JUMP JUMPDEST PUSH1 0x0 DUP1 REVERT JUMPDEST PUSH2 0x361 DUP2 PUSH2 0x2F1 JUMP JUMPDEST DUP2 EQ PUSH2 0x36C JUMPI PUSH1 0x0 DUP1 REVERT JUMPDEST POP JUMP JUMPDEST PUSH2 0x378 DUP2 PUSH2 0x303 JUMP JUMPDEST DUP2 EQ PUSH2 0x383 JUMPI PUSH1 0x0 DUP1 REVERT JUMPDEST POP JUMP INVALID LOG2 PUSH5 0x6970667358 0x22 SLT KECCAK256 0x2A 0xBE 0xF9 0xAE 0xB9 0xE5 NOT PUSH18 0x8320B6545D8C22826FF9654F08B5F91B5301 0x2B 0xF 0xC0 PUSH11 0x848E64736F6C6343000807 STOP CALLER "
				},
				"gasEstimates": {
					"creation": {
						"codeDepositCost": "191200",
						"executionCost": "22344",
						"totalCost": "213544"
					},
					"external": {
						"setSubNode(address,address,address,bytes32,bytes32)": "infinite"
					}
				},
				"methodIdentifiers": {
					"setSubNode(address,address,address,bytes32,bytes32)": "56dcbdc0"
				}
			},
			"storageLayout": {
				"storage": [
					{
						"astId": 44,
						"contract": "Ethereum/ENS/contracts/ENSHandler.sol:ENSHandler",
						"label": "_rootNode",
						"offset": 0,
						"slot": "0",
						"type": "t_bytes32"
					}
				],
				"types": {
					"t_bytes32": {
						"encoding": "inplace",
						"label": "bytes32",
						"numberOfBytes": "32"
					}
				}
			},
			"userdoc": {
				"kind": "user",
				"methods": {},
				"version": 1
			}
		}
	}
}