{
	"Ethereum/ENS/contracts/ENSHandler.sol": {
		"ENSHadler": {
			"abi": [
				{
					"inputs": [
						{
							"internalType": "address",
							"name": "ENS",
							"type": "address"
						},
						{
							"internalType": "bytes32",
							"name": "node",
							"type": "bytes32"
						},
						{
							"internalType": "bytes32",
							"name": "label",
							"type": "bytes32"
						},
						{
							"internalType": "address",
							"name": "owner",
							"type": "address"
						},
						{
							"internalType": "address",
							"name": "resolver",
							"type": "address"
						},
						{
							"internalType": "uint64",
							"name": "ttl",
							"type": "uint64"
						}
					],
					"name": "setSubNode",
					"outputs": [],
					"stateMutability": "nonpayable",
					"type": "function"
				}
			],
			"devdoc": {
				"kind": "dev",
				"methods": {},
				"version": 1
			},
			"evm": {
				"assembly": "    /* \"Ethereum/ENS/contracts/ENSHandler.sol\":58:328  contract ENSHadler {... */\n  mstore(0x40, 0x80)\n  callvalue\n  dup1\n  iszero\n  tag_1\n  jumpi\n  0x00\n  dup1\n  revert\ntag_1:\n  pop\n  dataSize(sub_0)\n  dup1\n  dataOffset(sub_0)\n  0x00\n  codecopy\n  0x00\n  return\nstop\n\nsub_0: assembly {\n        /* \"Ethereum/ENS/contracts/ENSHandler.sol\":58:328  contract ENSHadler {... */\n      mstore(0x40, 0x80)\n      callvalue\n      dup1\n      iszero\n      tag_1\n      jumpi\n      0x00\n      dup1\n      revert\n    tag_1:\n      pop\n      jumpi(tag_2, lt(calldatasize, 0x04))\n      shr(0xe0, calldataload(0x00))\n      dup1\n      0xff8af7f4\n      eq\n      tag_3\n      jumpi\n    tag_2:\n      0x00\n      dup1\n      revert\n        /* \"Ethereum/ENS/contracts/ENSHandler.sol\":203:326  function setSubNode(address ENS, bytes32 node, bytes32 label, address owner, address resolver, uint64 ttl) external {... */\n    tag_3:\n      tag_4\n      0x04\n      dup1\n      calldatasize\n      sub\n      dup2\n      add\n      swap1\n      tag_5\n      swap2\n      swap1\n      tag_6\n      jump\t// in\n    tag_5:\n      tag_7\n      jump\t// in\n    tag_4:\n      stop\n    tag_7:\n      pop\n      pop\n      pop\n      pop\n      pop\n      pop\n      jump\t// out\n        /* \"#utility.yul\":7:146   */\n    tag_10:\n        /* \"#utility.yul\":53:58   */\n      0x00\n        /* \"#utility.yul\":91:97   */\n      dup2\n        /* \"#utility.yul\":78:98   */\n      calldataload\n        /* \"#utility.yul\":69:98   */\n      swap1\n      pop\n        /* \"#utility.yul\":107:140   */\n      tag_12\n        /* \"#utility.yul\":134:139   */\n      dup2\n        /* \"#utility.yul\":107:140   */\n      tag_13\n      jump\t// in\n    tag_12:\n        /* \"#utility.yul\":7:146   */\n      swap3\n      swap2\n      pop\n      pop\n      jump\t// out\n        /* \"#utility.yul\":152:291   */\n    tag_14:\n        /* \"#utility.yul\":198:203   */\n      0x00\n        /* \"#utility.yul\":236:242   */\n      dup2\n        /* \"#utility.yul\":223:243   */\n      calldataload\n        /* \"#utility.yul\":214:243   */\n      swap1\n      pop\n        /* \"#utility.yul\":252:285   */\n      tag_16\n        /* \"#utility.yul\":279:284   */\n      dup2\n        /* \"#utility.yul\":252:285   */\n      tag_17\n      jump\t// in\n    tag_16:\n        /* \"#utility.yul\":152:291   */\n      swap3\n      swap2\n      pop\n      pop\n      jump\t// out\n        /* \"#utility.yul\":297:434   */\n    tag_18:\n        /* \"#utility.yul\":342:347   */\n      0x00\n        /* \"#utility.yul\":380:386   */\n      dup2\n        /* \"#utility.yul\":367:387   */\n      calldataload\n        /* \"#utility.yul\":358:387   */\n      swap1\n      pop\n        /* \"#utility.yul\":396:428   */\n      tag_20\n        /* \"#utility.yul\":422:427   */\n      dup2\n        /* \"#utility.yul\":396:428   */\n      tag_21\n      jump\t// in\n    tag_20:\n        /* \"#utility.yul\":297:434   */\n      swap3\n      swap2\n      pop\n      pop\n      jump\t// out\n        /* \"#utility.yul\":440:1495   */\n    tag_6:\n        /* \"#utility.yul\":543:549   */\n      0x00\n        /* \"#utility.yul\":551:557   */\n      dup1\n        /* \"#utility.yul\":559:565   */\n      0x00\n        /* \"#utility.yul\":567:573   */\n      dup1\n        /* \"#utility.yul\":575:581   */\n      0x00\n        /* \"#utility.yul\":583:589   */\n      dup1\n        /* \"#utility.yul\":632:635   */\n      0xc0\n        /* \"#utility.yul\":620:629   */\n      dup8\n        /* \"#utility.yul\":611:618   */\n      dup10\n        /* \"#utility.yul\":607:630   */\n      sub\n        /* \"#utility.yul\":603:636   */\n      slt\n        /* \"#utility.yul\":600:720   */\n      iszero\n      tag_23\n      jumpi\n        /* \"#utility.yul\":639:718   */\n      tag_24\n      tag_25\n      jump\t// in\n    tag_24:\n        /* \"#utility.yul\":600:720   */\n    tag_23:\n        /* \"#utility.yul\":759:760   */\n      0x00\n        /* \"#utility.yul\":784:837   */\n      tag_26\n        /* \"#utility.yul\":829:836   */\n      dup10\n        /* \"#utility.yul\":820:826   */\n      dup3\n        /* \"#utility.yul\":809:818   */\n      dup11\n        /* \"#utility.yul\":805:827   */\n      add\n        /* \"#utility.yul\":784:837   */\n      tag_10\n      jump\t// in\n    tag_26:\n        /* \"#utility.yul\":774:837   */\n      swap7\n      pop\n        /* \"#utility.yul\":730:847   */\n      pop\n        /* \"#utility.yul\":886:888   */\n      0x20\n        /* \"#utility.yul\":912:965   */\n      tag_27\n        /* \"#utility.yul\":957:964   */\n      dup10\n        /* \"#utility.yul\":948:954   */\n      dup3\n        /* \"#utility.yul\":937:946   */\n      dup11\n        /* \"#utility.yul\":933:955   */\n      add\n        /* \"#utility.yul\":912:965   */\n      tag_14\n      jump\t// in\n    tag_27:\n        /* \"#utility.yul\":902:965   */\n      swap6\n      pop\n        /* \"#utility.yul\":857:975   */\n      pop\n        /* \"#utility.yul\":1014:1016   */\n      0x40\n        /* \"#utility.yul\":1040:1093   */\n      tag_28\n        /* \"#utility.yul\":1085:1092   */\n      dup10\n        /* \"#utility.yul\":1076:1082   */\n      dup3\n        /* \"#utility.yul\":1065:1074   */\n      dup11\n        /* \"#utility.yul\":1061:1083   */\n      add\n        /* \"#utility.yul\":1040:1093   */\n      tag_14\n      jump\t// in\n    tag_28:\n        /* \"#utility.yul\":1030:1093   */\n      swap5\n      pop\n        /* \"#utility.yul\":985:1103   */\n      pop\n        /* \"#utility.yul\":1142:1144   */\n      0x60\n        /* \"#utility.yul\":1168:1221   */\n      tag_29\n        /* \"#utility.yul\":1213:1220   */\n      dup10\n        /* \"#utility.yul\":1204:1210   */\n      dup3\n        /* \"#utility.yul\":1193:1202   */\n      dup11\n        /* \"#utility.yul\":1189:1211   */\n      add\n        /* \"#utility.yul\":1168:1221   */\n      tag_10\n      jump\t// in\n    tag_29:\n        /* \"#utility.yul\":1158:1221   */\n      swap4\n      pop\n        /* \"#utility.yul\":1113:1231   */\n      pop\n        /* \"#utility.yul\":1270:1273   */\n      0x80\n        /* \"#utility.yul\":1297:1350   */\n      tag_30\n        /* \"#utility.yul\":1342:1349   */\n      dup10\n        /* \"#utility.yul\":1333:1339   */\n      dup3\n        /* \"#utility.yul\":1322:1331   */\n      dup11\n        /* \"#utility.yul\":1318:1340   */\n      add\n        /* \"#utility.yul\":1297:1350   */\n      tag_10\n      jump\t// in\n    tag_30:\n        /* \"#utility.yul\":1287:1350   */\n      swap3\n      pop\n        /* \"#utility.yul\":1241:1360   */\n      pop\n        /* \"#utility.yul\":1399:1402   */\n      0xa0\n        /* \"#utility.yul\":1426:1478   */\n      tag_31\n        /* \"#utility.yul\":1470:1477   */\n      dup10\n        /* \"#utility.yul\":1461:1467   */\n      dup3\n        /* \"#utility.yul\":1450:1459   */\n      dup11\n        /* \"#utility.yul\":1446:1468   */\n      add\n        /* \"#utility.yul\":1426:1478   */\n      tag_18\n      jump\t// in\n    tag_31:\n        /* \"#utility.yul\":1416:1478   */\n      swap2\n      pop\n        /* \"#utility.yul\":1370:1488   */\n      pop\n        /* \"#utility.yul\":440:1495   */\n      swap3\n      swap6\n      pop\n      swap3\n      swap6\n      pop\n      swap3\n      swap6\n      jump\t// out\n        /* \"#utility.yul\":1582:1678   */\n    tag_34:\n        /* \"#utility.yul\":1619:1626   */\n      0x00\n        /* \"#utility.yul\":1648:1672   */\n      tag_36\n        /* \"#utility.yul\":1666:1671   */\n      dup3\n        /* \"#utility.yul\":1648:1672   */\n      tag_37\n      jump\t// in\n    tag_36:\n        /* \"#utility.yul\":1637:1672   */\n      swap1\n      pop\n        /* \"#utility.yul\":1582:1678   */\n      swap2\n      swap1\n      pop\n      jump\t// out\n        /* \"#utility.yul\":1684:1761   */\n    tag_38:\n        /* \"#utility.yul\":1721:1728   */\n      0x00\n        /* \"#utility.yul\":1750:1755   */\n      dup2\n        /* \"#utility.yul\":1739:1755   */\n      swap1\n      pop\n        /* \"#utility.yul\":1684:1761   */\n      swap2\n      swap1\n      pop\n      jump\t// out\n        /* \"#utility.yul\":1767:1893   */\n    tag_37:\n        /* \"#utility.yul\":1804:1811   */\n      0x00\n        /* \"#utility.yul\":1844:1886   */\n      0xffffffffffffffffffffffffffffffffffffffff\n        /* \"#utility.yul\":1837:1842   */\n      dup3\n        /* \"#utility.yul\":1833:1887   */\n      and\n        /* \"#utility.yul\":1822:1887   */\n      swap1\n      pop\n        /* \"#utility.yul\":1767:1893   */\n      swap2\n      swap1\n      pop\n      jump\t// out\n        /* \"#utility.yul\":1899:2000   */\n    tag_41:\n        /* \"#utility.yul\":1935:1942   */\n      0x00\n        /* \"#utility.yul\":1975:1993   */\n      0xffffffffffffffff\n        /* \"#utility.yul\":1968:1973   */\n      dup3\n        /* \"#utility.yul\":1964:1994   */\n      and\n        /* \"#utility.yul\":1953:1994   */\n      swap1\n      pop\n        /* \"#utility.yul\":1899:2000   */\n      swap2\n      swap1\n      pop\n      jump\t// out\n        /* \"#utility.yul\":2129:2246   */\n    tag_25:\n        /* \"#utility.yul\":2238:2239   */\n      0x00\n        /* \"#utility.yul\":2235:2236   */\n      dup1\n        /* \"#utility.yul\":2228:2240   */\n      revert\n        /* \"#utility.yul\":2252:2374   */\n    tag_13:\n        /* \"#utility.yul\":2325:2349   */\n      tag_47\n        /* \"#utility.yul\":2343:2348   */\n      dup2\n        /* \"#utility.yul\":2325:2349   */\n      tag_34\n      jump\t// in\n    tag_47:\n        /* \"#utility.yul\":2318:2323   */\n      dup2\n        /* \"#utility.yul\":2315:2350   */\n      eq\n        /* \"#utility.yul\":2305:2368   */\n      tag_48\n      jumpi\n        /* \"#utility.yul\":2364:2365   */\n      0x00\n        /* \"#utility.yul\":2361:2362   */\n      dup1\n        /* \"#utility.yul\":2354:2366   */\n      revert\n        /* \"#utility.yul\":2305:2368   */\n    tag_48:\n        /* \"#utility.yul\":2252:2374   */\n      pop\n      jump\t// out\n        /* \"#utility.yul\":2380:2502   */\n    tag_17:\n        /* \"#utility.yul\":2453:2477   */\n      tag_50\n        /* \"#utility.yul\":2471:2476   */\n      dup2\n        /* \"#utility.yul\":2453:2477   */\n      tag_38\n      jump\t// in\n    tag_50:\n        /* \"#utility.yul\":2446:2451   */\n      dup2\n        /* \"#utility.yul\":2443:2478   */\n      eq\n        /* \"#utility.yul\":2433:2496   */\n      tag_51\n      jumpi\n        /* \"#utility.yul\":2492:2493   */\n      0x00\n        /* \"#utility.yul\":2489:2490   */\n      dup1\n        /* \"#utility.yul\":2482:2494   */\n      revert\n        /* \"#utility.yul\":2433:2496   */\n    tag_51:\n        /* \"#utility.yul\":2380:2502   */\n      pop\n      jump\t// out\n        /* \"#utility.yul\":2508:2628   */\n    tag_21:\n        /* \"#utility.yul\":2580:2603   */\n      tag_53\n        /* \"#utility.yul\":2597:2602   */\n      dup2\n        /* \"#utility.yul\":2580:2603   */\n      tag_41\n      jump\t// in\n    tag_53:\n        /* \"#utility.yul\":2573:2578   */\n      dup2\n        /* \"#utility.yul\":2570:2604   */\n      eq\n        /* \"#utility.yul\":2560:2622   */\n      tag_54\n      jumpi\n        /* \"#utility.yul\":2618:2619   */\n      0x00\n        /* \"#utility.yul\":2615:2616   */\n      dup1\n        /* \"#utility.yul\":2608:2620   */\n      revert\n        /* \"#utility.yul\":2560:2622   */\n    tag_54:\n        /* \"#utility.yul\":2508:2628   */\n      pop\n      jump\t// out\n\n    auxdata: 0xa2646970667358221220c02b841c9ddc2d00b8abd91c5dba9f81ba7bfabfe00f9c26ea9cb0669d24de3864736f6c63430008070033\n}\n",
				"bytecode": {
					"linkReferences": {},
					"object": "608060405234801561001057600080fd5b506101f0806100206000396000f3fe608060405234801561001057600080fd5b506004361061002b5760003560e01c8063ff8af7f414610030575b600080fd5b61004a60048036038101906100459190610093565b61004c565b005b505050505050565b60008135905061006381610175565b92915050565b6000813590506100788161018c565b92915050565b60008135905061008d816101a3565b92915050565b60008060008060008060c087890312156100b0576100af610170565b5b60006100be89828a01610054565b96505060206100cf89828a01610069565b95505060406100e089828a01610069565b94505060606100f189828a01610054565b935050608061010289828a01610054565b92505060a061011389828a0161007e565b9150509295509295509295565b600061012b8261013c565b9050919050565b6000819050919050565b600073ffffffffffffffffffffffffffffffffffffffff82169050919050565b600067ffffffffffffffff82169050919050565b600080fd5b61017e81610120565b811461018957600080fd5b50565b61019581610132565b81146101a057600080fd5b50565b6101ac8161015c565b81146101b757600080fd5b5056fea2646970667358221220c02b841c9ddc2d00b8abd91c5dba9f81ba7bfabfe00f9c26ea9cb0669d24de3864736f6c63430008070033",
					"opcodes": "PUSH1 0x80 PUSH1 0x40 MSTORE CALLVALUE DUP1 ISZERO PUSH2 0x10 JUMPI PUSH1 0x0 DUP1 REVERT JUMPDEST POP PUSH2 0x1F0 DUP1 PUSH2 0x20 PUSH1 0x0 CODECOPY PUSH1 0x0 RETURN INVALID PUSH1 0x80 PUSH1 0x40 MSTORE CALLVALUE DUP1 ISZERO PUSH2 0x10 JUMPI PUSH1 0x0 DUP1 REVERT JUMPDEST POP PUSH1 0x4 CALLDATASIZE LT PUSH2 0x2B JUMPI PUSH1 0x0 CALLDATALOAD PUSH1 0xE0 SHR DUP1 PUSH4 0xFF8AF7F4 EQ PUSH2 0x30 JUMPI JUMPDEST PUSH1 0x0 DUP1 REVERT JUMPDEST PUSH2 0x4A PUSH1 0x4 DUP1 CALLDATASIZE SUB DUP2 ADD SWAP1 PUSH2 0x45 SWAP2 SWAP1 PUSH2 0x93 JUMP JUMPDEST PUSH2 0x4C JUMP JUMPDEST STOP JUMPDEST POP POP POP POP POP POP JUMP JUMPDEST PUSH1 0x0 DUP2 CALLDATALOAD SWAP1 POP PUSH2 0x63 DUP2 PUSH2 0x175 JUMP JUMPDEST SWAP3 SWAP2 POP POP JUMP JUMPDEST PUSH1 0x0 DUP2 CALLDATALOAD SWAP1 POP PUSH2 0x78 DUP2 PUSH2 0x18C JUMP JUMPDEST SWAP3 SWAP2 POP POP JUMP JUMPDEST PUSH1 0x0 DUP2 CALLDATALOAD SWAP1 POP PUSH2 0x8D DUP2 PUSH2 0x1A3 JUMP JUMPDEST SWAP3 SWAP2 POP POP JUMP JUMPDEST PUSH1 0x0 DUP1 PUSH1 0x0 DUP1 PUSH1 0x0 DUP1 PUSH1 0xC0 DUP8 DUP10 SUB SLT ISZERO PUSH2 0xB0 JUMPI PUSH2 0xAF PUSH2 0x170 JUMP JUMPDEST JUMPDEST PUSH1 0x0 PUSH2 0xBE DUP10 DUP3 DUP11 ADD PUSH2 0x54 JUMP JUMPDEST SWAP7 POP POP PUSH1 0x20 PUSH2 0xCF DUP10 DUP3 DUP11 ADD PUSH2 0x69 JUMP JUMPDEST SWAP6 POP POP PUSH1 0x40 PUSH2 0xE0 DUP10 DUP3 DUP11 ADD PUSH2 0x69 JUMP JUMPDEST SWAP5 POP POP PUSH1 0x60 PUSH2 0xF1 DUP10 DUP3 DUP11 ADD PUSH2 0x54 JUMP JUMPDEST SWAP4 POP POP PUSH1 0x80 PUSH2 0x102 DUP10 DUP3 DUP11 ADD PUSH2 0x54 JUMP JUMPDEST SWAP3 POP POP PUSH1 0xA0 PUSH2 0x113 DUP10 DUP3 DUP11 ADD PUSH2 0x7E JUMP JUMPDEST SWAP2 POP POP SWAP3 SWAP6 POP SWAP3 SWAP6 POP SWAP3 SWAP6 JUMP JUMPDEST PUSH1 0x0 PUSH2 0x12B DUP3 PUSH2 0x13C JUMP JUMPDEST SWAP1 POP SWAP2 SWAP1 POP JUMP JUMPDEST PUSH1 0x0 DUP2 SWAP1 POP SWAP2 SWAP1 POP JUMP JUMPDEST PUSH1 0x0 PUSH20 0xFFFFFFFFFFFFFFFFFFFFFFFFFFFFFFFFFFFFFFFF DUP3 AND SWAP1 POP SWAP2 SWAP1 POP JUMP JUMPDEST PUSH1 0x0 PUSH8 0xFFFFFFFFFFFFFFFF DUP3 AND SWAP1 POP SWAP2 SWAP1 POP JUMP JUMPDEST PUSH1 0x0 DUP1 REVERT JUMPDEST PUSH2 0x17E DUP2 PUSH2 0x120 JUMP JUMPDEST DUP2 EQ PUSH2 0x189 JUMPI PUSH1 0x0 DUP1 REVERT JUMPDEST POP JUMP JUMPDEST PUSH2 0x195 DUP2 PUSH2 0x132 JUMP JUMPDEST DUP2 EQ PUSH2 0x1A0 JUMPI PUSH1 0x0 DUP1 REVERT JUMPDEST POP JUMP JUMPDEST PUSH2 0x1AC DUP2 PUSH2 0x15C JUMP JUMPDEST DUP2 EQ PUSH2 0x1B7 JUMPI PUSH1 0x0 DUP1 REVERT JUMPDEST POP JUMP INVALID LOG2 PUSH5 0x6970667358 0x22 SLT KECCAK256 0xC0 0x2B DUP5 SHR SWAP14 0xDC 0x2D STOP 0xB8 0xAB 0xD9 SHR 0x5D 0xBA SWAP16 DUP2 0xBA PUSH28 0xFABFE00F9C26EA9CB0669D24DE3864736F6C63430008070033000000 "
				},
				"gasEstimates": {
					"creation": {
						"codeDepositCost": "99200",
						"executionCost": "147",
						"totalCost": "99347"
					},
					"external": {
						"setSubNode(address,bytes32,bytes32,address,address,uint64)": "infinite"
					}
				},
				"methodIdentifiers": {
					"setSubNode(address,bytes32,bytes32,address,address,uint64)": "ff8af7f4"
				}
			},
			"storageLayout": {
				"storage": [],
				"types": null
			},
			"userdoc": {
				"kind": "user",
				"methods": {},
				"version": 1
			}
		}
	}
}