{
	"Ethereum/ENS/contracts/ENSHandler.sol": {
		"ENSHandler": {
			"abi": [
				{
					"inputs": [],
					"name": "_ens",
					"outputs": [
						{
							"internalType": "contract ENS",
							"name": "",
							"type": "address"
						}
					],
					"stateMutability": "view",
					"type": "function"
				},
				{
					"inputs": [
						{
							"internalType": "address",
							"name": "_resolver",
							"type": "address"
						},
						{
							"internalType": "address",
							"name": "_ens",
							"type": "address"
						},
						{
							"internalType": "bytes32",
							"name": "_rootNode",
							"type": "bytes32"
						},
						{
							"internalType": "address",
							"name": "_target",
							"type": "address"
						},
						{
							"internalType": "bytes32",
							"name": "_label",
							"type": "bytes32"
						},
						{
							"internalType": "bytes32",
							"name": "_subNodeHash",
							"type": "bytes32"
						}
					],
					"name": "setSubNode",
					"outputs": [],
					"stateMutability": "nonpayable",
					"type": "function"
				}
			],
			"devdoc": {
				"kind": "dev",
				"methods": {},
				"version": 1
			},
			"evm": {
				"assembly": "    /* \"Ethereum/ENS/contracts/ENSHandler.sol\":434:885  contract ENSHandler {... */\n  mstore(0x40, 0x80)\n    /* \"Ethereum/ENS/contracts/ENSHandler.sol\":491:533  0x00000000000C2E074eC69A0dFb2997BA6C7d2e1e */\n  0x0c2e074ec69a0dfb2997ba6c7d2e1e\n    /* \"Ethereum/ENS/contracts/ENSHandler.sol\":461:535  ENS public _ens = ENS(address(0x00000000000C2E074eC69A0dFb2997BA6C7d2e1e)) */\n  0x00\n  dup1\n  0x0100\n  exp\n  dup2\n  sload\n  dup2\n  0xffffffffffffffffffffffffffffffffffffffff\n  mul\n  not\n  and\n  swap1\n  dup4\n  0xffffffffffffffffffffffffffffffffffffffff\n  and\n  mul\n  or\n  swap1\n  sstore\n  pop\n    /* \"Ethereum/ENS/contracts/ENSHandler.sol\":434:885  contract ENSHandler {... */\n  callvalue\n  dup1\n  iszero\n  tag_1\n  jumpi\n  0x00\n  dup1\n  revert\ntag_1:\n  pop\n  dataSize(sub_0)\n  dup1\n  dataOffset(sub_0)\n  0x00\n  codecopy\n  0x00\n  return\nstop\n\nsub_0: assembly {\n        /* \"Ethereum/ENS/contracts/ENSHandler.sol\":434:885  contract ENSHandler {... */\n      mstore(0x40, 0x80)\n      callvalue\n      dup1\n      iszero\n      tag_1\n      jumpi\n      0x00\n      dup1\n      revert\n    tag_1:\n      pop\n      jumpi(tag_2, lt(calldatasize, 0x04))\n      shr(0xe0, calldataload(0x00))\n      dup1\n      0x3452018a\n      eq\n      tag_3\n      jumpi\n      dup1\n      0xb99f0ab4\n      eq\n      tag_4\n      jumpi\n    tag_2:\n      0x00\n      dup1\n      revert\n        /* \"Ethereum/ENS/contracts/ENSHandler.sol\":461:535  ENS public _ens = ENS(address(0x00000000000C2E074eC69A0dFb2997BA6C7d2e1e)) */\n    tag_3:\n      tag_5\n      tag_6\n      jump\t// in\n    tag_5:\n      mload(0x40)\n      tag_7\n      swap2\n      swap1\n      tag_8\n      jump\t// in\n    tag_7:\n      mload(0x40)\n      dup1\n      swap2\n      sub\n      swap1\n      return\n        /* \"Ethereum/ENS/contracts/ENSHandler.sol\":542:883  function setSubNode(address _resolver, address _ens, bytes32 _rootNode, address _target, bytes32 _label, bytes32 _subNodeHash) external {... */\n    tag_4:\n      tag_9\n      0x04\n      dup1\n      calldatasize\n      sub\n      dup2\n      add\n      swap1\n      tag_10\n      swap2\n      swap1\n      tag_11\n      jump\t// in\n    tag_10:\n      tag_12\n      jump\t// in\n    tag_9:\n      stop\n        /* \"Ethereum/ENS/contracts/ENSHandler.sol\":461:535  ENS public _ens = ENS(address(0x00000000000C2E074eC69A0dFb2997BA6C7d2e1e)) */\n    tag_6:\n      0x00\n      dup1\n      sload\n      swap1\n      0x0100\n      exp\n      swap1\n      div\n      0xffffffffffffffffffffffffffffffffffffffff\n      and\n      dup2\n      jump\t// out\n        /* \"Ethereum/ENS/contracts/ENSHandler.sol\":542:883  function setSubNode(address _resolver, address _ens, bytes32 _rootNode, address _target, bytes32 _label, bytes32 _subNodeHash) external {... */\n    tag_12:\n        /* \"Ethereum/ENS/contracts/ENSHandler.sol\":692:696  _ens */\n      dup5\n        /* \"Ethereum/ENS/contracts/ENSHandler.sol\":688:714  ENS(_ens).setSubnodeRecord */\n      0xffffffffffffffffffffffffffffffffffffffff\n      and\n      0x5ef2c7f0\n        /* \"Ethereum/ENS/contracts/ENSHandler.sol\":715:724  _rootNode */\n      dup6\n        /* \"Ethereum/ENS/contracts/ENSHandler.sol\":726:732  _label */\n      dup5\n        /* \"Ethereum/ENS/contracts/ENSHandler.sol\":742:746  this */\n      address\n        /* \"Ethereum/ENS/contracts/ENSHandler.sol\":749:758  _resolver */\n      dup11\n        /* \"Ethereum/ENS/contracts/ENSHandler.sol\":760:761  0 */\n      0x00\n        /* \"Ethereum/ENS/contracts/ENSHandler.sol\":688:762  ENS(_ens).setSubnodeRecord(_rootNode, _label, address(this), _resolver, 0) */\n      mload(0x40)\n      dup7\n      0xffffffff\n      and\n      0xe0\n      shl\n      dup2\n      mstore\n      0x04\n      add\n      tag_14\n      swap6\n      swap5\n      swap4\n      swap3\n      swap2\n      swap1\n      tag_15\n      jump\t// in\n    tag_14:\n      0x00\n      mload(0x40)\n      dup1\n      dup4\n      sub\n      dup2\n      0x00\n      dup8\n      dup1\n      extcodesize\n      iszero\n      dup1\n      iszero\n      tag_16\n      jumpi\n      0x00\n      dup1\n      revert\n    tag_16:\n      pop\n      gas\n      call\n      iszero\n      dup1\n      iszero\n      tag_18\n      jumpi\n      returndatasize\n      0x00\n      dup1\n      returndatacopy\n      revert(0x00, returndatasize)\n    tag_18:\n      pop\n      pop\n      pop\n      pop\n        /* \"Ethereum/ENS/contracts/ENSHandler.sol\":784:793  _resolver */\n      dup6\n        /* \"Ethereum/ENS/contracts/ENSHandler.sol\":772:802  ENSResolver(_resolver).setAddr */\n      0xffffffffffffffffffffffffffffffffffffffff\n      and\n      0xd5fa2b00\n        /* \"Ethereum/ENS/contracts/ENSHandler.sol\":803:815  _subNodeHash */\n      dup3\n        /* \"Ethereum/ENS/contracts/ENSHandler.sol\":817:824  _target */\n      dup6\n        /* \"Ethereum/ENS/contracts/ENSHandler.sol\":772:825  ENSResolver(_resolver).setAddr(_subNodeHash, _target) */\n      mload(0x40)\n      dup4\n      0xffffffff\n      and\n      0xe0\n      shl\n      dup2\n      mstore\n      0x04\n      add\n      tag_19\n      swap3\n      swap2\n      swap1\n      tag_20\n      jump\t// in\n    tag_19:\n      0x00\n      mload(0x40)\n      dup1\n      dup4\n      sub\n      dup2\n      0x00\n      dup8\n      dup1\n      extcodesize\n      iszero\n      dup1\n      iszero\n      tag_21\n      jumpi\n      0x00\n      dup1\n      revert\n    tag_21:\n      pop\n      gas\n      call\n      iszero\n      dup1\n      iszero\n      tag_23\n      jumpi\n      returndatasize\n      0x00\n      dup1\n      returndatacopy\n      revert(0x00, returndatasize)\n    tag_23:\n      pop\n      pop\n      pop\n      pop\n        /* \"Ethereum/ENS/contracts/ENSHandler.sol\":839:843  _ens */\n      dup5\n        /* \"Ethereum/ENS/contracts/ENSHandler.sol\":835:853  ENS(_ens).setOwner */\n      0xffffffffffffffffffffffffffffffffffffffff\n      and\n      0x5b0fc9c3\n        /* \"Ethereum/ENS/contracts/ENSHandler.sol\":854:866  _subNodeHash */\n      dup3\n        /* \"Ethereum/ENS/contracts/ENSHandler.sol\":868:875  _target */\n      dup6\n        /* \"Ethereum/ENS/contracts/ENSHandler.sol\":835:876  ENS(_ens).setOwner(_subNodeHash, _target) */\n      mload(0x40)\n      dup4\n      0xffffffff\n      and\n      0xe0\n      shl\n      dup2\n      mstore\n      0x04\n      add\n      tag_24\n      swap3\n      swap2\n      swap1\n      tag_20\n      jump\t// in\n    tag_24:\n      0x00\n      mload(0x40)\n      dup1\n      dup4\n      sub\n      dup2\n      0x00\n      dup8\n      dup1\n      extcodesize\n      iszero\n      dup1\n      iszero\n      tag_25\n      jumpi\n      0x00\n      dup1\n      revert\n    tag_25:\n      pop\n      gas\n      call\n      iszero\n      dup1\n      iszero\n      tag_27\n      jumpi\n      returndatasize\n      0x00\n      dup1\n      returndatacopy\n      revert(0x00, returndatasize)\n    tag_27:\n      pop\n      pop\n      pop\n      pop\n        /* \"Ethereum/ENS/contracts/ENSHandler.sol\":542:883  function setSubNode(address _resolver, address _ens, bytes32 _rootNode, address _target, bytes32 _label, bytes32 _subNodeHash) external {... */\n      pop\n      pop\n      pop\n      pop\n      pop\n      pop\n      jump\t// out\n        /* \"#utility.yul\":7:146   */\n    tag_29:\n        /* \"#utility.yul\":53:58   */\n      0x00\n        /* \"#utility.yul\":91:97   */\n      dup2\n        /* \"#utility.yul\":78:98   */\n      calldataload\n        /* \"#utility.yul\":69:98   */\n      swap1\n      pop\n        /* \"#utility.yul\":107:140   */\n      tag_31\n        /* \"#utility.yul\":134:139   */\n      dup2\n        /* \"#utility.yul\":107:140   */\n      tag_32\n      jump\t// in\n    tag_31:\n        /* \"#utility.yul\":7:146   */\n      swap3\n      swap2\n      pop\n      pop\n      jump\t// out\n        /* \"#utility.yul\":152:291   */\n    tag_33:\n        /* \"#utility.yul\":198:203   */\n      0x00\n        /* \"#utility.yul\":236:242   */\n      dup2\n        /* \"#utility.yul\":223:243   */\n      calldataload\n        /* \"#utility.yul\":214:243   */\n      swap1\n      pop\n        /* \"#utility.yul\":252:285   */\n      tag_35\n        /* \"#utility.yul\":279:284   */\n      dup2\n        /* \"#utility.yul\":252:285   */\n      tag_36\n      jump\t// in\n    tag_35:\n        /* \"#utility.yul\":152:291   */\n      swap3\n      swap2\n      pop\n      pop\n      jump\t// out\n        /* \"#utility.yul\":297:1354   */\n    tag_11:\n        /* \"#utility.yul\":401:407   */\n      0x00\n        /* \"#utility.yul\":409:415   */\n      dup1\n        /* \"#utility.yul\":417:423   */\n      0x00\n        /* \"#utility.yul\":425:431   */\n      dup1\n        /* \"#utility.yul\":433:439   */\n      0x00\n        /* \"#utility.yul\":441:447   */\n      dup1\n        /* \"#utility.yul\":490:493   */\n      0xc0\n        /* \"#utility.yul\":478:487   */\n      dup8\n        /* \"#utility.yul\":469:476   */\n      dup10\n        /* \"#utility.yul\":465:488   */\n      sub\n        /* \"#utility.yul\":461:494   */\n      slt\n        /* \"#utility.yul\":458:578   */\n      iszero\n      tag_38\n      jumpi\n        /* \"#utility.yul\":497:576   */\n      tag_39\n      tag_40\n      jump\t// in\n    tag_39:\n        /* \"#utility.yul\":458:578   */\n    tag_38:\n        /* \"#utility.yul\":617:618   */\n      0x00\n        /* \"#utility.yul\":642:695   */\n      tag_41\n        /* \"#utility.yul\":687:694   */\n      dup10\n        /* \"#utility.yul\":678:684   */\n      dup3\n        /* \"#utility.yul\":667:676   */\n      dup11\n        /* \"#utility.yul\":663:685   */\n      add\n        /* \"#utility.yul\":642:695   */\n      tag_29\n      jump\t// in\n    tag_41:\n        /* \"#utility.yul\":632:695   */\n      swap7\n      pop\n        /* \"#utility.yul\":588:705   */\n      pop\n        /* \"#utility.yul\":744:746   */\n      0x20\n        /* \"#utility.yul\":770:823   */\n      tag_42\n        /* \"#utility.yul\":815:822   */\n      dup10\n        /* \"#utility.yul\":806:812   */\n      dup3\n        /* \"#utility.yul\":795:804   */\n      dup11\n        /* \"#utility.yul\":791:813   */\n      add\n        /* \"#utility.yul\":770:823   */\n      tag_29\n      jump\t// in\n    tag_42:\n        /* \"#utility.yul\":760:823   */\n      swap6\n      pop\n        /* \"#utility.yul\":715:833   */\n      pop\n        /* \"#utility.yul\":872:874   */\n      0x40\n        /* \"#utility.yul\":898:951   */\n      tag_43\n        /* \"#utility.yul\":943:950   */\n      dup10\n        /* \"#utility.yul\":934:940   */\n      dup3\n        /* \"#utility.yul\":923:932   */\n      dup11\n        /* \"#utility.yul\":919:941   */\n      add\n        /* \"#utility.yul\":898:951   */\n      tag_33\n      jump\t// in\n    tag_43:\n        /* \"#utility.yul\":888:951   */\n      swap5\n      pop\n        /* \"#utility.yul\":843:961   */\n      pop\n        /* \"#utility.yul\":1000:1002   */\n      0x60\n        /* \"#utility.yul\":1026:1079   */\n      tag_44\n        /* \"#utility.yul\":1071:1078   */\n      dup10\n        /* \"#utility.yul\":1062:1068   */\n      dup3\n        /* \"#utility.yul\":1051:1060   */\n      dup11\n        /* \"#utility.yul\":1047:1069   */\n      add\n        /* \"#utility.yul\":1026:1079   */\n      tag_29\n      jump\t// in\n    tag_44:\n        /* \"#utility.yul\":1016:1079   */\n      swap4\n      pop\n        /* \"#utility.yul\":971:1089   */\n      pop\n        /* \"#utility.yul\":1128:1131   */\n      0x80\n        /* \"#utility.yul\":1155:1208   */\n      tag_45\n        /* \"#utility.yul\":1200:1207   */\n      dup10\n        /* \"#utility.yul\":1191:1197   */\n      dup3\n        /* \"#utility.yul\":1180:1189   */\n      dup11\n        /* \"#utility.yul\":1176:1198   */\n      add\n        /* \"#utility.yul\":1155:1208   */\n      tag_33\n      jump\t// in\n    tag_45:\n        /* \"#utility.yul\":1145:1208   */\n      swap3\n      pop\n        /* \"#utility.yul\":1099:1218   */\n      pop\n        /* \"#utility.yul\":1257:1260   */\n      0xa0\n        /* \"#utility.yul\":1284:1337   */\n      tag_46\n        /* \"#utility.yul\":1329:1336   */\n      dup10\n        /* \"#utility.yul\":1320:1326   */\n      dup3\n        /* \"#utility.yul\":1309:1318   */\n      dup11\n        /* \"#utility.yul\":1305:1327   */\n      add\n        /* \"#utility.yul\":1284:1337   */\n      tag_33\n      jump\t// in\n    tag_46:\n        /* \"#utility.yul\":1274:1337   */\n      swap2\n      pop\n        /* \"#utility.yul\":1228:1347   */\n      pop\n        /* \"#utility.yul\":297:1354   */\n      swap3\n      swap6\n      pop\n      swap3\n      swap6\n      pop\n      swap3\n      swap6\n      jump\t// out\n        /* \"#utility.yul\":1360:1478   */\n    tag_47:\n        /* \"#utility.yul\":1447:1471   */\n      tag_49\n        /* \"#utility.yul\":1465:1470   */\n      dup2\n        /* \"#utility.yul\":1447:1471   */\n      tag_50\n      jump\t// in\n    tag_49:\n        /* \"#utility.yul\":1442:1445   */\n      dup3\n        /* \"#utility.yul\":1435:1472   */\n      mstore\n        /* \"#utility.yul\":1360:1478   */\n      pop\n      pop\n      jump\t// out\n        /* \"#utility.yul\":1484:1602   */\n    tag_51:\n        /* \"#utility.yul\":1571:1595   */\n      tag_53\n        /* \"#utility.yul\":1589:1594   */\n      dup2\n        /* \"#utility.yul\":1571:1595   */\n      tag_54\n      jump\t// in\n    tag_53:\n        /* \"#utility.yul\":1566:1569   */\n      dup3\n        /* \"#utility.yul\":1559:1596   */\n      mstore\n        /* \"#utility.yul\":1484:1602   */\n      pop\n      pop\n      jump\t// out\n        /* \"#utility.yul\":1608:1759   */\n    tag_55:\n        /* \"#utility.yul\":1705:1752   */\n      tag_57\n        /* \"#utility.yul\":1746:1751   */\n      dup2\n        /* \"#utility.yul\":1705:1752   */\n      tag_58\n      jump\t// in\n    tag_57:\n        /* \"#utility.yul\":1700:1703   */\n      dup3\n        /* \"#utility.yul\":1693:1753   */\n      mstore\n        /* \"#utility.yul\":1608:1759   */\n      pop\n      pop\n      jump\t// out\n        /* \"#utility.yul\":1765:1910   */\n    tag_59:\n        /* \"#utility.yul\":1859:1903   */\n      tag_61\n        /* \"#utility.yul\":1897:1902   */\n      dup2\n        /* \"#utility.yul\":1859:1903   */\n      tag_62\n      jump\t// in\n    tag_61:\n        /* \"#utility.yul\":1854:1857   */\n      dup3\n        /* \"#utility.yul\":1847:1904   */\n      mstore\n        /* \"#utility.yul\":1765:1910   */\n      pop\n      pop\n      jump\t// out\n        /* \"#utility.yul\":1916:2248   */\n    tag_20:\n        /* \"#utility.yul\":2037:2041   */\n      0x00\n        /* \"#utility.yul\":2075:2077   */\n      0x40\n        /* \"#utility.yul\":2064:2073   */\n      dup3\n        /* \"#utility.yul\":2060:2078   */\n      add\n        /* \"#utility.yul\":2052:2078   */\n      swap1\n      pop\n        /* \"#utility.yul\":2088:2159   */\n      tag_64\n        /* \"#utility.yul\":2156:2157   */\n      0x00\n        /* \"#utility.yul\":2145:2154   */\n      dup4\n        /* \"#utility.yul\":2141:2158   */\n      add\n        /* \"#utility.yul\":2132:2138   */\n      dup6\n        /* \"#utility.yul\":2088:2159   */\n      tag_51\n      jump\t// in\n    tag_64:\n        /* \"#utility.yul\":2169:2241   */\n      tag_65\n        /* \"#utility.yul\":2237:2239   */\n      0x20\n        /* \"#utility.yul\":2226:2235   */\n      dup4\n        /* \"#utility.yul\":2222:2240   */\n      add\n        /* \"#utility.yul\":2213:2219   */\n      dup5\n        /* \"#utility.yul\":2169:2241   */\n      tag_47\n      jump\t// in\n    tag_65:\n        /* \"#utility.yul\":1916:2248   */\n      swap4\n      swap3\n      pop\n      pop\n      pop\n      jump\t// out\n        /* \"#utility.yul\":2254:2932   */\n    tag_15:\n        /* \"#utility.yul\":2466:2470   */\n      0x00\n        /* \"#utility.yul\":2504:2507   */\n      0xa0\n        /* \"#utility.yul\":2493:2502   */\n      dup3\n        /* \"#utility.yul\":2489:2508   */\n      add\n        /* \"#utility.yul\":2481:2508   */\n      swap1\n      pop\n        /* \"#utility.yul\":2518:2589   */\n      tag_67\n        /* \"#utility.yul\":2586:2587   */\n      0x00\n        /* \"#utility.yul\":2575:2584   */\n      dup4\n        /* \"#utility.yul\":2571:2588   */\n      add\n        /* \"#utility.yul\":2562:2568   */\n      dup9\n        /* \"#utility.yul\":2518:2589   */\n      tag_51\n      jump\t// in\n    tag_67:\n        /* \"#utility.yul\":2599:2671   */\n      tag_68\n        /* \"#utility.yul\":2667:2669   */\n      0x20\n        /* \"#utility.yul\":2656:2665   */\n      dup4\n        /* \"#utility.yul\":2652:2670   */\n      add\n        /* \"#utility.yul\":2643:2649   */\n      dup8\n        /* \"#utility.yul\":2599:2671   */\n      tag_51\n      jump\t// in\n    tag_68:\n        /* \"#utility.yul\":2681:2753   */\n      tag_69\n        /* \"#utility.yul\":2749:2751   */\n      0x40\n        /* \"#utility.yul\":2738:2747   */\n      dup4\n        /* \"#utility.yul\":2734:2752   */\n      add\n        /* \"#utility.yul\":2725:2731   */\n      dup7\n        /* \"#utility.yul\":2681:2753   */\n      tag_47\n      jump\t// in\n    tag_69:\n        /* \"#utility.yul\":2763:2835   */\n      tag_70\n        /* \"#utility.yul\":2831:2833   */\n      0x60\n        /* \"#utility.yul\":2820:2829   */\n      dup4\n        /* \"#utility.yul\":2816:2834   */\n      add\n        /* \"#utility.yul\":2807:2813   */\n      dup6\n        /* \"#utility.yul\":2763:2835   */\n      tag_47\n      jump\t// in\n    tag_70:\n        /* \"#utility.yul\":2845:2925   */\n      tag_71\n        /* \"#utility.yul\":2920:2923   */\n      0x80\n        /* \"#utility.yul\":2909:2918   */\n      dup4\n        /* \"#utility.yul\":2905:2924   */\n      add\n        /* \"#utility.yul\":2896:2902   */\n      dup5\n        /* \"#utility.yul\":2845:2925   */\n      tag_59\n      jump\t// in\n    tag_71:\n        /* \"#utility.yul\":2254:2932   */\n      swap7\n      swap6\n      pop\n      pop\n      pop\n      pop\n      pop\n      pop\n      jump\t// out\n        /* \"#utility.yul\":2938:3180   */\n    tag_8:\n        /* \"#utility.yul\":3041:3045   */\n      0x00\n        /* \"#utility.yul\":3079:3081   */\n      0x20\n        /* \"#utility.yul\":3068:3077   */\n      dup3\n        /* \"#utility.yul\":3064:3082   */\n      add\n        /* \"#utility.yul\":3056:3082   */\n      swap1\n      pop\n        /* \"#utility.yul\":3092:3173   */\n      tag_73\n        /* \"#utility.yul\":3170:3171   */\n      0x00\n        /* \"#utility.yul\":3159:3168   */\n      dup4\n        /* \"#utility.yul\":3155:3172   */\n      add\n        /* \"#utility.yul\":3146:3152   */\n      dup5\n        /* \"#utility.yul\":3092:3173   */\n      tag_55\n      jump\t// in\n    tag_73:\n        /* \"#utility.yul\":2938:3180   */\n      swap3\n      swap2\n      pop\n      pop\n      jump\t// out\n        /* \"#utility.yul\":3267:3363   */\n    tag_50:\n        /* \"#utility.yul\":3304:3311   */\n      0x00\n        /* \"#utility.yul\":3333:3357   */\n      tag_77\n        /* \"#utility.yul\":3351:3356   */\n      dup3\n        /* \"#utility.yul\":3333:3357   */\n      tag_78\n      jump\t// in\n    tag_77:\n        /* \"#utility.yul\":3322:3357   */\n      swap1\n      pop\n        /* \"#utility.yul\":3267:3363   */\n      swap2\n      swap1\n      pop\n      jump\t// out\n        /* \"#utility.yul\":3369:3446   */\n    tag_54:\n        /* \"#utility.yul\":3406:3413   */\n      0x00\n        /* \"#utility.yul\":3435:3440   */\n      dup2\n        /* \"#utility.yul\":3424:3440   */\n      swap1\n      pop\n        /* \"#utility.yul\":3369:3446   */\n      swap2\n      swap1\n      pop\n      jump\t// out\n        /* \"#utility.yul\":3452:3578   */\n    tag_78:\n        /* \"#utility.yul\":3489:3496   */\n      0x00\n        /* \"#utility.yul\":3529:3571   */\n      0xffffffffffffffffffffffffffffffffffffffff\n        /* \"#utility.yul\":3522:3527   */\n      dup3\n        /* \"#utility.yul\":3518:3572   */\n      and\n        /* \"#utility.yul\":3507:3572   */\n      swap1\n      pop\n        /* \"#utility.yul\":3452:3578   */\n      swap2\n      swap1\n      pop\n      jump\t// out\n        /* \"#utility.yul\":3584:3685   */\n    tag_81:\n        /* \"#utility.yul\":3620:3627   */\n      0x00\n        /* \"#utility.yul\":3660:3678   */\n      0xffffffffffffffff\n        /* \"#utility.yul\":3653:3658   */\n      dup3\n        /* \"#utility.yul\":3649:3679   */\n      and\n        /* \"#utility.yul\":3638:3679   */\n      swap1\n      pop\n        /* \"#utility.yul\":3584:3685   */\n      swap2\n      swap1\n      pop\n      jump\t// out\n        /* \"#utility.yul\":3691:3827   */\n    tag_58:\n        /* \"#utility.yul\":3751:3760   */\n      0x00\n        /* \"#utility.yul\":3784:3821   */\n      tag_84\n        /* \"#utility.yul\":3815:3820   */\n      dup3\n        /* \"#utility.yul\":3784:3821   */\n      tag_85\n      jump\t// in\n    tag_84:\n        /* \"#utility.yul\":3771:3821   */\n      swap1\n      pop\n        /* \"#utility.yul\":3691:3827   */\n      swap2\n      swap1\n      pop\n      jump\t// out\n        /* \"#utility.yul\":3833:3952   */\n    tag_62:\n        /* \"#utility.yul\":3890:3899   */\n      0x00\n        /* \"#utility.yul\":3923:3946   */\n      tag_87\n        /* \"#utility.yul\":3940:3945   */\n      dup3\n        /* \"#utility.yul\":3923:3946   */\n      tag_81\n      jump\t// in\n    tag_87:\n        /* \"#utility.yul\":3910:3946   */\n      swap1\n      pop\n        /* \"#utility.yul\":3833:3952   */\n      swap2\n      swap1\n      pop\n      jump\t// out\n        /* \"#utility.yul\":3958:4084   */\n    tag_85:\n        /* \"#utility.yul\":4008:4017   */\n      0x00\n        /* \"#utility.yul\":4041:4078   */\n      tag_89\n        /* \"#utility.yul\":4072:4077   */\n      dup3\n        /* \"#utility.yul\":4041:4078   */\n      tag_90\n      jump\t// in\n    tag_89:\n        /* \"#utility.yul\":4028:4078   */\n      swap1\n      pop\n        /* \"#utility.yul\":3958:4084   */\n      swap2\n      swap1\n      pop\n      jump\t// out\n        /* \"#utility.yul\":4090:4203   */\n    tag_90:\n        /* \"#utility.yul\":4140:4149   */\n      0x00\n        /* \"#utility.yul\":4173:4197   */\n      tag_92\n        /* \"#utility.yul\":4191:4196   */\n      dup3\n        /* \"#utility.yul\":4173:4197   */\n      tag_78\n      jump\t// in\n    tag_92:\n        /* \"#utility.yul\":4160:4197   */\n      swap1\n      pop\n        /* \"#utility.yul\":4090:4203   */\n      swap2\n      swap1\n      pop\n      jump\t// out\n        /* \"#utility.yul\":4332:4449   */\n    tag_40:\n        /* \"#utility.yul\":4441:4442   */\n      0x00\n        /* \"#utility.yul\":4438:4439   */\n      dup1\n        /* \"#utility.yul\":4431:4443   */\n      revert\n        /* \"#utility.yul\":4455:4577   */\n    tag_32:\n        /* \"#utility.yul\":4528:4552   */\n      tag_97\n        /* \"#utility.yul\":4546:4551   */\n      dup2\n        /* \"#utility.yul\":4528:4552   */\n      tag_50\n      jump\t// in\n    tag_97:\n        /* \"#utility.yul\":4521:4526   */\n      dup2\n        /* \"#utility.yul\":4518:4553   */\n      eq\n        /* \"#utility.yul\":4508:4571   */\n      tag_98\n      jumpi\n        /* \"#utility.yul\":4567:4568   */\n      0x00\n        /* \"#utility.yul\":4564:4565   */\n      dup1\n        /* \"#utility.yul\":4557:4569   */\n      revert\n        /* \"#utility.yul\":4508:4571   */\n    tag_98:\n        /* \"#utility.yul\":4455:4577   */\n      pop\n      jump\t// out\n        /* \"#utility.yul\":4583:4705   */\n    tag_36:\n        /* \"#utility.yul\":4656:4680   */\n      tag_100\n        /* \"#utility.yul\":4674:4679   */\n      dup2\n        /* \"#utility.yul\":4656:4680   */\n      tag_54\n      jump\t// in\n    tag_100:\n        /* \"#utility.yul\":4649:4654   */\n      dup2\n        /* \"#utility.yul\":4646:4681   */\n      eq\n        /* \"#utility.yul\":4636:4699   */\n      tag_101\n      jumpi\n        /* \"#utility.yul\":4695:4696   */\n      0x00\n        /* \"#utility.yul\":4692:4693   */\n      dup1\n        /* \"#utility.yul\":4685:4697   */\n      revert\n        /* \"#utility.yul\":4636:4699   */\n    tag_101:\n        /* \"#utility.yul\":4583:4705   */\n      pop\n      jump\t// out\n\n    auxdata: 0xa2646970667358221220e485b86bdbf45f7aa32cf9509eb0983e44574ef8a12215cdebbb2807fe3734d464736f6c63430008070033\n}\n",
				"bytecode": {
					"linkReferences": {},
					"object": "60806040526e0c2e074ec69a0dfb2997ba6c7d2e1e6000806101000a81548173ffffffffffffffffffffffffffffffffffffffff021916908373ffffffffffffffffffffffffffffffffffffffff16021790555034801561005f57600080fd5b5061047a8061006f6000396000f3fe608060405234801561001057600080fd5b50600436106100365760003560e01c80633452018a1461003b578063b99f0ab414610059575b600080fd5b610043610075565b604051610050919061035e565b60405180910390f35b610073600480360381019061006e9190610219565b610099565b005b60008054906101000a900473ffffffffffffffffffffffffffffffffffffffff1681565b8473ffffffffffffffffffffffffffffffffffffffff16635ef2c7f08584308a60006040518663ffffffff1660e01b81526004016100db95949392919061030b565b600060405180830381600087803b1580156100f557600080fd5b505af1158015610109573d6000803e3d6000fd5b505050508573ffffffffffffffffffffffffffffffffffffffff1663d5fa2b0082856040518363ffffffff1660e01b81526004016101489291906102e2565b600060405180830381600087803b15801561016257600080fd5b505af1158015610176573d6000803e3d6000fd5b505050508473ffffffffffffffffffffffffffffffffffffffff16635b0fc9c382856040518363ffffffff1660e01b81526004016101b59291906102e2565b600060405180830381600087803b1580156101cf57600080fd5b505af11580156101e3573d6000803e3d6000fd5b50505050505050505050565b6000813590506101fe81610416565b92915050565b6000813590506102138161042d565b92915050565b60008060008060008060c0878903121561023657610235610411565b5b600061024489828a016101ef565b965050602061025589828a016101ef565b955050604061026689828a01610204565b945050606061027789828a016101ef565b935050608061028889828a01610204565b92505060a061029989828a01610204565b9150509295509295509295565b6102af81610379565b82525050565b6102be8161038b565b82525050565b6102cd816103c9565b82525050565b6102dc816103db565b82525050565b60006040820190506102f760008301856102b5565b61030460208301846102a6565b9392505050565b600060a08201905061032060008301886102b5565b61032d60208301876102b5565b61033a60408301866102a6565b61034760608301856102a6565b61035460808301846102d3565b9695505050505050565b600060208201905061037360008301846102c4565b92915050565b600061038482610395565b9050919050565b6000819050919050565b600073ffffffffffffffffffffffffffffffffffffffff82169050919050565b600067ffffffffffffffff82169050919050565b60006103d4826103ed565b9050919050565b60006103e6826103b5565b9050919050565b60006103f8826103ff565b9050919050565b600061040a82610395565b9050919050565b600080fd5b61041f81610379565b811461042a57600080fd5b50565b6104368161038b565b811461044157600080fd5b5056fea2646970667358221220e485b86bdbf45f7aa32cf9509eb0983e44574ef8a12215cdebbb2807fe3734d464736f6c63430008070033",
					"opcodes": "PUSH1 0x80 PUSH1 0x40 MSTORE PUSH15 0xC2E074EC69A0DFB2997BA6C7D2E1E PUSH1 0x0 DUP1 PUSH2 0x100 EXP DUP2 SLOAD DUP2 PUSH20 0xFFFFFFFFFFFFFFFFFFFFFFFFFFFFFFFFFFFFFFFF MUL NOT AND SWAP1 DUP4 PUSH20 0xFFFFFFFFFFFFFFFFFFFFFFFFFFFFFFFFFFFFFFFF AND MUL OR SWAP1 SSTORE POP CALLVALUE DUP1 ISZERO PUSH2 0x5F JUMPI PUSH1 0x0 DUP1 REVERT JUMPDEST POP PUSH2 0x47A DUP1 PUSH2 0x6F PUSH1 0x0 CODECOPY PUSH1 0x0 RETURN INVALID PUSH1 0x80 PUSH1 0x40 MSTORE CALLVALUE DUP1 ISZERO PUSH2 0x10 JUMPI PUSH1 0x0 DUP1 REVERT JUMPDEST POP PUSH1 0x4 CALLDATASIZE LT PUSH2 0x36 JUMPI PUSH1 0x0 CALLDATALOAD PUSH1 0xE0 SHR DUP1 PUSH4 0x3452018A EQ PUSH2 0x3B JUMPI DUP1 PUSH4 0xB99F0AB4 EQ PUSH2 0x59 JUMPI JUMPDEST PUSH1 0x0 DUP1 REVERT JUMPDEST PUSH2 0x43 PUSH2 0x75 JUMP JUMPDEST PUSH1 0x40 MLOAD PUSH2 0x50 SWAP2 SWAP1 PUSH2 0x35E JUMP JUMPDEST PUSH1 0x40 MLOAD DUP1 SWAP2 SUB SWAP1 RETURN JUMPDEST PUSH2 0x73 PUSH1 0x4 DUP1 CALLDATASIZE SUB DUP2 ADD SWAP1 PUSH2 0x6E SWAP2 SWAP1 PUSH2 0x219 JUMP JUMPDEST PUSH2 0x99 JUMP JUMPDEST STOP JUMPDEST PUSH1 0x0 DUP1 SLOAD SWAP1 PUSH2 0x100 EXP SWAP1 DIV PUSH20 0xFFFFFFFFFFFFFFFFFFFFFFFFFFFFFFFFFFFFFFFF AND DUP2 JUMP JUMPDEST DUP5 PUSH20 0xFFFFFFFFFFFFFFFFFFFFFFFFFFFFFFFFFFFFFFFF AND PUSH4 0x5EF2C7F0 DUP6 DUP5 ADDRESS DUP11 PUSH1 0x0 PUSH1 0x40 MLOAD DUP7 PUSH4 0xFFFFFFFF AND PUSH1 0xE0 SHL DUP2 MSTORE PUSH1 0x4 ADD PUSH2 0xDB SWAP6 SWAP5 SWAP4 SWAP3 SWAP2 SWAP1 PUSH2 0x30B JUMP JUMPDEST PUSH1 0x0 PUSH1 0x40 MLOAD DUP1 DUP4 SUB DUP2 PUSH1 0x0 DUP8 DUP1 EXTCODESIZE ISZERO DUP1 ISZERO PUSH2 0xF5 JUMPI PUSH1 0x0 DUP1 REVERT JUMPDEST POP GAS CALL ISZERO DUP1 ISZERO PUSH2 0x109 JUMPI RETURNDATASIZE PUSH1 0x0 DUP1 RETURNDATACOPY RETURNDATASIZE PUSH1 0x0 REVERT JUMPDEST POP POP POP POP DUP6 PUSH20 0xFFFFFFFFFFFFFFFFFFFFFFFFFFFFFFFFFFFFFFFF AND PUSH4 0xD5FA2B00 DUP3 DUP6 PUSH1 0x40 MLOAD DUP4 PUSH4 0xFFFFFFFF AND PUSH1 0xE0 SHL DUP2 MSTORE PUSH1 0x4 ADD PUSH2 0x148 SWAP3 SWAP2 SWAP1 PUSH2 0x2E2 JUMP JUMPDEST PUSH1 0x0 PUSH1 0x40 MLOAD DUP1 DUP4 SUB DUP2 PUSH1 0x0 DUP8 DUP1 EXTCODESIZE ISZERO DUP1 ISZERO PUSH2 0x162 JUMPI PUSH1 0x0 DUP1 REVERT JUMPDEST POP GAS CALL ISZERO DUP1 ISZERO PUSH2 0x176 JUMPI RETURNDATASIZE PUSH1 0x0 DUP1 RETURNDATACOPY RETURNDATASIZE PUSH1 0x0 REVERT JUMPDEST POP POP POP POP DUP5 PUSH20 0xFFFFFFFFFFFFFFFFFFFFFFFFFFFFFFFFFFFFFFFF AND PUSH4 0x5B0FC9C3 DUP3 DUP6 PUSH1 0x40 MLOAD DUP4 PUSH4 0xFFFFFFFF AND PUSH1 0xE0 SHL DUP2 MSTORE PUSH1 0x4 ADD PUSH2 0x1B5 SWAP3 SWAP2 SWAP1 PUSH2 0x2E2 JUMP JUMPDEST PUSH1 0x0 PUSH1 0x40 MLOAD DUP1 DUP4 SUB DUP2 PUSH1 0x0 DUP8 DUP1 EXTCODESIZE ISZERO DUP1 ISZERO PUSH2 0x1CF JUMPI PUSH1 0x0 DUP1 REVERT JUMPDEST POP GAS CALL ISZERO DUP1 ISZERO PUSH2 0x1E3 JUMPI RETURNDATASIZE PUSH1 0x0 DUP1 RETURNDATACOPY RETURNDATASIZE PUSH1 0x0 REVERT JUMPDEST POP POP POP POP POP POP POP POP POP POP JUMP JUMPDEST PUSH1 0x0 DUP2 CALLDATALOAD SWAP1 POP PUSH2 0x1FE DUP2 PUSH2 0x416 JUMP JUMPDEST SWAP3 SWAP2 POP POP JUMP JUMPDEST PUSH1 0x0 DUP2 CALLDATALOAD SWAP1 POP PUSH2 0x213 DUP2 PUSH2 0x42D JUMP JUMPDEST SWAP3 SWAP2 POP POP JUMP JUMPDEST PUSH1 0x0 DUP1 PUSH1 0x0 DUP1 PUSH1 0x0 DUP1 PUSH1 0xC0 DUP8 DUP10 SUB SLT ISZERO PUSH2 0x236 JUMPI PUSH2 0x235 PUSH2 0x411 JUMP JUMPDEST JUMPDEST PUSH1 0x0 PUSH2 0x244 DUP10 DUP3 DUP11 ADD PUSH2 0x1EF JUMP JUMPDEST SWAP7 POP POP PUSH1 0x20 PUSH2 0x255 DUP10 DUP3 DUP11 ADD PUSH2 0x1EF JUMP JUMPDEST SWAP6 POP POP PUSH1 0x40 PUSH2 0x266 DUP10 DUP3 DUP11 ADD PUSH2 0x204 JUMP JUMPDEST SWAP5 POP POP PUSH1 0x60 PUSH2 0x277 DUP10 DUP3 DUP11 ADD PUSH2 0x1EF JUMP JUMPDEST SWAP4 POP POP PUSH1 0x80 PUSH2 0x288 DUP10 DUP3 DUP11 ADD PUSH2 0x204 JUMP JUMPDEST SWAP3 POP POP PUSH1 0xA0 PUSH2 0x299 DUP10 DUP3 DUP11 ADD PUSH2 0x204 JUMP JUMPDEST SWAP2 POP POP SWAP3 SWAP6 POP SWAP3 SWAP6 POP SWAP3 SWAP6 JUMP JUMPDEST PUSH2 0x2AF DUP2 PUSH2 0x379 JUMP JUMPDEST DUP3 MSTORE POP POP JUMP JUMPDEST PUSH2 0x2BE DUP2 PUSH2 0x38B JUMP JUMPDEST DUP3 MSTORE POP POP JUMP JUMPDEST PUSH2 0x2CD DUP2 PUSH2 0x3C9 JUMP JUMPDEST DUP3 MSTORE POP POP JUMP JUMPDEST PUSH2 0x2DC DUP2 PUSH2 0x3DB JUMP JUMPDEST DUP3 MSTORE POP POP JUMP JUMPDEST PUSH1 0x0 PUSH1 0x40 DUP3 ADD SWAP1 POP PUSH2 0x2F7 PUSH1 0x0 DUP4 ADD DUP6 PUSH2 0x2B5 JUMP JUMPDEST PUSH2 0x304 PUSH1 0x20 DUP4 ADD DUP5 PUSH2 0x2A6 JUMP JUMPDEST SWAP4 SWAP3 POP POP POP JUMP JUMPDEST PUSH1 0x0 PUSH1 0xA0 DUP3 ADD SWAP1 POP PUSH2 0x320 PUSH1 0x0 DUP4 ADD DUP9 PUSH2 0x2B5 JUMP JUMPDEST PUSH2 0x32D PUSH1 0x20 DUP4 ADD DUP8 PUSH2 0x2B5 JUMP JUMPDEST PUSH2 0x33A PUSH1 0x40 DUP4 ADD DUP7 PUSH2 0x2A6 JUMP JUMPDEST PUSH2 0x347 PUSH1 0x60 DUP4 ADD DUP6 PUSH2 0x2A6 JUMP JUMPDEST PUSH2 0x354 PUSH1 0x80 DUP4 ADD DUP5 PUSH2 0x2D3 JUMP JUMPDEST SWAP7 SWAP6 POP POP POP POP POP POP JUMP JUMPDEST PUSH1 0x0 PUSH1 0x20 DUP3 ADD SWAP1 POP PUSH2 0x373 PUSH1 0x0 DUP4 ADD DUP5 PUSH2 0x2C4 JUMP JUMPDEST SWAP3 SWAP2 POP POP JUMP JUMPDEST PUSH1 0x0 PUSH2 0x384 DUP3 PUSH2 0x395 JUMP JUMPDEST SWAP1 POP SWAP2 SWAP1 POP JUMP JUMPDEST PUSH1 0x0 DUP2 SWAP1 POP SWAP2 SWAP1 POP JUMP JUMPDEST PUSH1 0x0 PUSH20 0xFFFFFFFFFFFFFFFFFFFFFFFFFFFFFFFFFFFFFFFF DUP3 AND SWAP1 POP SWAP2 SWAP1 POP JUMP JUMPDEST PUSH1 0x0 PUSH8 0xFFFFFFFFFFFFFFFF DUP3 AND SWAP1 POP SWAP2 SWAP1 POP JUMP JUMPDEST PUSH1 0x0 PUSH2 0x3D4 DUP3 PUSH2 0x3ED JUMP JUMPDEST SWAP1 POP SWAP2 SWAP1 POP JUMP JUMPDEST PUSH1 0x0 PUSH2 0x3E6 DUP3 PUSH2 0x3B5 JUMP JUMPDEST SWAP1 POP SWAP2 SWAP1 POP JUMP JUMPDEST PUSH1 0x0 PUSH2 0x3F8 DUP3 PUSH2 0x3FF JUMP JUMPDEST SWAP1 POP SWAP2 SWAP1 POP JUMP JUMPDEST PUSH1 0x0 PUSH2 0x40A DUP3 PUSH2 0x395 JUMP JUMPDEST SWAP1 POP SWAP2 SWAP1 POP JUMP JUMPDEST PUSH1 0x0 DUP1 REVERT JUMPDEST PUSH2 0x41F DUP2 PUSH2 0x379 JUMP JUMPDEST DUP2 EQ PUSH2 0x42A JUMPI PUSH1 0x0 DUP1 REVERT JUMPDEST POP JUMP JUMPDEST PUSH2 0x436 DUP2 PUSH2 0x38B JUMP JUMPDEST DUP2 EQ PUSH2 0x441 JUMPI PUSH1 0x0 DUP1 REVERT JUMPDEST POP JUMP INVALID LOG2 PUSH5 0x6970667358 0x22 SLT KECCAK256 0xE4 DUP6 0xB8 PUSH12 0xDBF45F7AA32CF9509EB0983E DIFFICULTY JUMPI 0x4E 0xF8 LOG1 0x22 ISZERO 0xCD 0xEB 0xBB 0x28 SMOD INVALID CALLDATACOPY CALLVALUE 0xD4 PUSH5 0x736F6C6343 STOP ADDMOD SMOD STOP CALLER "
				},
				"gasEstimates": {
					"creation": {
						"codeDepositCost": "229200",
						"executionCost": "24536",
						"totalCost": "253736"
					},
					"external": {
						"_ens()": "2575",
						"setSubNode(address,address,bytes32,address,bytes32,bytes32)": "infinite"
					}
				},
				"methodIdentifiers": {
					"_ens()": "3452018a",
					"setSubNode(address,address,bytes32,address,bytes32,bytes32)": "b99f0ab4"
				}
			},
			"storageLayout": {
				"storage": [
					{
						"astId": 50,
						"contract": "Ethereum/ENS/contracts/ENSHandler.sol:ENSHandler",
						"label": "_ens",
						"offset": 0,
						"slot": "0",
						"type": "t_contract(ENS)33"
					}
				],
				"types": {
					"t_contract(ENS)33": {
						"encoding": "inplace",
						"label": "contract ENS",
						"numberOfBytes": "20"
					}
				}
			},
			"userdoc": {
				"kind": "user",
				"methods": {},
				"version": 1
			}
		}
	}
}