{
	"Ethereum/ENS/contracts/ENSHandler.sol": {
		"ENSHadler": {
			"abi": [
				{
					"inputs": [
						{
							"internalType": "address",
							"name": "_resolver",
							"type": "address"
						},
						{
							"internalType": "address",
							"name": "_ens",
							"type": "address"
						},
						{
							"internalType": "address",
							"name": "_target",
							"type": "address"
						},
						{
							"internalType": "bytes32",
							"name": "_label",
							"type": "bytes32"
						},
						{
							"internalType": "bytes32",
							"name": "_subNodeHash",
							"type": "bytes32"
						}
					],
					"name": "setSubNode",
					"outputs": [],
					"stateMutability": "nonpayable",
					"type": "function"
				}
			],
			"devdoc": {
				"kind": "dev",
				"methods": {},
				"version": 1
			},
			"evm": {
				"assembly": "    /* \"Ethereum/ENS/contracts/ENSHandler.sol\":373:968  contract ENSHadler {... */\n  mstore(0x40, 0x80)\n    /* \"Ethereum/ENS/contracts/ENSHandler.sol\":556:622  0xfd7f5c28743a891291f9f9971b1e06920f5a26919632c52b05c186bbc4d2fb54 */\n  0xfd7f5c28743a891291f9f9971b1e06920f5a26919632c52b05c186bbc4d2fb54\n    /* \"Ethereum/ENS/contracts/ENSHandler.sol\":528:622  bytes32 private _rootNode = 0xfd7f5c28743a891291f9f9971b1e06920f5a26919632c52b05c186bbc4d2fb54 */\n  0x00\n  shl\n  0x00\n  sstore\n    /* \"Ethereum/ENS/contracts/ENSHandler.sol\":373:968  contract ENSHadler {... */\n  callvalue\n  dup1\n  iszero\n  tag_1\n  jumpi\n  0x00\n  dup1\n  revert\ntag_1:\n  pop\n  dataSize(sub_0)\n  dup1\n  dataOffset(sub_0)\n  0x00\n  codecopy\n  0x00\n  return\nstop\n\nsub_0: assembly {\n        /* \"Ethereum/ENS/contracts/ENSHandler.sol\":373:968  contract ENSHadler {... */\n      mstore(0x40, 0x80)\n      callvalue\n      dup1\n      iszero\n      tag_1\n      jumpi\n      0x00\n      dup1\n      revert\n    tag_1:\n      pop\n      jumpi(tag_2, lt(calldatasize, 0x04))\n      shr(0xe0, calldataload(0x00))\n      dup1\n      0x56dcbdc0\n      eq\n      tag_3\n      jumpi\n    tag_2:\n      0x00\n      dup1\n      revert\n        /* \"Ethereum/ENS/contracts/ENSHandler.sol\":629:966  function setSubNode(address _resolver, address _ens, address _target, bytes32 _label, bytes32 _subNodeHash) external {... */\n    tag_3:\n      tag_4\n      0x04\n      dup1\n      calldatasize\n      sub\n      dup2\n      add\n      swap1\n      tag_5\n      swap2\n      swap1\n      tag_6\n      jump\t// in\n    tag_5:\n      tag_7\n      jump\t// in\n    tag_4:\n      stop\n    tag_7:\n        /* \"Ethereum/ENS/contracts/ENSHandler.sol\":760:764  _ens */\n      dup4\n        /* \"Ethereum/ENS/contracts/ENSHandler.sol\":756:782  ENS(_ens).setSubnodeRecord */\n      0xffffffffffffffffffffffffffffffffffffffff\n      and\n      0x5ef2c7f0\n        /* \"Ethereum/ENS/contracts/ENSHandler.sol\":783:792  _rootNode */\n      sload(0x00)\n        /* \"Ethereum/ENS/contracts/ENSHandler.sol\":794:800  _label */\n      dup5\n        /* \"Ethereum/ENS/contracts/ENSHandler.sol\":810:814  this */\n      address\n        /* \"Ethereum/ENS/contracts/ENSHandler.sol\":817:826  _resolver */\n      dup10\n        /* \"Ethereum/ENS/contracts/ENSHandler.sol\":828:829  0 */\n      0x00\n        /* \"Ethereum/ENS/contracts/ENSHandler.sol\":756:830  ENS(_ens).setSubnodeRecord(_rootNode, _label, address(this), _resolver, 0) */\n      mload(0x40)\n      dup7\n      0xffffffff\n      and\n      0xe0\n      shl\n      dup2\n      mstore\n      0x04\n      add\n      tag_9\n      swap6\n      swap5\n      swap4\n      swap3\n      swap2\n      swap1\n      tag_10\n      jump\t// in\n    tag_9:\n      0x00\n      mload(0x40)\n      dup1\n      dup4\n      sub\n      dup2\n      0x00\n      dup8\n      dup1\n      extcodesize\n      iszero\n      dup1\n      iszero\n      tag_11\n      jumpi\n      0x00\n      dup1\n      revert\n    tag_11:\n      pop\n      gas\n      call\n      iszero\n      dup1\n      iszero\n      tag_13\n      jumpi\n      returndatasize\n      0x00\n      dup1\n      returndatacopy\n      revert(0x00, returndatasize)\n    tag_13:\n      pop\n      pop\n      pop\n      pop\n        /* \"Ethereum/ENS/contracts/ENSHandler.sol\":852:861  _resolver */\n      dup5\n        /* \"Ethereum/ENS/contracts/ENSHandler.sol\":840:870  ENSResolver(_resolver).setAddr */\n      0xffffffffffffffffffffffffffffffffffffffff\n      and\n      0xd5fa2b00\n        /* \"Ethereum/ENS/contracts/ENSHandler.sol\":871:883  _subNodeHash */\n      dup3\n        /* \"Ethereum/ENS/contracts/ENSHandler.sol\":885:892  _target */\n      dup6\n        /* \"Ethereum/ENS/contracts/ENSHandler.sol\":840:893  ENSResolver(_resolver).setAddr(_subNodeHash, _target) */\n      mload(0x40)\n      dup4\n      0xffffffff\n      and\n      0xe0\n      shl\n      dup2\n      mstore\n      0x04\n      add\n      tag_14\n      swap3\n      swap2\n      swap1\n      tag_15\n      jump\t// in\n    tag_14:\n      0x00\n      mload(0x40)\n      dup1\n      dup4\n      sub\n      dup2\n      0x00\n      dup8\n      dup1\n      extcodesize\n      iszero\n      dup1\n      iszero\n      tag_16\n      jumpi\n      0x00\n      dup1\n      revert\n    tag_16:\n      pop\n      gas\n      call\n      iszero\n      dup1\n      iszero\n      tag_18\n      jumpi\n      returndatasize\n      0x00\n      dup1\n      returndatacopy\n      revert(0x00, returndatasize)\n    tag_18:\n      pop\n      pop\n      pop\n      pop\n        /* \"Ethereum/ENS/contracts/ENSHandler.sol\":907:911  _ens */\n      dup4\n        /* \"Ethereum/ENS/contracts/ENSHandler.sol\":903:928  ENS(_ens).setSubnodeOwner */\n      0xffffffffffffffffffffffffffffffffffffffff\n      and\n      0x06ab5923\n        /* \"Ethereum/ENS/contracts/ENSHandler.sol\":929:941  _subNodeHash */\n      dup3\n        /* \"Ethereum/ENS/contracts/ENSHandler.sol\":943:949  _label */\n      dup5\n        /* \"Ethereum/ENS/contracts/ENSHandler.sol\":951:958  _target */\n      dup7\n        /* \"Ethereum/ENS/contracts/ENSHandler.sol\":903:959  ENS(_ens).setSubnodeOwner(_subNodeHash, _label, _target) */\n      mload(0x40)\n      dup5\n      0xffffffff\n      and\n      0xe0\n      shl\n      dup2\n      mstore\n      0x04\n      add\n      tag_19\n      swap4\n      swap3\n      swap2\n      swap1\n      tag_20\n      jump\t// in\n    tag_19:\n      0x20\n      mload(0x40)\n      dup1\n      dup4\n      sub\n      dup2\n      0x00\n      dup8\n      dup1\n      extcodesize\n      iszero\n      dup1\n      iszero\n      tag_21\n      jumpi\n      0x00\n      dup1\n      revert\n    tag_21:\n      pop\n      gas\n      call\n      iszero\n      dup1\n      iszero\n      tag_23\n      jumpi\n      returndatasize\n      0x00\n      dup1\n      returndatacopy\n      revert(0x00, returndatasize)\n    tag_23:\n      pop\n      pop\n      pop\n      pop\n      mload(0x40)\n      returndatasize\n      not(0x1f)\n      0x1f\n      dup3\n      add\n      and\n      dup3\n      add\n      dup1\n      0x40\n      mstore\n      pop\n      dup2\n      add\n      swap1\n      tag_24\n      swap2\n      swap1\n      tag_25\n      jump\t// in\n    tag_24:\n      pop\n        /* \"Ethereum/ENS/contracts/ENSHandler.sol\":629:966  function setSubNode(address _resolver, address _ens, address _target, bytes32 _label, bytes32 _subNodeHash) external {... */\n      pop\n      pop\n      pop\n      pop\n      pop\n      jump\t// out\n        /* \"#utility.yul\":7:146   */\n    tag_27:\n        /* \"#utility.yul\":53:58   */\n      0x00\n        /* \"#utility.yul\":91:97   */\n      dup2\n        /* \"#utility.yul\":78:98   */\n      calldataload\n        /* \"#utility.yul\":69:98   */\n      swap1\n      pop\n        /* \"#utility.yul\":107:140   */\n      tag_29\n        /* \"#utility.yul\":134:139   */\n      dup2\n        /* \"#utility.yul\":107:140   */\n      tag_30\n      jump\t// in\n    tag_29:\n        /* \"#utility.yul\":7:146   */\n      swap3\n      swap2\n      pop\n      pop\n      jump\t// out\n        /* \"#utility.yul\":152:291   */\n    tag_31:\n        /* \"#utility.yul\":198:203   */\n      0x00\n        /* \"#utility.yul\":236:242   */\n      dup2\n        /* \"#utility.yul\":223:243   */\n      calldataload\n        /* \"#utility.yul\":214:243   */\n      swap1\n      pop\n        /* \"#utility.yul\":252:285   */\n      tag_33\n        /* \"#utility.yul\":279:284   */\n      dup2\n        /* \"#utility.yul\":252:285   */\n      tag_34\n      jump\t// in\n    tag_33:\n        /* \"#utility.yul\":152:291   */\n      swap3\n      swap2\n      pop\n      pop\n      jump\t// out\n        /* \"#utility.yul\":297:440   */\n    tag_35:\n        /* \"#utility.yul\":354:359   */\n      0x00\n        /* \"#utility.yul\":385:391   */\n      dup2\n        /* \"#utility.yul\":379:392   */\n      mload\n        /* \"#utility.yul\":370:392   */\n      swap1\n      pop\n        /* \"#utility.yul\":401:434   */\n      tag_37\n        /* \"#utility.yul\":428:433   */\n      dup2\n        /* \"#utility.yul\":401:434   */\n      tag_34\n      jump\t// in\n    tag_37:\n        /* \"#utility.yul\":297:440   */\n      swap3\n      swap2\n      pop\n      pop\n      jump\t// out\n        /* \"#utility.yul\":446:1357   */\n    tag_6:\n        /* \"#utility.yul\":541:547   */\n      0x00\n        /* \"#utility.yul\":549:555   */\n      dup1\n        /* \"#utility.yul\":557:563   */\n      0x00\n        /* \"#utility.yul\":565:571   */\n      dup1\n        /* \"#utility.yul\":573:579   */\n      0x00\n        /* \"#utility.yul\":622:625   */\n      0xa0\n        /* \"#utility.yul\":610:619   */\n      dup7\n        /* \"#utility.yul\":601:608   */\n      dup9\n        /* \"#utility.yul\":597:620   */\n      sub\n        /* \"#utility.yul\":593:626   */\n      slt\n        /* \"#utility.yul\":590:710   */\n      iszero\n      tag_39\n      jumpi\n        /* \"#utility.yul\":629:708   */\n      tag_40\n      tag_41\n      jump\t// in\n    tag_40:\n        /* \"#utility.yul\":590:710   */\n    tag_39:\n        /* \"#utility.yul\":749:750   */\n      0x00\n        /* \"#utility.yul\":774:827   */\n      tag_42\n        /* \"#utility.yul\":819:826   */\n      dup9\n        /* \"#utility.yul\":810:816   */\n      dup3\n        /* \"#utility.yul\":799:808   */\n      dup10\n        /* \"#utility.yul\":795:817   */\n      add\n        /* \"#utility.yul\":774:827   */\n      tag_27\n      jump\t// in\n    tag_42:\n        /* \"#utility.yul\":764:827   */\n      swap6\n      pop\n        /* \"#utility.yul\":720:837   */\n      pop\n        /* \"#utility.yul\":876:878   */\n      0x20\n        /* \"#utility.yul\":902:955   */\n      tag_43\n        /* \"#utility.yul\":947:954   */\n      dup9\n        /* \"#utility.yul\":938:944   */\n      dup3\n        /* \"#utility.yul\":927:936   */\n      dup10\n        /* \"#utility.yul\":923:945   */\n      add\n        /* \"#utility.yul\":902:955   */\n      tag_27\n      jump\t// in\n    tag_43:\n        /* \"#utility.yul\":892:955   */\n      swap5\n      pop\n        /* \"#utility.yul\":847:965   */\n      pop\n        /* \"#utility.yul\":1004:1006   */\n      0x40\n        /* \"#utility.yul\":1030:1083   */\n      tag_44\n        /* \"#utility.yul\":1075:1082   */\n      dup9\n        /* \"#utility.yul\":1066:1072   */\n      dup3\n        /* \"#utility.yul\":1055:1064   */\n      dup10\n        /* \"#utility.yul\":1051:1073   */\n      add\n        /* \"#utility.yul\":1030:1083   */\n      tag_27\n      jump\t// in\n    tag_44:\n        /* \"#utility.yul\":1020:1083   */\n      swap4\n      pop\n        /* \"#utility.yul\":975:1093   */\n      pop\n        /* \"#utility.yul\":1132:1134   */\n      0x60\n        /* \"#utility.yul\":1158:1211   */\n      tag_45\n        /* \"#utility.yul\":1203:1210   */\n      dup9\n        /* \"#utility.yul\":1194:1200   */\n      dup3\n        /* \"#utility.yul\":1183:1192   */\n      dup10\n        /* \"#utility.yul\":1179:1201   */\n      add\n        /* \"#utility.yul\":1158:1211   */\n      tag_31\n      jump\t// in\n    tag_45:\n        /* \"#utility.yul\":1148:1211   */\n      swap3\n      pop\n        /* \"#utility.yul\":1103:1221   */\n      pop\n        /* \"#utility.yul\":1260:1263   */\n      0x80\n        /* \"#utility.yul\":1287:1340   */\n      tag_46\n        /* \"#utility.yul\":1332:1339   */\n      dup9\n        /* \"#utility.yul\":1323:1329   */\n      dup3\n        /* \"#utility.yul\":1312:1321   */\n      dup10\n        /* \"#utility.yul\":1308:1330   */\n      add\n        /* \"#utility.yul\":1287:1340   */\n      tag_31\n      jump\t// in\n    tag_46:\n        /* \"#utility.yul\":1277:1340   */\n      swap2\n      pop\n        /* \"#utility.yul\":1231:1350   */\n      pop\n        /* \"#utility.yul\":446:1357   */\n      swap3\n      swap6\n      pop\n      swap3\n      swap6\n      swap1\n      swap4\n      pop\n      jump\t// out\n        /* \"#utility.yul\":1363:1714   */\n    tag_25:\n        /* \"#utility.yul\":1433:1439   */\n      0x00\n        /* \"#utility.yul\":1482:1484   */\n      0x20\n        /* \"#utility.yul\":1470:1479   */\n      dup3\n        /* \"#utility.yul\":1461:1468   */\n      dup5\n        /* \"#utility.yul\":1457:1480   */\n      sub\n        /* \"#utility.yul\":1453:1485   */\n      slt\n        /* \"#utility.yul\":1450:1569   */\n      iszero\n      tag_48\n      jumpi\n        /* \"#utility.yul\":1488:1567   */\n      tag_49\n      tag_41\n      jump\t// in\n    tag_49:\n        /* \"#utility.yul\":1450:1569   */\n    tag_48:\n        /* \"#utility.yul\":1608:1609   */\n      0x00\n        /* \"#utility.yul\":1633:1697   */\n      tag_50\n        /* \"#utility.yul\":1689:1696   */\n      dup5\n        /* \"#utility.yul\":1680:1686   */\n      dup3\n        /* \"#utility.yul\":1669:1678   */\n      dup6\n        /* \"#utility.yul\":1665:1687   */\n      add\n        /* \"#utility.yul\":1633:1697   */\n      tag_35\n      jump\t// in\n    tag_50:\n        /* \"#utility.yul\":1623:1697   */\n      swap2\n      pop\n        /* \"#utility.yul\":1579:1707   */\n      pop\n        /* \"#utility.yul\":1363:1714   */\n      swap3\n      swap2\n      pop\n      pop\n      jump\t// out\n        /* \"#utility.yul\":1720:1838   */\n    tag_51:\n        /* \"#utility.yul\":1807:1831   */\n      tag_53\n        /* \"#utility.yul\":1825:1830   */\n      dup2\n        /* \"#utility.yul\":1807:1831   */\n      tag_54\n      jump\t// in\n    tag_53:\n        /* \"#utility.yul\":1802:1805   */\n      dup3\n        /* \"#utility.yul\":1795:1832   */\n      mstore\n        /* \"#utility.yul\":1720:1838   */\n      pop\n      pop\n      jump\t// out\n        /* \"#utility.yul\":1844:1962   */\n    tag_55:\n        /* \"#utility.yul\":1931:1955   */\n      tag_57\n        /* \"#utility.yul\":1949:1954   */\n      dup2\n        /* \"#utility.yul\":1931:1955   */\n      tag_58\n      jump\t// in\n    tag_57:\n        /* \"#utility.yul\":1926:1929   */\n      dup3\n        /* \"#utility.yul\":1919:1956   */\n      mstore\n        /* \"#utility.yul\":1844:1962   */\n      pop\n      pop\n      jump\t// out\n        /* \"#utility.yul\":1968:2113   */\n    tag_59:\n        /* \"#utility.yul\":2062:2106   */\n      tag_61\n        /* \"#utility.yul\":2100:2105   */\n      dup2\n        /* \"#utility.yul\":2062:2106   */\n      tag_62\n      jump\t// in\n    tag_61:\n        /* \"#utility.yul\":2057:2060   */\n      dup3\n        /* \"#utility.yul\":2050:2107   */\n      mstore\n        /* \"#utility.yul\":1968:2113   */\n      pop\n      pop\n      jump\t// out\n        /* \"#utility.yul\":2119:2451   */\n    tag_15:\n        /* \"#utility.yul\":2240:2244   */\n      0x00\n        /* \"#utility.yul\":2278:2280   */\n      0x40\n        /* \"#utility.yul\":2267:2276   */\n      dup3\n        /* \"#utility.yul\":2263:2281   */\n      add\n        /* \"#utility.yul\":2255:2281   */\n      swap1\n      pop\n        /* \"#utility.yul\":2291:2362   */\n      tag_64\n        /* \"#utility.yul\":2359:2360   */\n      0x00\n        /* \"#utility.yul\":2348:2357   */\n      dup4\n        /* \"#utility.yul\":2344:2361   */\n      add\n        /* \"#utility.yul\":2335:2341   */\n      dup6\n        /* \"#utility.yul\":2291:2362   */\n      tag_55\n      jump\t// in\n    tag_64:\n        /* \"#utility.yul\":2372:2444   */\n      tag_65\n        /* \"#utility.yul\":2440:2442   */\n      0x20\n        /* \"#utility.yul\":2429:2438   */\n      dup4\n        /* \"#utility.yul\":2425:2443   */\n      add\n        /* \"#utility.yul\":2416:2422   */\n      dup5\n        /* \"#utility.yul\":2372:2444   */\n      tag_51\n      jump\t// in\n    tag_65:\n        /* \"#utility.yul\":2119:2451   */\n      swap4\n      swap3\n      pop\n      pop\n      pop\n      jump\t// out\n        /* \"#utility.yul\":2457:2899   */\n    tag_20:\n        /* \"#utility.yul\":2606:2610   */\n      0x00\n        /* \"#utility.yul\":2644:2646   */\n      0x60\n        /* \"#utility.yul\":2633:2642   */\n      dup3\n        /* \"#utility.yul\":2629:2647   */\n      add\n        /* \"#utility.yul\":2621:2647   */\n      swap1\n      pop\n        /* \"#utility.yul\":2657:2728   */\n      tag_67\n        /* \"#utility.yul\":2725:2726   */\n      0x00\n        /* \"#utility.yul\":2714:2723   */\n      dup4\n        /* \"#utility.yul\":2710:2727   */\n      add\n        /* \"#utility.yul\":2701:2707   */\n      dup7\n        /* \"#utility.yul\":2657:2728   */\n      tag_55\n      jump\t// in\n    tag_67:\n        /* \"#utility.yul\":2738:2810   */\n      tag_68\n        /* \"#utility.yul\":2806:2808   */\n      0x20\n        /* \"#utility.yul\":2795:2804   */\n      dup4\n        /* \"#utility.yul\":2791:2809   */\n      add\n        /* \"#utility.yul\":2782:2788   */\n      dup6\n        /* \"#utility.yul\":2738:2810   */\n      tag_55\n      jump\t// in\n    tag_68:\n        /* \"#utility.yul\":2820:2892   */\n      tag_69\n        /* \"#utility.yul\":2888:2890   */\n      0x40\n        /* \"#utility.yul\":2877:2886   */\n      dup4\n        /* \"#utility.yul\":2873:2891   */\n      add\n        /* \"#utility.yul\":2864:2870   */\n      dup5\n        /* \"#utility.yul\":2820:2892   */\n      tag_51\n      jump\t// in\n    tag_69:\n        /* \"#utility.yul\":2457:2899   */\n      swap5\n      swap4\n      pop\n      pop\n      pop\n      pop\n      jump\t// out\n        /* \"#utility.yul\":2905:3583   */\n    tag_10:\n        /* \"#utility.yul\":3117:3121   */\n      0x00\n        /* \"#utility.yul\":3155:3158   */\n      0xa0\n        /* \"#utility.yul\":3144:3153   */\n      dup3\n        /* \"#utility.yul\":3140:3159   */\n      add\n        /* \"#utility.yul\":3132:3159   */\n      swap1\n      pop\n        /* \"#utility.yul\":3169:3240   */\n      tag_71\n        /* \"#utility.yul\":3237:3238   */\n      0x00\n        /* \"#utility.yul\":3226:3235   */\n      dup4\n        /* \"#utility.yul\":3222:3239   */\n      add\n        /* \"#utility.yul\":3213:3219   */\n      dup9\n        /* \"#utility.yul\":3169:3240   */\n      tag_55\n      jump\t// in\n    tag_71:\n        /* \"#utility.yul\":3250:3322   */\n      tag_72\n        /* \"#utility.yul\":3318:3320   */\n      0x20\n        /* \"#utility.yul\":3307:3316   */\n      dup4\n        /* \"#utility.yul\":3303:3321   */\n      add\n        /* \"#utility.yul\":3294:3300   */\n      dup8\n        /* \"#utility.yul\":3250:3322   */\n      tag_55\n      jump\t// in\n    tag_72:\n        /* \"#utility.yul\":3332:3404   */\n      tag_73\n        /* \"#utility.yul\":3400:3402   */\n      0x40\n        /* \"#utility.yul\":3389:3398   */\n      dup4\n        /* \"#utility.yul\":3385:3403   */\n      add\n        /* \"#utility.yul\":3376:3382   */\n      dup7\n        /* \"#utility.yul\":3332:3404   */\n      tag_51\n      jump\t// in\n    tag_73:\n        /* \"#utility.yul\":3414:3486   */\n      tag_74\n        /* \"#utility.yul\":3482:3484   */\n      0x60\n        /* \"#utility.yul\":3471:3480   */\n      dup4\n        /* \"#utility.yul\":3467:3485   */\n      add\n        /* \"#utility.yul\":3458:3464   */\n      dup6\n        /* \"#utility.yul\":3414:3486   */\n      tag_51\n      jump\t// in\n    tag_74:\n        /* \"#utility.yul\":3496:3576   */\n      tag_75\n        /* \"#utility.yul\":3571:3574   */\n      0x80\n        /* \"#utility.yul\":3560:3569   */\n      dup4\n        /* \"#utility.yul\":3556:3575   */\n      add\n        /* \"#utility.yul\":3547:3553   */\n      dup5\n        /* \"#utility.yul\":3496:3576   */\n      tag_59\n      jump\t// in\n    tag_75:\n        /* \"#utility.yul\":2905:3583   */\n      swap7\n      swap6\n      pop\n      pop\n      pop\n      pop\n      pop\n      pop\n      jump\t// out\n        /* \"#utility.yul\":3670:3766   */\n    tag_54:\n        /* \"#utility.yul\":3707:3714   */\n      0x00\n        /* \"#utility.yul\":3736:3760   */\n      tag_79\n        /* \"#utility.yul\":3754:3759   */\n      dup3\n        /* \"#utility.yul\":3736:3760   */\n      tag_80\n      jump\t// in\n    tag_79:\n        /* \"#utility.yul\":3725:3760   */\n      swap1\n      pop\n        /* \"#utility.yul\":3670:3766   */\n      swap2\n      swap1\n      pop\n      jump\t// out\n        /* \"#utility.yul\":3772:3849   */\n    tag_58:\n        /* \"#utility.yul\":3809:3816   */\n      0x00\n        /* \"#utility.yul\":3838:3843   */\n      dup2\n        /* \"#utility.yul\":3827:3843   */\n      swap1\n      pop\n        /* \"#utility.yul\":3772:3849   */\n      swap2\n      swap1\n      pop\n      jump\t// out\n        /* \"#utility.yul\":3855:3981   */\n    tag_80:\n        /* \"#utility.yul\":3892:3899   */\n      0x00\n        /* \"#utility.yul\":3932:3974   */\n      0xffffffffffffffffffffffffffffffffffffffff\n        /* \"#utility.yul\":3925:3930   */\n      dup3\n        /* \"#utility.yul\":3921:3975   */\n      and\n        /* \"#utility.yul\":3910:3975   */\n      swap1\n      pop\n        /* \"#utility.yul\":3855:3981   */\n      swap2\n      swap1\n      pop\n      jump\t// out\n        /* \"#utility.yul\":3987:4088   */\n    tag_83:\n        /* \"#utility.yul\":4023:4030   */\n      0x00\n        /* \"#utility.yul\":4063:4081   */\n      0xffffffffffffffff\n        /* \"#utility.yul\":4056:4061   */\n      dup3\n        /* \"#utility.yul\":4052:4082   */\n      and\n        /* \"#utility.yul\":4041:4082   */\n      swap1\n      pop\n        /* \"#utility.yul\":3987:4088   */\n      swap2\n      swap1\n      pop\n      jump\t// out\n        /* \"#utility.yul\":4094:4213   */\n    tag_62:\n        /* \"#utility.yul\":4151:4160   */\n      0x00\n        /* \"#utility.yul\":4184:4207   */\n      tag_86\n        /* \"#utility.yul\":4201:4206   */\n      dup3\n        /* \"#utility.yul\":4184:4207   */\n      tag_83\n      jump\t// in\n    tag_86:\n        /* \"#utility.yul\":4171:4207   */\n      swap1\n      pop\n        /* \"#utility.yul\":4094:4213   */\n      swap2\n      swap1\n      pop\n      jump\t// out\n        /* \"#utility.yul\":4342:4459   */\n    tag_41:\n        /* \"#utility.yul\":4451:4452   */\n      0x00\n        /* \"#utility.yul\":4448:4449   */\n      dup1\n        /* \"#utility.yul\":4441:4453   */\n      revert\n        /* \"#utility.yul\":4465:4587   */\n    tag_30:\n        /* \"#utility.yul\":4538:4562   */\n      tag_91\n        /* \"#utility.yul\":4556:4561   */\n      dup2\n        /* \"#utility.yul\":4538:4562   */\n      tag_54\n      jump\t// in\n    tag_91:\n        /* \"#utility.yul\":4531:4536   */\n      dup2\n        /* \"#utility.yul\":4528:4563   */\n      eq\n        /* \"#utility.yul\":4518:4581   */\n      tag_92\n      jumpi\n        /* \"#utility.yul\":4577:4578   */\n      0x00\n        /* \"#utility.yul\":4574:4575   */\n      dup1\n        /* \"#utility.yul\":4567:4579   */\n      revert\n        /* \"#utility.yul\":4518:4581   */\n    tag_92:\n        /* \"#utility.yul\":4465:4587   */\n      pop\n      jump\t// out\n        /* \"#utility.yul\":4593:4715   */\n    tag_34:\n        /* \"#utility.yul\":4666:4690   */\n      tag_94\n        /* \"#utility.yul\":4684:4689   */\n      dup2\n        /* \"#utility.yul\":4666:4690   */\n      tag_58\n      jump\t// in\n    tag_94:\n        /* \"#utility.yul\":4659:4664   */\n      dup2\n        /* \"#utility.yul\":4656:4691   */\n      eq\n        /* \"#utility.yul\":4646:4709   */\n      tag_95\n      jumpi\n        /* \"#utility.yul\":4705:4706   */\n      0x00\n        /* \"#utility.yul\":4702:4703   */\n      dup1\n        /* \"#utility.yul\":4695:4707   */\n      revert\n        /* \"#utility.yul\":4646:4709   */\n    tag_95:\n        /* \"#utility.yul\":4593:4715   */\n      pop\n      jump\t// out\n\n    auxdata: 0xa26469706673582212202f2afb7239a950898b8050647c3bf11f63de68193e55fd579d25c8bd5aae843164736f6c63430008070033\n}\n",
				"bytecode": {
					"linkReferences": {},
					"object": "60806040527ffd7f5c28743a891291f9f9971b1e06920f5a26919632c52b05c186bbc4d2fb5460001b60005534801561003757600080fd5b50610458806100476000396000f3fe608060405234801561001057600080fd5b506004361061002b5760003560e01c806356dcbdc014610030575b600080fd5b61004a60048036038101906100459190610205565b61004c565b005b8373ffffffffffffffffffffffffffffffffffffffff16635ef2c7f060005484308960006040518663ffffffff1660e01b815260040161009095949392919061033a565b600060405180830381600087803b1580156100aa57600080fd5b505af11580156100be573d6000803e3d6000fd5b505050508473ffffffffffffffffffffffffffffffffffffffff1663d5fa2b0082856040518363ffffffff1660e01b81526004016100fd9291906102da565b600060405180830381600087803b15801561011757600080fd5b505af115801561012b573d6000803e3d6000fd5b505050508373ffffffffffffffffffffffffffffffffffffffff166306ab59238284866040518463ffffffff1660e01b815260040161016c93929190610303565b602060405180830381600087803b15801561018657600080fd5b505af115801561019a573d6000803e3d6000fd5b505050506040513d601f19601f820116820180604052508101906101be9190610280565b505050505050565b6000813590506101d5816103f4565b92915050565b6000813590506101ea8161040b565b92915050565b6000815190506101ff8161040b565b92915050565b600080600080600060a08688031215610221576102206103ef565b5b600061022f888289016101c6565b9550506020610240888289016101c6565b9450506040610251888289016101c6565b9350506060610262888289016101db565b9250506080610273888289016101db565b9150509295509295909350565b600060208284031215610296576102956103ef565b5b60006102a4848285016101f0565b91505092915050565b6102b68161038d565b82525050565b6102c58161039f565b82525050565b6102d4816103dd565b82525050565b60006040820190506102ef60008301856102bc565b6102fc60208301846102ad565b9392505050565b600060608201905061031860008301866102bc565b61032560208301856102bc565b61033260408301846102ad565b949350505050565b600060a08201905061034f60008301886102bc565b61035c60208301876102bc565b61036960408301866102ad565b61037660608301856102ad565b61038360808301846102cb565b9695505050505050565b6000610398826103a9565b9050919050565b6000819050919050565b600073ffffffffffffffffffffffffffffffffffffffff82169050919050565b600067ffffffffffffffff82169050919050565b60006103e8826103c9565b9050919050565b600080fd5b6103fd8161038d565b811461040857600080fd5b50565b6104148161039f565b811461041f57600080fd5b5056fea26469706673582212202f2afb7239a950898b8050647c3bf11f63de68193e55fd579d25c8bd5aae843164736f6c63430008070033",
					"opcodes": "PUSH1 0x80 PUSH1 0x40 MSTORE PUSH32 0xFD7F5C28743A891291F9F9971B1E06920F5A26919632C52B05C186BBC4D2FB54 PUSH1 0x0 SHL PUSH1 0x0 SSTORE CALLVALUE DUP1 ISZERO PUSH2 0x37 JUMPI PUSH1 0x0 DUP1 REVERT JUMPDEST POP PUSH2 0x458 DUP1 PUSH2 0x47 PUSH1 0x0 CODECOPY PUSH1 0x0 RETURN INVALID PUSH1 0x80 PUSH1 0x40 MSTORE CALLVALUE DUP1 ISZERO PUSH2 0x10 JUMPI PUSH1 0x0 DUP1 REVERT JUMPDEST POP PUSH1 0x4 CALLDATASIZE LT PUSH2 0x2B JUMPI PUSH1 0x0 CALLDATALOAD PUSH1 0xE0 SHR DUP1 PUSH4 0x56DCBDC0 EQ PUSH2 0x30 JUMPI JUMPDEST PUSH1 0x0 DUP1 REVERT JUMPDEST PUSH2 0x4A PUSH1 0x4 DUP1 CALLDATASIZE SUB DUP2 ADD SWAP1 PUSH2 0x45 SWAP2 SWAP1 PUSH2 0x205 JUMP JUMPDEST PUSH2 0x4C JUMP JUMPDEST STOP JUMPDEST DUP4 PUSH20 0xFFFFFFFFFFFFFFFFFFFFFFFFFFFFFFFFFFFFFFFF AND PUSH4 0x5EF2C7F0 PUSH1 0x0 SLOAD DUP5 ADDRESS DUP10 PUSH1 0x0 PUSH1 0x40 MLOAD DUP7 PUSH4 0xFFFFFFFF AND PUSH1 0xE0 SHL DUP2 MSTORE PUSH1 0x4 ADD PUSH2 0x90 SWAP6 SWAP5 SWAP4 SWAP3 SWAP2 SWAP1 PUSH2 0x33A JUMP JUMPDEST PUSH1 0x0 PUSH1 0x40 MLOAD DUP1 DUP4 SUB DUP2 PUSH1 0x0 DUP8 DUP1 EXTCODESIZE ISZERO DUP1 ISZERO PUSH2 0xAA JUMPI PUSH1 0x0 DUP1 REVERT JUMPDEST POP GAS CALL ISZERO DUP1 ISZERO PUSH2 0xBE JUMPI RETURNDATASIZE PUSH1 0x0 DUP1 RETURNDATACOPY RETURNDATASIZE PUSH1 0x0 REVERT JUMPDEST POP POP POP POP DUP5 PUSH20 0xFFFFFFFFFFFFFFFFFFFFFFFFFFFFFFFFFFFFFFFF AND PUSH4 0xD5FA2B00 DUP3 DUP6 PUSH1 0x40 MLOAD DUP4 PUSH4 0xFFFFFFFF AND PUSH1 0xE0 SHL DUP2 MSTORE PUSH1 0x4 ADD PUSH2 0xFD SWAP3 SWAP2 SWAP1 PUSH2 0x2DA JUMP JUMPDEST PUSH1 0x0 PUSH1 0x40 MLOAD DUP1 DUP4 SUB DUP2 PUSH1 0x0 DUP8 DUP1 EXTCODESIZE ISZERO DUP1 ISZERO PUSH2 0x117 JUMPI PUSH1 0x0 DUP1 REVERT JUMPDEST POP GAS CALL ISZERO DUP1 ISZERO PUSH2 0x12B JUMPI RETURNDATASIZE PUSH1 0x0 DUP1 RETURNDATACOPY RETURNDATASIZE PUSH1 0x0 REVERT JUMPDEST POP POP POP POP DUP4 PUSH20 0xFFFFFFFFFFFFFFFFFFFFFFFFFFFFFFFFFFFFFFFF AND PUSH4 0x6AB5923 DUP3 DUP5 DUP7 PUSH1 0x40 MLOAD DUP5 PUSH4 0xFFFFFFFF AND PUSH1 0xE0 SHL DUP2 MSTORE PUSH1 0x4 ADD PUSH2 0x16C SWAP4 SWAP3 SWAP2 SWAP1 PUSH2 0x303 JUMP JUMPDEST PUSH1 0x20 PUSH1 0x40 MLOAD DUP1 DUP4 SUB DUP2 PUSH1 0x0 DUP8 DUP1 EXTCODESIZE ISZERO DUP1 ISZERO PUSH2 0x186 JUMPI PUSH1 0x0 DUP1 REVERT JUMPDEST POP GAS CALL ISZERO DUP1 ISZERO PUSH2 0x19A JUMPI RETURNDATASIZE PUSH1 0x0 DUP1 RETURNDATACOPY RETURNDATASIZE PUSH1 0x0 REVERT JUMPDEST POP POP POP POP PUSH1 0x40 MLOAD RETURNDATASIZE PUSH1 0x1F NOT PUSH1 0x1F DUP3 ADD AND DUP3 ADD DUP1 PUSH1 0x40 MSTORE POP DUP2 ADD SWAP1 PUSH2 0x1BE SWAP2 SWAP1 PUSH2 0x280 JUMP JUMPDEST POP POP POP POP POP POP JUMP JUMPDEST PUSH1 0x0 DUP2 CALLDATALOAD SWAP1 POP PUSH2 0x1D5 DUP2 PUSH2 0x3F4 JUMP JUMPDEST SWAP3 SWAP2 POP POP JUMP JUMPDEST PUSH1 0x0 DUP2 CALLDATALOAD SWAP1 POP PUSH2 0x1EA DUP2 PUSH2 0x40B JUMP JUMPDEST SWAP3 SWAP2 POP POP JUMP JUMPDEST PUSH1 0x0 DUP2 MLOAD SWAP1 POP PUSH2 0x1FF DUP2 PUSH2 0x40B JUMP JUMPDEST SWAP3 SWAP2 POP POP JUMP JUMPDEST PUSH1 0x0 DUP1 PUSH1 0x0 DUP1 PUSH1 0x0 PUSH1 0xA0 DUP7 DUP9 SUB SLT ISZERO PUSH2 0x221 JUMPI PUSH2 0x220 PUSH2 0x3EF JUMP JUMPDEST JUMPDEST PUSH1 0x0 PUSH2 0x22F DUP9 DUP3 DUP10 ADD PUSH2 0x1C6 JUMP JUMPDEST SWAP6 POP POP PUSH1 0x20 PUSH2 0x240 DUP9 DUP3 DUP10 ADD PUSH2 0x1C6 JUMP JUMPDEST SWAP5 POP POP PUSH1 0x40 PUSH2 0x251 DUP9 DUP3 DUP10 ADD PUSH2 0x1C6 JUMP JUMPDEST SWAP4 POP POP PUSH1 0x60 PUSH2 0x262 DUP9 DUP3 DUP10 ADD PUSH2 0x1DB JUMP JUMPDEST SWAP3 POP POP PUSH1 0x80 PUSH2 0x273 DUP9 DUP3 DUP10 ADD PUSH2 0x1DB JUMP JUMPDEST SWAP2 POP POP SWAP3 SWAP6 POP SWAP3 SWAP6 SWAP1 SWAP4 POP JUMP JUMPDEST PUSH1 0x0 PUSH1 0x20 DUP3 DUP5 SUB SLT ISZERO PUSH2 0x296 JUMPI PUSH2 0x295 PUSH2 0x3EF JUMP JUMPDEST JUMPDEST PUSH1 0x0 PUSH2 0x2A4 DUP5 DUP3 DUP6 ADD PUSH2 0x1F0 JUMP JUMPDEST SWAP2 POP POP SWAP3 SWAP2 POP POP JUMP JUMPDEST PUSH2 0x2B6 DUP2 PUSH2 0x38D JUMP JUMPDEST DUP3 MSTORE POP POP JUMP JUMPDEST PUSH2 0x2C5 DUP2 PUSH2 0x39F JUMP JUMPDEST DUP3 MSTORE POP POP JUMP JUMPDEST PUSH2 0x2D4 DUP2 PUSH2 0x3DD JUMP JUMPDEST DUP3 MSTORE POP POP JUMP JUMPDEST PUSH1 0x0 PUSH1 0x40 DUP3 ADD SWAP1 POP PUSH2 0x2EF PUSH1 0x0 DUP4 ADD DUP6 PUSH2 0x2BC JUMP JUMPDEST PUSH2 0x2FC PUSH1 0x20 DUP4 ADD DUP5 PUSH2 0x2AD JUMP JUMPDEST SWAP4 SWAP3 POP POP POP JUMP JUMPDEST PUSH1 0x0 PUSH1 0x60 DUP3 ADD SWAP1 POP PUSH2 0x318 PUSH1 0x0 DUP4 ADD DUP7 PUSH2 0x2BC JUMP JUMPDEST PUSH2 0x325 PUSH1 0x20 DUP4 ADD DUP6 PUSH2 0x2BC JUMP JUMPDEST PUSH2 0x332 PUSH1 0x40 DUP4 ADD DUP5 PUSH2 0x2AD JUMP JUMPDEST SWAP5 SWAP4 POP POP POP POP JUMP JUMPDEST PUSH1 0x0 PUSH1 0xA0 DUP3 ADD SWAP1 POP PUSH2 0x34F PUSH1 0x0 DUP4 ADD DUP9 PUSH2 0x2BC JUMP JUMPDEST PUSH2 0x35C PUSH1 0x20 DUP4 ADD DUP8 PUSH2 0x2BC JUMP JUMPDEST PUSH2 0x369 PUSH1 0x40 DUP4 ADD DUP7 PUSH2 0x2AD JUMP JUMPDEST PUSH2 0x376 PUSH1 0x60 DUP4 ADD DUP6 PUSH2 0x2AD JUMP JUMPDEST PUSH2 0x383 PUSH1 0x80 DUP4 ADD DUP5 PUSH2 0x2CB JUMP JUMPDEST SWAP7 SWAP6 POP POP POP POP POP POP JUMP JUMPDEST PUSH1 0x0 PUSH2 0x398 DUP3 PUSH2 0x3A9 JUMP JUMPDEST SWAP1 POP SWAP2 SWAP1 POP JUMP JUMPDEST PUSH1 0x0 DUP2 SWAP1 POP SWAP2 SWAP1 POP JUMP JUMPDEST PUSH1 0x0 PUSH20 0xFFFFFFFFFFFFFFFFFFFFFFFFFFFFFFFFFFFFFFFF DUP3 AND SWAP1 POP SWAP2 SWAP1 POP JUMP JUMPDEST PUSH1 0x0 PUSH8 0xFFFFFFFFFFFFFFFF DUP3 AND SWAP1 POP SWAP2 SWAP1 POP JUMP JUMPDEST PUSH1 0x0 PUSH2 0x3E8 DUP3 PUSH2 0x3C9 JUMP JUMPDEST SWAP1 POP SWAP2 SWAP1 POP JUMP JUMPDEST PUSH1 0x0 DUP1 REVERT JUMPDEST PUSH2 0x3FD DUP2 PUSH2 0x38D JUMP JUMPDEST DUP2 EQ PUSH2 0x408 JUMPI PUSH1 0x0 DUP1 REVERT JUMPDEST POP JUMP JUMPDEST PUSH2 0x414 DUP2 PUSH2 0x39F JUMP JUMPDEST DUP2 EQ PUSH2 0x41F JUMPI PUSH1 0x0 DUP1 REVERT JUMPDEST POP JUMP INVALID LOG2 PUSH5 0x6970667358 0x22 SLT KECCAK256 0x2F 0x2A 0xFB PUSH19 0x39A950898B8050647C3BF11F63DE68193E55FD JUMPI SWAP14 0x25 0xC8 0xBD GAS 0xAE DUP5 BALANCE PUSH5 0x736F6C6343 STOP ADDMOD SMOD STOP CALLER "
				},
				"gasEstimates": {
					"creation": {
						"codeDepositCost": "222400",
						"executionCost": "22375",
						"totalCost": "244775"
					},
					"external": {
						"setSubNode(address,address,address,bytes32,bytes32)": "infinite"
					}
				},
				"methodIdentifiers": {
					"setSubNode(address,address,address,bytes32,bytes32)": "56dcbdc0"
				}
			},
			"storageLayout": {
				"storage": [
					{
						"astId": 37,
						"contract": "Ethereum/ENS/contracts/ENSHandler.sol:ENSHadler",
						"label": "_rootNode",
						"offset": 0,
						"slot": "0",
						"type": "t_bytes32"
					}
				],
				"types": {
					"t_bytes32": {
						"encoding": "inplace",
						"label": "bytes32",
						"numberOfBytes": "32"
					}
				}
			},
			"userdoc": {
				"kind": "user",
				"methods": {},
				"version": 1
			}
		}
	}
}