{
	"Ethereum/ENS/contracts/ENSHandler.sol": {
		"ENSHandler": {
			"abi": [
				{
					"inputs": [],
					"name": "_resolver",
					"outputs": [
						{
							"internalType": "contract ENSResolver",
							"name": "",
							"type": "address"
						}
					],
					"stateMutability": "view",
					"type": "function"
				},
				{
					"inputs": [],
					"name": "ens",
					"outputs": [
						{
							"internalType": "contract ENS",
							"name": "",
							"type": "address"
						}
					],
					"stateMutability": "view",
					"type": "function"
				},
				{
					"inputs": [
						{
							"internalType": "address",
							"name": "_resolver",
							"type": "address"
						},
						{
							"internalType": "address",
							"name": "_ens",
							"type": "address"
						},
						{
							"internalType": "bytes32",
							"name": "_rootNode",
							"type": "bytes32"
						},
						{
							"internalType": "address",
							"name": "_target",
							"type": "address"
						},
						{
							"internalType": "bytes32",
							"name": "_label",
							"type": "bytes32"
						},
						{
							"internalType": "bytes32",
							"name": "_subNodeHash",
							"type": "bytes32"
						}
					],
					"name": "setSubNode",
					"outputs": [],
					"stateMutability": "nonpayable",
					"type": "function"
				}
			],
			"devdoc": {
				"kind": "dev",
				"methods": {},
				"version": 1
			},
			"evm": {
				"assembly": "    /* \"Ethereum/ENS/contracts/ENSHandler.sol\":434:979  contract ENSHandler {... */\n  mstore(0x40, 0x80)\n    /* \"Ethereum/ENS/contracts/ENSHandler.sol\":490:532  0x00000000000C2E074eC69A0dFb2997BA6C7d2e1e */\n  0x0c2e074ec69a0dfb2997ba6c7d2e1e\n    /* \"Ethereum/ENS/contracts/ENSHandler.sol\":461:534  ENS public ens = ENS(address(0x00000000000C2E074eC69A0dFb2997BA6C7d2e1e)) */\n  0x00\n  dup1\n  0x0100\n  exp\n  dup2\n  sload\n  dup2\n  0xffffffffffffffffffffffffffffffffffffffff\n  mul\n  not\n  and\n  swap1\n  dup4\n  0xffffffffffffffffffffffffffffffffffffffff\n  and\n  mul\n  or\n  swap1\n  sstore\n  pop\n    /* \"Ethereum/ENS/contracts/ENSHandler.sol\":591:633  0xE264d5bb84bA3b8061ADC38D3D76e6674aB91852 */\n  0xe264d5bb84ba3b8061adc38d3d76e6674ab91852\n    /* \"Ethereum/ENS/contracts/ENSHandler.sol\":540:635  ENSResolver public _resolver = ENSResolver(address(0xE264d5bb84bA3b8061ADC38D3D76e6674aB91852)) */\n  0x01\n  exp(0x0100, 0x00)\n  dup2\n  sload\n  dup2\n  0xffffffffffffffffffffffffffffffffffffffff\n  mul\n  not\n  and\n  swap1\n  dup4\n  0xffffffffffffffffffffffffffffffffffffffff\n  and\n  mul\n  or\n  swap1\n  sstore\n  pop\n    /* \"Ethereum/ENS/contracts/ENSHandler.sol\":434:979  contract ENSHandler {... */\n  callvalue\n  dup1\n  iszero\n  tag_1\n  jumpi\n  0x00\n  dup1\n  revert\ntag_1:\n  pop\n  dataSize(sub_0)\n  dup1\n  dataOffset(sub_0)\n  0x00\n  codecopy\n  0x00\n  return\nstop\n\nsub_0: assembly {\n        /* \"Ethereum/ENS/contracts/ENSHandler.sol\":434:979  contract ENSHandler {... */\n      mstore(0x40, 0x80)\n      callvalue\n      dup1\n      iszero\n      tag_1\n      jumpi\n      0x00\n      dup1\n      revert\n    tag_1:\n      pop\n      jumpi(tag_2, lt(calldatasize, 0x04))\n      shr(0xe0, calldataload(0x00))\n      dup1\n      0x3f15457f\n      eq\n      tag_3\n      jumpi\n      dup1\n      0x43958861\n      eq\n      tag_4\n      jumpi\n      dup1\n      0xb99f0ab4\n      eq\n      tag_5\n      jumpi\n    tag_2:\n      0x00\n      dup1\n      revert\n        /* \"Ethereum/ENS/contracts/ENSHandler.sol\":461:534  ENS public ens = ENS(address(0x00000000000C2E074eC69A0dFb2997BA6C7d2e1e)) */\n    tag_3:\n      tag_6\n      tag_7\n      jump\t// in\n    tag_6:\n      mload(0x40)\n      tag_8\n      swap2\n      swap1\n      tag_9\n      jump\t// in\n    tag_8:\n      mload(0x40)\n      dup1\n      swap2\n      sub\n      swap1\n      return\n        /* \"Ethereum/ENS/contracts/ENSHandler.sol\":540:635  ENSResolver public _resolver = ENSResolver(address(0xE264d5bb84bA3b8061ADC38D3D76e6674aB91852)) */\n    tag_4:\n      tag_10\n      tag_11\n      jump\t// in\n    tag_10:\n      mload(0x40)\n      tag_12\n      swap2\n      swap1\n      tag_13\n      jump\t// in\n    tag_12:\n      mload(0x40)\n      dup1\n      swap2\n      sub\n      swap1\n      return\n        /* \"Ethereum/ENS/contracts/ENSHandler.sol\":642:977  function setSubNode(address _resolver, address _ens, bytes32 _rootNode, address _target, bytes32 _label, bytes32 _subNodeHash) external {... */\n    tag_5:\n      tag_14\n      0x04\n      dup1\n      calldatasize\n      sub\n      dup2\n      add\n      swap1\n      tag_15\n      swap2\n      swap1\n      tag_16\n      jump\t// in\n    tag_15:\n      tag_17\n      jump\t// in\n    tag_14:\n      stop\n        /* \"Ethereum/ENS/contracts/ENSHandler.sol\":461:534  ENS public ens = ENS(address(0x00000000000C2E074eC69A0dFb2997BA6C7d2e1e)) */\n    tag_7:\n      0x00\n      dup1\n      sload\n      swap1\n      0x0100\n      exp\n      swap1\n      div\n      0xffffffffffffffffffffffffffffffffffffffff\n      and\n      dup2\n      jump\t// out\n        /* \"Ethereum/ENS/contracts/ENSHandler.sol\":540:635  ENSResolver public _resolver = ENSResolver(address(0xE264d5bb84bA3b8061ADC38D3D76e6674aB91852)) */\n    tag_11:\n      0x01\n      0x00\n      swap1\n      sload\n      swap1\n      0x0100\n      exp\n      swap1\n      div\n      0xffffffffffffffffffffffffffffffffffffffff\n      and\n      dup2\n      jump\t// out\n        /* \"Ethereum/ENS/contracts/ENSHandler.sol\":642:977  function setSubNode(address _resolver, address _ens, bytes32 _rootNode, address _target, bytes32 _label, bytes32 _subNodeHash) external {... */\n    tag_17:\n        /* \"Ethereum/ENS/contracts/ENSHandler.sol\":788:791  ens */\n      0x00\n      dup1\n      sload\n      swap1\n      0x0100\n      exp\n      swap1\n      div\n      0xffffffffffffffffffffffffffffffffffffffff\n      and\n        /* \"Ethereum/ENS/contracts/ENSHandler.sol\":788:808  ens.setSubnodeRecord */\n      0xffffffffffffffffffffffffffffffffffffffff\n      and\n      0x5ef2c7f0\n        /* \"Ethereum/ENS/contracts/ENSHandler.sol\":809:818  _rootNode */\n      dup6\n        /* \"Ethereum/ENS/contracts/ENSHandler.sol\":820:826  _label */\n      dup5\n        /* \"Ethereum/ENS/contracts/ENSHandler.sol\":836:840  this */\n      address\n        /* \"Ethereum/ENS/contracts/ENSHandler.sol\":843:852  _resolver */\n      dup11\n        /* \"Ethereum/ENS/contracts/ENSHandler.sol\":854:855  0 */\n      0x00\n        /* \"Ethereum/ENS/contracts/ENSHandler.sol\":788:856  ens.setSubnodeRecord(_rootNode, _label, address(this), _resolver, 0) */\n      mload(0x40)\n      dup7\n      0xffffffff\n      and\n      0xe0\n      shl\n      dup2\n      mstore\n      0x04\n      add\n      tag_19\n      swap6\n      swap5\n      swap4\n      swap3\n      swap2\n      swap1\n      tag_20\n      jump\t// in\n    tag_19:\n      0x00\n      mload(0x40)\n      dup1\n      dup4\n      sub\n      dup2\n      0x00\n      dup8\n      dup1\n      extcodesize\n      iszero\n      dup1\n      iszero\n      tag_21\n      jumpi\n      0x00\n      dup1\n      revert\n    tag_21:\n      pop\n      gas\n      call\n      iszero\n      dup1\n      iszero\n      tag_23\n      jumpi\n      returndatasize\n      0x00\n      dup1\n      returndatacopy\n      revert(0x00, returndatasize)\n    tag_23:\n      pop\n      pop\n      pop\n      pop\n        /* \"Ethereum/ENS/contracts/ENSHandler.sol\":878:887  _resolver */\n      dup6\n        /* \"Ethereum/ENS/contracts/ENSHandler.sol\":866:896  ENSResolver(_resolver).setAddr */\n      0xffffffffffffffffffffffffffffffffffffffff\n      and\n      0xd5fa2b00\n        /* \"Ethereum/ENS/contracts/ENSHandler.sol\":897:909  _subNodeHash */\n      dup3\n        /* \"Ethereum/ENS/contracts/ENSHandler.sol\":911:918  _target */\n      dup6\n        /* \"Ethereum/ENS/contracts/ENSHandler.sol\":866:919  ENSResolver(_resolver).setAddr(_subNodeHash, _target) */\n      mload(0x40)\n      dup4\n      0xffffffff\n      and\n      0xe0\n      shl\n      dup2\n      mstore\n      0x04\n      add\n      tag_24\n      swap3\n      swap2\n      swap1\n      tag_25\n      jump\t// in\n    tag_24:\n      0x00\n      mload(0x40)\n      dup1\n      dup4\n      sub\n      dup2\n      0x00\n      dup8\n      dup1\n      extcodesize\n      iszero\n      dup1\n      iszero\n      tag_26\n      jumpi\n      0x00\n      dup1\n      revert\n    tag_26:\n      pop\n      gas\n      call\n      iszero\n      dup1\n      iszero\n      tag_28\n      jumpi\n      returndatasize\n      0x00\n      dup1\n      returndatacopy\n      revert(0x00, returndatasize)\n    tag_28:\n      pop\n      pop\n      pop\n      pop\n        /* \"Ethereum/ENS/contracts/ENSHandler.sol\":933:937  _ens */\n      dup5\n        /* \"Ethereum/ENS/contracts/ENSHandler.sol\":929:947  ENS(_ens).setOwner */\n      0xffffffffffffffffffffffffffffffffffffffff\n      and\n      0x5b0fc9c3\n        /* \"Ethereum/ENS/contracts/ENSHandler.sol\":948:960  _subNodeHash */\n      dup3\n        /* \"Ethereum/ENS/contracts/ENSHandler.sol\":962:969  _target */\n      dup6\n        /* \"Ethereum/ENS/contracts/ENSHandler.sol\":929:970  ENS(_ens).setOwner(_subNodeHash, _target) */\n      mload(0x40)\n      dup4\n      0xffffffff\n      and\n      0xe0\n      shl\n      dup2\n      mstore\n      0x04\n      add\n      tag_29\n      swap3\n      swap2\n      swap1\n      tag_25\n      jump\t// in\n    tag_29:\n      0x00\n      mload(0x40)\n      dup1\n      dup4\n      sub\n      dup2\n      0x00\n      dup8\n      dup1\n      extcodesize\n      iszero\n      dup1\n      iszero\n      tag_30\n      jumpi\n      0x00\n      dup1\n      revert\n    tag_30:\n      pop\n      gas\n      call\n      iszero\n      dup1\n      iszero\n      tag_32\n      jumpi\n      returndatasize\n      0x00\n      dup1\n      returndatacopy\n      revert(0x00, returndatasize)\n    tag_32:\n      pop\n      pop\n      pop\n      pop\n        /* \"Ethereum/ENS/contracts/ENSHandler.sol\":642:977  function setSubNode(address _resolver, address _ens, bytes32 _rootNode, address _target, bytes32 _label, bytes32 _subNodeHash) external {... */\n      pop\n      pop\n      pop\n      pop\n      pop\n      pop\n      jump\t// out\n        /* \"#utility.yul\":7:146   */\n    tag_34:\n        /* \"#utility.yul\":53:58   */\n      0x00\n        /* \"#utility.yul\":91:97   */\n      dup2\n        /* \"#utility.yul\":78:98   */\n      calldataload\n        /* \"#utility.yul\":69:98   */\n      swap1\n      pop\n        /* \"#utility.yul\":107:140   */\n      tag_36\n        /* \"#utility.yul\":134:139   */\n      dup2\n        /* \"#utility.yul\":107:140   */\n      tag_37\n      jump\t// in\n    tag_36:\n        /* \"#utility.yul\":7:146   */\n      swap3\n      swap2\n      pop\n      pop\n      jump\t// out\n        /* \"#utility.yul\":152:291   */\n    tag_38:\n        /* \"#utility.yul\":198:203   */\n      0x00\n        /* \"#utility.yul\":236:242   */\n      dup2\n        /* \"#utility.yul\":223:243   */\n      calldataload\n        /* \"#utility.yul\":214:243   */\n      swap1\n      pop\n        /* \"#utility.yul\":252:285   */\n      tag_40\n        /* \"#utility.yul\":279:284   */\n      dup2\n        /* \"#utility.yul\":252:285   */\n      tag_41\n      jump\t// in\n    tag_40:\n        /* \"#utility.yul\":152:291   */\n      swap3\n      swap2\n      pop\n      pop\n      jump\t// out\n        /* \"#utility.yul\":297:1354   */\n    tag_16:\n        /* \"#utility.yul\":401:407   */\n      0x00\n        /* \"#utility.yul\":409:415   */\n      dup1\n        /* \"#utility.yul\":417:423   */\n      0x00\n        /* \"#utility.yul\":425:431   */\n      dup1\n        /* \"#utility.yul\":433:439   */\n      0x00\n        /* \"#utility.yul\":441:447   */\n      dup1\n        /* \"#utility.yul\":490:493   */\n      0xc0\n        /* \"#utility.yul\":478:487   */\n      dup8\n        /* \"#utility.yul\":469:476   */\n      dup10\n        /* \"#utility.yul\":465:488   */\n      sub\n        /* \"#utility.yul\":461:494   */\n      slt\n        /* \"#utility.yul\":458:578   */\n      iszero\n      tag_43\n      jumpi\n        /* \"#utility.yul\":497:576   */\n      tag_44\n      tag_45\n      jump\t// in\n    tag_44:\n        /* \"#utility.yul\":458:578   */\n    tag_43:\n        /* \"#utility.yul\":617:618   */\n      0x00\n        /* \"#utility.yul\":642:695   */\n      tag_46\n        /* \"#utility.yul\":687:694   */\n      dup10\n        /* \"#utility.yul\":678:684   */\n      dup3\n        /* \"#utility.yul\":667:676   */\n      dup11\n        /* \"#utility.yul\":663:685   */\n      add\n        /* \"#utility.yul\":642:695   */\n      tag_34\n      jump\t// in\n    tag_46:\n        /* \"#utility.yul\":632:695   */\n      swap7\n      pop\n        /* \"#utility.yul\":588:705   */\n      pop\n        /* \"#utility.yul\":744:746   */\n      0x20\n        /* \"#utility.yul\":770:823   */\n      tag_47\n        /* \"#utility.yul\":815:822   */\n      dup10\n        /* \"#utility.yul\":806:812   */\n      dup3\n        /* \"#utility.yul\":795:804   */\n      dup11\n        /* \"#utility.yul\":791:813   */\n      add\n        /* \"#utility.yul\":770:823   */\n      tag_34\n      jump\t// in\n    tag_47:\n        /* \"#utility.yul\":760:823   */\n      swap6\n      pop\n        /* \"#utility.yul\":715:833   */\n      pop\n        /* \"#utility.yul\":872:874   */\n      0x40\n        /* \"#utility.yul\":898:951   */\n      tag_48\n        /* \"#utility.yul\":943:950   */\n      dup10\n        /* \"#utility.yul\":934:940   */\n      dup3\n        /* \"#utility.yul\":923:932   */\n      dup11\n        /* \"#utility.yul\":919:941   */\n      add\n        /* \"#utility.yul\":898:951   */\n      tag_38\n      jump\t// in\n    tag_48:\n        /* \"#utility.yul\":888:951   */\n      swap5\n      pop\n        /* \"#utility.yul\":843:961   */\n      pop\n        /* \"#utility.yul\":1000:1002   */\n      0x60\n        /* \"#utility.yul\":1026:1079   */\n      tag_49\n        /* \"#utility.yul\":1071:1078   */\n      dup10\n        /* \"#utility.yul\":1062:1068   */\n      dup3\n        /* \"#utility.yul\":1051:1060   */\n      dup11\n        /* \"#utility.yul\":1047:1069   */\n      add\n        /* \"#utility.yul\":1026:1079   */\n      tag_34\n      jump\t// in\n    tag_49:\n        /* \"#utility.yul\":1016:1079   */\n      swap4\n      pop\n        /* \"#utility.yul\":971:1089   */\n      pop\n        /* \"#utility.yul\":1128:1131   */\n      0x80\n        /* \"#utility.yul\":1155:1208   */\n      tag_50\n        /* \"#utility.yul\":1200:1207   */\n      dup10\n        /* \"#utility.yul\":1191:1197   */\n      dup3\n        /* \"#utility.yul\":1180:1189   */\n      dup11\n        /* \"#utility.yul\":1176:1198   */\n      add\n        /* \"#utility.yul\":1155:1208   */\n      tag_38\n      jump\t// in\n    tag_50:\n        /* \"#utility.yul\":1145:1208   */\n      swap3\n      pop\n        /* \"#utility.yul\":1099:1218   */\n      pop\n        /* \"#utility.yul\":1257:1260   */\n      0xa0\n        /* \"#utility.yul\":1284:1337   */\n      tag_51\n        /* \"#utility.yul\":1329:1336   */\n      dup10\n        /* \"#utility.yul\":1320:1326   */\n      dup3\n        /* \"#utility.yul\":1309:1318   */\n      dup11\n        /* \"#utility.yul\":1305:1327   */\n      add\n        /* \"#utility.yul\":1284:1337   */\n      tag_38\n      jump\t// in\n    tag_51:\n        /* \"#utility.yul\":1274:1337   */\n      swap2\n      pop\n        /* \"#utility.yul\":1228:1347   */\n      pop\n        /* \"#utility.yul\":297:1354   */\n      swap3\n      swap6\n      pop\n      swap3\n      swap6\n      pop\n      swap3\n      swap6\n      jump\t// out\n        /* \"#utility.yul\":1360:1478   */\n    tag_52:\n        /* \"#utility.yul\":1447:1471   */\n      tag_54\n        /* \"#utility.yul\":1465:1470   */\n      dup2\n        /* \"#utility.yul\":1447:1471   */\n      tag_55\n      jump\t// in\n    tag_54:\n        /* \"#utility.yul\":1442:1445   */\n      dup3\n        /* \"#utility.yul\":1435:1472   */\n      mstore\n        /* \"#utility.yul\":1360:1478   */\n      pop\n      pop\n      jump\t// out\n        /* \"#utility.yul\":1484:1602   */\n    tag_56:\n        /* \"#utility.yul\":1571:1595   */\n      tag_58\n        /* \"#utility.yul\":1589:1594   */\n      dup2\n        /* \"#utility.yul\":1571:1595   */\n      tag_59\n      jump\t// in\n    tag_58:\n        /* \"#utility.yul\":1566:1569   */\n      dup3\n        /* \"#utility.yul\":1559:1596   */\n      mstore\n        /* \"#utility.yul\":1484:1602   */\n      pop\n      pop\n      jump\t// out\n        /* \"#utility.yul\":1608:1775   */\n    tag_60:\n        /* \"#utility.yul\":1713:1768   */\n      tag_62\n        /* \"#utility.yul\":1762:1767   */\n      dup2\n        /* \"#utility.yul\":1713:1768   */\n      tag_63\n      jump\t// in\n    tag_62:\n        /* \"#utility.yul\":1708:1711   */\n      dup3\n        /* \"#utility.yul\":1701:1769   */\n      mstore\n        /* \"#utility.yul\":1608:1775   */\n      pop\n      pop\n      jump\t// out\n        /* \"#utility.yul\":1781:1932   */\n    tag_64:\n        /* \"#utility.yul\":1878:1925   */\n      tag_66\n        /* \"#utility.yul\":1919:1924   */\n      dup2\n        /* \"#utility.yul\":1878:1925   */\n      tag_67\n      jump\t// in\n    tag_66:\n        /* \"#utility.yul\":1873:1876   */\n      dup3\n        /* \"#utility.yul\":1866:1926   */\n      mstore\n        /* \"#utility.yul\":1781:1932   */\n      pop\n      pop\n      jump\t// out\n        /* \"#utility.yul\":1938:2083   */\n    tag_68:\n        /* \"#utility.yul\":2032:2076   */\n      tag_70\n        /* \"#utility.yul\":2070:2075   */\n      dup2\n        /* \"#utility.yul\":2032:2076   */\n      tag_71\n      jump\t// in\n    tag_70:\n        /* \"#utility.yul\":2027:2030   */\n      dup3\n        /* \"#utility.yul\":2020:2077   */\n      mstore\n        /* \"#utility.yul\":1938:2083   */\n      pop\n      pop\n      jump\t// out\n        /* \"#utility.yul\":2089:2421   */\n    tag_25:\n        /* \"#utility.yul\":2210:2214   */\n      0x00\n        /* \"#utility.yul\":2248:2250   */\n      0x40\n        /* \"#utility.yul\":2237:2246   */\n      dup3\n        /* \"#utility.yul\":2233:2251   */\n      add\n        /* \"#utility.yul\":2225:2251   */\n      swap1\n      pop\n        /* \"#utility.yul\":2261:2332   */\n      tag_73\n        /* \"#utility.yul\":2329:2330   */\n      0x00\n        /* \"#utility.yul\":2318:2327   */\n      dup4\n        /* \"#utility.yul\":2314:2331   */\n      add\n        /* \"#utility.yul\":2305:2311   */\n      dup6\n        /* \"#utility.yul\":2261:2332   */\n      tag_56\n      jump\t// in\n    tag_73:\n        /* \"#utility.yul\":2342:2414   */\n      tag_74\n        /* \"#utility.yul\":2410:2412   */\n      0x20\n        /* \"#utility.yul\":2399:2408   */\n      dup4\n        /* \"#utility.yul\":2395:2413   */\n      add\n        /* \"#utility.yul\":2386:2392   */\n      dup5\n        /* \"#utility.yul\":2342:2414   */\n      tag_52\n      jump\t// in\n    tag_74:\n        /* \"#utility.yul\":2089:2421   */\n      swap4\n      swap3\n      pop\n      pop\n      pop\n      jump\t// out\n        /* \"#utility.yul\":2427:3105   */\n    tag_20:\n        /* \"#utility.yul\":2639:2643   */\n      0x00\n        /* \"#utility.yul\":2677:2680   */\n      0xa0\n        /* \"#utility.yul\":2666:2675   */\n      dup3\n        /* \"#utility.yul\":2662:2681   */\n      add\n        /* \"#utility.yul\":2654:2681   */\n      swap1\n      pop\n        /* \"#utility.yul\":2691:2762   */\n      tag_76\n        /* \"#utility.yul\":2759:2760   */\n      0x00\n        /* \"#utility.yul\":2748:2757   */\n      dup4\n        /* \"#utility.yul\":2744:2761   */\n      add\n        /* \"#utility.yul\":2735:2741   */\n      dup9\n        /* \"#utility.yul\":2691:2762   */\n      tag_56\n      jump\t// in\n    tag_76:\n        /* \"#utility.yul\":2772:2844   */\n      tag_77\n        /* \"#utility.yul\":2840:2842   */\n      0x20\n        /* \"#utility.yul\":2829:2838   */\n      dup4\n        /* \"#utility.yul\":2825:2843   */\n      add\n        /* \"#utility.yul\":2816:2822   */\n      dup8\n        /* \"#utility.yul\":2772:2844   */\n      tag_56\n      jump\t// in\n    tag_77:\n        /* \"#utility.yul\":2854:2926   */\n      tag_78\n        /* \"#utility.yul\":2922:2924   */\n      0x40\n        /* \"#utility.yul\":2911:2920   */\n      dup4\n        /* \"#utility.yul\":2907:2925   */\n      add\n        /* \"#utility.yul\":2898:2904   */\n      dup7\n        /* \"#utility.yul\":2854:2926   */\n      tag_52\n      jump\t// in\n    tag_78:\n        /* \"#utility.yul\":2936:3008   */\n      tag_79\n        /* \"#utility.yul\":3004:3006   */\n      0x60\n        /* \"#utility.yul\":2993:3002   */\n      dup4\n        /* \"#utility.yul\":2989:3007   */\n      add\n        /* \"#utility.yul\":2980:2986   */\n      dup6\n        /* \"#utility.yul\":2936:3008   */\n      tag_52\n      jump\t// in\n    tag_79:\n        /* \"#utility.yul\":3018:3098   */\n      tag_80\n        /* \"#utility.yul\":3093:3096   */\n      0x80\n        /* \"#utility.yul\":3082:3091   */\n      dup4\n        /* \"#utility.yul\":3078:3097   */\n      add\n        /* \"#utility.yul\":3069:3075   */\n      dup5\n        /* \"#utility.yul\":3018:3098   */\n      tag_68\n      jump\t// in\n    tag_80:\n        /* \"#utility.yul\":2427:3105   */\n      swap7\n      swap6\n      pop\n      pop\n      pop\n      pop\n      pop\n      pop\n      jump\t// out\n        /* \"#utility.yul\":3111:3369   */\n    tag_13:\n        /* \"#utility.yul\":3222:3226   */\n      0x00\n        /* \"#utility.yul\":3260:3262   */\n      0x20\n        /* \"#utility.yul\":3249:3258   */\n      dup3\n        /* \"#utility.yul\":3245:3263   */\n      add\n        /* \"#utility.yul\":3237:3263   */\n      swap1\n      pop\n        /* \"#utility.yul\":3273:3362   */\n      tag_82\n        /* \"#utility.yul\":3359:3360   */\n      0x00\n        /* \"#utility.yul\":3348:3357   */\n      dup4\n        /* \"#utility.yul\":3344:3361   */\n      add\n        /* \"#utility.yul\":3335:3341   */\n      dup5\n        /* \"#utility.yul\":3273:3362   */\n      tag_60\n      jump\t// in\n    tag_82:\n        /* \"#utility.yul\":3111:3369   */\n      swap3\n      swap2\n      pop\n      pop\n      jump\t// out\n        /* \"#utility.yul\":3375:3617   */\n    tag_9:\n        /* \"#utility.yul\":3478:3482   */\n      0x00\n        /* \"#utility.yul\":3516:3518   */\n      0x20\n        /* \"#utility.yul\":3505:3514   */\n      dup3\n        /* \"#utility.yul\":3501:3519   */\n      add\n        /* \"#utility.yul\":3493:3519   */\n      swap1\n      pop\n        /* \"#utility.yul\":3529:3610   */\n      tag_84\n        /* \"#utility.yul\":3607:3608   */\n      0x00\n        /* \"#utility.yul\":3596:3605   */\n      dup4\n        /* \"#utility.yul\":3592:3609   */\n      add\n        /* \"#utility.yul\":3583:3589   */\n      dup5\n        /* \"#utility.yul\":3529:3610   */\n      tag_64\n      jump\t// in\n    tag_84:\n        /* \"#utility.yul\":3375:3617   */\n      swap3\n      swap2\n      pop\n      pop\n      jump\t// out\n        /* \"#utility.yul\":3704:3800   */\n    tag_55:\n        /* \"#utility.yul\":3741:3748   */\n      0x00\n        /* \"#utility.yul\":3770:3794   */\n      tag_88\n        /* \"#utility.yul\":3788:3793   */\n      dup3\n        /* \"#utility.yul\":3770:3794   */\n      tag_89\n      jump\t// in\n    tag_88:\n        /* \"#utility.yul\":3759:3794   */\n      swap1\n      pop\n        /* \"#utility.yul\":3704:3800   */\n      swap2\n      swap1\n      pop\n      jump\t// out\n        /* \"#utility.yul\":3806:3883   */\n    tag_59:\n        /* \"#utility.yul\":3843:3850   */\n      0x00\n        /* \"#utility.yul\":3872:3877   */\n      dup2\n        /* \"#utility.yul\":3861:3877   */\n      swap1\n      pop\n        /* \"#utility.yul\":3806:3883   */\n      swap2\n      swap1\n      pop\n      jump\t// out\n        /* \"#utility.yul\":3889:4015   */\n    tag_89:\n        /* \"#utility.yul\":3926:3933   */\n      0x00\n        /* \"#utility.yul\":3966:4008   */\n      0xffffffffffffffffffffffffffffffffffffffff\n        /* \"#utility.yul\":3959:3964   */\n      dup3\n        /* \"#utility.yul\":3955:4009   */\n      and\n        /* \"#utility.yul\":3944:4009   */\n      swap1\n      pop\n        /* \"#utility.yul\":3889:4015   */\n      swap2\n      swap1\n      pop\n      jump\t// out\n        /* \"#utility.yul\":4021:4122   */\n    tag_92:\n        /* \"#utility.yul\":4057:4064   */\n      0x00\n        /* \"#utility.yul\":4097:4115   */\n      0xffffffffffffffff\n        /* \"#utility.yul\":4090:4095   */\n      dup3\n        /* \"#utility.yul\":4086:4116   */\n      and\n        /* \"#utility.yul\":4075:4116   */\n      swap1\n      pop\n        /* \"#utility.yul\":4021:4122   */\n      swap2\n      swap1\n      pop\n      jump\t// out\n        /* \"#utility.yul\":4128:4272   */\n    tag_63:\n        /* \"#utility.yul\":4196:4205   */\n      0x00\n        /* \"#utility.yul\":4229:4266   */\n      tag_95\n        /* \"#utility.yul\":4260:4265   */\n      dup3\n        /* \"#utility.yul\":4229:4266   */\n      tag_96\n      jump\t// in\n    tag_95:\n        /* \"#utility.yul\":4216:4266   */\n      swap1\n      pop\n        /* \"#utility.yul\":4128:4272   */\n      swap2\n      swap1\n      pop\n      jump\t// out\n        /* \"#utility.yul\":4278:4414   */\n    tag_67:\n        /* \"#utility.yul\":4338:4347   */\n      0x00\n        /* \"#utility.yul\":4371:4408   */\n      tag_98\n        /* \"#utility.yul\":4402:4407   */\n      dup3\n        /* \"#utility.yul\":4371:4408   */\n      tag_96\n      jump\t// in\n    tag_98:\n        /* \"#utility.yul\":4358:4408   */\n      swap1\n      pop\n        /* \"#utility.yul\":4278:4414   */\n      swap2\n      swap1\n      pop\n      jump\t// out\n        /* \"#utility.yul\":4420:4539   */\n    tag_71:\n        /* \"#utility.yul\":4477:4486   */\n      0x00\n        /* \"#utility.yul\":4510:4533   */\n      tag_100\n        /* \"#utility.yul\":4527:4532   */\n      dup3\n        /* \"#utility.yul\":4510:4533   */\n      tag_92\n      jump\t// in\n    tag_100:\n        /* \"#utility.yul\":4497:4533   */\n      swap1\n      pop\n        /* \"#utility.yul\":4420:4539   */\n      swap2\n      swap1\n      pop\n      jump\t// out\n        /* \"#utility.yul\":4545:4671   */\n    tag_96:\n        /* \"#utility.yul\":4595:4604   */\n      0x00\n        /* \"#utility.yul\":4628:4665   */\n      tag_102\n        /* \"#utility.yul\":4659:4664   */\n      dup3\n        /* \"#utility.yul\":4628:4665   */\n      tag_103\n      jump\t// in\n    tag_102:\n        /* \"#utility.yul\":4615:4665   */\n      swap1\n      pop\n        /* \"#utility.yul\":4545:4671   */\n      swap2\n      swap1\n      pop\n      jump\t// out\n        /* \"#utility.yul\":4677:4790   */\n    tag_103:\n        /* \"#utility.yul\":4727:4736   */\n      0x00\n        /* \"#utility.yul\":4760:4784   */\n      tag_105\n        /* \"#utility.yul\":4778:4783   */\n      dup3\n        /* \"#utility.yul\":4760:4784   */\n      tag_89\n      jump\t// in\n    tag_105:\n        /* \"#utility.yul\":4747:4784   */\n      swap1\n      pop\n        /* \"#utility.yul\":4677:4790   */\n      swap2\n      swap1\n      pop\n      jump\t// out\n        /* \"#utility.yul\":4919:5036   */\n    tag_45:\n        /* \"#utility.yul\":5028:5029   */\n      0x00\n        /* \"#utility.yul\":5025:5026   */\n      dup1\n        /* \"#utility.yul\":5018:5030   */\n      revert\n        /* \"#utility.yul\":5042:5164   */\n    tag_37:\n        /* \"#utility.yul\":5115:5139   */\n      tag_110\n        /* \"#utility.yul\":5133:5138   */\n      dup2\n        /* \"#utility.yul\":5115:5139   */\n      tag_55\n      jump\t// in\n    tag_110:\n        /* \"#utility.yul\":5108:5113   */\n      dup2\n        /* \"#utility.yul\":5105:5140   */\n      eq\n        /* \"#utility.yul\":5095:5158   */\n      tag_111\n      jumpi\n        /* \"#utility.yul\":5154:5155   */\n      0x00\n        /* \"#utility.yul\":5151:5152   */\n      dup1\n        /* \"#utility.yul\":5144:5156   */\n      revert\n        /* \"#utility.yul\":5095:5158   */\n    tag_111:\n        /* \"#utility.yul\":5042:5164   */\n      pop\n      jump\t// out\n        /* \"#utility.yul\":5170:5292   */\n    tag_41:\n        /* \"#utility.yul\":5243:5267   */\n      tag_113\n        /* \"#utility.yul\":5261:5266   */\n      dup2\n        /* \"#utility.yul\":5243:5267   */\n      tag_59\n      jump\t// in\n    tag_113:\n        /* \"#utility.yul\":5236:5241   */\n      dup2\n        /* \"#utility.yul\":5233:5268   */\n      eq\n        /* \"#utility.yul\":5223:5286   */\n      tag_114\n      jumpi\n        /* \"#utility.yul\":5282:5283   */\n      0x00\n        /* \"#utility.yul\":5279:5280   */\n      dup1\n        /* \"#utility.yul\":5272:5284   */\n      revert\n        /* \"#utility.yul\":5223:5286   */\n    tag_114:\n        /* \"#utility.yul\":5170:5292   */\n      pop\n      jump\t// out\n\n    auxdata: 0xa2646970667358221220d9bbe43e325670b63a8fcd021c4dae2e6211e7edf53dc28813edec6abaa1adf764736f6c63430008070033\n}\n",
				"bytecode": {
					"linkReferences": {},
					"object": "60806040526e0c2e074ec69a0dfb2997ba6c7d2e1e6000806101000a81548173ffffffffffffffffffffffffffffffffffffffff021916908373ffffffffffffffffffffffffffffffffffffffff16021790555073e264d5bb84ba3b8061adc38d3d76e6674ab91852600160006101000a81548173ffffffffffffffffffffffffffffffffffffffff021916908373ffffffffffffffffffffffffffffffffffffffff1602179055503480156100b457600080fd5b50610525806100c46000396000f3fe608060405234801561001057600080fd5b50600436106100415760003560e01c80633f15457f146100465780634395886114610064578063b99f0ab414610082575b600080fd5b61004e61009e565b60405161005b91906103f7565b60405180910390f35b61006c6100c2565b60405161007991906103dc565b60405180910390f35b61009c60048036038101906100979190610288565b6100e8565b005b60008054906101000a900473ffffffffffffffffffffffffffffffffffffffff1681565b600160009054906101000a900473ffffffffffffffffffffffffffffffffffffffff1681565b60008054906101000a900473ffffffffffffffffffffffffffffffffffffffff1673ffffffffffffffffffffffffffffffffffffffff16635ef2c7f08584308a60006040518663ffffffff1660e01b815260040161014a959493929190610389565b600060405180830381600087803b15801561016457600080fd5b505af1158015610178573d6000803e3d6000fd5b505050508573ffffffffffffffffffffffffffffffffffffffff1663d5fa2b0082856040518363ffffffff1660e01b81526004016101b7929190610360565b600060405180830381600087803b1580156101d157600080fd5b505af11580156101e5573d6000803e3d6000fd5b505050508473ffffffffffffffffffffffffffffffffffffffff16635b0fc9c382856040518363ffffffff1660e01b8152600401610224929190610360565b600060405180830381600087803b15801561023e57600080fd5b505af1158015610252573d6000803e3d6000fd5b50505050505050505050565b60008135905061026d816104c1565b92915050565b600081359050610282816104d8565b92915050565b60008060008060008060c087890312156102a5576102a46104bc565b5b60006102b389828a0161025e565b96505060206102c489828a0161025e565b95505060406102d589828a01610273565b94505060606102e689828a0161025e565b93505060806102f789828a01610273565b92505060a061030889828a01610273565b9150509295509295509295565b61031e81610412565b82525050565b61032d81610424565b82525050565b61033c81610462565b82525050565b61034b81610474565b82525050565b61035a81610486565b82525050565b60006040820190506103756000830185610324565b6103826020830184610315565b9392505050565b600060a08201905061039e6000830188610324565b6103ab6020830187610324565b6103b86040830186610315565b6103c56060830185610315565b6103d26080830184610351565b9695505050505050565b60006020820190506103f16000830184610333565b92915050565b600060208201905061040c6000830184610342565b92915050565b600061041d8261042e565b9050919050565b6000819050919050565b600073ffffffffffffffffffffffffffffffffffffffff82169050919050565b600067ffffffffffffffff82169050919050565b600061046d82610498565b9050919050565b600061047f82610498565b9050919050565b60006104918261044e565b9050919050565b60006104a3826104aa565b9050919050565b60006104b58261042e565b9050919050565b600080fd5b6104ca81610412565b81146104d557600080fd5b50565b6104e181610424565b81146104ec57600080fd5b5056fea2646970667358221220d9bbe43e325670b63a8fcd021c4dae2e6211e7edf53dc28813edec6abaa1adf764736f6c63430008070033",
					"opcodes": "PUSH1 0x80 PUSH1 0x40 MSTORE PUSH15 0xC2E074EC69A0DFB2997BA6C7D2E1E PUSH1 0x0 DUP1 PUSH2 0x100 EXP DUP2 SLOAD DUP2 PUSH20 0xFFFFFFFFFFFFFFFFFFFFFFFFFFFFFFFFFFFFFFFF MUL NOT AND SWAP1 DUP4 PUSH20 0xFFFFFFFFFFFFFFFFFFFFFFFFFFFFFFFFFFFFFFFF AND MUL OR SWAP1 SSTORE POP PUSH20 0xE264D5BB84BA3B8061ADC38D3D76E6674AB91852 PUSH1 0x1 PUSH1 0x0 PUSH2 0x100 EXP DUP2 SLOAD DUP2 PUSH20 0xFFFFFFFFFFFFFFFFFFFFFFFFFFFFFFFFFFFFFFFF MUL NOT AND SWAP1 DUP4 PUSH20 0xFFFFFFFFFFFFFFFFFFFFFFFFFFFFFFFFFFFFFFFF AND MUL OR SWAP1 SSTORE POP CALLVALUE DUP1 ISZERO PUSH2 0xB4 JUMPI PUSH1 0x0 DUP1 REVERT JUMPDEST POP PUSH2 0x525 DUP1 PUSH2 0xC4 PUSH1 0x0 CODECOPY PUSH1 0x0 RETURN INVALID PUSH1 0x80 PUSH1 0x40 MSTORE CALLVALUE DUP1 ISZERO PUSH2 0x10 JUMPI PUSH1 0x0 DUP1 REVERT JUMPDEST POP PUSH1 0x4 CALLDATASIZE LT PUSH2 0x41 JUMPI PUSH1 0x0 CALLDATALOAD PUSH1 0xE0 SHR DUP1 PUSH4 0x3F15457F EQ PUSH2 0x46 JUMPI DUP1 PUSH4 0x43958861 EQ PUSH2 0x64 JUMPI DUP1 PUSH4 0xB99F0AB4 EQ PUSH2 0x82 JUMPI JUMPDEST PUSH1 0x0 DUP1 REVERT JUMPDEST PUSH2 0x4E PUSH2 0x9E JUMP JUMPDEST PUSH1 0x40 MLOAD PUSH2 0x5B SWAP2 SWAP1 PUSH2 0x3F7 JUMP JUMPDEST PUSH1 0x40 MLOAD DUP1 SWAP2 SUB SWAP1 RETURN JUMPDEST PUSH2 0x6C PUSH2 0xC2 JUMP JUMPDEST PUSH1 0x40 MLOAD PUSH2 0x79 SWAP2 SWAP1 PUSH2 0x3DC JUMP JUMPDEST PUSH1 0x40 MLOAD DUP1 SWAP2 SUB SWAP1 RETURN JUMPDEST PUSH2 0x9C PUSH1 0x4 DUP1 CALLDATASIZE SUB DUP2 ADD SWAP1 PUSH2 0x97 SWAP2 SWAP1 PUSH2 0x288 JUMP JUMPDEST PUSH2 0xE8 JUMP JUMPDEST STOP JUMPDEST PUSH1 0x0 DUP1 SLOAD SWAP1 PUSH2 0x100 EXP SWAP1 DIV PUSH20 0xFFFFFFFFFFFFFFFFFFFFFFFFFFFFFFFFFFFFFFFF AND DUP2 JUMP JUMPDEST PUSH1 0x1 PUSH1 0x0 SWAP1 SLOAD SWAP1 PUSH2 0x100 EXP SWAP1 DIV PUSH20 0xFFFFFFFFFFFFFFFFFFFFFFFFFFFFFFFFFFFFFFFF AND DUP2 JUMP JUMPDEST PUSH1 0x0 DUP1 SLOAD SWAP1 PUSH2 0x100 EXP SWAP1 DIV PUSH20 0xFFFFFFFFFFFFFFFFFFFFFFFFFFFFFFFFFFFFFFFF AND PUSH20 0xFFFFFFFFFFFFFFFFFFFFFFFFFFFFFFFFFFFFFFFF AND PUSH4 0x5EF2C7F0 DUP6 DUP5 ADDRESS DUP11 PUSH1 0x0 PUSH1 0x40 MLOAD DUP7 PUSH4 0xFFFFFFFF AND PUSH1 0xE0 SHL DUP2 MSTORE PUSH1 0x4 ADD PUSH2 0x14A SWAP6 SWAP5 SWAP4 SWAP3 SWAP2 SWAP1 PUSH2 0x389 JUMP JUMPDEST PUSH1 0x0 PUSH1 0x40 MLOAD DUP1 DUP4 SUB DUP2 PUSH1 0x0 DUP8 DUP1 EXTCODESIZE ISZERO DUP1 ISZERO PUSH2 0x164 JUMPI PUSH1 0x0 DUP1 REVERT JUMPDEST POP GAS CALL ISZERO DUP1 ISZERO PUSH2 0x178 JUMPI RETURNDATASIZE PUSH1 0x0 DUP1 RETURNDATACOPY RETURNDATASIZE PUSH1 0x0 REVERT JUMPDEST POP POP POP POP DUP6 PUSH20 0xFFFFFFFFFFFFFFFFFFFFFFFFFFFFFFFFFFFFFFFF AND PUSH4 0xD5FA2B00 DUP3 DUP6 PUSH1 0x40 MLOAD DUP4 PUSH4 0xFFFFFFFF AND PUSH1 0xE0 SHL DUP2 MSTORE PUSH1 0x4 ADD PUSH2 0x1B7 SWAP3 SWAP2 SWAP1 PUSH2 0x360 JUMP JUMPDEST PUSH1 0x0 PUSH1 0x40 MLOAD DUP1 DUP4 SUB DUP2 PUSH1 0x0 DUP8 DUP1 EXTCODESIZE ISZERO DUP1 ISZERO PUSH2 0x1D1 JUMPI PUSH1 0x0 DUP1 REVERT JUMPDEST POP GAS CALL ISZERO DUP1 ISZERO PUSH2 0x1E5 JUMPI RETURNDATASIZE PUSH1 0x0 DUP1 RETURNDATACOPY RETURNDATASIZE PUSH1 0x0 REVERT JUMPDEST POP POP POP POP DUP5 PUSH20 0xFFFFFFFFFFFFFFFFFFFFFFFFFFFFFFFFFFFFFFFF AND PUSH4 0x5B0FC9C3 DUP3 DUP6 PUSH1 0x40 MLOAD DUP4 PUSH4 0xFFFFFFFF AND PUSH1 0xE0 SHL DUP2 MSTORE PUSH1 0x4 ADD PUSH2 0x224 SWAP3 SWAP2 SWAP1 PUSH2 0x360 JUMP JUMPDEST PUSH1 0x0 PUSH1 0x40 MLOAD DUP1 DUP4 SUB DUP2 PUSH1 0x0 DUP8 DUP1 EXTCODESIZE ISZERO DUP1 ISZERO PUSH2 0x23E JUMPI PUSH1 0x0 DUP1 REVERT JUMPDEST POP GAS CALL ISZERO DUP1 ISZERO PUSH2 0x252 JUMPI RETURNDATASIZE PUSH1 0x0 DUP1 RETURNDATACOPY RETURNDATASIZE PUSH1 0x0 REVERT JUMPDEST POP POP POP POP POP POP POP POP POP POP JUMP JUMPDEST PUSH1 0x0 DUP2 CALLDATALOAD SWAP1 POP PUSH2 0x26D DUP2 PUSH2 0x4C1 JUMP JUMPDEST SWAP3 SWAP2 POP POP JUMP JUMPDEST PUSH1 0x0 DUP2 CALLDATALOAD SWAP1 POP PUSH2 0x282 DUP2 PUSH2 0x4D8 JUMP JUMPDEST SWAP3 SWAP2 POP POP JUMP JUMPDEST PUSH1 0x0 DUP1 PUSH1 0x0 DUP1 PUSH1 0x0 DUP1 PUSH1 0xC0 DUP8 DUP10 SUB SLT ISZERO PUSH2 0x2A5 JUMPI PUSH2 0x2A4 PUSH2 0x4BC JUMP JUMPDEST JUMPDEST PUSH1 0x0 PUSH2 0x2B3 DUP10 DUP3 DUP11 ADD PUSH2 0x25E JUMP JUMPDEST SWAP7 POP POP PUSH1 0x20 PUSH2 0x2C4 DUP10 DUP3 DUP11 ADD PUSH2 0x25E JUMP JUMPDEST SWAP6 POP POP PUSH1 0x40 PUSH2 0x2D5 DUP10 DUP3 DUP11 ADD PUSH2 0x273 JUMP JUMPDEST SWAP5 POP POP PUSH1 0x60 PUSH2 0x2E6 DUP10 DUP3 DUP11 ADD PUSH2 0x25E JUMP JUMPDEST SWAP4 POP POP PUSH1 0x80 PUSH2 0x2F7 DUP10 DUP3 DUP11 ADD PUSH2 0x273 JUMP JUMPDEST SWAP3 POP POP PUSH1 0xA0 PUSH2 0x308 DUP10 DUP3 DUP11 ADD PUSH2 0x273 JUMP JUMPDEST SWAP2 POP POP SWAP3 SWAP6 POP SWAP3 SWAP6 POP SWAP3 SWAP6 JUMP JUMPDEST PUSH2 0x31E DUP2 PUSH2 0x412 JUMP JUMPDEST DUP3 MSTORE POP POP JUMP JUMPDEST PUSH2 0x32D DUP2 PUSH2 0x424 JUMP JUMPDEST DUP3 MSTORE POP POP JUMP JUMPDEST PUSH2 0x33C DUP2 PUSH2 0x462 JUMP JUMPDEST DUP3 MSTORE POP POP JUMP JUMPDEST PUSH2 0x34B DUP2 PUSH2 0x474 JUMP JUMPDEST DUP3 MSTORE POP POP JUMP JUMPDEST PUSH2 0x35A DUP2 PUSH2 0x486 JUMP JUMPDEST DUP3 MSTORE POP POP JUMP JUMPDEST PUSH1 0x0 PUSH1 0x40 DUP3 ADD SWAP1 POP PUSH2 0x375 PUSH1 0x0 DUP4 ADD DUP6 PUSH2 0x324 JUMP JUMPDEST PUSH2 0x382 PUSH1 0x20 DUP4 ADD DUP5 PUSH2 0x315 JUMP JUMPDEST SWAP4 SWAP3 POP POP POP JUMP JUMPDEST PUSH1 0x0 PUSH1 0xA0 DUP3 ADD SWAP1 POP PUSH2 0x39E PUSH1 0x0 DUP4 ADD DUP9 PUSH2 0x324 JUMP JUMPDEST PUSH2 0x3AB PUSH1 0x20 DUP4 ADD DUP8 PUSH2 0x324 JUMP JUMPDEST PUSH2 0x3B8 PUSH1 0x40 DUP4 ADD DUP7 PUSH2 0x315 JUMP JUMPDEST PUSH2 0x3C5 PUSH1 0x60 DUP4 ADD DUP6 PUSH2 0x315 JUMP JUMPDEST PUSH2 0x3D2 PUSH1 0x80 DUP4 ADD DUP5 PUSH2 0x351 JUMP JUMPDEST SWAP7 SWAP6 POP POP POP POP POP POP JUMP JUMPDEST PUSH1 0x0 PUSH1 0x20 DUP3 ADD SWAP1 POP PUSH2 0x3F1 PUSH1 0x0 DUP4 ADD DUP5 PUSH2 0x333 JUMP JUMPDEST SWAP3 SWAP2 POP POP JUMP JUMPDEST PUSH1 0x0 PUSH1 0x20 DUP3 ADD SWAP1 POP PUSH2 0x40C PUSH1 0x0 DUP4 ADD DUP5 PUSH2 0x342 JUMP JUMPDEST SWAP3 SWAP2 POP POP JUMP JUMPDEST PUSH1 0x0 PUSH2 0x41D DUP3 PUSH2 0x42E JUMP JUMPDEST SWAP1 POP SWAP2 SWAP1 POP JUMP JUMPDEST PUSH1 0x0 DUP2 SWAP1 POP SWAP2 SWAP1 POP JUMP JUMPDEST PUSH1 0x0 PUSH20 0xFFFFFFFFFFFFFFFFFFFFFFFFFFFFFFFFFFFFFFFF DUP3 AND SWAP1 POP SWAP2 SWAP1 POP JUMP JUMPDEST PUSH1 0x0 PUSH8 0xFFFFFFFFFFFFFFFF DUP3 AND SWAP1 POP SWAP2 SWAP1 POP JUMP JUMPDEST PUSH1 0x0 PUSH2 0x46D DUP3 PUSH2 0x498 JUMP JUMPDEST SWAP1 POP SWAP2 SWAP1 POP JUMP JUMPDEST PUSH1 0x0 PUSH2 0x47F DUP3 PUSH2 0x498 JUMP JUMPDEST SWAP1 POP SWAP2 SWAP1 POP JUMP JUMPDEST PUSH1 0x0 PUSH2 0x491 DUP3 PUSH2 0x44E JUMP JUMPDEST SWAP1 POP SWAP2 SWAP1 POP JUMP JUMPDEST PUSH1 0x0 PUSH2 0x4A3 DUP3 PUSH2 0x4AA JUMP JUMPDEST SWAP1 POP SWAP2 SWAP1 POP JUMP JUMPDEST PUSH1 0x0 PUSH2 0x4B5 DUP3 PUSH2 0x42E JUMP JUMPDEST SWAP1 POP SWAP2 SWAP1 POP JUMP JUMPDEST PUSH1 0x0 DUP1 REVERT JUMPDEST PUSH2 0x4CA DUP2 PUSH2 0x412 JUMP JUMPDEST DUP2 EQ PUSH2 0x4D5 JUMPI PUSH1 0x0 DUP1 REVERT JUMPDEST POP JUMP JUMPDEST PUSH2 0x4E1 DUP2 PUSH2 0x424 JUMP JUMPDEST DUP2 EQ PUSH2 0x4EC JUMPI PUSH1 0x0 DUP1 REVERT JUMPDEST POP JUMP INVALID LOG2 PUSH5 0x6970667358 0x22 SLT KECCAK256 0xD9 0xBB 0xE4 RETURNDATACOPY ORIGIN JUMP PUSH17 0xB63A8FCD021C4DAE2E6211E7EDF53DC288 SGT 0xED 0xEC PUSH11 0xBAA1ADF764736F6C634300 ADDMOD SMOD STOP CALLER "
				},
				"gasEstimates": {
					"creation": {
						"codeDepositCost": "263400",
						"executionCost": "48840",
						"totalCost": "312240"
					},
					"external": {
						"_resolver()": "2600",
						"ens()": "2575",
						"setSubNode(address,address,bytes32,address,bytes32,bytes32)": "infinite"
					}
				},
				"methodIdentifiers": {
					"_resolver()": "43958861",
					"ens()": "3f15457f",
					"setSubNode(address,address,bytes32,address,bytes32,bytes32)": "b99f0ab4"
				}
			},
			"storageLayout": {
				"storage": [
					{
						"astId": 50,
						"contract": "Ethereum/ENS/contracts/ENSHandler.sol:ENSHandler",
						"label": "ens",
						"offset": 0,
						"slot": "0",
						"type": "t_contract(ENS)33"
					},
					{
						"astId": 59,
						"contract": "Ethereum/ENS/contracts/ENSHandler.sol:ENSHandler",
						"label": "_resolver",
						"offset": 0,
						"slot": "1",
						"type": "t_contract(ENSResolver)41"
					}
				],
				"types": {
					"t_contract(ENS)33": {
						"encoding": "inplace",
						"label": "contract ENS",
						"numberOfBytes": "20"
					},
					"t_contract(ENSResolver)41": {
						"encoding": "inplace",
						"label": "contract ENSResolver",
						"numberOfBytes": "20"
					}
				}
			},
			"userdoc": {
				"kind": "user",
				"methods": {},
				"version": 1
			}
		}
	}
}