{
	"Ethereum/ENS/contracts/ENSHandler.sol": {
		"ENSHandler": {
			"abi": [
				{
					"inputs": [
						{
							"internalType": "address",
							"name": "_resolver",
							"type": "address"
						},
						{
							"internalType": "address",
							"name": "_ens",
							"type": "address"
						},
						{
							"internalType": "bytes32",
							"name": "_rootNode",
							"type": "bytes32"
						},
						{
							"internalType": "address",
							"name": "_target",
							"type": "address"
						},
						{
							"internalType": "bytes32",
							"name": "_label",
							"type": "bytes32"
						},
						{
							"internalType": "bytes32",
							"name": "_subNodeHash",
							"type": "bytes32"
						}
					],
					"name": "setSubNode",
					"outputs": [],
					"stateMutability": "nonpayable",
					"type": "function"
				}
			],
			"devdoc": {
				"kind": "dev",
				"methods": {},
				"version": 1
			},
			"evm": {
				"assembly": "    /* \"Ethereum/ENS/contracts/ENSHandler.sol\":434:804  contract ENSHandler {... */\n  mstore(0x40, 0x80)\n  callvalue\n  dup1\n  iszero\n  tag_1\n  jumpi\n  0x00\n  dup1\n  revert\ntag_1:\n  pop\n  dataSize(sub_0)\n  dup1\n  dataOffset(sub_0)\n  0x00\n  codecopy\n  0x00\n  return\nstop\n\nsub_0: assembly {\n        /* \"Ethereum/ENS/contracts/ENSHandler.sol\":434:804  contract ENSHandler {... */\n      mstore(0x40, 0x80)\n      callvalue\n      dup1\n      iszero\n      tag_1\n      jumpi\n      0x00\n      dup1\n      revert\n    tag_1:\n      pop\n      jumpi(tag_2, lt(calldatasize, 0x04))\n      shr(0xe0, calldataload(0x00))\n      dup1\n      0xb99f0ab4\n      eq\n      tag_3\n      jumpi\n    tag_2:\n      0x00\n      dup1\n      revert\n        /* \"Ethereum/ENS/contracts/ENSHandler.sol\":461:802  function setSubNode(address _resolver, address _ens, bytes32 _rootNode, address _target, bytes32 _label, bytes32 _subNodeHash) external {... */\n    tag_3:\n      tag_4\n      0x04\n      dup1\n      calldatasize\n      sub\n      dup2\n      add\n      swap1\n      tag_5\n      swap2\n      swap1\n      tag_6\n      jump\t// in\n    tag_5:\n      tag_7\n      jump\t// in\n    tag_4:\n      stop\n    tag_7:\n        /* \"Ethereum/ENS/contracts/ENSHandler.sol\":611:615  _ens */\n      dup5\n        /* \"Ethereum/ENS/contracts/ENSHandler.sol\":607:633  ENS(_ens).setSubnodeRecord */\n      0xffffffffffffffffffffffffffffffffffffffff\n      and\n      0x5ef2c7f0\n        /* \"Ethereum/ENS/contracts/ENSHandler.sol\":634:643  _rootNode */\n      dup6\n        /* \"Ethereum/ENS/contracts/ENSHandler.sol\":645:651  _label */\n      dup5\n        /* \"Ethereum/ENS/contracts/ENSHandler.sol\":661:665  this */\n      address\n        /* \"Ethereum/ENS/contracts/ENSHandler.sol\":668:677  _resolver */\n      dup11\n        /* \"Ethereum/ENS/contracts/ENSHandler.sol\":679:680  0 */\n      0x00\n        /* \"Ethereum/ENS/contracts/ENSHandler.sol\":607:681  ENS(_ens).setSubnodeRecord(_rootNode, _label, address(this), _resolver, 0) */\n      mload(0x40)\n      dup7\n      0xffffffff\n      and\n      0xe0\n      shl\n      dup2\n      mstore\n      0x04\n      add\n      tag_9\n      swap6\n      swap5\n      swap4\n      swap3\n      swap2\n      swap1\n      tag_10\n      jump\t// in\n    tag_9:\n      0x00\n      mload(0x40)\n      dup1\n      dup4\n      sub\n      dup2\n      0x00\n      dup8\n      dup1\n      extcodesize\n      iszero\n      dup1\n      iszero\n      tag_11\n      jumpi\n      0x00\n      dup1\n      revert\n    tag_11:\n      pop\n      gas\n      call\n      iszero\n      dup1\n      iszero\n      tag_13\n      jumpi\n      returndatasize\n      0x00\n      dup1\n      returndatacopy\n      revert(0x00, returndatasize)\n    tag_13:\n      pop\n      pop\n      pop\n      pop\n        /* \"Ethereum/ENS/contracts/ENSHandler.sol\":703:712  _resolver */\n      dup6\n        /* \"Ethereum/ENS/contracts/ENSHandler.sol\":691:721  ENSResolver(_resolver).setAddr */\n      0xffffffffffffffffffffffffffffffffffffffff\n      and\n      0xd5fa2b00\n        /* \"Ethereum/ENS/contracts/ENSHandler.sol\":722:734  _subNodeHash */\n      dup3\n        /* \"Ethereum/ENS/contracts/ENSHandler.sol\":736:743  _target */\n      dup6\n        /* \"Ethereum/ENS/contracts/ENSHandler.sol\":691:744  ENSResolver(_resolver).setAddr(_subNodeHash, _target) */\n      mload(0x40)\n      dup4\n      0xffffffff\n      and\n      0xe0\n      shl\n      dup2\n      mstore\n      0x04\n      add\n      tag_14\n      swap3\n      swap2\n      swap1\n      tag_15\n      jump\t// in\n    tag_14:\n      0x00\n      mload(0x40)\n      dup1\n      dup4\n      sub\n      dup2\n      0x00\n      dup8\n      dup1\n      extcodesize\n      iszero\n      dup1\n      iszero\n      tag_16\n      jumpi\n      0x00\n      dup1\n      revert\n    tag_16:\n      pop\n      gas\n      call\n      iszero\n      dup1\n      iszero\n      tag_18\n      jumpi\n      returndatasize\n      0x00\n      dup1\n      returndatacopy\n      revert(0x00, returndatasize)\n    tag_18:\n      pop\n      pop\n      pop\n      pop\n        /* \"Ethereum/ENS/contracts/ENSHandler.sol\":758:762  _ens */\n      dup5\n        /* \"Ethereum/ENS/contracts/ENSHandler.sol\":754:772  ENS(_ens).setOwner */\n      0xffffffffffffffffffffffffffffffffffffffff\n      and\n      0x5b0fc9c3\n        /* \"Ethereum/ENS/contracts/ENSHandler.sol\":773:785  _subNodeHash */\n      dup3\n        /* \"Ethereum/ENS/contracts/ENSHandler.sol\":787:794  _target */\n      dup6\n        /* \"Ethereum/ENS/contracts/ENSHandler.sol\":754:795  ENS(_ens).setOwner(_subNodeHash, _target) */\n      mload(0x40)\n      dup4\n      0xffffffff\n      and\n      0xe0\n      shl\n      dup2\n      mstore\n      0x04\n      add\n      tag_19\n      swap3\n      swap2\n      swap1\n      tag_15\n      jump\t// in\n    tag_19:\n      0x00\n      mload(0x40)\n      dup1\n      dup4\n      sub\n      dup2\n      0x00\n      dup8\n      dup1\n      extcodesize\n      iszero\n      dup1\n      iszero\n      tag_20\n      jumpi\n      0x00\n      dup1\n      revert\n    tag_20:\n      pop\n      gas\n      call\n      iszero\n      dup1\n      iszero\n      tag_22\n      jumpi\n      returndatasize\n      0x00\n      dup1\n      returndatacopy\n      revert(0x00, returndatasize)\n    tag_22:\n      pop\n      pop\n      pop\n      pop\n        /* \"Ethereum/ENS/contracts/ENSHandler.sol\":461:802  function setSubNode(address _resolver, address _ens, bytes32 _rootNode, address _target, bytes32 _label, bytes32 _subNodeHash) external {... */\n      pop\n      pop\n      pop\n      pop\n      pop\n      pop\n      jump\t// out\n        /* \"#utility.yul\":7:146   */\n    tag_24:\n        /* \"#utility.yul\":53:58   */\n      0x00\n        /* \"#utility.yul\":91:97   */\n      dup2\n        /* \"#utility.yul\":78:98   */\n      calldataload\n        /* \"#utility.yul\":69:98   */\n      swap1\n      pop\n        /* \"#utility.yul\":107:140   */\n      tag_26\n        /* \"#utility.yul\":134:139   */\n      dup2\n        /* \"#utility.yul\":107:140   */\n      tag_27\n      jump\t// in\n    tag_26:\n        /* \"#utility.yul\":7:146   */\n      swap3\n      swap2\n      pop\n      pop\n      jump\t// out\n        /* \"#utility.yul\":152:291   */\n    tag_28:\n        /* \"#utility.yul\":198:203   */\n      0x00\n        /* \"#utility.yul\":236:242   */\n      dup2\n        /* \"#utility.yul\":223:243   */\n      calldataload\n        /* \"#utility.yul\":214:243   */\n      swap1\n      pop\n        /* \"#utility.yul\":252:285   */\n      tag_30\n        /* \"#utility.yul\":279:284   */\n      dup2\n        /* \"#utility.yul\":252:285   */\n      tag_31\n      jump\t// in\n    tag_30:\n        /* \"#utility.yul\":152:291   */\n      swap3\n      swap2\n      pop\n      pop\n      jump\t// out\n        /* \"#utility.yul\":297:1354   */\n    tag_6:\n        /* \"#utility.yul\":401:407   */\n      0x00\n        /* \"#utility.yul\":409:415   */\n      dup1\n        /* \"#utility.yul\":417:423   */\n      0x00\n        /* \"#utility.yul\":425:431   */\n      dup1\n        /* \"#utility.yul\":433:439   */\n      0x00\n        /* \"#utility.yul\":441:447   */\n      dup1\n        /* \"#utility.yul\":490:493   */\n      0xc0\n        /* \"#utility.yul\":478:487   */\n      dup8\n        /* \"#utility.yul\":469:476   */\n      dup10\n        /* \"#utility.yul\":465:488   */\n      sub\n        /* \"#utility.yul\":461:494   */\n      slt\n        /* \"#utility.yul\":458:578   */\n      iszero\n      tag_33\n      jumpi\n        /* \"#utility.yul\":497:576   */\n      tag_34\n      tag_35\n      jump\t// in\n    tag_34:\n        /* \"#utility.yul\":458:578   */\n    tag_33:\n        /* \"#utility.yul\":617:618   */\n      0x00\n        /* \"#utility.yul\":642:695   */\n      tag_36\n        /* \"#utility.yul\":687:694   */\n      dup10\n        /* \"#utility.yul\":678:684   */\n      dup3\n        /* \"#utility.yul\":667:676   */\n      dup11\n        /* \"#utility.yul\":663:685   */\n      add\n        /* \"#utility.yul\":642:695   */\n      tag_24\n      jump\t// in\n    tag_36:\n        /* \"#utility.yul\":632:695   */\n      swap7\n      pop\n        /* \"#utility.yul\":588:705   */\n      pop\n        /* \"#utility.yul\":744:746   */\n      0x20\n        /* \"#utility.yul\":770:823   */\n      tag_37\n        /* \"#utility.yul\":815:822   */\n      dup10\n        /* \"#utility.yul\":806:812   */\n      dup3\n        /* \"#utility.yul\":795:804   */\n      dup11\n        /* \"#utility.yul\":791:813   */\n      add\n        /* \"#utility.yul\":770:823   */\n      tag_24\n      jump\t// in\n    tag_37:\n        /* \"#utility.yul\":760:823   */\n      swap6\n      pop\n        /* \"#utility.yul\":715:833   */\n      pop\n        /* \"#utility.yul\":872:874   */\n      0x40\n        /* \"#utility.yul\":898:951   */\n      tag_38\n        /* \"#utility.yul\":943:950   */\n      dup10\n        /* \"#utility.yul\":934:940   */\n      dup3\n        /* \"#utility.yul\":923:932   */\n      dup11\n        /* \"#utility.yul\":919:941   */\n      add\n        /* \"#utility.yul\":898:951   */\n      tag_28\n      jump\t// in\n    tag_38:\n        /* \"#utility.yul\":888:951   */\n      swap5\n      pop\n        /* \"#utility.yul\":843:961   */\n      pop\n        /* \"#utility.yul\":1000:1002   */\n      0x60\n        /* \"#utility.yul\":1026:1079   */\n      tag_39\n        /* \"#utility.yul\":1071:1078   */\n      dup10\n        /* \"#utility.yul\":1062:1068   */\n      dup3\n        /* \"#utility.yul\":1051:1060   */\n      dup11\n        /* \"#utility.yul\":1047:1069   */\n      add\n        /* \"#utility.yul\":1026:1079   */\n      tag_24\n      jump\t// in\n    tag_39:\n        /* \"#utility.yul\":1016:1079   */\n      swap4\n      pop\n        /* \"#utility.yul\":971:1089   */\n      pop\n        /* \"#utility.yul\":1128:1131   */\n      0x80\n        /* \"#utility.yul\":1155:1208   */\n      tag_40\n        /* \"#utility.yul\":1200:1207   */\n      dup10\n        /* \"#utility.yul\":1191:1197   */\n      dup3\n        /* \"#utility.yul\":1180:1189   */\n      dup11\n        /* \"#utility.yul\":1176:1198   */\n      add\n        /* \"#utility.yul\":1155:1208   */\n      tag_28\n      jump\t// in\n    tag_40:\n        /* \"#utility.yul\":1145:1208   */\n      swap3\n      pop\n        /* \"#utility.yul\":1099:1218   */\n      pop\n        /* \"#utility.yul\":1257:1260   */\n      0xa0\n        /* \"#utility.yul\":1284:1337   */\n      tag_41\n        /* \"#utility.yul\":1329:1336   */\n      dup10\n        /* \"#utility.yul\":1320:1326   */\n      dup3\n        /* \"#utility.yul\":1309:1318   */\n      dup11\n        /* \"#utility.yul\":1305:1327   */\n      add\n        /* \"#utility.yul\":1284:1337   */\n      tag_28\n      jump\t// in\n    tag_41:\n        /* \"#utility.yul\":1274:1337   */\n      swap2\n      pop\n        /* \"#utility.yul\":1228:1347   */\n      pop\n        /* \"#utility.yul\":297:1354   */\n      swap3\n      swap6\n      pop\n      swap3\n      swap6\n      pop\n      swap3\n      swap6\n      jump\t// out\n        /* \"#utility.yul\":1360:1478   */\n    tag_42:\n        /* \"#utility.yul\":1447:1471   */\n      tag_44\n        /* \"#utility.yul\":1465:1470   */\n      dup2\n        /* \"#utility.yul\":1447:1471   */\n      tag_45\n      jump\t// in\n    tag_44:\n        /* \"#utility.yul\":1442:1445   */\n      dup3\n        /* \"#utility.yul\":1435:1472   */\n      mstore\n        /* \"#utility.yul\":1360:1478   */\n      pop\n      pop\n      jump\t// out\n        /* \"#utility.yul\":1484:1602   */\n    tag_46:\n        /* \"#utility.yul\":1571:1595   */\n      tag_48\n        /* \"#utility.yul\":1589:1594   */\n      dup2\n        /* \"#utility.yul\":1571:1595   */\n      tag_49\n      jump\t// in\n    tag_48:\n        /* \"#utility.yul\":1566:1569   */\n      dup3\n        /* \"#utility.yul\":1559:1596   */\n      mstore\n        /* \"#utility.yul\":1484:1602   */\n      pop\n      pop\n      jump\t// out\n        /* \"#utility.yul\":1608:1753   */\n    tag_50:\n        /* \"#utility.yul\":1702:1746   */\n      tag_52\n        /* \"#utility.yul\":1740:1745   */\n      dup2\n        /* \"#utility.yul\":1702:1746   */\n      tag_53\n      jump\t// in\n    tag_52:\n        /* \"#utility.yul\":1697:1700   */\n      dup3\n        /* \"#utility.yul\":1690:1747   */\n      mstore\n        /* \"#utility.yul\":1608:1753   */\n      pop\n      pop\n      jump\t// out\n        /* \"#utility.yul\":1759:2091   */\n    tag_15:\n        /* \"#utility.yul\":1880:1884   */\n      0x00\n        /* \"#utility.yul\":1918:1920   */\n      0x40\n        /* \"#utility.yul\":1907:1916   */\n      dup3\n        /* \"#utility.yul\":1903:1921   */\n      add\n        /* \"#utility.yul\":1895:1921   */\n      swap1\n      pop\n        /* \"#utility.yul\":1931:2002   */\n      tag_55\n        /* \"#utility.yul\":1999:2000   */\n      0x00\n        /* \"#utility.yul\":1988:1997   */\n      dup4\n        /* \"#utility.yul\":1984:2001   */\n      add\n        /* \"#utility.yul\":1975:1981   */\n      dup6\n        /* \"#utility.yul\":1931:2002   */\n      tag_46\n      jump\t// in\n    tag_55:\n        /* \"#utility.yul\":2012:2084   */\n      tag_56\n        /* \"#utility.yul\":2080:2082   */\n      0x20\n        /* \"#utility.yul\":2069:2078   */\n      dup4\n        /* \"#utility.yul\":2065:2083   */\n      add\n        /* \"#utility.yul\":2056:2062   */\n      dup5\n        /* \"#utility.yul\":2012:2084   */\n      tag_42\n      jump\t// in\n    tag_56:\n        /* \"#utility.yul\":1759:2091   */\n      swap4\n      swap3\n      pop\n      pop\n      pop\n      jump\t// out\n        /* \"#utility.yul\":2097:2775   */\n    tag_10:\n        /* \"#utility.yul\":2309:2313   */\n      0x00\n        /* \"#utility.yul\":2347:2350   */\n      0xa0\n        /* \"#utility.yul\":2336:2345   */\n      dup3\n        /* \"#utility.yul\":2332:2351   */\n      add\n        /* \"#utility.yul\":2324:2351   */\n      swap1\n      pop\n        /* \"#utility.yul\":2361:2432   */\n      tag_58\n        /* \"#utility.yul\":2429:2430   */\n      0x00\n        /* \"#utility.yul\":2418:2427   */\n      dup4\n        /* \"#utility.yul\":2414:2431   */\n      add\n        /* \"#utility.yul\":2405:2411   */\n      dup9\n        /* \"#utility.yul\":2361:2432   */\n      tag_46\n      jump\t// in\n    tag_58:\n        /* \"#utility.yul\":2442:2514   */\n      tag_59\n        /* \"#utility.yul\":2510:2512   */\n      0x20\n        /* \"#utility.yul\":2499:2508   */\n      dup4\n        /* \"#utility.yul\":2495:2513   */\n      add\n        /* \"#utility.yul\":2486:2492   */\n      dup8\n        /* \"#utility.yul\":2442:2514   */\n      tag_46\n      jump\t// in\n    tag_59:\n        /* \"#utility.yul\":2524:2596   */\n      tag_60\n        /* \"#utility.yul\":2592:2594   */\n      0x40\n        /* \"#utility.yul\":2581:2590   */\n      dup4\n        /* \"#utility.yul\":2577:2595   */\n      add\n        /* \"#utility.yul\":2568:2574   */\n      dup7\n        /* \"#utility.yul\":2524:2596   */\n      tag_42\n      jump\t// in\n    tag_60:\n        /* \"#utility.yul\":2606:2678   */\n      tag_61\n        /* \"#utility.yul\":2674:2676   */\n      0x60\n        /* \"#utility.yul\":2663:2672   */\n      dup4\n        /* \"#utility.yul\":2659:2677   */\n      add\n        /* \"#utility.yul\":2650:2656   */\n      dup6\n        /* \"#utility.yul\":2606:2678   */\n      tag_42\n      jump\t// in\n    tag_61:\n        /* \"#utility.yul\":2688:2768   */\n      tag_62\n        /* \"#utility.yul\":2763:2766   */\n      0x80\n        /* \"#utility.yul\":2752:2761   */\n      dup4\n        /* \"#utility.yul\":2748:2767   */\n      add\n        /* \"#utility.yul\":2739:2745   */\n      dup5\n        /* \"#utility.yul\":2688:2768   */\n      tag_50\n      jump\t// in\n    tag_62:\n        /* \"#utility.yul\":2097:2775   */\n      swap7\n      swap6\n      pop\n      pop\n      pop\n      pop\n      pop\n      pop\n      jump\t// out\n        /* \"#utility.yul\":2862:2958   */\n    tag_45:\n        /* \"#utility.yul\":2899:2906   */\n      0x00\n        /* \"#utility.yul\":2928:2952   */\n      tag_66\n        /* \"#utility.yul\":2946:2951   */\n      dup3\n        /* \"#utility.yul\":2928:2952   */\n      tag_67\n      jump\t// in\n    tag_66:\n        /* \"#utility.yul\":2917:2952   */\n      swap1\n      pop\n        /* \"#utility.yul\":2862:2958   */\n      swap2\n      swap1\n      pop\n      jump\t// out\n        /* \"#utility.yul\":2964:3041   */\n    tag_49:\n        /* \"#utility.yul\":3001:3008   */\n      0x00\n        /* \"#utility.yul\":3030:3035   */\n      dup2\n        /* \"#utility.yul\":3019:3035   */\n      swap1\n      pop\n        /* \"#utility.yul\":2964:3041   */\n      swap2\n      swap1\n      pop\n      jump\t// out\n        /* \"#utility.yul\":3047:3173   */\n    tag_67:\n        /* \"#utility.yul\":3084:3091   */\n      0x00\n        /* \"#utility.yul\":3124:3166   */\n      0xffffffffffffffffffffffffffffffffffffffff\n        /* \"#utility.yul\":3117:3122   */\n      dup3\n        /* \"#utility.yul\":3113:3167   */\n      and\n        /* \"#utility.yul\":3102:3167   */\n      swap1\n      pop\n        /* \"#utility.yul\":3047:3173   */\n      swap2\n      swap1\n      pop\n      jump\t// out\n        /* \"#utility.yul\":3179:3280   */\n    tag_70:\n        /* \"#utility.yul\":3215:3222   */\n      0x00\n        /* \"#utility.yul\":3255:3273   */\n      0xffffffffffffffff\n        /* \"#utility.yul\":3248:3253   */\n      dup3\n        /* \"#utility.yul\":3244:3274   */\n      and\n        /* \"#utility.yul\":3233:3274   */\n      swap1\n      pop\n        /* \"#utility.yul\":3179:3280   */\n      swap2\n      swap1\n      pop\n      jump\t// out\n        /* \"#utility.yul\":3286:3405   */\n    tag_53:\n        /* \"#utility.yul\":3343:3352   */\n      0x00\n        /* \"#utility.yul\":3376:3399   */\n      tag_73\n        /* \"#utility.yul\":3393:3398   */\n      dup3\n        /* \"#utility.yul\":3376:3399   */\n      tag_70\n      jump\t// in\n    tag_73:\n        /* \"#utility.yul\":3363:3399   */\n      swap1\n      pop\n        /* \"#utility.yul\":3286:3405   */\n      swap2\n      swap1\n      pop\n      jump\t// out\n        /* \"#utility.yul\":3534:3651   */\n    tag_35:\n        /* \"#utility.yul\":3643:3644   */\n      0x00\n        /* \"#utility.yul\":3640:3641   */\n      dup1\n        /* \"#utility.yul\":3633:3645   */\n      revert\n        /* \"#utility.yul\":3657:3779   */\n    tag_27:\n        /* \"#utility.yul\":3730:3754   */\n      tag_78\n        /* \"#utility.yul\":3748:3753   */\n      dup2\n        /* \"#utility.yul\":3730:3754   */\n      tag_45\n      jump\t// in\n    tag_78:\n        /* \"#utility.yul\":3723:3728   */\n      dup2\n        /* \"#utility.yul\":3720:3755   */\n      eq\n        /* \"#utility.yul\":3710:3773   */\n      tag_79\n      jumpi\n        /* \"#utility.yul\":3769:3770   */\n      0x00\n        /* \"#utility.yul\":3766:3767   */\n      dup1\n        /* \"#utility.yul\":3759:3771   */\n      revert\n        /* \"#utility.yul\":3710:3773   */\n    tag_79:\n        /* \"#utility.yul\":3657:3779   */\n      pop\n      jump\t// out\n        /* \"#utility.yul\":3785:3907   */\n    tag_31:\n        /* \"#utility.yul\":3858:3882   */\n      tag_81\n        /* \"#utility.yul\":3876:3881   */\n      dup2\n        /* \"#utility.yul\":3858:3882   */\n      tag_49\n      jump\t// in\n    tag_81:\n        /* \"#utility.yul\":3851:3856   */\n      dup2\n        /* \"#utility.yul\":3848:3883   */\n      eq\n        /* \"#utility.yul\":3838:3901   */\n      tag_82\n      jumpi\n        /* \"#utility.yul\":3897:3898   */\n      0x00\n        /* \"#utility.yul\":3894:3895   */\n      dup1\n        /* \"#utility.yul\":3887:3899   */\n      revert\n        /* \"#utility.yul\":3838:3901   */\n    tag_82:\n        /* \"#utility.yul\":3785:3907   */\n      pop\n      jump\t// out\n\n    auxdata: 0xa2646970667358221220434833a8b4a18f651825c6013e67533e4dac9f4edad5804523469adc326b138064736f6c63430008070033\n}\n",
				"bytecode": {
					"linkReferences": {},
					"object": "608060405234801561001057600080fd5b506103cd806100206000396000f3fe608060405234801561001057600080fd5b506004361061002b5760003560e01c8063b99f0ab414610030575b600080fd5b61004a600480360381019061004591906101cc565b61004c565b005b8473ffffffffffffffffffffffffffffffffffffffff16635ef2c7f08584308a60006040518663ffffffff1660e01b815260040161008e9594939291906102af565b600060405180830381600087803b1580156100a857600080fd5b505af11580156100bc573d6000803e3d6000fd5b505050508573ffffffffffffffffffffffffffffffffffffffff1663d5fa2b0082856040518363ffffffff1660e01b81526004016100fb929190610286565b600060405180830381600087803b15801561011557600080fd5b505af1158015610129573d6000803e3d6000fd5b505050508473ffffffffffffffffffffffffffffffffffffffff16635b0fc9c382856040518363ffffffff1660e01b8152600401610168929190610286565b600060405180830381600087803b15801561018257600080fd5b505af1158015610196573d6000803e3d6000fd5b50505050505050505050565b6000813590506101b181610369565b92915050565b6000813590506101c681610380565b92915050565b60008060008060008060c087890312156101e9576101e8610364565b5b60006101f789828a016101a2565b965050602061020889828a016101a2565b955050604061021989828a016101b7565b945050606061022a89828a016101a2565b935050608061023b89828a016101b7565b92505060a061024c89828a016101b7565b9150509295509295509295565b61026281610302565b82525050565b61027181610314565b82525050565b61028081610352565b82525050565b600060408201905061029b6000830185610268565b6102a86020830184610259565b9392505050565b600060a0820190506102c46000830188610268565b6102d16020830187610268565b6102de6040830186610259565b6102eb6060830185610259565b6102f86080830184610277565b9695505050505050565b600061030d8261031e565b9050919050565b6000819050919050565b600073ffffffffffffffffffffffffffffffffffffffff82169050919050565b600067ffffffffffffffff82169050919050565b600061035d8261033e565b9050919050565b600080fd5b61037281610302565b811461037d57600080fd5b50565b61038981610314565b811461039457600080fd5b5056fea2646970667358221220434833a8b4a18f651825c6013e67533e4dac9f4edad5804523469adc326b138064736f6c63430008070033",
					"opcodes": "PUSH1 0x80 PUSH1 0x40 MSTORE CALLVALUE DUP1 ISZERO PUSH2 0x10 JUMPI PUSH1 0x0 DUP1 REVERT JUMPDEST POP PUSH2 0x3CD DUP1 PUSH2 0x20 PUSH1 0x0 CODECOPY PUSH1 0x0 RETURN INVALID PUSH1 0x80 PUSH1 0x40 MSTORE CALLVALUE DUP1 ISZERO PUSH2 0x10 JUMPI PUSH1 0x0 DUP1 REVERT JUMPDEST POP PUSH1 0x4 CALLDATASIZE LT PUSH2 0x2B JUMPI PUSH1 0x0 CALLDATALOAD PUSH1 0xE0 SHR DUP1 PUSH4 0xB99F0AB4 EQ PUSH2 0x30 JUMPI JUMPDEST PUSH1 0x0 DUP1 REVERT JUMPDEST PUSH2 0x4A PUSH1 0x4 DUP1 CALLDATASIZE SUB DUP2 ADD SWAP1 PUSH2 0x45 SWAP2 SWAP1 PUSH2 0x1CC JUMP JUMPDEST PUSH2 0x4C JUMP JUMPDEST STOP JUMPDEST DUP5 PUSH20 0xFFFFFFFFFFFFFFFFFFFFFFFFFFFFFFFFFFFFFFFF AND PUSH4 0x5EF2C7F0 DUP6 DUP5 ADDRESS DUP11 PUSH1 0x0 PUSH1 0x40 MLOAD DUP7 PUSH4 0xFFFFFFFF AND PUSH1 0xE0 SHL DUP2 MSTORE PUSH1 0x4 ADD PUSH2 0x8E SWAP6 SWAP5 SWAP4 SWAP3 SWAP2 SWAP1 PUSH2 0x2AF JUMP JUMPDEST PUSH1 0x0 PUSH1 0x40 MLOAD DUP1 DUP4 SUB DUP2 PUSH1 0x0 DUP8 DUP1 EXTCODESIZE ISZERO DUP1 ISZERO PUSH2 0xA8 JUMPI PUSH1 0x0 DUP1 REVERT JUMPDEST POP GAS CALL ISZERO DUP1 ISZERO PUSH2 0xBC JUMPI RETURNDATASIZE PUSH1 0x0 DUP1 RETURNDATACOPY RETURNDATASIZE PUSH1 0x0 REVERT JUMPDEST POP POP POP POP DUP6 PUSH20 0xFFFFFFFFFFFFFFFFFFFFFFFFFFFFFFFFFFFFFFFF AND PUSH4 0xD5FA2B00 DUP3 DUP6 PUSH1 0x40 MLOAD DUP4 PUSH4 0xFFFFFFFF AND PUSH1 0xE0 SHL DUP2 MSTORE PUSH1 0x4 ADD PUSH2 0xFB SWAP3 SWAP2 SWAP1 PUSH2 0x286 JUMP JUMPDEST PUSH1 0x0 PUSH1 0x40 MLOAD DUP1 DUP4 SUB DUP2 PUSH1 0x0 DUP8 DUP1 EXTCODESIZE ISZERO DUP1 ISZERO PUSH2 0x115 JUMPI PUSH1 0x0 DUP1 REVERT JUMPDEST POP GAS CALL ISZERO DUP1 ISZERO PUSH2 0x129 JUMPI RETURNDATASIZE PUSH1 0x0 DUP1 RETURNDATACOPY RETURNDATASIZE PUSH1 0x0 REVERT JUMPDEST POP POP POP POP DUP5 PUSH20 0xFFFFFFFFFFFFFFFFFFFFFFFFFFFFFFFFFFFFFFFF AND PUSH4 0x5B0FC9C3 DUP3 DUP6 PUSH1 0x40 MLOAD DUP4 PUSH4 0xFFFFFFFF AND PUSH1 0xE0 SHL DUP2 MSTORE PUSH1 0x4 ADD PUSH2 0x168 SWAP3 SWAP2 SWAP1 PUSH2 0x286 JUMP JUMPDEST PUSH1 0x0 PUSH1 0x40 MLOAD DUP1 DUP4 SUB DUP2 PUSH1 0x0 DUP8 DUP1 EXTCODESIZE ISZERO DUP1 ISZERO PUSH2 0x182 JUMPI PUSH1 0x0 DUP1 REVERT JUMPDEST POP GAS CALL ISZERO DUP1 ISZERO PUSH2 0x196 JUMPI RETURNDATASIZE PUSH1 0x0 DUP1 RETURNDATACOPY RETURNDATASIZE PUSH1 0x0 REVERT JUMPDEST POP POP POP POP POP POP POP POP POP POP JUMP JUMPDEST PUSH1 0x0 DUP2 CALLDATALOAD SWAP1 POP PUSH2 0x1B1 DUP2 PUSH2 0x369 JUMP JUMPDEST SWAP3 SWAP2 POP POP JUMP JUMPDEST PUSH1 0x0 DUP2 CALLDATALOAD SWAP1 POP PUSH2 0x1C6 DUP2 PUSH2 0x380 JUMP JUMPDEST SWAP3 SWAP2 POP POP JUMP JUMPDEST PUSH1 0x0 DUP1 PUSH1 0x0 DUP1 PUSH1 0x0 DUP1 PUSH1 0xC0 DUP8 DUP10 SUB SLT ISZERO PUSH2 0x1E9 JUMPI PUSH2 0x1E8 PUSH2 0x364 JUMP JUMPDEST JUMPDEST PUSH1 0x0 PUSH2 0x1F7 DUP10 DUP3 DUP11 ADD PUSH2 0x1A2 JUMP JUMPDEST SWAP7 POP POP PUSH1 0x20 PUSH2 0x208 DUP10 DUP3 DUP11 ADD PUSH2 0x1A2 JUMP JUMPDEST SWAP6 POP POP PUSH1 0x40 PUSH2 0x219 DUP10 DUP3 DUP11 ADD PUSH2 0x1B7 JUMP JUMPDEST SWAP5 POP POP PUSH1 0x60 PUSH2 0x22A DUP10 DUP3 DUP11 ADD PUSH2 0x1A2 JUMP JUMPDEST SWAP4 POP POP PUSH1 0x80 PUSH2 0x23B DUP10 DUP3 DUP11 ADD PUSH2 0x1B7 JUMP JUMPDEST SWAP3 POP POP PUSH1 0xA0 PUSH2 0x24C DUP10 DUP3 DUP11 ADD PUSH2 0x1B7 JUMP JUMPDEST SWAP2 POP POP SWAP3 SWAP6 POP SWAP3 SWAP6 POP SWAP3 SWAP6 JUMP JUMPDEST PUSH2 0x262 DUP2 PUSH2 0x302 JUMP JUMPDEST DUP3 MSTORE POP POP JUMP JUMPDEST PUSH2 0x271 DUP2 PUSH2 0x314 JUMP JUMPDEST DUP3 MSTORE POP POP JUMP JUMPDEST PUSH2 0x280 DUP2 PUSH2 0x352 JUMP JUMPDEST DUP3 MSTORE POP POP JUMP JUMPDEST PUSH1 0x0 PUSH1 0x40 DUP3 ADD SWAP1 POP PUSH2 0x29B PUSH1 0x0 DUP4 ADD DUP6 PUSH2 0x268 JUMP JUMPDEST PUSH2 0x2A8 PUSH1 0x20 DUP4 ADD DUP5 PUSH2 0x259 JUMP JUMPDEST SWAP4 SWAP3 POP POP POP JUMP JUMPDEST PUSH1 0x0 PUSH1 0xA0 DUP3 ADD SWAP1 POP PUSH2 0x2C4 PUSH1 0x0 DUP4 ADD DUP9 PUSH2 0x268 JUMP JUMPDEST PUSH2 0x2D1 PUSH1 0x20 DUP4 ADD DUP8 PUSH2 0x268 JUMP JUMPDEST PUSH2 0x2DE PUSH1 0x40 DUP4 ADD DUP7 PUSH2 0x259 JUMP JUMPDEST PUSH2 0x2EB PUSH1 0x60 DUP4 ADD DUP6 PUSH2 0x259 JUMP JUMPDEST PUSH2 0x2F8 PUSH1 0x80 DUP4 ADD DUP5 PUSH2 0x277 JUMP JUMPDEST SWAP7 SWAP6 POP POP POP POP POP POP JUMP JUMPDEST PUSH1 0x0 PUSH2 0x30D DUP3 PUSH2 0x31E JUMP JUMPDEST SWAP1 POP SWAP2 SWAP1 POP JUMP JUMPDEST PUSH1 0x0 DUP2 SWAP1 POP SWAP2 SWAP1 POP JUMP JUMPDEST PUSH1 0x0 PUSH20 0xFFFFFFFFFFFFFFFFFFFFFFFFFFFFFFFFFFFFFFFF DUP3 AND SWAP1 POP SWAP2 SWAP1 POP JUMP JUMPDEST PUSH1 0x0 PUSH8 0xFFFFFFFFFFFFFFFF DUP3 AND SWAP1 POP SWAP2 SWAP1 POP JUMP JUMPDEST PUSH1 0x0 PUSH2 0x35D DUP3 PUSH2 0x33E JUMP JUMPDEST SWAP1 POP SWAP2 SWAP1 POP JUMP JUMPDEST PUSH1 0x0 DUP1 REVERT JUMPDEST PUSH2 0x372 DUP2 PUSH2 0x302 JUMP JUMPDEST DUP2 EQ PUSH2 0x37D JUMPI PUSH1 0x0 DUP1 REVERT JUMPDEST POP JUMP JUMPDEST PUSH2 0x389 DUP2 PUSH2 0x314 JUMP JUMPDEST DUP2 EQ PUSH2 0x394 JUMPI PUSH1 0x0 DUP1 REVERT JUMPDEST POP JUMP INVALID LOG2 PUSH5 0x6970667358 0x22 SLT KECCAK256 NUMBER BASEFEE CALLER 0xA8 0xB4 LOG1 DUP16 PUSH6 0x1825C6013E67 MSTORE8 RETURNDATACOPY 0x4D 0xAC SWAP16 0x4E 0xDA 0xD5 DUP1 GASLIMIT 0x23 CHAINID SWAP11 0xDC ORIGIN PUSH12 0x138064736F6C634300080700 CALLER "
				},
				"gasEstimates": {
					"creation": {
						"codeDepositCost": "194600",
						"executionCost": "238",
						"totalCost": "194838"
					},
					"external": {
						"setSubNode(address,address,bytes32,address,bytes32,bytes32)": "infinite"
					}
				},
				"methodIdentifiers": {
					"setSubNode(address,address,bytes32,address,bytes32,bytes32)": "b99f0ab4"
				}
			},
			"storageLayout": {
				"storage": [],
				"types": null
			},
			"userdoc": {
				"kind": "user",
				"methods": {},
				"version": 1
			}
		}
	}
}