{
	"data": {
		"bytecode": {
			"linkReferences": {},
			"object": "608060405234801561001057600080fd5b506122c9806100206000396000f3fe60806040523480156200001157600080fd5b5060043610620000525760003560e01c806344d9d13814620000575780635df81330146200007757806396b3ec4714620000ad578063cacea98b14620000cd575b600080fd5b6200007560048036038101906200006f9190620007a5565b62000103565b005b6200009560048036038101906200008f919062000828565b620001a7565b604051620000a4919062000ae1565b60405180910390f35b620000cb6004803603810190620000c591906200073f565b620001e7565b005b620000eb6004803603810190620000e591906200070d565b6200025a565b604051620000fa919062000b22565b60405180910390f35b6000816040516200011490620002f2565b62000120919062000ac4565b604051809103906000f0801580156200013d573d6000803e3d6000fd5b5090506000819080600181540180825580915050600190039060005260206000200160009091909190916101000a81548173ffffffffffffffffffffffffffffffffffffffff021916908373ffffffffffffffffffffffffffffffffffffffff1602179055505050565b60008181548110620001b857600080fd5b906000526020600020016000915054906101000a900473ffffffffffffffffffffffffffffffffffffffff1681565b8173ffffffffffffffffffffffffffffffffffffffff1663fc36e15b826040518263ffffffff1660e01b815260040162000222919062000afe565b600060405180830381600087803b1580156200023d57600080fd5b505af115801562000252573d6000803e3d6000fd5b505050505050565b6200026462000300565b8173ffffffffffffffffffffffffffffffffffffffff1663f1c5fd826040518163ffffffff1660e01b815260040160006040518083038186803b158015620002ab57600080fd5b505afa158015620002c0573d6000803e3d6000fd5b505050506040513d6000823e3d601f19601f82011682018060405250810190620002eb9190620007d7565b9050919050565b6114838062000e1183390190565b6040518060800160405280600073ffffffffffffffffffffffffffffffffffffffff16815260200160008019168152602001606081526020016000151581525090565b60006200035a620003548462000b6f565b62000b46565b9050808382526020820190508285602086028201111562000380576200037f62000d83565b5b60005b85811015620003d557815167ffffffffffffffff811115620003aa57620003a962000d74565b5b808601620003b9898262000625565b8552602085019450602084019350505060018101905062000383565b5050509392505050565b6000620003f6620003f08462000b9e565b62000b46565b90508281526020810184848401111562000415576200041462000d88565b5b6200042284828562000cca565b509392505050565b6000620004416200043b8462000b9e565b62000b46565b90508281526020810184848401111562000460576200045f62000d88565b5b6200046d84828562000cd9565b509392505050565b600081359050620004868162000da8565b92915050565b6000815190506200049d8162000da8565b92915050565b600082601f830112620004bb57620004ba62000d74565b5b8151620004cd84826020860162000343565b91505092915050565b600081519050620004e78162000dc2565b92915050565b600081359050620004fe8162000ddc565b92915050565b600081519050620005158162000ddc565b92915050565b600082601f83011262000533576200053262000d74565b5b813562000545848260208601620003df565b91505092915050565b600082601f83011262000566576200056562000d74565b5b8151620005788482602086016200042a565b91505092915050565b6000608082840312156200059a576200059962000d79565b5b620005a6608062000b46565b90506000620005b8848285016200048c565b6000830152506020620005ce8482850162000504565b602083015250604082015167ffffffffffffffff811115620005f557620005f462000d7e565b5b6200060384828501620004a3565b60408301525060606200061984828501620004d6565b60608301525092915050565b600060a082840312156200063e576200063d62000d79565b5b6200064a60a062000b46565b905060006200065c8482850162000504565b600083015250602062000672848285016200048c565b60208301525060406200068884828501620006f6565b60408301525060606200069e84828501620004d6565b606083015250608082015167ffffffffffffffff811115620006c557620006c462000d7e565b5b620006d3848285016200054e565b60808301525092915050565b600081359050620006f08162000df6565b92915050565b600081519050620007078162000df6565b92915050565b60006020828403121562000726576200072562000d92565b5b6000620007368482850162000475565b91505092915050565b6000806040838503121562000759576200075862000d92565b5b6000620007698582860162000475565b925050602083013567ffffffffffffffff8111156200078d576200078c62000d8d565b5b6200079b858286016200051b565b9150509250929050565b600060208284031215620007be57620007bd62000d92565b5b6000620007ce84828501620004ed565b91505092915050565b600060208284031215620007f057620007ef62000d92565b5b600082015167ffffffffffffffff81111562000811576200081062000d8d565b5b6200081f8482850162000581565b91505092915050565b60006020828403121562000841576200084062000d92565b5b60006200085184828501620006df565b91505092915050565b600062000868838362000a33565b905092915050565b6200087b8162000c3a565b82525050565b60006200088e8262000be4565b6200089a818562000c07565b935083602082028501620008ae8562000bd4565b8060005b85811015620008f05784840389528151620008ce85826200085a565b9450620008db8362000bfa565b925060208a01995050600181019050620008b2565b50829750879550505050505092915050565b6200090d8162000c4e565b82525050565b6200091e8162000c5a565b82525050565b6200092f8162000c5a565b82525050565b620009408162000c8e565b82525050565b6000620009538262000bef565b6200095f818562000c18565b93506200097181856020860162000cd9565b6200097c8162000d97565b840191505092915050565b6000620009948262000bef565b620009a0818562000c29565b9350620009b281856020860162000cd9565b620009bd8162000d97565b840191505092915050565b6000608083016000830151620009e2600086018262000870565b506020830151620009f7602086018262000913565b506040830151848203604086015262000a11828262000881565b915050606083015162000a28606086018262000902565b508091505092915050565b600060a08301600083015162000a4d600086018262000913565b50602083015162000a62602086018262000870565b50604083015162000a77604086018262000ab3565b50606083015162000a8c606086018262000902565b506080830151848203608086015262000aa6828262000946565b9150508091505092915050565b62000abe8162000c84565b82525050565b600060208201905062000adb600083018462000924565b92915050565b600060208201905062000af8600083018462000935565b92915050565b6000602082019050818103600083015262000b1a818462000987565b905092915050565b6000602082019050818103600083015262000b3e8184620009c8565b905092915050565b600062000b5262000b65565b905062000b60828262000d0f565b919050565b6000604051905090565b600067ffffffffffffffff82111562000b8d5762000b8c62000d45565b5b602082029050602081019050919050565b600067ffffffffffffffff82111562000bbc5762000bbb62000d45565b5b62000bc78262000d97565b9050602081019050919050565b6000819050602082019050919050565b600081519050919050565b600081519050919050565b6000602082019050919050565b600082825260208201905092915050565b600082825260208201905092915050565b600082825260208201905092915050565b600062000c478262000c64565b9050919050565b60008115159050919050565b6000819050919050565b600073ffffffffffffffffffffffffffffffffffffffff82169050919050565b6000819050919050565b600062000c9b8262000ca2565b9050919050565b600062000caf8262000cb6565b9050919050565b600062000cc38262000c64565b9050919050565b82818337600083830152505050565b60005b8381101562000cf957808201518184015260208101905062000cdc565b8381111562000d09576000848401525b50505050565b62000d1a8262000d97565b810181811067ffffffffffffffff8211171562000d3c5762000d3b62000d45565b5b80604052505050565b7f4e487b7100000000000000000000000000000000000000000000000000000000600052604160045260246000fd5b600080fd5b600080fd5b600080fd5b600080fd5b600080fd5b600080fd5b600080fd5b6000601f19601f8301169050919050565b62000db38162000c3a565b811462000dbf57600080fd5b50565b62000dcd8162000c4e565b811462000dd957600080fd5b50565b62000de78162000c5a565b811462000df357600080fd5b50565b62000e018162000c84565b811462000e0d57600080fd5b5056fe608060405260006001553480156200001657600080fd5b50604051620014833803806200148383398181016040528101906200003c91906200010a565b33600260000160006101000a81548173ffffffffffffffffffffffffffffffffffffffff021916908373ffffffffffffffffffffffffffffffffffffffff160217905550806002600101819055506001600260030160006101000a81548160ff0219169083151502179055503373ffffffffffffffffffffffffffffffffffffffff16817f6f9b27dc4dfe49233c48af9b5bdbe2ea5b111f0bd5180ee069e22c8f76fe324160405160405180910390a35062000165565b60008151905062000104816200014b565b92915050565b60006020828403121562000123576200012262000146565b5b60006200013384828501620000f3565b91505092915050565b6000819050919050565b600080fd5b62000156816200013c565b81146200016257600080fd5b50565b61130e80620001756000396000f3fe6080604052600436106100555760003560e01c80632e4176cf1461005a57806368c7201814610085578063753ec103146100b0578063b789fe2f146100dd578063f1c5fd8214610108578063fc36e15b14610133575b600080fd5b34801561006657600080fd5b5061006f61014f565b60405161007c9190610df3565b60405180910390f35b34801561009157600080fd5b5061009a610173565b6040516100a79190610f2b565b60405180910390f35b3480156100bc57600080fd5b506100c5610179565b6040516100d493929190610e0e565b60405180910390f35b3480156100e957600080fd5b506100f26101be565b6040516100ff9190610e45565b60405180910390f35b34801561011457600080fd5b5061011d61033c565b60405161012a9190610f09565b60405180910390f35b61014d60048036038101906101489190610a5d565b61054d565b005b60008054906101000a900473ffffffffffffffffffffffffffffffffffffffff1681565b60015481565b60028060000160009054906101000a900473ffffffffffffffffffffffffffffffffffffffff16908060010154908060030160009054906101000a900460ff16905083565b6060600060028001805480602002602001604051908101604052809291908181526020016000905b8282101561032f57838290600052602060002090600502016040518060a0016040529081600082015481526020016001820160009054906101000a900473ffffffffffffffffffffffffffffffffffffffff1673ffffffffffffffffffffffffffffffffffffffff1673ffffffffffffffffffffffffffffffffffffffff168152602001600282015481526020016003820160009054906101000a900460ff1615151515815260200160048201805461029e906110a7565b80601f01602080910402602001604051908101604052809291908181526020018280546102ca906110a7565b80156103175780601f106102ec57610100808354040283529160200191610317565b820191906000526020600020905b8154815290600101906020018083116102fa57829003601f168201915b505050505081525050815260200190600101906101e6565b5050505090508091505090565b610344610907565b600060026040518060800160405290816000820160009054906101000a900473ffffffffffffffffffffffffffffffffffffffff1673ffffffffffffffffffffffffffffffffffffffff1673ffffffffffffffffffffffffffffffffffffffff1681526020016001820154815260200160028201805480602002602001604051908101604052809291908181526020016000905b8282101561052157838290600052602060002090600502016040518060a0016040529081600082015481526020016001820160009054906101000a900473ffffffffffffffffffffffffffffffffffffffff1673ffffffffffffffffffffffffffffffffffffffff1673ffffffffffffffffffffffffffffffffffffffff168152602001600282015481526020016003820160009054906101000a900460ff16151515158152602001600482018054610490906110a7565b80601f01602080910402602001604051908101604052809291908181526020018280546104bc906110a7565b80156105095780601f106104de57610100808354040283529160200191610509565b820191906000526020600020905b8154815290600101906020018083116104ec57829003601f168201915b505050505081525050815260200190600101906103d8565b5050505081526020016003820160009054906101000a900460ff16151515158152505090508091505090565b3360005b600280018054905081101561066a578173ffffffffffffffffffffffffffffffffffffffff1660028001828154811061058d5761058c6111b1565b5b906000526020600020906005020160010160009054906101000a900473ffffffffffffffffffffffffffffffffffffffff1673ffffffffffffffffffffffffffffffffffffffff16141561065757600015156002800182815481106105f5576105f46111b1565b5b906000526020600020906005020160030160009054906101000a900460ff16151514610656576040517f08c379a000000000000000000000000000000000000000000000000000000000815260040161064d90610ee9565b60405180910390fd5b5b80806106629061110a565b915050610551565b50600260000160009054906101000a900473ffffffffffffffffffffffffffffffffffffffff1673ffffffffffffffffffffffffffffffffffffffff163373ffffffffffffffffffffffffffffffffffffffff1614156106ff576040517f08c379a00000000000000000000000000000000000000000000000000000000081526004016106f690610ea9565b60405180910390fd5b60011515600260030160009054906101000a900460ff16151514610758576040517f08c379a000000000000000000000000000000000000000000000000000000000815260040161074f90610ec9565b60405180910390fd5b670de0b6b3a76400003410156107a3576040517f08c379a000000000000000000000000000000000000000000000000000000000815260040161079a90610e89565b60405180910390fd5b60006040518060a0016040528060026001015481526020013373ffffffffffffffffffffffffffffffffffffffff168152602001348152602001600115158152602001848152509050600280018190806001815401808255809150506001900390600052602060002090600502016000909190919091506000820151816000015560208201518160010160006101000a81548173ffffffffffffffffffffffffffffffffffffffff021916908373ffffffffffffffffffffffffffffffffffffffff1602179055506040820151816002015560608201518160030160006101000a81548160ff02191690831515021790555060808201518160040190805190602001906108b192919061094a565b5050503373ffffffffffffffffffffffffffffffffffffffff167fddfb2feddc5d790102a7ace30f913d50a3aa3c144b2d798895b380433373e05a846040516108fa9190610e67565b60405180910390a2505050565b6040518060800160405280600073ffffffffffffffffffffffffffffffffffffffff16815260200160008019168152602001606081526020016000151581525090565b828054610956906110a7565b90600052602060002090601f01602090048101928261097857600085556109bf565b82601f1061099157805160ff19168380011785556109bf565b828001600101855582156109bf579182015b828111156109be5782518255916020019190600101906109a3565b5b5090506109cc91906109d0565b5090565b5b808211156109e95760008160009055506001016109d1565b5090565b6000610a006109fb84610f6b565b610f46565b905082815260208101848484011115610a1c57610a1b611214565b5b610a27848285611065565b509392505050565b600082601f830112610a4457610a4361120f565b5b8135610a548482602086016109ed565b91505092915050565b600060208284031215610a7357610a7261121e565b5b600082013567ffffffffffffffff811115610a9157610a90611219565b5b610a9d84828501610a2f565b91505092915050565b6000610ab28383610d5f565b905092915050565b610ac381611013565b82525050565b610ad281611013565b82525050565b6000610ae382610fac565b610aed8185610fcf565b935083602082028501610aff85610f9c565b8060005b85811015610b3b5784840389528151610b1c8582610aa6565b9450610b2783610fc2565b925060208a01995050600181019050610b03565b50829750879550505050505092915050565b6000610b5882610fac565b610b628185610fe0565b935083602082028501610b7485610f9c565b8060005b85811015610bb05784840389528151610b918582610aa6565b9450610b9c83610fc2565b925060208a01995050600181019050610b78565b50829750879550505050505092915050565b610bcb81611025565b82525050565b610bda81611025565b82525050565b610be981611031565b82525050565b610bf881611031565b82525050565b6000610c0982610fb7565b610c138185610ff1565b9350610c23818560208601611074565b610c2c81611223565b840191505092915050565b6000610c4282610fb7565b610c4c8185611002565b9350610c5c818560208601611074565b610c6581611223565b840191505092915050565b6000610c7d601883611002565b9150610c8882611234565b602082019050919050565b6000610ca0601a83611002565b9150610cab8261125d565b602082019050919050565b6000610cc3601783611002565b9150610cce82611286565b602082019050919050565b6000610ce6601383611002565b9150610cf1826112af565b602082019050919050565b6000608083016000830151610d146000860182610aba565b506020830151610d276020860182610be0565b5060408301518482036040860152610d3f8282610ad8565b9150506060830151610d546060860182610bc2565b508091505092915050565b600060a083016000830151610d776000860182610be0565b506020830151610d8a6020860182610aba565b506040830151610d9d6040860182610dd5565b506060830151610db06060860182610bc2565b5060808301518482036080860152610dc88282610bfe565b9150508091505092915050565b610dde8161105b565b82525050565b610ded8161105b565b82525050565b6000602082019050610e086000830184610ac9565b92915050565b6000606082019050610e236000830186610ac9565b610e306020830185610bef565b610e3d6040830184610bd1565b949350505050565b60006020820190508181036000830152610e5f8184610b4d565b905092915050565b60006020820190508181036000830152610e818184610c37565b905092915050565b60006020820190508181036000830152610ea281610c70565b9050919050565b60006020820190508181036000830152610ec281610c93565b9050919050565b60006020820190508181036000830152610ee281610cb6565b9050919050565b60006020820190508181036000830152610f0281610cd9565b9050919050565b60006020820190508181036000830152610f238184610cfc565b905092915050565b6000602082019050610f406000830184610de4565b92915050565b6000610f50610f61565b9050610f5c82826110d9565b919050565b6000604051905090565b600067ffffffffffffffff821115610f8657610f856111e0565b5b610f8f82611223565b9050602081019050919050565b6000819050602082019050919050565b600081519050919050565b600081519050919050565b6000602082019050919050565b600082825260208201905092915050565b600082825260208201905092915050565b600082825260208201905092915050565b600082825260208201905092915050565b600061101e8261103b565b9050919050565b60008115159050919050565b6000819050919050565b600073ffffffffffffffffffffffffffffffffffffffff82169050919050565b6000819050919050565b82818337600083830152505050565b60005b83811015611092578082015181840152602081019050611077565b838111156110a1576000848401525b50505050565b600060028204905060018216806110bf57607f821691505b602082108114156110d3576110d2611182565b5b50919050565b6110e282611223565b810181811067ffffffffffffffff82111715611101576111006111e0565b5b80604052505050565b60006111158261105b565b91507fffffffffffffffffffffffffffffffffffffffffffffffffffffffffffffffff82141561114857611147611153565b5b600182019050919050565b7f4e487b7100000000000000000000000000000000000000000000000000000000600052601160045260246000fd5b7f4e487b7100000000000000000000000000000000000000000000000000000000600052602260045260246000fd5b7f4e487b7100000000000000000000000000000000000000000000000000000000600052603260045260246000fd5b7f4e487b7100000000000000000000000000000000000000000000000000000000600052604160045260246000fd5b600080fd5b600080fd5b600080fd5b600080fd5b6000601f19601f8301169050919050565b7f6d6f7265207468616e2073656e642074686520746f6b656e0000000000000000600082015250565b7f6368616972706572736f6e206973206e6f7420616c7269677468000000000000600082015250565b7f63757272656e742070726f706f73616c20636c6f736564000000000000000000600082015250565b7f766f74657220616c726561647920766f7465640000000000000000000000000060008201525056fea264697066735822122031ba25c0c064583b7b83a8b436511127d050a3e71a7ec7c69d221d0e450b395364736f6c63430008070033a2646970667358221220d14f5b8c297c8e98365174dea2998102fce0f82092fbb2f43b3eaa6b7fbf7a2f64736f6c63430008070033",
			"opcodes": "PUSH1 0x80 PUSH1 0x40 MSTORE CALLVALUE DUP1 ISZERO PUSH2 0x10 JUMPI PUSH1 0x0 DUP1 REVERT JUMPDEST POP PUSH2 0x22C9 DUP1 PUSH2 0x20 PUSH1 0x0 CODECOPY PUSH1 0x0 RETURN INVALID PUSH1 0x80 PUSH1 0x40 MSTORE CALLVALUE DUP1 ISZERO PUSH3 0x11 JUMPI PUSH1 0x0 DUP1 REVERT JUMPDEST POP PUSH1 0x4 CALLDATASIZE LT PUSH3 0x52 JUMPI PUSH1 0x0 CALLDATALOAD PUSH1 0xE0 SHR DUP1 PUSH4 0x44D9D138 EQ PUSH3 0x57 JUMPI DUP1 PUSH4 0x5DF81330 EQ PUSH3 0x77 JUMPI DUP1 PUSH4 0x96B3EC47 EQ PUSH3 0xAD JUMPI DUP1 PUSH4 0xCACEA98B EQ PUSH3 0xCD JUMPI JUMPDEST PUSH1 0x0 DUP1 REVERT JUMPDEST PUSH3 0x75 PUSH1 0x4 DUP1 CALLDATASIZE SUB DUP2 ADD SWAP1 PUSH3 0x6F SWAP2 SWAP1 PUSH3 0x7A5 JUMP JUMPDEST PUSH3 0x103 JUMP JUMPDEST STOP JUMPDEST PUSH3 0x95 PUSH1 0x4 DUP1 CALLDATASIZE SUB DUP2 ADD SWAP1 PUSH3 0x8F SWAP2 SWAP1 PUSH3 0x828 JUMP JUMPDEST PUSH3 0x1A7 JUMP JUMPDEST PUSH1 0x40 MLOAD PUSH3 0xA4 SWAP2 SWAP1 PUSH3 0xAE1 JUMP JUMPDEST PUSH1 0x40 MLOAD DUP1 SWAP2 SUB SWAP1 RETURN JUMPDEST PUSH3 0xCB PUSH1 0x4 DUP1 CALLDATASIZE SUB DUP2 ADD SWAP1 PUSH3 0xC5 SWAP2 SWAP1 PUSH3 0x73F JUMP JUMPDEST PUSH3 0x1E7 JUMP JUMPDEST STOP JUMPDEST PUSH3 0xEB PUSH1 0x4 DUP1 CALLDATASIZE SUB DUP2 ADD SWAP1 PUSH3 0xE5 SWAP2 SWAP1 PUSH3 0x70D JUMP JUMPDEST PUSH3 0x25A JUMP JUMPDEST PUSH1 0x40 MLOAD PUSH3 0xFA SWAP2 SWAP1 PUSH3 0xB22 JUMP JUMPDEST PUSH1 0x40 MLOAD DUP1 SWAP2 SUB SWAP1 RETURN JUMPDEST PUSH1 0x0 DUP2 PUSH1 0x40 MLOAD PUSH3 0x114 SWAP1 PUSH3 0x2F2 JUMP JUMPDEST PUSH3 0x120 SWAP2 SWAP1 PUSH3 0xAC4 JUMP JUMPDEST PUSH1 0x40 MLOAD DUP1 SWAP2 SUB SWAP1 PUSH1 0x0 CREATE DUP1 ISZERO DUP1 ISZERO PUSH3 0x13D JUMPI RETURNDATASIZE PUSH1 0x0 DUP1 RETURNDATACOPY RETURNDATASIZE PUSH1 0x0 REVERT JUMPDEST POP SWAP1 POP PUSH1 0x0 DUP2 SWAP1 DUP1 PUSH1 0x1 DUP2 SLOAD ADD DUP1 DUP3 SSTORE DUP1 SWAP2 POP POP PUSH1 0x1 SWAP1 SUB SWAP1 PUSH1 0x0 MSTORE PUSH1 0x20 PUSH1 0x0 KECCAK256 ADD PUSH1 0x0 SWAP1 SWAP2 SWAP1 SWAP2 SWAP1 SWAP2 PUSH2 0x100 EXP DUP2 SLOAD DUP2 PUSH20 0xFFFFFFFFFFFFFFFFFFFFFFFFFFFFFFFFFFFFFFFF MUL NOT AND SWAP1 DUP4 PUSH20 0xFFFFFFFFFFFFFFFFFFFFFFFFFFFFFFFFFFFFFFFF AND MUL OR SWAP1 SSTORE POP POP POP JUMP JUMPDEST PUSH1 0x0 DUP2 DUP2 SLOAD DUP2 LT PUSH3 0x1B8 JUMPI PUSH1 0x0 DUP1 REVERT JUMPDEST SWAP1 PUSH1 0x0 MSTORE PUSH1 0x20 PUSH1 0x0 KECCAK256 ADD PUSH1 0x0 SWAP2 POP SLOAD SWAP1 PUSH2 0x100 EXP SWAP1 DIV PUSH20 0xFFFFFFFFFFFFFFFFFFFFFFFFFFFFFFFFFFFFFFFF AND DUP2 JUMP JUMPDEST DUP2 PUSH20 0xFFFFFFFFFFFFFFFFFFFFFFFFFFFFFFFFFFFFFFFF AND PUSH4 0xFC36E15B DUP3 PUSH1 0x40 MLOAD DUP3 PUSH4 0xFFFFFFFF AND PUSH1 0xE0 SHL DUP2 MSTORE PUSH1 0x4 ADD PUSH3 0x222 SWAP2 SWAP1 PUSH3 0xAFE JUMP JUMPDEST PUSH1 0x0 PUSH1 0x40 MLOAD DUP1 DUP4 SUB DUP2 PUSH1 0x0 DUP8 DUP1 EXTCODESIZE ISZERO DUP1 ISZERO PUSH3 0x23D JUMPI PUSH1 0x0 DUP1 REVERT JUMPDEST POP GAS CALL ISZERO DUP1 ISZERO PUSH3 0x252 JUMPI RETURNDATASIZE PUSH1 0x0 DUP1 RETURNDATACOPY RETURNDATASIZE PUSH1 0x0 REVERT JUMPDEST POP POP POP POP POP POP JUMP JUMPDEST PUSH3 0x264 PUSH3 0x300 JUMP JUMPDEST DUP2 PUSH20 0xFFFFFFFFFFFFFFFFFFFFFFFFFFFFFFFFFFFFFFFF AND PUSH4 0xF1C5FD82 PUSH1 0x40 MLOAD DUP2 PUSH4 0xFFFFFFFF AND PUSH1 0xE0 SHL DUP2 MSTORE PUSH1 0x4 ADD PUSH1 0x0 PUSH1 0x40 MLOAD DUP1 DUP4 SUB DUP2 DUP7 DUP1 EXTCODESIZE ISZERO DUP1 ISZERO PUSH3 0x2AB JUMPI PUSH1 0x0 DUP1 REVERT JUMPDEST POP GAS STATICCALL ISZERO DUP1 ISZERO PUSH3 0x2C0 JUMPI RETURNDATASIZE PUSH1 0x0 DUP1 RETURNDATACOPY RETURNDATASIZE PUSH1 0x0 REVERT JUMPDEST POP POP POP POP PUSH1 0x40 MLOAD RETURNDATASIZE PUSH1 0x0 DUP3 RETURNDATACOPY RETURNDATASIZE PUSH1 0x1F NOT PUSH1 0x1F DUP3 ADD AND DUP3 ADD DUP1 PUSH1 0x40 MSTORE POP DUP2 ADD SWAP1 PUSH3 0x2EB SWAP2 SWAP1 PUSH3 0x7D7 JUMP JUMPDEST SWAP1 POP SWAP2 SWAP1 POP JUMP JUMPDEST PUSH2 0x1483 DUP1 PUSH3 0xE11 DUP4 CODECOPY ADD SWAP1 JUMP JUMPDEST PUSH1 0x40 MLOAD DUP1 PUSH1 0x80 ADD PUSH1 0x40 MSTORE DUP1 PUSH1 0x0 PUSH20 0xFFFFFFFFFFFFFFFFFFFFFFFFFFFFFFFFFFFFFFFF AND DUP2 MSTORE PUSH1 0x20 ADD PUSH1 0x0 DUP1 NOT AND DUP2 MSTORE PUSH1 0x20 ADD PUSH1 0x60 DUP2 MSTORE PUSH1 0x20 ADD PUSH1 0x0 ISZERO ISZERO DUP2 MSTORE POP SWAP1 JUMP JUMPDEST PUSH1 0x0 PUSH3 0x35A PUSH3 0x354 DUP5 PUSH3 0xB6F JUMP JUMPDEST PUSH3 0xB46 JUMP JUMPDEST SWAP1 POP DUP1 DUP4 DUP3 MSTORE PUSH1 0x20 DUP3 ADD SWAP1 POP DUP3 DUP6 PUSH1 0x20 DUP7 MUL DUP3 ADD GT ISZERO PUSH3 0x380 JUMPI PUSH3 0x37F PUSH3 0xD83 JUMP JUMPDEST JUMPDEST PUSH1 0x0 JUMPDEST DUP6 DUP2 LT ISZERO PUSH3 0x3D5 JUMPI DUP2 MLOAD PUSH8 0xFFFFFFFFFFFFFFFF DUP2 GT ISZERO PUSH3 0x3AA JUMPI PUSH3 0x3A9 PUSH3 0xD74 JUMP JUMPDEST JUMPDEST DUP1 DUP7 ADD PUSH3 0x3B9 DUP10 DUP3 PUSH3 0x625 JUMP JUMPDEST DUP6 MSTORE PUSH1 0x20 DUP6 ADD SWAP5 POP PUSH1 0x20 DUP5 ADD SWAP4 POP POP POP PUSH1 0x1 DUP2 ADD SWAP1 POP PUSH3 0x383 JUMP JUMPDEST POP POP POP SWAP4 SWAP3 POP POP POP JUMP JUMPDEST PUSH1 0x0 PUSH3 0x3F6 PUSH3 0x3F0 DUP5 PUSH3 0xB9E JUMP JUMPDEST PUSH3 0xB46 JUMP JUMPDEST SWAP1 POP DUP3 DUP2 MSTORE PUSH1 0x20 DUP2 ADD DUP5 DUP5 DUP5 ADD GT ISZERO PUSH3 0x415 JUMPI PUSH3 0x414 PUSH3 0xD88 JUMP JUMPDEST JUMPDEST PUSH3 0x422 DUP5 DUP3 DUP6 PUSH3 0xCCA JUMP JUMPDEST POP SWAP4 SWAP3 POP POP POP JUMP JUMPDEST PUSH1 0x0 PUSH3 0x441 PUSH3 0x43B DUP5 PUSH3 0xB9E JUMP JUMPDEST PUSH3 0xB46 JUMP JUMPDEST SWAP1 POP DUP3 DUP2 MSTORE PUSH1 0x20 DUP2 ADD DUP5 DUP5 DUP5 ADD GT ISZERO PUSH3 0x460 JUMPI PUSH3 0x45F PUSH3 0xD88 JUMP JUMPDEST JUMPDEST PUSH3 0x46D DUP5 DUP3 DUP6 PUSH3 0xCD9 JUMP JUMPDEST POP SWAP4 SWAP3 POP POP POP JUMP JUMPDEST PUSH1 0x0 DUP2 CALLDATALOAD SWAP1 POP PUSH3 0x486 DUP2 PUSH3 0xDA8 JUMP JUMPDEST SWAP3 SWAP2 POP POP JUMP JUMPDEST PUSH1 0x0 DUP2 MLOAD SWAP1 POP PUSH3 0x49D DUP2 PUSH3 0xDA8 JUMP JUMPDEST SWAP3 SWAP2 POP POP JUMP JUMPDEST PUSH1 0x0 DUP3 PUSH1 0x1F DUP4 ADD SLT PUSH3 0x4BB JUMPI PUSH3 0x4BA PUSH3 0xD74 JUMP JUMPDEST JUMPDEST DUP2 MLOAD PUSH3 0x4CD DUP5 DUP3 PUSH1 0x20 DUP7 ADD PUSH3 0x343 JUMP JUMPDEST SWAP2 POP POP SWAP3 SWAP2 POP POP JUMP JUMPDEST PUSH1 0x0 DUP2 MLOAD SWAP1 POP PUSH3 0x4E7 DUP2 PUSH3 0xDC2 JUMP JUMPDEST SWAP3 SWAP2 POP POP JUMP JUMPDEST PUSH1 0x0 DUP2 CALLDATALOAD SWAP1 POP PUSH3 0x4FE DUP2 PUSH3 0xDDC JUMP JUMPDEST SWAP3 SWAP2 POP POP JUMP JUMPDEST PUSH1 0x0 DUP2 MLOAD SWAP1 POP PUSH3 0x515 DUP2 PUSH3 0xDDC JUMP JUMPDEST SWAP3 SWAP2 POP POP JUMP JUMPDEST PUSH1 0x0 DUP3 PUSH1 0x1F DUP4 ADD SLT PUSH3 0x533 JUMPI PUSH3 0x532 PUSH3 0xD74 JUMP JUMPDEST JUMPDEST DUP2 CALLDATALOAD PUSH3 0x545 DUP5 DUP3 PUSH1 0x20 DUP7 ADD PUSH3 0x3DF JUMP JUMPDEST SWAP2 POP POP SWAP3 SWAP2 POP POP JUMP JUMPDEST PUSH1 0x0 DUP3 PUSH1 0x1F DUP4 ADD SLT PUSH3 0x566 JUMPI PUSH3 0x565 PUSH3 0xD74 JUMP JUMPDEST JUMPDEST DUP2 MLOAD PUSH3 0x578 DUP5 DUP3 PUSH1 0x20 DUP7 ADD PUSH3 0x42A JUMP JUMPDEST SWAP2 POP POP SWAP3 SWAP2 POP POP JUMP JUMPDEST PUSH1 0x0 PUSH1 0x80 DUP3 DUP5 SUB SLT ISZERO PUSH3 0x59A JUMPI PUSH3 0x599 PUSH3 0xD79 JUMP JUMPDEST JUMPDEST PUSH3 0x5A6 PUSH1 0x80 PUSH3 0xB46 JUMP JUMPDEST SWAP1 POP PUSH1 0x0 PUSH3 0x5B8 DUP5 DUP3 DUP6 ADD PUSH3 0x48C JUMP JUMPDEST PUSH1 0x0 DUP4 ADD MSTORE POP PUSH1 0x20 PUSH3 0x5CE DUP5 DUP3 DUP6 ADD PUSH3 0x504 JUMP JUMPDEST PUSH1 0x20 DUP4 ADD MSTORE POP PUSH1 0x40 DUP3 ADD MLOAD PUSH8 0xFFFFFFFFFFFFFFFF DUP2 GT ISZERO PUSH3 0x5F5 JUMPI PUSH3 0x5F4 PUSH3 0xD7E JUMP JUMPDEST JUMPDEST PUSH3 0x603 DUP5 DUP3 DUP6 ADD PUSH3 0x4A3 JUMP JUMPDEST PUSH1 0x40 DUP4 ADD MSTORE POP PUSH1 0x60 PUSH3 0x619 DUP5 DUP3 DUP6 ADD PUSH3 0x4D6 JUMP JUMPDEST PUSH1 0x60 DUP4 ADD MSTORE POP SWAP3 SWAP2 POP POP JUMP JUMPDEST PUSH1 0x0 PUSH1 0xA0 DUP3 DUP5 SUB SLT ISZERO PUSH3 0x63E JUMPI PUSH3 0x63D PUSH3 0xD79 JUMP JUMPDEST JUMPDEST PUSH3 0x64A PUSH1 0xA0 PUSH3 0xB46 JUMP JUMPDEST SWAP1 POP PUSH1 0x0 PUSH3 0x65C DUP5 DUP3 DUP6 ADD PUSH3 0x504 JUMP JUMPDEST PUSH1 0x0 DUP4 ADD MSTORE POP PUSH1 0x20 PUSH3 0x672 DUP5 DUP3 DUP6 ADD PUSH3 0x48C JUMP JUMPDEST PUSH1 0x20 DUP4 ADD MSTORE POP PUSH1 0x40 PUSH3 0x688 DUP5 DUP3 DUP6 ADD PUSH3 0x6F6 JUMP JUMPDEST PUSH1 0x40 DUP4 ADD MSTORE POP PUSH1 0x60 PUSH3 0x69E DUP5 DUP3 DUP6 ADD PUSH3 0x4D6 JUMP JUMPDEST PUSH1 0x60 DUP4 ADD MSTORE POP PUSH1 0x80 DUP3 ADD MLOAD PUSH8 0xFFFFFFFFFFFFFFFF DUP2 GT ISZERO PUSH3 0x6C5 JUMPI PUSH3 0x6C4 PUSH3 0xD7E JUMP JUMPDEST JUMPDEST PUSH3 0x6D3 DUP5 DUP3 DUP6 ADD PUSH3 0x54E JUMP JUMPDEST PUSH1 0x80 DUP4 ADD MSTORE POP SWAP3 SWAP2 POP POP JUMP JUMPDEST PUSH1 0x0 DUP2 CALLDATALOAD SWAP1 POP PUSH3 0x6F0 DUP2 PUSH3 0xDF6 JUMP JUMPDEST SWAP3 SWAP2 POP POP JUMP JUMPDEST PUSH1 0x0 DUP2 MLOAD SWAP1 POP PUSH3 0x707 DUP2 PUSH3 0xDF6 JUMP JUMPDEST SWAP3 SWAP2 POP POP JUMP JUMPDEST PUSH1 0x0 PUSH1 0x20 DUP3 DUP5 SUB SLT ISZERO PUSH3 0x726 JUMPI PUSH3 0x725 PUSH3 0xD92 JUMP JUMPDEST JUMPDEST PUSH1 0x0 PUSH3 0x736 DUP5 DUP3 DUP6 ADD PUSH3 0x475 JUMP JUMPDEST SWAP2 POP POP SWAP3 SWAP2 POP POP JUMP JUMPDEST PUSH1 0x0 DUP1 PUSH1 0x40 DUP4 DUP6 SUB SLT ISZERO PUSH3 0x759 JUMPI PUSH3 0x758 PUSH3 0xD92 JUMP JUMPDEST JUMPDEST PUSH1 0x0 PUSH3 0x769 DUP6 DUP3 DUP7 ADD PUSH3 0x475 JUMP JUMPDEST SWAP3 POP POP PUSH1 0x20 DUP4 ADD CALLDATALOAD PUSH8 0xFFFFFFFFFFFFFFFF DUP2 GT ISZERO PUSH3 0x78D JUMPI PUSH3 0x78C PUSH3 0xD8D JUMP JUMPDEST JUMPDEST PUSH3 0x79B DUP6 DUP3 DUP7 ADD PUSH3 0x51B JUMP JUMPDEST SWAP2 POP POP SWAP3 POP SWAP3 SWAP1 POP JUMP JUMPDEST PUSH1 0x0 PUSH1 0x20 DUP3 DUP5 SUB SLT ISZERO PUSH3 0x7BE JUMPI PUSH3 0x7BD PUSH3 0xD92 JUMP JUMPDEST JUMPDEST PUSH1 0x0 PUSH3 0x7CE DUP5 DUP3 DUP6 ADD PUSH3 0x4ED JUMP JUMPDEST SWAP2 POP POP SWAP3 SWAP2 POP POP JUMP JUMPDEST PUSH1 0x0 PUSH1 0x20 DUP3 DUP5 SUB SLT ISZERO PUSH3 0x7F0 JUMPI PUSH3 0x7EF PUSH3 0xD92 JUMP JUMPDEST JUMPDEST PUSH1 0x0 DUP3 ADD MLOAD PUSH8 0xFFFFFFFFFFFFFFFF DUP2 GT ISZERO PUSH3 0x811 JUMPI PUSH3 0x810 PUSH3 0xD8D JUMP JUMPDEST JUMPDEST PUSH3 0x81F DUP5 DUP3 DUP6 ADD PUSH3 0x581 JUMP JUMPDEST SWAP2 POP POP SWAP3 SWAP2 POP POP JUMP JUMPDEST PUSH1 0x0 PUSH1 0x20 DUP3 DUP5 SUB SLT ISZERO PUSH3 0x841 JUMPI PUSH3 0x840 PUSH3 0xD92 JUMP JUMPDEST JUMPDEST PUSH1 0x0 PUSH3 0x851 DUP5 DUP3 DUP6 ADD PUSH3 0x6DF JUMP JUMPDEST SWAP2 POP POP SWAP3 SWAP2 POP POP JUMP JUMPDEST PUSH1 0x0 PUSH3 0x868 DUP4 DUP4 PUSH3 0xA33 JUMP JUMPDEST SWAP1 POP SWAP3 SWAP2 POP POP JUMP JUMPDEST PUSH3 0x87B DUP2 PUSH3 0xC3A JUMP JUMPDEST DUP3 MSTORE POP POP JUMP JUMPDEST PUSH1 0x0 PUSH3 0x88E DUP3 PUSH3 0xBE4 JUMP JUMPDEST PUSH3 0x89A DUP2 DUP6 PUSH3 0xC07 JUMP JUMPDEST SWAP4 POP DUP4 PUSH1 0x20 DUP3 MUL DUP6 ADD PUSH3 0x8AE DUP6 PUSH3 0xBD4 JUMP JUMPDEST DUP1 PUSH1 0x0 JUMPDEST DUP6 DUP2 LT ISZERO PUSH3 0x8F0 JUMPI DUP5 DUP5 SUB DUP10 MSTORE DUP2 MLOAD PUSH3 0x8CE DUP6 DUP3 PUSH3 0x85A JUMP JUMPDEST SWAP5 POP PUSH3 0x8DB DUP4 PUSH3 0xBFA JUMP JUMPDEST SWAP3 POP PUSH1 0x20 DUP11 ADD SWAP10 POP POP PUSH1 0x1 DUP2 ADD SWAP1 POP PUSH3 0x8B2 JUMP JUMPDEST POP DUP3 SWAP8 POP DUP8 SWAP6 POP POP POP POP POP POP SWAP3 SWAP2 POP POP JUMP JUMPDEST PUSH3 0x90D DUP2 PUSH3 0xC4E JUMP JUMPDEST DUP3 MSTORE POP POP JUMP JUMPDEST PUSH3 0x91E DUP2 PUSH3 0xC5A JUMP JUMPDEST DUP3 MSTORE POP POP JUMP JUMPDEST PUSH3 0x92F DUP2 PUSH3 0xC5A JUMP JUMPDEST DUP3 MSTORE POP POP JUMP JUMPDEST PUSH3 0x940 DUP2 PUSH3 0xC8E JUMP JUMPDEST DUP3 MSTORE POP POP JUMP JUMPDEST PUSH1 0x0 PUSH3 0x953 DUP3 PUSH3 0xBEF JUMP JUMPDEST PUSH3 0x95F DUP2 DUP6 PUSH3 0xC18 JUMP JUMPDEST SWAP4 POP PUSH3 0x971 DUP2 DUP6 PUSH1 0x20 DUP7 ADD PUSH3 0xCD9 JUMP JUMPDEST PUSH3 0x97C DUP2 PUSH3 0xD97 JUMP JUMPDEST DUP5 ADD SWAP2 POP POP SWAP3 SWAP2 POP POP JUMP JUMPDEST PUSH1 0x0 PUSH3 0x994 DUP3 PUSH3 0xBEF JUMP JUMPDEST PUSH3 0x9A0 DUP2 DUP6 PUSH3 0xC29 JUMP JUMPDEST SWAP4 POP PUSH3 0x9B2 DUP2 DUP6 PUSH1 0x20 DUP7 ADD PUSH3 0xCD9 JUMP JUMPDEST PUSH3 0x9BD DUP2 PUSH3 0xD97 JUMP JUMPDEST DUP5 ADD SWAP2 POP POP SWAP3 SWAP2 POP POP JUMP JUMPDEST PUSH1 0x0 PUSH1 0x80 DUP4 ADD PUSH1 0x0 DUP4 ADD MLOAD PUSH3 0x9E2 PUSH1 0x0 DUP7 ADD DUP3 PUSH3 0x870 JUMP JUMPDEST POP PUSH1 0x20 DUP4 ADD MLOAD PUSH3 0x9F7 PUSH1 0x20 DUP7 ADD DUP3 PUSH3 0x913 JUMP JUMPDEST POP PUSH1 0x40 DUP4 ADD MLOAD DUP5 DUP3 SUB PUSH1 0x40 DUP7 ADD MSTORE PUSH3 0xA11 DUP3 DUP3 PUSH3 0x881 JUMP JUMPDEST SWAP2 POP POP PUSH1 0x60 DUP4 ADD MLOAD PUSH3 0xA28 PUSH1 0x60 DUP7 ADD DUP3 PUSH3 0x902 JUMP JUMPDEST POP DUP1 SWAP2 POP POP SWAP3 SWAP2 POP POP JUMP JUMPDEST PUSH1 0x0 PUSH1 0xA0 DUP4 ADD PUSH1 0x0 DUP4 ADD MLOAD PUSH3 0xA4D PUSH1 0x0 DUP7 ADD DUP3 PUSH3 0x913 JUMP JUMPDEST POP PUSH1 0x20 DUP4 ADD MLOAD PUSH3 0xA62 PUSH1 0x20 DUP7 ADD DUP3 PUSH3 0x870 JUMP JUMPDEST POP PUSH1 0x40 DUP4 ADD MLOAD PUSH3 0xA77 PUSH1 0x40 DUP7 ADD DUP3 PUSH3 0xAB3 JUMP JUMPDEST POP PUSH1 0x60 DUP4 ADD MLOAD PUSH3 0xA8C PUSH1 0x60 DUP7 ADD DUP3 PUSH3 0x902 JUMP JUMPDEST POP PUSH1 0x80 DUP4 ADD MLOAD DUP5 DUP3 SUB PUSH1 0x80 DUP7 ADD MSTORE PUSH3 0xAA6 DUP3 DUP3 PUSH3 0x946 JUMP JUMPDEST SWAP2 POP POP DUP1 SWAP2 POP POP SWAP3 SWAP2 POP POP JUMP JUMPDEST PUSH3 0xABE DUP2 PUSH3 0xC84 JUMP JUMPDEST DUP3 MSTORE POP POP JUMP JUMPDEST PUSH1 0x0 PUSH1 0x20 DUP3 ADD SWAP1 POP PUSH3 0xADB PUSH1 0x0 DUP4 ADD DUP5 PUSH3 0x924 JUMP JUMPDEST SWAP3 SWAP2 POP POP JUMP JUMPDEST PUSH1 0x0 PUSH1 0x20 DUP3 ADD SWAP1 POP PUSH3 0xAF8 PUSH1 0x0 DUP4 ADD DUP5 PUSH3 0x935 JUMP JUMPDEST SWAP3 SWAP2 POP POP JUMP JUMPDEST PUSH1 0x0 PUSH1 0x20 DUP3 ADD SWAP1 POP DUP2 DUP2 SUB PUSH1 0x0 DUP4 ADD MSTORE PUSH3 0xB1A DUP2 DUP5 PUSH3 0x987 JUMP JUMPDEST SWAP1 POP SWAP3 SWAP2 POP POP JUMP JUMPDEST PUSH1 0x0 PUSH1 0x20 DUP3 ADD SWAP1 POP DUP2 DUP2 SUB PUSH1 0x0 DUP4 ADD MSTORE PUSH3 0xB3E DUP2 DUP5 PUSH3 0x9C8 JUMP JUMPDEST SWAP1 POP SWAP3 SWAP2 POP POP JUMP JUMPDEST PUSH1 0x0 PUSH3 0xB52 PUSH3 0xB65 JUMP JUMPDEST SWAP1 POP PUSH3 0xB60 DUP3 DUP3 PUSH3 0xD0F JUMP JUMPDEST SWAP2 SWAP1 POP JUMP JUMPDEST PUSH1 0x0 PUSH1 0x40 MLOAD SWAP1 POP SWAP1 JUMP JUMPDEST PUSH1 0x0 PUSH8 0xFFFFFFFFFFFFFFFF DUP3 GT ISZERO PUSH3 0xB8D JUMPI PUSH3 0xB8C PUSH3 0xD45 JUMP JUMPDEST JUMPDEST PUSH1 0x20 DUP3 MUL SWAP1 POP PUSH1 0x20 DUP2 ADD SWAP1 POP SWAP2 SWAP1 POP JUMP JUMPDEST PUSH1 0x0 PUSH8 0xFFFFFFFFFFFFFFFF DUP3 GT ISZERO PUSH3 0xBBC JUMPI PUSH3 0xBBB PUSH3 0xD45 JUMP JUMPDEST JUMPDEST PUSH3 0xBC7 DUP3 PUSH3 0xD97 JUMP JUMPDEST SWAP1 POP PUSH1 0x20 DUP2 ADD SWAP1 POP SWAP2 SWAP1 POP JUMP JUMPDEST PUSH1 0x0 DUP2 SWAP1 POP PUSH1 0x20 DUP3 ADD SWAP1 POP SWAP2 SWAP1 POP JUMP JUMPDEST PUSH1 0x0 DUP2 MLOAD SWAP1 POP SWAP2 SWAP1 POP JUMP JUMPDEST PUSH1 0x0 DUP2 MLOAD SWAP1 POP SWAP2 SWAP1 POP JUMP JUMPDEST PUSH1 0x0 PUSH1 0x20 DUP3 ADD SWAP1 POP SWAP2 SWAP1 POP JUMP JUMPDEST PUSH1 0x0 DUP3 DUP3 MSTORE PUSH1 0x20 DUP3 ADD SWAP1 POP SWAP3 SWAP2 POP POP JUMP JUMPDEST PUSH1 0x0 DUP3 DUP3 MSTORE PUSH1 0x20 DUP3 ADD SWAP1 POP SWAP3 SWAP2 POP POP JUMP JUMPDEST PUSH1 0x0 DUP3 DUP3 MSTORE PUSH1 0x20 DUP3 ADD SWAP1 POP SWAP3 SWAP2 POP POP JUMP JUMPDEST PUSH1 0x0 PUSH3 0xC47 DUP3 PUSH3 0xC64 JUMP JUMPDEST SWAP1 POP SWAP2 SWAP1 POP JUMP JUMPDEST PUSH1 0x0 DUP2 ISZERO ISZERO SWAP1 POP SWAP2 SWAP1 POP JUMP JUMPDEST PUSH1 0x0 DUP2 SWAP1 POP SWAP2 SWAP1 POP JUMP JUMPDEST PUSH1 0x0 PUSH20 0xFFFFFFFFFFFFFFFFFFFFFFFFFFFFFFFFFFFFFFFF DUP3 AND SWAP1 POP SWAP2 SWAP1 POP JUMP JUMPDEST PUSH1 0x0 DUP2 SWAP1 POP SWAP2 SWAP1 POP JUMP JUMPDEST PUSH1 0x0 PUSH3 0xC9B DUP3 PUSH3 0xCA2 JUMP JUMPDEST SWAP1 POP SWAP2 SWAP1 POP JUMP JUMPDEST PUSH1 0x0 PUSH3 0xCAF DUP3 PUSH3 0xCB6 JUMP JUMPDEST SWAP1 POP SWAP2 SWAP1 POP JUMP JUMPDEST PUSH1 0x0 PUSH3 0xCC3 DUP3 PUSH3 0xC64 JUMP JUMPDEST SWAP1 POP SWAP2 SWAP1 POP JUMP JUMPDEST DUP3 DUP2 DUP4 CALLDATACOPY PUSH1 0x0 DUP4 DUP4 ADD MSTORE POP POP POP JUMP JUMPDEST PUSH1 0x0 JUMPDEST DUP4 DUP2 LT ISZERO PUSH3 0xCF9 JUMPI DUP1 DUP3 ADD MLOAD DUP2 DUP5 ADD MSTORE PUSH1 0x20 DUP2 ADD SWAP1 POP PUSH3 0xCDC JUMP JUMPDEST DUP4 DUP2 GT ISZERO PUSH3 0xD09 JUMPI PUSH1 0x0 DUP5 DUP5 ADD MSTORE JUMPDEST POP POP POP POP JUMP JUMPDEST PUSH3 0xD1A DUP3 PUSH3 0xD97 JUMP JUMPDEST DUP2 ADD DUP2 DUP2 LT PUSH8 0xFFFFFFFFFFFFFFFF DUP3 GT OR ISZERO PUSH3 0xD3C JUMPI PUSH3 0xD3B PUSH3 0xD45 JUMP JUMPDEST JUMPDEST DUP1 PUSH1 0x40 MSTORE POP POP POP JUMP JUMPDEST PUSH32 0x4E487B7100000000000000000000000000000000000000000000000000000000 PUSH1 0x0 MSTORE PUSH1 0x41 PUSH1 0x4 MSTORE PUSH1 0x24 PUSH1 0x0 REVERT JUMPDEST PUSH1 0x0 DUP1 REVERT JUMPDEST PUSH1 0x0 DUP1 REVERT JUMPDEST PUSH1 0x0 DUP1 REVERT JUMPDEST PUSH1 0x0 DUP1 REVERT JUMPDEST PUSH1 0x0 DUP1 REVERT JUMPDEST PUSH1 0x0 DUP1 REVERT JUMPDEST PUSH1 0x0 DUP1 REVERT JUMPDEST PUSH1 0x0 PUSH1 0x1F NOT PUSH1 0x1F DUP4 ADD AND SWAP1 POP SWAP2 SWAP1 POP JUMP JUMPDEST PUSH3 0xDB3 DUP2 PUSH3 0xC3A JUMP JUMPDEST DUP2 EQ PUSH3 0xDBF JUMPI PUSH1 0x0 DUP1 REVERT JUMPDEST POP JUMP JUMPDEST PUSH3 0xDCD DUP2 PUSH3 0xC4E JUMP JUMPDEST DUP2 EQ PUSH3 0xDD9 JUMPI PUSH1 0x0 DUP1 REVERT JUMPDEST POP JUMP JUMPDEST PUSH3 0xDE7 DUP2 PUSH3 0xC5A JUMP JUMPDEST DUP2 EQ PUSH3 0xDF3 JUMPI PUSH1 0x0 DUP1 REVERT JUMPDEST POP JUMP JUMPDEST PUSH3 0xE01 DUP2 PUSH3 0xC84 JUMP JUMPDEST DUP2 EQ PUSH3 0xE0D JUMPI PUSH1 0x0 DUP1 REVERT JUMPDEST POP JUMP INVALID PUSH1 0x80 PUSH1 0x40 MSTORE PUSH1 0x0 PUSH1 0x1 SSTORE CALLVALUE DUP1 ISZERO PUSH3 0x16 JUMPI PUSH1 0x0 DUP1 REVERT JUMPDEST POP PUSH1 0x40 MLOAD PUSH3 0x1483 CODESIZE SUB DUP1 PUSH3 0x1483 DUP4 CODECOPY DUP2 DUP2 ADD PUSH1 0x40 MSTORE DUP2 ADD SWAP1 PUSH3 0x3C SWAP2 SWAP1 PUSH3 0x10A JUMP JUMPDEST CALLER PUSH1 0x2 PUSH1 0x0 ADD PUSH1 0x0 PUSH2 0x100 EXP DUP2 SLOAD DUP2 PUSH20 0xFFFFFFFFFFFFFFFFFFFFFFFFFFFFFFFFFFFFFFFF MUL NOT AND SWAP1 DUP4 PUSH20 0xFFFFFFFFFFFFFFFFFFFFFFFFFFFFFFFFFFFFFFFF AND MUL OR SWAP1 SSTORE POP DUP1 PUSH1 0x2 PUSH1 0x1 ADD DUP2 SWAP1 SSTORE POP PUSH1 0x1 PUSH1 0x2 PUSH1 0x3 ADD PUSH1 0x0 PUSH2 0x100 EXP DUP2 SLOAD DUP2 PUSH1 0xFF MUL NOT AND SWAP1 DUP4 ISZERO ISZERO MUL OR SWAP1 SSTORE POP CALLER PUSH20 0xFFFFFFFFFFFFFFFFFFFFFFFFFFFFFFFFFFFFFFFF AND DUP2 PUSH32 0x6F9B27DC4DFE49233C48AF9B5BDBE2EA5B111F0BD5180EE069E22C8F76FE3241 PUSH1 0x40 MLOAD PUSH1 0x40 MLOAD DUP1 SWAP2 SUB SWAP1 LOG3 POP PUSH3 0x165 JUMP JUMPDEST PUSH1 0x0 DUP2 MLOAD SWAP1 POP PUSH3 0x104 DUP2 PUSH3 0x14B JUMP JUMPDEST SWAP3 SWAP2 POP POP JUMP JUMPDEST PUSH1 0x0 PUSH1 0x20 DUP3 DUP5 SUB SLT ISZERO PUSH3 0x123 JUMPI PUSH3 0x122 PUSH3 0x146 JUMP JUMPDEST JUMPDEST PUSH1 0x0 PUSH3 0x133 DUP5 DUP3 DUP6 ADD PUSH3 0xF3 JUMP JUMPDEST SWAP2 POP POP SWAP3 SWAP2 POP POP JUMP JUMPDEST PUSH1 0x0 DUP2 SWAP1 POP SWAP2 SWAP1 POP JUMP JUMPDEST PUSH1 0x0 DUP1 REVERT JUMPDEST PUSH3 0x156 DUP2 PUSH3 0x13C JUMP JUMPDEST DUP2 EQ PUSH3 0x162 JUMPI PUSH1 0x0 DUP1 REVERT JUMPDEST POP JUMP JUMPDEST PUSH2 0x130E DUP1 PUSH3 0x175 PUSH1 0x0 CODECOPY PUSH1 0x0 RETURN INVALID PUSH1 0x80 PUSH1 0x40 MSTORE PUSH1 0x4 CALLDATASIZE LT PUSH2 0x55 JUMPI PUSH1 0x0 CALLDATALOAD PUSH1 0xE0 SHR DUP1 PUSH4 0x2E4176CF EQ PUSH2 0x5A JUMPI DUP1 PUSH4 0x68C72018 EQ PUSH2 0x85 JUMPI DUP1 PUSH4 0x753EC103 EQ PUSH2 0xB0 JUMPI DUP1 PUSH4 0xB789FE2F EQ PUSH2 0xDD JUMPI DUP1 PUSH4 0xF1C5FD82 EQ PUSH2 0x108 JUMPI DUP1 PUSH4 0xFC36E15B EQ PUSH2 0x133 JUMPI JUMPDEST PUSH1 0x0 DUP1 REVERT JUMPDEST CALLVALUE DUP1 ISZERO PUSH2 0x66 JUMPI PUSH1 0x0 DUP1 REVERT JUMPDEST POP PUSH2 0x6F PUSH2 0x14F JUMP JUMPDEST PUSH1 0x40 MLOAD PUSH2 0x7C SWAP2 SWAP1 PUSH2 0xDF3 JUMP JUMPDEST PUSH1 0x40 MLOAD DUP1 SWAP2 SUB SWAP1 RETURN JUMPDEST CALLVALUE DUP1 ISZERO PUSH2 0x91 JUMPI PUSH1 0x0 DUP1 REVERT JUMPDEST POP PUSH2 0x9A PUSH2 0x173 JUMP JUMPDEST PUSH1 0x40 MLOAD PUSH2 0xA7 SWAP2 SWAP1 PUSH2 0xF2B JUMP JUMPDEST PUSH1 0x40 MLOAD DUP1 SWAP2 SUB SWAP1 RETURN JUMPDEST CALLVALUE DUP1 ISZERO PUSH2 0xBC JUMPI PUSH1 0x0 DUP1 REVERT JUMPDEST POP PUSH2 0xC5 PUSH2 0x179 JUMP JUMPDEST PUSH1 0x40 MLOAD PUSH2 0xD4 SWAP4 SWAP3 SWAP2 SWAP1 PUSH2 0xE0E JUMP JUMPDEST PUSH1 0x40 MLOAD DUP1 SWAP2 SUB SWAP1 RETURN JUMPDEST CALLVALUE DUP1 ISZERO PUSH2 0xE9 JUMPI PUSH1 0x0 DUP1 REVERT JUMPDEST POP PUSH2 0xF2 PUSH2 0x1BE JUMP JUMPDEST PUSH1 0x40 MLOAD PUSH2 0xFF SWAP2 SWAP1 PUSH2 0xE45 JUMP JUMPDEST PUSH1 0x40 MLOAD DUP1 SWAP2 SUB SWAP1 RETURN JUMPDEST CALLVALUE DUP1 ISZERO PUSH2 0x114 JUMPI PUSH1 0x0 DUP1 REVERT JUMPDEST POP PUSH2 0x11D PUSH2 0x33C JUMP JUMPDEST PUSH1 0x40 MLOAD PUSH2 0x12A SWAP2 SWAP1 PUSH2 0xF09 JUMP JUMPDEST PUSH1 0x40 MLOAD DUP1 SWAP2 SUB SWAP1 RETURN JUMPDEST PUSH2 0x14D PUSH1 0x4 DUP1 CALLDATASIZE SUB DUP2 ADD SWAP1 PUSH2 0x148 SWAP2 SWAP1 PUSH2 0xA5D JUMP JUMPDEST PUSH2 0x54D JUMP JUMPDEST STOP JUMPDEST PUSH1 0x0 DUP1 SLOAD SWAP1 PUSH2 0x100 EXP SWAP1 DIV PUSH20 0xFFFFFFFFFFFFFFFFFFFFFFFFFFFFFFFFFFFFFFFF AND DUP2 JUMP JUMPDEST PUSH1 0x1 SLOAD DUP2 JUMP JUMPDEST PUSH1 0x2 DUP1 PUSH1 0x0 ADD PUSH1 0x0 SWAP1 SLOAD SWAP1 PUSH2 0x100 EXP SWAP1 DIV PUSH20 0xFFFFFFFFFFFFFFFFFFFFFFFFFFFFFFFFFFFFFFFF AND SWAP1 DUP1 PUSH1 0x1 ADD SLOAD SWAP1 DUP1 PUSH1 0x3 ADD PUSH1 0x0 SWAP1 SLOAD SWAP1 PUSH2 0x100 EXP SWAP1 DIV PUSH1 0xFF AND SWAP1 POP DUP4 JUMP JUMPDEST PUSH1 0x60 PUSH1 0x0 PUSH1 0x2 DUP1 ADD DUP1 SLOAD DUP1 PUSH1 0x20 MUL PUSH1 0x20 ADD PUSH1 0x40 MLOAD SWAP1 DUP2 ADD PUSH1 0x40 MSTORE DUP1 SWAP3 SWAP2 SWAP1 DUP2 DUP2 MSTORE PUSH1 0x20 ADD PUSH1 0x0 SWAP1 JUMPDEST DUP3 DUP3 LT ISZERO PUSH2 0x32F JUMPI DUP4 DUP3 SWAP1 PUSH1 0x0 MSTORE PUSH1 0x20 PUSH1 0x0 KECCAK256 SWAP1 PUSH1 0x5 MUL ADD PUSH1 0x40 MLOAD DUP1 PUSH1 0xA0 ADD PUSH1 0x40 MSTORE SWAP1 DUP2 PUSH1 0x0 DUP3 ADD SLOAD DUP2 MSTORE PUSH1 0x20 ADD PUSH1 0x1 DUP3 ADD PUSH1 0x0 SWAP1 SLOAD SWAP1 PUSH2 0x100 EXP SWAP1 DIV PUSH20 0xFFFFFFFFFFFFFFFFFFFFFFFFFFFFFFFFFFFFFFFF AND PUSH20 0xFFFFFFFFFFFFFFFFFFFFFFFFFFFFFFFFFFFFFFFF AND PUSH20 0xFFFFFFFFFFFFFFFFFFFFFFFFFFFFFFFFFFFFFFFF AND DUP2 MSTORE PUSH1 0x20 ADD PUSH1 0x2 DUP3 ADD SLOAD DUP2 MSTORE PUSH1 0x20 ADD PUSH1 0x3 DUP3 ADD PUSH1 0x0 SWAP1 SLOAD SWAP1 PUSH2 0x100 EXP SWAP1 DIV PUSH1 0xFF AND ISZERO ISZERO ISZERO ISZERO DUP2 MSTORE PUSH1 0x20 ADD PUSH1 0x4 DUP3 ADD DUP1 SLOAD PUSH2 0x29E SWAP1 PUSH2 0x10A7 JUMP JUMPDEST DUP1 PUSH1 0x1F ADD PUSH1 0x20 DUP1 SWAP2 DIV MUL PUSH1 0x20 ADD PUSH1 0x40 MLOAD SWAP1 DUP2 ADD PUSH1 0x40 MSTORE DUP1 SWAP3 SWAP2 SWAP1 DUP2 DUP2 MSTORE PUSH1 0x20 ADD DUP3 DUP1 SLOAD PUSH2 0x2CA SWAP1 PUSH2 0x10A7 JUMP JUMPDEST DUP1 ISZERO PUSH2 0x317 JUMPI DUP1 PUSH1 0x1F LT PUSH2 0x2EC JUMPI PUSH2 0x100 DUP1 DUP4 SLOAD DIV MUL DUP4 MSTORE SWAP2 PUSH1 0x20 ADD SWAP2 PUSH2 0x317 JUMP JUMPDEST DUP3 ADD SWAP2 SWAP1 PUSH1 0x0 MSTORE PUSH1 0x20 PUSH1 0x0 KECCAK256 SWAP1 JUMPDEST DUP2 SLOAD DUP2 MSTORE SWAP1 PUSH1 0x1 ADD SWAP1 PUSH1 0x20 ADD DUP1 DUP4 GT PUSH2 0x2FA JUMPI DUP3 SWAP1 SUB PUSH1 0x1F AND DUP3 ADD SWAP2 JUMPDEST POP POP POP POP POP DUP2 MSTORE POP POP DUP2 MSTORE PUSH1 0x20 ADD SWAP1 PUSH1 0x1 ADD SWAP1 PUSH2 0x1E6 JUMP JUMPDEST POP POP POP POP SWAP1 POP DUP1 SWAP2 POP POP SWAP1 JUMP JUMPDEST PUSH2 0x344 PUSH2 0x907 JUMP JUMPDEST PUSH1 0x0 PUSH1 0x2 PUSH1 0x40 MLOAD DUP1 PUSH1 0x80 ADD PUSH1 0x40 MSTORE SWAP1 DUP2 PUSH1 0x0 DUP3 ADD PUSH1 0x0 SWAP1 SLOAD SWAP1 PUSH2 0x100 EXP SWAP1 DIV PUSH20 0xFFFFFFFFFFFFFFFFFFFFFFFFFFFFFFFFFFFFFFFF AND PUSH20 0xFFFFFFFFFFFFFFFFFFFFFFFFFFFFFFFFFFFFFFFF AND PUSH20 0xFFFFFFFFFFFFFFFFFFFFFFFFFFFFFFFFFFFFFFFF AND DUP2 MSTORE PUSH1 0x20 ADD PUSH1 0x1 DUP3 ADD SLOAD DUP2 MSTORE PUSH1 0x20 ADD PUSH1 0x2 DUP3 ADD DUP1 SLOAD DUP1 PUSH1 0x20 MUL PUSH1 0x20 ADD PUSH1 0x40 MLOAD SWAP1 DUP2 ADD PUSH1 0x40 MSTORE DUP1 SWAP3 SWAP2 SWAP1 DUP2 DUP2 MSTORE PUSH1 0x20 ADD PUSH1 0x0 SWAP1 JUMPDEST DUP3 DUP3 LT ISZERO PUSH2 0x521 JUMPI DUP4 DUP3 SWAP1 PUSH1 0x0 MSTORE PUSH1 0x20 PUSH1 0x0 KECCAK256 SWAP1 PUSH1 0x5 MUL ADD PUSH1 0x40 MLOAD DUP1 PUSH1 0xA0 ADD PUSH1 0x40 MSTORE SWAP1 DUP2 PUSH1 0x0 DUP3 ADD SLOAD DUP2 MSTORE PUSH1 0x20 ADD PUSH1 0x1 DUP3 ADD PUSH1 0x0 SWAP1 SLOAD SWAP1 PUSH2 0x100 EXP SWAP1 DIV PUSH20 0xFFFFFFFFFFFFFFFFFFFFFFFFFFFFFFFFFFFFFFFF AND PUSH20 0xFFFFFFFFFFFFFFFFFFFFFFFFFFFFFFFFFFFFFFFF AND PUSH20 0xFFFFFFFFFFFFFFFFFFFFFFFFFFFFFFFFFFFFFFFF AND DUP2 MSTORE PUSH1 0x20 ADD PUSH1 0x2 DUP3 ADD SLOAD DUP2 MSTORE PUSH1 0x20 ADD PUSH1 0x3 DUP3 ADD PUSH1 0x0 SWAP1 SLOAD SWAP1 PUSH2 0x100 EXP SWAP1 DIV PUSH1 0xFF AND ISZERO ISZERO ISZERO ISZERO DUP2 MSTORE PUSH1 0x20 ADD PUSH1 0x4 DUP3 ADD DUP1 SLOAD PUSH2 0x490 SWAP1 PUSH2 0x10A7 JUMP JUMPDEST DUP1 PUSH1 0x1F ADD PUSH1 0x20 DUP1 SWAP2 DIV MUL PUSH1 0x20 ADD PUSH1 0x40 MLOAD SWAP1 DUP2 ADD PUSH1 0x40 MSTORE DUP1 SWAP3 SWAP2 SWAP1 DUP2 DUP2 MSTORE PUSH1 0x20 ADD DUP3 DUP1 SLOAD PUSH2 0x4BC SWAP1 PUSH2 0x10A7 JUMP JUMPDEST DUP1 ISZERO PUSH2 0x509 JUMPI DUP1 PUSH1 0x1F LT PUSH2 0x4DE JUMPI PUSH2 0x100 DUP1 DUP4 SLOAD DIV MUL DUP4 MSTORE SWAP2 PUSH1 0x20 ADD SWAP2 PUSH2 0x509 JUMP JUMPDEST DUP3 ADD SWAP2 SWAP1 PUSH1 0x0 MSTORE PUSH1 0x20 PUSH1 0x0 KECCAK256 SWAP1 JUMPDEST DUP2 SLOAD DUP2 MSTORE SWAP1 PUSH1 0x1 ADD SWAP1 PUSH1 0x20 ADD DUP1 DUP4 GT PUSH2 0x4EC JUMPI DUP3 SWAP1 SUB PUSH1 0x1F AND DUP3 ADD SWAP2 JUMPDEST POP POP POP POP POP DUP2 MSTORE POP POP DUP2 MSTORE PUSH1 0x20 ADD SWAP1 PUSH1 0x1 ADD SWAP1 PUSH2 0x3D8 JUMP JUMPDEST POP POP POP POP DUP2 MSTORE PUSH1 0x20 ADD PUSH1 0x3 DUP3 ADD PUSH1 0x0 SWAP1 SLOAD SWAP1 PUSH2 0x100 EXP SWAP1 DIV PUSH1 0xFF AND ISZERO ISZERO ISZERO ISZERO DUP2 MSTORE POP POP SWAP1 POP DUP1 SWAP2 POP POP SWAP1 JUMP JUMPDEST CALLER PUSH1 0x0 JUMPDEST PUSH1 0x2 DUP1 ADD DUP1 SLOAD SWAP1 POP DUP2 LT ISZERO PUSH2 0x66A JUMPI DUP2 PUSH20 0xFFFFFFFFFFFFFFFFFFFFFFFFFFFFFFFFFFFFFFFF AND PUSH1 0x2 DUP1 ADD DUP3 DUP2 SLOAD DUP2 LT PUSH2 0x58D JUMPI PUSH2 0x58C PUSH2 0x11B1 JUMP JUMPDEST JUMPDEST SWAP1 PUSH1 0x0 MSTORE PUSH1 0x20 PUSH1 0x0 KECCAK256 SWAP1 PUSH1 0x5 MUL ADD PUSH1 0x1 ADD PUSH1 0x0 SWAP1 SLOAD SWAP1 PUSH2 0x100 EXP SWAP1 DIV PUSH20 0xFFFFFFFFFFFFFFFFFFFFFFFFFFFFFFFFFFFFFFFF AND PUSH20 0xFFFFFFFFFFFFFFFFFFFFFFFFFFFFFFFFFFFFFFFF AND EQ ISZERO PUSH2 0x657 JUMPI PUSH1 0x0 ISZERO ISZERO PUSH1 0x2 DUP1 ADD DUP3 DUP2 SLOAD DUP2 LT PUSH2 0x5F5 JUMPI PUSH2 0x5F4 PUSH2 0x11B1 JUMP JUMPDEST JUMPDEST SWAP1 PUSH1 0x0 MSTORE PUSH1 0x20 PUSH1 0x0 KECCAK256 SWAP1 PUSH1 0x5 MUL ADD PUSH1 0x3 ADD PUSH1 0x0 SWAP1 SLOAD SWAP1 PUSH2 0x100 EXP SWAP1 DIV PUSH1 0xFF AND ISZERO ISZERO EQ PUSH2 0x656 JUMPI PUSH1 0x40 MLOAD PUSH32 0x8C379A000000000000000000000000000000000000000000000000000000000 DUP2 MSTORE PUSH1 0x4 ADD PUSH2 0x64D SWAP1 PUSH2 0xEE9 JUMP JUMPDEST PUSH1 0x40 MLOAD DUP1 SWAP2 SUB SWAP1 REVERT JUMPDEST JUMPDEST DUP1 DUP1 PUSH2 0x662 SWAP1 PUSH2 0x110A JUMP JUMPDEST SWAP2 POP POP PUSH2 0x551 JUMP JUMPDEST POP PUSH1 0x2 PUSH1 0x0 ADD PUSH1 0x0 SWAP1 SLOAD SWAP1 PUSH2 0x100 EXP SWAP1 DIV PUSH20 0xFFFFFFFFFFFFFFFFFFFFFFFFFFFFFFFFFFFFFFFF AND PUSH20 0xFFFFFFFFFFFFFFFFFFFFFFFFFFFFFFFFFFFFFFFF AND CALLER PUSH20 0xFFFFFFFFFFFFFFFFFFFFFFFFFFFFFFFFFFFFFFFF AND EQ ISZERO PUSH2 0x6FF JUMPI PUSH1 0x40 MLOAD PUSH32 0x8C379A000000000000000000000000000000000000000000000000000000000 DUP2 MSTORE PUSH1 0x4 ADD PUSH2 0x6F6 SWAP1 PUSH2 0xEA9 JUMP JUMPDEST PUSH1 0x40 MLOAD DUP1 SWAP2 SUB SWAP1 REVERT JUMPDEST PUSH1 0x1 ISZERO ISZERO PUSH1 0x2 PUSH1 0x3 ADD PUSH1 0x0 SWAP1 SLOAD SWAP1 PUSH2 0x100 EXP SWAP1 DIV PUSH1 0xFF AND ISZERO ISZERO EQ PUSH2 0x758 JUMPI PUSH1 0x40 MLOAD PUSH32 0x8C379A000000000000000000000000000000000000000000000000000000000 DUP2 MSTORE PUSH1 0x4 ADD PUSH2 0x74F SWAP1 PUSH2 0xEC9 JUMP JUMPDEST PUSH1 0x40 MLOAD DUP1 SWAP2 SUB SWAP1 REVERT JUMPDEST PUSH8 0xDE0B6B3A7640000 CALLVALUE LT ISZERO PUSH2 0x7A3 JUMPI PUSH1 0x40 MLOAD PUSH32 0x8C379A000000000000000000000000000000000000000000000000000000000 DUP2 MSTORE PUSH1 0x4 ADD PUSH2 0x79A SWAP1 PUSH2 0xE89 JUMP JUMPDEST PUSH1 0x40 MLOAD DUP1 SWAP2 SUB SWAP1 REVERT JUMPDEST PUSH1 0x0 PUSH1 0x40 MLOAD DUP1 PUSH1 0xA0 ADD PUSH1 0x40 MSTORE DUP1 PUSH1 0x2 PUSH1 0x1 ADD SLOAD DUP2 MSTORE PUSH1 0x20 ADD CALLER PUSH20 0xFFFFFFFFFFFFFFFFFFFFFFFFFFFFFFFFFFFFFFFF AND DUP2 MSTORE PUSH1 0x20 ADD CALLVALUE DUP2 MSTORE PUSH1 0x20 ADD PUSH1 0x1 ISZERO ISZERO DUP2 MSTORE PUSH1 0x20 ADD DUP5 DUP2 MSTORE POP SWAP1 POP PUSH1 0x2 DUP1 ADD DUP2 SWAP1 DUP1 PUSH1 0x1 DUP2 SLOAD ADD DUP1 DUP3 SSTORE DUP1 SWAP2 POP POP PUSH1 0x1 SWAP1 SUB SWAP1 PUSH1 0x0 MSTORE PUSH1 0x20 PUSH1 0x0 KECCAK256 SWAP1 PUSH1 0x5 MUL ADD PUSH1 0x0 SWAP1 SWAP2 SWAP1 SWAP2 SWAP1 SWAP2 POP PUSH1 0x0 DUP3 ADD MLOAD DUP2 PUSH1 0x0 ADD SSTORE PUSH1 0x20 DUP3 ADD MLOAD DUP2 PUSH1 0x1 ADD PUSH1 0x0 PUSH2 0x100 EXP DUP2 SLOAD DUP2 PUSH20 0xFFFFFFFFFFFFFFFFFFFFFFFFFFFFFFFFFFFFFFFF MUL NOT AND SWAP1 DUP4 PUSH20 0xFFFFFFFFFFFFFFFFFFFFFFFFFFFFFFFFFFFFFFFF AND MUL OR SWAP1 SSTORE POP PUSH1 0x40 DUP3 ADD MLOAD DUP2 PUSH1 0x2 ADD SSTORE PUSH1 0x60 DUP3 ADD MLOAD DUP2 PUSH1 0x3 ADD PUSH1 0x0 PUSH2 0x100 EXP DUP2 SLOAD DUP2 PUSH1 0xFF MUL NOT AND SWAP1 DUP4 ISZERO ISZERO MUL OR SWAP1 SSTORE POP PUSH1 0x80 DUP3 ADD MLOAD DUP2 PUSH1 0x4 ADD SWAP1 DUP1 MLOAD SWAP1 PUSH1 0x20 ADD SWAP1 PUSH2 0x8B1 SWAP3 SWAP2 SWAP1 PUSH2 0x94A JUMP JUMPDEST POP POP POP CALLER PUSH20 0xFFFFFFFFFFFFFFFFFFFFFFFFFFFFFFFFFFFFFFFF AND PUSH32 0xDDFB2FEDDC5D790102A7ACE30F913D50A3AA3C144B2D798895B380433373E05A DUP5 PUSH1 0x40 MLOAD PUSH2 0x8FA SWAP2 SWAP1 PUSH2 0xE67 JUMP JUMPDEST PUSH1 0x40 MLOAD DUP1 SWAP2 SUB SWAP1 LOG2 POP POP POP JUMP JUMPDEST PUSH1 0x40 MLOAD DUP1 PUSH1 0x80 ADD PUSH1 0x40 MSTORE DUP1 PUSH1 0x0 PUSH20 0xFFFFFFFFFFFFFFFFFFFFFFFFFFFFFFFFFFFFFFFF AND DUP2 MSTORE PUSH1 0x20 ADD PUSH1 0x0 DUP1 NOT AND DUP2 MSTORE PUSH1 0x20 ADD PUSH1 0x60 DUP2 MSTORE PUSH1 0x20 ADD PUSH1 0x0 ISZERO ISZERO DUP2 MSTORE POP SWAP1 JUMP JUMPDEST DUP3 DUP1 SLOAD PUSH2 0x956 SWAP1 PUSH2 0x10A7 JUMP JUMPDEST SWAP1 PUSH1 0x0 MSTORE PUSH1 0x20 PUSH1 0x0 KECCAK256 SWAP1 PUSH1 0x1F ADD PUSH1 0x20 SWAP1 DIV DUP2 ADD SWAP3 DUP3 PUSH2 0x978 JUMPI PUSH1 0x0 DUP6 SSTORE PUSH2 0x9BF JUMP JUMPDEST DUP3 PUSH1 0x1F LT PUSH2 0x991 JUMPI DUP1 MLOAD PUSH1 0xFF NOT AND DUP4 DUP1 ADD OR DUP6 SSTORE PUSH2 0x9BF JUMP JUMPDEST DUP3 DUP1 ADD PUSH1 0x1 ADD DUP6 SSTORE DUP3 ISZERO PUSH2 0x9BF JUMPI SWAP2 DUP3 ADD JUMPDEST DUP3 DUP2 GT ISZERO PUSH2 0x9BE JUMPI DUP3 MLOAD DUP3 SSTORE SWAP2 PUSH1 0x20 ADD SWAP2 SWAP1 PUSH1 0x1 ADD SWAP1 PUSH2 0x9A3 JUMP JUMPDEST JUMPDEST POP SWAP1 POP PUSH2 0x9CC SWAP2 SWAP1 PUSH2 0x9D0 JUMP JUMPDEST POP SWAP1 JUMP JUMPDEST JUMPDEST DUP1 DUP3 GT ISZERO PUSH2 0x9E9 JUMPI PUSH1 0x0 DUP2 PUSH1 0x0 SWAP1 SSTORE POP PUSH1 0x1 ADD PUSH2 0x9D1 JUMP JUMPDEST POP SWAP1 JUMP JUMPDEST PUSH1 0x0 PUSH2 0xA00 PUSH2 0x9FB DUP5 PUSH2 0xF6B JUMP JUMPDEST PUSH2 0xF46 JUMP JUMPDEST SWAP1 POP DUP3 DUP2 MSTORE PUSH1 0x20 DUP2 ADD DUP5 DUP5 DUP5 ADD GT ISZERO PUSH2 0xA1C JUMPI PUSH2 0xA1B PUSH2 0x1214 JUMP JUMPDEST JUMPDEST PUSH2 0xA27 DUP5 DUP3 DUP6 PUSH2 0x1065 JUMP JUMPDEST POP SWAP4 SWAP3 POP POP POP JUMP JUMPDEST PUSH1 0x0 DUP3 PUSH1 0x1F DUP4 ADD SLT PUSH2 0xA44 JUMPI PUSH2 0xA43 PUSH2 0x120F JUMP JUMPDEST JUMPDEST DUP2 CALLDATALOAD PUSH2 0xA54 DUP5 DUP3 PUSH1 0x20 DUP7 ADD PUSH2 0x9ED JUMP JUMPDEST SWAP2 POP POP SWAP3 SWAP2 POP POP JUMP JUMPDEST PUSH1 0x0 PUSH1 0x20 DUP3 DUP5 SUB SLT ISZERO PUSH2 0xA73 JUMPI PUSH2 0xA72 PUSH2 0x121E JUMP JUMPDEST JUMPDEST PUSH1 0x0 DUP3 ADD CALLDATALOAD PUSH8 0xFFFFFFFFFFFFFFFF DUP2 GT ISZERO PUSH2 0xA91 JUMPI PUSH2 0xA90 PUSH2 0x1219 JUMP JUMPDEST JUMPDEST PUSH2 0xA9D DUP5 DUP3 DUP6 ADD PUSH2 0xA2F JUMP JUMPDEST SWAP2 POP POP SWAP3 SWAP2 POP POP JUMP JUMPDEST PUSH1 0x0 PUSH2 0xAB2 DUP4 DUP4 PUSH2 0xD5F JUMP JUMPDEST SWAP1 POP SWAP3 SWAP2 POP POP JUMP JUMPDEST PUSH2 0xAC3 DUP2 PUSH2 0x1013 JUMP JUMPDEST DUP3 MSTORE POP POP JUMP JUMPDEST PUSH2 0xAD2 DUP2 PUSH2 0x1013 JUMP JUMPDEST DUP3 MSTORE POP POP JUMP JUMPDEST PUSH1 0x0 PUSH2 0xAE3 DUP3 PUSH2 0xFAC JUMP JUMPDEST PUSH2 0xAED DUP2 DUP6 PUSH2 0xFCF JUMP JUMPDEST SWAP4 POP DUP4 PUSH1 0x20 DUP3 MUL DUP6 ADD PUSH2 0xAFF DUP6 PUSH2 0xF9C JUMP JUMPDEST DUP1 PUSH1 0x0 JUMPDEST DUP6 DUP2 LT ISZERO PUSH2 0xB3B JUMPI DUP5 DUP5 SUB DUP10 MSTORE DUP2 MLOAD PUSH2 0xB1C DUP6 DUP3 PUSH2 0xAA6 JUMP JUMPDEST SWAP5 POP PUSH2 0xB27 DUP4 PUSH2 0xFC2 JUMP JUMPDEST SWAP3 POP PUSH1 0x20 DUP11 ADD SWAP10 POP POP PUSH1 0x1 DUP2 ADD SWAP1 POP PUSH2 0xB03 JUMP JUMPDEST POP DUP3 SWAP8 POP DUP8 SWAP6 POP POP POP POP POP POP SWAP3 SWAP2 POP POP JUMP JUMPDEST PUSH1 0x0 PUSH2 0xB58 DUP3 PUSH2 0xFAC JUMP JUMPDEST PUSH2 0xB62 DUP2 DUP6 PUSH2 0xFE0 JUMP JUMPDEST SWAP4 POP DUP4 PUSH1 0x20 DUP3 MUL DUP6 ADD PUSH2 0xB74 DUP6 PUSH2 0xF9C JUMP JUMPDEST DUP1 PUSH1 0x0 JUMPDEST DUP6 DUP2 LT ISZERO PUSH2 0xBB0 JUMPI DUP5 DUP5 SUB DUP10 MSTORE DUP2 MLOAD PUSH2 0xB91 DUP6 DUP3 PUSH2 0xAA6 JUMP JUMPDEST SWAP5 POP PUSH2 0xB9C DUP4 PUSH2 0xFC2 JUMP JUMPDEST SWAP3 POP PUSH1 0x20 DUP11 ADD SWAP10 POP POP PUSH1 0x1 DUP2 ADD SWAP1 POP PUSH2 0xB78 JUMP JUMPDEST POP DUP3 SWAP8 POP DUP8 SWAP6 POP POP POP POP POP POP SWAP3 SWAP2 POP POP JUMP JUMPDEST PUSH2 0xBCB DUP2 PUSH2 0x1025 JUMP JUMPDEST DUP3 MSTORE POP POP JUMP JUMPDEST PUSH2 0xBDA DUP2 PUSH2 0x1025 JUMP JUMPDEST DUP3 MSTORE POP POP JUMP JUMPDEST PUSH2 0xBE9 DUP2 PUSH2 0x1031 JUMP JUMPDEST DUP3 MSTORE POP POP JUMP JUMPDEST PUSH2 0xBF8 DUP2 PUSH2 0x1031 JUMP JUMPDEST DUP3 MSTORE POP POP JUMP JUMPDEST PUSH1 0x0 PUSH2 0xC09 DUP3 PUSH2 0xFB7 JUMP JUMPDEST PUSH2 0xC13 DUP2 DUP6 PUSH2 0xFF1 JUMP JUMPDEST SWAP4 POP PUSH2 0xC23 DUP2 DUP6 PUSH1 0x20 DUP7 ADD PUSH2 0x1074 JUMP JUMPDEST PUSH2 0xC2C DUP2 PUSH2 0x1223 JUMP JUMPDEST DUP5 ADD SWAP2 POP POP SWAP3 SWAP2 POP POP JUMP JUMPDEST PUSH1 0x0 PUSH2 0xC42 DUP3 PUSH2 0xFB7 JUMP JUMPDEST PUSH2 0xC4C DUP2 DUP6 PUSH2 0x1002 JUMP JUMPDEST SWAP4 POP PUSH2 0xC5C DUP2 DUP6 PUSH1 0x20 DUP7 ADD PUSH2 0x1074 JUMP JUMPDEST PUSH2 0xC65 DUP2 PUSH2 0x1223 JUMP JUMPDEST DUP5 ADD SWAP2 POP POP SWAP3 SWAP2 POP POP JUMP JUMPDEST PUSH1 0x0 PUSH2 0xC7D PUSH1 0x18 DUP4 PUSH2 0x1002 JUMP JUMPDEST SWAP2 POP PUSH2 0xC88 DUP3 PUSH2 0x1234 JUMP JUMPDEST PUSH1 0x20 DUP3 ADD SWAP1 POP SWAP2 SWAP1 POP JUMP JUMPDEST PUSH1 0x0 PUSH2 0xCA0 PUSH1 0x1A DUP4 PUSH2 0x1002 JUMP JUMPDEST SWAP2 POP PUSH2 0xCAB DUP3 PUSH2 0x125D JUMP JUMPDEST PUSH1 0x20 DUP3 ADD SWAP1 POP SWAP2 SWAP1 POP JUMP JUMPDEST PUSH1 0x0 PUSH2 0xCC3 PUSH1 0x17 DUP4 PUSH2 0x1002 JUMP JUMPDEST SWAP2 POP PUSH2 0xCCE DUP3 PUSH2 0x1286 JUMP JUMPDEST PUSH1 0x20 DUP3 ADD SWAP1 POP SWAP2 SWAP1 POP JUMP JUMPDEST PUSH1 0x0 PUSH2 0xCE6 PUSH1 0x13 DUP4 PUSH2 0x1002 JUMP JUMPDEST SWAP2 POP PUSH2 0xCF1 DUP3 PUSH2 0x12AF JUMP JUMPDEST PUSH1 0x20 DUP3 ADD SWAP1 POP SWAP2 SWAP1 POP JUMP JUMPDEST PUSH1 0x0 PUSH1 0x80 DUP4 ADD PUSH1 0x0 DUP4 ADD MLOAD PUSH2 0xD14 PUSH1 0x0 DUP7 ADD DUP3 PUSH2 0xABA JUMP JUMPDEST POP PUSH1 0x20 DUP4 ADD MLOAD PUSH2 0xD27 PUSH1 0x20 DUP7 ADD DUP3 PUSH2 0xBE0 JUMP JUMPDEST POP PUSH1 0x40 DUP4 ADD MLOAD DUP5 DUP3 SUB PUSH1 0x40 DUP7 ADD MSTORE PUSH2 0xD3F DUP3 DUP3 PUSH2 0xAD8 JUMP JUMPDEST SWAP2 POP POP PUSH1 0x60 DUP4 ADD MLOAD PUSH2 0xD54 PUSH1 0x60 DUP7 ADD DUP3 PUSH2 0xBC2 JUMP JUMPDEST POP DUP1 SWAP2 POP POP SWAP3 SWAP2 POP POP JUMP JUMPDEST PUSH1 0x0 PUSH1 0xA0 DUP4 ADD PUSH1 0x0 DUP4 ADD MLOAD PUSH2 0xD77 PUSH1 0x0 DUP7 ADD DUP3 PUSH2 0xBE0 JUMP JUMPDEST POP PUSH1 0x20 DUP4 ADD MLOAD PUSH2 0xD8A PUSH1 0x20 DUP7 ADD DUP3 PUSH2 0xABA JUMP JUMPDEST POP PUSH1 0x40 DUP4 ADD MLOAD PUSH2 0xD9D PUSH1 0x40 DUP7 ADD DUP3 PUSH2 0xDD5 JUMP JUMPDEST POP PUSH1 0x60 DUP4 ADD MLOAD PUSH2 0xDB0 PUSH1 0x60 DUP7 ADD DUP3 PUSH2 0xBC2 JUMP JUMPDEST POP PUSH1 0x80 DUP4 ADD MLOAD DUP5 DUP3 SUB PUSH1 0x80 DUP7 ADD MSTORE PUSH2 0xDC8 DUP3 DUP3 PUSH2 0xBFE JUMP JUMPDEST SWAP2 POP POP DUP1 SWAP2 POP POP SWAP3 SWAP2 POP POP JUMP JUMPDEST PUSH2 0xDDE DUP2 PUSH2 0x105B JUMP JUMPDEST DUP3 MSTORE POP POP JUMP JUMPDEST PUSH2 0xDED DUP2 PUSH2 0x105B JUMP JUMPDEST DUP3 MSTORE POP POP JUMP JUMPDEST PUSH1 0x0 PUSH1 0x20 DUP3 ADD SWAP1 POP PUSH2 0xE08 PUSH1 0x0 DUP4 ADD DUP5 PUSH2 0xAC9 JUMP JUMPDEST SWAP3 SWAP2 POP POP JUMP JUMPDEST PUSH1 0x0 PUSH1 0x60 DUP3 ADD SWAP1 POP PUSH2 0xE23 PUSH1 0x0 DUP4 ADD DUP7 PUSH2 0xAC9 JUMP JUMPDEST PUSH2 0xE30 PUSH1 0x20 DUP4 ADD DUP6 PUSH2 0xBEF JUMP JUMPDEST PUSH2 0xE3D PUSH1 0x40 DUP4 ADD DUP5 PUSH2 0xBD1 JUMP JUMPDEST SWAP5 SWAP4 POP POP POP POP JUMP JUMPDEST PUSH1 0x0 PUSH1 0x20 DUP3 ADD SWAP1 POP DUP2 DUP2 SUB PUSH1 0x0 DUP4 ADD MSTORE PUSH2 0xE5F DUP2 DUP5 PUSH2 0xB4D JUMP JUMPDEST SWAP1 POP SWAP3 SWAP2 POP POP JUMP JUMPDEST PUSH1 0x0 PUSH1 0x20 DUP3 ADD SWAP1 POP DUP2 DUP2 SUB PUSH1 0x0 DUP4 ADD MSTORE PUSH2 0xE81 DUP2 DUP5 PUSH2 0xC37 JUMP JUMPDEST SWAP1 POP SWAP3 SWAP2 POP POP JUMP JUMPDEST PUSH1 0x0 PUSH1 0x20 DUP3 ADD SWAP1 POP DUP2 DUP2 SUB PUSH1 0x0 DUP4 ADD MSTORE PUSH2 0xEA2 DUP2 PUSH2 0xC70 JUMP JUMPDEST SWAP1 POP SWAP2 SWAP1 POP JUMP JUMPDEST PUSH1 0x0 PUSH1 0x20 DUP3 ADD SWAP1 POP DUP2 DUP2 SUB PUSH1 0x0 DUP4 ADD MSTORE PUSH2 0xEC2 DUP2 PUSH2 0xC93 JUMP JUMPDEST SWAP1 POP SWAP2 SWAP1 POP JUMP JUMPDEST PUSH1 0x0 PUSH1 0x20 DUP3 ADD SWAP1 POP DUP2 DUP2 SUB PUSH1 0x0 DUP4 ADD MSTORE PUSH2 0xEE2 DUP2 PUSH2 0xCB6 JUMP JUMPDEST SWAP1 POP SWAP2 SWAP1 POP JUMP JUMPDEST PUSH1 0x0 PUSH1 0x20 DUP3 ADD SWAP1 POP DUP2 DUP2 SUB PUSH1 0x0 DUP4 ADD MSTORE PUSH2 0xF02 DUP2 PUSH2 0xCD9 JUMP JUMPDEST SWAP1 POP SWAP2 SWAP1 POP JUMP JUMPDEST PUSH1 0x0 PUSH1 0x20 DUP3 ADD SWAP1 POP DUP2 DUP2 SUB PUSH1 0x0 DUP4 ADD MSTORE PUSH2 0xF23 DUP2 DUP5 PUSH2 0xCFC JUMP JUMPDEST SWAP1 POP SWAP3 SWAP2 POP POP JUMP JUMPDEST PUSH1 0x0 PUSH1 0x20 DUP3 ADD SWAP1 POP PUSH2 0xF40 PUSH1 0x0 DUP4 ADD DUP5 PUSH2 0xDE4 JUMP JUMPDEST SWAP3 SWAP2 POP POP JUMP JUMPDEST PUSH1 0x0 PUSH2 0xF50 PUSH2 0xF61 JUMP JUMPDEST SWAP1 POP PUSH2 0xF5C DUP3 DUP3 PUSH2 0x10D9 JUMP JUMPDEST SWAP2 SWAP1 POP JUMP JUMPDEST PUSH1 0x0 PUSH1 0x40 MLOAD SWAP1 POP SWAP1 JUMP JUMPDEST PUSH1 0x0 PUSH8 0xFFFFFFFFFFFFFFFF DUP3 GT ISZERO PUSH2 0xF86 JUMPI PUSH2 0xF85 PUSH2 0x11E0 JUMP JUMPDEST JUMPDEST PUSH2 0xF8F DUP3 PUSH2 0x1223 JUMP JUMPDEST SWAP1 POP PUSH1 0x20 DUP2 ADD SWAP1 POP SWAP2 SWAP1 POP JUMP JUMPDEST PUSH1 0x0 DUP2 SWAP1 POP PUSH1 0x20 DUP3 ADD SWAP1 POP SWAP2 SWAP1 POP JUMP JUMPDEST PUSH1 0x0 DUP2 MLOAD SWAP1 POP SWAP2 SWAP1 POP JUMP JUMPDEST PUSH1 0x0 DUP2 MLOAD SWAP1 POP SWAP2 SWAP1 POP JUMP JUMPDEST PUSH1 0x0 PUSH1 0x20 DUP3 ADD SWAP1 POP SWAP2 SWAP1 POP JUMP JUMPDEST PUSH1 0x0 DUP3 DUP3 MSTORE PUSH1 0x20 DUP3 ADD SWAP1 POP SWAP3 SWAP2 POP POP JUMP JUMPDEST PUSH1 0x0 DUP3 DUP3 MSTORE PUSH1 0x20 DUP3 ADD SWAP1 POP SWAP3 SWAP2 POP POP JUMP JUMPDEST PUSH1 0x0 DUP3 DUP3 MSTORE PUSH1 0x20 DUP3 ADD SWAP1 POP SWAP3 SWAP2 POP POP JUMP JUMPDEST PUSH1 0x0 DUP3 DUP3 MSTORE PUSH1 0x20 DUP3 ADD SWAP1 POP SWAP3 SWAP2 POP POP JUMP JUMPDEST PUSH1 0x0 PUSH2 0x101E DUP3 PUSH2 0x103B JUMP JUMPDEST SWAP1 POP SWAP2 SWAP1 POP JUMP JUMPDEST PUSH1 0x0 DUP2 ISZERO ISZERO SWAP1 POP SWAP2 SWAP1 POP JUMP JUMPDEST PUSH1 0x0 DUP2 SWAP1 POP SWAP2 SWAP1 POP JUMP JUMPDEST PUSH1 0x0 PUSH20 0xFFFFFFFFFFFFFFFFFFFFFFFFFFFFFFFFFFFFFFFF DUP3 AND SWAP1 POP SWAP2 SWAP1 POP JUMP JUMPDEST PUSH1 0x0 DUP2 SWAP1 POP SWAP2 SWAP1 POP JUMP JUMPDEST DUP3 DUP2 DUP4 CALLDATACOPY PUSH1 0x0 DUP4 DUP4 ADD MSTORE POP POP POP JUMP JUMPDEST PUSH1 0x0 JUMPDEST DUP4 DUP2 LT ISZERO PUSH2 0x1092 JUMPI DUP1 DUP3 ADD MLOAD DUP2 DUP5 ADD MSTORE PUSH1 0x20 DUP2 ADD SWAP1 POP PUSH2 0x1077 JUMP JUMPDEST DUP4 DUP2 GT ISZERO PUSH2 0x10A1 JUMPI PUSH1 0x0 DUP5 DUP5 ADD MSTORE JUMPDEST POP POP POP POP JUMP JUMPDEST PUSH1 0x0 PUSH1 0x2 DUP3 DIV SWAP1 POP PUSH1 0x1 DUP3 AND DUP1 PUSH2 0x10BF JUMPI PUSH1 0x7F DUP3 AND SWAP2 POP JUMPDEST PUSH1 0x20 DUP3 LT DUP2 EQ ISZERO PUSH2 0x10D3 JUMPI PUSH2 0x10D2 PUSH2 0x1182 JUMP JUMPDEST JUMPDEST POP SWAP2 SWAP1 POP JUMP JUMPDEST PUSH2 0x10E2 DUP3 PUSH2 0x1223 JUMP JUMPDEST DUP2 ADD DUP2 DUP2 LT PUSH8 0xFFFFFFFFFFFFFFFF DUP3 GT OR ISZERO PUSH2 0x1101 JUMPI PUSH2 0x1100 PUSH2 0x11E0 JUMP JUMPDEST JUMPDEST DUP1 PUSH1 0x40 MSTORE POP POP POP JUMP JUMPDEST PUSH1 0x0 PUSH2 0x1115 DUP3 PUSH2 0x105B JUMP JUMPDEST SWAP2 POP PUSH32 0xFFFFFFFFFFFFFFFFFFFFFFFFFFFFFFFFFFFFFFFFFFFFFFFFFFFFFFFFFFFFFFFF DUP3 EQ ISZERO PUSH2 0x1148 JUMPI PUSH2 0x1147 PUSH2 0x1153 JUMP JUMPDEST JUMPDEST PUSH1 0x1 DUP3 ADD SWAP1 POP SWAP2 SWAP1 POP JUMP JUMPDEST PUSH32 0x4E487B7100000000000000000000000000000000000000000000000000000000 PUSH1 0x0 MSTORE PUSH1 0x11 PUSH1 0x4 MSTORE PUSH1 0x24 PUSH1 0x0 REVERT JUMPDEST PUSH32 0x4E487B7100000000000000000000000000000000000000000000000000000000 PUSH1 0x0 MSTORE PUSH1 0x22 PUSH1 0x4 MSTORE PUSH1 0x24 PUSH1 0x0 REVERT JUMPDEST PUSH32 0x4E487B7100000000000000000000000000000000000000000000000000000000 PUSH1 0x0 MSTORE PUSH1 0x32 PUSH1 0x4 MSTORE PUSH1 0x24 PUSH1 0x0 REVERT JUMPDEST PUSH32 0x4E487B7100000000000000000000000000000000000000000000000000000000 PUSH1 0x0 MSTORE PUSH1 0x41 PUSH1 0x4 MSTORE PUSH1 0x24 PUSH1 0x0 REVERT JUMPDEST PUSH1 0x0 DUP1 REVERT JUMPDEST PUSH1 0x0 DUP1 REVERT JUMPDEST PUSH1 0x0 DUP1 REVERT JUMPDEST PUSH1 0x0 DUP1 REVERT JUMPDEST PUSH1 0x0 PUSH1 0x1F NOT PUSH1 0x1F DUP4 ADD AND SWAP1 POP SWAP2 SWAP1 POP JUMP JUMPDEST PUSH32 0x6D6F7265207468616E2073656E642074686520746F6B656E0000000000000000 PUSH1 0x0 DUP3 ADD MSTORE POP JUMP JUMPDEST PUSH32 0x6368616972706572736F6E206973206E6F7420616C7269677468000000000000 PUSH1 0x0 DUP3 ADD MSTORE POP JUMP JUMPDEST PUSH32 0x63757272656E742070726F706F73616C20636C6F736564000000000000000000 PUSH1 0x0 DUP3 ADD MSTORE POP JUMP JUMPDEST PUSH32 0x766F74657220616C726561647920766F74656400000000000000000000000000 PUSH1 0x0 DUP3 ADD MSTORE POP JUMP INVALID LOG2 PUSH5 0x6970667358 0x22 SLT KECCAK256 BALANCE 0xBA 0x25 0xC0 0xC0 PUSH5 0x583B7B83A8 0xB4 CALLDATASIZE MLOAD GT 0x27 0xD0 POP LOG3 0xE7 BYTE PUSH31 0xC7C69D221D0E450B395364736F6C63430008070033A2646970667358221220 0xD1 0x4F JUMPDEST DUP13 0x29 PUSH29 0x8E98365174DEA2998102FCE0F82092FBB2F43B3EAA6B7FBF7A2F64736F PUSH13 0x63430008070033000000000000 "
		},
		"gasEstimates": {
			"creation": {
				"codeDepositCost": "1781000",
				"executionCost": "1877",
				"totalCost": "1782877"
			},
			"external": {
				"subVote(address,string)": "infinite",
				"subVoteUnionId(address)": "infinite",
				"voteFactory(bytes32)": "infinite",
				"votes(uint256)": "5042"
			}
		},
		"methodIdentifiers": {
			"subVote(address,string)": "96b3ec47",
			"subVoteUnionId(address)": "cacea98b",
			"voteFactory(bytes32)": "44d9d138",
			"votes(uint256)": "5df81330"
		}
	},
	"abi": [
		{
			"inputs": [
				{
					"internalType": "address",
					"name": "_addr",
					"type": "address"
				},
				{
					"internalType": "string",
					"name": "answer",
					"type": "string"
				}
			],
			"name": "subVote",
			"outputs": [],
			"stateMutability": "nonpayable",
			"type": "function"
		},
		{
			"inputs": [
				{
					"internalType": "address",
					"name": "_addr",
					"type": "address"
				}
			],
			"name": "subVoteUnionId",
			"outputs": [
				{
					"components": [
						{
							"internalType": "address",
							"name": "chairperson",
							"type": "address"
						},
						{
							"internalType": "bytes32",
							"name": "UnionId",
							"type": "bytes32"
						},
						{
							"components": [
								{
									"internalType": "bytes32",
									"name": "unionId",
									"type": "bytes32"
								},
								{
									"internalType": "address",
									"name": "addr",
									"type": "address"
								},
								{
									"internalType": "uint256",
									"name": "asset",
									"type": "uint256"
								},
								{
									"internalType": "bool",
									"name": "voted",
									"type": "bool"
								},
								{
									"internalType": "string",
									"name": "answer",
									"type": "string"
								}
							],
							"internalType": "struct Votes.Voter[]",
							"name": "Voters",
							"type": "tuple[]"
						},
						{
							"internalType": "bool",
							"name": "open",
							"type": "bool"
						}
					],
					"internalType": "struct Votes.Proposal",
					"name": "",
					"type": "tuple"
				}
			],
			"stateMutability": "view",
			"type": "function"
		},
		{
			"inputs": [
				{
					"internalType": "bytes32",
					"name": "unionId",
					"type": "bytes32"
				}
			],
			"name": "voteFactory",
			"outputs": [],
			"stateMutability": "nonpayable",
			"type": "function"
		},
		{
			"inputs": [
				{
					"internalType": "uint256",
					"name": "",
					"type": "uint256"
				}
			],
			"name": "votes",
			"outputs": [
				{
					"internalType": "contract Votes",
					"name": "",
					"type": "address"
				}
			],
			"stateMutability": "view",
			"type": "function"
		}
	]
}